100   62443100313529540000000000032100000000032100002000000010410406300320355035557551770630000007413822   1030000200030000   333800010001203104000003327KBZPay                 Yangon        MMR11006300320355035550630000000000000000   10300001F05104100000000006741000000000000     
100   62911028202421040000000000028500000000028500002000000010410406300911568770214773800630435411556180   1030000900030000   541119001151190110000000930OCEAN HTY C 1          YANGONTHARYA  MMR11006300911568770210630000000000000000   10300001F00104100000000001710000000000000     
100   95050316818236190000000000001960000000001960002000000010410406300956492649485331190630000007417456   1020000200030000   333400010001204104000000281Myanmar Soft-Gate Tech Yangon        MMR11006300956492649480630000000000000000   10300001F05104100000000000412000000000000     
100   95050317741619680000000000054000000000054000002000000010410406300654272427141032640630000007415690   1030000200030000   333800010001203104000003327KBZPay                 Yangon        MMR11006300654272427140630000000000000000   10300001F05104100000000011340000000000000     
100   95050311959900780000000000000980000000000980002000000010410406300310314031557807060630000007413707   1020000200030000   333400010001204104000000281Myanmar Soft-Gate Tech Yangon        MMR11006300310314031550630000000000000000   10300001F05104100000000000206000000000000     
100   95050319502933380000000000000980000000000980002000000010410406301521485148126953730630000007419128   1020000200030000   333400010001204104000000281Myanmar Soft-Gate Tech Yangon        MMR11006301521485148120630000000000000000   10300001F05104100000000000206000000000000     
100   95030319588829360000000000319700000000319700002000000010410406300350478657874773800630091201047180   1030000900030000   541119001220190110000000945City Mart TM C 5       YANGONONE     MMR11006300350478657870630000000000000000   10300001F00104100000000019182000000000000     
100   95050321379436960000000000041700000000041700002000000010410406301202492246724024800630218119224672   1040001600030000   541120000573000000010000465Ocean Shwe Gone Daing  Yangon        MMR11006301202492246720630000000000000000   10300001F00104100000000010425000000000000     
100   95050314064416890000000000001960000000001960002000000010410406300008273827035281750630000007413001   1020000200030000   333400010001204104000000281Myanmar Soft-Gate Tech Yangon        MMR11006300008273827030630000000000000000   10300001F05104100000000000412000000000000     
100   95050310332595380000000000000980000000000980002000000010410406301324565456677925450630000007418599   1020000200030000   333400010001204104000000281Myanmar Soft-Gate Tech Yangon        MMR11006301324565456670630000000000000000   10300001F05104100000000000206000000000000     
100   95050322776307310000000000034000000000034000002000000010410406300429338671774027170630844591033180   1030000900030000   591219000503190110000000350Shwe Ohh Pharmacy (WZD YANGONNGKUUN  MMR11006300429338671770630000000000000000   10300001F00104100000000008160000000000000     
100   95030378062733680000000000038598000000038598002000000010410406300704478727804773800630063341347180   1030000900030000   541119001330190110000000971Ocean Junction NPT C 8 NAYPYITAW     MMR11006300704478727800630000000000000000   10300001F00104100000000002316000000000000     
100   95050313732480420000000000002940000000002940002000000010410406300256502650719034060630000007413570   1020000200030000   333400010001204104000000281Myanmar Soft-Gate Tech Yangon        MMR11006300256502650710630000000000000000   10300001F05104100000000000617000000000000     
100   95050312695033440000000000000980000000000980002000000010410406292356532653696934230630000007412982   1020000200030000   333400010001204104000000281Myanmar Soft-Gate Tech Yangon        MMR11006292356532653690630000000000000000   10300001F05104100000000000206000000000000     
100   95030367537085740000000000000980000000000980002000000010410406300858252825364773800630000007416937   1020000200030000   333400010001204104000000281Myanmar Soft-Gate Tech Yangon        MMR11006300858252825360630000000000000000   10300001F05104100000000000206000000000000     
100   62443100378297160000000000009800000000009800002000000010410406301302213221788180740630000007418484   1020000200030000   333400010001204104000000281Myanmar Soft-Gate Tech Yangon        MMR11006301302213221780630000000000000000   10300001F05104100000000002058000000000000     
100   62443101063232860000000000045001000000045001002000000010410406300758482070823777590630218114207082   1040001600030000   598320000310000000010000298PT Power Petrol Statio Yangon        MMR11006300758482070820630000000000000000   10300001F00104100000000005400000000000000     
100   62911028202241440000000000051300000000051300002000000010410406301203502247664773800630218119224766   1040001600030000   591220000288000000010000276Shwe Ohh Pharmacy (Nor Yangon        MMR11006301203502247660630000000000000000   10300001F00104100000000003078000000000000     
100   95050316812885810000000000000980000000000980002000000010410406301327225722449577930630000007418605   1020000200030000   333400010001204104000000281Myanmar Soft-Gate Tech Yangon        MMR11006301327225722440630000000000000000   10300001F05104100000000000206000000000000     
100   95050314931885730000000000000980000000000980002000000010410406300422365236899410100630000007414392   1020000200030000   333400010001204104000000281Myanmar Soft-Gate Tech Yangon        MMR11006300422365236890630000000000000000   10300001F05104100000000000206000000000000     
100   62911028202489110000000000070000000000070000002000000010410406300825458755014773800630604551445180   1030000900030000   541119001464190110000000077Sein Gay Har Chinatown YANGON        MMR11006300825458755010630000000000000000   10300001F00104100000000004200000000000000     
100   62911028202790310000000000024400000000024400002000000010410406300909178769384773800630384391517180   1030000900030000   541119001364190110000000977Ocean PZD C18          YANGONAUNG    MMR11006300909178769380630000000000000000   10300001F00104100000000001464000000000000     
100   62443100301716860000000000001960000000001960002000000010410406300308013801292764510630000007413675   1020000200030000   333400010001204104000000281Myanmar Soft-Gate Tech Yangon        MMR11006300308013801290630000000000000000   10300001F05104100000000000412000000000000     
100   62911028202291270000000000049300000000049300002000000010410406300401558661644773800630304311055180   1030000900030000   541119001224190110000000945City Mart TM C 9       YANGONONE     MMR11006300401558661640630000000000000000   10300001F00104100000000002958000000000000     
100   95050313710136610000000000009300000000009300002000000010410406300843188760152792090630864131518180   1030000900030000   541119000113190110000000077Sein Gay Har Chinatown YANGON        MMR11006300843188760150630000000000000000   10300001F00104100000000002325000000000000     
100   62911028202357510000000000017450000000017450002000000010410406301332418854284773800630301022041180   1030000900030000   541119001309190110000000968Ocean Mingalar MDY C 1 MANDALAYHARSI MMR11006301332418854280630000000000000000   10300001F00104100000000001047000000000000     
100   95050320205194540000000000012350000000012350002000000010410406301156118827817755260630785261811180   1030000900030000   541119001267190110000000958City Mart PLST C 10    YANGONMYOTHIT MMR11006301156118827810630000000000000000   10300001F00104100000000003088000000000000     
100   95050318621775380000000000015000000000015000002000000010410406301243211321468095640630000007418393   1030000200030000   3338000100012031040000040022C2P (Myanmar) Co. Ltd Yangon        MMR11006301243211321460630000000000000000   10300001F05104100000000003150000000000000     
100   62443100392426520000000000040000000000040000002000000010410406300817234723652805880630000007416514   1030000200030000   333800010001203104000003327KBZPay                 Yangon        MMR11006300817234723650630000000000000000   10300001F05104100000000008400000000000000     
100   62911028202662690000000000047000000000047000002000000010410406291142480000274773800629218018000027   1030000500030000   598320001201000015172200012MAX ENERGY             PTN           MMR11006291142480000270629000000000000000   10300001 00104100000000001410000000000000     
100   62443100373945130000000000023066000000023066002000000010410406290806570005648105770629218014000564   1030000500030000   541120229107000045411202291CITY MART YANKIN       PTN           MMR11006290806570005640629000000000000000   10300001 00104100000000005767000000000000     
100   95050319156011610000000000016461000000016461002000000010410406301141018822570379450630472111801180   1030000900030000   541119001349190110000000977Ocean PZD C 3          YANGONAUNG    MMR11006301141018822570630000000000000000   10300001F00104100000000004116000000000000     
100   95050319709462380000000000002000000000002000002000000010410406301216054605982542520630000007418223   1030000200030000   3338000100012031040000040022C2P (Myanmar) Co. Ltd Yangon        MMR11006301216054605980630000000000000000   10300001F05104100000000000420000000000000     
100   62911028202451150000000000075163000000075163002000000010410406290910520005854773800629218015000585   1030000500030000   541120229002000045411202290CITY MART SUPERMARKET  PTN           MMR11006290910520005850629000000000000000   10300001 00104100000000004510000000000000     
100   95050323282717740000000000020000000000020000002000000010410406290515010216493854390629218005021649   1030000600030000   554100002323315799420000474DENKO N.DAGON - 1      YANGON        MMR11006290515010216490629000000000000000   10300001 00104100000000002400000000000000     
100   95050328876009750000000000030000000000030000002000000010410406300843191319289657320630000007416781   1030000200030000   333800010001203104000003327KBZPay                 Yangon        MMR11006300843191319280630000000000000000   10300001F05104100000000006300000000000000     
100   95050316997303010000000000020000000000020000002000000010410406301551452145141996290630000007419227   1030000200030000   333800010001203104000003327KBZPay                 Yangon        MMR11006301551452145140630000000000000000   10300001F05104100000000004200000000000000     
100   95050310305100650000000000010000000000010000002000000010410406301120155015415251810630000007417970   1030000200030000   3338000100012031040000040022C2P (Myanmar) Co. Ltd Yangon        MMR11006301120155015410630000000000000000   10300001F05104100000000002100000000000000     
100   62911028202294730000000000024850000000024850002000000010410406301051028804734773800630419211702180   1030000900030000   541119000128190110000000082Sein Gay Har Super Cen YANGON        MMR11006301051028804730630000000000000000   10300001F00104100000000001491000000000000     
100   95030390626214130000000000040000000000040000002000000010410406291205120184014773800629218012018401   1030000600030000   554100002324315799420000481DENKO NORTH OKKALAPA   YANGON        MMR11006291205120184010629000000000000000   10300001 00104100000000001200000000000000     
100   95050312139901420000000000001000000000001000002000000010410406301500513051548521120630000007419044   1030000200030000   333800010001203104000003327KBZPay                 Yangon        MMR11006301500513051540630000000000000000   10300001F05104100000000000210000000000000     
100   95050324850150480000000000050000000000050000002000000010410406280954070045922459550628217909004592   1030000600030000   554100001269315799420000723DENKO GYOBINGAUK       GYOBINGAUK    MMR11006280954070045920628000000000000000   10300001 00104100000000006000000000000000     
100   62443100300412100000000000049895000000049895002000000010410406280906330004019154590628217909000401   1030000600030000   701100000978315799420000494LOTTE HOTELS & RESORTS YANGON        MMR11006280906330004010628000000000000000   10300001 00104100000000021206000000000000     
100   95050319207947610000000000021600000000021600002000000010410406281252340029194543230628217912002919   1030000600030000   5499000023543157994200016371 STOP S M KAMARKYI    YANGON        MMR11006281252340029190628000000000000000   10300001 00104100000000009180000000000000     
100   62443100306028540000000000046000000000046000002000000010410406281245060959731578650628217912095973   1030000600030000   554100000946315799420000471DENKO BAHAN            YANGON        MMR11006281245060959730628000000000000000   10300001 00104100000000005520000000000000     
100   95030357919784470000000000180950000000180950002000000010410406291001370000084773800629218016000008   1030000500030000   591220013501014405912200135SHWE OHH PHARMACY      PTN           MMR11006291001370000080629000000000000000   10300001 00104100000000010857000000000000     
100   62911028202074950000000000040000000000040000002000000010410406290919380000324773800629218015000032   1030000500030000   594220168301000045942201683TAB BOOK STORE         PTN           MMR11006290919380000320629000000000000000   10300001 00104100000000002400000000000000     
100   62911028202260400000000000050000000000050000002000000010410406291110500001494773800629218017000149   1030000500030000   598320001302000015172200013MAX ENERGY             PTN           MMR11006291110500001490629000000000000000   10300001 00104100000000001500000000000000     
100   62911028202291190000000000500000000000500000002000000010410406290253200000064773800629218009000006   1030000500030000   806220046404006308062200464ASIA ROYAL HOSPITAL    PTN           MMR11006290253200000060629000000000000000   10300001 00104100000000030000000000000000     
100   95030367537085740000000000004900000000004900002000000010410406300220375037644773800630000007413357   1020000200030000   333400010001204104000000281Myanmar Soft-Gate Tech Yangon        MMR11006300220375037640630000000000000000   10300001F05104100000000001029000000000000     
100   95050324133333980000000000070000000000070000002000000010410406301031322162221856030630218117216222   1040001600030000   594020001226000000010000933Giant Myanmar          Ygn           MMR11006301031322162220630000000000000000   10300001F00104100000000016800000000000000     
100   62443100371022130000000000034680000000034680002000000010410406291300190000827480470629218019000082   1030000500030000   598320001304000015172200013MAX ENERGY             PTN           MMR11006291300190000820629000000000000000   10300001 00104100000000004162000000000000     
100   62911028202366010000000000025195000000025195002000000010410406290425510010214773800629218010001021   1030000500030000   541120230004000045411202300MARKET PLACE BY CITY M PTN           MMR11006290425510010210629000000000000000   10300001 00104100000000001512000000000000     
100   62911028202651050000000000018000000000018000002000000010410406290956220000064773800629218016000006   1030000500030000   481220083901000014812200839TECHNOLAND ( THAMINE)  PTN           MMR11006290956220000060629000000000000000   10300001 00104100000000001080000000000000     
100   62911028202146650000000000017100000000017100002000000010410406291140570000264773800629218018000026   1030000500030000   591220132901008605912201329THEIK DI WIN SHOP      PTN           MMR11006291140570000260629000000000000000   10300001 00104100000000001026000000000000     
100   62911028202397530000000000028215000000028215002000000010410406290629030000294773800629218006000029   1030000600030000   581200002446315799420001706MR CHEF  MANDALAY      MANDALAY      MMR11006290629030000290629000000000000000   10300001 00104100000000002878000000000000     
100   95030308100042590000000000057000000000057000002000000010410406291152020000634773800629218018000063   1030000500030000   598320001704000015172200017MAX ENERGY             PTN           MMR11006291152020000630629000000000000000   10300001 00104100000000001710000000000000     
100   62443101007477200000000000188000000000188000002000000010410406291044000000138921390629218017000013   1030000500030000   599520213801000085995202138NPT PET MART GROUP     PTN           MMR11006291044000000130629000000000000000   10300001 00104100000000045120000000000000     
100   62911028202108460000000000057000000000057000002000000010410406290229490000394773800629218008000039   1030000500030000   598320001201000015172200012MAX ENERGY             PTN           MMR11006290229490000390629000000000000000   10300001 00104100000000001710000000000000     
100   62911028202107390000000000037000000000037000002000000010410406290656040015964773800629218013001596   1030000500030000   541120226201000045411202262CITY MART ZAWANA       PTN           MMR11006290656040015960629000000000000000   10300001 00104100000000002220000000000000     
100   62911028202807400000000000030000000000030000002000000010410406290733540114984773800629218007011498   1030000600030000   554100002318315799420000510DENKO AUNG SAN         YANGON        MMR11006290733540114980629000000000000000   10300001 00104100000000000900000000000000     
100   62911028202792960000000000003150000000003150002000000010410406290738110014604773800629218014001460   1030000500030000   541120227604000045411202276CITY MART ( 47 BRANCH  PTN           MMR11006290738110014600629000000000000000   10300001 00104100000000000189000000000000     
100   62911028202684060000000000015211000000015211002000000010410406290749440003384773800629218014000338   1030000500030000   531120226711000045311202267OCEAN NORTH POINT      PTN           MMR11006290749440003380629000000000000000   10300001 00104100000000000913000000000000     
100   62443100343312450000000000030000000000030000002000000010410406291113510009391581240629000352767874   1030000300030000   598300001209000000000000817CB BANK                SHWE TAUNG EN MMR11006291113510009390629000000000000000   10300001F00104100000000003600000000000000     
100   62911028202631420000000000079300000000079300002000000010410406290536090012314773800629218012001231   1030000500030000   541120203706000015411202037CITY MART SUPERMARKET  PTN           MMR11006290536090012310629000000000000000   10300001 00104100000000004758000000000000     
100   95050328074436620000000000033000000000033000002000000010410406291215210001881205200629218018000188   1030000500030000   598320001003000015172200010MAX ENERGY             PTN           MMR11006291215210001880629000000000000000   10300001 00104100000000003960000000000000     
100   95050329888918380000000000029361000000029361002000000010410406291004110015023928280629218016001502   1030000500030000   531120226308000045311202263OCEAN SUPER CENTER STJ PTN           MMR11006291004110015020629000000000000000   10300001 00104100000000007047000000000000     
100   62911028202187730000000000030000000000030000002000000010410406290743430001254773800629218014000125   1030000500030000   598320001901000015172200019MAX ENERGY             PTN           MMR11006290743430001250629000000000000000   10300001 00104100000000000900000000000000     
100   95050326750398570000000000010450000000010450002000000010410406290447450006240749560629218011000624   1030000500030000   531120226736000045311202267OCEAN NORTH POINT      PTN           MMR11006290447450006240629000000000000000   10300001 00104100000000002508000000000000     
100   95030301100121270000000000037000000000037000002000000010410406291127410700914773800629218011070091   1030000600030000   554100000952315799420000474DENKO N.DAGON - 1      YANGON        MMR11006291127410700910629000000000000000   10300001 00104100000000001110000000000000     
100   95030301100126550000000000021000000000021000002000000010410406291044310700864773800629218010070086   1030000600030000   554100000952315799420000474DENKO N.DAGON - 1      YANGON        MMR11006291044310700860629000000000000000   10300001 00104100000000000630000000000000     
100   62443100379321630000000000055000000000055000002000000010410406290356040399693011500629218003039969   1030000600030000   554100001003315799420000497DENKO KONE TA LA PAUNG YANGON        MMR11006290356040399690629000000000000000   10300001 00104100000000006600000000000000     
100   95050318041680090000000000014700000000014700002000000010410406291037171454871885970629218017145487   1040001600030000   541120000559000000010000465Ocean Shwe Gone Daing  Yangon        MMR11006291037171454870629000000000000000   10300001F00104100000000003675000000000000     
100   62443100379321630000000000051425000000051425002000000010410406291056591473235871710629218017147323   1040001600030000   598320000315000000010000303PT Power Petrol Statio Yangon        MMR11006291056591473230629000000000000000   10300001F00104100000000006171000000000000     
100   95050319695392670000000000006900000000006900002000000010410406291038181455740233480629218017145574   1040001600030000   541120000559000000010000465Ocean Shwe Gone Daing  Yangon        MMR11006291038181455740629000000000000000   10300001F00104100000000001725000000000000     
100   95050324250133010000000000171000000000171000002000000010410406300644510005002685130630000749291782   1030000200030000   597788000986000008000001867KBZ BANK               CLINIQUE(JUNC MMR11006300644510005000630000000000000000   10300001 00104100000000041040000000000000     
100   62911028202442250000000000098000000000098000002000000010410406300634380016004773800630000749290736   1030000200030000   599988000603000008000003448KBZ BANK               SWEETY HOME(6 MMR11006300634380016000630000000000000000   10300001 00104100000000005880000000000000     
100   95050317502160260000000000020000000000020000002000000010410406300920410007103728150630000749305443   1030000200030000   541188002225000008000005919KBZ BANK               K-MART SUPERM MMR11006300920410007100630000000000000000   10300001 00104100000000005000000000000000     
100   62911028202169750000000000003600000000003600002000000010410406301120560041034773800630000749279498   1030000200030000   541188001188000008000000383KBZ BANK               OCEAN SUPER C MMR11006301120560041030630000000000000000   10300001 00104100000000000216000000000000     
100   95050321188471220000000000022800000000022800002000000010410406301044090026627587420630000749275864   1030000200030000   541188001481000008000000399KBZ BANK               OCEAN SUPERCE MMR11006301044090026620630000000000000000   10300001 00104100000000005700000000000000     
100   95050315752234130000000000024750000000024750002000000010410406301209310029703571740630000749284690   1030000200030000   541188001474000008000000391KBZ BANK               OCEAN SUPER C MMR11006301209310029700630000000000000000   10300001 00104100000000006188000000000000     
100   62911028202116120000000000010400000000010400002000000010410406301834100011534773800630000749315113   1030000200030000   581288000949000008000004876KBZ BANK               PIZZA HUT RES MMR11006301834100011530630000000000000000   10300001 00104100000000001061000000000000     
100   95050328074436620000000000001960000000001960002000000010410406300741061106133947780630000007416161   1020000200030000   333400010001204104000000281Myanmar Soft-Gate Tech Yangon        MMR11006300741061106130630000000000000000   10300001F05104100000000000412000000000000     
100   62911028202151590000000000016237000000016237002000000010410406301958360188534773800630000749318209   1030000200030000   541188001305000008000000325KBZ BANK               CITY MART - A MMR11006301958360188530630000000000000000   10300001 00104100000000000974000000000000     
100   95050319938772870000000000000980000000000980002000000010410406301544301430490258700630000007419210   1020000200030000   333400010001204104000000281Myanmar Soft-Gate Tech Yangon        MMR11006301544301430490630000000000000000   10300001F05104100000000000206000000000000     
100   95050312641885210000000000001960000000001960002000000010410406301030440044066898580630000007417694   1020000200030000   333400010001204104000000281Myanmar Soft-Gate Tech Yangon        MMR11006301030440044060630000000000000000   10300001F05104100000000000412000000000000     
100   95050315259054570000000000001960000000001960002000000010410406300242011201223239430630000007413475   1020000200030000   333400010001204104000000281Myanmar Soft-Gate Tech Yangon        MMR11006300242011201220630000000000000000   10300001F05104100000000000412000000000000     
100   62443100358839880000000000010900000000010900002000000010410406301059341664205671570630293443425817   1040001400030000   555610000602025556100003510119 Store null No-119  Anawrahta Roa MMR11006301059341664200630000000000000000   10300001 00104100000000002725000000000000     
100   62911028202231380000000000009100000000009100002000000010410406301042220209624773800630000749275722   1030000200030000   541188001032000008000000298KBZ BANK               CITY MART - M MMR11006301042220209620630000000000000000   10300001 00104100000000000546000000000000     
100   62911028202789750000000000018500000000018500002000000010410406300332221932244773800630218110193224   1040001600030000   591220000271000000010000259Shwe Ohh Pharmacy (Gwa Yangon        MMR11006300332221932240630000000000000000   10300001F00104100000000001110000000000000     
100   95030306100096490000000000000980000000000980002000000010410406300448521852894773800630000007414665   1020000200030000   333400010001204104000000281Myanmar Soft-Gate Tech Yangon        MMR11006300448521852890630000000000000000   10300001F05104100000000000206000000000000     
100   95030327835334700000000000014125000000014125002000000010410406301739180167924773800630000749311822   1030000200030000   541188001242000008000000323KBZ BANK               CITY MART - I MMR11006301739180167920630000000000000000   10300001 00104100000000000848000000000000     
100   95050311780044340000000000009800000000009800002000000010410406300848101810256097060630000007416836   1020000200030000   333400010001204104000000281Myanmar Soft-Gate Tech Yangon        MMR11006300848101810250630000000000000000   10300001F05104100000000002058000000000000     
100   62911028202166940000000000026000000000026000002000000010410406301823450193324773800630000749314464   1030000200030000   541188001126000008000000296KBZ BANK               CITY MART - J MMR11006301823450193320630000000000000000   10300001 00104100000000001560000000000000     
100   62911028202169750000000000160079000000160079002000000010410406301038580252104773800630000749275398   1030000200030000   541188001001000008000000008KBZ BANK               MARKETPLACE - MMR11006301038580252100630000000000000000   10300001 00104100000000009605000000000000     
100   62911028202916630000000000030000000000030000002000000010410406300936500650864773800630000007417281   1030000200030000   333800010001203104000003327KBZPay                 Yangon        MMR11006300936500650860630000000000000000   10300001F05104100000000006300000000000000     
100   95030367537085740000000000001960000000001960002000000010410406301235350535604773800630000007418355   1020000200030000   333400010001204104000000281Myanmar Soft-Gate Tech Yangon        MMR11006301235350535600630000000000000000   10300001F05104100000000000412000000000000     
100   62911028202416760000000000085000000000085000002000000010410406300542581999244773800630218112199924   1040001600030000   598320000328000000010000316PT Power Petrol Statio Nay Pyi Taw   MMR11006300542581999240630000000000000000   10300001F00104100000000002550000000000000     
100   62443100306698200000000000119245000000119245002000000010410406301541400137818855790630000749304857   1030000200030000   541188001002000008000000008KBZ BANK               MARKETPLACE - MMR11006301541400137810630000000000000000   10300001 00104100000000029812000000000000     
100   95030305700676370000000000040000000000040000002000000010410406300734130045754773800630000749296694   1030000200030000   598388001833000008000005310KBZ BANK               BOC (138 MILE MMR11006300734130045750630000000000000000   10300001 00104100000000001200000000000000     
100   62443101045531990000000000010000000000010000002000000010410406300740021002180642810630000007416149   1030000300030000   333300010001206104000002147DICA Company Limited   Yangon        MMR11006300740021002180630000000000000000   10300001F05104100000000010000000000000000     
100   95050310427855490000000000004900000000004900002000000010410406300741241124418990330630000007416169   1020000200030000   333400010001204104000000281Myanmar Soft-Gate Tech Yangon        MMR11006300741241124410630000000000000000   10300001F05104100000000001029000000000000     
100   95030367537085740000000000000980000000000980002000000010410406301237590759624773800630000007418367   1020000200030000   333400010001204104000000281Myanmar Soft-Gate Tech Yangon        MMR11006301237590759620630000000000000000   10300001F05104100000000000206000000000000     
100   62443100355445150000000000043900000000043900002000000010410406300749292066280813010630218114206628   1040001600030000   591220000285000000010000273Shwe Ohh Pharmacy (47t Yangon        MMR11006300749292066280630000000000000000   10300001F00104100000000010536000000000000     
100   95050325925517520000000000028958000000028958002000000010410406301555040102239366370630000749305727   1030000200030000   541188001062000008000000314KBZ BANK               MARKETPLACE - MMR11006301555040102230630000000000000000   10300001 00104100000000007240000000000000     
100   62443100314843770000000000011000000000011000002000000010410406300847281728921139600630000007416827   1030000200030000   333800010001203104000003327KBZPay                 Yangon        MMR11006300847281728920630000000000000000   10300001F05104100000000002310000000000000     
100   62911028202142930000000000022000000000022000002000000010410406300740182062024773800630218114206202   1040001600030000   598320000659000000010000528Shwe Taung Energy (YGN Yangon        MMR11006300740182062020630000000000000000   10300001F00104100000000000660000000000000     
100   62911028202464020000000000003250000000003250002000000010410406300533251993564773800630218112199356   1040001600030000   591220001007000000010000737Shwe Ohh Pharmacy (Tan Ygn           MMR11006300533251993560630000000000000000   10300001F00104100000000000195000000000000     
100   95050322957045260000000000001000000000001000002000000010410406292333140314451891680630000007412951   1030000200030000   3338000100012031040000040022C2P (Myanmar) Co. Ltd Yangon        MMR11006292333140314450630000000000000000   10300001F05104100000000000210000000000000     
100   62443100301716860000000000004900000000004900002000000010410406300248171817142267720630000007413508   1020000200030000   333400010001204104000000281Myanmar Soft-Gate Tech Yangon        MMR11006300248171817140630000000000000000   10300001F05104100000000001029000000000000     
100   62443100314843770000000000100000000000100000002000000010410406300848421842616182150630000007416839   1030000200030000   333800010001203104000003327KBZPay                 Yangon        MMR11006300848421842610630000000000000000   10300001F05104100000000021000000000000000     
100   95050312695033440000000000000980000000000980002000000010410406301353082308301826090630000007418723   1020000200030000   333400010001204104000000281Myanmar Soft-Gate Tech Yangon        MMR11006301353082308300630000000000000000   10300001F05104100000000000206000000000000     
100   95050312498129060000000000000980000000000980002000000010410406301254362436863138190630000007418452   1020000200030000   333400010001204104000000281Myanmar Soft-Gate Tech Yangon        MMR11006301254362436860630000000000000000   10300001F05104100000000000206000000000000     
100   95050318214455130000000000002940000000002940002000000010410406300610184018792259650630000007415276   1020000200030000   333400010001204104000000281Myanmar Soft-Gate Tech Yangon        MMR11006300610184018790630000000000000000   10300001F05104100000000000617000000000000     
100   95050315099113150000000000002940000000002940002000000010410406300324375437383189990630000007413866   1020000200030000   333400010001204104000000281Myanmar Soft-Gate Tech Yangon        MMR11006300324375437380630000000000000000   10300001F05104100000000000617000000000000     
100   62911028202524260000000000011000000000011000002000000010410406301023235868344773800630532304882466   1040001400030000   599910000222025999100001869MAHAR SAN USA Store nu l No-55  Byin MMR11006301023235868340630000000000000000   10300001 00104100000000000660000000000000     
100   62911028202243670000000000042209000000042209002000000010410406300607048708134773800630954371204180   1030000900030000   541119001260190110000000958City Mart PLST C 3     YANGONMYOTHIT MMR11006300607048708130630000000000000000   10300001F00104100000000002533000000000000     
100   95030308100042590000000000019100000000019100002000000010410406301205392249244773800630218119224924   1040001600030000   591220000275000000010000263Shwe Ohh Pharmacy (Hla Yangon        MMR11006301205392249240630000000000000000   10300001F00104100000000001146000000000000     
100   95050319528093960000000000004900000000004900002000000010410406300912164216928940890630000007417069   1020000200030000   333400010001204104000000281Myanmar Soft-Gate Tech Yangon        MMR11006300912164216920630000000000000000   10300001F05104100000000001029000000000000     
100   95050329213164970000000000002940000000002940002000000010410406300706323632147798990630000007415813   1020000200030000   333400010001204104000000281Myanmar Soft-Gate Tech Yangon        MMR11006300706323632140630000000000000000   10300001F05104100000000000617000000000000     
100   95050318131043910000000000000980000000000980002000000010410406301515444544378606220630000007419109   1020000200030000   333400010001204104000000281Myanmar Soft-Gate Tech Yangon        MMR11006301515444544370630000000000000000   10300001F05104100000000000206000000000000     
100   95050316818236190000000000001960000000001960002000000010410406301421375137233563670630000007418877   1020000200030000   333400010001204104000000281Myanmar Soft-Gate Tech Yangon        MMR11006301421375137230630000000000000000   10300001F05104100000000000412000000000000     
100   95050312695033440000000000000980000000000980002000000010410406301358282828580173610630000007418753   1020000200030000   333400010001204104000000281Myanmar Soft-Gate Tech Yangon        MMR11006301358282828580630000000000000000   10300001F05104100000000000206000000000000     
100   95050320335873810000000000000980000000000980002000000010410406300759282928563862690630000007416341   1020000200030000   333400010001204104000000281Myanmar Soft-Gate Tech Yangon        MMR11006300759282928560630000000000000000   10300001F05104100000000000206000000000000     
100   95050314557307430000000000009800000000009800002000000010410406301213124312099152450630000007418206   1020000200030000   333400010001204104000000281Myanmar Soft-Gate Tech Yangon        MMR11006301213124312090630000000000000000   10300001F05104100000000002058000000000000     
100   62911028202248050000000000013050000000013050002000000010410406300309038644724773800630421390903180   1030000900030000   541119001329190110000000971Ocean Junction NPT C 7 NAYPYITAW     MMR11006300309038644720630000000000000000   10300001F00104100000000000783000000000000     
100   95030306100096490000000000000980000000000980002000000010410406300451172117824773800630000007414689   1020000200030000   333400010001204104000000281Myanmar Soft-Gate Tech Yangon        MMR11006300451172117820630000000000000000   10300001F05104100000000000206000000000000     
100   62443101006037900000000000010000000000010000002000000010410406300759022902935515180630000007416333   1030000300030000   333300010001206104000002147DICA Company Limited   Yangon        MMR11006300759022902930630000000000000000   10300001F05104100000000010000000000000000     
100   95050328074436620000000000002940000000002940002000000010410406300208133813627686310630000007413296   1020000200030000   333400010001204104000000281Myanmar Soft-Gate Tech Yangon        MMR11006300208133813620630000000000000000   10300001F05104100000000000617000000000000     
100   95050319528093960000000000000980000000000980002000000010410406300811384138819415820630000007416443   1020000200030000   333400010001204104000000281Myanmar Soft-Gate Tech Yangon        MMR11006300811384138810630000000000000000   10300001F05104100000000000206000000000000     
100   95050310397364970000000000001960000000001960002000000010410406300222075207067771410630000007413364   1020000200030000   333400010001204104000000281Myanmar Soft-Gate Tech Yangon        MMR11006300222075207060630000000000000000   10300001F05104100000000000412000000000000     
100   62443100376865460000000000400000000000400000002000000010410406300748448742404117980630891181444180   1030000900030000   573219001181190110000000937UNIQUE Hlaing          YANGON        MMR11006300748448742400630000000000000000   10300001F00104100000000096000000000000000     
100   95050322149411750000000000030000000000030000002000000010410406300128418622208842000630416580741180   1030000900030000   554119001103190110000000215New Day Energy MYG     YANGONONE     MMR11006300128418622200630000000000000000   10300001F00104100000000003600000000000000     
100   62911028202524260000000000228500000000228500002000000010410406301021366961774773800630513607235089   1040001400030000   599910000222025999100001869MAHAR SAN USA Store nu l No-55  Byin MMR11006301021366961770630000000000000000   10300001 00104100000000013710000000000000     
100   95050310427855490000000000000980000000000980002000000010410406301058342834283934000630000007417865   1020000200030000   333400010001204104000000281Myanmar Soft-Gate Tech Yangon        MMR11006301058342834280630000000000000000   10300001F05104100000000000206000000000000     
100   95030319588829360000000000005600000000005600002000000010410406300355068659534773800630184251006180   1030000900030000   541119001229190110000000946City Mart TM Season C  YANGONONE     MMR11006300355068659530630000000000000000   10300001F00104100000000000336000000000000     
100   95050315448852350000000000100000000000100000002000000010410406300406203620191949200630000007414240   1030000200030000   333800010001203104000003327KBZPay                 Yangon        MMR11006300406203620190630000000000000000   10300001F05104100000000021000000000000000     
100   62443100301716860000000000001960000000001960002000000010410406300303123312443736220630000007413622   1020000200030000   333400010001204104000000281Myanmar Soft-Gate Tech Yangon        MMR11006300303123312440630000000000000000   10300001F05104100000000000412000000000000     
100   95050317823045920000000000006500000000006500002000000010410406301400303030693478570630000007418765   1030000200030000   333800010001203104000003327KBZPay                 Yangon        MMR11006301400303030690630000000000000000   10300001F05104100000000001365000000000000     
100   95050313702988830000000000002940000000002940002000000010410406300228055805501672050630000007413395   1020000200030000   333400010001204104000000281Myanmar Soft-Gate Tech Yangon        MMR11006300228055805500630000000000000000   10300001F05104100000000000617000000000000     
100   62911028202822900000000000010000000000010000002000000010410406301324315431704773800630000007418596   1030000200030000   333800010001203104000003327KBZPay                 Yangon        MMR11006301324315431700630000000000000000   10300001F05104100000000002100000000000000     
