100   62443100363668680000000000067550000000067550002000000010410407021016510006997219930702000353303209   1030000300030000   541100002372000000000000102CB BANK                MAKRO MYANMAR MMR11007021016510006990702000000000000000   10300001F00104100000000016888000000000000     
100   95050329734064360000000000020000000000020000002000000010410407020620020003875943480702218312000387   1030000500030000   598320001903000015172200019MAX ENERGY             PTN           MMR11007020620020003870702000000000000000   10300001 00104100000000002400000000000000     
100   95050324250133010000000000144400000000144400002000000010410407020337420004850851490702000353245370   1030000300030000   541100002371000000000000102CB BANK                MAKRO MYANMAR MMR11007020337420004850702000000000000000   10300001F00104100000000036100000000000000     
100   62443100300743690000000000012660000000012660002000000010410407020932470001467985790702000353296677   1030000300030000   531100000602000000000000408CB BANK                CAPITAL HYPER MMR11007020932470001460702000000000000000   10300001F00104100000000003038000000000000     
100   62911028202417260000000000020000000000020000002000000010410407020929210002614773800702218315000261   1030000500030000   598320001402000015172200014MAX ENERGY             PTN           MMR11007020929210002610702000000000000000   10300001 00104100000000000600000000000000     
100   95050325052849960000000000037000000000037000002000000010410407021046560004111836990702218317000411   1030000500030000   598320001403000015172200014MAX ENERGY             PTN           MMR11007021046560004110702000000000000000   10300001 00104100000000004440000000000000     
100   95050325305150830000000000369000000000369000002000000010410407020804370000188652770702218314000018   1030000500030000   573220014801000015732200148LG PANSODAN            PTN           MMR11007020804370000180702000000000000000   10300001 00104100000000088560000000000000     
100   62911028202212490000000000004000000000004000002000000010410407021016370000264773800702218316000026   1030000500030000   581220195901000085812201959AKKHAYA TEA HOUSE      PTN           MMR11007021016370000260702000000000000000   10300001 00104100000000000408000000000000     
100   95050317728825080000000000012500000000012500002000000010410407020921220000712687950702000353295051   1030000300030000   541100002280000000000001549CB BANK                G & G CONVENI MMR11007020921220000710702000000000000000   10300001F00104100000000003125000000000000     
100   95050310213446310000000000009900000000009900002000000010410407030121095109684043780703000007431884   1020000200030000   333400010001204104000000281Myanmar Soft-Gate Tech Yangon        MMR11007030121095109680703000000000000000   10300001F05104100000000002079000000000000     
100   95050314570621780000000000000990000000000990002000000010410407030123585358247263660703000007431892   1020000200030000   333400010001204104000000281Myanmar Soft-Gate Tech Yangon        MMR11007030123585358240703000000000000000   10300001F05104100000000000208000000000000     
100   95050310213446310000000000004950000000004950002000000010410407030326575657438405560703000007432316   1020000200030000   333400010001204104000000281Myanmar Soft-Gate Tech Yangon        MMR11007030326575657430703000000000000000   10300001F05104100000000001040000000000000     
100   95050312498129060000000000000990000000000990002000000010410407030256512651437433840703000007432186   1020000200030000   333400010001204104000000281Myanmar Soft-Gate Tech Yangon        MMR11007030256512651430703000000000000000   10300001F05104100000000000208000000000000     
100   95050328074436620000000000043000000000043000002000000010410407030254154253899171420703218409425389   1040001600030000   598320000660000000010000529Shwe Taung Energy (NPT Naypyitaw     MMR11007030254154253890703000000000000000   10300001F00104100000000005160000000000000     
100   95050319938772870000000000000990000000000990002000000010410407031523075307342775410703000007435053   1020000200030000   333400010001204104000000281Myanmar Soft-Gate Tech Yangon        MMR11007031523075307340703000000000000000   10300001F05104100000000000208000000000000     
100   62911028202473840000000000073200000000073200002000000010410407030249179513164773800703761190917183   1030000900030000   591219000694190110000000525Shwe Ohh Pharmacy ST-2 YANGONAW      MMR11007030249179513160703000000000000000   10300001F00104100000000004392000000000000     
100   95050317084233280000000000000990000000000990002000000010410407030533500350827738580703000007432820   1020000200030000   333400010001204104000000281Myanmar Soft-Gate Tech Yangon        MMR11007030533500350820703000000000000000   10300001F05104100000000000208000000000000     
100   62443100328070970000000000400000000000400000002000000010410407021310230000691320700702218319000069   1030000500030000   806220046404006308062200464ASIA ROYAL HOSPITAL    PTN           MMR11007021310230000690702000000000000000   10300001 00104100000000096000000000000000     
100   95050315199558640000000000010500000000010500002000000010410407021252240001673483760702000353325248   1030000300030000   531100000602000000000000408CB BANK                CAPITAL HYPER MMR11007021252240001670702000000000000000   10300001F00104100000000002520000000000000     
100   95030301100126550000000000094000000000094000002000000010410407020624400004614773800702000353269029   1030000300030000   806200000111000000000000042CB BANK                THUKHAGABAR H MMR11007020624400004610702000000000000000   10300001F00104100000000005640000000000000     
100   62443100333488440000000000129700000000129700002000000010410407020508170005011482820702000353258075   1030000300030000   541100002371000000000000102CB BANK                MAKRO MYANMAR MMR11007020508170005010702000000000000000   10300001F00104100000000032425000000000000     
100   95030317922148660000000000033000000000033000002000000010410407020650050003784773800702218313000378   1030000500030000   598320001304000015172200013MAX ENERGY             PTN           MMR11007020650050003780702000000000000000   10300001 00104100000000000990000000000000     
100   62911028202809060000000000016358000000016358002000000010410407020725500005154773800702218313000515   1030000500030000   531120226708000045311202267OCEAN NORTH POINT      PTN           MMR11007020725500005150702000000000000000   10300001 00104100000000000982000000000000     
100   95050326228858240000000000034362000000034362002000000010410407021417560000354880960702218320000035   1030000500030000   581220024101000015812200241SHWE LAR HOT POT       PTN           MMR11007021417560000350702000000000000000   10300001 00104100000000014604000000000000     
100   62443100333488440000000000081550000000081550002000000010410407020513000001998092750702000353258771   1030000300030000   541100002331000000000000102CB BANK                MAKRO MYANMAR MMR11007020513000001990702000000000000000   10300001F00104100000000020388000000000000     
100   95030309416734020000000000002000000000002000002000000010410407030845361536844773800703000007433586   1030000200030000   3338000100012031040000040022C2P (Myanmar) Co. Ltd Yangon        MMR11007030845361536840703000000000000000   10300001F05104100000000000420000000000000     
100   95050312498129060000000000000990000000000990002000000010410407031245381538573285990703000007434447   1020000200030000   333400010001204104000000281Myanmar Soft-Gate Tech Yangon        MMR11007031245381538570703000000000000000   10300001F05104100000000000208000000000000     
100   62911028202416760000000000105000000000105000002000000010410407030529484344394773800703218412434439   1040001600030000   598320000854000000010000608Terminal Petrol Statio Yangon        MMR11007030529484344390703000000000000000   10300001F00104100000000003150000000000000     
100   62443101093150400000000000011359000000011359002000000010410407031313180189503582650703000749457325   1030000200030000   541188001305000008000000325KBZ BANK               CITY MART - A MMR11007031313180189500703000000000000000   10300001 00104100000000002840000000000000     
100   95050310902464360000000000001000000000001000002000000010410407031244491449071633500703000007434440   1030000200030000   3338000100012031040000040022C2P (Myanmar) Co. Ltd Yangon        MMR11007031244491449070703000000000000000   10300001F05104100000000000210000000000000     
100   95050312210363590000000000001000000000001000002000000010410407030300293029329086330703000007432202   1030000200030000   333800010001203104000003327KBZPay                 Yangon        MMR11007030300293029320703000000000000000   10300001F05104100000000000210000000000000     
100   95050312962334280000000000000990000000000990002000000010410407031305533553974853380703000007434529   1020000200030000   333400010001204104000000281Myanmar Soft-Gate Tech Yangon        MMR11007031305533553970703000000000000000   10300001F05104100000000000208000000000000     
100   95050319938772870000000000000990000000000990002000000010410407031521125112111122930703000007435043   1020000200030000   333400010001204104000000281Myanmar Soft-Gate Tech Yangon        MMR11007031521125112110703000000000000000   10300001F05104100000000000208000000000000     
100   62911028202169750000000000024650000000024650002000000010410407020334330000814773800702218310000081   1030000500030000   541120020801022205411200208ORANGE (TAMWE)         PTN           MMR11007020334330000810702000000000000000   10300001 00104100000000001479000000000000     
100   62443100371022130000000000039783000000039783002000000010410407021203310002080093700702218318000208   1030000500030000   598320001704000015172200017MAX ENERGY             PTN           MMR11007021203310002080702000000000000000   10300001 00104100000000004774000000000000     
100   95030308100042590000000001240000000001240000002000000010410407020905400000124773800702218315000012   1030000500030000   503920054001005505039200540NAY LA CONSTRUCTION MA PTN           MMR11007020905400000120702000000000000000   10300001 00104100000000074400000000000000     
100   62443101007477200000000000192000000000192000002000000010410407021213140000858356120702218318000085   1030000500030000   599520213801000085995202138NPT PET MART GROUP     PTN           MMR11007021213140000850702000000000000000   10300001 00104100000000046080000000000000     
100   95050315955808830000000000052000000000052000002000000010410407021016260002304255340702218316000230   1030000500030000   598320001101000015172200011MAX ENERGY             PTN           MMR11007021016260002300702000000000000000   10300001 00104100000000006240000000000000     
100   95050328384000040000000000037000000000037000002000000010410407021405050002947845540702218320000294   1030000500030000   598320002103000015172200021MAX ENERGY             PTN           MMR11007021405050002940702000000000000000   10300001 00104100000000004440000000000000     
100   95030343892826500000000000040700000000040700002000000010410407020252110000094773800702000353239212   1030000300030000   541100000091000000000000028CB BANK                ONE STOP KITC MMR11007020252110000090702000000000000000   10300001F00104100000000002442000000000000     
100   62911028202417260000000000027000000000027000002000000010410407020931240002624773800702218316000262   1030000500030000   598320001402000015172200014MAX ENERGY             PTN           MMR11007020931240002620702000000000000000   10300001 00104100000000000810000000000000     
100   95050316785465380000000000000990000000000990002000000010410407031429325932181718600703000007434868   1020000200030000   333400010001204104000000281Myanmar Soft-Gate Tech Yangon        MMR11007031429325932180703000000000000000   10300001F05104100000000000208000000000000     
100   95030367537085740000000000000990000000000990002000000010410407030237250725974773800703000007432103   1020000200030000   333400010001204104000000281Myanmar Soft-Gate Tech Yangon        MMR11007030237250725970703000000000000000   10300001F05104100000000000208000000000000     
100   95050310281229490000000000050302000000050302002000000010410407030747131713837689130703000007433381   1030000200030000   333800010001203104000003327KBZPay                 Yangon        MMR11007030747131713830703000000000000000   10300001F05104100000000010563000000000000     
100   62911028202446700000000000056500000000056500002000000010410407030711454145504773800703000007433241   1030000200030000   333800010001203104000003327KBZPay                 Yangon        MMR11007030711454145500703000000000000000   10300001F05104100000000011865000000000000     
100   62443101023815100000000000038000000000038000002000000010410407030537384349964433610703218412434996   1040001600030000   598320000658000000010000527Shwe Taung Energy (YGN Yangon        MMR11007030537384349960703000000000000000   10300001F00104100000000004560000000000000     
100   95030327835334700000000000017950000000017950002000000010410407031812080152494773800703000749473548   1030000200030000   541188001244000008000000323KBZ BANK               CITY MART - I MMR11007031812080152490703000000000000000   10300001 00104100000000001077000000000000     
100   95030327835334700000000000012700000000012700002000000010410407031813200152504773800703000749473614   1030000200030000   541188001244000008000000323KBZ BANK               CITY MART - I MMR11007031813200152500703000000000000000   10300001 00104100000000000762000000000000     
100   95050328035424750000000000098400000000098400002000000010410407030642359564245575510703687121335183   1030000900030000   541119001331190110000000971Ocean Junction NPT C 9 NAYPYITAW     MMR11007030642359564240703000000000000000   10300001F00104100000000024600000000000000     
100   62911028202533740000000000024000000000024000002000000010410407021032080002614773800702218317000261   1030000500030000   598320001602000015172200016MAX ENERGY             PTN           MMR11007021032080002610702000000000000000   10300001 00104100000000000720000000000000     
100   95050320928153430000000000041219000000041219002000000010410407020910170000754425530702218315000075   1030000500030000   531120155604000045311201556GAMONE PWINT           PTN           MMR11007020910170000750702000000000000000   10300001 00104100000000009892000000000000     
100   95050310902464360000000000019600000000019600002000000010410407020537370013907936350702218312001390   1030000500030000   541120226412000045411202264MARKET PLACE MYANMARPL PTN           MMR11007020537370013900702000000000000000   10300001 00104100000000004900000000000000     
100   62911028202907490000000000027259000000027259002000000010410407020732320008504773800702218314000850   1030000500030000   541120229108000045411202291CITY MART YANKIN       PTN           MMR11007020732320008500702000000000000000   10300001 00104100000000001636000000000000     
100   62911028202417260000000000032400000000032400002000000010410407020647570016424773800702218313001642   1030000500030000   531120226310000045311202263OCEAN SUPER CENTER STJ PTN           MMR11007020647570016420702000000000000000   10300001 00104100000000001944000000000000     
100   95050324154190880000000000046000000000046000002000000010410407021210250020496788730702000353319297   1030000300030000   591200000292000000000000173CB BANK                MEDICARE STOR MMR11007021210250020490702000000000000000   10300001F00104100000000011040000000000000     
100   62443100355445150000000000008450000000008450002000000010410407020346570009475808940702218310000947   1030000500030000   541120227603000045411202276CITY MART ( 47 BRANCH  PTN           MMR11007020346570009470702000000000000000   10300001 00104100000000002113000000000000     
100   62911028202197630000000000010000000000010000002000000010410407020749240006274773800702218314000627   1030000500030000   598320001904000015172200019MAX ENERGY             PTN           MMR11007020749240006270702000000000000000   10300001 00104100000000000300000000000000     
100   62911028202616250000000000148550000000148550002000000010410407031010319622454773800703592401631183   1030000900030000   541119000130190110000000082Sein Gay Har Super Cen YANGON        MMR11007031010319622450703000000000000000   10300001F00104100000000008913000000000000     
100   62911028202617730000000000002400000000002400002000000010410407030338379522634773800703226081037183   1030000900030000   541119001080190110000000872Sein Gay Har Hledan    YANGONUT      MMR11007030338379522630703000000000000000   10300001F00104100000000000144000000000000     
100   95050326689257240000000000044350000000044350002000000010410407030502099539682525840703179321109183   1030000900030000   541119001265190110000000958City Mart PLST C 8     YANGONMYOTHIT MMR11007030502099539680703000000000000000   10300001F00104100000000011088000000000000     
100   62443100397667340000000000018200000000018200002000000010410407031136009649033206610703448061800183   1030000900030000   541119001247190110000000955City Mart JS C 6       YANGONUT      MMR11007031136009649030703000000000000000   10300001F00104100000000004550000000000000     
100   62911028202916630000000000082850000000082850002000000010410407030436259534364773800703878061125183   1030000900030000   541119000380190110000000248Victoria Hyper Mart    YANGON        MMR11007030436259534360703000000000000000   10300001F00104100000000004971000000000000     
100   95050314735271470000000000027450000000027450002000000010410407030654009566997142900703859241300183   1030000900030000   541119001260190110000000958City Mart PLST C 3     YANGONMYOTHIT MMR11007030654009566990703000000000000000   10300001F00104100000000006863000000000000     
100   62443101076362230000000000100000000000100000002000000010410407030419589531093277910703694491058183   1030000900030000   554119000348190110000000215New Day Energy MYG     YANGONONE     MMR11007030419589531090703000000000000000   10300001F00104100000000012000000000000000     
100   62911028202617730000000000009150000000009150002000000010410407031136129649114773800703453061812183   1030000900030000   541119001083190110000000872Sein Gay Har Hledan    YANGONUT      MMR11007031136129649110703000000000000000   10300001F00104100000000000549000000000000     
100   95030301100121270000000000360000000000360000002000000010410407021013140008694773800702000353302682   1030000300030000   573200000996000000000000710CB BANK                UNIQUE MOBILE MMR11007021013140008690702000000000000000   10300001F00104100000000021600000000000000     
100   62911028202237160000000000018700000000018700002000000010410407020843570011624773800702218315001162   1030000500030000   541120230004000045411202300MARKET PLACE BY CITY M PTN           MMR11007020843570011620702000000000000000   10300001 00104100000000001122000000000000     
100   62911028202703520000000000001150000000001150002000000010410407020648150014694773800702218313001469   1030000500030000   541120226405000045411202264MARKET PLACE MYANMARPL PTN           MMR11007020648150014690702000000000000000   10300001 00104100000000000069000000000000     
100   95030301100121270000000000023700000000023700002000000010410407021026230008714773800702000353304598   1030000300030000   573200000996000000000000710CB BANK                UNIQUE MOBILE MMR11007021026230008710702000000000000000   10300001F00104100000000001422000000000000     
100   62911028202216940000000000005300000000005300002000000010410407020343300013804773800702218310001380   1030000500030000   541120203706000015411202037CITY MART SUPERMARKET  PTN           MMR11007020343300013800702000000000000000   10300001 00104100000000000318000000000000     
100   62443100363668680000000000110000000000110000002000000010410407021017490007008872410702000353303342   1030000300030000   541100002372000000000000102CB BANK                MAKRO MYANMAR MMR11007021017490007000702000000000000000   10300001F00104100000000027500000000000000     
100   62443100383487320000000000099232000000099232002000000010410407020939413740274595730702218316374027   1040001600030000   541120000557000000010000465Ocean Shwe Gone Daing  Yangon        MMR11007020939413740270702000000000000000   10300001F00104100000000024808000000000000     
100   62911028202448030000000000036960000000036960002000000010410407021402583979074773800702218321397907   1040001600030000   581420001315000000010001020Hot Pot King (Sayar Sa Ygn           MMR11007021402583979070702000000000000000   10300001F00104100000000001109000000000000     
100   62911028202248050000000000037750000000037750002000000010410407030946419614724773800703044161641183   1030000900030000   541119001331190110000000971Ocean Junction NPT C 9 NAYPYITAW     MMR11007030946419614720703000000000000000   10300001F00104100000000002265000000000000     
100   62911028202331290000000000079200000000079200002000000010410407030916549605254773800703380461554183   1030000900030000   591219000969190110000000776Shwe Ohh Pharmacy St ( YANGONADA     MMR11007030916549605250703000000000000000   10300001F00104100000000004752000000000000     
100   62911028202151340000000000030000000000030000002000000010410407030713319571584773800703144431331183   1030000900030000   554119000347190110000000214New Day Energy MTN     YANGONARTAUNG MMR11007030713319571580703000000000000000   10300001F00104100000000000900000000000000     
100   95050320047636150000000000339000000000339000002000000010410407031033179629898504440703139031717183   1030000900030000   573219001183190110000000939UNIQUE Thingangyun     YANGONNGKUUN  MMR11007031033179629890703000000000000000   10300001F00104100000000081360000000000000     
100   62911028202616250000000000429000000000429000002000000010410407031012179623034773800703639421617183   1030000900030000   541119001241190110000000082Sein Gay Har Super Cen YANGON        MMR11007031012179623030703000000000000000   10300001F00104100000000025740000000000000     
100   62443100374068610000000000035000000000035000002000000010410407030405179528033107720703526351017183   1030000900030000   569119001498190110000001092Next Generation GCS GM YANGONUT      MMR11007030405179528030703000000000000000   10300001F00104100000000008400000000000000     
100   62911028202463520000000000017800000000017800002000000010410407031005159621084773800703504351615183   1030000900030000   806219001559190110000000290Grand Hanthar Hospital YANGONUT      MMR11007031005159621080703000000000000000   10300001F00104100000000001068000000000000     
100   95050327456215690000000000081752000000081752002000000010410407030947099614945710050703063171609183   1030000900030000   701119000076190110000000024Lotte Hotel            YANGON        MMR11007030947099614940703000000000000000   10300001F00104100000000034745000000000000     
100   95050316377977350000000000010000000000010000002000000010410407031310594059873200890703000007434548   1040001600030000   333800010001220104000004507A +                    Yangon        MMR11007031310594059870703000000000000000   10300001F05104100000000002100000000000000     
100   95050312498129060000000000002970000000002970002000000010410407031204023402523036410703000007434267   1020000200030000   333400010001204104000000281Myanmar Soft-Gate Tech Yangon        MMR11007031204023402520703000000000000000   10300001F05104100000000000624000000000000     
100   62911028202147720000000000044000000000044000002000000010410407020047510001714773800702218307000171   1030000500030000   598320001604000015172200016MAX ENERGY             PTN           MMR11007020047510001710702000000000000000   10300001 00104100000000001320000000000000     
100   95050316272163320000000000016000000000016000002000000010410407031227085708261383930703000007434319   1030000200030000   333800010001203104000003327KBZPay                 Yangon        MMR11007031227085708260703000000000000000   10300001F05104100000000003360000000000000     
100   95050312695033440000000000000990000000000990002000000010410407031328555855199810830703000007434632   1020000200030000   333400010001204104000000281Myanmar Soft-Gate Tech Yangon        MMR11007031328555855190703000000000000000   10300001F05104100000000000208000000000000     
100   95050325925517520000000000030000000000030000002000000010410407030753074434374724550703218414443437   1040001600030000   598320000838000000010000600Regency Petrol Station Ygn           MMR11007030753074434370703000000000000000   10300001F00104100000000003600000000000000     
100   95050324154190880000000000031000000000031000002000000010410407020424160002283730970702218310000228   1030000500030000   598320002103000015172200021MAX ENERGY             PTN           MMR11007020424160002280702000000000000000   10300001 00104100000000003720000000000000     
100   95050312695033440000000000001980000000001980002000000010410407031247201720438328540703000007434455   1020000200030000   333400010001204104000000281Myanmar Soft-Gate Tech Yangon        MMR11007031247201720430703000000000000000   10300001F05104100000000000416000000000000     
100   95050312675873230000000000002970000000002970002000000010410407031147241724578164060703000007434214   1020000200030000   333400010001204104000000281Myanmar Soft-Gate Tech Yangon        MMR11007031147241724570703000000000000000   10300001F05104100000000000624000000000000     
100   95050312498129060000000000000990000000000990002000000010410407030313374337663533200703000007432271   1020000200030000   333400010001204104000000281Myanmar Soft-Gate Tech Yangon        MMR11007030313374337660703000000000000000   10300001F05104100000000000208000000000000     
100   62911028202212490000000000007100000000007100002000000010410407020442430000244773800702218311000024   1030000500030000   581220195901000085812201959AKKHAYA TEA HOUSE      PTN           MMR11007020442430000240702000000000000000   10300001 00104100000000000724000000000000     
100   95050327022536610000000000024725000000024725002000000010410407020629170001871241320702218312000187   1030000500030000   531120156002000045311201560GAMONE PWINT           PTN           MMR11007020629170001870702000000000000000   10300001 00104100000000005934000000000000     
100   62911028202463780000000000029000000000029000002000000010410407020819300013954773800702218314001395   1030000500030000   541120203706000015411202037CITY MART SUPERMARKET  PTN           MMR11007020819300013950702000000000000000   10300001 00104100000000001740000000000000     
100   95050327386436040000000000050000000000050000002000000010410407031155010002638078960703000749474171   1030000200030000   541188002338000008000006213KBZ BANK               BEAR MART-1   MMR11007031155010002630703000000000000000   10300001 00104100000000012500000000000000     
100   62911028202790980000000001000000000001000000002000000010410407031036550000624773800703000749470060   1030000200030000   481288001529000008000004974KBZ BANK               YOUNIQUE INFO MMR11007031036550000620703000000000000000   10300001 00104100000000060000000000000000     
100   62911028202790980000000001000000000001000000002000000010410407031037550000644773800703000749470124   1030000200030000   481288001529000008000004974KBZ BANK               YOUNIQUE INFO MMR11007031037550000640703000000000000000   10300001 00104100000000060000000000000000     
100   62911028202790980000000001000000000001000000002000000010410407031037260000634773800703000749470093   1030000200030000   481288001529000008000004974KBZ BANK               YOUNIQUE INFO MMR11007031037260000630703000000000000000   10300001 00104100000000060000000000000000     
100   62911028202790980000000001000000000001000000002000000010410407031036140000614773800703000749470027   1030000200030000   481288001529000008000004974KBZ BANK               YOUNIQUE INFO MMR11007031036140000610703000000000000000   10300001 00104100000000060000000000000000     
100   62911028202366010000000000051460000000051460002000000010410407030626270019404773800703218412001940   1020000200030000   541100255007300115411000025MWD BANK               YGN           MMR11007030626270019400703000000000000000   10300001 00104100000000003088000000000000     
100   95050327192897240000000000015300000000015300002000000010410407031449090023206206840703000749462481   1030000200030000   581288000950000008000004879KBZ BANK               PIZZA HUT RES MMR11007031449090023200703000000000000000   10300001 00104100000000006503000000000000     
100   62443101023815100000000000009648000000009648002000000010410407031812310138431554120703000749473570   1030000200030000   541188001009000008000000008KBZ BANK               MARKETPLACE - MMR11007031812310138430703000000000000000   10300001 00104100000000002412000000000000     
100   95050316785465380000000000010600000000010600002000000010410407031223590039042610930703000749454554   1030000200030000   541188001454000008000000391KBZ BANK               OCEAN SUPER C MMR11007031223590039040703000000000000000   10300001 00104100000000002650000000000000     
100   62911028202464440000000000012800000000012800002000000010410407031603410090464773800703000749466530   1030000200030000   541188001074000008000000294KBZ BANK               CITY MART - J MMR11007031603410090460703000000000000000   10300001 00104100000000000768000000000000     
100   95030338164853990000000000035000000000035000002000000010410407031039460046464773800703000749470031   1030000200030000   598388001833000008000005310KBZ BANK               BOC (138 MILE MMR11007031039460046460703000000000000000   10300001 00104100000000001050000000000000     
100   95050315752234130000000000040400000000040400002000000010410407031134060032997724780703000749452070   1030000200030000   541188001452000008000000391KBZ BANK               OCEAN SUPER C MMR11007031134060032990703000000000000000   10300001 00104100000000010100000000000000     
100   95050325925517520000000000005900000000005900002000000010410407031319050006443837940703000749457555   1030000200030000   541188001016000008000000008KBZ BANK               MARKETPLACE - MMR11007031319050006440703000000000000000   10300001 00104100000000001475000000000000     
100   62911028202616250000000000098000000000098000002000000010410407031706000052714773800703000749470014   1030000200030000   541188001021000008000000298KBZ BANK               CITY MART - M MMR11007031706000052710703000000000000000   10300001 00104100000000005880000000000000     
100   95050316785465380000000000001980000000001980002000000010410407031331120112195193760703000007434635   1020000200030000   333400010001204104000000281Myanmar Soft-Gate Tech Yangon        MMR11007031331120112190703000000000000000   10300001F05104100000000000416000000000000     
100   62911028202471860000000000025800000000025800002000000010410407031247100041204773800703000749455850   1030000200030000   541188001079000008000000294KBZ BANK               CITY MART - J MMR11007031247100041200703000000000000000   10300001 00104100000000001548000000000000     
100   95050315752234130000000000006650000000006650002000000010410407031109060029912512050703000749450776   1030000200030000   541188001474000008000000391KBZ BANK               OCEAN SUPER C MMR11007031109060029910703000000000000000   10300001 00104100000000001663000000000000     
100   62911028202107210000000000098700000000098700002000000010410407030703090032574773800703000749458328   1030000200030000   581288001737000008000005244KBZ BANK               SEAFOOD CITY  MMR11007030703090032570703000000000000000   10300001 00104100000000010067000000000000     
100   62911028202207610000000000022200000000022200002000000010410407031329430041224773800703000749458146   1030000200030000   541188001079000008000000294KBZ BANK               CITY MART - J MMR11007031329430041220703000000000000000   10300001 00104100000000001332000000000000     
100   95050325925517520000000000131000000000131000002000000010410407031351300038860192580703000749459370   1030000200030000   581288000947000008000004873KBZ BANK               PIZZA HUT RES MMR11007031351300038860703000000000000000   10300001 00104100000000055675000000000000     
100   95050312482469810000000000010350000000010350002000000010410407031125480022729462370703000749451734   1030000200030000   541188001287000008000000472KBZ BANK               NEIGHBOURHOOD MMR11007031125480022720703000000000000000   10300001 00104100000000002588000000000000     
100   62911028202555020000000000006400000000006400002000000010410407031127140022734773800703000749451795   1030000200030000   541188001287000008000000472KBZ BANK               NEIGHBOURHOOD MMR11007031127140022730703000000000000000   10300001 00104100000000000384000000000000     
100   95050316785465380000000000009850000000009850002000000010410407031236110048815405320703000749455258   1030000200030000   541188001463000008000000391KBZ BANK               OCEAN SUPER C MMR11007031236110048810703000000000000000   10300001 00104100000000002463000000000000     
100   62911028202166940000000000017900000000017900002000000010410407031559060115534773800703000749466274   1030000200030000   541188001128000008000000296KBZ BANK               CITY MART - J MMR11007031559060115530703000000000000000   10300001 00104100000000001074000000000000     
100   95050310902464360000000000030408000000030408002000000010410407031018090165620398420703000749447947   1030000200030000   541188001056000008000000314KBZ BANK               MARKETPLACE - MMR11007031018090165620703000000000000000   10300001 00104100000000007602000000000000     
100   95030301100081740000000000010000000000010000002000000010410407032028380108514773800703000749477772   1030000200030000   541188001310000008000000325KBZ BANK               CITY MART - A MMR11007032028380108510703000000000000000   10300001 00104100000000000600000000000000     
100   95030312100077850000000000022740000000022740002000000010410407031019240165634773800703000749448014   1030000200030000   541188001056000008000000314KBZ BANK               MARKETPLACE - MMR11007031019240165630703000000000000000   10300001 00104100000000001364000000000000     
100   95030331359799240000000000001000000000001000002000000010410407031139130913474773800703000007434187   1030000200030000   3338000100012031040000040022C2P (Myanmar) Co. Ltd Yangon        MMR11007031139130913470703000000000000000   10300001F05104100000000000210000000000000     
100   95050327416134790000000000002970000000002970002000000010410407030517244724435830800703000007432756   1020000200030000   333400010001204104000000281Myanmar Soft-Gate Tech Yangon        MMR11007030517244724430703000000000000000   10300001F05104100000000000624000000000000     
100   62911028202077190000000000000990000000000990002000000010410407031433080308944773800703000007434886   1020000200030000   333400010001204104000000281Myanmar Soft-Gate Tech Yangon        MMR11007031433080308940703000000000000000   10300001F05104100000000000208000000000000     
100   95050316818236190000000000004950000000004950002000000010410407030432570257061029760703000007432565   1020000200030000   333400010001204104000000281Myanmar Soft-Gate Tech Yangon        MMR11007030432570257060703000000000000000   10300001F05104100000000001040000000000000     
100   95050310332595380000000000000990000000000990002000000010410407030037330733309412930703000007431804   1020000200030000   333400010001204104000000281Myanmar Soft-Gate Tech Yangon        MMR11007030037330733300703000000000000000   10300001F05104100000000000208000000000000     
100   95050329213164970000000000004950000000004950002000000010410407031255302530658243440703000007434491   1020000200030000   333400010001204104000000281Myanmar Soft-Gate Tech Yangon        MMR11007031255302530650703000000000000000   10300001F05104100000000001040000000000000     
100   95050312498129060000000000005940000000005940002000000010410407031305193519596590950703000007434530   1020000200030000   333400010001204104000000281Myanmar Soft-Gate Tech Yangon        MMR11007031305193519590703000000000000000   10300001F05104100000000001247000000000000     
100   62911028202260320000000000220600000000220600002000000010410407030757564437124773800703218414443712   1040001600030000   591220000626000000010000497AAA Pharmacy           Ygn           MMR11007030757564437120703000000000000000   10300001F00104100000000013236000000000000     
100   95050312498129060000000000001980000000001980002000000010410407030329475947773448110703000007432323   1020000200030000   333400010001204104000000281Myanmar Soft-Gate Tech Yangon        MMR11007030329475947770703000000000000000   10300001F05104100000000000416000000000000     
100   95050326228858240000000000060000000000060000002000000010410407031213158896309731450703431550474175   1040001400030000   581210000464025812100002920Golden Duck Restaurant (Sayarsan) nu MMR11007031213158896300703000000000000000   10300001 00104100000000025500000000000000     
100   62911028202421380000000000043500000000043500002000000010410407031004120212574773800703000749447289   1030000200030000   541188001080000008000000294KBZ BANK               CITY MART - J MMR11007031004120212570703000000000000000   10300001 00104100000000002610000000000000     
100   95050313702988830000000000002970000000002970002000000010410407030003463346837505150703000007431776   1020000200030000   333400010001204104000000281Myanmar Soft-Gate Tech Yangon        MMR11007030003463346830703000000000000000   10300001F05104100000000000624000000000000     
100   95050312240830690000000000004950000000004950002000000010410407030503503350836072300703000007432706   1020000200030000   333400010001204104000000281Myanmar Soft-Gate Tech Yangon        MMR11007030503503350830703000000000000000   10300001F05104100000000001040000000000000     
100   62443101006037900000000000012300000000012300002000000010410407030325044269436753070703218410426943   1040001600030000   591220001346000000010001053Tun Tauk Pharmacy      Ygn           MMR11007030325044269430703000000000000000   10300001F00104100000000002952000000000000     
100   95050312781844250000000000003000000000003000002000000010410407031320535053918158340703000007434594   1030000200030000   3334000100012031040000040102C2P (Myanmar) Co. Ltd Yangon        MMR11007031320535053910703000000000000000   10300001F05104100000000000630000000000000     
100   95050312675873230000000000000990000000000990002000000010410407030417084708001625430703000007432486   1020000200030000   333400010001204104000000281Myanmar Soft-Gate Tech Yangon        MMR11007030417084708000703000000000000000   10300001F05104100000000000208000000000000     
100   95050319156011610000000000002970000000002970002000000010410407030345081508993703400703000007432387   1020000200030000   333400010001204104000000281Myanmar Soft-Gate Tech Yangon        MMR11007030345081508990703000000000000000   10300001F05104100000000000624000000000000     
100   95030301100102610000000000020000000000020000002000000010410407030801353135204773800703000007433432   1030000200030000   333800010001203104000003327KBZPay                 Yangon        MMR11007030801353135200703000000000000000   10300001F05104100000000004200000000000000     
100   95050312240830690000000000000990000000000990002000000010410407031406533653460151210703000007434778   1020000200030000   333400010001204104000000281Myanmar Soft-Gate Tech Yangon        MMR11007031406533653460703000000000000000   10300001F05104100000000000208000000000000     
100   95050312498129060000000000000990000000000990002000000010410407031306553655371548410703000007434536   1020000200030000   333400010001204104000000281Myanmar Soft-Gate Tech Yangon        MMR11007031306553655370703000000000000000   10300001F05104100000000000208000000000000     
100   95050312675873230000000000001980000000001980002000000010410407030409413941234760200703000007432465   1020000200030000   333400010001204104000000281Myanmar Soft-Gate Tech Yangon        MMR11007030409413941230703000000000000000   10300001F05104100000000000416000000000000     
100   95050319502933380000000000000990000000000990002000000010410407030616594659183752840703000007433009   1020000200030000   333400010001204104000000281Myanmar Soft-Gate Tech Yangon        MMR11007030616594659180703000000000000000   10300001F05104100000000000208000000000000     
100   95050312498129060000000000000990000000000990002000000010410407030516274627350788260703000007432752   1020000200030000   333400010001204104000000281Myanmar Soft-Gate Tech Yangon        MMR11007030516274627350703000000000000000   10300001F05104100000000000208000000000000     
100   95050312781844250000000000003000000000003000002000000010410407031423315331716676050703000007434846   1030000200030000   333800010001203104000003327KBZPay                 Yangon        MMR11007031423315331710703000000000000000   10300001F05104100000000000630000000000000     
100   95050319938772870000000000015000000000015000002000000010410407030426305630153192820703000007432540   1030000200030000   333800010001203104000003327KBZPay                 Yangon        MMR11007030426305630150703000000000000000   10300001F05104100000000003150000000000000     
100   95050320694620120000000000023150000000023150002000000010410407031329350230688284810703000749458136   1030000200030000   541188001054000008000000314KBZ BANK               MARKETPLACE - MMR11007031329350230680703000000000000000   10300001 00104100000000005788000000000000     
100   95050312498129060000000000000990000000000990002000000010410407031249381938239981020703000007434462   1020000200030000   333400010001204104000000281Myanmar Soft-Gate Tech Yangon        MMR11007031249381938230703000000000000000   10300001F05104100000000000208000000000000     
100   95050314567755980000000000002000000000002000002000000010410407030849391939332575280703000007433605   1030000200030000   333800010001203104000003327KBZPay                 Yangon        MMR11007030849391939330703000000000000000   10300001F05104100000000000420000000000000     
100   95050314567080940000000000000990000000000990002000000010410407030248101810110909010703000007432154   1020000200030000   333400010001204104000000281Myanmar Soft-Gate Tech Yangon        MMR11007030248101810110703000000000000000   10300001F05104100000000000208000000000000     
100   95050311559234320000000000004950000000004950002000000010410407030410334033673022620703000007432469   1020000200030000   333400010001204104000000281Myanmar Soft-Gate Tech Yangon        MMR11007030410334033670703000000000000000   10300001F05104100000000001040000000000000     
100   95050312360118350000000000025450000000025450002000000010410407030728274420432816780703218414442043   1040001600030000   541120000571000000010000465Ocean Shwe Gone Daing  Yangon        MMR11007030728274420430703000000000000000   10300001F00104100000000006363000000000000     
100   95050319870763910000000000000990000000000990002000000010410407030002353235392462610703000007431774   1020000200030000   333400010001204104000000281Myanmar Soft-Gate Tech Yangon        MMR11007030002353235390703000000000000000   10300001F05104100000000000208000000000000     
100   95050326159929830000000000044350000000044350002000000010410407011123490000486000530701218217000048   1030000500030000   531120155802000045311201558GAMONE PWINT           PTN           MMR11007011123490000480701000000000000000   10300001 00104100000000010644000000000000     
100   62911028202162640000000000064100000000064100002000000010410407010340480000454773800701218210000045   1030000500030000   541120020902022205411200209ORANGE (HLAING)        PTN           MMR11007010340480000450701000000000000000   10300001 00104100000000003846000000000000     
100   62911028202162640000000000036450000000036450002000000010410407010331240000434773800701218210000043   1030000500030000   541120020902022205411200209ORANGE (HLAING)        PTN           MMR11007010331240000430701000000000000000   10300001 00104100000000002187000000000000     
100   62911028202792960000000000015950000000015950002000000010410407011344460001104773800701218220000110   1030000500030000   541120227606000045411202276CITY MART ( 47 BRANCH  PTN           MMR11007011344460001100701000000000000000   10300001 00104100000000000957000000000000     
100   95050320928153430000000000026000000000026000002000000010410407020821570000373283620702218314000037   1030000500030000   531120155601000045311201556GAMONE PWINT           PTN           MMR11007020821570000370702000000000000000   10300001 00104100000000006240000000000000     
100   62911028202169750000000000025500000000025500002000000010410407020226030002174773800702218308000217   1030000500030000   598320002104000015172200021MAX ENERGY             PTN           MMR11007020226030002170702000000000000000   10300001 00104100000000000765000000000000     
100   95050327285327260000000000025200000000025200002000000010410407020625420004904546290702218312000490   1030000500030000   541120203802000015411202038CITY MART SUPERMARKET  PTN           MMR11007020625420004900702000000000000000   10300001 00104100000000006300000000000000     
100   95050321057500320000000000005250000000005250002000000010410407021221050005488611400702218318000548   1030000500030000   541120234401000045411202344CITY EXPRESS (MCS - 28 PTN           MMR11007021221050005480702000000000000000   10300001 00104100000000001313000000000000     
100   95050310332595380000000000000990000000000990002000000010410407030104453445834370370703000007431852   1020000200030000   333400010001204104000000281Myanmar Soft-Gate Tech Yangon        MMR11007030104453445830703000000000000000   10300001F05104100000000000208000000000000     
100   95050316818236190000000000004950000000004950002000000010410407030427555755554845300703000007432543   1020000200030000   333400010001204104000000281Myanmar Soft-Gate Tech Yangon        MMR11007030427555755550703000000000000000   10300001F05104100000000001040000000000000     
100   95050323233042810000000000017500000000017500002000000010410407031409563956008413630703000007434788   1030000200030000   333800010001203104000003327KBZPay                 Yangon        MMR11007031409563956000703000000000000000   10300001F05104100000000003675000000000000     
100   95050323233042810000000000000990000000000990002000000010410407030321025102601795620703000007432297   1020000200030000   333400010001204104000000281Myanmar Soft-Gate Tech Yangon        MMR11007030321025102600703000000000000000   10300001F05104100000000000208000000000000     
100   95050319938772870000000000000990000000000990002000000010410407031517424742831208020703000007435028   1020000200030000   333400010001204104000000281Myanmar Soft-Gate Tech Yangon        MMR11007031517424742830703000000000000000   10300001F05104100000000000208000000000000     
100   95050312498129060000000000001980000000001980002000000010410407031334280428521888790703000007434652   1020000200030000   333400010001204104000000281Myanmar Soft-Gate Tech Yangon        MMR11007031334280428520703000000000000000   10300001F05104100000000000416000000000000     
100   62443100330108240000000000050000000000050000002000000010410407030648181818362270550703000007433150   1030000200030000   333800010001203104000003327KBZPay                 Yangon        MMR11007030648181818360703000000000000000   10300001F05104100000000010500000000000000     
100   95050313441999020000000000015000000000015000002000000010410407030806153615387944420703000007433444   1030000200030000   333800010001203104000003327KBZPay                 Yangon        MMR11007030806153615380703000000000000000   10300001F05104100000000003150000000000000     
100   62443100333488440000000000032100000000032100002000000010410407020548470000106709340702000353263764   1030000300030000   581200001487000000000001033CB BANK                YKKO (MAKRO)  MMR11007020548470000100702000000000000000   10300001F00104100000000013643000000000000     
100   62911028202193830000000000040145000000040145002000000010410407020257530001014773800702218309000101   1030000500030000   598320001603000015172200016MAX ENERGY             PTN           MMR11007020257530001010702000000000000000   10300001 00104100000000001204000000000000     
100   62911028202115960000000000083186000000083186002000000010410407020907400019494773800702218315001949   1030000500030000   541120226805000045411202268CITY MART WAIZAYANDA   PTN           MMR11007020907400019490702000000000000000   10300001 00104100000000004991000000000000     
100   62911028202668300000000000025000000000025000002000000010410407020250490002464773800702218309000246   1030000500030000   598320001103000015172200011MAX ENERGY             PTN           MMR11007020250490002460702000000000000000   10300001 00104100000000000750000000000000     
100   62443100395250310000000000006800000000006800002000000010410407020841130003376418400702000353289243   1030000300030000   581400001671000000000001190CB BANK                SHWEPALIN JUN MMR11007020841130003370702000000000000000   10300001F00104100000000000816000000000000     
100   62443100371022130000000000005000000000005000002000000010410407021200330002075646820702218318000207   1030000500030000   598320001704000015172200017MAX ENERGY             PTN           MMR11007021200330002070702000000000000000   10300001 00104100000000000600000000000000     
100   95050327022536610000000000045000000000045000002000000010410407020448130000717291230702218311000071   1030000500030000   531120156005000045311201560GAMONE PWINT           PTN           MMR11007020448130000710702000000000000000   10300001 00104100000000010800000000000000     
100   95050325052849960000000000050000000000050000002000000010410407021044440002760269600702218317000276   1030000500030000   598320001402000015172200014MAX ENERGY             PTN           MMR11007021044440002760702000000000000000   10300001 00104100000000006000000000000000     
100   95050310427855490000000000002970000000002970002000000010410407030715454545193157170703000007433253   1020000200030000   333400010001204104000000281Myanmar Soft-Gate Tech Yangon        MMR11007030715454545190703000000000000000   10300001F05104100000000000624000000000000     
100   95050319938772870000000000000990000000000990002000000010410407031519304930592860500703000007435037   1020000200030000   333400010001204104000000281Myanmar Soft-Gate Tech Yangon        MMR11007031519304930590703000000000000000   10300001F05104100000000000208000000000000     
100   95050327531396450000000000020000000000020000002000000010410407031333420342636846250703000007434648   1030000200030000   333800010001203104000003327KBZPay                 Yangon        MMR11007031333420342630703000000000000000   10300001F05104100000000004200000000000000     
100   95050322104201170000000000070000000000070000002000000010410407030445291529119207080703000007432624   1030000200030000   333800010001203104000003327KBZPay                 Yangon        MMR11007030445291529110703000000000000000   10300001F05104100000000014700000000000000     
100   95050327416134790000000000004950000000004950002000000010410407031445311531794512990703000007434917   1020000200030000   333400010001204104000000281Myanmar Soft-Gate Tech Yangon        MMR11007031445311531790703000000000000000   10300001F05104100000000001040000000000000     
100   95050318242219520000000000001000000000001000002000000010410407031457452745016165470703000007434952   1030000200030000   3334000100012031040000040102C2P (Myanmar) Co. Ltd Yangon        MMR11007031457452745010703000000000000000   10300001F05104100000000000210000000000000     
100   95050314570621780000000000000990000000000990002000000010410407030115504550242632800703000007431875   1020000200030000   333400010001204104000000281Myanmar Soft-Gate Tech Yangon        MMR11007030115504550240703000000000000000   10300001F05104100000000000208000000000000     
100   95050310427855490000000000003960000000003960002000000010410407030018564856929157630703000007431784   1020000200030000   333400010001204104000000281Myanmar Soft-Gate Tech Yangon        MMR11007030018564856920703000000000000000   10300001F05104100000000000832000000000000     
