100   62911028202045260000000000012450000000012450002000000010410406300720350011184773800630218113001118   1030000500030000   541120203704000015411202037CITY MART SUPERMARKET  PTN           MMR11006300720350011180630000000000000000   10300001 00104100000000000747000000000000     
100   62911028202207380000000000005400000000005400002000000010410406300531000036284773800630218112003628   1030000500030000   531120155802000045311201558GAMONE PWINT           PTN           MMR11006300531000036280630000000000000000   10300001 00104100000000000324000000000000     
100   62911028202189710000000000009300000000009300002000000010410406300925560009444773800630218115000944   1030000500030000   531120226331000045311202263OCEAN SUPER CENTER STJ PTN           MMR11006300925560009440630000000000000000   10300001 00104100000000000558000000000000     
100   62911028202287150000000000020800000000020800002000000010410406300735430013564773800630218114001356   1030000500030000   541120226405000045411202264MARKET PLACE MYANMARPL PTN           MMR11006300735430013560630000000000000000   10300001 00104100000000001248000000000000     
100   62443100369813440000000000020000000000020000002000000010410406300206190000302728860630218108000030   1030000500030000   598320001301000015172200013MAX ENERGY             PTN           MMR11006300206190000300630000000000000000   10300001 00104100000000002400000000000000     
100   62911028202286990000000000050000000000050000002000000010410406301025580000524773800630218116000052   1030000500030000   598320002102000015172200021MAX ENERGY             PTN           MMR11006301025580000520630000000000000000   10300001 00104100000000001500000000000000     
100   95050324154190880000000000022000000000022000002000000010410406300351040001200140310630218110000120   1030000500030000   598320002104000015172200021MAX ENERGY             PTN           MMR11006300351040001200630000000000000000   10300001 00104100000000002640000000000000     
100   62911028202105150000000000016201000000016201002000000010410406300547110010614773800630218112001061   1030000500030000   541120230003000045411202300MARKET PLACE BY CITY M PTN           MMR11006300547110010610630000000000000000   10300001 00104100000000000972000000000000     
100   95050315017843630000000000005000000000005000002000000010410407020941051105121290760702000007429738   1040001600030000   333800010001220104000004507A +                    Yangon        MMR11007020941051105120702000000000000000   10300001F05104100000000001050000000000000     
100   95050314567080940000000000002970000000002970002000000010410407021249151915721831270702000007430616   1020000200030000   333400010001204104000000281Myanmar Soft-Gate Tech Yangon        MMR11007021249151915720702000000000000000   10300001F05104100000000000624000000000000     
100   95050323282717740000000000030500000000030500002000000010410407021327083948812973180702218320394881   1040001600030000   541120000573000000010000465Ocean Shwe Gone Daing  Yangon        MMR11007021327083948810702000000000000000   10300001F00104100000000007625000000000000     
100   95050310409767690000000000030000000000030000002000000010410407021342271227776278150702000007430836   1030000200030000   333800010001203104000003327KBZPay                 Yangon        MMR11007021342271227770702000000000000000   10300001F05104100000000006300000000000000     
100   95050312498129060000000000002970000000002970002000000010410407021148341834642426950702000007430350   1020000200030000   333400010001204104000000281Myanmar Soft-Gate Tech Yangon        MMR11007021148341834640702000000000000000   10300001F05104100000000000624000000000000     
100   95030363090756500000000000030000000000030000002000000010410407020412463534284773800702218311353428   1040001600030000   598320000660000000010000529Shwe Taung Energy (NPT Naypyitaw     MMR11007020412463534280702000000000000000   10300001F00104100000000000900000000000000     
100   62911028202527490000000000036000000000036000002000000010410406300438010001074773800630218111000107   1030000500030000   598320002004000015172200020MAX ENERGY             PTN           MMR11006300438010001070630000000000000000   10300001 00104100000000001080000000000000     
100   95050324411430900000000000039800000000039800002000000010410407020939453740296248210702218316374029   1040001600030000   598320001170000000010000527Shwe Taung Energy (YGN Yangon        MMR11007020939453740290702000000000000000   10300001F00104100000000004776000000000000     
100   95030308100042590000000000088000000000088000002000000010410406301149560000284773800630218118000028   1030000500030000   598320001704000015172200017MAX ENERGY             PTN           MMR11006301149560000280630000000000000000   10300001 00104100000000002640000000000000     
100   62443100392773440000000000084570000000084570002000000010410406300557130019210522070630218112001921   1030000500030000   531120226306000045311202263OCEAN SUPER CENTER STJ PTN           MMR11006300557130019210630000000000000000   10300001 00104100000000020297000000000000     
100   62911028202112400000000000027000000000027000002000000010410406300641010000574773800630218113000057   1030000500030000   598320001201000015172200012MAX ENERGY             PTN           MMR11006300641010000570630000000000000000   10300001 00104100000000000810000000000000     
100   62911028202690570000000000033000000000033000002000000010410406300325450001584773800630218109000158   1030000500030000   598320001001000015172200010MAX ENERGY             PTN           MMR11006300325450001580630000000000000000   10300001 00104100000000000990000000000000     
100   62911028202446700000000000002050000000002050002000000010410406300938490004044773800630218116000404   1030000500030000   541120231310000045411202313CITY MART (AYEYARWON)  PTN           MMR11006300938490004040630000000000000000   10300001 00104100000000000123000000000000     
100   95050313970192050000000000002200000000002200002000000010410406300931280001482912840630218116000148   1030000500030000   541120232801000045411202328CITY EXPRESS (MCS - 34 PTN           MMR11006300931280001480630000000000000000   10300001 00104100000000000550000000000000     
100   62911028202400660000000000023800000000023800002000000010410406301236510012994773800630218119001299   1030000500030000   531120226719000045311202267OCEAN NORTH POINT      PTN           MMR11006301236510012990630000000000000000   10300001 00104100000000001428000000000000     
100   95050323282717740000000000008500000000008500002000000010410407011233460002603716720701218219000260   1030000500030000   541120230212000045411202302CITY MART SUPERMARKET  PTN           MMR11007011233460002600701000000000000000   10300001 00104100000000002125000000000000     
100   95050319928585020000000000001000000000001000002000000010410407021152492249818951790702000007430380   1030000200030000   3338000100012031040000040022C2P (Myanmar) Co. Ltd Yangon        MMR11007021152492249810702000000000000000   10300001F05104100000000000210000000000000     
100   62911028202448030000000000014000000000014000002000000010410407021042373793604773800702218317379360   1040001600030000   569120000925000000010000672Generation Concept Sto Ygn           MMR11007021042373793600702000000000000000   10300001F00104100000000000840000000000000     
100   62443100392426520000000000010000000000010000002000000010410407020809503950817000280702000007429353   1030000200030000   333800010001203104000003327KBZPay                 Yangon        MMR11007020809503950810702000000000000000   10300001F05104100000000002100000000000000     
100   95050316321163940000000000000990000000000990002000000010410407021132490249620434080702000007430268   1020000200030000   333400010001204104000000281Myanmar Soft-Gate Tech Yangon        MMR11007021132490249620702000000000000000   10300001F05104100000000000208000000000000     
100   95030374458345210000000000080200000000080200002000000010410407020712379320044773800702227421337182   1030000900030000   541119001353190110000000977Ocean PZD C 7          YANGONAUNG    MMR11007020712379320040702000000000000000   10300001F00104100000000004812000000000000     
100   62911028202788350000000000015000000000015000002000000010410407020144261426354773800702000007427520   1030000200030000   333800010001203104000003327KBZPay                 Yangon        MMR11007020144261426350702000000000000000   10300001F05104100000000003150000000000000     
100   95030301100128610000000000300000000000300000002000000010410407020405373537884773800702000007428146   1030000200030000   333800010001203104000003327KBZPay                 Yangon        MMR11007020405373537880702000000000000000   10300001F05104100000000063000000000000000     
100   95050315017843630000000000002970000000002970002000000010410407020148481848328809180702000007427529   1020000200030000   333400010001204104000000281Myanmar Soft-Gate Tech Yangon        MMR11007020148481848320702000000000000000   10300001F05104100000000000624000000000000     
100   62911028202806660000000000009000000000009000002000000010410407010602180006444773800701218212000644   1030000500030000   541120230001000045411202300MARKET PLACE BY CITY M PTN           MMR11007010602180006440701000000000000000   10300001 00104100000000000540000000000000     
100   62911028202031710000000000003500000000003500002000000010410407021923550241594773800702000749428694   1030000200030000   541188001017000008000000008KBZ BANK               MARKETPLACE - MMR11007021923550241590702000000000000000   10300001 00104100000000000210000000000000     
100   95050318131043910000000000001980000000001980002000000010410407020506243624354872880702000007428471   1020000200030000   333400010001204104000000281Myanmar Soft-Gate Tech Yangon        MMR11007020506243624350702000000000000000   10300001F05104100000000000416000000000000     
100   95050310427855490000000000002970000000002970002000000010410407021117264726623744760702000007430178   1020000200030000   333400010001204104000000281Myanmar Soft-Gate Tech Yangon        MMR11007021117264726620702000000000000000   10300001F05104100000000000624000000000000     
100   95050312781844250000000000001000000000001000002000000010410407021408503850869498020702000007430957   1030000200030000   3334000100012031040000040102C2P (Myanmar) Co. Ltd Yangon        MMR11007021408503850860702000000000000000   10300001F05104100000000000210000000000000     
100   95050319502933380000000000005050000000005050002000000010410407021511354135556363250702000007431207   1030000200030000   333800010001203104000003327KBZPay                 Yangon        MMR11007021511354135550702000000000000000   10300001F05104100000000001061000000000000     
100   95050325784857510000000000034200000000034200002000000010410407021055079383045056860702347251707182   1030000900030000   541119001207190110000000948City Mart YK C 5       YANGONAUNG    MMR11007021055079383040702000000000000000   10300001F00104100000000008550000000000000     
100   62911028202099050000000000065000000000065000002000000010410406301044510001654773800630218117000165   1030000500030000   598320001903000015172200019MAX ENERGY             PTN           MMR11006301044510001650630000000000000000   10300001 00104100000000001950000000000000     
100   95050312781844250000000000002000000000002000002000000010410407020650362036602723610702000007429000   1030000200030000   333800010001203104000003327KBZPay                 Yangon        MMR11007020650362036600702000000000000000   10300001F05104100000000000420000000000000     
100   95050322957045260000000000050000000000050000002000000010410407020656082608453865520702000007429016   1030000200030000   3338000100012031040000040022C2P (Myanmar) Co. Ltd Yangon        MMR11007020656082608450702000000000000000   10300001F05104100000000010500000000000000     
100   95050323133124350000000000030000000000030000002000000010410407021042421242223574570702000007430053   1040001600030000   333800010001220104000004507A +                    Yangon        MMR11007021042421242220702000000000000000   10300001F05104100000000006300000000000000     
100   95050319220344710000000000015000000000015000002000000010410407011659252925324702690702000007426997   1030000900030000   333400010001202104000002022ACS                    Yangon        MMR11007011659252925320702000000000000000   10300001F05104100000000003150000000000000     
100   62911028202341350000000000024000000000024000002000000010410407021124162824134773800702541664570497   1040001400030000   569910000753025699100004683Sport Village null No( 35)  Room(5)  MMR11007021124162824130702000000000000000   10300001 00104100000000001440000000000000     
100   95050316786253730000000000040000000000040000002000000010410407020605023502491581700702000007428769   1030000200030000   333800010001203104000003327KBZPay                 Yangon        MMR11007020605023502490702000000000000000   10300001F05104100000000008400000000000000     
100   95050314160856250000000000001980000000001980002000000010410407020247181718139695790702000007427779   1020000200030000   333400010001204104000000281Myanmar Soft-Gate Tech Yangon        MMR11007020247181718130702000000000000000   10300001F05104100000000000416000000000000     
100   95050314950595330000000000003000000000003000002000000010410407021402213221781235600702000007430903   1030000200030000   3338000100012031040000040022C2P (Myanmar) Co. Ltd Yangon        MMR11007021402213221780702000000000000000   10300001F05104100000000000630000000000000     
100   62911028202132460000000000019300000000019300002000000010410407020602369300794773800702024321236182   1030000900030000   541119001213190110000000949City Mart YK Season C  YANGONAUNG    MMR11007020602369300790702000000000000000   10300001F00104100000000001158000000000000     
100   62911028202651050000000000069000000000069000002000000010410407021034553786184773800702218317378618   1040001600030000   569120000923000000010000670Generation Concept Sto Ygn           MMR11007021034553786180702000000000000000   10300001F00104100000000004140000000000000     
100   95050319156544340000000000097500000000097500002000000010410407020231280128966390820702000007427727   1030000200030000   333800010001203104000003327KBZPay                 Yangon        MMR11007020231280128960702000000000000000   10300001F05104100000000020475000000000000     
100   62911028202446700000000000023850000000023850002000000010410406300935440007064773800630218116000706   1030000500030000   541120231305000045411202313CITY MART (AYEYARWON)  PTN           MMR11006300935440007060630000000000000000   10300001 00104100000000001431000000000000     
100   62911028202045260000000000030000000000030000002000000010410406300924040000494773800630218115000049   1030000500030000   598320001204000015172200012MAX ENERGY             PTN           MMR11006300924040000490630000000000000000   10300001 00104100000000000900000000000000     
100   95050319938772870000000000000990000000000990002000000010410407020501343134455468550702000007428448   1020000200030000   333400010001204104000000281Myanmar Soft-Gate Tech Yangon        MMR11007020501343134450702000000000000000   10300001F05104100000000000208000000000000     
100   95030360160133170000000000023650000000023650002000000010410407021222029407444773800702914521802182   1030000900030000   541119000149190110000000083SeinGayHarParami Cente YANGON        MMR11007021222029407440702000000000000000   10300001F00104100000000001419000000000000     
100   62911028202294730000000000018050000000018050002000000010410407021020469371674773800702552501646182   1030000900030000   541119000130190110000000082Sein Gay Har Super Cen YANGON        MMR11007021020469371670702000000000000000   10300001F00104100000000001083000000000000     
100   95050315017843630000000000002970000000002970002000000010410407020150162016610461660702000007427534   1020000200030000   333400010001204104000000281Myanmar Soft-Gate Tech Yangon        MMR11007020150162016610702000000000000000   10300001F05104100000000000624000000000000     
100   62911028202248050000000000040000000000040000002000000010410407020222463476824773800702218309347682   1040001600030000   598320000660000000010000529Shwe Taung Energy (NPT Naypyitaw     MMR11007020222463476820702000000000000000   10300001F00104100000000001200000000000000     
100   95050312695033440000000000001980000000001980002000000010410407020307303730959865990702000007427859   1020000200030000   333400010001204104000000281Myanmar Soft-Gate Tech Yangon        MMR11007020307303730950702000000000000000   10300001F05104100000000000416000000000000     
100   95050319528093960000000000000990000000000990002000000010410407020910044004014510630702000007429644   1020000200030000   333400010001204104000000281Myanmar Soft-Gate Tech Yangon        MMR11007020910044004010702000000000000000   10300001F05104100000000000208000000000000     
100   95050310332595380000000000000990000000000990002000000010410407020333260326256404610702000007427969   1020000200030000   333400010001204104000000281Myanmar Soft-Gate Tech Yangon        MMR11007020333260326250702000000000000000   10300001F05104100000000000208000000000000     
100   95050315298771650000000000040000000000040000002000000010410407020435490549982078490702000007428313   1030000200030000   333800010001203104000003327KBZPay                 Yangon        MMR11007020435490549980702000000000000000   10300001F05104100000000008400000000000000     
100   95050320360851930000000000000990000000000990002000000010410407020642461246552808700702000007428958   1020000200030000   333400010001204104000000281Myanmar Soft-Gate Tech Yangon        MMR11007020642461246550702000000000000000   10300001F05104100000000000208000000000000     
100   95050316321163940000000000000990000000000990002000000010410407020950482048431205660702000007429772   1020000200030000   333400010001204104000000281Myanmar Soft-Gate Tech Yangon        MMR11007020950482048430702000000000000000   10300001F05104100000000000208000000000000     
100   95050312224678430000000000001980000000001980002000000010410407020253572357681688660702000007427801   1020000200030000   333400010001204104000000281Myanmar Soft-Gate Tech Yangon        MMR11007020253572357680702000000000000000   10300001F05104100000000000416000000000000     
100   62911028202231380000000000019930000000019930002000000010410406300332470000264773800630218110000026   1030000500030000   581220063701000015812200637CHINESE 47             PTN           MMR11006300332470000260630000000000000000   10300001 00104100000000002033000000000000     
100   95050324247403260000000000180500000000180500002000000010410407020256389255160036180702317260938182   1030000900030000   541119000285190110000000177Pro1 Global (Insein)   YANGON        MMR11007020256389255160702000000000000000   10300001F00104100000000045125000000000000     
100   62443100333488440000000000023900000000023900002000000010410406301049410001210543930630218117000121   1030000500030000   541120228601000045411202286CITY EXPRESS (MCS - 11 PTN           MMR11006301049410001210630000000000000000   10300001 00104100000000005975000000000000     
100   95030343892826500000000000016950000000016950002000000010410407020632369308744773800702508021336182   1030000900030000   541119001249190110000000955City Mart JS C 8       YANGONUT      MMR11007020632369308740702000000000000000   10300001F00104100000000001017000000000000     
100   95050316385053500000000000013150000000013150002000000010410407020830309341349808470702588001530182   1030000900030000   541119001163190110000000930OCEAN HTY C 13         YANGONTHARYA  MMR11007020830309341340702000000000000000   10300001F00104100000000003288000000000000     
100   95050317919176400000000000010000000000010000002000000010410406291240580004580785430629218019000458   1030000500030000   541120203802000015411202038CITY MART SUPERMARKET  PTN           MMR11006291240580004580629000000000000000   10300001 00104100000000002500000000000000     
100   62911028202221220000000000010000000000010000002000000010410406300354480001034773800630218110000103   1030000500030000   598320001202000015172200012MAX ENERGY             PTN           MMR11006300354480001030630000000000000000   10300001 00104100000000000300000000000000     
100   95050314534800510000000000001980000000001980002000000010410407020155542554892029050702000007427554   1020000200030000   333400010001204104000000281Myanmar Soft-Gate Tech Yangon        MMR11007020155542554890702000000000000000   10300001F05104100000000000416000000000000     
100   95030343892826500000000000046000000000046000002000000010410407020236253483714773800702218309348371   1040001600030000   591220000272000000010000260Shwe Ohh Pharmacy ( Th Yangon        MMR11007020236253483710702000000000000000   10300001F00104100000000002760000000000000     
100   62443100395250310000000000000990000000000990002000000010410407020920175017962773050702000007429661   1020000200030000   333400010001204104000000281Myanmar Soft-Gate Tech Yangon        MMR11007020920175017960702000000000000000   10300001F05104100000000000208000000000000     
100   95050312287957830000000000048640000000048640002000000010410407020443559280195213260702741131155182   1030000900030000   541119001353190110000000977Ocean PZD C 7          YANGONAUNG    MMR11007020443559280190702000000000000000   10300001F00104100000000012160000000000000     
100   95050316717221100000000000035650000000035650002000000010410407020757039332605007420702030271403182   1030000900030000   541119000116190110000000078Sein Gay Har Kan Thar  YANGONOKKALAP MMR11007020757039332600702000000000000000   10300001F00104100000000008913000000000000     
100   62911028202003590000000000009600000000009600002000000010410407021129139392684773800702970591713182   1030000900030000   541119000148190110000000083SeinGayHarParami Cente YANGON        MMR11007021129139392680702000000000000000   10300001F00104100000000000576000000000000     
100   95050316949180000000000000013860000000013860002000000010410407021514554455391405790702000007431216   1020000200030000   333400010001204104000000281Myanmar Soft-Gate Tech Yangon        MMR11007021514554455390702000000000000000   10300001F05104100000000002911000000000000     
100   95050322957045260000000000002000000000002000002000000010410407020011394139481227530702000007427310   1030000200030000   3338000100012031040000040022C2P (Myanmar) Co. Ltd Yangon        MMR11007020011394139480702000000000000000   10300001F05104100000000000420000000000000     
100   62443100313002190000000000215000000000215000002000000010410407020411414141807716710702000007428187   1030000200030000   333800010001203104000003327KBZPay                 Yangon        MMR11007020411414141800702000000000000000   10300001F05104100000000045150000000000000     
100   62911028202189710000000000014200000000014200002000000010410406300936160006374773800630218116000637   1030000500030000   531120226318000045311202263OCEAN SUPER CENTER STJ PTN           MMR11006300936160006370630000000000000000   10300001 00104100000000000852000000000000     
100   62443100300743690000000000082500000000082500002000000010410406301312280000241145320630218119000024   1030000500030000   581220123001000045812201230YOON KITCHEN           PTN           MMR11006301312280000240630000000000000000   10300001 00104100000000035063000000000000     
100   62911028202169750000000000020581000000020581002000000010410406300530120016494773800630218112001649   1030000500030000   541120226203000045411202262CITY MART ZAWANA       PTN           MMR11006300530120016490630000000000000000   10300001 00104100000000001235000000000000     
100   62443100333488440000000000142500000000142500002000000010410407010952470011104411280701218216001110   1030000500030000   541120226417000045411202264MARKET PLACE MYANMARPL PTN           MMR11007010952470011100701000000000000000   10300001 00104100000000035625000000000000     
100   95030389641831340000000000048314000000048314002000000010410407010843220001254773800701218215000125   1030000500030000   598320001004000015172200010MAX ENERGY             PTN           MMR11007010843220001250701000000000000000   10300001 00104100000000001449000000000000     
100   62911028202197630000000000007000000000007000002000000010410407010356420002474773800701218210000247   1030000500030000   598320001901000015172200019MAX ENERGY             PTN           MMR11007010356420002470701000000000000000   10300001 00104100000000000210000000000000     
100   62911028202212490000000000021600000000021600002000000010410407010358160000174773800701218210000017   1030000500030000   581220195901000085812201959AKKHAYA TEA HOUSE      PTN           MMR11007010358160000170701000000000000000   10300001 00104100000000002203000000000000     
100   62911028202294730000000000153008000000153008002000000010410407011032290001064773800701218217000106   1030000500030000   598320001601000015172200016MAX ENERGY             PTN           MMR11007011032290001060701000000000000000   10300001 00104100000000004590000000000000     
100   95050315745833530000000000012858000000012858002000000010410407021440210030161957740702000749413957   1030000200030000   541188001482000008000000399KBZ BANK               OCEAN SUPERCE MMR11007021440210030160702000000000000000   10300001 00104100000000003215000000000000     
100   95050324104751500000000000023150000000023150002000000010410406291200310013116247750629218018001311   1030000500030000   541120227605000045411202276CITY MART ( 47 BRANCH  PTN           MMR11006291200310013110629000000000000000   10300001 00104100000000005788000000000000     
100   95050314946697790000000000011900000000011900002000000010410407020631529308636198770702499011352182   1030000900030000   541119001187190110000000942City Mart HDC C 2      YANGONUT      MMR11007020631529308630702000000000000000   10300001F00104100000000002975000000000000     
100   62911028202225850000000000002400000000002400002000000010410407021145190103144773800702000749404260   1030000200030000   541188001062000008000000314KBZ BANK               MARKETPLACE - MMR11007021145190103140702000000000000000   10300001 00104100000000000144000000000000     
100   62443100390038980000000000149650000000149650002000000010410407011228300006376851490701000353146795   1030000300030000   541100002356000000000000102CB BANK                MAKRO MYANMAR MMR11007011228300006370701000000000000000   10300001F00104100000000037413000000000000     
100   62443101023815100000000000072286000000072286002000000010410406301048100009732196420630218117000973   1030000500030000   541120227503000045411202275CITY MART (AHLONE BRAN PTN           MMR11006301048100009730630000000000000000   10300001 00104100000000018072000000000000     
100   62911028202788350000000000015000000000015000002000000010410407011744221422464773800702000007427078   1030000200030000   333800010001203104000003327KBZPay                 Yangon        MMR11007011744221422460702000000000000000   10300001F05104100000000003150000000000000     
100   62911028202662690000000000019500000000019500002000000010410407021041093792314773800702218317379231   1040001600030000   591220000267000000010000255Shwe Ohh Pharmacy (Bah Yangon        MMR11007021041093792310702000000000000000   10300001F00104100000000001170000000000000     
100   95050310520330790000000000300000000000300000002000000010410407020620195019526028570702000007428841   1030000200030000   333800010001203104000003327KBZPay                 Yangon        MMR11007020620195019520702000000000000000   10300001F05104100000000063000000000000000     
100   95050316067768680000000000000990000000000990002000000010410407021429105910008185920702000007431037   1020000200030000   333400010001204104000000281Myanmar Soft-Gate Tech Yangon        MMR11007021429105910000702000000000000000   10300001F05104100000000000208000000000000     
100   95050317176867660000000000002970000000002970002000000010410407021629525952200895210702000007431397   1020000200030000   333400010001204104000000281Myanmar Soft-Gate Tech Yangon        MMR11007021629525952200702000000000000000   10300001F05104100000000000624000000000000     
100   95050325784857510000000000005400000000005400002000000010410407021058019383873829860702403281701182   1030000900030000   541119001213190110000000949City Mart YK Season C  YANGONAUNG    MMR11007021058019383870702000000000000000   10300001F00104100000000001350000000000000     
100   95050312695033440000000000000990000000000990002000000010410407020924125412379297890702000007429675   1020000200030000   333400010001204104000000281Myanmar Soft-Gate Tech Yangon        MMR11007020924125412370702000000000000000   10300001F05104100000000000208000000000000     
100   95050314649264560000000000036000000000036000002000000010410407021220595059316618530702000007430515   1030000200030000   333800010001203104000003327KBZPay                 Yangon        MMR11007021220595059310702000000000000000   10300001F05104100000000007560000000000000     
100   95050312695033440000000000002970000000002970002000000010410407021222545254413653950702000007430522   1020000200030000   333400010001204104000000281Myanmar Soft-Gate Tech Yangon        MMR11007021222545254410702000000000000000   10300001F05104100000000000624000000000000     
100   62443100384568160000000000450500000000450500002000000010410407020547099296778361830702770171209182   1030000900030000   594419000708190110000000539Zwe Htet Gems & Jewell YANGON        MMR11007020547099296770702000000000000000   10300001F00104100000000108120000000000000     
100   95050322921717110000000000020000000000020000002000000010410407010123000000586939950701218207000058   1030000500030000   598320001602000015172200016MAX ENERGY             PTN           MMR11007010123000000580701000000000000000   10300001 00104100000000002400000000000000     
100   62443100372718280000000000036466000000036466002000000010410407010113370002365202360701218207000236   1030000500030000   598320001903000015172200019MAX ENERGY             PTN           MMR11007010113370002360701000000000000000   10300001 00104100000000004376000000000000     
100   95050312099416380000000000008700000000008700002000000010410407010936240000154957510701218216000015   1030000500030000   541120025201022205411200252ORANGE (80ST)          PTN           MMR11007010936240000150701000000000000000   10300001 00104100000000002175000000000000     
100   95050326159929830000000000026300000000026300002000000010410407011135060000440787790701218218000044   1030000500030000   531120155804000045311201558GAMONE PWINT           PTN           MMR11007011135060000440701000000000000000   10300001 00104100000000006312000000000000     
100   62443100306028540000000000036000000000036000002000000010410407010858560003090730270701218215000309   1030000500030000   598320001901000015172200019MAX ENERGY             PTN           MMR11007010858560003090701000000000000000   10300001 00104100000000004320000000000000     
100   95050323282717740000000000006200000000006200002000000010410407011246050008739014560701218219000873   1030000500030000   541120230204000045411202302CITY MART SUPERMARKET  PTN           MMR11007011246050008730701000000000000000   10300001 00104100000000001550000000000000     
100   95050315199558640000000000015150000000015150002000000010410407010333170000102514410701218210000010   1030000500030000   591220037401014405912200374SHWE OHH PHARMACY      PTN           MMR11007010333170000100701000000000000000   10300001 00104100000000003636000000000000     
100   95030301100344930000000000022250000000022250002000000010410407011430020005824773800701000353161866   1030000300030000   541100000457000000000000323CB BANK                ONESTOP KITCH MMR11007011430020005820701000000000000000   10300001F00104100000000001335000000000000     
100   62443100395535610000000000028500000000028500002000000010410407020507410002869915430702000749403906   1030000200030000   569988002287000008000006118KBZ BANK               RIPPLES - TER MMR11007020507410002860702000000000000000   10300001 00104100000000006840000000000000     
100   62911028202790980000000001000000000001000000002000000010410407021212030000574773800702000749426588   1030000200030000   481288001529000008000004974KBZ BANK               YOUNIQUE INFO MMR11007021212030000570702000000000000000   10300001 00104100000000060000000000000000     
100   62911028202790980000000001000000000001000000002000000010410407021212440000584773800702000749426621   1030000200030000   481288001529000008000004974KBZ BANK               YOUNIQUE INFO MMR11007021212440000580702000000000000000   10300001 00104100000000060000000000000000     
100   95050319374415880000000000250600000000250600002000000010410407020825430001221546050702000749414819   1030000200030000   481281231057000008000001454KBZ BANK               SUPER MOBILE  MMR11007020825430001220702000000000000000   10300001 00104100000000060144000000000000     
100   62443100313002190000000000015600000000015600002000000010410407021432490000326659900702000749413574   1030000200030000   541188001253000008000000323KBZ BANK               CITY MART - I MMR11007021432490000320702000000000000000   10300001 00104100000000003900000000000000     
100   62911028202790980000000001000000000001000000002000000010410407021211280000564773800702000749426555   1030000200030000   481288001529000008000004974KBZ BANK               YOUNIQUE INFO MMR11007021211280000560702000000000000000   10300001 00104100000000060000000000000000     
100   62911028202790980000000001000000000001000000002000000010410407021213130000594773800702000749426641   1030000200030000   481288001529000008000004974KBZ BANK               YOUNIQUE INFO MMR11007021213130000590702000000000000000   10300001 00104100000000060000000000000000     
100   95030343892826500000000000131950000000131950002000000010410407020601200005034773800702000749406555   1030000200030000   594488000576000008000003818KBZ BANK               CHERRY OO (JU MMR11007020601200005030702000000000000000   10300001 00104100000000007917000000000000     
100   95050310213446310000000000002970000000002970002000000010410407020514574457434787780702000007428523   1020000200030000   333400010001204104000000281Myanmar Soft-Gate Tech Yangon        MMR11007020514574457430702000000000000000   10300001F05104100000000000624000000000000     
100   95050319928585020000000000000990000000000990002000000010410407020023355335570631850702000007427322   1020000200030000   333400010001204104000000281Myanmar Soft-Gate Tech Yangon        MMR11007020023355335570702000000000000000   10300001F05104100000000000208000000000000     
100   95050314160856250000000000011200000000011200002000000010410407020745519329500049970702832151451182   1030000900030000   541119000114190110000000078Sein Gay Har Kan Thar  YANGONOKKALAP MMR11007020745519329500702000000000000000   10300001F00104100000000002800000000000000     
100   95050318964967630000000000007200000000007200002000000010410407021036549377115737630702938061754182   1030000900030000   541119000114190110000000078Sein Gay Har Kan Thar  YANGONOKKALAP MMR11007021036549377110702000000000000000   10300001F00104100000000001800000000000000     
100   62911028202471600000000000045050000000045050002000000010410407021215419405434773800702783451841182   1030000900030000   591219000504190110000000351Shwe Ohh Pharmacy - (Y YANGONAW      MMR11007021215419405430702000000000000000   10300001F00104100000000002703000000000000     
100   95050314307746340000000000000990000000000990002000000010410407020619584958630986030702000007428840   1020000200030000   333400010001204104000000281Myanmar Soft-Gate Tech Yangon        MMR11007020619584958630702000000000000000   10300001F05104100000000000208000000000000     
100   95050312595952760000000000014850000000014850002000000010410407021519224922193058280702000007431225   1020000200030000   333400010001204104000000281Myanmar Soft-Gate Tech Yangon        MMR11007021519224922190702000000000000000   10300001F05104100000000003119000000000000     
100   95050319978637470000000000070000000000070000002000000010410407020639149310514461190702608091314182   1030000900030000   594419000890190110000000699Zwe Htet Gems & Jewell MANDALAYHARSA MMR11007020639149310510702000000000000000   10300001F00104100000000016800000000000000     
100   62911028202172130000000000031000000000031000002000000010410407010720230001154773800701218213000115   1030000500030000   598320001604000015172200016MAX ENERGY             PTN           MMR11007010720230001150701000000000000000   10300001 00104100000000000930000000000000     
100   62443100340422630000000000080000000000080000002000000010410407010649210001881369680701218213000188   1030000500030000   598320001304000015172200013MAX ENERGY             PTN           MMR11007010649210001880701000000000000000   10300001 00104100000000009600000000000000     
100   62911028202907560000000000060000000000060000002000000010410407010908070002894773800701218215000289   1030000500030000   598320001302000015172200013MAX ENERGY             PTN           MMR11007010908070002890701000000000000000   10300001 00104100000000001800000000000000     
100   95030308126250020000000000011500000000011500002000000010410407010956450006904773800701218216000690   1030000500030000   531120231221000045311202312OCEAN OATTARA THIRI    PTN           MMR11007010956450006900701000000000000000   10300001 00104100000000000690000000000000     
100   62911028202074950000000000034000000000034000002000000010410407011030540001764773800701218217000176   1030000500030000   598320001202000015172200012MAX ENERGY             PTN           MMR11007011030540001760701000000000000000   10300001 00104100000000001020000000000000     
100   95050326228858240000000000150000000000150000002000000010410407011223160006362950850701000353146042   1030000300030000   541100002356000000000000102CB BANK                MAKRO MYANMAR MMR11007011223160006360701000000000000000   10300001F00104100000000037500000000000000     
100   95050323282717740000000000042100000000042100002000000010410407011249030008742319520701218219000874   1030000500030000   541120230204000045411202302CITY MART SUPERMARKET  PTN           MMR11007011249030008740701000000000000000   10300001 00104100000000010525000000000000     
100   62443100333488440000000000049800000000049800002000000010410407010931110000139829870701218216000013   1030000500030000   581220216101000085812202161ASTONS                 PTN           MMR11007010931110000130701000000000000000   10300001 00104100000000021165000000000000     
100   62911028202790980000000001000000000001000000002000000010410407021210440000554773800702000749426514   1030000200030000   481288001529000008000004974KBZ BANK               YOUNIQUE INFO MMR11007021210440000550702000000000000000   10300001 00104100000000060000000000000000     
100   62911028202502480000000000071454000000071454002000000010410407020546230010584773800702000749405817   1030000200030000   541188002264000008000000010KBZ BANK               MARKETPLACE - MMR11007020546230010580702000000000000000   10300001 00104100000000004287000000000000     
100   62911028202161240000000000016560000000016560002000000010410407021118320114154773800702000749403018   1030000200030000   541188001022000008000000298KBZ BANK               CITY MART - M MMR11007021118320114150702000000000000000   10300001 00104100000000000994000000000000     
100   95050316377977350000000000010000000000010000002000000010410407020631170117029588830702000007428903   1040001600030000   333800010001220104000004507A +                    Yangon        MMR11007020631170117020702000000000000000   10300001F05104100000000002100000000000000     
100   62911028202290100000000000041900000000041900002000000010410407021452150132664773800702000749414589   1030000200030000   541188001081000008000000294KBZ BANK               CITY MART - J MMR11007021452150132660702000000000000000   10300001 00104100000000002514000000000000     
100   95050311244478510000000000033023000000033023002000000010410407021247050038809333540702000749407567   1030000200030000   541188001454000008000000391KBZ BANK               OCEAN SUPER C MMR11007021247050038800702000000000000000   10300001 00104100000000008256000000000000     
100   62911028202792960000000000003000000000003000002000000010410407021756290130664773800702000749424129   1030000200030000   541188001257000008000000310KBZ BANK               CITY MART- FM MMR11007021756290130660702000000000000000   10300001 00104100000000000180000000000000     
100   62911028202502480000000000028400000000028400002000000010410407020806330010634773800702000749413762   1030000200030000   541188002264000008000000010KBZ BANK               MARKETPLACE - MMR11007020806330010630702000000000000000   10300001 00104100000000001704000000000000     
100   62443100369813440000000000020000000000020000002000000010410407020827059340223198530702506571405182   1030000900030000   554119000997190110000000803Puma Power SOKL        YANGONOKKALAP MMR11007020827059340220702000000000000000   10300001F00104100000000002400000000000000     
100   62443100395964530000000000019950000000019950002000000010410407021049309381253404380702229191730182   1030000900030000   541119001353190110000000977Ocean PZD C 7          YANGONAUNG    MMR11007021049309381250702000000000000000   10300001F00104100000000004988000000000000     
100   95050319502933380000000000000990000000000990002000000010410407020217014701775334020702000007427663   1020000200030000   333400010001204104000000281Myanmar Soft-Gate Tech Yangon        MMR11007020217014701770702000000000000000   10300001F05104100000000000208000000000000     
100   95050314567755980000000000004950000000004950002000000010410407020528125812658348040702000007428597   1020000200030000   333400010001204104000000281Myanmar Soft-Gate Tech Yangon        MMR11007020528125812650702000000000000000   10300001F05104100000000001040000000000000     
100   95050312498129060000000000009500000000009500002000000010410407020628525852387510870702000007428883   1030000200030000   3333000100012031040000040282C2P (Myanmar) Co. Ltd Yangon        MMR11007020628525852380702000000000000000   10300001F05104100000000010000000000000000     
100   62911028202788350000000000015000000000015000002000000010410407020515564556434773800702000007428528   1030000200030000   333800010001203104000003327KBZPay                 Yangon        MMR11007020515564556430702000000000000000   10300001F05104100000000003150000000000000     
100   95050314979630620000000000005000000000005000002000000010410407021028125812702517760702000007429982   1030000200030000   3338000100012031040000040022C2P (Myanmar) Co. Ltd Yangon        MMR11007021028125812700702000000000000000   10300001F05104100000000001050000000000000     
100   95050324092693820000000001231000000001231000002000000010410407020903479350955021210702238331547182   1030000900030000   569119001345190110000000975All Star Fashion Shop  YANGON        MMR11007020903479350950702000000000000000   10300001F00104100000000295440000000000000     
100   62911028202169750000000000032000000000032000002000000010410407010949270001564773800701218216000156   1030000500030000   598320002104000015172200021MAX ENERGY             PTN           MMR11007010949270001560701000000000000000   10300001 00104100000000000960000000000000     
100   62911028202045260000000000017400000000017400002000000010410407011005140002974773800701218216000297   1030000500030000   541120234101000045411202341CITY EXPRESS (MCS - 58 PTN           MMR11007011005140002970701000000000000000   10300001 00104100000000001044000000000000     
100   95050328384000040000000000007100000000007100002000000010410407010634120008235404860701218213000823   1030000500030000   541120226814000045411202268CITY MART WAIZAYANDA   PTN           MMR11007010634120008230701000000000000000   10300001 00104100000000001775000000000000     
100   62911028202158290000000000051000000000051000002000000010410407010352560000134773800701218210000013   1030000500030000   591220012501014405912200125SHWE OHH PHARMACY      PTN           MMR11007010352560000130701000000000000000   10300001 00104100000000003060000000000000     
100   95030301100128610000000000030000000000030000002000000010410407010019000000884773800701218206000088   1030000500030000   598320002702000015172200027MAX ENERGY             PTN           MMR11007010019000000880701000000000000000   10300001 00104100000000000900000000000000     
100   95050321057500320000000000005500000000005500002000000010410407010212570000433088750701000353049512   1030000300030000   581400001771000000000001272CB BANK                BREADTALK (CR MMR11007010212570000430701000000000000000   10300001F00104100000000000660000000000000     
100   95030301100081330000000000053000000000053000002000000010410407010839320001234773800701218215000123   1030000500030000   598320001602000015172200016MAX ENERGY             PTN           MMR11007010839320001230701000000000000000   10300001 00104100000000001590000000000000     
100   95030346645639490000000000019649000000019649002000000010410407010752320000544773800701218214000054   1030000500030000   531120155712000045311201557GAMONE PWINT           PTN           MMR11007010752320000540701000000000000000   10300001 00104100000000001179000000000000     
100   95050313862405980000000000042630000000042630002000000010410407021507070030174851020702000749415447   1030000200030000   541188001482000008000000399KBZ BANK               OCEAN SUPERCE MMR11007021507070030170702000000000000000   10300001 00104100000000010658000000000000     
100   62443100378093870000000000032700000000032700002000000010410407021348270024984540570702000749430151   1030000200030000   581288000671000008000004115KBZ BANK               MIN LANN REST MMR11007021348270024980702000000000000000   10300001 00104100000000013898000000000000     
100   95050311244478510000000000016500000000016500002000000010410407021255020032789248450702000749407985   1030000200030000   541188001452000008000000391KBZ BANK               OCEAN SUPER C MMR11007021255020032780702000000000000000   10300001 00104100000000004125000000000000     
100   95050316321163940000000000002970000000002970002000000010410407021131110111880519180702000007430255   1020000200030000   333400010001204104000000281Myanmar Soft-Gate Tech Yangon        MMR11007021131110111880702000000000000000   10300001F05104100000000000624000000000000     
100   95050314114509310000000000075050000000075050002000000010410407021410290006583950610702000749412229   1030000200030000   541188001495000008000000399KBZ BANK               OCEAN SUPERCE MMR11007021410290006580702000000000000000   10300001 00104100000000018763000000000000     
100   62911028202440680000000000008000000000008000002000000010410407021132120040764773800702000749403674   1030000200030000   541188001079000008000000294KBZ BANK               CITY MART - J MMR11007021132120040760702000000000000000   10300001 00104100000000000480000000000000     
100   95030318100004530000000000048602000000048602002000000010410407021722440046604773800702000749422326   1030000200030000   541188001428000008000000401KBZ BANK               OCEAN SUPERCE MMR11007021722440046600702000000000000000   10300001 00104100000000002916000000000000     
100   95030380157605420000000000047990000000047990002000000010410407021025210020894773800702000749400604   1030000200030000   541188001479000008000000399KBZ BANK               OCEAN SUPERCE MMR11007021025210020890702000000000000000   10300001 00104100000000002879000000000000     
100   95030360160133170000000000016800000000016800002000000010410407021157459400814773800702495271845182   1030000900030000   541119000152190110000000083SeinGayHarParami Cente YANGON        MMR11007021157459400810702000000000000000   10300001F00104100000000001008000000000000     
100   62911028202198620000000000136000000000136000002000000010410407021251389415064773800702387211938182   1030000900030000   554119001100190110000000212New Day Energy PZD     YANGON        MMR11007021251389415060702000000000000000   10300001F00104100000000004080000000000000     
100   62443100345308040000000000005000000000005000002000000010410407020614304430758191640702000007428815   1030000200030000   333800010001203104000003327KBZPay                 Yangon        MMR11007020614304430750702000000000000000   10300001F05104100000000001050000000000000     
100   95050323133124350000000000003000000000003000002000000010410407020521145114486780650702000007428554   1030000200030000   333800010001203104000003327KBZPay                 Yangon        MMR11007020521145114480702000000000000000   10300001F05104100000000000630000000000000     
100   95030301100122750000000000021050000000021050002000000010410407020847119346164773800702914171511182   1030000900030000   541119001083190110000000872Sein Gay Har Hledan    YANGONUT      MMR11007020847119346160702000000000000000   10300001F00104100000000001263000000000000     
100   95050314950595330000000000007000000000007000002000000010410407021128185818633824140702000007430229   1030000200030000   3338000100012031040000040022C2P (Myanmar) Co. Ltd Yangon        MMR11007021128185818630702000000000000000   10300001F05104100000000001470000000000000     
100   95030301100103860000000000011700000000011700002000000010410407020923379356004773800702547531537182   1030000900030000   541119001207190110000000948City Mart YK C 5       YANGONAUNG    MMR11007020923379356000702000000000000000   10300001F00104100000000000702000000000000     
100   95030307963177330000000000172479000000172479002000000010410407020646529312754773800702760161352182   1030000900030000   541119001249190110000000955City Mart JS C 8       YANGONUT      MMR11007020646529312750702000000000000000   10300001F00104100000000010349000000000000     
100   62443100333488440000000000183075000000183075002000000010410407010920520000101312160701218215000010   1030000500030000   569920080901000015699200809ERKE SPORT GOODS SHOP  PTN           MMR11007010920520000100701000000000000000   10300001 00104100000000043938000000000000     
100   95050315199558640000000000017250000000017250002000000010410407011126000000159390600701218217000015   1030000500030000   591220037401014405912200374SHWE OHH PHARMACY      PTN           MMR11007011126000000150701000000000000000   10300001 00104100000000004140000000000000     
100   62443100333488440000000000025000000000025000002000000010410407010340340001514713120701218210000151   1030000500030000   598320001304000015172200013MAX ENERGY             PTN           MMR11007010340340001510701000000000000000   10300001 00104100000000003000000000000000     
100   95030393174848800000000000051224000000051224002000000010410407010435010007294773800701218211000729   1030000500030000   541120231305000045411202313CITY MART (AYEYARWON)  PTN           MMR11007010435010007290701000000000000000   10300001 00104100000000003073000000000000     
100   62911028202212490000000000065000000000065000002000000010410407010732390001504773800701218214000150   1030000500030000   598320001202000015172200012MAX ENERGY             PTN           MMR11007010732390001500701000000000000000   10300001 00104100000000001950000000000000     
100   95030301100124990000000000015200000000015200002000000010410407010426180000144773800701218210000014   1030000500030000   591220012501014405912200125SHWE OHH PHARMACY      PTN           MMR11007010426180000140701000000000000000   10300001 00104100000000000912000000000000     
100   95050323282717740000000000030000000000030000002000000010410407010105430000490159820701218207000049   1030000500030000   598320002003000015172200020MAX ENERGY             PTN           MMR11007010105430000490701000000000000000   10300001 00104100000000003600000000000000     
100   62911028202468080000000000056000000000056000002000000010410407011048270001254773800701218217000125   1030000500030000   598320001604000015172200016MAX ENERGY             PTN           MMR11007011048270001250701000000000000000   10300001 00104100000000001680000000000000     
100   95050316067768680000000000000990000000000990002000000010410407021431360136928100830702000007431055   1020000200030000   333400010001204104000000281Myanmar Soft-Gate Tech Yangon        MMR11007021431360136920702000000000000000   10300001F05104100000000000208000000000000     
100   95050325630928770000000000016182000000016182002000000010410407021131250025704957970702000749403769   1030000200030000   541188001486000008000000399KBZ BANK               OCEAN SUPERCE MMR11007021131250025700702000000000000000   10300001 00104100000000004046000000000000     
100   62911028202248050000000000083620000000083620002000000010410407021149310037134773800702218318003713   1020000200030000   541100255002300115411000025MWD BANK               YGN           MMR11007021149310037130702000000000000000   10300001 00104100000000005017000000000000     
100   62911028202141450000000000009500000000009500002000000010410407021730300090034773800702000749422808   1030000200030000   541188001074000008000000294KBZ BANK               CITY MART - J MMR11007021730300090030702000000000000000   10300001 00104100000000000570000000000000     
100   95050316818236190000000000000990000000000990002000000010410407021431510151809753310702000007431043   1020000200030000   333400010001204104000000281Myanmar Soft-Gate Tech Yangon        MMR11007021431510151800702000000000000000   10300001F05104100000000000208000000000000     
100   95030301100119700000000000014000000000014000002000000010410407021205350111084773800702000749405216   1030000200030000   541188001313000008000000306KBZ BANK               CITY MART - S MMR11007021205350111080702000000000000000   10300001 00104100000000000840000000000000     
100   95050310213446310000000000019800000000019800002000000010410407020934410441934680820702000007429713   1020000200030000   333400010001204104000000281Myanmar Soft-Gate Tech Yangon        MMR11007020934410441930702000000000000000   10300001F05104100000000004158000000000000     
100   95050312613888920000000000005100000000005100002000000010410407021132250225628781600702000007430265   1030000200030000   333800010001203104000003327KBZPay                 Yangon        MMR11007021132250225620702000000000000000   10300001F05104100000000001071000000000000     
100   95050314248160600000000000097500000000097500002000000010410407020421305130802589070702000007428243   1030000200030000   333800010001203104000003327KBZPay                 Yangon        MMR11007020421305130800702000000000000000   10300001F05104100000000020475000000000000     
100   95050312498129060000000000000990000000000990002000000010410407021422015201236533440702000007431007   1020000200030000   333400010001204104000000281Myanmar Soft-Gate Tech Yangon        MMR11007021422015201230702000000000000000   10300001F05104100000000000208000000000000     
100   95050315199558640000000000014926000000014926002000000010410407021120229390513659670702832501722182   1030000900030000   581219000372190110000000244Jo Jo HotPot(CapitalHy YANGONA       MMR11007021120229390510702000000000000000   10300001F00104100000000006344000000000000     
100   95050326094581320000000000082702000000082702002000000010410407021235359411475221340702185051935182   1030000900030000   541119001510190110000001102Ocean MGDTM-C 3        YANGONADON    MMR11007021235359411470702000000000000000   10300001F00104100000000020676000000000000     
100   95050314117051850000000000020000000000020000002000000010410407020017274727242369440702000007427314   1030000200030000   3338000100012031040000040022C2P (Myanmar) Co. Ltd Yangon        MMR11007020017274727240702000000000000000   10300001F05104100000000004200000000000000     
100   62911028202809060000000000060000000000060000002000000010410407020417304730244773800702000007428219   1030000200030000   333800010001203104000003327KBZPay                 Yangon        MMR11007020417304730240702000000000000000   10300001F05104100000000012600000000000000     
100   95050325630928770000000000000990000000000990002000000010410407020822445244714936110702000007429414   1020000200030000   333400010001204104000000281Myanmar Soft-Gate Tech Yangon        MMR11007020822445244710702000000000000000   10300001F05104100000000000208000000000000     
100   95030333409030400000000000030000000000030000002000000010410407020150229244054773800702849200822182   1030000900030000   554119001037190110000000842Puma Power(BBIBB)      MONON         MMR11007020150229244050702000000000000000   10300001F00104100000000000900000000000000     
100   95030325264619140000000000024887000000024887002000000010410407010455310014634773800701218211001463   1030000500030000   541120229104000045411202291CITY MART YANKIN       PTN           MMR11007010455310014630701000000000000000   10300001 00104100000000001493000000000000     
100   95050320213992110000000000074150000000074150002000000010410407010901300012989162890701218215001298   1030000500030000   531120226710000045311202267OCEAN NORTH POINT      PTN           MMR11007010901300012980701000000000000000   10300001 00104100000000017796000000000000     
100   62911028202677880000000000047837000000047837002000000010410407010600160018364773800701218212001836   1030000500030000   541120226805000045411202268CITY MART WAIZAYANDA   PTN           MMR11007010600160018360701000000000000000   10300001 00104100000000002870000000000000     
100   62911028202470870000000000006100000000006100002000000010410407010421480013314773800701218210001331   1030000500030000   541120203706000015411202037CITY MART SUPERMARKET  PTN           MMR11007010421480013310701000000000000000   10300001 00104100000000000366000000000000     
100   62911028202074950000000000003850000000003850002000000010410407011005420021144773800701218216002114   1030000500030000   531120226306000045311202263OCEAN SUPER CENTER STJ PTN           MMR11007011005420021140701000000000000000   10300001 00104100000000000231000000000000     
100   62443100333488440000000000216900000000216900002000000010410407011001530018145808470701218216001814   1030000500030000   541120226402000045411202264MARKET PLACE MYANMARPL PTN           MMR11007011001530018140701000000000000000   10300001 00104100000000054225000000000000     
100   62911028202074950000000000004000000000004000002000000010410407011011460021164773800701218216002116   1030000500030000   531120226306000045311202263OCEAN SUPER CENTER STJ PTN           MMR11007011011460021160701000000000000000   10300001 00104100000000000240000000000000     
100   62911028202207380000000000009250000000009250002000000010410407010735270013444773800701218214001344   1030000500030000   541120203706000015411202037CITY MART SUPERMARKET  PTN           MMR11007010735270013440701000000000000000   10300001 00104100000000000555000000000000     
100   95030301100119700000000000023399000000023399002000000010410407021208070111094773800702000749405324   1030000200030000   541188001313000008000000306KBZ BANK               CITY MART - S MMR11007021208070111090702000000000000000   10300001 00104100000000001404000000000000     
100   62911028202231380000000000010000000000010000002000000010410407021119380209984773800702000749403078   1030000200030000   541188001032000008000000298KBZ BANK               CITY MART - M MMR11007021119380209980702000000000000000   10300001 00104100000000000600000000000000     
100   62443101065883000000000000118217000000118217002000000010410407021626490019032858150702000749419400   1030000200030000   541188001010000008000000008KBZ BANK               MARKETPLACE - MMR11007021626490019030702000000000000000   10300001 00104100000000029555000000000000     
100   95030301100119700000000000005100000000005100002000000010410407021218350063204773800702000749405935   1030000200030000   541188001322000008000000306KBZ BANK               CITY MART - S MMR11007021218350063200702000000000000000   10300001 00104100000000000306000000000000     
100   62911028202130710000000000007100000000007100002000000010410407021746020075584773800702000749423624   1030000200030000   541188001307000008000000325KBZ BANK               CITY MART - A MMR11007021746020075580702000000000000000   10300001 00104100000000000426000000000000     
100   62443100313002190000000000022300000000022300002000000010410407021425500067599964870702000749413182   1030000200030000   541188001252000008000000323KBZ BANK               CITY MART - I MMR11007021425500067590702000000000000000   10300001 00104100000000005575000000000000     
100   95050315615561720000000000009900000000009900002000000010410407020532160216516454050702000007428620   1020000200030000   333400010001204104000000281Myanmar Soft-Gate Tech Yangon        MMR11007020532160216510702000000000000000   10300001F05104100000000002079000000000000     
100   62911028202440680000000000003100000000003100002000000010410407021025430110034773800702000749400634   1030000200030000   541188001088000008000000294KBZ BANK               CITY MART - J MMR11007021025430110030702000000000000000   10300001 00104100000000000186000000000000     
100   95050324200302760000000000050000000000050000002000000010410407020917479354687730500702472471547182   1030000900030000   541119000127190110000000082Sein Gay Har Super Cen YANGON        MMR11007020917479354680702000000000000000   10300001F00104100000000012500000000000000     
100   95050323133124350000000000002970000000002970002000000010410407011711354135079745240702000007427016   1020000200030000   333400010001204104000000281Myanmar Soft-Gate Tech Yangon        MMR11007011711354135070702000000000000000   10300001F05104100000000000624000000000000     
100   95050311959900780000000000000990000000000990002000000010410407021223265326518696500702000007430524   1020000200030000   333400010001204104000000281Myanmar Soft-Gate Tech Yangon        MMR11007021223265326510702000000000000000   10300001F05104100000000000208000000000000     
100   62911028202595200000000000036100000000036100002000000010410407020424439275204773800702438541043182   1030000900030000   541119000882190110000000084Pro (1) Global (Pazund YANGONARTAUNG MMR11007020424439275200702000000000000000   10300001F00104100000000002166000000000000     
100   62911028202132460000000000011000000000011000002000000010410407020552209298284773800702865221220182   1030000900030000   541119001206190110000000948City Mart YK C 4       YANGONAUNG    MMR11007020552209298280702000000000000000   10300001F00104100000000000660000000000000     
100   62443100307500000000000000960000000000960000002000000010410407020559209299919929210702963291220182   1030000900030000   594419001427190110000001031Sandar Yadanar         YANGONUT      MMR11007020559209299910702000000000000000   10300001F00104100000000230400000000000000     
100   62911028202651050000000000017400000000017400002000000010410407020704269317484773800702057341326182   1030000900030000   541119000139190110000000083SeinGayHarParami Cente YANGON        MMR11007020704269317480702000000000000000   10300001F00104100000000001044000000000000     
100   95050311438762210000000000001000000000001000002000000010410407021224095409050348980702000007430525   1030000200030000   333800010001203104000003327KBZPay                 Yangon        MMR11007021224095409050702000000000000000   10300001F05104100000000000210000000000000     
100   95050324250133010000000000025200000000025200002000000010410407010922040030000985560701000353119176   1030000300030000   531100000747000000000000408CB BANK                CAPITAL HYPER MMR11007010922040030000701000000000000000   10300001F00104100000000006048000000000000     
100   62911028202212490000000000008800000000008800002000000010410407010754540011754773800701218214001175   1030000500030000   541120227504000045411202275CITY MART (AHLONE BRAN PTN           MMR11007010754540011750701000000000000000   10300001 00104100000000000528000000000000     
100   95050325925517520000000000036500000000036500002000000010410406300859330000066522540630218115000006   1030000500030000   594520116701000015945201167TOYS M 21              PTN           MMR11006300859330000060630000000000000000   10300001 00104100000000008760000000000000     
100   62911028202440680000000000071170000000071170002000000010410406300912060000174773800630218115000017   1030000500030000   581220224901000085812202249TOKYO BBQ DINING MANPU PTN           MMR11006300912060000170630000000000000000   10300001 00104100000000007259000000000000     
100   62911028202162640000000000054650000000054650002000000010410406301126460000204773800630218117000020   1030000500030000   541120020902022205411200209ORANGE (HLAING)        PTN           MMR11006301126460000200630000000000000000   10300001 00104100000000003279000000000000     
100   95050312099416380000000000014500000000014500002000000010410406300706310000064579110630218113000006   1030000500030000   541120025201022205411200252ORANGE (80ST)          PTN           MMR11006300706310000060630000000000000000   10300001 00104100000000003625000000000000     
100   95050325273694860000000000008700000000008700002000000010410406301117060000060209260630218117000006   1030000500030000   541120024801022205411200248ORANGE (THARKAYTA)     PTN           MMR11006301117060000060630000000000000000   10300001 00104100000000002175000000000000     
100   95050312173216740000000000039600000000039600002000000010410406300651240000019380160630218113000001   1030000500030000   569120087101006305691200871DYNAMIC PINLON (2)     PTN           MMR11006300651240000010630000000000000000   10300001 00104100000000009504000000000000     
100   95050315430281830000000000100000000000100000002000000010410407020845381538161460950702000007429546   1030000200030000   333800010001203104000003327KBZPay                 Yangon        MMR11007020845381538160702000000000000000   10300001F05104100000000021000000000000000     
100   95050312820609340000000000300000000000300000002000000010410407020745381538171702450702000007429250   1030000200030000   333800010001203104000003327KBZPay                 Yangon        MMR11007020745381538170702000000000000000   10300001F05104100000000063000000000000000     
100   95050319938772870000000000000990000000000990002000000010410407021406183618852802990702000007430943   1020000200030000   333400010001204104000000281Myanmar Soft-Gate Tech Yangon        MMR11007021406183618850702000000000000000   10300001F05104100000000000208000000000000     
100   62911028202907490000000000028100000000028100002000000010410407020805563682924773800702218315368292   1040001600030000   591220000299000000010000287Shwe Ohh Pharmacy (Yan Yangon        MMR11007020805563682920702000000000000000   10300001F00104100000000001686000000000000     
100   62911028202446540000000000074600000000074600002000000010410407020225193478064773800702218309347806   1040001600030000   591220000287000000010000275Shwe Ohh Pharmacy (Wit Yangon        MMR11007020225193478060702000000000000000   10300001F00104100000000004476000000000000     
100   62911028202169750000000000272202000000272202002000000010410407020307493499734773800702218310349973   1040001600030000   541120000561000000010000465Ocean Shwe Gone Daing  Yangon        MMR11007020307493499730702000000000000000   10300001F00104100000000016332000000000000     
100   95050312613888920000000000002000000000002000002000000010410407020239590959653085860702000007427749   1030000200030000   333800010001203104000003327KBZPay                 Yangon        MMR11007020239590959650702000000000000000   10300001F05104100000000000420000000000000     
100   95050322654733420000000000005000000000005000002000000010410407020746291629618397490702000007429254   1030000200030000   3338000100012031040000040022C2P (Myanmar) Co. Ltd Yangon        MMR11007020746291629610702000000000000000   10300001F05104100000000001050000000000000     
100   62911028202530930000000000100000000000100000002000000010410406300728150000024773800630218113000002   1030000500030000   598320001601000015172200016MAX ENERGY             PTN           MMR11006300728150000020630000000000000000   10300001 00104100000000003000000000000000     
100   95050325273694860000000000001500000000001500002000000010410406301119070000088556770630218117000008   1030000500030000   541120024802022205411200248ORANGE (THARKAYTA)     PTN           MMR11006301119070000080630000000000000000   10300001 00104100000000000375000000000000     
100   62443101007477200000000000014000000000014000002000000010410406301504310000296868640630218121000029   1030000500030000   581320123101000045813201231MALIBU BAR             PTN           MMR11006301504310000290630000000000000000   10300001 00104100000000005950000000000000     
100   95050320531117320000000000072008000000072008002000000010410406300244010000097225180630218109000009   1030000500030000   598320001502000015172200015MAX ENERGY             PTN           MMR11006300244010000090630000000000000000   10300001 00104100000000008641000000000000     
100   95050329252108030000000000010000000000010000002000000010410406301329310000029663030630218119000002   1030000500030000   598320041901000055983200419MAX ENERGY             PTN           MMR11006301329310000020630000000000000000   10300001 00104100000000001200000000000000     
100   62443100358839880000000000010500000000010500002000000010410406301046520000057238960630218117000005   1030000500030000   531120155601000045311201556GAMONE PWINT           PTN           MMR11006301046520000050630000000000000000   10300001 00104100000000002520000000000000     
100   62911028202421380000000000089000000000089000002000000010410406300353360000224773800630218110000022   1030000500030000   598320001904000015172200019MAX ENERGY             PTN           MMR11006300353360000220630000000000000000   10300001 00104100000000002670000000000000     
100   62911028202108460000000000078250000000078250002000000010410406300229120000024773800630218108000002   1030000500030000   591220013401014405912200134SHWE OHH PHARMACY      PTN           MMR11006300229120000020630000000000000000   10300001 00104100000000004695000000000000     
100   62911028202448030000000000040000000000040000002000000010410407020945443744274773800702218316374427   1040001600030000   598320001170000000010000527Shwe Taung Energy (YGN Yangon        MMR11007020945443744270702000000000000000   10300001F00104100000000001200000000000000     
100   62443100340604550000000000059100000000059100002000000010410407022102170254274795860702000749430946   1030000200030000   541188001001000008000000008KBZ BANK               MARKETPLACE - MMR11007022102170254270702000000000000000   10300001 00104100000000014775000000000000     
100   95050312675873230000000000010000000000010000002000000010410407021045561556325227050702000007430067   1030000200030000   333800010001203104000003327KBZPay                 Yangon        MMR11007021045561556320702000000000000000   10300001F05104100000000002100000000000000     
100   95050329213164970000000000002970000000002970002000000010410407020853192319196843880702000007429580   1020000200030000   333400010001204104000000281Myanmar Soft-Gate Tech Yangon        MMR11007020853192319190702000000000000000   10300001F05104100000000000624000000000000     
100   62911028202057620000000000180000000000180000002000000010410407021341361136984773800702000007430835   1030000200030000   333800010001203104000003327KBZPay                 Yangon        MMR11007021341361136980702000000000000000   10300001F05104100000000037800000000000000     
100   95050327531396450000000000050000000000050000002000000010410407021000453045407900700702000007429842   1030000200030000   333800010001203104000003327KBZPay                 Yangon        MMR11007021000453045400702000000000000000   10300001F05104100000000010500000000000000     
100   95030301100128610000000000300000000000300000002000000010410407020404023402744773800702000007428135   1030000200030000   333800010001203104000003327KBZPay                 Yangon        MMR11007020404023402740702000000000000000   10300001F05104100000000063000000000000000     
100   95050315122972560000000000000990000000000990002000000010410407021209463946175136250702000007430468   1020000200030000   333400010001204104000000281Myanmar Soft-Gate Tech Yangon        MMR11007021209463946170702000000000000000   10300001F05104100000000000208000000000000     
100   95050323049250880000000000040800000000040800002000000010410406300359060000048984620630218110000004   1030000500030000   531120201602000085311202016STJ BLAZON             PTN           MMR11006300359060000040630000000000000000   10300001 00104100000000009792000000000000     
100   95030349489765520000000000031200000000031200002000000010410406301108290000144773800630218117000014   1030000500030000   591220014201014405912200142SHWE OHH PHARMACY      PTN           MMR11006301108290000140630000000000000000   10300001 00104100000000001872000000000000     
100   62911028202197630000000000038400000000038400002000000010410406300805100000124773800630218114000012   1030000500030000   541120024702022205411200247ORANGE (SHWE PYI THAR) PTN           MMR11006300805100000120630000000000000000   10300001 00104100000000002304000000000000     
100   95050323282717740000000000020000000000020000002000000010410406300041040000101721490630218107000010   1030000500030000   598320001301000015172200013MAX ENERGY             PTN           MMR11006300041040000100630000000000000000   10300001 00104100000000002400000000000000     
100   62443100333488440000000000022200000000022200002000000010410406290845450001120282620629218015000112   1030000500030000   541120228601000045411202286CITY EXPRESS (MCS - 11 PTN           MMR11006290845450001120629000000000000000   10300001 00104100000000005550000000000000     
100   95050325925517520000000000010700000000010700002000000010410406290359050012729791630629218010001272   1030000500030000   541120227605000045411202276CITY MART ( 47 BRANCH  PTN           MMR11006290359050012720629000000000000000   10300001 00104100000000002675000000000000     
100   62911028202446540000000000035000000000035000002000000010410406301135200000614773800630218118000061   1030000500030000   598320002102000015172200021MAX ENERGY             PTN           MMR11006301135200000610630000000000000000   10300001 00104100000000001050000000000000     
100   62911028202116120000000000060197000000060197002000000010410406301221310000474773800630218118000047   1030000500030000   531120155715000045311201557GAMONE PWINT           PTN           MMR11006301221310000470630000000000000000   10300001 00104100000000003612000000000000     
100   95050317072727910000000000000990000000000990002000000010410407020435390539690426000702000007428310   1020000200030000   333400010001204104000000281Myanmar Soft-Gate Tech Yangon        MMR11007020435390539690702000000000000000   10300001F05104100000000000208000000000000     
100   95050314692738880000000000001980000000001980002000000010410407021241431143393568850702000007430596   1020000200030000   333400010001204104000000281Myanmar Soft-Gate Tech Yangon        MMR11007021241431143390702000000000000000   10300001F05104100000000000416000000000000     
100   95050319161596230000000000001980000000001980002000000010410407021051072107256794440702000007430082   1020000200030000   333400010001204104000000281Myanmar Soft-Gate Tech Yangon        MMR11007021051072107250702000000000000000   10300001F05104100000000000416000000000000     
100   95050311931431670000000000004950000000004950002000000010410407021454112411164710760702000007431151   1020000200030000   333400010001204104000000281Myanmar Soft-Gate Tech Yangon        MMR11007021454112411160702000000000000000   10300001F05104100000000001040000000000000     
100   95050313732480420000000000000990000000000990002000000010410407020302403240864993630702000007427835   1020000200030000   333400010001204104000000281Myanmar Soft-Gate Tech Yangon        MMR11007020302403240860702000000000000000   10300001F05104100000000000208000000000000     
100   95050313680467160000000000003912000000003912002000000010410407021440211021876448340702000007431098   1020000200030000   333400010001204104000000281Myanmar Soft-Gate Tech Yangon        MMR11007021440211021870702000000000000000   10300001F05104100000000000821000000000000     
100   95030331359799240000000000001000000000001000002000000010410407020742161216754773800702000007429239   1030000200030000   3338000100012031040000040022C2P (Myanmar) Co. Ltd Yangon        MMR11007020742161216750702000000000000000   10300001F05104100000000000210000000000000     
100   95050315889680120000000000013010000000013010002000000010410407020743011301336745000702000007429243   1030000200030000   333800010001203104000003327KBZPay                 Yangon        MMR11007020743011301330702000000000000000   10300001F05104100000000002732000000000000     
100   62443100373945130000000000020000000000020000002000000010410406301349440001252968000630218120000125   1030000500030000   598320001302000015172200013MAX ENERGY             PTN           MMR11006301349440001250630000000000000000   10300001 00104100000000002400000000000000     
100   62911028202221220000000000010000000000010000002000000010410406300443380000744773800630218111000074   1030000500030000   598320001601000015172200016MAX ENERGY             PTN           MMR11006300443380000740630000000000000000   10300001 00104100000000000300000000000000     
100   62911028202442250000000000027000000000027000002000000010410406300112220000734773800630218107000073   1030000500030000   598320001202000015172200012MAX ENERGY             PTN           MMR11006300112220000730630000000000000000   10300001 00104100000000000810000000000000     
100   95050313970192050000000000007400000000007400002000000010410406301259420001546528250630218119000154   1030000500030000   541120232801000045411202328CITY EXPRESS (MCS - 34 PTN           MMR11006301259420001540630000000000000000   10300001 00104100000000001850000000000000     
100   62911028202443730000000000078733000000078733002000000010410406300341160011904773800630218110001190   1030000500030000   531120226307000045311202263OCEAN SUPER CENTER STJ PTN           MMR11006300341160011900630000000000000000   10300001 00104100000000004724000000000000     
100   95050322715181550000000000075000000000075000002000000010410406301136170001006989390630218118000100   1030000500030000   598320001404000015172200014MAX ENERGY             PTN           MMR11006301136170001000630000000000000000   10300001 00104100000000009000000000000000     
100   62911028202169750000000000004500000000004500002000000010410406300534390007864773800630218112000786   1030000500030000   541120226206000045411202262CITY MART ZAWANA       PTN           MMR11006300534390007860630000000000000000   10300001 00104100000000000270000000000000     
100   95030325264619140000000000050000000000050000002000000010410406301045070000784773800630218117000078   1030000500030000   598320002103000015172200021MAX ENERGY             PTN           MMR11006301045070000780630000000000000000   10300001 00104100000000001500000000000000     
100   95030312100077850000000000031000000000031000002000000010410407021212433879654773800702218319387965   1040001600030000   598320001170000000010000527Shwe Taung Energy (YGN Yangon        MMR11007021212433879650702000000000000000   10300001F00104100000000000930000000000000     
100   62911028202777790000000000007500000000007500002000000010410407011642181218774773800702000007426968   1030000200030000   333800010001203104000003327KBZPay                 Yangon        MMR11007011642181218770702000000000000000   10300001F05104100000000001575000000000000     
100   95050314292165140000000000015000000000015000002000000010410407020141451145005078730702000007427514   1030000200030000   3338000100012031040000040022C2P (Myanmar) Co. Ltd Yangon        MMR11007020141451145000702000000000000000   10300001F05104100000000003150000000000000     
100   62911028202788350000000000010000000000010000002000000010410407020855592559774773800702000007429591   1030000200030000   333800010001203104000003327KBZPay                 Yangon        MMR11007020855592559770702000000000000000   10300001F05104100000000002100000000000000     
100   95050312781844250000000000001000000000001000002000000010410407021005093509698957500702000007429865   1030000200030000   3334000100012031040000040102C2P (Myanmar) Co. Ltd Yangon        MMR11007021005093509690702000000000000000   10300001F05104100000000000210000000000000     
100   62911028202788350000000000015000000000015000002000000010410407020205203520044773800702000007427609   1030000200030000   333800010001203104000003327KBZPay                 Yangon        MMR11007020205203520040702000000000000000   10300001F05104100000000003150000000000000     
100   95050315615561720000000000002970000000002970002000000010410407020534100410013149090702000007428626   1020000200030000   333400010001204104000000281Myanmar Soft-Gate Tech Yangon        MMR11007020534100410010702000000000000000   10300001F05104100000000000624000000000000     
100   95050316442084030000000000010200000000010200002000000010410407020547001700270014310702000007428684   1030000200030000   333800010001203104000003327KBZPay                 Yangon        MMR11007020547001700270702000000000000000   10300001F05104100000000002142000000000000     
