100   95050312675525330000000000008000000000008000002000000010410407010659032903253447640701000007423264   1030000200030000   333800010001203104000003327KBZPay                 Yangon        MMR11007010659032903250701000000000000000   10300001F05104100000000001680000000000000     
100   95050319728246800000000000300000000000300000002000000010410407010304083408997096350701000007420583   1030000500030000   333800010001201104000003863AYA Pay                Yangon        MMR11007010304083408990701000000000000000   10300001F05104100000000063000000000000000     
100   95050312781844250000000000290000000000290000002000000010410407010701273127727164300701000007423288   1040001600030000   333800010001220104000004507A +                    Yangon        MMR11007010701273127720701000000000000000   10300001F05104100000000060900000000000000     
100   95050313396828960000000000004950000000004950002000000010410407011011594159687872650701000007425129   1020000200030000   333400010001204104000000281Myanmar Soft-Gate Tech Yangon        MMR11007011011594159680701000000000000000   10300001F05104100000000001040000000000000     
100   95050323133124350000000000010000000000010000002000000010410407011312004200950837240701000007426126   1030000200030000   333800010001203104000003327KBZPay                 Yangon        MMR11007011312004200950701000000000000000   10300001F05104100000000002100000000000000     
100   95030301100128610000000000300000000000300000002000000010410407011141261126554773800701000007425642   1030000200030000   333800010001203104000003327KBZPay                 Yangon        MMR11007011141261126550701000000000000000   10300001F05104100000000063000000000000000     
100   95050322957045260000000000100000000000100000002000000010410407010151302130438046200701000007420054   1030000200030000   3338000100012031040000040022C2P (Myanmar) Co. Ltd Yangon        MMR11007010151302130430701000000000000000   10300001F05104100000000021000000000000000     
100   62911028202788350000000000010000000000010000002000000010410407011149281928704773800701000007425709   1030000200030000   333800010001203104000003327KBZPay                 Yangon        MMR11007011149281928700701000000000000000   10300001F05104100000000002100000000000000     
100   95050318463049920000000000002200000000002200002000000010410406300521320000824968940630000352893161   1030000300030000   531100000602000000000000408CB BANK                CAPITAL HYPER MMR11006300521320000820630000000000000000   10300001F00104100000000000528000000000000     
100   62443100306045460000000000124800000000124800002000000010410406300941440000807615000630000352936382   1030000300030000   541100002331000000000000102CB BANK                MAKRO MYANMAR MMR11006300941440000800630000000000000000   10300001F00104100000000031200000000000000     
100   95050323282717740000000000027300000000027300002000000010410406301223530005915847480630000352960919   1030000300030000   541100002372000000000000102CB BANK                MAKRO MYANMAR MMR11006301223530005910630000000000000000   10300001F00104100000000006825000000000000     
100   62443101093150400000000000021050000000021050002000000010410406300225400004976714590630000352867423   1030000300030000   541100002355000000000000102CB BANK                MAKRO MYANMAR MMR11006300225400004970630000000000000000   10300001F00104100000000005263000000000000     
100   95030301100126550000000000024000000000024000002000000010410406301103160218104773800630218111021810   1030000600030000   554100002323315799420000474DENKO N.DAGON - 1      YANGON        MMR11006301103160218100630000000000000000   10300001 00104100000000000720000000000000     
100   95030305700676370000000000040000000000040000002000000010410406301024070079774773800630218110007977   1030000600030000   554100002141315799420001490DENKO MEIKHTILA 3      MANDALAY      MMR11006301024070079770630000000000000000   10300001 00104100000000001200000000000000     
100   62911028202656670000000000070510000000070510002000000010410406300744170144414773800630218107014441   1030000600030000   581200000524315799420000141FUJI COFFEE HOUSE      YANGON        MMR11006300744170144410630000000000000000   10300001 00104100000000007192000000000000     
100   62911028202169750000000000046789000000046789002000000010410406300444001964984773800630218111196498   1040001600030000   541120000557000000010000465Ocean Shwe Gone Daing  Yangon        MMR11006300444001964980630000000000000000   10300001F00104100000000002807000000000000     
100   62911028202533740000000000132260000000132260002000000010410407010606202722994773800701218213272299   1040001600030000   541120000559000000010000465Ocean Shwe Gone Daing  Yangon        MMR11007010606202722990701000000000000000   10300001F00104100000000007936000000000000     
100   95050314692738880000000000004900000000004900002000000010410407010201223122005081620701000007420118   1020000200030000   333400010001204104000000281Myanmar Soft-Gate Tech Yangon        MMR11007010201223122000701000000000000000   10300001F05104100000000001029000000000000     
100   95050310332595380000000000001960000000001960002000000010410407010214534453846563910701000007420191   1020000200030000   333400010001204104000000281Myanmar Soft-Gate Tech Yangon        MMR11007010214534453840701000000000000000   10300001F05104100000000000412000000000000     
100   62911028202369990000000000100000000000100000002000000010410407011417244724694773800701000007426469   1030000200030000   333800010001203104000003327KBZPay                 Yangon        MMR11007011417244724690701000000000000000   10300001F05104100000000021000000000000000     
100   95050312568198510000000000002000000000002000002000000010410407010915454545847255110701000007424652   1030000200030000   3338000100012031040000040022C2P (Myanmar) Co. Ltd Yangon        MMR11007010915454545840701000000000000000   10300001F05104100000000000420000000000000     
100   95050312498129060000000000002970000000002970002000000010410407011245101510488503980701000007426010   1020000200030000   333400010001204104000000281Myanmar Soft-Gate Tech Yangon        MMR11007011245101510480701000000000000000   10300001F05104100000000000624000000000000     
100   95050317876216360000000000000990000000000990002000000010410407010348081808749245090701000007421183   1020000200030000   333400010001204104000000281Myanmar Soft-Gate Tech Yangon        MMR11007010348081808740701000000000000000   10300001F05104100000000000208000000000000     
100   95050312962334280000000000000990000000000990002000000010410407011457052705947752360701000007426672   1020000200030000   333400010001204104000000281Myanmar Soft-Gate Tech Yangon        MMR11007011457052705940701000000000000000   10300001F05104100000000000208000000000000     
100   95050317876216360000000000004900000000004900002000000010410407010300353035885273670701000007420541   1020000200030000   333400010001204104000000281Myanmar Soft-Gate Tech Yangon        MMR11007010300353035880701000000000000000   10300001F05104100000000001029000000000000     
100   95050310711432300000000000300000000000300000002000000010410407010913394339110474980701000007424634   1030000200030000   333800010001203104000003327KBZPay                 Yangon        MMR11007010913394339110701000000000000000   10300001F05104100000000063000000000000000     
100   95050326590859670000000000050000000000050000002000000010410407011059052905796900940701000007425414   1030000200030000   333800010001203104000003327KBZPay                 Yangon        MMR11007011059052905790701000000000000000   10300001F05104100000000010500000000000000     
100   95050323067379780000000000300000000000300000002000000010410407010811314131121100600701000007424004   1030000200030000   333800010001203104000003327KBZPay                 Yangon        MMR11007010811314131120701000000000000000   10300001F05104100000000063000000000000000     
100   95050314327553180000000000009000000000009000002000000010410407011116194619254106550701000007425512   1030000200030000   333800010001203104000003327KBZPay                 Yangon        MMR11007011116194619250701000000000000000   10300001F05104100000000001890000000000000     
100   62911028202684060000000000029300000000029300002000000010410407011502130193894773800701000749369176   1030000200030000   541188001124000008000000296KBZ BANK               CITY MART - J MMR11007011502130193890701000000000000000   10300001 00104100000000001758000000000000     
100   62911028202166940000000000056750000000056750002000000010410407011726070138364773800701000749377488   1030000200030000   541188001127000008000000296KBZ BANK               CITY MART - J MMR11007011726070138360701000000000000000   10300001 00104100000000003405000000000000     
100   95050310305100650000000000010000000000010000002000000010410407010944161416533645410701000007424900   1030000200030000   3338000100012031040000040022C2P (Myanmar) Co. Ltd Yangon        MMR11007010944161416530701000000000000000   10300001F05104100000000002100000000000000     
100   62443100323428970000000000180850000000180850002000000010410407011113153016562368970701218218301656   1040001600030000   591220000301000000010000289Shwe Ohh Pharmacy (Yay Yangon        MMR11007011113153016560701000000000000000   10300001F00104100000000043404000000000000     
100   95050312613888920000000000040000000000040000002000000010410407011059492949548638520701000007425421   1030000200030000   333800010001203104000003327KBZPay                 Yangon        MMR11007011059492949540701000000000000000   10300001F05104100000000008400000000000000     
100   95050314931885730000000000001000000000001000002000000010410407011501083108352794920701000007426687   1030000200030000   3338000100012031040000040022C2P (Myanmar) Co. Ltd Yangon        MMR11007011501083108350701000000000000000   10300001F05104100000000000210000000000000     
100   95050313396828960000000000001980000000001980002000000010410407010512454245493299320701000007422215   1020000200030000   333400010001204104000000281Myanmar Soft-Gate Tech Yangon        MMR11007010512454245490701000000000000000   10300001F05104100000000000416000000000000     
100   95050311959900780000000000004950000000004950002000000010410407010418124812124095580701000007421579   1020000200030000   333400010001204104000000281Myanmar Soft-Gate Tech Yangon        MMR11007010418124812120701000000000000000   10300001F05104100000000001040000000000000     
100   95050322318997110000000000040000000000040000002000000010410407010037480748410088510701000007419773   1030000200030000   333800010001203104000003327KBZPay                 Yangon        MMR11007010037480748410701000000000000000   10300001F05104100000000008400000000000000     
100   95050315743141220000000000060000000000060000002000000010410407010642001200407809420701000007423054   1030000200030000   333800010001203104000003327KBZPay                 Yangon        MMR11007010642001200400701000000000000000   10300001F05104100000000012600000000000000     
100   95050326393773020000000000002970000000002970002000000010410407011054422442491858390701000007425385   1020000200030000   333400010001204104000000281Myanmar Soft-Gate Tech Yangon        MMR11007011054422442490701000000000000000   10300001F05104100000000000624000000000000     
100   95050315557781210000000000131000000000131000002000000010410407010222345234091933050701000007420238   1030000200030000   333800010001203104000003327KBZPay                 Yangon        MMR11007010222345234090701000000000000000   10300001F05104100000000027510000000000000     
100   95050314557307430000000000003960000000003960002000000010410407010942381238889028340701000007424888   1020000200030000   333400010001204104000000281Myanmar Soft-Gate Tech Yangon        MMR11007010942381238880701000000000000000   10300001F05104100000000000832000000000000     
100   95050317685093130000000000060000000000060000002000000010410407010640461046403823680701000007423041   1030000200030000   333800010001203104000003327KBZPay                 Yangon        MMR11007010640461046400701000000000000000   10300001F05104100000000012600000000000000     
100   95050318597867880000000000025000000000025000002000000010410407011451032103306184980701000007426640   1030000200030000   333800010001203104000003327KBZPay                 Yangon        MMR11007011451032103300701000000000000000   10300001F05104100000000005250000000000000     
100   95030306100096490000000000001980000000001980002000000010410407011434030403724773800701000007426571   1020000200030000   333400010001204104000000281Myanmar Soft-Gate Tech Yangon        MMR11007011434030403720701000000000000000   10300001F05104100000000000416000000000000     
100   95030327582492680000000000050000000000050000002000000010410407010418364836594773800701000007421583   1030000200030000   333800010001203104000003327KBZPay                 Yangon        MMR11007010418364836590701000000000000000   10300001F05104100000000010500000000000000     
100   95050320205194540000000000150300000000150300002000000010410407011107543010325929230701218218301032   1040001600030000   591220000295000000010000283Shwe Ohh Pharmacy (39t Yangon        MMR11007011107543010320701000000000000000   10300001F00104100000000036072000000000000     
100   62911028202527490000000000005700000000005700002000000010410407010511402686984773800701218212268698   1040001600030000   591220000302000000010000290Shwe Ohh Pharmacy (Nor Yangon        MMR11007010511402686980701000000000000000   10300001F00104100000000000342000000000000     
100   95050312498129060000000000000990000000000990002000000010410407011247471747381808950701000007426031   1020000200030000   333400010001204104000000281Myanmar Soft-Gate Tech Yangon        MMR11007011247471747380701000000000000000   10300001F05104100000000000208000000000000     
100   62911028202099050000000000047100000000047100002000000010410407011001412852384773800701218217285238   1040001600030000   591220000266000000010000254Shwe Ohh Pharmacy (Sin Yangon        MMR11007011001412852380701000000000000000   10300001F00104100000000002826000000000000     
100   95050322478649490000000000000980000000000980002000000010410407010326535653059110550701000007420971   1020000200030000   333400010001204104000000281Myanmar Soft-Gate Tech Yangon        MMR11007010326535653050701000000000000000   10300001F05104100000000000206000000000000     
100   62911028202809060000000000060000000000060000002000000010410407010454082408414773800701000007422019   1030000200030000   333800010001203104000003327KBZPay                 Yangon        MMR11007010454082408410701000000000000000   10300001F05104100000000012600000000000000     
100   62911028202221220000000000010000000000010000002000000010410407010433222666344773800701218211266634   1040001600030000   598320000659000000010000528Shwe Taung Energy (YGN Yangon        MMR11007010433222666340701000000000000000   10300001F00104100000000000300000000000000     
100   95050317100052460000000000035000000000035000002000000010410407010610364036983557430701000007422786   1030000200030000   333800010001203104000003327KBZPay                 Yangon        MMR11007010610364036980701000000000000000   10300001F05104100000000007350000000000000     
100   95050312529325420000000000020000000000020000002000000010410407011507203720884362300701000007426709   1030000200030000   3338000100012031040000040022C2P (Myanmar) Co. Ltd Yangon        MMR11007011507203720880701000000000000000   10300001F05104100000000004200000000000000     
100   95050318141561190000000000005000000000005000002000000010410407010306583658787692030701000007420644   1030000200030000   333800010001203104000003327KBZPay                 Yangon        MMR11007010306583658780701000000000000000   10300001F05104100000000001050000000000000     
100   62443100395535610000000000300000000000300000002000000010410407011103223322600291010701000007425430   1030000200030000   333800010001203104000003327KBZPay                 Yangon        MMR11007011103223322600701000000000000000   10300001F05104100000000063000000000000000     
100   95050312171561790000000000040000000000040000002000000010410407010507023702720880960701000007422136   1030000200030000   333800010001203104000003327KBZPay                 Yangon        MMR11007010507023702720701000000000000000   10300001F05104100000000008400000000000000     
100   95050319709462380000000000000990000000000990002000000010410407010416324632321202310701000007421560   1020000200030000   333400010001204104000000281Myanmar Soft-Gate Tech Yangon        MMR11007010416324632320701000000000000000   10300001F05104100000000000208000000000000     
100   95050319709462380000000000010000000000010000002000000010410407011442061206559489950701000007426602   1030000200030000   3338000100012031040000040022C2P (Myanmar) Co. Ltd Yangon        MMR11007011442061206550701000000000000000   10300001F05104100000000002100000000000000     
100   95050314020354280000000000006400000000006400002000000010410407010940049090168687960701096101604181   1030000900030000   541119000116190110000000078Sein Gay Har Kan Thar  YANGONOKKALAP MMR11007010940049090160701000000000000000   10300001F00104100000000001600000000000000     
100   95050310553090700000000000013001000000013001002000000010410407010847279075337340210701323171527181   1030000900030000   541119000122190110000000080Sein Gay Har BAK       YANGONADA     MMR11007010847279075330701000000000000000   10300001F00104100000000003251000000000000     
100   95050317743858310000000000007500000000007500002000000010410406301008330035320373740630000352940516   1030000300030000   729800001742000000000001247CB BANK                ART & T8      MMR11006301008330035320630000000000000000   10300001F00104100000000001800000000000000     
100   62911028202400660000000000023700000000023700002000000010410407011315340312594773800701000749358636   1030000200030000   541188001042000008000000010KBZ BANK               MARKETPLACE - MMR11007011315340312590701000000000000000   10300001 00104100000000001422000000000000     
100   95050311184380560000000000004950000000004950002000000010410407011425005500727191880701000007426514   1020000200030000   333400010001204104000000281Myanmar Soft-Gate Tech Yangon        MMR11007011425005500720701000000000000000   10300001F05104100000000001040000000000000     
100   95050312240830690000000000000990000000000990002000000010410407011526345634076014790701000007426789   1020000200030000   333400010001204104000000281Myanmar Soft-Gate Tech Yangon        MMR11007011526345634070701000000000000000   10300001F05104100000000000208000000000000     
100   95050316818236190000000000002970000000002970002000000010410407011228415841106936590701000007425933   1020000200030000   333400010001204104000000281Myanmar Soft-Gate Tech Yangon        MMR11007011228415841100701000000000000000   10300001F05104100000000000624000000000000     
100   95050310816569570000000000300000000000300000002000000010410407010940111011230000060701000007424858   1030000200030000   333800010001203104000003327KBZPay                 Yangon        MMR11007010940111011230701000000000000000   10300001F05104100000000063000000000000000     
100   62443100345308040000000000001000000000001000002000000010410407011154432443148078500701000007425738   1030000900030000   333400010001202104000002022ACS                    Yangon        MMR11007011154432443140701000000000000000   10300001F05104100000000000210000000000000     
100   62443101006037900000000000010000000000010000002000000010410407010654432443489802290701000007423200   1030000300030000   333300010001206104000002147DICA Company Limited   Yangon        MMR11007010654432443480701000000000000000   10300001F05104100000000010000000000000000     
100   62443100318296470000000000046000000000046000002000000010410407011042182918007071130701218217291800   1040001600030000   598320000658000000010000527Shwe Taung Energy (YGN Yangon        MMR11007011042182918000701000000000000000   10300001F00104100000000005520000000000000     
100   95050323067379780000000000200000000000200000002000000010410407011103193319531943480701000007425438   1030000200030000   333800010001203104000003327KBZPay                 Yangon        MMR11007011103193319530701000000000000000   10300001F05104100000000042000000000000000     
100   95050319468370810000000000000990000000000990002000000010410407010427285728679939650701000007421685   1020000200030000   333400010001204104000000281Myanmar Soft-Gate Tech Yangon        MMR11007010427285728670701000000000000000   10300001F05104100000000000208000000000000     
100   95050319528093960000000000002970000000002970002000000010410407011156432643069816080701000007425752   1020000200030000   333400010001204104000000281Myanmar Soft-Gate Tech Yangon        MMR11007011156432643060701000000000000000   10300001F05104100000000000624000000000000     
100   62443101093150400000000000025000000000025000002000000010410406301142370557075336900630218111055707   1030000600030000   554100000969315799420000481DENKO NORTH OKKALAPA   YANGON        MMR11006301142370557070630000000000000000   10300001 00104100000000003000000000000000     
100   62911028202533740000000000014900000000014900002000000010410407011245420125254773800701000749355361   1030000200030000   541188001189000008000000383KBZ BANK               OCEAN SUPER C MMR11007011245420125250701000000000000000   10300001 00104100000000000894000000000000     
100   95030301100157400000000000003000000000003000002000000010410407011413144314584773800701000007426432   1030000200030000   333800010001203104000003327KBZPay                 Yangon        MMR11007011413144314580701000000000000000   10300001F05104100000000000630000000000000     
100   95050316818236190000000000000990000000000990002000000010410407011233170317270326660701000007425951   1020000200030000   333400010001204104000000281Myanmar Soft-Gate Tech Yangon        MMR11007011233170317270701000000000000000   10300001F05104100000000000208000000000000     
100   95050318988837600000000000018400000000018400002000000010410407010809409061692838180701575391440181   1030000900030000   541119000123190110000000080Sein Gay Har BAK       YANGON        MMR11007010809409061690701000000000000000   10300001F00104100000000004600000000000000     
100   62911028202077010000000000001980000000001980002000000010410407010407383738684773800701000007421484   1020000200030000   333400010001204104000000281Myanmar Soft-Gate Tech Yangon        MMR11007010407383738680701000000000000000   10300001F05104100000000000416000000000000     
100   95050310427855490000000000002970000000002970002000000010410407011116044604255759030701000007425510   1020000200030000   333400010001204104000000281Myanmar Soft-Gate Tech Yangon        MMR11007011116044604250701000000000000000   10300001F05104100000000000624000000000000     
100   95030301100128610000000000300000000000300000002000000010410407011143431343194773800701000007425667   1030000200030000   333800010001203104000003327KBZPay                 Yangon        MMR11007011143431343190701000000000000000   10300001F05104100000000063000000000000000     
100   95030301100103860000000000001000000000001000002000000010410407010642041204904773800701000007423042   1030000200030000   333800010001203104000003327KBZPay                 Yangon        MMR11007010642041204900701000000000000000   10300001F05104100000000000210000000000000     
100   95050312962334280000000000000990000000000990002000000010410407011454252425136099880701000007426658   1020000200030000   333400010001204104000000281Myanmar Soft-Gate Tech Yangon        MMR11007011454252425130701000000000000000   10300001F05104100000000000208000000000000     
100   95030301100155910000000000100000000000100000002000000010410407011253092309684773800701000007426046   1030000200030000   333800010001203104000003327KBZPay                 Yangon        MMR11007011253092309680701000000000000000   10300001F05104100000000021000000000000000     
100   95050317728825080000000000004950000000004950002000000010410407010959392939197801340701000007425039   1020000200030000   333400010001204104000000281Myanmar Soft-Gate Tech Yangon        MMR11007010959392939190701000000000000000   10300001F05104100000000001040000000000000     
100   95050319006804440000000000000990000000000990002000000010410407011537550755577667270701000007426814   1020000200030000   333400010001204104000000281Myanmar Soft-Gate Tech Yangon        MMR11007011537550755570701000000000000000   10300001F05104100000000000208000000000000     
100   95050317876216360000000000004950000000004950002000000010410407010337350735059039240701000007421134   1020000200030000   333400010001204104000000281Myanmar Soft-Gate Tech Yangon        MMR11007010337350735050701000000000000000   10300001F05104100000000001040000000000000     
100   62443100313529540000000000060500000000060500002000000010410407010646011601288234900701000007423104   1030000200030000   333800010001203104000003327KBZPay                 Yangon        MMR11007010646011601280701000000000000000   10300001F05104100000000012705000000000000     
100   95050319938772870000000000000990000000000990002000000010410407011440311031630581950701000007426595   1020000200030000   333400010001204104000000281Myanmar Soft-Gate Tech Yangon        MMR11007011440311031630701000000000000000   10300001F05104100000000000208000000000000     
100   95050311619387960000000000055000000000055000002000000010410407010459522952089483770701000007422078   1030000200030000   333800010001203104000003327KBZPay                 Yangon        MMR11007010459522952080701000000000000000   10300001F05104100000000011550000000000000     
100   62443100306028540000000000002500000000002500002000000010410407011102353235996986030701000007425431   1030000900030000   333400010001202104000002022ACS                    Yangon        MMR11007011102353235990701000000000000000   10300001F05104100000000000525000000000000     
100   95050314327553180000000000150000000000150000002000000010410407011111304130128978900701000007425489   1030000200030000   333800010001203104000003327KBZPay                 Yangon        MMR11007011111304130120701000000000000000   10300001F05104100000000031500000000000000     
100   95050319161596230000000000000990000000000990002000000010410407010407393739786500140701000007421491   1020000200030000   333400010001204104000000281Myanmar Soft-Gate Tech Yangon        MMR11007010407393739780701000000000000000   10300001F05104100000000000208000000000000     
100   95050327416134790000000000004950000000004950002000000010410407010915014501625602630701000007424647   1020000200030000   333400010001204104000000281Myanmar Soft-Gate Tech Yangon        MMR11007010915014501620701000000000000000   10300001F05104100000000001040000000000000     
100   62911028202132460000000000019800000000019800002000000010410407011748000006434773800701000749378547   1030000200030000   541188001288000008000001475KBZ BANK               CITY CARE STA MMR11007011748000006430701000000000000000   10300001 00104100000000001188000000000000     
100   62911028202469070000000000079100000000079100002000000010410407011116310040354773800701000749346282   1030000200030000   541188001079000008000000294KBZ BANK               CITY MART - J MMR11007011116310040350701000000000000000   10300001 00104100000000004746000000000000     
100   95030301100081330000000000027550000000027550002000000010410407011914480108074773800701000749382535   1030000200030000   541188001310000008000000325KBZ BANK               CITY MART - A MMR11007011914480108070701000000000000000   10300001 00104100000000001653000000000000     
100   62443101093150400000000000026266000000026266002000000010410407011313560252899206610701000749358448   1030000200030000   541188001001000008000000008KBZ BANK               MARKETPLACE - MMR11007011313560252890701000000000000000   10300001 00104100000000006567000000000000     
100   95050318621775380000000000002000000000002000002000000010410407010530380038742437380701000007422413   1030000200030000   3338000100012031040000040022C2P (Myanmar) Co. Ltd Yangon        MMR11007010530380038740701000000000000000   10300001F05104100000000000420000000000000     
100   62443101093150400000000000015900000000015900002000000010410407011258000240513071600701000749356760   1030000200030000   541188001017000008000000008KBZ BANK               MARKETPLACE - MMR11007011258000240510701000000000000000   10300001 00104100000000003975000000000000     
100   95050311718887830000000000150000000000150000002000000010410407010532240224977394830701000007422423   1030000200030000   333800010001203104000003327KBZPay                 Yangon        MMR11007010532240224970701000000000000000   10300001F05104100000000031500000000000000     
100   95050328841190290000000000017850000000017850002000000010410407011808330188722440280701000749379612   1030000200030000   541188001305000008000000325KBZ BANK               CITY MART - A MMR11007011808330188720701000000000000000   10300001 00104100000000004463000000000000     
100   95050314307746340000000000000990000000000990002000000010410407011517344734911057330701000007426748   1020000200030000   333400010001204104000000281Myanmar Soft-Gate Tech Yangon        MMR11007011517344734910701000000000000000   10300001F05104100000000000208000000000000     
100   95050310305100650000000000010000000000010000002000000010410407010941541154192248220701000007424864   1030000200030000   3338000100012031040000040022C2P (Myanmar) Co. Ltd Yangon        MMR11007010941541154190701000000000000000   10300001F05104100000000002100000000000000     
100   95050319156011610000000000002970000000002970002000000010410407010741541154363469500701000007423717   1020000200030000   333400010001204104000000281Myanmar Soft-Gate Tech Yangon        MMR11007010741541154360701000000000000000   10300001F05104100000000000624000000000000     
100   95050320450054970000000000100000000000100000002000000010410407010152372237032663260701000007420069   1030000200030000   333800010001203104000003327KBZPay                 Yangon        MMR11007010152372237030701000000000000000   10300001F05104100000000021000000000000000     
100   95050310676042860000000000050000000000050000002000000010410407010553112311916898050701000007422655   1030000200030000   333800010001203104000003327KBZPay                 Yangon        MMR11007010553112311910701000000000000000   10300001F05104100000000010500000000000000     
100   95050325095525130000000000200000000000200000002000000010410407010450502050395948200701000007421950   1030000200030000   333800010001203104000003327KBZPay                 Yangon        MMR11007010450502050390701000000000000000   10300001F05104100000000042000000000000000     
100   95050323067379780000000000300000000000300000002000000010410407011050522052741773290701000007425367   1030000200030000   333800010001203104000003327KBZPay                 Yangon        MMR11007011050522052740701000000000000000   10300001F05104100000000063000000000000000     
100   62911028202617730000000000017450000000017450002000000010410407011024392873064773800701218217287306   1040001600030000   591220000266000000010000254Shwe Ohh Pharmacy (Sin Yangon        MMR11007011024392873060701000000000000000   10300001F00104100000000001047000000000000     
100   95050312728902740000000000029000000000029000002000000010410407011033510351041603100701000007425270   1030000200030000   333800010001203104000003327KBZPay                 Yangon        MMR11007011033510351040701000000000000000   10300001F05104100000000006090000000000000     
100   62911028202916630000000000021100000000021100002000000010410407012148200012874773800701000749385800   1030000200030000   581288001546000008000005007KBZ BANK               PWINT THIT SA MMR11007012148200012870701000000000000000   10300001 00104100000000002152000000000000     
100   62911028202793790000000000001000000000001000002000000010410407011332250225424773800701000007426228   1030000200030000   3334000100012031040000040102C2P (Myanmar) Co. Ltd Yangon        MMR11007011332250225420701000000000000000   10300001F05104100000000000210000000000000     
100   62443100300412100000000000021423000000021423002000000010410407011650450249562574810701000749375579   1030000200030000   541188001037000008000000010KBZ BANK               MARKETPLACE - MMR11007011650450249560701000000000000000   10300001 00104100000000005356000000000000     
100   95050315796541830000000000038150000000038150002000000010410407010933370337736865290701000007424800   1030000200030000   333800010001203104000003327KBZPay                 Yangon        MMR11007010933370337730701000000000000000   10300001F05104100000000008012000000000000     
100   62443100379321630000000000005000000000005000002000000010410407011840550069592865760701000749381237   1030000200030000   541188001072000008000000314KBZ BANK               MARKETPLACE - MMR11007011840550069590701000000000000000   10300001 00104100000000001250000000000000     
100   95030301100081330000000000021300000000021300002000000010410407011919130123444773800701000749382663   1030000200030000   541188001303000008000000325KBZ BANK               CITY MART - A MMR11007011919130123440701000000000000000   10300001 00104100000000001278000000000000     
100   62911028202530930000000000045032000000045032002000000010410407011203150247304773800701000749351238   1030000200030000   541188001007000008000000008KBZ BANK               MARKETPLACE - MMR11007011203150247300701000000000000000   10300001 00104100000000002702000000000000     
100   95050317100052460000000000030000000000030000002000000010410407010612094209212075130701000007422819   1030000200030000   333800010001203104000003327KBZPay                 Yangon        MMR11007010612094209210701000000000000000   10300001F05104100000000006300000000000000     
100   95050314302558730000000000004950000000004950002000000010410407011505173517552709820701000007426705   1020000200030000   333400010001204104000000281Myanmar Soft-Gate Tech Yangon        MMR11007011505173517550701000000000000000   10300001F05104100000000001040000000000000     
100   95050325455962190000000000000990000000000990002000000010410407010513354335868341860701000007422220   1020000200030000   333400010001204104000000281Myanmar Soft-Gate Tech Yangon        MMR11007010513354335860701000000000000000   10300001F05104100000000000208000000000000     
100   95050315017843630000000000001980000000001980002000000010410407011216144614026170720701000007425865   1020000200030000   333400010001204104000000281Myanmar Soft-Gate Tech Yangon        MMR11007011216144614020701000000000000000   10300001F05104100000000000416000000000000     
100   95050315398070120000000000300000000000300000002000000010410407011025075507471007430701000007425207   1030000200030000   333800010001203104000003327KBZPay                 Yangon        MMR11007011025075507470701000000000000000   10300001F05104100000000063000000000000000     
100   62911028202736950000000000005000000000005000002000000010410407010054292429224773800701000007419841   1030000200030000   3338000100012031040000040022C2P (Myanmar) Co. Ltd Yangon        MMR11007010054292429220701000000000000000   10300001F05104100000000001050000000000000     
100   95050312498129060000000000004950000000004950002000000010410407010947581758285468090701000007424931   1020000200030000   333400010001204104000000281Myanmar Soft-Gate Tech Yangon        MMR11007010947581758280701000000000000000   10300001F05104100000000001040000000000000     
100   95050310305100650000000000010000000000010000002000000010410407011151082108644773530701000007425718   1030000200030000   3338000100012031040000040022C2P (Myanmar) Co. Ltd Yangon        MMR11007011151082108640701000000000000000   10300001F05104100000000002100000000000000     
100   62911028202468080000000000018200000000018200002000000010410407011904230253314773800701000749382167   1030000200030000   541188001001000008000000008KBZ BANK               MARKETPLACE - MMR11007011904230253310701000000000000000   10300001 00104100000000001092000000000000     
100   95050310427855490000000000002970000000002970002000000010410407011136050605767482820701000007425615   1020000200030000   333400010001204104000000281Myanmar Soft-Gate Tech Yangon        MMR11007011136050605760701000000000000000   10300001F05104100000000000624000000000000     
100   95050325925517520000000000025400000000025400002000000010410407010146050043312237780701000749331237   1030000200030000   581288000098000008000003562KBZ BANK               CANTON PARADI MMR11007010146050043310701000000000000000   10300001 00104100000000010795000000000000     
100   95050328303533000000000000003000000000003000002000000010410407011330440044872489720701000007426207   1030000200030000   3334000100012031040000040102C2P (Myanmar) Co. Ltd Yangon        MMR11007011330440044870701000000000000000   10300001F05104100000000000630000000000000     
100   62911028202662690000000000018000000000018000002000000010410407011134060109724773800701000749348209   1030000200030000   541188001033000008000000298KBZ BANK               CITY MART - M MMR11007011134060109720701000000000000000   10300001 00104100000000001080000000000000     
100   62443100379321630000000000003800000000003800002000000010410407011850260164969645890701000749381609   1030000200030000   541188001056000008000000314KBZ BANK               MARKETPLACE - MMR11007011850260164960701000000000000000   10300001 00104100000000000950000000000000     
100   95050316601084530000000000002970000000002970002000000010410407011331270127877106790701000007426227   1020000200030000   333400010001204104000000281Myanmar Soft-Gate Tech Yangon        MMR11007011331270127870701000000000000000   10300001F05104100000000000624000000000000     
100   95050312695033440000000000002970000000002970002000000010410407010432100210450109850701000007421750   1020000200030000   333400010001204104000000281Myanmar Soft-Gate Tech Yangon        MMR11007010432100210450701000000000000000   10300001F05104100000000000624000000000000     
100   95050313072967520000000000003000000000003000002000000010410407010448401840924891390701000007421947   1030000200030000   3338000100012031040000040022C2P (Myanmar) Co. Ltd Yangon        MMR11007010448401840920701000000000000000   10300001F05104100000000000630000000000000     
100   95050314829126520000000000056800000000056800002000000010410407010549361936327068240701000007422611   1030000200030000   333800010001203104000003327KBZPay                 Yangon        MMR11007010549361936320701000000000000000   10300001F05104100000000011928000000000000     
100   95050313843656520000000000002970000000002970002000000010410407010349381938139074900701000007421279   1020000200030000   333400010001204104000000281Myanmar Soft-Gate Tech Yangon        MMR11007010349381938130701000000000000000   10300001F05104100000000000624000000000000     
100   95050326155679180000000000005940000000005940002000000010410407010609413941320579050701000007422787   1020000200030000   333400010001204104000000281Myanmar Soft-Gate Tech Yangon        MMR11007010609413941320701000000000000000   10300001F05104100000000001247000000000000     
100   62911028202777790000000000007000000000007000002000000010410407010918064806334773800701000007424673   1030000200030000   333800010001203104000003327KBZPay                 Yangon        MMR11007010918064806330701000000000000000   10300001F05104100000000001470000000000000     
100   95050312224678430000000000001980000000001980002000000010410407010618524852709316400701000007422863   1020000200030000   333400010001204104000000281Myanmar Soft-Gate Tech Yangon        MMR11007010618524852700701000000000000000   10300001F05104100000000000416000000000000     
100   62443100389971990000000000010000000000010000002000000010410407010338200820345138600701000007421139   1030000200030000   333800010001203104000003327KBZPay                 Yangon        MMR11007010338200820340701000000000000000   10300001F05104100000000002100000000000000     
100   95050318141561190000000000001980000000001980002000000010410407010837390739016568630701000007424271   1020000200030000   333400010001204104000000281Myanmar Soft-Gate Tech Yangon        MMR11007010837390739010701000000000000000   10300001F05104100000000000416000000000000     
100   95050316818236190000000000000990000000000990002000000010410407010432530253566719780701000007421754   1020000200030000   333400010001204104000000281Myanmar Soft-Gate Tech Yangon        MMR11007010432530253560701000000000000000   10300001F05104100000000000208000000000000     
100   95050313588016410000000000300000000000300000002000000010410407010932110211618432670701000007424782   1030000200030000   333800010001203104000003327KBZPay                 Yangon        MMR11007010932110211610701000000000000000   10300001F05104100000000063000000000000000     
100   95050311382087030000000000025000000000025000002000000010410407011133460346289135310701000007425598   1030000200030000   333800010001203104000003327KBZPay                 Yangon        MMR11007011133460346280701000000000000000   10300001F05104100000000005250000000000000     
100   95050318141561190000000000001980000000001980002000000010410407010835020502405256530701000007424243   1020000200030000   333400010001204104000000281Myanmar Soft-Gate Tech Yangon        MMR11007010835020502400701000000000000000   10300001F05104100000000000416000000000000     
100   62443100340422630000000000045999000000045999002000000010410407011909340138778333790701000749382343   1030000200030000   541188001002000008000000008KBZ BANK               MARKETPLACE - MMR11007011909340138770701000000000000000   10300001 00104100000000011500000000000000     
100   62911028202472440000000000043509000000043509002000000010410407011048510154784773800701000749343460   1030000200030000   541188001023000008000000298KBZ BANK               CITY MART - M MMR11007011048510154780701000000000000000   10300001 00104100000000002611000000000000     
100   95050316785465380000000000033300000000033300002000000010410407011726050048563510880701000749377490   1030000200030000   541188001463000008000000391KBZ BANK               OCEAN SUPER C MMR11007011726050048560701000000000000000   10300001 00104100000000008325000000000000     
100   95030389641831340000000000012500000000012500002000000010410407010832070011474773800701000749369160   1030000200030000   591288001565000008000005050KBZ BANK               ORCHID(SOKL)  MMR11007010832070011470701000000000000000   10300001 00104100000000000750000000000000     
100   95050327416134790000000000022000000000022000002000000010410407010744251425436859570701000007423736   1030000200030000   3333000100012031040000040282C2P (Myanmar) Co. Ltd Yangon        MMR11007010744251425430701000000000000000   10300001F05104100000000010000000000000000     
100   95050313923133060000000000060000000000060000002000000010410406301652562256455301250701000007419388   1030000200030000   333800010001203104000003327KBZPay                 Yangon        MMR11006301652562256450701000000000000000   10300001F05104100000000012600000000000000     
100   95050326393773020000000000002970000000002970002000000010410407011056552655735248450701000007425396   1020000200030000   333400010001204104000000281Myanmar Soft-Gate Tech Yangon        MMR11007011056552655730701000000000000000   10300001F05104100000000000624000000000000     
100   62911028202527490000000000008300000000008300002000000010410407010520092692314773800701218212269231   1040001600030000   591220000302000000010000290Shwe Ohh Pharmacy (Nor Yangon        MMR11007010520092692310701000000000000000   10300001F00104100000000000498000000000000     
100   95050316067768680000000000002970000000002970002000000010410407011258092809792404620701000007426069   1020000200030000   333400010001204104000000281Myanmar Soft-Gate Tech Yangon        MMR11007011258092809790701000000000000000   10300001F05104100000000000624000000000000     
100   62911028202593140000000000040000000000040000002000000010410407011212553072964773800701218219307296   1040001600030000   598320000658000000010000527Shwe Taung Energy (YGN Yangon        MMR11007011212553072960701000000000000000   10300001F00104100000000001200000000000000     
100   95030367537085740000000000002940000000002940002000000010410407010319514951274773800701000007420857   1020000200030000   333400010001204104000000281Myanmar Soft-Gate Tech Yangon        MMR11007010319514951270701000000000000000   10300001F05104100000000000617000000000000     
100   95050310711432300000000000240000000000240000002000000010410407010917374737646198300701000007424669   1030000200030000   333800010001203104000003327KBZPay                 Yangon        MMR11007010917374737640701000000000000000   10300001F05104100000000050400000000000000     
100   95050310409767690000000000300000000000300000002000000010410407010241371137301131530701000007420369   1030000200030000   333800010001203104000003327KBZPay                 Yangon        MMR11007010241371137300701000000000000000   10300001F05104100000000063000000000000000     
100   95050326393773020000000000000990000000000990002000000010410407010653352335234674640701000007423185   1020000200030000   333400010001204104000000281Myanmar Soft-Gate Tech Yangon        MMR11007010653352335230701000000000000000   10300001F05104100000000000208000000000000     
100   95050311121153200000000000000990000000000990002000000010410407011353532353910496850701000007426341   1020000200030000   333400010001204104000000281Myanmar Soft-Gate Tech Yangon        MMR11007011353532353910701000000000000000   10300001F05104100000000000208000000000000     
100   95050322957045260000000000100000000000100000002000000010410407010158462846469443390701000007420102   1030000200030000   3338000100012031040000040022C2P (Myanmar) Co. Ltd Yangon        MMR11007010158462846460701000000000000000   10300001F05104100000000021000000000000000     
100   62443100323428970000000000039300000000039300002000000010410407011115343019054021450701218218301905   1040001600030000   591220000301000000010000289Shwe Ohh Pharmacy (Yay Yangon        MMR11007011115343019050701000000000000000   10300001F00104100000000009432000000000000     
100   95050319468370810000000000046200000000046200002000000010410407010903253325375772820701000007424538   1030000200030000   3333000100012031040000040282C2P (Myanmar) Co. Ltd Yangon        MMR11007010903253325370701000000000000000   10300001F05104100000000010000000000000000     
100   95050319728246800000000000200000000000200000002000000010410407010305213521637606930701000007420610   1030000500030000   333800010001201104000003863AYA Pay                Yangon        MMR11007010305213521630701000000000000000   10300001F05104100000000042000000000000000     
100   95050316818236190000000000000990000000000990002000000010410407011218074807857908310701000007425870   1020000200030000   333400010001204104000000281Myanmar Soft-Gate Tech Yangon        MMR11007011218074807850701000000000000000   10300001F05104100000000000208000000000000     
100   95050328876009750000000000005000000000005000002000000010410407010844281428939709120701000007424364   1030000200030000   333800010001203104000003327KBZPay                 Yangon        MMR11007010844281428930701000000000000000   10300001F05104100000000001050000000000000     
100   95050312498129060000000000009900000000009900002000000010410407010945231523887120570701000007424911   1020000200030000   333400010001204104000000281Myanmar Soft-Gate Tech Yangon        MMR11007010945231523880701000000000000000   10300001F05104100000000002079000000000000     
100   95050319006804440000000000000990000000000990002000000010410407011141551155095830340701000007425650   1020000200030000   333400010001204104000000281Myanmar Soft-Gate Tech Yangon        MMR11007011141551155090701000000000000000   10300001F05104100000000000208000000000000     
100   95050319156011610000000000030000000000030000002000000010410407011346349162448759270701288162034181   1030000900030000   541119001357190110000000977Ocean PZD C 11         YANGONAUNG    MMR11007011346349162440701000000000000000   10300001F00104100000000007500000000000000     
100   62911028202077010000000000000990000000000990002000000010410407010429215921504773800701000007421707   1020000200030000   333400010001204104000000281Myanmar Soft-Gate Tech Yangon        MMR11007010429215921500701000000000000000   10300001F05104100000000000208000000000000     
100   95050321379436960000000000510000000000510000002000000010410407010753039056126313340701274231403181   1030000900030000   573219001178190110000000934UNIQUE Pansodan        YANGONADA     MMR11007010753039056120701000000000000000   10300001F00104100000000122400000000000000     
100   95050320360851930000000000001980000000001980002000000010410407011321125112394142200701000007426170   1020000200030000   333400010001204104000000281Myanmar Soft-Gate Tech Yangon        MMR11007011321125112390701000000000000000   10300001F05104100000000000416000000000000     
100   95050313396828960000000000004950000000004950002000000010410407011020595059917532260701000007425192   1020000200030000   333400010001204104000000281Myanmar Soft-Gate Tech Yangon        MMR11007011020595059910701000000000000000   10300001F05104100000000001040000000000000     
100   95030367537085740000000000000990000000000990002000000010410407011446481648824773800701000007426632   1020000200030000   333400010001204104000000281Myanmar Soft-Gate Tech Yangon        MMR11007011446481648820701000000000000000   10300001F05104100000000000208000000000000     
100   95050319604564870000000000030000000000030000002000000010410407011140021002752525370701000007425635   1030000200030000   333800010001203104000003327KBZPay                 Yangon        MMR11007011140021002750701000000000000000   10300001F05104100000000006300000000000000     
100   95030306100096490000000000002940000000002940002000000010410407010253182318974773800701000007420468   1020000200030000   333400010001204104000000281Myanmar Soft-Gate Tech Yangon        MMR11007010253182318970701000000000000000   10300001F05104100000000000617000000000000     
100   95050315743141220000000000000990000000000990002000000010410407010357462746743620660701000007421391   1020000200030000   333400010001204104000000281Myanmar Soft-Gate Tech Yangon        MMR11007010357462746740701000000000000000   10300001F05104100000000000208000000000000     
100   95050310735627670000000000021500000000021500002000000010410407011210284028568248690701000007425835   1030000200030000   333800010001203104000003327KBZPay                 Yangon        MMR11007011210284028560701000000000000000   10300001F05104100000000004515000000000000     
100   95050319928585020000000000000990000000000990002000000010410407011111384138187326420701000007425487   1020000200030000   333400010001204104000000281Myanmar Soft-Gate Tech Yangon        MMR11007011111384138180701000000000000000   10300001F05104100000000000208000000000000     
100   95030331359799240000000000002000000000002000002000000010410407010111434143154773800701000007419905   1030000200030000   3338000100012031040000040022C2P (Myanmar) Co. Ltd Yangon        MMR11007010111434143150701000000000000000   10300001F05104100000000000420000000000000     
100   95050319928585020000000000000990000000000990002000000010410407011221015101397993400701000007425892   1020000200030000   333400010001204104000000281Myanmar Soft-Gate Tech Yangon        MMR11007011221015101390701000000000000000   10300001F05104100000000000208000000000000     
100   95050311382087030000000000008910000000008910002000000010410407011022435243055879780701000007425203   1020000200030000   333400010001204104000000281Myanmar Soft-Gate Tech Yangon        MMR11007011022435243050701000000000000000   10300001F05104100000000001871000000000000     
100   62911028202221220000000000004750000000004750002000000010410407010514518997714773800701927441151181   1030000900030000   541119001239190110000000953Marketplace KTYCity Ca YANGONARTAUNG MMR11007010514518997710701000000000000000   10300001F00104100000000000285000000000000     
100   95050316818236190000000000002970000000002970002000000010410407011223405340581298370701000007425908   1020000200030000   333400010001204104000000281Myanmar Soft-Gate Tech Yangon        MMR11007011223405340580701000000000000000   10300001F05104100000000000624000000000000     
100   95030323161862590000000003515000000003515000002000000010410407010744569053194773800701114141456181   1030000900030000   701119000073190110000000024Lotte Hotel            YANGON        MMR11007010744569053190701000000000000000   10300001F00104100000000358530000000000000     
100   95050313072967520000000000020000000000020000002000000010410407010521165116886508220701000007422315   1030000200030000   333800010001203104000003327KBZPay                 Yangon        MMR11007010521165116880701000000000000000   10300001F05104100000000004200000000000000     
100   95050328212196190000000000164292000000164292002000000010410407010549119010721855500701673191211181   1030000900030000   541119001282190110000000963City Mart SPL C 7      YANGONMYOTHIT MMR11007010549119010720701000000000000000   10300001F00104100000000041073000000000000     
100   95050319156011610000000000005000000000005000002000000010410407011315469155769184750701902451946181   1030000900030000   541119001371190110000000978Ocean PZD Season C 1   YANGONAUNG    MMR11007011315469155760701000000000000000   10300001F00104100000000001250000000000000     
100   62911028202488950000000000030000000000030000002000000010410407011226249143204773800701190561824181   1030000900030000   554119001100190110000000212New Day Energy PZD     YANGON        MMR11007011226249143200701000000000000000   10300001F00104100000000000900000000000000     
100   95050323667276610000000000034650000000034650002000000010410407010354362436845613530701000007421356   1020000200030000   333400010001204104000000281Myanmar Soft-Gate Tech Yangon        MMR11007010354362436840701000000000000000   10300001F05104100000000007277000000000000     
100   95050310427855490000000000000980000000000980002000000010410406301652452245930343800701000007419386   1020000200030000   333400010001204104000000281Myanmar Soft-Gate Tech Yangon        MMR11006301652452245930701000000000000000   10300001F05104100000000000206000000000000     
100   95030318100002710000000000030000000000030000002000000010410407010653212321004773800701000007423187   1030000200030000   333800010001203104000003327KBZPay                 Yangon        MMR11007010653212321000701000000000000000   10300001F05104100000000006300000000000000     
100   62911028202045260000000000036400000000036400002000000010410407010329212637864773800701218210263786   1040001600030000   591220001007000000010000737Shwe Ohh Pharmacy (Tan Ygn           MMR11007010329212637860701000000000000000   10300001F00104100000000002184000000000000     
100   62911028202791630000000000055000000000055000002000000010410407010953542847234773800701218216284723   1040001600030000   598320000658000000010000527Shwe Taung Energy (YGN Yangon        MMR11007010953542847230701000000000000000   10300001F00104100000000001650000000000000     
100   62443100333488440000000000079000000000079000002000000010410407010908172819878822500701218216281987   1040001600030000   569920000135000000010000127Skechers (Myanmar Plaz Yangon        MMR11007010908172819870701000000000000000   10300001F00104100000000018960000000000000     
100   62911028202280200000000000034050000000034050002000000010410407010844532806794773800701218215280679   1040001600030000   591220000266000000010000254Shwe Ohh Pharmacy (Sin Yangon        MMR11007010844532806790701000000000000000   10300001F00104100000000002043000000000000     
100   95050318511918960000000000050500000000050500002000000010410407010307113711919429610701000007420609   1030000200030000   333800010001203104000003327KBZPay                 Yangon        MMR11007010307113711910701000000000000000   10300001F05104100000000010605000000000000     
100   62911028202440680000000000011050000000011050002000000010410407010258358956264773800701756280935181   1030000900030000   591219000970190110000000777Shwe Ohh Pharmacy St ( YANGONAW      MMR11007010258358956260701000000000000000   10300001F00104100000000000663000000000000     
100   95050329720609600000000000049000000000049000002000000010410407010937379089543900700701067071637181   1030000900030000   541119000162190110000000084Pro (1) Global (Pazund YANGONARTAUNG MMR11007010937379089540701000000000000000   10300001F00104100000000012250000000000000     
100   95050311121153200000000000000990000000000990002000000010410407011029545954776049970701000007425240   1020000200030000   333400010001204104000000281Myanmar Soft-Gate Tech Yangon        MMR11007011029545954770701000000000000000   10300001F05104100000000000208000000000000     
100   62911028202471860000000000006700000000006700002000000010410407010919199084264773800701780491519181   1030000900030000   581219000946190110000000753Shwepalin Samone Resid YANGON        MMR11007010919199084260701000000000000000   10300001F00104100000000000683000000000000     
100   62443100379321630000000000027000000000027000002000000010410407011154529133808163600701635241852181   1030000900030000   581219000371190110000000243Jo Jo Hot Pot (Junctio YANGONN       MMR11007011154529133800701000000000000000   10300001F00104100000000011475000000000000     
100   95050316818460650000000000030000000000030000002000000010410407010127418937309273200701892570741181   1030000900030000   554119000997190110000000803Puma Power SOKL        YANGONOKKALAP MMR11007010127418937300701000000000000000   10300001F00104100000000003600000000000000     
100   95050329720609600000000000251600000000251600002000000010410407010927589086585127700701898571558181   1030000900030000   541119000162190110000000084Pro (1) Global (Pazund YANGONARTAUNG MMR11007010927589086580701000000000000000   10300001F00104100000000062900000000000000     
100   95050314557307430000000000000990000000000990002000000010410407011224475447683546530701000007425915   1020000200030000   333400010001204104000000281Myanmar Soft-Gate Tech Yangon        MMR11007011224475447680701000000000000000   10300001F05104100000000000208000000000000     
100   95050310305100650000000000040000000000040000002000000010410407010905503550260815370701000007424559   1030000200030000   3338000100012031040000040022C2P (Myanmar) Co. Ltd Yangon        MMR11007010905503550260701000000000000000   10300001F05104100000000008400000000000000     
100   95050319468370810000000000014500000000014500002000000010410407011227045704001894040701000007425928   1030000900030000   333400010001202104000002022ACS                    Yangon        MMR11007011227045704000701000000000000000   10300001F05104100000000003045000000000000     
100   95050319528093960000000000000990000000000990002000000010410407010723265326354710300701000007423541   1020000200030000   333400010001204104000000281Myanmar Soft-Gate Tech Yangon        MMR11007010723265326350701000000000000000   10300001F05104100000000000208000000000000     
100   62911028202067520000000000010000000000010000002000000010410407010238240824584773800701000007420328   1030000200030000   333800010001203104000003327KBZPay                 Yangon        MMR11007010238240824580701000000000000000   10300001F05104100000000002100000000000000     
100   62443101006037900000000000010000000000010000002000000010410407010642121212171114390701000007423055   1030000300030000   333300010001206104000002147DICA Company Limited   Yangon        MMR11007010642121212170701000000000000000   10300001F05104100000000010000000000000000     
100   95050316653112190000000000015000000000015000002000000010410407011452082208827837460701000007426651   1030000200030000   333800010001203104000003327KBZPay                 Yangon        MMR11007011452082208820701000000000000000   10300001F05104100000000003150000000000000     
100   95050312675525330000000000005000000000005000002000000010410407011249451945883972010701000007426037   1030000200030000   333800010001203104000003327KBZPay                 Yangon        MMR11007011249451945880701000000000000000   10300001F05104100000000001050000000000000     
100   62911028202112400000000000023150000000023150002000000010410407010345412644884773800701218210264488   1040001600030000   591220001007000000010000737Shwe Ohh Pharmacy (Tan Ygn           MMR11007010345412644880701000000000000000   10300001F00104100000000001389000000000000     
100   95050314996291580000000000000990000000000990002000000010410407011524485448310972240701000007426782   1020000200030000   333400010001204104000000281Myanmar Soft-Gate Tech Yangon        MMR11007011524485448310701000000000000000   10300001F05104100000000000208000000000000     
100   95050310553090700000000000010000000000010000002000000010410407010823299066545086340701813531429181   1030000900030000   541119000123190110000000080Sein Gay Har BAK       YANGON        MMR11007010823299066540701000000000000000   10300001F00104100000000002500000000000000     
100   62911028202280200000000000067360000000067360002000000010410407011013479101134773800701691431647181   1030000900030000   541119001189190110000000942City Mart HDC C 4      YANGONUT      MMR11007011013479101130701000000000000000   10300001F00104100000000004042000000000000     
100   62911028202204800000000000059400000000059400002000000010410407011035469108444773800701128051746181   1030000900030000   591219000694190110000000525Shwe Ohh Pharmacy ST-2 YANGONAW      MMR11007011035469108440701000000000000000   10300001F00104100000000003564000000000000     
100   62443100336591330000000000080000000000080000002000000010410407011148319131949730980701525181831181   1030000900030000   554119000348190110000000215New Day Energy MYG     YANGONONE     MMR11007011148319131940701000000000000000   10300001F00104100000000009600000000000000     
100   95030301100101130000000000045400000000045400002000000010410406301126210003484773800630000352952404   1030000300030000   541100002373000000000000102CB BANK                MAKRO MYANMAR MMR11006301126210003480630000000000000000   10300001F00104100000000002724000000000000     
100   95050315150726490000000000009500000000009500002000000010410407010946309092258773050701212161630181   1030000900030000   541119000116190110000000078Sein Gay Har Kan Thar  YANGONOKKALAP MMR11007010946309092250701000000000000000   10300001F00104100000000002375000000000000     
100   95050310456843760000000000025840000000025840002000000010410407011241579147663461430701459111957181   1030000900030000   541119000121190110000000080Sein Gay Har BAK       YANGONADA     MMR11007011241579147660701000000000000000   10300001F00104100000000006460000000000000     
100   62911028202125780000000000095000000000095000002000000010410407010943382840464773800701218216284046   1040001600030000   806220001166000000010000876Dent. Myanmar Dental C ygn           MMR11007010943382840460701000000000000000   10300001F00104100000000005700000000000000     
100   95050315557781210000000000151000000000151000002000000010410407010508153815429313570701000007422175   1030000200030000   333800010001203104000003327KBZPay                 Yangon        MMR11007010508153815420701000000000000000   10300001F05104100000000031710000000000000     
100   95050326426352250000000000050000000000050000002000000010410407010014514451616698450701000007419730   1030000200030000   333800010001203104000003327KBZPay                 Yangon        MMR11007010014514451610701000000000000000   10300001F05104100000000010500000000000000     
100   95050311382087030000000000014850000000014850002000000010410407011116424642829064000701000007425515   1020000200030000   333400010001204104000000281Myanmar Soft-Gate Tech Yangon        MMR11007011116424642820701000000000000000   10300001F05104100000000003119000000000000     
100   95050314287403810000000000002970000000002970002000000010410407011438240824885624490701000007426587   1020000200030000   333400010001204104000000281Myanmar Soft-Gate Tech Yangon        MMR11007011438240824880701000000000000000   10300001F05104100000000000624000000000000     
100   95050319528093960000000000000990000000000990002000000010410407011441011101328929460701000007426599   1020000200030000   333400010001204104000000281Myanmar Soft-Gate Tech Yangon        MMR11007011441011101320701000000000000000   10300001F05104100000000000208000000000000     
100   95050323067379780000000000300000000000300000002000000010410407010743071307913554600701000007423725   1030000200030000   333800010001203104000003327KBZPay                 Yangon        MMR11007010743071307910701000000000000000   10300001F05104100000000063000000000000000     
100   95050312139901420000000000035000000000035000002000000010410407010456422642421160940701000007422046   1030000200030000   333800010001203104000003327KBZPay                 Yangon        MMR11007010456422642420701000000000000000   10300001F05104100000000007350000000000000     
100   95050319485395370000000000300000000000300000002000000010410407010423005300611932520701000007421624   1030000200030000   333800010001203104000003327KBZPay                 Yangon        MMR11007010423005300610701000000000000000   10300001F05104100000000063000000000000000     
100   95050315396509660000000000015000000000015000002000000010410407010329405940662330420701000007421027   1030000200030000   333800010001203104000003327KBZPay                 Yangon        MMR11007010329405940660701000000000000000   10300001F05104100000000003150000000000000     
100   62911028202164620000000000018650000000018650002000000010410407010501128992464773800701640311112181   1030000900030000   541119000124190110000000080Sein Gay Har BAK       YANGONADA     MMR11007010501128992460701000000000000000   10300001F00104100000000001119000000000000     
100   95050328212196190000000000055750000000055750002000000010410407010541499008261770400701531111249181   1030000900030000   541119001282190110000000963City Mart SPL C 7      YANGONMYOTHIT MMR11007010541499008260701000000000000000   10300001F00104100000000013938000000000000     
100   62911028202222390000000000019900000000019900002000000010410407010836409071384773800701086061540181   1030000900030000   541119000882190110000000084Pro (1) Global (Pazund YANGONARTAUNG MMR11007010836409071380701000000000000000   10300001F00104100000000001194000000000000     
100   62911028202308440000000000104200000000104200002000000010410406291347450020714773800629218013002071   1030000600030000   581200002191315799420001536CANTON PARADISE TC     YANGON        MMR11006291347450020710629000000000000000   10300001 00104100000000010628000000000000     
100   95030325264619140000000000083750000000083750002000000010410406301000360005934773800630000352939287   1030000300030000   541100002346000000000000102CB BANK                MAKRO MYANMAR MMR11006301000360005930630000000000000000   10300001F00104100000000005025000000000000     
100   95050318463049920000000000005291000000005291002000000010410406300532530002907132000630000352895026   1030000300030000   531100000544000000000000376CB BANK                CAPITAL HYPER MMR11006300532530002900630000000000000000   10300001F00104100000000001270000000000000     
