100   95050310332595380000000000002970000000002970002000000010410407040220465046471512750704000007435775   1020000200030000   333400010001204104000000281Myanmar Soft-Gate Tech Yangon        MMR11007040220465046470704000000000000000   10300001F05104100000000000624000000000000     
100   62911028202520380000000000030050000000030050002000000010410407041239400267984773800704000749512225   1030000200030000   541188001059000008000000314KBZ BANK               MARKETPLACE - MMR11007041239400267980704000000000000000   10300001 00104100000000001803000000000000     
100   95030367537085740000000000000990000000000990002000000010410407041140241024454773800704000007440207   1020000200030000   333400010001204104000000281Myanmar Soft-Gate Tech Yangon        MMR11007041140241024450704000000000000000   10300001F05104100000000000208000000000000     
100   62911028202369990000000000300000000000300000002000000010410407040711094109254773800704000007438304   1030000200030000   333800010001203104000003327KBZPay                 Yangon        MMR11007040711094109250704000000000000000   10300001F05104100000000063000000000000000     
100   95050319204938440000000000003500000000003500002000000010410407040942511251240508740704000007439535   1030000200030000   333800010001203104000003327KBZPay                 Yangon        MMR11007040942511251240704000000000000000   10300001F05104100000000000735000000000000     
100   62911028202773650000000000020000000000020000002000000010410407040241511151724773800704000007435890   1030000200030000   333800010001203104000003327KBZPay                 Yangon        MMR11007040241511151720704000000000000000   10300001F05104100000000004200000000000000     
100   62911028202446700000000000011500000000011500002000000010410407040851282128934773800704000007439115   1030000200030000   333800010001203104000003327KBZPay                 Yangon        MMR11007040851282128930704000000000000000   10300001F05104100000000002415000000000000     
100   95050324702000270000000000300000000000300000002000000010410407041315144514123281270704000007440612   1030000200030000   333800010001203104000003327KBZPay                 Yangon        MMR11007041315144514120704000000000000000   10300001F05104100000000063000000000000000     
100   95050311959900780000000000000990000000000990002000000010410407040338450845639357770704000007436341   1020000200030000   333400010001204104000000281Myanmar Soft-Gate Tech Yangon        MMR11007040338450845630704000000000000000   10300001F05104100000000000208000000000000     
100   95050312498129060000000000007920000000007920002000000010410407040635070507325252270704000007437998   1020000200030000   333400010001204104000000281Myanmar Soft-Gate Tech Yangon        MMR11007040635070507320704000000000000000   10300001F05104100000000001663000000000000     
100   95050311959900780000000000001980000000001980002000000010410407040847441744234579580704000007439078   1020000200030000   333400010001204104000000281Myanmar Soft-Gate Tech Yangon        MMR11007040847441744230704000000000000000   10300001F05104100000000000416000000000000     
100   95050314534800510000000000000990000000000990002000000010410407040257292729346519650704000007435960   1020000200030000   333400010001204104000000281Myanmar Soft-Gate Tech Yangon        MMR11007040257292729340704000000000000000   10300001F05104100000000000208000000000000     
100   95050327531396450000000000039000000000039000002000000010410407040456402640753307850704000007437108   1030000200030000   333800010001203104000003327KBZPay                 Yangon        MMR11007040456402640750704000000000000000   10300001F05104100000000008190000000000000     
100   95050313732480420000000000002970000000002970002000000010410407040353552355158762090704000007436490   1020000200030000   333400010001204104000000281Myanmar Soft-Gate Tech Yangon        MMR11007040353552355150704000000000000000   10300001F05104100000000000624000000000000     
100   95050318141561190000000000010000000000010000002000000010410407040955092509175125810704000007439626   1040001600030000   333800010001220104000004507A +                    Yangon        MMR11007040955092509170704000000000000000   10300001F05104100000000002100000000000000     
100   62911028202823400000000000100000000000100000002000000010410407040458452845484773800704000007437132   1030000200030000   333800010001203104000003327KBZPay                 Yangon        MMR11007040458452845480704000000000000000   10300001F05104100000000021000000000000000     
100   95050324702000270000000000300000000000300000002000000010410407041316184618659976300704000007440617   1030000200030000   333800010001203104000003327KBZPay                 Yangon        MMR11007041316184618650704000000000000000   10300001F05104100000000063000000000000000     
100   95030367537085740000000000000990000000000990002000000010410407040217064706174773800704000007435744   1020000200030000   333400010001204104000000281Myanmar Soft-Gate Tech Yangon        MMR11007040217064706170704000000000000000   10300001F05104100000000000208000000000000     
100   95030301100319290000000000004950000000004950002000000010410407041250202020744773800704000007440502   1020000200030000   333400010001204104000000281Myanmar Soft-Gate Tech Yangon        MMR11007041250202020740704000000000000000   10300001F05104100000000001040000000000000     
100   95050314570621780000000000001980000000001980002000000010410407041221085108801543690704000007440402   1020000200030000   333400010001204104000000281Myanmar Soft-Gate Tech Yangon        MMR11007041221085108800704000000000000000   10300001F05104100000000000416000000000000     
100   95050316638224720000000000150000000000150000002000000010410407040444071407983102010704000007437000   1030000200030000   333800010001203104000003327KBZPay                 Yangon        MMR11007040444071407980704000000000000000   10300001F05104100000000031500000000000000     
100   95050322248344280000000000300000000000300000002000000010410407040254522452521732390704000007435945   1030000200030000   333800010001203104000003327KBZPay                 Yangon        MMR11007040254522452520704000000000000000   10300001F05104100000000063000000000000000     
100   95050316321163940000000000101000000000101000002000000010410407041003193319395040710704000007439688   1030000200030000   333800010001203104000003327KBZPay                 Yangon        MMR11007041003193319390704000000000000000   10300001F05104100000000021210000000000000     
100   62911028202750390000000000000990000000000990002000000010410407040419014901624773800704000007436736   1020000200030000   333400010001204104000000281Myanmar Soft-Gate Tech Yangon        MMR11007040419014901620704000000000000000   10300001F05104100000000000208000000000000     
100   95050313400081980000000000039000000000039000002000000010410407041424035403932600500704000007440860   1030000200030000   333800010001203104000003327KBZPay                 Yangon        MMR11007041424035403930704000000000000000   10300001F05104100000000008190000000000000     
100   95050316949180000000000000002970000000002970002000000010410407041535100510062345210704000007441053   1020000200030000   333400010001204104000000281Myanmar Soft-Gate Tech Yangon        MMR11007041535100510060704000000000000000   10300001F05104100000000000624000000000000     
100   95050310902464360000000000010890000000010890002000000010410407040547051705558655130704000007437553   1020000200030000   333400010001204104000000281Myanmar Soft-Gate Tech Yangon        MMR11007040547051705550704000000000000000   10300001F05104100000000002287000000000000     
100   62911028202823400000000000200000000000200000002000000010410407040502243224674773800704000007437167   1030000200030000   333800010001203104000003327KBZPay                 Yangon        MMR11007040502243224670704000000000000000   10300001F05104100000000042000000000000000     
100   95050312962334280000000000000990000000000990002000000010410407041505513551375650170704000007440981   1020000200030000   333400010001204104000000281Myanmar Soft-Gate Tech Yangon        MMR11007041505513551370704000000000000000   10300001F05104100000000000208000000000000     
100   62911028202464100000000000010330000000010330002000000010410407041440140166844773800704000749527441   1030000200030000   541188001056000008000000314KBZ BANK               MARKETPLACE - MMR11007041440140166840704000000000000000   10300001 00104100000000000620000000000000     
100   95030331386331890000000000020000000000020000002000000010410407040837420742984773800704000007439008   1030000200030000   333800010001203104000003327KBZPay                 Yangon        MMR11007040837420742980704000000000000000   10300001F05104100000000004200000000000000     
100   95050316896526710000000000130000000000130000002000000010410407040516244624421584060704000007437313   1030000200030000   333800010001203104000003327KBZPay                 Yangon        MMR11007040516244624420704000000000000000   10300001F05104100000000027300000000000000     
100   95050328074436620000000000004950000000004950002000000010410407041036320632843231830704000007439890   1020000200030000   333400010001204104000000281Myanmar Soft-Gate Tech Yangon        MMR11007041036320632840704000000000000000   10300001F05104100000000001040000000000000     
100   95050311403968010000000000051000000000051000002000000010410407041224055405053111070704000007440414   1030000200030000   333800010001203104000003327KBZPay                 Yangon        MMR11007041224055405050704000000000000000   10300001F05104100000000010710000000000000     
100   95050328741376010000000000100000000000100000002000000010410407040232290229905363950704000007435835   1030000200030000   333800010001203104000003327KBZPay                 Yangon        MMR11007040232290229900704000000000000000   10300001F05104100000000021000000000000000     
100   95050310746600650000000000050400000000050400002000000010410407041135430543119962510704000007440182   1030000200030000   333800010001203104000003327KBZPay                 Yangon        MMR11007041135430543110704000000000000000   10300001F05104100000000010584000000000000     
100   95050323233042810000000000016500000000016500002000000010410407041046161616577593610704000007439948   1030000200030000   333800010001203104000003327KBZPay                 Yangon        MMR11007041046161616570704000000000000000   10300001F05104100000000003465000000000000     
100   95050312498129060000000000002970000000002970002000000010410407040043041304707647770704000007435499   1020000200030000   333400010001204104000000281Myanmar Soft-Gate Tech Yangon        MMR11007040043041304700704000000000000000   10300001F05104100000000000624000000000000     
100   62443100323117100000000000110000000000110000002000000010410407041359112911274338080704000007440783   1030000200030000   333800010001203104000003327KBZPay                 Yangon        MMR11007041359112911270704000000000000000   10300001F05104100000000023100000000000000     
100   95050319331315630000000000004950000000004950002000000010410407040214034403391853140704000007435735   1020000200030000   333400010001204104000000281Myanmar Soft-Gate Tech Yangon        MMR11007040214034403390704000000000000000   10300001F05104100000000001040000000000000     
100   62911028202448030000000000008217000000008217002000000010410407031058210001614773800703218417000161   1030000500030000   541120020701022205411200207ORANGE (YDG)           PTN           MMR11007031058210001610703000000000000000   10300001 00104100000000000493000000000000     
100   62911028202120400000000000055002000000055002002000000010410407030738110004364773800703218414000436   1030000500030000   598320001202000015172200012MAX ENERGY             PTN           MMR11007030738110004360703000000000000000   10300001 00104100000000001650000000000000     
100   62911028202693960000000000022800000000022800002000000010410407031042120000534773800703218417000053   1030000500030000   531120201504000085311202015HAGL BLAZON            PTN           MMR11007031042120000530703000000000000000   10300001 00104100000000001368000000000000     
100   95030363502824520000000000040000000000040000002000000010410407030604580000274773800703218412000027   1030000500030000   804320041601000018043200416ZEEKWEK EYEWEAR        PTN           MMR11007030604580000270703000000000000000   10300001 00104100000000002400000000000000     
100   95030301100337010000000000022375000000022375002000000010410407030508360000394773800703218411000039   1030000500030000   541120025102022205411200251ORANGE (THANLYIN-2)    PTN           MMR11007030508360000390703000000000000000   10300001 00104100000000001343000000000000     
100   62911028202527490000000000041000000000041000002000000010410407030346380001644773800703218410000164   1030000500030000   598320002001000015172200020MAX ENERGY             PTN           MMR11007030346380001640703000000000000000   10300001 00104100000000001230000000000000     
100   62911028202911760000000000052000000000052000002000000010410407010955470327574773800701218209032757   1030000600030000   554100001113315799420000571DENKO THAN HLYIN -1    THAN HLYIN    MMR11007010955470327570701000000000000000   10300001 00104100000000001560000000000000     
100   95050315245968360000000000064900000000064900002000000010410407031010080005083972470703218416000508   1030000500030000   531120231211000045311202312OCEAN OATTARA THIRI    PTN           MMR11007031010080005080703000000000000000   10300001 00104100000000015576000000000000     
100   62443100333488440000000000014400000000014400002000000010410407030330150001332136010703218410000133   1030000500030000   541120228601000045411202286CITY EXPRESS (MCS - 11 PTN           MMR11007030330150001330703000000000000000   10300001 00104100000000003600000000000000     
100   95050311587250810000000000019000000000019000002000000010410407031019510001618674630703218416000161   1030000500030000   531120156005000045311201560GAMONE PWINT           PTN           MMR11007031019510001610703000000000000000   10300001 00104100000000004560000000000000     
100   95050314749068520000000000089000000000089000002000000010410407030941060000197447630703218416000019   1030000500030000   569120102701008205691201027ESCORT                 PTN           MMR11007030941060000190703000000000000000   10300001 00104100000000021360000000000000     
100   95030301100126550000000000033000000000033000002000000010410407030308370004674773800703000353416734   1030000300030000   806200000111000000000000042CB BANK                THUKHAGABAR H MMR11007030308370004670703000000000000000   10300001F00104100000000001980000000000000     
100   62443100379184770000000000032000000000032000002000000010410407030936390000813802280703218416000081   1030000500030000   569120066801008205691200668ESCORT                 PTN           MMR11007030936390000810703000000000000000   10300001 00104100000000007680000000000000     
100   62443100323428970000000000073400000000073400002000000010410407030913470002026135540703218415000202   1030000500030000   503920036608000015039200366PRO-1 HOME CENTER      PTN           MMR11007030913470002020703000000000000000   10300001 00104100000000017616000000000000     
100   95050314567080940000000000010750000000010750002000000010410407030617340001273667740703218412000127   1030000500030000   531120155802000045311201558GAMONE PWINT           PTN           MMR11007030617340001270703000000000000000   10300001 00104100000000002580000000000000     
100   62911028202448030000000000002280000000002280002000000010410407031101260001624773800703218417000162   1030000500030000   541120020701022205411200207ORANGE (YDG)           PTN           MMR11007031101260001620703000000000000000   10300001 00104100000000000137000000000000     
100   95030367537085740000000000000990000000000990002000000010410407040241171117784773800704000007435840   1020000200030000   333400010001204104000000281Myanmar Soft-Gate Tech Yangon        MMR11007040241171117780704000000000000000   10300001F05104100000000000208000000000000     
100   95050317775833170000000000050500000000050500002000000010410407040244521452258512510704000007435905   1030000200030000   333800010001203104000003327KBZPay                 Yangon        MMR11007040244521452250704000000000000000   10300001F05104100000000010605000000000000     
100   95050324702000270000000000300000000000300000002000000010410407041312144214733366370704000007440600   1030000200030000   333800010001203104000003327KBZPay                 Yangon        MMR11007041312144214730704000000000000000   10300001F05104100000000063000000000000000     
100   95050312962334280000000000002970000000002970002000000010410407041503343334983997690704000007440977   1020000200030000   333400010001204104000000281Myanmar Soft-Gate Tech Yangon        MMR11007041503343334980704000000000000000   10300001F05104100000000000624000000000000     
100   95050326154591400000000000005150000000005150002000000010410407030450250000332852430703218411000033   1030000500030000   581220064101000015812200641KRISPY KREME           PTN           MMR11007030450250000330703000000000000000   10300001 00104100000000002189000000000000     
100   95050315701710960000000000000990000000000990002000000010410407041245381538880146490704000007440487   1020000200030000   333400010001204104000000281Myanmar Soft-Gate Tech Yangon        MMR11007041245381538880704000000000000000   10300001F05104100000000000208000000000000     
100   95050322420590810000000000101000000000101000002000000010410407031148120014106426480703218418001410   1030000500030000   531120226710000045311202267OCEAN NORTH POINT      PTN           MMR11007031148120014100703000000000000000   10300001 00104100000000024240000000000000     
100   95050315955808830000000000037250000000037250002000000010410407041540091009140607630704000007441073   1030000200030000   333800010001203104000003327KBZPay                 Yangon        MMR11007041540091009140704000000000000000   10300001F05104100000000007823000000000000     
100   62911028202684060000000000060805000000060805002000000010410407030248360005194773800703218409000519   1030000500030000   531120226707000045311202267OCEAN NORTH POINT      PTN           MMR11007030248360005190703000000000000000   10300001 00104100000000003648000000000000     
100   62911028202555020000000000018668000000018668002000000010410407030428310001104773800703218410000110   1030000500030000   541120020601022205411200206ORANGE (NOKL)          PTN           MMR11007030428310001100703000000000000000   10300001 00104100000000001120000000000000     
100   62911028202212490000000000103179000000103179002000000010410407031337490002534773800703218420000253   1030000500030000   581220146401013205812201464THAI 47 (HELPIN BRANCH PTN           MMR11007031337490002530703000000000000000   10300001 00104100000000010524000000000000     
100   62911028202417260000000000005000000000005000002000000010410407030433580003984773800703218411000398   1030000500030000   541120232401000045411202324CITY EXPRESS (MCS - 33 PTN           MMR11007030433580003980703000000000000000   10300001 00104100000000000300000000000000     
100   62911028202421380000000000041580000000041580002000000010410407030419500001834773800703218410000183   1030000500030000   581220146401013205812201464THAI 47 (HELPIN BRANCH PTN           MMR11007030419500001830703000000000000000   10300001 00104100000000004241000000000000     
100   95050313640946520000000000019500000000019500002000000010410407031042190003587908770703218417000358   1030000500030000   531120156002000045311201560GAMONE PWINT           PTN           MMR11007031042190003580703000000000000000   10300001 00104100000000004680000000000000     
100   95050327409540490000000000001750000000001750002000000010410407030631130004550277680703218413000455   1030000500030000   541120203810000015411202038CITY MART SUPERMARKET  PTN           MMR11007030631130004550703000000000000000   10300001 00104100000000000438000000000000     
100   95050327192897240000000000014586000000014586002000000010410407030953110004522319990703218416000452   1030000500030000   531120226304000045311202263OCEAN SUPER CENTER STJ PTN           MMR11007030953110004520703000000000000000   10300001 00104100000000003501000000000000     
100   95050328137327770000000000020000000000020000002000000010410407041340541054009465720704000007440724   1030000200030000   333800010001203104000003327KBZPay                 Yangon        MMR11007041340541054000704000000000000000   10300001F05104100000000004200000000000000     
100   62911028202472440000000000080006000000080006002000000010410407030930400005024773800703218416000502   1030000500030000   598320001901000015172200019MAX ENERGY             PTN           MMR11007030930400005020703000000000000000   10300001 00104100000000002400000000000000     
100   62911028202139640000000000047040000000047040002000000010410407030629370015214773800703218412001521   1030000500030000   531120226721000045311202267OCEAN NORTH POINT      PTN           MMR11007030629370015210703000000000000000   10300001 00104100000000002822000000000000     
100   95050311382087030000000000028000000000028000002000000010410407031636340634769470440704000007435215   1030000200030000   3338000100012031040000040022C2P (Myanmar) Co. Ltd Yangon        MMR11007031636340634760704000000000000000   10300001F05104100000000005880000000000000     
100   95050329888918380000000000044617000000044617002000000010410407030530380014972781120703218412001497   1030000500030000   531120226314000045311202263OCEAN SUPER CENTER STJ PTN           MMR11007030530380014970703000000000000000   10300001 00104100000000010708000000000000     
100   95050318180109730000000000150000000000150000002000000010410407030700310010374979840703000353447826   1030000300030000   573200001736000000000001240CB BANK                WIN MOBILE(CI MMR11007030700310010370703000000000000000   10300001F00104100000000036000000000000000     
100   95050324247403260000000000065000000000065000002000000010410407031115460054031213740703000353484026   1030000300030000   598300001210000000000000817CB BANK                SHWE TAUNG EN MMR11007031115460054030703000000000000000   10300001F00104100000000007800000000000000     
100   95050311876202380000000000030000000000030000002000000010410407030838250005729270310703000353461656   1030000300030000   598300001213000000000000820CB BANK                SHWE TAUNG EN MMR11007030838250005720703000000000000000   10300001F00104100000000003600000000000000     
100   62911028202136750000000000036000000000036000002000000010410407030301540004654773800703218409000465   1030000500030000   598320001901000015172200019MAX ENERGY             PTN           MMR11007030301540004650703000000000000000   10300001 00104100000000001080000000000000     
100   95050329734064360000000000020000000000020000002000000010410407030342320004875355880703218410000487   1030000500030000   598320001204000015172200012MAX ENERGY             PTN           MMR11007030342320004870703000000000000000   10300001 00104100000000002400000000000000     
100   62911028202222620000000000060500000000060500002000000010410407030607500000114773800703218412000011   1030000500030000   551120036101010105511200361SHINE MYO MA CAR SPA   PTN           MMR11007030607500000110703000000000000000   10300001 00104100000000003630000000000000     
100   62443100333488440000000000005600000000005600002000000010410407030331140001348831040703218410000134   1030000500030000   541120228601000045411202286CITY EXPRESS (MCS - 11 PTN           MMR11007030331140001340703000000000000000   10300001 00104100000000001400000000000000     
100   62911028202442250000000000017000000000017000002000000010410407030017320003704773800703218406000370   1030000500030000   598320001202000015172200012MAX ENERGY             PTN           MMR11007030017320003700703000000000000000   10300001 00104100000000000510000000000000     
100   95050321848852460000000000240000000000240000002000000010410407030904410000267873120703218415000026   1030000500030000   597320167701000045973201677ZAWTIKA (KYIMYINDAING) PTN           MMR11007030904410000260703000000000000000   10300001 00104100000000057600000000000000     
100   62911028202440680000000000017150000000017150002000000010410407030314560019044773800703218409001904   1030000500030000   541120226402000045411202264MARKET PLACE MYANMARPL PTN           MMR11007030314560019040703000000000000000   10300001 00104100000000001029000000000000     
100   62911028202110420000000000034100000000034100002000000010410407030945350014874773800703218416001487   1030000500030000   541120226412000045411202264MARKET PLACE MYANMARPL PTN           MMR11007030945350014870703000000000000000   10300001 00104100000000002046000000000000     
100   95050314557307430000000000009900000000009900002000000010410407040854522452958054740704000007439148   1020000200030000   333400010001204104000000281Myanmar Soft-Gate Tech Yangon        MMR11007040854522452950704000000000000000   10300001F05104100000000002079000000000000     
100   95050324850150480000000000080000000000080000002000000010410407010510450313981051160701218205031398   1030000600030000   554100001116315799420000574DENKO HLAE KUU         HLAE KUU      MMR11007010510450313980701000000000000000   10300001 00104100000000009600000000000000     
100   62443101001072630000000000098000000000098000002000000010410407010723580310288015260701218207031028   1030000600030000   554100000725315799420000306DENKO MDY - 78         MANDALAY      MMR11007010723580310280701000000000000000   10300001 00104100000000011760000000000000     
100   95050321188471220000000000026000000000026000002000000010410407010215360077894826330701218202007789   1030000600030000   554100001252315799420000706DENKO MONEYWAR - 2     MONEYWAR      MMR11007010215360077890701000000000000000   10300001 00104100000000003120000000000000     
100   62911028202154800000000000046000000000046000002000000010410407010846370703104773800701218208070310   1030000600030000   554100000952315799420000474DENKO N.DAGON - 1      YANGON        MMR11007010846370703100701000000000000000   10300001 00104100000000001380000000000000     
100   95050321232876860000000000050000000000050000002000000010410406301034180231783593610630218110023178   1030000600030000   554100001212315799420000664DENKO TA TAR OO        TA TAR OO     MMR11006301034180231780630000000000000000   10300001 00104100000000006000000000000000     
100   62911028202472440000000000018600000000018600002000000010410407041336370111654773800704000749519519   1030000200030000   541188001033000008000000298KBZ BANK               CITY MART - M MMR11007041336370111650704000000000000000   10300001 00104100000000001116000000000000     
100   95030301100081330000000000010050000000010050002000000010410407041615240124274773800704000749534854   1030000200030000   541188001303000008000000325KBZ BANK               CITY MART - A MMR11007041615240124270704000000000000000   10300001 00104100000000000603000000000000     
100   95050312878706670000000000026000000000026000002000000010410407030757070055416377040703000353455858   1030000300030000   531100000609000000000000408CB BANK                CAPITAL HYPER MMR11007030757070055410703000000000000000   10300001F00104100000000006240000000000000     
100   95030301100022270000000000026600000000026600002000000010410407030316310008784773800703218409000878   1030000500030000   541120226206000045411202262CITY MART ZAWANA       PTN           MMR11007030316310008780703000000000000000   10300001 00104100000000001596000000000000     
100   95050327409540490000000000095499000000095499002000000010410407030652300009365490420703218413000936   1030000500030000   541120203807000015411202038CITY MART SUPERMARKET  PTN           MMR11007030652300009360703000000000000000   10300001 00104100000000023875000000000000     
100   62911028202130710000000000001800000000001800002000000010410407031152370012454773800703218418001245   1030000500030000   541120226401000045411202264MARKET PLACE MYANMARPL PTN           MMR11007031152370012450703000000000000000   10300001 00104100000000000108000000000000     
100   62443100379184770000000000012750000000012750002000000010410407030945360019455795150703218416001945   1030000500030000   541120226402000045411202264MARKET PLACE MYANMARPL PTN           MMR11007030945360019450703000000000000000   10300001 00104100000000003188000000000000     
100   62443100363668680000000000026000000000026000002000000010410407030827490006307617830703218414000630   1030000500030000   598320001304000015172200013MAX ENERGY             PTN           MMR11007030827490006300703000000000000000   10300001 00104100000000003120000000000000     
100   62911028202204490000000000031000000000031000002000000010410407030837090005454773800703218415000545   1030000500030000   598320001204000015172200012MAX ENERGY             PTN           MMR11007030837090005450703000000000000000   10300001 00104100000000000930000000000000     
100   62911028202786780000000000014800000000014800002000000010410407031046580011894773800703218417001189   1030000500030000   541120230004000045411202300MARKET PLACE BY CITY M PTN           MMR11007031046580011890703000000000000000   10300001 00104100000000000888000000000000     
100   95050328841190290000000000011100000000011100002000000010410407041747460124364033350704000749543807   1030000200030000   541188001303000008000000325KBZ BANK               CITY MART - A MMR11007041747460124360704000000000000000   10300001 00104100000000002775000000000000     
100   62911028202472440000000000095682000000095682002000000010410407041047100060954773800704000749499134   1030000200030000   541188001004000008000000008KBZ BANK               MARKETPLACE - MMR11007041047100060950704000000000000000   10300001 00104100000000005741000000000000     
100   95050313732480420000000000002970000000002970002000000010410407041230140014998068530704000007440430   1020000200030000   333400010001204104000000281Myanmar Soft-Gate Tech Yangon        MMR11007041230140014990704000000000000000   10300001F05104100000000000624000000000000     
100   95050310160291140000000000079129000000079129002000000010410407041047310062728896630704000749499179   1030000200030000   541188001432000008000000401KBZ BANK               OCEAN SUPERCE MMR11007041047310062720704000000000000000   10300001 00104100000000019783000000000000     
100   95050311959900780000000000000990000000000990002000000010410407040631340134850621420704000007437799   1020000200030000   333400010001204104000000281Myanmar Soft-Gate Tech Yangon        MMR11007040631340134850704000000000000000   10300001F05104100000000000208000000000000     
100   62443100306028540000000001000000000001000000002000000010410407040922120017147033580704000749533472   1030000200030000   806288000620000008000003919KBZ BANK               PUN HLAING SI MMR11007040922120017140704000000000000000   10300001 00104100000000240000000000000000     
100   95030305700676370000000000141300000000141300002000000010410407040952380085814773800704000749494269   1030000200030000   541188001501000008000000403KBZ BANK               OCEAN SUPERCE MMR11007040952380085810704000000000000000   10300001 00104100000000008478000000000000     
100   62911028202133940000000000033350000000033350002000000010410407041901290190264773800704000749549823   1030000200030000   541188001305000008000000325KBZ BANK               CITY MART - A MMR11007041901290190260704000000000000000   10300001 00104100000000002001000000000000     
100   62443101023815100000000000022352000000022352002000000010410407030600530012874263420703218412001287   1030000500030000   541120227504000045411202275CITY MART (AHLONE BRAN PTN           MMR11007030600530012870703000000000000000   10300001 00104100000000005588000000000000     
100   62443100363668680000000000036000000000036000002000000010410407030318150005906838170703218409000590   1030000500030000   598320001301000015172200013MAX ENERGY             PTN           MMR11007030318150005900703000000000000000   10300001 00104100000000004320000000000000     
100   62443100323428970000000000132000000000132000002000000010410407030851320008620837700703000353463482   1030000300030000   541100002346000000000000102CB BANK                MAKRO MYANMAR MMR11007030851320008620703000000000000000   10300001F00104100000000033000000000000000     
100   62911028202116120000000000016550000000016550002000000010410407031206440008934773800703218418000893   1030000500030000   531120226318000045311202263OCEAN SUPER CENTER STJ PTN           MMR11007031206440008930703000000000000000   10300001 00104100000000000993000000000000     
100   95050311382087030000000000001980000000001980002000000010410407031632210221577817960703000007435210   1020000200030000   333400010001204104000000281Myanmar Soft-Gate Tech Yangon        MMR11007031632210221570703000000000000000   10300001F05104100000000000416000000000000     
100   95050318057347910000000000005000000000005000002000000010410407040923155315628686070704000007439381   1030000200030000   3338000100012031040000040022C2P (Myanmar) Co. Ltd Yangon        MMR11007040923155315620704000000000000000   10300001F05104100000000001050000000000000     
100   62443100379321630000000000029300000000029300002000000010410407040736229827458181200704010061422184   1030000900030000   541119001289190110000000964City Mart SPL Season C YANGONMYOTHIT MMR11007040736229827450704000000000000000   10300001F00104100000000007325000000000000     
100   95050318601641810000000000011172000000011172002000000010410407041130529899578310030704963001852184   1030000900030000   541119001219190110000000945City Mart TM C 4       YANGONONE     MMR11007041130529899570704000000000000000   10300001F00104100000000002793000000000000     
100   62911028202291190000000000029500000000029500002000000010410407040749000005184773800704000749524873   1030000200030000   806281231111000008000001642KBZ BANK               ASIA ROYAL HO MMR11007040749000005180704000000000000000   10300001 00104100000000001770000000000000     
100   95050311931431670000000000000990000000000990002000000010410407040337030703164235840704000007436309   1020000200030000   333400010001204104000000281Myanmar Soft-Gate Tech Yangon        MMR11007040337030703160704000000000000000   10300001F05104100000000000208000000000000     
100   95050312498129060000000000000990000000000990002000000010410407041207343734005175250704000007440337   1020000200030000   333400010001204104000000281Myanmar Soft-Gate Tech Yangon        MMR11007041207343734000704000000000000000   10300001F05104100000000000208000000000000     
100   95050321057500320000000000004950000000004950002000000010410407040407363736524606160704000007436639   1020000200030000   333400010001204104000000281Myanmar Soft-Gate Tech Yangon        MMR11007040407363736520704000000000000000   10300001F05104100000000001040000000000000     
100   62443100360763680000000000136500000000136500002000000010410407041845430360638238720704000749548904   1030000200030000   541188001039000008000000010KBZ BANK               MARKETPLACE - MMR11007041845430360630704000000000000000   10300001 00104100000000034125000000000000     
100   95050310585042220000000000050400000000050400002000000010410407041138270827988224930704000007440195   1030000200030000   333800010001203104000003327KBZPay                 Yangon        MMR11007041138270827980704000000000000000   10300001F05104100000000010584000000000000     
100   95030367537085740000000000004950000000004950002000000010410407040748141814324773800704000007438600   1020000200030000   333400010001204104000000281Myanmar Soft-Gate Tech Yangon        MMR11007040748141814320704000000000000000   10300001F05104100000000001040000000000000     
100   95050310178107440000000000010000000000010000002000000010410407040159152915628789670704000007435694   1030000200030000   3338000100012031040000040022C2P (Myanmar) Co. Ltd Yangon        MMR11007040159152915620704000000000000000   10300001F05104100000000002100000000000000     
100   95050320205194540000000000027950000000027950002000000010410407041126549898126742640704879561754184   1030000900030000   591219000899190110000000708Shwe Ohh Pharmacy St 3 YANGONONE     MMR11007041126549898120704000000000000000   10300001F00104100000000006708000000000000     
100   62911028202193830000000000074500000000074500002000000010410407041126569898164773800704880561756184   1030000900030000   541119000127190110000000082Sein Gay Har Super Cen YANGON        MMR11007041126569898160704000000000000000   10300001F00104100000000004470000000000000     
100   95050310332595380000000000000990000000000990002000000010410407041338080808617813240704000007440718   1020000200030000   333400010001204104000000281Myanmar Soft-Gate Tech Yangon        MMR11007041338080808610704000000000000000   10300001F05104100000000000208000000000000     
100   95050312695033440000000000000990000000000990002000000010410407040929395939280253450704000007439429   1020000200030000   333400010001204104000000281Myanmar Soft-Gate Tech Yangon        MMR11007040929395939280704000000000000000   10300001F05104100000000000208000000000000     
100   62911028202132460000000000029950000000029950002000000010410407041108599891484773800704473381759184   1030000900030000   591219000609190110000000449Shwe Ohh Pharmacy St-3 YANGONAUNG    MMR11007041108599891480704000000000000000   10300001F00104100000000001797000000000000     
100   62911028202202580000000000026450000000026450002000000010410407040233459753424773800704459030945184   1030000900030000   591219000504190110000000351Shwe Ohh Pharmacy - (Y YANGONAW      MMR11007040233459753420704000000000000000   10300001F00104100000000001587000000000000     
100   95050325925517520000000000125750000000125750002000000010410407040433339780149541750704719031133184   1030000900030000   541119000159190110000000084Pro (1) Global (Pazund YANGONIKANAUN MMR11007040433339780140704000000000000000   10300001F00104100000000031438000000000000     
100   62911028202793040000000000010975000000010975002000000010410407040605589802804773800704780351258184   1030000900030000   591219001419190110000001023Life Plus Store 24     YANGONOKKALAP MMR11007040605589802800704000000000000000   10300001F00104100000000000659000000000000     
100   95050315701710960000000000001980000000001980002000000010410407041408513851422685590704000007440814   1020000200030000   333400010001204104000000281Myanmar Soft-Gate Tech Yangon        MMR11007041408513851420704000000000000000   10300001F05104100000000000416000000000000     
100   95050319938772870000000000000990000000000990002000000010410407041208133813036827730704000007440342   1020000200030000   333400010001204104000000281Myanmar Soft-Gate Tech Yangon        MMR11007041208133813030704000000000000000   10300001F05104100000000000208000000000000     
100   95030327582492680000000000100000000000100000002000000010410407040421315131094773800704000007436768   1030000200030000   333800010001203104000003327KBZPay                 Yangon        MMR11007040421315131090704000000000000000   10300001F05104100000000021000000000000000     
100   62911028202793790000000000001000000000001000002000000010410407040038490849334773800704000007435490   1030000200030000   3334000100012031040000040102C2P (Myanmar) Co. Ltd Yangon        MMR11007040038490849330704000000000000000   10300001F05104100000000000210000000000000     
100   95050314567080940000000000100000000000100000002000000010410407040300283028925923980704000007435983   1030000200030000   333800010001203104000003327KBZPay                 Yangon        MMR11007040300283028920704000000000000000   10300001F05104100000000021000000000000000     
100   95050311382087030000000000000990000000000990002000000010410407041215314531690132700704000007440366   1020000200030000   333400010001204104000000281Myanmar Soft-Gate Tech Yangon        MMR11007041215314531690704000000000000000   10300001F05104100000000000208000000000000     
100   95050311740551900000000000100000000000100000002000000010410407040317134713575427190704000007436139   1030000200030000   333800010001203104000003327KBZPay                 Yangon        MMR11007040317134713570704000000000000000   10300001F05104100000000021000000000000000     
100   95050324702000270000000000300000000000300000002000000010410407041310594059231713880704000007440595   1030000200030000   333800010001203104000003327KBZPay                 Yangon        MMR11007041310594059230704000000000000000   10300001F05104100000000063000000000000000     
100   95050316074210920000000000290000000000290000002000000010410407041148329905355260350704302181832184   1030000900030000   573219001178190110000000934UNIQUE Pansodan        YANGONADA     MMR11007041148329905350704000000000000000   10300001F00104100000000069600000000000000     
100   62911028202594540000000000528503000000528503002000000010410407041048596140804773800704185956945422   1040001400030000   806210000093028062100000766Yoma OUE Pun Hlaing Ho pital  Yoma O MMR11007041048596140800704000000000000000   10300001 00104100000000031710000000000000     
100   62443100317500820000000000050000000000050000002000000010410407041405473547195990560704000007440806   1030000200030000   333800010001203104000003327KBZPay                 Yangon        MMR11007041405473547190704000000000000000   10300001F05104100000000010500000000000000     
100   95050315564078030000000000010000000000010000002000000010410407041025485548106281500704000007439823   1030000200030000   3338000100012031040000040022C2P (Myanmar) Co. Ltd Yangon        MMR11007041025485548100704000000000000000   10300001F05104100000000002100000000000000     
100   62911028202187730000000000030000000000030000002000000010410407040448009783744773800704885181100184   1030000900030000   554119001099190110000000211New Day Energy SCH     YANGONUNG     MMR11007040448009783740704000000000000000   10300001F00104100000000000900000000000000     
100   95050318141561190000000000010000000000010000002000000010410407040322545254778902350704000007436187   1040001600030000   333800010001220104000004507A +                    Yangon        MMR11007040322545254770704000000000000000   10300001F05104100000000002100000000000000     
100   95030378062733680000000000018866000000018866002000000010410407040831469841354773800704666011546184   1030000900030000   541119001332190110000000971Ocean Junction NPT C 1 NAYPYITAW     MMR11007040831469841350704000000000000000   10300001F00104100000000001132000000000000     
100   62911028202441590000000000018900000000018900002000000010410407040749449830924773800704180191444184   1030000900030000   541119001187190110000000942City Mart HDC C 2      YANGONUT      MMR11007040749449830920704000000000000000   10300001F00104100000000001134000000000000     
100   95050312618592720000000000020000000000020000002000000010410407040448511851254414100704000007437046   1030000200030000   333800010001203104000003327KBZPay                 Yangon        MMR11007040448511851250704000000000000000   10300001F05104100000000004200000000000000     
100   62911028202696360000000000031000000000031000002000000010410407041140240189194773800704000749505115   1030000200030000   541188001049000008000000010KBZ BANK               MARKETPLACE - MMR11007041140240189190704000000000000000   10300001 00104100000000001860000000000000     
100   62443100345308040000000000002000000000002000002000000010410407041446521652496160760704000007440933   1030000200030000   333800010001203104000003327KBZPay                 Yangon        MMR11007041446521652490704000000000000000   10300001F05104100000000000420000000000000     
100   95050328074436620000000000009900000000009900002000000010410407041040141014320983670704000007439915   1020000200030000   333400010001204104000000281Myanmar Soft-Gate Tech Yangon        MMR11007041040141014320704000000000000000   10300001F05104100000000002079000000000000     
100   95030363502824520000000000251500000000251500002000000010410407041307393739544773800704000007440584   1030000200030000   333800010001203104000003327KBZPay                 Yangon        MMR11007041307393739540704000000000000000   10300001F05104100000000052815000000000000     
100   95050313123223200000000000000990000000000990002000000010410407040806513651650533280704000007438746   1020000200030000   333400010001204104000000281Myanmar Soft-Gate Tech Yangon        MMR11007040806513651650704000000000000000   10300001F05104100000000000208000000000000     
100   95050313123223200000000000000990000000000990002000000010410407040805153515388334540704000007438733   1020000200030000   333400010001204104000000281Myanmar Soft-Gate Tech Yangon        MMR11007040805153515380704000000000000000   10300001F05104100000000000208000000000000     
100   95050327936713000000000000035000000000035000002000000010410407040614214421567827030704000007437800   1030000200030000   333800010001203104000003327KBZPay                 Yangon        MMR11007040614214421560704000000000000000   10300001F05104100000000007350000000000000     
100   62911028202291190000000000011200000000011200002000000010410407040807069835434773800704389371406184   1030000900030000   591219000607190110000000447Shwe Ohh Pharmacy St-3 YANGONINDAING MMR11007040807069835430704000000000000000   10300001F00104100000000000672000000000000     
100   95050310332595380000000000002970000000002970002000000010410407040222245224326385110704000007435790   1020000200030000   333400010001204104000000281Myanmar Soft-Gate Tech Yangon        MMR11007040222245224320704000000000000000   10300001F05104100000000000624000000000000     
100   62443101093150400000000000015300000000015300002000000010410407040023429736670697440704994530642184   1030000900030000   581219000528190110000000376Shwepalin (Hantharwadd YANGONUT      MMR11007040023429736670704000000000000000   10300001F00104100000000006503000000000000     
100   62911028202464020000000000006600000000006600002000000010410407030316250012264773800703218409001226   1030000500030000   541120203704000015411202037CITY MART SUPERMARKET  PTN           MMR11007030316250012260703000000000000000   10300001 00104100000000000396000000000000     
100   95050320092651450000000000030000000000030000002000000010410407040115009741690271960704049450700184   1030000900030000   554119000348190110000000215New Day Energy MYG     YANGONONE     MMR11007040115009741690704000000000000000   10300001F00104100000000003600000000000000     
100   62911028202441590000000000004800000000004800002000000010410407040753539831914773800704226231453184   1030000900030000   541119001200190110000000943City Mart HDC Season C YANGONUT      MMR11007040753539831910704000000000000000   10300001F00104100000000000288000000000000     
100   62911028202464100000000000042000000000042000002000000010410407040914349853064773800704248441534184   1030000900030000   569119001496190110000001090Next Generation GCS JC YANGONN       MMR11007040914349853060704000000000000000   10300001F00104100000000002520000000000000     
100   95030399326190680000000000063462000000063462002000000010410407041226429916634773800704947561842184   1030000900030000   541119001349190110000000977Ocean PZD C 3          YANGONAUNG    MMR11007041226429916630704000000000000000   10300001F00104100000000003808000000000000     
100   95050324702000270000000000300000000000300000002000000010410407041313434343841628780704000007440607   1030000200030000   333800010001203104000003327KBZPay                 Yangon        MMR11007041313434343840704000000000000000   10300001F05104100000000063000000000000000     
100   95050328074436620000000000009900000000009900002000000010410407041038510851769331180704000007439905   1020000200030000   333400010001204104000000281Myanmar Soft-Gate Tech Yangon        MMR11007041038510851760704000000000000000   10300001F05104100000000002079000000000000     
100   95050319144542320000000000300000000000300000002000000010410407041239530953211798980704000007440460   1030000200030000   333800010001203104000003327KBZPay                 Yangon        MMR11007041239530953210704000000000000000   10300001F05104100000000063000000000000000     
100   95050316377977350000000000010000000000010000002000000010410407040641171117073855080704000007438040   1040001600030000   333800010001220104000004507A +                    Yangon        MMR11007040641171117070704000000000000000   10300001F05104100000000002100000000000000     
100   95050310427855490000000000002970000000002970002000000010410407040255302530703384880704000007435955   1020000200030000   333400010001204104000000281Myanmar Soft-Gate Tech Yangon        MMR11007040255302530700704000000000000000   10300001F05104100000000000624000000000000     
100   62911028202520380000000000026300000000026300002000000010410407041237070267974773800704000749511882   1030000200030000   541188001059000008000000314KBZ BANK               MARKETPLACE - MMR11007041237070267970704000000000000000   10300001 00104100000000001578000000000000     
100   95050312498129060000000000003960000000003960002000000010410407041332260226971118210704000007440684   1020000200030000   333400010001204104000000281Myanmar Soft-Gate Tech Yangon        MMR11007041332260226970704000000000000000   10300001F05104100000000000832000000000000     
100   95050313836159580000000000000990000000000990002000000010410407041433530353809550820704000007440889   1020000200030000   333400010001204104000000281Myanmar Soft-Gate Tech Yangon        MMR11007041433530353800704000000000000000   10300001F05104100000000000208000000000000     
100   62911028202482830000000000007150000000007150002000000010410407040118219742034773800704056480721184   1030000900030000   541119000112190110000000077Sein Gay Har Chinatown YANGON        MMR11007040118219742030704000000000000000   10300001F00104100000000000429000000000000     
100   95050326198165350000000000013900000000013900002000000010410407041125539897870047600704863551753184   1030000900030000   541119001244190110000000955City Mart JS C 3       YANGONUT      MMR11007041125539897870704000000000000000   10300001F00104100000000003475000000000000     
100   95050314557307430000000000001980000000001980002000000010410407041229535953499806110704000007440429   1020000200030000   333400010001204104000000281Myanmar Soft-Gate Tech Yangon        MMR11007041229535953490704000000000000000   10300001F05104100000000000416000000000000     
100   62911028202139640000000000006500000000006500002000000010410407030632220007184773800703218413000718   1030000500030000   531120226736000045311202267OCEAN NORTH POINT      PTN           MMR11007030632220007180703000000000000000   10300001 00104100000000000390000000000000     
100   62911028202690080000000000021250000000021250002000000010410407040735289827124773800704993051428184   1030000900030000   541119001080190110000000872Sein Gay Har Hledan    YANGONUT      MMR11007040735289827120704000000000000000   10300001F00104100000000001275000000000000     
100   62911028202617730000000000004350000000004350002000000010410407041100359888024773800704248301735184   1030000900030000   541119001076190110000000872Sein Gay Har Hledan    YANGONUT      MMR11007041100359888020704000000000000000   10300001F00104100000000000261000000000000     
100   95050310816569570000000000200000000000200000002000000010410407041022595259101324050704000007439806   1030000200030000   333800010001203104000003327KBZPay                 Yangon        MMR11007041022595259100704000000000000000   10300001F05104100000000042000000000000000     
100   95050325715886680000000000005940000000005940002000000010410407041129595959035090160704000007440141   1020000200030000   333400010001204104000000281Myanmar Soft-Gate Tech Yangon        MMR11007041129595959030704000000000000000   10300001F05104100000000001247000000000000     
100   95050315615561720000000000000990000000000990002000000010410407040135270527120186860704000007435624   1020000200030000   333400010001204104000000281Myanmar Soft-Gate Tech Yangon        MMR11007040135270527120704000000000000000   10300001F05104100000000000208000000000000     
100   95050311382087030000000000030000000000030000002000000010410407041533260326780692730704000007441045   1030000200030000   333800010001203104000003327KBZPay                 Yangon        MMR11007041533260326780704000000000000000   10300001F05104100000000006300000000000000     
100   62443100345308040000000000001000000000001000002000000010410407041158542854386912830704000007440305   1030000900030000   333400010001202104000002022ACS                    Yangon        MMR11007041158542854380704000000000000000   10300001F05104100000000000210000000000000     
100   95050310305109410000000000001980000000001980002000000010410407040958142814051820840704000007439636   1020000200030000   333400010001204104000000281Myanmar Soft-Gate Tech Yangon        MMR11007040958142814050704000000000000000   10300001F05104100000000000416000000000000     
100   95050324702000270000000000300000000000300000002000000010410407041310034003396671330704000007440589   1030000200030000   333800010001203104000003327KBZPay                 Yangon        MMR11007041310034003390704000000000000000   10300001F05104100000000063000000000000000     
100   95050328074436620000000000009900000000009900002000000010410407041035050505541664440704000007439881   1020000200030000   333400010001204104000000281Myanmar Soft-Gate Tech Yangon        MMR11007041035050505540704000000000000000   10300001F05104100000000002079000000000000     
100   95050317248519320000000000020000000000020000002000000010410407040657572757737621180704000007438197   1030000200030000   3338000100012031040000040022C2P (Myanmar) Co. Ltd Yangon        MMR11007040657572757730704000000000000000   10300001F05104100000000004200000000000000     
100   95050313836159580000000000030200000000030200002000000010410407040917024702111019320704000007439341   1030000200030000   333800010001203104000003327KBZPay                 Yangon        MMR11007040917024702110704000000000000000   10300001F05104100000000006342000000000000     
100   62911028202446700000000000038400000000038400002000000010410407040826455645124773800704000007438926   1030000200030000   333800010001203104000003327KBZPay                 Yangon        MMR11007040826455645120704000000000000000   10300001F05104100000000008064000000000000     
100   95030338164853990000000000070000000000070000002000000010410407030739230005604773800703000353453341   1030000300030000   598300001213000000000000820CB BANK                SHWE TAUNG EN MMR11007030739230005600703000000000000000   10300001F00104100000000002100000000000000     
100   95030301100134480000000000060000000000060000002000000010410407031006590002414773800703000353474324   1030000300030000   598300001212000000000000819CB BANK                SHWE TAUNG EN MMR11007031006590002410703000000000000000   10300001F00104100000000001800000000000000     
100   95050326159929830000000000012500000000012500002000000010410407030315130016970228240703218409001697   1030000500030000   531120226308000045311202263OCEAN SUPER CENTER STJ PTN           MMR11007030315130016970703000000000000000   10300001 00104100000000003000000000000000     
