100   62443100311760720000000000013504000000013504002000000010410405212306270177140176950522214223017714   1030000600030000   554100001011315799420000505DENKO HTAN TA PIN      YANGON        MMR11005212306270177140522000000000000000   10300001 00104100000000001620000000000000     
100   95030301100126550000000000038000000000038000002000000010410405220759070653254369000522214207065325   1030000600030000   554100000952315799420000474DENKO N.DAGON - 1      YANGON        MMR11005220759070653250522000000000000000   10300001 00104100000000001140000000000000     
100   62443100315110470000000000013850000000013850002000000010410405230458580002115787590523214311000211   1030000500030000   591220014301014405912200143SHWE OHH PHARMACY      PTN           MMR11005230458580002110523000000000000000   10300001 00104100000000003324000000000000     
100   95050326511614440000000000071760000000071760002000000010410405231319450000595515550523214319000059   1030000500030000   581220225001000085812202250MANPUKU JAPANESE TOKYO PTN           MMR11005231319450000590523000000000000000   10300001 00104100000000030498000000000000     
100   62911028202525660000000000043950000000043950002000000010410405231138300007354369000523214318000735   1030000500030000   581220041801000055812200418SHWE LAR HOT POT       PTN           MMR11005231138300007350523000000000000000   10300001 00104100000000004483000000000000     
100   62443100306416880000000000025654000000025654002000000010410405231254070018628565210523214319001862   1030000500030000   598320002103000015172200021MAX ENERGY             PTN           MMR11005231254070018620523000000000000000   10300001 00104100000000003078000000000000     
100   62911028202231380000000000059009000000059009002000000010410405230835400023104369000523214315002310   1030000500030000   598320001201000015172200012MAX ENERGY             PTN           MMR11005230835400023100523000000000000000   10300001 00104100000000001770000000000000     
100   62911028202125290000000000050000000000050000002000000010410405230319440028104369000523214309002810   1030000500030000   598320001302000015172200013MAX ENERGY             PTN           MMR11005230319440028100523000000000000000   10300001 00104100000000001500000000000000     
100   62911028202154800000000000026866000000026866002000000010410405241039549719804369000524563091754143   1030000900030000   541119001263190110000000958City Mart PLST C 6     YANGONMYOTHIT MMR11005241039549719800524000000000000000   10300001F00104100000000001612000000000000     
100   95050314538419220000000000013799000000013799002000000010410405210418220016644785940521214104001664   1030000600030000   5499000022263157994200015671 STOP S M BOGYOKE RD  YANGON        MMR11005210418220016640521000000000000000   10300001 00104100000000005865000000000000     
100   62911028202761360000000000050000000000050000002000000010410405210930250375364369000521214109037536   1030000600030000   554100001865315799420001235DENKO NAY PYI TAW 2    NAYPYITAW     MMR11005210930250375360521000000000000000   10300001 00104100000000001500000000000000     
100   62911028202677390000000000050000000000050000002000000010410405220548450236534369000522214205023653   1030000600030000   554100001118315799420000576DENKO THAN HLYIN - 2   THAN HLYIN    MMR11005220548450236530522000000000000000   10300001 00104100000000001500000000000000     
100   95030364439875210000000000030894000000030894002000000010410405240647219671654369000524864171321143   1030000900030000   541119001242190110000000955City Mart JS C 1       YANGONUT      MMR11005240647219671650524000000000000000   10300001F00104100000000001854000000000000     
100   95050326228858240000000000100007000000100007002000000010410405210045470125360764550521214100012536   1030000600030000   554100002328315799420001235DENKO NAY PYI TAW 2    NAYPYITAW     MMR11005210045470125360521000000000000000   10300001 00104100000000012001000000000000     
100   62443101037081820000000000201750000000201750002000000010410405221408120017630835860522214214001763   1030000600030000   581200002191315799420001536CANTON PARADISE TC     YANGON        MMR11005221408120017630522000000000000000   10300001 00104100000000085744000000000000     
100   62911028202793040000000000050000000000050000002000000010410405230921520519884369000523214309051988   1030000600030000   554100000969315799420000481DENKO NORTH OKKALAPA   YANGON        MMR11005230921520519880523000000000000000   10300001 00104100000000001500000000000000     
100   95030308100042590000000000139003000000139003002000000010410405230850320009604369000523214315000960   1030000500030000   598320001702000015172200017MAX ENERGY             PTN           MMR11005230850320009600523000000000000000   10300001 00104100000000004170000000000000     
100   95050329632900220000000000050000000000050000002000000010410405230929220028452921900523214315002845   1030000500030000   598320001302000015172200013MAX ENERGY             PTN           MMR11005230929220028450523000000000000000   10300001 00104100000000006000000000000000     
100   62443100333488440000000000011500000000011500002000000010410405230758130000578900500523000346501075   1030000300030000   581200001517000000000001066CB BANK                YKKO(TAMWE)   MMR11005230758130000570523000000000000000   10300001F00104100000000004888000000000000     
100   62911028202393160000000000020000000000020000002000000010410405230620480104254369000523214306010425   1030000600030000   554100001218315799420000670DENKO MAWLAMYAING      MON STATE.    MMR11005230620480104250523000000000000000   10300001 00104100000000000600000000000000     
100   95030308100042590000000000030000000000030000002000000010410405230849500009594369000523214315000959   1030000500030000   598320001702000015172200017MAX ENERGY             PTN           MMR11005230849500009590523000000000000000   10300001 00104100000000000900000000000000     
100   95030308100042590000000000030000000000030000002000000010410405230849180009584369000523214315000958   1030000500030000   598320001702000015172200017MAX ENERGY             PTN           MMR11005230849180009580523000000000000000   10300001 00104100000000000900000000000000     
100   95050310299956570000000000037450000000037450002000000010410405230553310003336858190523000346484370   1030000300030000   531100000602000000000000408CB BANK                CAPITAL HYPER MMR11005230553310003330523000000000000000   10300001F00104100000000008988000000000000     
100   62911028202197630000000000008510000000008510002000000010410405230342570035004369000523214310003500   1030000500030000   598320001902000015172200019MAX ENERGY             PTN           MMR11005230342570035000523000000000000000   10300001 00104100000000000255000000000000     
100   95030381596008350000000000005050000000005050002000000010410405241016249714264369000524229461624143   1030000900030000   541119000120190110000000080Sein Gay Har BAK       YANGONADA     MMR11005241016249714260524000000000000000   10300001F00104100000000000303000000000000     
100   62911028202423360000000000030000000000030000002000000010410405211009570212284369000521214110021228   1030000600030000   554100002319315799420000477DENKO INSEIN           YANGON        MMR11005211009570212280521000000000000000   10300001 00104100000000000900000000000000     
100   95050324826664210000000000044000000000044000002000000010410405230004100027283374960523214306002728   1030000500030000   598320001403000015172200014MAX ENERGY             PTN           MMR11005230004100027280523000000000000000   10300001 00104100000000005280000000000000     
100   62911028202193830000000000082000000000082000002000000010410405230538510018184369000523214312001818   1030000500030000   598320001602000015172200016MAX ENERGY             PTN           MMR11005230538510018180523000000000000000   10300001 00104100000000002460000000000000     
100   62911028202471860000000000091000000000091000002000000010410405221057100207514369000522214210020751   1030000600030000   554100002085315799420000471DENKO BAHAN            YANGON        MMR11005221057100207510522000000000000000   10300001 00104100000000002730000000000000     
100   62443101000669310000000000160000000000160000002000000010410405241152419737704805910524713221841143   1030000900030000   701119001579190110000001151Hotel Shwe Pyi Thar    MANDALAYHARSA MMR11005241152419737700524000000000000000   10300001F00104100000000068000000000000000     
100   62911028202393160000000000030000000000030000002000000010410405220930540103944369000522214209010394   1030000600030000   554100001218315799420000670DENKO MAWLAMYAING      MON STATE.    MMR11005220930540103940522000000000000000   10300001 00104100000000000900000000000000     
100   62911028202397530000000000040000000000040000002000000010410405220410290145584369000522214204014558   1030000600030000   554100001754315799420001135DENKO KYITE HTO        MON STATE.    MMR11005220410290145580522000000000000000   10300001 00104100000000001200000000000000     
100   95050316901496590000000000004950000000004950002000000010410405231156110001867714290523214318000186   1030000500030000   541120045801009205411200458126 STORE              PTN           MMR11005231156110001860523000000000000000   10300001 00104100000000001238000000000000     
100   62911028202593060000000000006500000000006500002000000010410405231203200008154369000523214318000815   1030000500030000   541120020701022205411200207ORANGE (YDG)           PTN           MMR11005231203200008150523000000000000000   10300001 00104100000000000390000000000000     
100   95050329252108030000000000016000000000016000002000000010410405231334330016532891390523214320001653   1030000500030000   598320041902000055983200419MAX ENERGY             PTN           MMR11005231334330016530523000000000000000   10300001 00104100000000001920000000000000     
100   62911028202108460000000000060000000000060000002000000010410405230221550026464369000523214308002646   1030000500030000   598320001204000015172200012MAX ENERGY             PTN           MMR11005230221550026460523000000000000000   10300001 00104100000000001800000000000000     
100   62911028202481760000000000159800000000159800002000000010410405230509120006314369000523214311000631   1030000500030000   806220172403013008062201724GRAND HANTHA HOSPITAL  PTN           MMR11005230509120006310523000000000000000   10300001 00104100000000009588000000000000     
100   62911028202446540000000000012650000000012650002000000010410405231150060001724369000523214318000172   1030000500030000   591220013401014405912200134SHWE OHH PHARMACY      PTN           MMR11005231150060001720523000000000000000   10300001 00104100000000000759000000000000     
100   95050310299956570000000000009700000000009700002000000010410405230621320001665035510523000346488157   1030000300030000   581200001509000000000001059CB BANK                YKKO (THARKAY MMR11005230621320001660523000000000000000   10300001F00104100000000004123000000000000     
100   95030301100425040000000000003300000000003300002000000010410405231100320019554369000523214311001955   1030000600030000   549900002142315799420001491EASY MART 023          YANGON        MMR11005231100320019550523000000000000000   10300001 00104100000000000337000000000000     
100   95050321685338790000000000121910000000121910002000000010410405220250410027012375660522214202002701   1030000600030000   581200002268315799420001575SIGNATURE FINEDINING 4 YANGON        MMR11005220250410027010522000000000000000   10300001 00104100000000051812000000000000     
100   95050312287957830000000000006950000000006950002000000010410405241303149751258696630524634331914143   1030000900030000   541119001355190110000000977Ocean PZD C9           YANGONAUNG    MMR11005241303149751250524000000000000000   10300001F00104100000000001738000000000000     
100   62911028202107390000000000028000000000028000002000000010410405241052239723434369000524805221723143   1030000900030000   554119001101190110000000213New Day Energy SOK     YANGONOKKALAP MMR11005241052239723430524000000000000000   10300001F00104100000000000840000000000000     
100   95050322083768590000000000015100000000015100002000000010410405231119070021862962700523214311002186   1030000600030000   549900002155315799420001504EASY MART- 025         YANGON        MMR11005231119070021860523000000000000000   10300001 00104100000000006418000000000000     
100   62911028202023630000000000050000000000050000002000000010410405241016506089644369000524214417608964   1040001600030000   598320000660000000010000529Shwe Taung Energy (NPT Naypyitaw     MMR11005241016506089640524000000000000000   10300001F00104100000000001500000000000000     
100   95030318100004530000000000020000000000020000002000000010410405220307380103764369000522214203010376   1030000600030000   554100001218315799420000670DENKO MAWLAMYAING      MON STATE.    MMR11005220307380103760522000000000000000   10300001 00104100000000000600000000000000     
100   95050318741700180000000000001960000000001960002000000010410405241307343734078199990524000007218414   1020000200030000   333400010001204104000000281Myanmar Soft-Gate Tech Yangon        MMR11005241307343734070524000000000000000   10300001F05104100000000000412000000000000     
100   95050312940629360000000000000980000000000980002000000010410405240832420242821828710524000007217021   1020000200030000   333400010001204104000000281Myanmar Soft-Gate Tech Yangon        MMR11005240832420242820524000000000000000   10300001F05104100000000000206000000000000     
100   95030346130941600000000000016340000000016340002000000010410405230516350057664369000523000346479563   1030000300030000   806200000197000000000000097CB BANK                AUNG YADANA H MMR11005230516350057660523000000000000000   10300001F00104100000000000980000000000000     
100   95050321232876860000000000106662000000106662002000000010410405230303370376697731020523214303037669   1030000600030000   554100001865315799420001235DENKO NAY PYI TAW 2    NAYPYITAW     MMR11005230303370376690523000000000000000   10300001 00104100000000012800000000000000     
100   95050322420590810000000000097000000000097000002000000010410405230110260144773545150523214301014477   1030000600030000   554100002324315799420000481DENKO NORTH OKKALAPA   YANGON        MMR11005230110260144770523000000000000000   10300001 00104100000000011640000000000000     
100   95030301100121270000000000038000000000038000002000000010410405230032205131984369000523214307513198   1040001600030000   598320000917000000010000665MMTM - Thingangyun     Ygn           MMR11005230032205131980523000000000000000   10300001F00104100000000001140000000000000     
100   95050312210363590000000000002000000000002000002000000010410405241247111711486984200524000007218346   1030000200030000   333800010001203104000003327KBZPay                 Yangon        MMR11005241247111711480524000000000000000   10300001F05104100000000000420000000000000     
100   95050324154190880000000000021650000000021650002000000010410405241106146131790181390524214418613179   1040001600030000   541120000573000000010000465Ocean Shwe Gone Daing  Yangon        MMR11005241106146131790524000000000000000   10300001F00104100000000005413000000000000     
100   95030367537085740000000000000980000000000980002000000010410405241246251625024369000524000007218343   1020000200030000   333400010001204104000000281Myanmar Soft-Gate Tech Yangon        MMR11005241246251625020524000000000000000   10300001F05104100000000000206000000000000     
100   62911028202446130000000000113801000000113801002000000010410405240603132152084369000524590341241143   1030000500030000   555610114570104519000012532City Mart Ahlone Branc               MMR11005240603132152080524000000000000000   10300001 00104100000000006828000000000000     
100   95050311736839760000000000050500000000050500002000000010410405240808083808256190490524000007216823   1030000200030000   333800010001203104000003327KBZPay                 Yangon        MMR11005240808083808250524000000000000000   10300001F05104100000000010605000000000000     
100   95030301100196920000000000094200000000094200002000000010410405240719169678644369000524250491316143   1030000900030000   541119001363190110000000977Ocean PZD C17          YANGONAUNG    MMR11005240719169678640524000000000000000   10300001F00104100000000005652000000000000     
100   62911028202416760000000000020000000000020000002000000010410405230806595351234369000523214315535123   1040001600030000   598320000854000000010000608Terminal Petrol Statio Yangon        MMR11005230806595351230523000000000000000   10300001F00104100000000000600000000000000     
100   95030317922148660000000000450000000000450000002000000010410405241222132193024369000524952521801143   1030000300030000   444410103326104519000003284Winner Inn                           MMR11005241222132193020524000000000000000   10300001 00104100000000045900000000000000     
100   62911028202665580000000000013167000000013167002000000010410405210200310026804369000521214102002680   1030000600030000   581200002268315799420001575SIGNATURE FINEDINING 4 YANGON        MMR11005210200310026800521000000000000000   10300001 00104100000000001343000000000000     
100   95030367537085740000000000000980000000000980002000000010410405240841371137994369000524000007217086   1020000200030000   333400010001204104000000281Myanmar Soft-Gate Tech Yangon        MMR11005240841371137990524000000000000000   10300001F05104100000000000206000000000000     
100   95050321685338790000000000083679000000083679002000000010410405230226350071683284150523214302007168   1030000600030000   581200001904315799420001274SIGNATURE FINEDINING 2 BAHAN         MMR11005230226350071680523000000000000000   10300001 00104100000000035564000000000000     
100   95050315743141220000000000002940000000002940002000000010410405240757192719712800420524000007216739   1020000200030000   333400010001204104000000281Myanmar Soft-Gate Tech Yangon        MMR11005240757192719710524000000000000000   10300001F05104100000000000617000000000000     
100   62911028202440680000000000025200000000025200002000000010410405241256450019564369000524000747472099   1030000200030000   581288000671000008000004115KBZ BANK               MIN LANN REST MMR11005241256450019560524000000000000000   10300001 00104100000000002570000000000000     
100   62911028202469070000000000040800000000040800002000000010410405241105160116404369000524000747448401   1030000200030000   541188001081000008000000294KBZ BANK               CITY MART - J MMR11005241105160116400524000000000000000   10300001 00104100000000002448000000000000     
100   95050328035424750000000000203100000000203100002000000010410405241135570000763360440524000747450366   1030000200030000   541188001335000008000000327KBZ BANK               CITY MART - S MMR11005241135570000760524000000000000000   10300001 00104100000000050775000000000000     
100   95050312855530910000000000050000000000050000002000000010410405240533200003895183110524000747452099   1030000200030000   594488000253000008000002280KBZ BANK               PWINT HTUN GO MMR11005240533200003890524000000000000000   10300001 00104100000000012000000000000000     
100   62911028202195320000000000100000000000100000002000000010410405241230580058134369000524000007218279   1030000200030000   333800010001203104000003327KBZPay                 Yangon        MMR11005241230580058130524000000000000000   10300001F05104100000000021000000000000000     
100   62911028202161240000000000020312000000020312002000000010410405241100570083694369000524000747448148   1030000200030000   541188001022000008000000298KBZ BANK               CITY MART - M MMR11005241100570083690524000000000000000   10300001 00104100000000001219000000000000     
100   62911028202161240000000000006500000000006500002000000010410405241108500083714369000524000747448634   1030000200030000   541188001022000008000000298KBZ BANK               CITY MART - M MMR11005241108500083710524000000000000000   10300001 00104100000000000390000000000000     
100   62911028202907560000000000007700000000007700002000000010410405241432450109984369000524000747460959   1030000200030000   541188001189000008000000383KBZ BANK               OCEAN SUPER C MMR11005241432450109980524000000000000000   10300001 00104100000000000462000000000000     
100   95050328035424750000000000098300000000098300002000000010410405241139490078108402990524000747450594   1030000200030000   541188001331000008000000327KBZ BANK               CITY MART - S MMR11005241139490078100524000000000000000   10300001 00104100000000024575000000000000     
100   62911028202045260000000000001800000000001800002000000010410405241708080101224369000524000747467293   1030000200030000   541188001088000008000000294KBZ BANK               CITY MART - J MMR11005241708080101220524000000000000000   10300001 00104100000000000108000000000000     
100   95050311823681970000000000022200000000022200002000000010410405241615370027165862640524000747465285   1030000200030000   541188001482000008000000399KBZ BANK               OCEAN SUPERCE MMR11005241615370027160524000000000000000   10300001 00104100000000005550000000000000     
100   62911028202788350000000000010000000000010000002000000010410405241336360636204369000524000007218533   1030000200030000   333800010001203104000003327KBZPay                 Yangon        MMR11005241336360636200524000000000000000   10300001F05104100000000002100000000000000     
100   95050315005801680000000000002940000000002940002000000010410405241438260826724938670524000007218704   1020000200030000   333400010001204104000000281Myanmar Soft-Gate Tech Yangon        MMR11005241438260826720524000000000000000   10300001F05104100000000000617000000000000     
100   95050325139996190000000000003300000000003300002000000010410405240442251225288573180524000007215304   1030000200030000   333300010001203104000003632Myanmar Tradenet Test  Yangon        MMR11005240442251225280524000000000000000   10300001F05104100000000010000000000000000     
100   62911028202045260000000000017700000000017700002000000010410405241705350202724369000524000747467195   1030000200030000   541188001075000008000000294KBZ BANK               CITY MART - J MMR11005241705350202720524000000000000000   10300001 00104100000000001062000000000000     
100   62443100392773440000000000076020000000076020002000000010410405240534162148636835600524244031241143   1030000500030000   555610112231104519000010487Ocean Super Center St  ohn           MMR11005240534162148630524000000000000000   10300001 00104100000000019005000000000000     
100   62911028202169750000000000090489000000090489002000000010410405240757562164694369000524858301447143   1030000500030000   555610103474104519000003432City Mart Junction Zaw na 1          MMR11005240757562164690524000000000000000   10300001 00104100000000005429000000000000     
100   62911028202170490000000000005000000000005000002000000010410405240859302170054369000524425281528143   1030000500030000   555610112256104519000010487Ocean Super Center St  ohn           MMR11005240859302170050524000000000000000   10300001 00104100000000000300000000000000     
100   95030381424182120000000000059900000000059900002000000010410405240749312163774369000524760201453143   1030000500030000   555610108840104519000003432City Mart Junction Zaw na 1          MMR11005240749312163770524000000000000000   10300001 00104100000000003594000000000000     
100   95050312498129060000000000000980000000000980002000000010410405240133150315826720710524000007214241   1020000200030000   333400010001204104000000281Myanmar Soft-Gate Tech Yangon        MMR11005240133150315820524000000000000000   10300001F05104100000000000206000000000000     
100   62911028202464020000000000011850000000011850002000000010410405241101592183844369000524953331717143   1030000500030000   555610110572104519000009164City Mart China Town P int Cen       MMR11005241101592183840524000000000000000   10300001 00104100000000000711000000000000     
100   95030367537085740000000000000980000000000980002000000010410405240240441044944369000524000007214399   1020000200030000   333400010001204104000000281Myanmar Soft-Gate Tech Yangon        MMR11005240240441044940524000000000000000   10300001F05104100000000000206000000000000     
100   95050319391394380000000000003650000000003650002000000010410405240953112176066288150524065231632143   1030000500030000   555610110595104519000009166City Mart 47 Branch                  MMR11005240953112176060524000000000000000   10300001 00104100000000000913000000000000     
100   95050313702988830000000000001960000000001960002000000010410405241146341634728687520524000007218126   1020000200030000   333400010001204104000000281Myanmar Soft-Gate Tech Yangon        MMR11005241146341634720524000000000000000   10300001F05104100000000000412000000000000     
100   62911028202684060000000000022100000000022100002000000010410405240725292161824369000524572001401143   1030000500030000   555610104023104519000003821City Mart North Point  enter         MMR11005240725292161820524000000000000000   10300001 00104100000000001326000000000000     
100   62443101054139140000000000045288000000045288002000000010410405241901400240957977910524000747471469   1030000200030000   541188001003000008000000008KBZ BANK               MARKETPLACE - MMR11005241901400240950524000000000000000   10300001 00104100000000011322000000000000     
100   95050315743141220000000000000980000000000980002000000010410405240837400740993566290524000007217056   1020000200030000   333400010001204104000000281Myanmar Soft-Gate Tech Yangon        MMR11005240837400740990524000000000000000   10300001F05104100000000000206000000000000     
100   95050319161596230000000000000980000000000980002000000010410405241135570557239251800524000007218096   1020000200030000   333400010001204104000000281Myanmar Soft-Gate Tech Yangon        MMR11005241135570557230524000000000000000   10300001F05104100000000000206000000000000     
100   95050313145843230000000000000980000000000980002000000010410405241335200520069193700524000007218532   1020000200030000   333400010001204104000000281Myanmar Soft-Gate Tech Yangon        MMR11005241335200520060524000000000000000   10300001F05104100000000000206000000000000     
100   62911028202489110000000000074900000000074900002000000010410405240307302135574369000524012360936143   1030000300030000   555510124696104519000020166Makro Myanmar                        MMR11005240307302135570524000000000000000   10300001 00104100000000004494000000000000     
100   62911028202400660000000000075214000000075214002000000010410405240538402149244369000524306091216143   1030000500030000   555610115759104519000013506MarketplaceMyanmarPlaz Branch        MMR11005240538402149240524000000000000000   10300001 00104100000000004513000000000000     
100   62911028202220980000000000014100000000014100002000000010410405240547492150154369000524400181212143   1030000500030000   555610110597104519000009166City Mart 47 Branch                  MMR11005240547492150150524000000000000000   10300001 00104100000000000846000000000000     
100   62911028202792960000000000006750000000006750002000000010410405240903452171094369000524528361541143   1030000500030000   555610110597104519000009166City Mart 47 Branch                  MMR11005240903452171090524000000000000000   10300001 00104100000000000405000000000000     
100   62911028202204490000000000023472000000023472002000000010410405241107452184464369000524031371755143   1030000500030000   555610112240104519000010487Ocean Super Center St  ohn           MMR11005241107452184460524000000000000000   10300001 00104100000000001408000000000000     
100   95050316586367540000000000002940000000002940002000000010410405240536020602428729580524000007215743   1020000200030000   333400010001204104000000281Myanmar Soft-Gate Tech Yangon        MMR11005240536020602420524000000000000000   10300001F05104100000000000617000000000000     
100   62443100355445150000000000122300000000122300002000000010410405240154482131557571670524628240802143   1030000300030000   555510124696104519000020166Makro Myanmar                        MMR11005240154482131550524000000000000000   10300001 00104100000000029352000000000000     
100   62911028202822900000000000010000000000010000002000000010410405241144221422484369000524000007218125   1030000200030000   333800010001203104000003327KBZPay                 Yangon        MMR11005241144221422480524000000000000000   10300001F05104100000000002100000000000000     
100   62911028202792960000000000003550000000003550002000000010410405240900082170304369000524453301519143   1030000500030000   555610110596104519000009166City Mart 47 Branch                  MMR11005240900082170300524000000000000000   10300001 00104100000000000213000000000000     
100   62911028202471860000000000012000000000012000002000000010410405240317309623354369000524057470930143   1030000900030000   591219000694190110000000525Shwe Ohh Pharmacy ST-2 YANGONAW      MMR11005240317309623350524000000000000000   10300001F00104100000000000720000000000000     
100   62911028202298040000000000030400000000030400002000000010410405240232205859094369000524214409585909   1040001600030000   591220000043000000010000041Mingalar Pharmacy      Yangon        MMR11005240232205859090524000000000000000   10300001F00104100000000001824000000000000     
100   95050312498129060000000000000980000000000980002000000010410405241221595159393225810524000007218248   1020000200030000   333400010001204104000000281Myanmar Soft-Gate Tech Yangon        MMR11005241221595159390524000000000000000   10300001F05104100000000000206000000000000     
100   95050317100052460000000000000980000000000980002000000010410405240716074607970722450524000007216420   1020000200030000   333400010001204104000000281Myanmar Soft-Gate Tech Yangon        MMR11005240716074607970524000000000000000   10300001F05104100000000000206000000000000     
100   95030301100196920000000000050700000000050700002000000010410405240743009683224369000524490131400143   1030000900030000   541119001359190110000000977Ocean PZD C 13         YANGONAUNG    MMR11005240743009683220524000000000000000   10300001F00104100000000003042000000000000     
100   95030301100196920000000000009600000000009600002000000010410405240744099683404369000524500141409143   1030000900030000   541119001359190110000000977Ocean PZD C 13         YANGONAUNG    MMR11005240744099683400524000000000000000   10300001F00104100000000000576000000000000     
100   62443100340648380000000000005000000000005000002000000010410405240507273727208317890524000007215509   1030000200030000   333800010001203104000003327KBZPay                 Yangon        MMR11005240507273727200524000000000000000   10300001F05104100000000001050000000000000     
100   95050315099113150000000000002940000000002940002000000010410405240524035403081793050524000007215664   1020000200030000   333400010001204104000000281Myanmar Soft-Gate Tech Yangon        MMR11005240524035403080524000000000000000   10300001F05104100000000000617000000000000     
100   95050313817486860000000000004900000000004900002000000010410405241127105710488193960524000007218068   1020000200030000   333400010001204104000000281Myanmar Soft-Gate Tech Yangon        MMR11005241127105710480524000000000000000   10300001F05104100000000001029000000000000     
100   62911028202308280000000000003500000000003500002000000010410405240717125995284369000524214414599528   1040001600030000   591220000295000000010000283Shwe Ohh Pharmacy (39t Yangon        MMR11005240717125995280524000000000000000   10300001F00104100000000000210000000000000     
100   62911028202423360000000000006700000000006700002000000010410405241230262193834369000524038591846143   1030000500030000   555610104041104519000003821City Mart North Point  enter         MMR11005241230262193830524000000000000000   10300001 00104100000000000402000000000000     
100   95050313970192050000000000007150000000007150002000000010410405241310302196834441590524349411957143   1030000500030000   555610112651104519000010846City Express MCS 34                  MMR11005241310302196830524000000000000000   10300001 00104100000000001788000000000000     
100   95050311184380560000000000000980000000000980002000000010410405240922045204950006030524000007217413   1020000200030000   333400010001204104000000281Myanmar Soft-Gate Tech Yangon        MMR11005240922045204950524000000000000000   10300001F05104100000000000206000000000000     
100   95050319928585020000000000001960000000001960002000000010410405240814154415087842970524000007216864   1020000200030000   333400010001204104000000281Myanmar Soft-Gate Tech Yangon        MMR11005240814154415080524000000000000000   10300001F05104100000000000412000000000000     
100   95050312911050270000000000000980000000000980002000000010410405240229275927154126310524000007214381   1020000200030000   333400010001204104000000281Myanmar Soft-Gate Tech Yangon        MMR11005240229275927150524000000000000000   10300001F05104100000000000206000000000000     
100   62911028202907560000000000018850000000018850002000000010410405240751316009694369000524214414600969   1040001600030000   541120000571000000010000465Ocean Shwe Gone Daing  Yangon        MMR11005240751316009690524000000000000000   10300001F00104100000000001131000000000000     
100   62911028202446540000000000044450000000044450002000000010410405240538529656584369000524970081252143   1030000900030000   591219000795190110000000627Shwe Ohh Pharmacy ST-3 YANGONINDAING MMR11005240538529656580524000000000000000   10300001F00104100000000002667000000000000     
100   95050318712627500000000000002940000000002940002000000010410405240912344234046701060524000007217339   1020000200030000   333400010001204104000000281Myanmar Soft-Gate Tech Yangon        MMR11005240912344234040524000000000000000   10300001F05104100000000000617000000000000     
100   95050314893649800000000000011760000000011760002000000010410405240217314731294521960524000007214347   1020000200030000   333400010001204104000000281Myanmar Soft-Gate Tech Yangon        MMR11005240217314731290524000000000000000   10300001F05104100000000002470000000000000     
100   95050312498129060000000000000980000000000980002000000010410405240659512951227417490524000007216313   1020000200030000   333400010001204104000000281Myanmar Soft-Gate Tech Yangon        MMR11005240659512951220524000000000000000   10300001F05104100000000000206000000000000     
100   95050319938772870000000000000980000000000980002000000010410405241322065206679690350524000007218478   1020000200030000   333400010001204104000000281Myanmar Soft-Gate Tech Yangon        MMR11005241322065206670524000000000000000   10300001F05104100000000000206000000000000     
100   62911028202287310000000000106100000000106100002000000010410405240456365919084369000524214411591908   1040001600030000   591220000282000000010000270Shwe Ohh Pharmacy (Shw Yangon        MMR11005240456365919080524000000000000000   10300001F00104100000000006366000000000000     
100   62443100398177500000000001138800000001138800002000000010410405240359459633609459800524645291045143   1030000900030000   541119000831190110000000177Pro1 Global (Insein)   YANGON        MMR11005240359459633600524000000000000000   10300001F00104100000000284700000000000000     
100   62911028202473840000000000135050000000135050002000000010410405240443439644124369000524256131143143   1030000900030000   591219000970190110000000777Shwe Ohh Pharmacy St ( YANGONAW      MMR11005240443439644120524000000000000000   10300001F00104100000000008103000000000000     
100   62911028202423360000000000004900000000004900002000000010410405241214182192204369000524862441813143   1030000500030000   555610104044104519000003821City Mart North Point  enter         MMR11005241214182192200524000000000000000   10300001 00104100000000000294000000000000     
100   95050320360851930000000000200000000000200000002000000010410405240218264826757997170524000007214350   1030000200030000   333800010001203104000003327KBZPay                 Yangon        MMR11005240218264826750524000000000000000   10300001F05104100000000042000000000000000     
100   95050319161596230000000000000980000000000980002000000010410405240515534553486750500524000007215589   1020000200030000   333400010001204104000000281Myanmar Soft-Gate Tech Yangon        MMR11005240515534553480524000000000000000   10300001F05104100000000000206000000000000     
100   62911028202496380000000000116450000000116450002000000010410405241040436109584369000524214417610958   1040001600030000   591220000289000000010000277Shwe Ohh Pharmacy (Par Yangon        MMR11005241040436109580524000000000000000   10300001F00104100000000006987000000000000     
100   62911028202611530000000000064500000000064500002000000010410405240734559681624369000524409041455143   1030000900030000   541119000127190110000000082Sein Gay Har Super Cen YANGON        MMR11005240734559681620524000000000000000   10300001F00104100000000003870000000000000     
100   95050314396102920000000000087000000000087000002000000010410405241417364736770684060524000007218634   1030000500030000   333800010001201104000003863AYA Pay                Yangon        MMR11005241417364736770524000000000000000   10300001F05104100000000018270000000000000     
100   95050325630928770000000000000980000000000980002000000010410405240757342734431147930524000007216732   1020000200030000   333400010001204104000000281Myanmar Soft-Gate Tech Yangon        MMR11005240757342734430524000000000000000   10300001F05104100000000000206000000000000     
100   62911028202465350000000000019800000000019800002000000010410405241324592198294369000524473032043143   1030000500030000   555610110576104519000009164City Mart China Town P int Cen       MMR11005241324592198290524000000000000000   10300001 00104100000000001188000000000000     
100   62911028202527490000000000042000000000042000002000000010410405240109519604104369000524191390751143   1030000900030000   554119001037190110000000842Puma Power(BBIBB)      MONON         MMR11005240109519604100524000000000000000   10300001F00104100000000001260000000000000     
100   62911028202170490000000000049526000000049526002000000010410405240943272175084369000524950141601143   1030000500030000   555610112248104519000010487Ocean Super Center St  ohn           MMR11005240943272175080524000000000000000   10300001 00104100000000002972000000000000     
100   62911028202492080000000000071100000000071100002000000010410405210346440010324369000521214103001032   1030000600030000   5499000022383157994200015691 STOP S M SATSAN      YANGON        MMR11005210346440010320521000000000000000   10300001 00104100000000007252000000000000     
100   62911028202169750000000000004200000000004200002000000010410405210524140004194369000521214105000419   1030000600030000   5499000022423157994200015691 STOP S M SATSAN      YANGON        MMR11005210524140004190521000000000000000   10300001 00104100000000000428000000000000     
100   62911028202223200000000000025900000000025900002000000010410405210848280008614369000521214108000861   1030000600030000   809900002339315799420001624CLINIQUE DE SKIN KMD   YANGON        MMR11005210848280008610521000000000000000   10300001 00104100000000001554000000000000     
100   62911028202466670000000000072000000000072000002000000010410405210333280203304369000521214103020330   1030000600030000   554100002085315799420000471DENKO BAHAN            YANGON        MMR11005210333280203300521000000000000000   10300001 00104100000000002160000000000000     
100   95050326228858240000000000105000000000105000002000000010410405210601360378572636670521214106037857   1030000600030000   554100001003315799420000497DENKO KONE TA LA PAUNG YANGON        MMR11005210601360378570521000000000000000   10300001 00104100000000012600000000000000     
100   62443101076362230000000000103000000000103000002000000010410405211131180204750778340521214111020475   1030000600030000   554100002085315799420000471DENKO BAHAN            YANGON        MMR11005211131180204750521000000000000000   10300001 00104100000000012360000000000000     
100   62443101076362230000000000031955000000031955002000000010410405210204070048030424160521214102004803   1030000600030000   581200002287315799420000141FUJI COFFEE HOUSE      YANGON        MMR11005210204070048030521000000000000000   10300001 00104100000000013581000000000000     
100   62911028202404050000000000046590000000046590002000000010410405210440080157014369000521214104015701   1030000600030000   809900000541315799420000147GRAND HANTHA HOSPITAL  YANGON        MMR11005210440080157010521000000000000000   10300001 00104100000000002795000000000000     
100   62911028202366010000000000020228000000020228002000000010410405241239222194544369000524113081959143   1030000500030000   555610103965104519000003818Ocean Oattara Thiri Na PyiTaw        MMR11005241239222194540524000000000000000   10300001 00104100000000001214000000000000     
100   95050310427855490000000000000980000000000980002000000010410405231804373437056223930524000007213922   1020000200030000   333400010001204104000000281Myanmar Soft-Gate Tech Yangon        MMR11005231804373437050524000000000000000   10300001F05104100000000000206000000000000     
100   95050316586367540000000000002940000000002940002000000010410405240615544554620892650524000007215993   1020000200030000   333400010001204104000000281Myanmar Soft-Gate Tech Yangon        MMR11005240615544554620524000000000000000   10300001F05104100000000000617000000000000     
100   95050314292165140000000000010000000000010000002000000010410405240928565856724514910524000007217486   1030000200030000   3338000100012031040000040022C2P (Myanmar) Co. Ltd Yangon        MMR11005240928565856720524000000000000000   10300001F05104100000000002100000000000000     
100   62443101037081820000000000027500000000027500002000000010410405240334319626800516610524239041031143   1030000900030000   541119001242190110000000955City Mart JS C 1       YANGONUT      MMR11005240334319626800524000000000000000   10300001F00104100000000006875000000000000     
100   62911028202465350000000000010200000000010200002000000010410405241149042189744369000524620211840143   1030000500030000   555610120983104519000017746City Express MCS 109                 MMR11005241149042189740524000000000000000   10300001 00104100000000000612000000000000     
100   62443100392426520000000000010000000000010000002000000010410405240858122812513225900524000007217220   1030000200030000   333800010001203104000003327KBZPay                 Yangon        MMR11005240858122812510524000000000000000   10300001F05104100000000002100000000000000     
100   95050315158357300000000000000980000000000980002000000010410405240324275427669849620524000007214687   1020000200030000   333400010001204104000000281Myanmar Soft-Gate Tech Yangon        MMR11005240324275427660524000000000000000   10300001F05104100000000000206000000000000     
100   95030305700676370000000000070000000000070000002000000010410405211152380145494369000521214111014549   1030000600030000   554100001754315799420001135DENKO KYITE HTO        MON STATE.    MMR11005211152380145490521000000000000000   10300001 00104100000000002100000000000000     
100   62911028202216940000000000084695000000084695002000000010410405211127170157154369000521214111015715   1030000600030000   809900000541315799420000147GRAND HANTHA HOSPITAL  YANGON        MMR11005211127170157150521000000000000000   10300001 00104100000000005082000000000000     
100   62443100379321630000000000030000000000030000002000000010410405211129400160534168400521214111016053   1030000600030000   554100002320315799420000564DENKO PHYUU            PHYUU         MMR11005211129400160530521000000000000000   10300001 00104100000000003600000000000000     
100   95050316818460650000000000060000000000060000002000000010410405211035560416264678980521214110041626   1030000600030000   554100001009315799420000504DENKO SOUTH DAGON      YANGON        MMR11005211035560416260521000000000000000   10300001 00104100000000007200000000000000     
100   95050325052849960000000000040000000000040000002000000010410405210058340202842417030521214100020284   1030000600030000   554100002085315799420000471DENKO BAHAN            YANGON        MMR11005210058340202840521000000000000000   10300001 00104100000000004800000000000000     
100   95030301100086460000000000030000000000030000002000000010410405210124080870934369000521214101087093   1030000600030000   554100000946315799420000471DENKO BAHAN            YANGON        MMR11005210124080870930521000000000000000   10300001 00104100000000000900000000000000     
100   95030301100121270000000000030000000000030000002000000010410405210949080513954369000521214109051395   1030000600030000   554100001756315799420001137DENKO NORTH DAGON 2    YANGON        MMR11005210949080513950521000000000000000   10300001 00104100000000000900000000000000     
100   95030390626214130000000000050000000000050000002000000010410405211120430517804369000521214111051780   1030000600030000   554100000969315799420000481DENKO NORTH OKKALAPA   YANGON        MMR11005211120430517800521000000000000000   10300001 00104100000000001500000000000000     
100   95050310902464360000000000002940000000002940002000000010410405241613574357206709630524000007218944   1020000200030000   333400010001204104000000281Myanmar Soft-Gate Tech Yangon        MMR11005241613574357200524000000000000000   10300001F05104100000000000617000000000000     
100   62911028202416760000000000050000000000050000002000000010410405240410145898944369000524214411589894   1040001600030000   598320000316000000010000304PT Power Petrol Statio Yangon        MMR11005240410145898940524000000000000000   10300001F00104100000000001500000000000000     
100   62911028202416760000000000055003000000055003002000000010410405240410545899244369000524214411589924   1040001600030000   598320000316000000010000304PT Power Petrol Statio Yangon        MMR11005240410545899240524000000000000000   10300001F00104100000000001650000000000000     
100   95030301100103940000000000035050000000035050002000000010410405241203176183884369000524214419618388   1040001600030000   541120000559000000010000465Ocean Shwe Gone Daing  Yangon        MMR11005241203176183880524000000000000000   10300001F00104100000000002103000000000000     
100   95030301100124400000000000007150000000007150002000000010410405240154079609674369000524382240807143   1030000900030000   541119001267190110000000958City Mart PLST C 10    YANGONMYOTHIT MMR11005240154079609670524000000000000000   10300001F00104100000000000429000000000000     
100   95050312498129060000000000005880000000005880002000000010410405240454012401285268210524000007215396   1020000200030000   333400010001204104000000281Myanmar Soft-Gate Tech Yangon        MMR11005240454012401280524000000000000000   10300001F05104100000000001235000000000000     
100   95050317338786370000000000003000000000003000002000000010410405241159582958177289130524000007218178   1030000200030000   3334000100012031040000040102C2P (Myanmar) Co. Ltd Yangon        MMR11005241159582958170524000000000000000   10300001F05104100000000000630000000000000     
100   95050312498129060000000000001960000000001960002000000010410405241306423642602951660524000007218412   1020000200030000   333400010001204104000000281Myanmar Soft-Gate Tech Yangon        MMR11005241306423642600524000000000000000   10300001F05104100000000000412000000000000     
100   62443100300743690000000000002575000000002575002000000010410405201209330010666644270520214012001066   1030000600030000   5499000022253157994200015671 STOP S M BOGYOKE RD  YANGON        MMR11005201209330010660520000000000000000   10300001 00104100000000001095000000000000     
100   62911028202752520000000000080000000000080000002000000010410405200158360158564369000520214001015856   1030000600030000   554100002320315799420000564DENKO PHYUU            PHYUU         MMR11005200158360158560520000000000000000   10300001 00104100000000002400000000000000     
100   95050326228858240000000000065000000000065000002000000010410405200819100343584281080520214008034358   1030000600030000   554100001155315799420000607DENKO NPT 1            NAYPYITAW.    MMR11005200819100343580520000000000000000   10300001 00104100000000007800000000000000     
100   62911028202397530000000000040000000000040000002000000010410405200925400066424369000520214009006642   1030000600030000   554100001208315799420000660DENKO WAW              WAW           MMR11005200925400066420520000000000000000   10300001 00104100000000001200000000000000     
100   62911028202489110000000000033000000000033000002000000010410405221229420017344369000522214212001734   1030000600030000   5499000022263157994200015671 STOP S M BOGYOKE RD  YANGON        MMR11005221229420017340522000000000000000   10300001 00104100000000003366000000000000     
100   95050322426452690000000000070000000000070000002000000010410405220238270116259155790522214202011625   1030000600030000   554100001217315799420000669DENKO PHAYAR GYI       BAGO          MMR11005220238270116250522000000000000000   10300001 00104100000000008400000000000000     
100   95030341448197210000000000050000000000050000002000000010410405220754350066894369000522214207006689   1030000600030000   554100000841315799420000373DENKO NYAUNG U         NYAUNG U      MMR11005220754350066890522000000000000000   10300001 00104100000000001500000000000000     
100   62911028202680670000000000050000000000050000002000000010410405220053440212974369000522214200021297   1030000600030000   554100002319315799420000477DENKO INSEIN           YANGON        MMR11005220053440212970522000000000000000   10300001 00104100000000001500000000000000     
100   95050311959900780000000000000980000000000980002000000010410405240626005600249325250524000007216055   1020000200030000   333400010001204104000000281Myanmar Soft-Gate Tech Yangon        MMR11005240626005600240524000000000000000   10300001F05104100000000000206000000000000     
100   62911028202496380000000000068000000000068000002000000010410405241020096092114369000524214417609211   1040001600030000   591220000289000000010000277Shwe Ohh Pharmacy (Par Yangon        MMR11005241020096092110524000000000000000   10300001F00104100000000004080000000000000     
100   62443100346413950000000000018000000000018000002000000010410405240120149605427146210524232500714143   1030000900030000   554119001037190110000000842Puma Power(BBIBB)      MONON         MMR11005240120149605420524000000000000000   10300001F00104100000000002160000000000000     
100   95050319996628650000000000001960000000001960002000000010410405241111384138649187670524000007218026   1020000200030000   333400010001204104000000281Myanmar Soft-Gate Tech Yangon        MMR11005241111384138640524000000000000000   10300001F05104100000000000412000000000000     
100   95050310427855490000000000005880000000005880002000000010410405241506203620320186990524000007218808   1020000200030000   333400010001204104000000281Myanmar Soft-Gate Tech Yangon        MMR11005241506203620320524000000000000000   10300001F05104100000000001235000000000000     
100   62911028202260400000000000045000000000045000002000000010410405240351505891934369000524214410589193   1040001600030000   591220000626000000010000497AAA Pharmacy           Ygn           MMR11005240351505891930524000000000000000   10300001F00104100000000002700000000000000     
100   62911028202223200000000000111700000000111700002000000010410405241210426190434369000524214419619043   1040001600030000   591220001007000000010000737Shwe Ohh Pharmacy (Tan Ygn           MMR11005241210426190430524000000000000000   10300001F00104100000000006702000000000000     
100   62911028202471600000000000011650000000011650002000000010410405240951412175764369000524034201649143   1030000300030000   555510106567104519000005928One Stop Mart Shopping all0075       MMR11005240951412175760524000000000000000   10300001 00104100000000000699000000000000     
