100   62911028202187730000000000050000000000050000002000000010410407030507360062484773800703218405006248   1030000600030000   554100001210315799420000662DENKO PYUN TANZAR      PYUN TANZAR   MMR11007030507360062480703000000000000000   10300001 00104100000000001500000000000000     
100   95050321232876860000000000064356000000064356002000000010410407030533190233306086090703218405023330   1030000600030000   554100001212315799420000664DENKO TA TAR OO        TA TAR OO     MMR11007030533190233300703000000000000000   10300001 00104100000000007723000000000000     
100   62911028202463520000000000053000000000053000002000000010410407031005010217344773800703218410021734   1030000600030000   809900000537315799420000147GRAND HANTHA HOSPITAL  YANGON        MMR11007031005010217340703000000000000000   10300001 00104100000000003180000000000000     
100   95050322715181550000000000070000000000070000002000000010410407031001090969557362540703218410096955   1030000600030000   554100000946315799420000471DENKO BAHAN            YANGON        MMR11007031001090969550703000000000000000   10300001 00104100000000008400000000000000     
100   95050310213446310000000000004950000000004950002000000010410407050051272127065820370705000007441585   1020000200030000   333400010001204104000000281Myanmar Soft-Gate Tech Yangon        MMR11007050051272127060705000000000000000   10300001F05104100000000001040000000000000     
100   95050317461467820000000000065400000000065400002000000010410407050952392239312737400705000007445425   1030000200030000   333800010001203104000003327KBZPay                 Yangon        MMR11007050952392239310705000000000000000   10300001F05104100000000013734000000000000     
100   95050312498129060000000000000990000000000990002000000010410407051152152215728339960705000007446030   1020000200030000   333400010001204104000000281Myanmar Soft-Gate Tech Yangon        MMR11007051152152215720705000000000000000   10300001F05104100000000000208000000000000     
100   62443100301716860000000000000990000000000990002000000010410407050453452345985147670705000007443094   1020000200030000   333400010001204104000000281Myanmar Soft-Gate Tech Yangon        MMR11007050453452345980705000000000000000   10300001F05104100000000000208000000000000     
100   95050314749068520000000000300000000000300000002000000010410407050619074907525367310705000007443731   1030000200030000   333800010001203104000003327KBZPay                 Yangon        MMR11007050619074907520705000000000000000   10300001F05104100000000063000000000000000     
100   95030321939721770000000000003500000000003500002000000010410407050215594559684773800705000007441840   1030000200030000   333800010001203104000003327KBZPay                 Yangon        MMR11007050215594559680705000000000000000   10300001F05104100000000000735000000000000     
100   95050316563230820000000000050000000000050000002000000010410407050226115611469685360705000007441881   1030000200030000   333800010001203104000003327KBZPay                 Yangon        MMR11007050226115611460705000000000000000   10300001F05104100000000010500000000000000     
100   95030301100121270000000000061650000000061650002000000010410407050931135929324773800705218616592932   1040001600030000   591220001200000000010000908Shwe Ohh Pharmacy (Thu Ygn           MMR11007050931135929320705000000000000000   10300001F00104100000000003699000000000000     
100   95050319928585020000000000002000000000002000002000000010410407051411184118894864810705000007446596   1030000200030000   3338000100012031040000040022C2P (Myanmar) Co. Ltd Yangon        MMR11007051411184118890705000000000000000   10300001F05104100000000000420000000000000     
100   95050324154190880000000000029000000000029000002000000010410407040755030008229042920704218514000822   1030000500030000   598320001301000015172200013MAX ENERGY             PTN           MMR11007040755030008220704000000000000000   10300001 00104100000000003480000000000000     
100   95050324850150480000000000070000000000070000002000000010410407030800110200583072060703218408020058   1030000600030000   554100002320315799420000564DENKO PHYUU            PHYUU         MMR11007030800110200580703000000000000000   10300001 00104100000000008400000000000000     
100   62443101001072630000000000100000000000100000002000000010410407020154480310765504200702218301031076   1030000600030000   554100000725315799420000306DENKO MDY - 78         MANDALAY      MMR11007020154480310760702000000000000000   10300001 00104100000000012000000000000000     
100   95050324154190880000000000039986000000039986002000000010410407040859080056206402250704000353647581   1030000300030000   581200001801000000000001289CB BANK                SHWE KAUNG (S MMR11007040859080056200704000000000000000   10300001F00104100000000016994000000000000     
100   95050311403968010000000000030000000000030000002000000010410407050147031703478203070705000007441714   1030000200030000   333800010001203104000003327KBZPay                 Yangon        MMR11007050147031703470705000000000000000   10300001F05104100000000006300000000000000     
100   95050310332595380000000000000990000000000990002000000010410407051020525052185276500705000007445573   1020000200030000   333400010001204104000000281Myanmar Soft-Gate Tech Yangon        MMR11007051020525052180705000000000000000   10300001F05104100000000000208000000000000     
100   95050312498129060000000000000990000000000990002000000010410407042320545054470522530705000007441466   1020000200030000   333400010001204104000000281Myanmar Soft-Gate Tech Yangon        MMR11007042320545054470705000000000000000   10300001F05104100000000000208000000000000     
100   62443100300743690000000000036165000000036165002000000010410407051157036058899992450705218618605889   1040001600030000   541120000553000000010000465Ocean Shwe Gone Daing  Yangon        MMR11007051157036058890705000000000000000   10300001F00104100000000009042000000000000     
100   62443100333488440000000000021150000000021150002000000010410407040330370015192328060704218510001519   1030000500030000   541120226412000045411202264MARKET PLACE MYANMARPL PTN           MMR11007040330370015190704000000000000000   10300001 00104100000000005288000000000000     
100   95030371405797020000000000160000000000160000002000000010410407051116544654824773800705000007445842   1030000200030000   333800010001203104000003327KBZPay                 Yangon        MMR11007051116544654820705000000000000000   10300001F05104100000000033600000000000000     
100   62911028202290100000000000054000000000054000002000000010410407050910445916594773800705218616591659   1040001600030000   598320001170000000010000527Shwe Taung Energy (YGN Yangon        MMR11007050910445916590705000000000000000   10300001F00104100000000001620000000000000     
100   62443100300412100000000000033541000000033541002000000010410407010340000004203401020701218203000420   1030000600030000   701100000978315799420000494LOTTE HOTELS & RESORTS YANGON        MMR11007010340000004200701000000000000000   10300001 00104100000000014255000000000000     
100   62443100300412100000000000016761000000016761002000000010410407010720060004244540100701218207000424   1030000600030000   701100000978315799420000494LOTTE HOTELS & RESORTS YANGON        MMR11007010720060004240701000000000000000   10300001 00104100000000007124000000000000     
100   95050329352979980000000000040000000000040000002000000010410407011416340395183886910701218214039518   1030000600030000   554100001155315799420000607DENKO NPT 1            NAYPYITAW.    MMR11007011416340395180701000000000000000   10300001 00104100000000004800000000000000     
100   62911028202313470000000000046138000000046138002000000010410407011229180019994773800701218212001999   1030000600030000   5499000022263157994200015671 STOP S M BOGYOKE RD  YANGON        MMR11007011229180019990701000000000000000   10300001 00104100000000004706000000000000     
100   62911028202752520000000000082000000000082000002000000010410407010138380198614773800701218201019861   1030000600030000   554100002320315799420000564DENKO PHYUU            PHYUU         MMR11007010138380198610701000000000000000   10300001 00104100000000002460000000000000     
100   95050328074436620000000000040000000000040000002000000010410407010251280448531386820701218202044853   1030000600030000   554100001106315799420000564DENKO PHYUU            PHYUU         MMR11007010251280448530701000000000000000   10300001 00104100000000004800000000000000     
100   62911028202789750000000000010950000000010950002000000010410407050131000004654773800705956010800185   1030000900030000   591219000610190110000000450Shwe Ohh Pharmacy St-1 YANGONUNG     MMR11007050131000004650705000000000000000   10300001F00104100000000000657000000000000     
100   62911028202135350000000000019000000000019000002000000010410407051140250005584773800705000749626130   1030000200030000   806281231111000008000001642KBZ BANK               ASIA ROYAL HO MMR11007051140250005580705000000000000000   10300001 00104100000000001140000000000000     
100   62443101065883000000000000185152000000185152002000000010410407051452250055448806820705000749607001   1030000200030000   541188001005000008000000008KBZ BANK               MARKETPLACE - MMR11007051452250055440705000000000000000   10300001 00104100000000046288000000000000     
100   62911028202197630000000000469000000000469000002000000010410407050724360095364773800705689541336185   1030000900030000   573219001181190110000000937UNIQUE Hlaing          YANGON        MMR11007050724360095360705000000000000000   10300001F00104100000000028140000000000000     
100   95050310427855490000000000000990000000000990002000000010410407041730280028607217560705000007441283   1020000200030000   333400010001204104000000281Myanmar Soft-Gate Tech Yangon        MMR11007041730280028600705000000000000000   10300001F05104100000000000208000000000000     
100   62911028202703370000000000033900000000033900002000000010410407050441350046894773800705991111135185   1030000900030000   541119001160190110000000930OCEAN HTY C 10         YANGONTHARYA  MMR11007050441350046890705000000000000000   10300001F00104100000000002034000000000000     
100   95050322420590810000000000113300000000113300002000000010410407050846110120603338790705159161511185   1030000900030000   541119001509190110000001102Ocean MGDTM-C 2        YANGONADON    MMR11007050846110120600705000000000000000   10300001F00104100000000028325000000000000     
100   95050316355723530000000000023500000000023500002000000010410407050648180084325282210705080181318185   1030000900030000   573219001179190110000000935UNIQUE Seikkanthar     YANGONADA     MMR11007050648180084320705000000000000000   10300001F00104100000000005640000000000000     
100   62911028202212490000000000016600000000016600002000000010410407050424300042014773800705711541030185   1030000900030000   581219000715190110000000546Akkhaya Tea House(Dago YANGON        MMR11007050424300042010705000000000000000   10300001F00104100000000001693000000000000     
100   62911028202291190000000000046060000000046060002000000010410407050709410014994773800705000749598624   1030000200030000   806281231112000008000001642KBZ BANK               ASIA ROYAL HO MMR11007050709410014990705000000000000000   10300001 00104100000000002764000000000000     
100   95030322371504830000000000191118000000191118002000000010410407051231120028074773800705000749590933   1030000200030000   541188001480000008000000399KBZ BANK               OCEAN SUPERCE MMR11007051231120028070705000000000000000   10300001 00104100000000011467000000000000     
100   62443100313112320000000000098100000000098100002000000010410407050339360029458743580705042091036185   1030000900030000   554119000348190110000000215New Day Energy MYG     YANGONONE     MMR11007050339360029450705000000000000000   10300001F00104100000000011772000000000000     
100   95050324850150480000000000070000000000070000002000000010410407050231350046679174780705000749567993   1030000200030000   598388001833000008000005310KBZ BANK               BOC (138 MILE MMR11007050231350046670705000000000000000   10300001 00104100000000008400000000000000     
100   62911028202440680000000000017505000000017505002000000010410407051011500158274773800705000749574031   1030000200030000   541188001023000008000000298KBZ BANK               CITY MART - M MMR11007051011500158270705000000000000000   10300001 00104100000000001050000000000000     
100   62911028202119920000000000008050000000008050002000000010410407051545390133854773800705000749612545   1030000200030000   541188001081000008000000294KBZ BANK               CITY MART - J MMR11007051545390133850705000000000000000   10300001 00104100000000000483000000000000     
100   95050312695033440000000000003960000000003960002000000010410407050855462546491601210705000007445007   1020000200030000   333400010001204104000000281Myanmar Soft-Gate Tech Yangon        MMR11007050855462546490705000000000000000   10300001F05104100000000000832000000000000     
100   95050312498129060000000000000990000000000990002000000010410407051335590559099822260705000007446460   1020000200030000   333400010001204104000000281Myanmar Soft-Gate Tech Yangon        MMR11007051335590559090705000000000000000   10300001F05104100000000000208000000000000     
100   95050314020354280000000000007200000000007200002000000010410407050942360138209092040705138121636185   1030000900030000   541119000116190110000000078Sein Gay Har Kan Thar  YANGONOKKALAP MMR11007050942360138200705000000000000000   10300001F00104100000000001800000000000000     
100   95050312498129060000000000003960000000003960002000000010410407050844071407664735980705000007444894   1020000200030000   333400010001204104000000281Myanmar Soft-Gate Tech Yangon        MMR11007050844071407660705000000000000000   10300001F05104100000000000832000000000000     
100   95050319096688200000000000046000000000046000002000000010410407050744081408239657780705000007444400   1030000200030000   333800010001203104000003327KBZPay                 Yangon        MMR11007050744081408230705000000000000000   10300001F05104100000000009660000000000000     
100   95050310794962000000000000005000000000005000002000000010410407051331290129968169770705000007446439   1030000200030000   3338000100012031040000040022C2P (Myanmar) Co. Ltd Yangon        MMR11007051331290129960705000000000000000   10300001F05104100000000001050000000000000     
100   95050314557307430000000000001980000000001980002000000010410407050132440244358359470705000007441675   1020000200030000   333400010001204104000000281Myanmar Soft-Gate Tech Yangon        MMR11007050132440244350705000000000000000   10300001F05104100000000000416000000000000     
100   62911028202280200000000000042250000000042250002000000010410407051132240175744773800705419021824185   1030000900030000   541119001187190110000000942City Mart HDC C 2      YANGONUT      MMR11007051132240175740705000000000000000   10300001F00104100000000002535000000000000     
100   95050317284600370000000000040000000000040000002000000010410407051041291129513964400705000007445682   1030000200030000   333800010001203104000003327KBZPay                 Yangon        MMR11007051041291129510705000000000000000   10300001F05104100000000008400000000000000     
100   95050311712422700000000000150000000000150000002000000010410407041635140514277302660705000007441190   1030000200030000   333800010001203104000003327KBZPay                 Yangon        MMR11007041635140514270705000000000000000   10300001F05104100000000031500000000000000     
100   95050315701710960000000000004950000000004950002000000010410407051056592659876857670705000007445758   1020000200030000   333400010001204104000000281Myanmar Soft-Gate Tech Yangon        MMR11007051056592659870705000000000000000   10300001F05104100000000001040000000000000     
100   95050313396828960000000000002970000000002970002000000010410407051253202320383212320705000007446275   1020000200030000   333400010001204104000000281Myanmar Soft-Gate Tech Yangon        MMR11007051253202320380705000000000000000   10300001F05104100000000000624000000000000     
100   95050312675525330000000000019000000000019000002000000010410407050949191919677354460705000007445408   1030000200030000   333800010001203104000003327KBZPay                 Yangon        MMR11007050949191919670705000000000000000   10300001F05104100000000003990000000000000     
100   62443100373945130000000000028050000000028050002000000010410407050816520112168381340705679461452185   1030000900030000   541119001265190110000000958City Mart PLST C 8     YANGONMYOTHIT MMR11007050816520112160705000000000000000   10300001F00104100000000007013000000000000     
100   95050322420590810000000000011700000000011700002000000010410407050854310123083253690705305241531185   1030000900030000   541119001528190110000001107Ocean MGDTM-Season C-1 YANGONADON    MMR11007050854310123080705000000000000000   10300001F00104100000000002925000000000000     
100   62911028202793040000000000011900000000011900002000000010410407051035190155804773800705163051719185   1030000900030000   591219001534190110000001111Life Plus Store 32     YANGONARTAUNG MMR11007051035190155800705000000000000000   10300001F00104100000000000714000000000000     
100   95050315743141220000000000002970000000002970002000000010410407050333120312054126520705000007442421   1020000200030000   333400010001204104000000281Myanmar Soft-Gate Tech Yangon        MMR11007050333120312050705000000000000000   10300001F05104100000000000624000000000000     
100   62443100381661260000000000005000000000005000002000000010410407051446571657614354230705000007446756   1030000200030000   333800010001203104000003327KBZPay                 Yangon        MMR11007051446571657610705000000000000000   10300001F05104100000000001050000000000000     
100   95050313168701670000000000300000000000300000002000000010410407050253242324875359230705000007442059   1030000200030000   333800010001203104000003327KBZPay                 Yangon        MMR11007050253242324870705000000000000000   10300001F05104100000000063000000000000000     
100   62911028202154800000000000088571000000088571002000000010410407051055150162724773800705590251715185   1030000900030000   541119001262190110000000958City Mart PLST C 5     YANGONMYOTHIT MMR11007051055150162720705000000000000000   10300001F00104100000000005314000000000000     
100   95030331386331890000000000030000000000030000002000000010410407041731170117654773800705000007441284   1030000200030000   333800010001203104000003327KBZPay                 Yangon        MMR11007041731170117650705000000000000000   10300001F05104100000000006300000000000000     
100   95050321237170130000000000089500000000089500002000000010410407051237510195861644940705623071951185   1030000900030000   541119001364190110000000977Ocean PZD C18          YANGONAUNG    MMR11007051237510195860705000000000000000   10300001F00104100000000022375000000000000     
100   62911028202336730000000000010000000000010000002000000010410407041659102910544773800705000007441241   1030000200030000   333800010001203104000003327KBZPay                 Yangon        MMR11007041659102910540705000000000000000   10300001F05104100000000002100000000000000     
100   62443100301716860000000000001980000000001980002000000010410407050450462046123069710705000007443056   1020000200030000   333400010001204104000000281Myanmar Soft-Gate Tech Yangon        MMR11007050450462046120705000000000000000   10300001F05104100000000000416000000000000     
100   62911028202154800000000000027200000000027200002000000010410407050950390140874773800705284201639185   1030000900030000   541119001260190110000000958City Mart PLST C 3     YANGONMYOTHIT MMR11007050950390140870705000000000000000   10300001F00104100000000001632000000000000     
100   95050318601641810000000000000990000000000990002000000010410407050935520552904730260705000007445302   1020000200030000   333400010001204104000000281Myanmar Soft-Gate Tech Yangon        MMR11007050935520552900705000000000000000   10300001F05104100000000000208000000000000     
100   62911028202116120000000000038200000000038200002000000010410407021405560028464773800702218314002846   1030000600030000   581200000709315799420000291BULGOGI BROTHERSKOREAN YANGON        MMR11007021405560028460702000000000000000   10300001 00104100000000003896000000000000     
100   95050320093758110000000000061000000000061000002000000010410407020505020084603220400702218305008460   1030000600030000   554100002139315799420001488DENKO MDY-12           MANDALAY      MMR11007020505020084600702000000000000000   10300001 00104100000000007320000000000000     
100   95050321232876860000000000093000000000093000002000000010410407020730300156247255580702218307015624   1030000600030000   554100002328315799420001235DENKO NAY PYI TAW 2    NAYPYITAW     MMR11007020730300156240702000000000000000   10300001 00104100000000011160000000000000     
100   62443100311760720000000000068600000000068600002000000010410407020859500199903368730702218308019990   1030000600030000   554100002320315799420000564DENKO PHYUU            PHYUU         MMR11007020859500199900702000000000000000   10300001 00104100000000008232000000000000     
100   62443100371022130000000000183950000000183950002000000010410407021354310020956193050702218313002095   1030000600030000   581200002191315799420001536CANTON PARADISE TC     YANGON        MMR11007021354310020950702000000000000000   10300001 00104100000000078179000000000000     
100   62443100313002190000000000070000000000070000002000000010410407020720130547220730740702218307054722   1030000600030000   554100001001315799420000498DENKO SHWE PYI THAR    YANGON        MMR11007020720130547220702000000000000000   10300001 00104100000000008400000000000000     
100   95050312781844250000000000030000000000030000002000000010410407020522240310953475680702218305031095   1030000600030000   554100000725315799420000306DENKO MDY - 78         MANDALAY      MMR11007020522240310950702000000000000000   10300001 00104100000000003600000000000000     
100   95030301100121270000000000024000000000024000002000000010410407021130570579664773800702218311057966   1030000600030000   554100001756315799420001137DENKO NORTH DAGON 2    YANGON        MMR11007021130570579660702000000000000000   10300001 00104100000000000720000000000000     
100   95050312940629360000000000015400000000015400002000000010410407040628320000983671100704000353623339   1030000300030000   541100000448000000000000319CB BANK                ONESTOP KITCH MMR11007040628320000980704000000000000000   10300001F00104100000000003850000000000000     
100   95050315144611650000000000007150000000007150002000000010410407040239160000997186630704000353586182   1030000300030000   591200000169000000000000084CB BANK                MEDICARE STOR MMR11007040239160000990704000000000000000   10300001F00104100000000001716000000000000     
100   62911028202470870000000000006500000000006500002000000010410407040541170001444773800704218512000144   1030000500030000   573220039601000065732200396REMAX                  PTN           MMR11007040541170001440704000000000000000   10300001 00104100000000000390000000000000     
100   62911028202709150000000000001300000000001300002000000010410407040556590000284773800704218512000028   1030000500030000   591220014101014405912200141SHWE OHH PHARMACY      PTN           MMR11007040556590000280704000000000000000   10300001 00104100000000000078000000000000     
100   95050313970192050000000000007350000000007350002000000010410407040216150001733165230704218508000173   1030000500030000   541120232801000045411202328CITY EXPRESS (MCS - 34 PTN           MMR11007040216150001730704000000000000000   10300001 00104100000000001838000000000000     
100   62911028202147720000000000040000000000040000002000000010410407040024590003424773800704218506000342   1030000500030000   598320001603000015172200016MAX ENERGY             PTN           MMR11007040024590003420704000000000000000   10300001 00104100000000001200000000000000     
100   95050326511614440000000000043497000000043497002000000010410407041144000001541955380704000353673665   1030000300030000   541100001626000000000001151CB BANK                ONE STOP SUPE MMR11007041144000001540704000000000000000   10300001F00104100000000010875000000000000     
100   95050324947866880000000000009100000000009100002000000010410407040628110002785408680704000353623281   1030000300030000   581200001490000000000001036CB BANK                YKKO (ST. JOH MMR11007040628110002780704000000000000000   10300001F00104100000000003868000000000000     
100   62911028202792960000000000005000000000005000002000000010410407040412280004574773800704218510000457   1030000500030000   541120227608000045411202276CITY MART ( 47 BRANCH  PTN           MMR11007040412280004570704000000000000000   10300001 00104100000000000300000000000000     
100   95050329252108030000000000025796000000025796002000000010410407041421590002287643050704218520000228   1030000500030000   598320041901000055983200419MAX ENERGY             PTN           MMR11007041421590002280704000000000000000   10300001 00104100000000003096000000000000     
100   62911028202440680000000000030200000000030200002000000010410407041404410000914773800704218520000091   1030000500030000   581220204101000085812202041MIN LAN                PTN           MMR11007041404410000910704000000000000000   10300001 00104100000000003080000000000000     
100   95030301100134480000000000007400000000007400002000000010410407040830300000984773800704000353643200   1030000300030000   541100002261000000000001529CB BANK                G & G CONVENI MMR11007040830300000980704000000000000000   10300001F00104100000000000444000000000000     
100   62911028202169750000000000033000000000033000002000000010410407040908250002914773800704218515000291   1030000500030000   598320068301000055983200683MAX ENERGY             PTN           MMR11007040908250002910704000000000000000   10300001 00104100000000000990000000000000     
100   62911028202690570000000000021000000000021000002000000010410407041022100001894773800704218510000189   1030000600030000   554100002412315799420001682MMTM TAMWE             YANGON        MMR11007041022100001890704000000000000000   10300001 00104100000000000630000000000000     
100   62911028202790310000000000061000000000061000002000000010410407040314560003404773800704218509000340   1030000500030000   598320001601000015172200016MAX ENERGY             PTN           MMR11007040314560003400704000000000000000   10300001 00104100000000001830000000000000     
100   95050315158357300000000000004500000000004500002000000010410407040243040001000491600704000353586743   1030000300030000   591200000169000000000000084CB BANK                MEDICARE STOR MMR11007040243040001000704000000000000000   10300001F00104100000000001080000000000000     
100   95030317922148660000000000440500000000440500002000000010410407040348500002564773800704000353596519   1030000300030000   701100002942000000000002044CB BANK                WINNER INN    MMR11007040348500002560704000000000000000   10300001F00104100000000044931000000000000     
100   95050314995854750000000000011700000000011700002000000010410407040601310002845287930704000353618636   1030000300030000   581400000690000000000000476CB BANK                KFC SAN PYA   MMR11007040601310002840704000000000000000   10300001F00104100000000001404000000000000     
100   62911028202220490000000000091000000000091000002000000010410407040714490003824773800704218513000382   1030000500030000   598320001604000015172200016MAX ENERGY             PTN           MMR11007040714490003820704000000000000000   10300001 00104100000000002730000000000000     
100   95030308100042590000000000147000000000147000002000000010410407041129140002514773800704218517000251   1030000500030000   598320001701000015172200017MAX ENERGY             PTN           MMR11007041129140002510704000000000000000   10300001 00104100000000004410000000000000     
100   62911028202142850000000000049350000000049350002000000010410407040551330001904773800704218512000190   1030000500030000   541120020701022205411200207ORANGE (YDG)           PTN           MMR11007040551330001900704000000000000000   10300001 00104100000000002961000000000000     
100   62911028202690570000000000038500000000038500002000000010410407040953380001204773800704218516000120   1030000500030000   503920036606000015039200366PRO-1 HOME CENTER      PTN           MMR11007040953380001200704000000000000000   10300001 00104100000000002310000000000000     
100   62911028202690570000000000030900000000030900002000000010410407040331150005404773800704218510000540   1030000500030000   598320001001000015172200010MAX ENERGY             PTN           MMR11007040331150005400704000000000000000   10300001 00104100000000000927000000000000     
100   62443100379321630000000000058000000000058000002000000010410407040855060004394749770704218515000439   1030000500030000   598320002103000015172200021MAX ENERGY             PTN           MMR11007040855060004390704000000000000000   10300001 00104100000000006960000000000000     
100   62443100379321630000000000055000000000055000002000000010410407040949230055032076130704000353655778   1030000300030000   598300001210000000000000817CB BANK                SHWE TAUNG EN MMR11007040949230055030704000000000000000   10300001F00104100000000006600000000000000     
100   95030305700676370000000000077000000000077000002000000010410407041133530036454773800704218511003645   1030000600030000   554100001228315799420000682DENKO MEIKHTILAR       MEIKHTILAR.   MMR11007041133530036450704000000000000000   10300001 00104100000000002310000000000000     
100   62911028202151910000000000036850000000036850002000000010410407041028560028254773800704218510002825   1030000600030000   581200001874315799420001244BLACK CANYON TC        KAMARYUT      MMR11007041028560028250704000000000000000   10300001 00104100000000003759000000000000     
100   95050324622440820000000000012800000000012800002000000010410407041333550083522770690704218513008352   1030000600030000   549900002153315799420001502EASY MART- 003         YANGON        MMR11007041333550083520704000000000000000   10300001 00104100000000005440000000000000     
100   62911028202231380000000000039074000000039074002000000010410407040820470007054773800704218514000705   1030000500030000   598320001204000015172200012MAX ENERGY             PTN           MMR11007040820470007050704000000000000000   10300001 00104100000000001172000000000000     
100   95050329888918380000000000060234000000060234002000000010410407040944070005532161230704000353654907   1030000300030000   541100000444000000000000319CB BANK                ONESTOP KITCH MMR11007040944070005530704000000000000000   10300001F00104100000000015059000000000000     
100   62911028202112400000000000022000000000022000002000000010410407040640460005744773800704218513000574   1030000500030000   598320001202000015172200012MAX ENERGY             PTN           MMR11007040640460005740704000000000000000   10300001 00104100000000000660000000000000     
100   62443100371022130000000000034000000000034000002000000010410407041221440006958153620704218518000695   1030000500030000   598320001302000015172200013MAX ENERGY             PTN           MMR11007041221440006950704000000000000000   10300001 00104100000000004080000000000000     
100   95030317922148660000000000049500000000049500002000000010410407040737030003984773800704000353634671   1030000300030000   581200001862000000000001334CB BANK                CAFE SALWEEN  MMR11007040737030003980704000000000000000   10300001F00104100000000005049000000000000     
100   62443100387665370000000000013791000000013791002000000010410407041211520015508480220704218518001550   1030000500030000   541120227604000045411202276CITY MART ( 47 BRANCH  PTN           MMR11007041211520015500704000000000000000   10300001 00104100000000003448000000000000     
100   95030340340746190000000000040450000000040450002000000010410407040434490005674773800704218511000567   1030000500030000   541120229003000045411202290CITY MART SUPERMARKET  PTN           MMR11007040434490005670704000000000000000   10300001 00104100000000002427000000000000     
100   62443100333488440000000000027000000000027000002000000010410407040855060007469707220704218515000746   1030000500030000   598320001304000015172200013MAX ENERGY             PTN           MMR11007040855060007460704000000000000000   10300001 00104100000000003240000000000000     
100   62911028202237810000000000044572000000044572002000000010410407041029010012664773800704218516001266   1030000500030000   531120226320000045311202263OCEAN SUPER CENTER STJ PTN           MMR11007041029010012660704000000000000000   10300001 00104100000000002674000000000000     
100   95050328243669610000000000060000000000060000002000000010410407040147030004112179740704218508000411   1030000500030000   598320002104000015172200021MAX ENERGY             PTN           MMR11007040147030004110704000000000000000   10300001 00104100000000007200000000000000     
100   95050326750398570000000000018224000000018224002000000010410407041101400010380728380704218517001038   1030000500030000   531120226725000045311202267OCEAN NORTH POINT      PTN           MMR11007041101400010380704000000000000000   10300001 00104100000000004374000000000000     
100   95050328074436620000000000056000000000056000002000000010410407041049020007626026210704218517000762   1030000500030000   598320001201000015172200012MAX ENERGY             PTN           MMR11007041049020007620704000000000000000   10300001 00104100000000006720000000000000     
100   62911028202197630000000000009000000000009000002000000010410407040801300269724773800704218508026972   1030000600030000   554100002319315799420000477DENKO INSEIN           YANGON        MMR11007040801300269720704000000000000000   10300001 00104100000000000270000000000000     
100   62911028202423360000000000030000000000030000002000000010410407040357020834544773800704218503083454   1030000600030000   554100000955315799420000477DENKO INSEIN           YANGON        MMR11007040357020834540704000000000000000   10300001 00104100000000000900000000000000     
100   62911028202136750000000000047000000000047000002000000010410407040831170549724773800704218508054972   1030000600030000   554100001001315799420000498DENKO SHWE PYI THAR    YANGON        MMR11007040831170549720704000000000000000   10300001 00104100000000001410000000000000     
100   62911028202709150000000000052000000000052000002000000010410407040939560560684773800704218509056068   1030000600030000   554100000969315799420000481DENKO NORTH OKKALAPA   YANGON        MMR11007040939560560680704000000000000000   10300001 00104100000000001560000000000000     
100   95050317003064220000000000000990000000000990002000000010410407041631580158992260110704000007441183   1020000200030000   333400010001204104000000281Myanmar Soft-Gate Tech Yangon        MMR11007041631580158990704000000000000000   10300001F05104100000000000208000000000000     
100   95030378062733680000000000030000000000030000002000000010410407040907195190894773800704218516519089   1040001600030000   598320000326000000010000314PT Power Petrol Statio Nay Pyi Taw   MMR11007040907195190890704000000000000000   10300001F00104100000000000900000000000000     
100   62443101053241940000000000046000000000046000002000000010410407040318180318165342090704218503031816   1030000600030000   554100002085315799420000471DENKO BAHAN            YANGON        MMR11007040318180318160704000000000000000   10300001 00104100000000005520000000000000     
100   95050322083768590000000000029150000000029150002000000010410407030425580024294930400703218404002429   1030000600030000   549900002155315799420001504EASY MART- 025         YANGON        MMR11007030425580024290703000000000000000   10300001 00104100000000012389000000000000     
100   62911028202530930000000000187150000000187150002000000010410407031306020066794773800703218413006679   1030000600030000   581200000719315799420000302BEAUTY IN THE POT      YANGON        MMR11007031306020066790703000000000000000   10300001 00104100000000019089000000000000     
100   62911028202281450000000000055150000000055150002000000010410407051102506004694773800705218618600469   1040001600030000   591220000287000000010000275Shwe Ohh Pharmacy (Wit Yangon        MMR11007051102506004690705000000000000000   10300001F00104100000000003309000000000000     
100   95050320205194540000000000017000000000017000002000000010410407051126486028693637800705218618602869   1040001600030000   591220000292000000010000280Shwe Ohh Pharmacy (Cha Yangon        MMR11007051126486028690705000000000000000   10300001F00104100000000004080000000000000     
100   95050321237170130000000000015100000000015100002000000010410407051200050184414949900705944301805185   1030000900030000   541119001355190110000000977Ocean PZD C9           YANGONAUNG    MMR11007051200050184410705000000000000000   10300001F00104100000000003775000000000000     
100   95050321237170130000000000011700000000011700002000000010410407051245580197891559830705733151958185   1030000900030000   541119001349190110000000977Ocean PZD C 3          YANGONAUNG    MMR11007051245580197890705000000000000000   10300001F00104100000000002925000000000000     
100   95050314557307430000000000003960000000003960002000000010410407050600323032755877890705000007443605   1020000200030000   333400010001204104000000281Myanmar Soft-Gate Tech Yangon        MMR11007050600323032750705000000000000000   10300001F05104100000000000832000000000000     
100   62911028202910770000000000060000000000060000002000000010410407051424395439134773800705000007446670   1030000200030000   333800010001203104000003327KBZPay                 Yangon        MMR11007051424395439130705000000000000000   10300001F05104100000000012600000000000000     
100   62911028202336730000000000017000000000017000002000000010410407051557112711264773800705000007446966   1030000200030000   333800010001203104000003327KBZPay                 Yangon        MMR11007051557112711260705000000000000000   10300001F05104100000000003570000000000000     
100   95050316769671810000000000000990000000000990002000000010410407051603553355595921610705000007446981   1020000200030000   333400010001204104000000281Myanmar Soft-Gate Tech Yangon        MMR11007051603553355590705000000000000000   10300001F05104100000000000208000000000000     
100   95050316997303010000000000050000000000050000002000000010410407051520235023156006710705000007446867   1030000200030000   333800010001203104000003327KBZPay                 Yangon        MMR11007051520235023150705000000000000000   10300001F05104100000000010500000000000000     
100   95050317071956460000000000009900000000009900002000000010410407050217234723011252740705000007441845   1020000200030000   333400010001204104000000281Myanmar Soft-Gate Tech Yangon        MMR11007050217234723010705000000000000000   10300001F05104100000000002079000000000000     
100   95050312240830690000000000002970000000002970002000000010410407051413424342516517290705000007446623   1020000200030000   333400010001204104000000281Myanmar Soft-Gate Tech Yangon        MMR11007051413424342510705000000000000000   10300001F05104100000000000624000000000000     
100   62443100323117100000000000080000000000080000002000000010410407050123225322783572210705000007441653   1030000200030000   333800010001203104000003327KBZPay                 Yangon        MMR11007050123225322780705000000000000000   10300001F05104100000000016800000000000000     
100   95050318601641810000000000000990000000000990002000000010410407050929095909439857910705000007445255   1020000200030000   333400010001204104000000281Myanmar Soft-Gate Tech Yangon        MMR11007050929095909430705000000000000000   10300001F05104100000000000208000000000000     
100   95050311382087030000000000001980000000001980002000000010410407050402433243549885490705000007442674   1020000200030000   333400010001204104000000281Myanmar Soft-Gate Tech Yangon        MMR11007050402433243540705000000000000000   10300001F05104100000000000416000000000000     
100   95050314979630620000000000000990000000000990002000000010410407050715494549514771640705000007444159   1020000200030000   333400010001204104000000281Myanmar Soft-Gate Tech Yangon        MMR11007050715494549510705000000000000000   10300001F05104100000000000208000000000000     
100   95030301100022270000000000024000000000024000002000000010410407040041530000214773800704218507000021   1030000500030000   598320005301000015172200053MAX ENERGY             PTN           MMR11007040041530000210704000000000000000   10300001 00104100000000000720000000000000     
100   95050316736513170000000000030000000000030000002000000010410407050419344934737722430705000007442803   1030000200030000   333800010001203104000003327KBZPay                 Yangon        MMR11007050419344934730705000000000000000   10300001F05104100000000006300000000000000     
100   95050324247403260000000000093500000000093500002000000010410407050336235739272474030705218610573927   1040001600030000   569920000595000000010000470BOSSINI (Junction 8)   Yangon        MMR11007050336235739270705000000000000000   10300001F00104100000000022440000000000000     
100   95050316638224720000000000002970000000002970002000000010410407050625465546167360180705000007443773   1020000200030000   333400010001204104000000281Myanmar Soft-Gate Tech Yangon        MMR11007050625465546160705000000000000000   10300001F05104100000000000624000000000000     
100   95050312946679160000000000060000000000060000002000000010410407050825465546193679170705000007444750   1030000200030000   333800010001203104000003327KBZPay                 Yangon        MMR11007050825465546190705000000000000000   10300001F05104100000000012600000000000000     
100   95050318601641810000000000001980000000001980002000000010410407050923275327267779940705000007445211   1020000200030000   333400010001204104000000281Myanmar Soft-Gate Tech Yangon        MMR11007050923275327260705000000000000000   10300001F05104100000000000416000000000000     
100   95050312498129060000000000000990000000000990002000000010410407050115544554668529660705000007441632   1020000200030000   333400010001204104000000281Myanmar Soft-Gate Tech Yangon        MMR11007050115544554660705000000000000000   10300001F05104100000000000208000000000000     
100   95050313123223200000000000008700000000008700002000000010410407050926105926192822500705218616592619   1040001600030000   591220000295000000010000283Shwe Ohh Pharmacy (39t Yangon        MMR11007050926105926190705000000000000000   10300001F00104100000000002088000000000000     
100   62911028202156540000000000064650000000064650002000000010410407051045255988034773800705218617598803   1040001600030000   591220000258000000010000246Shwe Ohh Pharmacy (Sin Yangon        MMR11007051045255988030705000000000000000   10300001F00104100000000003879000000000000     
100   95050314302558730000000000004950000000004950002000000010410407051624355435720964160705000007447041   1020000200030000   333400010001204104000000281Myanmar Soft-Gate Tech Yangon        MMR11007051624355435720705000000000000000   10300001F05104100000000001040000000000000     
100   95050326948926900000000000100000000000100000002000000010410407051004073407586042370705000007445505   1030000200030000   333800010001203104000003327KBZPay                 Yangon        MMR11007051004073407580705000000000000000   10300001F05104100000000021000000000000000     
100   95050316769671810000000000000990000000000990002000000010410407050409463946889289810705000007442728   1020000200030000   333400010001204104000000281Myanmar Soft-Gate Tech Yangon        MMR11007050409463946880705000000000000000   10300001F05104100000000000208000000000000     
100   62911028202530930000000000040078000000040078002000000010410407040408370077664773800704218504007766   1030000600030000   581200001904315799420001274SIGNATURE FINEDINING 2 BAHAN         MMR11007040408370077660704000000000000000   10300001 00104100000000004088000000000000     
100   95030390626214130000000000049000000000049000002000000010410407021037280186834773800702218310018683   1030000600030000   554100002324315799420000481DENKO NORTH OKKALAPA   YANGON        MMR11007021037280186830702000000000000000   10300001 00104100000000001470000000000000     
100   95050311587250810000000000009700000000009700002000000010410407041132085310246657550704218518531024   1040001600030000   541120000555000000010000465Ocean Shwe Gone Daing  Yangon        MMR11007041132085310240704000000000000000   10300001F00104100000000002425000000000000     
100   62443100378093870000000000049900000000049900002000000010410407020921020021491035470702218309002149   1030000600030000   569100000514315799420000134RENE MYANMAR CM        YANGON        MMR11007020921020021490702000000000000000   10300001 00104100000000011976000000000000     
100   62911028202441420000000000006500000000006500002000000010410407050910430128104773800705565401543185   1030000900030000   541119001219190110000000945City Mart TM C 4       YANGONONE     MMR11007050910430128100705000000000000000   10300001F00104100000000000390000000000000     
100   62911028202448030000000000150000000000150000002000000010410407040636050006764773800704218513000676   1030000500030000   598320001204000015172200012MAX ENERGY             PTN           MMR11007040636050006760704000000000000000   10300001 00104100000000004500000000000000     
100   95030308100042590000000000534450000000534450002000000010410407040832370000184773800704218515000018   1030000500030000   503920054001005505039200540NAY LA CONSTRUCTION MA PTN           MMR11007040832370000180704000000000000000   10300001 00104100000000032067000000000000     
100   62443100300743690000000000035000000000035000002000000010410407031156580001604773990703218411000160   1030000600030000   554100002412315799420001682MMTM TAMWE             YANGON        MMR11007031156580001600703000000000000000   10300001 00104100000000004200000000000000     
100   95050324850150480000000000080000000000080000002000000010410407040354420233785797510704218503023378   1030000600030000   554100001212315799420000664DENKO TA TAR OO        TA TAR OO     MMR11007040354420233780704000000000000000   10300001 00104100000000009600000000000000     
100   95050326228858240000000000074728000000074728002000000010410407030122470078612391300703218401007861   1030000600030000   581200001905315799420001275SIGNATURE FINEDINING 3 BAHAN         MMR11007030122470078610703000000000000000   10300001 00104100000000031760000000000000     
