100   95050322957045260000000000020000000000020000002000000010410407051840161016840879070706000007447212   1030000200030000   3338000100012031040000040022C2P (Myanmar) Co. Ltd Yangon        MMR11007051840161016840706000000000000000   10300001F05104100000000004200000000000000     
100   95050319974529540000000000020000000000020000002000000010410407061447031703220354470706000007452699   1030000200030000   333800010001203104000003327KBZPay                 Yangon        MMR11007061447031703220706000000000000000   10300001F05104100000000004200000000000000     
100   62911028202498100000000001317214000001317214002000000010410407061106363636404773800706000007451793   1010000100030000   333500010001205104000000364Internal Revenue Depar Yangon        MMR11007061106363636400706000000000000000   10300001F05104100000000060000000000000000     
100   95050311736839760000000000000990000000000990002000000010410407060405563556478694140706000007448495   1020000200030000   333400010001204104000000281Myanmar Soft-Gate Tech Yangon        MMR11007060405563556470706000000000000000   10300001F05104100000000000208000000000000     
100   95050318131043910000000000000990000000000990002000000010410407061046171617934071130706000007451682   1020000200030000   333400010001204104000000281Myanmar Soft-Gate Tech Yangon        MMR11007061046171617930706000000000000000   10300001F05104100000000000208000000000000     
100   95050315796541830000000000001000000000001000002000000010410407060239210921521864570706000007447835   1030000200030000   333800010001203104000003327KBZPay                 Yangon        MMR11007060239210921520706000000000000000   10300001F05104100000000000210000000000000     
100   95050310332595380000000000000990000000000990002000000010410407060957112711331191650706000007451354   1020000200030000   333400010001204104000000281Myanmar Soft-Gate Tech Yangon        MMR11007060957112711330706000000000000000   10300001F05104100000000000208000000000000     
100   95050325630928770000000000000990000000000990002000000010410407061039490949891276750706000007451646   1020000200030000   333400010001204104000000281Myanmar Soft-Gate Tech Yangon        MMR11007061039490949890706000000000000000   10300001F05104100000000000208000000000000     
100   62911028202471860000000000048600000000048600002000000010410407060412026487014773800706218711648701   1040001600030000   591220000278000000010000266Shwe Ohh Pharmacy (Bah Yangon        MMR11007060412026487010706000000000000000   10300001F00104100000000002916000000000000     
100   95050316818236190000000000000990000000000990002000000010410407061311254125220099190706000007452243   1020000200030000   333400010001204104000000281Myanmar Soft-Gate Tech Yangon        MMR11007061311254125220706000000000000000   10300001F05104100000000000208000000000000     
100   95050315199558640000000000010600000000010600002000000010410407060945596675829879550706218716667582   1040001600030000   591220000300000000010000288Shwe Ohh Pharmacy (Daw Yangon        MMR11007060945596675820706000000000000000   10300001F00104100000000002544000000000000     
100   95050315144611650000000000015000000000015000002000000010410407060802173217341567690706000007450424   1030000200030000   333800010001203104000003327KBZPay                 Yangon        MMR11007060802173217340706000000000000000   10300001F05104100000000003150000000000000     
100   95050320360851930000000000000990000000000990002000000010410407060826155615537837240706000007450597   1020000200030000   333400010001204104000000281Myanmar Soft-Gate Tech Yangon        MMR11007060826155615530706000000000000000   10300001F05104100000000000208000000000000     
100   62911028202451150000000000033140000000033140002000000010410407060248356448304773800706218709644830   1040001600030000   598320001127000000010000608Terminal Petrol Statio Yangon        MMR11007060248356448300706000000000000000   10300001F00104100000000000994000000000000     
100   62443100318296470000000000052650000000052650002000000010410407061000366685597801580706218717668559   1040001600030000   591220000299000000010000287Shwe Ohh Pharmacy (Yan Yangon        MMR11007061000366685590706000000000000000   10300001F00104100000000012636000000000000     
100   62911028202175690000000000061250000000061250002000000010410407061221149599104773800706511451637885   1040001400030000   555610000600025556100003510119 Store null No-119  Anawrahta Roa MMR11007061221149599100706000000000000000   10300001 00104100000000003675000000000000     
100   95050316601084530000000000000990000000000990002000000010410407061012224222671021460706000007451466   1020000200030000   333400010001204104000000281Myanmar Soft-Gate Tech Yangon        MMR11007061012224222670706000000000000000   10300001F05104100000000000208000000000000     
100   95050312695033440000000000001980000000001980002000000010410407060512534253146445980706000007449084   1020000200030000   333400010001204104000000281Myanmar Soft-Gate Tech Yangon        MMR11007060512534253140706000000000000000   10300001F05104100000000000416000000000000     
100   95050314557307430000000000004950000000004950002000000010410407060412174217479034520706000007448556   1020000200030000   333400010001204104000000281Myanmar Soft-Gate Tech Yangon        MMR11007060412174217470706000000000000000   10300001F05104100000000001040000000000000     
100   95050311959900780000000000000990000000000990002000000010410407061328565856241666570706000007452329   1020000200030000   333400010001204104000000281Myanmar Soft-Gate Tech Yangon        MMR11007061328565856240706000000000000000   10300001F05104100000000000208000000000000     
100   62443100315110470000000000055100000000055100002000000010410407010351370000042308560701218210000004   1030000500030000   806220052401000018062200524RIGHT HEALTH CARE CO.  PTN           MMR11007010351370000040701000000000000000   10300001 00104100000000013224000000000000     
100   95050315445638160000000000090000000000090000002000000010410407061213364336154170020706000007452027   1030000200030000   333800010001203104000003327KBZPay                 Yangon        MMR11007061213364336150706000000000000000   10300001F05104100000000018900000000000000     
100   95050316997303010000000000100000000000100000002000000010410407060927115711703950390706000007451064   1030000200030000   333800010001203104000003327KBZPay                 Yangon        MMR11007060927115711700706000000000000000   10300001F05104100000000021000000000000000     
100   62911028202440680000000000005600000000005600002000000010410407061021070110804773800706000749652942   1030000200030000   541188001088000008000000294KBZ BANK               CITY MART - J MMR11007061021070110800706000000000000000   10300001 00104100000000000336000000000000     
100   95030363090756500000000000020000000000020000002000000010410407050409520007134773800705000353787661   1030000300030000   598300001213000000000000820CB BANK                SHWE TAUNG EN MMR11007050409520007130705000000000000000   10300001F00104100000000000600000000000000     
100   62911028202204490000000000039000000000039000002000000010410407050214200007834773800705218608000783   1030000500030000   598320001204000015172200012MAX ENERGY             PTN           MMR11007050214200007830705000000000000000   10300001 00104100000000001170000000000000     
100   62911028202233510000000000019150000000019150002000000010410407050936190000494773800705218616000049   1030000500030000   591220013001014405912200130SHWE OHH PHARMACY      PTN           MMR11007050936190000490705000000000000000   10300001 00104100000000001149000000000000     
100   95050315955808830000000000030000000000030000002000000010410407050518520005830991740705218611000583   1030000500030000   598320001103000015172200011MAX ENERGY             PTN           MMR11007050518520005830705000000000000000   10300001 00104100000000003600000000000000     
100   62911028202126850000000000055000000000055000002000000010410407050209160008284773800705218608000828   1030000500030000   598320001201000015172200012MAX ENERGY             PTN           MMR11007050209160008280705000000000000000   10300001 00104100000000001650000000000000     
100   62443100369813440000000000020000000000020000002000000010410407050201460007903245620705218608000790   1030000500030000   598320001304000015172200013MAX ENERGY             PTN           MMR11007050201460007900705000000000000000   10300001 00104100000000002400000000000000     
100   62911028202198620000000002000000000002000000002000000010410407051014310000324773800705218616000032   1030000500030000   594420057601007805944200576GOLD BLISS             PTN           MMR11007051014310000320705000000000000000   10300001 00104100000000120000000000000000     
100   62911028202103410000000000063900000000063900002000000010410407050720040001534773800705218613000153   1030000500030000   591220132901008605912201329THEIK DI WIN SHOP      PTN           MMR11007050720040001530705000000000000000   10300001 00104100000000003834000000000000     
100   62443100330108240000000000000990000000000990002000000010410407060737170717503730750706000007450224   1020000200030000   333400010001204104000000281Myanmar Soft-Gate Tech Yangon        MMR11007060737170717500706000000000000000   10300001F05104100000000000208000000000000     
100   95050313411345710000000000002970000000002970002000000010410407061323195319600014090706000007452296   1020000200030000   333400010001204104000000281Myanmar Soft-Gate Tech Yangon        MMR11007061323195319600706000000000000000   10300001F05104100000000000624000000000000     
100   95050310427855490000000000002970000000002970002000000010410407061422285228333319060706000007452580   1020000200030000   333400010001204104000000281Myanmar Soft-Gate Tech Yangon        MMR11007061422285228330706000000000000000   10300001F05104100000000000624000000000000     
100   62911028202308280000000000039250000000039250002000000010410407061219076820794773800706218719682079   1040001600030000   591220000295000000010000283Shwe Ohh Pharmacy (39t Yangon        MMR11007061219076820790706000000000000000   10300001F00104100000000002355000000000000     
100   95050312728902740000000000060000000000060000002000000010410407061013264326892673940706000007451478   1030000200030000   333800010001203104000003327KBZPay                 Yangon        MMR11007061013264326890706000000000000000   10300001F05104100000000012600000000000000     
100   62911028202161240000000000055986000000055986002000000010410407061048260117364773800706000749655666   1030000200030000   541188001022000008000000298KBZ BANK               CITY MART - M MMR11007061048260117360706000000000000000   10300001 00104100000000003359000000000000     
100   95050320360851930000000000000990000000000990002000000010410407060829135913677241560706000007450617   1020000200030000   333400010001204104000000281Myanmar Soft-Gate Tech Yangon        MMR11007060829135913670706000000000000000   10300001F05104100000000000208000000000000     
100   95030301100081330000000000068000000000068000002000000010410407060945226675444773800706218716667544   1040001600030000   598320000660000000010000529Shwe Taung Energy (NPT Naypyitaw     MMR11007060945226675440706000000000000000   10300001F00104100000000002040000000000000     
100   95050323282717740000000000020000000000020000002000000010410407050325540003255523710705218609000325   1030000500030000   598320068301000055983200683MAX ENERGY             PTN           MMR11007050325540003250705000000000000000   10300001 00104100000000002400000000000000     
100   62443100372718280000000000027614000000027614002000000010410407050909330005776473560705000353839399   1030000300030000   598300001209000000000000817CB BANK                SHWE TAUNG EN MMR11007050909330005770705000000000000000   10300001F00104100000000003314000000000000     
100   62911028202687370000000000032750000000032750002000000010410407050622430000344773800705218612000034   1030000500030000   531120155710000045311201557GAMONE PWINT           PTN           MMR11007050622430000340705000000000000000   10300001 00104100000000001965000000000000     
100   62911028202541660000000000031500000000031500002000000010410407050353470003844773800705218610000384   1030000500030000   503920036611000015039200366PRO-1 HOME CENTER      PTN           MMR11007050353470003840705000000000000000   10300001 00104100000000001890000000000000     
100   62911028202198620000000000500000000000500000002000000010410407051027160000384773800705218616000038   1030000500030000   594420057601007805944200576GOLD BLISS             PTN           MMR11007051027160000380705000000000000000   10300001 00104100000000030000000000000000     
100   95030310098554020000000000098360000000098360002000000010410407051003040003664773800705000353848173   1030000300030000   806200000193000000000000097CB BANK                AUNG YADANA H MMR11007051003040003660705000000000000000   10300001F00104100000000005902000000000000     
100   62911028202789750000000000275000000000275000002000000010410407050952310000374773800705218616000037   1030000500030000   597320167701000045973201677ZAWTIKA (KYIMYINDAING) PTN           MMR11007050952310000370705000000000000000   10300001 00104100000000016500000000000000     
100   95050328384000040000000000008200000000008200002000000010410407050640370001876594310705218613000187   1030000500030000   541120226415000045411202264MARKET PLACE MYANMARPL PTN           MMR11007050640370001870705000000000000000   10300001 00104100000000002050000000000000     
100   95050324133333980000000000034000000000034000002000000010410407060932056666515517770706218716666651   1040001600030000   594020001226000000010000933Giant Myanmar          Ygn           MMR11007060932056666510706000000000000000   10300001F00104100000000008160000000000000     
100   95050326583352640000000000067800000000067800002000000010410407051256190008849907350705218619000884   1030000500030000   531120231228000045311202312OCEAN OATTARA THIRI    PTN           MMR11007051256190008840705000000000000000   10300001 00104100000000016272000000000000     
100   95050313817486860000000000004950000000004950002000000010410407060825265526669489720706000007450591   1020000200030000   333400010001204104000000281Myanmar Soft-Gate Tech Yangon        MMR11007060825265526660706000000000000000   10300001F05104100000000001040000000000000     
100   95030331386331890000000000030000000000030000002000000010410407051630030003894773800705000007447048   1030000200030000   333800010001203104000003327KBZPay                 Yangon        MMR11007051630030003890705000000000000000   10300001F05104100000000006300000000000000     
100   62443100315110470000000000500000000000500000002000000010410407060905106072598737650706351030443173   1040001400030000   806210000093028062100000766Yoma OUE Pun Hlaing Ho pital  Yoma O MMR11007060905106072590706000000000000000   10300001 00104100000000120000000000000000     
100   95050324154190880000000000044900000000044900002000000010410407060905126650260390130706218716665026   1040001600030000   591220000293000000010000281Shwe Ohh Pharmacy (Pea Yangon        MMR11007060905126650260706000000000000000   10300001F00104100000000010776000000000000     
100   95050317003048070000000000100000000000100000002000000010410407060213214321992106070706000007447669   1030000200030000   333800010001203104000003327KBZPay                 Yangon        MMR11007060213214321990706000000000000000   10300001F05104100000000021000000000000000     
100   62443100376865460000000000050000000000050000002000000010410407051055320008046772580705218617000804   1030000500030000   598320001403000015172200014MAX ENERGY             PTN           MMR11007051055320008040705000000000000000   10300001 00104100000000006000000000000000     
100   62911028202045260000000000024900000000024900002000000010410407051131530004194773800705218618000419   1030000500030000   541120229201000045411202292CITY EXPRESS (MCS - 07 PTN           MMR11007051131530004190705000000000000000   10300001 00104100000000001494000000000000     
100   62911028202464020000000000004700000000004700002000000010410407050937390009594773800705218616000959   1030000500030000   541120203705000015411202037CITY MART SUPERMARKET  PTN           MMR11007050937390009590705000000000000000   10300001 00104100000000000282000000000000     
100   95050326583352640000000000108120000000108120002000000010410407051250490009298254870705218619000929   1030000500030000   531120231223000045311202312OCEAN OATTARA THIRI    PTN           MMR11007051250490009290705000000000000000   10300001 00104100000000025949000000000000     
100   62443100328070970000000000063140000000063140002000000010410407051129420014888084680705218617001488   1030000500030000   531120226307000045311202263OCEAN SUPER CENTER STJ PTN           MMR11007051129420014880705000000000000000   10300001 00104100000000015154000000000000     
100   62443100328070970000000000024540000000024540002000000010410407051046110013103794210705218617001310   1030000500030000   531120226326000045311202263OCEAN SUPER CENTER STJ PTN           MMR11007051046110013100705000000000000000   10300001 00104100000000005890000000000000     
100   95050319207947610000000000016900000000016900002000000010410407051230160026216602390705000353869973   1030000300030000   541100000217000000000000113CB BANK                ONESTOP KITCH MMR11007051230160026210705000000000000000   10300001F00104100000000004225000000000000     
100   95030320529939180000000000011050000000011050002000000010410407050843180009564773800705218615000956   1030000500030000   541120229108000045411202291CITY MART YANKIN       PTN           MMR11007050843180009560705000000000000000   10300001 00104100000000000663000000000000     
100   95050317043153610000000000007700000000007700002000000010410407051149170035872957030705000353864433   1030000300030000   729800001742000000000001247CB BANK                ART & T8      MMR11007051149170035870705000000000000000   10300001F00104100000000001848000000000000     
100   95050312498129060000000000004950000000004950002000000010410407061314334433351751670706000007452259   1020000200030000   333400010001204104000000281Myanmar Soft-Gate Tech Yangon        MMR11007061314334433350706000000000000000   10300001F05104100000000001040000000000000     
100   95050325646370920000000000010000000000010000002000000010410407060312454245548134120706000007448051   1030000200030000   333800010001203104000003327KBZPay                 Yangon        MMR11007060312454245540706000000000000000   10300001F05104100000000002100000000000000     
100   62443100317500820000000000050000000000050000002000000010410407060810154015759319530706000007450488   1030000200030000   333800010001203104000003327KBZPay                 Yangon        MMR11007060810154015750706000000000000000   10300001F05104100000000010500000000000000     
100   95050324104751500000000000084100000000084100002000000010410407061215126816545822500706218719681654   1040001600030000   591220000285000000010000273Shwe Ohh Pharmacy (47t Yangon        MMR11007061215126816540706000000000000000   10300001F00104100000000020184000000000000     
100   95050314307746340000000000000990000000000990002000000010410407060307513751019956800706000007447994   1020000200030000   333400010001204104000000281Myanmar Soft-Gate Tech Yangon        MMR11007060307513751010706000000000000000   10300001F05104100000000000208000000000000     
100   62911028202366010000000000081000000000081000002000000010410407050438140413524773800705218604041352   1030000600030000   554100001865315799420001235DENKO NAY PYI TAW 2    NAYPYITAW     MMR11007050438140413520705000000000000000   10300001 00104100000000002430000000000000     
100   62911028202212490000000000003500000000003500002000000010410407060952460423864773800706861221646186   1030000900030000   581219000715190110000000546Akkhaya Tea House(Dago YANGON        MMR11007060952460423860706000000000000000   10300001F00104100000000000357000000000000     
100   95050318601641810000000000008650000000008650002000000010410407061148120459053744540706791181812186   1030000900030000   541119001219190110000000945City Mart TM C 4       YANGONONE     MMR11007061148120459050706000000000000000   10300001F00104100000000002163000000000000     
100   62911028202463450000000000012700000000012700002000000010410407051118310009684773800705218617000968   1030000500030000   541120203705000015411202037CITY MART SUPERMARKET  PTN           MMR11007051118310009680705000000000000000   10300001 00104100000000000762000000000000     
100   62911028202421380000000000079000000000079000002000000010410407050429540009944773800705218610000994   1030000500030000   598320001903000015172200019MAX ENERGY             PTN           MMR11007050429540009940705000000000000000   10300001 00104100000000002370000000000000     
100   62911028202661370000000000131950000000131950002000000010410407050901570011084773800705218615001108   1030000500030000   541120226808000045411202268CITY MART WAIZAYANDA   PTN           MMR11007050901570011080705000000000000000   10300001 00104100000000007917000000000000     
100   62443100379321630000000000009200000000009200002000000010410407051054050012105120090705218617001210   1030000500030000   531120226331000045311202263OCEAN SUPER CENTER STJ PTN           MMR11007051054050012100705000000000000000   10300001 00104100000000002208000000000000     
100   95050317866508340000000000030800000000030800002000000010410407051137500017416262000705000749625864   1030000200030000   569988000786000008000004553KBZ BANK               CPT-IPANEMA   MMR11007051137500017410705000000000000000   10300001 00104100000000007392000000000000     
100   62911028202556760000000000030000000000030000002000000010410407050848030561684773800705218608056168   1030000600030000   554100000969315799420000481DENKO NORTH OKKALAPA   YANGON        MMR11007050848030561680705000000000000000   10300001 00104100000000000900000000000000     
100   95050324247403260000000000056000000000056000002000000010410407050551180550669267950705218605055066   1030000600030000   554100001001315799420000498DENKO SHWE PYI THAR    YANGON        MMR11007050551180550660705000000000000000   10300001 00104100000000006720000000000000     
100   95050313970192050000000000005200000000005200002000000010410407041311540001808323810704218519000180   1030000500030000   541120232801000045411202328CITY EXPRESS (MCS - 34 PTN           MMR11007041311540001800704000000000000000   10300001 00104100000000001300000000000000     
100   95050311077567400000000000025650000000025650002000000010410407061039360437522929230706586091736186   1030000900030000   541119000137190110000000083SeinGayHarParami Cente YANGON        MMR11007061039360437520706000000000000000   10300001F00104100000000006413000000000000     
100   95030301100338180000000000020000000000020000002000000010410407060454452445854773800706000007448938   1030000200030000   333800010001203104000003327KBZPay                 Yangon        MMR11007060454452445850706000000000000000   10300001F05104100000000004200000000000000     
100   95050312675525330000000000021000000000021000002000000010410407060154572457070538680706000007447582   1030000200030000   333800010001203104000003327KBZPay                 Yangon        MMR11007060154572457070706000000000000000   10300001F05104100000000004410000000000000     
100   62443101053241940000000000010000000000010000002000000010410407061618510244008567450706000749692175   1030000200030000   541188001017000008000000008KBZ BANK               MARKETPLACE - MMR11007061618510244000706000000000000000   10300001 00104100000000002500000000000000     
100   95050310427855490000000000000990000000000990002000000010410407061405513551468276510706000007452505   1020000200030000   333400010001204104000000281Myanmar Soft-Gate Tech Yangon        MMR11007061405513551460706000000000000000   10300001F05104100000000000208000000000000     
100   95030301100126550000000000020000000000020000002000000010410407051119490708124773800705218611070812   1030000600030000   554100000952315799420000474DENKO N.DAGON - 1      YANGON        MMR11007051119490708120705000000000000000   10300001 00104100000000000600000000000000     
100   95030301100338180000000000010000000000010000002000000010410407060237250725414773800706000007447820   1030000200030000   333800010001203104000003327KBZPay                 Yangon        MMR11007060237250725410706000000000000000   10300001F05104100000000002100000000000000     
100   95050311959900780000000000000990000000000990002000000010410407060744431443003049980706000007450297   1020000200030000   333400010001204104000000281Myanmar Soft-Gate Tech Yangon        MMR11007060744431443000706000000000000000   10300001F05104100000000000208000000000000     
100   62443100333488440000000000005700000000005700002000000010410407040909110001400678930704218515000140   1030000500030000   541120228601000045411202286CITY EXPRESS (MCS - 11 PTN           MMR11007040909110001400704000000000000000   10300001 00104100000000001425000000000000     
100   95050316818460650000000000018047000000018047002000000010410407041416020007100948010704218514000710   1030000600030000   5499000023813157994200016591 STOP S M MYIN THAR   YANGON        MMR11007041416020007100704000000000000000   10300001 00104100000000007670000000000000     
100   95030301100126550000000000042000000000042000002000000010410407041234280560974773800704218512056097   1030000600030000   554100000969315799420000481DENKO NORTH OKKALAPA   YANGON        MMR11007041234280560970704000000000000000   10300001 00104100000000001260000000000000     
100   62911028202674810000000000088383000000088383002000000010410407050707510000504773800705218613000050   1030000500030000   569120091201000015691200912GIORDANO               PTN           MMR11007050707510000500705000000000000000   10300001 00104100000000005303000000000000     
100   95030399304534290000000000048000000000048000002000000010410407060933100002604773800706000749691374   1030000200030000   596588002419000008000006468KBZ BANK               AMERICAN COLL MMR11007060933100002600706000000000000000   10300001 00104100000000002880000000000000     
100   95050319216824370000000000039100000000039100002000000010410407061603440021099964640706000749691404   1030000200030000   541188001479000008000000399KBZ BANK               OCEAN SUPERCE MMR11007061603440021090706000000000000000   10300001 00104100000000009775000000000000     
100   62443100384660050000000000113300000000113300002000000010410407061316330035466050210706000749674134   1030000200030000   541188001354000008000000395KBZ BANK               OCEAN SUPERMA MMR11007061316330035460706000000000000000   10300001 00104100000000028325000000000000     
100   62443101093150400000000000028789000000028789002000000010410407061501210142467156470706000749686082   1030000200030000   541188001002000008000000008KBZ BANK               MARKETPLACE - MMR11007061501210142460706000000000000000   10300001 00104100000000007198000000000000     
100   62911028202045260000000000043000000000043000002000000010410407060712550376684773800706336421355186   1030000900030000   541119000129190110000000082Sein Gay Har Super Cen YANGON        MMR11007060712550376680706000000000000000   10300001F00104100000000002580000000000000     
100   95050312962334280000000000000990000000000990002000000010410407060152342234539396780706000007447572   1020000200030000   333400010001204104000000281Myanmar Soft-Gate Tech Yangon        MMR11007060152342234530706000000000000000   10300001F05104100000000000208000000000000     
100   62443100301716860000000000300000000000300000002000000010410407060355382538367538450706000007448423   1030000200030000   333800010001203104000003327KBZPay                 Yangon        MMR11007060355382538360706000000000000000   10300001F05104100000000063000000000000000     
100   95050321232876860000000000118000000000118000002000000010410407050602290158249523240705218606015824   1030000600030000   554100002328315799420001235DENKO NAY PYI TAW 2    NAYPYITAW     MMR11007050602290158240705000000000000000   10300001 00104100000000014160000000000000     
100   95050318710290270000000000040000000000040000002000000010410407050509460004661076840705218611000466   1030000500030000   598320001101000015172200011MAX ENERGY             PTN           MMR11007050509460004660705000000000000000   10300001 00104100000000004800000000000000     
100   62911028202088990000000000030950000000030950002000000010410407060738432104314773800706084347984996   1040001400030000   541110000255025411100002149Sein Daung Super Store Sein Daung Su MMR11007060738432104310706000000000000000   10300001 00104100000000001857000000000000     
100   95050318141561190000000000010000000000010000002000000010410407060931060106840475220706000007451107   1040001600030000   333800010001220104000004507A +                    Yangon        MMR11007060931060106840706000000000000000   10300001F05104100000000002100000000000000     
100   95030317922148660000000000026000000000026000002000000010410407060137430290794773800706930070843186   1030000900030000   554119001103190110000000215New Day Energy MYG     YANGONONE     MMR11007060137430290790706000000000000000   10300001F00104100000000000780000000000000     
100   95050328841190290000000000132400000000132400002000000010410407061810070075825567210706000749698791   1030000200030000   541188001307000008000000325KBZ BANK               CITY MART - A MMR11007061810070075820706000000000000000   10300001 00104100000000033100000000000000     
100   95050312498129060000000000000990000000000990002000000010410407061231170117227389890706000007452089   1020000200030000   333400010001204104000000281Myanmar Soft-Gate Tech Yangon        MMR11007061231170117220706000000000000000   10300001F05104100000000000208000000000000     
100   95050320360851930000000000001980000000001980002000000010410407060831520152247071370706000007450638   1020000200030000   333400010001204104000000281Myanmar Soft-Gate Tech Yangon        MMR11007060831520152240706000000000000000   10300001F05104100000000000416000000000000     
100   95050314749068520000000000003184000000003184002000000010410407061530370037607049500706000007452827   1020000200030000   333300010001204104000000406MyanPay Co. Ltd        Yangon        MMR11007061530370037600706000000000000000   10300001F05104100000000010000000000000000     
100   95050324622440820000000000171350000000171350002000000010410407060224240298295254640706210540824186   1030000900030000   541119000162190110000000084Pro (1) Global (Pazund YANGONARTAUNG MMR11007060224240298290706000000000000000   10300001F00104100000000042838000000000000     
100   62443101053241940000000000277040000000277040002000000010410407061602210056057170260706000749691316   1030000200030000   541188001005000008000000008KBZ BANK               MARKETPLACE - MMR11007061602210056050706000000000000000   10300001 00104100000000069260000000000000     
100   95030317922148660000000000023320000000023320002000000010410407060643280034884773800706000749673780   1030000200030000   581288000389000008000002776KBZ BANK               RANGOON TEA H MMR11007060643280034880706000000000000000   10300001 00104100000000002379000000000000     
100   62443100300412100000000000009300000000009300002000000010410407061642220132251106550706000749693324   1030000200030000   541188001257000008000000310KBZ BANK               CITY MART- FM MMR11007061642220132250706000000000000000   10300001 00104100000000002325000000000000     
100   62911028202122480000000000031700000000031700002000000010410407061240460159264773800706000749669445   1030000200030000   541188001023000008000000298KBZ BANK               CITY MART - M MMR11007061240460159260706000000000000000   10300001 00104100000000001902000000000000     
100   95050318134586070000000000024850000000024850002000000010410407061933420083445141730706000749702181   1030000200030000   541188001317000008000000306KBZ BANK               CITY MART - S MMR11007061933420083440706000000000000000   10300001 00104100000000006213000000000000     
100   95050312173216740000000000030000000000030000002000000010410407060416130324163906880706443461013186   1030000900030000   541119001273190110000000960City Mart PLST Season  YANGONMYOTHIT MMR11007060416130324160706000000000000000   10300001F00104100000000007500000000000000     
100   95050316184853420000000000250000000000250000002000000010410407060734260426723815840706000007450198   1030000200030000   333800010001203104000003327KBZPay                 Yangon        MMR11007060734260426720706000000000000000   10300001F05104100000000052500000000000000     
100   62911028202212490000000000043150000000043150002000000010410407060946020421924773800706766161602186   1030000900030000   581219000715190110000000546Akkhaya Tea House(Dago YANGON        MMR11007060946020421920706000000000000000   10300001F00104100000000004401000000000000     
100   95050315017843630000000000005000000000005000002000000010410407061034210421969709360706000007451615   1040001600030000   333800010001220104000004507A +                    Yangon        MMR11007061034210421960706000000000000000   10300001F05104100000000001050000000000000     
100   62911028202193830000000000013150000000013150002000000010410407061054030441834773800706817241703186   1030000900030000   541119000126190110000000082Sein Gay Har Super Cen YANGON        MMR11007061054030441830706000000000000000   10300001F00104100000000000789000000000000     
100   95050319938772870000000000000990000000000990002000000010410407061437170717584971540706000007452650   1020000200030000   333400010001204104000000281Myanmar Soft-Gate Tech Yangon        MMR11007061437170717580706000000000000000   10300001F05104100000000000208000000000000     
100   95030306100096490000000000000990000000000990002000000010410407061034360436164773800706000007451620   1020000200030000   333400010001204104000000281Myanmar Soft-Gate Tech Yangon        MMR11007061034360436160706000000000000000   10300001F05104100000000000208000000000000     
100   95050310213446310000000000009900000000009900002000000010410407060935060506395007190706000007451148   1020000200030000   333400010001204104000000281Myanmar Soft-Gate Tech Yangon        MMR11007060935060506390706000000000000000   10300001F05104100000000002079000000000000     
100   62443100330108240000000000003960000000003960002000000010410407060735220522955468330706000007450206   1020000200030000   333400010001204104000000281Myanmar Soft-Gate Tech Yangon        MMR11007060735220522950706000000000000000   10300001F05104100000000000832000000000000     
100   95050324005082180000000000103910000000103910002000000010410407060845260405404106790706916151526186   1030000900030000   541119000144190110000000083SeinGayHarParami Cente YANGON        MMR11007060845260405400706000000000000000   10300001F00104100000000025978000000000000     
100   62911028202169750000000000021280000000021280002000000010410407060832400401444773800706704021540186   1030000900030000   541119001280190110000000963City Mart SPL C 5      YANGONMYOTHIT MMR11007060832400401440706000000000000000   10300001F00104100000000001277000000000000     
100   95050319178423260000000000020000000000020000002000000010410407061537180718468701990706000007452856   1030000200030000   333800010001203104000003327KBZPay                 Yangon        MMR11007061537180718460706000000000000000   10300001F05104100000000004200000000000000     
100   62911028202651050000000000089000000000089000002000000010410407060937430252484773800706000749649343   1030000200030000   541188001037000008000000010KBZ BANK               MARKETPLACE - MMR11007060937430252480706000000000000000   10300001 00104100000000005340000000000000     
100   62911028202651050000000000002800000000002800002000000010410407060938280252494773800706000749649376   1030000200030000   541188001037000008000000010KBZ BANK               MARKETPLACE - MMR11007060938280252490706000000000000000   10300001 00104100000000000168000000000000     
100   95030308100042590000000000269600000000269600002000000010410407060556210354164773800706088261221186   1030000900030000   541119000614190110000000452Pro(1) Global-Hlaing T YANGONTHARYA  MMR11007060556210354160706000000000000000   10300001F00104100000000016176000000000000     
100   62443100313112320000000000186400000000186400002000000010410407060906330411215347580706212361533186   1030000900030000   571219001536190110000001113Pro 1 Plus Store-1     YANGONADON    MMR11007060906330411210706000000000000000   10300001F00104100000000044736000000000000     
100   95030364439875210000000000007928000000007928002000000010410407060841140404354773800706867111514186   1030000900030000   541119001247190110000000955City Mart JS C 6       YANGONUT      MMR11007060841140404350706000000000000000   10300001F00104100000000000476000000000000     
100   95050328384000040000000000398750000000398750002000000010410407061542030507288616890706021122203186   1030000900030000   5813190013961901100000010001964 Gastropub         YANGONONE     MMR11007061542030507280706000000000000000   10300001F00104100000000169469000000000000     
100   95050325052849960000000000028750000000028750002000000010410407061214260467222432440706250441826186   1030000900030000   554119001103190110000000215New Day Energy MYG     YANGONONE     MMR11007061214260467220706000000000000000   10300001F00104100000000003450000000000000     
100   95050316717221100000000000000990000000000990002000000010410407060237440744980212090706000007447809   1020000200030000   333400010001204104000000281Myanmar Soft-Gate Tech Yangon        MMR11007060237440744980706000000000000000   10300001F05104100000000000208000000000000     
100   62911028202161240000000000041837000000041837002000000010410407061132310249524773800706000749660756   1030000200030000   541188001007000008000000008KBZ BANK               MARKETPLACE - MMR11007061132310249520706000000000000000   10300001 00104100000000002510000000000000     
100   62443100325551180000000000020000000000020000002000000010410407060858300408862127710706090281530186   1030000900030000   554119001100190110000000212New Day Energy PZD     YANGON        MMR11007060858300408860706000000000000000   10300001F00104100000000002400000000000000     
100   95050325052849960000000000040000000000040000002000000010410407061211560466385737410706200411856186   1030000900030000   554119001103190110000000215New Day Energy MYG     YANGONONE     MMR11007061211560466380706000000000000000   10300001F00104100000000004800000000000000     
100   62911028202169750000000000005300000000005300002000000010410407060826370399504773800706591561437186   1030000900030000   541119001290190110000000965City Mart SPL City Car YANGONMYOTHIT MMR11007060826370399500706000000000000000   10300001F00104100000000000318000000000000     
100   95050314767696390000000000011850000000011850002000000010410407060941310420728227060706707111631186   1030000900030000   541119001077190110000000872Sein Gay Har Hledan    YANGONUT      MMR11007060941310420720706000000000000000   10300001F00104100000000002963000000000000     
100   95050313710136610000000000002970000000002970002000000010410407061037110711816234200706000007451634   1020000200030000   333400010001204104000000281Myanmar Soft-Gate Tech Yangon        MMR11007061037110711810706000000000000000   10300001F05104100000000000624000000000000     
100   62443100379321630000000000090800000000090800002000000010410407061046520439795723620706708161752186   1030000900030000   581419000966190110000000773Yuki Mugi Bakery       YANGONONE     MMR11007061046520439790706000000000000000   10300001F00104100000000010896000000000000     
100   95050319938772870000000000000990000000000990002000000010410407061334440444516709120706000007452349   1020000200030000   333400010001204104000000281Myanmar Soft-Gate Tech Yangon        MMR11007061334440444510706000000000000000   10300001F05104100000000000208000000000000     
100   95050325095525130000000000100000000000100000002000000010410407060236470647980297180706000007447803   1030000200030000   333800010001203104000003327KBZPay                 Yangon        MMR11007060236470647980706000000000000000   10300001F05104100000000021000000000000000     
100   95050324154190880000000000006500000000006500002000000010410407060607370357664908310706283371237186   1030000900030000   573219001177190110000000933UNIQUE Kabaraye        YANGON        MMR11007060607370357660706000000000000000   10300001F00104100000000001560000000000000     
100   62911028202284910000000000020600000000020600002000000010410407061059470443594773800706912291747186   1030000900030000   541119001189190110000000942City Mart HDC C 4      YANGONUT      MMR11007061059470443590706000000000000000   10300001F00104100000000001236000000000000     
100   95050316785465380000000000000990000000000990002000000010410407061337550755488361610706000007452366   1020000200030000   333400010001204104000000281Myanmar Soft-Gate Tech Yangon        MMR11007061337550755480706000000000000000   10300001F05104100000000000208000000000000     
100   95030378828065520000000000006020000000006020002000000010410407061047190439944773800706717171719186   1030000900030000   541119000146190110000000083SeinGayHarParami Cente YANGON        MMR11007061047190439940706000000000000000   10300001F00104100000000000361000000000000     
100   95050311048637960000000000019175000000019175002000000010410407061017560430883099420706229471656186   1030000900030000   541119000123190110000000080Sein Gay Har BAK       YANGON        MMR11007061017560430880706000000000000000   10300001F00104100000000004794000000000000     
100   62911028202750390000000000002970000000002970002000000010410407060404253425274773800706000007448490   1020000200030000   333400010001204104000000281Myanmar Soft-Gate Tech Yangon        MMR11007060404253425270706000000000000000   10300001F05104100000000000624000000000000     
100   95050316785465380000000000001980000000001980002000000010410407061203103310017474990706000007451991   1020000200030000   333400010001204104000000281Myanmar Soft-Gate Tech Yangon        MMR11007061203103310010706000000000000000   10300001F05104100000000000416000000000000     
100   62443100301716860000000000100000000000100000002000000010410407060358502850492410800706000007448451   1030000200030000   333800010001203104000003327KBZPay                 Yangon        MMR11007060358502850490706000000000000000   10300001F05104100000000021000000000000000     
100   95050311959900780000000000000990000000000990002000000010410407060746231623331312400706000007450307   1020000200030000   333400010001204104000000281Myanmar Soft-Gate Tech Yangon        MMR11007060746231623330706000000000000000   10300001F05104100000000000208000000000000     
100   62911028202369990000000000100000000000100000002000000010410407061539350935244773800706000007452863   1030000200030000   333800010001203104000003327KBZPay                 Yangon        MMR11007061539350935240706000000000000000   10300001F05104100000000021000000000000000     
100   62443100301716860000000000300000000000300000002000000010410407060356552655085800870706000007448436   1030000200030000   333800010001203104000003327KBZPay                 Yangon        MMR11007060356552655080706000000000000000   10300001F05104100000000063000000000000000     
100   95050319331315630000000000001980000000001980002000000010410407061306233623725056640706000007452225   1020000200030000   333400010001204104000000281Myanmar Soft-Gate Tech Yangon        MMR11007061306233623720706000000000000000   10300001F05104100000000000416000000000000     
100   95050311931431670000000000004950000000004950002000000010410407060605403540036220410706000007449484   1020000200030000   333400010001204104000000281Myanmar Soft-Gate Tech Yangon        MMR11007060605403540030706000000000000000   10300001F05104100000000001040000000000000     
100   95050326393773020000000000002970000000002970002000000010410407060649081908911092760706000007449818   1020000200030000   333400010001204104000000281Myanmar Soft-Gate Tech Yangon        MMR11007060649081908910706000000000000000   10300001F05104100000000000624000000000000     
100   95050315259054570000000000000990000000000990002000000010410407061305233523083404150706000007452221   1020000200030000   333400010001204104000000281Myanmar Soft-Gate Tech Yangon        MMR11007061305233523080706000000000000000   10300001F05104100000000000208000000000000     
100   95050312240830690000000000000990000000000990002000000010410407061457012701112006960706000007452728   1020000200030000   333400010001204104000000281Myanmar Soft-Gate Tech Yangon        MMR11007061457012701110706000000000000000   10300001F05104100000000000208000000000000     
100   95050319938772870000000000002970000000002970002000000010410407061206233623879127470706000007452005   1020000200030000   333400010001204104000000281Myanmar Soft-Gate Tech Yangon        MMR11007061206233623870706000000000000000   10300001F05104100000000000624000000000000     
100   62443100301716860000000000300000000000300000002000000010410407060354302430255885960706000007448417   1030000200030000   333800010001203104000003327KBZPay                 Yangon        MMR11007060354302430250706000000000000000   10300001F05104100000000063000000000000000     
100   95050310213446310000000000004950000000004950002000000010410407060936130613646659680706000007451159   1020000200030000   333400010001204104000000281Myanmar Soft-Gate Tech Yangon        MMR11007060936130613640706000000000000000   10300001F05104100000000001040000000000000     
100   62911028202207380000000000020000000000020000002000000010410407061339440944684773800706000007452377   1030000500030000   333800010001201104000003863AYA Pay                Yangon        MMR11007061339440944680706000000000000000   10300001F05104100000000004200000000000000     
100   95050327531396450000000000002970000000002970002000000010410407061254052405575652310706000007452173   1020000200030000   333400010001204104000000281Myanmar Soft-Gate Tech Yangon        MMR11007061254052405570706000000000000000   10300001F05104100000000000624000000000000     
100   95050316717221100000000000001980000000001980002000000010410407061051322132772418650706000007451720   1020000200030000   333400010001204104000000281Myanmar Soft-Gate Tech Yangon        MMR11007061051322132770706000000000000000   10300001F05104100000000000416000000000000     
100   95050310305109410000000000001980000000001980002000000010410407060303313331785509920706000007447965   1020000200030000   333400010001204104000000281Myanmar Soft-Gate Tech Yangon        MMR11007060303313331780706000000000000000   10300001F05104100000000000416000000000000     
