100   62911028202794110000000000000990000000000990002000000010410407070311284128814773800707000007453947   1020000200030000   333400010001204104000000281Myanmar Soft-Gate Tech Yangon        MMR11007070311284128810707000000000000000   10300001F05104100000000000208000000000000     
100   62911028202693960000000000019500000000019500002000000010410407070724100657534773800707939541310187   1030000900030000   541119001250190110000000955City Mart JS C 9       YANGONUT      MMR11007070724100657530707000000000000000   10300001F00104100000000001170000000000000     
100   95050328855407440000000000020500000000020500002000000010410407071007080701299761160707060371608187   1030000900030000   541119001113190110000000872Sein Gay Har Hledan    YANGONUT      MMR11007071007080701290707000000000000000   10300001F00104100000000005125000000000000     
100   62443100327902100000000000152000000000152000002000000010410407070502057053508270790707320561452813   1040001400030000   599910000221025999100001869MAHAR SAN USA Store nu l No-55  Byin MMR11007070502057053500707000000000000000   10300001 00104100000000036480000000000000     
100   95030305700676370000000000060000000000060000002000000010410407071327557631054773800707218820763105   1040001600030000   598320000316000000010000304PT Power Petrol Statio Yangon        MMR11007071327557631050707000000000000000   10300001F00104100000000001800000000000000     
100   95050325273694860000000000016000000000016000002000000010410407071042287462770988160707218817746277   1040001600030000   569120000928000000010000675Generation Concept Sto Ygn           MMR11007071042287462770707000000000000000   10300001F00104100000000003840000000000000     
100   95030301100081330000000000026650000000026650002000000010410407070350078752624773800707200754246469   1040001400030000   541110000255025411100002149Sein Daung Super Store Sein Daung Su MMR11007070350078752620707000000000000000   10300001 00104100000000001599000000000000     
100   62911028202248050000000000025000000000025000002000000010410407070233027179344773800707218809717934   1040001600030000   598320000660000000010000529Shwe Taung Energy (NPT Naypyitaw     MMR11007070233027179340707000000000000000   10300001F00104100000000000750000000000000     
100   95050325455962190000000000002970000000002970002000000010410407071006533653968193780707000007457228   1020000200030000   333400010001204104000000281Myanmar Soft-Gate Tech Yangon        MMR11007071006533653960707000000000000000   10300001F05104100000000000624000000000000     
100   95050317284600370000000000050000000000050000002000000010410407071124585458800321180707000007457612   1030000200030000   333800010001203104000003327KBZPay                 Yangon        MMR11007071124585458800707000000000000000   10300001F05104100000000010500000000000000     
100   95050313732480420000000000000990000000000990002000000010410407070724075407991213510707000007456071   1020000200030000   333400010001204104000000281Myanmar Soft-Gate Tech Yangon        MMR11007070724075407990707000000000000000   10300001F05104100000000000208000000000000     
100   95050316818236190000000000002970000000002970002000000010410407071527445744039228720707000007458478   1020000200030000   333400010001204104000000281Myanmar Soft-Gate Tech Yangon        MMR11007071527445744030707000000000000000   10300001F05104100000000000624000000000000     
100   62443101093150400000000000043000000000043000002000000010410407070432547236107724560707218811723610   1040001600030000   598320000838000000010000600Regency Petrol Station Ygn           MMR11007070432547236100707000000000000000   10300001F00104100000000005160000000000000     
100   95050315259054570000000000001980000000001980002000000010410407070513044304016703410707000007454994   1020000200030000   333400010001204104000000281Myanmar Soft-Gate Tech Yangon        MMR11007070513044304010707000000000000000   10300001F05104100000000000416000000000000     
100   62911028202794110000000000000990000000000990002000000010410407070308373837184773800707000007453915   1020000200030000   333400010001204104000000281Myanmar Soft-Gate Tech Yangon        MMR11007070308373837180707000000000000000   10300001F05104100000000000208000000000000     
100   62911028202537390000000000050000000000050000002000000010410407071019417441924773800707218817744192   1040001600030000   598320001063000000010000783Yangon Petrol (Ayarwun Ygn           MMR11007071019417441920707000000000000000   10300001F00104100000000001500000000000000     
100   62443100327281780000000002499900000002499900002000000010410407040403325026363634450704218511502636   1040001600030000   509420000084000000010000080KKA Gold & Jewellery   Mandalay      MMR11007040403325026360704000000000000000   10300001F00104100000000999960000000000000     
100   62911028202684060000000000060000000000060000002000000010410407040631405111524773800704218513511152   1040001600030000   598320000658000000010000527Shwe Taung Energy (YGN Yangon        MMR11007040631405111520704000000000000000   10300001F00104100000000001800000000000000     
100   95050322990383760000000000118800000000118800002000000010410407040504525056495215630704218512505649   1040001600030000   591220000043000000010000041Mingalar Pharmacy      Yangon        MMR11007040504525056490704000000000000000   10300001F00104100000000028512000000000000     
100   62443100364307970000000002500000000002500000002000000010410407040326185010521526540704218510501052   1040001600030000   509420000084000000010000080KKA Gold & Jewellery   Mandalay      MMR11007040326185010520704000000000000000   10300001F00104100000001000000000000000000     
100   95050326228858240000000000085000000000085000002000000010410407040459225053086612820704218511505308   1040001600030000   598320000830000000010000596Regency Petrol Station Ygn           MMR11007040459225053080704000000000000000   10300001F00104100000000010200000000000000     
100   95050317502160260000000000107000000000107000002000000010410407040832355171716152680704218515517171   1040001600030000   569120000933000000010000680Generation Concept Sto Ygn           MMR11007040832355171710704000000000000000   10300001F00104100000000025680000000000000     
100   62443101093150400000000000034000000000034000002000000010410407040153214967900442150704218508496790   1040001600030000   598320000838000000010000600Regency Petrol Station Ygn           MMR11007040153214967900704000000000000000   10300001F00104100000000004080000000000000     
100   95050318214455130000000000002970000000002970002000000010410407070111304130684546060707000007453365   1020000200030000   333400010001204104000000281Myanmar Soft-Gate Tech Yangon        MMR11007070111304130680707000000000000000   10300001F05104100000000000624000000000000     
100   95050322312885760000000000006500000000006500002000000010410407070407343734423277690707000007454450   1030000200030000   333800010001203104000003327KBZPay                 Yangon        MMR11007070407343734420707000000000000000   10300001F05104100000000001365000000000000     
100   95050323667276610000000000009900000000009900002000000010410407070819584958815915670707000007456453   1020000200030000   333400010001204104000000281Myanmar Soft-Gate Tech Yangon        MMR11007070819584958810707000000000000000   10300001F05104100000000002079000000000000     
100   95050317915469510000000000131040000000131040002000000010410407061706383638113659440707000007453038   1030000900030000   333800010001202104000003301uab bank               Yangon        MMR11007061706383638110707000000000000000   10300001F05104100000000027518000000000000     
100   62443100345308040000000000001000000000001000002000000010410407071222485248955108440707000007457850   1030000900030000   333400010001202104000002022ACS                    Yangon        MMR11007071222485248950707000000000000000   10300001F05104100000000000210000000000000     
100   95050329581164220000000000095000000000095000002000000010410407060946580008374837000706218716000837   1030001300030000   555500000047700000000000035SHWEBANK BANK          959           MMR11007060946580008370706000000000000000   10300001 00104100000000022800000000000000     
100   95050317502160260000000000060000000000060000002000000010410407040837165174284330000704218515517428   1040001600030000   569120000933000000010000680Generation Concept Sto Ygn           MMR11007040837165174280704000000000000000   10300001F00104100000000014400000000000000     
100   95050329613303740000000000040000000000040000002000000010410407071448291829869470220707000007458373   1030000200030000   333800010001203104000003327KBZPay                 Yangon        MMR11007071448291829860707000000000000000   10300001F05104100000000008400000000000000     
100   62911028202524260000000000022300000000022300002000000010410407041308325405444773800704218520540544   1040001600030000   541120000569000000010000465Ocean Shwe Gone Daing  Yangon        MMR11007041308325405440704000000000000000   10300001F00104100000000001338000000000000     
100   95050312360118350000000000006350000000006350002000000010410407030750234432759341620703218414443275   1040001600030000   541120000557000000010000465Ocean Shwe Gone Daing  Yangon        MMR11007030750234432750703000000000000000   10300001F00104100000000001588000000000000     
100   62443100363668680000000000025200000000025200002000000010410407041138545316889877420704218518531688   1040001600030000   591220000274000000010000262Shwe Ohh Pharmacy (Shw Yangon        MMR11007041138545316880704000000000000000   10300001F00104100000000006048000000000000     
100   62911028202471600000000000048295000000048295002000000010410407061230460010134773800706218719001013   1030000500030000   541120203705000015411202037CITY MART SUPERMARKET  PTN           MMR11007061230460010130706000000000000000   10300001 00104100000000002898000000000000     
100   62911028202099050000000000001850000000001850002000000010410407070949160696384773800707815191616187   1030000900030000   541119001083190110000000872Sein Gay Har Hledan    YANGONUT      MMR11007070949160696380707000000000000000   10300001F00104100000000000111000000000000     
100   95030301100126550000000000028000000000028000002000000010410407061158450224744773800706218711022474   1030000600030000   554100002323315799420000474DENKO N.DAGON - 1      YANGON        MMR11007061158450224740706000000000000000   10300001 00104100000000000840000000000000     
100   95050312498129060000000000001980000000001980002000000010410407071356462646551122700707000007458230   1020000200030000   333400010001204104000000281Myanmar Soft-Gate Tech Yangon        MMR11007071356462646550707000000000000000   10300001F05104100000000000416000000000000     
100   95050312695033440000000000002970000000002970002000000010410407070712274227295029060707000007455955   1020000200030000   333400010001204104000000281Myanmar Soft-Gate Tech Yangon        MMR11007070712274227290707000000000000000   10300001F05104100000000000624000000000000     
100   95050324154190880000000000008800000000008800002000000010410407070314187199646909250707218810719964   1040001600030000   591220000282000000010000270Shwe Ohh Pharmacy (Shw Yangon        MMR11007070314187199640707000000000000000   10300001F00104100000000002112000000000000     
100   95050312498129060000000000000990000000000990002000000010410407070125275527957851030707000007453439   1020000200030000   333400010001204104000000281Myanmar Soft-Gate Tech Yangon        MMR11007070125275527950707000000000000000   10300001F05104100000000000208000000000000     
100   95050312498129060000000000000990000000000990002000000010410407071017164716097598100707000007457278   1020000200030000   333400010001204104000000281Myanmar Soft-Gate Tech Yangon        MMR11007071017164716090707000000000000000   10300001F05104100000000000208000000000000     
100   95050314692738880000000000002970000000002970002000000010410407071205453545373711240707000007457785   1020000200030000   333400010001204104000000281Myanmar Soft-Gate Tech Yangon        MMR11007071205453545370707000000000000000   10300001F05104100000000000624000000000000     
100   95050322312885760000000000013500000000013500002000000010410407071316484648149640410707000007458080   1030000200030000   333800010001203104000003327KBZPay                 Yangon        MMR11007071316484648140707000000000000000   10300001F05104100000000002835000000000000     
100   95030349489765520000000000024100000000024100002000000010410407070239577182674773800707218809718267   1040001600030000   591220000295000000010000283Shwe Ohh Pharmacy (39t Yangon        MMR11007070239577182670707000000000000000   10300001F00104100000000001446000000000000     
100   95050315110306410000000000005000000000005000002000000010410407070011424142695226830707000007453262   1030000200030000   333800010001203104000003327KBZPay                 Yangon        MMR11007070011424142690707000000000000000   10300001F05104100000000001050000000000000     
100   95030308100042590000000000020400000000020400002000000010410407071205377547884773800707218819754788   1040001600030000   591220000275000000010000263Shwe Ohh Pharmacy (Hla Yangon        MMR11007071205377547880707000000000000000   10300001F00104100000000001224000000000000     
100   95050315955808830000000000040000000000040000002000000010410407060827570006355418890706218714000635   1030000500030000   598320001104000015172200011MAX ENERGY             PTN           MMR11007060827570006350706000000000000000   10300001 00104100000000004800000000000000     
100   62911028202169750000000000015500000000015500002000000010410407060912280026434773800706218715002643   1030000500030000   541120226812000045411202268CITY MART WAIZAYANDA   PTN           MMR11007060912280026430706000000000000000   10300001 00104100000000000930000000000000     
100   95050314979630620000000000004950000000004950002000000010410407071252352235454427670707000007457960   1020000200030000   333400010001204104000000281Myanmar Soft-Gate Tech Yangon        MMR11007071252352235450707000000000000000   10300001F05104100000000001040000000000000     
100   95050318710290270000000000040000000000040000002000000010410407060347420005630843410706218710000563   1030000500030000   598320002701000015172200027MAX ENERGY             PTN           MMR11007060347420005630706000000000000000   10300001 00104100000000004800000000000000     
100   62911028202661370000000000047000000000047000002000000010410407061049370000654773800706218717000065   1030000500030000   541120129726000045411201297MAKRO MYANMAR          PTN           MMR11007061049370000650706000000000000000   10300001 00104100000000002820000000000000     
100   62911028202366010000000000051050000000051050002000000010410407070818320672054773800707673481432187   1030000900030000   541119001331190110000000971Ocean Junction NPT C 9 NAYPYITAW     MMR11007070818320672050707000000000000000   10300001F00104100000000003063000000000000     
100   95030323161862590000000000080200000000080200002000000010410407060713590001784773800706000354007373   1030000300030000   729800001737000000000001241CB BANK                ART & T8      MMR11007060713590001780706000000000000000   10300001F00104100000000004812000000000000     
100   62911028202471600000000000019800000000019800002000000010410407061212230003204773800706218718000320   1030000500030000   541120203712000015411202037CITY MART SUPERMARKET  PTN           MMR11007061212230003200706000000000000000   10300001 00104100000000001188000000000000     
100   62443100318296470000000000028000000000028000002000000010410407070345467213465001480707218810721346   1040001600030000   598320001170000000010000527Shwe Taung Energy (YGN Yangon        MMR11007070345467213460707000000000000000   10300001F00104100000000003360000000000000     
100   62911028202674810000000000007750000000007750002000000010410407071002170699864773800707990321617187   1030000900030000   541119001208190110000000948City Mart YK C 6       YANGONAUNG    MMR11007071002170699860707000000000000000   10300001F00104100000000000465000000000000     
100   95050319006804440000000000004950000000004950002000000010410407071017474747095860520707000007457277   1020000200030000   333400010001204104000000281Myanmar Soft-Gate Tech Yangon        MMR11007071017474747090707000000000000000   10300001F05104100000000001040000000000000     
100   95050310672555840000000000038900000000038900002000000010410407070228045804522468090707000007453650   1030000200030000   333800010001203104000003327KBZPay                 Yangon        MMR11007070228045804520707000000000000000   10300001F05104100000000008169000000000000     
100   95050312962334280000000000000990000000000990002000000010410407070109373937877936120707000007453360   1020000200030000   333400010001204104000000281Myanmar Soft-Gate Tech Yangon        MMR11007070109373937870707000000000000000   10300001F05104100000000000208000000000000     
100   62443100389971990000000000050000000000050000002000000010410407070808393839652355420707000007456385   1030000200030000   333800010001203104000003327KBZPay                 Yangon        MMR11007070808393839650707000000000000000   10300001F05104100000000010500000000000000     
100   95050311382087030000000000003960000000003960002000000010410407071216154615593030470707000007457824   1020000200030000   333400010001204104000000281Myanmar Soft-Gate Tech Yangon        MMR11007071216154615590707000000000000000   10300001F05104100000000000832000000000000     
100   62911028202000450000000000002970000000002970002000000010410407071029295929734773800707000007457342   1020000200030000   333400010001204104000000281Myanmar Soft-Gate Tech Yangon        MMR11007071029295929730707000000000000000   10300001F05104100000000000624000000000000     
100   95050312482469810000000000011900000000011900002000000010410407061154560000545397020706218718000054   1030000500030000   591220013301014405912200133SHWE OHH PHARMACY      PTN           MMR11007061154560000540706000000000000000   10300001 00104100000000002856000000000000     
100   95050313970192050000000000003350000000003350002000000010410407061147400001955482120706218718000195   1030000500030000   541120232801000045411202328CITY EXPRESS (MCS - 34 PTN           MMR11007061147400001950706000000000000000   10300001 00104100000000000838000000000000     
100   95050326228858240000000000069460000000069460002000000010410407061241200001067304800706218719000106   1030000500030000   581220225001000085812202250MANPUKU JAPANESE TOKYO PTN           MMR11007061241200001060706000000000000000   10300001 00104100000000029521000000000000     
100   62443100323428970000000000012600000000012600002000000010410407061200250002242092050706000354050553   1030000300030000   541100001626000000000001151CB BANK                ONE STOP SUPE MMR11007061200250002240706000000000000000   10300001F00104100000000003150000000000000     
100   62443100379321630000000000169750000000169750002000000010410407061001570000659454070706218716000065   1030000500030000   581220064101000015812200641KRISPY KREME           PTN           MMR11007061001570000650706000000000000000   10300001 00104100000000072144000000000000     
100   62443100318296470000000000014850000000014850002000000010410407060401320003128779240706218710000312   1030000500030000   541120203701000015411202037CITY MART SUPERMARKET  PTN           MMR11007060401320003120706000000000000000   10300001 00104100000000003713000000000000     
100   62911028202440680000000000005900000000005900002000000010410407060334310000634773800706218710000063   1030000500030000   591220014301014405912200143SHWE OHH PHARMACY      PTN           MMR11007060334310000630706000000000000000   10300001 00104100000000000354000000000000     
100   62911028202912590000000000062000000000062000002000000010410407060340030006074773800706218710000607   1030000500030000   598320001602000015172200016MAX ENERGY             PTN           MMR11007060340030006070706000000000000000   10300001 00104100000000001860000000000000     
100   62443100355903280000000000003000000000003000002000000010410407071127365736668583600707000007457626   1030000200030000   3334000100012031040000040102C2P (Myanmar) Co. Ltd Yangon        MMR11007071127365736660707000000000000000   10300001F05104100000000000630000000000000     
100   62911028202714000000000000030000000000030000002000000010410407071140037521714773800707218818752171   1040001600030000   598320000911000000010000662MMTM - Tamwe           Ygn           MMR11007071140037521710707000000000000000   10300001F00104100000000000900000000000000     
100   95050316601084530000000000000990000000000990002000000010410407071255112511300952510707000007457980   1020000200030000   333400010001204104000000281Myanmar Soft-Gate Tech Yangon        MMR11007071255112511300707000000000000000   10300001F05104100000000000208000000000000     
100   62911028202684060000000000053750000000053750002000000010410407070504537253944773800707218812725394   1040001600030000   591220000290000000010000278Shwe Ohh Pharmacy (8 M Yangon        MMR11007070504537253940707000000000000000   10300001F00104100000000003225000000000000     
100   95050317465574180000000000070000000000070000002000000010410407071108063806582484240707000007457551   1030000200030000   333800010001203104000003327KBZPay                 Yangon        MMR11007071108063806580707000000000000000   10300001F05104100000000014700000000000000     
100   62911028202169750000000000051770000000051770002000000010410407070608297298044773800707218813729804   1040001600030000   541120000560000000010000465Ocean Shwe Gone Daing  Yangon        MMR11007070608297298040707000000000000000   10300001F00104100000000003106000000000000     
100   62911028202446540000000000087150000000087150002000000010410407070329127206764773800707218810720676   1040001600030000   591220000287000000010000275Shwe Ohh Pharmacy (Wit Yangon        MMR11007070329127206760707000000000000000   10300001F00104100000000005229000000000000     
100   62911028202911680000000000003200000000003200002000000010410407071119057500344773800707218818750034   1040001600030000   591220000285000000010000273Shwe Ohh Pharmacy (47t Yangon        MMR11007071119057500340707000000000000000   10300001F00104100000000000192000000000000     
100   62443100306045460000000000068550000000068550002000000010410407061253270001416794210706218719000141   1030000500030000   581220123001000045812201230YOON KITCHEN           PTN           MMR11007061253270001410706000000000000000   10300001 00104100000000029134000000000000     
100   62911028202175690000000001000000000001000000002000000010410407060551440002354773800706218712000235   1030000500030000   481220074501000014812200745TECHNOLAND (36TH ST)   PTN           MMR11007060551440002350706000000000000000   10300001 00104100000000060000000000000000     
100   95050323282717740000000000020000000000020000002000000010410407060354280008807453350706218710000880   1030000500030000   598320001403000015172200014MAX ENERGY             PTN           MMR11007060354280008800706000000000000000   10300001 00104100000000002400000000000000     
100   62911028202631420000000000065050000000065050002000000010410407060445110015634773800706218711001563   1030000500030000   541120203706000015411202037CITY MART SUPERMARKET  PTN           MMR11007060445110015630706000000000000000   10300001 00104100000000003903000000000000     
100   95030318100004530000000000023000000000023000002000000010410407060402510117934773800706218704011793   1030000600030000   554100001218315799420000670DENKO MAWLAMYAING      MON STATE.    MMR11007060402510117930706000000000000000   10300001 00104100000000000690000000000000     
100   62911028202520380000000000035000000000035000002000000010410407060608160008564773800706218712000856   1030000500030000   598320001202000015172200012MAX ENERGY             PTN           MMR11007060608160008560706000000000000000   10300001 00104100000000001050000000000000     
100   95050328074436620000000000038750000000038750002000000010410407061055390013969028590706218717001396   1030000500030000   531120226320000045311202263OCEAN SUPER CENTER STJ PTN           MMR11007061055390013960706000000000000000   10300001 00104100000000009300000000000000     
100   62443100379321630000000000148000000000148000002000000010410407060553100056500206150706000353993602   1030000300030000   598300001210000000000000817CB BANK                SHWE TAUNG EN MMR11007060553100056500706000000000000000   10300001F00104100000000017760000000000000     
100   95050313243172680000000000045500000000045500002000000010410407071310144014694257480707000007458049   1030000200030000   333800010001203104000003327KBZPay                 Yangon        MMR11007071310144014690707000000000000000   10300001F05104100000000009555000000000000     
100   95030306100096490000000000000990000000000990002000000010410407071322485248224773800707000007458103   1020000200030000   333400010001204104000000281Myanmar Soft-Gate Tech Yangon        MMR11007071322485248220707000000000000000   10300001F05104100000000000208000000000000     
100   62443101023815100000000000009650000000009650002000000010410407061107230007133900940706218717000713   1030000500030000   541120227505000045411202275CITY MART (AHLONE BRAN PTN           MMR11007061107230007130706000000000000000   10300001 00104100000000002413000000000000     
100   62911028202207380000000000004250000000004250002000000010410407060307530013774773800706218709001377   1030000500030000   541120203704000015411202037CITY MART SUPERMARKET  PTN           MMR11007060307530013770706000000000000000   10300001 00104100000000000255000000000000     
100   62911028202074950000000000010200000000010200002000000010410407060401550013254773800706218710001325   1030000500030000   531120226326000045311202263OCEAN SUPER CENTER STJ PTN           MMR11007060401550013250706000000000000000   10300001 00104100000000000612000000000000     
100   62443100390038980000000000104803000000104803002000000010410407060927440009038907840706000354027487   1030000300030000   701100000127000000000000058CB BANK                MELIA YANGON  MMR11007060927440009030706000000000000000   10300001F00104100000000044542000000000000     
100   62911028202533900000000000030000000000030000002000000010410407060139080007744773800706218708000774   1030000500030000   598320001404000015172200014MAX ENERGY             PTN           MMR11007060139080007740706000000000000000   10300001 00104100000000000900000000000000     
100   62911028202169750000000000016148000000016148002000000010410407060415590019374773800706218710001937   1030000500030000   541120226201000045411202262CITY MART ZAWANA       PTN           MMR11007060415590019370706000000000000000   10300001 00104100000000000969000000000000     
100   62911028202161990000000000008636000000008636002000000010410407060945120016634773800706218716001663   1030000500030000   541120227604000045411202276CITY MART ( 47 BRANCH  PTN           MMR11007060945120016630706000000000000000   10300001 00104100000000000518000000000000     
100   62443100306045460000000000082600000000082600002000000010410407060818370218542539400706218708021854   1030000600030000   809900000537315799420000147GRAND HANTHA HOSPITAL  YANGON        MMR11007060818370218540706000000000000000   10300001 00104100000000019824000000000000     
100   62911028202074950000000000014700000000014700002000000010410407060359530019214773800706218710001921   1030000500030000   531120226308000045311202263OCEAN SUPER CENTER STJ PTN           MMR11007060359530019210706000000000000000   10300001 00104100000000000882000000000000     
100   95050322312197120000000000035700000000035700002000000010410407060913080019055262480706000354025436   1030000300030000   581200001812000000000001296CB BANK                SP BAKERY (YA MMR11007060913080019050706000000000000000   10300001F00104100000000015173000000000000     
100   62911028202312890000000000030000000000030000002000000010410407060406510009214773800706218710000921   1030000500030000   598320001204000015172200012MAX ENERGY             PTN           MMR11007060406510009210706000000000000000   10300001 00104100000000000900000000000000     
100   62911028202417260000000000001500000000001500002000000010410407060631380009384773800706218713000938   1030000500030000   531120231223000045311202312OCEAN OATTARA THIRI    PTN           MMR11007060631380009380706000000000000000   10300001 00104100000000000090000000000000     
100   62911028202004330000000000036300000000036300002000000010410407061214380021934773800706218718002193   1030000500030000   531120226305000045311202263OCEAN SUPER CENTER STJ PTN           MMR11007061214380021930706000000000000000   10300001 00104100000000002178000000000000     
100   95050321232876860000000000070000000000070000002000000010410407060300470158847162400706218703015884   1030000600030000   554100002328315799420001235DENKO NAY PYI TAW 2    NAYPYITAW     MMR11007060300470158840706000000000000000   10300001 00104100000000008400000000000000     
100   95030310098554020000000000062400000000062400002000000010410407060339270015194773800706218710001519   1030000500030000   531120226307000045311202263OCEAN SUPER CENTER STJ PTN           MMR11007060339270015190706000000000000000   10300001 00104100000000003744000000000000     
100   62911028202169750000000000035000000000035000002000000010410407060909280016224773800706218715001622   1030000500030000   541120226803000045411202268CITY MART WAIZAYANDA   PTN           MMR11007060909280016220706000000000000000   10300001 00104100000000002100000000000000     
100   95050310305440490000000000036270000000036270002000000010410407061101260007708943490706218717000770   1030000500030000   541120231308000045411202313CITY MART (AYEYARWON)  PTN           MMR11007061101260007700706000000000000000   10300001 00104100000000009068000000000000     
100   95050320335873810000000000016550000000016550002000000010410407061012280007212759040706000354034442   1030000300030000   591200000214000000000000111CB BANK                MEDICARE STOR MMR11007061012280007210706000000000000000   10300001F00104100000000003972000000000000     
100   62911028202291190000000000031350000000031350002000000010410407060834350070044773800706218708007004   1030000600030000   806200002188315799420001535ASIA ROYAL HOSPITAL    YANGON        MMR11007060834350070040706000000000000000   10300001 00104100000000001881000000000000     
100   95050324154190880000000000030000000000030000002000000010410407060556550009854567920706218712000985   1030000500030000   598320001304000015172200013MAX ENERGY             PTN           MMR11007060556550009850706000000000000000   10300001 00104100000000003600000000000000     
100   62911028202593140000000000020700000000020700002000000010410407060846480014904773800706218715001490   1030000500030000   541120227504000045411202275CITY MART (AHLONE BRAN PTN           MMR11007060846480014900706000000000000000   10300001 00104100000000001242000000000000     
100   95050311560587250000000000004500000000004500002000000010410407061031060015747971780706218717001574   1030000500030000   531120226704000045311202267OCEAN NORTH POINT      PTN           MMR11007061031060015740706000000000000000   10300001 00104100000000001080000000000000     
100   95030301100121270000000000036000000000036000002000000010410407061121160224694773800706218711022469   1030000600030000   554100002323315799420000474DENKO N.DAGON - 1      YANGON        MMR11007061121160224690706000000000000000   10300001 00104100000000001080000000000000     
100   62911028202919290000000000040000000000040000002000000010410407061148030709564773800706218711070956   1030000600030000   554100000952315799420000474DENKO N.DAGON - 1      YANGON        MMR11007061148030709560706000000000000000   10300001 00104100000000001200000000000000     
100   62443100300412100000000000056000000000056000002000000010410407060201120974568886190706218702097456   1030000600030000   554100000946315799420000471DENKO BAHAN            YANGON        MMR11007060201120974560706000000000000000   10300001 00104100000000006720000000000000     
100   62911028202280200000000000037736000000037736002000000010410407060848490975424773800706218708097542   1030000600030000   554100000946315799420000471DENKO BAHAN            YANGON        MMR11007060848490975420706000000000000000   10300001 00104100000000001132000000000000     
100   62911028202154800000000000055211000000055211002000000010410407061106496747404773800706218718674740   1040001600030000   598320000856000000010000609Terminal Petrol Statio Yangon        MMR11007061106496747400706000000000000000   10300001F00104100000000001656000000000000     
100   95050319525934530000000000038800000000038800002000000010410407070232410241409333320707000007453677   1030000200030000   333800010001203104000003327KBZPay                 Yangon        MMR11007070232410241400707000000000000000   10300001F05104100000000008148000000000000     
100   95050314302558730000000000002970000000002970002000000010410407070534470447606717200707000007455172   1020000200030000   333400010001204104000000281Myanmar Soft-Gate Tech Yangon        MMR11007070534470447600707000000000000000   10300001F05104100000000000624000000000000     
100   95050315259054570000000000000990000000000990002000000010410407071533500350284271270707000007458502   1020000200030000   333400010001204104000000281Myanmar Soft-Gate Tech Yangon        MMR11007071533500350280707000000000000000   10300001F05104100000000000208000000000000     
100   62443100390038980000000000050000000000050000002000000010410407070055152515260269380707000007453321   1030000200030000   333800010001203104000003327KBZPay                 Yangon        MMR11007070055152515260707000000000000000   10300001F05104100000000010500000000000000     
100   62443101006037900000000000050000000000050000002000000010410407070356482648052852210707000007454373   1030000300030000   333300010001206104000002147DICA Company Limited   Yangon        MMR11007070356482648050707000000000000000   10300001F05104100000000010000000000000000     
100   62911028202708080000000000100000000000100000002000000010410407070534360436564773800707000007455169   1030000200030000   333800010001203104000003327KBZPay                 Yangon        MMR11007070534360436560707000000000000000   10300001F05104100000000021000000000000000     
100   95050313128773800000000000100000000000100000002000000010410407071134370437581803470707000007457635   1030000200030000   333800010001203104000003327KBZPay                 Yangon        MMR11007071134370437580707000000000000000   10300001F05104100000000021000000000000000     
100   62911028202150190000000000003400000000003400002000000010410407070713390654334773800707774431339187   1030000900030000   541119000162190110000000084Pro (1) Global (Pazund YANGONARTAUNG MMR11007070713390654330707000000000000000   10300001F00104100000000000204000000000000     
100   95050328855407440000000000004400000000004400002000000010410407071033470709404293130707498031747187   1030000900030000   541119001075190110000000872Sein Gay Har Hledan    YANGONUT      MMR11007071033470709400707000000000000000   10300001F00104100000000001100000000000000     
100   95050315889680120000000000003018000000003018002000000010410407070843331333205824860707000007456618   1030000200030000   333800010001203104000003327KBZPay                 Yangon        MMR11007070843331333200707000000000000000   10300001F05104100000000000634000000000000     
100   95050313145843230000000000105000000000105000002000000010410407070942511251318534160707000007457058   1030000200030000   333800010001203104000003327KBZPay                 Yangon        MMR11007070942511251310707000000000000000   10300001F05104100000000022050000000000000     
100   95050317072727910000000000000990000000000990002000000010410407070912244224418363960707000007456836   1020000200030000   333400010001204104000000281Myanmar Soft-Gate Tech Yangon        MMR11007070912244224410707000000000000000   10300001F05104100000000000208000000000000     
100   62911028202150190000000000024500000000024500002000000010410407070704320652024773800707652341332187   1030000900030000   541119000881190110000000084Pro (1) Global (Pazund YANGONARTAUNG MMR11007070704320652020707000000000000000   10300001F00104100000000001470000000000000     
100   95050325095525130000000000300000000000300000002000000010410407071245111511401633280707000007457931   1030000200030000   333800010001203104000003327KBZPay                 Yangon        MMR11007071245111511400707000000000000000   10300001F05104100000000063000000000000000     
100   95050317072727910000000000000990000000000990002000000010410407070301163116747675120707000007453868   1020000200030000   333400010001204104000000281Myanmar Soft-Gate Tech Yangon        MMR11007070301163116740707000000000000000   10300001F05104100000000000208000000000000     
100   95050312695033440000000000002970000000002970002000000010410407071203503350787101310707000007457771   1020000200030000   333400010001204104000000281Myanmar Soft-Gate Tech Yangon        MMR11007071203503350780707000000000000000   10300001F05104100000000000624000000000000     
100   95050314749068520000000000021200000000021200002000000010410407071254512451772690090707000007457974   1030000300030000   333300010001206104000001685MM Bus Ticket          Yangon        MMR11007071254512451770707000000000000000   10300001F05104100000000010000000000000000     
100   62911028202150190000000000050000000000050000002000000010410407070605410637324773800707927351241187   1030000900030000   554119000347190110000000214New Day Energy MTN     YANGONARTAUNG MMR11007070605410637320707000000000000000   10300001F00104100000000001500000000000000     
100   62911028202112400000000000012000000000012000002000000010410407071332160754164773800707926022016187   1030000900030000   541119000112190110000000077Sein Gay Har Chinatown YANGON        MMR11007071332160754160707000000000000000   10300001F00104100000000000720000000000000     
100   62911028202150190000000000005800000000005800002000000010410407070710560653584773800707731401356187   1030000900030000   541119000162190110000000084Pro (1) Global (Pazund YANGONARTAUNG MMR11007070710560653580707000000000000000   10300001F00104100000000000348000000000000     
100   95050317176867660000000000001980000000001980002000000010410407071354262426602860280707000007458211   1020000200030000   333400010001204104000000281Myanmar Soft-Gate Tech Yangon        MMR11007071354262426600707000000000000000   10300001F05104100000000000416000000000000     
100   95050314692738880000000000002970000000002970002000000010410407071405123512262775180707000007458265   1020000200030000   333400010001204104000000281Myanmar Soft-Gate Tech Yangon        MMR11007071405123512260707000000000000000   10300001F05104100000000000624000000000000     
100   95050319978637470000000000005000000000005000002000000010410407070604453445141078980707000007455410   1030000200030000   3338000100012031040000040022C2P (Myanmar) Co. Ltd Yangon        MMR11007070604453445140707000000000000000   10300001F05104100000000001050000000000000     
100   95050315122972560000000000002970000000002970002000000010410407071300393039942604990707000007458006   1020000200030000   333400010001204104000000281Myanmar Soft-Gate Tech Yangon        MMR11007071300393039940707000000000000000   10300001F05104100000000000624000000000000     
100   95050310494988230000000000020000000000020000002000000010410407070256382638047419830707000007453836   1030000200030000   333800010001203104000003327KBZPay                 Yangon        MMR11007070256382638040707000000000000000   10300001F05104100000000004200000000000000     
100   95050322158563070000000000010500000000010500002000000010410407071047020713132654440707699171702187   1030000900030000   541119001355190110000000977Ocean PZD C9           YANGONAUNG    MMR11007071047020713130707000000000000000   10300001F00104100000000002625000000000000     
100   62443100323428970000000000030400000000030400002000000010410407071107480719274136730707042371748187   1030000900030000   541119001208190110000000948City Mart YK C 6       YANGONAUNG    MMR11007071107480719270707000000000000000   10300001F00104100000000007600000000000000     
100   95050312498129060000000000003960000000003960002000000010410407070859162916830101540707000007456743   1020000200030000   333400010001204104000000281Myanmar Soft-Gate Tech Yangon        MMR11007070859162916830707000000000000000   10300001F05104100000000000832000000000000     
100   95030301100081330000000000004400000000004400002000000010410407070339460421604773800707094640048095   1040001400030000   541110000369025411100002149Sein Daung Super Store Sein Daung Su MMR11007070339460421600707000000000000000   10300001 00104100000000000264000000000000     
100   95030304441505280000000005079962000005079962002000000010410407070747131713344773800707000007456235   1010000100030000   333500010001212104000003087Internal Revenue Depar Yangon        MMR11007070747131713340707000000000000000   10300001F05104100000000060000000000000000     
100   95050316949180000000000000000990000000000990002000000010410407071600003000545923750707000007458566   1020000200030000   333400010001204104000000281Myanmar Soft-Gate Tech Yangon        MMR11007071600003000540707000000000000000   10300001F05104100000000000208000000000000     
100   95050318608138520000000000001820000000001820002000000010410407071503113311417576230707000007458416   1030000200030000   333800010001203104000003327KBZPay                 Yangon        MMR11007071503113311410707000000000000000   10300001F05104100000000000382000000000000     
100   95050312280776950000000000020000000000020000002000000010410407061734030403163574340707000007453061   1030000200030000   3338000100012031040000040022C2P (Myanmar) Co. Ltd Yangon        MMR11007061734030403160707000000000000000   10300001F05104100000000004200000000000000     
100   95050324082484780000000000018150000000018150002000000010410407071324090752386250340707828541909187   1030000900030000   541119001301190110000000968Ocean Mingalar MDY C 9 MANDALAYHARSI MMR11007071324090752380707000000000000000   10300001F00104100000000004538000000000000     
100   95050328137327770000000000050000000000050000002000000010410407070151022102198106320707000007453521   1030000200030000   333800010001203104000003327KBZPay                 Yangon        MMR11007070151022102190707000000000000000   10300001F05104100000000010500000000000000     
100   95050312498129060000000000004950000000004950002000000010410407071348231823271207800707000007458194   1020000200030000   333400010001204104000000281Myanmar Soft-Gate Tech Yangon        MMR11007071348231823270707000000000000000   10300001F05104100000000001040000000000000     
100   95050310427855490000000000001980000000001980002000000010410407071248231823833285760707000007457942   1020000200030000   333400010001204104000000281Myanmar Soft-Gate Tech Yangon        MMR11007071248231823830707000000000000000   10300001F05104100000000000416000000000000     
100   95050317621139300000000000020027000000020027002000000010410407070713100654234518480707767431310187   1030000900030000   541119001327190110000000971Ocean Junction NPT C 5 NAYPYITAW     MMR11007070713100654230707000000000000000   10300001F00104100000000005007000000000000     
100   95050328855407440000000000003950000000003950002000000010410407071038370710699094180707563081737187   1030000900030000   541119001078190110000000872Sein Gay Har Hledan    YANGONONE     MMR11007071038370710690707000000000000000   10300001F00104100000000000988000000000000     
100   62911028202593140000000000052470000000052470002000000010410407071442540766404773800707449122154187   1030000900030000   581319001590190110000001158The Strip Yangon       YANGON        MMR11007071442540766400707000000000000000   10300001F00104100000000005352000000000000     
100   95050312695033440000000000004950000000004950002000000010410407070710534053856851740707000007455940   1020000200030000   333400010001204104000000281Myanmar Soft-Gate Tech Yangon        MMR11007070710534053850707000000000000000   10300001F05104100000000001040000000000000     
100   95030301954234130000000000030000000000030000002000000010410407070753132313624773800707000007456268   1030000200030000   333800010001203104000003327KBZPay                 Yangon        MMR11007070753132313620707000000000000000   10300001F05104100000000006300000000000000     
100   95050325095525130000000000300000000000300000002000000010410407071303153315619300020707000007458001   1030000200030000   333800010001203104000003327KBZPay                 Yangon        MMR11007071303153315610707000000000000000   10300001F05104100000000063000000000000000     
100   95050316377977350000000000010000000000010000002000000010410407070604543454372731460707000007455397   1040001600030000   333800010001220104000004507A +                    Yangon        MMR11007070604543454370707000000000000000   10300001F05104100000000002100000000000000     
100   95050317518971470000000000010000000000010000002000000010410407070211244124865773060707000007453585   1030000200030000   3338000100012031040000040022C2P (Myanmar) Co. Ltd Yangon        MMR11007070211244124860707000000000000000   10300001F05104100000000002100000000000000     
