100   62911028202151340000000000019000000000019000002000000010410407101011470001724773800710000749905100   1030000200030000   509488002507000008000006709KBZ BANK               SHWE SAN EAIN MMR11007101011470001720710000000000000000   10300001 00104100000000001900000000000000     
100   95030301100081330000000000023000000000023000002000000010410407100520460003804773800710000749890750   1030000200030000   504688002440000008000006506KBZ BANK               MARY NAYPYIDA MMR11007100520460003800710000000000000000   10300001 00104100000000001380000000000000     
100   95050313732480420000000000002970000000002970002000000010410407100830250025595770700710000007469838   1020000200030000   333400010001204104000000281Myanmar Soft-Gate Tech Yangon        MMR11007100830250025590710000000000000000   10300001F05104100000000000624000000000000     
100   62911028202313470000000000051943000000051943002000000010410407101720100235174773800710000749907020   1030000200030000   541188001054000008000000314KBZ BANK               MARKETPLACE - MMR11007101720100235170710000000000000000   10300001 00104100000000003117000000000000     
100   95050315752234130000000000046619000000046619002000000010410407101125580039880934000710000749889906   1030000200030000   541188001454000008000000391KBZ BANK               OCEAN SUPER C MMR11007101125580039880710000000000000000   10300001 00104100000000011655000000000000     
100   95050319067144780000000000023150000000023150002000000010410407101637050047745954690710000749904839   1030000200030000   541188001428000008000000401KBZ BANK               OCEAN SUPERCE MMR11007101637050047740710000000000000000   10300001 00104100000000005788000000000000     
100   62911028202116950000000000008300000000008300002000000010410407101601570138994773800710000749903038   1030000200030000   541188001065000008000000314KBZ BANK               MARKETPLACE - MMR11007101601570138990710000000000000000   10300001 00104100000000000498000000000000     
100   62911028202366010000000000051950000000051950002000000010410407100525420020034773800710219111002003   1020000200030000   541100255007300115411000025MWD BANK               YGN           MMR11007100525420020030710000000000000000   10300001 00104100000000003117000000000000     
100   62443100355445150000000000134200000000134200002000000010410407100320180021926402030710000749886261   1030000200030000   599988000602000008000003445KBZ BANK               SWEETY HOME ( MMR11007100320180021920710000000000000000   10300001 00104100000000032208000000000000     
100   62911028202907490000000000045944000000045944002000000010410407101411180019494773800710000749897361   1030000200030000   541188001010000008000000008KBZ BANK               MARKETPLACE - MMR11007101411180019490710000000000000000   10300001 00104100000000002757000000000000     
100   62911028202150190000000000031100000000031100002000000010410407101800480107954773800710000749908857   1030000200030000   541188001006000008000000008KBZ BANK               MARKETPLACE - MMR11007101800480107950710000000000000000   10300001 00104100000000001866000000000000     
100   95050318458849030000000000010000000000010000002000000010410407100829500012119075670710000749899765   1030000200030000   799381230908000008000000989KBZ BANK               ARCADE HERO A MMR11007100829500012110710000000000000000   10300001 00104100000000002400000000000000     
100   95050312160676580000000000010500000000010500002000000010410407100530380038333827280710000007469220   1030000200030000   333800010001203104000003327KBZPay                 Yangon        MMR11007100530380038330710000000000000000   10300001F05104100000000002205000000000000     
100   62443101037081820000000000029859000000029859002000000010410407101812570058518834170710000749909380   1030000200030000   541188001066000008000000314KBZ BANK               MARKETPLACE - MMR11007101812570058510710000000000000000   10300001 00104100000000007465000000000000     
100   62911028202909050000000000002600000000002600002000000010410407101325400234784773800710000749895221   1030000200030000   541188001054000008000000314KBZ BANK               MARKETPLACE - MMR11007101325400234780710000000000000000   10300001 00104100000000000156000000000000     
100   95050322158563070000000000131600000000131600002000000010410407100703000033926962050710000749895541   1030000200030000   581288001737000008000005244KBZ BANK               SEAFOOD CITY  MMR11007100703000033920710000000000000000   10300001 00104100000000055930000000000000     
100   62443100357321690000000000063645000000063645002000000010410407091106370007435927110709000354578287   1030000300030000   541100000444000000000000319CB BANK                ONESTOP KITCH MMR11007091106370007430709000000000000000   10300001F00104100000000015912000000000000     
100   62911028202533900000000000040000000000040000002000000010410407090203390008664773800709219008000866   1030000500030000   598320002101000015172200021MAX ENERGY             PTN           MMR11007090203390008660709000000000000000   10300001 00104100000000001200000000000000     
100   95050315955808830000000000050000000000050000002000000010410407091145040010675586720709219018001067   1030000500030000   598320001103000015172200011MAX ENERGY             PTN           MMR11007091145040010670709000000000000000   10300001 00104100000000006000000000000000     
100   95050324622440820000000000035000000000035000002000000010410407090316570003685422240709219009000368   1030000500030000   503920036606000015039200366PRO-1 HOME CENTER      PTN           MMR11007090316570003680709000000000000000   10300001 00104100000000008400000000000000     
100   62911028202313470000000000023532000000023532002000000010410407090926500004924773800709219015000492   1030000500030000   541120227606000045411202276CITY MART ( 47 BRANCH  PTN           MMR11007090926500004920709000000000000000   10300001 00104100000000001412000000000000     
100   62911028202919290000000000023000000000023000002000000010410407091234190003574773800709219019000357   1030000500030000   531120156004000045311201560GAMONE PWINT           PTN           MMR11007091234190003570709000000000000000   10300001 00104100000000001380000000000000     
100   95050326154591400000000000006200000000006200002000000010410407090416560000930039310709219010000093   1030000500030000   581220064101000015812200641KRISPY KREME           PTN           MMR11007090416560000930709000000000000000   10300001 00104100000000002635000000000000     
100   95030308100042590000000000027000000000027000002000000010410407091136020004534773800709219018000453   1030000500030000   598320001701000015172200017MAX ENERGY             PTN           MMR11007091136020004530709000000000000000   10300001 00104100000000000810000000000000     
100   95050310794962000000000000023250000000023250002000000010410407090913380006426778070709219015000642   1030000500030000   531120231217000045311202312OCEAN OATTARA THIRI    PTN           MMR11007090913380006420709000000000000000   10300001 00104100000000005580000000000000     
100   62443101083052160000000000565400000000565400002000000010410407090616060007040854620709219012000704   1030000500030000   503920036604000015039200366PRO-1 HOME CENTER      PTN           MMR11007090616060007040709000000000000000   10300001 00104100000000135696000000000000     
100   62443100375796910000000000061500000000061500002000000010410407091156050008758806590709219018000875   1030000500030000   598320002003000015172200020MAX ENERGY             PTN           MMR11007091156050008750709000000000000000   10300001 00104100000000007380000000000000     
100   62911028202708080000000000074450000000074450002000000010410407090446550010074773800709219011001007   1030000500030000   541120231305000045411202313CITY MART (AYEYARWON)  PTN           MMR11007090446550010070709000000000000000   10300001 00104100000000004467000000000000     
100   62911028202313470000000000032000000000032000002000000010410407090654150000414773800709219013000041   1030000500030000   806220046403006308062200464ASIA ROYAL HOSPITAL    PTN           MMR11007090654150000410709000000000000000   10300001 00104100000000001920000000000000     
100   95050311076838860000000000002400000000002400002000000010410407090824570010738436270709219014001073   1030000500030000   541120226814000045411202268CITY MART WAIZAYANDA   PTN           MMR11007090824570010730709000000000000000   10300001 00104100000000000600000000000000     
100   95050314365758940000000000003588000000003588002000000010410407091115230006252537040709219017000625   1030000500030000   541120203802000015411202038CITY MART SUPERMARKET  PTN           MMR11007091115230006250709000000000000000   10300001 00104100000000000897000000000000     
100   62911028202313470000000000060000000000060000002000000010410407090808460007574773800709219014000757   1030000500030000   598320001603000015172200016MAX ENERGY             PTN           MMR11007090808460007570709000000000000000   10300001 00104100000000001800000000000000     
100   62443100318296470000000000020000000000020000002000000010410407091059090010330969650709000354577230   1030000300030000   598300001209000000000000817CB BANK                SHWE TAUNG EN MMR11007091059090010330709000000000000000   10300001F00104100000000002400000000000000     
100   95050316901496590000000000004900000000004900002000000010410407090758240001089833460709219014000108   1030000500030000   541120045801009205411200458126 STORE              PTN           MMR11007090758240001080709000000000000000   10300001 00104100000000001225000000000000     
100   62443100343312450000000000013500000000013500002000000010410407090130530022209237790709219008002220   1030000500030000   541120226809000045411202268CITY MART WAIZAYANDA   PTN           MMR11007090130530022200709000000000000000   10300001 00104100000000003375000000000000     
100   95050316573091630000000000017578000000017578002000000010410407091324440023013692730709219019002301   1030000500030000   541120226809000045411202268CITY MART WAIZAYANDA   PTN           MMR11007091324440023010709000000000000000   10300001 00104100000000004395000000000000     
100   62911028202616250000000000179650000000179650002000000010410407090736090023214773800709219014002321   1030000500030000   531120226305000045311202263OCEAN SUPER CENTER STJ PTN           MMR11007090736090023210709000000000000000   10300001 00104100000000010779000000000000     
100   95050324250133010000000000024400000000024400002000000010410407090253360018038471920709219009001803   1030000500030000   541120226204000045411202262CITY MART ZAWANA       PTN           MMR11007090253360018030709000000000000000   10300001 00104100000000006100000000000000     
100   95030308100042590000000000014400000000014400002000000010410407090557490031444773800709000354533405   1030000300030000   581400000692000000000000478CB BANK                KFC PARAMI SG MMR11007090557490031440709000000000000000   10300001F00104100000000000432000000000000     
100   95050313640946520000000000023600000000023600002000000010410407090444470015033259180709219011001503   1030000500030000   541120229106000045411202291CITY MART YANKIN       PTN           MMR11007090444470015030709000000000000000   10300001 00104100000000005900000000000000     
100   62443100300412100000000000010400000000010400002000000010410407091510140053931741240709000749855152   1030000200030000   541188001035000008000000010KBZ BANK               MARKETPLACE - MMR11007091510140053930709000000000000000   10300001 00104100000000002600000000000000     
100   62443100390038980000000000070200000000070200002000000010410407091303480064025345220709000354594563   1030000300030000   581200003057000000000002149CB BANK                SORABOL KOREA MMR11007091303480064020709000000000000000   10300001F00104100000000029835000000000000     
100   62911028202417260000000000029000000000029000002000000010410407091233120011494773800709219019001149   1030000500030000   598320001402000015172200014MAX ENERGY             PTN           MMR11007091233120011490709000000000000000   10300001 00104100000000000870000000000000     
100   62911028202110420000000000059372000000059372002000000010410407090423150019114773800709219010001911   1030000500030000   541120229104000045411202291CITY MART YANKIN       PTN           MMR11007090423150019110709000000000000000   10300001 00104100000000003562000000000000     
100   62911028202169750000000000011600000000011600002000000010410407090839570021194773800709219015002119   1030000500030000   541120226804000045411202268CITY MART WAIZAYANDA   PTN           MMR11007090839570021190709000000000000000   10300001 00104100000000000696000000000000     
100   95050310833306920000000000017000000000017000002000000010410407090924410033240508520709000354563518   1030000300030000   531100000747000000000000408CB BANK                CAPITAL HYPER MMR11007090924410033240709000000000000000   10300001F00104100000000004080000000000000     
100   95050318710290270000000000018600000000018600002000000010410407091722090222853217810709000749862435   1030000200030000   541188001075000008000000294KBZ BANK               CITY MART - J MMR11007091722090222850709000000000000000   10300001 00104100000000004650000000000000     
100   95050318710290270000000000011900000000011900002000000010410407091723160222862707230709000749862491   1030000200030000   541188001075000008000000294KBZ BANK               CITY MART - J MMR11007091723160222860709000000000000000   10300001 00104100000000002975000000000000     
100   95030346179196360000000000054000000000054000002000000010410407090527328791544773800709219012879154   1040001600030000   598320000856000000010000609Terminal Petrol Statio Yangon        MMR11007090527328791540709000000000000000   10300001F00104100000000001620000000000000     
100   95050316377977350000000000010000000000010000002000000010410407100154402440211870060710000007468500   1040001600030000   333800010001220104000004507A +                    Yangon        MMR11007100154402440210710000000000000000   10300001F05104100000000002100000000000000     
100   95050317084233280000000000000990000000000990002000000010410407100458022802982586480710000007469108   1020000200030000   333400010001204104000000281Myanmar Soft-Gate Tech Yangon        MMR11007100458022802980710000000000000000   10300001F05104100000000000208000000000000     
100   95050315017843630000000000005000000000005000002000000010410407101346071607736415820710000007470882   1040001600030000   333800010001220104000004507A +                    Yangon        MMR11007101346071607730710000000000000000   10300001F05104100000000001050000000000000     
100   95050321688266460000000000110000000000110000002000000010410407100148181818306827510710000007468482   1030000200030000   333800010001203104000003327KBZPay                 Yangon        MMR11007100148181818300710000000000000000   10300001F05104100000000023100000000000000     
100   95050314567755980000000000018200000000018200002000000010410407101227075707823706530710000007470611   1030000200030000   333800010001203104000003327KBZPay                 Yangon        MMR11007101227075707820710000000000000000   10300001F05104100000000003822000000000000     
100   95050312498129060000000000002970000000002970002000000010410407101247101710121458370710000007470684   1020000200030000   333400010001204104000000281Myanmar Soft-Gate Tech Yangon        MMR11007101247101710120710000000000000000   10300001F05104100000000000624000000000000     
100   95050310427855490000000000003960000000003960002000000010410407101418454845836330720710000007470990   1020000200030000   333400010001204104000000281Myanmar Soft-Gate Tech Yangon        MMR11007101418454845830710000000000000000   10300001F05104100000000000832000000000000     
100   62911028202448030000000000030000000000030000002000000010410407100726379647984773800710219114964798   1040001600030000   598320000658000000010000527Shwe Taung Energy (YGN Yangon        MMR11007100726379647980710000000000000000   10300001F00104100000000000900000000000000     
100   95050316272163320000000000002970000000002970002000000010410407100546141614300692500710000007469266   1020000200030000   333400010001204104000000281Myanmar Soft-Gate Tech Yangon        MMR11007100546141614300710000000000000000   10300001F05104100000000000624000000000000     
100   95050329720648480000000000100000000000100000002000000010410407100745331533694798990710000007469693   1030000200030000   333800010001203104000003327KBZPay                 Yangon        MMR11007100745331533690710000000000000000   10300001F05104100000000021000000000000000     
100   62911028202448030000000000008250000000008250002000000010410407101232221503844773800710550021922190   1030000900030000   581219001473190110000001070Lyfe Coffee House      YANGON        MMR11007101232221503840710000000000000000   10300001F00104100000000000842000000000000     
100   95050318601641810000000000000990000000000990002000000010410407091922435243272125350710000007468262   1020000200030000   333400010001204104000000281Myanmar Soft-Gate Tech Yangon        MMR11007091922435243270710000000000000000   10300001F05104100000000000208000000000000     
100   95050314430707800000000000007850000000007850002000000010410407100512569556214153870710219112955621   1040001600030000   541120000553000000010000465Ocean Shwe Gone Daing  Yangon        MMR11007100512569556210710000000000000000   10300001F00104100000000001963000000000000     
100   95050316601084530000000000001980000000001980002000000010410407100415344534485636160710000007468962   1020000200030000   333400010001204104000000281Myanmar Soft-Gate Tech Yangon        MMR11007100415344534480710000000000000000   10300001F05104100000000000416000000000000     
100   95050312498129060000000000005940000000005940002000000010410407101206513651257011490710000007470547   1020000200030000   333400010001204104000000281Myanmar Soft-Gate Tech Yangon        MMR11007101206513651250710000000000000000   10300001F05104100000000001247000000000000     
100   95050322312197120000000000050000000000050000002000000010410407101419254925601373270710000007470993   1030000200030000   333800010001203104000003327KBZPay                 Yangon        MMR11007101419254925600710000000000000000   10300001F05104100000000010500000000000000     
100   95050320897979420000000000300000000000300000002000000010410407100228105810595004840710000007468601   1030000200030000   333800010001203104000003327KBZPay                 Yangon        MMR11007100228105810590710000000000000000   10300001F05104100000000063000000000000000     
100   62443100371022130000000000040003000000040003002000000010410407100801549669378103960710219115966937   1040001600030000   598320000911000000010000662MMTM - Tamwe           Ygn           MMR11007100801549669370710000000000000000   10300001F00104100000000004800000000000000     
100   62911028202105150000000000065682000000065682002000000010410407100454289544404773800710219111954440   1040001600030000   541120000553000000010000465Ocean Shwe Gone Daing  Yangon        MMR11007100454289544400710000000000000000   10300001F00104100000000003941000000000000     
100   62911028202150190000000000011340000000011340002000000010410407101058311481704773800710257281731190   1030000900030000   591219001401190110000001005Life Plus Store 1      YANGON        MMR11007101058311481700710000000000000000   10300001F00104100000000000680000000000000     
100   95030306100096490000000000000990000000000990002000000010410407100947251725914773800710000007470076   1020000200030000   333400010001204104000000281Myanmar Soft-Gate Tech Yangon        MMR11007100947251725910710000000000000000   10300001F05104100000000000208000000000000     
100   95050327883696130000000000140000000000140000002000000010410407100302083208789366610710000007468712   1030000200030000   333800010001203104000003327KBZPay                 Yangon        MMR11007100302083208780710000000000000000   10300001F05104100000000029400000000000000     
100   95050311121153200000000000000990000000000990002000000010410407100358312831559026230710000007468920   1020000200030000   333400010001204104000000281Myanmar Soft-Gate Tech Yangon        MMR11007100358312831550710000000000000000   10300001F05104100000000000208000000000000     
100   95050314752934410000000000009900000000009900002000000010410407101226255625052054040710000007470608   1020000200030000   333400010001204104000000281Myanmar Soft-Gate Tech Yangon        MMR11007101226255625050710000000000000000   10300001F05104100000000002079000000000000     
100   95050314307746340000000000000990000000000990002000000010410407100319284928788054510710000007468783   1020000200030000   333400010001204104000000281Myanmar Soft-Gate Tech Yangon        MMR11007100319284928780710000000000000000   10300001F05104100000000000208000000000000     
100   62443100313002190000000000025000000000025000002000000010410407100715484548721323830710000007469570   1030000200030000   333800010001203104000003327KBZPay                 Yangon        MMR11007100715484548720710000000000000000   10300001F05104100000000005250000000000000     
100   95050312695033440000000000000990000000000990002000000010410407101418074807744678240710000007470988   1020000200030000   333400010001204104000000281Myanmar Soft-Gate Tech Yangon        MMR11007101418074807740710000000000000000   10300001F05104100000000000208000000000000     
100   95050312240830690000000000002970000000002970002000000010410407100229375937516657320710000007468607   1020000200030000   333400010001204104000000281Myanmar Soft-Gate Tech Yangon        MMR11007100229375937510710000000000000000   10300001F05104100000000000624000000000000     
100   95050322426452690000000000049000000000049000002000000010410407100256359476171189290710219109947617   1040001600030000   598320000320000000010000308PT Power Petrol Statio Yangon        MMR11007100256359476170710000000000000000   10300001F00104100000000005880000000000000     
100   62911028202595200000000000061893000000061893002000000010410407100729209649624773800710219114964962   1040001600030000   598320001170000000010000527Shwe Taung Energy (YGN Yangon        MMR11007100729209649620710000000000000000   10300001F00104100000000001857000000000000     
100   62443100330108240000000000000990000000000990002000000010410407100052302230614834640710000007468404   1020000200030000   333400010001204104000000281Myanmar Soft-Gate Tech Yangon        MMR11007100052302230610710000000000000000   10300001F05104100000000000208000000000000     
100   95050319709462380000000000000990000000000990002000000010410407100626305630164969180710000007469424   1020000200030000   333400010001204104000000281Myanmar Soft-Gate Tech Yangon        MMR11007100626305630160710000000000000000   10300001F05104100000000000208000000000000     
100   62911028202369990000000000100000000000100000002000000010410407101629455945254773800710000007471331   1030000200030000   333800010001203104000003327KBZPay                 Yangon        MMR11007101629455945250710000000000000000   10300001F05104100000000021000000000000000     
100   95050316377977350000000000001000000000001000002000000010410407100201193119488480000710000007468515   1030000200030000   3338000100012031040000040022C2P (Myanmar) Co. Ltd Yangon        MMR11007100201193119480710000000000000000   10300001F05104100000000000210000000000000     
100   95050328303533000000000000005000000000005000002000000010410407100351292129129536800710000007468904   1030000200030000   3334000100012031040000040102C2P (Myanmar) Co. Ltd Yangon        MMR11007100351292129120710000000000000000   10300001F05104100000000001050000000000000     
100   95050310322713510000000000025000000000025000002000000010410407100156052605091784960710000007468504   1030000200030000   333800010001203104000003327KBZPay                 Yangon        MMR11007100156052605090710000000000000000   10300001F05104100000000005250000000000000     
100   95030301100319290000000000004950000000004950002000000010410407100414014401984773800710000007468960   1020000200030000   333400010001204104000000281Myanmar Soft-Gate Tech Yangon        MMR11007100414014401980710000000000000000   10300001F05104100000000001040000000000000     
100   95050313411345710000000000000990000000000990002000000010410407101059032903760231360710000007470313   1020000200030000   333400010001204104000000281Myanmar Soft-Gate Tech Yangon        MMR11007101059032903760710000000000000000   10300001F05104100000000000208000000000000     
100   95050312498129060000000000000990000000000990002000000010410407100059572957783182160710000007468421   1020000200030000   333400010001204104000000281Myanmar Soft-Gate Tech Yangon        MMR11007100059572957780710000000000000000   10300001F05104100000000000208000000000000     
100   95050317003064220000000000004950000000004950002000000010410407100302213221114409160710000007468715   1020000200030000   333400010001204104000000281Myanmar Soft-Gate Tech Yangon        MMR11007100302213221110710000000000000000   10300001F05104100000000001040000000000000     
100   95050314430707800000000000110350000000110350002000000010410407100453149543688856040710219111954368   1040001600030000   541120000571000000010000465Ocean Shwe Gone Daing  Yangon        MMR11007100453149543680710000000000000000   10300001F00104100000000027588000000000000     
100   95050312498129060000000000000990000000000990002000000010410407092357102710853267250710000007468349   1020000200030000   333400010001204104000000281Myanmar Soft-Gate Tech Yangon        MMR11007092357102710850710000000000000000   10300001F05104100000000000208000000000000     
100   62443100392426520000000000010000000000010000002000000010410407100052422242596487120710000007468406   1030000200030000   333800010001203104000003327KBZPay                 Yangon        MMR11007100052422242590710000000000000000   10300001F05104100000000002100000000000000     
100   62911028202204490000000000067000000000067000002000000010410407090301100011874773800709219009001187   1030000500030000   598320001202000015172200012MAX ENERGY             PTN           MMR11007090301100011870709000000000000000   10300001 00104100000000002010000000000000     
100   95050325095525130000000000100000000000100000002000000010410407101158012801865444100710000007470520   1030000200030000   333800010001203104000003327KBZPay                 Yangon        MMR11007101158012801860710000000000000000   10300001F05104100000000021000000000000000     
100   95050312160676580000000000002970000000002970002000000010410407100914204420822635920710000007469970   1020000200030000   333400010001204104000000281Myanmar Soft-Gate Tech Yangon        MMR11007100914204420820710000000000000000   10300001F05104100000000000624000000000000     
100   95030333478847140000000000012975000000012975002000000010410407091136280005924773800709219018000592   1030000500030000   581220248501000085812202485CHILLI POT MALA XIANG  PTN           MMR11007091136280005920709000000000000000   10300001 00104100000000001323000000000000     
100   62911028202709150000000000010800000000010800002000000010410407101026010229504773800710000749887556   1030000200030000   541188001070000008000000314KBZ BANK               MARKETPLACE - MMR11007101026010229500710000000000000000   10300001 00104100000000000648000000000000     
100   95050323233042810000000000000990000000000990002000000010410407101530130013537983210710000007471215   1020000200030000   333400010001204104000000281Myanmar Soft-Gate Tech Yangon        MMR11007101530130013530710000000000000000   10300001F05104100000000000208000000000000     
100   62911028202440680000000000008100000000008100002000000010410407100929330111534773800710000749885529   1030000200030000   541188001088000008000000294KBZ BANK               CITY MART - J MMR11007100929330111530710000000000000000   10300001 00104100000000000486000000000000     
100   95050322921717110000000000040033000000040033002000000010410407100938420145105976550710000749885828   1030000200030000   541188001002000008000000008KBZ BANK               MARKETPLACE - MMR11007100938420145100710000000000000000   10300001 00104100000000010009000000000000     
100   62911028202228250000000000004250000000004250002000000010410407101338040138864773800710000749895748   1030000200030000   541188001065000008000000314KBZ BANK               MARKETPLACE - MMR11007101338040138860710000000000000000   10300001 00104100000000000255000000000000     
100   62911028202366010000000000054090000000054090002000000010410407100502110034414773800710219111003441   1020000200030000   541100255004300115411000025MWD BANK               YGN           MMR11007100502110034410710000000000000000   10300001 00104100000000003245000000000000     
100   95050315752234130000000000010950000000010950002000000010410407101052510030490593610710000749888492   1030000200030000   541188001474000008000000391KBZ BANK               OCEAN SUPER C MMR11007101052510030490710000000000000000   10300001 00104100000000002738000000000000     
100   62443100392773440000000000130300000000130300002000000010410407101503000065187423190710000749899929   1030000200030000   541188001004000008000000008KBZ BANK               MARKETPLACE - MMR11007101503000065180710000000000000000   10300001 00104100000000032575000000000000     
100   95050313732480420000000000002970000000002970002000000010410407100316564656241019090710000007468771   1020000200030000   333400010001204104000000281Myanmar Soft-Gate Tech Yangon        MMR11007100316564656240710000000000000000   10300001F05104100000000000624000000000000     
100   95050311959900780000000000000990000000000990002000000010410407100445011501097203550710000007469062   1020000200030000   333400010001204104000000281Myanmar Soft-Gate Tech Yangon        MMR11007100445011501090710000000000000000   10300001F05104100000000000208000000000000     
100   95050316785465380000000000000990000000000990002000000010410407101420515051303025750710000007470997   1020000200030000   333400010001204104000000281Myanmar Soft-Gate Tech Yangon        MMR11007101420515051300710000000000000000   10300001F05104100000000000208000000000000     
100   62443100318296470000000000026200000000026200002000000010410407101049499794830741940710219117979483   1040001600030000   591220000267000000010000255Shwe Ohh Pharmacy (Bah Yangon        MMR11007101049499794830710000000000000000   10300001F00104100000000006288000000000000     
100   95050325925517520000000000029999000000029999002000000010410407101020249766644217100710219117976664   1040001600030000   598320000310000000010000298PT Power Petrol Statio Yangon        MMR11007101020249766640710000000000000000   10300001F00104100000000003600000000000000     
100   95030301954234130000000000050000000000050000002000000010410407100823185318944773800710000007469817   1030000200030000   333800010001203104000003327KBZPay                 Yangon        MMR11007100823185318940710000000000000000   10300001F05104100000000010500000000000000     
100   62443100343196790000000000599000000000599000002000000010410407100949019392762224230710190198515966   1040001400030000   481210000474024812100002004Anycall Mobile null No 196  Terminal MMR11007100949019392760710000000000000000   10300001 00104100000000143760000000000000     
100   62911028202665580000000000030000000000030000002000000010410407100552059584414773800710219112958441   1040001600030000   598320001127000000010000608Terminal Petrol Statio Yangon        MMR11007100552059584410710000000000000000   10300001F00104100000000000900000000000000     
100   95050312498129060000000000001980000000001980002000000010410407101232000200641968940710000007470627   1020000200030000   333400010001204104000000281Myanmar Soft-Gate Tech Yangon        MMR11007101232000200640710000000000000000   10300001F05104100000000000416000000000000     
100   95050312498129060000000000000990000000000990002000000010410407101336030603849805880710000007470851   1020000200030000   333400010001204104000000281Myanmar Soft-Gate Tech Yangon        MMR11007101336030603840710000000000000000   10300001F05104100000000000208000000000000     
100   95050319938772870000000000001980000000001980002000000010410407100235090509701699870710000007468628   1020000200030000   333400010001204104000000281Myanmar Soft-Gate Tech Yangon        MMR11007100235090509700710000000000000000   10300001F05104100000000000416000000000000     
100   95050329185828460000000000080000000000080000002000000010410407101239320932888663970710000007470651   1030000200030000   333800010001203104000003327KBZPay                 Yangon        MMR11007101239320932880710000000000000000   10300001F05104100000000016800000000000000     
100   62443100381661260000000000050000000000050000002000000010410407100742511251144884080710000007469680   1030000200030000   333800010001203104000003327KBZPay                 Yangon        MMR11007100742511251140710000000000000000   10300001F05104100000000010500000000000000     
100   95050327883696130000000000010000000000010000002000000010410407100338420842492926870710000007468862   1030000200030000   333800010001203104000003327KBZPay                 Yangon        MMR11007100338420842490710000000000000000   10300001F05104100000000002100000000000000     
100   62911028202793040000000000002200000000002200002000000010410407101052160271064773800710000749888464   1030000200030000   541188001059000008000000314KBZ BANK               MARKETPLACE - MMR11007101052160271060710000000000000000   10300001 00104100000000000132000000000000     
100   95050311121153200000000000010000000000010000002000000010410407100743421342613146500710000007469682   1030000200030000   333800010001203104000003327KBZPay                 Yangon        MMR11007100743421342610710000000000000000   10300001F05104100000000002100000000000000     
100   62443100381661260000000000050000000000050000002000000010410407100500073007657629030710000007469118   1030000200030000   333800010001203104000003327KBZPay                 Yangon        MMR11007100500073007650710000000000000000   10300001F05104100000000010500000000000000     
100   95050314995854750000000000048650000000048650002000000010410407090654070003259372320709219013000325   1030000500030000   531120155712000045311201557GAMONE PWINT           PTN           MMR11007090654070003250709000000000000000   10300001 00104100000000011676000000000000     
100   95050320531117320000000000006500000000006500002000000010410407090832400000686783780709219015000068   1030000500030000   573220181601000055732201816REMAX                  PTN           MMR11007090832400000680709000000000000000   10300001 00104100000000001560000000000000     
100   62911028202709150000000000033150000000033150002000000010410407101019540057704773800710000749887337   1030000200030000   541188001066000008000000314KBZ BANK               MARKETPLACE - MMR11007101019540057700710000000000000000   10300001 00104100000000001989000000000000     
100   95050322312885760000000000015200000000015200002000000010410407100936330633485940890710000007470034   1030000200030000   333800010001203104000003327KBZPay                 Yangon        MMR11007100936330633480710000000000000000   10300001F05104100000000003192000000000000     
100   62443101023815100000000000017265000000017265002000000010410407091007530016163132710709219016001616   1030000500030000   541120227504000045411202275CITY MART (AHLONE BRAN PTN           MMR11007091007530016160709000000000000000   10300001 00104100000000004317000000000000     
100   62911028202446130000000000015350000000015350002000000010410407101424260170934773800710000749897993   1030000200030000   541188001056000008000000314KBZ BANK               MARKETPLACE - MMR11007101424260170930710000000000000000   10300001 00104100000000000921000000000000     
100   95050324104751500000000000020700000000020700002000000010410407100531461402027047150710393011246190   1030000900030000   541119001207190110000000948City Mart YK C 5       YANGONAUNG    MMR11007100531461402020710000000000000000   10300001F00104100000000005175000000000000     
100   95050325646370920000000000002970000000002970002000000010410407101533000300599635690710000007471221   1020000200030000   333400010001204104000000281Myanmar Soft-Gate Tech Yangon        MMR11007101533000300590710000000000000000   10300001F05104100000000000624000000000000     
100   95030325264619140000000000019900000000019900002000000010410407100511361397544773800710122411136190   1030000900030000   541119000881190110000000084Pro (1) Global (Pazund YANGONARTAUNG MMR11007100511361397540710000000000000000   10300001F00104100000000001194000000000000     
100   95050316785465380000000000000990000000000990002000000010410407100444031403078941130710000007469054   1020000200030000   333400010001204104000000281Myanmar Soft-Gate Tech Yangon        MMR11007100444031403070710000000000000000   10300001F05104100000000000208000000000000     
100   95050311077567400000000000008400000000008400002000000010410407100854341448329416050710114241534190   1030000900030000   541119000148190110000000083SeinGayHarParami Cente YANGON        MMR11007100854341448320710000000000000000   10300001F00104100000000002100000000000000     
100   95050323855563310000000000147600000000147600002000000010410407100409061383755721260710323391006190   1030000900030000   541119001307190110000000968Ocean Mingalar MDY C 1 MANDALAYHARSI MMR11007100409061383750710000000000000000   10300001F00104100000000036900000000000000     
100   62911028202524260000000000104800000000104800002000000010410407100925461456074773800710593551546190   1030000900030000   541119000882190110000000084Pro (1) Global (Pazund YANGONARTAUNG MMR11007100925461456070710000000000000000   10300001F00104100000000006288000000000000     
100   62911028202555020000000000018200000000018200002000000010410407100710291424214773800710655401329190   1030000900030000   541119000115190110000000078Sein Gay Har Kan Thar  YANGONOKKALAP MMR11007100710291424210710000000000000000   10300001F00104100000000001092000000000000     
100   62443100369813440000000000010000000000010000002000000010410407100340461378579621900710062101046190   1030000900030000   554119000346190110000000213New Day Energy SOK     YANGONOKKALAP MMR11007100340461378570710000000000000000   10300001F00104100000000001200000000000000     
100   62911028202221220000000000010000000000010000002000000010410407082329140008014773800709219005000801   1030000500030000   598320001604000015172200016MAX ENERGY             PTN           MMR11007082329140008010709000000000000000   10300001 00104100000000000300000000000000     
100   95050320531117320000000000008900000000008900002000000010410407090825220000330173850709000354555037   1030000300030000   581200002467000000000001664CB BANK                URBAN KITCHEN MMR11007090825220000330709000000000000000   10300001F00104100000000003783000000000000     
100   62443100330108240000000000004950000000004950002000000010410407101339300930238068300710000007470870   1020000200030000   333400010001204104000000281Myanmar Soft-Gate Tech Yangon        MMR11007101339300930230710000000000000000   10300001F05104100000000001040000000000000     
100   95050328074436620000000000038000000000038000002000000010410407090215300012924110140709219008001292   1030000500030000   598320001204000015172200012MAX ENERGY             PTN           MMR11007090215300012920709000000000000000   10300001 00104100000000004560000000000000     
100   62911028202116120000000000014596000000014596002000000010410407090903000001274773800709219015000127   1030000500030000   531120155711000045311201557GAMONE PWINT           PTN           MMR11007090903000001270709000000000000000   10300001 00104100000000000876000000000000     
100   62911028202280200000000000114000000000114000002000000010410407090826060000374773800709219014000037   1030000500030000   591220115701025405912201157MAHARSAN USA STORE     PTN           MMR11007090826060000370709000000000000000   10300001 00104100000000006840000000000000     
100   95050311076838860000000000021354000000021354002000000010410407090821060016888521360709219014001688   1030000500030000   541120226803000045411202268CITY MART WAIZAYANDA   PTN           MMR11007090821060016880709000000000000000   10300001 00104100000000005339000000000000     
100   95050317578818060000000000017800000000017800002000000010410407090616560015859117040709219012001585   1030000500030000   541120226810000045411202268CITY MART WAIZAYANDA   PTN           MMR11007090616560015850709000000000000000   10300001 00104100000000004450000000000000     
100   62911028202472440000000000100690000000100690002000000010410407100546091405564773800710611161209190   1030000900030000   541119001242190110000000955City Mart JS C 1       YANGONUT      MMR11007100546091405560710000000000000000   10300001F00104100000000006041000000000000     
100   62911028202594880000000000058975000000058975002000000010410407100942391460584773800710888121639190   1030000900030000   591219000692190110000000523Shwe Ohh Pharmacy ST-1 YANGON        MMR11007100942391460580710000000000000000   10300001F00104100000000003539000000000000     
100   62911028202151340000000000084180000000084180002000000010410407100850541447344773800710045201554190   1030000900030000   581219001443190110000001047Noodle Bowl Sayarsan   YANGON        MMR11007100850541447340710000000000000000   10300001F00104100000000008586000000000000     
100   62911028202793040000000000019750000000019750002000000010410407101003440182214773800710000749886716   1030000200030000   541188001061000008000000314KBZ BANK               MARKETPLACE - MMR11007101003440182210710000000000000000   10300001 00104100000000001185000000000000     
100   95050318601641810000000000000990000000000990002000000010410407100337570757221274380710000007468858   1020000200030000   333400010001204104000000281Myanmar Soft-Gate Tech Yangon        MMR11007100337570757220710000000000000000   10300001F05104100000000000208000000000000     
100   95050328074436620000000000058400000000058400002000000010410407100748061432751494020710178181406190   1030000900030000   591219000899190110000000708Shwe Ohh Pharmacy St 3 YANGONONE     MMR11007100748061432750710000000000000000   10300001F00104100000000014016000000000000     
100   95050328156626340000000000014500000000014500002000000010410407100926121456209245860710603561512190   1030000900030000   573219001183190110000000939UNIQUE Thingangyun     YANGONNGKUUN  MMR11007100926121456200710000000000000000   10300001F00104100000000003480000000000000     
100   95050311184380560000000000004950000000004950002000000010410407101440551055051288170710000007471086   1020000200030000   333400010001204104000000281Myanmar Soft-Gate Tech Yangon        MMR11007101440551055050710000000000000000   10300001F05104100000000001040000000000000     
100   95050324104751500000000000003600000000003600002000000010410407100321091374601359480710843510909190   1030000900030000   541119001206190110000000948City Mart YK C 4       YANGONAUNG    MMR11007100321091374600710000000000000000   10300001F00104100000000000900000000000000     
100   95050329888918380000000000006000000000006000002000000010410407090649550007380684420709219013000738   1030000500030000   531120226327000045311202263OCEAN SUPER CENTER STJ PTN           MMR11007090649550007380709000000000000000   10300001 00104100000000001440000000000000     
100   62443100381661260000000000015600000000015600002000000010410407101702520400644132010710000749906146   1030000200030000   541188001024000008000000298KBZ BANK               CITY MART - M MMR11007101702520400640710000000000000000   10300001 00104100000000003900000000000000     
100   95050324767581840000000000104700000000104700002000000010410407100815051439242465730710574451405190   1030000900030000   581219001545190110000001119Paradise Hot Pot       YANGONUT      MMR11007100815051439240710000000000000000   10300001F00104100000000044498000000000000     
100   95030325264619140000000000029000000000029000002000000010410407090517190005714773800709000354527625   1030000300030000   581200001885000000000001350CB BANK                OISHII RESTAU MMR11007090517190005710709000000000000000   10300001F00104100000000002958000000000000     
100   62443100357321690000000000164850000000164850002000000010410407091059390007390884550709000354577299   1030000300030000   541100000444000000000000319CB BANK                ONESTOP KITCH MMR11007091059390007390709000000000000000   10300001F00104100000000041213000000000000     
100   95050324154190880000000000020500000000020500002000000010410407091236010008678976790709219019000867   1030000500030000   598320001604000015172200016MAX ENERGY             PTN           MMR11007091236010008670709000000000000000   10300001 00104100000000002460000000000000     
100   62911028202158520000000000033200000000033200002000000010410407090716080001304773800709219013000130   1030000500030000   541120129725000045411201297MAKRO MYANMAR          PTN           MMR11007090716080001300709000000000000000   10300001 00104100000000001992000000000000     
100   95050320088670570000000000069700000000069700002000000010410407091209050008947069010709000354587286   1030000300030000   581200001515000000000001064CB BANK                YKKO (JUNCTIO MMR11007091209050008940709000000000000000   10300001F00104100000000029623000000000000     
100   62911028202520380000000000051000000000051000002000000010410407090652420009194773800709219013000919   1030000500030000   598320002103000015172200021MAX ENERGY             PTN           MMR11007090652420009190709000000000000000   10300001 00104100000000001530000000000000     
100   62911028202616250000000000151900000000151900002000000010410407090801390000774773800709219014000077   1030000500030000   569920091901000025699200919ERKE SPORT GOODS SHOP  PTN           MMR11007090801390000770709000000000000000   10300001 00104100000000009114000000000000     
100   95050322149411750000000000030000000000030000002000000010410407090451170010752932580709219011001075   1030000500030000   598320001402000015172200014MAX ENERGY             PTN           MMR11007090451170010750709000000000000000   10300001 00104100000000003600000000000000     
100   62911028202116610000000000142000000000142000002000000010410407091029410008514773800709219016000851   1030000500030000   598320001601000015172200016MAX ENERGY             PTN           MMR11007091029410008510709000000000000000   10300001 00104100000000004260000000000000     
100   95050326511614440000000000029371000000029371002000000010410407090906080001871820620709219015000187   1030000500030000   581220214501000085812202145CHILLI POT MALA XIANG  PTN           MMR11007090906080001870709000000000000000   10300001 00104100000000012483000000000000     
100   95050319286546940000000000056800000000056800002000000010410407090559090002564159590709219012000256   1030000500030000   591220132901008605912201329THEIK DI WIN SHOP      PTN           MMR11007090559090002560709000000000000000   10300001 00104100000000013632000000000000     
100   95050326228858240000000000019000000000019000002000000010410407091041490000856692970709000354574657   1030000300030000   581200001891000000000001352CB BANK                OISHII RESTAU MMR11007091041490000850709000000000000000   10300001F00104100000000008075000000000000     
100   62911028202207380000000000028950000000028950002000000010410407090329580000634773800709219009000063   1030000500030000   591220011601014405912200116SHWE OHH PHARMACY      PTN           MMR11007090329580000630709000000000000000   10300001 00104100000000001737000000000000     
100   62911028202790310000000000049000000000049000002000000010410407090221190008174773800709219008000817   1030000500030000   598320001604000015172200016MAX ENERGY             PTN           MMR11007090221190008170709000000000000000   10300001 00104100000000001470000000000000     
