100   95050320531117320000000000040200000000040200002000000010410407090853201210371905710709161231520189   1030000900030000   541119001525190110000001105Ocean MGDTM City Care  YANGONADON    MMR11007090853201210370709000000000000000   10300001F00104100000000010050000000000000     
100   62911028202916630000000000004000000000004000002000000010410407091920110245784773800709000749868042   1030000200030000   541188001017000008000000008KBZ BANK               MARKETPLACE - MMR11007091920110245780709000000000000000   10300001 00104100000000000240000000000000     
100   62443100372718280000000000420468000000420468002000000010410407091257161276715430320709426271916189   1030000900030000   701119000064190110000000024Lotte Hotel            YANGON        MMR11007091257161276710709000000000000000   10300001F00104100000000178699000000000000     
100   95050312695033440000000000002970000000002970002000000010410407091039320932761310040709000007467033   1020000200030000   333400010001204104000000281Myanmar Soft-Gate Tech Yangon        MMR11007091039320932760709000000000000000   10300001F05104100000000000624000000000000     
100   62911028202473430000000000052700000000052700002000000010410407090745201192524773800709042151420189   1030000900030000   591219000970190110000000777Shwe Ohh Pharmacy St ( YANGONAW      MMR11007090745201192520709000000000000000   10300001F00104100000000003162000000000000     
100   62443100303702210000000000068300000000068300002000000010410407090848151209173308620709092181515189   1030000900030000   541119001282190110000000963City Mart SPL C 7      YANGONMYOTHIT MMR11007090848151209170709000000000000000   10300001F00104100000000017075000000000000     
100   95030314001421450000000000138900000000138900002000000010410407091132081255714773800709090021808189   1030000900030000   541119001512190110000001102Ocean MGDTM C-5        YANGONADON    MMR11007091132081255710709000000000000000   10300001F00104100000000008334000000000000     
100   62911028202077190000000000000990000000000990002000000010410407090538200820364773800709000007466065   1020000200030000   333400010001204104000000281Myanmar Soft-Gate Tech Yangon        MMR11007090538200820360709000000000000000   10300001F05104100000000000208000000000000     
100   62443100372718280000000000052558000000052558002000000010410407091258311276977082800709438281931189   1030000900030000   701119000064190110000000024Lotte Hotel            YANGON        MMR11007091258311276970709000000000000000   10300001F00104100000000022337000000000000     
100   95050316717221100000000000000990000000000990002000000010410407090533490349441535390709000007466047   1020000200030000   333400010001204104000000281Myanmar Soft-Gate Tech Yangon        MMR11007090533490349440709000000000000000   10300001F05104100000000000208000000000000     
100   95050322158563070000000000018000000000018000002000000010410407090727161188046953980709766571316189   1030000900030000   581219000718190110000000549Chilli Pot Mala Xiang  YANGONUT      MMR11007090727161188040709000000000000000   10300001F00104100000000007650000000000000     
100   95030301100126550000000000073650000000073650002000000010410407091133571256264773800709124031857189   1030000900030000   541119001512190110000001102Ocean MGDTM C-5        YANGONADON    MMR11007091133571256260709000000000000000   10300001F00104100000000004419000000000000     
100   62911028202159100000000000017200000000017200002000000010410407090557111165794773800709437271211189   1030000900030000   541119001080190110000000872Sein Gay Har Hledan    YANGONUT      MMR11007090557111165790709000000000000000   10300001F00104100000000001032000000000000     
100   95050316785465380000000000000990000000000990002000000010410407091438540854886912600709000007467812   1020000200030000   333400010001204104000000281Myanmar Soft-Gate Tech Yangon        MMR11007091438540854880709000000000000000   10300001F05104100000000000208000000000000     
100   95050316272163320000000000000990000000000990002000000010410407091538550855185600510709000007467966   1020000200030000   333400010001204104000000281Myanmar Soft-Gate Tech Yangon        MMR11007091538550855180709000000000000000   10300001F05104100000000000208000000000000     
100   62911028202366010000000000037950000000037950002000000010410407090710471183944773800709510401347189   1030000900030000   541119001325190110000000971Ocean Junction NPT C 3 NAYPYITAW     MMR11007090710471183940709000000000000000   10300001F00104100000000002277000000000000     
100   95050311547837790000000000039990000000039990002000000010410407090718341186050344040709637481334189   1030000900030000   541119001191190110000000942City Mart HDC C 6      YANGONUT      MMR11007090718341186050709000000000000000   10300001F00104100000000009998000000000000     
100   62443100378093870000000000061000000000061000002000000010410407090836331206593393720709936061533189   1030000900030000   541119000127190110000000082Sein Gay Har Super Cen YANGON        MMR11007090836331206590709000000000000000   10300001F00104100000000015250000000000000     
100   95050319161596230000000000000990000000000990002000000010410407090341381138826989630709000007465541   1020000200030000   333400010001204104000000281Myanmar Soft-Gate Tech Yangon        MMR11007090341381138820709000000000000000   10300001F05104100000000000208000000000000     
100   95050320092651450000000000052693000000052693002000000010410407090549491164154670160709328191249189   1030000900030000   541119001242190110000000955City Mart JS C 1       YANGONUT      MMR11007090549491164150709000000000000000   10300001F00104100000000013174000000000000     
100   95050316067768680000000000001980000000001980002000000010410407090639450945914074490709000007466256   1020000200030000   333400010001204104000000281Myanmar Soft-Gate Tech Yangon        MMR11007090639450945910709000000000000000   10300001F05104100000000000416000000000000     
100   62911028202116120000000000078050000000078050002000000010410407091032530314994773800709000749841332   1030000200030000   541188001012000008000000008KBZ BANK               MARKETPLACE - MMR11007091032530314990709000000000000000   10300001 00104100000000004683000000000000     
100   95050325455962190000000000002970000000002970002000000010410407090637580758732422000709000007466250   1020000200030000   333400010001204104000000281Myanmar Soft-Gate Tech Yangon        MMR11007090637580758730709000000000000000   10300001F05104100000000000624000000000000     
100   62911028202120400000000000038000000000038000002000000010410407090543041162644773800709238131204189   1030000900030000   554119001100190110000000212New Day Energy PZD     YANGON        MMR11007090543041162640709000000000000000   10300001F00104100000000001140000000000000     
100   62443100373945130000000000020000000000020000002000000010410407090809281198731826330709428391428189   1030000900030000   554119000348190110000000215New Day Energy MYG     YANGONONE     MMR11007090809281198730709000000000000000   10300001F00104100000000002400000000000000     
100   62911028202489110000000000077900000000077900002000000010410407091027431236644773800709844571643189   1030000900030000   541119001239190110000000953Marketplace KTYCity Ca YANGONARTAUNG MMR11007091027431236640709000000000000000   10300001F00104100000000004674000000000000     
100   95050310102690960000000000317000000000317000002000000010410407090938191221862075910709872081619189   1030000900030000   481219000910190110000000719Snoopy Mobile ( 1 )Tar YANGON        MMR11007090938191221860709000000000000000   10300001F00104100000000076080000000000000     
100   95050325455962190000000000000990000000000990002000000010410407090635400540415726970709000007466243   1020000200030000   333400010001204104000000281Myanmar Soft-Gate Tech Yangon        MMR11007090635400540410709000000000000000   10300001F05104100000000000208000000000000     
100   95050325784857510000000000032950000000032950002000000010410407090349471135689784020709682191047189   1030000900030000   541119001207190110000000948City Mart YK C 5       YANGONAUNG    MMR11007090349471135680709000000000000000   10300001F00104100000000008238000000000000     
100   62911028202045260000000000013600000000013600002000000010410407091418110222654773800709000749852576   1030000200030000   541188001075000008000000294KBZ BANK               CITY MART - J MMR11007091418110222650709000000000000000   10300001 00104100000000000816000000000000     
100   95050312498129060000000000001980000000001980002000000010410407091043391339729997940709000007467045   1020000200030000   333400010001204104000000281Myanmar Soft-Gate Tech Yangon        MMR11007091043391339720709000000000000000   10300001F05104100000000000416000000000000     
100   95050316601084530000000000000990000000000990002000000010410407091409043904838650190709000007467705   1020000200030000   333400010001204104000000281Myanmar Soft-Gate Tech Yangon        MMR11007091409043904830709000000000000000   10300001F05104100000000000208000000000000     
100   95050319938772870000000000000990000000000990002000000010410407091405573557643607640709000007467691   1020000200030000   333400010001204104000000281Myanmar Soft-Gate Tech Yangon        MMR11007091405573557640709000000000000000   10300001F05104100000000000208000000000000     
100   95050312933828140000000000016000000000016000002000000010410407091047019004688260360709219017900468   1040001600030000   569120000924000000010000671Generation Concept Sto Ygn           MMR11007091047019004680709000000000000000   10300001F00104100000000003840000000000000     
100   95050320897979420000000000300000000000300000002000000010410407090243381338765166950709000007465331   1030000200030000   333800010001203104000003327KBZPay                 Yangon        MMR11007090243381338760709000000000000000   10300001F05104100000000063000000000000000     
100   95050319938772870000000000002970000000002970002000000010410407091306443644636997710709000007467479   1020000200030000   333400010001204104000000281Myanmar Soft-Gate Tech Yangon        MMR11007091306443644630709000000000000000   10300001F05104100000000000624000000000000     
100   95050319144542320000000000030000000000030000002000000010410407090345161516248642110709000007465558   1030000200030000   333800010001203104000003327KBZPay                 Yangon        MMR11007090345161516240709000000000000000   10300001F05104100000000006300000000000000     
100   95050312119522920000000000050400000000050400002000000010410407090745041504915641880709000007466488   1030000900030000   333800010001202104000003301uab bank               Yangon        MMR11007090745041504910709000000000000000   10300001F05104100000000010584000000000000     
100   95050310427855490000000000002970000000002970002000000010410407090105143514167244920709000007465086   1020000200030000   333400010001204104000000281Myanmar Soft-Gate Tech Yangon        MMR11007090105143514160709000000000000000   10300001F05104100000000000624000000000000     
100   95050312618592720000000000070000000000070000002000000010410407091010394039800338320709000007466953   1030000200030000   333800010001203104000003327KBZPay                 Yangon        MMR11007091010394039800709000000000000000   10300001F05104100000000014700000000000000     
100   95050319928585020000000000000990000000000990002000000010410407090913174317041735520709000007466789   1020000200030000   333400010001204104000000281Myanmar Soft-Gate Tech Yangon        MMR11007090913174317040709000000000000000   10300001F05104100000000000208000000000000     
100   95050316321163940000000000000990000000000990002000000010410407090200503050660890270709000007465203   1020000200030000   333400010001204104000000281Myanmar Soft-Gate Tech Yangon        MMR11007090200503050660709000000000000000   10300001F05104100000000000208000000000000     
100   95050315017843630000000000005000000000005000002000000010410407091216284628139146980709000007467329   1040001600030000   333800010001220104000004507A +                    Yangon        MMR11007091216284628130709000000000000000   10300001F05104100000000001050000000000000     
100   95050310427855490000000000001980000000001980002000000010410407091557222722847252990709000007468028   1020000200030000   333400010001204104000000281Myanmar Soft-Gate Tech Yangon        MMR11007091557222722840709000000000000000   10300001F05104100000000000416000000000000     
100   95050317376014640000000000033254000000033254002000000010410407091145471259243849140709315151847189   1030000900030000   541119001351190110000000977Ocean PZD C5           YANGONAUNG    MMR11007091145471259240709000000000000000   10300001F00104100000000008314000000000000     
100   95050314064416890000000000001980000000001980002000000010410407091057292729822622140709000007467084   1020000200030000   333400010001204104000000281Myanmar Soft-Gate Tech Yangon        MMR11007091057292729820709000000000000000   10300001F05104100000000000416000000000000     
100   95050319709462380000000000005000000000005000002000000010410407090758592859566528490709000007466535   1030000200030000   3338000100012031040000040022C2P (Myanmar) Co. Ltd Yangon        MMR11007090758592859560709000000000000000   10300001F05104100000000001050000000000000     
100   95050321983934760000000000300000000000300000002000000010410407091125455545297919970709000007467170   1030000200030000   333800010001203104000003327KBZPay                 Yangon        MMR11007091125455545290709000000000000000   10300001F05104100000000063000000000000000     
100   95050318141561190000000000010000000000010000002000000010410407090328365836352032180709000007465482   1040001600030000   333800010001220104000004507A +                    Yangon        MMR11007090328365836350709000000000000000   10300001F05104100000000002100000000000000     
100   95050323233042810000000000000990000000000990002000000010410407091415004500810302670709000007467718   1020000200030000   333400010001204104000000281Myanmar Soft-Gate Tech Yangon        MMR11007091415004500810709000000000000000   10300001F05104100000000000208000000000000     
100   62911028202470870000000000081800000000081800002000000010410407090248068693994773800709219009869399   1040001600030000   591220000276000000010000264Shwe Ohh Pharmacy (YGH Yangon        MMR11007090248068693990709000000000000000   10300001F00104100000000004908000000000000     
100   95050317517212300000000000034250000000034250002000000010410407090555368810649712710709219012881064   1040001600030000   541120000561000000010000465Ocean Shwe Gone Daing  Yangon        MMR11007090555368810640709000000000000000   10300001F00104100000000008563000000000000     
100   95050319870763910000000000001980000000001980002000000010410407090745191519987294360709000007466490   1020000200030000   333400010001204104000000281Myanmar Soft-Gate Tech Yangon        MMR11007090745191519980709000000000000000   10300001F05104100000000000416000000000000     
100   95050316785465380000000000001980000000001980002000000010410407090543451345464755260709000007466087   1020000200030000   333400010001204104000000281Myanmar Soft-Gate Tech Yangon        MMR11007090543451345460709000000000000000   10300001F05104100000000000416000000000000     
100   62911028202809060000000000050000000000050000002000000010410407090804083408364773800709000007466555   1030000200030000   333800010001203104000003327KBZPay                 Yangon        MMR11007090804083408360709000000000000000   10300001F05104100000000010500000000000000     
100   62911028202324770000000000036000000000036000002000000010410407090156358667324773800709219008866732   1040001600030000   598320000317000000010000305PT Power Petrol Statio Yangon        MMR11007090156358667320709000000000000000   10300001F00104100000000001080000000000000     
100   62443100395250310000000000000990000000000990002000000010410407090904423442033473100709000007466755   1020000200030000   333400010001204104000000281Myanmar Soft-Gate Tech Yangon        MMR11007090904423442030709000000000000000   10300001F05104100000000000208000000000000     
100   95030301100168540000000000013000000000013000002000000010410407090307383738264773800709000007465420   1030000200030000   333800010001203104000003327KBZPay                 Yangon        MMR11007090307383738260709000000000000000   10300001F05104100000000002730000000000000     
100   95050321983934760000000000300000000000300000002000000010410407091124055405109572460709000007467163   1030000200030000   333800010001203104000003327KBZPay                 Yangon        MMR11007091124055405100709000000000000000   10300001F05104100000000063000000000000000     
100   62911028202809060000000000050000000000050000002000000010410407090518014801954773800709000007465995   1030000200030000   333800010001203104000003327KBZPay                 Yangon        MMR11007090518014801950709000000000000000   10300001F05104100000000010500000000000000     
100   62911028202684060000000000050000000000050000002000000010410407090300038700534773800709219010870053   1040001600030000   598320001170000000010000527Shwe Taung Energy (YGN Yangon        MMR11007090300038700530709000000000000000   10300001F00104100000000001500000000000000     
100   95050313396828960000000000002970000000002970002000000010410407091228025802635756910709000007467361   1020000200030000   333400010001204104000000281Myanmar Soft-Gate Tech Yangon        MMR11007091228025802630709000000000000000   10300001F05104100000000000624000000000000     
100   62443100360763680000000000182250000000182250002000000010410407090203378670942542750709219009867094   1040001600030000   591220000287000000010000275Shwe Ohh Pharmacy (Wit Yangon        MMR11007090203378670940709000000000000000   10300001F00104100000000043740000000000000     
100   62911028202331290000000000052200000000052200002000000010410407090853588922944773800709219015892294   1040001600030000   591220000295000000010000283Shwe Ohh Pharmacy (39t Yangon        MMR11007090853588922940709000000000000000   10300001F00104100000000003132000000000000     
100   95050322990383760000000000001000000000001000002000000010410407090431440144208301730709000007465779   1030000200030000   3334000100012031040000040102C2P (Myanmar) Co. Ltd Yangon        MMR11007090431440144200709000000000000000   10300001F05104100000000000210000000000000     
100   62911028202116120000000000052850000000052850002000000010410407091050580250974773800709000749842184   1030000200030000   541188001007000008000000008KBZ BANK               MARKETPLACE - MMR11007091050580250970709000000000000000   10300001 00104100000000003171000000000000     
100   62911028202132460000000000019000000000019000002000000010410407081126500001864773800708218917000186   1030000500030000   531120155805000045311201558GAMONE PWINT           PTN           MMR11007081126500001860708000000000000000   10300001 00104100000000001140000000000000     
100   62911028202790560000000000013100000000013100002000000010410407090412511141014773800709967421051189   1030000900030000   541119001464190110000000077Sein Gay Har Chinatown YANGON        MMR11007090412511141010709000000000000000   10300001F00104100000000000786000000000000     
100   95050326590859670000000000006800000000006800002000000010410407080847200008238287940708000354384649   1030000300030000   581400002857000000000001963CB BANK                SHWE PA LIN T MMR11007080847200008230708000000000000000   10300001F00104100000000000816000000000000     
100   62911028202198620000000000055000000000055000002000000010410407080955450000094773800708218916000009   1030000500030000   594420057601007805944200576GOLD BLISS             PTN           MMR11007080955450000090708000000000000000   10300001 00104100000000003300000000000000     
100   62911028202045260000000000007400000000007400002000000010410407081057530001454773800708218917000145   1030000500030000   541120229701000045411202297CITY EXPRESS (MCS - 95 PTN           MMR11007081057530001450708000000000000000   10300001 00104100000000000444000000000000     
100   62911028202703370000000000050000000000050000002000000010410407080754210006434773800708218914000643   1030000500030000   598320001704000015172200017MAX ENERGY             PTN           MMR11007080754210006430708000000000000000   10300001 00104100000000001500000000000000     
100   62443100306045460000000000019900000000019900002000000010410407090907068930420168130709219016893042   1040001600030000   591220000302000000010000290Shwe Ohh Pharmacy (Nor Yangon        MMR11007090907068930420709000000000000000   10300001F00104100000000004776000000000000     
100   95050312498129060000000000002970000000002970002000000010410407090149051905884280340709000007465171   1020000200030000   333400010001204104000000281Myanmar Soft-Gate Tech Yangon        MMR11007090149051905880709000000000000000   10300001F05104100000000000624000000000000     
100   95050310332595380000000000000990000000000990002000000010410407091601113111185515410709000007468039   1020000200030000   333400010001204104000000281Myanmar Soft-Gate Tech Yangon        MMR11007091601113111180709000000000000000   10300001F05104100000000000208000000000000     
100   95050311419479170000000000001980000000001980002000000010410407091501123112408905480709000007467871   1020000200030000   333400010001204104000000281Myanmar Soft-Gate Tech Yangon        MMR11007091501123112400709000000000000000   10300001F05104100000000000416000000000000     
100   95050317084233280000000000001980000000001980002000000010410407091024195419859742650709000007466996   1020000200030000   333400010001204104000000281Myanmar Soft-Gate Tech Yangon        MMR11007091024195419850709000000000000000   10300001F05104100000000000416000000000000     
100   95050320360851930000000000004950000000004950002000000010410407091624205420053862930709000007468079   1020000200030000   333400010001204104000000281Myanmar Soft-Gate Tech Yangon        MMR11007091624205420050709000000000000000   10300001F05104100000000001040000000000000     
100   62911028202793040000000000010000000000010000002000000010410407091021355135134773800709000007466987   1030000200030000   3334000100012031040000040102C2P (Myanmar) Co. Ltd Yangon        MMR11007091021355135130709000000000000000   10300001F05104100000000002100000000000000     
100   62443100395250310000000000000990000000000990002000000010410407090901503150905210680709000007466747   1020000200030000   333400010001204104000000281Myanmar Soft-Gate Tech Yangon        MMR11007090901503150900709000000000000000   10300001F05104100000000000208000000000000     
100   95030396594260770000000000030000000000030000002000000010410407080810210006814773800708218914000681   1030000500030000   598320068302000055983200683MAX ENERGY             PTN           MMR11007080810210006810708000000000000000   10300001 00104100000000000900000000000000     
100   95050324411430900000000000037000000000037000002000000010410407080356480008523895230708000354337731   1030000300030000   598300001209000000000000817CB BANK                SHWE TAUNG EN MMR11007080356480008520708000000000000000   10300001F00104100000000004440000000000000     
100   62911028202162640000000000025900000000025900002000000010410407081127340002384773800708218917000238   1030000500030000   591220132901008605912201329THEIK DI WIN SHOP      PTN           MMR11007081127340002380708000000000000000   10300001 00104100000000001554000000000000     
100   95030378062733680000000000087170000000087170002000000010410407080632100008074773800708218913000807   1030000500030000   531120231201000045311202312OCEAN OATTARA THIRI    PTN           MMR11007080632100008070708000000000000000   10300001 00104100000000005230000000000000     
100   95050324154190880000000000023000000000023000002000000010410407080211380007857235850708218908000785   1030000500030000   598320002102000015172200021MAX ENERGY             PTN           MMR11007080211380007850708000000000000000   10300001 00104100000000002760000000000000     
100   62443101050502450000000000050000000000050000002000000010410407080830010008860365900708000354382068   1030000300030000   723000003090000000000002180CB BANK                NEIGHBORHOOD  MMR11007080830010008860708000000000000000   10300001F00104100000000012000000000000000     
100   95050326154591400000000000004100000000004100002000000010410407080840370005267146030708000354383691   1030000300030000   581400001685000000000001206CB BANK                SHWEPALIN (JU MMR11007080840370005260708000000000000000   10300001F00104100000000000492000000000000     
100   62443100313112320000000000511150000000511150002000000010410407081110070006300330250708218917000630   1030000500030000   503920036610000015039200366PRO-1 HOME CENTER      PTN           MMR11007081110070006300708000000000000000   10300001 00104100000000122676000000000000     
100   95050313702988830000000000002970000000002970002000000010410407090257412741286734340709000007465390   1020000200030000   333400010001204104000000281Myanmar Soft-Gate Tech Yangon        MMR11007090257412741280709000000000000000   10300001F05104100000000000624000000000000     
100   95050314064416890000000000000990000000000990002000000010410407091059282928299232070709000007467093   1020000200030000   333400010001204104000000281Myanmar Soft-Gate Tech Yangon        MMR11007091059282928290709000000000000000   10300001F05104100000000000208000000000000     
100   95050319996628650000000000000990000000000990002000000010410407091221375137720799460709000007467338   1020000200030000   333400010001204104000000281Myanmar Soft-Gate Tech Yangon        MMR11007091221375137720709000000000000000   10300001F05104100000000000208000000000000     
100   95050312360118350000000000010000000000010000002000000010410407091620145014812210440709000007468071   1030000200030000   333800010001203104000003327KBZPay                 Yangon        MMR11007091620145014810709000000000000000   10300001F05104100000000002100000000000000     
100   62443100379321630000000000037900000000037900002000000010410407081416070000303053340708000354428701   1030000300030000   581200001485000000000001032CB BANK                YKKO(CATS)    MMR11007081416070000300708000000000000000   10300001F00104100000000016108000000000000     
100   95050311959900780000000000004950000000004950002000000010410407090249091909780124400709000007465357   1020000200030000   333400010001204104000000281Myanmar Soft-Gate Tech Yangon        MMR11007090249091909780709000000000000000   10300001F05104100000000001040000000000000     
100   95050312695033440000000000002970000000002970002000000010410407091248001800750629270709000007467412   1020000200030000   333400010001204104000000281Myanmar Soft-Gate Tech Yangon        MMR11007091248001800750709000000000000000   10300001F05104100000000000624000000000000     
100   95050326590859670000000000030000000000030000002000000010410407090411434143446393950709000007465685   1030000200030000   333800010001203104000003327KBZPay                 Yangon        MMR11007090411434143440709000000000000000   10300001F05104100000000006300000000000000     
100   95050314248677090000000000013000000000013000002000000010410407081213010003751387060708218918000375   1030000500030000   531120156005000045311201560GAMONE PWINT           PTN           MMR11007081213010003750708000000000000000   10300001 00104100000000003120000000000000     
100   62443100313529540000000000001850000000001850002000000010410407081206470000294777130708218918000029   1030000500030000   531120155903000045311201559GAMONE PWINT           PTN           MMR11007081206470000290708000000000000000   10300001 00104100000000000444000000000000     
100   62911028202212490000000000007700000000007700002000000010410407080405050000754773800708218910000075   1030000500030000   581220195901000085812201959AKKHAYA TEA HOUSE      PTN           MMR11007080405050000750708000000000000000   10300001 00104100000000000785000000000000     
100   62911028202442250000000000018875000000018875002000000010410407080043540002304773800708218907000230   1030000500030000   598320001203000015172200012MAX ENERGY             PTN           MMR11007080043540002300708000000000000000   10300001 00104100000000000566000000000000     
100   62443100340422630000000000079400000000079400002000000010410407080703280004532130070708000354368060   1030000300030000   541100000203000000000000102CB BANK                MAKRO MYANMAR MMR11007080703280004530708000000000000000   10300001F00104100000000019850000000000000     
100   62911028202446540000000000032000000000032000002000000010410407081201300008604773800708218918000860   1030000500030000   598320002103000015172200021MAX ENERGY             PTN           MMR11007081201300008600708000000000000000   10300001 00104100000000000960000000000000     
100   62911028202147720000000000030000000000030000002000000010410407080029360007684773800708218906000768   1030000500030000   598320001602000015172200016MAX ENERGY             PTN           MMR11007080029360007680708000000000000000   10300001 00104100000000000900000000000000     
100   62443100313112320000000000150000000000150000002000000010410407081008320009652067830708000354395981   1030000300030000   541100002372000000000000102CB BANK                MAKRO MYANMAR MMR11007081008320009650708000000000000000   10300001F00104100000000037500000000000000     
100   95050312498129060000000000009500000000009500002000000010410407090955232523415380870709000007466904   1030000200030000   3333000100012031040000040282C2P (Myanmar) Co. Ltd Yangon        MMR11007090955232523410709000000000000000   10300001F05104100000000010000000000000000     
100   95050321983934760000000000100000000000100000002000000010410407091127485748964529910709000007467175   1030000200030000   333800010001203104000003327KBZPay                 Yangon        MMR11007091127485748960709000000000000000   10300001F05104100000000021000000000000000     
100   95050312947607030000000000015000000000015000002000000010410407091046541654826607880709000007467056   1030000200030000   333800010001203104000003327KBZPay                 Yangon        MMR11007091046541654820709000000000000000   10300001F05104100000000003150000000000000     
100   62911028202451150000000000090021000000090021002000000010410407090417361658454773800709473606249437   1040001400030000   806210000094028062100000766Yoma OUE Pun Hlaing Ho pital  Yoma O MMR11007090417361658450709000000000000000   10300001 00104100000000005401000000000000     
100   62911028202809060000000000288710000000288710002000000010410407090636148838964773800709219013883896   1040001600030000   591220000277000000010000265Shwe Ohh Pharmacy (Thu Yangon        MMR11007090636148838960709000000000000000   10300001F00104100000000017323000000000000     
100   95050315440420430000000000100000000000100000002000000010410407090539218799906407740709219012879990   1040001600030000   806220000001000000010000001Victoria Hospital      Yangon        MMR11007090539218799900709000000000000000   10300001F00104100000000024000000000000000     
100   95050310409767690000000000000990000000000990002000000010410407091527595759820557960709000007467939   1020000200030000   333400010001204104000000281Myanmar Soft-Gate Tech Yangon        MMR11007091527595759820709000000000000000   10300001F05104100000000000208000000000000     
100   95050311438762210000000000027000000000027000002000000010410407090309423942203769760709000007465427   1030000200030000   333800010001203104000003327KBZPay                 Yangon        MMR11007090309423942200709000000000000000   10300001F05104100000000005670000000000000     
100   62911028202125290000000000057000000000057000002000000010410407080313220014014773800708218909001401   1030000500030000   598320001301000015172200013MAX ENERGY             PTN           MMR11007080313220014010708000000000000000   10300001 00104100000000001710000000000000     
100   95030346645639490000000000025774000000025774002000000010410407080941550003094773800708218916000309   1030000500030000   531120155712000045311201557GAMONE PWINT           PTN           MMR11007080941550003090708000000000000000   10300001 00104100000000001546000000000000     
100   95050329252108030000000000020500000000020500002000000010410407081323190005612712950708218919000561   1030000500030000   598320041902000055983200419MAX ENERGY             PTN           MMR11007081323190005610708000000000000000   10300001 00104100000000002460000000000000     
100   95050329252108030000000000050000000000050000002000000010410407080133270007865413170708218908000786   1030000500030000   598320002101000015172200021MAX ENERGY             PTN           MMR11007080133270007860708000000000000000   10300001 00104100000000006000000000000000     
100   62911028202132460000000000015000000000015000002000000010410407081153580002524773800708218918000252   1030000500030000   531120155806000045311201558GAMONE PWINT           PTN           MMR11007081153580002520708000000000000000   10300001 00104100000000000900000000000000     
100   62443100371022130000000000031513000000031513002000000010410407080555410002898067290708218912000289   1030000500030000   598320001203000015172200012MAX ENERGY             PTN           MMR11007080555410002890708000000000000000   10300001 00104100000000003782000000000000     
100   62443100376865460000000000008450000000008450002000000010410407080228320006478292660708000354325276   1030000300030000   581400001771000000000001272CB BANK                BREADTALK (CR MMR11007080228320006470708000000000000000   10300001F00104100000000001014000000000000     
100   62911028202169750000000000022000000000022000002000000010410407080053440007764773800708218907000776   1030000500030000   598320002103000015172200021MAX ENERGY             PTN           MMR11007080053440007760708000000000000000   10300001 00104100000000000660000000000000     
100   95050312962334280000000000000990000000000990002000000010410407090859442944908600740709000007466732   1020000200030000   333400010001204104000000281Myanmar Soft-Gate Tech Yangon        MMR11007090859442944900709000000000000000   10300001F05104100000000000208000000000000     
100   95050318712627500000000000004950000000004950002000000010410407090814504450083478810709000007466581   1020000200030000   333400010001204104000000281Myanmar Soft-Gate Tech Yangon        MMR11007090814504450080709000000000000000   10300001F05104100000000001040000000000000     
100   62911028202470870000000000024650000000024650002000000010410407091222391268394773800709896521839189   1030000900030000   591219000504190110000000351Shwe Ohh Pharmacy - (Y YANGONAW      MMR11007091222391268390709000000000000000   10300001F00104100000000001479000000000000     
100   95050316272163320000000000001980000000001980002000000010410407082252482248754535630709000007464989   1020000200030000   333400010001204104000000281Myanmar Soft-Gate Tech Yangon        MMR11007082252482248750709000000000000000   10300001F05104100000000000416000000000000     
100   62443100306045460000000000346512000000346512002000000010410407091227261269627409390709977571826189   1030000900030000   541119001282190110000000963City Mart SPL C 7      YANGONMYOTHIT MMR11007091227261269620709000000000000000   10300001F00104100000000086628000000000000     
100   95050310332595380000000000000990000000000990002000000010410407090052532253898982500709000007465069   1020000200030000   333400010001204104000000281Myanmar Soft-Gate Tech Yangon        MMR11007090052532253890709000000000000000   10300001F05104100000000000208000000000000     
100   95050313817486860000000000004950000000004950002000000010410407090246201620200209500709000007465342   1020000200030000   333400010001204104000000281Myanmar Soft-Gate Tech Yangon        MMR11007090246201620200709000000000000000   10300001F05104100000000001040000000000000     
100   95050312695033440000000000001980000000001980002000000010410407091448121812508990570709000007467839   1020000200030000   333400010001204104000000281Myanmar Soft-Gate Tech Yangon        MMR11007091448121812500709000000000000000   10300001F05104100000000000416000000000000     
100   95050326228858240000000000052411000000052411002000000010410407081007300009095372800708000354395829   1030000300030000   701100000127000000000000058CB BANK                MELIA YANGON  MMR11007081007300009090708000000000000000   10300001F00104100000000022275000000000000     
100   62911028202132460000000000044800000000044800002000000010410407081146520004844773800708218918000484   1030000500030000   531120155802000045311201558GAMONE PWINT           PTN           MMR11007081146520004840708000000000000000   10300001 00104100000000002688000000000000     
100   95030325264619140000000000030000000000030000002000000010410407080426340008014773800708218910000801   1030000500030000   598320002101000015172200021MAX ENERGY             PTN           MMR11007080426340008010708000000000000000   10300001 00104100000000000900000000000000     
100   62911028202132460000000000011760000000011760002000000010410407081116130001134773800708218917000113   1030000500030000   531120155808000045311201558GAMONE PWINT           PTN           MMR11007081116130001130708000000000000000   10300001 00104100000000000706000000000000     
100   62911028202448030000000000150000000000150000002000000010410407080650560012174773800708218913001217   1030000500030000   598320001201000015172200012MAX ENERGY             PTN           MMR11007080650560012170708000000000000000   10300001 00104100000000004500000000000000     
100   62911028202280200000000000108100000000108100002000000010410407080344500000324773800708218910000032   1030000500030000   554120067401007105541200674HONDA CAR SERVICE      PTN           MMR11007080344500000320708000000000000000   10300001 00104100000000003243000000000000     
100   62443100372718280000000000123815000000123815002000000010410407080734030014781279100708218914001478   1030000500030000   531120226320000045311202263OCEAN SUPER CENTER STJ PTN           MMR11007080734030014780708000000000000000   10300001 00104100000000029716000000000000     
100   95050314190972620000000000005150000000005150002000000010410407080919120012711763100708000354389150   1030000300030000   591200000223000000000000114CB BANK                MEDICARE STOR MMR11007080919120012710708000000000000000   10300001F00104100000000001236000000000000     
100   95050312549035820000000000030000000000030000002000000010410407091043321332553302910709000007467041   1030000200030000   333800010001203104000003327KBZPay                 Yangon        MMR11007091043321332550709000000000000000   10300001F05104100000000006300000000000000     
100   95050310427855490000000000001980000000001980002000000010410407090108133813638897400709000007465093   1020000200030000   333400010001204104000000281Myanmar Soft-Gate Tech Yangon        MMR11007090108133813630709000000000000000   10300001F05104100000000000416000000000000     
100   95050312498129060000000000000990000000000990002000000010410407090117004700743939950709000007465111   1020000200030000   333400010001204104000000281Myanmar Soft-Gate Tech Yangon        MMR11007090117004700740709000000000000000   10300001F05104100000000000208000000000000     
100   95050310409767690000000000001980000000001980002000000010410407081822475247249578170709000007464850   1020000200030000   333400010001204104000000281Myanmar Soft-Gate Tech Yangon        MMR11007081822475247240709000000000000000   10300001F05104100000000000416000000000000     
100   95050318131043910000000000000990000000000990002000000010410407091457572757880643060709000007467860   1020000200030000   333400010001204104000000281Myanmar Soft-Gate Tech Yangon        MMR11007091457572757880709000000000000000   10300001F05104100000000000208000000000000     
100   95050320088670570000000002227250000002227250002000000010410407080859360007299855330708218915000729   1030000500030000   503920036611000015039200366PRO-1 HOME CENTER      PTN           MMR11007080859360007290708000000000000000   10300001 00104100000000534540000000000000     
100   62443100306028540000000000011150000000011150002000000010410407081116520002591897640708218917000259   1030000500030000   531120226325000045311202263OCEAN SUPER CENTER STJ PTN           MMR11007081116520002590708000000000000000   10300001 00104100000000002676000000000000     
100   95050312498129060000000000003960000000003960002000000010410407091343341334751955160709000007467615   1020000200030000   333400010001204104000000281Myanmar Soft-Gate Tech Yangon        MMR11007091343341334750709000000000000000   10300001F05104100000000000832000000000000     
100   62911028202661370000000000058336000000058336002000000010410407080754130022804773800708218914002280   1030000500030000   531120226305000045311202263OCEAN SUPER CENTER STJ PTN           MMR11007080754130022800708000000000000000   10300001 00104100000000003500000000000000     
100   95050317338786370000000000003000000000003000002000000010410407081632420242087925690708000007464723   1030000200030000   3334000100012031040000040102C2P (Myanmar) Co. Ltd Yangon        MMR11007081632420242080708000000000000000   10300001F05104100000000000630000000000000     
100   62911028202150190000000000037200000000037200002000000010410407081205138308884773800708218919830888   1040001600030000   581420000079000000010000075Spicy Hot Pot Saya San Yangon        MMR11007081205138308880708000000000000000   10300001F00104100000000001116000000000000     
100   62443100333488440000000000074350000000074350002000000010410407081009158190083720310708218917819008   1040001600030000   581420000246000000010000234Hot Pot Country        Yangon        MMR11007081009158190080708000000000000000   10300001F00104100000000008922000000000000     
100   62911028202163630000000000012000000000012000002000000010410407080700598081014773800708218914808101   1040001600030000   598320000915000000010000664MMTM - North Dagon     Ygn           MMR11007080700598081010708000000000000000   10300001F00104100000000000360000000000000     
100   62443100360763680000000000089000000000089000002000000010410407090938190010140423420709000749858374   1030000200030000   596588002421000008000006474KBZ BANK               AMERICAN COLL MMR11007090938190010140709000000000000000   10300001 00104100000000021360000000000000     
100   62443100378093870000000000084365000000084365002000000010410407091351490161783649010709000749851048   1030000200030000   541188001023000008000000298KBZ BANK               CITY MART - M MMR11007091351490161780709000000000000000   10300001 00104100000000021092000000000000     
100   95050316438375580000000000020041000000020041002000000010410407091635010027285295780709000749859842   1030000200030000   541188001481000008000000399KBZ BANK               OCEAN SUPERCE MMR11007091635010027280709000000000000000   10300001 00104100000000005011000000000000     
100   95050319938772870000000000000990000000000990002000000010410407091605573557517167890709000007468049   1020000200030000   333400010001204104000000281Myanmar Soft-Gate Tech Yangon        MMR11007091605573557510709000000000000000   10300001F05104100000000000208000000000000     
100   95050310427855490000000000001980000000001980002000000010410407091157202720473764040709000007467287   1020000200030000   333400010001204104000000281Myanmar Soft-Gate Tech Yangon        MMR11007091157202720470709000000000000000   10300001F05104100000000000416000000000000     
100   95050310281229490000000000050000000000050000002000000010410407090859552955956863160709000007466741   1030000200030000   333800010001203104000003327KBZPay                 Yangon        MMR11007090859552955950709000000000000000   10300001F05104100000000010500000000000000     
100   95050321983934760000000000300000000000300000002000000010410407091126435643962877430709000007467172   1030000200030000   333800010001203104000003327KBZPay                 Yangon        MMR11007091126435643960709000000000000000   10300001F05104100000000063000000000000000     
100   62911028202077190000000000002970000000002970002000000010410407091421095109944773800709000007467745   1020000200030000   333400010001204104000000281Myanmar Soft-Gate Tech Yangon        MMR11007091421095109940709000000000000000   10300001F05104100000000000624000000000000     
100   95050316067768680000000000000990000000000990002000000010410407091421575157230217580709000007467746   1020000200030000   333400010001204104000000281Myanmar Soft-Gate Tech Yangon        MMR11007091421575157230709000000000000000   10300001F05104100000000000208000000000000     
100   62911028202198620000000000200000000000200000002000000010410407080957290000114773800708218916000011   1030000500030000   594420057601007805944200576GOLD BLISS             PTN           MMR11007080957290000110708000000000000000   10300001 00104100000000012000000000000000     
100   95030333478847140000000000080439000000080439002000000010410407091724510259714773800709000749862581   1030000200030000   541188001001000008000000008KBZ BANK               MARKETPLACE - MMR11007091724510259710709000000000000000   10300001 00104100000000004826000000000000     
100   62443100379321630000000000006700000000006700002000000010410407091346150079452081620709000749850731   1030000200030000   541188001336000008000000327KBZ BANK               CITY MART - S MMR11007091346150079450709000000000000000   10300001 00104100000000001675000000000000     
100   95030399326190680000000000154985000000154985002000000010410407090619350027974773800709219012002797   1020000200030000   806200105001300018062000010MWD BANK               YGN           MMR11007090619350027970709000000000000000   10300001 00104100000000009299000000000000     
100   62911028202045260000000000001800000000001800002000000010410407091420510111434773800709000749852717   1030000200030000   541188001088000008000000294KBZ BANK               CITY MART - J MMR11007091420510111430709000000000000000   10300001 00104100000000000108000000000000     
100   95050311823681970000000000043600000000043600002000000010410407091522420016518351170709000749855799   1030000200030000   541188001488000008000000399KBZ BANK               OCEAN SUPERCE MMR11007091522420016510709000000000000000   10300001 00104100000000010900000000000000     
100   95050323855563310000000000913700000000913700002000000010410407090510510014932847490709000749844519   1030000200030000   599988000623000008000004242KBZ BANK               SWEETY HOME M MMR11007090510510014930709000000000000000   10300001 00104100000000219288000000000000     
100   95050313817486860000000000013742000000013742002000000010410407091354290021855301490709000749851190   1030000200030000   541188001429000008000000401KBZ BANK               OCEAN SUPERCE MMR11007091354290021850709000000000000000   10300001 00104100000000003436000000000000     
100   62911028202207460000000000009300000000009300002000000010410407091320550181784773800709000749849362   1030000200030000   541188001061000008000000314KBZ BANK               MARKETPLACE - MMR11007091320550181780709000000000000000   10300001 00104100000000000558000000000000     
100   95050320694620120000000000012000000000012000002000000010410407091301500025227464550709000749848375   1030000200030000   541188001311000008000000325KBZ BANK               CITY MART - A MMR11007091301500025220709000000000000000   10300001 00104100000000003000000000000000     
100   62443100379321630000000000013300000000013300002000000010410407091350400037841996520709000749850993   1030000200030000   541188001342000008000000327KBZ BANK               CITY MART - S MMR11007091350400037840709000000000000000   10300001 00104100000000003325000000000000     
100   95050316818236190000000000002970000000002970002000000010410407082332520252776188110709000007465002   1020000200030000   333400010001204104000000281Myanmar Soft-Gate Tech Yangon        MMR11007082332520252770709000000000000000   10300001F05104100000000000624000000000000     
100   62911028202499680000000000041763000000041763002000000010410407091529590170164773800709000749856213   1030000200030000   541188001056000008000000314KBZ BANK               MARKETPLACE - MMR11007091529590170160709000000000000000   10300001 00104100000000002506000000000000     
100   95050320093758110000000000014400000000014400002000000010410407090646021177533989400709135161302189   1030000900030000   541119001302190110000000968Ocean Mingalar MDY C 1 MANDALAYHARSI MMR11007090646021177530709000000000000000   10300001F00104100000000003600000000000000     
100   95030301100121270000000000039050000000039050002000000010410407090957251227404773800709240271625189   1030000900030000   541119001261190110000000958City Mart PLST C 4     YANGONMYOTHIT MMR11007090957251227400709000000000000000   10300001F00104100000000002343000000000000     
100   95050320088670570000000000079050000000079050002000000010410407091120061252691224940709905501706189   1030000900030000   541119001249190110000000955City Mart JS C 8       YANGONUT      MMR11007091120061252690709000000000000000   10300001F00104100000000019763000000000000     
100   62443100378093870000000000075200000000075200002000000010410407090853191210360253230709160231519189   1030000900030000   541119001241190110000000082Sein Gay Har Super Cen YANGON        MMR11007090853191210360709000000000000000   10300001F00104100000000018800000000000000     
100   62911028202074950000000000029000000000029000002000000010410407080015030002264773800708218906000226   1030000500030000   598320001203000015172200012MAX ENERGY             PTN           MMR11007080015030002260708000000000000000   10300001 00104100000000000870000000000000     
100   62911028202499270000000000052200000000052200002000000010410407080753310000384773800708218914000038   1030000500030000   541120231301000045411202313CITY MART (AYEYARWON)  PTN           MMR11007080753310000380708000000000000000   10300001 00104100000000003132000000000000     
100   95050323282717740000000000030000000000030000002000000010410407080444250005217521060708218911000521   1030000500030000   598320068301000055983200683MAX ENERGY             PTN           MMR11007080444250005210708000000000000000   10300001 00104100000000003600000000000000     
100   95050326750398570000000000020500000000020500002000000010410407081040090000558422480708218917000055   1030000500030000   573220043201000055732200432REMAX                  PTN           MMR11007081040090000550708000000000000000   10300001 00104100000000004920000000000000     
100   95050310397364970000000000001980000000001980002000000010410407091430410041085260120709000007467780   1020000200030000   333400010001204104000000281Myanmar Soft-Gate Tech Yangon        MMR11007091430410041080709000000000000000   10300001F05104100000000000416000000000000     
100   95050313640946520000000000400000000000400000002000000010410407090410501140641266310709949401050189   1030000900030000   573219001180190110000000936UNIQUE UChit Maung     YANGON        MMR11007090410501140640709000000000000000   10300001F00104100000000096000000000000000     
100   62911028202489110000000000019200000000019200002000000010410407091029481237564773800709914591648189   1030000900030000   541119001236190110000000951Marketplace KTY C 6    YANGONARTAUNG MMR11007091029481237560709000000000000000   10300001F00104100000000001152000000000000     
100   95050312641885210000000000014850000000014850002000000010410407091442181218413948020709000007467823   1020000200030000   333400010001204104000000281Myanmar Soft-Gate Tech Yangon        MMR11007091442181218410709000000000000000   10300001F05104100000000003119000000000000     
100   62911028202473430000000000005500000000005500002000000010410407091431200111464773800709000749853302   1030000200030000   541188001088000008000000294KBZ BANK               CITY MART - J MMR11007091431200111460709000000000000000   10300001 00104100000000000330000000000000     
100   62911028202116120000000000035500000000035500002000000010410407091057440095634773800709000749842482   1030000200030000   541188001018000008000000008KBZ BANK               MARKETPLACE - MMR11007091057440095630709000000000000000   10300001 00104100000000002130000000000000     
100   95050312210363590000000000001000000000001000002000000010410407091439040904302295540709000007467814   1030000200030000   333800010001203104000003327KBZPay                 Yangon        MMR11007091439040904300709000000000000000   10300001F05104100000000000210000000000000     
100   95050320088670570000000000043550000000043550002000000010410407091121411253237834880709941511741189   1030000900030000   541119001249190110000000955City Mart JS C 8       YANGONUT      MMR11007091121411253230709000000000000000   10300001F00104100000000010888000000000000     
100   95050320205194540000000000020900000000020900002000000010410407091042351241931565320709214121735189   1030000900030000   541119001263190110000000958City Mart PLST C 6     YANGONMYOTHIT MMR11007091042351241930709000000000000000   10300001F00104100000000005225000000000000     
100   95050320694620120000000000008950000000008950002000000010410407091255000171360769520709000749848094   1030000200030000   541188001306000008000000325KBZ BANK               CITY MART - A MMR11007091255000171360709000000000000000   10300001 00104100000000002238000000000000     
100   62911028202248050000000000030630000000030630002000000010410407091048111243574773800709320181711189   1030000900030000   541119001330190110000000971Ocean Junction NPT C 8 NAYPYITAW     MMR11007091048111243570709000000000000000   10300001F00104100000000001838000000000000     
100   95050318214455130000000000002970000000002970002000000010410407090040481048377330010709000007465050   1020000200030000   333400010001204104000000281Myanmar Soft-Gate Tech Yangon        MMR11007090040481048370709000000000000000   10300001F05104100000000000624000000000000     
