100   95050314570621780000000000000990000000000990002000000010410407081357382738667670400708000007464209   1020000200030000   333400010001204104000000281Myanmar Soft-Gate Tech Yangon        MMR11007081357382738660708000000000000000   10300001F05104100000000000208000000000000     
100   95050314557307430000000000001980000000001980002000000010410407080833360336708883620708000007462497   1020000200030000   333400010001204104000000281Myanmar Soft-Gate Tech Yangon        MMR11007080833360336700708000000000000000   10300001F05104100000000000416000000000000     
100   95050319391394380000000000011838000000011838002000000010410407081042580981176769990708568121758188   1030000900030000   541119000124190110000000080Sein Gay Har BAK       YANGONADA     MMR11007081042580981170708000000000000000   10300001F00104100000000002960000000000000     
100   95030331386331890000000000030000000000030000002000000010410407071651412141034773800708000007458654   1030000200030000   333800010001203104000003327KBZPay                 Yangon        MMR11007071651412141030708000000000000000   10300001F05104100000000006300000000000000     
100   62443100397667340000000000004950000000004950002000000010410407080700403040365676530708000007461744   1020000200030000   333400010001204104000000281Myanmar Soft-Gate Tech Yangon        MMR11007080700403040360708000000000000000   10300001F05104100000000001040000000000000     
100   95050317043153610000000000017050000000017050002000000010410407081035310979270585540708463051731188   1030000900030000   541119001462190110000000077Sein Gay Har Chinatown YANGON        MMR11007081035310979270708000000000000000   10300001F00104100000000004263000000000000     
100   95050323133124350000000000005000000000005000002000000010410407081249101910407755500708000007463933   1030000200030000   333800010001203104000003327KBZPay                 Yangon        MMR11007081249101910400708000000000000000   10300001F05104100000000001050000000000000     
100   95050312618592720000000000050000000000050000002000000010410407081008113811247025280708000007463295   1030000200030000   333800010001203104000003327KBZPay                 Yangon        MMR11007081008113811240708000000000000000   10300001F05104100000000010500000000000000     
100   62443100390038980000000000135000000000135000002000000010410407060141580451489481870706218701045148   1030000600030000   554100001106315799420000564DENKO PHYUU            PHYUU         MMR11007060141580451480706000000000000000   10300001 00104100000000016200000000000000     
100   95050321084131410000000000065000000000065000002000000010410407071109220009730831760707218817000973   1030000500030000   598320001404000015172200014MAX ENERGY             PTN           MMR11007071109220009730707000000000000000   10300001 00104100000000007800000000000000     
100   95050327687938160000000003000000000003000000002000000010410407070427040001945901890707000354162711   1030000300030000   594400000124000000000000055CB BANK                LUCKY DIAMOND MMR11007070427040001940707000000000000000   10300001F00104100000000720000000000000000     
100   95050328384000040000000000014000000000014000002000000010410407070749150001469646130707218814000146   1030000500030000   569120066801008205691200668ESCORT                 PTN           MMR11007070749150001460707000000000000000   10300001 00104100000000003360000000000000     
100   95050316355723530000000000014000000000014000002000000010410407071024310002585775420707218816000258   1030000500030000   531120155804000045311201558GAMONE PWINT           PTN           MMR11007071024310002580707000000000000000   10300001 00104100000000003360000000000000     
100   95050318608138520000000000022200000000022200002000000010410407071129060006660236080707000354227384   1030000300030000   531100000568000000000000376CB BANK                CAPITAL HYPER MMR11007071129060006660707000000000000000   10300001F00104100000000005328000000000000     
100   62911028202133940000000000050000000000050000002000000010410407070132040008744773800707218808000874   1030000500030000   598320001404000015172200014MAX ENERGY             PTN           MMR11007070132040008740707000000000000000   10300001 00104100000000001500000000000000     
100   95050328035424750000000000122000000000122000002000000010410407070636110006050398200707218813000605   1030000500030000   531120231217000045311202312OCEAN OATTARA THIRI    PTN           MMR11007070636110006050707000000000000000   10300001 00104100000000029280000000000000     
100   95050313616076540000000000030200000000030200002000000010410407080504423442086818440708000007460779   1030000200030000   333800010001203104000003327KBZPay                 Yangon        MMR11007080504423442080708000000000000000   10300001F05104100000000006342000000000000     
100   95050316355723530000000000002970000000002970002000000010410407081253332333119407980708000007463956   1020000200030000   333400010001204104000000281Myanmar Soft-Gate Tech Yangon        MMR11007081253332333110708000000000000000   10300001F05104100000000000624000000000000     
100   95050315487243490000000000050000000000050000002000000010410407080454542454419939410708000007460665   1030000200030000   3338000100012031040000040022C2P (Myanmar) Co.Ltd  Yangon        MMR11007080454542454410708000000000000000   10300001F05104100000000010500000000000000     
100   95030314863516850000000000007000000000007000002000000010410407080651442144034773800708000007461654   1030000200030000   333800010001203104000003327KBZPay                 Yangon        MMR11007080651442144030708000000000000000   10300001F05104100000000001470000000000000     
100   62911028202440680000000000017700000000017700002000000010410407080451070884004773800708439211107188   1030000900030000   591219000970190110000000777Shwe Ohh Pharmacy St ( YANGONAW      MMR11007080451070884000708000000000000000   10300001F00104100000000001062000000000000     
100   95050314794441720000000000300000000000300000002000000010410407080649151915062456660708000007461640   1030000200030000   333800010001203104000003327KBZPay                 Yangon        MMR11007080649151915060708000000000000000   10300001F05104100000000063000000000000000     
100   62443100313529540000000000006000000000006000002000000010410407080347311731650590260708000007460069   1030000200030000   333800010001203104000003327KBZPay                 Yangon        MMR11007080347311731650708000000000000000   10300001F05104100000000001260000000000000     
100   95050310332595380000000000000990000000000990002000000010410407081053352335591727440708000007463511   1020000200030000   333400010001204104000000281Myanmar Soft-Gate Tech Yangon        MMR11007081053352335590708000000000000000   10300001F05104100000000000208000000000000     
100   95050328212196190000000000030516000000030516002000000010410407070634260006908490430707000354183593   1030000300030000   531100000750000000000000408CB BANK                CAPITAL HYPER MMR11007070634260006900707000000000000000   10300001F00104100000000007324000000000000     
100   95050316818460650000000000025000000000025000002000000010410407070127450007494886450707218807000749   1030000500030000   598320001003000015172200010MAX ENERGY             PTN           MMR11007070127450007490707000000000000000   10300001 00104100000000003000000000000000     
100   95050322921717110000000000030000000000030000002000000010410407070125430006643233960707218807000664   1030000500030000   598320001602000015172200016MAX ENERGY             PTN           MMR11007070125430006640707000000000000000   10300001 00104100000000003600000000000000     
100   95030308100042590000000000075000000000075000002000000010410407071141260003914773800707218818000391   1030000500030000   598320001701000015172200017MAX ENERGY             PTN           MMR11007071141260003910707000000000000000   10300001 00104100000000002250000000000000     
100   95050311952389400000000000190000000000190000002000000010410407070534520000161759740707218812000016   1030000500030000   594420027001000015944200270TAH LEE GOLD & JEWELLE PTN           MMR11007070534520000160707000000000000000   10300001 00104100000000045600000000000000     
100   62911028202446540000000000020300000000020300002000000010410407070311140006414773800707218809000641   1030000500030000   541120227501000045411202275CITY MART (AHLONE BRAN PTN           MMR11007070311140006410707000000000000000   10300001 00104100000000001218000000000000     
100   95050311048637960000000000012300000000012300002000000010410407071111240000781973670707218817000078   1030000500030000   531120155905000045311201559GAMONE PWINT           PTN           MMR11007071111240000780707000000000000000   10300001 00104100000000002952000000000000     
100   95050320531117320000000000050000000000050000002000000010410407070254240003462292190707218809000346   1030000500030000   598320001501000015172200015MAX ENERGY             PTN           MMR11007070254240003460707000000000000000   10300001 00104100000000006000000000000000     
100   95050310213446310000000000015000000000015000002000000010410407080708123812883952740708000007461801   1030000200030000   3338000100012031040000040022C2P (Myanmar) Co.Ltd  Yangon        MMR11007080708123812880708000000000000000   10300001F05104100000000003150000000000000     
100   95050313145843230000000000010000000000010000002000000010410407080800243024631023810708000007462246   1030000200030000   333800010001203104000003327KBZPay                 Yangon        MMR11007080800243024630708000000000000000   10300001F05104100000000002100000000000000     
100   95050315430281830000000000020000000000020000002000000010410407081417084708761315760708000007464278   1030000200030000   333800010001203104000003327KBZPay                 Yangon        MMR11007081417084708760708000000000000000   10300001F05104100000000004200000000000000     
100   62443100355903280000000000001000000000001000002000000010410407080527155715689527740708000007461004   1030000200030000   3334000100012031040000040102C2P (Myanmar) Co.Ltd  Yangon        MMR11007080527155715680708000000000000000   10300001F05104100000000000210000000000000     
100   95050316355723530000000000002350000000002350002000000010410407071029360002606115810707218816000260   1030000500030000   531120155804000045311201558GAMONE PWINT           PTN           MMR11007071029360002600707000000000000000   10300001 00104100000000000564000000000000     
100   62911028202107210000000000048800000000048800002000000010410407071440350106034773800707000749747055   1030000200030000   541188001062000008000000314KBZ BANK               MARKETPLACE - MMR11007071440350106030707000000000000000   10300001 00104100000000002928000000000000     
100   62911028202423360000000000002800000000002800002000000010410407071302090009714773800707218819000971   1030000500030000   531120226738000045311202267OCEAN NORTH POINT      PTN           MMR11007071302090009710707000000000000000   10300001 00104100000000000168000000000000     
100   62911028202651050000000000030000000000030000002000000010410407081009234437064773800708392336773196   1040001400030000   504510000443025045100005755Technoland Computer Tr ding CoLtd(T MMR11007081009234437060708000000000000000   10300001 00104100000000001800000000000000     
100   95050315955808830000000000050000000000050000002000000010410407070320340006763774480707218809000676   1030000500030000   598320001602000015172200016MAX ENERGY             PTN           MMR11007070320340006760707000000000000000   10300001 00104100000000006000000000000000     
100   95050321237170130000000000111920000000111920002000000010410407070615560003391164070707218812000339   1030000500030000   569120096201019505691200962MK FASHION SHOP        PTN           MMR11007070615560003390707000000000000000   10300001 00104100000000026861000000000000     
100   95050323576695670000000000049900000000049900002000000010410407070416260004158150050707000749724775   1030000200030000   569988002492000008000006651KBZ BANK               JC-MANGO      MMR11007070416260004150707000000000000000   10300001 00104100000000011976000000000000     
100   62911028202116120000000000031400000000031400002000000010410407071149500001164773800707218818000116   1030000500030000   591220010401014405912200104SHWE OHH PHARMACY      PTN           MMR11007071149500001160707000000000000000   10300001 00104100000000001884000000000000     
100   62911028202527490000000000040000000000040000002000000010410407070338570006774773800707218810000677   1030000500030000   598320002103000015172200021MAX ENERGY             PTN           MMR11007070338570006770707000000000000000   10300001 00104100000000001200000000000000     
100   95050328384000040000000000036950000000036950002000000010410407070707260000908504220707218813000090   1030000500030000   581220216101000085812202161ASTONS                 PTN           MMR11007070707260000900707000000000000000   10300001 00104100000000015704000000000000     
100   95050314767696390000000000003400000000003400002000000010410407070941550002779676060707218816000277   1030000500030000   531120155712000045311201557GAMONE PWINT           PTN           MMR11007070941550002770707000000000000000   10300001 00104100000000000816000000000000     
100   62911028202225850000000000008900000000008900002000000010410407071031520000614773800707218817000061   1030000500030000   591220211101014405912202111SHWE OHH PHARMACY      PTN           MMR11007071031520000610707000000000000000   10300001 00104100000000000534000000000000     
100   62911028202416760000000000050000000000050000002000000010410407080200257915194773800708218909791519   1040001600030000   598320000854000000010000608Terminal Petrol Statio Yangon        MMR11007080200257915190708000000000000000   10300001F00104100000000001500000000000000     
100   62911028202451150000000000071515000000071515002000000010410407070738480006444773800707218814000644   1030000500030000   541120229003000045411202290CITY MART SUPERMARKET  PTN           MMR11007070738480006440707000000000000000   10300001 00104100000000004291000000000000     
100   95050317919176400000000000003600000000003600002000000010410407071238220003303370860707218819000330   1030000500030000   541120203812000015411202038CITY MART SUPERMARKET  PTN           MMR11007071238220003300707000000000000000   10300001 00104100000000000900000000000000     
100   95050311931431670000000000004950000000004950002000000010410407080719534953606491850708000007461896   1020000200030000   333400010001204104000000281Myanmar Soft-Gate Tech Yangon        MMR11007080719534953600708000000000000000   10300001F05104100000000001040000000000000     
100   62911028202291190000000000047410000000047410002000000010410407070708320005894773800707000749741215   1030000200030000   806281231111000008000001642KBZ BANK               ASIA ROYAL HO MMR11007070708320005890707000000000000000   10300001 00104100000000002845000000000000     
100   62911028202077190000000000000990000000000990002000000010410407081404043404014773800708000007464231   1020000200030000   333400010001204104000000281Myanmar Soft-Gate Tech Yangon        MMR11007081404043404010708000000000000000   10300001F05104100000000000208000000000000     
100   95050317071956460000000000000990000000000990002000000010410407080124505450657150750708000007459049   1020000200030000   333400010001204104000000281Myanmar Soft-Gate Tech Yangon        MMR11007080124505450650708000000000000000   10300001F05104100000000000208000000000000     
100   62443100373945130000000000030000000000030000002000000010410407080635038066637158830708218913806663   1040001600030000   598320000911000000010000662MMTM - Tamwe           Ygn           MMR11007080635038066630708000000000000000   10300001F00104100000000003600000000000000     
100   62911028202260160000000000054000000000054000002000000010410407070329120009404773800707218809000940   1030000500030000   598320001001000015172200010MAX ENERGY             PTN           MMR11007070329120009400707000000000000000   10300001 00104100000000001620000000000000     
100   62911028202807400000000000070200000000070200002000000010410407070625430000344773800707218812000034   1030000500030000   541120129714000045411201297MAKRO MYANMAR          PTN           MMR11007070625430000340707000000000000000   10300001 00104100000000004212000000000000     
100   95050323282717740000000000020000000000020000002000000010410407071304080006339214930707218819000633   1030000500030000   598320068303000055983200683MAX ENERGY             PTN           MMR11007071304080006330707000000000000000   10300001 00104100000000002400000000000000     
100   62443100390038980000000000053000000000053000002000000010410407070343030006896653960707218810000689   1030000500030000   598320002102000015172200021MAX ENERGY             PTN           MMR11007070343030006890707000000000000000   10300001 00104100000000006360000000000000     
100   95050318741700180000000000011500000000011500002000000010410407071043300001507441700707218817000150   1030000500030000   531120155805000045311201558GAMONE PWINT           PTN           MMR11007071043300001500707000000000000000   10300001 00104100000000002760000000000000     
100   95050316573091630000000000081500000000081500002000000010410407071133580005581888570707000354228070   1030000300030000   541100002333000000000000102CB BANK                MAKRO MYANMAR MMR11007071133580005580707000000000000000   10300001F00104100000000020375000000000000     
100   62911028202703370000000000022000000000022000002000000010410407070931140000264773800707218816000026   1030000500030000   701120075301009207011200753ROYAL PLATINUM HOTEL   PTN           MMR11007070931140000260707000000000000000   10300001 00104100000000002244000000000000     
100   62911028202400660000000000022888000000022888002000000010410407071401140043644773800707000749743525   1030000200030000   541188001040000008000000010KBZ BANK               MARKETPLACE - MMR11007071401140043640707000000000000000   10300001 00104100000000001373000000000000     
100   62911028202677390000000000030000000000030000002000000010410407070515530007844773800707218811000784   1030000500030000   598320001103000015172200011MAX ENERGY             PTN           MMR11007070515530007840707000000000000000   10300001 00104100000000000900000000000000     
100   62443100369813440000000000030000000000030000002000000010410407070212510009747425550707218808000974   1030000500030000   598320001302000015172200013MAX ENERGY             PTN           MMR11007070212510009740707000000000000000   10300001 00104100000000003600000000000000     
100   62443100302523870000000000049704000000049704002000000010410407070528450191062986740707218805019106   1030000600030000   554100002324315799420000481DENKO NORTH OKKALAPA   YANGON        MMR11007070528450191060707000000000000000   10300001 00104100000000005964000000000000     
100   95050311926829590000000000000990000000000990002000000010410407081314214421624365430708000007464044   1020000200030000   333400010001204104000000281Myanmar Soft-Gate Tech Yangon        MMR11007081314214421620708000000000000000   10300001F05104100000000000208000000000000     
100   95050321057500320000000000004950000000004950002000000010410407080820005000372358770708000007462399   1020000200030000   333400010001204104000000281Myanmar Soft-Gate Tech Yangon        MMR11007080820005000370708000000000000000   10300001F05104100000000001040000000000000     
100   95050315158357300000000000002500000000002500002000000010410407080427055705776499910708000007460417   1030000200030000   333800010001203104000003327KBZPay                 Yangon        MMR11007080427055705770708000000000000000   10300001F05104100000000000525000000000000     
100   95050320335873810000000000000990000000000990002000000010410407081228175817981145560708000007463847   1020000200030000   333400010001204104000000281Myanmar Soft-Gate Tech Yangon        MMR11007081228175817980708000000000000000   10300001F05104100000000000208000000000000     
100   62911028202448030000000000025000000000025000002000000010410407080429457987514773800708218911798751   1040001600030000   598320000658000000010000527Shwe Taung Energy (YGN Yangon        MMR11007080429457987510708000000000000000   10300001F00104100000000000750000000000000     
100   95030327835334700000000000028111000000028111002000000010410407071950200170454773800707000749762610   1030000200030000   541188001242000008000000323KBZ BANK               CITY MART - I MMR11007071950200170450707000000000000000   10300001 00104100000000001687000000000000     
100   62911028202115960000000000080500000000080500002000000010410407070556160041064773800707000749733745   1030000200030000   599988000601000008000003442KBZ BANK               SWEETY HOME ( MMR11007070556160041060707000000000000000   10300001 00104100000000004830000000000000     
100   62443100355445150000000000033700000000033700002000000010410407070641310040025270560707000354184778   1030000300030000   541100002331000000000000102CB BANK                MAKRO MYANMAR MMR11007070641310040020707000000000000000   10300001F00104100000000008425000000000000     
100   62911028202112400000000000023000000000023000002000000010410407070131340010204773800707218808001020   1030000500030000   598320001204000015172200012MAX ENERGY             PTN           MMR11007070131340010200707000000000000000   10300001 00104100000000000690000000000000     
100   62443100357321690000000000059623000000059623002000000010410407071312150043715909960707000354241173   1030000300030000   541100001022000000000000719CB BANK                ONE STOP MART MMR11007071312150043710707000000000000000   10300001F00104100000000014906000000000000     
100   62911028202423360000000000005700000000005700002000000010410407071310490008224773800707218819000822   1030000500030000   531120226718000045311202267OCEAN NORTH POINT      PTN           MMR11007071310490008220707000000000000000   10300001 00104100000000000342000000000000     
100   95050315005801680000000000009400000000009400002000000010410407071035230010497768290707000354219817   1030000300030000   541100000634000000000000433CB BANK                ONE STOP MART MMR11007071035230010490707000000000000000   10300001F00104100000000002350000000000000     
100   95050324104751500000000000024750000000024750002000000010410407071130580017163541050707218818001716   1030000500030000   541120227604000045411202276CITY MART ( 47 BRANCH  PTN           MMR11007071130580017160707000000000000000   10300001 00104100000000006188000000000000     
100   95050319974529540000000000005000000000005000002000000010410407071721245124675838650708000007458705   1030000200030000   333800010001203104000003327KBZPay                 Yangon        MMR11007071721245124670708000000000000000   10300001F05104100000000001050000000000000     
100   95050322990383760000000000002700000000002700002000000010410407070318500002070469510707218809000207   1030000500030000   541120233901000045411202339CITY EXPRESS (MCS - 55 PTN           MMR11007070318500002070707000000000000000   10300001 00104100000000000675000000000000     
100   62911028202593140000000000040000000000040000002000000010410407070454330586234773800707218804058623   1030000600030000   554100001756315799420001137DENKO NORTH DAGON 2    YANGON        MMR11007070454330586230707000000000000000   10300001 00104100000000001200000000000000     
100   95050317284600370000000000050000000000050000002000000010410407081116084608505202610708000007463599   1030000200030000   333800010001203104000003327KBZPay                 Yangon        MMR11007081116084608500708000000000000000   10300001F05104100000000010500000000000000     
100   62443100395250310000000000001980000000001980002000000010410407081414504450911400850708000007464267   1020000200030000   333400010001204104000000281Myanmar Soft-Gate Tech Yangon        MMR11007081414504450910708000000000000000   10300001F05104100000000000416000000000000     
100   95050312962334280000000000000990000000000990002000000010410407081320365036026017920708000007464063   1020000200030000   333400010001204104000000281Myanmar Soft-Gate Tech Yangon        MMR11007081320365036020708000000000000000   10300001F05104100000000000208000000000000     
100   62911028202715580000000000050000000000050000002000000010410407080517544754354773800708000007460893   1030000300030000   333300010001206104000002147DICA Company Limited   Yangon        MMR11007080517544754350708000000000000000   10300001F05104100000000010000000000000000     
100   95050313732480420000000000002970000000002970002000000010410407081213004300746429610708000007463791   1020000200030000   333400010001204104000000281Myanmar Soft-Gate Tech Yangon        MMR11007081213004300740708000000000000000   10300001F05104100000000000624000000000000     
100   95030310100002200000000000008442000000008442002000000010410407071736170066524773800707000749756955   1030000200030000   541188001333000008000000327KBZ BANK               CITY MART - S MMR11007071736170066520707000000000000000   10300001 00104100000000000507000000000000     
100   95050314365758940000000000027662000000027662002000000010410407071135200011173455950707218818001117   1030000500030000   541120203805000015411202038CITY MART SUPERMARKET  PTN           MMR11007071135200011170707000000000000000   10300001 00104100000000006916000000000000     
100   62911028202696360000000000007141000000007141002000000010410407071004080009624773800707218816000962   1030000500030000   541120230203000045411202302CITY MART SUPERMARKET  PTN           MMR11007071004080009620707000000000000000   10300001 00104100000000000429000000000000     
100   95030378828065520000000000030500000000030500002000000010410407070952260016824773800707000354213508   1030000300030000   591200000340000000000000220CB BANK                MEDICARE STOR MMR11007070952260016820707000000000000000   10300001F00104100000000001830000000000000     
100   62911028202031710000000000028000000000028000002000000010410407070108190008694773800707218807000869   1030000500030000   598320001404000015172200014MAX ENERGY             PTN           MMR11007070108190008690707000000000000000   10300001 00104100000000000840000000000000     
100   62443101093150400000000000034700000000034700002000000010410407071208130025588158120707000749760242   1030000200030000   581288001917000008000005395KBZ BANK               MIN LAN RESTA MMR11007071208130025580707000000000000000   10300001 00104100000000014748000000000000     
100   95050317919176400000000000024050000000024050002000000010410407071233550010586675820707218819001058   1030000500030000   541120203807000015411202038CITY MART SUPERMARKET  PTN           MMR11007071233550010580707000000000000000   10300001 00104100000000006013000000000000     
100   62443100372718280000000000017920000000017920002000000010410407070104240013398531800707218807001339   1030000500030000   598320001903000015172200019MAX ENERGY             PTN           MMR11007070104240013390707000000000000000   10300001 00104100000000002150000000000000     
100   95050317176867660000000000000990000000000990002000000010410407071912014201010796110708000007458817   1020000200030000   333400010001204104000000281Myanmar Soft-Gate Tech Yangon        MMR11007071912014201010708000000000000000   10300001F05104100000000000208000000000000     
100   62911028202472440000000000059000000000059000002000000010410407080843378133894773800708218915813389   1040001600030000   598320000658000000010000527Shwe Taung Energy (YGN Yangon        MMR11007080843378133890708000000000000000   10300001F00104100000000001770000000000000     
100   95050312695033440000000000019800000000019800002000000010410407080921495149783415580708000007462930   1020000200030000   333400010001204104000000281Myanmar Soft-Gate Tech Yangon        MMR11007080921495149780708000000000000000   10300001F05104100000000004158000000000000     
100   95050318131043910000000000000990000000000990002000000010410407081517264726869663270708000007464522   1020000200030000   333400010001204104000000281Myanmar Soft-Gate Tech Yangon        MMR11007081517264726860708000000000000000   10300001F05104100000000000208000000000000     
100   62911028202595200000000000037197000000037197002000000010410407081208318312374773800708218919831237   1040001600030000   598320000658000000010000527Shwe Taung Energy (YGN Yangon        MMR11007081208318312370708000000000000000   10300001F00104100000000001116000000000000     
100   95050319178423260000000000005000000000005000002000000010410407071723075307660881200708000007458712   1030000200030000   333800010001203104000003327KBZPay                 Yangon        MMR11007071723075307660708000000000000000   10300001F05104100000000001050000000000000     
100   95050312937155340000000000014700000000014700002000000010410407080958328180412238030708218916818041   1040001600030000   591220000291000000010000279Shwe Ohh Pharmacy (Sou Yangon        MMR11007080958328180410708000000000000000   10300001F00104100000000003528000000000000     
100   62911028202684060000000000066200000000066200002000000010410407070832130005614773800707218815000561   1030000500030000   531120226711000045311202267OCEAN NORTH POINT      PTN           MMR11007070832130005610707000000000000000   10300001 00104100000000003972000000000000     
100   62911028202491410000000000031500000000031500002000000010410407070421160046524773800707218804004652   1030000600030000   809900000542315799420000147GRAND HANTHA HOSPITAL  YANGON        MMR11007070421160046520707000000000000000   10300001 00104100000000001890000000000000     
100   95050324082484780000000000050000000000050000002000000010410407071302470074377647540707218813007437   1030000600030000   554100000722315799420000304DENKO MDY - 62         MANDALAY      MMR11007071302470074370707000000000000000   10300001 00104100000000006000000000000000     
100   62911028202446540000000000055000000000055000002000000010410407070231330016614773800707000749718344   1030000200030000   599988000603000008000003448KBZ BANK               SWEETY HOME(6 MMR11007070231330016610707000000000000000   10300001 00104100000000003300000000000000     
100   95050318052625040000000000050000000000050000002000000010410407071207450332231548190707218812033223   1030000600030000   554100001113315799420000571DENKO THAN HLYIN -1    THAN HLYIN    MMR11007071207450332230707000000000000000   10300001 00104100000000006000000000000000     
100   62911028202806660000000000006300000000006300002000000010410407070537210017944773800707218812001794   1030000500030000   541120230002000045411202300MARKET PLACE BY CITY M PTN           MMR11007070537210017940707000000000000000   10300001 00104100000000000378000000000000     
100   62443100311760720000000000060000000000060000002000000010410407070152420324803148860707218801032480   1030000600030000   554100002085315799420000471DENKO BAHAN            YANGON        MMR11007070152420324800707000000000000000   10300001 00104100000000007200000000000000     
100   62911028202539600000000000042900000000042900002000000010410407070704240021654773800707218807002165   1030000600030000   569100000514315799420000134RENE MYANMAR CM        YANGON        MMR11007070704240021650707000000000000000   10300001 00104100000000002574000000000000     
100   62911028202169750000000000203287000000203287002000000010410407071149210275124773800707000749730576   1030000200030000   541188001003000008000000008KBZ BANK               MARKETPLACE - MMR11007071149210275120707000000000000000   10300001 00104100000000012197000000000000     
100   95050311121153200000000000000990000000000990002000000010410407080134460446517065660708000007459081   1020000200030000   333400010001204104000000281Myanmar Soft-Gate Tech Yangon        MMR11007080134460446510708000000000000000   10300001F05104100000000000208000000000000     
100   95050315099113150000000000004950000000004950002000000010410407071838040804202533680708000007458808   1020000200030000   333400010001204104000000281Myanmar Soft-Gate Tech Yangon        MMR11007071838040804200708000000000000000   10300001F05104100000000001040000000000000     
100   95050310427855490000000000000990000000000990002000000010410407081138240824107997000708000007463681   1020000200030000   333400010001204104000000281Myanmar Soft-Gate Tech Yangon        MMR11007081138240824100708000000000000000   10300001F05104100000000000208000000000000     
100   95050318141561190000000000010000000000010000002000000010410407080801203120730938720708000007462253   1040001600030000   333800010001220104000004507A +                    Yangon        MMR11007080801203120730708000000000000000   10300001F05104100000000002100000000000000     
100   95050311959900780000000000001980000000001980002000000010410407081128325832753550120708000007463648   1020000200030000   333400010001204104000000281Myanmar Soft-Gate Tech Yangon        MMR11007081128325832750708000000000000000   10300001F05104100000000000416000000000000     
100   95050311458479980000000000010000000000010000002000000010410407080935140514184387300708000007463041   1030000200030000   3338000100012031040000040022C2P (Myanmar) Co.Ltd  Yangon        MMR11007080935140514180708000000000000000   10300001F05104100000000002100000000000000     
100   62443100390038980000000000077558000000077558002000000010410407070141070078296453830707218801007829   1030000600030000   581200001904315799420001274SIGNATURE FINEDINING 2 BAHAN         MMR11007070141070078290707000000000000000   10300001 00104100000000032962000000000000     
100   62443100372718280000000000022151000000022151002000000010410407080904298146619770230708218916814661   1040001600030000   598320001170000000010000527Shwe Taung Energy (YGN Yangon        MMR11007080904298146610708000000000000000   10300001F00104100000000002658000000000000     
100   95050322990383760000000000010400000000010400002000000010410407070947100016151243450707218816001615   1030000500030000   541120203706000015411202037CITY MART SUPERMARKET  PTN           MMR11007070947100016150707000000000000000   10300001 00104100000000002600000000000000     
100   62443100343196790000000000013000000000013000002000000010410407072005570049404512770707000749763026   1030000200030000   541188001465000008000000391KBZ BANK               OCEAN SUPER C MMR11007072005570049400707000000000000000   10300001 00104100000000003250000000000000     
100   95050324082484780000000000114700000000114700002000000010410407070432110163877384170707218804016387   1030000600030000   554100002329315799420000304DENKO MDY - 62         MANDALAY      MMR11007070432110163870707000000000000000   10300001 00104100000000013764000000000000     
100   62911028202197630000000000008500000000008500002000000010410407070804210839034773800707218808083903   1030000600030000   554100000955315799420000477DENKO INSEIN           YANGON        MMR11007070804210839030707000000000000000   10300001 00104100000000000255000000000000     
100   62911028202651050000000000044070000000044070002000000010410407070938500371864773800707000749720065   1030000200030000   541188001041000008000000010KBZ BANK               MARKETPLACE - MMR11007070938500371860707000000000000000   10300001 00104100000000002644000000000000     
100   95050321084131410000000001971795000001971795002000000010410407080541271127272599260708000007461112   1010000100030000   333500010001205104000000364Internal Revenue Depar Yangon        MMR11007080541271127270708000000000000000   10300001F05104100000000060000000000000000     
100   62443101023815100000000002133286000002133286002000000010410407080859272927734812780708000007462708   1010000100030000   333500010001212104000002543Internal Revenue Depar Yangon        MMR11007080859272927730708000000000000000   10300001F05104100000000060000000000000000     
100   95050312962334280000000000000990000000000990002000000010410407080841461146081592900708000007462566   1020000200030000   333400010001204104000000281Myanmar Soft-Gate Tech Yangon        MMR11007080841461146080708000000000000000   10300001F05104100000000000208000000000000     
100   62911028202142930000000000025000000000025000002000000010410407080750208104864773800708218914810486   1040001600030000   598320000659000000010000528Shwe Taung Energy (YGN Yangon        MMR11007080750208104860708000000000000000   10300001F00104100000000000750000000000000     
100   95050322420590810000000000080000000000080000002000000010410407070105240562871921860707218801056287   1030000600030000   554100000969315799420000481DENKO NORTH OKKALAPA   YANGON        MMR11007070105240562870707000000000000000   10300001 00104100000000009600000000000000     
100   95030310100002200000000000005800000000005800002000000010410407071742460007124773800707000749757329   1030000200030000   541188001343000008000000327KBZ BANK               CITY MART - S MMR11007071742460007120707000000000000000   10300001 00104100000000000348000000000000     
100   95050324411430900000000000434642000000434642002000000010410407080933140314612734810708000007463020   1010000100030000   333500010001212104000002840Internal Revenue Depar Yangon        MMR11007080933140314610708000000000000000   10300001F05104100000000060000000000000000     
100   62911028202290100000000000041116000000041116002000000010410407081311490042764773800708000749797033   1030000200030000   541188001079000008000000294KBZ BANK               CITY MART - J MMR11007081311490042760708000000000000000   10300001 00104100000000002467000000000000     
100   95030380157605420000000000300000000000300000002000000010410407080259182918974773800708000007459503   1030000200030000   333800010001203104000003327KBZPay                 Yangon        MMR11007080259182918970708000000000000000   10300001F05104100000000063000000000000000     
100   62911028202484810000000000050000000000050000002000000010410407080945480964914773800708687151648188   1030000900030000   554119001100190110000000212New Day Energy PZD     YANGON        MMR11007080945480964910708000000000000000   10300001F00104100000000001500000000000000     
100   62911028202308280000000000008900000000008900002000000010410407080334100863444773800708397041010188   1030000900030000   581219000528190110000000376Shwepalin (Hantharwadd YANGONUT      MMR11007080334100863440708000000000000000   10300001F00104100000000000908000000000000     
100   62911028202530930000000000038900000000038900002000000010410407080748550006884773800708000749803262   1030000200030000   581288000746000008000004038KBZ BANK               CAESAR CAF? & MMR11007080748550006880708000000000000000   10300001 00104100000000003968000000000000     
100   62911028202421040000000000269000000000269000002000000010410407080838140002714773800708000749807494   1030000200030000   504688002432000008000006488KBZ BANK               MARY JUNCTION MMR11007080838140002710708000000000000000   10300001 00104100000000016140000000000000     
100   62911028202651050000000000025000000000025000002000000010410407081608230278514773800708000749811338   1030000200030000   541188001038000008000000010KBZ BANK               MARKETPLACE - MMR11007081608230278510708000000000000000   10300001 00104100000000001500000000000000     
100   62443100345308040000000000083300000000083300002000000010410407081135050505110160060708000007463667   1030000200030000   333800010001203104000003327KBZPay                 Yangon        MMR11007081135050505110708000000000000000   10300001F05104100000000017493000000000000     
100   95050324411430900000000000245960000000245960002000000010410407080937460746156380160708000007463070   1010000100030000   333500010001212104000002840Internal Revenue Depar Yangon        MMR11007080937460746150708000000000000000   10300001F05104100000000060000000000000000     
100   62911028202290100000000000050965000000050965002000000010410407081014040134684773800708000749780102   1030000200030000   541188001081000008000000294KBZ BANK               CITY MART - J MMR11007081014040134680708000000000000000   10300001 00104100000000003058000000000000     
100   95030327835334700000000000025750000000025750002000000010410407082031000170754773800708000749823504   1030000200030000   541188001242000008000000323KBZ BANK               CITY MART - I MMR11007082031000170750708000000000000000   10300001 00104100000000001545000000000000     
100   95050326155679180000000000005940000000005940002000000010410407080532130213949783020708000007461047   1020000200030000   333400010001204104000000281Myanmar Soft-Gate Tech Yangon        MMR11007080532130213940708000000000000000   10300001F05104100000000001247000000000000     
100   95050311184380560000000000002970000000002970002000000010410407080930300030577692260708000007463007   1020000200030000   333400010001204104000000281Myanmar Soft-Gate Tech Yangon        MMR11007080930300030570708000000000000000   10300001F05104100000000000624000000000000     
100   62911028202790560000000000032350000000032350002000000010410407081246330205354773800708000749794512   1030000200030000   541188001082000008000000294KBZ BANK               CITY MART - J MMR11007081246330205350708000000000000000   10300001 00104100000000001941000000000000     
100   95050311121153200000000000000990000000000990002000000010410407080132200220828803230708000007459072   1020000200030000   333400010001204104000000281Myanmar Soft-Gate Tech Yangon        MMR11007080132200220820708000000000000000   10300001F05104100000000000208000000000000     
100   95050316442084030000000000030500000000030500002000000010410407081134390439588507570708000007463664   1030000200030000   333800010001203104000003327KBZPay                 Yangon        MMR11007081134390439580708000000000000000   10300001F05104100000000006405000000000000     
100   95050314567080940000000000000990000000000990002000000010410407081332340234192627850708000007464110   1020000200030000   333400010001204104000000281Myanmar Soft-Gate Tech Yangon        MMR11007081332340234190708000000000000000   10300001F05104100000000000208000000000000     
100   95050322312885760000000000015000000000015000002000000010410407071930120012752448590708000007458823   1030000200030000   333800010001203104000003327KBZPay                 Yangon        MMR11007071930120012750708000000000000000   10300001F05104100000000003150000000000000     
100   95050313067820340000000000079700000000079700002000000010410407080633390339620633990708000007461519   1030000200030000   333800010001203104000003327KBZPay                 Yangon        MMR11007080633390339620708000000000000000   10300001F05104100000000016737000000000000     
100   62911028202232860000000000052573000000052573002000000010410407081726290032614773800708000749816116   1030000200030000   541188001008000008000000008KBZ BANK               MARKETPLACE - MMR11007081726290032610708000000000000000   10300001 00104100000000003154000000000000     
100   62911028202440680000000000017600000000017600002000000010410407081157140042314773800708000749789474   1030000200030000   541188001085000008000000294KBZ BANK               CITY MART - J MMR11007081157140042310708000000000000000   10300001 00104100000000001056000000000000     
100   62911028202440680000000000012900000000012900002000000010410407081154220091994773800708000749789117   1030000200030000   541188001074000008000000294KBZ BANK               CITY MART - J MMR11007081154220091990708000000000000000   10300001 00104100000000000774000000000000     
100   62443100313529540000000000005700000000005700002000000010410407081825570169671557260708000749819444   1030000200030000   541188001056000008000000314KBZ BANK               MARKETPLACE - MMR11007081825570169670708000000000000000   10300001 00104100000000001425000000000000     
100   95050314996291580000000000000990000000000990002000000010410407081236030603039493080708000007463871   1020000200030000   333400010001204104000000281Myanmar Soft-Gate Tech Yangon        MMR11007081236030603030708000000000000000   10300001F05104100000000000208000000000000     
100   95050316818236190000000000000990000000000990002000000010410407080032230223647831520708000007458955   1020000200030000   333400010001204104000000281Myanmar Soft-Gate Tech Yangon        MMR11007080032230223640708000000000000000   10300001F05104100000000000208000000000000     
100   95050315017843630000000000005000000000005000002000000010410407081035020502718933060708000007463424   1040001600030000   333800010001220104000004507A +                    Yangon        MMR11007081035020502710708000000000000000   10300001F05104100000000001050000000000000     
100   95050316818236190000000000001980000000001980002000000010410407080035510551834441460708000007458960   1020000200030000   333400010001204104000000281Myanmar Soft-Gate Tech Yangon        MMR11007080035510551830708000000000000000   10300001F05104100000000000416000000000000     
100   95050315199558640000000000018000000000018000002000000010410407080836270944458798510708579061527188   1030000900030000   541119000124190110000000080Sein Gay Har BAK       YANGONADA     MMR11007080836270944450708000000000000000   10300001F00104100000000004500000000000000     
100   95050322312885760000000000012000000000012000002000000010410407080848161816196550360708000007462628   1030000200030000   333800010001203104000003327KBZPay                 Yangon        MMR11007080848161816190708000000000000000   10300001F05104100000000002520000000000000     
100   95050310397364970000000000000990000000000990002000000010410407080259392939466384880708000007459513   1020000200030000   333400010001204104000000281Myanmar Soft-Gate Tech Yangon        MMR11007080259392939460708000000000000000   10300001F05104100000000000208000000000000     
100   95050310427855490000000000002970000000002970002000000010410407081400523052504705820708000007464219   1020000200030000   333400010001204104000000281Myanmar Soft-Gate Tech Yangon        MMR11007081400523052500708000000000000000   10300001F05104100000000000624000000000000     
100   95050312498129060000000000004950000000004950002000000010410407080251352135431087050708000007459449   1020000200030000   333400010001204104000000281Myanmar Soft-Gate Tech Yangon        MMR11007080251352135430708000000000000000   10300001F05104100000000001040000000000000     
100   95050310616516480000000000002970000000002970002000000010410407080800303030022676300708000007462244   1020000200030000   333400010001204104000000281Myanmar Soft-Gate Tech Yangon        MMR11007080800303030020708000000000000000   10300001F05104100000000000624000000000000     
100   95050310291835770000000000300000000000300000002000000010410407080947071707327535860708000007463139   1030000200030000   333800010001203104000003327KBZPay                 Yangon        MMR11007080947071707320708000000000000000   10300001F05104100000000063000000000000000     
100   95050315110306410000000000003000000000003000002000000010410407081443201320572968230708000007464373   1030000200030000   3334000100012031040000040102C2P (Myanmar) Co.Ltd  Yangon        MMR11007081443201320570708000000000000000   10300001F05104100000000000630000000000000     
100   95050327192897240000000000002970000000002970002000000010410407080938550855522990100708000007463084   1020000200030000   333400010001204104000000281Myanmar Soft-Gate Tech Yangon        MMR11007080938550855520708000000000000000   10300001F05104100000000000624000000000000     
100   95050312675525330000000000026500000000026500002000000010410407080157022702940370630708000007459168   1030000200030000   333800010001203104000003327KBZPay                 Yangon        MMR11007080157022702940708000000000000000   10300001F05104100000000005565000000000000     
100   62443100360763680000000000004950000000004950002000000010410407080209183918612363490708000007459209   1020000200030000   333400010001204104000000281Myanmar Soft-Gate Tech Yangon        MMR11007080209183918610708000000000000000   10300001F05104100000000001040000000000000     
100   95050312498129060000000000009500000000009500002000000010410407081215014501344692030708000007463798   1030000200030000   3333000100012031040000040282C2P (Myanmar) Co.Ltd  Yangon        MMR11007081215014501340708000000000000000   10300001F05104100000000010000000000000000     
100   95050319925596540000000000009900000000009900002000000010410407081216194619246344510708000007463802   1020000200030000   333400010001204104000000281Myanmar Soft-Gate Tech Yangon        MMR11007081216194619240708000000000000000   10300001F05104100000000002079000000000000     
100   95050313374257020000000000110880000000110880002000000010410407081136200620501301960708000007463670   1030000900030000   333800010001202104000003301uab bank               Yangon        MMR11007081136200620500708000000000000000   10300001F05104100000000023285000000000000     
100   95050316818236190000000000002970000000002970002000000010410407080039250925976093940708000007458965   1020000200030000   333400010001204104000000281Myanmar Soft-Gate Tech Yangon        MMR11007080039250925970708000000000000000   10300001F05104100000000000624000000000000     
100   62443101023815100000000000103750000000103750002000000010410407080904043404361507810708000007462759   1010000100030000   333500010001212104000002543Internal Revenue Depar Yangon        MMR11007080904043404360708000000000000000   10300001F05104100000000060000000000000000     
100   62443100306028540000000000002500000000002500002000000010410407081136200620962954450708000007463666   1030000900030000   333400010001202104000002022ACS                    Yangon        MMR11007081136200620960708000000000000000   10300001F05104100000000000525000000000000     
100   95050316818236190000000000002970000000002970002000000010410407081301403140534450530708000007463989   1020000200030000   333400010001204104000000281Myanmar Soft-Gate Tech Yangon        MMR11007081301403140530708000000000000000   10300001F05104100000000000624000000000000     
100   95030317922148660000000000025000000000025000002000000010410407081506301041164773800708603362130188   1030000900030000   554119000348190110000000215New Day Energy MYG     YANGONONE     MMR11007081506301041160708000000000000000   10300001F00104100000000000750000000000000     
100   95050313072967520000000000020000000000020000002000000010410407081002303230627110380708000007463270   1030000200030000   333800010001203104000003327KBZPay                 Yangon        MMR11007081002303230620708000000000000000   10300001F05104100000000004200000000000000     
100   62443100360763680000000000004950000000004950002000000010410407080207363736874015980708000007459204   1020000200030000   333400010001204104000000281Myanmar Soft-Gate Tech Yangon        MMR11007080207363736870708000000000000000   10300001F05104100000000001040000000000000     
100   62911028202357510000000000008000000000008000002000000010410407080733100927624773800708751031410188   1030000900030000   581419001395190110000000999O cha 73st             MANDALAYNG MY MMR11007080733100927620708000000000000000   10300001F00104100000000000240000000000000     
100   95050311382087030000000000003000000000003000002000000010410407080340311031129448350708000007459992   1030000200030000   333800010001203104000003327KBZPay                 Yangon        MMR11007080340311031120708000000000000000   10300001F05104100000000000630000000000000     
100   95050324411430900000000000409000000000409000002000000010410407080948341834520840820708000007463151   1010000100030000   333500010001212104000002840Internal Revenue Depar Yangon        MMR11007080948341834520708000000000000000   10300001F05104100000000060000000000000000     
100   95050324411430900000000000342000000000342000002000000010410407080942471247464642580708000007463109   1010000100030000   333500010001212104000002543Internal Revenue Depar Yangon        MMR11007080942471247460708000000000000000   10300001F05104100000000060000000000000000     
100   95050321848852460000000001743775000001743775002000000010410407080850482048988202840708000007462640   1010000100030000   333500010001212104000002543Internal Revenue Depar Yangon        MMR11007080850482048980708000000000000000   10300001F05104100000000060000000000000000     
100   95050318575030940000000000045000000000045000002000000010410407081019074907157450770708000007463355   1030000200030000   333800010001203104000003327KBZPay                 Yangon        MMR11007081019074907150708000000000000000   10300001F05104100000000009450000000000000     
