100   95050318601641810000000000000990000000000990002000000010410407120036370637849155050712000007477168   1020000200030000   333400010001204104000000281Myanmar Soft-Gate Tech Yangon        MMR11007120036370637840712000000000000000   10300001F05104100000000000208000000000000     
100   62911028202154640000000000018350000000018350002000000010410407120646031898654773800712343161303192   1030000900030000   541119001265190110000000958City Mart PLST C 8     YANGONMYOTHIT MMR11007120646031898650712000000000000000   10300001F00104100000000001101000000000000     
100   95050319161596230000000000001980000000001980002000000010410407120138070807393516830712000007477247   1020000200030000   333400010001204104000000281Myanmar Soft-Gate Tech Yangon        MMR11007120138070807390712000000000000000   10300001F05104100000000000416000000000000     
100   62911028202116120000000000075828000000075828002000000010410407121945360281494773800712000750014799   1030000200030000   541188001038000008000000010KBZ BANK               MARKETPLACE - MMR11007121945360281490712000000000000000   10300001 00104100000000004550000000000000     
100   95050315110306410000000000015000000000015000002000000010410407120643211321154898560712000007478159   1030000200030000   333800010001203104000003327KBZPay                 Yangon        MMR11007120643211321150712000000000000000   10300001F05104100000000003150000000000000     
100   62911028202174030000000000026400000000026400002000000010410407120958191940494773800712609281619192   1030000900030000   541119001260190110000000958City Mart PLST C 3     YANGONMYOTHIT MMR11007120958191940490712000000000000000   10300001F00104100000000001584000000000000     
100   62911028202147720000000000041424000000041424002000000010410407120914201234314773800712219316123431   1040001600030000   806220001356000000010001061Grand Hantha Internati Ygn           MMR11007120914201234310712000000000000000   10300001F00104100000000002485000000000000     
100   95050310743661680000000000019700000000019700002000000010410407120557231887003624680712690271223192   1030000900030000   541119001272190110000000960City Mart PLST Season  YANGONMYOTHIT MMR11007120557231887000712000000000000000   10300001F00104100000000004925000000000000     
100   62911028202470870000000000053575000000053575002000000010410407121452240375974773800712000750002873   1030000200030000   541188001041000008000000010KBZ BANK               MARKETPLACE - MMR11007121452240375970712000000000000000   10300001 00104100000000003215000000000000     
100   62911028202290100000000000050000000000050000002000000010410407120907501230334773800712219316123033   1040001600030000   598320001170000000010000527Shwe Taung Energy (YGN Yangon        MMR11007120907501230330712000000000000000   10300001F00104100000000001500000000000000     
100   95050312498129060000000000002970000000002970002000000010410407120343221322039701280712000007477558   1020000200030000   333400010001204104000000281Myanmar Soft-Gate Tech Yangon        MMR11007120343221322030712000000000000000   10300001F05104100000000000624000000000000     
100   62443100384568160000000000135000000000135000002000000010410407120730451908300860000712843001445192   1030000900030000   594419001071190110000000869Shwe Nan Taw (CS)      YANGON        MMR11007120730451908300712000000000000000   10300001F00104100000000032400000000000000     
100   95050324800108530000000000021000000000021000002000000010410407120905181928223554750712902351518192   1030000900030000   541119001307190110000000968Ocean Mingalar MDY C 1 MANDALAYHARSI MMR11007120905181928220712000000000000000   10300001F00104100000000005250000000000000     
100   62443101093150400000000000018000000000018000002000000010410407121124291345219214430712219318134521   1040001600030000   598320000838000000010000600Regency Petrol Station Ygn           MMR11007121124291345210712000000000000000   10300001F00104100000000002160000000000000     
100   62911028202169750000000000020000000000020000002000000010410407110151080012814773800711219208001281   1030000500030000   598320001402000015172200014MAX ENERGY             PTN           MMR11007110151080012810711000000000000000   10300001 00104100000000000600000000000000     
100   95050311959900780000000000000990000000000990002000000010410407120552412241442630960712000007477987   1020000200030000   333400010001204104000000281Myanmar Soft-Gate Tech Yangon        MMR11007120552412241440712000000000000000   10300001F05104100000000000208000000000000     
100   95050312119522920000000000010000000000010000002000000010410407120155132513693431730712000007477275   1030000200030000   333800010001203104000003327KBZPay                 Yangon        MMR11007120155132513690712000000000000000   10300001F05104100000000002100000000000000     
100   95050316769671810000000000001980000000001980002000000010410407121221465146781711850712000007479146   1020000200030000   333400010001204104000000281Myanmar Soft-Gate Tech Yangon        MMR11007121221465146780712000000000000000   10300001F05104100000000000416000000000000     
100   95050319925596540000000000009900000000009900002000000010410407120329325932658133890712000007477519   1020000200030000   333400010001204104000000281Myanmar Soft-Gate Tech Yangon        MMR11007120329325932650712000000000000000   10300001F05104100000000002079000000000000     
100   95050313970192050000000000002750000000002750002000000010410407110827070002415921390711219214000241   1030000500030000   541120232801000045411202328CITY EXPRESS (MCS - 34 PTN           MMR11007110827070002410711000000000000000   10300001 00104100000000000688000000000000     
100   95050312224678430000000000004950000000004950002000000010410407120524475447819788980712000007477901   1020000200030000   333400010001204104000000281Myanmar Soft-Gate Tech Yangon        MMR11007120524475447810712000000000000000   10300001F05104100000000001040000000000000     
100   62911028202162640000000000022850000000022850002000000010410407110830490006154773800711219215000615   1030000500030000   541120020902022205411200209ORANGE (HLAING)        PTN           MMR11007110830490006150711000000000000000   10300001 00104100000000001371000000000000     
100   95050318712627500000000000001980000000001980002000000010410407120750062006122278280712000007478373   1020000200030000   333400010001204104000000281Myanmar Soft-Gate Tech Yangon        MMR11007120750062006120712000000000000000   10300001F05104100000000000416000000000000     
100   95050314996291580000000000000990000000000990002000000010410407121356032603206093410712000007479429   1020000200030000   333400010001204104000000281Myanmar Soft-Gate Tech Yangon        MMR11007121356032603200712000000000000000   10300001F05104100000000000208000000000000     
100   95050317003064220000000000000990000000000990002000000010410407120226365636268814670712000007477323   1020000200030000   333400010001204104000000281Myanmar Soft-Gate Tech Yangon        MMR11007120226365636260712000000000000000   10300001F05104100000000000208000000000000     
100   95030363090756500000000000030000000000030000002000000010410407111246350009454773800711000354945946   1030000300030000   598300001213000000000000820CB BANK                SHWE TAUNG EN MMR11007111246350009450711000000000000000   10300001F00104100000000000900000000000000     
100   62911028202912260000000000017000000000017000002000000010410407110910070004384773800711219215000438   1030000500030000   531120156004000045311201560GAMONE PWINT           PTN           MMR11007110910070004380711000000000000000   10300001 00104100000000001020000000000000     
100   95050314287403810000000000002970000000002970002000000010410407120452542254490924560712000007477794   1020000200030000   333400010001204104000000281Myanmar Soft-Gate Tech Yangon        MMR11007120452542254490712000000000000000   10300001F05104100000000000624000000000000     
100   95050312224678430000000000004950000000004950002000000010410407120522035203204540230712000007477897   1020000200030000   333400010001204104000000281Myanmar Soft-Gate Tech Yangon        MMR11007120522035203200712000000000000000   10300001F05104100000000001040000000000000     
100   95050317071956460000000000000990000000000990002000000010410407120724585458375256680712000007478281   1020000200030000   333400010001204104000000281Myanmar Soft-Gate Tech Yangon        MMR11007120724585458370712000000000000000   10300001F05104100000000000208000000000000     
100   62443100390038980000000000036400000000036400002000000010410407111227010000457672760711000354943291   1030000300030000   581200001801000000000001289CB BANK                SHWE KAUNG (S MMR11007111227010000450711000000000000000   10300001F00104100000000015470000000000000     
100   62911028202116120000000000022566000000022566002000000010410407110912420001954773800711219215000195   1030000500030000   531120155710000045311201557GAMONE PWINT           PTN           MMR11007110912420001950711000000000000000   10300001 00104100000000001354000000000000     
100   62911028202132460000000000014100000000014100002000000010410407121601400236124773800712000750005846   1030000200030000   541188001054000008000000314KBZ BANK               MARKETPLACE - MMR11007121601400236120712000000000000000   10300001 00104100000000000846000000000000     
100   95050318242219520000000000001000000000001000002000000010410407120350592059776311220712000007477572   1030000200030000   3334000100012031040000040102C2P (Myanmar) Co. Ltd Yangon        MMR11007120350592059770712000000000000000   10300001F05104100000000000210000000000000     
100   95050319220344710000000000000990000000000990002000000010410407120947491749450136670712000007478734   1020000200030000   333400010001204104000000281Myanmar Soft-Gate Tech Yangon        MMR11007120947491749450712000000000000000   10300001F05104100000000000208000000000000     
100   95050312498129060000000000004950000000004950002000000010410407120746281628310433730712000007478359   1020000200030000   333400010001204104000000281Myanmar Soft-Gate Tech Yangon        MMR11007120746281628310712000000000000000   10300001F05104100000000001040000000000000     
100   95050313411345710000000000002970000000002970002000000010410407121357042704529568620712000007479438   1020000200030000   333400010001204104000000281Myanmar Soft-Gate Tech Yangon        MMR11007121357042704520712000000000000000   10300001F05104100000000000624000000000000     
100   95050310332595380000000000000990000000000990002000000010410407120550072007806584940712000007477980   1020000200030000   333400010001204104000000281Myanmar Soft-Gate Tech Yangon        MMR11007120550072007800712000000000000000   10300001F05104100000000000208000000000000     
100   95050320897979420000000000100000000000100000002000000010410407120108073807001864340712000007477205   1030000200030000   333800010001203104000003327KBZPay                 Yangon        MMR11007120108073807000712000000000000000   10300001F05104100000000021000000000000000     
100   95050312675525330000000000001000000000001000002000000010410407120423185318364999120712000007477677   1030000200030000   333800010001203104000003327KBZPay                 Yangon        MMR11007120423185318360712000000000000000   10300001F05104100000000000210000000000000     
100   95050312498129060000000000000990000000000990002000000010410407121126475647659639890712000007479010   1020000200030000   333400010001204104000000281Myanmar Soft-Gate Tech Yangon        MMR11007121126475647650712000000000000000   10300001F05104100000000000208000000000000     
100   95050324104751500000000000021350000000021350002000000010410407120509111877317166170712197391111192   1030000900030000   591219000609190110000000449Shwe Ohh Pharmacy St-3 YANGONAUNG    MMR11007120509111877310712000000000000000   10300001F00104100000000005124000000000000     
100   95030317922148660000000000079000000000079000002000000010410407110243090003634773800711000354853197   1030000300030000   701100002942000000000002044CB BANK                WINNER INN    MMR11007110243090003630711000000000000000   10300001F00104100000000008058000000000000     
100   95050310534130230000000000010000000000010000002000000010410407120836111921900930500712561061511192   1030000900030000   541119001364190110000000977Ocean PZD C18          YANGONAUNG    MMR11007120836111921900712000000000000000   10300001F00104100000000002500000000000000     
100   95050311712422700000000000100000000000100000002000000010410407121106453645525667950712000007478940   1030000200030000   333800010001203104000003327KBZPay                 Yangon        MMR11007121106453645520712000000000000000   10300001F05104100000000021000000000000000     
100   95050316949180000000000000003960000000003960002000000010410407120249511951183772120712000007477395   1020000200030000   333400010001204104000000281Myanmar Soft-Gate Tech Yangon        MMR11007120249511951180712000000000000000   10300001F05104100000000000832000000000000     
100   95050313396828960000000000026128000000026128002000000010410407121213091975026960180712741431809192   1030000900030000   541119001304190110000000968Ocean Mingalar MDY C 1 MANDALAYHARSI MMR11007121213091975020712000000000000000   10300001F00104100000000006532000000000000     
100   95050318601641810000000000000990000000000990002000000010410407120957072707217512500712000007478755   1020000200030000   333400010001204104000000281Myanmar Soft-Gate Tech Yangon        MMR11007120957072707210712000000000000000   10300001F05104100000000000208000000000000     
100   95050328351497860000000000005000000000005000002000000010410407120503553355656172880712000007477838   1030000200030000   333800010001203104000003327KBZPay                 Yangon        MMR11007120503553355650712000000000000000   10300001F05104100000000001050000000000000     
100   62443101045531990000000000020160000000020160002000000010410407120623185318965611680712000007478073   1030000900030000   333800010001202104000003301uab bank               Yangon        MMR11007120623185318960712000000000000000   10300001F05104100000000004234000000000000     
100   95030371405797020000000000007000000000007000002000000010410407121314354435104773800712000007479298   1030000200030000   333800010001203104000003327KBZPay                 Yangon        MMR11007121314354435100712000000000000000   10300001F05104100000000001470000000000000     
100   62911028202093680000000000001000000000001000002000000010410407120622115211584773800712000007478070   1030000200030000   3334000100012031040000040102C2P (Myanmar) Co. Ltd Yangon        MMR11007120622115211580712000000000000000   10300001F05104100000000000210000000000000     
100   62443100325551180000000000029700000000029700002000000010410407110535020043316813720711000354879666   1030000300030000   541100002356000000000000102CB BANK                MAKRO MYANMAR MMR11007110535020043310711000000000000000   10300001F00104100000000007425000000000000     
100   95050321455580800000000000010186000000010186002000000010410407120946481937946661540712464161648192   1030000900030000   541119001249190110000000955City Mart JS C 8       YANGONUT      MMR11007120946481937940712000000000000000   10300001F00104100000000002547000000000000     
100   95050317378464240000000000052270000000052270002000000010410407121048331953498717620712433181733192   1030000900030000   541119001295190110000000968Ocean Mingalar MDY C 3 MANDALAYHARSI MMR11007121048331953490712000000000000000   10300001F00104100000000013068000000000000     
100   95050318712627500000000000002970000000002970002000000010410407120756102610287952150712000007478390   1020000200030000   333400010001204104000000281Myanmar Soft-Gate Tech Yangon        MMR11007120756102610280712000000000000000   10300001F05104100000000000624000000000000     
100   95050322312885760000000000006000000000006000002000000010410407120917214721409654120712000007478628   1030000200030000   333800010001203104000003327KBZPay                 Yangon        MMR11007120917214721400712000000000000000   10300001F05104100000000001260000000000000     
100   95050316901496590000000000006000000000006000002000000010410407110417160001446764280711219210000144   1030000500030000   541120045801009205411200458126 STORE              PTN           MMR11007110417160001440711000000000000000   10300001 00104100000000001500000000000000     
100   62911028202472440000000000025900000000025900002000000010410407121359440121984773800712000750000659   1030000200030000   541188001022000008000000298KBZ BANK               CITY MART - M MMR11007121359440121980712000000000000000   10300001 00104100000000001554000000000000     
100   95050327456215690000000000036750000000036750002000000010410407121751190257468363430712000750010858   1030000200030000   541188001037000008000000010KBZ BANK               MARKETPLACE - MMR11007121751190257460712000000000000000   10300001 00104100000000009188000000000000     
100   95050313970192050000000000021650000000021650002000000010410407091108190002277579590709219017000227   1030000500030000   541120232801000045411202328CITY EXPRESS (MCS - 34 PTN           MMR11007091108190002270709000000000000000   10300001 00104100000000005413000000000000     
100   62443101023815100000000000034559000000034559002000000010410407111302500017186360660711219219001718   1030000500030000   541120227504000045411202275CITY MART (AHLONE BRAN PTN           MMR11007111302500017180711000000000000000   10300001 00104100000000008640000000000000     
100   95050317578818060000000000012900000000012900002000000010410407111219040011631147920711219218001163   1030000500030000   541120229108000045411202291CITY MART YANKIN       PTN           MMR11007111219040011630711000000000000000   10300001 00104100000000003225000000000000     
100   95050311419479170000000000001980000000001980002000000010410407120551032103147382640712000007477982   1020000200030000   333400010001204104000000281Myanmar Soft-Gate Tech Yangon        MMR11007120551032103140712000000000000000   10300001F05104100000000000416000000000000     
100   62911028202308280000000000116000000000116000002000000010410407111001110000354773800711219216000035   1030000500030000   594220168301000045942201683TAB BOOK STORE         PTN           MMR11007111001110000350711000000000000000   10300001 00104100000000006960000000000000     
100   95050327243132200000000000018700000000018700002000000010410407110822110000360708650711000354906834   1030000300030000   531100000747000000000000408CB BANK                CAPITAL HYPER MMR11007110822110000360711000000000000000   10300001F00104100000000004488000000000000     
100   62911028202461130000000000026850000000026850002000000010410407110800280002434773800711219214000243   1030000500030000   541120203703000015411202037CITY MART SUPERMARKET  PTN           MMR11007110800280002430711000000000000000   10300001 00104100000000001611000000000000     
100   95050317578818060000000000001750000000001750002000000010410407111229540007681403210711219218000768   1030000500030000   541120229110000045411202291CITY MART YANKIN       PTN           MMR11007111229540007680711000000000000000   10300001 00104100000000000438000000000000     
100   95050313970192050000000000012000000000012000002000000010410407111223400002459325240711219218000245   1030000500030000   541120232801000045411202328CITY EXPRESS (MCS - 34 PTN           MMR11007111223400002450711000000000000000   10300001 00104100000000003000000000000000     
100   62911028202451150000000000046007000000046007002000000010410407110946380001724773800711219216000172   1030000500030000   598320198001000075983201980MOON SUN EXCELLENT APE PTN           MMR11007110946380001720711000000000000000   10300001 00104100000000001380000000000000     
100   95050329252108030000000000010000000000010000002000000010410407111344210005457332380711219220000545   1030000500030000   598320041901000055983200419MAX ENERGY             PTN           MMR11007111344210005450711000000000000000   10300001 00104100000000001200000000000000     
100   62443100306698200000000000090100000000090100002000000010410407110412490005473118930711219210000547   1030000500030000   503920036606000015039200366PRO-1 HOME CENTER      PTN           MMR11007110412490005470711000000000000000   10300001 00104100000000021624000000000000     
100   95050314979630620000000000001980000000001980002000000010410407120506303630492414490712000007477848   1020000200030000   333400010001204104000000281Myanmar Soft-Gate Tech Yangon        MMR11007120506303630490712000000000000000   10300001F05104100000000000416000000000000     
100   95050314570621780000000000001980000000001980002000000010410407120408393839664658740712000007477633   1020000200030000   333400010001204104000000281Myanmar Soft-Gate Tech Yangon        MMR11007120408393839660712000000000000000   10300001F05104100000000000416000000000000     
100   95050314570621780000000000000990000000000990002000000010410407121014414441344108610712000007478789   1020000200030000   333400010001204104000000281Myanmar Soft-Gate Tech Yangon        MMR11007121014414441340712000000000000000   10300001F05104100000000000208000000000000     
100   95050317084233280000000000000990000000000990002000000010410407121339250925083043790712000007479368   1020000200030000   333400010001204104000000281Myanmar Soft-Gate Tech Yangon        MMR11007121339250925080712000000000000000   10300001F05104100000000000208000000000000     
100   95050316231020800000000000020000000000020000002000000010410407121417564756903469250712000007479496   1030000200030000   333800010001203104000003327KBZPay                 Yangon        MMR11007121417564756900712000000000000000   10300001F05104100000000004200000000000000     
100   95050319938772870000000000000990000000000990002000000010410407121255362536885966460712000007479253   1020000200030000   333400010001204104000000281Myanmar Soft-Gate Tech Yangon        MMR11007121255362536880712000000000000000   10300001F05104100000000000208000000000000     
100   95050319938772870000000000000990000000000990002000000010410407121259282928630718140712000007479259   1020000200030000   333400010001204104000000281Myanmar Soft-Gate Tech Yangon        MMR11007121259282928630712000000000000000   10300001F05104100000000000208000000000000     
100   95050312210363590000000000025000000000025000002000000010410407121418334833420845010712000007479504   1030000200030000   333800010001203104000003327KBZPay                 Yangon        MMR11007121418334833420712000000000000000   10300001F05104100000000005250000000000000     
100   95050321455580800000000000033080000000033080002000000010410407111124350000468169550711000354934288   1030000300030000   531100000747000000000000408CB BANK                CAPITAL HYPER MMR11007111124350000460711000000000000000   10300001F00104100000000007939000000000000     
100   62911028202595200000000000149550000000149550002000000010410407110600370001174773800711219212000117   1030000500030000   541120129724000045411201297MAKRO MYANMAR          PTN           MMR11007110600370001170711000000000000000   10300001 00104100000000008973000000000000     
100   62911028202907560000000000024002000000024002002000000010410407110442370009924773800711219211000992   1030000500030000   598320001101000015172200011MAX ENERGY             PTN           MMR11007110442370009920711000000000000000   10300001 00104100000000000720000000000000     
100   62911028202912590000000000045000000000045000002000000010410407110740040010664773800711219214001066   1030000500030000   598320001604000015172200016MAX ENERGY             PTN           MMR11007110740040010660711000000000000000   10300001 00104100000000001350000000000000     
100   62911028202139640000000000036500000000036500002000000010410407110726040002784773800711219213000278   1030000500030000   531120156006000045311201560GAMONE PWINT           PTN           MMR11007110726040002780711000000000000000   10300001 00104100000000002190000000000000     
100   62911028202139640000000000030550000000030550002000000010410407110823270010154773800711219214001015   1030000500030000   531120156008000045311201560GAMONE PWINT           PTN           MMR11007110823270010150711000000000000000   10300001 00104100000000001833000000000000     
100   95050315005801680000000000018500000000018500002000000010410407111106220010099566740711219217001009   1030000500030000   531120156002000045311201560GAMONE PWINT           PTN           MMR11007111106220010090711000000000000000   10300001 00104100000000004440000000000000     
100   62911028202792960000000000006000000000006000002000000010410407110837290012024773800711219215001202   1030000500030000   541120227603000045411202276CITY MART ( 47 BRANCH  PTN           MMR11007110837290012020711000000000000000   10300001 00104100000000000360000000000000     
100   95050325455962190000000000000990000000000990002000000010410407120922345234875753450712000007478651   1020000200030000   333400010001204104000000281Myanmar Soft-Gate Tech Yangon        MMR11007120922345234870712000000000000000   10300001F05104100000000000208000000000000     
100   95050319938772870000000000000990000000000990002000000010410407121311574157774973170712000007479287   1020000200030000   333400010001204104000000281Myanmar Soft-Gate Tech Yangon        MMR11007121311574157770712000000000000000   10300001F05104100000000000208000000000000     
100   95050310427855490000000000003960000000003960002000000010410407120127435743036906890712000007477236   1020000200030000   333400010001204104000000281Myanmar Soft-Gate Tech Yangon        MMR11007120127435743030712000000000000000   10300001F05104100000000000832000000000000     
100   95050316321163940000000000000990000000000990002000000010410407120949111911793186370712000007478737   1020000200030000   333400010001204104000000281Myanmar Soft-Gate Tech Yangon        MMR11007120949111911790712000000000000000   10300001F05104100000000000208000000000000     
100   95050312240830690000000000002970000000002970002000000010410407120156022602395084220712000007477279   1020000200030000   333400010001204104000000281Myanmar Soft-Gate Tech Yangon        MMR11007120156022602390712000000000000000   10300001F05104100000000000624000000000000     
100   95050316785465380000000000000990000000000990002000000010410407120758462846158377650712000007478394   1020000200030000   333400010001204104000000281Myanmar Soft-Gate Tech Yangon        MMR11007120758462846150712000000000000000   10300001F05104100000000000208000000000000     
100   62443100300743690000000000014100000000014100002000000010410407121340361992946518920712784102036192   1030000900030000   541119001207190110000000948City Mart YK C 5       YANGONAUNG    MMR11007121340361992940712000000000000000   10300001F00104100000000003525000000000000     
100   95050313702988830000000000002970000000002970002000000010410407121306473647789227780712000007479279   1020000200030000   333400010001204104000000281Myanmar Soft-Gate Tech Yangon        MMR11007121306473647780712000000000000000   10300001F05104100000000000624000000000000     
100   95050325925517520000000000034800000000034800002000000010410407110517000000783338560711219211000078   1030000500030000   503920036603000015039200366PRO-1 HOME CENTER      PTN           MMR11007110517000000780711000000000000000   10300001 00104100000000008352000000000000     
100   95030333478847140000000000069973000000069973002000000010410407110056350010494773800711219207001049   1030000500030000   598320002101000015172200021MAX ENERGY             PTN           MMR11007110056350010490711000000000000000   10300001 00104100000000002099000000000000     
100   95050313970192050000000000003300000000003300002000000010410407111421120002474027400711219220000247   1030000500030000   541120232801000045411202328CITY EXPRESS (MCS - 34 PTN           MMR11007111421120002470711000000000000000   10300001 00104100000000000825000000000000     
100   62911028202662690000000000285200000000285200002000000010410407111005460001644773800711219216000164   1030000500030000   531120201603000085311202016STJ BLAZON             PTN           MMR11007111005460001640711000000000000000   10300001 00104100000000017112000000000000     
100   62911028202448030000000000009750000000009750002000000010410407111206010004854773800711219218000485   1030000500030000   541120020701022205411200207ORANGE (YDG)           PTN           MMR11007111206010004850711000000000000000   10300001 00104100000000000585000000000000     
100   62911028202421380000000000085000000000085000002000000010410407110820230005244773800711219214000524   1030000500030000   598320001701000015172200017MAX ENERGY             PTN           MMR11007110820230005240711000000000000000   10300001 00104100000000002550000000000000     
100   62911028202528710000000000048000000000048000002000000010410407102352550014794773800711219206001479   1030000500030000   598320001403000015172200014MAX ENERGY             PTN           MMR11007102352550014790711000000000000000   10300001 00104100000000001440000000000000     
100   62911028202136750000000000021000000000021000002000000010410407111229130015434773800711219218001543   1030000500030000   598320001201000015172200012MAX ENERGY             PTN           MMR11007111229130015430711000000000000000   10300001 00104100000000000630000000000000     
100   95050319709462380000000000005000000000005000002000000010410407121400563056850419550712000007479450   1030000200030000   3338000100012031040000040022C2P (Myanmar) Co. Ltd Yangon        MMR11007121400563056850712000000000000000   10300001F05104100000000001050000000000000     
100   95050322312885760000000000003000000000003000002000000010410407120926185618842703740712000007478668   1030000200030000   333800010001203104000003327KBZPay                 Yangon        MMR11007120926185618840712000000000000000   10300001F05104100000000000630000000000000     
100   62911028202471600000000000014850000000014850002000000010410407121009381943134773800712767391638192   1030000900030000   591219000507190110000000354Shwe Ohh Pharmacy - (S YANGON        MMR11007121009381943130712000000000000000   10300001F00104100000000000891000000000000     
100   95050321848852460000000000065000000000065000002000000010410407121452462003933894710712279222146192   1030000900030000   554119001103190110000000215New Day Energy MYG     YANGONONE     MMR11007121452462003930712000000000000000   10300001F00104100000000007800000000000000     
100   95050323233042810000000000001980000000001980002000000010410407121055502550338292160712000007478907   1020000200030000   333400010001204104000000281Myanmar Soft-Gate Tech Yangon        MMR11007121055502550330712000000000000000   10300001F05104100000000000416000000000000     
100   62443100384568160000000000600000000000600000002000000010410407120708091903310008270712584381309192   1030000900030000   594419001071190110000000869Shwe Nan Taw (CS)      YANGON        MMR11007120708091903310712000000000000000   10300001F00104100000000144000000000000000     
100   62911028202446540000000000146550000000146550002000000010410407120842241923134773800712628121524192   1030000900030000   591219000795190110000000627Shwe Ohh Pharmacy ST-3 YANGONINDAING MMR11007120842241923130712000000000000000   10300001F00104100000000008793000000000000     
100   95050315110306410000000000003000000000003000002000000010410407120608073807709369640712000007478036   1030000200030000   333800010001203104000003327KBZPay                 Yangon        MMR11007120608073807700712000000000000000   10300001F05104100000000000630000000000000     
100   62911028202237810000000000017392000000017392002000000010410407111155000016764773800711219218001676   1030000500030000   531120226311000045311202263OCEAN SUPER CENTER STJ PTN           MMR11007111155000016760711000000000000000   10300001 00104100000000001044000000000000     
100   62911028202293090000000000036781000000036781002000000010410407110426450021914773800711219210002191   1030000500030000   541120226201000045411202262CITY MART ZAWANA       PTN           MMR11007110426450021910711000000000000000   10300001 00104100000000002207000000000000     
100   95050320088670570000000000083940000000083940002000000010410407111007170029047197830711000354922724   1030000300030000   569100001650000000000001172CB BANK                ESPRIT (JC)   MMR11007111007170029040711000000000000000   10300001F00104100000000020146000000000000     
100   62911028202169750000000000032810000000032810002000000010410407110611550021984773800711219212002198   1030000500030000   541120226201000045411202262CITY MART ZAWANA       PTN           MMR11007110611550021980711000000000000000   10300001 00104100000000001969000000000000     
100   62911028202161990000000000004200000000004200002000000010410407110933430012034773800711219216001203   1030000500030000   541120227603000045411202276CITY MART ( 47 BRANCH  PTN           MMR11007110933430012030711000000000000000   10300001 00104100000000000252000000000000     
100   95050329734064360000000000020000000000020000002000000010410407110418300015092863640711219210001509   1030000500030000   598320001403000015172200014MAX ENERGY             PTN           MMR11007110418300015090711000000000000000   10300001 00104100000000002400000000000000     
100   62911028202136750000000000030000000000030000002000000010410407111228040015424773800711219218001542   1030000500030000   598320001201000015172200012MAX ENERGY             PTN           MMR11007111228040015420711000000000000000   10300001 00104100000000000900000000000000     
100   62443100306698200000000000094300000000094300002000000010410407110348400026354551770711000354862471   1030000300030000   541100002341000000000000102CB BANK                MAKRO MYANMAR MMR11007110348400026350711000000000000000   10300001F00104100000000023575000000000000     
100   95050325630928770000000000000990000000000990002000000010410407121110474047211838590712000007478953   1020000200030000   333400010001204104000000281Myanmar Soft-Gate Tech Yangon        MMR11007121110474047210712000000000000000   10300001F05104100000000000208000000000000     
100   95050327416134790000000000000990000000000990002000000010410407120012184218387502560712000007477152   1020000200030000   333400010001204104000000281Myanmar Soft-Gate Tech Yangon        MMR11007120012184218380712000000000000000   10300001F05104100000000000208000000000000     
100   95050311559234320000000000008910000000008910002000000010410407121029255925808009280712000007478820   1020000200030000   333400010001204104000000281Myanmar Soft-Gate Tech Yangon        MMR11007121029255925800712000000000000000   10300001F05104100000000001871000000000000     
100   95050316586367540000000000004950000000004950002000000010410407120852122212894405710712000007478555   1020000200030000   333400010001204104000000281Myanmar Soft-Gate Tech Yangon        MMR11007120852122212890712000000000000000   10300001F05104100000000001040000000000000     
100   95050327456215690000000000044000000000044000002000000010410407121001021941190562210712654311602192   1030000900030000   581219000423190110000000284BCC (SYS)              YANGON        MMR11007121001021941190712000000000000000   10300001F00104100000000018700000000000000     
100   95050328876009750000000000005000000000005000002000000010410407121357502750776944380712000007479444   1030000200030000   333800010001203104000003327KBZPay                 Yangon        MMR11007121357502750770712000000000000000   10300001F05104100000000001050000000000000     
100   95050311959900780000000000000990000000000990002000000010410407120550412041611921660712000007477981   1020000200030000   333400010001204104000000281Myanmar Soft-Gate Tech Yangon        MMR11007120550412041610712000000000000000   10300001F05104100000000000208000000000000     
100   95050327416134790000000000000990000000000990002000000010410407121301043104464476100712000007479262   1020000200030000   333400010001204104000000281Myanmar Soft-Gate Tech Yangon        MMR11007121301043104460712000000000000000   10300001F05104100000000000208000000000000     
100   62911028202916630000000000064300000000064300002000000010410407111500290784334773800711219222078433   1040001600030000   581420001476000000010001168Party House (Pinlon)   Ygn           MMR11007111500290784330711000000000000000   10300001F00104100000000001929000000000000     
100   62443100311760720000000000257900000000257900002000000010410407120633420028572911560712000749998266   1030000200030000   599988000599000008000003436KBZ BANK               SWEETY HOME ( MMR11007120633420028570712000000000000000   10300001 00104100000000061896000000000000     
100   62911028202045260000000000026100000000026100002000000010410407121442080043984773800712000750002405   1030000200030000   541188001079000008000000294KBZ BANK               CITY MART - J MMR11007121442080043980712000000000000000   10300001 00104100000000001566000000000000     
100   95050322248344280000000000056208000000056208002000000010410407121017380027341353760712000749992136   1030000200030000   541188001481000008000000399KBZ BANK               OCEAN SUPERCE MMR11007121017380027340712000000000000000   10300001 00104100000000014052000000000000     
100   62443100301716860000000000001980000000001980002000000010410407121330540054368730700712000007479342   1020000200030000   333400010001204104000000281Myanmar Soft-Gate Tech Yangon        MMR11007121330540054360712000000000000000   10300001F05104100000000000416000000000000     
100   62911028202467900000000000036541000000036541002000000010410407121324160050724773800712000749999121   1030000200030000   541188001057000008000000314KBZ BANK               MARKETPLACE - MMR11007121324160050720712000000000000000   10300001 00104100000000002193000000000000     
100   62443100318296470000000000037964000000037964002000000010410407121139160121907662810712000749994990   1030000200030000   541188001022000008000000298KBZ BANK               CITY MART - M MMR11007121139160121900712000000000000000   10300001 00104100000000009491000000000000     
100   95050316785465380000000000009050000000009050002000000010410407121057210050419371310712000749993564   1030000200030000   541188001465000008000000391KBZ BANK               OCEAN SUPER C MMR11007121057210050410712000000000000000   10300001 00104100000000002263000000000000     
100   95050312498129060000000000000990000000000990002000000010410407121115024502275313800712000007478966   1020000200030000   333400010001204104000000281Myanmar Soft-Gate Tech Yangon        MMR11007121115024502270712000000000000000   10300001F05104100000000000208000000000000     
100   62443101045531990000000000025200000000025200002000000010410407120715094509409157350712000007478247   1030000900030000   333800010001202104000003301uab bank               Yangon        MMR11007120715094509400712000000000000000   10300001F05104100000000005292000000000000     
100   95050317084233280000000000001980000000001980002000000010410407121323205320323979460712000007479327   1020000200030000   333400010001204104000000281Myanmar Soft-Gate Tech Yangon        MMR11007121323205320320712000000000000000   10300001F05104100000000000416000000000000     
100   62911028202132460000000000033000000000033000002000000010410407121010511943404773800712782401651192   1030000900030000   569119001496190110000001090Next Generation GCS JC YANGONN       MMR11007121010511943400712000000000000000   10300001F00104100000000001980000000000000     
100   62911028202112400000000000030514000000030514002000000010410407121038451950744773800712252081745192   1030000900030000   581219000006190110000000004Jo Jo Hot Pot Junction YANGONUT      MMR11007121038451950740712000000000000000   10300001F00104100000000003112000000000000     
100   62911028202204800000000000029400000000029400002000000010410407121335560043934773800712000749999642   1030000200030000   541188001079000008000000294KBZ BANK               CITY MART - J MMR11007121335560043930712000000000000000   10300001 00104100000000001764000000000000     
100   62443101037081820000000000041910000000041910002000000010410407120718360047377880880712000750003903   1030000200030000   701188000996000008000004989KBZ BANK               EXCEL CRYSTAL MMR11007120718360047370712000000000000000   10300001 00104100000000017812000000000000     
100   95030317922148660000000000038150000000038150002000000010410407121326530066424773800712000749999265   1030000200030000   541188001004000008000000008KBZ BANK               MARKETPLACE - MMR11007121326530066420712000000000000000   10300001 00104100000000002289000000000000     
100   95050315150726490000000000022450000000022450002000000010410407121213110190874404870712000749996312   1030000200030000   541188001304000008000000325KBZ BANK               CITY MART - A MMR11007121213110190870712000000000000000   10300001 00104100000000005613000000000000     
100   62911028202472440000000000013800000000013800002000000010410407121351310115964773800712000750000287   1030000200030000   541188001033000008000000298KBZ BANK               CITY MART - M MMR11007121351310115960712000000000000000   10300001 00104100000000000828000000000000     
100   62911028202440680000000000005300000000005300002000000010410407121041101299914773800712219317129991   1040001600030000   591220000296000000010000284Shwe Ohh Pharmacy (Lan Yangon        MMR11007121041101299910712000000000000000   10300001F00104100000000000318000000000000     
100   95050315889680120000000000004050000000004050002000000010410407121137190719966164730712000007479035   1030000200030000   333800010001203104000003327KBZPay                 Yangon        MMR11007121137190719960712000000000000000   10300001F05104100000000000851000000000000     
100   62911028202331290000000000097700000000097700002000000010410407120948531255174773800712219316125517   1040001600030000   591220000295000000010000283Shwe Ohh Pharmacy (39t Yangon        MMR11007120948531255170712000000000000000   10300001F00104100000000005862000000000000     
100   95050318670242480000000000300000000000300000002000000010410407120547231723566888090712000007477968   1030000200030000   333800010001203104000003327KBZPay                 Yangon        MMR11007120547231723560712000000000000000   10300001F05104100000000063000000000000000     
100   95050315150726490000000000001980000000001980002000000010410407120641121112298159880712000007478153   1020000200030000   333400010001204104000000281Myanmar Soft-Gate Tech Yangon        MMR11007120641121112290712000000000000000   10300001F05104100000000000416000000000000     
100   62911028202208780000000000015600000000015600002000000010410407120612201890644773800712893421220192   1030000900030000   541119000882190110000000084Pro (1) Global (Pazund YANGONARTAUNG MMR11007120612201890640712000000000000000   10300001F00104100000000000936000000000000     
100   95050311419479170000000000001980000000001980002000000010410407120437100710655675810712000007477739   1020000200030000   333400010001204104000000281Myanmar Soft-Gate Tech Yangon        MMR11007120437100710650712000000000000000   10300001F05104100000000000416000000000000     
100   95050310397364970000000000001980000000001980002000000010410407120746131613397809570712000007478350   1020000200030000   333400010001204104000000281Myanmar Soft-Gate Tech Yangon        MMR11007120746131613390712000000000000000   10300001F05104100000000000416000000000000     
100   62911028202294730000000000017110000000017110002000000010410407120556101886674773800712670261210192   1030000900030000   541119000126190110000000082Sein Gay Har Super Cen YANGON        MMR11007120556101886670712000000000000000   10300001F00104100000000001027000000000000     
100   62443100399918110000000000033035000000033035002000000010410407121233380399177879280712000749997055   1030000200030000   541188001025000008000000298KBZ BANK               CITY MART - M MMR11007121233380399170712000000000000000   10300001 00104100000000008259000000000000     
100   95050318712627500000000000002970000000002970002000000010410407120238380838323857210712000007477365   1020000200030000   333400010001204104000000281Myanmar Soft-Gate Tech Yangon        MMR11007120238380838320712000000000000000   10300001F05104100000000000624000000000000     
100   95050312224678430000000000004950000000004950002000000010410407120533590359368015490712000007477929   1020000200030000   333400010001204104000000281Myanmar Soft-Gate Tech Yangon        MMR11007120533590359360712000000000000000   10300001F05104100000000001040000000000000     
100   62911028202595200000000000035900000000035900002000000010410407120917251236004773800712219316123600   1040001600030000   806220001354000000010001061Grand Hantha Internati Ygn           MMR11007120917251236000712000000000000000   10300001F00104100000000002154000000000000     
100   62443100395250310000000000060000000000060000002000000010410407120145021502845169310712000007477263   1030000200030000   333800010001203104000003327KBZPay                 Yangon        MMR11007120145021502840712000000000000000   10300001F05104100000000012600000000000000     
100   95030317922148660000000000030000000000030000002000000010410407120603291888434773800712765331229192   1030000900030000   554119000348190110000000215New Day Energy MYG     YANGONONE     MMR11007120603291888430712000000000000000   10300001F00104100000000000900000000000000     
100   62911028202207040000000000084350000000084350002000000010410407120239131011884773800712219309101188   1040001600030000   591220001007000000010000737Shwe Ohh Pharmacy (Tan Ygn           MMR11007120239131011880712000000000000000   10300001F00104100000000005061000000000000     
100   62443100313112320000000000049795000000049795002000000010410407120529381101600503010712219312110160   1040001600030000   598320000316000000010000304PT Power Petrol Statio Yangon        MMR11007120529381101600712000000000000000   10300001F00104100000000005976000000000000     
100   95050315144611650000000000020780000000020780002000000010410407120421581867984337740712720511058192   1030000900030000   541119001083190110000000872Sein Gay Har Hledan    YANGONUT      MMR11007120421581867980712000000000000000   10300001F00104100000000005195000000000000     
100   95050310743661680000000000056300000000056300002000000010410407120610141890178873000712863401214192   1030000900030000   541119001262190110000000958City Mart PLST C 5     YANGONMYOTHIT MMR11007120610141890170712000000000000000   10300001F00104100000000014075000000000000     
