100   95050315424817550000000000000990000000000990002000000010410407111055122512743637580711000007475765   1020000200030000   333400010001204104000000281Myanmar Soft-Gate Tech Yangon        MMR11007111055122512740711000000000000000   10300001F05104100000000000208000000000000     
100   95050315099113150000000000000990000000000990002000000010410407110609343934363714600711000007473597   1020000200030000   333400010001204104000000281Myanmar Soft-Gate Tech Yangon        MMR11007110609343934360711000000000000000   10300001F05104100000000000208000000000000     
100   95050312498129060000000000000990000000000990002000000010410407110039100910324337850711000007471615   1020000200030000   333400010001204104000000281Myanmar Soft-Gate Tech Yangon        MMR11007110039100910320711000000000000000   10300001F05104100000000000208000000000000     
100   95050328035424750000000000116156000000116156002000000010410407110858311695337233490711194281531191   1030000900030000   541119001328190110000000971Ocean Junction NPT C6  NAYPYITAW     MMR11007110858311695330711000000000000000   10300001F00104100000000029039000000000000     
100   62443100369813440000000000020000000000020000002000000010410407110232031596253190230711270020903191   1030000900030000   554119001037190110000000842Puma Power(BBIBB)      MONON         MMR11007110232031596250711000000000000000   10300001F00104100000000002400000000000000     
100   95050318214455130000000000002970000000002970002000000010410407110704593459328496140711000007474060   1020000200030000   333400010001204104000000281Myanmar Soft-Gate Tech Yangon        MMR11007110704593459320711000000000000000   10300001F05104100000000000624000000000000     
100   95050318601641810000000000000990000000000990002000000010410407110602383238724395370711000007473554   1020000200030000   333400010001204104000000281Myanmar Soft-Gate Tech Yangon        MMR11007110602383238720711000000000000000   10300001F05104100000000000208000000000000     
100   95050312962334280000000000000990000000000990002000000010410407110008473847599890980711000007471584   1020000200030000   333400010001204104000000281Myanmar Soft-Gate Tech Yangon        MMR11007110008473847590711000000000000000   10300001F05104100000000000208000000000000     
100   95050315487243490000000000100000000000100000002000000010410407110411284128263289120711000007472697   1030000200030000   3338000100012031040000040022C2P (Myanmar) Co. Ltd Yangon        MMR11007110411284128260711000000000000000   10300001F05104100000000021000000000000000     
100   95030301100126550000000000020000000000020000002000000010410407071129100225774773800707218811022577   1030000600030000   554100002323315799420000474DENKO N.DAGON - 1      YANGON        MMR11007071129100225770707000000000000000   10300001 00104100000000000600000000000000     
100   95050316438375580000000000000990000000000990002000000010410407110927015701856297430711000007475269   1020000200030000   333400010001204104000000281Myanmar Soft-Gate Tech Yangon        MMR11007110927015701850711000000000000000   10300001F05104100000000000208000000000000     
100   95050320897979420000000000300000000000300000002000000010410407110725275527758155760711000007474240   1030000200030000   333800010001203104000003327KBZPay                 Yangon        MMR11007110725275527750711000000000000000   10300001F05104100000000063000000000000000     
100   95050312675525330000000000005000000000005000002000000010410407111504423442147247280711000007476641   1030000200030000   333800010001203104000003327KBZPay                 Yangon        MMR11007111504423442140711000000000000000   10300001F05104100000000001050000000000000     
100   62911028202308280000000000109000000000109000002000000010410407100756050004404773800710219114000440   1030000500030000   569120104001008205691201040ESCORT ( CITY MALL-ST. PTN           MMR11007100756050004400710000000000000000   10300001 00104100000000006540000000000000     
100   95050321057500320000000000004750000000004750002000000010410407100257110006977714130710219109000697   1030000500030000   541120234401000045411202344CITY EXPRESS (MCS - 28 PTN           MMR11007100257110006970710000000000000000   10300001 00104100000000001188000000000000     
100   62443100392773440000000000048919000000048919002000000010410407100907350012007763570710219115001200   1030000500030000   531120226318000045311202263OCEAN SUPER CENTER STJ PTN           MMR11007100907350012000710000000000000000   10300001 00104100000000011740000000000000     
100   62911028202527490000000000042000000000042000002000000010410407100950510010354773800710219116001035   1030000500030000   598320002103000015172200021MAX ENERGY             PTN           MMR11007100950510010350710000000000000000   10300001 00104100000000001260000000000000     
100   62911028202169750000000000030000000000030000002000000010410407100950580010044773800710219116001004   1030000500030000   598320002101000015172200021MAX ENERGY             PTN           MMR11007100950580010040710000000000000000   10300001 00104100000000000900000000000000     
100   62911028202197630000000000012500000000012500002000000010410407101028550014484773800710219116001448   1030000500030000   598320001403000015172200014MAX ENERGY             PTN           MMR11007101028550014480710000000000000000   10300001 00104100000000000375000000000000     
100   62911028202520380000000000037000000000037000002000000010410407100751470014694773800710219114001469   1030000500030000   598320001204000015172200012MAX ENERGY             PTN           MMR11007100751470014690710000000000000000   10300001 00104100000000001110000000000000     
100   95050318631979070000000000016150000000016150002000000010410407101034370020149174560710000354745102   1030000300030000   541100000134000000000000062CB BANK                CAPITAL EXPRE MMR11007101034370020140710000000000000000   10300001F00104100000000004038000000000000     
100   95050310332595380000000000000990000000000990002000000010410407111621035103542545120711000007476829   1020000200030000   333400010001204104000000281Myanmar Soft-Gate Tech Yangon        MMR11007111621035103540711000000000000000   10300001F05104100000000000208000000000000     
100   95050318694773110000000000020000000000020000002000000010410407111008543854925460250711000007475525   1030000200030000   3338000100012031040000040022C2P (Myanmar) Co. Ltd Yangon        MMR11007111008543854920711000000000000000   10300001F05104100000000004200000000000000     
100   62911028202471860000000000046800000000046800002000000010410407101337090016484773800710219120001648   1030000500030000   531120226311000045311202263OCEAN SUPER CENTER STJ PTN           MMR11007101337090016480710000000000000000   10300001 00104100000000002808000000000000     
100   95050314064416890000000000001980000000001980002000000010410407102340041004473281050711000007471568   1020000200030000   333400010001204104000000281Myanmar Soft-Gate Tech Yangon        MMR11007102340041004470711000000000000000   10300001F05104100000000000416000000000000     
100   95050317176867660000000000001980000000001980002000000010410407110247021702682424370711000007471991   1020000200030000   333400010001204104000000281Myanmar Soft-Gate Tech Yangon        MMR11007110247021702680711000000000000000   10300001F05104100000000000416000000000000     
100   95050318741700180000000000001980000000001980002000000010410407110324025402090176200711000007472269   1020000200030000   333400010001204104000000281Myanmar Soft-Gate Tech Yangon        MMR11007110324025402090711000000000000000   10300001F05104100000000000416000000000000     
100   95050314649264560000000000001000000000001000002000000010410407110327425742705133660711000007472301   1030000200030000   333800010001203104000003327KBZPay                 Yangon        MMR11007110327425742700711000000000000000   10300001F05104100000000000210000000000000     
100   95050326426352250000000000050000000000050000002000000010410407110525505550156983910711000007473303   1030000200030000   333800010001203104000003327KBZPay                 Yangon        MMR11007110525505550150711000000000000000   10300001F05104100000000010500000000000000     
100   62911028202665170000000000072000000000072000002000000010410407101151100013674773800710219118001367   1030000500030000   598320001202000015172200012MAX ENERGY             PTN           MMR11007101151100013670710000000000000000   10300001 00104100000000002160000000000000     
100   62911028202151340000000000024500000000024500002000000010410407101142360021004773800710219118002100   1030000500030000   531120226310000045311202263OCEAN SUPER CENTER STJ PTN           MMR11007101142360021000710000000000000000   10300001 00104100000000001470000000000000     
100   62911028202150190000000000050000000000050000002000000010410407100600060014314773800710219112001431   1030000500030000   598320001201000015172200012MAX ENERGY             PTN           MMR11007100600060014310710000000000000000   10300001 00104100000000001500000000000000     
100   62443100371022130000000000028250000000028250002000000010410407101033160017720827040710219117001772   1030000500030000   541120229102000045411202291CITY MART YANKIN       PTN           MMR11007101033160017720710000000000000000   10300001 00104100000000007063000000000000     
100   62911028202440680000000000042703000000042703002000000010410407100908390013434773800710219115001343   1030000500030000   598320001202000015172200012MAX ENERGY             PTN           MMR11007100908390013430710000000000000000   10300001 00104100000000001281000000000000     
100   62911028202443730000000000023006000000023006002000000010410407100905450018784773800710219115001878   1030000500030000   598320001902000015172200019MAX ENERGY             PTN           MMR11007100905450018780710000000000000000   10300001 00104100000000000690000000000000     
100   62911028202169750000000000007750000000007750002000000010410407100723170021544773800710219113002154   1030000500030000   541120226201000045411202262CITY MART ZAWANA       PTN           MMR11007100723170021540710000000000000000   10300001 00104100000000000465000000000000     
100   95030325264619140000000000055150000000055150002000000010410407100454000009984773800710000354697574   1030000300030000   541100002348000000000000102CB BANK                MAKRO MYANMAR MMR11007100454000009980710000000000000000   10300001F00104100000000003309000000000000     
100   62911028202163630000000000025600000000025600002000000010410407110913050468354773800711219216046835   1040001600030000   591220000302000000010000290Shwe Ohh Pharmacy (Nor Yangon        MMR11007110913050468350711000000000000000   10300001F00104100000000001536000000000000     
100   95050325139996190000000000003300000000003300002000000010410407110350372037551161710711000007472501   1030000200030000   333300010001203104000003632Myanmar Tradenet Test  Yangon        MMR11007110350372037550711000000000000000   10300001F05104100000000010000000000000000     
100   95050324850150480000000000070000000000070000002000000010410407080424350318755187800708218904031875   1030000600030000   554100001116315799420000574DENKO HLAE KUU         HLAE KUU      MMR11007080424350318750708000000000000000   10300001 00104100000000008400000000000000     
100   62443100373945130000000000020000000000020000002000000010410407111246540670808013150711219219067080   1040001600030000   598320000911000000010000662MMTM - Tamwe           Ygn           MMR11007111246540670800711000000000000000   10300001F00104100000000002400000000000000     
100   62911028202524260000000000015200000000015200002000000010410407100920330003704773800710219115000370   1030000500030000   503920036608000015039200366PRO-1 HOME CENTER      PTN           MMR11007100920330003700710000000000000000   10300001 00104100000000000912000000000000     
100   95030301100081330000000000064500000000064500002000000010410407100552100006594773800710219112000659   1030000500030000   531120231209000045311202312OCEAN OATTARA THIRI    PTN           MMR11007100552100006590710000000000000000   10300001 00104100000000003870000000000000     
100   62443100395964530000000000041320000000041320002000000010410407100728440007764543700710000354718710   1030000300030000   541100000444000000000000319CB BANK                ONESTOP KITCH MMR11007100728440007760710000000000000000   10300001F00104100000000010330000000000000     
100   95030310098554020000000000022200000000022200002000000010410407110140061588924773800711096100806191   1030000900030000   554119001100190110000000212New Day Energy PZD     YANGON        MMR11007110140061588920711000000000000000   10300001F00104100000000000666000000000000     
100   62443100379321630000000000040000000000040000002000000010410407070323440203248817020707218803020324   1030000600030000   554100002320315799420000564DENKO PHYUU            PHYUU         MMR11007070323440203240707000000000000000   10300001 00104100000000004800000000000000     
100   95030305700676370000000000070000000000070000002000000010410407070617150081024773800707218806008102   1030000600030000   554100002141315799420001490DENKO MEIKHTILA 3      MANDALAY      MMR11007070617150081020707000000000000000   10300001 00104100000000002100000000000000     
100   95050320088670570000000000050000000000050000002000000010410407070711240452591809190707218807045259   1030000600030000   554100001106315799420000564DENKO PHYUU            PHYUU         MMR11007070711240452590707000000000000000   10300001 00104100000000006000000000000000     
100   62911028202169750000000000001550000000001550002000000010410407080401380002484773800708218904000248   1030000600030000   5499000024393157994200017011 STOP S M SOKA        YANGON        MMR11007080401380002480708000000000000000   10300001 00104100000000000158000000000000     
100   62911028202169750000000000030502000000030502002000000010410407080413270002494773800708218904000249   1030000600030000   5499000024393157994200017011 STOP S M SOKA        YANGON        MMR11007080413270002490708000000000000000   10300001 00104100000000003111000000000000     
100   95050321232876860000000000078000000000078000002000000010410407081321550416761060470708218913041676   1030000600030000   554100001865315799420001235DENKO NAY PYI TAW 2    NAYPYITAW     MMR11007081321550416760708000000000000000   10300001 00104100000000009360000000000000     
100   62443100306045460000000000301085000000301085002000000010410407081312490158916103010708218913015891   1030000600030000   809900000541315799420000147GRAND HANTHA HOSPITAL  YANGON        MMR11007081312490158910708000000000000000   10300001 00104100000000072260000000000000     
100   95030309826203200000000000005300000000005300002000000010410407081324100017954773800708218919001795   1030000500030000   541120227604000045411202276CITY MART ( 47 BRANCH  PTN           MMR11007081324100017950708000000000000000   10300001 00104100000000000318000000000000     
100   95050326426352250000000000300000000000300000002000000010410407110521575157753253470711000007473272   1030000200030000   333800010001203104000003327KBZPay                 Yangon        MMR11007110521575157750711000000000000000   10300001F05104100000000063000000000000000     
100   95050310213446310000000000009900000000009900002000000010410407110859292929880538460711000007475009   1020000200030000   333400010001204104000000281Myanmar Soft-Gate Tech Yangon        MMR11007110859292929880711000000000000000   10300001F05104100000000002079000000000000     
100   62911028202136750000000000035000000000035000002000000010410407100521480016694773800710219111001669   1030000500030000   598320001901000015172200019MAX ENERGY             PTN           MMR11007100521480016690710000000000000000   10300001 00104100000000001050000000000000     
100   62443100395250310000000000010605000000010605002000000010410407110949421710994403450711050191642191   1030000900030000   541119001262190110000000958City Mart PLST C 5     YANGONMYOTHIT MMR11007110949421710990711000000000000000   10300001F00104100000000002652000000000000     
100   62911028202792960000000000070400000000070400002000000010410407100933100018674773800710219116001867   1030000500030000   541120227604000045411202276CITY MART ( 47 BRANCH  PTN           MMR11007100933100018670710000000000000000   10300001 00104100000000004224000000000000     
100   62911028202530930000000000084270000000084270002000000010410407111635580261464773800711000749967607   1030000200030000   541188001001000008000000008KBZ BANK               MARKETPLACE - MMR11007111635580261460711000000000000000   10300001 00104100000000005056000000000000     
100   95030319588829360000000000030000000000030000002000000010410407080729520840394773800708218907084039   1030000600030000   554100000955315799420000477DENKO INSEIN           YANGON        MMR11007080729520840390708000000000000000   10300001 00104100000000000900000000000000     
100   95050316818236190000000000002970000000002970002000000010410407110752062206839893340711000007474449   1020000200030000   333400010001204104000000281Myanmar Soft-Gate Tech Yangon        MMR11007110752062206830711000000000000000   10300001F05104100000000000624000000000000     
100   62443100379321630000000000120000000000120000002000000010410407081219090315933039540708218912031593   1030000600030000   554100000725315799420000306DENKO MDY - 78         MANDALAY      MMR11007081219090315930708000000000000000   10300001 00104100000000014400000000000000     
100   62443100300412100000000000094000000000094000002000000010410407080236350979496895460708218902097949   1030000600030000   554100000946315799420000471DENKO BAHAN            YANGON        MMR11007080236350979490708000000000000000   10300001 00104100000000011280000000000000     
100   62911028202464020000000000025000000000025000002000000010410407100120189430294773800710219108943029   1040001600030000   598320001453000000010001147360 Petro (Sat San)    Ygn           MMR11007100120189430290710000000000000000   10300001F00104100000000000750000000000000     
100   62911028202827120000000000017540000000017540002000000010410407100729189649584773800710219114964958   1040001600030000   541120000557000000010000465Ocean Shwe Gone Daing  Yangon        MMR11007100729189649580710000000000000000   10300001F00104100000000001052000000000000     
100   62911028202400660000000000224000000000224000002000000010410407110250131599764773800711418200913191   1030000900030000   581219000185190110000000089KER Rendezvous - 4Floo YANGONONE     MMR11007110250131599760711000000000000000   10300001F00104100000000022848000000000000     
100   62911028202912260000000000028000000000028000002000000010410407110712440402054773800711219214040205   1040001600030000   569120000927000000010000674Generation Concept Sto Ygn           MMR11007110712440402050711000000000000000   10300001F00104100000000001680000000000000     
100   95050321848852460000000003263439000003263439002000000010410407110938320832725885740711000007475348   1010000100030000   333500010001212104000002543Internal Revenue Depar Yangon        MMR11007110938320832720711000000000000000   10300001F05104100000000060000000000000000     
100   95050312520116690000000000070000000000070000002000000010410407110440241024350700580711000007472919   1030000200030000   333800010001203104000003327KBZPay                 Yangon        MMR11007110440241024350711000000000000000   10300001F05104100000000014700000000000000     
100   62911028202099050000000000343500000000343500002000000010410407111142170600724773800711219218060072   1040001600030000   591220000266000000010000254Shwe Ohh Pharmacy (Sin Yangon        MMR11007111142170600720711000000000000000   10300001F00104100000000020610000000000000     
100   95050316067768680000000000001980000000001980002000000010410407111437100710022289830711000007476539   1020000200030000   333400010001204104000000281Myanmar Soft-Gate Tech Yangon        MMR11007111437100710020711000000000000000   10300001F05104100000000000416000000000000     
100   95050314641725490000000000020000000000020000002000000010410407101637110711756671110711000007471341   1030000200030000   333800010001203104000003327KBZPay                 Yangon        MMR11007101637110711750711000000000000000   10300001F05104100000000004200000000000000     
100   62911028202169750000000000120930000000120930002000000010410407110809220431364773800711219215043136   1040001600030000   541120000571000000010000465Ocean Shwe Gone Daing  Yangon        MMR11007110809220431360711000000000000000   10300001F00104100000000007256000000000000     
100   95050319006804440000000000000990000000000990002000000010410407110436020602749643760711000007472884   1020000200030000   333400010001204104000000281Myanmar Soft-Gate Tech Yangon        MMR11007110436020602740711000000000000000   10300001F05104100000000000208000000000000     
100   62911028202466670000000000202750000000202750002000000010410407111134490592444773800711219218059244   1040001600030000   591220000276000000010000264Shwe Ohh Pharmacy (YGH Yangon        MMR11007111134490592440711000000000000000   10300001F00104100000000012165000000000000     
100   95050312498129060000000000000990000000000990002000000010410407111237460746603055690711000007476129   1020000200030000   333400010001204104000000281Myanmar Soft-Gate Tech Yangon        MMR11007111237460746600711000000000000000   10300001F05104100000000000208000000000000     
100   95050318131043910000000000004950000000004950002000000010410407111143091309151389420711000007475952   1020000200030000   333400010001204104000000281Myanmar Soft-Gate Tech Yangon        MMR11007111143091309150711000000000000000   10300001F05104100000000001040000000000000     
100   62911028202163630000000000255700000000255700002000000010410407110856360458394773800711219215045839   1040001600030000   591220000302000000010000290Shwe Ohh Pharmacy (Nor Yangon        MMR11007110856360458390711000000000000000   10300001F00104100000000015342000000000000     
100   95030301100126550000000000040750000000040750002000000010410407111136480594854773800711219218059485   1040001600030000   591220000297000000010000285Shwe Ohh Pharmacy (Nor Yangon        MMR11007111136480594850711000000000000000   10300001F00104100000000002445000000000000     
100   62443100359018060000000000072934000000072934002000000010410407110729280398102600270711000749925032   1030000200030000   541188001025000008000000298KBZ BANK               CITY MART - M MMR11007110729280398100711000000000000000   10300001 00104100000000018234000000000000     
100   95050319938772870000000000000990000000000990002000000010410407111541361136680977730711000007476751   1020000200030000   333400010001204104000000281Myanmar Soft-Gate Tech Yangon        MMR11007111541361136680711000000000000000   10300001F05104100000000000208000000000000     
100   95050319161596230000000000000990000000000990002000000010410407110045061506705990330711000007471627   1020000200030000   333400010001204104000000281Myanmar Soft-Gate Tech Yangon        MMR11007110045061506700711000000000000000   10300001F05104100000000000208000000000000     
100   95050315158357300000000000000990000000000990002000000010410407111545081508402630210711000007476760   1020000200030000   333400010001204104000000281Myanmar Soft-Gate Tech Yangon        MMR11007111545081508400711000000000000000   10300001F05104100000000000208000000000000     
100   62911028202400660000000000056000000000056000002000000010410407110252511600344773800711447220951191   1030000900030000   581219000185190110000000089KER Rendezvous - 4Floo YANGONONE     MMR11007110252511600340711000000000000000   10300001F00104100000000005712000000000000     
100   95050316530487400000000000030000000000030000002000000010410407110935320532291013380711000007475333   1030000200030000   333800010001203104000003327KBZPay                 Yangon        MMR11007110935320532290711000000000000000   10300001F05104100000000006300000000000000     
100   95050312675525330000000000012000000000012000002000000010410407101744101410071713660711000007471427   1030000200030000   333800010001203104000003327KBZPay                 Yangon        MMR11007101744101410070711000000000000000   10300001F05104100000000002520000000000000     
100   95050311931431670000000000004950000000004950002000000010410407111432240224723942310711000007476522   1020000200030000   333400010001204104000000281Myanmar Soft-Gate Tech Yangon        MMR11007111432240224720711000000000000000   10300001F05104100000000001040000000000000     
100   62911028202400660000000000042700000000042700002000000010410407110852590374924773800711000749926978   1030000200030000   541188001041000008000000010KBZ BANK               MARKETPLACE - MMR11007110852590374920711000000000000000   10300001 00104100000000002562000000000000     
100   95050313843656520000000000002970000000002970002000000010410407110242201220536410100711000007471975   1020000200030000   333400010001204104000000281Myanmar Soft-Gate Tech Yangon        MMR11007110242201220530711000000000000000   10300001F05104100000000000624000000000000     
100   95050315701710960000000000001980000000001980002000000010410407111441491149110552250711000007476550   1020000200030000   333400010001204104000000281Myanmar Soft-Gate Tech Yangon        MMR11007111441491149110711000000000000000   10300001F05104100000000000416000000000000     
100   62911028202169750000000000022850000000022850002000000010410407110527510335614773800711219212033561   1040001600030000   591220000273000000010000261Shwe Ohh Pharmacy (WZY Yangon        MMR11007110527510335610711000000000000000   10300001F00104100000000001371000000000000     
100   95050324411430900000000000702000000000702000002000000010410407110942561256651183570711000007475376   1010000100030000   333500010001212104000002543Internal Revenue Depar Yangon        MMR11007110942561256650711000000000000000   10300001F05104100000000060000000000000000     
100   62911028202169750000000000016800000000016800002000000010410407110538280343284773800711219212034328   1040001600030000   591220000281000000010000269Shwe Ohh Pharmacy (San Yangon        MMR11007110538280343280711000000000000000   10300001F00104100000000001008000000000000     
100   95050320205194540000000000054950000000054950002000000010410407111223100645122800400711219219064512   1040001600030000   591220000288000000010000276Shwe Ohh Pharmacy (Nor Yangon        MMR11007111223100645120711000000000000000   10300001F00104100000000013188000000000000     
100   95050314931885730000000000001000000000001000002000000010410407111143481348873041900711000007475938   1030000200030000   3338000100012031040000040022C2P (Myanmar) Co. Ltd Yangon        MMR11007111143481348870711000000000000000   10300001F05104100000000000210000000000000     
100   95050314414024490000000000300000000000300000002000000010410407110533540354035161240711000007473358   1030000200030000   333800010001203104000003327KBZPay                 Yangon        MMR11007110533540354030711000000000000000   10300001F05104100000000063000000000000000     
100   95050314557307430000000000001980000000001980002000000010410407111321255125770722440711000007476265   1020000200030000   333400010001204104000000281Myanmar Soft-Gate Tech Yangon        MMR11007111321255125770711000000000000000   10300001F05104100000000000416000000000000     
100   95050313836159580000000000151000000000151000002000000010410407110947231723502836060711000007475399   1030000200030000   333800010001203104000003327KBZPay                 Yangon        MMR11007110947231723500711000000000000000   10300001F05104100000000031710000000000000     
100   62911028202448030000000000032150000000032150002000000010410407111114211735004773800711416441721191   1030000900030000   541119001250190110000000955City Mart JS C 9       YANGONUT      MMR11007111114211735000711000000000000000   10300001F00104100000000001929000000000000     
100   62911028202208780000000000013860000000013860002000000010410407111109511734064773800711367391751191   1030000900030000   581219000371190110000000243Jo Jo Hot Pot (Junctio YANGONN       MMR11007111109511734060711000000000000000   10300001F00104100000000001414000000000000     
100   62911028202471860000000000020350000000020350002000000010410407111240431758384773800711782101943191   1030000900030000   541119000128190110000000082Sein Gay Har Super Cen YANGON        MMR11007111240431758380711000000000000000   10300001F00104100000000001221000000000000     
100   95050318257792630000000000018250000000018250002000000010410407111015061717790672990711398451606191   1030000900030000   541119001246190110000000955City Mart JS C 5       YANGONUT      MMR11007111015061717790711000000000000000   10300001F00104100000000004563000000000000     
100   95050318631979070000000000012900000000012900002000000010410407111126541738709822030711616561754191   1030000900030000   541119001363190110000000977Ocean PZD C17          YANGONAUNG    MMR11007111126541738700711000000000000000   10300001F00104100000000003225000000000000     
100   95050316231020800000000000100000000000100000002000000010410407111254002400919665630711000007476189   1030000200030000   333800010001203104000003327KBZPay                 Yangon        MMR11007111254002400910711000000000000000   10300001F05104100000000021000000000000000     
100   95050316949180000000000000002970000000002970002000000010410407111602143214340892630711000007476795   1020000200030000   333400010001204104000000281Myanmar Soft-Gate Tech Yangon        MMR11007111602143214340711000000000000000   10300001F05104100000000000624000000000000     
100   95050314767696390000000000008750000000008750002000000010410407111023541720417282930711559531654191   1030000900030000   541119001083190110000000872Sein Gay Har Hledan    YANGONUT      MMR11007111023541720410711000000000000000   10300001F00104100000000002188000000000000     
100   95050318041680090000000000015000000000015000002000000010410407111515284528548899760711000007476666   1030000200030000   333800010001203104000003327KBZPay                 Yangon        MMR11007111515284528540711000000000000000   10300001F05104100000000003150000000000000     
100   95050314160856250000000000000990000000000990002000000010410407110521535153761600980711000007473273   1020000200030000   333400010001204104000000281Myanmar Soft-Gate Tech Yangon        MMR11007110521535153760711000000000000000   10300001F05104100000000000208000000000000     
100   62911028202489110000000000022500000000022500002000000010410407110618551651554773800711868481255191   1030000900030000   541119001464190110000000077Sein Gay Har Chinatown YANGON        MMR11007110618551651550711000000000000000   10300001F00104100000000001350000000000000     
100   62911028202170230000000000043300000000043300002000000010410407110710161664904773800711584401316191   1030000900030000   541119001186190110000000942City Mart HDC C 1      YANGONUT      MMR11007110710161664900711000000000000000   10300001F00104100000000002598000000000000     
100   95050324622440820000000000049088000000049088002000000010410407110910301699247864820711408401530191   1030000900030000   541119001359190110000000977Ocean PZD C 13         YANGONAUNG    MMR11007110910301699240711000000000000000   10300001F00104100000000012272000000000000     
100   95050318712627500000000000005700000000005700002000000010410407111149011744769736940711974191801191   1030000900030000   541119001273190110000000960City Mart PLST Season  YANGONMYOTHIT MMR11007111149011744760711000000000000000   10300001F00104100000000001425000000000000     
100   95050324773225760000000000050000000000050000002000000010410407110150552055774422950711000007471776   1030000200030000   333800010001203104000003327KBZPay                 Yangon        MMR11007110150552055770711000000000000000   10300001F05104100000000010500000000000000     
100   95050324411430900000000001019500000001019500002000000010410407110820215021104183810711000007474690   1010000100030000   333500010001212104000002840Internal Revenue Depar Yangon        MMR11007110820215021100711000000000000000   10300001F05104100000000060000000000000000     
100   95050328035424750000000000024400000000024400002000000010410407110902451696659857690711267321545191   1030000900030000   541119001328190110000000971Ocean Junction NPT C6  NAYPYITAW     MMR11007110902451696650711000000000000000   10300001F00104100000000006100000000000000     
100   62443100328070970000000000008235000000008235002000000010410407111015411718015715540711413451641191   1030000900030000   541119001512190110000001102Ocean MGDTM C-5        YANGONADON    MMR11007111015411718010711000000000000000   10300001F00104100000000002059000000000000     
100   62911028202294730000000000030000000000030000002000000010410407111158551747374773800711130281855191   1030000900030000   541119001241190110000000082Sein Gay Har Super Cen YANGON        MMR11007111158551747370711000000000000000   10300001F00104100000000001800000000000000     
100   95050324773225760000000000100000000000100000002000000010410407110149471947609465500711000007471773   1030000200030000   333800010001203104000003327KBZPay                 Yangon        MMR11007110149471947600711000000000000000   10300001F05104100000000021000000000000000     
100   95050322312885760000000000013000000000013000002000000010410407110854372437370623550711000007474969   1030000200030000   333800010001203104000003327KBZPay                 Yangon        MMR11007110854372437370711000000000000000   10300001F05104100000000002730000000000000     
100   95030301100319290000000000004950000000004950002000000010410407111434390439084773800711000007476534   1020000200030000   333400010001204104000000281Myanmar Soft-Gate Tech Yangon        MMR11007111434390439080711000000000000000   10300001F05104100000000001040000000000000     
100   95050318712627500000000000018024000000018024002000000010410407111142551743318084450711888121855191   1030000900030000   541119001266190110000000958City Mart PLST C9      YANGONMYOTHIT MMR11007111142551743310711000000000000000   10300001F00104100000000004506000000000000     
100   95050318712627500000000000000990000000000990002000000010410407110251542154115729330711000007472017   1020000200030000   333400010001204104000000281Myanmar Soft-Gate Tech Yangon        MMR11007110251542154110711000000000000000   10300001F05104100000000000208000000000000     
100   95050313411345710000000000000990000000000990002000000010410407110604123412717615240711000007473559   1020000200030000   333400010001204104000000281Myanmar Soft-Gate Tech Yangon        MMR11007110604123412710711000000000000000   10300001F05104100000000000208000000000000     
100   95050315564078030000000000020000000000020000002000000010410407111317104710689580530711000007476254   1030000200030000   3338000100012031040000040022C2P (Myanmar) Co. Ltd Yangon        MMR11007111317104710680711000000000000000   10300001F05104100000000004200000000000000     
100   95050318141561190000000000010000000000010000002000000010410407110421585158577821090711000007472778   1040001600030000   333800010001220104000004507A +                    Yangon        MMR11007110421585158570711000000000000000   10300001F05104100000000002100000000000000     
100   62911028202400660000000000148000000000148000002000000010410407110755431676994773800711232251443191   1030000900030000   829919001123190110000000904IIP School             YANGONUT      MMR11007110755431676990711000000000000000   10300001F00104100000000008880000000000000     
100   95050317003064220000000000000990000000000990002000000010410407110246181618714161950711000007471989   1020000200030000   333400010001204104000000281Myanmar Soft-Gate Tech Yangon        MMR11007110246181618710711000000000000000   10300001F05104100000000000208000000000000     
100   95050312498129060000000000002970000000002970002000000010410407111316474647967928050711000007476253   1020000200030000   333400010001204104000000281Myanmar Soft-Gate Tech Yangon        MMR11007111316474647960711000000000000000   10300001F05104100000000000624000000000000     
100   95030301100319290000000000004950000000004950002000000010410407111436150615274773800711000007476537   1020000200030000   333400010001204104000000281Myanmar Soft-Gate Tech Yangon        MMR11007111436150615270711000000000000000   10300001F05104100000000001040000000000000     
100   62911028202031710000000000024000000000024000002000000010410407110955471712584773800711131251647191   1030000900030000   554119000348190110000000215New Day Energy MYG     YANGONONE     MMR11007110955471712580711000000000000000   10300001F00104100000000000720000000000000     
100   95030301100126550000000000043000000000043000002000000010410407110951231711504773800711075211623191   1030000900030000   554119000347190110000000214New Day Energy MTN     YANGONARTAUNG MMR11007110951231711500711000000000000000   10300001F00104100000000001290000000000000     
100   62911028202488950000000000005800000000005800002000000010410407111346161770844773800711433162016191   1030000900030000   541119001213190110000000949City Mart YK Season C  YANGONAUNG    MMR11007111346161770840711000000000000000   10300001F00104100000000000348000000000000     
100   95050312695033440000000000000990000000000990002000000010410407110156202620443020040711000007471798   1020000200030000   333400010001204104000000281Myanmar Soft-Gate Tech Yangon        MMR11007110156202620440711000000000000000   10300001F05104100000000000208000000000000     
100   95050314534800510000000000000990000000000990002000000010410407110402263226461707940711000007472524   1020000200030000   333400010001204104000000281Myanmar Soft-Gate Tech Yangon        MMR11007110402263226460711000000000000000   10300001F05104100000000000208000000000000     
100   95050314287403810000000000002970000000002970002000000010410407110319554955988183340711000007472238   1020000200030000   333400010001204104000000281Myanmar Soft-Gate Tech Yangon        MMR11007110319554955980711000000000000000   10300001F05104100000000000624000000000000     
100   95050320335873810000000000010000000000010000002000000010410407110317404740474963470711000007472222   1030000200030000   333800010001203104000003327KBZPay                 Yangon        MMR11007110317404740470711000000000000000   10300001F05104100000000002100000000000000     
100   95050312962334280000000000000990000000000990002000000010410407110147181718294508050711000007471766   1020000200030000   333400010001204104000000281Myanmar Soft-Gate Tech Yangon        MMR11007110147181718290711000000000000000   10300001F05104100000000000208000000000000     
100   95050310332595380000000000000990000000000990002000000010410407110249051905484076850711000007472001   1020000200030000   333400010001204104000000281Myanmar Soft-Gate Tech Yangon        MMR11007110249051905480711000000000000000   10300001F05104100000000000208000000000000     
100   95050310794962000000000000005000000000005000002000000010410407110257152715683736460711000007472049   1030000200030000   3338000100012031040000040022C2P (Myanmar) Co. Ltd Yangon        MMR11007110257152715680711000000000000000   10300001F05104100000000001050000000000000     
100   95050314307746340000000000000990000000000990002000000010410407110602033203359437920711000007473552   1020000200030000   333400010001204104000000281Myanmar Soft-Gate Tech Yangon        MMR11007110602033203350711000000000000000   10300001F05104100000000000208000000000000     
100   62911028202158520000000000017000000000017000002000000010410407110424251620914773800711351541025191   1030000900030000   541119001207190110000000948City Mart YK C 5       YANGONAUNG    MMR11007110424251620910711000000000000000   10300001F00104100000000001020000000000000     
100   95050313843656520000000000000990000000000990002000000010410407110849591959260283170711000007474934   1020000200030000   333400010001204104000000281Myanmar Soft-Gate Tech Yangon        MMR11007110849591959260711000000000000000   10300001F05104100000000000208000000000000     
100   95050315099113150000000000002970000000002970002000000010410407111528045804124282690711000007476701   1020000200030000   333400010001204104000000281Myanmar Soft-Gate Tech Yangon        MMR11007111528045804120711000000000000000   10300001F05104100000000000624000000000000     
100   95050318617855880000000000000990000000000990002000000010410407111347191719209069960711000007476345   1020000200030000   333400010001204104000000281Myanmar Soft-Gate Tech Yangon        MMR11007111347191719200711000000000000000   10300001F05104100000000000208000000000000     
100   95050310213446310000000000004950000000004950002000000010410407110853242324215581000711000007474964   1020000200030000   333400010001204104000000281Myanmar Soft-Gate Tech Yangon        MMR11007110853242324210711000000000000000   10300001F05104100000000001040000000000000     
100   95050322312885760000000000006000000000006000002000000010410407110803583358804595500711000007474548   1030000200030000   333800010001203104000003327KBZPay                 Yangon        MMR11007110803583358800711000000000000000   10300001F05104100000000001260000000000000     
100   95050316321163940000000000000990000000000990002000000010410407111211514151766105370711000007476052   1020000200030000   333400010001204104000000281Myanmar Soft-Gate Tech Yangon        MMR11007111211514151760711000000000000000   10300001F05104100000000000208000000000000     
100   95050328876009750000000000030000000000030000002000000010410407110515204520985317640711000007473223   1030000200030000   333800010001203104000003327KBZPay                 Yangon        MMR11007110515204520980711000000000000000   10300001F05104100000000006300000000000000     
100   95050312940629360000000000008250000000008250002000000010410407110639281657202652070711183091328191   1030000900030000   541119000123190110000000080Sein Gay Har BAK       YANGON        MMR11007110639281657200711000000000000000   10300001F00104100000000002063000000000000     
100   95050314557307430000000000001980000000001980002000000010410407110049091909311032890711000007471633   1020000200030000   333400010001204104000000281Myanmar Soft-Gate Tech Yangon        MMR11007110049091909310711000000000000000   10300001F05104100000000000416000000000000     
100   62443100345308040000000000005000000000005000002000000010410407110753252325817730280711000007474467   1030000200030000   333800010001203104000003327KBZPay                 Yangon        MMR11007110753252325810711000000000000000   10300001F05104100000000001050000000000000     
100   95050313892255050000000000100000000000100000002000000010410407111302083208154708180711000007476217   1030000200030000   333800010001203104000003327KBZPay                 Yangon        MMR11007111302083208150711000000000000000   10300001F05104100000000021000000000000000     
100   95050311736839760000000000000990000000000990002000000010410407110601003100082742890711000007473545   1020000200030000   333400010001204104000000281Myanmar Soft-Gate Tech Yangon        MMR11007110601003100080711000000000000000   10300001F05104100000000000208000000000000     
100   95050312595952760000000000009900000000009900002000000010410407110404273427553275330711000007472638   1020000200030000   333400010001204104000000281Myanmar Soft-Gate Tech Yangon        MMR11007110404273427550711000000000000000   10300001F05104100000000002079000000000000     
100   95050313145843230000000000290000000000290000002000000010410407111206023602396190470711000007476036   1030000200030000   333800010001203104000003327KBZPay                 Yangon        MMR11007111206023602390711000000000000000   10300001F05104100000000060900000000000000     
100   95050322343585250000000000050000000000050000002000000010410407110407283728337005780711000007472660   1030000200030000   333800010001203104000003327KBZPay                 Yangon        MMR11007110407283728330711000000000000000   10300001F05104100000000010500000000000000     
100   95050319938772870000000000001980000000001980002000000010410407111539180918485935180711000007476744   1020000200030000   333400010001204104000000281Myanmar Soft-Gate Tech Yangon        MMR11007111539180918480711000000000000000   10300001F05104100000000000416000000000000     
100   62443100340422630000000000025600000000025600002000000010410407101157250008267096590710219118000826   1030000500030000   541120229107000045411202291CITY MART YANKIN       PTN           MMR11007101157250008260710000000000000000   10300001 00104100000000006400000000000000     
100   95050320531117320000000000066000000000066000002000000010410407101145590003548749070710219118000354   1030000500030000   598320001502000015172200015MAX ENERGY             PTN           MMR11007101145590003540710000000000000000   10300001 00104100000000007920000000000000     
100   95050321057500320000000000015960000000015960002000000010410407100848090003377338090710219115000337   1030000500030000   581220024001000015812200240SHWE LAR HOT POT       PTN           MMR11007100848090003370710000000000000000   10300001 00104100000000006783000000000000     
100   95050313640946520000000000014050000000014050002000000010410407100746280007739841530710000354721199   1030000300030000   531100000750000000000000408CB BANK                CAPITAL HYPER MMR11007100746280007730710000000000000000   10300001F00104100000000003372000000000000     
100   62911028202222620000000000249800000000249800002000000010410407100611370000784773800710219112000078   1030000500030000   591220211101014405912202111SHWE OHH PHARMACY      PTN           MMR11007100611370000780710000000000000000   10300001 00104100000000014988000000000000     
100   62911028202792960000000000014800000000014800002000000010410407100935210005484773800710219116000548   1030000500030000   541120227608000045411202276CITY MART ( 47 BRANCH  PTN           MMR11007100935210005480710000000000000000   10300001 00104100000000000888000000000000     
100   95050323282717740000000000025000000000025000002000000010410407100235350008053352350710219109000805   1030000500030000   598320068303000055983200683MAX ENERGY             PTN           MMR11007100235350008050710000000000000000   10300001 00104100000000003000000000000000     
100   95050317043153610000000000022500000000022500002000000010410407100808170004487508280710219114000448   1030000500030000   531120156005000045311201560GAMONE PWINT           PTN           MMR11007100808170004480710000000000000000   10300001 00104100000000005400000000000000     
100   95030310189526870000000000003800000000003800002000000010410407101113240004054773800710000354750740   1030000300030000   531100000791000000000000537CB BANK                CAPITAL SUPER MMR11007101113240004050710000000000000000   10300001F00104100000000000228000000000000     
100   95050311736839760000000000004631000000004631002000000010410407100533130007592089690710000354702897   1030000300030000   531100000750000000000000408CB BANK                CAPITAL HYPER MMR11007100533130007590710000000000000000   10300001F00104100000000001112000000000000     
100   95050316901496590000000000007600000000007600002000000010410407100419350001302246100710219110000130   1030000500030000   541120045801009205411200458126 STORE              PTN           MMR11007100419350001300710000000000000000   10300001 00104100000000001900000000000000     
100   62443100395250310000000000034000000000034000002000000010410407101043530002379089460710219117000237   1030000500030000   569120066801008205691200668ESCORT                 PTN           MMR11007101043530002370710000000000000000   10300001 00104100000000008160000000000000     
100   62443100333488440000000000006800000000006800002000000010410407101010360002707607170710000354741505   1030000300030000   531100001408000000000000962CB BANK                G & G CONVENI MMR11007101010360002700710000000000000000   10300001F00104100000000001632000000000000     
100   62911028202151340000000000009650000000009650002000000010410407101157410002674773800710219118000267   1030000500030000   531120226303000045311202263OCEAN SUPER CENTER STJ PTN           MMR11007101157410002670710000000000000000   10300001 00104100000000000579000000000000     
100   62911028202488950000000000048150000000048150002000000010410407100634370000524773800710219113000052   1030000500030000   541120129716000045411201297MAKRO MYANMAR          PTN           MMR11007100634370000520710000000000000000   10300001 00104100000000002889000000000000     
100   62443100333488440000000000042000000000042000002000000010410407101013220001802564620710219116000180   1030000500030000   541120228601000045411202286CITY EXPRESS (MCS - 11 PTN           MMR11007101013220001800710000000000000000   10300001 00104100000000010500000000000000     
100   62911028202530930000000000035400000000035400002000000010410407110604010006964773800711000749946730   1030000200030000   581288000746000008000004038KBZ BANK               CAESAR CAF? & MMR11007110604010006960711000000000000000   10300001 00104100000000003611000000000000     
100   95050319067144780000000000012100000000012100002000000010410407111308090001129006720711000749950474   1030000200030000   541188001435000008000000401KBZ BANK               OCEAN SUPERCE MMR11007111308090001120711000000000000000   10300001 00104100000000003025000000000000     
100   95050314565805350000000000030000000000030000002000000010410407110330210021586786140711000007472329   1030000200030000   333800010001203104000003327KBZPay                 Yangon        MMR11007110330210021580711000000000000000   10300001F05104100000000006300000000000000     
100   62911028202366010000000000073650000000073650002000000010410407110952550020164773800711219216002016   1020000200030000   541100255007300115411000025MWD BANK               YGN           MMR11007110952550020160711000000000000000   10300001 00104100000000004419000000000000     
100   95050310902464360000000000004950000000004950002000000010410407111430190019255679890711000007476517   1020000200030000   333400010001204104000000281Myanmar Soft-Gate Tech Yangon        MMR11007111430190019250711000000000000000   10300001F05104100000000001040000000000000     
100   62911028202366010000000000043500000000043500002000000010410407110924240038204773800711219215003820   1020000200030000   541100255002300115411000025MWD BANK               YGN           MMR11007110924240038200711000000000000000   10300001 00104100000000002610000000000000     
100   62911028202440680000000000001650000000001650002000000010410407111645300043134773800711000749968088   1030000200030000   541188001085000008000000294KBZ BANK               CITY MART - J MMR11007111645300043130711000000000000000   10300001 00104100000000000099000000000000     
100   62443100379321630000000000069000000000069000002000000010410407111551090089079772590711000749965016   1030000200030000   541188001347000008000000395KBZ BANK               OCEAN SUPERMA MMR11007111551090089070711000000000000000   10300001 00104100000000017250000000000000     
100   62443100345308040000000000001000000000001000002000000010410407110131200120885905240711000007471729   1030000900030000   333400010001202104000002022ACS                    Yangon        MMR11007110131200120880711000000000000000   10300001F05104100000000000210000000000000     
100   62443100372718280000000000021528000000021528002000000010410407110144120216134593140711219208021613   1040001600030000   598320000658000000010000527Shwe Taung Energy (YGN Yangon        MMR11007110144120216130711000000000000000   10300001F00104100000000002583000000000000     
100   95050320088670570000000000030550000000030550002000000010410407111700480172022325480711000749968898   1030000200030000   541188001056000008000000314KBZ BANK               MARKETPLACE - MMR11007111700480172020711000000000000000   10300001 00104100000000007638000000000000     
100   95050313243172680000000000045000000000045000002000000010410407111332370237067417470711000007476297   1030000200030000   333800010001203104000003327KBZPay                 Yangon        MMR11007111332370237060711000000000000000   10300001F05104100000000009450000000000000     
100   95050319331516290000000000037350000000037350002000000010410407111712420047863467390711000749969501   1030000200030000   541188001428000008000000401KBZ BANK               OCEAN SUPERCE MMR11007111712420047860711000000000000000   10300001 00104100000000009338000000000000     
100   95050312498129060000000000001980000000001980002000000010410407111132250225956517070711000007475909   1020000200030000   333400010001204104000000281Myanmar Soft-Gate Tech Yangon        MMR11007111132250225950711000000000000000   10300001F05104100000000000416000000000000     
100   95030310098554020000000000010700000000010700002000000010410407111309290271894773800711000749950606   1030000200030000   541188001059000008000000314KBZ BANK               MARKETPLACE - MMR11007111309290271890711000000000000000   10300001 00104100000000000642000000000000     
100   62911028202616250000000000096650000000096650002000000010410407111828390172134773800711000749972786   1030000200030000   541188001056000008000000314KBZ BANK               MARKETPLACE - MMR11007111828390172130711000000000000000   10300001 00104100000000005799000000000000     
100   95050316818236190000000000000990000000000990002000000010410407111331250125932374920711000007476290   1020000200030000   333400010001204104000000281Myanmar Soft-Gate Tech Yangon        MMR11007111331250125930711000000000000000   10300001F05104100000000000208000000000000     
100   95050329720609600000000000016350000000016350002000000010410407111157240182742026460711000749942944   1030000200030000   541188001061000008000000314KBZ BANK               MARKETPLACE - MMR11007111157240182740711000000000000000   10300001 00104100000000004088000000000000     
100   62911028202440680000000000007000000000007000002000000010410407111650410206624773800711000749968375   1030000200030000   541188001082000008000000294KBZ BANK               CITY MART - J MMR11007111650410206620711000000000000000   10300001 00104100000000000420000000000000     
100   95050324250133010000000000110000000000110000002000000010410407110217270234146154810711219209023414   1040001600030000   598320000838000000010000600Regency Petrol Station Ygn           MMR11007110217270234140711000000000000000   10300001F00104100000000013200000000000000     
100   62911028202691640000000000143265000000143265002000000010410407111102360280364773800711000749937214   1030000200030000   541188001038000008000000010KBZ BANK               MARKETPLACE - MMR11007111102360280360711000000000000000   10300001 00104100000000008596000000000000     
100   62911028202440680000000000005500000000005500002000000010410407111653150093624773800711000749968512   1030000200030000   541188001074000008000000294KBZ BANK               CITY MART - J MMR11007111653150093620711000000000000000   10300001 00104100000000000330000000000000     
100   62911028202470870000000000018500000000018500002000000010410407110343360276834773800711219210027683   1040001600030000   569920000593000000010000468BOSSINI (Junction City Yangon        MMR11007110343360276830711000000000000000   10300001F00104100000000001110000000000000     
100   95030357919784470000000000211650000000211650002000000010410407110315460263554773800711219210026355   1040001600030000   591220000288000000010000276Shwe Ohh Pharmacy (Nor Yangon        MMR11007110315460263550711000000000000000   10300001F00104100000000012699000000000000     
100   62443100323428970000000000034440000000034440002000000010410407100700260001551919500710000354714726   1030000300030000   581400002323000000000001581CB BANK                THE PIZZA COM MMR11007100700260001550710000000000000000   10300001F00104100000000004133000000000000     
100   95050321057500320000000000021945000000021945002000000010410407100721490001016281280710000354717731   1030000300030000   581400001712000000000001227CB BANK                THE PIZZA & S MMR11007100721490001010710000000000000000   10300001F00104100000000002634000000000000     
100   62911028202135350000000000104720000000104720002000000010410407101442330001164773800710219121000116   1030000500030000   581220224901000085812202249TOKYO BBQ DINING MANPU PTN           MMR11007101442330001160710000000000000000   10300001 00104100000000010681000000000000     
100   62911028202116120000000000143920000000143920002000000010410407100526480004504773800710219111000450   1030000500030000   569120096201019505691200962MK FASHION SHOP        PTN           MMR11007100526480004500710000000000000000   10300001 00104100000000008635000000000000     
100   95050322158563070000000000018150000000018150002000000010410407100204420008410132480710000354676285   1030000300030000   581400001771000000000001272CB BANK                BREADTALK (CR MMR11007100204420008410710000000000000000   10300001F00104100000000002178000000000000     
100   62911028202169750000000000003200000000003200002000000010410407100728260010764773800710219113001076   1030000500030000   541120226206000045411202262CITY MART ZAWANA       PTN           MMR11007100728260010760710000000000000000   10300001 00104100000000000192000000000000     
100   95050319286546940000000000014000000000014000002000000010410407100727220000519501150710219113000051   1030000500030000   569120067501022105691200675HLA FAMILY FASHION CEN PTN           MMR11007100727220000510710000000000000000   10300001 00104100000000003360000000000000     
100   95030318100004530000000000047300000000047300002000000010410407100801430001064773800710219114000106   1030000500030000   503920036902017205039200369PRO-1 HOME CENTER      PTN           MMR11007100801430001060710000000000000000   10300001 00104100000000002838000000000000     
100   62911028202440680000000000010300000000010300002000000010410407101338580003954773800710219120000395   1030000500030000   541120227901000045411202279CITY EXPRESS (MCS - 14 PTN           MMR11007101338580003950710000000000000000   10300001 00104100000000000618000000000000     
100   95050322158563070000000000072800000000072800002000000010410407100634580000970011730710000354711216   1030000300030000   594700000546000000000000379CB BANK                YANGOODS( JUN MMR11007100634580000970710000000000000000   10300001F00104100000000017472000000000000     
100   95030301100081740000000000111800000000111800002000000010410407100846260000944773800710219115000094   1030000500030000   503920036904017205039200369PRO-1 HOME CENTER      PTN           MMR11007100846260000940710000000000000000   10300001 00104100000000006708000000000000     
100   62443100313529540000000000154500000000154500002000000010410407101014320002427522070710000354742101   1030000300030000   729800001753000000000001257CB BANK                ART & T8      MMR11007101014320002420710000000000000000   10300001F00104100000000037080000000000000     
100   62911028202045260000000000019550000000019550002000000010410407100856470004114773800710219115000411   1030000500030000   541120234101000045411202341CITY EXPRESS (MCS - 58 PTN           MMR11007100856470004110710000000000000000   10300001 00104100000000001173000000000000     
100   95050322104201170000000000029694000000029694002000000010410407100544360001112344980710219112000111   1030000500030000   531120155702000045311201557GAMONE PWINT           PTN           MMR11007100544360001110710000000000000000   10300001 00104100000000007126000000000000     
100   62911028202331290000000000028990000000028990002000000010410407100953100001624773800710219116000162   1030000500030000   531120155807000045311201558GAMONE PWINT           PTN           MMR11007100953100001620710000000000000000   10300001 00104100000000001739000000000000     
100   95050325273694860000000000021000000000021000002000000010410407100925130000999330960710219115000099   1030000500030000   569120084301008205691200843ESCORT (A-12 YUZANA PL PTN           MMR11007100925130000990710000000000000000   10300001 00104100000000005040000000000000     
