100   62443100306045460000000000147510000000147510002000000010410407111107430003427914260711219211000342   1030000600030000   591200002216315799420001561365 PHARMACY 2         YANGON        MMR11007111107430003420711000000000000000   10300001 00104100000000035402000000000000     
100   62911028202469150000000000180000000000180000002000000010410407110812490001014773800711219214000101   1030000500030000   729820064401000017298200644HAIR REPUBLIC SALON    PTN           MMR11007110812490001010711000000000000000   10300001 00104100000000010800000000000000     
100   95050324622440820000000000011800000000011800002000000010410407101251220084793110850710219112008479   1030000600030000   549900002153315799420001502EASY MART- 003         YANGON        MMR11007101251220084790710000000000000000   10300001 00104100000000005015000000000000     
100   95050324773225760000000000020000000000020000002000000010410407100715110097171834410710219107009717   1030000600030000   554100002322315799420000497DENKO KONE TA LA PAUNG YANGON        MMR11007100715110097170710000000000000000   10300001 00104100000000002400000000000000     
100   62443100384660050000000000050000000000050000002000000010410407100852010119922380640710219108011992   1030000600030000   554100001237315799420000691DENKO AUNG PAN         KALAW.        MMR11007100852010119920710000000000000000   10300001 00104100000000006000000000000000     
100   62911028202752520000000000050000000000050000002000000010410407080121430203804773800708218901020380   1030000600030000   554100002320315799420000564DENKO PHYUU            PHYUU         MMR11007080121430203800708000000000000000   10300001 00104100000000001500000000000000     
100   62911028202248050000000000026000000000026000002000000010410407100733040404954773800710219107040495   1030000600030000   554100001155315799420000607DENKO NPT 1            NAYPYITAW.    MMR11007100733040404950710000000000000000   10300001 00104100000000000780000000000000     
100   95050324850150480000000000050000000000050000002000000010410407100946380320157266780710219109032015   1030000600030000   554100001116315799420000574DENKO HLAE KUU         HLAE KUU      MMR11007100946380320150710000000000000000   10300001 00104100000000006000000000000000     
100   95050316586367540000000000001980000000001980002000000010410407131051242124272191120713000007484240   1020000200030000   333400010001204104000000281Myanmar Soft-Gate Tech Yangon        MMR11007131051242124270713000000000000000   10300001F05104100000000000416000000000000     
100   95030399304534290000000000034500000000034500002000000010410407130816542149184773800713756461454193   1030000900030000   541119001207190110000000948City Mart YK C 5       YANGONAUNG    MMR11007130816542149180713000000000000000   10300001F00104100000000002070000000000000     
100   95050321057500320000000000004950000000004950002000000010410407130629235923333452960713000007482464   1020000200030000   333400010001204104000000281Myanmar Soft-Gate Tech Yangon        MMR11007130629235923330713000000000000000   10300001F05104100000000001040000000000000     
100   95050310534130230000000000017000000000017000002000000010410407131156042147340289060713219418214734   1040001600030000   591220000301000000010000289Shwe Ohh Pharmacy (Yay Yangon        MMR11007131156042147340713000000000000000   10300001F00104100000000004080000000000000     
100   95050328082468580000000000300000000000300000002000000010410407131219324932988721670713000007484615   1030000200030000   333800010001203104000003327KBZPay                 Yangon        MMR11007131219324932980713000000000000000   10300001F05104100000000063000000000000000     
100   62443100360763680000000000087450000000087450002000000010410407120716521168329582810712219314116832   1040001600030000   581420000079000000010000075Spicy Hot Pot Saya San Yangon        MMR11007120716521168320712000000000000000   10300001F00104100000000010494000000000000     
100   62911028202448030000000000062000000000062000002000000010410407131029252181214773800713245591625193   1030000900030000   562119001437190110000001041Venus Palace Fashion   YANGONUT      MMR11007131029252181210713000000000000000   10300001F00104100000000003720000000000000     
100   95050312498129060000000000000990000000000990002000000010410407131319474947922367020713000007484872   1020000200030000   333400010001204104000000281Myanmar Soft-Gate Tech Yangon        MMR11007131319474947920713000000000000000   10300001F05104100000000000208000000000000     
100   62911028202324770000000000026000000000026000002000000010410407090659410047214773800709219006004721   1030000600030000   554100001269315799420000723DENKO GYOBINGAUK       GYOBINGAUK    MMR11007090659410047210709000000000000000   10300001 00104100000000000780000000000000     
100   62911028202469150000000000123000000000123000002000000010410407090831450014604773800709219008001460   1030000600030000   809900002338315799420001623CLINIQUE DE SKIN HLG   YANGON        MMR11007090831450014600709000000000000000   10300001 00104100000000007380000000000000     
100   62911028202709150000000000036000000000036000002000000010410407090641360193284773800709219006019328   1030000600030000   554100002324315799420000481DENKO NORTH OKKALAPA   YANGON        MMR11007090641360193280709000000000000000   10300001 00104100000000001080000000000000     
100   62911028202324770000000000011000000000011000002000000010410407090900320086004773800709219009008600   1030000600030000   554100001812315799420001187DENKO  SHWE TAUNG      SHWE TAUNG    MMR11007090900320086000709000000000000000   10300001 00104100000000000330000000000000     
100   62911028202423360000000000030000000000030000002000000010410407090805230276274773800709219008027627   1030000600030000   554100002319315799420000477DENKO INSEIN           YANGON        MMR11007090805230276270709000000000000000   10300001 00104100000000000900000000000000     
100   62911028202590580000000000038000000000038000002000000010410407090029370198874773800709219000019887   1030000600030000   554100001011315799420000505DENKO HTAN TA PIN      YANGON        MMR11007090029370198870709000000000000000   10300001 00104100000000001140000000000000     
100   95030390626214130000000000039000000000039000002000000010410407091251030565674773800709219012056567   1030000600030000   554100000969315799420000481DENKO NORTH OKKALAPA   YANGON        MMR11007091251030565670709000000000000000   10300001 00104100000000001170000000000000     
100   62443100303702210000000000098000000000098000002000000010410407090335080463761947080709219003046376   1030000600030000   554100001009315799420000504DENKO SOUTH DAGON      YANGON        MMR11007090335080463760709000000000000000   10300001 00104100000000011760000000000000     
100   62911028202135350000000000061000000000061000002000000010410407131243592215524773800713080131959193   1030000900030000   554119001103190110000000215New Day Energy MYG     YANGONONE     MMR11007131243592215520713000000000000000   10300001F00104100000000001830000000000000     
100   95050316818236190000000000001980000000001980002000000010410407131226585658950969830713000007484645   1020000200030000   333400010001204104000000281Myanmar Soft-Gate Tech Yangon        MMR11007131226585658950713000000000000000   10300001F05104100000000000416000000000000     
100   95050327531396450000000000010000000000010000002000000010410407130403213321125927770713000007481326   1030000200030000   333800010001203104000003327KBZPay                 Yangon        MMR11007130403213321120713000000000000000   10300001F05104100000000002100000000000000     
100   62911028202068510000000000010000000000010000002000000010410407131206593659774773800713000007484548   1030000200030000   333800010001203104000003327KBZPay                 Yangon        MMR11007131206593659770713000000000000000   10300001F05104100000000002100000000000000     
100   95050319220344710000000000004950000000004950002000000010410407131104073407615666280713000007484283   1020000200030000   333400010001204104000000281Myanmar Soft-Gate Tech Yangon        MMR11007131104073407610713000000000000000   10300001F05104100000000001040000000000000     
100   95050316818236190000000000002970000000002970002000000010410407130601273127620573470713000007482265   1020000200030000   333400010001204104000000281Myanmar Soft-Gate Tech Yangon        MMR11007130601273127620713000000000000000   10300001F05104100000000000624000000000000     
100   95050314064416890000000000001980000000001980002000000010410407130815034503684012970713000007483229   1020000200030000   333400010001204104000000281Myanmar Soft-Gate Tech Yangon        MMR11007130815034503680713000000000000000   10300001F05104100000000000416000000000000     
100   62911028202750390000000000001980000000001980002000000010410407130521545154794773800713000007481987   1020000200030000   333400010001204104000000281Myanmar Soft-Gate Tech Yangon        MMR11007130521545154790713000000000000000   10300001F05104100000000000416000000000000     
100   62443100303702210000000000047000000000047000002000000010410407090423100463819954210709219004046381   1030000600030000   554100001009315799420000504DENKO SOUTH DAGON      YANGON        MMR11007090423100463810709000000000000000   10300001 00104100000000005640000000000000     
100   62911028202221220000000000005000000000005000002000000010410407082350270981044773800709219023098104   1030000600030000   554100000946315799420000471DENKO BAHAN            YANGON        MMR11007082350270981040709000000000000000   10300001 00104100000000000150000000000000     
100   95030301100121270000000000023000000000023000002000000010410407091118520228364773800709219011022836   1030000600030000   554100002323315799420000474DENKO N.DAGON - 1      YANGON        MMR11007091118520228360709000000000000000   10300001 00104100000000000690000000000000     
100   62911028202916630000000000021000000000021000002000000010410407091321430331514773800709219013033151   1030000600030000   554100002085315799420000471DENKO BAHAN            YANGON        MMR11007091321430331510709000000000000000   10300001 00104100000000000630000000000000     
100   95050325052849960000000000030000000000030000002000000010410407090129540319210549880709219001031921   1030000600030000   554100001116315799420000574DENKO HLAE KUU         HLAE KUU      MMR11007090129540319210709000000000000000   10300001 00104100000000003600000000000000     
100   62443101093150400000000000021000000000021000002000000010410407091118350982905842010709219011098290   1030000600030000   554100000946315799420000471DENKO BAHAN            YANGON        MMR11007091118350982900709000000000000000   10300001 00104100000000002520000000000000     
100   62911028202912420000000000080000000000080000002000000010410407110852090714814773800711219208071481   1030000600030000   554100000952315799420000474DENKO N.DAGON - 1      YANGON        MMR11007110852090714810711000000000000000   10300001 00104100000000002400000000000000     
100   95050310743661680000000000030750000000030750002000000010410407120622070002149866290712219312000214   1030000500030000   591220013501014405912200135SHWE OHH PHARMACY      PTN           MMR11007120622070002140712000000000000000   10300001 00104100000000007380000000000000     
100   95050319996628650000000000000990000000000990002000000010410407131202123212631941540713000007484534   1020000200030000   333400010001204104000000281Myanmar Soft-Gate Tech Yangon        MMR11007131202123212630713000000000000000   10300001F05104100000000000208000000000000     
100   95050312224678430000000000000990000000000990002000000010410407130311194119734961770713000007480812   1020000200030000   333400010001204104000000281Myanmar Soft-Gate Tech Yangon        MMR11007130311194119730713000000000000000   10300001F05104100000000000208000000000000     
100   95050328156626340000000000010000000000010000002000000010410407131629365936353047790713000007485433   1030000200030000   333800010001203104000003327KBZPay                 Yangon        MMR11007131629365936350713000000000000000   10300001F05104100000000002100000000000000     
100   62911028202911760000000000037000000000037000002000000010410407110607030334734773800711219206033473   1030000600030000   554100001113315799420000571DENKO THAN HLYIN -1    THAN HLYIN    MMR11007110607030334730711000000000000000   10300001 00104100000000001110000000000000     
100   95030315490490030000000000300000000000300000002000000010410407131329375937524773800713000007484899   1030000200030000   333800010001203104000003327KBZPay                 Yangon        MMR11007131329375937520713000000000000000   10300001F05104100000000063000000000000000     
100   95030301100125070000000000300000000000300000002000000010410407131128285828304773800713000007484377   1030000200030000   333800010001203104000003327KBZPay                 Yangon        MMR11007131128285828300713000000000000000   10300001F05104100000000063000000000000000     
100   95030301100125070000000000300000000000300000002000000010410407131124535453644773800713000007484362   1030000200030000   333800010001203104000003327KBZPay                 Yangon        MMR11007131124535453640713000000000000000   10300001F05104100000000063000000000000000     
100   62911028202752030000000000090000000000090000002000000010410407110629510404394773800711219206040439   1030000600030000   554100001003315799420000497DENKO KONE TA LA PAUNG YANGON        MMR11007110629510404390711000000000000000   10300001 00104100000000002700000000000000     
100   62443101037081820000000000102994000000102994002000000010410407121408410002069994080712219320000206   1030000500030000   581220118401022605812201184DIY BBQ & HOT POT      PTN           MMR11007121408410002060712000000000000000   10300001 00104100000000043773000000000000     
100   62911028202662690000000000046800000000046800002000000010410407120800210003064773800712219314000306   1030000500030000   503920036602000015039200366PRO-1 HOME CENTER      PTN           MMR11007120800210003060712000000000000000   10300001 00104100000000002808000000000000     
100   62911028202789750000000000065460000000065460002000000010410407121227510003134773800712219318000313   1030000500030000   806220046402006308062200464ASIA ROYAL HOSPITAL    PTN           MMR11007121227510003130712000000000000000   10300001 00104100000000003928000000000000     
100   62443101037081820000000000039550000000039550002000000010410407121050490007065242490712000355100487   1030000300030000   541100002373000000000000102CB BANK                MAKRO MYANMAR MMR11007121050490007060712000000000000000   10300001F00104100000000009888000000000000     
100   62911028202533740000000000017800000000017800002000000010410407120658460001684773800712219313000168   1030000500030000   581220204001000085812202040MIN LAN                PTN           MMR11007120658460001680712000000000000000   10300001 00104100000000001816000000000000     
100   62911028202789750000000000005000000000005000002000000010410407121022330003074773800712219316000307   1030000500030000   806220046402006308062200464ASIA ROYAL HOSPITAL    PTN           MMR11007121022330003070712000000000000000   10300001 00104100000000000300000000000000     
100   62911028202154640000000000021900000000021900002000000010410407120733560003524773800712219314000352   1030000500030000   581220024401000015812200244SHWE LAR HOT POT       PTN           MMR11007120733560003520712000000000000000   10300001 00104100000000002234000000000000     
100   95030342412592190000000000021600000000021600002000000010410407120711120003544773800712219313000354   1030000500030000   541120229004000045411202290CITY MART SUPERMARKET  PTN           MMR11007120711120003540712000000000000000   10300001 00104100000000001296000000000000     
100   95050311182936420000000000002970000000002970002000000010410407130603263326567098310713000007482284   1020000200030000   333400010001204104000000281Myanmar Soft-Gate Tech Yangon        MMR11007130603263326560713000000000000000   10300001F05104100000000000624000000000000     
100   95050315259054570000000000002500000000002500002000000010410407131017524752236808180713000007484102   1030000200030000   333800010001203104000003327KBZPay                 Yangon        MMR11007131017524752230713000000000000000   10300001F05104100000000000525000000000000     
100   95050313817486860000000000004950000000004950002000000010410407130619564956007353600713000007482399   1020000200030000   333400010001204104000000281Myanmar Soft-Gate Tech Yangon        MMR11007130619564956000713000000000000000   10300001F05104100000000001040000000000000     
100   95050312695033440000000000000990000000000990002000000010410407131309523952334019510713000007484836   1020000200030000   333400010001204104000000281Myanmar Soft-Gate Tech Yangon        MMR11007131309523952330713000000000000000   10300001F05104100000000000208000000000000     
100   62911028202470870000000000017900000000017900002000000010410407130541052110484773800713906111205193   1030000900030000   591219000504190110000000351Shwe Ohh Pharmacy - (Y YANGONAW      MMR11007130541052110480713000000000000000   10300001F00104100000000001074000000000000     
100   95050323667276610000000000009900000000009900002000000010410407130257102710491813210713000007480684   1020000200030000   333400010001204104000000281Myanmar Soft-Gate Tech Yangon        MMR11007130257102710490713000000000000000   10300001F05104100000000002079000000000000     
100   95050319996628650000000000000990000000000990002000000010410407131200363036093594030713000007484524   1020000200030000   333400010001204104000000281Myanmar Soft-Gate Tech Yangon        MMR11007131200363036090713000000000000000   10300001F05104100000000000208000000000000     
100   62911028202240290000000000018564000000018564002000000010410407130800112145274773800713587301411193   1030000900030000   541119001264190110000000958City Mart PLST C 7     YANGONMYOTHIT MMR11007130800112145270713000000000000000   10300001F00104100000000001114000000000000     
100   62443100328070970000000000018700000000018700002000000010410407120728210000391781510712000355072472   1030000300030000   581200001895000000000001353CB BANK                OISHII RESTAU MMR11007120728210000390712000000000000000   10300001F00104100000000007948000000000000     
100   62911028202473840000000000052400000000052400002000000010410407120405440001304773800712219310000130   1030000500030000   591220014301014405912200143SHWE OHH PHARMACY      PTN           MMR11007120405440001300712000000000000000   10300001 00104100000000003144000000000000     
100   62911028202789750000000000005000000000005000002000000010410407121023260003104773800712219316000310   1030000500030000   806220046402006308062200464ASIA ROYAL HOSPITAL    PTN           MMR11007121023260003100712000000000000000   10300001 00104100000000000300000000000000     
100   62443101001072630000000000025620000000025620002000000010410407120439480003275179160712000355049662   1030000300030000   581400001724000000000001231CB BANK                THE PIZZA COM MMR11007120439480003270712000000000000000   10300001F00104100000000003074000000000000     
100   62911028202703030000000000078220000000078220002000000010410407121044450004104773800712219317000410   1030000500030000   806220172406013008062201724GRAND HANTHA HOSPITAL  PTN           MMR11007121044450004100712000000000000000   10300001 00104100000000004693000000000000     
100   95050326094581320000000000025845000000025845002000000010410407120131210000678474280712000355026608   1030000300030000   701100001028000000000000725CB BANK                FRONTDESK-MER MMR11007120131210000670712000000000000000   10300001F00104100000000010984000000000000     
100   95050325925517520000000000020000000000020000002000000010410407120755530010637526690712219314001063   1030000500030000   598320001603000015172200016MAX ENERGY             PTN           MMR11007120755530010630712000000000000000   10300001 00104100000000002400000000000000     
100   95030374458345210000000000011100000000011100002000000010410407120613160011884773800712000355062113   1030000300030000   541100000449000000000000319CB BANK                ONESTOP KITCH MMR11007120613160011880712000000000000000   10300001F00104100000000000666000000000000     
100   95030304441505280000000008202000000008202000002000000010410407130508093809854773800713000007481873   1010000100030000   333500010001212104000003087Internal Revenue Depar Yangon        MMR11007130508093809850713000000000000000   10300001F05104100000000060000000000000000     
100   62911028202448030000000000003800000000003800002000000010410407130959534607874773800713295330052281   1040001400030000   581410000409025814100002871Sweets & Treats (Junct on Square) nu MMR11007130959534607870713000000000000000   10300001 00104100000000000114000000000000     
100   95050312498129060000000000000990000000000990002000000010410407131321365136567324470713000007484881   1020000200030000   333400010001204104000000281Myanmar Soft-Gate Tech Yangon        MMR11007131321365136560713000000000000000   10300001F05104100000000000208000000000000     
100   95050315158357300000000000000990000000000990002000000010410407131304483448091054930713000007484813   1020000200030000   333400010001204104000000281Myanmar Soft-Gate Tech Yangon        MMR11007131304483448090713000000000000000   10300001F05104100000000000208000000000000     
100   95030306100096490000000000000990000000000990002000000010410407130709583958364773800713000007482777   1020000200030000   333400010001204104000000281Myanmar Soft-Gate Tech Yangon        MMR11007130709583958360713000000000000000   10300001F05104100000000000208000000000000     
100   62443100323117100000000000003500000000003500002000000010410407131329065906995757090713000007484895   1030000200030000   333800010001203104000003327KBZPay                 Yangon        MMR11007131329065906990713000000000000000   10300001F05104100000000000735000000000000     
100   95050328082468580000000000200000000000200000002000000010410407131222055205345927280713000007484625   1030000200030000   333800010001203104000003327KBZPay                 Yangon        MMR11007131222055205340713000000000000000   10300001F05104100000000042000000000000000     
100   62443100345308040000000000001000000000001000002000000010410407131225275527179232250713000007484637   1030000900030000   333400010001202104000002022ACS                    Yangon        MMR11007131225275527170713000000000000000   10300001F05104100000000000210000000000000     
100   95030317758605600000000000010646000000010646002000000010410407120554590018504773800712219312001850   1030000500030000   541120203706000015411202037CITY MART SUPERMARKET  PTN           MMR11007120554590018500712000000000000000   10300001 00104100000000000639000000000000     
100   95030301100081330000000000055000000000055000002000000010410407120911570010714773800712219315001071   1030000500030000   598320001601000015172200016MAX ENERGY             PTN           MMR11007120911570010710712000000000000000   10300001 00104100000000001650000000000000     
100   95050311076838860000000000009500000000009500002000000010410407121203260010451214780712219318001045   1030000500030000   541120226815000045411202268CITY MART WAIZAYANDA   PTN           MMR11007121203260010450712000000000000000   10300001 00104100000000002375000000000000     
100   95050328351497860000000000261900000000261900002000000010410407121243210011720221490712219319001172   1030001300030000   555500000025700000000000019SHWEBANK BANK          959           MMR11007121243210011720712000000000000000   10300001 00104100000000062856000000000000     
100   62911028202118690000000000012550000000012550002000000010410407121040220025834773800712219317002583   1030000500030000   531120226305000045311202263OCEAN SUPER CENTER STJ PTN           MMR11007121040220025830712000000000000000   10300001 00104100000000000753000000000000     
100   62911028202112400000000000028500000000028500002000000010410407121116570015164773800712219317001516   1030000500030000   598320001404000015172200014MAX ENERGY             PTN           MMR11007121116570015160712000000000000000   10300001 00104100000000000855000000000000     
100   62911028202045260000000000030000000000030000002000000010410407120830200014794773800712219315001479   1030000500030000   598320001202000015172200012MAX ENERGY             PTN           MMR11007120830200014790712000000000000000   10300001 00104100000000000900000000000000     
100   62443100306028540000000000110900000000110900002000000010410407121736240064662192790712000750010179   1030000200030000   596588000900000008000000712KBZ BANK               AK CONCEPT SH MMR11007121736240064660712000000000000000   10300001 00104100000000026616000000000000     
100   95030360160133170000000000005500000000005500002000000010410407121047580022214773800712000355100085   1030000300030000   531100000823000000000000562CB BANK                MGOU-SGH      MMR11007121047580022210712000000000000000   10300001F00104100000000000330000000000000     
100   95050315344668630000000000006000000000006000002000000010410407131013142177008460660713035431614193   1030000900030000   541119001462190110000000077Sein Gay Har Chinatown YANGON        MMR11007131013142177000713000000000000000   10300001F00104100000000001500000000000000     
100   95050319161596230000000000000990000000000990002000000010410407131157172717498636570713000007484504   1020000200030000   333400010001204104000000281Myanmar Soft-Gate Tech Yangon        MMR11007131157172717490713000000000000000   10300001F05104100000000000208000000000000     
100   95050317084233280000000000000990000000000990002000000010410407130907503750880282530713000007483598   1020000200030000   333400010001204104000000281Myanmar Soft-Gate Tech Yangon        MMR11007130907503750880713000000000000000   10300001F05104100000000000208000000000000     
100   95050312529325420000000000042000000000042000002000000010410407131202243224183679120713000007484532   1030000200030000   3338000100012031040000040022C2P (Myanmar) Co. Ltd Yangon        MMR11007131202243224180713000000000000000   10300001F05104100000000008820000000000000     
100   95050318621775380000000000003000000000003000002000000010410407130558392839768920990713000007482247   1030000200030000   3338000100012031040000040022C2P (Myanmar) Co. Ltd Yangon        MMR11007130558392839760713000000000000000   10300001F05104100000000000630000000000000     
100   62911028202291190000000000011650000000011650002000000010410407120626470002934773800712219312000293   1030000500030000   503920036602000015039200366PRO-1 HOME CENTER      PTN           MMR11007120626470002930712000000000000000   10300001 00104100000000000699000000000000     
100   95030346179196360000000000030000000000030000002000000010410407120250501017224773800712219309101722   1040001600030000   598320000856000000010000609Terminal Petrol Statio Yangon        MMR11007120250501017220712000000000000000   10300001F00104100000000000900000000000000     
100   62911028202074950000000000048350000000048350002000000010410407130526442106574773800713711561144193   1030000900030000   591219000694190110000000525Shwe Ohh Pharmacy ST-2 YANGONAW      MMR11007130526442106570713000000000000000   10300001F00104100000000002901000000000000     
100   95050322990383760000000000001000000000001000002000000010410407130808243824230708010713000007483177   1030000200030000   3334000100012031040000040102C2P (Myanmar) Co. Ltd Yangon        MMR11007130808243824230713000000000000000   10300001F05104100000000000210000000000000     
100   95050314365758940000000000011500000000011500002000000010410407121057480003812618250712219317000381   1030000500030000   541120203812000015411202038CITY MART SUPERMARKET  PTN           MMR11007121057480003810712000000000000000   10300001 00104100000000002875000000000000     
100   95050325455962190000000000100000000000100000002000000010410407130420345034668807260713000007481491   1030000200030000   333800010001203104000003327KBZPay                 Yangon        MMR11007130420345034660713000000000000000   10300001F05104100000000021000000000000000     
100   95050326155679180000000000005940000000005940002000000010410407130406273627269147640713000007481356   1020000200030000   333400010001204104000000281Myanmar Soft-Gate Tech Yangon        MMR11007130406273627260713000000000000000   10300001F05104100000000001247000000000000     
100   62911028202263050000000000099950000000099950002000000010410407121031140015034773800712219317001503   1030000500030000   541120226811000045411202268CITY MART WAIZAYANDA   PTN           MMR11007121031140015030712000000000000000   10300001 00104100000000005997000000000000     
100   62443100379321630000000000089854000000089854002000000010410407090920080316458430560709219009031645   1030000600030000   554100000725315799420000306DENKO MDY - 78         MANDALAY      MMR11007090920080316450709000000000000000   10300001 00104100000000010782000000000000     
100   62911028202919290000000000030000000000030000002000000010410407090523360227934773800709219005022793   1030000600030000   554100002323315799420000474DENKO N.DAGON - 1      YANGON        MMR11007090523360227930709000000000000000   10300001 00104100000000000900000000000000     
100   62911028202530930000000000105000000000105000002000000010410407120936370000564773800712219316000056   1030000500030000   598320001304000015172200013MAX ENERGY             PTN           MMR11007120936370000560712000000000000000   10300001 00104100000000003150000000000000     
100   62911028202448030000000000049794000000049794002000000010410407131054542189054773800713661241754193   1030000900030000   541119001248190110000000955City Mart JS C 7       YANGONUT      MMR11007131054542189050713000000000000000   10300001F00104100000000002988000000000000     
100   62911028202163480000000000300000000000300000002000000010410407131252462246534773800713000007484768   1030000200030000   333800010001203104000003327KBZPay                 Yangon        MMR11007131252462246530713000000000000000   10300001F05104100000000063000000000000000     
100   62443100371022130000000000036453000000036453002000000010410407120645550017100146890712219313001710   1030000500030000   598320001302000015172200013MAX ENERGY             PTN           MMR11007120645550017100712000000000000000   10300001 00104100000000004374000000000000     
100   95050314064416890000000000000990000000000990002000000010410407130816414641455580360713000007483250   1020000200030000   333400010001204104000000281Myanmar Soft-Gate Tech Yangon        MMR11007130816414641450713000000000000000   10300001F05104100000000000208000000000000     
100   62443101093150400000000000029000000000029000002000000010410407100341070097027969420710219103009702   1030000600030000   554100002322315799420000497DENKO KONE TA LA PAUNG YANGON        MMR11007100341070097020710000000000000000   10300001 00104100000000003480000000000000     
100   62911028202400660000000000067000000000067000002000000010410407121119240001744773800712219317000174   1030000500030000   569120122001000015691201220IORA FASHION           PTN           MMR11007121119240001740712000000000000000   10300001 00104100000000004020000000000000     
100   95050317084233280000000000000990000000000990002000000010410407131042571257250964120713000007484209   1020000200030000   333400010001204104000000281Myanmar Soft-Gate Tech Yangon        MMR11007131042571257250713000000000000000   10300001F05104100000000000208000000000000     
100   95050310427855490000000000000990000000000990002000000010410407131042501250310879010713000007484204   1020000200030000   333400010001204104000000281Myanmar Soft-Gate Tech Yangon        MMR11007131042501250310713000000000000000   10300001F05104100000000000208000000000000     
100   95050314570621780000000000001980000000001980002000000010410407130551582158313664480713000007482212   1020000200030000   333400010001204104000000281Myanmar Soft-Gate Tech Yangon        MMR11007130551582158310713000000000000000   10300001F05104100000000000416000000000000     
100   62911028202400660000000000035100000000035100002000000010410407090950210114684773800709219009011468   1030000600030000   549900001955315799420001324EASY MART 011          HLAING        MMR11007090950210114680709000000000000000   10300001 00104100000000003580000000000000     
100   62911028202118690000000000009200000000009200002000000010410407120948190021904773800712219316002190   1030000500030000   531120226310000045311202263OCEAN SUPER CENTER STJ PTN           MMR11007120948190021900712000000000000000   10300001 00104100000000000552000000000000     
100   95050312498129060000000000000990000000000990002000000010410407131337420742229147150713000007484925   1020000200030000   333400010001204104000000281Myanmar Soft-Gate Tech Yangon        MMR11007131337420742220713000000000000000   10300001F05104100000000000208000000000000     
100   95050316573091630000000000006930000000006930002000000010410407130252172217901898300713000007480647   1020000200030000   333400010001204104000000281Myanmar Soft-Gate Tech Yangon        MMR11007130252172217900713000000000000000   10300001F05104100000000001455000000000000     
100   95050314752934410000000000000990000000000990002000000010410407131026555655475836470713000007484148   1020000200030000   333400010001204104000000281Myanmar Soft-Gate Tech Yangon        MMR11007131026555655470713000000000000000   10300001F05104100000000000208000000000000     
100   62911028202651050000000000003300000000003300002000000010410407130935450376424773800713000750030617   1030000200030000   541188001041000008000000010KBZ BANK               MARKETPLACE - MMR11007130935450376420713000000000000000   10300001 00104100000000000198000000000000     
100   62911028202440680000000000056650000000056650002000000010410407121423101526634773800712219321152663   1040001600030000   581420000604000000010000466Beerlogy               Yangon        MMR11007121423101526630712000000000000000   10300001F00104100000000001700000000000000     
100   62443100390038980000000000027800000000027800002000000010410407121124380005988788970712000355105232   1030000300030000   581200001888000000000001351CB BANK                OISHII RESTAU MMR11007121124380005980712000000000000000   10300001F00104100000000011815000000000000     
100   95050314401921990000000000070000000000070000002000000010410407130830260026555920750713000007483349   1030000200030000   3338000100012031040000040022C2P (Myanmar) Co. Ltd Yangon        MMR11007130830260026550713000000000000000   10300001F05104100000000014700000000000000     
100   95050311906097980000000000042150000000042150002000000010410407131545520021536552890713000750059803   1030000200030000   541188001479000008000000399KBZ BANK               OCEAN SUPERCE MMR11007131545520021530713000000000000000   10300001 00104100000000010538000000000000     
100   95050310332595380000000000000990000000000990002000000010410407130437450745531516550713000007481654   1020000200030000   333400010001204104000000281Myanmar Soft-Gate Tech Yangon        MMR11007130437450745530713000000000000000   10300001F05104100000000000208000000000000     
100   95050317376014640000000000000990000000000990002000000010410407130237460746685798940713000007480527   1020000200030000   333400010001204104000000281Myanmar Soft-Gate Tech Yangon        MMR11007130237460746680713000000000000000   10300001F05104100000000000208000000000000     
100   95050327416134790000000000000990000000000990002000000010410407131337490749074104600713000007484923   1020000200030000   333400010001204104000000281Myanmar Soft-Gate Tech Yangon        MMR11007131337490749070713000000000000000   10300001F05104100000000000208000000000000     
100   95050316067768680000000000002970000000002970002000000010410407131244291429844274800713000007484733   1020000200030000   333400010001204104000000281Myanmar Soft-Gate Tech Yangon        MMR11007131244291429840713000000000000000   10300001F05104100000000000624000000000000     
100   62911028202317430000000000021650000000021650002000000010410407131108500059884773800713000750037869   1030000200030000   541188001066000008000000314KBZ BANK               MARKETPLACE - MMR11007131108500059880713000000000000000   10300001 00104100000000001299000000000000     
100   95050319485395370000000000200000000000200000002000000010410407130434110411968296680713000007481623   1030000200030000   333800010001203104000003327KBZPay                 Yangon        MMR11007130434110411960713000000000000000   10300001F05104100000000042000000000000000     
100   62911028202651050000000000320961000000320961002000000010410407130934240376414773800713000750030563   1030000200030000   541188001041000008000000010KBZ BANK               MARKETPLACE - MMR11007130934240376410713000000000000000   10300001 00104100000000019258000000000000     
100   62911028202651050000000000003400000000003400002000000010410407130939140376434773800713000750030802   1030000200030000   541188001041000008000000010KBZ BANK               MARKETPLACE - MMR11007130939140376430713000000000000000   10300001 00104100000000000204000000000000     
100   95050318601641810000000000000990000000000990002000000010410407130147491749790285620713000007480358   1020000200030000   333400010001204104000000281Myanmar Soft-Gate Tech Yangon        MMR11007130147491749790713000000000000000   10300001F05104100000000000208000000000000     
100   95050319528093960000000000002970000000002970002000000010410407131532240224054700280713000007485321   1020000200030000   333400010001204104000000281Myanmar Soft-Gate Tech Yangon        MMR11007131532240224050713000000000000000   10300001F05104100000000000624000000000000     
100   95050313836159580000000000131000000000131000002000000010410407130448051805367422480713000007481713   1030000200030000   333800010001203104000003327KBZPay                 Yangon        MMR11007130448051805360713000000000000000   10300001F05104100000000027510000000000000     
100   95050317903887690000000000000990000000000990002000000010410407130337150715067330680713000007481094   1020000200030000   333400010001204104000000281Myanmar Soft-Gate Tech Yangon        MMR11007130337150715060713000000000000000   10300001F05104100000000000208000000000000     
100   95050312947607030000000000031000000000031000002000000010410407130444361436106428940713000007481697   1030000200030000   333800010001203104000003327KBZPay                 Yangon        MMR11007130444361436100713000000000000000   10300001F05104100000000006510000000000000     
100   95050315677581110000000000020000000000020000002000000010410407130332060206204706480713000007481034   1030000200030000   333800010001203104000003327KBZPay                 Yangon        MMR11007130332060206200713000000000000000   10300001F05104100000000004200000000000000     
100   95050318141561190000000000010000000000010000002000000010410407130248471847180245820713000007480614   1040001600030000   333800010001220104000004507A +                    Yangon        MMR11007130248471847180713000000000000000   10300001F05104100000000002100000000000000     
100   62911028202163480000000000300000000000300000002000000010410407131250132013544773800713000007484761   1030000200030000   333800010001203104000003327KBZPay                 Yangon        MMR11007131250132013540713000000000000000   10300001F05104100000000063000000000000000     
100   62911028202280200000000000025500000000025500002000000010410407130454132099064773800713391241113193   1030000900030000   541119001196190110000000942City Mart HDC C 11     YANGONUT      MMR11007130454132099060713000000000000000   10300001F00104100000000001530000000000000     
100   95050311121153200000000000000990000000000990002000000010410407131041241124269226530713000007484202   1020000200030000   333400010001204104000000281Myanmar Soft-Gate Tech Yangon        MMR11007131041241124260713000000000000000   10300001F05104100000000000208000000000000     
100   95050311736839760000000000000990000000000990002000000010410407130737320732018070020713000007482957   1020000200030000   333400010001204104000000281Myanmar Soft-Gate Tech Yangon        MMR11007130737320732010713000000000000000   10300001F05104100000000000208000000000000     
100   62443100379184770000000000010000000000010000002000000010410407131245101510254359890713000007484737   1030000200030000   333800010001203104000003327KBZPay                 Yangon        MMR11007131245101510250713000000000000000   10300001F05104100000000002100000000000000     
100   62911028202471600000000000010900000000010900002000000010410407130427211848774773800713219411184877   1040001600030000   591220000296000000010000284Shwe Ohh Pharmacy (Lan Yangon        MMR11007130427211848770713000000000000000   10300001F00104100000000000654000000000000     
100   62443100318296470000000000063300000000063300002000000010410407130742311971209722510713219414197120   1040001600030000   541120000555000000010000465Ocean Shwe Gone Daing  Yangon        MMR11007130742311971200713000000000000000   10300001F00104100000000015825000000000000     
100   95050315615561720000000000000990000000000990002000000010410407130050432043639011300713000007480230   1020000200030000   333400010001204104000000281Myanmar Soft-Gate Tech Yangon        MMR11007130050432043630713000000000000000   10300001F05104100000000000208000000000000     
100   62911028202057620000000000247770000000247770002000000010410407130342241224184773800713000007481141   1030000200030000   333800010001203104000003327KBZPay                 Yangon        MMR11007130342241224180713000000000000000   10300001F05104100000000052032000000000000     
100   95050311419479170000000000000990000000000990002000000010410407131138000800880544340713000007484422   1020000200030000   333400010001204104000000281Myanmar Soft-Gate Tech Yangon        MMR11007131138000800880713000000000000000   10300001F05104100000000000208000000000000     
100   95050319161596230000000000000990000000000990002000000010410407130344471447230890930713000007481165   1020000200030000   333400010001204104000000281Myanmar Soft-Gate Tech Yangon        MMR11007130344471447230713000000000000000   10300001F05104100000000000208000000000000     
100   95050321057500320000000000004950000000004950002000000010410407130339530953866103670713000007481103   1020000200030000   333400010001204104000000281Myanmar Soft-Gate Tech Yangon        MMR11007130339530953860713000000000000000   10300001F05104100000000001040000000000000     
100   95050312498129060000000000000990000000000990002000000010410407131244511451202622310713000007484739   1020000200030000   333400010001204104000000281Myanmar Soft-Gate Tech Yangon        MMR11007131244511451200713000000000000000   10300001F05104100000000000208000000000000     
100   62911028202000450000000000004950000000004950002000000010410407130449001900414773800713000007481724   1020000200030000   333400010001204104000000281Myanmar Soft-Gate Tech Yangon        MMR11007130449001900410713000000000000000   10300001F05104100000000001040000000000000     
100   95050311394574080000000000300000000000300000002000000010410407130931080108221595440713000007483768   1030000200030000   333800010001203104000003327KBZPay                 Yangon        MMR11007130931080108220713000000000000000   10300001F05104100000000063000000000000000     
100   95050314292165140000000000028000000000028000002000000010410407130435550555919949160713000007481634   1030000200030000   3338000100012031040000040022C2P (Myanmar) Co. Ltd Yangon        MMR11007130435550555910713000000000000000   10300001F05104100000000005880000000000000     
100   95050321084131410000000000100000000000100000002000000010410407131049311931414269080713000007484231   1030000200030000   333800010001203104000003327KBZPay                 Yangon        MMR11007131049311931410713000000000000000   10300001F05104100000000021000000000000000     
100   62443100318296470000000000032400000000032400002000000010410407130732231965443112570713219414196544   1040001600030000   541120000584000000010000465Ocean Shwe Gone Daing  Yangon        MMR11007130732231965440713000000000000000   10300001F00104100000000008100000000000000     
100   95050323133124350000000000005000000000005000002000000010410407131346511651494189700713000007484966   1030000200030000   333800010001203104000003327KBZPay                 Yangon        MMR11007131346511651490713000000000000000   10300001F05104100000000001050000000000000     
100   95030315490490030000000000200000000000200000002000000010410407131331370137894773800713000007484906   1030000200030000   333800010001203104000003327KBZPay                 Yangon        MMR11007131331370137890713000000000000000   10300001F05104100000000042000000000000000     
100   95050317175714970000000000050000000000050000002000000010410407130234570457219274100713000007480514   1030000200030000   333800010001203104000003327KBZPay                 Yangon        MMR11007130234570457210713000000000000000   10300001F05104100000000010500000000000000     
100   95050316438375580000000000007500000000007500002000000010410407130443391339809904060713000007481686   1030000200030000   333800010001203104000003327KBZPay                 Yangon        MMR11007130443391339800713000000000000000   10300001F05104100000000001575000000000000     
100   95050312498129060000000000001980000000001980002000000010410407131333200320240799630713000007484911   1020000200030000   333400010001204104000000281Myanmar Soft-Gate Tech Yangon        MMR11007131333200320240713000000000000000   10300001F05104100000000000416000000000000     
100   95050316818236190000000000002970000000002970002000000010410407131230320032099317340713000007484659   1020000200030000   333400010001204104000000281Myanmar Soft-Gate Tech Yangon        MMR11007131230320032090713000000000000000   10300001F05104100000000000624000000000000     
100   62911028202225850000000000037850000000037850002000000010410407131637170044294773800713000750061871   1030000200030000   541188001079000008000000294KBZ BANK               CITY MART - J MMR11007131637170044290713000000000000000   10300001 00104100000000002271000000000000     
100   62443100330105920000000000100000000000100000002000000010410407130343501350619323550713000007481158   1030000200030000   333800010001203104000003327KBZPay                 Yangon        MMR11007130343501350610713000000000000000   10300001F05104100000000021000000000000000     
100   95050311419479170000000000000990000000000990002000000010410407130953362336419687670713000007483951   1020000200030000   333400010001204104000000281Myanmar Soft-Gate Tech Yangon        MMR11007130953362336410713000000000000000   10300001F05104100000000000208000000000000     
100   95050312498129060000000000000990000000000990002000000010410407131412374237052537210713000007485067   1020000200030000   333400010001204104000000281Myanmar Soft-Gate Tech Yangon        MMR11007131412374237050713000000000000000   10300001F05104100000000000208000000000000     
100   62911028202163480000000000300000000000300000002000000010410407131251232123424773800713000007484765   1030000200030000   333800010001203104000003327KBZPay                 Yangon        MMR11007131251232123420713000000000000000   10300001F05104100000000063000000000000000     
100   95050319216824370000000000250000000000250000002000000010410407130957002700548715960713000007483972   1030000200030000   333800010001203104000003327KBZPay                 Yangon        MMR11007130957002700540713000000000000000   10300001F05104100000000052500000000000000     
100   95050314307746340000000000000990000000000990002000000010410407130355132513653770420713000007481257   1020000200030000   333400010001204104000000281Myanmar Soft-Gate Tech Yangon        MMR11007130355132513650713000000000000000   10300001F05104100000000000208000000000000     
100   95050313817486860000000000004950000000004950002000000010410407130621225122445616020713000007482408   1020000200030000   333400010001204104000000281Myanmar Soft-Gate Tech Yangon        MMR11007130621225122440713000000000000000   10300001F05104100000000001040000000000000     
100   62443101045531990000000000018394310000018394312000000010410407130717524752726247350713000007482819   1030000200030000   333300010001203104000003632Myanmar Tradenet Test  Yangon        MMR11007130717524752720713000000000000000   10300001F05104100000000010000000000000000     
100   95050321848852460000000000053000000000053000002000000010410407131335392225032452120713518052039193   1030000900030000   554119001103190110000000215New Day Energy MYG     YANGONONE     MMR11007131335392225030713000000000000000   10300001F00104100000000006360000000000000     
100   95050315099113150000000000000990000000000990002000000010410407130612024202989091180713000007482350   1020000200030000   333400010001204104000000281Myanmar Soft-Gate Tech Yangon        MMR11007130612024202980713000000000000000   10300001F05104100000000000208000000000000     
100   95030301100125070000000000300000000000300000002000000010410407131212414241994773800713000007484588   1030000200030000   333800010001203104000003327KBZPay                 Yangon        MMR11007131212414241990713000000000000000   10300001F05104100000000063000000000000000     
