100   62911028202556760000000000030000000000030000002000000010410407130748010568914773800713219407056891   1030000600030000   554100000969315799420000481DENKO NORTH OKKALAPA   YANGON        MMR11007130748010568910713000000000000000   10300001 00104100000000000900000000000000     
100   95050315259054570000000000000990000000000990002000000010410407141130010001920200240714000007490254   1020000200030000   333400010001204104000000281Myanmar Soft-Gate Tech Yangon        MMR11007141130010001920714000000000000000   10300001F05104100000000000208000000000000     
100   62911028202135350000000000047000000000047000002000000010410407141101460015894773800714000750090756   1030000200030000   541188001030000008000000298KBZ BANK               CITY MART - M MMR11007141101460015890714000000000000000   10300001 00104100000000002820000000000000     
100   62443100336591330000000000120400000000120400002000000010410407140525120003687091050714000750095096   1030000200030000   564188001669000008000005183KBZ BANK               SB BABY-12    MMR11007140525120003680714000000000000000   10300001 00104100000000028896000000000000     
100   62911028202117110000000000150000000000150000002000000010410407140630090009254773800714000007488252   1030000200030000   333800010001203104000003327KBZPay                 Yangon        MMR11007140630090009250714000000000000000   10300001F05104100000000031500000000000000     
100   62911028202530930000000000031300000000031300002000000010410407140851250007154773800714000750113208   1030000200030000   581288000746000008000004038KBZ BANK               CAESAR CAF? & MMR11007140851250007150714000000000000000   10300001 00104100000000003193000000000000     
100   95050328570548980000000000140000000000140000002000000010410407131645460011038005250714000355317437   1030000300030000   581300001103000000000000771CB BANK                THE MYST BAR  MMR11007131645460011030714000000000000000   10300001F00104100000000059500000000000000     
100   62911028202299860000000000048300000000048300002000000010410407141703090400574773800714000750118609   1030000200030000   541188001025000008000000298KBZ BANK               CITY MART - M MMR11007141703090400570714000000000000000   10300001 00104100000000002898000000000000     
100   62911028202530930000000000081963000000081963002000000010410407141623190253554773800714000750116528   1030000200030000   541188001007000008000000008KBZ BANK               MARKETPLACE - MMR11007141623190253550714000000000000000   10300001 00104100000000004918000000000000     
100   95050328351497860000000000003000000000003000002000000010410407141328165816054811590714000007490699   1030000200030000   333800010001203104000003327KBZPay                 Yangon        MMR11007141328165816050714000000000000000   10300001F05104100000000000630000000000000     
100   95050327996244850000000000100000000000100000002000000010410407140101363136433217980714000007485795   1030000200030000   333800010001203104000003327KBZPay                 Yangon        MMR11007140101363136430714000000000000000   10300001F05104100000000021000000000000000     
100   95050325455962190000000000002970000000002970002000000010410407141506223622210109430714000007491070   1020000200030000   333400010001204104000000281Myanmar Soft-Gate Tech Yangon        MMR11007141506223622210714000000000000000   10300001F05104100000000000624000000000000     
100   95050318601641810000000000000990000000000990002000000010410407140811014101152654250714000007489155   1020000200030000   333400010001204104000000281Myanmar Soft-Gate Tech Yangon        MMR11007140811014101150714000000000000000   10300001F05104100000000000208000000000000     
100   95050312119522920000000000030000000000030000002000000010410407140118334833828175440714000007485842   1030000200030000   333800010001203104000003327KBZPay                 Yangon        MMR11007140118334833820714000000000000000   10300001F05104100000000006300000000000000     
100   95050315743141220000000000000990000000000990002000000010410407141225175517591086860714000007490448   1020000200030000   333400010001204104000000281Myanmar Soft-Gate Tech Yangon        MMR11007141225175517590714000000000000000   10300001F05104100000000000208000000000000     
100   95050313145843230000000000055000000000055000002000000010410407140313074307662402680714000007486440   1030000200030000   333800010001203104000003327KBZPay                 Yangon        MMR11007140313074307660714000000000000000   10300001F05104100000000011550000000000000     
100   95050310332595380000000000000990000000000990002000000010410407140438490849523034000714000007487317   1020000200030000   333400010001204104000000281Myanmar Soft-Gate Tech Yangon        MMR11007140438490849520714000000000000000   10300001F05104100000000000208000000000000     
100   95050324411430900000000000145417000000145417002000000010410407140645071507169541330714000007488422   1010000100030000   333500010001212104000002543Internal Revenue Depar Yangon        MMR11007140645071507160714000000000000000   10300001F05104100000000060000000000000000     
100   62911028202163480000000000100000000000100000002000000010410407141141361136084773800714000007490301   1030000200030000   333800010001203104000003327KBZPay                 Yangon        MMR11007141141361136080714000000000000000   10300001F05104100000000021000000000000000     
100   95050324411430900000000000322020000000322020002000000010410407140636210621516917140714000007488317   1010000100030000   333500010001212104000002535Internal Revenue Depar Yangon        MMR11007140636210621510714000000000000000   10300001F05104100000000060000000000000000     
100   62911028202163480000000000300000000000300000002000000010410407141138560856144773800714000007490287   1030000200030000   333800010001203104000003327KBZPay                 Yangon        MMR11007141138560856140714000000000000000   10300001F05104100000000063000000000000000     
100   62911028202451150000000000056081000000056081002000000010410407140412092017594773800714420927136898   1040001400030000   806210000094028062100000766Yoma OUE Pun Hlaing Ho pital  Yoma O MMR11007140412092017590714000000000000000   10300001 00104100000000003365000000000000     
100   62911028202441420000000000029500000000029500002000000010410407141550530094604773800714000750114889   1030000200030000   541188001074000008000000294KBZ BANK               CITY MART - J MMR11007141550530094600714000000000000000   10300001 00104100000000001770000000000000     
100   62911028202708080000000000100000000000100000002000000010410407140939560956894773800714000007489748   1030000200030000   333800010001203104000003327KBZPay                 Yangon        MMR11007140939560956890714000000000000000   10300001F05104100000000021000000000000000     
100   95050319996628650000000000000990000000000990002000000010410407141413094309199683950714000007490874   1020000200030000   333400010001204104000000281Myanmar Soft-Gate Tech Yangon        MMR11007141413094309190714000000000000000   10300001F05104100000000000208000000000000     
100   95030314863516850000000000021000000000021000002000000010410407140911024102484773800714000007489558   1030000200030000   333800010001203104000003327KBZPay                 Yangon        MMR11007140911024102480714000000000000000   10300001F05104100000000004410000000000000     
100   95050315259054570000000000000990000000000990002000000010410407141422025202386378980714000007490924   1020000200030000   333400010001204104000000281Myanmar Soft-Gate Tech Yangon        MMR11007141422025202380714000000000000000   10300001F05104100000000000208000000000000     
100   95050327996244850000000000100000000000100000002000000010410407140122025202796522960714000007485853   1030000200030000   3338000100012031040000040022C2P (Myanmar) Co. Ltd Yangon        MMR11007140122025202790714000000000000000   10300001F05104100000000021000000000000000     
100   95050310427855490000000000002970000000002970002000000010410407140922035203537732450714000007489641   1020000200030000   333400010001204104000000281Myanmar Soft-Gate Tech Yangon        MMR11007140922035203530714000000000000000   10300001F05104100000000000624000000000000     
100   95030318100004530000000000018700000000018700002000000010410407141027560057624773800714000750087776   1030000200030000   541188001440000008000000401KBZ BANK               OCEAN SUPERCE MMR11007141027560057620714000000000000000   10300001 00104100000000001122000000000000     
100   62911028202136750000000000027000000000027000002000000010410407141213532869864773800714219519286986   1040001600030000   598320001456000000010001150360 Petro (Bayint Naun Ygn           MMR11007141213532869860714000000000000000   10300001F00104100000000000810000000000000     
100   95050327883696130000000000000715000000000715002000000010410407140338570857912743060714000007486756   1030000200030000   333800010001203104000003327KBZPay                 Yangon        MMR11007140338570857910714000000000000000   10300001F05104100000000000150000000000000     
100   95050313843656520000000000002970000000002970002000000010410407140241411141758260530714000007486166   1020000200030000   333400010001204104000000281Myanmar Soft-Gate Tech Yangon        MMR11007140241411141750714000000000000000   10300001F05104100000000000624000000000000     
100   62911028202440680000000000002100000000002100002000000010410407140945350217124773800714000750084516   1030000200030000   541188001080000008000000294KBZ BANK               CITY MART - J MMR11007140945350217120714000000000000000   10300001 00104100000000000126000000000000     
100   95050315158357300000000000001980000000001980002000000010410407141432330233908031460714000007490954   1020000200030000   333400010001204104000000281Myanmar Soft-Gate Tech Yangon        MMR11007141432330233900714000000000000000   10300001F05104100000000000416000000000000     
100   95050326948926900000000000150000000000150000002000000010410407140833020302148498310714000007489339   1030000200030000   333800010001203104000003327KBZPay                 Yangon        MMR11007140833020302140714000000000000000   10300001F05104100000000031500000000000000     
100   62443100301716860000000000000990000000000990002000000010410407140338170817217785610714000007486752   1020000200030000   333400010001204104000000281Myanmar Soft-Gate Tech Yangon        MMR11007140338170817210714000000000000000   10300001F05104100000000000208000000000000     
100   95030318100004530000000000027800000000027800002000000010410407141040340039774773800714000750088718   1030000200030000   541188001444000008000000401KBZ BANK               OCEAN SUPERCE MMR11007141040340039770714000000000000000   10300001 00104100000000001668000000000000     
100   95050322295410690000000000012741000000012741002000000010410407141830440258674562020714000750122821   1030000200030000   541188001037000008000000010KBZ BANK               MARKETPLACE - MMR11007141830440258670714000000000000000   10300001 00104100000000003186000000000000     
100   95050312940629360000000000018500000000018500002000000010410407140332540254056388410714000007486682   1030000200030000   333800010001203104000003327KBZPay                 Yangon        MMR11007140332540254050714000000000000000   10300001F05104100000000003885000000000000     
100   95050316601084530000000000000990000000000990002000000010410407140936550655942945190714000007489724   1020000200030000   333400010001204104000000281Myanmar Soft-Gate Tech Yangon        MMR11007140936550655940714000000000000000   10300001F05104100000000000208000000000000     
100   62911028202163480000000000300000000000300000002000000010410407141139590959444773800714000007490292   1030000200030000   333800010001203104000003327KBZPay                 Yangon        MMR11007141139590959440714000000000000000   10300001F05104100000000063000000000000000     
100   62911028202107210000000000045450000000045450002000000010410407141324170273474773800714000750103871   1030000200030000   541188001059000008000000314KBZ BANK               MARKETPLACE - MMR11007141324170273470714000000000000000   10300001 00104100000000002727000000000000     
100   95050313968650950000000000019800000000019800002000000010410407140949071907241122510714000007489789   1020000200030000   333400010001204104000000281Myanmar Soft-Gate Tech Yangon        MMR11007140949071907240714000000000000000   10300001F05104100000000004158000000000000     
100   95050315099113150000000000000990000000000990002000000010410407131738410841426352760714000007485508   1020000200030000   333400010001204104000000281Myanmar Soft-Gate Tech Yangon        MMR11007131738410841420714000000000000000   10300001F05104100000000000208000000000000     
100   95050312498129060000000000002970000000002970002000000010410407140444561456415098180714000007487374   1020000200030000   333400010001204104000000281Myanmar Soft-Gate Tech Yangon        MMR11007140444561456410714000000000000000   10300001F05104100000000000624000000000000     
100   62911028202502480000000000028514000000028514002000000010410407141423100046654773800714000750108698   1030000200030000   541188001040000008000000010KBZ BANK               MARKETPLACE - MMR11007141423100046650714000000000000000   10300001 00104100000000001711000000000000     
100   95050315099113150000000000000990000000000990002000000010410407140731270127822385170714000007488781   1020000200030000   333400010001204104000000281Myanmar Soft-Gate Tech Yangon        MMR11007140731270127820714000000000000000   10300001F05104100000000000208000000000000     
100   95050312695033440000000000004950000000004950002000000010410407141443201320713414400714000007491009   1020000200030000   333400010001204104000000281Myanmar Soft-Gate Tech Yangon        MMR11007141443201320710714000000000000000   10300001F05104100000000001040000000000000     
100   95050328082468580000000000060000000000060000002000000010410407140947461746904512580714000007489798   1030000200030000   333800010001203104000003327KBZPay                 Yangon        MMR11007140947461746900714000000000000000   10300001F05104100000000012600000000000000     
100   95050315017843630000000000005000000000005000002000000010410407140540261026935864050714000007487853   1040001600030000   333800010001220104000004507A +                    Yangon        MMR11007140540261026930714000000000000000   10300001F05104100000000001050000000000000     
100   62443100333488440000000000066700000000066700002000000010410407141539020031655023150714000750114180   1030000200030000   541188001014000008000000008KBZ BANK               MARKETPLACE - MMR11007141539020031650714000000000000000   10300001 00104100000000016675000000000000     
100   62443100333488440000000000033500000000033500002000000010410407141654490041210966110714000750118176   1030000200030000   581288000947000008000004873KBZ BANK               PIZZA HUT RES MMR11007141654490041210714000000000000000   10300001 00104100000000014238000000000000     
100   62911028202788350000000000010000000000010000002000000010410407140937250725534773800714000007489734   1030000200030000   333800010001203104000003327KBZPay                 Yangon        MMR11007140937250725530714000000000000000   10300001F05104100000000002100000000000000     
100   95050315259054570000000000007500000000007500002000000010410407140239090909953643470714000007486161   1030000200030000   333800010001203104000003327KBZPay                 Yangon        MMR11007140239090909950714000000000000000   10300001F05104100000000001575000000000000     
100   95050318617855880000000000000990000000000990002000000010410407140341241124514480640714000007486802   1020000200030000   333400010001204104000000281Myanmar Soft-Gate Tech Yangon        MMR11007140341241124510714000000000000000   10300001F05104100000000000208000000000000     
100   95050321798808970000000000050000000000050000002000000010410407140746201620180746470714000007488938   1030000200030000   333800010001203104000003327KBZPay                 Yangon        MMR11007140746201620180714000000000000000   10300001F05104100000000010500000000000000     
100   95050318134586070000000000099500000000099500002000000010410407141824510084117866980714000750122505   1030000200030000   541188001317000008000000306KBZ BANK               CITY MART - S MMR11007141824510084110714000000000000000   10300001 00104100000000024875000000000000     
100   62443100333488440000000000022500000000022500002000000010410407141555030148652604800714000750115129   1030000200030000   541188001002000008000000008KBZ BANK               MARKETPLACE - MMR11007141555030148650714000000000000000   10300001 00104100000000005625000000000000     
100   95050327416134790000000000000990000000000990002000000010410407141334180418874726500714000007490716   1020000200030000   333400010001204104000000281Myanmar Soft-Gate Tech Yangon        MMR11007141334180418870714000000000000000   10300001F05104100000000000208000000000000     
100   95050324411430900000000000029500000000029500002000000010410407140640271027948569620714000007488360   1010000100030000   333500010001212104000002840Internal Revenue Depar Yangon        MMR11007140640271027940714000000000000000   10300001F05104100000000060000000000000000     
100   95050310305440490000000000006939000000006939002000000010410407141251470237005519940714000750100904   1030000200030000   541188001054000008000000314KBZ BANK               MARKETPLACE - MMR11007141251470237000714000000000000000   10300001 00104100000000001735000000000000     
100   62911028202527070000000000053036000000053036002000000010410407141701300400564773800714000750118521   1030000200030000   541188001025000008000000298KBZ BANK               CITY MART - M MMR11007141701300400560714000000000000000   10300001 00104100000000003182000000000000     
100   95050317176867660000000000001980000000001980002000000010410407140838230823115108250714000007489377   1020000200030000   333400010001204104000000281Myanmar Soft-Gate Tech Yangon        MMR11007140838230823110714000000000000000   10300001F05104100000000000416000000000000     
100   62911028202788350000000000010000000000010000002000000010410407140543541354774773800714000007487879   1030000200030000   333800010001203104000003327KBZPay                 Yangon        MMR11007140543541354770714000000000000000   10300001F05104100000000002100000000000000     
100   62911028202150190000000000008000000000008000002000000010410407141259522480714773800714919291952194   1030000900030000   581219000590190110000000430The Tea Club           YANGON        MMR11007141259522480710714000000000000000   10300001F00104100000000000816000000000000     
100   62911028202520530000000000020000000000020000002000000010410407141051442144764773800714000007490102   1030000200030000   3338000100012031040000040022C2P (Myanmar) Co. Ltd Yangon        MMR11007141051442144760714000000000000000   10300001F05104100000000004200000000000000     
100   62443100300412100000000000014078000000014078002000000010410407140807492396919264180714360371449194   1030000900030000   541119001151190110000000930OCEAN HTY C 1          YANGONTHARYA  MMR11007140807492396910714000000000000000   10300001F00104100000000003520000000000000     
100   62443101065883000000000000038350000000038350002000000010410407140928242420700867220714614581524194   1030000900030000   541119001256190110000000957City Mart JS City Care YANGONUT      MMR11007140928242420700714000000000000000   10300001F00104100000000009588000000000000     
100   62911028202788350000000000010000000000010000002000000010410407140755102510604773800714000007489007   1030000200030000   333800010001203104000003327KBZPay                 Yangon        MMR11007140755102510600714000000000000000   10300001F05104100000000002100000000000000     
100   62911028202154800000000000072750000000072750002000000010410407140248442505084773800714219509250508   1040001600030000   591220000288000000010000276Shwe Ohh Pharmacy (Nor Yangon        MMR11007140248442505080714000000000000000   10300001F00104100000000004365000000000000     
100   62443100373945130000000000020000000000020000002000000010410407140927432738444257290714219516273844   1040001600030000   598320000911000000010000662MMTM - Tamwe           Ygn           MMR11007140927432738440714000000000000000   10300001F00104100000000002400000000000000     
100   95050318057347910000000000030000000000030000002000000010410407140451192119774757790714000007487456   1030000200030000   3338000100012031040000040022C2P (Myanmar) Co. Ltd Yangon        MMR11007140451192119770714000000000000000   10300001F05104100000000006300000000000000     
100   95050313640946520000000000012950000000012950002000000010410407141135572836576895270714219518283657   1040001600030000   541120000553000000010000465Ocean Shwe Gone Daing  Yangon        MMR11007141135572836570714000000000000000   10300001F00104100000000003238000000000000     
100   62911028202789750000000000031000000000031000002000000010410407140805162396244773800714331351416194   1030000900030000   591219000610190110000000450Shwe Ohh Pharmacy St-1 YANGONUNG     MMR11007140805162396240714000000000000000   10300001F00104100000000001860000000000000     
100   95050318964967630000000000034350000000034350002000000010410407140941502425007902640714858111650194   1030000900030000   541119000114190110000000078Sein Gay Har Kan Thar  YANGONOKKALAP MMR11007140941502425000714000000000000000   10300001F00104100000000008588000000000000     
100   62911028202527490000000000033000000000033000002000000010410407140605192620964773800714219513262096   1040001600030000   598320000915000000010000664MMTM - North Dagon     Ygn           MMR11007140605192620960714000000000000000   10300001F00104100000000000990000000000000     
100   62911028202916630000000000105750000000105750002000000010410407140225492307814773800714880550849194   1030000900030000   591219000969190110000000776Shwe Ohh Pharmacy St ( YANGONADA     MMR11007140225492307810714000000000000000   10300001F00104100000000006345000000000000     
100   62443101065883000000000000030500000000030500002000000010410407140935512423131207610714751051651194   1030000900030000   541119001242190110000000955City Mart JS C 1       YANGONUT      MMR11007140935512423130714000000000000000   10300001F00104100000000007625000000000000     
100   95050324082484780000000000012200000000012200002000000010410407141239412476109434370714672091941194   1030000900030000   541119001301190110000000968Ocean Mingalar MDY C 9 MANDALAYHARSI MMR11007141239412476100714000000000000000   10300001F00104100000000003050000000000000     
100   62911028202112400000000000045650000000045650002000000010410407140311112516654773800714219510251665   1040001600030000   591220000282000000010000270Shwe Ohh Pharmacy (Shw Yangon        MMR11007140311112516650714000000000000000   10300001F00104100000000002739000000000000     
100   95050321848852460000000000057000000000057000002000000010410407141454082500685066880714801242108194   1030000900030000   554119001103190110000000215New Day Energy MYG     YANGONONE     MMR11007141454082500680714000000000000000   10300001F00104100000000006840000000000000     
100   95050322990383760000000000057000000000057000002000000010410407140944352749166250160714219516274916   1040001600030000   591220000043000000010000041Mingalar Pharmacy      Yangon        MMR11007140944352749160714000000000000000   10300001F00104100000000013680000000000000     
100   95050325808775160000000003000000000003000000002000000010410407140351392328903253640714792211039194   1030000900030000   594419000706190110000000537Zwe Htet Gems & Jewell YANGONAW      MMR11007140351392328900714000000000000000   10300001F00104100000000720000000000000000     
100   62911028202108200000000000024670000000024670002000000010410407140901332722574773800714219516272257   1040001600030000   541120000132000000010000126Asia Light Supermarket Yangon        MMR11007140901332722570714000000000000000   10300001F00104100000000001480000000000000     
100   95050320205194540000000000018100000000018100002000000010410407141159222466826214500714190291822194   1030000900030000   541119001264190110000000958City Mart PLST C 7     YANGONMYOTHIT MMR11007141159222466820714000000000000000   10300001F00104100000000004525000000000000     
100   62443100379321630000000000115000000000115000002000000010410407140154372475342792500714219508247534   1040001600030000   598320000658000000010000527Shwe Taung Energy (YGN Yangon        MMR11007140154372475340714000000000000000   10300001F00104100000000013800000000000000     
100   62443100373945130000000000020450000000020450002000000010410407101241390010610316460710219119001061   1030000500030000   541120203902000015411202039NEIGHBOURHOOD          PTN           MMR11007101241390010610710000000000000000   10300001 00104100000000005113000000000000     
100   62443100343312450000000000050550000000050550002000000010410407090232530013883514470709219009001388   1030000500030000   541120203903000015411202039NEIGHBOURHOOD          PTN           MMR11007090232530013880709000000000000000   10300001 00104100000000012638000000000000     
100   95050325273694860000000000006900000000006900002000000010410407120506490001701917850712219311000170   1030000500030000   541120024802022205411200248ORANGE (THARKAYTA)     PTN           MMR11007120506490001700712000000000000000   10300001 00104100000000001725000000000000     
100   95050314365758940000000000014425000000014425002000000010410407121054180002881767320712219317000288   1030000500030000   541120203803000015411202038CITY MART SUPERMARKET  PTN           MMR11007121054180002880712000000000000000   10300001 00104100000000003607000000000000     
100   95050315430281830000000000037450000000037450002000000010410407120159070004410126760712219301000441   1030000600030000   591200002214315799420001559365 PHARMACY 1         YANGON        MMR11007120159070004410712000000000000000   10300001 00104100000000008988000000000000     
100   62911028202366010000000000093000000000093000002000000010410407120815150162924773800712219308016292   1030000600030000   554100002328315799420001235DENKO NAY PYI TAW 2    NAYPYITAW     MMR11007120815150162920712000000000000000   10300001 00104100000000002790000000000000     
100   62443100384660050000000000040000000000040000002000000010410407120441210107021421200712219304010702   1030000600030000   554100001213315799420000665DENKO KWYAL TUT SONE   MANDALAY      MMR11007120441210107020712000000000000000   10300001 00104100000000004800000000000000     
100   62443100384660050000000000050000000000050000002000000010410407120743210238880859240712219307023888   1030000600030000   554100001212315799420000664DENKO TA TAR OO        TA TAR OO     MMR11007120743210238880712000000000000000   10300001 00104100000000006000000000000000     
100   95050325646370920000000000030000000000030000002000000010410407140155362536294530090714000007485959   1030000200030000   333800010001203104000003327KBZPay                 Yangon        MMR11007140155362536290714000000000000000   10300001F05104100000000006300000000000000     
100   95050313640946520000000000039650000000039650002000000010410407141143112842970030050714219518284297   1040001600030000   541120000584000000010000465Ocean Shwe Gone Daing  Yangon        MMR11007141143112842970714000000000000000   10300001F00104100000000009913000000000000     
100   62911028202789750000000000002400000000002400002000000010410407140806592396714773800714352361459194   1030000900030000   591219000610190110000000450Shwe Ohh Pharmacy St-1 YANGONUNG     MMR11007140806592396710714000000000000000   10300001F00104100000000000144000000000000     
100   62911028202287150000000000026050000000026050002000000010410407141253162479154773800714827231916194   1030000900030000   541119001189190110000000942City Mart HDC C 4      YANGONUT      MMR11007141253162479150714000000000000000   10300001F00104100000000001563000000000000     
100   95050312937155340000000000018800000000018800002000000010410407141115452818721512340714219518281872   1040001600030000   591220000288000000010000276Shwe Ohh Pharmacy (Nor Yangon        MMR11007141115452818720714000000000000000   10300001F00104100000000004512000000000000     
100   95050317072727910000000000000990000000000990002000000010410407141146481648255072600714000007490322   1020000200030000   333400010001204104000000281Myanmar Soft-Gate Tech Yangon        MMR11007141146481648250714000000000000000   10300001F05104100000000000208000000000000     
100   62443100355445150000000000090900000000090900002000000010410407140230022308508600920714903000902194   1030000900030000   591219000609190110000000449Shwe Ohh Pharmacy St-3 YANGONAUNG    MMR11007140230022308500714000000000000000   10300001F00104100000000021816000000000000     
100   62911028202397530000000000077700000000077700002000000010410407140521512353444773800714124511151194   1030000900030000   541119001300190110000000968Ocean Mingalar MDY C 8 MANDALAYHARSI MMR11007140521512353440714000000000000000   10300001F00104100000000004662000000000000     
100   95030301100126550000000000028000000000028000002000000010410407120924170568104773800712219309056810   1030000600030000   554100000969315799420000481DENKO NORTH OKKALAPA   YANGON        MMR11007120924170568100712000000000000000   10300001 00104100000000000840000000000000     
100   95050324850150480000000000030000000000030000002000000010410407120316040321046481410712219303032104   1030000600030000   554100001116315799420000574DENKO HLAE KUU         HLAE KUU      MMR11007120316040321040712000000000000000   10300001 00104100000000003600000000000000     
100   62911028202677390000000000050000000000050000002000000010410407121124460335564773800712219311033556   1030000600030000   554100001113315799420000571DENKO THAN HLYIN -1    THAN HLYIN    MMR11007121124460335560712000000000000000   10300001 00104100000000001500000000000000     
100   62911028202135350000000000046778000000046778002000000010410407130738500013584773800713219414001358   1030000500030000   581220063701000015812200637CHINESE 47             PTN           MMR11007130738500013580713000000000000000   10300001 00104100000000004771000000000000     
100   62911028202147720000000000040000000000040000002000000010410407130033440012024773800713219407001202   1030000500030000   598320001604000015172200016MAX ENERGY             PTN           MMR11007130033440012020713000000000000000   10300001 00104100000000001200000000000000     
100   62443101037081820000000000052000000000052000002000000010410407131118570018138806770713219417001813   1030000500030000   598320001204000015172200012MAX ENERGY             PTN           MMR11007131118570018130713000000000000000   10300001 00104100000000006240000000000000     
100   62443100373945130000000000030000000000030000002000000010410407120709520321243483440712219307032124   1030000600030000   554100001116315799420000574DENKO HLAE KUU         HLAE KUU      MMR11007120709520321240712000000000000000   10300001 00104100000000003600000000000000     
100   95050311883152260000000000023950000000023950002000000010410407120554030014916885570712219305001491   1030000600030000   5499000022373157994200015691 STOP S M SATSAN      YANGON        MMR11007120554030014910712000000000000000   10300001 00104100000000010179000000000000     
100   95050319703729630000000000300000000000300000002000000010410407140749481948152398950714000007488967   1030000200030000   333800010001203104000003327KBZPay                 Yangon        MMR11007140749481948150714000000000000000   10300001F05104100000000063000000000000000     
100   95050318601641810000000000000990000000000990002000000010410407140211174117769657730714000007486034   1020000200030000   333400010001204104000000281Myanmar Soft-Gate Tech Yangon        MMR11007140211174117760714000000000000000   10300001F05104100000000000208000000000000     
100   95050316785465380000000000001980000000001980002000000010410407140918114811306590540714000007489611   1020000200030000   333400010001204104000000281Myanmar Soft-Gate Tech Yangon        MMR11007140918114811300714000000000000000   10300001F05104100000000000416000000000000     
100   95050320335873810000000000000990000000000990002000000010410407140829195919421973470714000007489304   1020000200030000   333400010001204104000000281Myanmar Soft-Gate Tech Yangon        MMR11007140829195919420714000000000000000   10300001F05104100000000000208000000000000     
100   62911028202115960000000000080525000000080525002000000010410407130545430001104773800713219412000110   1030000500030000   591220013801014405912200138SHWE OHH PHARMACY      PTN           MMR11007130545430001100713000000000000000   10300001 00104100000000004832000000000000     
100   95050322312885760000000000005500000000005500002000000010410407140315014501325792740714000007486463   1030000200030000   333800010001203104000003327KBZPay                 Yangon        MMR11007140315014501320714000000000000000   10300001F05104100000000001155000000000000     
100   95050318141561190000000000010000000000010000002000000010410407140325275527276218220714000007486574   1040001600030000   333800010001220104000004507A +                    Yangon        MMR11007140325275527270714000000000000000   10300001F05104100000000002100000000000000     
100   95050314302558730000000000004950000000004950002000000010410407140416414641008707880714000007487129   1020000200030000   333400010001204104000000281Myanmar Soft-Gate Tech Yangon        MMR11007140416414641000714000000000000000   10300001F05104100000000001040000000000000     
100   95050310743661680000000000032800000000032800002000000010410407120639340000870643960712219313000087   1030000500030000   569120087001006305691200870DYNAMIC PINLON (1)     PTN           MMR11007120639340000870712000000000000000   10300001 00104100000000007872000000000000     
100   95050327996244850000000000200000000000200000002000000010410407140145281528564444990714000007485934   1030000200030000   333800010001203104000003327KBZPay                 Yangon        MMR11007140145281528560714000000000000000   10300001F05104100000000042000000000000000     
100   62911028202287150000000000036450000000036450002000000010410407131219240019354773800713219418001935   1030000500030000   541120229102000045411202291CITY MART YANKIN       PTN           MMR11007131219240019350713000000000000000   10300001 00104100000000002187000000000000     
100   62911028202448030000000000110000000000110000002000000010410407140823032401224773800714567531403194   1030000900030000   562119001437190110000001041Venus Palace Fashion   YANGONUT      MMR11007140823032401220714000000000000000   10300001F00104100000000006600000000000000     
100   62911028202163480000000000300000000000300000002000000010410407141137350735494773800714000007490284   1030000200030000   333800010001203104000003327KBZPay                 Yangon        MMR11007141137350735490714000000000000000   10300001F05104100000000063000000000000000     
100   95050318131043910000000000001980000000001980002000000010410407140556192619766544820714000007487969   1020000200030000   333400010001204104000000281Myanmar Soft-Gate Tech Yangon        MMR11007140556192619760714000000000000000   10300001F05104100000000000416000000000000     
100   62911028202400660000000000039603000000039603002000000010410407130257020013404773800713219409001340   1030000500030000   581220063701000015812200637CHINESE 47             PTN           MMR11007130257020013400713000000000000000   10300001 00104100000000004040000000000000     
100   62911028202631420000000000011796000000011796002000000010410407130706290011814773800713219413001181   1030000500030000   541120203705000015411202037CITY MART SUPERMARKET  PTN           MMR11007130706290011810713000000000000000   10300001 00104100000000000708000000000000     
100   95050322654733420000000000096000000000096000002000000010410407140027235723368090340714000007485724   1030000200030000   3338000100012031040000040022C2P (Myanmar) Co. Ltd Yangon        MMR11007140027235723360714000000000000000   10300001F05104100000000020160000000000000     
100   95050313123223200000000000018000000000018000002000000010410407140710384038380101360714000007488642   1030000200030000   333800010001203104000003327KBZPay                 Yangon        MMR11007140710384038380714000000000000000   10300001F05104100000000003780000000000000     
100   95050316717221100000000000000990000000000990002000000010410407140412014201030785840714000007487085   1020000200030000   333400010001204104000000281Myanmar Soft-Gate Tech Yangon        MMR11007140412014201030714000000000000000   10300001F05104100000000000208000000000000     
100   95050329213164970000000000002970000000002970002000000010410407140312034203901892100714000007486424   1020000200030000   333400010001204104000000281Myanmar Soft-Gate Tech Yangon        MMR11007140312034203900714000000000000000   10300001F05104100000000000624000000000000     
100   95050318805978240000000000026250000000026250002000000010410407140324395439830665100714000007486566   1030000200030000   333800010001203104000003327KBZPay                 Yangon        MMR11007140324395439830714000000000000000   10300001F05104100000000005513000000000000     
100   95030306100078820000000000017050000000017050002000000010410407131244340005524773800713219419000552   1030000500030000   541120020701022205411200207ORANGE (YDG)           PTN           MMR11007131244340005520713000000000000000   10300001 00104100000000001023000000000000     
100   95050327192897240000000000038150000000038150002000000010410407141230182884552739340714219519288455   1040001600030000   591220000289000000010000277Shwe Ohh Pharmacy (Par Yangon        MMR11007141230182884550714000000000000000   10300001F00104100000000009156000000000000     
100   95050311931431670000000000004950000000004950002000000010410407140300163016437104840714000007486277   1020000200030000   333400010001204104000000281Myanmar Soft-Gate Tech Yangon        MMR11007140300163016430714000000000000000   10300001F05104100000000001040000000000000     
100   62911028202150190000000000013350000000013350002000000010410407140616582628144773800714219513262814   1040001600030000   591220000293000000010000281Shwe Ohh Pharmacy (Pea Yangon        MMR11007140616582628140714000000000000000   10300001F00104100000000000801000000000000     
100   95050327456215690000000000021124000000021124002000000010410407141022532437610455530714561521653194   1030000900030000   541119001247190110000000955City Mart JS C 6       YANGONUT      MMR11007141022532437610714000000000000000   10300001F00104100000000005281000000000000     
100   62911028202123960000000000027100000000027100002000000010410407130122420018204773800713219407001820   1030000500030000   598320001302000015172200013MAX ENERGY             PTN           MMR11007130122420018200713000000000000000   10300001 00104100000000000813000000000000     
100   62911028202128750000000000026600000000026600002000000010410407140224322307534773800714870540832194   1030000900030000   591219000969190110000000776Shwe Ohh Pharmacy St ( YANGONADA     MMR11007140224322307530714000000000000000   10300001F00104100000000001596000000000000     
100   95050313079290890000000000019250000000019250002000000010410407140241112310453388180714967110911194   1030000900030000   541119000112190110000000077Sein Gay Har Chinatown YANGON        MMR11007140241112310450714000000000000000   10300001F00104100000000004813000000000000     
100   95050314749068520000000000001194000000001194002000000010410407141244371437046044310714000007490539   1020000200030000   333300010001204104000000406MyanPay Co. Ltd        Yangon        MMR11007141244371437040714000000000000000   10300001F05104100000000010000000000000000     
100   95050310494988230000000000000990000000000990002000000010410407140345521552606643700714000007486840   1020000200030000   333400010001204104000000281Myanmar Soft-Gate Tech Yangon        MMR11007140345521552600714000000000000000   10300001F05104100000000000208000000000000     
100   95050310322713510000000000004000000000004000002000000010410407141051222122924987500714000007490104   1030000200030000   333800010001203104000003327KBZPay                 Yangon        MMR11007141051222122920714000000000000000   10300001F05104100000000000840000000000000     
100   95050316234969530000000000040000000000040000002000000010410407141122085208338547760714000007490227   1030000200030000   333800010001203104000003327KBZPay                 Yangon        MMR11007141122085208330714000000000000000   10300001F05104100000000008400000000000000     
100   95050326393773020000000000002970000000002970002000000010410407141323275327678116560714000007490675   1020000200030000   333400010001204104000000281Myanmar Soft-Gate Tech Yangon        MMR11007141323275327670714000000000000000   10300001F05104100000000000624000000000000     
100   95050324411430900000000000760681000000760681002000000010410407140628585858091534200714000007488243   1010000100030000   333500010001212104000002535Internal Revenue Depar Yangon        MMR11007140628585858090714000000000000000   10300001F05104100000000060000000000000000     
100   95050310427855490000000000000990000000000990002000000010410407140928085808569299840714000007489684   1020000200030000   333400010001204104000000281Myanmar Soft-Gate Tech Yangon        MMR11007140928085808560714000000000000000   10300001F05104100000000000208000000000000     
100   95050313123223200000000000000990000000000990002000000010410407141223285328802824440714000007490439   1020000200030000   333400010001204104000000281Myanmar Soft-Gate Tech Yangon        MMR11007141223285328800714000000000000000   10300001F05104100000000000208000000000000     
100   62443100330108240000000000000990000000000990002000000010410407141324535453703159110714000007490678   1020000200030000   333400010001204104000000281Myanmar Soft-Gate Tech Yangon        MMR11007141324535453700714000000000000000   10300001F05104100000000000208000000000000     
100   62911028202416760000000000050000000000050000002000000010410407130318171812724773800713219410181272   1040001600030000   598320000850000000010000606Terminal Petrol Statio Yangon        MMR11007130318171812720713000000000000000   10300001F00104100000000001500000000000000     
100   62911028202135350000000000030000000000030000002000000010410407141100260403044773800714000750090605   1030000200030000   541188001024000008000000298KBZ BANK               CITY MART - M MMR11007141100260403040714000000000000000   10300001 00104100000000001800000000000000     
100   95030327582492680000000000050000000000050000002000000010410407140947561756744773800714000007489797   1030000200030000   333800010001203104000003327KBZPay                 Yangon        MMR11007140947561756740714000000000000000   10300001F05104100000000010500000000000000     
100   95050329632900220000000000050000000000050000002000000010410407130308310000910004310713219409000091   1030000500030000   598320001304000015172200013MAX ENERGY             PTN           MMR11007130308310000910713000000000000000   10300001 00104100000000006000000000000000     
100   62911028202684060000000000024000000000024000002000000010410407130407490001704773800713219410000170   1030000500030000   591220010401014405912200104SHWE OHH PHARMACY      PTN           MMR11007130407490001700713000000000000000   10300001 00104100000000001440000000000000     
100   62911028202045260000000000007650000000007650002000000010410407131124500002494773800713219417000249   1030000500030000   541120229601000045411202296CITY EXPRESS (MCS - 10 PTN           MMR11007131124500002490713000000000000000   10300001 00104100000000000459000000000000     
100   62911028202668300000000000012800000000012800002000000010410407130550370011394773800713219412001139   1030000500030000   503920036604000015039200366PRO-1 HOME CENTER      PTN           MMR11007130550370011390713000000000000000   10300001 00104100000000000768000000000000     
100   95030308100042590000000000047000000000047000002000000010410407131217210009414773800713219418000941   1030000500030000   598320001704000015172200017MAX ENERGY             PTN           MMR11007131217210009410713000000000000000   10300001 00104100000000001410000000000000     
100   95030301100081330000000000023850000000023850002000000010410407131319010018534773800713219419001853   1030000500030000   531120226710000045311202267OCEAN NORTH POINT      PTN           MMR11007131319010018530713000000000000000   10300001 00104100000000001431000000000000     
100   95050322990383760000000000003000000000003000002000000010410407131039150003902616600713219417000390   1030000500030000   541120203712000015411202037CITY MART SUPERMARKET  PTN           MMR11007131039150003900713000000000000000   10300001 00104100000000000750000000000000     
100   95050327996244850000000000300000000000300000002000000010410407140206133613567920150714000007486007   1030000200030000   333800010001203104000003327KBZPay                 Yangon        MMR11007140206133613560714000000000000000   10300001F05104100000000063000000000000000     
100   62911028202788350000000000010000000000010000002000000010410407140506513651474773800714000007487585   1030000200030000   333800010001203104000003327KBZPay                 Yangon        MMR11007140506513651470714000000000000000   10300001F05104100000000002100000000000000     
100   95050312498129060000000000001980000000001980002000000010410407141420105010541336430714000007490915   1020000200030000   333400010001204104000000281Myanmar Soft-Gate Tech Yangon        MMR11007141420105010540714000000000000000   10300001F05104100000000000416000000000000     
100   95050319263501880000000000050000000000050000002000000010410407140354082408608296190714000007486909   1030000200030000   333800010001203104000003327KBZPay                 Yangon        MMR11007140354082408600714000000000000000   10300001F05104100000000010500000000000000     
100   95030306100096490000000000001980000000001980002000000010410407140207593759514773800714000007486019   1020000200030000   333400010001204104000000281Myanmar Soft-Gate Tech Yangon        MMR11007140207593759510714000000000000000   10300001F05104100000000000416000000000000     
100   62443100301716860000000000001980000000001980002000000010410407140824155415905789020714000007489264   1020000200030000   333400010001204104000000281Myanmar Soft-Gate Tech Yangon        MMR11007140824155415900714000000000000000   10300001F05104100000000000416000000000000     
100   62911028202136750000000000035000000000035000002000000010410407130950190560024773800713219409056002   1030000600030000   554100001001315799420000498DENKO SHWE PYI THAR    YANGON        MMR11007130950190560020713000000000000000   10300001 00104100000000001050000000000000     
100   62911028202489110000000000048200000000048200002000000010410407140838260263374773800714000750081524   1030000200030000   541188001001000008000000008KBZ BANK               MARKETPLACE - MMR11007140838260263370714000000000000000   10300001 00104100000000002892000000000000     
100   62911028202448030000000000087500000000087500002000000010410407131127440001004773800713219417000100   1030000500030000   569120057301000015691200573CONQUEROR              PTN           MMR11007131127440001000713000000000000000   10300001 00104100000000005250000000000000     
100   62443101037081820000000000012000000000012000002000000010410407131133560016675586890713219418001667   1030000500030000   541120203704000015411202037CITY MART SUPERMARKET  PTN           MMR11007131133560016670713000000000000000   10300001 00104100000000003000000000000000     
100   62443100394939820000000000004400000000004400002000000010410407131125400041622111730713000355280851   1030000300030000   541100002333000000000000102CB BANK                MAKRO MYANMAR MMR11007131125400041620713000000000000000   10300001F00104100000000001100000000000000     
100   62911028202446130000000000006000000000006000002000000010410407130539240000704773800713219412000070   1030000500030000   531120155607000045311201556GAMONE PWINT           PTN           MMR11007130539240000700713000000000000000   10300001 00104100000000000360000000000000     
100   62911028202446130000000000006000000000006000002000000010410407130546380000714773800713219412000071   1030000500030000   531120155607000045311201556GAMONE PWINT           PTN           MMR11007130546380000710713000000000000000   10300001 00104100000000000360000000000000     
100   95030364439875210000000000003500000000003500002000000010410407130804350004904773800713219414000490   1030000500030000   531120226312000045311202263OCEAN SUPER CENTER STJ PTN           MMR11007130804350004900713000000000000000   10300001 00104100000000000210000000000000     
100   62911028202446130000000000054900000000054900002000000010410407131037530005474773800713219417000547   1030000500030000   541120020701022205411200207ORANGE (YDG)           PTN           MMR11007131037530005470713000000000000000   10300001 00104100000000003294000000000000     
100   62911028202443730000000000040850000000040850002000000010410407130408530013634773800713219410001363   1030000500030000   531120226318000045311202263OCEAN SUPER CENTER STJ PTN           MMR11007130408530013630713000000000000000   10300001 00104100000000002451000000000000     
100   62911028202788350000000000010000000000010000002000000010410407140301323132604773800714000007486294   1030000200030000   333800010001203104000003327KBZPay                 Yangon        MMR11007140301323132600714000000000000000   10300001F05104100000000002100000000000000     
100   62911028202703030000000000036000000000036000002000000010410407110416470160444773800711219204016044   1030000600030000   809900000541315799420000147GRAND HANTHA HOSPITAL  YANGON        MMR11007110416470160440711000000000000000   10300001 00104100000000002160000000000000     
100   95050316717221100000000000000990000000000990002000000010410407140406203620128367490714000007487015   1020000200030000   333400010001204104000000281Myanmar Soft-Gate Tech Yangon        MMR11007140406203620120714000000000000000   10300001F05104100000000000208000000000000     
100   95050327996244850000000000300000000000300000002000000010410407140219044904734615180714000007486073   1030000200030000   333800010001203104000003327KBZPay                 Yangon        MMR11007140219044904730714000000000000000   10300001F05104100000000063000000000000000     
100   95050311458479980000000000028000000000028000002000000010410407140521525152820906590714000007487728   1030000200030000   3338000100012031040000040022C2P (Myanmar) Co. Ltd Yangon        MMR11007140521525152820714000000000000000   10300001F05104100000000005880000000000000     
100   62443100381661260000000000040000000000040000002000000010410407140626445644074924270714000007488227   1030000200030000   333800010001203104000003327KBZPay                 Yangon        MMR11007140626445644070714000000000000000   10300001F05104100000000008400000000000000     
100   95050318712627500000000000001980000000001980002000000010410407141319184918396464080714000007490665   1020000200030000   333400010001204104000000281Myanmar Soft-Gate Tech Yangon        MMR11007141319184918390714000000000000000   10300001F05104100000000000416000000000000     
100   95050318712627500000000000001980000000001980002000000010410407140219054905122962700714000007486074   1020000200030000   333400010001204104000000281Myanmar Soft-Gate Tech Yangon        MMR11007140219054905120714000000000000000   10300001F05104100000000000416000000000000     
100   95050326750398570000000000019100000000019100002000000010410407131322010020247409570713219419002024   1030000500030000   531120226721000045311202267OCEAN NORTH POINT      PTN           MMR11007131322010020240713000000000000000   10300001 00104100000000004584000000000000     
100   62911028202819790000000000042750000000042750002000000010410407130524550006764773800713219411000676   1030000500030000   503920036606000015039200366PRO-1 HOME CENTER      PTN           MMR11007130524550006760713000000000000000   10300001 00104100000000002565000000000000     
100   62911028202286990000000000040000000000040000002000000010410407131301580002484773800713219419000248   1030000500030000   598320001301000015172200013MAX ENERGY             PTN           MMR11007131301580002480713000000000000000   10300001 00104100000000001200000000000000     
100   95050322420590810000000000065000000000065000002000000010410407130110170231603762980713219401023160   1030000600030000   554100002323315799420000474DENKO N.DAGON - 1      YANGON        MMR11007130110170231600713000000000000000   10300001 00104100000000007800000000000000     
100   62443101093150400000000000025000000000025000002000000010410407130349290098805252710713219403009880   1030000600030000   554100002322315799420000497DENKO KONE TA LA PAUNG YANGON        MMR11007130349290098800713000000000000000   10300001 00104100000000003000000000000000     
100   62911028202752030000000000083000000000083000002000000010410407130457210407864773800713219404040786   1030000600030000   554100001155315799420000607DENKO NPT 1            NAYPYITAW.    MMR11007130457210407860713000000000000000   10300001 00104100000000002490000000000000     
100   95050324850150480000000000070000000000070000002000000010410407130453520096710046730713219404009671   1030000600030000   554100001206315799420000658DENKO PATHEIN          PATHEIN.      MMR11007130453520096710713000000000000000   10300001 00104100000000008400000000000000     
100   95030301100126550000000000026000000000026000002000000010410407131119400232244773800713219411023224   1030000600030000   554100002323315799420000474DENKO N.DAGON - 1      YANGON        MMR11007131119400232240713000000000000000   10300001 00104100000000000780000000000000     
