100   95050316208229120000000000007800000000007800002000000010410407150639098162358349990715090949143457   1040001400030000   555610000598025556100003510119 Store null No-119  Anawrahta Roa MMR11007150639098162350715000000000000000   10300001 00104100000000001950000000000000     
100   95050321232876860000000000083000000000083000002000000010410407140357410164001601160714219503016400   1030000600030000   554100002328315799420001235DENKO NAY PYI TAW 2    NAYPYITAW     MMR11007140357410164000714000000000000000   10300001 00104100000000009960000000000000     
100   95050326228858240000000000105000000000105000002000000010410407140831130408946845830714219508040894   1030000600030000   554100001155315799420000607DENKO NPT 1            NAYPYITAW.    MMR11007140831130408940714000000000000000   10300001 00104100000000012600000000000000     
100   95050324154190880000000000026000000000026000002000000010410407140438110012871381520714219511001287   1030000500030000   598320002102000015172200021MAX ENERGY             PTN           MMR11007140438110012870714000000000000000   10300001 00104100000000003120000000000000     
100   95050316231020800000000000040000000000040000002000000010410407151157102710674109320715000007496066   1030000200030000   333800010001203104000003327KBZPay                 Yangon        MMR11007151157102710670715000000000000000   10300001F05104100000000008400000000000000     
100   95050319528093960000000000000990000000000990002000000010410407151616504650985371980715000007497019   1020000200030000   333400010001204104000000281Myanmar Soft-Gate Tech Yangon        MMR11007151616504650980715000000000000000   10300001F05104100000000000208000000000000     
100   95050321057500320000000000002970000000002970002000000010410407150441511151433172900715000007493106   1020000200030000   333400010001204104000000281Myanmar Soft-Gate Tech Yangon        MMR11007150441511151430715000000000000000   10300001F05104100000000000624000000000000     
100   95050318141561190000000000010000000000010000002000000010410407150925355535827804120715000007495268   1040001600030000   333800010001220104000004507A +                    Yangon        MMR11007150925355535820715000000000000000   10300001F05104100000000002100000000000000     
100   95050318048516790000000000030000000000030000002000000010410407150740461046684208210715000007494392   1030000200030000   333800010001203104000003327KBZPay                 Yangon        MMR11007150740461046680715000000000000000   10300001F05104100000000006300000000000000     
100   95050319220344710000000000002970000000002970002000000010410407150648111811387754310715000007494002   1020000200030000   333400010001204104000000281Myanmar Soft-Gate Tech Yangon        MMR11007150648111811380715000000000000000   10300001F05104100000000000624000000000000     
100   95050315144447320000000000004100000000004100002000000010410407151037060064145407260715000750144452   1030000200030000   541188001432000008000000401KBZ BANK               OCEAN SUPERCE MMR11007151037060064140715000000000000000   10300001 00104100000000001025000000000000     
100   95050315557781210000000000003000000000003000002000000010410407150232080208128421650715000007491959   1030000200030000   333800010001203104000003327KBZPay                 Yangon        MMR11007150232080208120715000000000000000   10300001F05104100000000000630000000000000     
100   95050313411345710000000000016000000000016000002000000010410407150235430543316769170715000007491976   1030000200030000   3338000100012031040000040022C2P (Myanmar) Co. Ltd Yangon        MMR11007150235430543310715000000000000000   10300001F05104100000000003360000000000000     
100   95050319881452370000000000300000000000300000002000000010410407151032020202305265020715000007495751   1030000200030000   333800010001203104000003327KBZPay                 Yangon        MMR11007151032020202300715000000000000000   10300001F05104100000000063000000000000000     
100   95050312498129060000000000004950000000004950002000000010410407151134330433231144740715000007496002   1020000200030000   333400010001204104000000281Myanmar Soft-Gate Tech Yangon        MMR11007151134330433230715000000000000000   10300001F05104100000000001040000000000000     
100   95050314996291580000000000000990000000000990002000000010410407151053142314463683840715000007495860   1020000200030000   333400010001204104000000281Myanmar Soft-Gate Tech Yangon        MMR11007151053142314460715000000000000000   10300001F05104100000000000208000000000000     
100   95050310080023760000000000020077000000020077002000000010410407140604380008042129880714219512000804   1030000500030000   531120155802000045311201558GAMONE PWINT           PTN           MMR11007140604380008040714000000000000000   10300001 00104100000000004818000000000000     
100   62911028202804010000000000005800000000005800002000000010410407150840422669774773800715560101542195   1030000900030000   541119000112190110000000077Sein Gay Har Chinatown YANGON        MMR11007150840422669770715000000000000000   10300001F00104100000000000348000000000000     
100   62911028202460140000000000005000000000005000002000000010410407141038530013294773800714219517001329   1030000500030000   598320002104000015172200021MAX ENERGY             PTN           MMR11007141038530013290714000000000000000   10300001 00104100000000000150000000000000     
100   95030310098554020000000000038000000000038000002000000010410407140249580071354773800714000355380332   1030000300030000   806200000197000000000000097CB BANK                AUNG YADANA H MMR11007140249580071350714000000000000000   10300001F00104100000000002280000000000000     
100   95050310213446310000000000002970000000002970002000000010410407150750002000787257890715000007494477   1020000200030000   333400010001204104000000281Myanmar Soft-Gate Tech Yangon        MMR11007150750002000780715000000000000000   10300001F05104100000000000624000000000000     
100   95050316311487940000000000008400000000008400002000000010410407150613222630576527310715628431222195   1030000900030000   541119001213190110000000949City Mart YK Season C  YANGONAUNG    MMR11007150613222630570715000000000000000   10300001F00104100000000002100000000000000     
100   62911028202790560000000000017000000000017000002000000010410407151848190137614773800715000750185320   1030000200030000   541188001081000008000000294KBZ BANK               CITY MART - J MMR11007151848190137610715000000000000000   10300001 00104100000000001020000000000000     
100   95030314863516850000000000026000000000026000002000000010410407141832410241334773800715000007491441   1030000200030000   333800010001203104000003327KBZPay                 Yangon        MMR11007141832410241330715000000000000000   10300001F05104100000000005460000000000000     
100   62443100395535610000000000100000000000100000002000000010410407151044421442244024220715000007495824   1030000200030000   333800010001203104000003327KBZPay                 Yangon        MMR11007151044421442240715000000000000000   10300001F05104100000000021000000000000000     
100   95030314863516850000000000032000000000032000002000000010410407141853162316574773800715000007491452   1030000200030000   333800010001203104000003327KBZPay                 Yangon        MMR11007141853162316570715000000000000000   10300001F05104100000000006720000000000000     
100   95050310427855490000000000002970000000002970002000000010410407151149021902340804350715000007496044   1020000200030000   333400010001204104000000281Myanmar Soft-Gate Tech Yangon        MMR11007151149021902340715000000000000000   10300001F05104100000000000624000000000000     
100   95050326393773020000000000002970000000002970002000000010410407150753452345587342980715000007494505   1020000200030000   333400010001204104000000281Myanmar Soft-Gate Tech Yangon        MMR11007150753452345580715000000000000000   10300001F05104100000000000624000000000000     
100   62911028202188490000000000054500000000054500002000000010410407150959420231954773800715000750142002   1030000200030000   541188001070000008000000314KBZ BANK               MARKETPLACE - MMR11007150959420231950715000000000000000   10300001 00104100000000003270000000000000     
100   62911028202163480000000000300000000000300000002000000010410407150441551155644773800715000007493113   1030000200030000   333800010001203104000003327KBZPay                 Yangon        MMR11007150441551155640715000000000000000   10300001F05104100000000063000000000000000     
100   95050314570621780000000000000990000000000990002000000010410407150740541054402555720715000007494396   1020000200030000   333400010001204104000000281Myanmar Soft-Gate Tech Yangon        MMR11007150740541054400715000000000000000   10300001F05104100000000000208000000000000     
100   62443100372702000000000001000000000001000000002000000010410407151049301930615676710715000007495845   1040001600030000   333800010001220104000004507A +                    Yangon        MMR11007151049301930610715000000000000000   10300001F05104100000000210000000000000000     
100   95050311458479980000000000005000000000005000002000000010410407151346461646911655320715000007496481   1030000200030000   3338000100012031040000040022C2P (Myanmar) Co. Ltd Yangon        MMR11007151346461646910715000000000000000   10300001F05104100000000001050000000000000     
100   95050314307746340000000000000990000000000990002000000010410407150444501450001435320715000007493141   1020000200030000   333400010001204104000000281Myanmar Soft-Gate Tech Yangon        MMR11007150444501450000715000000000000000   10300001F05104100000000000208000000000000     
100   62443100372702000000000000400000000000400000002000000010410407151052422242973598740715000007495858   1040001600030000   333800010001220104000004507A +                    Yangon        MMR11007151052422242970715000000000000000   10300001F05104100000000084000000000000000     
100   95050319502933380000000000000990000000000990002000000010410407150936560656622591380715000007495353   1020000200030000   333400010001204104000000281Myanmar Soft-Gate Tech Yangon        MMR11007150936560656620715000000000000000   10300001F05104100000000000208000000000000     
100   95050316311487940000000000050000000000050000002000000010410407151333350335518520540715000007496423   1030000200030000   333800010001203104000003327KBZPay                 Yangon        MMR11007151333350335510715000000000000000   10300001F05104100000000010500000000000000     
100   95050311736839760000000000001980000000001980002000000010410407150733590359147413930715000007494336   1020000200030000   333400010001204104000000281Myanmar Soft-Gate Tech Yangon        MMR11007150733590359140715000000000000000   10300001F05104100000000000416000000000000     
100   95050318601641810000000000004950000000004950002000000010410407150231580158506684080715000007491960   1020000200030000   333400010001204104000000281Myanmar Soft-Gate Tech Yangon        MMR11007150231580158500715000000000000000   10300001F05104100000000001040000000000000     
100   95050311736839760000000000000990000000000990002000000010410407151238580858281229840715000007496203   1020000200030000   333400010001204104000000281Myanmar Soft-Gate Tech Yangon        MMR11007151238580858280715000000000000000   10300001F05104100000000000208000000000000     
100   62911028202163480000000000300000000000300000002000000010410407150440151015374773800715000007493100   1030000200030000   333800010001203104000003327KBZPay                 Yangon        MMR11007150440151015370715000000000000000   10300001F05104100000000063000000000000000     
100   95050325787151080000000000030000000000030000002000000010410407151049111911172371740715000007495844   1030000200030000   333800010001203104000003327KBZPay                 Yangon        MMR11007151049111911170715000000000000000   10300001F05104100000000006300000000000000     
100   95050315259054570000000000003500000000003500002000000010410407151052452245351946260715000007495859   1030000200030000   333800010001203104000003327KBZPay                 Yangon        MMR11007151052452245350715000000000000000   10300001F05104100000000000735000000000000     
100   62911028202349600000000000009600000000009600002000000010410407150430550055424773800715000007493033   1030000200030000   3338000100012031040000040022C2P (Myanmar) Co. Ltd Yangon        MMR11007150430550055420715000000000000000   10300001F05104100000000002016000000000000     
100   62911028202804010000000000030078000000030078002000000010410407151355180217704773800715000750163839   1030000200030000   541188001080000008000000294KBZ BANK               CITY MART - J MMR11007151355180217700715000000000000000   10300001 00104100000000001805000000000000     
100   62911028202163480000000000300000000000300000002000000010410407150438580858474773800715000007493087   1030000200030000   333800010001203104000003327KBZPay                 Yangon        MMR11007150438580858470715000000000000000   10300001F05104100000000063000000000000000     
100   95050316573091630000000000004950000000004950002000000010410407150342011201805747650715000007492582   1020000200030000   333400010001204104000000281Myanmar Soft-Gate Tech Yangon        MMR11007150342011201800715000000000000000   10300001F05104100000000001040000000000000     
100   95050312498129060000000000010890000000010890002000000010410407151254512451532967420715000007496267   1020000200030000   333400010001204104000000281Myanmar Soft-Gate Tech Yangon        MMR11007151254512451530715000000000000000   10300001F05104100000000002287000000000000     
100   95050313970192050000000000022400000000022400002000000010410407150604332628187037890715500341233195   1030000900030000   541119000122190110000000080Sein Gay Har BAK       YANGONADA     MMR11007150604332628180715000000000000000   10300001F00104100000000005600000000000000     
100   95050312499482960000000000021615000000021615002000000010410407151924130188714619900715000750186670   1030000200030000   541188001020000008000000298KBZ BANK               CITY MART - M MMR11007151924130188710715000000000000000   10300001 00104100000000005404000000000000     
100   62911028202651050000000000048100000000048100002000000010410407151157380321234773800715000750152133   1030000200030000   541188001042000008000000010KBZ BANK               MARKETPLACE - MMR11007151157380321230715000000000000000   10300001 00104100000000002886000000000000     
100   95050314979630620000000000000990000000000990002000000010410407151434510451978435450715000007496669   1020000200030000   333400010001204104000000281Myanmar Soft-Gate Tech Yangon        MMR11007151434510451970715000000000000000   10300001F05104100000000000208000000000000     
100   95050312020318170000000000030000000000030000002000000010410407150138210821584301020715000007491745   1030000200030000   333800010001203104000003327KBZPay                 Yangon        MMR11007150138210821580715000000000000000   10300001F05104100000000006300000000000000     
100   62911028202163480000000000100000000000100000002000000010410407150443331333124773800715000007493127   1030000200030000   333800010001203104000003327KBZPay                 Yangon        MMR11007150443331333120715000000000000000   10300001F05104100000000021000000000000000     
100   95050312695033440000000000000990000000000990002000000010410407151444271427956782960715000007496702   1020000200030000   333400010001204104000000281Myanmar Soft-Gate Tech Yangon        MMR11007151444271427950715000000000000000   10300001F05104100000000000208000000000000     
100   95050312498129060000000000002970000000002970002000000010410407150244291429056428790715000007492019   1020000200030000   333400010001204104000000281Myanmar Soft-Gate Tech Yangon        MMR11007150244291429050715000000000000000   10300001F05104100000000000624000000000000     
100   95050312498129060000000000001980000000001980002000000010410407151248481848709662450715000007496245   1020000200030000   333400010001204104000000281Myanmar Soft-Gate Tech Yangon        MMR11007151248481848700715000000000000000   10300001F05104100000000000416000000000000     
100   95050312595952760000000000014850000000014850002000000010410407151551282128625130480715000007496962   1020000200030000   333400010001204104000000281Myanmar Soft-Gate Tech Yangon        MMR11007151551282128620715000000000000000   10300001F05104100000000003119000000000000     
100   62443100340422630000000000019743000000019743002000000010410407151853040061917839770715000750185517   1030000200030000   541188001005000008000000008KBZ BANK               MARKETPLACE - MMR11007151853040061910715000000000000000   10300001 00104100000000004936000000000000     
100   62911028202175690000000000055680000000055680002000000010410407150319140057694773800715000750141359   1030000200030000   569988000803000008000004614KBZ BANK               JCY-IPANEMA   MMR11007150319140057690715000000000000000   10300001 00104100000000003341000000000000     
100   95050318141561190000000000010000000000010000002000000010410407150655342534937669220715000007494055   1040001600030000   333800010001220104000004507A +                    Yangon        MMR11007150655342534930715000000000000000   10300001F05104100000000002100000000000000     
100   95050319528093960000000000000990000000000990002000000010410407150649261926049406790715000007494014   1020000200030000   333400010001204104000000281Myanmar Soft-Gate Tech Yangon        MMR11007150649261926040715000000000000000   10300001F05104100000000000208000000000000     
100   62911028202790980000000000085000000000085000002000000010410407140354160086954773800714219503008695   1030000600030000   554100001812315799420001187DENKO  SHWE TAUNG      SHWE TAUNG    MMR11007140354160086950714000000000000000   10300001 00104100000000002550000000000000     
100   95050316785465380000000000000990000000000990002000000010410407150636330633828009600715000007493923   1020000200030000   333400010001204104000000281Myanmar Soft-Gate Tech Yangon        MMR11007150636330633820715000000000000000   10300001F05104100000000000208000000000000     
100   62911028202132460000000000019200000000019200002000000010410407151148202723014773800715380181820195   1030000900030000   541119001207190110000000948City Mart YK C 5       YANGONAUNG    MMR11007151148202723010715000000000000000   10300001F00104100000000001152000000000000     
100   62443100333488440000000000028000000000028000002000000010410407140205250002982877600714000355374806   1030000300030000   531100001408000000000000962CB BANK                G & G CONVENI MMR11007140205250002980714000000000000000   10300001F00104100000000006720000000000000     
100   95050319528093960000000000002970000000002970002000000010410407151346271627767038250715000007496482   1020000200030000   333400010001204104000000281Myanmar Soft-Gate Tech Yangon        MMR11007151346271627760715000000000000000   10300001F05104100000000000624000000000000     
100   95050314307746340000000000001980000000001980002000000010410407150442311231753087800715000007493112   1020000200030000   333400010001204104000000281Myanmar Soft-Gate Tech Yangon        MMR11007150442311231750715000000000000000   10300001F05104100000000000416000000000000     
100   95050322954091830000000000080500000000080500002000000010410407150814354435567853560715000007494677   1030000200030000   333800010001203104000003327KBZPay                 Yangon        MMR11007150814354435560715000000000000000   10300001F05104100000000016905000000000000     
100   95050323667276610000000000004950000000004950002000000010410407150717474747560548700715000007494218   1020000200030000   333400010001204104000000281Myanmar Soft-Gate Tech Yangon        MMR11007150717474747560715000000000000000   10300001F05104100000000001040000000000000     
100   62911028202313470000000000059890000000059890002000000010410407151156472725414773800715510261847195   1030000900030000   541119001358190110000000977Ocean PZD C 12         YANGONAUNG    MMR11007151156472725410715000000000000000   10300001F00104100000000003593000000000000     
100   62911028202142930000000000016000000000016000002000000010410407150631563352444773800715219613335244   1040001600030000   598320000659000000010000528Shwe Taung Energy (YGN Yangon        MMR11007150631563352440715000000000000000   10300001F00104100000000000480000000000000     
100   95050327416134790000000000004950000000004950002000000010410407150506453645067704870715000007493327   1020000200030000   333400010001204104000000281Myanmar Soft-Gate Tech Yangon        MMR11007150506453645060715000000000000000   10300001F05104100000000001040000000000000     
100   62911028202919290000000000100000000000100000002000000010410407150418414841234773800715000007492928   1030000200030000   333800010001203104000003327KBZPay                 Yangon        MMR11007150418414841230715000000000000000   10300001F05104100000000021000000000000000     
100   95050312595952760000000000001980000000001980002000000010410407150801433143757683370715000007494566   1020000200030000   333400010001204104000000281Myanmar Soft-Gate Tech Yangon        MMR11007150801433143750715000000000000000   10300001F05104100000000000416000000000000     
100   95050311458479980000000000002000000000002000002000000010410407151350232023090002830715000007496489   1030000200030000   3338000100012031040000040022C2P (Myanmar) Co. Ltd Yangon        MMR11007151350232023090715000000000000000   10300001F05104100000000000420000000000000     
100   95050317876216360000000000001980000000001980002000000010410407150551202120715470500715000007493635   1020000200030000   333400010001204104000000281Myanmar Soft-Gate Tech Yangon        MMR11007150551202120710715000000000000000   10300001F05104100000000000416000000000000     
100   95050310332595380000000000000990000000000990002000000010410407151405573557095045380715000007496562   1020000200030000   333400010001204104000000281Myanmar Soft-Gate Tech Yangon        MMR11007151405573557090715000000000000000   10300001F05104100000000000208000000000000     
100   62911028202204490000000000029000000000029000002000000010410407141100140010264773800714219517001026   1030000500030000   598320001203000015172200012MAX ENERGY             PTN           MMR11007141100140010260714000000000000000   10300001 00104100000000000870000000000000     
100   95050322295410690000000000020000000000020000002000000010410407150327222585379648300715339570922195   1030000900030000   554119000348190110000000215New Day Energy MYG     YANGONONE     MMR11007150327222585370715000000000000000   10300001F00104100000000002400000000000000     
100   62911028202662690000000000027900000000027900002000000010410407140607090009824773800714219512000982   1030000500030000   598320001203000015172200012MAX ENERGY             PTN           MMR11007140607090009820714000000000000000   10300001 00104100000000000837000000000000     
100   95030367537085740000000000000990000000000990002000000010410407150505023502974773800715000007493316   1020000200030000   333400010001204104000000281Myanmar Soft-Gate Tech Yangon        MMR11007150505023502970715000000000000000   10300001F05104100000000000208000000000000     
100   95050319006804440000000000005400000000005400002000000010410407151103292708830463970715563331729195   1030000900030000   541119000124190110000000080Sein Gay Har BAK       YANGONADA     MMR11007151103292708830715000000000000000   10300001F00104100000000001350000000000000     
100   95050313145843230000000000010000000000010000002000000010410407150502053205722747420715000007493281   1030000200030000   333800010001203104000003327KBZPay                 Yangon        MMR11007150502053205720715000000000000000   10300001F05104100000000002100000000000000     
100   95030305700676370000000000060000000000060000002000000010410407150453023282414773800715219611328241   1040001600030000   598320000316000000010000304PT Power Petrol Statio Yangon        MMR11007150453023282410715000000000000000   10300001F00104100000000001800000000000000     
100   62443100318296470000000000028000000000028000002000000010410407151002123479373272150715219617347937   1040001600030000   598320000658000000010000527Shwe Taung Energy (YGN Yangon        MMR11007151002123479370715000000000000000   10300001F00104100000000003360000000000000     
100   95050310427855490000000000001980000000001980002000000010410407151107583758298811480715000007495899   1020000200030000   333400010001204104000000281Myanmar Soft-Gate Tech Yangon        MMR11007151107583758290715000000000000000   10300001F05104100000000000416000000000000     
100   62443100371022130000000000025700000000025700002000000010410407151033232700518981680715126031723195   1030000900030000   541119000128190110000000082Sein Gay Har Super Cen YANGON        MMR11007151033232700510715000000000000000   10300001F00104100000000006425000000000000     
100   95050318214455130000000000004950000000004950002000000010410407150906463646820853790715000007495114   1020000200030000   333400010001204104000000281Myanmar Soft-Gate Tech Yangon        MMR11007150906463646820715000000000000000   10300001F05104100000000001040000000000000     
100   95050320531117320000000000036600000000036600002000000010410407150821362664523576880715296511436195   1030000900030000   541119001262190110000000958City Mart PLST C 5     YANGONMYOTHIT MMR11007150821362664520715000000000000000   10300001F00104100000000009150000000000000     
100   95050317876216360000000000000990000000000990002000000010410407150601453145230427950715000007493696   1020000200030000   333400010001204104000000281Myanmar Soft-Gate Tech Yangon        MMR11007150601453145230715000000000000000   10300001F05104100000000000208000000000000     
100   62911028202666570000000000019012000000019012002000000010410407140622360012054773800714219512001205   1030000500030000   531120156008000045311201560GAMONE PWINT           PTN           MMR11007140622360012050714000000000000000   10300001 00104100000000001141000000000000     
100   62911028202491410000000000031500000000031500002000000010410407140444070047074773800714219504004707   1030000600030000   809900000542315799420000147GRAND HANTHA HOSPITAL  YANGON        MMR11007140444070047070714000000000000000   10300001 00104100000000001890000000000000     
100   95050321057500320000000000002970000000002970002000000010410407150446591659842577230715000007493164   1020000200030000   333400010001204104000000281Myanmar Soft-Gate Tech Yangon        MMR11007150446591659840715000000000000000   10300001F05104100000000000624000000000000     
100   62443100372702000000000001000000000001000000002000000010410407151051052105328641290715000007495852   1040001600030000   333800010001220104000004507A +                    Yangon        MMR11007151051052105320715000000000000000   10300001F05104100000000210000000000000000     
100   62911028202198620000000000020000000000020000002000000010410407151205212727704773800715639351821195   1030000900030000   554119001100190110000000212New Day Energy PZD     YANGON        MMR11007151205212727700715000000000000000   10300001F00104100000000000600000000000000     
100   62911028202490830000000000500000000000500000002000000010410407140845230004854773800714219515000485   1030000500030000   806220046404006308062200464ASIA ROYAL HOSPITAL    PTN           MMR11007140845230004850714000000000000000   10300001 00104100000000030000000000000000     
100   62911028202464020000000000024050000000024050002000000010410407150922133453234773800715219616345323   1040001600030000   591220000276000000010000264Shwe Ohh Pharmacy (YGH Yangon        MMR11007150922133453230715000000000000000   10300001F00104100000000001443000000000000     
100   62443100300743690000000000028000000000028000002000000010410407151224103630746187290715219619363074   1040001600030000   598320000911000000010000662MMTM - Tamwe           Ygn           MMR11007151224103630740715000000000000000   10300001F00104100000000003360000000000000     
100   95050316091358640000000000050000000000050000002000000010410407150103213321199343560715000007491652   1030000200030000   333800010001203104000003327KBZPay                 Yangon        MMR11007150103213321190715000000000000000   10300001F05104100000000010500000000000000     
100   95050311419479170000000000002000000000002000002000000010410407150814204420502896110715000007494678   1030000200030000   3334000100012031040000040102C2P (Myanmar) Co. Ltd Yangon        MMR11007150814204420500715000000000000000   10300001F05104100000000000420000000000000     
100   95050318712627500000000000002970000000002970002000000010410407150317004700358421290715000007492344   1020000200030000   333400010001204104000000281Myanmar Soft-Gate Tech Yangon        MMR11007150317004700350715000000000000000   10300001F05104100000000000624000000000000     
100   95050316785465380000000000000990000000000990002000000010410407150521435143002236840715000007493440   1020000200030000   333400010001204104000000281Myanmar Soft-Gate Tech Yangon        MMR11007150521435143000715000000000000000   10300001F05104100000000000208000000000000     
100   95050319211130030000000000044000000000044000002000000010410407151037252701662286650715191071725195   1030000900030000   729819000986190110000000793Eliza Skin RepublicWai YANGONOKKALAP MMR11007151037252701660715000000000000000   10300001F00104100000000010560000000000000     
100   62911028202313470000000000012400000000012400002000000010410407151201452726664773800715583311845195   1030000900030000   541119001358190110000000977Ocean PZD C 12         YANGONAUNG    MMR11007151201452726660715000000000000000   10300001F00104100000000000744000000000000     
100   62911028202280120000000000045000000000045000002000000010410407150049053150714773800715219607315071   1040001600030000   806220000002000000010000001Victoria Hospital      Yangon        MMR11007150049053150710715000000000000000   10300001F00104100000000002700000000000000     
100   95050312618592720000000000040000000000040000002000000010410407150606003600455385400715000007493728   1030000200030000   333800010001203104000003327KBZPay                 Yangon        MMR11007150606003600450715000000000000000   10300001F05104100000000008400000000000000     
100   62911028202416760000000000030000000000030000002000000010410407150715143380224773800715219614338022   1040001600030000   598320000854000000010000608Terminal Petrol Statio Yangon        MMR11007150715143380220715000000000000000   10300001F00104100000000000900000000000000     
100   62911028202147720000000000008200000000008200002000000010410407140900260010864773800714219515001086   1030000500030000   541120227507000045411202275CITY MART (AHLONE BRAN PTN           MMR11007140900260010860714000000000000000   10300001 00104100000000000492000000000000     
100   95050319528093960000000000001980000000001980002000000010410407150501363136784484990715000007493283   1020000200030000   333400010001204104000000281Myanmar Soft-Gate Tech Yangon        MMR11007150501363136780715000000000000000   10300001F05104100000000000416000000000000     
100   62443100328070970000000000011800000000011800002000000010410407130642420011375020350713219413001137   1030000500030000   541120226206000045411202262CITY MART ZAWANA       PTN           MMR11007130642420011370713000000000000000   10300001 00104100000000002950000000000000     
100   95050320093758110000000000020500000000020500002000000010410407151018580002303101950715000750178544   1030000200030000   541188002081000008000005515KBZ BANK               KHIT THIT MAY MMR11007151018580002300715000000000000000   10300001 00104100000000005125000000000000     
100   62443100381153960000000000299900000000299900002000000010410407150801520001512725920715000750167226   1030000200030000   481281231057000008000001454KBZ BANK               SUPER MOBILE  MMR11007150801520001510715000000000000000   10300001 00104100000000071976000000000000     
100   62911028202233510000000000048650000000048650002000000010410407141106270005244773800714219517000524   1030000500030000   531120226306000045311202263OCEAN SUPER CENTER STJ PTN           MMR11007141106270005240714000000000000000   10300001 00104100000000002919000000000000     
100   62911028202206880000000000004400000000004400002000000010410407140630030004674773800714219513000467   1030000500030000   531120226306000045311202263OCEAN SUPER CENTER STJ PTN           MMR11007140630030004670714000000000000000   10300001 00104100000000000264000000000000     
100   95050311836400730000000000010000000000010000002000000010410407151117564756160974550715000007495949   1030000200030000   333800010001203104000003327KBZPay                 Yangon        MMR11007151117564756160715000000000000000   10300001F05104100000000002100000000000000     
100   95050325787151080000000000001000000000001000002000000010410407150221105110204606110715000007491909   1030000200030000   333800010001203104000003327KBZPay                 Yangon        MMR11007150221105110200715000000000000000   10300001F05104100000000000210000000000000     
100   62911028202446540000000000095350000000095350002000000010410407150457283285344773800715219611328534   1040001600030000   591220000279000000010000267Shwe Ohh Pharmacy (Ar  Yangon        MMR11007150457283285340715000000000000000   10300001F00104100000000005721000000000000     
100   62911028202665250000000000070800000000070800002000000010410407150718103381944773800715219614338194   1040001600030000   591220000263000000010000251Shwe Ohh Pharmacy (KM- Yangon        MMR11007150718103381940715000000000000000   10300001F00104100000000004248000000000000     
100   62911028202000450000000000004950000000004950002000000010410407150305463546244773800715000007492206   1020000200030000   333400010001204104000000281Myanmar Soft-Gate Tech Yangon        MMR11007150305463546240715000000000000000   10300001F05104100000000001040000000000000     
100   95030314863516850000000000008300000000008300002000000010410407141857072707714773800715000007491457   1030000200030000   333800010001203104000003327KBZPay                 Yangon        MMR11007141857072707710715000000000000000   10300001F05104100000000001743000000000000     
100   62911028202169750000000000006950000000006950002000000010410407150945393467924773800715219616346792   1040001600030000   591220000282000000010000270Shwe Ohh Pharmacy (Shw Yangon        MMR11007150945393467920715000000000000000   10300001F00104100000000000417000000000000     
100   62911028202280120000000000020000000000020000002000000010410407150051333151974773800715219607315197   1040001600030000   806220000002000000010000001Victoria Hospital      Yangon        MMR11007150051333151970715000000000000000   10300001F00104100000000001200000000000000     
100   62443100379321630000000000042000000000042000002000000010410407140730170005555775230714000355423678   1030000300030000   598300001210000000000000817CB BANK                SHWE TAUNG EN MMR11007140730170005550714000000000000000   10300001F00104100000000005040000000000000     
100   62911028202243590000000000030500000000030500002000000010410407140123160006774773800714219507000677   1030000500030000   598320041904000055983200419MAX ENERGY             PTN           MMR11007140123160006770714000000000000000   10300001 00104100000000000915000000000000     
100   62911028202110420000000000009750000000009750002000000010410407141035070008894773800714219517000889   1030000500030000   541120229107000045411202291CITY MART YANKIN       PTN           MMR11007141035070008890714000000000000000   10300001 00104100000000000585000000000000     
100   95050312360118350000000000011000000000011000002000000010410407140958110001622448400714219516000162   1030000500030000   573220038801000015732200388REMAX                  PTN           MMR11007140958110001620714000000000000000   10300001 00104100000000002640000000000000     
100   62443100379321630000000000064800000000064800002000000010410407140526050007366034240714000355404213   1030000300030000   541100002337000000000000102CB BANK                MAKRO MYANMAR MMR11007140526050007360714000000000000000   10300001F00104100000000016200000000000000     
100   62911028202312890000000000030000000000030000002000000010410407140343420012454773800714219510001245   1030000500030000   598320002004000015172200020MAX ENERGY             PTN           MMR11007140343420012450714000000000000000   10300001 00104100000000000900000000000000     
100   62911028202233510000000000007604000000007604002000000010410407141107400005264773800714219517000526   1030000500030000   531120226306000045311202263OCEAN SUPER CENTER STJ PTN           MMR11007141107400005260714000000000000000   10300001 00104100000000000456000000000000     
100   95030308100042590000000000047501000000047501002000000010410407140530300009824773800714219512000982   1030000500030000   598320001704000015172200017MAX ENERGY             PTN           MMR11007140530300009820714000000000000000   10300001 00104100000000001425000000000000     
100   62911028202094340000000000005000000000005000002000000010410407150614484448724773800715000007493787   1030000200030000   333800010001203104000003327KBZPay                 Yangon        MMR11007150614484448720715000000000000000   10300001F05104100000000001050000000000000     
100   62443100300743690000000000003400000000003400002000000010410407151131122717539492260715059011812195   1030000900030000   541119001237190110000000952Marketplace KTY Season YANGONARTAUNG MMR11007151131122717530715000000000000000   10300001F00104100000000000850000000000000     
100   95050318712627500000000000001980000000001980002000000010410407150702243224915931630715000007494113   1020000200030000   333400010001204104000000281Myanmar Soft-Gate Tech Yangon        MMR11007150702243224910715000000000000000   10300001F05104100000000000416000000000000     
100   95050328384000040000000000122500000000122500002000000010410407150936122684491023990715280061612195   1030000900030000   541119000547190110000000394Super One ShoppingMall YANGON        MMR11007150936122684490715000000000000000   10300001F00104100000000030625000000000000     
100   95050312498129060000000000001980000000001980002000000010410407150406353635953754780715000007492824   1020000200030000   333400010001204104000000281Myanmar Soft-Gate Tech Yangon        MMR11007150406353635950715000000000000000   10300001F05104100000000000416000000000000     
100   95030314863516850000000000023000000000023000002000000010410407141810364036274773800715000007491418   1030000200030000   333800010001203104000003327KBZPay                 Yangon        MMR11007141810364036270715000000000000000   10300001F05104100000000004830000000000000     
100   95050311959900780000000000000990000000000990002000000010410407150220195019039648660715000007491903   1020000200030000   333400010001204104000000281Myanmar Soft-Gate Tech Yangon        MMR11007150220195019030715000000000000000   10300001F05104100000000000208000000000000     
100   95050319391394380000000000007550000000007550002000000010410407151056202706815336330715456261720195   1030000900030000   541119000120190110000000080Sein Gay Har BAK       YANGONADA     MMR11007151056202706810715000000000000000   10300001F00104100000000001888000000000000     
100   62911028202313470000000000050000000000050000002000000010410407140942300012864773800714219516001286   1030000500030000   598320001602000015172200016MAX ENERGY             PTN           MMR11007140942300012860714000000000000000   10300001 00104100000000001500000000000000     
100   62911028202150190000000000050000000000050000002000000010410407140428380018524773800714219510001852   1030000500030000   598320001204000015172200012MAX ENERGY             PTN           MMR11007140428380018520714000000000000000   10300001 00104100000000001500000000000000     
100   62911028202423360000000000002400000000002400002000000010410407141115480009904773800714219517000990   1030000500030000   531120226718000045311202267OCEAN NORTH POINT      PTN           MMR11007141115480009900714000000000000000   10300001 00104100000000000144000000000000     
100   62911028202460140000000000025000000000025000002000000010410407141037230013284773800714219517001328   1030000500030000   598320002104000015172200021MAX ENERGY             PTN           MMR11007141037230013280714000000000000000   10300001 00104100000000000750000000000000     
100   95030318100004530000000000027500000000027500002000000010410407140824490000674773800714219514000067   1030000500030000   503920036905017205039200369PRO-1 HOME CENTER      PTN           MMR11007140824490000670714000000000000000   10300001 00104100000000001650000000000000     
100   95030308100042590000000000123000000000123000002000000010410407140531120009844773800714219512000984   1030000500030000   598320001704000015172200017MAX ENERGY             PTN           MMR11007140531120009840714000000000000000   10300001 00104100000000003690000000000000     
100   62911028202147720000000000012850000000012850002000000010410407140856280018194773800714219515001819   1030000500030000   541120227504000045411202275CITY MART (AHLONE BRAN PTN           MMR11007140856280018190714000000000000000   10300001 00104100000000000771000000000000     
100   62443101037081820000000000063000000000063000002000000010410407140824010009995278440714219514000999   1030000500030000   598320001203000015172200012MAX ENERGY             PTN           MMR11007140824010009990714000000000000000   10300001 00104100000000007560000000000000     
100   95030363090756500000000000030000000000030000002000000010410407151055103530504773800715219617353050   1040001600030000   598320000660000000010000529Shwe Taung Energy (NPT Naypyitaw     MMR11007151055103530500715000000000000000   10300001F00104100000000000900000000000000     
100   95050319211130030000000000028550000000028550002000000010410407151215263620666612770715219619362066   1040001600030000   591220000288000000010000276Shwe Ohh Pharmacy (Nor Yangon        MMR11007151215263620660715000000000000000   10300001F00104100000000006852000000000000     
100   95050312695033440000000000000990000000000990002000000010410407150006573657289939240715000007491587   1020000200030000   333400010001204104000000281Myanmar Soft-Gate Tech Yangon        MMR11007150006573657280715000000000000000   10300001F05104100000000000208000000000000     
100   95050319528093960000000000001980000000001980002000000010410407151458202820441740410715000007496751   1020000200030000   333400010001204104000000281Myanmar Soft-Gate Tech Yangon        MMR11007151458202820440715000000000000000   10300001F05104100000000000416000000000000     
100   95050319703729630000000000200000000000200000002000000010410407151602363236963477990715000007496987   1030000200030000   333800010001203104000003327KBZPay                 Yangon        MMR11007151602363236960715000000000000000   10300001F05104100000000042000000000000000     
100   95050310332595380000000000000990000000000990002000000010410407151307493749663052510715000007496329   1020000200030000   333400010001204104000000281Myanmar Soft-Gate Tech Yangon        MMR11007151307493749660715000000000000000   10300001F05104100000000000208000000000000     
100   62911028202773650000000000010000000000010000002000000010410407150709333933624773800715000007494153   1030000200030000   333800010001203104000003327KBZPay                 Yangon        MMR11007150709333933620715000000000000000   10300001F05104100000000002100000000000000     
100   95050311458479980000000000001000000000001000002000000010410407151417434743408350350715000007496608   1030000200030000   3338000100012031040000040022C2P (Myanmar) Co. Ltd Yangon        MMR11007151417434743400715000000000000000   10300001F05104100000000000210000000000000     
100   62443101023815100000000000025300000000025300002000000010410407141111070008076469790714219517000807   1030000500030000   541120227501000045411202275CITY MART (AHLONE BRAN PTN           MMR11007141111070008070714000000000000000   10300001 00104100000000006325000000000000     
100   62443100371022130000000000020620000000020620002000000010410407141003460016334100880714219516001633   1030000500030000   598320001202000015172200012MAX ENERGY             PTN           MMR11007141003460016330714000000000000000   10300001 00104100000000002474000000000000     
100   95050328035424750000000000173700000000173700002000000010410407140738160006835945430714219514000683   1030000500030000   531120231207000045311202312OCEAN OATTARA THIRI    PTN           MMR11007140738160006830714000000000000000   10300001 00104100000000041688000000000000     
100   62911028202423360000000000004200000000004200002000000010410407141058550011384773800714219517001138   1030000500030000   531120226738000045311202267OCEAN NORTH POINT      PTN           MMR11007141058550011380714000000000000000   10300001 00104100000000000252000000000000     
100   62911028202790310000000000050000000000050000002000000010410407140323210012504773800714219509001250   1030000500030000   598320001602000015172200016MAX ENERGY             PTN           MMR11007140323210012500714000000000000000   10300001 00104100000000001500000000000000     
100   62911028202423360000000000007450000000007450002000000010410407141042500009004773800714219517000900   1030000500030000   531120226737000045311202267OCEAN NORTH POINT      PTN           MMR11007141042500009000714000000000000000   10300001 00104100000000000447000000000000     
100   62911028202540670000000000040000000000040000002000000010410407140056560037904773800714219500003790   1030000600030000   554100001238315799420000692DENKO  SHWE NYAUNG     SHWE NYAUNG   MMR11007140056560037900714000000000000000   10300001 00104100000000001200000000000000     
100   62443100303702210000000000588278000000588278002000000010410407140708020052920697030714000355420195   1030000300030000   531100000604000000000000408CB BANK                CAPITAL HYPER MMR11007140708020052920714000000000000000   10300001F00104100000000141187000000000000     
100   95050311959900780000000000000990000000000990002000000010410407150217444744260570570715000007491894   1020000200030000   333400010001204104000000281Myanmar Soft-Gate Tech Yangon        MMR11007150217444744260715000000000000000   10300001F05104100000000000208000000000000     
100   95050320205194540000000000037550000000037550002000000010410407151035592701263939130715165051759195   1030000900030000   591219000969190110000000776Shwe Ohh Pharmacy St ( YANGONADA     MMR11007151035592701260715000000000000000   10300001F00104100000000009012000000000000     
100   95050327416134790000000000001980000000001980002000000010410407151301103110744704990715000007496291   1020000200030000   333400010001204104000000281Myanmar Soft-Gate Tech Yangon        MMR11007151301103110740715000000000000000   10300001F05104100000000000416000000000000     
100   95050321455580800000000000061000000000061000002000000010410407150500553055837789960715000007493274   1030000200030000   333800010001203104000003327KBZPay                 Yangon        MMR11007150500553055830715000000000000000   10300001F05104100000000012810000000000000     
100   95030329830382620000000000100000000000100000002000000010410407151003433343984773800715000007495591   1030000200030000   333800010001203104000003327KBZPay                 Yangon        MMR11007151003433343980715000000000000000   10300001F05104100000000021000000000000000     
100   95050328074436620000000000004950000000004950002000000010410407150806363636449506050715000007494603   1020000200030000   333400010001204104000000281Myanmar Soft-Gate Tech Yangon        MMR11007150806363636440715000000000000000   10300001F05104100000000001040000000000000     
100   95030314863516850000000000025000000000025000002000000010410407141711084108564773800715000007491351   1030000200030000   333800010001203104000003327KBZPay                 Yangon        MMR11007141711084108560715000000000000000   10300001F05104100000000005250000000000000     
100   95050313732480420000000000003960000000003960002000000010410407150717164716925591250715000007494215   1020000200030000   333400010001204104000000281Myanmar Soft-Gate Tech Yangon        MMR11007150717164716920715000000000000000   10300001F05104100000000000832000000000000     
100   95050311779172060000000000007500000000007500002000000010410407140255450042175282160714000355381062   1030000300030000   591200000314000000000000195CB BANK                MEDICARE STOR MMR11007140255450042170714000000000000000   10300001F00104100000000001800000000000000     
100   62911028202088990000000000030000000000030000002000000010410407140427550064944773800714219504006494   1030000600030000   554100001211315799420000663DENKO  TETKONE         TETKONE       MMR11007140427550064940714000000000000000   10300001 00104100000000000900000000000000     
100   62443100303702210000000000087000000000087000002000000010410407140739100594984292940714219507059498   1030000600030000   554100001756315799420001137DENKO NORTH DAGON 2    YANGON        MMR11007140739100594980714000000000000000   10300001 00104100000000010440000000000000     
100   62443100300412100000000000047000000000047000002000000010410407140419210990850530560714219504099085   1030000600030000   554100000946315799420000471DENKO BAHAN            YANGON        MMR11007140419210990850714000000000000000   10300001 00104100000000005640000000000000     
100   95050326154591400000000000003200000000003200002000000010410407140907400029034938050714219515002903   1030000500030000   541120226403000045411202264MARKET PLACE MYANMARPL PTN           MMR11007140907400029030714000000000000000   10300001 00104100000000000800000000000000     
100   62911028202136750000000000030000000000030000002000000010410407141146540029054773800714219518002905   1030000500030000   598320001903000015172200019MAX ENERGY             PTN           MMR11007141146540029050714000000000000000   10300001 00104100000000000900000000000000     
100   95050324622440820000000000019850000000019850002000000010410407141328330025413074010714000355473974   1030000300030000   541100000241000000000000133CB BANK                G & G CONVENI MMR11007141328330025410714000000000000000   10300001F00104100000000004963000000000000     
100   95030310098554020000000000160260000000160260002000000010410407141249220071694773800714000355469099   1030000300030000   806200000197000000000000097CB BANK                AUNG YADANA H MMR11007141249220071690714000000000000000   10300001F00104100000000009616000000000000     
100   62911028202800470000000000046300000000046300002000000010410407151156282725274773800715502261828195   1030000900030000   541119001208190110000000948City Mart YK C 6       YANGONAUNG    MMR11007151156282725270715000000000000000   10300001F00104100000000002778000000000000     
100   62443101093150400000000000024000000000024000002000000010410407150515523298347279390715219612329834   1040001600030000   598320000838000000010000600Regency Petrol Station Ygn           MMR11007150515523298340715000000000000000   10300001F00104100000000002880000000000000     
100   95050322426452690000000000045000000000045000002000000010410407151159293602897584480715219618360289   1040001600030000   598320000320000000010000308PT Power Petrol Statio Yangon        MMR11007151159293602890715000000000000000   10300001F00104100000000005400000000000000     
100   95050316818236190000000000001980000000001980002000000010410407150424335433439697740715000007492986   1020000200030000   333400010001204104000000281Myanmar Soft-Gate Tech Yangon        MMR11007150424335433430715000000000000000   10300001F05104100000000000416000000000000     
100   95030308100042590000000000170500000000170500002000000010410407150954272689284773800715532241627195   1030000900030000   541119001219190110000000945City Mart TM C 4       YANGONONE     MMR11007150954272689280715000000000000000   10300001F00104100000000010230000000000000     
100   95050311048637960000000000009300000000009300002000000010410407150950202688136577120715467201620195   1030000900030000   541119000123190110000000080Sein Gay Har BAK       YANGON        MMR11007150950202688130715000000000000000   10300001F00104100000000002325000000000000     
100   95050317915469510000000000010000000000010000002000000010410407151200003000980889450715000007496076   1030000200030000   333800010001203104000003327KBZPay                 Yangon        MMR11007151200003000980715000000000000000   10300001F05104100000000002100000000000000     
100   95050320531117320000000000050000000000050000002000000010410407150218223198567911080715219609319856   1040001600030000   598320001064000000010000784Yangon Petrol (Min Ye  Ygn           MMR11007150218223198560715000000000000000   10300001F00104100000000006000000000000000     
100   62911028202163630000000000010000000000010000002000000010410407140520082588334773800714219512258833   1040001600030000   598320000856000000010000609Terminal Petrol Statio Yangon        MMR11007140520082588330714000000000000000   10300001F00104100000000000300000000000000     
100   95030301100121270000000000025000000000025000002000000010410407140939172745714773800714219516274571   1040001600030000   598320000918000000010000665MMTM - Thingangyun     Ygn           MMR11007140939172745710714000000000000000   10300001F00104100000000000750000000000000     
100   62443100372718280000000000093300000000093300002000000010410407151123200061407534680715000750148784   1030000200030000   541188001005000008000000008KBZ BANK               MARKETPLACE - MMR11007151123200061400715000000000000000   10300001 00104100000000023325000000000000     
100   95050314307746340000000000001980000000001980002000000010410407150439040904576477870715000007493086   1020000200030000   333400010001204104000000281Myanmar Soft-Gate Tech Yangon        MMR11007150439040904570715000000000000000   10300001F05104100000000000416000000000000     
100   62911028202471780000000000250000000000250000002000000010410407150642361236974773800715000007493967   1030000200030000   333800010001203104000003327KBZPay                 Yangon        MMR11007150642361236970715000000000000000   10300001F05104100000000052500000000000000     
100   62911028202175510000000000175000000000175000002000000010410407150425122600764773800715110551012195   1030000900030000   541119000127190110000000082Sein Gay Har Super Cen YANGON        MMR11007150425122600760715000000000000000   10300001F00104100000000010500000000000000     
100   95050317003064220000000000000990000000000990002000000010410407150351302130980960390715000007492669   1020000200030000   333400010001204104000000281Myanmar Soft-Gate Tech Yangon        MMR11007150351302130980715000000000000000   10300001F05104100000000000208000000000000     
100   95050311736839760000000000000990000000000990002000000010410407150736480648315676350715000007494365   1020000200030000   333400010001204104000000281Myanmar Soft-Gate Tech Yangon        MMR11007150736480648310715000000000000000   10300001F05104100000000000208000000000000     
100   62911028202665250000000000026850000000026850002000000010410407150721523384004773800715219614338400   1040001600030000   591220000263000000010000251Shwe Ohh Pharmacy (KM- Yangon        MMR11007150721523384000715000000000000000   10300001F00104100000000001611000000000000     
100   95050316997303010000000000300000000000300000002000000010410407150206163616936208790715000007491842   1030000200030000   333800010001203104000003327KBZPay                 Yangon        MMR11007150206163616930715000000000000000   10300001F05104100000000063000000000000000     
100   95050320335873810000000000065000000000065000002000000010410407150929245924956151630715000007495301   1030000200030000   333800010001203104000003327KBZPay                 Yangon        MMR11007150929245924950715000000000000000   10300001F05104100000000013650000000000000     
100   62443100317500820000000000050000000000050000002000000010410407151426275627786697860715000007496632   1030000200030000   333800010001203104000003327KBZPay                 Yangon        MMR11007151426275627780715000000000000000   10300001F05104100000000010500000000000000     
100   62443100345308040000000000001000000000001000002000000010410407151026315631923782730715000007495726   1030000900030000   333400010001202104000002022ACS                    Yangon        MMR11007151026315631920715000000000000000   10300001F05104100000000000210000000000000     
100   95050325787151080000000000000500000000000500002000000010410407150224125412329173370715000007491921   1030000200030000   333800010001203104000003327KBZPay                 Yangon        MMR11007150224125412320715000000000000000   10300001F05104100000000000105000000000000     
100   95050312210363590000000000002000000000002000002000000010410407151024535453758740180715000007495719   1030000200030000   333800010001203104000003327KBZPay                 Yangon        MMR11007151024535453750715000000000000000   10300001F05104100000000000420000000000000     
100   95050312360118350000000000005000000000005000002000000010410407141922295229104896690715000007491473   1030000200030000   333800010001203104000003327KBZPay                 Yangon        MMR11007141922295229100715000000000000000   10300001F05104100000000001050000000000000     
