100   62443100323117100000000000100000000000100000002000000010410407160825245524589412880716000007499081   1030000200030000   333800010001203104000003327KBZPay                 Yangon        MMR11007160825245524580716000000000000000   10300001F05104100000000021000000000000000     
100   95050319528093960000000000000990000000000990002000000010410407160712244224958391720716000007498805   1020000200030000   333400010001204104000000281Myanmar Soft-Gate Tech Yangon        MMR11007160712244224950716000000000000000   10300001F05104100000000000208000000000000     
100   62911028202133940000000000032500000000032500002000000010410407161131444626374773800716014438652469   1040001400030000   592110000088015921100000365Million Mart Million M rt No. (519/  MMR11007161131444626370716000000000000000   10300001 00104100000000001950000000000000     
100   62911028202520380000000000040950000000040950002000000010410407151240280006324773800715219619000632   1030000500030000   541120020701022205411200207ORANGE (YDG)           PTN           MMR11007151240280006320715000000000000000   10300001 00104100000000002457000000000000     
100   95050326228858240000000000140504000000140504002000000010410407151544443809600173020715219622380960   1040001600030000   598320000315000000010000303PT Power Petrol Statio Yangon        MMR11007151544443809600715000000000000000   10300001F00104100000000016860000000000000     
100   62443100323117100000000000050000000000050000002000000010410407160830080008922802940716000007499094   1030000200030000   333800010001203104000003327KBZPay                 Yangon        MMR11007160830080008920716000000000000000   10300001F05104100000000010500000000000000     
100   95050312933828140000000000169500000000169500002000000010410407160502130000118556200716000750208052   1030000200030000   481288002133000008000005684KBZ BANK               POWER MOBILE- MMR11007160502130000110716000000000000000   10300001 00104100000000040680000000000000     
100   62911028202166940000000000083246000000083246002000000010410407161436580144784773800716000750216600   1030000200030000   541188001127000008000000296KBZ BANK               CITY MART - J MMR11007161436580144780716000000000000000   10300001 00104100000000004995000000000000     
100   62911028202207460000000000012600000000012600002000000010410407161122090237874773800716000750207484   1030000200030000   541188001054000008000000314KBZ BANK               MARKETPLACE - MMR11007161122090237870716000000000000000   10300001 00104100000000000756000000000000     
100   95050319870763910000000000000990000000000990002000000010410407160736270627299157580716000007498887   1020000200030000   333400010001204104000000281Myanmar Soft-Gate Tech Yangon        MMR11007160736270627290716000000000000000   10300001F05104100000000000208000000000000     
100   95050315017843630000000000000990000000000990002000000010410407161135330533460250050716000007499670   1020000200030000   333400010001204104000000281Myanmar Soft-Gate Tech Yangon        MMR11007161135330533460716000000000000000   10300001F05104100000000000208000000000000     
100   95050319870763910000000000001980000000001980002000000010410407160732080208655767520716000007498870   1020000200030000   333400010001204104000000281Myanmar Soft-Gate Tech Yangon        MMR11007160732080208650716000000000000000   10300001F05104100000000000416000000000000     
100   62443100348951400000000000300000000000300000002000000010410407160333390339311265490716000007497887   1030000200030000   333800010001203104000003327KBZPay                 Yangon        MMR11007160333390339310716000000000000000   10300001F05104100000000063000000000000000     
100   62911028202685390000000000046500000000046500002000000010410407161638280093004773800716000750222919   1030000200030000   541188001052000008000000010KBZ BANK               MARKETPLACE - MMR11007161638280093000716000000000000000   10300001 00104100000000002790000000000000     
100   95050316818236190000000000001980000000001980002000000010410407161032430243610164950716000007499488   1020000200030000   333400010001204104000000281Myanmar Soft-Gate Tech Yangon        MMR11007161032430243610716000000000000000   10300001F05104100000000000416000000000000     
100   95050311959900780000000000000990000000000990002000000010410407161437080708487540750716000007500280   1020000200030000   333400010001204104000000281Myanmar Soft-Gate Tech Yangon        MMR11007161437080708480716000000000000000   10300001F05104100000000000208000000000000     
100   62443100348951400000000000100000000000100000002000000010410407160336400640536308040716000007497899   1030000200030000   333800010001203104000003327KBZPay                 Yangon        MMR11007160336400640530716000000000000000   10300001F05104100000000021000000000000000     
100   62911028202107390000000000037500000000037500002000000010410407160837160020944773800716000750218140   1030000200030000   596588002422000008000006477KBZ BANK               AMERICAN COLL MMR11007160837160020940716000000000000000   10300001 00104100000000002250000000000000     
100   62911028202169750000000000028200000000028200002000000010410407161341190041754773800716000750213875   1030000200030000   581288000947000008000004873KBZ BANK               PIZZA HUT RES MMR11007161341190041750716000000000000000   10300001 00104100000000002876000000000000     
100   62443101065883000000000000156469000000156469002000000010410407161631350035651051570716000750222507   1030000200030000   541188001008000008000000008KBZ BANK               MARKETPLACE - MMR11007161631350035650716000000000000000   10300001 00104100000000039118000000000000     
100   95030301100119700000000000001200000000001200002000000010410407160954300061554773800716000750203896   1030000200030000   541188001321000008000000306KBZ BANK               CITY MART - S MMR11007160954300061550716000000000000000   10300001 00104100000000000072000000000000     
100   95030301100119700000000000020100000000020100002000000010410407161021590105834773800716000750204973   1030000200030000   541188001314000008000000306KBZ BANK               CITY MART - S MMR11007161021590105830716000000000000000   10300001 00104100000000001206000000000000     
100   95050315344668630000000000012416000000012416002000000010410407161142090061688300910716000750208435   1030000200030000   541188001066000008000000314KBZ BANK               MARKETPLACE - MMR11007161142090061680716000000000000000   10300001 00104100000000003104000000000000     
100   95050315110306410000000000003000000000003000002000000010410407161333130313992413110716000007500049   1030000200030000   333800010001203104000003327KBZPay                 Yangon        MMR11007161333130313990716000000000000000   10300001F05104100000000000630000000000000     
100   62443100348951400000000000300000000000300000002000000010410407160334300430253003070716000007497889   1030000200030000   333800010001203104000003327KBZPay                 Yangon        MMR11007160334300430250716000000000000000   10300001F05104100000000063000000000000000     
100   95050318057347910000000000043359000000043359002000000010410407161244190057937966240716000750211221   1030000200030000   541188001440000008000000401KBZ BANK               OCEAN SUPERCE MMR11007161244190057930716000000000000000   10300001 00104100000000010840000000000000     
100   62911028202524260000000000105200000000105200002000000010410407161117470250434773800716474757371620   1040001400030000   599910000222025999100001869MAHAR SAN USA Store nu l No-55  Byin MMR11007161117470250430716000000000000000   10300001 00104100000000006312000000000000     
100   95050312240830690000000000003960000000003960002000000010410407161435160516922583300716000007500275   1020000200030000   333400010001204104000000281Myanmar Soft-Gate Tech Yangon        MMR11007161435160516920716000000000000000   10300001F05104100000000000832000000000000     
100   95050311419479170000000000001980000000001980002000000010410407160735200520864115040716000007498881   1020000200030000   333400010001204104000000281Myanmar Soft-Gate Tech Yangon        MMR11007160735200520860716000000000000000   10300001F05104100000000000416000000000000     
100   62443100348951400000000000300000000000300000002000000010410407160335230523081350580716000007497894   1030000200030000   333800010001203104000003327KBZPay                 Yangon        MMR11007160335230523080716000000000000000   10300001F05104100000000063000000000000000     
100   62911028202169750000000000244587000000244587002000000010410407161437510069424773800716000750216648   1030000200030000   541188001004000008000000008KBZ BANK               MARKETPLACE - MMR11007161437510069420716000000000000000   10300001 00104100000000014675000000000000     
100   95050317084233280000000000000990000000000990002000000010410407160432020202023513650716000007498137   1020000200030000   333400010001204104000000281Myanmar Soft-Gate Tech Yangon        MMR11007160432020202020716000000000000000   10300001F05104100000000000208000000000000     
100   62443101093150400000000000019900000000019900002000000010410407160312392850783974780716014420939196   1030000900030000   591219000504190110000000351Shwe Ohh Pharmacy - (Y YANGONAW      MMR11007160312392850780716000000000000000   10300001F00104100000000004776000000000000     
100   95050314567755980000000000002600000000002600002000000010410407160457042704625251230716000007498240   1030000200030000   333800010001203104000003327KBZPay                 Yangon        MMR11007160457042704620716000000000000000   10300001F05104100000000000546000000000000     
100   95050319528093960000000000000990000000000990002000000010410407161053242324539909660716000007499560   1020000200030000   333400010001204104000000281Myanmar Soft-Gate Tech Yangon        MMR11007161053242324530716000000000000000   10300001F05104100000000000208000000000000     
100   62443100322986690000000000026000000000026000002000000010410407161104552969422157820716857341755196   1030000900030000   541119000152190110000000083SeinGayHarParami Cente YANGON        MMR11007161104552969420716000000000000000   10300001F00104100000000006500000000000000     
100   95050315017843630000000000001980000000001980002000000010410407161137380738383640110716000007499676   1020000200030000   333400010001204104000000281Myanmar Soft-Gate Tech Yangon        MMR11007161137380738380716000000000000000   10300001F05104100000000000416000000000000     
100   95050325787151080000000000002000000000002000002000000010410407160550212021209788910716000007498499   1030000200030000   333800010001203104000003327KBZPay                 Yangon        MMR11007160550212021200716000000000000000   10300001F05104100000000000420000000000000     
100   95050312675525330000000000008000000000008000002000000010410407160653332333290384590716000007498745   1030000200030000   333800010001203104000003327KBZPay                 Yangon        MMR11007160653332333290716000000000000000   10300001F05104100000000001680000000000000     
100   95050318699187280000000000007900000000007900002000000010410407161205532534779363430716355328796768   1040001400030000   555610000602025556100003510119 Store null No-119  Anawrahta Roa MMR11007161205532534770716000000000000000   10300001 00104100000000001975000000000000     
100   95050310332595380000000000000990000000000990002000000010410407160159382938075286880716000007497568   1020000200030000   333400010001204104000000281Myanmar Soft-Gate Tech Yangon        MMR11007160159382938070716000000000000000   10300001F05104100000000000208000000000000     
100   95050312173216740000000000015350000000015350002000000010410407160826482924911150450716104561448196   1030000900030000   541119001262190110000000958City Mart PLST C 5     YANGONMYOTHIT MMR11007160826482924910716000000000000000   10300001F00104100000000003838000000000000     
100   95050316043499650000000000020000000000020000002000000010410407161439340934755888270716000007500290   1030000200030000   333800010001203104000003327KBZPay                 Yangon        MMR11007161439340934750716000000000000000   10300001F05104100000000004200000000000000     
100   62443100322986690000000000015350000000015350002000000010410407161124332974743980490716200541733196   1030000900030000   541119000147190110000000083SeinGayHarParami Cente YANGON        MMR11007161124332974740716000000000000000   10300001F00104100000000003838000000000000     
100   62911028202542160000000000559800000000559800002000000010410407160346342858624773800716383161034196   1030000900030000   729819000945190110000000752SML Clinic             YANGON        MMR11007160346342858620716000000000000000   10300001F00104100000000033588000000000000     
100   62443100306045460000000000157050000000157050002000000010410407160731182910167420010716263011418196   1030000900030000   541119000374190110000000178Pro (1) Global (East D YANGONMYOTHIT MMR11007160731182910160716000000000000000   10300001F00104100000000039263000000000000     
100   95030308100042590000000000714000000000714000002000000010410407160858362933174773800716584281536196   1030000900030000   541119000283190110000000177Pro1 Global (Insein)   YANGON        MMR11007160858362933170716000000000000000   10300001F00104100000000042840000000000000     
100   62443100323428970000000000073450000000073450002000000010410407160952072947864696920716477221607196   1030000900030000   591219000503190110000000350Shwe Ohh Pharmacy (WZD YANGONNGKUUN  MMR11007160952072947860716000000000000000   10300001F00104100000000017628000000000000     
100   62911028202523840000000000052850000000052850002000000010410407160524134116844773800716219712411684   1040001600030000   591220000269000000010000257Shwe Ohh Pharmacy (Tam Yangon        MMR11007160524134116840716000000000000000   10300001F00104100000000003171000000000000     
100   62443100355903280000000000001980000000001980002000000010410407161345581558187455660716000007500092   1020000200030000   333400010001204104000000281Myanmar Soft-Gate Tech Yangon        MMR11007161345581558180716000000000000000   10300001F05104100000000000416000000000000     
100   95050325787151080000000000002000000000002000002000000010410407160538250825444746370716000007498445   1030000200030000   333800010001203104000003327KBZPay                 Yangon        MMR11007160538250825440716000000000000000   10300001F05104100000000000420000000000000     
100   95050314307746340000000000000990000000000990002000000010410407160556282628704831460716000007498525   1020000200030000   333400010001204104000000281Myanmar Soft-Gate Tech Yangon        MMR11007160556282628700716000000000000000   10300001F05104100000000000208000000000000     
100   62911028202248050000000000009800000000009800002000000010410407161109382970954773800716967391738196   1030000900030000   541119001336190110000000971Ocean Junction NPT C 1 NAYPYITAW     MMR11007161109382970950716000000000000000   10300001F00104100000000000588000000000000     
100   95050315110306410000000000003000000000003000002000000010410407160540401040363093880716000007498456   1030000200030000   333800010001203104000003327KBZPay                 Yangon        MMR11007160540401040360716000000000000000   10300001F05104100000000000630000000000000     
100   95050312173216740000000000009900000000009900002000000010410407160652052901658306620716785221305196   1030000900030000   541119001288190110000000964City Mart SPL Season C YANGONMYOTHIT MMR11007160652052901650716000000000000000   10300001F00104100000000002475000000000000     
100   62911028202700480000000000219650000000219650002000000010410407160648482900854773800716745181348196   1030000900030000   541119001260190110000000958City Mart PLST C 3     YANGONMYOTHIT MMR11007160648482900850716000000000000000   10300001F00104100000000013179000000000000     
100   62911028202631340000000000019050000000019050002000000010410407161133022976714773800716315031802196   1030000900030000   541119001373190110000000979Ocean PZD City Care C- YANGONAUNG    MMR11007161133022976710716000000000000000   10300001F00104100000000001143000000000000     
100   95030363090756500000000000073952000000073952002000000010410407161345173005374773800716011152017196   1030000900030000   541119001329190110000000971Ocean Junction NPT C 7 NAYPYITAW     MMR11007161345173005370716000000000000000   10300001F00104100000000004437000000000000     
100   95050312498129060000000000000990000000000990002000000010410407160438580858296818620716000007498175   1020000200030000   333400010001204104000000281Myanmar Soft-Gate Tech Yangon        MMR11007160438580858290716000000000000000   10300001F05104100000000000208000000000000     
100   95050314567755980000000000000500000000000500002000000010410407160557252725473178980716000007498529   1030000200030000   333800010001203104000003327KBZPay                 Yangon        MMR11007160557252725470716000000000000000   10300001F05104100000000000105000000000000     
100   95050311121153200000000000000990000000000990002000000010410407160842391239506193000716000007499134   1020000200030000   333400010001204104000000281Myanmar Soft-Gate Tech Yangon        MMR11007160842391239500716000000000000000   10300001F05104100000000000208000000000000     
100   95050325787151080000000000001000000000001000002000000010410407160958282828479739470716000007499390   1030000200030000   333800010001203104000003327KBZPay                 Yangon        MMR11007160958282828470716000000000000000   10300001F05104100000000000210000000000000     
100   95050315158357300000000000000990000000000990002000000010410407161353482348130760620716000007500124   1020000200030000   333400010001204104000000281Myanmar Soft-Gate Tech Yangon        MMR11007161353482348130716000000000000000   10300001F05104100000000000208000000000000     
100   62443100323428970000000000094900000000094900002000000010410407160950282947416349410716447201628196   1030000900030000   591219000503190110000000350Shwe Ohh Pharmacy (WZD YANGONNGKUUN  MMR11007160950282947410716000000000000000   10300001F00104100000000022776000000000000     
100   95050313817486860000000000004950000000004950002000000010410407160405173517777875420716000007498020   1020000200030000   333400010001204104000000281Myanmar Soft-Gate Tech Yangon        MMR11007160405173517770716000000000000000   10300001F05104100000000001040000000000000     
100   95050327192897240000000000033500000000033500002000000010410407160820452923224455430716995501445196   1030000900030000   541119001219190110000000945City Mart TM C 4       YANGONONE     MMR11007160820452923220716000000000000000   10300001F00104100000000008375000000000000     
100   95050310494988230000000000002970000000002970002000000010410407161405213521499108140716000007500170   1020000200030000   333400010001204104000000281Myanmar Soft-Gate Tech Yangon        MMR11007161405213521490716000000000000000   10300001F05104100000000000624000000000000     
100   95050312529325420000000000030000000000030000002000000010410407160254382438628932240716000007497714   1030000200030000   3338000100012031040000040022C2P (Myanmar) Co. Ltd Yangon        MMR11007160254382438620716000000000000000   10300001F05104100000000006300000000000000     
100   95030325264619140000000000203800000000203800002000000010410407160429394080824773800716219711408082   1040001600030000   591220000274000000010000262Shwe Ohh Pharmacy (Shw Yangon        MMR11007160429394080820716000000000000000   10300001F00104100000000012228000000000000     
100   95030399326190680000000000503000000000503000002000000010410407160501502876264773800716385311150196   1030000900030000   806219001119190110000000900Shwe La Min Hospital L YANGONAW      MMR11007160501502876260716000000000000000   10300001F00104100000000030180000000000000     
100   62443100300412100000000000014200000000014200002000000010410407160903012934345937710716657331501196   1030000900030000   541119001162190110000000930OCEAN HTY C 12         YANGONTHARYA  MMR11007160903012934340716000000000000000   10300001F00104100000000003550000000000000     
100   62443100357925510000000000010200000000010200002000000010410407160825242924477845490716075551424196   1030000900030000   541119000881190110000000084Pro (1) Global (Pazund YANGONARTAUNG MMR11007160825242924470716000000000000000   10300001F00104100000000002550000000000000     
100   95030301100128610000000000040000000000040000002000000010410407161252472995134773800716433221947196   1030000900030000   554119001099190110000000211New Day Energy SCH     YANGONUNG     MMR11007161252472995130716000000000000000   10300001F00104100000000001200000000000000     
100   95050315110306410000000000015000000000015000002000000010410407161345301530045718080716000007500091   1030000200030000   333800010001203104000003327KBZPay                 Yangon        MMR11007161345301530040716000000000000000   10300001F05104100000000003150000000000000     
100   95050314287403810000000000002970000000002970002000000010410407161453072307396129770716000007500334   1020000200030000   333400010001204104000000281Myanmar Soft-Gate Tech Yangon        MMR11007161453072307390716000000000000000   10300001F05104100000000000624000000000000     
100   62911028202169750000000000026200000000026200002000000010410407160323282852934773800716113530928196   1030000900030000   541119001218190110000000945City Mart TM C 3       YANGONONE     MMR11007160323282852930716000000000000000   10300001F00104100000000001572000000000000     
100   95050315738465950000000000090000000000090000002000000010410407161008432952302789150716748381643196   1030000900030000   481219000913190110000000722Snoopy Mobile ( 4 )Lat YANGON        MMR11007161008432952300716000000000000000   10300001F00104100000000021600000000000000     
100   95050322312885760000000000006000000000006000002000000010410407160759462946868817200716000007498983   1030000200030000   333800010001203104000003327KBZPay                 Yangon        MMR11007160759462946860716000000000000000   10300001F05104100000000001260000000000000     
100   62911028202473840000000000011900000000011900002000000010410407160405072863314773800716650351007196   1030000900030000   591219000504190110000000351Shwe Ohh Pharmacy - (Y YANGONAW      MMR11007160405072863310716000000000000000   10300001F00104100000000000714000000000000     
100   62443100397667340000000000067800000000067800002000000010410407161048582964434952210716528181758196   1030000900030000   541119001244190110000000955City Mart JS C 3       YANGONUT      MMR11007161048582964430716000000000000000   10300001F00104100000000016950000000000000     
100   95050319528093960000000000000990000000000990002000000010410407151654492449238676940716000007497089   1020000200030000   333400010001204104000000281Myanmar Soft-Gate Tech Yangon        MMR11007151654492449230716000000000000000   10300001F05104100000000000208000000000000     
100   62911028202148140000000000100000000000100000002000000010410407160218534008064773800716219709400806   1040001600030000   591220000258000000010000246Shwe Ohh Pharmacy (Sin Yangon        MMR11007160218534008060716000000000000000   10300001F00104100000000006000000000000000     
100   95050314287403810000000000004950000000004950002000000010410407161448151815367782250716000007500317   1020000200030000   333400010001204104000000281Myanmar Soft-Gate Tech Yangon        MMR11007161448151815360716000000000000000   10300001F05104100000000001040000000000000     
100   95050320205194540000000000051610000000051610002000000010410407161228502989972753500716127581850196   1030000900030000   541119001261190110000000958City Mart PLST C 4     YANGONMYOTHIT MMR11007161228502989970716000000000000000   10300001F00104100000000012903000000000000     
100   62911028202542160000000000043800000000043800002000000010410407161132552976694773800716314021855196   1030000900030000   541119001242190110000000955City Mart JS C 1       YANGONUT      MMR11007161132552976690716000000000000000   10300001F00104100000000002628000000000000     
100   62911028202010920000000000017900000000017900002000000010410407150149420002664773800715219608000266   1030000500030000   581220123001000045812201230YOON KITCHEN           PTN           MMR11007150149420002660715000000000000000   10300001 00104100000000001826000000000000     
100   95030360829747230000000000042750000000042750002000000010410407150501100002594773800715000355577215   1030000300030000   591200000187000000000000092CB BANK                MEDICARE STOR MMR11007150501100002590715000000000000000   10300001F00104100000000002565000000000000     
100   62911028202651050000000000017725000000017725002000000010410407161617160378974773800716000750221745   1030000200030000   541188001041000008000000010KBZ BANK               MARKETPLACE - MMR11007161617160378970716000000000000000   10300001 00104100000000001064000000000000     
100   95030301100119700000000000036000000000036000002000000010410407160951460061544773800716000750203788   1030000200030000   541188001321000008000000306KBZ BANK               CITY MART - S MMR11007160951460061540716000000000000000   10300001 00104100000000002160000000000000     
100   62443100388528570000000000029700000000029700002000000010410407160211164116715797460716000007497605   1020000200030000   333400010001204104000000281Myanmar Soft-Gate Tech Yangon        MMR11007160211164116710716000000000000000   10300001F05104100000000006237000000000000     
100   62911028202443730000000000015065000000015065002000000010410407161108510167544773800716000750206957   1030000200030000   541188001023000008000000298KBZ BANK               CITY MART - M MMR11007161108510167540716000000000000000   10300001 00104100000000000904000000000000     
100   95050324622440820000000000045800000000045800002000000010410407160306312849620584720716957360931196   1030000900030000   541119000882190110000000084Pro (1) Global (Pazund YANGONARTAUNG MMR11007160306312849620716000000000000000   10300001F00104100000000011450000000000000     
100   95050310314438940000000000022000000000022000002000000010410407161044581458975207500716000007499542   1030000200030000   333800010001203104000003327KBZPay                 Yangon        MMR11007161044581458970716000000000000000   10300001F05104100000000004620000000000000     
100   62443100355903280000000000003000000000003000002000000010410407161547121712431172320716000007500488   1030000200030000   3334000100012031040000040102C2P (Myanmar) Co. Ltd Yangon        MMR11007161547121712430716000000000000000   10300001F05104100000000000630000000000000     
100   95050319178423260000000000010000000000010000002000000010410407151952382238917109560716000007497283   1030000200030000   333800010001203104000003327KBZPay                 Yangon        MMR11007151952382238910716000000000000000   10300001F05104100000000002100000000000000     
100   95050324082484780000000000022750000000022750002000000010410407161017102954696179220716908471610196   1030000900030000   591219001418190110000001022Life Plus Store 23     MANDALAYHARSA MMR11007161017102954690716000000000000000   10300001F00104100000000005460000000000000     
100   95050319528093960000000000004950000000004950002000000010410407160714364436486739240716000007498814   1020000200030000   333400010001204104000000281Myanmar Soft-Gate Tech Yangon        MMR11007160714364436480716000000000000000   10300001F05104100000000001040000000000000     
100   62443100348951400000000000300000000000300000002000000010410407160323155315452407400716000007497849   1030000200030000   333800010001203104000003327KBZPay                 Yangon        MMR11007160323155315450716000000000000000   10300001F05104100000000063000000000000000     
100   95050314979630620000000000000990000000000990002000000010410407161215484548642668400716000007499807   1020000200030000   333400010001204104000000281Myanmar Soft-Gate Tech Yangon        MMR11007161215484548640716000000000000000   10300001F05104100000000000208000000000000     
100   62443100373945130000000000020000000000020000002000000010410407161200004415491015910716219719441549   1040001600030000   598320000911000000010000662MMTM - Tamwe           Ygn           MMR11007161200004415490716000000000000000   10300001F00104100000000002400000000000000     
100   62911028202417260000000000014500000000014500002000000010410407161137002977914773800716384071800196   1030000900030000   591219000601190110000000441Shwe Ohh Pharmacy St-3 YANGON        MMR11007161137002977910716000000000000000   10300001F00104100000000000870000000000000     
100   62443100369813440000000000020000000000020000002000000010410407150259390003088591480715219609000308   1030000500030000   598320001303000015172200013MAX ENERGY             PTN           MMR11007150259390003080715000000000000000   10300001 00104100000000002400000000000000     
100   62911028202594880000000000043700000000043700002000000010410407150320390019954773800715219609001995   1030000500030000   541120229102000045411202291CITY MART YANKIN       PTN           MMR11007150320390019950715000000000000000   10300001 00104100000000002622000000000000     
100   62443100345308040000000000010000000000010000002000000010410407160344311431914655550716000007497951   1030000900030000   333400010001202104000002022ACS                    Yangon        MMR11007160344311431910716000000000000000   10300001F05104100000000002100000000000000     
100   95050317176867660000000000001980000000001980002000000010410407151641451145783719490716000007497067   1020000200030000   333400010001204104000000281Myanmar Soft-Gate Tech Yangon        MMR11007151641451145780716000000000000000   10300001F05104100000000000416000000000000     
100   62443100333488440000000000025000000000025000002000000010410407150926170002134584250715219615000213   1030000500030000   541120228601000045411202286CITY EXPRESS (MCS - 11 PTN           MMR11007150926170002130715000000000000000   10300001 00104100000000006250000000000000     
100   95050313970192050000000000008900000000008900002000000010410407150628300002708094700715219612000270   1030000500030000   541120232801000045411202328CITY EXPRESS (MCS - 34 PTN           MMR11007150628300002700715000000000000000   10300001 00104100000000002225000000000000     
100   95050328384000040000000000033000000000033000002000000010410407150126160013332648530715219607001333   1030000500030000   598320002101000015172200021MAX ENERGY             PTN           MMR11007150126160013330715000000000000000   10300001 00104100000000003960000000000000     
100   95030314863516850000000000025000000000025000002000000010410407160425325532744773800716000007498104   1030000200030000   333800010001203104000003327KBZPay                 Yangon        MMR11007160425325532740716000000000000000   10300001F05104100000000005250000000000000     
100   95050317518971470000000000010000000000010000002000000010410407161019014901331221760716000007499461   1030000200030000   3338000100012031040000040022C2P (Myanmar) Co. Ltd Yangon        MMR11007161019014901330716000000000000000   10300001F05104100000000002100000000000000     
100   95050321044701600000000000010500000000010500002000000010410407160908344263457590190716219716426345   1040001600030000   541120000573000000010000465Ocean Shwe Gone Daing  Yangon        MMR11007160908344263450716000000000000000   10300001F00104100000000002625000000000000     
100   62911028202790980000000000085000000000085000002000000010410407160625544160694773800716219713416069   1040001600030000   598320000322000000010000310PT Power Petrol Statio Yangon        MMR11007160625544160690716000000000000000   10300001F00104100000000002550000000000000     
100   62911028202595200000000000024428000000024428002000000010410407160614484152964773800716219713415296   1040001600030000   598320000658000000010000527Shwe Taung Energy (YGN Yangon        MMR11007160614484152960716000000000000000   10300001F00104100000000000733000000000000     
100   95050321044701600000000000049907000000049907002000000010410407160859234257864625610716219715425786   1040001600030000   541120000559000000010000465Ocean Shwe Gone Daing  Yangon        MMR11007160859234257860716000000000000000   10300001F00104100000000012477000000000000     
100   95050325925517520000000000030450000000030450002000000010410407150715440012588896220715219613001258   1030000500030000   503920036604000015039200366PRO-1 HOME CENTER      PTN           MMR11007150715440012580715000000000000000   10300001 00104100000000007308000000000000     
100   95050328212196190000000000057000000000057000002000000010410407150632230002549747180715219613000254   1030000500030000   531120155803000045311201558GAMONE PWINT           PTN           MMR11007150632230002540715000000000000000   10300001 00104100000000013680000000000000     
100   62911028202690570000000000025875000000025875002000000010410407150845190018824773800715219615001882   1030000500030000   598320001404000015172200014MAX ENERGY             PTN           MMR11007150845190018820715000000000000000   10300001 00104100000000000776000000000000     
100   95030308100042590000000000095734000000095734002000000010410407150644070010354773800715219613001035   1030000500030000   598320001704000015172200017MAX ENERGY             PTN           MMR11007150644070010350715000000000000000   10300001 00104100000000002872000000000000     
100   62443100372718280000000000035696000000035696002000000010410407150122390010885953490715219607001088   1030000500030000   598320001203000015172200012MAX ENERGY             PTN           MMR11007150122390010880715000000000000000   10300001 00104100000000004284000000000000     
100   95030308100042590000000000014800000000014800002000000010410407150457520000144773800715000355576740   1030000300030000   581400000753000000000000518CB BANK                KFC (HLD)     MMR11007150457520000140715000000000000000   10300001F00104100000000000444000000000000     
100   62911028202464020000000000017700000000017700002000000010410407150458520001614773800715219611000161   1030000500030000   591220014301014405912200143SHWE OHH PHARMACY      PTN           MMR11007150458520001610715000000000000000   10300001 00104100000000001062000000000000     
100   62911028202448030000000000080000000000080000002000000010410407150150500018074773800715219608001807   1030000500030000   598320001201000015172200012MAX ENERGY             PTN           MMR11007150150500018070715000000000000000   10300001 00104100000000002400000000000000     
100   62911028202464020000000000001750000000001750002000000010410407150524560001624773800715219611000162   1030000500030000   591220014301014405912200143SHWE OHH PHARMACY      PTN           MMR11007150524560001620715000000000000000   10300001 00104100000000000105000000000000     
100   62911028202703370000000000030000000000030000002000000010410407150731440006684773800715219614000668   1030000500030000   598320001701000015172200017MAX ENERGY             PTN           MMR11007150731440006680715000000000000000   10300001 00104100000000000900000000000000     
100   95050327192897240000000000012150000000012150002000000010410407160743534210087505100716219714421008   1040001600030000   591220000289000000010000277Shwe Ohh Pharmacy (Par Yangon        MMR11007160743534210080716000000000000000   10300001F00104100000000002916000000000000     
100   62911028202466670000000000301100000000301100002000000010410407160718474195324773800716219714419532   1040001600030000   591220000276000000010000264Shwe Ohh Pharmacy (YGH Yangon        MMR11007160718474195320716000000000000000   10300001F00104100000000018066000000000000     
100   62911028202331290000000000155600000000155600002000000010410407160531104121934773800716219712412193   1040001600030000   591220000295000000010000283Shwe Ohh Pharmacy (39t Yangon        MMR11007160531104121930716000000000000000   10300001F00104100000000009336000000000000     
100   95050310494988230000000000004950000000004950002000000010410407161312524252541101010716000007499982   1020000200030000   333400010001204104000000281Myanmar Soft-Gate Tech Yangon        MMR11007161312524252540716000000000000000   10300001F05104100000000001040000000000000     
100   95030301100102610000000000020000000000020000002000000010410407160628025802284773800716000007498651   1030000200030000   333800010001203104000003327KBZPay                 Yangon        MMR11007160628025802280716000000000000000   10300001F05104100000000004200000000000000     
100   95050310332595380000000000000990000000000990002000000010410407161221495149194405980716000007499825   1020000200030000   333400010001204104000000281Myanmar Soft-Gate Tech Yangon        MMR11007161221495149190716000000000000000   10300001F05104100000000000208000000000000     
100   62443100345308040000000000001000000000001000002000000010410407151712104210477024460716000007497118   1030000900030000   333400010001202104000002022ACS                    Yangon        MMR11007151712104210470716000000000000000   10300001F05104100000000000210000000000000     
100   62911028202350170000000000030000000000030000002000000010410407160411234123554773800716000007498050   1030000200030000   333800010001203104000003327KBZPay                 Yangon        MMR11007160411234123550716000000000000000   10300001F05104100000000006300000000000000     
100   95050324154190880000000000018000000000018000002000000010410407151401390018553307800715219620001855   1030000500030000   598320001402000015172200014MAX ENERGY             PTN           MMR11007151401390018550715000000000000000   10300001 00104100000000002160000000000000     
100   62911028202423360000000000003500000000003500002000000010410407151120080007924773800715219617000792   1030000500030000   531120226711000045311202267OCEAN NORTH POINT      PTN           MMR11007151120080007920715000000000000000   10300001 00104100000000000210000000000000     
100   62911028202446540000000000026000000000026000002000000010410407151135290014154773800715219618001415   1030000500030000   598320002101000015172200021MAX ENERGY             PTN           MMR11007151135290014150715000000000000000   10300001 00104100000000000780000000000000     
100   62911028202133940000000000058000000000058000002000000010410407150113580018114773800715219607001811   1030000500030000   598320001404000015172200014MAX ENERGY             PTN           MMR11007150113580018110715000000000000000   10300001 00104100000000001740000000000000     
100   62911028202150190000000000010050000000010050002000000010410407150817420009074773800715219614000907   1030000500030000   541120229107000045411202291CITY MART YANKIN       PTN           MMR11007150817420009070715000000000000000   10300001 00104100000000000603000000000000     
100   62443101037081820000000000024500000000024500002000000010410407150831580003294803880715000355610716   1030000300030000   581200002377000000000001599CB BANK                MYANMAR BAKER MMR11007150831580003290715000000000000000   10300001F00104100000000010413000000000000     
100   62911028202520380000000000046001000000046001002000000010410407150924150013424773800715219615001342   1030000500030000   598320001603000015172200016MAX ENERGY             PTN           MMR11007150924150013420715000000000000000   10300001 00104100000000001380000000000000     
100   62911028202804010000000000005350000000005350002000000010410407150821510001384773800715219614000138   1030000500030000   591220211101014405912202111SHWE OHH PHARMACY      PTN           MMR11007150821510001380715000000000000000   10300001 00104100000000000321000000000000     
100   62443100355445150000000000043900000000043900002000000010410407160946404288039654380716219716428803   1040001600030000   591220000285000000010000273Shwe Ohh Pharmacy (47t Yangon        MMR11007160946404288030716000000000000000   10300001F00104100000000010536000000000000     
100   95050314307746340000000000000990000000000990002000000010410407161618394839819519830716000007500561   1020000200030000   333400010001204104000000281Myanmar Soft-Gate Tech Yangon        MMR11007161618394839810716000000000000000   10300001F05104100000000000208000000000000     
100   62911028202099210000000000005000000000005000002000000010410407161420575057344773800716000007500207   1030000200030000   333800010001203104000003327KBZPay                 Yangon        MMR11007161420575057340716000000000000000   10300001F05104100000000001050000000000000     
100   62443100333488440000000000023000000000023000002000000010410407150914390020533818380715219615002053   1030000500030000   598320001302000015172200013MAX ENERGY             PTN           MMR11007150914390020530715000000000000000   10300001 00104100000000002760000000000000     
100   95050319701366650000000000011550000000011550002000000010410407160757522916407164720716618271452196   1030000900030000   541119001075190110000000872Sein Gay Har Hledan    YANGONUT      MMR11007160757522916400716000000000000000   10300001F00104100000000002888000000000000     
100   95050319528093960000000000004950000000004950002000000010410407160215534553354230070716000007497618   1020000200030000   333400010001204104000000281Myanmar Soft-Gate Tech Yangon        MMR11007160215534553350716000000000000000   10300001F05104100000000001040000000000000     
100   95050317003064220000000000000990000000000990002000000010410407160627305730688561910716000007498645   1020000200030000   333400010001204104000000281Myanmar Soft-Gate Tech Yangon        MMR11007160627305730680716000000000000000   10300001F05104100000000000208000000000000     
100   62443100348951400000000000100000000000100000002000000010410407160326055605547960520716000007497864   1030000200030000   333800010001203104000003327KBZPay                 Yangon        MMR11007160326055605540716000000000000000   10300001F05104100000000021000000000000000     
100   62911028202916630000000000016000000000016000002000000010410407150123070003374773800715219607000337   1030000500030000   598320001304000015172200013MAX ENERGY             PTN           MMR11007150123070003370715000000000000000   10300001 00104100000000000480000000000000     
100   95050315955808830000000000035000000000035000002000000010410407151216280016809917740715219618001680   1030000500030000   598320001103000015172200011MAX ENERGY             PTN           MMR11007151216280016800715000000000000000   10300001 00104100000000004200000000000000     
100   95030373033018450000000000007300000000007300002000000010410407151242150001914773800715000355646717   1030000300030000   541100002519000000000000724CB BANK                ONE STOP MART MMR11007151242150001910715000000000000000   10300001F00104100000000000438000000000000     
100   62911028202294730000000000033792000000033792002000000010410407151050250007854773800715219617000785   1030000500030000   531120226316000045311202263OCEAN SUPER CENTER STJ PTN           MMR11007151050250007850715000000000000000   10300001 00104100000000002028000000000000     
100   62911028202260160000000000028150000000028150002000000010410407150750170007224773800715219614000722   1030000500030000   541120226208000045411202262CITY MART ZAWANA       PTN           MMR11007150750170007220715000000000000000   10300001 00104100000000001689000000000000     
100   62911028202537390000000000015000000000015000002000000010410407151206560016154773800715219618001615   1030000500030000   598320001104000015172200011MAX ENERGY             PTN           MMR11007151206560016150715000000000000000   10300001 00104100000000000450000000000000     
100   62911028202147720000000000014800000000014800002000000010410407140902380008454773800714219515000845   1030000500030000   541120227505000045411202275CITY MART (AHLONE BRAN PTN           MMR11007140902380008450714000000000000000   10300001 00104100000000000888000000000000     
100   62911028202790310000000000073700000000073700002000000010410407140427090001874773800714219510000187   1030000500030000   541120129721000045411201297MAKRO MYANMAR          PTN           MMR11007140427090001870714000000000000000   10300001 00104100000000004422000000000000     
100   95050316067768680000000000000990000000000990002000000010410407161428245824084235780716000007500242   1020000200030000   333400010001204104000000281Myanmar Soft-Gate Tech Yangon        MMR11007161428245824080716000000000000000   10300001F05104100000000000208000000000000     
100   95050319528093960000000000002970000000002970002000000010410407160706013601525001660716000007498788   1020000200030000   333400010001204104000000281Myanmar Soft-Gate Tech Yangon        MMR11007160706013601520716000000000000000   10300001F05104100000000000624000000000000     
100   62443100348951400000000000300000000000300000002000000010410407160321035103569102430716000007497834   1030000200030000   333800010001203104000003327KBZPay                 Yangon        MMR11007160321035103560716000000000000000   10300001F05104100000000063000000000000000     
100   95050328351497860000000000001000000000001000002000000010410407161211594159404320880716000007499795   1030000200030000   333800010001203104000003327KBZPay                 Yangon        MMR11007161211594159400716000000000000000   10300001F05104100000000000210000000000000     
100   62911028202260320000000000410000000000410000002000000010410407160751424214774773800716219714421477   1040001600030000   591220000626000000010000497AAA Pharmacy           Ygn           MMR11007160751424214770716000000000000000   10300001F00104100000000024600000000000000     
100   95050313497815710000000000020000000000020000002000000010410407160314414441515627270716000007497813   1030000200030000   333800010001203104000003327KBZPay                 Yangon        MMR11007160314414441510716000000000000000   10300001F05104100000000004200000000000000     
100   95050314567755980000000000001980000000001980002000000010410407160324325432140754910716000007497859   1020000200030000   333400010001204104000000281Myanmar Soft-Gate Tech Yangon        MMR11007160324325432140716000000000000000   10300001F05104100000000000416000000000000     
100   95030314863516850000000000023000000000023000002000000010410407160823425342474773800716000007499074   1030000200030000   333800010001203104000003327KBZPay                 Yangon        MMR11007160823425342470716000000000000000   10300001F05104100000000004830000000000000     
100   62911028202045260000000000010200000000010200002000000010410407141156050002584773800714219518000258   1030000500030000   541120229601000045411202296CITY EXPRESS (MCS - 10 PTN           MMR11007141156050002580714000000000000000   10300001 00104100000000000612000000000000     
100   62911028202684060000000000037200000000037200002000000010410407151204270019304773800715219618001930   1030000500030000   531120226710000045311202267OCEAN NORTH POINT      PTN           MMR11007151204270019300715000000000000000   10300001 00104100000000002232000000000000     
100   62443100371022130000000000034000000000034000002000000010410407150930060020197974310715219616002019   1030000500030000   598320001204000015172200012MAX ENERGY             PTN           MMR11007150930060020190715000000000000000   10300001 00104100000000004080000000000000     
100   95050320531117320000000000007700000000007700002000000010410407150809550035994548600715000355607432   1030000300030000   581200001500000000000001046CB BANK                YKKO (NPST)   MMR11007150809550035990715000000000000000   10300001F00104100000000003273000000000000     
100   62911028202421380000000000052100000000052100002000000010410407150354020024064773800715219610002406   1030000500030000   598320001901000015172200019MAX ENERGY             PTN           MMR11007150354020024060715000000000000000   10300001 00104100000000001563000000000000     
100   62911028202260160000000000040831000000040831002000000010410407150812320021174773800715219614002117   1030000500030000   541120226204000045411202262CITY MART ZAWANA       PTN           MMR11007150812320021170715000000000000000   10300001 00104100000000002450000000000000     
100   95050329896622530000000000022860000000022860002000000010410407150914050029375470870715219615002937   1030000500030000   541120226805000045411202268CITY MART WAIZAYANDA   PTN           MMR11007150914050029370715000000000000000   10300001 00104100000000005715000000000000     
100   95050319006804440000000000010600000000010600002000000010410407151157400064162456840715000355640561   1030000300030000   541100000151000000000000074CB BANK                ROYAL MART SU MMR11007151157400064160715000000000000000   10300001F00104100000000002650000000000000     
100   95050312498129060000000000000990000000000990002000000010410407160706233623883349170716000007498790   1020000200030000   333400010001204104000000281Myanmar Soft-Gate Tech Yangon        MMR11007160706233623880716000000000000000   10300001F05104100000000000208000000000000     
100   95050321044701600000000000008000000000008000002000000010410407160825344235837760390716219715423583   1040001600030000   541120000584000000010000465Ocean Shwe Gone Daing  Yangon        MMR11007160825344235830716000000000000000   10300001F00104100000000002000000000000000     
100   95030306100096490000000000000990000000000990002000000010410407160612484248224773800716000007498595   1020000200030000   333400010001204104000000281Myanmar Soft-Gate Tech Yangon        MMR11007160612484248220716000000000000000   10300001F05104100000000000208000000000000     
100   95050312498129060000000000002970000000002970002000000010410407161517154715741087220716000007500421   1020000200030000   333400010001204104000000281Myanmar Soft-Gate Tech Yangon        MMR11007161517154715740716000000000000000   10300001F05104100000000000624000000000000     
100   95030314863516850000000000020000000000020000002000000010410407160317194719534773800716000007497821   1030000200030000   333800010001203104000003327KBZPay                 Yangon        MMR11007160317194719530716000000000000000   10300001F05104100000000004200000000000000     
100   62911028202260160000000000064400000000064400002000000010410407160915254267624773800716219716426762   1040001600030000   591220000626000000010000497AAA Pharmacy           Ygn           MMR11007160915254267620716000000000000000   10300001F00104100000000003864000000000000     
100   62911028202197630000000000045800000000045800002000000010410407161043564340064773800716219717434006   1040001600030000   591220000277000000010000265Shwe Ohh Pharmacy (Thu Yangon        MMR11007161043564340060716000000000000000   10300001F00104100000000002748000000000000     
100   95050310676042860000000000020000000000020000002000000010410407160421185118308471100716000007498092   1030000200030000   333800010001203104000003327KBZPay                 Yangon        MMR11007160421185118300716000000000000000   10300001F05104100000000004200000000000000     
