100   62911028202197630000000000008600000000008600002000000010410407150718570002934773800715219613000293   1030000500030000   541120024703022205411200247ORANGE (SHWE PYI THAR) PTN           MMR11007150718570002930715000000000000000   10300001 00104100000000000516000000000000     
100   62911028202197630000000000017549000000017549002000000010410407150930360008804773800715219616000880   1030000500030000   541120230105000045411202301CITY MART SUPERMARKET  PTN           MMR11007150930360008800715000000000000000   10300001 00104100000000001053000000000000     
100   95050318964967630000000000011500000000011500002000000010410407160614200013859618720716219712001385   1030000500030000   531120156008000045311201560GAMONE PWINT           PTN           MMR11007160614200013850716000000000000000   10300001 00104100000000002760000000000000     
100   95050314365758940000000000009590000000009590002000000010410407160310010014542322300716219709001454   1030000500030000   541120203805000015411202038CITY MART SUPERMARKET  PTN           MMR11007160310010014540716000000000000000   10300001 00104100000000002398000000000000     
100   62443100323428970000000000093850000000093850002000000010410407161102040002098852860716219717000209   1030000500030000   591220218401014405912202184SHWE OHH PHARMACY      PTN           MMR11007161102040002090716000000000000000   10300001 00104100000000022524000000000000     
100   62911028202045260000000000021250000000021250002000000010410407160415370004534773800716219710000453   1030000500030000   541120233301000045411202333CITY EXPRESS (MCS - 19 PTN           MMR11007160415370004530716000000000000000   10300001 00104100000000001275000000000000     
100   62911028202490830000000000420000000000420000002000000010410407161408270005664773800716219720000566   1030000500030000   806220046404006308062200464ASIA ROYAL HOSPITAL    PTN           MMR11007161408270005660716000000000000000   10300001 00104100000000025200000000000000     
100   62911028202665250000000000060650000000060650002000000010410407161025300001144773800716219716000114   1030000500030000   591220010901014405912200109SHWE OHH PHARMACY      PTN           MMR11007161025300001140716000000000000000   10300001 00104100000000003639000000000000     
100   95050315345734110000000000020000000000020000002000000010410407171154322432838474090717000007502885   1030000200030000   333800010001203104000003327KBZPay                 Yangon        MMR11007171154322432830717000000000000000   10300001F05104100000000004200000000000000     
100   95030308100042590000000003973300000003973300002000000010410407160626190000824773800716219712000082   1030000500030000   503920054001005505039200540NAY LA CONSTRUCTION MA PTN           MMR11007160626190000820716000000000000000   10300001 00104100000000238398000000000000     
100   62443100306028540000000000068000000000068000002000000010410407160912300002752632750716219715000275   1030000500030000   569120044601000015691200446AMERICAN BRANDED COLLE PTN           MMR11007160912300002750716000000000000000   10300001 00104100000000016320000000000000     
100   62911028202446540000000000029750000000029750002000000010410407170821575021264773800717219815502126   1040001600030000   591220000279000000010000267Shwe Ohh Pharmacy (Ar  Yangon        MMR11007170821575021260717000000000000000   10300001F00104100000000001785000000000000     
100   62911028202684060000000000022100000000022100002000000010410407170749405000674773800717219814500067   1040001600030000   591220001439000000010001136Shwe Ohh Pharmacy (Ins Ygn           MMR11007170749405000670717000000000000000   10300001F00104100000000001326000000000000     
100   62443100318296470000000000017900000000017900002000000010410407170729344987984598040717219814498798   1040001600030000   591220000299000000010000287Shwe Ohh Pharmacy (Yan Yangon        MMR11007170729344987980717000000000000000   10300001F00104100000000004296000000000000     
100   95050314567755980000000000000990000000000990002000000010410407170720355035882860460717000007502041   1020000200030000   333400010001204104000000281Myanmar Soft-Gate Tech Yangon        MMR11007170720355035880717000000000000000   10300001F05104100000000000208000000000000     
100   95050319111666800000000000000990000000000990002000000010410407170228445844653250290717000007501110   1020000200030000   333400010001204104000000281Myanmar Soft-Gate Tech Yangon        MMR11007170228445844650717000000000000000   10300001F05104100000000000208000000000000     
100   62443101007477200000000000075100000000075100002000000010410407160650290003433689550716219713000343   1030000500030000   541120129725000045411201297MAKRO MYANMAR          PTN           MMR11007160650290003430716000000000000000   10300001 00104100000000018775000000000000     
100   62911028202107390000000000033000000000033000002000000010410407160855380017624773800716219715001762   1030000500030000   598320001102000015172200011MAX ENERGY             PTN           MMR11007160855380017620716000000000000000   10300001 00104100000000000990000000000000     
100   95050326094581320000000000044950000000044950002000000010410407161000060005639399090716219716000563   1030000500030000   541120020601022205411200206ORANGE (NOKL)          PTN           MMR11007161000060005630716000000000000000   10300001 00104100000000011238000000000000     
100   62911028202146650000000000049500000000049500002000000010410407160933430004494773800716219716000449   1030000500030000   591220132901008605912201329THEIK DI WIN SHOP      PTN           MMR11007160933430004490716000000000000000   10300001 00104100000000002970000000000000     
100   62911028202443730000000000042599000000042599002000000010410407160355550014384773800716219710001438   1030000500030000   531120226318000045311202263OCEAN SUPER CENTER STJ PTN           MMR11007160355550014380716000000000000000   10300001 00104100000000002556000000000000     
100   62911028202243590000000000009815000000009815002000000010410407160833290002854773800716219715000285   1030000500030000   591220013501014405912200135SHWE OHH PHARMACY      PTN           MMR11007160833290002850716000000000000000   10300001 00104100000000000589000000000000     
100   62911028202792960000000000033937000000033937002000000010410407160617500014474773800716219712001447   1030000500030000   598320001602000015172200016MAX ENERGY             PTN           MMR11007160617500014470716000000000000000   10300001 00104100000000001018000000000000     
100   62911028202045260000000000020000000000020000002000000010410407160922590013624773800716219715001362   1030000500030000   598320001203000015172200012MAX ENERGY             PTN           MMR11007160922590013620716000000000000000   10300001 00104100000000000600000000000000     
100   95050319220344710000000000001980000000001980002000000010410407171424465446468644280717000007503364   1020000200030000   333400010001204104000000281Myanmar Soft-Gate Tech Yangon        MMR11007171424465446460717000000000000000   10300001F05104100000000000416000000000000     
100   95050314307746340000000000000990000000000990002000000010410407170327515751381427610717000007501283   1020000200030000   333400010001204104000000281Myanmar Soft-Gate Tech Yangon        MMR11007170327515751380717000000000000000   10300001F05104100000000000208000000000000     
100   95030316535481960000000000748950000000748950002000000010410407170558594927364773800717219812492736   1040001600030000   591220000282000000010000270Shwe Ohh Pharmacy (Shw Yangon        MMR11007170558594927360717000000000000000   10300001F00104100000000044937000000000000     
100   95030308100042590000000000030000000000030000002000000010410407161130590007224773800716219718000722   1030000500030000   598320001701000015172200017MAX ENERGY             PTN           MMR11007161130590007220716000000000000000   10300001 00104100000000000900000000000000     
100   62911028202792960000000000016850000000016850002000000010410407161129160006814773800716219717000681   1030000500030000   541120227608000045411202276CITY MART ( 47 BRANCH  PTN           MMR11007161129160006810716000000000000000   10300001 00104100000000001011000000000000     
100   62443100363668680000000000066845000000066845002000000010410407171030115114114622890717219817511411   1040001600030000   541120000553000000010000465Ocean Shwe Gone Daing  Yangon        MMR11007171030115114110717000000000000000   10300001F00104100000000016712000000000000     
100   95050310494988230000000000002970000000002970002000000010410407170923485348058753970717000007502438   1020000200030000   333400010001204104000000281Myanmar Soft-Gate Tech Yangon        MMR11007170923485348050717000000000000000   10300001F05104100000000000624000000000000     
100   62443100313112320000000000038000000000038000002000000010410407170813425016213285940717219815501621   1040001600030000   598320000660000000010000529Shwe Taung Energy (NPT Naypyitaw     MMR11007170813425016210717000000000000000   10300001F00104100000000004560000000000000     
100   95050327192897240000000000004800000000004800002000000010410407160849530000086278100716000355785281   1030000300030000   581200001505000000000001051CB BANK                YKKO(THAMINE) MMR11007160849530000080716000000000000000   10300001F00104100000000002040000000000000     
100   62443100306028540000000000027300000000027300002000000010410407160735370001709072490716000355774757   1030000300030000   581200001891000000000001352CB BANK                OISHII RESTAU MMR11007160735370001700716000000000000000   10300001F00104100000000011603000000000000     
100   62911028202136750000000000073000000000073000002000000010410407160803030001014773800716219714000101   1030000500030000   481220087901003104812200879C4E COMPUTER & MOBILE  PTN           MMR11007160803030001010716000000000000000   10300001 00104100000000004380000000000000     
100   62443100390038980000000000119473000000119473002000000010410407161137300009638682660716000355809068   1030000300030000   701100000127000000000000058CB BANK                MELIA YANGON  MMR11007161137300009630716000000000000000   10300001F00104100000000050776000000000000     
100   62911028202703370000000000034000000000034000002000000010410407160758250001094773800716219714000109   1030000500030000   701120141601008207011201416GREEN PARADISE HOTEL   PTN           MMR11007160758250001090716000000000000000   10300001 00104100000000003468000000000000     
100   95050314365758940000000000003900000000003900002000000010410407160313280004314059880716219709000431   1030000500030000   541120203812000015411202038CITY MART SUPERMARKET  PTN           MMR11007160313280004310716000000000000000   10300001 00104100000000000975000000000000     
100   95050315344668630000000000007400000000007400002000000010410407160453150000310208680716219711000031   1030000500030000   581220263901000085812202639BREAD TALK             PTN           MMR11007160453150000310716000000000000000   10300001 00104100000000003145000000000000     
100   95050329720609600000000000300000000000300000002000000010410407160915350000322717840716219715000032   1030000500030000   703220082601000017032200826FIT WAY GYM            PTN           MMR11007160915350000320716000000000000000   10300001 00104100000000072000000000000000     
100   62911028202446540000000000406200000000406200002000000010410407170824155022624773800717219815502262   1040001600030000   591220000279000000010000267Shwe Ohh Pharmacy (Ar  Yangon        MMR11007170824155022620717000000000000000   10300001F00104100000000024372000000000000     
100   62911028202446540000000000012800000000012800002000000010410407170818595019404773800717219815501940   1040001600030000   591220000279000000010000267Shwe Ohh Pharmacy (Ar  Yangon        MMR11007170818595019400717000000000000000   10300001F00104100000000000768000000000000     
100   95030301100024580000000000014850000000014850002000000010410407171051565134564773800717219817513456   1040001600030000   591220000303000000010000291Shwe Ohh Pharmacy (Kyu Yangon        MMR11007171051565134560717000000000000000   10300001F00104100000000000891000000000000     
100   95050318617855880000000000004950000000004950002000000010410407170226055605694392190717000007501101   1020000200030000   333400010001204104000000281Myanmar Soft-Gate Tech Yangon        MMR11007170226055605690717000000000000000   10300001F05104100000000001040000000000000     
100   95050311121153200000000000000990000000000990002000000010410407170522355235253931050717000007501672   1020000200030000   333400010001204104000000281Myanmar Soft-Gate Tech Yangon        MMR11007170522355235250717000000000000000   10300001F05104100000000000208000000000000     
100   95050311959900780000000000000990000000000990002000000010410407170924465446980491550717000007502439   1020000200030000   333400010001204104000000281Myanmar Soft-Gate Tech Yangon        MMR11007170924465446980717000000000000000   10300001F05104100000000000208000000000000     
100   95050316067768680000000000001980000000001980002000000010410407170442131213947491310717000007501532   1020000200030000   333400010001204104000000281Myanmar Soft-Gate Tech Yangon        MMR11007170442131213940717000000000000000   10300001F05104100000000000416000000000000     
100   62443100313112320000000000039000000000039000002000000010410407170757245005730236260717219814500573   1040001600030000   598320000660000000010000529Shwe Taung Energy (NPT Naypyitaw     MMR11007170757245005730717000000000000000   10300001F00104100000000004680000000000000     
100   62911028202680670000000000139500000000139500002000000010410407160842340000834773800716219715000083   1030000500030000   804320179801000058043201798ZEEKWEK EYEWEAR        PTN           MMR11007160842340000830716000000000000000   10300001 00104100000000008370000000000000     
100   62911028202166450000000000144296000000144296002000000010410407160937070019084773800716219716001908   1030000500030000   531120226320000045311202263OCEAN SUPER CENTER STJ PTN           MMR11007160937070019080716000000000000000   10300001 00104100000000008658000000000000     
100   62911028202417260000000000027000000000027000002000000010410407161229290020224773800716219718002022   1030000500030000   598320001404000015172200014MAX ENERGY             PTN           MMR11007161229290020220716000000000000000   10300001 00104100000000000810000000000000     
100   62443100323428970000000000072800000000072800002000000010410407161029570025318512470716219716002531   1030000500030000   541120226807000045411202268CITY MART WAIZAYANDA   PTN           MMR11007161029570025310716000000000000000   10300001 00104100000000018200000000000000     
100   62443100363668680000000000028000000000028000002000000010410407161341300043727370560716000355824907   1030000300030000   581200002952000000000002060CB BANK                JEFF'S KITCHE MMR11007161341300043720716000000000000000   10300001F00104100000000011900000000000000     
100   62911028202133940000000000044437000000044437002000000010410407160315260024604773800716219709002460   1030000500030000   541120226201000045411202262CITY MART ZAWANA       PTN           MMR11007160315260024600716000000000000000   10300001 00104100000000002666000000000000     
100   62911028202593140000000000018050000000018050002000000010410407161104440019034773800716219717001903   1030000500030000   541120227504000045411202275CITY MART (AHLONE BRAN PTN           MMR11007161104440019030716000000000000000   10300001 00104100000000001083000000000000     
100   62911028202661370000000000070200000000070200002000000010410407160655000025454773800716219713002545   1030000500030000   541120226804000045411202268CITY MART WAIZAYANDA   PTN           MMR11007160655000025450716000000000000000   10300001 00104100000000004212000000000000     
100   95030331386331890000000000015000000000015000002000000010410407170625305530484773800717000007501860   1030000200030000   333800010001203104000003327KBZPay                 Yangon        MMR11007170625305530480717000000000000000   10300001F05104100000000003150000000000000     
100   62911028202909210000000000050000000000050000002000000010410407170800453045294773800717000007502173   1030000200030000   333800010001203104000003327KBZPay                 Yangon        MMR11007170800453045290717000000000000000   10300001F05104100000000010500000000000000     
100   62911028202662690000000000092000000000092000002000000010410407170740274994844773800717219814499484   1040001600030000   569120000924000000010000671Generation Concept Sto Ygn           MMR11007170740274994840717000000000000000   10300001F00104100000000005520000000000000     
100   95050313817486860000000000000990000000000990002000000010410407171419424942868729380717000007503334   1020000200030000   333400010001204104000000281Myanmar Soft-Gate Tech Yangon        MMR11007171419424942860717000000000000000   10300001F05104100000000000208000000000000     
100   95050318400277060000000000010000000000010000002000000010410407171424325432240381870717000007503360   1030000200030000   333800010001203104000003327KBZPay                 Yangon        MMR11007171424325432240717000000000000000   10300001F05104100000000002100000000000000     
100   62911028202684060000000000042000000000042000002000000010410407170542184915804773800717219812491580   1040001600030000   598320000658000000010000527Shwe Taung Energy (YGN Yangon        MMR11007170542184915800717000000000000000   10300001F00104100000000001260000000000000     
100   62911028202163480000000000300000000000300000002000000010410407171013084308354773800717000007502576   1030000200030000   333800010001203104000003327KBZPay                 Yangon        MMR11007171013084308350717000000000000000   10300001F05104100000000063000000000000000     
100   62911028202912590000000000042000000000042000002000000010410407160204300029924773800716219708002992   1030000500030000   598320001902000015172200019MAX ENERGY             PTN           MMR11007160204300029920716000000000000000   10300001 00104100000000001260000000000000     
100   62443100323428970000000000020000000000020000002000000010410407161110150017772242920716219717001777   1030000500030000   598320001103000015172200011MAX ENERGY             PTN           MMR11007161110150017770716000000000000000   10300001 00104100000000002400000000000000     
100   95050326750398570000000000016200000000016200002000000010410407160910470020579327780716219715002057   1030000500030000   531120226719000045311202267OCEAN NORTH POINT      PTN           MMR11007160910470020570716000000000000000   10300001 00104100000000003888000000000000     
100   95050314248677090000000000011200000000011200002000000010410407160401150019199527910716219710001919   1030000500030000   531120226307000045311202263OCEAN SUPER CENTER STJ PTN           MMR11007160401150019190716000000000000000   10300001 00104100000000002688000000000000     
100   62911028202074950000000000020302000000020302002000000010410407160315340026474773800716219709002647   1030000500030000   531120226301000045311202263OCEAN SUPER CENTER STJ PTN           MMR11007160315340026470716000000000000000   10300001 00104100000000001218000000000000     
100   95030325264619140000000000063500000000063500002000000010410407160509534106644773800716219712410664   1040001600030000   541120000555000000010000465Ocean Shwe Gone Daing  Yangon        MMR11007160509534106640716000000000000000   10300001F00104100000000003810000000000000     
100   95030346179196360000000000037006000000037006002000000010410407160120153980074773800716219708398007   1040001600030000   598320000856000000010000609Terminal Petrol Statio Yangon        MMR11007160120153980070716000000000000000   10300001F00104100000000001110000000000000     
100   62911028202473430000000000124000000000124000002000000010410407170546053122254773800717518161205197   1030000900030000   591219000970190110000000777Shwe Ohh Pharmacy St ( YANGONAW      MMR11007170546053122250717000000000000000   10300001F00104100000000007440000000000000     
100   62911028202446130000000000004000000000004000002000000010410407170800493151804773800717166301449197   1030000900030000   581219000931190110000000740Shwe Palin City Mall   YANGONAW      MMR11007170800493151800717000000000000000   10300001F00104100000000000408000000000000     
100   95050319938772870000000000000990000000000990002000000010410407171440491049715339320717000007503430   1020000200030000   333400010001204104000000281Myanmar Soft-Gate Tech Yangon        MMR11007171440491049710717000000000000000   10300001F05104100000000000208000000000000     
100   95050328074436620000000000048003000000048003002000000010410407160301400012952237200716219709001295   1030000500030000   598320001203000015172200012MAX ENERGY             PTN           MMR11007160301400012950716000000000000000   10300001 00104100000000005760000000000000     
100   95050328876009750000000000020000000000020000002000000010410407170705223522091548360717000007501980   1030000200030000   333800010001203104000003327KBZPay                 Yangon        MMR11007170705223522090717000000000000000   10300001F05104100000000004200000000000000     
100   95030356054490800000000000014650000000014650002000000010410407160932370042714773800716000355791284   1030000300030000   541100002333000000000000102CB BANK                MAKRO MYANMAR MMR11007160932370042710716000000000000000   10300001F00104100000000000879000000000000     
100   62911028202610540000000000006450000000006450002000000010410407170845353162534773800717821151535197   1030000900030000   541119000130190110000000082Sein Gay Har Super Cen YANGON        MMR11007170845353162530717000000000000000   10300001F00104100000000000387000000000000     
100   95050323133124350000000000005000000000005000002000000010410407171103553355009239960717000007502715   1030000200030000   333800010001203104000003327KBZPay                 Yangon        MMR11007171103553355000717000000000000000   10300001F05104100000000001050000000000000     
100   95050311959900780000000000000990000000000990002000000010410407170552342234529470390717000007501752   1020000200030000   333400010001204104000000281Myanmar Soft-Gate Tech Yangon        MMR11007170552342234520717000000000000000   10300001F05104100000000000208000000000000     
100   62911028202132460000000000011500000000011500002000000010410407170351073097894773800717160211007197   1030000900030000   573219001178190110000000934UNIQUE Pansodan        YANGONADA     MMR11007170351073097890717000000000000000   10300001F00104100000000000690000000000000     
100   95050311121153200000000000000990000000000990002000000010410407171004123412839410150717000007502555   1020000200030000   333400010001204104000000281Myanmar Soft-Gate Tech Yangon        MMR11007171004123412830717000000000000000   10300001F05104100000000000208000000000000     
100   62443100306045460000000000007700000000007700002000000010410407171724370007905934990717000750268023   1030000200030000   541188001016000008000000008KBZ BANK               MARKETPLACE - MMR11007171724370007900717000000000000000   10300001 00104100000000001925000000000000     
100   62443100381153960000000000114400000000114400002000000010410407170831300000400151160717000750260821   1030000200030000   561188002458000008000006518KBZ BANK               D&C DESIGN &  MMR11007170831300000400717000000000000000   10300001 00104100000000027456000000000000     
100   95050317317598540000000000000990000000000990002000000010410407171330020002797076900717000007503160   1020000200030000   333400010001204104000000281Myanmar Soft-Gate Tech Yangon        MMR11007171330020002790717000000000000000   10300001F05104100000000000208000000000000     
100   95050322823372070000000000076000000000076000002000000010410407170349070017603760860717000750248218   1030000200030000   599988000603000008000003448KBZ BANK               SWEETY HOME(6 MMR11007170349070017600717000000000000000   10300001 00104100000000018240000000000000     
100   62911028202204490000000000034800000000034800002000000010410407171758170225884773800717000750269652   1030000200030000   541188001075000008000000294KBZ BANK               CITY MART - J MMR11007171758170225880717000000000000000   10300001 00104100000000002088000000000000     
100   95050316818236190000000000000990000000000990002000000010410407170635160516150867590717000007501889   1020000200030000   333400010001204104000000281Myanmar Soft-Gate Tech Yangon        MMR11007170635160516150717000000000000000   10300001F05104100000000000208000000000000     
100   95050323576695670000000000032900000000032900002000000010410407170447020035220881370717000750250659   1030000200030000   581288001737000008000005244KBZ BANK               SEAFOOD CITY  MMR11007170447020035220717000000000000000   10300001 00104100000000013983000000000000     
100   95050324154190880000000000015750000000015750002000000010410407171812500233626906700717000750270237   1030000200030000   541188001070000008000000314KBZ BANK               MARKETPLACE - MMR11007171812500233620717000000000000000   10300001 00104100000000003938000000000000     
100   62911028202355040000000000066479000000066479002000000010410407171814520064434773800717000750270303   1030000200030000   541188001432000008000000401KBZ BANK               OCEAN SUPERCE MMR11007171814520064430717000000000000000   10300001 00104100000000003989000000000000     
100   95050322295410690000000000040800000000040800002000000010410407170706030033386505810717000750256809   1030000200030000   569988000778000008000004529KBZ BANK               JSQ-IPANEMA   MMR11007170706030033380717000000000000000   10300001 00104100000000009792000000000000     
100   62443100306045460000000000024300000000024300002000000010410407171732470150624282510717000750268397   1030000200030000   541188001002000008000000008KBZ BANK               MARKETPLACE - MMR11007171732470150620717000000000000000   10300001 00104100000000006075000000000000     
100   62443100306045460000000000005000000000005000002000000010410407171733560150630892440717000750268453   1030000200030000   541188001002000008000000008KBZ BANK               MARKETPLACE - MMR11007171733560150630717000000000000000   10300001 00104100000000001250000000000000     
100   95050312482469810000000000022450000000022450002000000010410407171206250026255995230717000750253007   1030000200030000   541188001287000008000000472KBZ BANK               NEIGHBOURHOOD MMR11007171206250026250717000000000000000   10300001 00104100000000005613000000000000     
100   95050312675525330000000000010100000000010100002000000010410407170631390139147477520717000007501884   1030000200030000   333800010001203104000003327KBZPay                 Yangon        MMR11007170631390139140717000000000000000   10300001F05104100000000002121000000000000     
100   62911028202021240000000000020900000000020900002000000010410407171215390016774773800717000750253420   1030000200030000   581288000940000008000001248KBZ BANK               PIZZA HUT (TH MMR11007171215390016770717000000000000000   10300001 00104100000000002132000000000000     
100   95050315752234130000000000013750000000013750002000000010410407171128060044819313990717000750251185   1030000200030000   541188001459000008000000391KBZ BANK               OCEAN SUPER C MMR11007171128060044810717000000000000000   10300001 00104100000000003438000000000000     
100   95050315259054570000000000003000000000003000002000000010410407170234530453269945320717000007501123   1030000200030000   333800010001203104000003327KBZPay                 Yangon        MMR11007170234530453260717000000000000000   10300001F05104100000000000630000000000000     
100   62443100376865460000000000577800000000577800002000000010410407170948560017692800220717000750264809   1030000200030000   599988000603000008000003448KBZ BANK               SWEETY HOME(6 MMR11007170948560017690717000000000000000   10300001 00104100000000138672000000000000     
100   95050329213164970000000000033950000000033950002000000010410407171022200021798803410717000750248334   1030000200030000   541188001479000008000000399KBZ BANK               OCEAN SUPERCE MMR11007171022200021790717000000000000000   10300001 00104100000000008488000000000000     
100   62911028202555020000000000013750000000013750002000000010410407171207060026264773800717000750253028   1030000200030000   541188001287000008000000472KBZ BANK               NEIGHBOURHOOD MMR11007171207060026260717000000000000000   10300001 00104100000000000825000000000000     
100   95050326028605570000000000084693000000084693002000000010410407171422400027086931290717000750258926   1030000200030000   541188001486000008000000399KBZ BANK               OCEAN SUPERCE MMR11007171422400027080717000000000000000   10300001 00104100000000021174000000000000     
100   62911028202440680000000000052060000000052060002000000010410407170916050026884773800717000750263110   1030000200030000   581288000671000008000004115KBZ BANK               MIN LANN REST MMR11007170916050026880717000000000000000   10300001 00104100000000005310000000000000     
100   95050310494988230000000000002970000000002970002000000010410407171432470247660296770717000007503389   1020000200030000   333400010001204104000000281Myanmar Soft-Gate Tech Yangon        MMR11007171432470247660717000000000000000   10300001F05104100000000000624000000000000     
100   95050319996628650000000000000990000000000990002000000010410407170931490149112144030717000007502457   1020000200030000   333400010001204104000000281Myanmar Soft-Gate Tech Yangon        MMR11007170931490149110717000000000000000   10300001F05104100000000000208000000000000     
100   95050315430281830000000000030000000000030000002000000010410407170656072607593115750717000007501954   1030000200030000   333800010001203104000003327KBZPay                 Yangon        MMR11007170656072607590717000000000000000   10300001F05104100000000006300000000000000     
100   95050318699187280000000000023000000000023000002000000010410407170850153163877356770717903201515197   1030000900030000   541119001074190110000000872Sein Gay Har Hledan    YANGONUT      MMR11007170850153163870717000000000000000   10300001F00104100000000005750000000000000     
100   95050314931885730000000000001000000000001000002000000010410407170905193519760831930717000007502386   1030000200030000   3338000100012031040000040022C2P (Myanmar) Co. Ltd Yangon        MMR11007170905193519760717000000000000000   10300001F05104100000000000210000000000000     
100   95050313145843230000000000060000000000060000002000000010410407170749141914601888740717000007502140   1030000200030000   333800010001203104000003327KBZPay                 Yangon        MMR11007170749141914600717000000000000000   10300001F05104100000000012600000000000000     
100   95050315345734110000000000020000000000020000002000000010410407171059592959142630020717000007502695   1030000200030000   333800010001203104000003327KBZPay                 Yangon        MMR11007171059592959140717000000000000000   10300001F05104100000000004200000000000000     
100   95050327192897240000000000002970000000002970002000000010410407170741481148276335620717000007502108   1020000200030000   333400010001204104000000281Myanmar Soft-Gate Tech Yangon        MMR11007170741481148270717000000000000000   10300001F05104100000000000624000000000000     
100   62911028202446540000000000006300000000006300002000000010410407171138303208624773800717734081830197   1030000900030000   591219000606190110000000446Shwe Ohh Pharmacy St-2 YANGON        MMR11007171138303208620717000000000000000   10300001F00104100000000000378000000000000     
100   95050312224678430000000000009900000000009900002000000010410407170913054305202484410717000007502407   1020000200030000   333400010001204104000000281Myanmar Soft-Gate Tech Yangon        MMR11007170913054305200717000000000000000   10300001F05104100000000002079000000000000     
100   95050314979630620000000000000990000000000990002000000010410407171314514451765424410717000007503113   1020000200030000   333400010001204104000000281Myanmar Soft-Gate Tech Yangon        MMR11007171314514451760717000000000000000   10300001F05104100000000000208000000000000     
100   62911028202163480000000000300000000000300000002000000010410407171012084208764773800717000007502571   1030000200030000   333800010001203104000003327KBZPay                 Yangon        MMR11007171012084208760717000000000000000   10300001F05104100000000063000000000000000     
100   95050317003064220000000000001980000000001980002000000010410407170445481548372533860717000007501547   1020000200030000   333400010001204104000000281Myanmar Soft-Gate Tech Yangon        MMR11007170445481548370717000000000000000   10300001F05104100000000000416000000000000     
100   95050319701366650000000000020000000000020000002000000010410407170739240924682945550717000007502098   1030000200030000   333800010001203104000003327KBZPay                 Yangon        MMR11007170739240924680717000000000000000   10300001F05104100000000004200000000000000     
100   95050317376014640000000000000990000000000990002000000010410407170853352335952399320717000007502341   1020000200030000   333400010001204104000000281Myanmar Soft-Gate Tech Yangon        MMR11007170853352335950717000000000000000   10300001F05104100000000000208000000000000     
100   95050315122972560000000000030000000000030000002000000010410407170200003000892569520717000007501042   1040001600030000   333800010001220104000004507A +                    Yangon        MMR11007170200003000890717000000000000000   10300001F05104100000000006300000000000000     
100   95050324947866880000000000015250000000015250002000000010410407170531053119241037780717354011205197   1030000900030000   541119001080190110000000872Sein Gay Har Hledan    YANGONUT      MMR11007170531053119240717000000000000000   10300001F00104100000000003813000000000000     
100   95050329698388160000000000200000000000200000002000000010410407170740291029053030650717000007502099   1030000200030000   333800010001203104000003327KBZPay                 Yangon        MMR11007170740291029050717000000000000000   10300001F05104100000000042000000000000000     
100   95050318601641810000000000000990000000000990002000000010410407171514124412066991800717000007503532   1020000200030000   333400010001204104000000281Myanmar Soft-Gate Tech Yangon        MMR11007171514124412060717000000000000000   10300001F05104100000000000208000000000000     
100   95050324250133010000000000016500000000016500002000000010410407170404534850591767990717219811485059   1040001600030000   569920001398000000010001097NY EXPORT SHOP (South  Ygn           MMR11007170404534850590717000000000000000   10300001F00104100000000003960000000000000     
100   95050319709462380000000000005000000000005000002000000010410407171359292929083771930717000007503257   1030000200030000   3338000100012031040000040022C2P (Myanmar) Co. Ltd Yangon        MMR11007171359292929080717000000000000000   10300001F05104100000000001050000000000000     
100   62443100306045460000000000012785000000012785002000000010410407170727563144309640590717751571356197   1030000900030000   581219000477190110000000330Khao Kham Restaurant   YANGONUT      MMR11007170727563144300717000000000000000   10300001F00104100000000005434000000000000     
100   95050328035424750000000000099300000000099300002000000010410407170811083154491633450717331411408197   1030000900030000   541119000161190110000000084Pro (1) Global (Pazund YANGONARTAUNG MMR11007170811083154490717000000000000000   10300001F00104100000000024825000000000000     
100   95050329698388160000000000300000000000300000002000000010410407170738180818577988100717000007502096   1030000200030000   333800010001203104000003327KBZPay                 Yangon        MMR11007170738180818570717000000000000000   10300001F05104100000000063000000000000000     
100   95050311121153200000000000000990000000000990002000000010410407170503033303887661500717000007501607   1020000200030000   333400010001204104000000281Myanmar Soft-Gate Tech Yangon        MMR11007170503033303880717000000000000000   10300001F05104100000000000208000000000000     
100   95050312224678430000000000000990000000000990002000000010410407170916064606095449000717000007502417   1020000200030000   333400010001204104000000281Myanmar Soft-Gate Tech Yangon        MMR11007170916064606090717000000000000000   10300001F05104100000000000208000000000000     
100   95050317988654530000000000300000000000300000002000000010410407170454442444025923930717000007501576   1030000200030000   333800010001203104000003327KBZPay                 Yangon        MMR11007170454442444020717000000000000000   10300001F05104100000000063000000000000000     
100   62911028202107540000000000010750000000010750002000000010410407170510063114314773800717054401106197   1030000900030000   591219000603190110000000443Shwe Ohh Pharmacy St-8 YANGON        MMR11007170510063114310717000000000000000   10300001F00104100000000000645000000000000     
100   62443100311760720000000000052500000000052500002000000010410407170528573118780952680717324581157197   1030000900030000   541119001244190110000000955City Mart JS C 3       YANGONUT      MMR11007170528573118780717000000000000000   10300001F00104100000000013125000000000000     
100   62911028202440680000000000011900000000011900002000000010410407170417083103304773800717447471008197   1030000900030000   591219000970190110000000777Shwe Ohh Pharmacy St ( YANGONAW      MMR11007170417083103300717000000000000000   10300001F00104100000000000714000000000000     
100   62911028202610540000000000000950000000000950002000000010410407170848543163524773800717885181554197   1030000900030000   541119000130190110000000082Sein Gay Har Super Cen YANGON        MMR11007170848543163520717000000000000000   10300001F00104100000000000057000000000000     
100   95050324200302760000000000033300000000033300002000000010410407170226304799447697160717219809479944   1040001600030000   591220000043000000010000041Mingalar Pharmacy      Yangon        MMR11007170226304799440717000000000000000   10300001F00104100000000007992000000000000     
100   62911028202074950000000000232800000000232800002000000010410407170226304799454773800717219809479945   1040001600030000   591220000287000000010000275Shwe Ohh Pharmacy (Wit Yangon        MMR11007170226304799450717000000000000000   10300001F00104100000000013968000000000000     
100   95050312695033440000000000001980000000001980002000000010410407171244081408436736510717000007503033   1020000200030000   333400010001204104000000281Myanmar Soft-Gate Tech Yangon        MMR11007171244081408430717000000000000000   10300001F05104100000000000416000000000000     
100   95050316067768680000000000000990000000000990002000000010410407170444111411370796280717000007501539   1020000200030000   333400010001204104000000281Myanmar Soft-Gate Tech Yangon        MMR11007170444111411370717000000000000000   10300001F05104100000000000208000000000000     
100   95050318242219520000000000000990000000000990002000000010410407170658452845121463260717000007501965   1020000200030000   333400010001204104000000281Myanmar Soft-Gate Tech Yangon        MMR11007170658452845120717000000000000000   10300001F05104100000000000208000000000000     
100   95050318601641810000000000000990000000000990002000000010410407170600453045075739940717000007501779   1020000200030000   333400010001204104000000281Myanmar Soft-Gate Tech Yangon        MMR11007170600453045070717000000000000000   10300001F05104100000000000208000000000000     
100   95030357228658460000000000002750000000002750002000000010410407170858123165764773800717020281512197   1030000900030000   541119000136190110000000083SeinGayHarParami Cente YANGON        MMR11007170858123165760717000000000000000   10300001F00104100000000000165000000000000     
100   62911028202488950000000000020000000000020000002000000010410407170858323165824773800717023281532197   1030000900030000   554119001100190110000000212New Day Energy PZD     YANGON        MMR11007170858323165820717000000000000000   10300001F00104100000000000600000000000000     
100   95050313640946520000000000030400000000030400002000000010410407170822183157190066070717494521418197   1030000900030000   541119001363190110000000977Ocean PZD C17          YANGONAUNG    MMR11007170822183157190717000000000000000   10300001F00104100000000007600000000000000     
100   95050318288857520000000000030000000000030000002000000010410407170902473247190746840717000007502381   1030000200030000   333800010001203104000003327KBZPay                 Yangon        MMR11007170902473247190717000000000000000   10300001F05104100000000006300000000000000     
100   62443100330108240000000000004950000000004950002000000010410407171416214621253686830717000007503317   1020000200030000   333400010001204104000000281Myanmar Soft-Gate Tech Yangon        MMR11007171416214621250717000000000000000   10300001F05104100000000001040000000000000     
100   95050311959900780000000000000990000000000990002000000010410407171112304230007417280717000007502743   1020000200030000   333400010001204104000000281Myanmar Soft-Gate Tech Yangon        MMR11007171112304230000717000000000000000   10300001F05104100000000000208000000000000     
100   95050317903887690000000000000990000000000990002000000010410407171146521652143516640717000007502857   1020000200030000   333400010001204104000000281Myanmar Soft-Gate Tech Yangon        MMR11007171146521652140717000000000000000   10300001F05104100000000000208000000000000     
100   95050310332595380000000000000990000000000990002000000010410407171049351935312204540717000007502667   1020000200030000   333400010001204104000000281Myanmar Soft-Gate Tech Yangon        MMR11007171049351935310717000000000000000   10300001F05104100000000000208000000000000     
100   95050317988654530000000000150000000000150000002000000010410407170456422642834271440717000007501580   1030000200030000   333800010001203104000003327KBZPay                 Yangon        MMR11007170456422642830717000000000000000   10300001F05104100000000031500000000000000     
100   95050314752934410000000000002970000000002970002000000010410407170301103110866725450717000007501191   1020000200030000   333400010001204104000000281Myanmar Soft-Gate Tech Yangon        MMR11007170301103110860717000000000000000   10300001F05104100000000000624000000000000     
100   62911028202163480000000000300000000000300000002000000010410407170947541754694773800717000007502517   1030000200030000   333800010001203104000003327KBZPay                 Yangon        MMR11007170947541754690717000000000000000   10300001F05104100000000063000000000000000     
100   95050314557307430000000000001980000000001980002000000010410407171305073507077161990717000007503091   1020000200030000   333400010001204104000000281Myanmar Soft-Gate Tech Yangon        MMR11007171305073507070717000000000000000   10300001F05104100000000000416000000000000     
100   95050319925596540000000000009900000000009900002000000010410407170718134813248243390717000007502028   1020000200030000   333400010001204104000000281Myanmar Soft-Gate Tech Yangon        MMR11007170718134813240717000000000000000   10300001F05104100000000002079000000000000     
100   95050310427855490000000000002970000000002970002000000010410407170558482848132775360717000007501771   1020000200030000   333400010001204104000000281Myanmar Soft-Gate Tech Yangon        MMR11007170558482848130717000000000000000   10300001F05104100000000000624000000000000     
100   95050324622440820000000000014900000000014900002000000010410407170648183135938158290717292181318197   1030000900030000   541119001357190110000000977Ocean PZD C 11         YANGONAUNG    MMR11007170648183135930717000000000000000   10300001F00104100000000003725000000000000     
100   95050311419479170000000000001980000000001980002000000010410407170716274627029895880717000007502014   1020000200030000   333400010001204104000000281Myanmar Soft-Gate Tech Yangon        MMR11007170716274627020717000000000000000   10300001F05104100000000000416000000000000     
100   62911028202074950000000000206900000000206900002000000010410407170437174871044773800717219811487104   1040001600030000   591220000296000000010000284Shwe Ohh Pharmacy (Lan Yangon        MMR11007170437174871040717000000000000000   10300001F00104100000000012414000000000000     
100   95050317084233280000000000002970000000002970002000000010410407170746531653543541230717000007502133   1020000200030000   333400010001204104000000281Myanmar Soft-Gate Tech Yangon        MMR11007170746531653540717000000000000000   10300001F05104100000000000624000000000000     
100   95050317003064220000000000003960000000003960002000000010410407170228365836834902770717000007501107   1020000200030000   333400010001204104000000281Myanmar Soft-Gate Tech Yangon        MMR11007170228365836830717000000000000000   10300001F05104100000000000832000000000000     
