100   62443100330108240000000000000990000000000990002000000010410407191305453545214142250719000007511832   1020000200030000   333400010001204104000000281Myanmar Soft-Gate Tech Yangon        MMR11007191305453545210719000000000000000   10300001F05104100000000000208000000000000     
100   95050315259054570000000000003000000000003000002000000010410407190507273727544943770719000007510210   1030000200030000   333800010001203104000003327KBZPay                 Yangon        MMR11007190507273727540719000000000000000   10300001F05104100000000000630000000000000     
100   62911028202077190000000000000990000000000990002000000010410407190720395039514773800719000007510771   1020000200030000   333400010001204104000000281Myanmar Soft-Gate Tech Yangon        MMR11007190720395039510719000000000000000   10300001F05104100000000000208000000000000     
100   62911028202502140000000000010000000000010000002000000010410407190520316432534773800719220012643253   1040001600030000   591220000266000000010000254Shwe Ohh Pharmacy (Sin Yangon        MMR11007190520316432530719000000000000000   10300001F00104100000000000600000000000000     
100   95050325925517520000000000031000000000031000002000000010410407190910016565682099940719220016656568   1040001600030000   598320000310000000010000298PT Power Petrol Statio Yangon        MMR11007190910016565680719000000000000000   10300001F00104100000000003720000000000000     
100   62911028202659640000000000084850000000084850002000000010410407190412053594134773800719103421005199   1030000900030000   541119000882190110000000084Pro (1) Global (Pazund YANGONARTAUNG MMR11007190412053594130719000000000000000   10300001F00104100000000005091000000000000     
100   62911028202204490000000000034770000000034770002000000010410407191126343696504773800719867561734199   1030000900030000   541119001349190110000000977Ocean PZD C 3          YANGONAUNG    MMR11007191126343696500719000000000000000   10300001F00104100000000002086000000000000     
100   95050312498129060000000000000990000000000990002000000010410407191321235123400837280719000007511891   1020000200030000   333400010001204104000000281Myanmar Soft-Gate Tech Yangon        MMR11007191321235123400719000000000000000   10300001F05104100000000000208000000000000     
100   62911028202077190000000000000990000000000990002000000010410407190723585358614773800719000007510786   1020000200030000   333400010001204104000000281Myanmar Soft-Gate Tech Yangon        MMR11007190723585358610719000000000000000   10300001F05104100000000000208000000000000     
100   62443100340422630000000000012850000000012850002000000010410407190521236433313206190719220012643331   1040001600030000   591220000280000000010000268Shwe Ohh Pharmacy (Naw Yangon        MMR11007190521236433310719000000000000000   10300001F00104100000000003084000000000000     
100   95050318597867880000000000004000000000004000002000000010410407190308073807006857260719000007509745   1030000200030000   333800010001203104000003327KBZPay                 Yangon        MMR11007190308073807000719000000000000000   10300001F05104100000000000840000000000000     
100   95050312498129060000000000002970000000002970002000000010410407191301393139792489770719000007511818   1020000200030000   333400010001204104000000281Myanmar Soft-Gate Tech Yangon        MMR11007191301393139790719000000000000000   10300001F05104100000000000624000000000000     
100   62911028202790560000000000018400000000018400002000000010410407190323453584944773800719673530945199   1030000900030000   541119000113190110000000077Sein Gay Har Chinatown YANGON        MMR11007190323453584940719000000000000000   10300001F00104100000000001104000000000000     
100   95050315259054570000000000005000000000005000002000000010410407190223085308626942350719000007509601   1030000200030000   333800010001203104000003327KBZPay                 Yangon        MMR11007190223085308620719000000000000000   10300001F05104100000000001050000000000000     
100   95030316535481960000000000123300000000123300002000000010410407190217556338524773800719220009633852   1040001600030000   591220000274000000010000262Shwe Ohh Pharmacy (Shw Yangon        MMR11007190217556338520719000000000000000   10300001F00104100000000007398000000000000     
100   95030385550669610000000000034450000000034450002000000010410407190704016498214773800719220014649821   1040001600030000   541120000563000000010000465Ocean Shwe Gone Daing  Yangon        MMR11007190704016498210719000000000000000   10300001F00104100000000002067000000000000     
100   95050317486512680000000000140000000000140000002000000010410407191117284728746305310719000007511521   1030000200030000   333800010001203104000003327KBZPay                 Yangon        MMR11007191117284728740719000000000000000   10300001F05104100000000029400000000000000     
100   62911028202093430000000000000990000000000990002000000010410407191311254125994773800719000007511852   1020000200030000   333400010001204104000000281Myanmar Soft-Gate Tech Yangon        MMR11007191311254125990719000000000000000   10300001F05104100000000000208000000000000     
100   62911028202077190000000000000990000000000990002000000010410407190722235223784773800719000007510779   1020000200030000   333400010001204104000000281Myanmar Soft-Gate Tech Yangon        MMR11007190722235223780719000000000000000   10300001F05104100000000000208000000000000     
100   62911028202665580000000000030000000000030000002000000010410407190536406444774773800719220012644477   1040001600030000   598320000854000000010000608Terminal Petrol Statio Yangon        MMR11007190536406444770719000000000000000   10300001F00104100000000000900000000000000     
100   62911028202662690000000000005550000000005550002000000010410407190823023651854773800719249531402199   1030000900030000   541119001233190110000000951Marketplace KTY C 3    YANGONARTAUNG MMR11007190823023651850719000000000000000   10300001F00104100000000000333000000000000     
100   95050322990383760000000000036700000000036700002000000010410407191020013680165333600719877501601199   1030000900030000   541119001206190110000000948City Mart YK C 4       YANGONAUNG    MMR11007191020013680160719000000000000000   10300001F00104100000000009175000000000000     
100   62911028202809060000000000050000000000050000002000000010410407191409233923074773800719000007512075   1030000200030000   333800010001203104000003327KBZPay                 Yangon        MMR11007191409233923070719000000000000000   10300001F05104100000000010500000000000000     
100   95050316377977350000000000010000000000010000002000000010410407190223175317858594840719000007509600   1040001600030000   333800010001220104000004507A +                    Yangon        MMR11007190223175317850719000000000000000   10300001F05104100000000002100000000000000     
100   95050310427855490000000000002970000000002970002000000010410407190923275327517142490719000007511214   1020000200030000   333400010001204104000000281Myanmar Soft-Gate Tech Yangon        MMR11007190923275327510719000000000000000   10300001F05104100000000000624000000000000     
100   95050316638224720000000000004950000000004950002000000010410407191425475547649440090719000007512163   1020000200030000   333400010001204104000000281Myanmar Soft-Gate Tech Yangon        MMR11007191425475547640719000000000000000   10300001F05104100000000001040000000000000     
100   95030346645639490000000000002850000000002850002000000010410407190653416493134773800719220013649313   1040001600030000   591220000258000000010000246Shwe Ohh Pharmacy (Sin Yangon        MMR11007190653416493130719000000000000000   10300001F00104100000000000171000000000000     
100   62443100338139870000000000200000000000200000002000000010410407191025473681901943540719996551647199   1030000900030000   541119001369190110000000977Ocean PZD Service C1   YANGONAUNG    MMR11007191025473681900719000000000000000   10300001F00104100000000050000000000000000     
100   95050317416187280000000000061352000000061352002000000010410407190509473606956596260719800391147199   1030000900030000   541119001331190110000000971Ocean Junction NPT C 9 NAYPYITAW     MMR11007190509473606950719000000000000000   10300001F00104100000000015338000000000000     
100   95050310427855490000000000000990000000000990002000000010410407191515484548772745060719000007512310   1020000200030000   333400010001204104000000281Myanmar Soft-Gate Tech Yangon        MMR11007191515484548770719000000000000000   10300001F05104100000000000208000000000000     
100   62911028202298040000000000077800000000077800002000000010410407190343346379794773800719220010637979   1040001600030000   591220000043000000010000041Mingalar Pharmacy      Yangon        MMR11007190343346379790719000000000000000   10300001F00104100000000004668000000000000     
100   62911028202527490000000000017000000000017000002000000010410407190644156487784773800719220013648778   1040001600030000   598320000915000000010000664MMTM - North Dagon     Ygn           MMR11007190644156487780719000000000000000   10300001F00104100000000000510000000000000     
100   95050315745833530000000000040000000000040000002000000010410407190517044704234858680719000007510249   1030000200030000   333800010001203104000003327KBZPay                 Yangon        MMR11007190517044704230719000000000000000   10300001F05104100000000008400000000000000     
100   95050312675525330000000000146000000000146000002000000010410407190226595659773637390719000007509610   1030000200030000   333800010001203104000003327KBZPay                 Yangon        MMR11007190226595659770719000000000000000   10300001F05104100000000030660000000000000     
100   62443101093150400000000000055000000000055000002000000010410407190723356507978880070719220014650797   1040001600030000   598320000658000000010000527Shwe Taung Energy (YGN Yangon        MMR11007190723356507970719000000000000000   10300001F00104100000000006600000000000000     
100   62443100355903280000000000160000000000160000002000000010410407191402033203962404670719000007512047   1030000200030000   333800010001203104000003327KBZPay                 Yangon        MMR11007191402033203960719000000000000000   10300001F05104100000000033600000000000000     
100   62443100345308040000000000010000000000010000002000000010410407191502083208227702510719000007512273   1030000200030000   333800010001203104000003327KBZPay                 Yangon        MMR11007191502083208220719000000000000000   10300001F05104100000000002100000000000000     
100   95030399326190680000000000066900000000066900002000000010410407191156376715564773800719220018671556   1040001600030000   591220000285000000010000273Shwe Ohh Pharmacy (47t Yangon        MMR11007191156376715560719000000000000000   10300001F00104100000000004014000000000000     
100   95030399326190680000000000035500000000035500002000000010410407191141206699754773800719220018669975   1040001600030000   591220001006000000010000736Shwe Ohh Pharmacy (Kyi Ygn           MMR11007191141206699750719000000000000000   10300001F00104100000000002130000000000000     
100   62443100333488440000000000150000000000150000002000000010410407180925110040392786420718000356138363   1030000300030000   541100002337000000000000102CB BANK                MAKRO MYANMAR MMR11007180925110040390718000000000000000   10300001F00104100000000037500000000000000     
100   95050311121153200000000000011000000000011000002000000010410407191205233523983085440719000007511660   1030000200030000   333800010001203104000003327KBZPay                 Yangon        MMR11007191205233523980719000000000000000   10300001F05104100000000002310000000000000     
100   95030396594260770000000000029000000000029000002000000010410407180653110012394773800718219913001239   1030000500030000   598320068302000055983200683MAX ENERGY             PTN           MMR11007180653110012390718000000000000000   10300001 00104100000000000870000000000000     
100   62911028202452220000000000142800000000142800002000000010410407180642130020484773800718219913002048   1030000500030000   531120226710000045311202267OCEAN NORTH POINT      PTN           MMR11007180642130020480718000000000000000   10300001 00104100000000008568000000000000     
100   95050312498129060000000000000990000000000990002000000010410407191401033103847362120719000007512042   1020000200030000   333400010001204104000000281Myanmar Soft-Gate Tech Yangon        MMR11007191401033103840719000000000000000   10300001F05104100000000000208000000000000     
100   62443100335647210000000000009900000000009900002000000010410407190111174117947282740719000007509458   1020000200030000   333400010001204104000000281Myanmar Soft-Gate Tech Yangon        MMR11007190111174117940719000000000000000   10300001F05104100000000002079000000000000     
100   62443100300743690000000000010504000000010504002000000010410407190836213654850107070719406061521199   1030000900030000   581219000371190110000000243Jo Jo Hot Pot (Junctio YANGONN       MMR11007190836213654850719000000000000000   10300001F00104100000000004464000000000000     
100   95050328035424750000000000059850000000059850002000000010410407180524340000925737220718219911000092   1030000500030000   581220205601000085812202056KRISPY KREME (TERMINAL PTN           MMR11007180524340000920718000000000000000   10300001 00104100000000025437000000000000     
100   95030310098554020000000000084600000000084600002000000010410407180316360027024773800718219909002702   1030000500030000   531120226308000045311202263OCEAN SUPER CENTER STJ PTN           MMR11007180316360027020718000000000000000   10300001 00104100000000005076000000000000     
100   62911028202907490000000000047300000000047300002000000010410407190953406594384773800719220016659438   1040001600030000   591220000299000000010000287Shwe Ohh Pharmacy (Yan Yangon        MMR11007190953406594380719000000000000000   10300001F00104100000000002838000000000000     
100   62443100318296470000000000046000000000046000002000000010410407180948360005930368070718000356141784   1030000300030000   598300001209000000000000817CB BANK                SHWE TAUNG EN MMR11007180948360005930718000000000000000   10300001F00104100000000005520000000000000     
100   95050326228858240000000000101450000000101450002000000010410407191236399565537532320719006396433252   1040001400030000   581210000464025812100002920Golden Duck Restaurant (Sayarsan) nu MMR11007191236399565530719000000000000000   10300001 00104100000000043117000000000000     
100   95050313411345710000000000002970000000002970002000000010410407190904573457770447450719000007511145   1020000200030000   333400010001204104000000281Myanmar Soft-Gate Tech Yangon        MMR11007190904573457770719000000000000000   10300001F05104100000000000624000000000000     
100   62911028202136750000000000358246000000358246002000000010410407191244410261704773800719000750361200   1030000200030000   541188001037000008000000010KBZ BANK               MARKETPLACE - MMR11007191244410261700719000000000000000   10300001 00104100000000021495000000000000     
100   95050318141561190000000000010000000000010000002000000010410407191112384238621262770719000007511502   1040001600030000   333800010001220104000004507A +                    Yangon        MMR11007191112384238620719000000000000000   10300001F05104100000000002100000000000000     
100   95030399326190680000000000029500000000029500002000000010410407191118506675994773800719220018667599   1040001600030000   591220000043000000010000041Mingalar Pharmacy      Yangon        MMR11007191118506675990719000000000000000   10300001F00104100000000001770000000000000     
100   95050317770415060000000000005031000000005031002000000010410407181721395139655460060719000007509124   1030000200030000   333800010001203104000003327KBZPay                 Yangon        MMR11007181721395139650719000000000000000   10300001F05104100000000001057000000000000     
100   62911028202440680000000000012000000000012000002000000010410407191517200219254773800719000750367807   1030000200030000   541188001080000008000000294KBZ BANK               CITY MART - J MMR11007191517200219250719000000000000000   10300001 00104100000000000720000000000000     
100   95050317176867660000000000001980000000001980002000000010410407190812524252052440330719000007510963   1020000200030000   333400010001204104000000281Myanmar Soft-Gate Tech Yangon        MMR11007190812524252050719000000000000000   10300001F05104100000000000416000000000000     
100   62911028202162640000000000035900000000035900002000000010410407181053320005284773800718219917000528   1030000500030000   591220132901008605912201329THEIK DI WIN SHOP      PTN           MMR11007181053320005280718000000000000000   10300001 00104100000000002154000000000000     
100   62443100364681690000000001000000000001000000002000000010410407190140411041443382100719000007509512   1040001600030000   333800010001220104000004507A +                    Yangon        MMR11007190140411041440719000000000000000   10300001F05104100000000210000000000000000     
100   95050316653112190000000000005000000000005000002000000010410407190309333933049651650719000007509748   1030000200030000   333800010001203104000003327KBZPay                 Yangon        MMR11007190309333933040719000000000000000   10300001F05104100000000001050000000000000     
100   95030399326190680000000000036300000000036300002000000010410407191103106660014773800719220018666001   1040001600030000   591220000301000000010000289Shwe Ohh Pharmacy (Yay Yangon        MMR11007191103106660010719000000000000000   10300001F00104100000000002178000000000000     
100   95030399326190680000000000048950000000048950002000000010410407191121066678334773800719220018667833   1040001600030000   591220000043000000010000041Mingalar Pharmacy      Yangon        MMR11007191121066678330719000000000000000   10300001F00104100000000002937000000000000     
100   95050326511614440000000000045272000000045272002000000010410407181236090022660843000718219919002266   1030000500030000   541120226803000045411202268CITY MART WAIZAYANDA   PTN           MMR11007181236090022660718000000000000000   10300001 00104100000000011318000000000000     
100   95050328282898390000000000243550000000243550002000000010410407190335533587264609100719779051053199   1030000900030000   541119001151190110000000930OCEAN HTY C 1          YANGONTHARYA  MMR11007190335533587260719000000000000000   10300001F00104100000000060888000000000000     
100   95050321455580800000000000045806000000045806002000000010410407191735580284979610280719000750374130   1030000200030000   541188001003000008000000008KBZ BANK               MARKETPLACE - MMR11007191735580284970719000000000000000   10300001 00104100000000011452000000000000     
100   62911028202169750000000000072532000000072532002000000010410407190731006511764773800719220014651176   1040001600030000   541120000559000000010000465Ocean Shwe Gone Daing  Yangon        MMR11007190731006511760719000000000000000   10300001F00104100000000004352000000000000     
100   62911028202440680000000000009050000000009050002000000010410407190354446385274773800719220010638527   1040001600030000   591220000296000000010000284Shwe Ohh Pharmacy (Lan Yangon        MMR11007190354446385270719000000000000000   10300001F00104100000000000543000000000000     
100   95030346645639490000000000035627000000035627002000000010410407180719500006474773800718219913000647   1030000500030000   531120155714000045311201557GAMONE PWINT           PTN           MMR11007180719500006470718000000000000000   10300001 00104100000000002138000000000000     
100   95050328384000040000000000025800000000025800002000000010410407190642596487109560840719220013648710   1040001600030000   591220000273000000010000261Shwe Ohh Pharmacy (WZY Yangon        MMR11007190642596487100719000000000000000   10300001F00104100000000006192000000000000     
100   62911028202470870000000000009400000000009400002000000010410407191317040186094773800719000750362511   1030000200030000   541188001061000008000000314KBZ BANK               MARKETPLACE - MMR11007191317040186090719000000000000000   10300001 00104100000000000564000000000000     
100   95030346645639490000000000054720000000054720002000000010410407180750390001604773800718219914000160   1030000500030000   531120155708000045311201557GAMONE PWINT           PTN           MMR11007180750390001600718000000000000000   10300001 00104100000000003283000000000000     
100   62911028202156130000000000026850000000026850002000000010410407180425280002534773800718219910000253   1030000500030000   591220010401014405912200104SHWE OHH PHARMACY      PTN           MMR11007180425280002530718000000000000000   10300001 00104100000000001611000000000000     
100   62911028202169750000000000025000000000025000002000000010410407180756220022204773800718219914002220   1030000500030000   541120226803000045411202268CITY MART WAIZAYANDA   PTN           MMR11007180756220022200718000000000000000   10300001 00104100000000001500000000000000     
100   62911028202907560000000000018000000000018000002000000010410407180348170020874773800718219910002087   1030000500030000   598320001201000015172200012MAX ENERGY             PTN           MMR11007180348170020870718000000000000000   10300001 00104100000000000540000000000000     
100   62911028202147720000000000030000000000030000002000000010410407180826550017574773800718219914001757   1030000500030000   598320001604000015172200016MAX ENERGY             PTN           MMR11007180826550017570718000000000000000   10300001 00104100000000000900000000000000     
100   95030310098554020000000000016200000000016200002000000010410407180455010000934773800718219911000093   1030000500030000   581220264201000085812202642BREAD TALK             PTN           MMR11007180455010000930718000000000000000   10300001 00104100000000001652000000000000     
100   62911028202207460000000000010000000000010000002000000010410407180605360018034773800718219912001803   1030000500030000   531120226331000045311202263OCEAN SUPER CENTER STJ PTN           MMR11007180605360018030718000000000000000   10300001 00104100000000000600000000000000     
100   62911028202074950000000000011200000000011200002000000010410407180944590001604773800718219916000160   1030000500030000   581220195901000085812201959AKKHAYA TEA HOUSE      PTN           MMR11007180944590001600718000000000000000   10300001 00104100000000001142000000000000     
100   62911028202451150000000000012500000000012500002000000010410407180902290003914773800718219915000391   1030000500030000   541120229010000045411202290CITY MART SUPERMARKET  PTN           MMR11007180902290003910718000000000000000   10300001 00104100000000000750000000000000     
100   62911028202469150000000000160000000000160000002000000010410407170825130001724773800717219814000172   1030000500030000   729820064401000017298200644HAIR REPUBLIC SALON    PTN           MMR11007170825130001720717000000000000000   10300001 00104100000000009600000000000000     
100   62911028202400660000000000067550000000067550002000000010410407171017320016774773800717219816001677   1030000500030000   541120226401000045411202264MARKET PLACE MYANMARPL PTN           MMR11007171017320016770717000000000000000   10300001 00104100000000004053000000000000     
100   62911028202136750000000000020400000000020400002000000010410407191252130017454773800719000750361494   1030000200030000   541188001046000008000000010KBZ BANK               MARKETPLACE - MMR11007191252130017450719000000000000000   10300001 00104100000000001224000000000000     
100   62911028202790980000000001000000000001000000002000000010410407191131560000754773800719000750375261   1030000200030000   481288001529000008000004974KBZ BANK               YOUNIQUE INFO MMR11007191131560000750719000000000000000   10300001 00104100000000060000000000000000     
100   95030326326384470000000000015600000000015600002000000010410407191603300012224773800719000750369878   1030000200030000   581288000949000008000004876KBZ BANK               PIZZA HUT RES MMR11007191603300012220719000000000000000   10300001 00104100000000001591000000000000     
100   62911028202790980000000001000000000001000000002000000010410407191132280000764773800719000750375295   1030000200030000   481288001529000008000004974KBZ BANK               YOUNIQUE INFO MMR11007191132280000760719000000000000000   10300001 00104100000000060000000000000000     
100   62911028202790980000000001000000000001000000002000000010410407191133000000774773800719000750375308   1030000200030000   481288001529000008000004974KBZ BANK               YOUNIQUE INFO MMR11007191133000000770719000000000000000   10300001 00104100000000060000000000000000     
100   62443100346413950000000000022202000000022202002000000010410407180120100019881353580718219907001988   1030000500030000   598320001004000015172200010MAX ENERGY             PTN           MMR11007180120100019880718000000000000000   10300001 00104100000000002664000000000000     
100   62911028202446540000000000069450000000069450002000000010410407180441200001984773800718219911000198   1030000500030000   591220013401014405912200134SHWE OHH PHARMACY      PTN           MMR11007180441200001980718000000000000000   10300001 00104100000000004167000000000000     
100   62443100306698200000000000113850000000113850002000000010410407180954170001678800690718219916000167   1030000500030000   591220012501014405912200125SHWE OHH PHARMACY      PTN           MMR11007180954170001670718000000000000000   10300001 00104100000000027324000000000000     
100   62911028202490830000000000550000000000550000002000000010410407181403470006404773800718219920000640   1030000500030000   806220046404006308062200464ASIA ROYAL HOSPITAL    PTN           MMR11007181403470006400718000000000000000   10300001 00104100000000033000000000000000     
100   62911028202616250000000000042000000000042000002000000010410407180601360016604773800718219912001660   1030000500030000   598320002102000015172200021MAX ENERGY             PTN           MMR11007180601360016600718000000000000000   10300001 00104100000000001260000000000000     
100   95050325388974590000000000003800000000003800002000000010410407180945150017940282980718219916001794   1030000500030000   541120230003000045411202300MARKET PLACE BY CITY M PTN           MMR11007180945150017940718000000000000000   10300001 00104100000000000950000000000000     
100   62911028202809060000000000078600000000078600002000000010410407180421440002324773800718219910000232   1030000500030000   591220012401014405912200124SHWE OHH PHARMACY      PTN           MMR11007180421440002320718000000000000000   10300001 00104100000000004716000000000000     
100   62443100333488440000000000136600000000136600002000000010410407180927440013614438910718000356138754   1030000300030000   541100002350000000000000102CB BANK                MAKRO MYANMAR MMR11007180927440013610718000000000000000   10300001F00104100000000034150000000000000     
100   62911028202790980000000001000000000001000000002000000010410407191131330000744773800719000750375241   1030000200030000   481288001529000008000004974KBZ BANK               YOUNIQUE INFO MMR11007191131330000740719000000000000000   10300001 00104100000000060000000000000000     
100   62911028202790980000000001000000000001000000002000000010410407191133320000784773800719000750375334   1030000200030000   481288001529000008000004974KBZ BANK               YOUNIQUE INFO MMR11007191133320000780719000000000000000   10300001 00104100000000060000000000000000     
100   62443100390038980000000000007400000000007400002000000010410407191253460214131298420719000750361557   1030000200030000   541188001032000008000000298KBZ BANK               CITY MART - M MMR11007191253460214130719000000000000000   10300001 00104100000000001850000000000000     
100   95030394609966640000000000025050000000025050002000000010410407191257580407164773800719000750361713   1030000200030000   541188001024000008000000298KBZ BANK               CITY MART - M MMR11007191257580407160719000000000000000   10300001 00104100000000001503000000000000     
100   95050316067768680000000000000990000000000990002000000010410407191352512251097447220719000007512007   1020000200030000   333400010001204104000000281Myanmar Soft-Gate Tech Yangon        MMR11007191352512251090719000000000000000   10300001F05104100000000000208000000000000     
100   62911028202193670000000000052060000000052060002000000010410407191751470174704773800719000750374803   1030000200030000   541188001306000008000000325KBZ BANK               CITY MART - A MMR11007191751470174700719000000000000000   10300001 00104100000000003124000000000000     
100   62443100364681690000000001000000000001000000002000000010410407190141571157215034580719000007509515   1040001600030000   333800010001220104000004507A +                    Yangon        MMR11007190141571157210719000000000000000   10300001F05104100000000210000000000000000     
100   62911028202369990000000000200000000000200000002000000010410407191530290029334773800719000007512342   1030000200030000   333800010001203104000003327KBZPay                 Yangon        MMR11007191530290029330719000000000000000   10300001F05104100000000042000000000000000     
100   62911028202147720000000000005600000000005600002000000010410407180856490011984773800718219915001198   1030000500030000   541120227507000045411202275CITY MART (AHLONE BRAN PTN           MMR11007180856490011980718000000000000000   10300001 00104100000000000336000000000000     
100   62911028202147720000000000041000000000041000002000000010410407180854070016814773800718219915001681   1030000500030000   541120227503000045411202275CITY MART (AHLONE BRAN PTN           MMR11007180854070016810718000000000000000   10300001 00104100000000002460000000000000     
100   62911028202533740000000000030000000000030000002000000010410407180211380015704773800718219908001570   1030000500030000   598320001602000015172200016MAX ENERGY             PTN           MMR11007180211380015700718000000000000000   10300001 00104100000000000900000000000000     
100   62911028202451150000000000051550000000051550002000000010410407180908180008614773800718219915000861   1030000500030000   541120229003000045411202290CITY MART SUPERMARKET  PTN           MMR11007180908180008610718000000000000000   10300001 00104100000000003093000000000000     
100   62911028202452220000000000037200000000037200002000000010410407180643380020494773800718219913002049   1030000500030000   531120226710000045311202267OCEAN NORTH POINT      PTN           MMR11007180643380020490718000000000000000   10300001 00104100000000002232000000000000     
100   62911028202668300000000000020000000000020000002000000010410407180425450023134773800718219910002313   1030000500030000   598320001403000015172200014MAX ENERGY             PTN           MMR11007180425450023130718000000000000000   10300001 00104100000000000600000000000000     
100   62911028202237810000000000024200000000024200002000000010410407180851570024994773800718219915002499   1030000500030000   531120226310000045311202263OCEAN SUPER CENTER STJ PTN           MMR11007180851570024990718000000000000000   10300001 00104100000000001452000000000000     
100   95050326689257240000000000024450000000024450002000000010410407181229170252445970640718000356165411   1030000300030000   531100000794000000000000540CB BANK                CAPITAL SUPER MMR11007181229170252440718000000000000000   10300001F00104100000000005868000000000000     
100   95050314567755980000000000005050000000005050002000000010410407190446071607959986320719000007510114   1030000200030000   333800010001203104000003327KBZPay                 Yangon        MMR11007190446071607950719000000000000000   10300001F05104100000000001061000000000000     
100   95050314996291580000000000001000000000001000002000000010410407190846161616726802100719000007511077   1030000200030000   3338000100012031040000040022C2P (Myanmar) Co. Ltd Yangon        MMR11007190846161616720719000000000000000   10300001F05104100000000000210000000000000     
100   95050314979630620000000000000990000000000990002000000010410407190842551255771759560719000007511074   1020000200030000   333400010001204104000000281Myanmar Soft-Gate Tech Yangon        MMR11007190842551255770719000000000000000   10300001F05104100000000000208000000000000     
100   95030305700676370000000000085000000000085000002000000010410407191007550058064773800719000750354964   1030000200030000   541188001505000008000000403KBZ BANK               OCEAN SUPERCE MMR11007191007550058060719000000000000000   10300001 00104100000000005100000000000000     
100   95050319528093960000000000002970000000002970002000000010410407190933440344403667330719000007511251   1020000200030000   333400010001204104000000281Myanmar Soft-Gate Tech Yangon        MMR11007190933440344400719000000000000000   10300001F05104100000000000624000000000000     
100   95050310397364970000000000002970000000002970002000000010410407182343441344135374970719000007509372   1020000200030000   333400010001204104000000281Myanmar Soft-Gate Tech Yangon        MMR11007182343441344130719000000000000000   10300001F05104100000000000624000000000000     
100   95050322312885760000000000007000000000007000002000000010410407190758142814785915490719000007510903   1030000200030000   333800010001203104000003327KBZPay                 Yangon        MMR11007190758142814780719000000000000000   10300001F05104100000000001470000000000000     
100   95050318141561190000000000010000000000010000002000000010410407181644231423802155100719000007509065   1040001600030000   333800010001220104000004507A +                    Yangon        MMR11007181644231423800719000000000000000   10300001F05104100000000002100000000000000     
100   62911028202530930000000000050805000000050805002000000010410407181012410032064773800718219916003206   1030000500030000   541120226403000045411202264MARKET PLACE MYANMARPL PTN           MMR11007181012410032060718000000000000000   10300001 00104100000000003048000000000000     
100   95030301100126550000000000022000000000022000002000000010410407181131005926704773800718219918592670   1040001600030000   598320001065000000010000785Yangon Petrol (Thudama Ygn           MMR11007181131005926700718000000000000000   10300001F00104100000000000660000000000000     
100   95050312695033440000000000000990000000000990002000000010410407190139020902993467190719000007509509   1020000200030000   333400010001204104000000281Myanmar Soft-Gate Tech Yangon        MMR11007190139020902990719000000000000000   10300001F05104100000000000208000000000000     
100   62911028202320300000000000088750000000088750002000000010410407181250286011104773800718219919601110   1040001600030000   581420000076000000010000074Hot Pot City Ahlone    Yangon        MMR11007181250286011100718000000000000000   10300001F00104100000000002663000000000000     
100   95030399304534290000000000218750000000218750002000000010410407181005250001334773800718219916000133   1030000500030000   569120051501000015691200515AMERICAN BRANDED COLLE PTN           MMR11007181005250001330718000000000000000   10300001 00104100000000013125000000000000     
100   62911028202308280000000000015960000000015960002000000010410407181238395999474773800718219919599947   1040001600030000   581420001161000000010000871Kin Sakura (Bo Aung Ky ygn           MMR11007181238395999470718000000000000000   10300001F00104100000000000479000000000000     
100   95050316638224720000000000002970000000002970002000000010410407190556292629473461480719000007510424   1020000200030000   333400010001204104000000281Myanmar Soft-Gate Tech Yangon        MMR11007190556292629470719000000000000000   10300001F05104100000000000624000000000000     
100   62911028202107210000000000015028000000015028002000000010410407191720370284944773800719000750373408   1030000200030000   541188001003000008000000008KBZ BANK               MARKETPLACE - MMR11007191720370284940719000000000000000   10300001 00104100000000000902000000000000     
100   95050321455580800000000000019842000000019842002000000010410407191732500284963000350719000750373963   1030000200030000   541188001003000008000000008KBZ BANK               MARKETPLACE - MMR11007191732500284960719000000000000000   10300001 00104100000000004961000000000000     
100   95050326393773020000000000000990000000000990002000000010410407190747581758724263000719000007510866   1020000200030000   333400010001204104000000281Myanmar Soft-Gate Tech Yangon        MMR11007190747581758720719000000000000000   10300001F05104100000000000208000000000000     
100   95050313145843230000000000009900000000009900002000000010410407190354132413447828970719000007509918   1020000200030000   333400010001204104000000281Myanmar Soft-Gate Tech Yangon        MMR11007190354132413440719000000000000000   10300001F05104100000000002079000000000000     
100   95050315439834520000000000030000000000030000002000000010410407190157292729746687060719000007509554   1030000200030000   333800010001203104000003327KBZPay                 Yangon        MMR11007190157292729740719000000000000000   10300001F05104100000000006300000000000000     
100   62443100301716860000000000000990000000000990002000000010410407190459322932719901220719000007510177   1020000200030000   333400010001204104000000281Myanmar Soft-Gate Tech Yangon        MMR11007190459322932710719000000000000000   10300001F05104100000000000208000000000000     
100   95050312695033440000000000000990000000000990002000000010410407191431190119061092570719000007512179   1020000200030000   333400010001204104000000281Myanmar Soft-Gate Tech Yangon        MMR11007191431190119060719000000000000000   10300001F05104100000000000208000000000000     
100   95050317343045830000000000002970000000002970002000000010410407190432480248481389230719000007510059   1020000200030000   333400010001204104000000281Myanmar Soft-Gate Tech Yangon        MMR11007190432480248480719000000000000000   10300001F05104100000000000624000000000000     
100   62443100364681690000000000500000000000500000002000000010410407190143121312820077130719000007509519   1040001600030000   333800010001220104000004507A +                    Yangon        MMR11007190143121312820719000000000000000   10300001F05104100000000105000000000000000     
100   95050314931885730000000000001000000000001000002000000010410407191347591759685794740719000007511989   1030000200030000   3338000100012031040000040022C2P (Myanmar) Co. Ltd Yangon        MMR11007191347591759680719000000000000000   10300001F05104100000000000210000000000000     
100   95050315158357300000000000000990000000000990002000000010410407191448021802507787610719000007512218   1020000200030000   333400010001204104000000281Myanmar Soft-Gate Tech Yangon        MMR11007191448021802500719000000000000000   10300001F05104100000000000208000000000000     
100   95050317175714970000000000050000000000050000002000000010410407190348021802711133940719000007509898   1030000200030000   333800010001203104000003327KBZPay                 Yangon        MMR11007190348021802710719000000000000000   10300001F05104100000000010500000000000000     
100   95050317003064220000000000000990000000000990002000000010410407190849531953793837520719000007511100   1020000200030000   333400010001204104000000281Myanmar Soft-Gate Tech Yangon        MMR11007190849531953790719000000000000000   10300001F05104100000000000208000000000000     
100   95050322312885760000000000010000000000010000002000000010410407190838280828431844650719000007511059   1030000200030000   333800010001203104000003327KBZPay                 Yangon        MMR11007190838280828430719000000000000000   10300001F05104100000000002100000000000000     
100   95050314893649800000000000000990000000000990002000000010410407191057352735100205950719000007511470   1020000200030000   333400010001204104000000281Myanmar Soft-Gate Tech Yangon        MMR11007191057352735100719000000000000000   10300001F05104100000000000208000000000000     
100   95050313400081980000000000005000000000005000002000000010410407190249581958793552290719000007509680   1040001600030000   333800010001220104000004507A +                    Yangon        MMR11007190249581958790719000000000000000   10300001F05104100000000001050000000000000     
100   62911028202169750000000000003600000000003600002000000010410407191409530131204773800719000750364741   1030000200030000   541188001189000008000000383KBZ BANK               OCEAN SUPER C MMR11007191409530131200719000000000000000   10300001 00104100000000000216000000000000     
100   95050314064416890000000000001980000000001980002000000010410407182305263526303722480719000007509358   1020000200030000   333400010001204104000000281Myanmar Soft-Gate Tech Yangon        MMR11007182305263526300719000000000000000   10300001F05104100000000000416000000000000     
100   95050318214455130000000000002970000000002970002000000010410407190228365836525289870719000007509613   1020000200030000   333400010001204104000000281Myanmar Soft-Gate Tech Yangon        MMR11007190228365836520719000000000000000   10300001F05104100000000000624000000000000     
100   95050316638224720000000000004950000000004950002000000010410407191522075207384397540719000007512328   1020000200030000   333400010001204104000000281Myanmar Soft-Gate Tech Yangon        MMR11007191522075207380719000000000000000   10300001F05104100000000001040000000000000     
100   62911028202473840000000000061050000000061050002000000010410407190943483670804773800719322131648199   1030000900030000   591219000694190110000000525Shwe Ohh Pharmacy ST-2 YANGONAW      MMR11007190943483670800719000000000000000   10300001F00104100000000003663000000000000     
100   95050329023136610000000000019250000000019250002000000010410407191040563685943596020719243101756199   1030000900030000   541119001282190110000000963City Mart SPL C 7      YANGONMYOTHIT MMR11007191040563685940719000000000000000   10300001F00104100000000004813000000000000     
100   62443101093150400000000000020400000000020400002000000010410407190803026527380872940719220015652738   1040001600030000   591220000280000000010000268Shwe Ohh Pharmacy (Naw Yangon        MMR11007190803026527380719000000000000000   10300001F00104100000000004896000000000000     
