100   95050313968650950000000000000990000000000990002000000010410407180604123412075226640718000007505993   1020000200030000   333400010001204104000000281Myanmar Soft-Gate Tech Yangon        MMR11007180604123412070718000000000000000   10300001F05104100000000000208000000000000     
100   95050318057347910000000000050000000000050000002000000010410407180859182918286077610718000007507374   1030000200030000   3338000100012031040000040022C2P (Myanmar) Co. Ltd Yangon        MMR11007180859182918280718000000000000000   10300001F05104100000000010500000000000000     
100   62443100328070970000000000012850000000012850002000000010410407170725360007066250520717219813000706   1030000500030000   531120226306000045311202263OCEAN SUPER CENTER STJ PTN           MMR11007170725360007060717000000000000000   10300001 00104100000000003084000000000000     
100   62911028202527490000000000030000000000030000002000000010410407170304460015824773800717219809001582   1030000500030000   598320002103000015172200021MAX ENERGY             PTN           MMR11007170304460015820717000000000000000   10300001 00104100000000000900000000000000     
100   95050322420590810000000000052000000000052000002000000010410407150107050717980996050715219601071798   1030000600030000   554100000952315799420000474DENKO N.DAGON - 1      YANGON        MMR11007150107050717980715000000000000000   10300001 00104100000000006240000000000000     
100   95050324850150480000000000080000000000080000002000000010410407150112080468876038600715219601046887   1030000600030000   554100001009315799420000504DENKO SOUTH DAGON      YANGON        MMR11007150112080468870715000000000000000   10300001 00104100000000009600000000000000     
100   62443100350052510000000000150000000000150000002000000010410407170845260006209009260717000355954142   1030000300030000   541100002357000000000000102CB BANK                MAKRO MYANMAR MMR11007170845260006200717000000000000000   10300001F00104100000000037500000000000000     
100   62443101006037900000000000020000000000020000002000000010410407172334145486054828740718219906548605   1040001600030000   598320000911000000010000662MMTM - Tamwe           Ygn           MMR11007172334145486050718000000000000000   10300001F00104100000000002400000000000000     
100   95050324250133010000000000074000000000074000002000000010410407170028240015444562380717219806001544   1030000500030000   598320002101000015172200021MAX ENERGY             PTN           MMR11007170028240015440717000000000000000   10300001 00104100000000008880000000000000     
100   62443100328070970000000000007800000000007800002000000010410407170716440018741207970717219813001874   1030000500030000   531120226326000045311202263OCEAN SUPER CENTER STJ PTN           MMR11007170716440018740717000000000000000   10300001 00104100000000001872000000000000     
100   95050319207947610000000000008200000000008200002000000010410407170633100040032434970717000355936213   1030000300030000   541100000217000000000000113CB BANK                ONESTOP KITCH MMR11007170633100040030717000000000000000   10300001F00104100000000002050000000000000     
100   62911028202084020000000000106400000000106400002000000010410407170738190001584773800717219814000158   1030000500030000   541120129726000045411201297MAKRO MYANMAR          PTN           MMR11007170738190001580717000000000000000   10300001 00104100000000006384000000000000     
100   95050326228858240000000000035999000000035999002000000010410407150657450017099321700715219606001709   1030000600030000   554100001214315799420000666DENKO MAGWAY - 1       MAGWAY.       MMR11007150657450017090715000000000000000   10300001 00104100000000004320000000000000     
100   62443100333488440000000000109750000000109750002000000010410407170852320019915704280717219815001991   1030000500030000   541120226417000045411202264MARKET PLACE MYANMARPL PTN           MMR11007170852320019910717000000000000000   10300001 00104100000000027438000000000000     
100   62911028202540670000000000041000000000041000002000000010410407151031070078264773800715219610007826   1030000600030000   554100000732315799420000312DENKO MDY - 74         MANDALAY      MMR11007151031070078260715000000000000000   10300001 00104100000000001230000000000000     
100   95050326552133160000000000012243000000012243002000000010410407150923200063879456600715219609006387   1030000600030000   581200002287315799420000141FUJI COFFEE HOUSE      YANGON        MMR11007150923200063870715000000000000000   10300001 00104100000000005204000000000000     
100   95050322104201170000000000007680000000007680002000000010410407170615140002029044910717219812000202   1030000500030000   531120155702000045311201557GAMONE PWINT           PTN           MMR11007170615140002020717000000000000000   10300001 00104100000000001843000000000000     
100   62911028202400660000000000149900000000149900002000000010410407170813400001604773800717219814000160   1030000500030000   531120201505000085311202015HAGL BLAZON            PTN           MMR11007170813400001600717000000000000000   10300001 00104100000000008994000000000000     
100   95050325784857510000000000003800000000003800002000000010410407170226390003036555250717219808000303   1030000500030000   541120233201000045411202332CITY EXPRESS (MCS - 68 PTN           MMR11007170226390003030717000000000000000   10300001 00104100000000000950000000000000     
100   62911028202110420000000000008350000000008350002000000010410407171017410018574773800717219816001857   1030000500030000   541120229106000045411202291CITY MART YANKIN       PTN           MMR11007171017410018570717000000000000000   10300001 00104100000000000501000000000000     
100   62911028202313470000000000046000000000046000002000000010410407170550500001054773800717219812000105   1030000500030000   806220046403006308062200464ASIA ROYAL HOSPITAL    PTN           MMR11007170550500001050717000000000000000   10300001 00104100000000002760000000000000     
100   95050324200302760000000000013500000000013500002000000010410407170226200002568207740717219808000256   1030000500030000   591220020501005105912200205MINGALAR PHARMACY      PTN           MMR11007170226200002560717000000000000000   10300001 00104100000000003240000000000000     
100   62911028202684060000000000014128000000014128002000000010410407171051560012664773800717219817001266   1030000500030000   531120226707000045311202267OCEAN NORTH POINT      PTN           MMR11007171051560012660717000000000000000   10300001 00104100000000000848000000000000     
100   62911028202294730000000000120000000000120000002000000010410407171021030014424773800717219816001442   1030000500030000   598320001601000015172200016MAX ENERGY             PTN           MMR11007171021030014420717000000000000000   10300001 00104100000000003600000000000000     
100   62443100333488440000000000005800000000005800002000000010410407170822330003256761100717000355950920   1030000300030000   531100001408000000000000962CB BANK                G & G CONVENI MMR11007170822330003250717000000000000000   10300001F00104100000000001392000000000000     
100   62443100371022130000000000033206000000033206002000000010410407171154530005770126580717000355980693   1030000300030000   598300000256000000000000141CB BANK                PETRO K -1    MMR11007171154530005770717000000000000000   10300001F00104100000000003985000000000000     
100   62443100328070970000000000017550000000017550002000000010410407170939050008495619190717000355961577   1030000300030000   541100002358000000000000102CB BANK                MAKRO MYANMAR MMR11007170939050008490717000000000000000   10300001F00104100000000004388000000000000     
100   62911028202442250000000000024000000000024000002000000010410407170010550018794773800717219806001879   1030000500030000   598320001202000015172200012MAX ENERGY             PTN           MMR11007170010550018790717000000000000000   10300001 00104100000000000720000000000000     
100   62443100376865460000000000006850000000006850002000000010410407170319490002573080090717219809000257   1030000500030000   541120233501000045411202335CITY EXPRESS (MCS - 91 PTN           MMR11007170319490002570717000000000000000   10300001 00104100000000001713000000000000     
100   95050312173216740000000000030800000000030800002000000010410407170843250000520661740717000355953845   1030000300030000   531100000750000000000000408CB BANK                CAPITAL HYPER MMR11007170843250000520717000000000000000   10300001F00104100000000007392000000000000     
100   62443101050502450000000000037900000000037900002000000010410407170702510005264853330717219813000526   1030000500030000   806220172406013008062201724GRAND HANTHA HOSPITAL  PTN           MMR11007170702510005260717000000000000000   10300001 00104100000000009096000000000000     
100   95050313715913510000000000018550000000018550002000000010410407170943450013466105180717219816001346   1030000500030000   541120231305000045411202313CITY MART (AYEYARWON)  PTN           MMR11007170943450013460717000000000000000   10300001 00104100000000004638000000000000     
100   95050315701710960000000000002970000000002970002000000010410407181446311631556055740718000007508772   1020000200030000   333400010001204104000000281Myanmar Soft-Gate Tech Yangon        MMR11007181446311631550718000000000000000   10300001F05104100000000000624000000000000     
100   95050314893649800000000000000990000000000990002000000010410407181234280428520928100718000007508302   1020000200030000   333400010001204104000000281Myanmar Soft-Gate Tech Yangon        MMR11007181234280428520718000000000000000   10300001F05104100000000000208000000000000     
100   95050312160676580000000000000990000000000990002000000010410407180257472747841913600718000007504465   1020000200030000   333400010001204104000000281Myanmar Soft-Gate Tech Yangon        MMR11007180257472747840718000000000000000   10300001F05104100000000000208000000000000     
100   62911028202696360000000000038282000000038282002000000010410407181427480370264773800718000750319468   1030000200030000   541188001039000008000000010KBZ BANK               MARKETPLACE - MMR11007181427480370260718000000000000000   10300001 00104100000000002297000000000000     
100   62911028202503210000000000014200000000014200002000000010410407181238580030864773800718000750307857   1030000200030000   541188001048000008000000010KBZ BANK               MARKETPLACE - MMR11007181238580030860718000000000000000   10300001 00104100000000000852000000000000     
100   95050310251874990000000000027850000000027850002000000010410407181038530064481806640718000750295322   1030000200030000   541188001432000008000000401KBZ BANK               OCEAN SUPERCE MMR11007181038530064480718000000000000000   10300001 00104100000000006963000000000000     
100   62443100301716860000000000003960000000003960002000000010410407181230470047755885550718000007508301   1020000200030000   333400010001204104000000281Myanmar Soft-Gate Tech Yangon        MMR11007181230470047750718000000000000000   10300001F05104100000000000832000000000000     
100   62911028202503210000000000077746000000077746002000000010410407181229260370214773800718000750306758   1030000200030000   541188001039000008000000010KBZ BANK               MARKETPLACE - MMR11007181229260370210718000000000000000   10300001 00104100000000004665000000000000     
100   95050311736839760000000000000990000000000990002000000010410407180556282628825311740718000007505939   1020000200030000   333400010001204104000000281Myanmar Soft-Gate Tech Yangon        MMR11007180556282628820718000000000000000   10300001F05104100000000000208000000000000     
100   95050324154190880000000000041000000000041000002000000010410407180314572651576374260718445773532662   1040001400030000   599910000222025999100001869MAHAR SAN USA Store nu l No-55  Byin MMR11007180314572651570718000000000000000   10300001 00104100000000009840000000000000     
100   62443100392426520000000000010000000000010000002000000010410407180548581858211751480718000007505889   1030000200030000   333800010001203104000003327KBZPay                 Yangon        MMR11007180548581858210718000000000000000   10300001F05104100000000002100000000000000     
100   62911028202215530000000000020200000000020200002000000010410407181105540062944773800718000750298131   1030000200030000   541188001066000008000000314KBZ BANK               MARKETPLACE - MMR11007181105540062940718000000000000000   10300001 00104100000000001212000000000000     
100   95050326228858240000000000149650000000149650002000000010410407182035330284499445810718000750339995   1030000200030000   541188001003000008000000008KBZ BANK               MARKETPLACE - MMR11007182035330284490718000000000000000   10300001 00104100000000037413000000000000     
100   95050310902464360000000000015000000000015000002000000010410407181434400440494403260718000007508736   1030000200030000   3338000100012031040000040022C2P (Myanmar) Co. Ltd Yangon        MMR11007181434400440490718000000000000000   10300001F05104100000000003150000000000000     
100   62911028202093430000000000000990000000000990002000000010410407180643571357384773800718000007506347   1020000200030000   333400010001204104000000281Myanmar Soft-Gate Tech Yangon        MMR11007180643571357380718000000000000000   10300001F05104100000000000208000000000000     
100   95050317743858310000000000050000000000050000002000000010410407180043571357581438670718000007504046   1030000200030000   3338000100012031040000040022C2P (Myanmar) Co. Ltd Yangon        MMR11007180043571357580718000000000000000   10300001F05104100000000010500000000000000     
100   95050313817486860000000000004950000000004950002000000010410407180440171017877225230718000007505335   1020000200030000   333400010001204104000000281Myanmar Soft-Gate Tech Yangon        MMR11007180440171017870718000000000000000   10300001F05104100000000001040000000000000     
100   62911028202792960000000000007050000000007050002000000010410407181243020040024773800718000750308341   1030000200030000   541188001444000008000000401KBZ BANK               OCEAN SUPERCE MMR11007181243020040020718000000000000000   10300001 00104100000000000423000000000000     
100   95050314735271470000000000013700000000013700002000000010410407180850442044659552760718000007507291   1030000200030000   333800010001203104000003327KBZPay                 Yangon        MMR11007180850442044650718000000000000000   10300001F05104100000000002877000000000000     
100   62911028202530930000000000062500000000062500002000000010410407180445400046484773800718000750299178   1030000200030000   581288000098000008000003562KBZ BANK               CANTON PARADI MMR11007180445400046480718000000000000000   10300001 00104100000000006375000000000000     
100   95050325925517520000000000006200000000006200002000000010410407181533270251022531140718000750325371   1030000200030000   541188001017000008000000008KBZ BANK               MARKETPLACE - MMR11007181533270251020718000000000000000   10300001 00104100000000001550000000000000     
100   62911028202158290000000000043600000000043600002000000010410407180316003318174773800718732460900198   1030000900030000   591219000694190110000000525Shwe Ohh Pharmacy ST-2 YANGONAW      MMR11007180316003318170718000000000000000   10300001F00104100000000002616000000000000     
100   95050316818236190000000000000990000000000990002000000010410407181602143214622240190718000007508979   1020000200030000   333400010001204104000000281Myanmar Soft-Gate Tech Yangon        MMR11007181602143214620718000000000000000   10300001F05104100000000000208000000000000     
100   95030399326190680000000000026500000000026500002000000010410407180645583371364773800718343151358198   1030000900030000   591219000694190110000000525Shwe Ohh Pharmacy ST-2 YANGONAW      MMR11007180645583371360718000000000000000   10300001F00104100000000001590000000000000     
100   62911028202530930000000000022440000000022440002000000010410407180953333426254773800718183231633198   1030000900030000   581219000421190110000000282BCC (MPZ)              YANGON        MMR11007180953333426250718000000000000000   10300001F00104100000000002289000000000000     
100   95050322954091830000000000005000000000005000002000000010410407181526075607451098290718000007508891   1030000200030000   3334000100012031040000040102C2P (Myanmar) Co. Ltd Yangon        MMR11007181526075607450718000000000000000   10300001F05104100000000001050000000000000     
100   62911028202107390000000000074000000000074000002000000010410407181001323428724773800718331311632198   1030000900030000   554119000347190110000000214New Day Energy MTN     YANGONARTAUNG MMR11007181001323428720718000000000000000   10300001F00104100000000002220000000000000     
100   95050314534800510000000000000990000000000990002000000010410407180312034203758111840718000007504565   1020000200030000   333400010001204104000000281Myanmar Soft-Gate Tech Yangon        MMR11007180312034203750718000000000000000   10300001F05104100000000000208000000000000     
100   95050323233042810000000000070000000000070000002000000010410407181107353735239346920718000007508017   1030000200030000   333800010001203104000003327KBZPay                 Yangon        MMR11007181107353735230718000000000000000   10300001F05104100000000014700000000000000     
100   95050313892255050000000000100000000000100000002000000010410407180302543254090516400718000007504503   1030000200030000   333800010001203104000003327KBZPay                 Yangon        MMR11007180302543254090718000000000000000   10300001F05104100000000021000000000000000     
100   95050313145843230000000000030000000000030000002000000010410407180715414541894134180718000007506636   1030000200030000   333800010001203104000003327KBZPay                 Yangon        MMR11007180715414541890718000000000000000   10300001F05104100000000006300000000000000     
100   95050312498129060000000000002970000000002970002000000010410407181217184718464318160718000007508264   1020000200030000   333400010001204104000000281Myanmar Soft-Gate Tech Yangon        MMR11007181217184718460718000000000000000   10300001F05104100000000000624000000000000     
100   62911028202470870000000000015750000000015750002000000010410407180254265586644773800718219909558664   1040001600030000   591220000276000000010000264Shwe Ohh Pharmacy (YGH Yangon        MMR11007180254265586640718000000000000000   10300001F00104100000000000945000000000000     
100   62911028202790980000000000036000000000036000002000000010410407180128395540644773800718219908554064   1040001600030000   598320000322000000010000310PT Power Petrol Statio Yangon        MMR11007180128395540640718000000000000000   10300001F00104100000000001080000000000000     
100   95050310305109410000000000001980000000001980002000000010410407180520065006500360000718000007505651   1020000200030000   333400010001204104000000281Myanmar Soft-Gate Tech Yangon        MMR11007180520065006500718000000000000000   10300001F05104100000000000416000000000000     
100   95030399326190680000000000255595000000255595002000000010410407180718173380364773800718768481317198   1030000900030000   806219001119190110000000900Shwe La Min Hospital L YANGONAW      MMR11007180718173380360718000000000000000   10300001F00104100000000015336000000000000     
100   95050322248344280000000000300000000000300000002000000010410407180413044304469983960718000007505106   1030000200030000   333800010001203104000003327KBZPay                 Yangon        MMR11007180413044304460718000000000000000   10300001F05104100000000063000000000000000     
100   95050318712627500000000000002970000000002970002000000010410407180613044304826283450718000007506093   1020000200030000   333400010001204104000000281Myanmar Soft-Gate Tech Yangon        MMR11007180613044304820718000000000000000   10300001F05104100000000000624000000000000     
100   95050310305109410000000000001980000000001980002000000010410407181002563256675495720718000007507714   1020000200030000   333400010001204104000000281Myanmar Soft-Gate Tech Yangon        MMR11007181002563256670718000000000000000   10300001F05104100000000000416000000000000     
100   62911028202132460000000000025950000000025950002000000010410407180758483392244773800718383281448198   1030000900030000   541119000881190110000000084Pro (1) Global (Pazund YANGONARTAUNG MMR11007180758483392240718000000000000000   10300001F00104100000000001557000000000000     
100   95050317176867660000000000001980000000001980002000000010410407181606113611250502610718000007508989   1020000200030000   333400010001204104000000281Myanmar Soft-Gate Tech Yangon        MMR11007181606113611250718000000000000000   10300001F05104100000000000416000000000000     
100   95050325139996190000000000003300000000003300002000000010410407180308173817308438430718000007504542   1030000200030000   333300010001203104000003632Myanmar Tradenet Test  Yangon        MMR11007180308173817300718000000000000000   10300001F05104100000000010000000000000000     
100   95050319938772870000000000005000000000005000002000000010410407181247391739197538030718000007508362   1040001600030000   333800010001220104000004507A +                    Yangon        MMR11007181247391739190718000000000000000   10300001F05104100000000001050000000000000     
100   95050317317598540000000000025400000000025400002000000010410407180719043380610148440718776491304198   1030000900030000   541119000120190110000000080Sein Gay Har BAK       YANGONADA     MMR11007180719043380610718000000000000000   10300001F00104100000000006350000000000000     
100   95050319502933380000000000000990000000000990002000000010410407180225555555283019850718000007504321   1020000200030000   333400010001204104000000281Myanmar Soft-Gate Tech Yangon        MMR11007180225555555280718000000000000000   10300001F05104100000000000208000000000000     
100   95050326686895020000000000500000000000500000002000000010410407181000573057520453170718000007507680   1030000200030000   3338000100012031040000040022C2P (Myanmar) Co. Ltd Yangon        MMR11007181000573057520718000000000000000   10300001F05104100000000105000000000000000     
100   95050313123223200000000000000990000000000990002000000010410407180250142014980431310718000007504421   1020000200030000   333400010001204104000000281Myanmar Soft-Gate Tech Yangon        MMR11007180250142014980718000000000000000   10300001F05104100000000000208000000000000     
100   95050320531117320000000000050000000000050000002000000010410407181054093446252736980718347241709198   1030000900030000   554119000348190110000000215New Day Energy MYG     YANGONONE     MMR11007181054093446250718000000000000000   10300001F00104100000000006000000000000000     
100   95050312595952760000000000002970000000002970002000000010410407180722325232230233530718000007506686   1020000200030000   333400010001204104000000281Myanmar Soft-Gate Tech Yangon        MMR11007180722325232230718000000000000000   10300001F05104100000000000624000000000000     
100   95050328384000040000000000013300000000013300002000000010410407180620535708027850840718219913570802   1040001600030000   591220000273000000010000261Shwe Ohh Pharmacy (WZY Yangon        MMR11007180620535708020718000000000000000   10300001F00104100000000003192000000000000     
100   62911028202696360000000000047200000000047200002000000010410407180947423424614773800718101171642198   1030000900030000   591219000601190110000000441Shwe Ohh Pharmacy St-3 YANGON        MMR11007180947423424610718000000000000000   10300001F00104100000000002832000000000000     
100   62911028202031710000000000027000000000027000002000000010410407181113453452344773800718701431745198   1030000900030000   554119000348190110000000215New Day Energy MYG     YANGONONE     MMR11007181113453452340718000000000000000   10300001F00104100000000000810000000000000     
100   95050316997303010000000000010000000000010000002000000010410407181325085508601183390718000007508507   1040001600030000   333800010001220104000004507A +                    Yangon        MMR11007181325085508600718000000000000000   10300001F05104100000000002100000000000000     
100   62443100371022130000000000025100000000025100002000000010410407180419515628739388290718219911562873   1040001600030000   598320000658000000010000527Shwe Taung Energy (YGN Yangon        MMR11007180419515628730718000000000000000   10300001F00104100000000003012000000000000     
100   62911028202163630000000000056750000000056750002000000010410407180449065644114773800718219911564411   1040001600030000   591220000302000000010000290Shwe Ohh Pharmacy (Nor Yangon        MMR11007180449065644110718000000000000000   10300001F00104100000000003405000000000000     
100   62911028202693960000000000029959000000029959002000000010410407180840183403454773800718944101518198   1030000900030000   541119001250190110000000955City Mart JS C 9       YANGONUT      MMR11007180840183403450718000000000000000   10300001F00104100000000001798000000000000     
100   62443100395250310000000000003670000000003670002000000010410407180952113425868885780718163221611198   1030000900030000   541119001269190110000000958City Mart PLST Service YANGONMYOTHIT MMR11007180952113425860718000000000000000   10300001F00104100000000000918000000000000     
100   95050310148547290000000000050400000000050400002000000010410407180909093909439055980718000007507435   1030000900030000   333800010001202104000003301uab bank               Yangon        MMR11007180909093909430718000000000000000   10300001F05104100000000010584000000000000     
100   95030327582492680000000000100000000000100000002000000010410407181123565356544773800718000007508077   1030000200030000   333800010001203104000003327KBZPay                 Yangon        MMR11007181123565356540718000000000000000   10300001F05104100000000021000000000000000     
100   62911028202662690000000000113046000000113046002000000010410407180426065606654773800718000007505215   1010000100030000   333500010001212104000002535Internal Revenue Depar Yangon        MMR11007180426065606650718000000000000000   10300001F05104100000000060000000000000000     
100   95050310794962000000000000005000000000005000002000000010410407181349361936227878420718000007508578   1030000200030000   3338000100012031040000040022C2P (Myanmar) Co. Ltd Yangon        MMR11007181349361936220718000000000000000   10300001F05104100000000001050000000000000     
100   95050322312885760000000000006000000000006000002000000010410407180402403240831636450718000007505018   1030000200030000   333800010001203104000003327KBZPay                 Yangon        MMR11007180402403240830718000000000000000   10300001F05104100000000001260000000000000     
100   62911028202019440000000000030689000000030689002000000010410407180056093295844773800718953260709198   1030000900030000   541119001261190110000000958City Mart PLST C 4     YANGONMYOTHIT MMR11007180056093295840718000000000000000   10300001F00104100000000001841000000000000     
100   95050319204938440000000000005000000000005000002000000010410407180127125712073006060718000007504133   1030000200030000   333800010001203104000003327KBZPay                 Yangon        MMR11007180127125712070718000000000000000   10300001F05104100000000001050000000000000     
100   95050311419479170000000000002000000000002000002000000010410407180551042104829928810718000007505891   1030000200030000   3334000100012031040000040102C2P (Myanmar) Co. Ltd Yangon        MMR11007180551042104820718000000000000000   10300001F05104100000000000420000000000000     
100   95050314190972620000000000008150000000008150002000000010410407181025213436328460300718747551621198   1030000900030000   541119001186190110000000942City Mart HDC C 1      YANGONUT      MMR11007181025213436320718000000000000000   10300001F00104100000000002038000000000000     
100   95050315259054570000000000002000000000002000002000000010410407181315044504982920960718000007508466   1030000200030000   333800010001203104000003327KBZPay                 Yangon        MMR11007181315044504980718000000000000000   10300001F05104100000000000420000000000000     
100   95050322248344280000000000300000000000300000002000000010410407180415064506327820900718000007505123   1030000200030000   333800010001203104000003327KBZPay                 Yangon        MMR11007180415064506320718000000000000000   10300001F05104100000000063000000000000000     
100   95050315259054570000000000001980000000001980002000000010410407180247591759532594370718000007504408   1020000200030000   333400010001204104000000281Myanmar Soft-Gate Tech Yangon        MMR11007180247591759530718000000000000000   10300001F05104100000000000416000000000000     
100   95050312695033440000000000002970000000002970002000000010410407180859392939347730080718000007507379   1020000200030000   333400010001204104000000281Myanmar Soft-Gate Tech Yangon        MMR11007180859392939340718000000000000000   10300001F05104100000000000624000000000000     
100   62911028202405120000000000024650000000024650002000000010410407181055103446514773800718364251710198   1030000900030000   591219000601190110000000441Shwe Ohh Pharmacy St-3 YANGON        MMR11007181055103446510718000000000000000   10300001F00104100000000001479000000000000     
100   62443100372702000000000000100000000000100000002000000010410407180321245124387686360718000007504652   1040001600030000   333800010001220104000004507A +                    Yangon        MMR11007180321245124380718000000000000000   10300001F05104100000000021000000000000000     
100   95030390626214130000000000042000000000042000002000000010410407170708140014144773800717219813001414   1030000500030000   598320002004000015172200020MAX ENERGY             PTN           MMR11007170708140014140717000000000000000   10300001 00104100000000001260000000000000     
100   62443100333488440000000000016500000000016500002000000010410407170957130002234367600717219816000223   1030000500030000   541120228601000045411202286CITY EXPRESS (MCS - 11 PTN           MMR11007170957130002230717000000000000000   10300001 00104100000000004125000000000000     
100   95050322715181550000000000088000000000088000002000000010410407170949000008964452700717000355962946   1030000300030000   598300001210000000000000817CB BANK                SHWE TAUNG EN MMR11007170949000008960717000000000000000   10300001F00104100000000010560000000000000     
100   62911028202491410000000000040194000000040194002000000010410407170621220009034773800717219812000903   1030000500030000   581220146401013205812201464THAI 47 (HELPIN BRANCH PTN           MMR11007170621220009030717000000000000000   10300001 00104100000000004100000000000000     
100   95050325925517520000000000140000000000140000002000000010410407170311340010619690030717000355909924   1030000300030000   541100002355000000000000102CB BANK                MAKRO MYANMAR MMR11007170311340010610717000000000000000   10300001F00104100000000035000000000000000     
100   95050319207947610000000000024700000000024700002000000010410407170312570056614647480717000355910102   1030000300030000   541100000218000000000000113CB BANK                ONESTOP KITCH MMR11007170312570056610717000000000000000   10300001F00104100000000006175000000000000     
100   62911028202207610000000000050000000000050000002000000010410407170234040018094773800717219809001809   1030000500030000   598320001103000015172200011MAX ENERGY             PTN           MMR11007170234040018090717000000000000000   10300001 00104100000000001500000000000000     
100   62911028202107540000000000057550000000057550002000000010410407170703050023714773800717219813002371   1030000500030000   541120229104000045411202291CITY MART YANKIN       PTN           MMR11007170703050023710717000000000000000   10300001 00104100000000003453000000000000     
100   95050324154190880000000000062700000000062700002000000010410407180251233312950261110718504210923198   1030000900030000   591219000606190110000000446Shwe Ohh Pharmacy St-2 YANGON        MMR11007180251233312950718000000000000000   10300001F00104100000000015048000000000000     
100   62911028202469800000000000054300000000054300002000000010410407181024005857284773800718219917585728   1040001600030000   591220000276000000010000264Shwe Ohh Pharmacy (YGH Yangon        MMR11007181024005857280718000000000000000   10300001F00104100000000003258000000000000     
100   95050313732480420000000000000990000000000990002000000010410407180716164616315786660718000007506634   1020000200030000   333400010001204104000000281Myanmar Soft-Gate Tech Yangon        MMR11007180716164616310718000000000000000   10300001F05104100000000000208000000000000     
100   62911028202225850000000000024250000000024250002000000010410407181205525964694773800718219919596469   1040001600030000   591220001007000000010000737Shwe Ohh Pharmacy (Tan Ygn           MMR11007181205525964690718000000000000000   10300001F00104100000000001455000000000000     
100   62911028202290100000000000046000000000046000002000000010410407180835405782114773800718219915578211   1040001600030000   598320001170000000010000527Shwe Taung Energy (YGN Yangon        MMR11007180835405782110718000000000000000   10300001F00104100000000001380000000000000     
100   95050320205194540000000000014050000000014050002000000010410407181127435923384559660718219918592338   1040001600030000   591220000292000000010000280Shwe Ohh Pharmacy (Cha Yangon        MMR11007181127435923380718000000000000000   10300001F00104100000000003372000000000000     
100   62443100333488440000000000046350000000046350002000000010410407170844150002343966710717219815000234   1030000500030000   581220216101000085812202161ASTONS                 PTN           MMR11007170844150002340717000000000000000   10300001 00104100000000019699000000000000     
100   95050324154190880000000000012150000000012150002000000010410407180811175768541715830718219915576854   1040001600030000   541120000134000000010000126Asia Light Supermarket Yangon        MMR11007180811175768540718000000000000000   10300001F00104100000000003038000000000000     
100   62911028202120400000000000023486000000023486002000000010410407170538490020124773800717219812002012   1030000500030000   598320001201000015172200012MAX ENERGY             PTN           MMR11007170538490020120717000000000000000   10300001 00104100000000000705000000000000     
100   62911028202502480000000000020000000000020000002000000010410407171026190020284773800717219816002028   1030000500030000   598320001402000015172200014MAX ENERGY             PTN           MMR11007171026190020280717000000000000000   10300001 00104100000000000600000000000000     
100   62443100306028540000000000013890000000013890002000000010410407171142060019081864150717219818001908   1030000500030000   531120226326000045311202263OCEAN SUPER CENTER STJ PTN           MMR11007171142060019080717000000000000000   10300001 00104100000000003334000000000000     
100   62911028202204490000000000011000000000011000002000000010410407170505580020074773800717219811002007   1030000500030000   598320001201000015172200012MAX ENERGY             PTN           MMR11007170505580020070717000000000000000   10300001 00104100000000000330000000000000     
100   62911028202112400000000000021000000000021000002000000010410407170510400020084773800717219811002008   1030000500030000   598320001201000015172200012MAX ENERGY             PTN           MMR11007170510400020080717000000000000000   10300001 00104100000000000630000000000000     
100   62443100333488440000000000260700000000260700002000000010410407170914050025100406450717219815002510   1030000500030000   541120226412000045411202264MARKET PLACE MYANMARPL PTN           MMR11007170914050025100717000000000000000   10300001 00104100000000065175000000000000     
100   62911028202442250000000000024000000000024000002000000010410407170836360022594773800717219815002259   1030000500030000   598320001204000015172200012MAX ENERGY             PTN           MMR11007170836360022590717000000000000000   10300001 00104100000000000720000000000000     
100   62911028202668300000000000040000000000040000002000000010410407170608100016034773800717219812001603   1030000500030000   598320002103000015172200021MAX ENERGY             PTN           MMR11007170608100016030717000000000000000   10300001 00104100000000001200000000000000     
100   62911028202225850000000000001950000000001950002000000010410407181207155966224773800718219919596622   1040001600030000   591220001007000000010000737Shwe Ohh Pharmacy (Tan Ygn           MMR11007181207155966220718000000000000000   10300001F00104100000000000117000000000000     
100   95050310427855490000000000001980000000001980002000000010410407181332240224842835860718000007508496   1020000200030000   333400010001204104000000281Myanmar Soft-Gate Tech Yangon        MMR11007181332240224840718000000000000000   10300001F05104100000000000416000000000000     
100   62911028202700480000000000074700000000074700002000000010410407181118205913474773800718219918591347   1040001600030000   591220000302000000010000290Shwe Ohh Pharmacy (Nor Yangon        MMR11007181118205913470718000000000000000   10300001F00104100000000004482000000000000     
100   62443100306698200000000000117650000000117650002000000010410407181010215844723247560718219917584472   1040001600030000   591220000296000000010000284Shwe Ohh Pharmacy (Lan Yangon        MMR11007181010215844720718000000000000000   10300001F00104100000000028236000000000000     
100   95050312498129060000000000001980000000001980002000000010410407181229365936774233070718000007508296   1020000200030000   333400010001204104000000281Myanmar Soft-Gate Tech Yangon        MMR11007181229365936770718000000000000000   10300001F05104100000000000416000000000000     
100   62911028202099050000000000292500000000292500002000000010410407181114335909444773800718219918590944   1040001600030000   591220000266000000010000254Shwe Ohh Pharmacy (Sin Yangon        MMR11007181114335909440718000000000000000   10300001F00104100000000017550000000000000     
100   62911028202242760000000000020000000000020000002000000010410407181111400114634773800718000750298806   1030000200030000   541188001313000008000000306KBZ BANK               CITY MART - S MMR11007181111400114630718000000000000000   10300001 00104100000000001200000000000000     
100   95050322990383760000000000015850000000015850002000000010410407170908530020719179450717219815002071   1030000500030000   541120203706000015411202037CITY MART SUPERMARKET  PTN           MMR11007170908530020710717000000000000000   10300001 00104100000000003963000000000000     
100   95030305234413920000000000143550000000143550002000000010410407170448130046984773800717000355922275   1030000300030000   541100002356000000000000102CB BANK                MAKRO MYANMAR MMR11007170448130046980717000000000000000   10300001F00104100000000008613000000000000     
100   62911028202136750000000000022000000000022000002000000010410407171207120033854773800717219818003385   1030000500030000   598320001903000015172200019MAX ENERGY             PTN           MMR11007171207120033850717000000000000000   10300001 00104100000000000660000000000000     
100   62911028202197630000000000008000000000008000002000000010410407151002410284814773800715219610028481   1030000600030000   554100002319315799420000477DENKO INSEIN           YANGON        MMR11007151002410284810715000000000000000   10300001 00104100000000000240000000000000     
100   95050310427855490000000000000990000000000990002000000010410407181157152715372665680718000007508192   1020000200030000   333400010001204104000000281Myanmar Soft-Gate Tech Yangon        MMR11007181157152715370718000000000000000   10300001F05104100000000000208000000000000     
100   95050319753756490000000000200000000000200000002000000010410407180758012801633113020718000007506954   1030000200030000   333800010001203104000003327KBZPay                 Yangon        MMR11007180758012801630718000000000000000   10300001F05104100000000042000000000000000     
100   62911028202107210000000000052000000000052000002000000010410407180321255599864773800718219910559986   1040001600030000   598320000658000000010000527Shwe Taung Energy (YGN Yangon        MMR11007180321255599860718000000000000000   10300001F00104100000000001560000000000000     
100   95050326686895020000000000200000000000200000002000000010410407181015094509978205020718000007507807   1030000200030000   3338000100012031040000040022C2P (Myanmar) Co. Ltd Yangon        MMR11007181015094509970718000000000000000   10300001F05104100000000042000000000000000     
100   95050311926829590000000000000990000000000990002000000010410407181403463346917793320718000007508632   1020000200030000   333400010001204104000000281Myanmar Soft-Gate Tech Yangon        MMR11007181403463346910718000000000000000   10300001F05104100000000000208000000000000     
100   62911028202369990000000000100000000000100000002000000010410407180800273027824773800718000007506971   1030000200030000   333800010001203104000003327KBZPay                 Yangon        MMR11007180800273027820718000000000000000   10300001F05104100000000021000000000000000     
100   95050311926829590000000000000990000000000990002000000010410407181406173617974488350718000007508640   1020000200030000   333400010001204104000000281Myanmar Soft-Gate Tech Yangon        MMR11007181406173617970718000000000000000   10300001F05104100000000000208000000000000     
100   62443100313529540000000000040250000000040250002000000010410407181016574657868119910718000007507822   1030000200030000   333800010001203104000003327KBZPay                 Yangon        MMR11007181016574657860718000000000000000   10300001F05104100000000008453000000000000     
100   62443101093150400000000000014600000000014600002000000010410407172357593290376481220718897270659198   1030000900030000   581219000528190110000000376Shwepalin (Hantharwadd YANGONUT      MMR11007172357593290370718000000000000000   10300001F00104100000000006205000000000000     
100   95050318621775380000000000002000000000002000002000000010410407181252282228431268480718000007508377   1030000200030000   3338000100012031040000040022C2P (Myanmar) Co. Ltd Yangon        MMR11007181252282228430718000000000000000   10300001F05104100000000000420000000000000     
100   95050311419479170000000000001980000000001980002000000010410407180340131013114126100718000007504814   1020000200030000   333400010001204104000000281Myanmar Soft-Gate Tech Yangon        MMR11007180340131013110718000000000000000   10300001F05104100000000000416000000000000     
100   62911028202482830000000000003600000000003600002000000010410407181304020091364773800718000750310815   1030000200030000   541188001071000008000000314KBZ BANK               MARKETPLACE - MMR11007181304020091360718000000000000000   10300001 00104100000000000216000000000000     
100   95050326228858240000000000132112000000132112002000000010410407180200023303506239720718132300802198   1030000900030000   554119000348190110000000215New Day Energy MYG     YANGONONE     MMR11007180200023303500718000000000000000   10300001F00104100000000015854000000000000     
100   62911028202093430000000000002970000000002970002000000010410407180650112011454773800718000007506405   1020000200030000   333400010001204104000000281Myanmar Soft-Gate Tech Yangon        MMR11007180650112011450718000000000000000   10300001F05104100000000000624000000000000     
100   62443101001072630000000000002800000000002800002000000010410407181033230008911551350718000750294819   1030000200030000   541188001369000008000000395KBZ BANK               OCEAN SUPERMA MMR11007181033230008910718000000000000000   10300001 00104100000000000700000000000000     
100   62911028202792960000000000007500000000007500002000000010410407181353580040514773800718000750316074   1030000200030000   541188001436000008000000401KBZ BANK               OCEAN SUPERCE MMR11007181353580040510718000000000000000   10300001 00104100000000000450000000000000     
100   62911028202662690000000000001800000000001800002000000010410407181024000119104773800718000750293980   1030000200030000   541188001033000008000000298KBZ BANK               CITY MART - M MMR11007181024000119100718000000000000000   10300001 00104100000000000108000000000000     
100   95050325925517520000000000047350000000047350002000000010410407181525060255271120150718000750324724   1030000200030000   541188001007000008000000008KBZ BANK               MARKETPLACE - MMR11007181525060255270718000000000000000   10300001 00104100000000011838000000000000     
100   95050312568198510000000000002000000000002000002000000010410407180851342134881205250718000007507329   1030000200030000   3338000100012031040000040022C2P (Myanmar) Co. Ltd Yangon        MMR11007180851342134880718000000000000000   10300001F05104100000000000420000000000000     
100   95050319067144780000000000009900000000009900002000000010410407181806420052232907170718000750335013   1030000200030000   541188001426000008000000401KBZ BANK               OCEAN SUPERCE MMR11007181806420052230718000000000000000   10300001 00104100000000002475000000000000     
100   62443101001072630000000000052600000000052600002000000010410407181031020061510140360718000750294635   1030000200030000   541188001366000008000000395KBZ BANK               OCEAN SUPERMA MMR11007181031020061510718000000000000000   10300001 00104100000000013150000000000000     
100   62911028202663430000000000004000000000004000002000000010410407181019140125724773800718000750293516   1030000200030000   541188001022000008000000298KBZ BANK               CITY MART - M MMR11007181019140125720718000000000000000   10300001 00104100000000000240000000000000     
100   62911028202662690000000000006800000000006800002000000010410407181020020125734773800718000750293594   1030000200030000   541188001022000008000000298KBZ BANK               CITY MART - M MMR11007181020020125730718000000000000000   10300001 00104100000000000408000000000000     
100   62911028202482830000000000030250000000030250002000000010410407181255240275734773800718000750309750   1030000200030000   541188001059000008000000314KBZ BANK               MARKETPLACE - MMR11007181255240275730718000000000000000   10300001 00104100000000001815000000000000     
100   95050311121153200000000000000990000000000990002000000010410407181143381338621013190718000007508141   1020000200030000   333400010001204104000000281Myanmar Soft-Gate Tech Yangon        MMR11007181143381338620718000000000000000   10300001F05104100000000000208000000000000     
100   95050312554086980000000000008800000000008800002000000010410407181217020185747304600718000750305398   1030000200030000   541188001061000008000000314KBZ BANK               MARKETPLACE - MMR11007181217020185740718000000000000000   10300001 00104100000000002200000000000000     
100   95050311419479170000000000005000000000005000002000000010410407180150132013913261350718000007504217   1030000200030000   3334000100012031040000040102C2P (Myanmar) Co. Ltd Yangon        MMR11007180150132013910718000000000000000   10300001F05104100000000001050000000000000     
100   95050329613303740000000000050000000000050000002000000010410407180838000800230864860718000007507236   1030000200030000   333800010001203104000003327KBZPay                 Yangon        MMR11007180838000800230718000000000000000   10300001F05104100000000010500000000000000     
100   95050314401921990000000000000990000000000990002000000010410407180145501550224913830718000007504197   1020000200030000   333400010001204104000000281Myanmar Soft-Gate Tech Yangon        MMR11007180145501550220718000000000000000   10300001F05104100000000000208000000000000     
100   95050314534800510000000000000990000000000990002000000010410407180844471447907900280718000007507278   1020000200030000   333400010001204104000000281Myanmar Soft-Gate Tech Yangon        MMR11007180844471447900718000000000000000   10300001F05104100000000000208000000000000     
100   62911028202793040000000000006000000000006000002000000010410407180744501450554773800718000007506838   1030000200030000   3334000100012031040000040102C2P (Myanmar) Co. Ltd Yangon        MMR11007180744501450550718000000000000000   10300001F05104100000000001260000000000000     
100   95050316377977350000000000005000000000005000002000000010410407181244521452112495480718000007508345   1030000200030000   3338000100012031040000040022C2P (Myanmar) Co. Ltd Yangon        MMR11007181244521452110718000000000000000   10300001F05104100000000001050000000000000     
100   95030306100096490000000000004950000000004950002000000010410407181558332833954773800718000007508974   1020000200030000   333400010001204104000000281Myanmar Soft-Gate Tech Yangon        MMR11007181558332833950718000000000000000   10300001F05104100000000001040000000000000     
100   95050316377977350000000000005000000000005000002000000010410407181249441944194573450718000007508369   1040001600030000   333800010001220104000004507A +                    Yangon        MMR11007181249441944190718000000000000000   10300001F05104100000000001050000000000000     
100   62911028202907560000000000050800000000050800002000000010410407180513110033594773800718000750301999   1030000200030000   569988000778000008000004529KBZ BANK               JSQ-IPANEMA   MMR11007180513110033590718000000000000000   10300001 00104100000000003048000000000000     
100   95050311931431670000000000004950000000004950002000000010410407181537150715355545160718000007508920   1020000200030000   333400010001204104000000281Myanmar Soft-Gate Tech Yangon        MMR11007181537150715350718000000000000000   10300001F05104100000000001040000000000000     
100   62911028202110420000000000002700000000002700002000000010410407171021400012124773800717219816001212   1030000500030000   541120229114000045411202291CITY MART YANKIN       PTN           MMR11007171021400012120717000000000000000   10300001 00104100000000000162000000000000     
100   62443100381153960000000000010000000000010000002000000010410407170837440000701803640717219815000070   1030000500030000   569120170301008205691201703ESCORT                 PTN           MMR11007170837440000700717000000000000000   10300001 00104100000000002400000000000000     
100   62911028202197630000000000020529000000020529002000000010410407170426460009084773800717219810000908   1030000500030000   541120230105000045411202301CITY MART SUPERMARKET  PTN           MMR11007170426460009080717000000000000000   10300001 00104100000000001232000000000000     
100   62443100363668680000000000035700000000035700002000000010410407171101250001800807350717219817000180   1030000500030000   591220012101014405912200121SHWE OHH PHARMACY      PTN           MMR11007171101250001800717000000000000000   10300001 00104100000000008568000000000000     
100   95050325925517520000000000025000000000025000002000000010410407170359540014053845960717219810001405   1030000500030000   598320001601000015172200016MAX ENERGY             PTN           MMR11007170359540014050717000000000000000   10300001 00104100000000003000000000000000     
100   95050322104201170000000000016660000000016660002000000010410407170636490006474257650717219813000647   1030000500030000   531120155712000045311201557GAMONE PWINT           PTN           MMR11007170636490006470717000000000000000   10300001 00104100000000003998000000000000     
100   62911028202590580000000000014440000000014440002000000010410407170952390006354773800717219816000635   1030000500030000   531120226303000045311202263OCEAN SUPER CENTER STJ PTN           MMR11007170952390006350717000000000000000   10300001 00104100000000000866000000000000     
100   95050319122743920000000000048850000000048850002000000010410407170749380008836846190717000355946475   1030000300030000   531100000793000000000000540CB BANK                CAPITAL SUPER MMR11007170749380008830717000000000000000   10300001F00104100000000011724000000000000     
