100   95050324154190880000000000015000000000015000002000000010410407191336120018420752190719220020001842   1030000500030000   598320002103000015172200021MAX ENERGY             PTN           MMR11007191336120018420719000000000000000   10300001 00104100000000001800000000000000     
100   62443100390038980000000000064000000000064000002000000010410407151351320410794960280715219613041079   1030000600030000   554100001155315799420000607DENKO NPT 1            NAYPYITAW.    MMR11007151351320410790715000000000000000   10300001 00104100000000007680000000000000     
100   62911028202139640000000000100000000000100000002000000010410407200155022502974773800720000007513160   1030000200030000   333800010001203104000003327KBZPay                 Yangon        MMR11007200155022502970720000000000000000   10300001F05104100000000021000000000000000     
100   62911028202417260000000000047700000000047700002000000010410407161258320021494773800716219712002149   1030000600030000   806200002190315799420001535ASIA ROYAL HOSPITAL    YANGON        MMR11007161258320021490716000000000000000   10300001 00104100000000002862000000000000     
100   62911028202822250000000000033000000000033000002000000010410407190941200023734773800719220016002373   1030000500030000   598320001001000015172200010MAX ENERGY             PTN           MMR11007190941200023730719000000000000000   10300001 00104100000000000990000000000000     
100   62911028202139640000000000300000000000300000002000000010410407200151462146284773800720000007513145   1030000200030000   333800010001203104000003327KBZPay                 Yangon        MMR11007200151462146280720000000000000000   10300001F05104100000000063000000000000000     
100   95050315017843630000000000005000000000005000002000000010410407200415084508891787130720000007514307   1040001600030000   333800010001220104000004507A +                    Yangon        MMR11007200415084508890720000000000000000   10300001F05104100000000001050000000000000     
100   95050326198165350000000000111890000000111890002000000010410407191501496875186050020719220022687518   1040001600030000   581420000256000000010000244The Lord (Sanchaung)   Yangon        MMR11007191501496875180719000000000000000   10300001F00104100000000013427000000000000     
100   62911028202352490000000000150200000000150200002000000010410407200304133413064773800720000007513571   1030000900030000   333300010001202104000002659MSP                    Yangon        MMR11007200304133413060720000000000000000   10300001F05104100000000010000000000000000     
100   62911028202693960000000000020000000000020000002000000010410407170755320348284773800717219807034828   1030000600030000   554100002085315799420000471DENKO BAHAN            YANGON        MMR11007170755320348280717000000000000000   10300001 00104100000000000600000000000000     
100   62911028202139640000000000300000000000300000002000000010410407200149311931594773800720000007513135   1030000200030000   333800010001203104000003327KBZPay                 Yangon        MMR11007200149311931590720000000000000000   10300001F05104100000000063000000000000000     
100   95050322957045260000000000001000000000001000002000000010410407200753492349285937350720000007516250   1030000200030000   3338000100012031040000040022C2P (Myanmar) Co. Ltd Yangon        MMR11007200753492349280720000000000000000   10300001F05104100000000000210000000000000     
100   95050320335873810000000000000990000000000990002000000010410407200453162316992929040720000007514726   1020000200030000   333400010001204104000000281Myanmar Soft-Gate Tech Yangon        MMR11007200453162316990720000000000000000   10300001F05104100000000000208000000000000     
100   62443100343312450000000000079000000000079000002000000010410407181119130016414644760718219917001641   1030000500030000   541120203903000015411202039NEIGHBOURHOOD          PTN           MMR11007181119130016410718000000000000000   10300001 00104100000000019750000000000000     
100   62911028202290100000000000030000000000030000002000000010410407180417300013474773800718219904001347   1030000600030000   597700001918315799420001288NATURE REPUBLIC YK     PAZUNDAUNG    MMR11007180417300013470718000000000000000   10300001 00104100000000001800000000000000     
100   62443100398129000000000000035000000000035000002000000010410407180437200999274005350718219904099927   1030000600030000   554100000946315799420000471DENKO BAHAN            YANGON        MMR11007180437200999270718000000000000000   10300001 00104100000000004200000000000000     
100   62443100306882420000000000008250000000008250002000000010410407201800520174935306020720000750435559   1030000200030000   541188001306000008000000325KBZ BANK               CITY MART - A MMR11007201800520174930720000000000000000   10300001 00104100000000002063000000000000     
100   95050314557307430000000000000990000000000990002000000010410407200336210621094106600720000007513906   1020000200030000   333400010001204104000000281Myanmar Soft-Gate Tech Yangon        MMR11007200336210621090720000000000000000   10300001F05104100000000000208000000000000     
100   95030314863516850000000000028000000000028000002000000010410407200732550255204773800720000007516089   1030000200030000   333800010001203104000003327KBZPay                 Yangon        MMR11007200732550255200720000000000000000   10300001F05104100000000005880000000000000     
100   62911028202503210000000000029900000000029900002000000010410407202042220381874773800720000750441339   1030000200030000   541188001041000008000000010KBZ BANK               MARKETPLACE - MMR11007202042220381870720000000000000000   10300001 00104100000000001794000000000000     
100   95050316321163940000000000003960000000003960002000000010410407200952382238596156990720000007516906   1020000200030000   333400010001204104000000281Myanmar Soft-Gate Tech Yangon        MMR11007200952382238590720000000000000000   10300001F05104100000000000832000000000000     
100   62911028202448030000000000025400000000025400002000000010410407201617430061114773800720000750429367   1030000200030000   541188001021000008000000298KBZ BANK               CITY MART - M MMR11007201617430061110720000000000000000   10300001 00104100000000001524000000000000     
100   62443100394939820000000000300000000000300000002000000010410407201141231123213993920720000007517409   1030000200030000   333800010001203104000003327KBZPay                 Yangon        MMR11007201141231123210720000000000000000   10300001F05104100000000063000000000000000     
100   95050321232876860000000000048000000000048000002000000010410407180139100423946651410718219901042394   1030000600030000   554100001865315799420001235DENKO NAY PYI TAW 2    NAYPYITAW     MMR11007180139100423940718000000000000000   10300001 00104100000000005760000000000000     
100   62911028202709150000000000039000000000039000002000000010410407180955570201114773800718219909020111   1030000600030000   554100002324315799420000481DENKO NORTH OKKALAPA   YANGON        MMR11007180955570201110718000000000000000   10300001 00104100000000001170000000000000     
100   62443100311760720000000000048000000000048000002000000010410407180159040349621523770718219901034962   1030000600030000   554100002085315799420000471DENKO BAHAN            YANGON        MMR11007180159040349620718000000000000000   10300001 00104100000000005760000000000000     
100   62911028202490830000000000596139000000596139002000000010410407181044200062284773800718219910006228   1030000600030000   809900000539315799420000147GRAND HANTHA HOSPITAL  YANGON        MMR11007181044200062280718000000000000000   10300001 00104100000000035768000000000000     
100   95050327456215690000000000057000000000057000002000000010410407180852160350659467670718219908035065   1030000600030000   554100002085315799420000471DENKO BAHAN            YANGON        MMR11007180852160350650718000000000000000   10300001 00104100000000006840000000000000     
100   62911028202680670000000000038000000000038000002000000010410407160707470285984773800716219707028598   1030000600030000   554100002319315799420000477DENKO INSEIN           YANGON        MMR11007160707470285980716000000000000000   10300001 00104100000000001140000000000000     
100   95050311559234320000000000004950000000004950002000000010410407200419434943353354520720000007514348   1020000200030000   333400010001204104000000281Myanmar Soft-Gate Tech Yangon        MMR11007200419434943350720000000000000000   10300001F05104100000000001040000000000000     
100   95050314307746340000000000000990000000000990002000000010410407201059312931897639280720000007517231   1020000200030000   333400010001204104000000281Myanmar Soft-Gate Tech Yangon        MMR11007201059312931890720000000000000000   10300001F05104100000000000208000000000000     
100   95050328074436620000000000009900000000009900002000000010410407200142131213780241610720000007513103   1020000200030000   333400010001204104000000281Myanmar Soft-Gate Tech Yangon        MMR11007200142131213780720000000000000000   10300001F05104100000000002079000000000000     
100   95050319902033540000000000045700000000045700002000000010410407201707230123237809470720000750432598   1030000200030000   541188001128000008000000296KBZ BANK               CITY MART - J MMR11007201707230123230720000000000000000   10300001 00104100000000011425000000000000     
100   95050328074436620000000000004950000000004950002000000010410407200144301430705284160720000007513108   1020000200030000   333400010001204104000000281Myanmar Soft-Gate Tech Yangon        MMR11007200144301430700720000000000000000   10300001F05104100000000001040000000000000     
100   95050326426352250000000000050000000000050000002000000010410407200850092009991355940720000007516628   1030000200030000   333800010001203104000003327KBZPay                 Yangon        MMR11007200850092009990720000000000000000   10300001F05104100000000010500000000000000     
100   62911028202616250000000000248150000000248150002000000010410407201852010240584773800720000750438171   1030000200030000   541188001054000008000000314KBZ BANK               MARKETPLACE - MMR11007201852010240580720000000000000000   10300001 00104100000000014889000000000000     
100   95050316321163940000000000002970000000002970002000000010410407200955102510513192410720000007516918   1020000200030000   333400010001204104000000281Myanmar Soft-Gate Tech Yangon        MMR11007200955102510510720000000000000000   10300001F05104100000000000624000000000000     
100   62911028202502480000000000052300000000052300002000000010410407201225350262364773800720000750409253   1030000200030000   541188001037000008000000010KBZ BANK               MARKETPLACE - MMR11007201225350262360720000000000000000   10300001 00104100000000003138000000000000     
100   95050314401921990000000000015000000000015000002000000010410407200431240124944666620720000007514473   1030000200030000   3338000100012031040000040022C2P (Myanmar) Co. Ltd Yangon        MMR11007200431240124940720000000000000000   10300001F05104100000000003150000000000000     
100   95030307963177330000000000133642000000133642002000000010410407171037070022064773800717219810002206   1030000600030000   569100000514315799420000134RENE MYANMAR CM        YANGON        MMR11007171037070022060717000000000000000   10300001 00104100000000008019000000000000     
100   95050311806372620000000000048000000000048000002000000010410407201141320003148610990720000750436167   1030000200030000   541188002338000008000006213KBZ BANK               BEAR MART-1   MMR11007201141320003140720000000000000000   10300001 00104100000000012000000000000000     
100   62443100361587780000000000218000000000218000002000000010410407200508240001094405620720000750404136   1030000200030000   506588000766000008000004446KBZ BANK               MYO THEIN ELE MMR11007200508240001090720000000000000000   10300001 00104100000000052320000000000000     
100   62911028202400660000000000099900000000099900002000000010410407200604570016364773800720000750410221   1030000200030000   569988000808000008000004623KBZ BANK               STJ-MANGO     MMR11007200604570016360720000000000000000   10300001 00104100000000005994000000000000     
100   62911028202790980000000001000000000001000000002000000010410407201530420000804773800720000750442571   1030000200030000   481288001529000008000004974KBZ BANK               YOUNIQUE INFO MMR11007201530420000800720000000000000000   10300001 00104100000000060000000000000000     
100   62911028202790980000000001000000000001000000002000000010410407201531120000814773800720000750442574   1030000200030000   481288001529000008000004974KBZ BANK               YOUNIQUE INFO MMR11007201531120000810720000000000000000   10300001 00104100000000060000000000000000     
100   62911028202790980000000001000000000001000000002000000010410407201532530000834773800720000750442592   1030000200030000   481288001529000008000004974KBZ BANK               YOUNIQUE INFO MMR11007201532530000830720000000000000000   10300001 00104100000000060000000000000000     
100   62911028202790980000000001000000000001000000002000000010410407201533230000844773800720000750442596   1030000200030000   481288001529000008000004974KBZ BANK               YOUNIQUE INFO MMR11007201533230000840720000000000000000   10300001 00104100000000060000000000000000     
100   95050317003064220000000000000990000000000990002000000010410407200834150415163178610720000007516521   1020000200030000   333400010001204104000000281Myanmar Soft-Gate Tech Yangon        MMR11007200834150415160720000000000000000   10300001F05104100000000000208000000000000     
100   95050314302558730000000000002970000000002970002000000010410407201042211221084419400720000007517142   1020000200030000   333400010001204104000000281Myanmar Soft-Gate Tech Yangon        MMR11007201042211221080720000000000000000   10300001F05104100000000000624000000000000     
100   95050319528093960000000000001980000000001980002000000010410407200433110311859709170720000007514496   1020000200030000   333400010001204104000000281Myanmar Soft-Gate Tech Yangon        MMR11007200433110311850720000000000000000   10300001F05104100000000000416000000000000     
100   62911028202161240000000000022796000000022796002000000010410407201032370407724773800720000750398075   1030000200030000   541188001024000008000000298KBZ BANK               CITY MART - M MMR11007201032370407720720000000000000000   10300001 00104100000000001368000000000000     
100   95050312695033440000000000007920000000007920002000000010410407200239200920308177430720000007513395   1020000200030000   333400010001204104000000281Myanmar Soft-Gate Tech Yangon        MMR11007200239200920300720000000000000000   10300001F05104100000000001663000000000000     
100   95050315150726490000000000001980000000001980002000000010410407200739200920398901930720000007516131   1020000200030000   333400010001204104000000281Myanmar Soft-Gate Tech Yangon        MMR11007200739200920390720000000000000000   10300001F05104100000000000416000000000000     
100   95050310427855490000000000002970000000002970002000000010410407201544381438475050730720000007518322   1020000200030000   333400010001204104000000281Myanmar Soft-Gate Tech Yangon        MMR11007201544381438470720000000000000000   10300001F05104100000000000624000000000000     
100   95050319111666800000000000000990000000000990002000000010410407200049451945467021740720000007512942   1020000200030000   333400010001204104000000281Myanmar Soft-Gate Tech Yangon        MMR11007200049451945460720000000000000000   10300001F05104100000000000208000000000000     
100   95050314557307430000000000001980000000001980002000000010410407201330070007073568440720000007517861   1020000200030000   333400010001204104000000281Myanmar Soft-Gate Tech Yangon        MMR11007201330070007070720000000000000000   10300001F05104100000000000416000000000000     
100   62911028202790980000000001000000000001000000002000000010410407201534200000854773800720000750442610   1030000200030000   481288001529000008000004974KBZ BANK               YOUNIQUE INFO MMR11007201534200000850720000000000000000   10300001 00104100000000060000000000000000     
100   95030399304534290000000000086800000000086800002000000010410407200349450003784773800720000750397136   1030000200030000   596588002419000008000006468KBZ BANK               AMERICAN COLL MMR11007200349450003780720000000000000000   10300001 00104100000000005208000000000000     
100   62911028202161240000000000002600000000002600002000000010410407201038420120394773800720000750398579   1030000200030000   541188001033000008000000298KBZ BANK               CITY MART - M MMR11007201038420120390720000000000000000   10300001 00104100000000000156000000000000     
100   95050314567755980000000000011600000000011600002000000010410407201038120812917724370720000007517131   1030000200030000   333800010001203104000003327KBZPay                 Yangon        MMR11007201038120812910720000000000000000   10300001F05104100000000002436000000000000     
100   95030301100081330000000000042950000000042950002000000010410407201635520174814773800720000750430492   1030000200030000   541188001306000008000000325KBZ BANK               CITY MART - A MMR11007201635520174810720000000000000000   10300001 00104100000000002577000000000000     
100   95050319111666800000000000000990000000000990002000000010410407200053332333792064280720000007512954   1020000200030000   333400010001204104000000281Myanmar Soft-Gate Tech Yangon        MMR11007200053332333790720000000000000000   10300001F05104100000000000208000000000000     
100   62443100313112320000000000009850000000009850002000000010410407201151420042870688960720000750436643   1030000200030000   541188001627000008000000008KBZ BANK               MARKETPLACE - MMR11007201151420042870720000000000000000   10300001 00104100000000002463000000000000     
100   95030314863516850000000000018500000000018500002000000010410407200654252425574773800720000007515751   1030000200030000   333800010001203104000003327KBZPay                 Yangon        MMR11007200654252425570720000000000000000   10300001F05104100000000003885000000000000     
100   95050312675525330000000000005000000000005000002000000010410407201031590159337383990720000007517104   1030000200030000   333800010001203104000003327KBZPay                 Yangon        MMR11007201031590159330720000000000000000   10300001F05104100000000001050000000000000     
100   62911028202615180000000000001100000000001100002000000010410407201319570240184773800720000750414629   1030000200030000   541188001054000008000000314KBZ BANK               MARKETPLACE - MMR11007201319570240180720000000000000000   10300001 00104100000000000066000000000000     
100   62911028202161240000000000009100000000009100002000000010410407201127490404804773800720000750402993   1030000200030000   541188001025000008000000298KBZ BANK               CITY MART - M MMR11007201127490404800720000000000000000   10300001 00104100000000000546000000000000     
100   95050319528093960000000000001980000000001980002000000010410407201237410741268185510720000007517652   1020000200030000   333400010001204104000000281Myanmar Soft-Gate Tech Yangon        MMR11007201237410741260720000000000000000   10300001F05104100000000000416000000000000     
100   95030314863516850000000000016900000000016900002000000010410407200640431043994773800720000007515619   1030000200030000   333800010001203104000003327KBZPay                 Yangon        MMR11007200640431043990720000000000000000   10300001F05104100000000003549000000000000     
100   95050323233042810000000000000990000000000990002000000010410407201100193019000433670720000007517235   1020000200030000   333400010001204104000000281Myanmar Soft-Gate Tech Yangon        MMR11007201100193019000720000000000000000   10300001F05104100000000000208000000000000     
100   62911028202136750000000000014150000000014150002000000010410407200649283872814773800720894191328200   1030000900030000   541119000285190110000000177Pro1 Global (Insein)   YANGON        MMR11007200649283872810720000000000000000   10300001F00104100000000000849000000000000     
100   95050322295410690000000000030000000000030000002000000010410407200816023895242036710720014461402200   1030000900030000   554119001103190110000000215New Day Energy MYG     YANGONONE     MMR11007200816023895240720000000000000000   10300001F00104100000000003600000000000000     
100   62911028202331290000000000038980000000038980002000000010410407201141103953174773800720107111810200   1030000900030000   541119000120190110000000080Sein Gay Har BAK       YANGONADA     MMR11007201141103953170720000000000000000   10300001F00104100000000002339000000000000     
100   95050321848852460000000000065000000000065000002000000010410407201515313998961745760720427452131200   1030000900030000   554119001103190110000000215New Day Energy MYG     YANGONONE     MMR11007201515313998960720000000000000000   10300001F00104100000000007800000000000000     
100   95050314567755980000000000001000000000001000002000000010410407200617504750972327650720000007515402   1030000200030000   3338000100012031040000040022C2P (Myanmar) Co. Ltd Yangon        MMR11007200617504750970720000000000000000   10300001F05104100000000000210000000000000     
100   95050310332595380000000000000990000000000990002000000010410407201125255525575391120720000007517340   1020000200030000   333400010001204104000000281Myanmar Soft-Gate Tech Yangon        MMR11007201125255525570720000000000000000   10300001F05104100000000000208000000000000     
100   95050326155679180000000000010890000000010890002000000010410407200325495549253936410720000007513789   1020000200030000   333400010001204104000000281Myanmar Soft-Gate Tech Yangon        MMR11007200325495549250720000000000000000   10300001F05104100000000002287000000000000     
100   95050312675525330000000000006000000000006000002000000010410407201028465846920774050720000007517083   1030000200030000   333800010001203104000003327KBZPay                 Yangon        MMR11007201028465846920720000000000000000   10300001F05104100000000001260000000000000     
100   62911028202789750000000000060450000000060450002000000010410407200401437141104773800720220111714110   1040001600030000   591220000271000000010000259Shwe Ohh Pharmacy (Gwa Yangon        MMR11007200401437141100720000000000000000   10300001F00104100000000003627000000000000     
100   62911028202464100000000000035460000000035460002000000010410407190922530009324773800719220015000932   1030000500030000   541120227501000045411202275CITY MART (AHLONE BRAN PTN           MMR11007190922530009320719000000000000000   10300001 00104100000000002128000000000000     
100   62443100323428970000000000216750000000216750002000000010410407191018110011143681120719220016001114   1030000500030000   503920036606000015039200366PRO-1 HOME CENTER      PTN           MMR11007191018110011140719000000000000000   10300001 00104100000000052020000000000000     
100   62911028202308280000000000083100000000083100002000000010410407190949080001754773800719220016000175   1030000500030000   591220014201014405912200142SHWE OHH PHARMACY      PTN           MMR11007190949080001750719000000000000000   10300001 00104100000000004986000000000000     
100   62911028202133940000000000020300000000020300002000000010410407190921530028784773800719220015002878   1030000500030000   531120226301000045311202263OCEAN SUPER CENTER STJ PTN           MMR11007190921530028780719000000000000000   10300001 00104100000000001218000000000000     
100   62911028202463780000000000018150000000018150002000000010410407190723390021544773800719220013002154   1030000500030000   541120203706000015411202037CITY MART SUPERMARKET  PTN           MMR11007190723390021540719000000000000000   10300001 00104100000000001089000000000000     
100   62911028202151910000000000032000000000032000002000000010410407191054390021564773800719220017002156   1030000500030000   598320001202000015172200012MAX ENERGY             PTN           MMR11007191054390021560719000000000000000   10300001 00104100000000000960000000000000     
100   95050311931431670000000000004950000000004950002000000010410407200749171917794284860720000007516223   1020000200030000   333400010001204104000000281Myanmar Soft-Gate Tech Yangon        MMR11007200749171917790720000000000000000   10300001F05104100000000001040000000000000     
100   62443101086752040000000000040000000000040000002000000010410407170053060347032909900717219800034703   1030000600030000   554100002085315799420000471DENKO BAHAN            YANGON        MMR11007170053060347030717000000000000000   10300001 00104100000000004800000000000000     
100   95050315557781210000000000003000000000003000002000000010410407200204353435862149380720000007513203   1030000200030000   333800010001203104000003327KBZPay                 Yangon        MMR11007200204353435860720000000000000000   10300001F05104100000000000630000000000000     
100   62911028202912590000000000050000000000050000002000000010410407200356423825754773800720518261042200   1030000900030000   554119001100190110000000212New Day Energy PZD     YANGON        MMR11007200356423825750720000000000000000   10300001F00104100000000001500000000000000     
100   62911028202542160000000000035750000000035750002000000010410407200600193858904773800720174301219200   1030000900030000   541119001077190110000000872Sein Gay Har Hledan    YANGONUT      MMR11007200600193858900720000000000000000   10300001F00104100000000002145000000000000     
100   95050310397364970000000000000990000000000990002000000010410407201227075707878951370720000007517599   1020000200030000   333400010001204104000000281Myanmar Soft-Gate Tech Yangon        MMR11007201227075707870720000000000000000   10300001F05104100000000000208000000000000     
100   62911028202019440000000000018700000000018700002000000010410407200613233862184773800720331431223200   1030000900030000   541119001264190110000000958City Mart PLST C 7     YANGONMYOTHIT MMR11007200613233862180720000000000000000   10300001F00104100000000001122000000000000     
100   62911028202488950000000000020000000000020000002000000010410407201052533937094773800720159221753200   1030000900030000   554119001100190110000000212New Day Energy PZD     YANGON        MMR11007201052533937090720000000000000000   10300001F00104100000000000600000000000000     
100   95050312962334280000000000000990000000000990002000000010410407200527325732676228290720000007515011   1020000200030000   333400010001204104000000281Myanmar Soft-Gate Tech Yangon        MMR11007200527325732670720000000000000000   10300001F05104100000000000208000000000000     
100   62911028202136750000000000159400000000159400002000000010410407200646283871944773800720853161328200   1030000900030000   541119000285190110000000177Pro1 Global (Insein)   YANGON        MMR11007200646283871940720000000000000000   10300001F00104100000000009564000000000000     
100   62911028202463780000000000005600000000005600002000000010410407190727440002994773800719220013000299   1030000500030000   541120203703000015411202037CITY MART SUPERMARKET  PTN           MMR11007190727440002990719000000000000000   10300001 00104100000000000336000000000000     
100   62443100322986690000000000017500000000017500002000000010410407201232223968468270600720998021922200   1030000900030000   541119000154190110000000083SeinGayHarParami Cente YANGON        MMR11007201232223968460720000000000000000   10300001F00104100000000004375000000000000     
100   95050328384000040000000000053300000000053300002000000010410407190347260001776176490719220010000177   1030000500030000   581220159201000015812201592GOLDEN DUCK (SAYAR SAN PTN           MMR11007190347260001770719000000000000000   10300001 00104100000000022653000000000000     
100   95030399326190680000000000144350000000144350002000000010410407200628057231114773800720220113723111   1040001600030000   591220000295000000010000283Shwe Ohh Pharmacy (39t Yangon        MMR11007200628057231110720000000000000000   10300001F00104100000000008661000000000000     
100   95050327416134790000000000000990000000000990002000000010410407201308173817639837990720000007517791   1020000200030000   333400010001204104000000281Myanmar Soft-Gate Tech Yangon        MMR11007201308173817630720000000000000000   10300001F05104100000000000208000000000000     
100   95050319391394380000000000008350000000008350002000000010410407201054113937672596730720196241711200   1030000900030000   541119000123190110000000080Sein Gay Har BAK       YANGON        MMR11007201054113937670720000000000000000   10300001F00104100000000002088000000000000     
100   95050311077567400000000000012400000000012400002000000010410407201034293931069376860720806041729200   1030000900030000   541119001587190110000001157Sein Gay Har Aung San- YANGONADON    MMR11007201034293931060720000000000000000   10300001F00104100000000003100000000000000     
100   62443100328070970000000000012550000000012550002000000010410407201024573928122426530720636541657200   1030000900030000   541119001525190110000001105Ocean MGDTM City Care  YANGONADON    MMR11007201024573928120720000000000000000   10300001F00104100000000003138000000000000     
100   62911028202151340000000000045045000000045045002000000010410407201042356230164773800720123593862366   1040001400030000   581210000568025812100003511Swel Restaurant null N -(7)  Baho Ro MMR11007201042356230160720000000000000000   10300001 00104100000000004595000000000000     
100   95050315017843630000000000005000000000005000002000000010410407201057442744210944240720000007517220   1040001600030000   333800010001220104000004507A +                    Yangon        MMR11007201057442744210720000000000000000   10300001F05104100000000001050000000000000     
100   95050314567755980000000000028650000000028650002000000010410407200958362836961454820720000007516935   1030000200030000   333800010001203104000003327KBZPay                 Yangon        MMR11007200958362836960720000000000000000   10300001F05104100000000006017000000000000     
100   95050316949180000000000000005940000000005940002000000010410407200213464346885297950720000007513244   1020000200030000   333400010001204104000000281Myanmar Soft-Gate Tech Yangon        MMR11007200213464346880720000000000000000   10300001F05104100000000001247000000000000     
100   95050313396828960000000000001980000000001980002000000010410407201413074307981830860720000007518024   1020000200030000   333400010001204104000000281Myanmar Soft-Gate Tech Yangon        MMR11007201413074307980720000000000000000   10300001F05104100000000000416000000000000     
100   95050312498129060000000000001980000000001980002000000010410407201116044604793738630720000007517304   1020000200030000   333400010001204104000000281Myanmar Soft-Gate Tech Yangon        MMR11007201116044604790720000000000000000   10300001F05104100000000000416000000000000     
100   95050314996291580000000000001000000000001000002000000010410407200715454545046022440720000007515911   1030000200030000   3338000100012031040000040022C2P (Myanmar) Co. Ltd Yangon        MMR11007200715454545040720000000000000000   10300001F05104100000000000210000000000000     
100   95050310457113440000000000025000000000025000002000000010410407201229245924515476210720000007517610   1030000200030000   333800010001203104000003327KBZPay                 Yangon        MMR11007201229245924510720000000000000000   10300001F05104100000000005250000000000000     
100   95050311883152260000000000019450000000019450002000000010410407151126400013327754680715219611001332   1030000600030000   5499000022383157994200015691 STOP S M SATSAN      YANGON        MMR11007151126400013320715000000000000000   10300001 00104100000000008267000000000000     
100   62911028202308280000000000029450000000029450002000000010410407151320110020154773800715219613002015   1030000600030000   5499000022263157994200015671 STOP S M BOGYOKE RD  YANGON        MMR11007151320110020150715000000000000000   10300001 00104100000000003004000000000000     
100   62443100344229520000000000057000000000057000002000000010410407150206590457776123690715219602045777   1030000600030000   554100001106315799420000564DENKO PHYUU            PHYUU         MMR11007150206590457770715000000000000000   10300001 00104100000000006840000000000000     
100   95030305700676370000000000060000000000060000002000000010410407151104020082964773800715219611008296   1030000600030000   554100002141315799420001490DENKO MEIKHTILA 3      MANDALAY      MMR11007151104020082960715000000000000000   10300001 00104100000000001800000000000000     
100   62443100376865460000000000025000000000025000002000000010410407160742140009730810070716219707000973   1030000600030000   729800001938315799420001308CLEAN & DETOX SPASHAN  SANCHAUNG     MMR11007160742140009730716000000000000000   10300001 00104100000000006000000000000000     
100   95050326511614440000000000025300000000025300002000000010410407161422300004722498210716219714000472   1030000600030000   5499000022573157994200015721 STOP S M SU PAUNG    YANGON        MMR11007161422300004720716000000000000000   10300001 00104100000000010753000000000000     
100   95030301100126550000000000027000000000027000002000000010410407161305500572754773800716219713057275   1030000600030000   554100000969315799420000481DENKO NORTH OKKALAPA   YANGON        MMR11007161305500572750716000000000000000   10300001 00104100000000000810000000000000     
100   62443100338512680000000000031000000000031000002000000010410407161409160087340845730716219714008734   1030000600030000   554100001812315799420001187DENKO  SHWE TAUNG      SHWE TAUNG    MMR11007161409160087340716000000000000000   10300001 00104100000000003720000000000000     
100   95050317343045830000000000000990000000000990002000000010410407200229415941725383040720000007513335   1020000200030000   333400010001204104000000281Myanmar Soft-Gate Tech Yangon        MMR11007200229415941720720000000000000000   10300001F05104100000000000208000000000000     
100   95050311419479170000000000001980000000001980002000000010410407191700003000244312440720000007512561   1020000200030000   333400010001204104000000281Myanmar Soft-Gate Tech Yangon        MMR11007191700003000240720000000000000000   10300001F05104100000000000416000000000000     
100   95050327416134790000000000004950000000004950002000000010410407200607483748412157460720000007515321   1020000200030000   333400010001204104000000281Myanmar Soft-Gate Tech Yangon        MMR11007200607483748410720000000000000000   10300001F05104100000000001040000000000000     
100   95050316717221100000000000000990000000000990002000000010410407200508093809669363070720000007514857   1020000200030000   333400010001204104000000281Myanmar Soft-Gate Tech Yangon        MMR11007200508093809660720000000000000000   10300001F05104100000000000208000000000000     
100   62911028202357510000000000034300000000034300002000000010410407201405383795964773800720353847664245   1040001400030000   581410000316025814100004641Little Boss Hot Pot  n ll 37st Bet(6 MMR11007201405383795960720000000000000000   10300001 00104100000000001029000000000000     
100   95050324005082180000000000101020000000101020002000000010410407200535573852387285100720826051257200   1030000900030000   541119001076190110000000872Sein Gay Har Hledan    YANGONUT      MMR11007200535573852380720000000000000000   10300001F00104100000000025255000000000000     
100   62911028202139640000000000300000000000300000002000000010410407200153122312314773800720000007513152   1030000200030000   333800010001203104000003327KBZPay                 Yangon        MMR11007200153122312310720000000000000000   10300001F05104100000000063000000000000000     
100   95030314863516850000000000015000000000015000002000000010410407200506573657374773800720000007514856   1030000200030000   333800010001203104000003327KBZPay                 Yangon        MMR11007200506573657370720000000000000000   10300001F05104100000000003150000000000000     
100   95050326552133160000000000047933000000047933002000000010410407160616360064061271200716219706006406   1030000600030000   581200002287315799420000141FUJI COFFEE HOUSE      YANGON        MMR11007160616360064060716000000000000000   10300001 00104100000000020372000000000000     
100   62911028202248050000000000023400000000023400002000000010410407160314190411154773800716219703041115   1030000600030000   554100001155315799420000607DENKO NPT 1            NAYPYITAW.    MMR11007160314190411150716000000000000000   10300001 00104100000000000702000000000000     
100   62911028202919290000000000030000000000030000002000000010410407160652210100524773800716219706010052   1030000600030000   554100002322315799420000497DENKO KONE TA LA PAUNG YANGON        MMR11007160652210100520716000000000000000   10300001 00104100000000000900000000000000     
100   62443100398129000000000000074000000000074000002000000010410407160931500346196264310716219709034619   1030000600030000   554100002085315799420000471DENKO BAHAN            YANGON        MMR11007160931500346190716000000000000000   10300001 00104100000000008880000000000000     
100   62911028202366010000000000050000000000050000002000000010410407160448370422824773800716219704042282   1030000600030000   554100001865315799420001235DENKO NAY PYI TAW 2    NAYPYITAW     MMR11007160448370422820716000000000000000   10300001 00104100000000001500000000000000     
100   95050321232876860000000000096000000000096000002000000010410407160513470422843343460716219705042284   1030000600030000   554100001865315799420001235DENKO NAY PYI TAW 2    NAYPYITAW     MMR11007160513470422840716000000000000000   10300001 00104100000000011520000000000000     
100   95050324411430900000000000031000000000031000002000000010410407160359440994924485360716219703099492   1030000600030000   554100000946315799420000471DENKO BAHAN            YANGON        MMR11007160359440994920716000000000000000   10300001 00104100000000003720000000000000     
100   62443101093150400000000000014000000000014000002000000010410407170256280347408377930717219802034740   1030000600030000   554100002085315799420000471DENKO BAHAN            YANGON        MMR11007170256280347400717000000000000000   10300001 00104100000000001680000000000000     
100   95050313702988830000000000002970000000002970002000000010410407201308583858171490480720000007517795   1020000200030000   333400010001204104000000281Myanmar Soft-Gate Tech Yangon        MMR11007201308583858170720000000000000000   10300001F05104100000000000624000000000000     
100   62443100336591330000000000122574000000122574002000000010410407201008203923469717250720385381620200   1030000900030000   541119001153190110000000930OCEAN HTY              YANGON        MMR11007201008203923460720000000000000000   10300001F00104100000000030644000000000000     
100   95050311131833760000000000030000000000030000002000000010410407200913234323151696320720000007516750   1030000200030000   333800010001203104000003327KBZPay                 Yangon        MMR11007200913234323150720000000000000000   10300001F05104100000000006300000000000000     
100   95050312498129060000000000000990000000000990002000000010410407200854452445503008420720000007516656   1020000200030000   333400010001204104000000281Myanmar Soft-Gate Tech Yangon        MMR11007200854452445500720000000000000000   10300001F05104100000000000208000000000000     
100   95050317903887690000000000030200000000030200002000000010410407201315154515336873410720000007517818   1030000200030000   333800010001203104000003327KBZPay                 Yangon        MMR11007201315154515330720000000000000000   10300001F05104100000000006342000000000000     
100   62911028202132610000000000000990000000000990002000000010410407200321455145484773800720000007513737   1020000200030000   333400010001204104000000281Myanmar Soft-Gate Tech Yangon        MMR11007200321455145480720000000000000000   10300001F05104100000000000208000000000000     
100   95050316997303010000000000010000000000010000002000000010410407201555502550103156750720000007518353   1030000200030000   333800010001203104000003327KBZPay                 Yangon        MMR11007201555502550100720000000000000000   10300001F05104100000000002100000000000000     
100   95050319753756490000000000040000000000040000002000000010410407201055512551241029340720000007517209   1030000200030000   333800010001203104000003327KBZPay                 Yangon        MMR11007201055512551240720000000000000000   10300001F05104100000000008400000000000000     
100   62911028202197630000000000005000000000005000002000000010410407170453530287234773800717219804028723   1030000600030000   554100002319315799420000477DENKO INSEIN           YANGON        MMR11007170453530287230717000000000000000   10300001 00104100000000000150000000000000     
100   95050315296997180000000000022000000000022000002000000010410407171257150245435509510717219812024543   1030000600030000   554100000747315799420000325DENKO MDY 26           YANGON        MMR11007171257150245430717000000000000000   10300001 00104100000000002640000000000000     
100   95030301100126550000000000018000000000018000002000000010410407170912550236714773800717219809023671   1030000600030000   554100002323315799420000474DENKO N.DAGON - 1      YANGON        MMR11007170912550236710717000000000000000   10300001 00104100000000000540000000000000     
100   62911028202696360000000000022000000000022000002000000010410407171129270849954773800717219811084995   1030000600030000   554100000955315799420000477DENKO INSEIN           YANGON        MMR11007171129270849950717000000000000000   10300001 00104100000000000660000000000000     
100   95050321232876860000000000063000000000063000002000000010410407170533590423512690260717219805042351   1030000600030000   554100001865315799420001235DENKO NAY PYI TAW 2    NAYPYITAW     MMR11007170533590423510717000000000000000   10300001 00104100000000007560000000000000     
100   95050311876202380000000000030000000000030000002000000010410407170435120412543590670717219804041254   1030000600030000   554100001155315799420000607DENKO NPT 1            NAYPYITAW.    MMR11007170435120412540717000000000000000   10300001 00104100000000003600000000000000     
100   95050324154190880000000000018000000000018000002000000010410407171107470998215764800717219811099821   1030000600030000   554100000946315799420000471DENKO BAHAN            YANGON        MMR11007171107470998210717000000000000000   10300001 00104100000000002160000000000000     
100   62911028202491330000000000039000000000039000002000000010410407170816060997764773800717219808099776   1030000600030000   554100000946315799420000471DENKO BAHAN            YANGON        MMR11007170816060997760717000000000000000   10300001 00104100000000001170000000000000     
100   95050311419479170000000000002000000000002000002000000010410407200800053005813604090720000007516298   1030000200030000   3334000100012031040000040102C2P (Myanmar) Co. Ltd Yangon        MMR11007200800053005810720000000000000000   10300001F05104100000000000420000000000000     
100   62911028202709150000000000004200000000004200002000000010410407200610503861494773800720293401250200   1030000900030000   591219000958190110000000765Shwe Ohh Pharmacy St 4 YANGONOKKALAP MMR11007200610503861490720000000000000000   10300001F00104100000000000252000000000000     
100   62911028202792960000000000332000000000332000002000000010410407201031473930194773800720762011747200   1030000900030000   599919001138190110000000918Lucky Man Uwisarya     YANGONUT      MMR11007201031473930190720000000000000000   10300001F00104100000000019920000000000000     
100   95050328876009750000000000010000000000010000002000000010410407200713314331051064990720000007515922   1030000200030000   333800010001203104000003327KBZPay                 Yangon        MMR11007200713314331050720000000000000000   10300001F05104100000000002100000000000000     
100   62911028202794110000000000101000000000101000002000000010410407200321465146204773800720000007513704   1030000200030000   333800010001203104000003327KBZPay                 Yangon        MMR11007200321465146200720000000000000000   10300001F05104100000000021210000000000000     
100   95050311121153200000000000001000000000001000002000000010410407201022165216379206660720000007517051   1030000200030000   3338000100012031040000040022C2P (Myanmar) Co. Ltd Yangon        MMR11007201022165216370720000000000000000   10300001F05104100000000000210000000000000     
100   62911028202074950000000000032400000000032400002000000010410407200335443820664773800720299051044200   1030000900030000   591219000694190110000000525Shwe Ohh Pharmacy ST-2 YANGONAW      MMR11007200335443820660720000000000000000   10300001F00104100000000001944000000000000     
100   95050313411345710000000000002970000000002970002000000010410407200212244224430496900720000007513238   1020000200030000   333400010001204104000000281Myanmar Soft-Gate Tech Yangon        MMR11007200212244224430720000000000000000   10300001F05104100000000000624000000000000     
100   62443101093150400000000000018000000000018000002000000010410407190145560017581644520719220008001758   1030000500030000   598320002103000015172200021MAX ENERGY             PTN           MMR11007190145560017580719000000000000000   10300001 00104100000000002160000000000000     
100   62911028202790980000000001000000000001000000002000000010410407181654590000694773800719000750342060   1030000200030000   481288001529000008000004974KBZ BANK               YOUNIQUE INFO MMR11007181654590000690719000000000000000   10300001 00104100000000060000000000000000     
100   62911028202169750000000000022000000000022000002000000010410407190757280017994773800719220014001799   1030000500030000   598320002103000015172200021MAX ENERGY             PTN           MMR11007190757280017990719000000000000000   10300001 00104100000000000660000000000000     
100   62911028202790980000000001000000000001000000002000000010410407181655220000704773800719000750342065   1030000200030000   481288001529000008000004974KBZ BANK               YOUNIQUE INFO MMR11007181655220000700719000000000000000   10300001 00104100000000060000000000000000     
100   62911028202743960000000000040000000000040000002000000010410407191127320001874773800719220017000187   1030000500030000   598320005101000015172200051MAX ENERGY             PTN           MMR11007191127320001870719000000000000000   10300001 00104100000000001200000000000000     
100   62911028202790980000000001000000000001000000002000000010410407181655570000714773800719000750342084   1030000200030000   481288001529000008000004974KBZ BANK               YOUNIQUE INFO MMR11007181655570000710719000000000000000   10300001 00104100000000060000000000000000     
100   62911028202243670000000000098150000000098150002000000010410407190857300003744773800719220015000374   1030000500030000   591220013501014405912200135SHWE OHH PHARMACY      PTN           MMR11007190857300003740719000000000000000   10300001 00104100000000005889000000000000     
100   95030301100081330000000000046850000000046850002000000010410407191249050013504773800719220019001350   1030000500030000   531120226707000045311202267OCEAN NORTH POINT      PTN           MMR11007191249050013500719000000000000000   10300001 00104100000000002811000000000000     
100   95050313732480420000000000002970000000002970002000000010410407201514534453950093280720000007518241   1020000200030000   333400010001204104000000281Myanmar Soft-Gate Tech Yangon        MMR11007201514534453950720000000000000000   10300001F05104100000000000624000000000000     
100   62911028202793040000000000015150000000015150002000000010410407200225223806114773800720699550822200   1030000900030000   591219001419190110000001023Life Plus Store 24     YANGONOKKALAP MMR11007200225223806110720000000000000000   10300001F00104100000000000909000000000000     
100   62443100322986690000000000013150000000013150002000000010410407201259503976684795440720498291950200   1030000900030000   541119000136190110000000083SeinGayHarParami Cente YANGON        MMR11007201259503976680720000000000000000   10300001F00104100000000003288000000000000     
100   95050311959900780000000000000990000000000990002000000010410407200705293529962887670720000007515869   1020000200030000   333400010001204104000000281Myanmar Soft-Gate Tech Yangon        MMR11007200705293529960720000000000000000   10300001F05104100000000000208000000000000     
100   95030314863516850000000000016000000000016000002000000010410407200607353735204773800720000007515322   1030000200030000   333800010001203104000003327KBZPay                 Yangon        MMR11007200607353735200720000000000000000   10300001F05104100000000003360000000000000     
100   62443100369813440000000000030000000000030000002000000010410407201022373927390859150720595521637200   1030000900030000   554119000346190110000000213New Day Energy SOK     YANGONOKKALAP MMR11007201022373927390720000000000000000   10300001F00104100000000003600000000000000     
100   62443100328070970000000000010500000000010500002000000010410407201020023926594164120720543501602200   1030000900030000   541119001513190110000001102Ocean MGDTM C-6        YANGONADON    MMR11007201020023926590720000000000000000   10300001F00104100000000002625000000000000     
100   95050320205194540000000000090150000000090150002000000010410407201055323938079291760720217251732200   1030000900030000   591219000969190110000000776Shwe Ohh Pharmacy St ( YANGONADA     MMR11007201055323938070720000000000000000   10300001F00104100000000021636000000000000     
100   62443100355445150000000000082250000000082250002000000010410407190807450014160787840719000356299883   1030000300030000   541100002350000000000000102CB BANK                MAKRO MYANMAR MMR11007190807450014160719000000000000000   10300001F00104100000000020563000000000000     
100   62911028202790980000000000950000000000950000002000000010410407181656230000724773800719000750342088   1030000200030000   481288001529000008000004974KBZ BANK               YOUNIQUE INFO MMR11007181656230000720719000000000000000   10300001 00104100000000057000000000000000     
100   62911028202743960000000000058079000000058079002000000010410407191006570001854773800719220016000185   1030000500030000   598320005101000015172200051MAX ENERGY             PTN           MMR11007191006570001850719000000000000000   10300001 00104100000000001742000000000000     
100   95050313970192050000000000014400000000014400002000000010410407190658580003115745290719220013000311   1030000500030000   541120232801000045411202328CITY EXPRESS (MCS - 34 PTN           MMR11007190658580003110719000000000000000   10300001 00104100000000003600000000000000     
100   62443100376865460000000000010900000000010900002000000010410407190304430000978509740719220009000097   1030000500030000   581220210501013705812202105KHAING KHAING KYAW     PTN           MMR11007190304430000970719000000000000000   10300001 00104100000000004633000000000000     
100   62443100330105920000000000041450000000041450002000000010410407190927100020333752420719220015002033   1030000500030000   531120226320000045311202263OCEAN SUPER CENTER STJ PTN           MMR11007190927100020330719000000000000000   10300001 00104100000000009948000000000000     
100   95050329720609600000000000450000000000450000002000000010410407191008310000464993210719220016000046   1030000500030000   703220082601000017032200826FIT WAY GYM            PTN           MMR11007191008310000460719000000000000000   10300001 00104100000000108000000000000000     
100   95030305234413920000000000042750000000042750002000000010410407190709510017204773800719220013001720   1030000500030000   541120227503000045411202275CITY MART (AHLONE BRAN PTN           MMR11007190709510017200719000000000000000   10300001 00104100000000002565000000000000     
100   95030307963177330000000000010700000000010700002000000010410407200523197186884773800720220112718688   1040001600030000   581420000238000000010000226My Hill Coffeehouse    Yangon        MMR11007200523197186880720000000000000000   10300001F00104100000000000321000000000000     
100   62443101023815100000000000048000000000048000002000000010410407200549107206317200010720220112720631   1040001600030000   598320000658000000010000527Shwe Taung Energy (YGN Yangon        MMR11007200549107206310720000000000000000   10300001F00104100000000005760000000000000     
100   62911028202313470000000000169900000000169900002000000010410407201010417362264773800720220117736226   1040001600030000   591220000285000000010000273Shwe Ohh Pharmacy (47t Yangon        MMR11007201010417362260720000000000000000   10300001F00104100000000010194000000000000     
100   62443100381153960000000000659800000000659800002000000010410407200818178421205341670720481708837078   1040001400030000   481210000480034812100005739Anycall Mobile null My nmar Chanayet MMR11007200818178421200720000000000000000   10300001 00104100000000158352000000000000     
100   62443100373945130000000000050000000000050000002000000010410407201104197414298781180720220118741429   1040001600030000   598320000911000000010000662MMTM - Tamwe           Ygn           MMR11007201104197414290720000000000000000   10300001F00104100000000006000000000000000     
100   62911028202193670000000000043000000000043000002000000010410407191235010017474773800719220019001747   1030000500030000   598320001603000015172200016MAX ENERGY             PTN           MMR11007191235010017470719000000000000000   10300001 00104100000000001290000000000000     
100   62911028202133940000000000045161000000045161002000000010410407191431440005504773800719220021000550   1030000500030000   581220021301000015812200213THAI 47                PTN           MMR11007191431440005500719000000000000000   10300001 00104100000000004606000000000000     
100   62911028202139640000000000008950000000008950002000000010410407191031160017504773800719220017001750   1030000500030000   503920036611000015039200366PRO-1 HOME CENTER      PTN           MMR11007191031160017500719000000000000000   10300001 00104100000000000537000000000000     
100   62911028202116610000000000140001000000140001002000000010410407190755510017024773800719220014001702   1030000500030000   598320001603000015172200016MAX ENERGY             PTN           MMR11007190755510017020719000000000000000   10300001 00104100000000004200000000000000     
100   95050310283577350000000000036150000000036150002000000010410407191200040010328042900719220018001032   1030000500030000   541120020902022205411200209ORANGE (HLAING)        PTN           MMR11007191200040010320719000000000000000   10300001 00104100000000009038000000000000     
100   62443101093150400000000000031000000000031000002000000010410407190259260017511899810719220009001751   1030000500030000   598320002101000015172200021MAX ENERGY             PTN           MMR11007190259260017510719000000000000000   10300001 00104100000000003720000000000000     
100   62911028202743960000000000020000000000020000002000000010410407191211180001914773800719220018000191   1030000500030000   598320005101000015172200051MAX ENERGY             PTN           MMR11007191211180001910719000000000000000   10300001 00104100000000000600000000000000     
100   62911028202595200000000000146700000000146700002000000010410407190417000002654773800719220010000265   1030000500030000   541120129723000045411201297MAKRO MYANMAR          PTN           MMR11007190417000002650719000000000000000   10300001 00104100000000008802000000000000     
100   95050318818534160000000000015050000000015050002000000010410407191027030017960376150719000356318993   1030000300030000   591200000340000000000000220CB BANK                MEDICARE STOR MMR11007191027030017960719000000000000000   10300001F00104100000000003612000000000000     
100   95050311560587250000000000026920000000026920002000000010410407190719580002040617650719000356293537   1030000300030000   569100002321000000000001293CB BANK                MK FASHION (M MMR11007190719580002040719000000000000000   10300001F00104100000000006461000000000000     
100   95050328074436620000000000023000000000023000002000000010410407182355160020980417520719220006002098   1030000500030000   598320001003000015172200010MAX ENERGY             PTN           MMR11007182355160020980719000000000000000   10300001 00104100000000002760000000000000     
100   62911028202790980000000001000000000001000000002000000010410407181654230000684773800719000750342055   1030000200030000   481288001529000008000004974KBZ BANK               YOUNIQUE INFO MMR11007181654230000680719000000000000000   10300001 00104100000000060000000000000000     
100   62911028202166940000000000012950000000012950002000000010410407191000000001114773800719220016000111   1030000500030000   581220264301000085812202643BREAD TALK             PTN           MMR11007191000000001110719000000000000000   10300001 00104100000000001321000000000000     
100   62443100376865460000000000054100000000054100002000000010410407190803070013702525420719220014001370   1030000500030000   503920036610000015039200366PRO-1 HOME CENTER      PTN           MMR11007190803070013700719000000000000000   10300001 00104100000000012984000000000000     
100   62911028202120400000000000030000000000030000002000000010410407190733370021994773800719220014002199   1030000500030000   598320001201000015172200012MAX ENERGY             PTN           MMR11007190733370021990719000000000000000   10300001 00104100000000000900000000000000     
100   62443100327902100000000000058000000000058000002000000010410407190216260034748679940719220008003474   1030000500030000   598320001904000015172200019MAX ENERGY             PTN           MMR11007190216260034740719000000000000000   10300001 00104100000000006960000000000000     
100   95050321084131410000000000062000000000062000002000000010410407190444430024648248740719220011002464   1030000500030000   598320001204000015172200012MAX ENERGY             PTN           MMR11007190444430024640719000000000000000   10300001 00104100000000007440000000000000     
100   62911028202421380000000000056000000000056000002000000010410407190416500032904773800719220010003290   1030000500030000   598320001902000015172200019MAX ENERGY             PTN           MMR11007190416500032900719000000000000000   10300001 00104100000000001680000000000000     
100   62911028202194660000000000033500000000033500002000000010410407190640486485744773800719220013648574   1040001600030000   806220001354000000010001061Grand Hantha Internati Ygn           MMR11007190640486485740719000000000000000   10300001F00104100000000002010000000000000     
100   62443100373945130000000000080931000000080931002000000010410407190818016535357482870719220015653535   1040001600030000   541120000559000000010000465Ocean Shwe Gone Daing  Yangon        MMR11007190818016535350719000000000000000   10300001F00104100000000020233000000000000     
100   95050314557307430000000000000990000000000990002000000010410407200304433443264957560720000007513593   1020000200030000   333400010001204104000000281Myanmar Soft-Gate Tech Yangon        MMR11007200304433443260720000000000000000   10300001F05104100000000000208000000000000     
100   95050316043499650000000000005000000000005000002000000010410407201629225922564809230720000007518479   1030000200030000   333800010001203104000003327KBZPay                 Yangon        MMR11007201629225922560720000000000000000   10300001F05104100000000001050000000000000     
100   95030346179196360000000000035000000000035000002000000010410407191014506612324773800719220017661232   1040001600030000   598320000856000000010000609Terminal Petrol Statio Yangon        MMR11007191014506612320719000000000000000   10300001F00104100000000001050000000000000     
100   95050312618592720000000000005000000000005000002000000010410407201401153115293483350720000007517974   1030000200030000   333800010001203104000003327KBZPay                 Yangon        MMR11007201401153115290720000000000000000   10300001F05104100000000001050000000000000     
