100   62911028202313470000000000123618000000123618002000000010410407211723100287164773800721000750498128   1030000200030000   541188001003000008000000008KBZ BANK               MARKETPLACE - MMR11007211723100287160721000000000000000   10300001 00104100000000007417000000000000     
100   95050313843656520000000000001980000000001980002000000010410407210333210321853702980721000007519693   1020000200030000   333400010001204104000000281Myanmar Soft-Gate Tech Yangon        MMR11007210333210321850721000000000000000   10300001F05104100000000000416000000000000     
100   62911028202662690000000000010125000000010125002000000010410407211823170408994773800721000750501361   1030000200030000   541188001024000008000000298KBZ BANK               CITY MART - M MMR11007211823170408990721000000000000000   10300001 00104100000000000608000000000000     
100   95050313817486860000000000004950000000004950002000000010410407210936450645154344320721000007522581   1020000200030000   333400010001204104000000281Myanmar Soft-Gate Tech Yangon        MMR11007210936450645150721000000000000000   10300001F05104100000000001040000000000000     
100   62911028202108380000000000032550000000032550002000000010410407211840510220234773800721000750502216   1030000200030000   541188001080000008000000294KBZ BANK               CITY MART - J MMR11007211840510220230721000000000000000   10300001 00104100000000001953000000000000     
100   62911028202125030000000000046963000000046963002000000010410407210935270286604773800721000750455721   1030000200030000   541188001003000008000000008KBZ BANK               MARKETPLACE - MMR11007210935270286600721000000000000000   10300001 00104100000000002818000000000000     
100   95050314557307430000000000000990000000000990002000000010410407210836460646004796440721000007522222   1020000200030000   333400010001204104000000281Myanmar Soft-Gate Tech Yangon        MMR11007210836460646000721000000000000000   10300001F05104100000000000208000000000000     
100   95050313497815710000000000020000000000020000002000000010410407211047201720441083050721000007522944   1030000200030000   333800010001203104000003327KBZPay                 Yangon        MMR11007211047201720440721000000000000000   10300001F05104100000000004200000000000000     
100   62911028202490830000000000700000000000700000002000000010410407201158020007144773800720220118000714   1030000500030000   806220046404006308062200464ASIA ROYAL HOSPITAL    PTN           MMR11007201158020007140720000000000000000   10300001 00104100000000042000000000000000     
100   62911028202313470000000000040000000000040000002000000010410407200920300018134773800720220115001813   1030000500030000   598320001602000015172200016MAX ENERGY             PTN           MMR11007200920300018130720000000000000000   10300001 00104100000000001200000000000000     
100   95050324082484780000000000010900000000010900002000000010410407200945460002679547050720220116000267   1030000500030000   541120025201022205411200252ORANGE (80ST)          PTN           MMR11007200945460002670720000000000000000   10300001 00104100000000002725000000000000     
100   62911028202197630000000000012971000000012971002000000010410407200944320011554773800720220116001155   1030000500030000   541120230104000045411202301CITY MART SUPERMARKET  PTN           MMR11007200944320011550720000000000000000   10300001 00104100000000000778000000000000     
100   95050313970192050000000000008000000000008000002000000010410407201258100003193142960720220119000319   1030000500030000   541120232801000045411202328CITY EXPRESS (MCS - 34 PTN           MMR11007201258100003190720000000000000000   10300001 00104100000000002000000000000000     
100   62911028202331290000000000073350000000073350002000000010410407201026040001894773800720220116000189   1030000500030000   591220014201014405912200142SHWE OHH PHARMACY      PTN           MMR11007201026040001890720000000000000000   10300001 00104100000000004401000000000000     
100   62911028202129170000000000018000000000018000002000000010410407200730420021954773800720220114002195   1030000500030000   541120203706000015411202037CITY MART SUPERMARKET  PTN           MMR11007200730420021950720000000000000000   10300001 00104100000000001080000000000000     
100   95050318631979070000000000010450000000010450002000000010410407201236570020506533020720000356516037   1030000300030000   541100000134000000000000062CB BANK                CAPITAL EXPRE MMR11007201236570020500720000000000000000   10300001F00104100000000002613000000000000     
100   62911028202313470000000000009000000000009000002000000010410407211718250323434773800721000750497825   1030000200030000   541188001012000008000000008KBZ BANK               MARKETPLACE - MMR11007211718250323430721000000000000000   10300001 00104100000000000540000000000000     
100   95050321057500320000000000004950000000004950002000000010410407210435110511449825200721000007520272   1020000200030000   333400010001204104000000281Myanmar Soft-Gate Tech Yangon        MMR11007210435110511440721000000000000000   10300001F05104100000000001040000000000000     
100   95050317317598540000000000003000000000003000002000000010410407210643151315880591060721000007521346   1030000200030000   333800010001203104000003327KBZPay                 Yangon        MMR11007210643151315880721000000000000000   10300001F05104100000000000630000000000000     
100   62911028202662690000000000015900000000015900002000000010410407211824570029004773800721000750501434   1030000200030000   541188001029000008000000298KBZ BANK               CITY MART - M MMR11007211824570029000721000000000000000   10300001 00104100000000000954000000000000     
100   95050311419479170000000000003000000000003000002000000010410407210736040604546704210721000007521838   1030000200030000   3334000100012031040000040102C2P (Myanmar) Co. Ltd Yangon        MMR11007210736040604540721000000000000000   10300001F05104100000000000630000000000000     
100   95030318100004530000000000044950000000044950002000000010410407211650310058624773800721000750496286   1030000200030000   541188001440000008000000401KBZ BANK               OCEAN SUPERCE MMR11007211650310058620721000000000000000   10300001 00104100000000002697000000000000     
100   62443100306882420000000000300000000000300000002000000010410407210132340234466461720721000007519038   1030000200030000   333800010001203104000003327KBZPay                 Yangon        MMR11007210132340234460721000000000000000   10300001F05104100000000063000000000000000     
100   95050319709462380000000000005000000000005000002000000010410407210332480248139972530721000007519679   1030000200030000   3338000100012031040000040022C2P (Myanmar) Co. Ltd Yangon        MMR11007210332480248130721000000000000000   10300001F05104100000000001050000000000000     
100   62443100390038980000000000019250000000019250002000000010410407201325340008488525890720220119000848   1030000500030000   581220041801000055812200418SHWE LAR HOT POT       PTN           MMR11007201325340008480720000000000000000   10300001 00104100000000008182000000000000     
100   62911028202684060000000000021400000000021400002000000010410407200814500013734773800720220114001373   1030000500030000   531120226707000045311202267OCEAN NORTH POINT      PTN           MMR11007200814500013730720000000000000000   10300001 00104100000000001284000000000000     
100   62911028202471600000000000026950000000026950002000000010410407200817150021964773800720220114002196   1030000500030000   541120203706000015411202037CITY MART SUPERMARKET  PTN           MMR11007200817150021960720000000000000000   10300001 00104100000000001617000000000000     
100   62443100322986690000000000014500000000014500002000000010410407201249140023553228060720000356517651   1030000300030000   531100000823000000000000562CB BANK                MGOU-SGH      MMR11007201249140023550720000000000000000   10300001F00104100000000003480000000000000     
100   95050314767696390000000000003500000000003500002000000010410407201004500001939802340720220116000193   1030000500030000   531120155708000045311201557GAMONE PWINT           PTN           MMR11007201004500001930720000000000000000   10300001 00104100000000000840000000000000     
100   95030318100004530000000000042010000000042010002000000010410407200732170002014773800720220114000201   1030000500030000   503920036902017205039200369PRO-1 HOME CENTER      PTN           MMR11007200732170002010720000000000000000   10300001 00104100000000002521000000000000     
100   62443100306416880000000000011750000000011750002000000010410407201221030002147298890720220118000214   1030000500030000   581220151701000015812201517TOM N TOM COFFEE SHOP  PTN           MMR11007201221030002140720000000000000000   10300001 00104100000000004994000000000000     
100   62911028202188490000000000013850000000013850002000000010410407200403090002154773800720220110000215   1030000500030000   581220263901000085812202639BREAD TALK             PTN           MMR11007200403090002150720000000000000000   10300001 00104100000000001413000000000000     
100   95050313817486860000000000001980000000001980002000000010410407210934380438525620750721000007522568   1020000200030000   333400010001204104000000281Myanmar Soft-Gate Tech Yangon        MMR11007210934380438520721000000000000000   10300001F05104100000000000416000000000000     
100   95050323481251170000000000005000000000005000002000000010410407211437180718672762200721000007523826   1030000200030000   333800010001203104000003327KBZPay                 Yangon        MMR11007211437180718670721000000000000000   10300001F05104100000000001050000000000000     
100   95050316067768680000000000000990000000000990002000000010410407210333590359071965400721000007519696   1020000200030000   333400010001204104000000281Myanmar Soft-Gate Tech Yangon        MMR11007210333590359070721000000000000000   10300001F05104100000000000208000000000000     
100   95050312498129060000000000002970000000002970002000000010410407210238160816507858910721000007519291   1020000200030000   333400010001204104000000281Myanmar Soft-Gate Tech Yangon        MMR11007210238160816500721000000000000000   10300001F05104100000000000624000000000000     
100   95050311184380560000000000004950000000004950002000000010410407211011074107127111110721000007522747   1020000200030000   333400010001204104000000281Myanmar Soft-Gate Tech Yangon        MMR11007211011074107120721000000000000000   10300001F05104100000000001040000000000000     
100   95050319161596230000000000000990000000000990002000000010410407210900493049722378090721000007522381   1020000200030000   333400010001204104000000281Myanmar Soft-Gate Tech Yangon        MMR11007210900493049720721000000000000000   10300001F05104100000000000208000000000000     
100   95050312695033440000000000009900000000009900002000000010410407210702593259534151320721000007521485   1020000200030000   333400010001204104000000281Myanmar Soft-Gate Tech Yangon        MMR11007210702593259530721000000000000000   10300001F05104100000000002079000000000000     
100   62911028202067860000000000013860000000013860002000000010410407210401153115954773800721000007519966   1020000200030000   333400010001204104000000281Myanmar Soft-Gate Tech Yangon        MMR11007210401153115950721000000000000000   10300001F05104100000000002911000000000000     
100   95030301100022270000000000026000000000026000002000000010410407200513350022614773800720220111002261   1030000500030000   598320001003000015172200010MAX ENERGY             PTN           MMR11007200513350022610720000000000000000   10300001 00104100000000000780000000000000     
100   62443100384660050000000000050000000000050000002000000010410407200858230083225086390720220108008322   1030000600030000   554100000722315799420000304DENKO MDY - 62         MANDALAY      MMR11007200858230083220720000000000000000   10300001 00104100000000006000000000000000     
100   95030305234413920000000000013278000000013278002000000010410407200612240031404773800720220112003140   1030000500030000   531120226305000045311202263OCEAN SUPER CENTER STJ PTN           MMR11007200612240031400720000000000000000   10300001 00104100000000000797000000000000     
100   62911028202503210000000000013000000000013000002000000010410407201336490024114773800720220120002411   1030000500030000   598320001402000015172200014MAX ENERGY             PTN           MMR11007201336490024110720000000000000000   10300001 00104100000000000390000000000000     
100   62443100371022130000000000016483000000016483002000000010410407201111440354077043600720220111035407   1030000600030000   554100002085315799420000471DENKO BAHAN            YANGON        MMR11007201111440354070720000000000000000   10300001 00104100000000001978000000000000     
100   62911028202556760000000000030000000000030000002000000010410407200757040575584773800720220107057558   1030000600030000   554100000969315799420000481DENKO NORTH OKKALAPA   YANGON        MMR11007200757040575580720000000000000000   10300001 00104100000000000900000000000000     
100   95030346130941600000000000045129000000045129002000000010410407201223370031714773800720220118003171   1030000500030000   541120226806000045411202268CITY MART WAIZAYANDA   PTN           MMR11007201223370031710720000000000000000   10300001 00104100000000002708000000000000     
100   62911028202540670000000000032000000000032000002000000010410407200524030242694773800720220105024269   1030000600030000   554100001212315799420000664DENKO TA TAR OO        TA TAR OO     MMR11007200524030242690720000000000000000   10300001 00104100000000000960000000000000     
100   95050317338786370000000000003000000000003000002000000010410407210858412841920725610721000007522375   1030000200030000   3334000100012031040000040102C2P (Myanmar) Co. Ltd Yangon        MMR11007210858412841920721000000000000000   10300001F05104100000000000630000000000000     
100   95050319161596230000000000000990000000000990002000000010410407211100163016559806620721000007523014   1020000200030000   333400010001204104000000281Myanmar Soft-Gate Tech Yangon        MMR11007211100163016550721000000000000000   10300001F05104100000000000208000000000000     
100   95030303100034700000000000023550000000023550002000000010410407210719154143844773800721051491315201   1030000900030000   541119001207190110000000948City Mart YK C 5       YANGONAUNG    MMR11007210719154143840721000000000000000   10300001F00104100000000001413000000000000     
100   62443100340648380000000000050000000000050000002000000010410407210156152615313412040721000007519135   1030000200030000   333800010001203104000003327KBZPay                 Yangon        MMR11007210156152615310721000000000000000   10300001F05104100000000010500000000000000     
100   62911028202527490000000000031000000000031000002000000010410407210547354118714773800721808171235201   1030000900030000   554119001101190110000000213New Day Energy SOK     YANGONOKKALAP MMR11007210547354118710721000000000000000   10300001F00104100000000000930000000000000     
100   95050310427855490000000000004950000000004950002000000010410407210848441844002973760721000007522305   1020000200030000   333400010001204104000000281Myanmar Soft-Gate Tech Yangon        MMR11007210848441844000721000000000000000   10300001F05104100000000001040000000000000     
100   95050325455962190000000000002970000000002970002000000010410407210209053905504894330721000007519185   1020000200030000   333400010001204104000000281Myanmar Soft-Gate Tech Yangon        MMR11007210209053905500721000000000000000   10300001F05104100000000000624000000000000     
100   95050314302558730000000000005940000000005940002000000010410407210451262126825499070721000007520425   1020000200030000   333400010001204104000000281Myanmar Soft-Gate Tech Yangon        MMR11007210451262126820721000000000000000   10300001F05104100000000001247000000000000     
100   62911028202151910000000000134300000000134300002000000010410407200901530024424773800720220115002442   1030000500030000   531120226314000045311202263OCEAN SUPER CENTER STJ PTN           MMR11007200901530024420720000000000000000   10300001 00104100000000008058000000000000     
100   62911028202231380000000000056000000000056000002000000010410407201128220034284773800720220117003428   1030000500030000   598320001902000015172200019MAX ENERGY             PTN           MMR11007201128220034280720000000000000000   10300001 00104100000000001680000000000000     
100   62443100398129000000000000043000000000043000002000000010410407200925131002094674690720220109100209   1030000600030000   554100000946315799420000471DENKO BAHAN            YANGON        MMR11007200925131002090720000000000000000   10300001 00104100000000005160000000000000     
100   62911028202689350000000000068000000000068000002000000010410407200720267259164773800720220114725916   1040001600030000   598320001458000000010001152360 Petro (Ba Htoo)    Ygn           MMR11007200720267259160720000000000000000   10300001F00104100000000002040000000000000     
100   62911028202416760000000000030000000000030000002000000010410407200741447270154773800720220114727015   1040001600030000   598320001127000000010000608Terminal Petrol Statio Yangon        MMR11007200741447270150720000000000000000   10300001F00104100000000000900000000000000     
100   62911028202537390000000000021000000000021000002000000010410407200650027243934773800720220113724393   1040001600030000   598320001062000000010000782Yangon Petrol (South/N Ygn           MMR11007200650027243930720000000000000000   10300001F00104100000000000630000000000000     
100   95030305234413920000000000005100000000005100002000000010410407190653400022084773800719220006002208   1030000600030000   806200002190315799420001535ASIA ROYAL HOSPITAL    YANGON        MMR11007190653400022080719000000000000000   10300001 00104100000000000306000000000000     
100   62443100357321690000000000096354000000096354002000000010410407191330410002689099700719220013000268   1030000600030000   5499000022323157994200015681 STOP S M PHOE SEIN   YANGON        MMR11007191330410002680719000000000000000   10300001 00104100000000040951000000000000     
100   95030306100096490000000000003960000000003960002000000010410407210708313831864773800721000007521539   1020000200030000   333400010001204104000000281Myanmar Soft-Gate Tech Yangon        MMR11007210708313831860721000000000000000   10300001F05104100000000000832000000000000     
100   95050319161596230000000000000990000000000990002000000010410407210904303430102292990721000007522416   1020000200030000   333400010001204104000000281Myanmar Soft-Gate Tech Yangon        MMR11007210904303430100721000000000000000   10300001F05104100000000000208000000000000     
100   95050313817486860000000000001980000000001980002000000010410407210457042704830371430721000007520472   1020000200030000   333400010001204104000000281Myanmar Soft-Gate Tech Yangon        MMR11007210457042704830721000000000000000   10300001F05104100000000000416000000000000     
100   95050311736839760000000000000990000000000990002000000010410407211304483448172932390721000007523484   1020000200030000   333400010001204104000000281Myanmar Soft-Gate Tech Yangon        MMR11007211304483448170721000000000000000   10300001F05104100000000000208000000000000     
100   62911028202466670000000000027600000000027600002000000010410407210208404064374773800721260380840201   1030000900030000   591219000504190110000000351Shwe Ohh Pharmacy - (Y YANGONAW      MMR11007210208404064370721000000000000000   10300001F00104100000000001656000000000000     
100   95030399304534290000000000020000000000020000002000000010410407210229424068204773800721408590842201   1030000900030000   541119001207190110000000948City Mart YK C 5       YANGONAUNG    MMR11007210229424068200721000000000000000   10300001F00104100000000001200000000000000     
100   95050325455962190000000000014850000000014850002000000010410407210206573657171674450721000007519174   1020000200030000   333400010001204104000000281Myanmar Soft-Gate Tech Yangon        MMR11007210206573657170721000000000000000   10300001F05104100000000003119000000000000     
100   62911028202809060000000000300000000000300000002000000010410407211055362536864773800721000007522994   1030000200030000   333800010001203104000003327KBZPay                 Yangon        MMR11007211055362536860721000000000000000   10300001F05104100000000063000000000000000     
100   95050316601084530000000000000990000000000990002000000010410407210926205620885266560721000007522530   1020000200030000   333400010001204104000000281Myanmar Soft-Gate Tech Yangon        MMR11007210926205620880721000000000000000   10300001F05104100000000000208000000000000     
100   95050310608512070000000000025970000000025970002000000010410407210833184164676448920721118031518201   1030000900030000   541119000124190110000000080Sein Gay Har BAK       YANGONADA     MMR11007210833184164670721000000000000000   10300001F00104100000000006493000000000000     
100   62443100300743690000000000006750000000006750002000000010410407211137284220118033380721118071828201   1030000900030000   541119000120190110000000080Sein Gay Har BAK       YANGONADA     MMR11007211137284220110721000000000000000   10300001F00104100000000001688000000000000     
100   62911028202809060000000000300000000000300000002000000010410407210316514651234773800721000007519562   1030000200030000   333800010001203104000003327KBZPay                 Yangon        MMR11007210316514651230721000000000000000   10300001F05104100000000063000000000000000     
100   62443100306045460000000000026850000000026850002000000010410407211242004237551030330721093121900201   1030000900030000   541119001259190110000000958City Mart PLST C 2     YANGONMYOTHIT MMR11007211242004237550721000000000000000   10300001F00104100000000006713000000000000     
100   95050328275983620000000000269800000000269800002000000010410407211150574223840860140721321201857201   1030000900030000   541119001331190110000000971Ocean Junction NPT C 9 NAYPYITAW     MMR11007211150574223840721000000000000000   10300001F00104100000000067450000000000000     
100   95050321798808970000000000015000000000015000002000000010410407210339500950186837760721000007519758   1030000200030000   333800010001203104000003327KBZPay                 Yangon        MMR11007210339500950180721000000000000000   10300001F05104100000000003150000000000000     
100   95030312100077850000000000020700000000020700002000000010410407211830440111664773800721000750501746   1030000200030000   541188001310000008000000325KBZ BANK               CITY MART - A MMR11007211830440111660721000000000000000   10300001 00104100000000001242000000000000     
100   62443100392426520000000000010000000000010000002000000010410407211202323232548530160721000007523283   1030000200030000   333800010001203104000003327KBZPay                 Yangon        MMR11007211202323232540721000000000000000   10300001F05104100000000002100000000000000     
100   62911028202809060000000000200000000000200000002000000010410407211058262826114773800721000007523008   1030000200030000   333800010001203104000003327KBZPay                 Yangon        MMR11007211058262826110721000000000000000   10300001F05104100000000042000000000000000     
100   95050315701710960000000000002970000000002970002000000010410407211453202320867804750721000007523887   1020000200030000   333400010001204104000000281Myanmar Soft-Gate Tech Yangon        MMR11007211453202320860721000000000000000   10300001F05104100000000000624000000000000     
100   95050325139996190000000000093600000000093600002000000010410407210549091909069874640721000007520866   1030000200030000   333300010001203104000003632Myanmar Tradenet Test  Yangon        MMR11007210549091909060721000000000000000   10300001F05104100000000010000000000000000     
100   95050319938772870000000000002970000000002970002000000010410407211609183918114840160721000007524105   1020000200030000   333400010001204104000000281Myanmar Soft-Gate Tech Yangon        MMR11007211609183918110721000000000000000   10300001F05104100000000000624000000000000     
100   95050315701710960000000000000990000000000990002000000010410407211052072207006756920721000007522971   1020000200030000   333400010001204104000000281Myanmar Soft-Gate Tech Yangon        MMR11007211052072207000721000000000000000   10300001F05104100000000000208000000000000     
100   95050312695033440000000000006930000000006930002000000010410407210256392639627178140721000007519397   1020000200030000   333400010001204104000000281Myanmar Soft-Gate Tech Yangon        MMR11007210256392639620721000000000000000   10300001F05104100000000001455000000000000     
100   95050315615561720000000000000990000000000990002000000010410407210902073207950640510721000007522400   1020000200030000   333400010001204104000000281Myanmar Soft-Gate Tech Yangon        MMR11007210902073207950721000000000000000   10300001F05104100000000000208000000000000     
100   95050313817486860000000000000990000000000990002000000010410407210503283328168974230721000007520530   1020000200030000   333400010001204104000000281Myanmar Soft-Gate Tech Yangon        MMR11007210503283328160721000000000000000   10300001F05104100000000000208000000000000     
100   62911028202809060000000000200000000000200000002000000010410407210507293729864773800721000007520566   1030000200030000   333800010001203104000003327KBZPay                 Yangon        MMR11007210507293729860721000000000000000   10300001F05104100000000042000000000000000     
100   62911028202462200000000000135450000000135450002000000010410407210418544094734773800721637481054201   1030000900030000   591219000608190110000000448Shwe Ohh Pharmacy St-2 YANGON        MMR11007210418544094730721000000000000000   10300001F00104100000000008127000000000000     
100   95030303100034700000000000032200000000032200002000000010410407210721444144544773800721086511344201   1030000900030000   541119001207190110000000948City Mart YK C 5       YANGONAUNG    MMR11007210721444144540721000000000000000   10300001F00104100000000001932000000000000     
100   62911028202451150000000000057014000000057014002000000010410407210823184161904773800721981531418201   1030000900030000   541119001152190110000000930OCEAN HTY C 2          YANGONTHARYA  MMR11007210823184161900721000000000000000   10300001F00104100000000003421000000000000     
100   95050312498129060000000000000990000000000990002000000010410407211216214621356072880721000007523320   1020000200030000   333400010001204104000000281Myanmar Soft-Gate Tech Yangon        MMR11007211216214621350721000000000000000   10300001F05104100000000000208000000000000     
100   62911028202464020000000000004700000000004700002000000010410407210936148072254773800721220216807225   1040001600030000   591220000276000000010000264Shwe Ohh Pharmacy (YGH Yangon        MMR11007210936148072250721000000000000000   10300001F00104100000000000282000000000000     
100   95050319938772870000000000005000000000005000002000000010410407211212374237761579860721000007523314   1030000200030000   333800010001203104000003327KBZPay                 Yangon        MMR11007211212374237760721000000000000000   10300001F05104100000000001050000000000000     
100   95030310098554020000000000030000000000030000002000000010410407210208257814414773800721220209781441   1040001600030000   591220000043000000010000041Mingalar Pharmacy      Yangon        MMR11007210208257814410721000000000000000   10300001F00104100000000001800000000000000     
100   95030357919784470000000000171350000000171350002000000010410407210926358065364773800721220216806536   1040001600030000   591220000302000000010000290Shwe Ohh Pharmacy (Nor Yangon        MMR11007210926358065360721000000000000000   10300001F00104100000000010281000000000000     
100   95050312498129060000000000000990000000000990002000000010410407211218504850387725370721000007523325   1020000200030000   333400010001204104000000281Myanmar Soft-Gate Tech Yangon        MMR11007211218504850380721000000000000000   10300001F05104100000000000208000000000000     
100   62911028202024130000000000000990000000000990002000000010410407210729505950274773800721000007521794   1020000200030000   333400010001204104000000281Myanmar Soft-Gate Tech Yangon        MMR11007210729505950270721000000000000000   10300001F05104100000000000208000000000000     
100   95050317043153610000000000007100000000007100002000000010410407211128514217601934050721982581751201   1030000900030000   541119001372190110000000978Ocean PZD Season C 2   YANGONAUNG    MMR11007211128514217600721000000000000000   10300001F00104100000000001775000000000000     
100   62911028202214130000000000255500000000255500002000000010410407211104454210334773800721564341745201   1030000900030000   599919001138190110000000918Lucky Man Uwisarya     YANGONUT      MMR11007211104454210330721000000000000000   10300001F00104100000000015330000000000000     
100   62911028202057620000000000043000000000043000002000000010410407210729265926524773800721000007521787   1030000200030000   333800010001203104000003327KBZPay                 Yangon        MMR11007210729265926520721000000000000000   10300001F05104100000000009030000000000000     
100   95050320205194540000000000124700000000124700002000000010410407211129014217698458840721988591701201   1030000900030000   591219000899190110000000708Shwe Ohh Pharmacy St 3 YANGONONE     MMR11007211129014217690721000000000000000   10300001F00104100000000029928000000000000     
100   95030310098554020000000000083000000000083000002000000010410407210501047905114773800721220212790511   1040001600030000   591220000043000000010000041Mingalar Pharmacy      Yangon        MMR11007210501047905110721000000000000000   10300001F00104100000000004980000000000000     
100   95030317922148660000000000022000000000022000002000000010410407210748354151764773800721446181435201   1030000900030000   554119000348190110000000215New Day Energy MYG     YANGONONE     MMR11007210748354151760721000000000000000   10300001F00104100000000000660000000000000     
100   95050310608512070000000000009500000000009500002000000010410407210827414163146108540721042571441201   1030000900030000   541119000122190110000000080Sein Gay Har BAK       YANGONADA     MMR11007210827414163140721000000000000000   10300001F00104100000000002375000000000000     
100   95030301100319290000000000004950000000004950002000000010410407210515084508184773800721000007520617   1020000200030000   333400010001204104000000281Myanmar Soft-Gate Tech Yangon        MMR11007210515084508180721000000000000000   10300001F05104100000000001040000000000000     
100   62911028202871900000000000678000000000678000002000000010410407210838238084114773800721082383244006   1040001400030000   481210000485034812100005739Anycall Mobile null My nmar Chanayet MMR11007210838238084110721000000000000000   10300001 00104100000000040680000000000000     
100   62911028202154800000000000044000000000044000002000000010410407210739414149434773800721334091441201   1030000900030000   554119000348190110000000215New Day Energy MYG     YANGONONE     MMR11007210739414149430721000000000000000   10300001F00104100000000001320000000000000     
100   95050322990383760000000000057980000000057980002000000010410407211007064190090940470721387371606201   1030000900030000   541119000112190110000000077Sein Gay Har Chinatown YANGON        MMR11007211007064190090721000000000000000   10300001F00104100000000014495000000000000     
100   62911028202400660000000000075000000000075000002000000010410407210335487859064773800721220210785906   1040001600030000   598320000854000000010000608Terminal Petrol Statio Yangon        MMR11007210335487859060721000000000000000   10300001F00104100000000002250000000000000     
100   62911028202611530000000000055900000000055900002000000010410407210508287909724773800721220212790972   1040001600030000   591220000269000000010000257Shwe Ohh Pharmacy (Tam Yangon        MMR11007210508287909720721000000000000000   10300001F00104100000000003354000000000000     
100   62911028202419650000000000010600000000010600002000000010410407211109188161524773800721220218816152   1040001600030000   591220000043000000010000041Mingalar Pharmacy      Yangon        MMR11007211109188161520721000000000000000   10300001F00104100000000000636000000000000     
100   62911028202446540000000000055300000000055300002000000010410407210819364160814773800721927491436201   1030000900030000   591219000608190110000000448Shwe Ohh Pharmacy St-2 YANGON        MMR11007210819364160810721000000000000000   10300001F00104100000000003318000000000000     
100   95050327416134790000000000001980000000001980002000000010410407211313224322007974940721000007523514   1020000200030000   333400010001204104000000281Myanmar Soft-Gate Tech Yangon        MMR11007211313224322000721000000000000000   10300001F05104100000000000416000000000000     
100   95050314401921990000000000000990000000000990002000000010410407211022035203013139170721000007522803   1020000200030000   333400010001204104000000281Myanmar Soft-Gate Tech Yangon        MMR11007211022035203010721000000000000000   10300001F05104100000000000208000000000000     
100   95050319161596230000000000000990000000000990002000000010410407210828525852297846120721000007522189   1020000200030000   333400010001204104000000281Myanmar Soft-Gate Tech Yangon        MMR11007210828525852290721000000000000000   10300001F05104100000000000208000000000000     
100   95050310685238570000000000012750000000012750002000000010410407211045096860404132750721150928414715   1040001400030000   555610000613025556100003510119 Store null No-119  Anawrahta Roa MMR11007211045096860400721000000000000000   10300001 00104100000000003188000000000000     
100   62911028202464440000000000019100000000019100002000000010410407210825588028764773800721220215802876   1040001600030000   591220000296000000010000284Shwe Ohh Pharmacy (Lan Yangon        MMR11007210825588028760721000000000000000   10300001F00104100000000001146000000000000     
100   62911028202451150000000000002400000000002400002000000010410407210728524146394773800721180581352201   1030000900030000   541119001172190110000000931OCEAN HTY SEASON C 1   YANGONTHARYA  MMR11007210728524146390721000000000000000   10300001F00104100000000000144000000000000     
100   95050317043153610000000000005100000000005100002000000010410407211155254225095817600721395251825201   1030000900030000   541119001358190110000000977Ocean PZD C 12         YANGONAUNG    MMR11007211155254225090721000000000000000   10300001F00104100000000001275000000000000     
100   95050314307746340000000000000990000000000990002000000010410407211418224822052847300721000007523757   1020000200030000   333400010001204104000000281Myanmar Soft-Gate Tech Yangon        MMR11007211418224822050721000000000000000   10300001F05104100000000000208000000000000     
100   95050319156011610000000000000990000000000990002000000010410407211022485248689664000721000007522806   1020000200030000   333400010001204104000000281Myanmar Soft-Gate Tech Yangon        MMR11007211022485248680721000000000000000   10300001F05104100000000000208000000000000     
100   62911028202611530000000000058800000000058800002000000010410407210905168051314773800721220216805131   1040001600030000   591220000276000000010000264Shwe Ohh Pharmacy (YGH Yangon        MMR11007210905168051310721000000000000000   10300001F00104100000000003528000000000000     
100   95050319161596230000000000000990000000000990002000000010410407210826245624731236180721000007522172   1020000200030000   333400010001204104000000281Myanmar Soft-Gate Tech Yangon        MMR11007210826245624730721000000000000000   10300001F05104100000000000208000000000000     
100   95050319156011610000000000000990000000000990002000000010410407211027365736656614340721000007522827   1020000200030000   333400010001204104000000281Myanmar Soft-Gate Tech Yangon        MMR11007211027365736650721000000000000000   10300001F05104100000000000208000000000000     
100   62911028202464020000000000014200000000014200002000000010410407210800208013814773800721220215801381   1040001600030000   591220001007000000010000737Shwe Ohh Pharmacy (Tan Ygn           MMR11007210800208013810721000000000000000   10300001F00104100000000000852000000000000     
100   62911028202446540000000000010300000000010300002000000010410407210821104161274773800721947511410201   1030000900030000   591219000608190110000000448Shwe Ohh Pharmacy St-2 YANGON        MMR11007210821104161270721000000000000000   10300001F00104100000000000618000000000000     
100   95050319161596230000000000002970000000002970002000000010410407210822495249340094270721000007522151   1020000200030000   333400010001204104000000281Myanmar Soft-Gate Tech Yangon        MMR11007210822495249340721000000000000000   10300001F05104100000000000624000000000000     
100   95050314307746340000000000000990000000000990002000000010410407211425295529271109720721000007523774   1020000200030000   333400010001204104000000281Myanmar Soft-Gate Tech Yangon        MMR11007211425295529270721000000000000000   10300001F05104100000000000208000000000000     
100   95030346645639490000000000026450000000026450002000000010410407210534107928044773800721220212792804   1040001600030000   591220000258000000010000246Shwe Ohh Pharmacy (Sin Yangon        MMR11007210534107928040721000000000000000   10300001F00104100000000001587000000000000     
100   62911028202307860000000000022000000000022000002000000010410407210929314179614773800721865591531201   1030000900030000   541119000158190110000000084Pro (1) Global (Pazund YANGONARTAUNG MMR11007210929314179610721000000000000000   10300001F00104100000000001320000000000000     
100   62911028202690080000000000075000000000075000002000000010410407210947224184364773800721109171622201   1030000900030000   541119001079190110000000872Sein Gay Har Hledan    YANGONUT      MMR11007210947224184360721000000000000000   10300001F00104100000000004500000000000000     
100   95050315344668630000000000008200000000008200002000000010410407211049404205373707250721282191740201   1030000900030000   541119001462190110000000077Sein Gay Har Chinatown YANGON        MMR11007211049404205370721000000000000000   10300001F00104100000000002050000000000000     
100   95030310098554020000000000058300000000058300002000000010410407210204017811954773800721220209781195   1040001600030000   591220000043000000010000041Mingalar Pharmacy      Yangon        MMR11007210204017811950721000000000000000   10300001F00104100000000003498000000000000     
100   62443100321407540000000000900000000000900000002000000010410407151657540000412130240715000750179367   1030000200030000   829988000268000008000002248KBZ BANK               MATRIX STRATE MMR11007151657540000410715000000000000000   10300001 00104100000000216000000000000000     
100   62911028202470870000000000019800000000019800002000000010410407190744500048654773800719220007004865   1030000600030000   581200001876315799420001246BLACK CANYON JC        PABEDAN       MMR11007190744500048650719000000000000000   10300001 00104100000000002020000000000000     
100   62911028202491410000000000031500000000031500002000000010410407190428440047344773800719220004004734   1030000600030000   809900000542315799420000147GRAND HANTHA HOSPITAL  YANGON        MMR11007190428440047340719000000000000000   10300001 00104100000000001890000000000000     
100   95030305700676370000000000030000000000030000002000000010410407191000420083544773800719220010008354   1030000600030000   554100002141315799420001490DENKO MEIKHTILA 3      MANDALAY      MMR11007191000420083540719000000000000000   10300001 00104100000000000900000000000000     
100   95030305700676370000000000050000000000050000002000000010410407191219070055064773800719220012005506   1030000600030000   554100001258315799420000712DENKO PA LATE          PA LATE       MMR11007191219070055060719000000000000000   10300001 00104100000000001500000000000000     
100   95030305234413920000000000035000000000035000002000000010410407190554400072314773800719220005007231   1030000600030000   806200002188315799420001535ASIA ROYAL HOSPITAL    YANGON        MMR11007190554400072310719000000000000000   10300001 00104100000000002100000000000000     
100   95050320093758110000000000020000000000020000002000000010410407190928060089318709870719220009008931   1030000600030000   554100002139315799420001488DENKO MDY-12           MANDALAY      MMR11007190928060089310719000000000000000   10300001 00104100000000002400000000000000     
100   62443100327902100000000000096100000000096100002000000010410407190200340222728339550719220002022272   1030000600030000   809900000537315799420000147GRAND HANTHA HOSPITAL  YANGON        MMR11007190200340222720719000000000000000   10300001 00104100000000023064000000000000     
100   62911028202446620000000000043000000000043000002000000010410407211149488206314773800721220218820631   1040001600030000   591220000274000000010000262Shwe Ohh Pharmacy (Shw Yangon        MMR11007211149488206310721000000000000000   10300001F00104100000000002580000000000000     
100   62911028202099050000000000047500000000047500002000000010410407210725514145594773800721136551351201   1030000900030000   563119000646190110000000477Monster Fashion Access YANGONUT      MMR11007210725514145590721000000000000000   10300001F00104100000000002850000000000000     
100   62911028202331290000000000040900000000040900002000000010410407211025304195944773800721707551630201   1030000900030000   591219000969190110000000776Shwe Ohh Pharmacy St ( YANGONADA     MMR11007211025304195940721000000000000000   10300001F00104100000000002454000000000000     
100   62911028202464020000000000011250000000011250002000000010410407211013528102394773800721220217810239   1040001600030000   592120001317000000010001022VCARE Pharmacy         Ygn           MMR11007211013528102390721000000000000000   10300001F00104100000000000675000000000000     
100   62911028202451150000000000027300000000027300002000000010410407210833474164754773800721124031547201   1030000900030000   541119001154190110000000930OCEAN HTY C 4          YANGONTHARYA  MMR11007210833474164750721000000000000000   10300001F00104100000000001638000000000000     
100   95030306100096490000000000000990000000000990002000000010410407211329185918884773800721000007523568   1020000200030000   333400010001204104000000281Myanmar Soft-Gate Tech Yangon        MMR11007211329185918880721000000000000000   10300001F05104100000000000208000000000000     
100   95030357919784470000000000162700000000162700002000000010410407210953174186294773800721203231617201   1030000900030000   591219000796190110000000628Shwe Ohh Pharmacy ST-3 YANGONMYOTHIT MMR11007210953174186290721000000000000000   10300001F00104100000000009762000000000000     
100   95050317376014640000000000001980000000001980002000000010410407211125395539002784980721000007523125   1020000200030000   333400010001204104000000281Myanmar Soft-Gate Tech Yangon        MMR11007211125395539000721000000000000000   10300001F05104100000000000416000000000000     
100   62911028202790980000000001000000000001000000002000000010410407211352030000914773800721000750505109   1030000200030000   481288001529000008000004974KBZ BANK               YOUNIQUE INFO MMR11007211352030000910721000000000000000   10300001 00104100000000060000000000000000     
100   62911028202790980000000001000000000001000000002000000010410407211351100000894773800721000750505093   1030000200030000   481288001529000008000004974KBZ BANK               YOUNIQUE INFO MMR11007211351100000890721000000000000000   10300001 00104100000000060000000000000000     
100   62911028202790980000000001000000000001000000002000000010410407211351410000904773800721000750505104   1030000200030000   481288001529000008000004974KBZ BANK               YOUNIQUE INFO MMR11007211351410000900721000000000000000   10300001 00104100000000060000000000000000     
100   62911028202756820000000000059681000000059681002000000010410407211240180022744773800721000750474131   1030000200030000   541188001484000008000000399KBZ BANK               OCEAN SUPERCE MMR11007211240180022740721000000000000000   10300001 00104100000000003581000000000000     
100   95030310100002200000000000031200000000031200002000000010410407211619280016804773800721000750494460   1030000200030000   541188001337000008000000327KBZ BANK               CITY MART - S MMR11007211619280016800721000000000000000   10300001 00104100000000001872000000000000     
100   95050318131043910000000000020500000000020500002000000010410407210418020003175293220721000750461943   1030000200030000   541188002338000008000006213KBZ BANK               BEAR MART-1   MMR11007210418020003170721000000000000000   10300001 00104100000000005125000000000000     
100   62911028202790980000000001000000000001000000002000000010410407211350230000874773800721000750505084   1030000200030000   481288001529000008000004974KBZ BANK               YOUNIQUE INFO MMR11007211350230000870721000000000000000   10300001 00104100000000060000000000000000     
100   95030393174848800000000000050900000000050900002000000010410407210614010004964773800721000750474552   1030000200030000   591288002327000008000006195KBZ BANK               ORCHID (TKT-2 MMR11007210614010004960721000000000000000   10300001 00104100000000003054000000000000     
100   62911028202464020000000000006150000000006150002000000010410407210813468021654773800721220215802165   1040001600030000   592120001317000000010001022VCARE Pharmacy         Ygn           MMR11007210813468021650721000000000000000   10300001F00104100000000000369000000000000     
100   62911028202232860000000000042199000000042199002000000010410407201001350031644773800720220116003164   1030000500030000   531120226305000045311202263OCEAN SUPER CENTER STJ PTN           MMR11007201001350031640720000000000000000   10300001 00104100000000002532000000000000     
100   95050321232876860000000000051000000000051000002000000010410407201022000242887554180720220110024288   1030000600030000   554100001212315799420000664DENKO TA TAR OO        TA TAR OO     MMR11007201022000242880720000000000000000   10300001 00104100000000006120000000000000     
100   95050310332595380000000000000990000000000990002000000010410407211607373737719457230721000007524102   1020000200030000   333400010001204104000000281Myanmar Soft-Gate Tech Yangon        MMR11007211607373737710721000000000000000   10300001F05104100000000000208000000000000     
100   95050321232876860000000000087000000000087000002000000010410407191007230424903425830719220010042490   1030000600030000   554100001865315799420001235DENKO NAY PYI TAW 2    NAYPYITAW     MMR11007191007230424900719000000000000000   10300001 00104100000000010440000000000000     
100   62911028202470870000000000025150000000025150002000000010410407200530390021884773800720220112002188   1030000500030000   541120203706000015411202037CITY MART SUPERMARKET  PTN           MMR11007200530390021880720000000000000000   10300001 00104100000000001509000000000000     
100   95050320559934420000000000013200000000013200002000000010410407200457140002257205720720220111000225   1030000500030000   541120230004000045411202300MARKET PLACE BY CITY M PTN           MMR11007200457140002250720000000000000000   10300001 00104100000000003300000000000000     
100   62911028202103410000000000037140000000037140002000000010410407200652450353244773800720220106035324   1030000600030000   554100002085315799420000471DENKO BAHAN            YANGON        MMR11007200652450353240720000000000000000   10300001 00104100000000001114000000000000     
100   62911028202790980000000001000000000001000000002000000010410407211350450000884773800721000750505087   1030000200030000   481288001529000008000004974KBZ BANK               YOUNIQUE INFO MMR11007211350450000880721000000000000000   10300001 00104100000000060000000000000000     
100   95050311419479170000000000001980000000001980002000000010410407210147351735331334070721000007519105   1020000200030000   333400010001204104000000281Myanmar Soft-Gate Tech Yangon        MMR11007210147351735330721000000000000000   10300001F05104100000000000416000000000000     
100   95050310427855490000000000001980000000001980002000000010410407211142571257024558220721000007523204   1020000200030000   333400010001204104000000281Myanmar Soft-Gate Tech Yangon        MMR11007211142571257020721000000000000000   10300001F05104100000000000416000000000000     
100   95050315752234130000000000050950000000050950002000000010410407211144220051203690190721000750467723   1030000200030000   541188001463000008000000391KBZ BANK               OCEAN SUPER C MMR11007211144220051200721000000000000000   10300001 00104100000000012738000000000000     
100   95030305700676370000000000056000000000056000002000000010410407210909310051204773800721000750491455   1030000200030000   598388001833000008000005310KBZ BANK               BOC (138 MILE MMR11007210909310051200721000000000000000   10300001 00104100000000001680000000000000     
100   95050314557307430000000000000990000000000990002000000010410407210841381138953058860721000007522268   1020000200030000   333400010001204104000000281Myanmar Soft-Gate Tech Yangon        MMR11007210841381138950721000000000000000   10300001F05104100000000000208000000000000     
100   95030301100124400000000000020500000000020500002000000010410407211016240050424773800721000750496055   1030000200030000   591288000181000008000002044KBZ BANK               PINLON PHARMA MMR11007211016240050420721000000000000000   10300001 00104100000000001230000000000000     
100   95050312695033440000000000001980000000001980002000000010410407210933290329828670460721000007522566   1020000200030000   333400010001204104000000281Myanmar Soft-Gate Tech Yangon        MMR11007210933290329820721000000000000000   10300001F05104100000000000416000000000000     
100   95030308100042590000000000081349000000081349002000000010410407201227540014174773800720220118001417   1030000500030000   598320001704000015172200017MAX ENERGY             PTN           MMR11007201227540014170720000000000000000   10300001 00104100000000002441000000000000     
100   95030381424182120000000000149750000000149750002000000010410407211314598293804773800721220220829380   1040001600030000   541120000553000000010000465Ocean Shwe Gone Daing  Yangon        MMR11007211314598293800721000000000000000   10300001F00104100000000008985000000000000     
100   95030301100126550000000000032000000000032000002000000010410407201037570240304773800720220110024030   1030000600030000   554100002323315799420000474DENKO N.DAGON - 1      YANGON        MMR11007201037570240300720000000000000000   10300001 00104100000000000960000000000000     
100   62911028202151340000000000020000000000020000002000000010410407201100050018824773800720220117001882   1030000500030000   598320001203000015172200012MAX ENERGY             PTN           MMR11007201100050018820720000000000000000   10300001 00104100000000000600000000000000     
100   62911028202520380000000000026000000000026000002000000010410407200630140022274773800720220113002227   1030000500030000   598320001202000015172200012MAX ENERGY             PTN           MMR11007200630140022270720000000000000000   10300001 00104100000000000780000000000000     
100   62443100303702210000000000081005000000081005002000000010410407201024530001375816600720220110000137   1030000600030000   554100002325315799420000504DENKO SOUTH DAGON      YANGON        MMR11007201024530001370720000000000000000   10300001 00104100000000009721000000000000     
100   62443100303702210000000000108000000000108000002000000010410407201100330001392086150720220111000139   1030000600030000   554100002325315799420000504DENKO SOUTH DAGON      YANGON        MMR11007201100330001390720000000000000000   10300001 00104100000000012960000000000000     
100   62911028202197630000000000005500000000005500002000000010410407201025370009264773800720220116000926   1030000500030000   598320001701000015172200017MAX ENERGY             PTN           MMR11007201025370009260720000000000000000   10300001 00104100000000000165000000000000     
100   95050313497815710000000000005000000000005000002000000010410407210742231223541746760721000007521875   1030000200030000   333800010001203104000003327KBZPay                 Yangon        MMR11007210742231223540721000000000000000   10300001F05104100000000001050000000000000     
100   95030306100096490000000000000990000000000990002000000010410407211232060206044773800721000007523362   1020000200030000   333400010001204104000000281Myanmar Soft-Gate Tech Yangon        MMR11007211232060206040721000000000000000   10300001F05104100000000000208000000000000     
100   95050311121153200000000000005000000000005000002000000010410407211037010701756188870721000007522885   1030000200030000   3338000100012031040000040022C2P (Myanmar) Co. Ltd Yangon        MMR11007211037010701750721000000000000000   10300001F05104100000000001050000000000000     
100   62911028202161240000000000003441000000003441002000000010410407210947110061484773800721000750456671   1030000200030000   541188001021000008000000298KBZ BANK               CITY MART - M MMR11007210947110061480721000000000000000   10300001 00104100000000000207000000000000     
100   95050316067768680000000000000990000000000990002000000010410407210434470447528172710721000007520271   1020000200030000   333400010001204104000000281Myanmar Soft-Gate Tech Yangon        MMR11007210434470447520721000000000000000   10300001F05104100000000000208000000000000     
100   95050326393773020000000000002970000000002970002000000010410407210935000500468244910721000007522570   1020000200030000   333400010001204104000000281Myanmar Soft-Gate Tech Yangon        MMR11007210935000500460721000000000000000   10300001F05104100000000000624000000000000     
100   95050316067768680000000000001980000000001980002000000010410407210439110911970882010721000007520292   1020000200030000   333400010001204104000000281Myanmar Soft-Gate Tech Yangon        MMR11007210439110911970721000000000000000   10300001F05104100000000000416000000000000     
100   95050316377977350000000000005000000000005000002000000010410407210931180118401365930721000007522548   1040001600030000   333800010001220104000004507A +                    Yangon        MMR11007210931180118400721000000000000000   10300001F05104100000000001050000000000000     
100   95030385550669610000000000008800000000008800002000000010410407201133430016404773800720220118001640   1030000500030000   541120230203000045411202302CITY MART SUPERMARKET  PTN           MMR11007201133430016400720000000000000000   10300001 00104100000000000528000000000000     
100   62443101065883000000000000034506000000034506002000000010410407200401210020859879360720220110002085   1030000500030000   541120227504000045411202275CITY MART (AHLONE BRAN PTN           MMR11007200401210020850720000000000000000   10300001 00104100000000008627000000000000     
100   62911028202129660000000000109300000000109300002000000010410407200755420001054773800720220114000105   1030000500030000   541120129711000045411201297MAKRO MYANMAR          PTN           MMR11007200755420001050720000000000000000   10300001 00104100000000006558000000000000     
100   62911028202464020000000000009350000000009350002000000010410407200927220003214773800720220115000321   1030000500030000   541120203703000015411202037CITY MART SUPERMARKET  PTN           MMR11007200927220003210720000000000000000   10300001 00104100000000000561000000000000     
100   62443101023815100000000000011300000000011300002000000010410407201123220021143653540720220117002114   1030000500030000   541120227504000045411202275CITY MART (AHLONE BRAN PTN           MMR11007201123220021140720000000000000000   10300001 00104100000000002825000000000000     
100   95030308100042590000000000069000000000069000002000000010410407201227220009334773800720220118000933   1030000500030000   598320001701000015172200017MAX ENERGY             PTN           MMR11007201227220009330720000000000000000   10300001 00104100000000002070000000000000     
100   62911028202540670000000000030000000000030000002000000010410407201033100019254773800720220110001925   1030000600030000   554100001214315799420000666DENKO MAGWAY - 1       MAGWAY.       MMR11007201033100019250720000000000000000   10300001 00104100000000000900000000000000     
100   95050328035424750000000000033900000000033900002000000010410407201203400007120603860720220118000712   1030000500030000   531120231211000045311202312OCEAN OATTARA THIRI    PTN           MMR11007201203400007120720000000000000000   10300001 00104100000000008136000000000000     
