100   62911028202441750000000000057600000000057600002000000010410407220802130006994773800722000750549035   1030000200030000   569988000785000008000004550KBZ BANK               JML-ZAXY      MMR11007220802130006990722000000000000000   10300001 00104100000000003456000000000000     
100   95030301988332950000000000045800000000045800002000000010410407221049230019024773800722000750561958   1030000200030000   569988000786000008000004553KBZ BANK               CPT-IPANEMA   MMR11007221049230019020722000000000000000   10300001 00104100000000002748000000000000     
100   95050329213164970000000000004950000000004950002000000010410407221330120012484337660722000007529143   1020000200030000   333400010001204104000000281Myanmar Soft-Gate Tech Yangon        MMR11007221330120012480722000000000000000   10300001F05104100000000001040000000000000     
100   95050323808846050000000000280000000000280000002000000010410407221243200000321543280722000750568114   1030000200030000   541188000640000008000004297KBZ BANK               MAGWAY SHOPPI MMR11007221243200000320722000000000000000   10300001 00104100000000070000000000000000     
100   62443100317500820000000000040000000000040000002000000010410407221030070007882564430722000007528214   1030000200030000   333800010001203104000003327KBZPay                 Yangon        MMR11007221030070007880722000000000000000   10300001F05104100000000008400000000000000     
100   62911028202161240000000000003400000000003400002000000010410407221027350121734773800722000750523627   1030000200030000   541188001033000008000000298KBZ BANK               CITY MART - M MMR11007221027350121730722000000000000000   10300001 00104100000000000204000000000000     
100   95050313072967520000000000030000000000030000002000000010410407221440201020889550400722000007529411   1030000200030000   333800010001203104000003327KBZPay                 Yangon        MMR11007221440201020880722000000000000000   10300001F05104100000000006300000000000000     
100   62911028202610540000000000014700000000014700002000000010410407221326060220384773800722000750541340   1030000200030000   541188001080000008000000294KBZ BANK               CITY MART - J MMR11007221326060220380722000000000000000   10300001 00104100000000000882000000000000     
100   62911028202464020000000000004800000000004800002000000010410407210823260001754773800721220208000175   1030000600030000   591200002215315799420001560365 PHARMACY 3         YANGON        MMR11007210823260001750721000000000000000   10300001 00104100000000000288000000000000     
100   62911028202074950000000000023000000000023000002000000010410407210853090017764773800721220215001776   1030000500030000   598320001601000015172200016MAX ENERGY             PTN           MMR11007210853090017760721000000000000000   10300001 00104100000000000690000000000000     
100   95050312818293620000000000022655000000022655002000000010410407210631520012509534260721220213001250   1030000500030000   531120155802000045311201558GAMONE PWINT           PTN           MMR11007210631520012500721000000000000000   10300001 00104100000000005437000000000000     
100   62443100355445150000000000008650000000008650002000000010410407210323540002058405140721220209000205   1030000500030000   591220013201014405912200132SHWE OHH PHARMACY      PTN           MMR11007210323540002050721000000000000000   10300001 00104100000000002076000000000000     
100   95050314248677090000000000025900000000025900002000000010410407210828370008094979430721000750453361   1030000200030000   541188001288000008000001475KBZ BANK               CITY CARE STA MMR11007210828370008090721000000000000000   10300001 00104100000000006475000000000000     
100   95030308100042590000000000129232000000129232002000000010410407210329100009484773800721220209000948   1030000500030000   598320001701000015172200017MAX ENERGY             PTN           MMR11007210329100009480721000000000000000   10300001 00104100000000003877000000000000     
100   95050319902033540000000000130000000000130000002000000010410407210854020001124030570721220215000112   1030000500030000   591220212901000085912202129GOLDEN BELL PHARMACY   PTN           MMR11007210854020001120721000000000000000   10300001 00104100000000031200000000000000     
100   62443100390038980000000000037056000000037056002000000010410407211335300001679542330721000356705147   1030000300030000   581200001801000000000001289CB BANK                SHWE KAUNG (S MMR11007211335300001670721000000000000000   10300001F00104100000000015749000000000000     
100   95050317003064220000000000000990000000000990002000000010410407220232290229504329590722000007524743   1020000200030000   333400010001204104000000281Myanmar Soft-Gate Tech Yangon        MMR11007220232290229500722000000000000000   10300001F05104100000000000208000000000000     
100   95050316785465380000000000014150000000014150002000000010410407221053390052209166290722000750525844   1030000200030000   541188001465000008000000391KBZ BANK               OCEAN SUPER C MMR11007221053390052200722000000000000000   10300001 00104100000000003538000000000000     
100   62443100330108240000000000001980000000001980002000000010410407221331170117284252570722000007529148   1020000200030000   333400010001204104000000281Myanmar Soft-Gate Tech Yangon        MMR11007221331170117280722000000000000000   10300001F05104100000000000416000000000000     
100   95050312554086980000000000011700000000011700002000000010410407221702240220507521880722000750560866   1030000200030000   541188001080000008000000294KBZ BANK               CITY MART - J MMR11007221702240220500722000000000000000   10300001 00104100000000002925000000000000     
100   95050315615561720000000000000990000000000990002000000010410407221339570957445905050722000007529192   1020000200030000   333400010001204104000000281Myanmar Soft-Gate Tech Yangon        MMR11007221339570957440722000000000000000   10300001F05104100000000000208000000000000     
100   95050318601641810000000000000990000000000990002000000010410407220135080508425811880722000007524596   1020000200030000   333400010001204104000000281Myanmar Soft-Gate Tech Yangon        MMR11007220135080508420722000000000000000   10300001F05104100000000000208000000000000     
100   95050319701366650000000000025000000000025000002000000010410407220630330033543917900722000007526518   1030000200030000   333800010001203104000003327KBZPay                 Yangon        MMR11007220630330033540722000000000000000   10300001F05104100000000005250000000000000     
100   62911028202161240000000000022572000000022572002000000010410407221020470128844773800722000750523000   1030000200030000   541188001022000008000000298KBZ BANK               CITY MART - M MMR11007221020470128840722000000000000000   10300001 00104100000000001354000000000000     
100   95050322990383760000000000001000000000001000002000000010410407210854160004835683050721220215000483   1030000500030000   541120203712000015411202037CITY MART SUPERMARKET  PTN           MMR11007210854160004830721000000000000000   10300001 00104100000000000250000000000000     
100   95050314365758940000000000072000000000072000002000000010410407211224140015352682820721220218001535   1030000500030000   541120203807000015411202038CITY MART SUPERMARKET  PTN           MMR11007211224140015350721000000000000000   10300001 00104100000000018000000000000000     
100   62911028202464020000000000011350000000011350002000000010410407210958430002694773800721220216000269   1030000500030000   591220211101014405912202111SHWE OHH PHARMACY      PTN           MMR11007210958430002690721000000000000000   10300001 00104100000000000681000000000000     
100   95050312818293620000000000004224000000004224002000000010410407210609250003339364060721220212000333   1030000500030000   531120155803000045311201558GAMONE PWINT           PTN           MMR11007210609250003330721000000000000000   10300001 00104100000000001014000000000000     
100   62443100318296470000000001045000000001045000002000000010410407210739370001983314150721220214000198   1030000500030000   503920036603000015039200366PRO-1 HOME CENTER      PTN           MMR11007210739370001980721000000000000000   10300001 00104100000000250800000000000000     
100   62911028202446540000000000022300000000022300002000000010410407211202050002344773800721220218000234   1030000500030000   591220012901014405912200129SHWE OHH PHARMACY      PTN           MMR11007211202050002340721000000000000000   10300001 00104100000000001338000000000000     
100   62911028202703370000000000050000000000050000002000000010410407210955460014744773800721220216001474   1030000500030000   598320001704000015172200017MAX ENERGY             PTN           MMR11007210955460014740721000000000000000   10300001 00104100000000001500000000000000     
100   95030306100078820000000000015382000000015382002000000010410407210651000019814773800721220213001981   1030000500030000   531120226311000045311202263OCEAN SUPER CENTER STJ PTN           MMR11007210651000019810721000000000000000   10300001 00104100000000000923000000000000     
100   62911028202166940000000000045200000000045200002000000010410407221017000202724773800722000750522722   1030000200030000   541188001126000008000000296KBZ BANK               CITY MART - J MMR11007221017000202720722000000000000000   10300001 00104100000000002712000000000000     
100   62911028202472440000000000226274000000226274002000000010410407221117420113634773800722000750528298   1030000200030000   541188001006000008000000008KBZ BANK               MARKETPLACE - MMR11007221117420113630722000000000000000   10300001 00104100000000013576000000000000     
100   95050314463050430000000000300000000000300000002000000010410407220431200120172130880722000007525548   1030000200030000   333800010001203104000003327KBZPay                 Yangon        MMR11007220431200120170722000000000000000   10300001F05104100000000063000000000000000     
100   62443101053241940000000000040919000000040919002000000010410407221511240194837782890722000750552793   1030000200030000   541188001304000008000000325KBZ BANK               CITY MART - A MMR11007221511240194830722000000000000000   10300001 00104100000000010230000000000000     
100   95050313710136610000000000005940000000005940002000000010410407220035390539919712520722000007524480   1020000200030000   333400010001204104000000281Myanmar Soft-Gate Tech Yangon        MMR11007220035390539910722000000000000000   10300001F05104100000000001247000000000000     
100   95050313843656520000000000002970000000002970002000000010410407220335420542553138240722000007525172   1020000200030000   333400010001204104000000281Myanmar Soft-Gate Tech Yangon        MMR11007220335420542550722000000000000000   10300001F05104100000000000624000000000000     
100   62911028202441420000000000009900000000009900002000000010410407221619260027334773800722000750557905   1030000200030000   541188001287000008000000472KBZ BANK               NEIGHBOURHOOD MMR11007221619260027330722000000000000000   10300001 00104100000000000594000000000000     
100   62911028202610540000000000025150000000025150002000000010410407221440020140594773800722000750549861   1030000200030000   541188001081000008000000294KBZ BANK               CITY MART - J MMR11007221440020140590722000000000000000   10300001 00104100000000001509000000000000     
100   62911028202690570000000000026775000000026775002000000010410407210130000026044773800721220208002604   1030000500030000   598320001403000015172200014MAX ENERGY             PTN           MMR11007210130000026040721000000000000000   10300001 00104100000000000803000000000000     
100   62443100315110470000000000031900000000031900002000000010410407211149510048935987790721220211004893   1030000600030000   581200001876315799420001246BLACK CANYON JC        PABEDAN       MMR11007211149510048930721000000000000000   10300001 00104100000000013558000000000000     
100   62911028202464020000000000009300000000009300002000000010410407210334560022384773800721220210002238   1030000500030000   541120203706000015411202037CITY MART SUPERMARKET  PTN           MMR11007210334560022380721000000000000000   10300001 00104100000000000558000000000000     
100   95050322295410690000000000017495000000017495002000000010410407210549560032116824960721220212003211   1030000500030000   541120226806000045411202268CITY MART WAIZAYANDA   PTN           MMR11007210549560032110721000000000000000   10300001 00104100000000004374000000000000     
100   62911028202357510000000000043000000000043000002000000010410407210823310081164773800721220208008116   1030000600030000   554100000732315799420000312DENKO MDY - 74         MANDALAY      MMR11007210823310081160721000000000000000   10300001 00104100000000001290000000000000     
100   95050322426452690000000000046125000000046125002000000010410407210122040131579766690721220201013157   1030000600030000   554100001217315799420000669DENKO PHAYAR GYI       BAGO          MMR11007210122040131570721000000000000000   10300001 00104100000000005535000000000000     
100   95050327456215690000000000022523000000022523002000000010410407210436310149992619590721220204014999   1030000600030000   581200000524315799420000141FUJI COFFEE HOUSE      YANGON        MMR11007210436310149990721000000000000000   10300001 00104100000000009573000000000000     
100   62911028202207790000000000090000000000090000002000000010410407210456520355314773800721220204035531   1030000600030000   554100002085315799420000471DENKO BAHAN            YANGON        MMR11007210456520355310721000000000000000   10300001 00104100000000002700000000000000     
100   95050310427855490000000000002970000000002970002000000010410407212334040404469797620722000007524439   1020000200030000   333400010001204104000000281Myanmar Soft-Gate Tech Yangon        MMR11007212334040404460722000000000000000   10300001F05104100000000000624000000000000     
100   95050323233042810000000000000990000000000990002000000010410407211640391039076492650722000007524165   1020000200030000   333400010001204104000000281Myanmar Soft-Gate Tech Yangon        MMR11007211640391039070722000000000000000   10300001F05104100000000000208000000000000     
100   62911028202161240000000000006300000000006300002000000010410407221315490113684773800722000750540158   1030000200030000   541188001006000008000000008KBZ BANK               MARKETPLACE - MMR11007221315490113680722000000000000000   10300001 00104100000000000378000000000000     
100   62911028202610540000000000030000000000030000002000000010410407221423110047504773800722000750548247   1030000200030000   541188001085000008000000294KBZ BANK               CITY MART - J MMR11007221423110047500722000000000000000   10300001 00104100000000001800000000000000     
100   95050322715181550000000000467982000000467982002000000010410407220508160025051620290722220311002505   1020000200030000   806200105003300018062000010MWD BANK               YGN           MMR11007220508160025050722000000000000000   10300001 00104100000000112316000000000000     
100   95050323133124350000000000005000000000005000002000000010410407221338180818870862500722000007529178   1030000200030000   333800010001203104000003327KBZPay                 Yangon        MMR11007221338180818870722000000000000000   10300001F05104100000000001050000000000000     
100   95050317071956460000000000001980000000001980002000000010410407220246161616388691360722000007524795   1020000200030000   333400010001204104000000281Myanmar Soft-Gate Tech Yangon        MMR11007220246161616380722000000000000000   10300001F05104100000000000416000000000000     
100   95050314565805350000000000010000000000010000002000000010410407220047461746694755070722000007524487   1030000200030000   333800010001203104000003327KBZPay                 Yangon        MMR11007220047461746690722000000000000000   10300001F05104100000000002100000000000000     
100   95030305700676370000000000030000000000030000002000000010410407210306570243044773800721220203024304   1030000600030000   554100001212315799420000664DENKO TA TAR OO        TA TAR OO     MMR11007210306570243040721000000000000000   10300001 00104100000000000900000000000000     
100   62443100300412100000000000031000000000031000002000000010410407210602321003771101640721220206100377   1030000600030000   554100000946315799420000471DENKO BAHAN            YANGON        MMR11007210602321003770721000000000000000   10300001 00104100000000003720000000000000     
100   62443101001072630000000000030000000000030000002000000010410407210228160323115866050721220202032311   1030000600030000   554100000725315799420000306DENKO MDY - 78         MANDALAY      MMR11007210228160323110721000000000000000   10300001 00104100000000003600000000000000     
100   62443100379321630000000000085500000000085500002000000010410407210928510050284841100721000356670952   1030000300030000   541100002356000000000000102CB BANK                MAKRO MYANMAR MMR11007210928510050280721000000000000000   10300001F00104100000000021375000000000000     
100   95030301100126550000000000039000000000039000002000000010410407211226500204174773800721220212020417   1030000600030000   554100002324315799420000481DENKO NORTH OKKALAPA   YANGON        MMR11007211226500204170721000000000000000   10300001 00104100000000001170000000000000     
100   62911028202181120000000000042000000000042000002000000010410407210129500408784773800721220201040878   1030000600030000   554100001003315799420000497DENKO KONE TA LA PAUNG YANGON        MMR11007210129500408780721000000000000000   10300001 00104100000000001260000000000000     
100   95050326689257240000000000036000000000036000002000000010410407211203190253215054990721000356693463   1030000300030000   531100000794000000000000540CB BANK                CAPITAL SUPER MMR11007211203190253210721000000000000000   10300001F00104100000000008640000000000000     
100   62443100302523870000000000040000000000040000002000000010410407210352270576213555650721220203057621   1030000600030000   554100000969315799420000481DENKO NORTH OKKALAPA   YANGON        MMR11007210352270576210721000000000000000   10300001 00104100000000004800000000000000     
100   95050328919375610000000000100700000000100700002000000010410407220247501750113733910722000007524810   1030000200030000   333800010001203104000003327KBZPay                 Yangon        MMR11007220247501750110722000000000000000   10300001F05104100000000021147000000000000     
100   95050313019767300000000000230000000000230000002000000010410407221148061806779805690722000007528751   1030000200030000   333800010001203104000003327KBZPay                 Yangon        MMR11007221148061806770722000000000000000   10300001F05104100000000048300000000000000     
100   95050316377977350000000000010000000000010000002000000010410407220249211921303648820722000007524809   1040001600030000   333800010001220104000004507A +                    Yangon        MMR11007220249211921300722000000000000000   10300001F05104100000000002100000000000000     
100   95050311736839760000000000000990000000000990002000000010410407220554532453328329120722000007526259   1020000200030000   333400010001204104000000281Myanmar Soft-Gate Tech Yangon        MMR11007220554532453320722000000000000000   10300001F05104100000000000208000000000000     
100   95050315259054570000000000003000000000003000002000000010410407220958112811905619820722000007527931   1030000200030000   333800010001203104000003327KBZPay                 Yangon        MMR11007220958112811900722000000000000000   10300001F05104100000000000630000000000000     
100   95050319161596230000000000001980000000001980002000000010410407220602413241420953320722000007526314   1020000200030000   333400010001204104000000281Myanmar Soft-Gate Tech Yangon        MMR11007220602413241420722000000000000000   10300001F05104100000000000416000000000000     
100   95050310794962000000000000005000000000005000002000000010410407220656442644036712290722000007526735   1030000200030000   3338000100012031040000040022C2P (Myanmar) Co. Ltd Yangon        MMR11007220656442644030722000000000000000   10300001F05104100000000001050000000000000     
100   95050319161596230000000000000990000000000990002000000010410407220958422842117272310722000007527938   1020000200030000   333400010001204104000000281Myanmar Soft-Gate Tech Yangon        MMR11007220958422842110722000000000000000   10300001F05104100000000000208000000000000     
100   62911028202442250000000000016000000000016000002000000010410407210151190023534773800721220208002353   1030000500030000   598320001201000015172200012MAX ENERGY             PTN           MMR11007210151190023530721000000000000000   10300001 00104100000000000480000000000000     
100   62911028202792960000000000010350000000010350002000000010410407211210170026654773800721220218002665   1030000500030000   541120227604000045411202276CITY MART ( 47 BRANCH  PTN           MMR11007211210170026650721000000000000000   10300001 00104100000000000621000000000000     
100   62911028202181120000000000061000000000061000002000000010410407211143188199144773800721220218819914   1040001600030000   598320001458000000010001152360 Petro (Ba Htoo)    Ygn           MMR11007211143188199140721000000000000000   10300001F00104100000000001830000000000000     
100   62911028202156540000000000032500000000032500002000000010410407210413297878384773800721220211787838   1040001600030000   806220001354000000010001061Grand Hantha Internati Ygn           MMR11007210413297878380721000000000000000   10300001F00104100000000001950000000000000     
100   95050315017843630000000000005000000000005000002000000010410407220409003900176286800722000007525423   1040001600030000   333800010001220104000004507A +                    Yangon        MMR11007220409003900170722000000000000000   10300001F05104100000000001050000000000000     
100   62443100301716860000000000003960000000003960002000000010410407221326125612155990150722000007529132   1020000200030000   333400010001204104000000281Myanmar Soft-Gate Tech Yangon        MMR11007221326125612150722000000000000000   10300001F05104100000000000832000000000000     
100   95050318214455130000000000000990000000000990002000000010410407211957402740911450110722000007524370   1020000200030000   333400010001204104000000281Myanmar Soft-Gate Tech Yangon        MMR11007211957402740910722000000000000000   10300001F05104100000000000208000000000000     
100   95050317834964620000000000001700000000001700002000000010410407221055584481075103530722853251758202   1030000900030000   541119001353190110000000977Ocean PZD C 7          YANGONAUNG    MMR11007221055584481070722000000000000000   10300001F00104100000000000425000000000000     
100   95030301100102610000000000020000000000020000002000000010410407221005013501214773800722000007528002   1030000200030000   333800010001203104000003327KBZPay                 Yangon        MMR11007221005013501210722000000000000000   10300001F05104100000000004200000000000000     
100   95050312498129060000000000002970000000002970002000000010410407221008343834483797140722000007528029   1020000200030000   333400010001204104000000281Myanmar Soft-Gate Tech Yangon        MMR11007221008343834480722000000000000000   10300001F05104100000000000624000000000000     
100   95050323233042810000000000000990000000000990002000000010410407220706173617530357640722000007526848   1020000200030000   333400010001204104000000281Myanmar Soft-Gate Tech Yangon        MMR11007220706173617530722000000000000000   10300001F05104100000000000208000000000000     
100   95050325630928770000000000000990000000000990002000000010410407220408103810531244260722000007525414   1020000200030000   333400010001204104000000281Myanmar Soft-Gate Tech Yangon        MMR11007220408103810530722000000000000000   10300001F05104100000000000208000000000000     
100   62911028202068510000000000030000000000030000002000000010410407221210104010054773800722000007528839   1030000200030000   333800010001203104000003327KBZPay                 Yangon        MMR11007221210104010050722000000000000000   10300001F05104100000000006300000000000000     
100   95050319111666800000000000000990000000000990002000000010410407221349121912427472440722000007529222   1020000200030000   333400010001204104000000281Myanmar Soft-Gate Tech Yangon        MMR11007221349121912420722000000000000000   10300001F05104100000000000208000000000000     
100   95050314996291580000000000004950000000004950002000000010410407220345211521775131110722000007525252   1020000200030000   333400010001204104000000281Myanmar Soft-Gate Tech Yangon        MMR11007220345211521770722000000000000000   10300001F05104100000000001040000000000000     
100   95050319331315630000000000001980000000001980002000000010410407221045371537328578690722000007528357   1020000200030000   333400010001204104000000281Myanmar Soft-Gate Tech Yangon        MMR11007221045371537320722000000000000000   10300001F05104100000000000416000000000000     
100   62911028202472440000000000040000000000040000002000000010410407220847188825814773800722220315882581   1040001600030000   598320000658000000010000527Shwe Taung Energy (YGN Yangon        MMR11007220847188825810722000000000000000   10300001F00104100000000001200000000000000     
100   95050311068653690000000000050000000000050000002000000010410407220410424042146542090722000007525434   1030000200030000   333800010001203104000003327KBZPay                 Yangon        MMR11007220410424042140722000000000000000   10300001F05104100000000010500000000000000     
100   62911028202099210000000000005000000000005000002000000010410407221347511751064773800722000007529211   1030000200030000   333800010001203104000003327KBZPay                 Yangon        MMR11007221347511751060722000000000000000   10300001F05104100000000001050000000000000     
100   95050316110433120000000000004372000000004372002000000010410407220923334450609265180722116531533202   1030000900030000   541119001220190110000000945City Mart TM C 5       YANGONONE     MMR11007220923334450600722000000000000000   10300001F00104100000000001093000000000000     
100   95050315144447320000000000000990000000000990002000000010410407220822425242711258050722000007527373   1020000200030000   333400010001204104000000281Myanmar Soft-Gate Tech Yangon        MMR11007220822425242710722000000000000000   10300001F05104100000000000208000000000000     
100   95050324154190880000000000019000000000019000002000000010410407210942260355965337870721220209035596   1030000600030000   554100002085315799420000471DENKO BAHAN            YANGON        MMR11007210942260355960721000000000000000   10300001 00104100000000002280000000000000     
100   95050312675525330000000000052000000000052000002000000010410407221017334733125614110722000007528098   1030000200030000   333800010001203104000003327KBZPay                 Yangon        MMR11007221017334733120722000000000000000   10300001F05104100000000010920000000000000     
100   62911028202809060000000000300000000000300000002000000010410407220215024502224773800722000007524692   1030000200030000   333800010001203104000003327KBZPay                 Yangon        MMR11007220215024502220722000000000000000   10300001F05104100000000063000000000000000     
100   95050315017843630000000000005000000000005000002000000010410407220252182218710343850722000007524823   1040001600030000   333800010001220104000004507A +                    Yangon        MMR11007220252182218710722000000000000000   10300001F05104100000000001050000000000000     
100   95050311736839760000000000000990000000000990002000000010410407220651332133061754840722000007526689   1020000200030000   333400010001204104000000281Myanmar Soft-Gate Tech Yangon        MMR11007220651332133060722000000000000000   10300001F05104100000000000208000000000000     
100   95050319528093960000000000000990000000000990002000000010410407220552272227965024150722000007526243   1020000200030000   333400010001204104000000281Myanmar Soft-Gate Tech Yangon        MMR11007220552272227960722000000000000000   10300001F05104100000000000208000000000000     
100   95050326155679180000000000004950000000004950002000000010410407221353532353552514990722000007529253   1020000200030000   333400010001204104000000281Myanmar Soft-Gate Tech Yangon        MMR11007221353532353550722000000000000000   10300001F05104100000000001040000000000000     
100   62911028202057620000000000050000000000050000002000000010410407220558332833154773800722000007526282   1030000200030000   333800010001203104000003327KBZPay                 Yangon        MMR11007220558332833150722000000000000000   10300001F05104100000000010500000000000000     
100   62443101006037900000000000041000000000041000002000000010410407220205054332392421820722260350805202   1030000900030000   554119000348190110000000215New Day Energy MYG     YANGONONE     MMR11007220205054332390722000000000000000   10300001F00104100000000004920000000000000     
100   95050312498129060000000000003960000000003960002000000010410407221205593559294592950722000007528829   1020000200030000   333400010001204104000000281Myanmar Soft-Gate Tech Yangon        MMR11007221205593559290722000000000000000   10300001F05104100000000000832000000000000     
100   95050311184380560000000000004950000000004950002000000010410407220313514351082251620722000007524982   1020000200030000   333400010001204104000000281Myanmar Soft-Gate Tech Yangon        MMR11007220313514351080722000000000000000   10300001F05104100000000001040000000000000     
100   95030317922148660000000000030000000000030000002000000010410407200745560002074773800720220114000207   1030000500030000   729820064401000017298200644HAIR REPUBLIC SALON    PTN           MMR11007200745560002070720000000000000000   10300001 00104100000000001800000000000000     
100   62911028202610540000000000003000000000003000002000000010410407221334290113614773800722000750542334   1030000200030000   541188001088000008000000294KBZ BANK               CITY MART - J MMR11007221334290113610722000000000000000   10300001 00104100000000000180000000000000     
100   62911028202598430000000000050000000000050000002000000010410407201249291002714773800720220112100271   1030000600030000   554100000946315799420000471DENKO BAHAN            YANGON        MMR11007201249291002710720000000000000000   10300001 00104100000000001500000000000000     
100   62911028202397530000000000055014000000055014002000000010410407200443270461774773800720220104046177   1030000600030000   554100001106315799420000564DENKO PHYUU            PHYUU         MMR11007200443270461770720000000000000000   10300001 00104100000000001650000000000000     
100   95050317176867660000000000001980000000001980002000000010410407220313164316215216210722000007524978   1020000200030000   333400010001204104000000281Myanmar Soft-Gate Tech Yangon        MMR11007220313164316210722000000000000000   10300001F05104100000000000416000000000000     
100   95050329213164970000000000004950000000004950002000000010410407221012204220888839700722000007528057   1020000200030000   333400010001204104000000281Myanmar Soft-Gate Tech Yangon        MMR11007221012204220880722000000000000000   10300001F05104100000000001040000000000000     
100   62911028202074950000000000050450000000050450002000000010410407220917508845684773800722220316884568   1040001600030000   591220000267000000010000255Shwe Ohh Pharmacy (Bah Yangon        MMR11007220917508845680722000000000000000   10300001F00104100000000003027000000000000     
100   62911028202329310000000000061849000000061849002000000010410407220503224373914773800722107331122202   1030000900030000   541119001508190110000001102Ocean MGDTM-C 1        YANGONADON    MMR11007220503224373910722000000000000000   10300001F00104100000000003711000000000000     
100   62911028202290100000000000049500000000049500002000000010410407220910374445854773800722846401537202   1030000900030000   541119001241190110000000082Sein Gay Har Super Cen YANGON        MMR11007220910374445850722000000000000000   10300001F00104100000000002970000000000000     
100   95050315144447320000000000000990000000000990002000000010410407220820015001101768620722000007527358   1020000200030000   333400010001204104000000281Myanmar Soft-Gate Tech Yangon        MMR11007220820015001100722000000000000000   10300001F05104100000000000208000000000000     
100   62911028202443730000000000126050000000126050002000000010410407220251558621804773800722220309862180   1040001600030000   591220000262000000010000250Shwe Ohh Pharmacy (SC- Yangon        MMR11007220251558621800722000000000000000   10300001F00104100000000007563000000000000     
100   62911028202108200000000000103900000000103900002000000010410407220520208700704773800722220312870070   1040001600030000   541120000569000000010000465Ocean Shwe Gone Daing  Yangon        MMR11007220520208700700722000000000000000   10300001F00104100000000006234000000000000     
100   62911028202290100000000000017900000000017900002000000010410407220916484448044773800722970461548202   1030000900030000   541119000130190110000000082Sein Gay Har Super Cen YANGON        MMR11007220916484448040722000000000000000   10300001F00104100000000001074000000000000     
100   95050318141561190000000000010000000000010000002000000010410407220319014901158946650722000007525026   1040001600030000   333800010001220104000004507A +                    Yangon        MMR11007220319014901150722000000000000000   10300001F05104100000000002100000000000000     
100   62911028202809060000000000300000000000300000002000000010410407221521215121034773800722000007529552   1030000200030000   333800010001203104000003327KBZPay                 Yangon        MMR11007221521215121030722000000000000000   10300001F05104100000000063000000000000000     
100   95050311959900780000000000000990000000000990002000000010410407221428555855304167470722000007529371   1020000200030000   333400010001204104000000281Myanmar Soft-Gate Tech Yangon        MMR11007221428555855300722000000000000000   10300001F05104100000000000208000000000000     
100   62911028202464020000000000020900000000020900002000000010410407221038384475854773800722564081738202   1030000900030000   591219000970190110000000777Shwe Ohh Pharmacy St ( YANGONAW      MMR11007221038384475850722000000000000000   10300001F00104100000000001254000000000000     
100   95050313843656520000000000000990000000000990002000000010410407221220045004273365950722000007528886   1020000200030000   333400010001204104000000281Myanmar Soft-Gate Tech Yangon        MMR11007221220045004270722000000000000000   10300001F05104100000000000208000000000000     
100   62911028202809060000000000100000000000100000002000000010410407221522265226124773800722000007529555   1030000200030000   333800010001203104000003327KBZPay                 Yangon        MMR11007221522265226120722000000000000000   10300001F05104100000000021000000000000000     
100   62911028202471860000000000063100000000063100002000000010410407221332474524394773800722296022047202   1030000900030000   581219001391190110000000996King BBQ sayarsan      YANGON        MMR11007221332474524390722000000000000000   10300001F00104100000000006436000000000000     
100   95050310332595380000000000014850000000014850002000000010410407221016094609685699210722000007528085   1020000200030000   333400010001204104000000281Myanmar Soft-Gate Tech Yangon        MMR11007221016094609680722000000000000000   10300001F05104100000000003119000000000000     
100   62911028202663430000000000003000000000003000002000000010410407220931204453174773800722260011620202   1030000900030000   591219000795190110000000627Shwe Ohh Pharmacy ST-3 YANGONINDAING MMR11007220931204453170722000000000000000   10300001F00104100000000000180000000000000     
100   95050317175714970000000000016695000000016695002000000010410407221138404494663110660722626081840202   1030000900030000   541119001358190110000000977Ocean PZD C 12         YANGONAUNG    MMR11007221138404494660722000000000000000   10300001F00104100000000004174000000000000     
100   95050310427855490000000000000990000000000990002000000010410407220923275327144392820722000007527705   1020000200030000   333400010001204104000000281Myanmar Soft-Gate Tech Yangon        MMR11007220923275327140722000000000000000   10300001F05104100000000000208000000000000     
100   95050315743141220000000000002970000000002970002000000010410407220822275227318463650722000007527368   1020000200030000   333400010001204104000000281Myanmar Soft-Gate Tech Yangon        MMR11007220822275227310722000000000000000   10300001F05104100000000000624000000000000     
100   62443100330108240000000000002970000000002970002000000010410407221329385938562685180722000007529140   1020000200030000   333400010001204104000000281Myanmar Soft-Gate Tech Yangon        MMR11007221329385938560722000000000000000   10300001F05104100000000000624000000000000     
100   95050310553090700000000000015150000000015150002000000010410407220612404392954002990722094421240202   1030000900030000   541119000123190110000000080Sein Gay Har BAK       YANGON        MMR11007220612404392950722000000000000000   10300001F00104100000000003788000000000000     
100   62911028202809060000000000300000000000300000002000000010410407221520155015864773800722000007529547   1030000200030000   333800010001203104000003327KBZPay                 Yangon        MMR11007221520155015860722000000000000000   10300001F05104100000000063000000000000000     
100   62911028202329310000000000003200000000003200002000000010410407220520444378284773800722325501144202   1030000900030000   541119001528190110000001107Ocean MGDTM-Season C-1 YANGONADON    MMR11007220520444378280722000000000000000   10300001F00104100000000000192000000000000     
100   95050320559934420000000000097300000000097300002000000010410407221017014467992224050722095471601202   1030000900030000   581219000368190110000000241Beauty In The Pot (PHS YANGON        MMR11007221017014467990722000000000000000   10300001F00104100000000041353000000000000     
100   95050312160676580000000000000990000000000990002000000010410407220729145914226555890722000007527046   1020000200030000   333400010001204104000000281Myanmar Soft-Gate Tech Yangon        MMR11007220729145914220722000000000000000   10300001F05104100000000000208000000000000     
100   95050326159929830000000000015400000000015400002000000010410407221130314492348663790722493001831202   1030000900030000   541119000120190110000000080Sein Gay Har BAK       YANGONADA     MMR11007221130314492340722000000000000000   10300001F00104100000000003850000000000000     
100   95050310332595380000000000000990000000000990002000000010410407221559302930832855370722000007529624   1020000200030000   333400010001204104000000281Myanmar Soft-Gate Tech Yangon        MMR11007221559302930830722000000000000000   10300001F05104100000000000208000000000000     
100   95050316110433120000000000009900000000009900002000000010410407220939264456113626960722425091626202   1030000900030000   541119001229190110000000946City Mart TM Season C  YANGONONE     MMR11007220939264456110722000000000000000   10300001F00104100000000002475000000000000     
100   95050310332595380000000000000990000000000990002000000010410407220327555755431570850722000007525114   1020000200030000   333400010001204104000000281Myanmar Soft-Gate Tech Yangon        MMR11007220327555755430722000000000000000   10300001F05104100000000000208000000000000     
100   62911028202112400000000000210250000000210250002000000010410407220411548660164773800722220311866016   1040001600030000   591220001007000000010000737Shwe Ohh Pharmacy (Tan Ygn           MMR11007220411548660160722000000000000000   10300001F00104100000000012615000000000000     
100   62911028202473840000000000301800000000301800002000000010410407221257194517034773800722901271919202   1030000900030000   806219001119190110000000900Shwe La Min Hospital L YANGONAW      MMR11007221257194517030722000000000000000   10300001F00104100000000018108000000000000     
100   95050310616516480000000000004950000000004950002000000010410407221127575757752138950722000007528640   1020000200030000   333400010001204104000000281Myanmar Soft-Gate Tech Yangon        MMR11007221127575757750722000000000000000   10300001F05104100000000001040000000000000     
100   95030301100120850000000000006850000000006850002000000010410407220602514389914773800722927321251202   1030000900030000   541119000128190110000000082Sein Gay Har Super Cen YANGON        MMR11007220602514389910722000000000000000   10300001F00104100000000000411000000000000     
100   62911028202161240000000000030000000000030000002000000010410407221159509000854773800722220318900085   1040001600030000   598320001170000000010000527Shwe Taung Energy (YGN Yangon        MMR11007221159509000850722000000000000000   10300001F00104100000000000900000000000000     
100   95030301100124400000000000048500000000048500002000000010410407211039270007234773800721220217000723   1030000500030000   806220195401000018062201954PIN LON HOSPITAL       PTN           MMR11007211039270007230721000000000000000   10300001 00104100000000002910000000000000     
100   62443100336591330000000000078000000000078000002000000010410407211118138171056260140721220218817105   1040001600030000   598320000854000000010000608Terminal Petrol Statio Yangon        MMR11007211118138171050721000000000000000   10300001F00104100000000009360000000000000     
100   62911028202163630000000000048750000000048750002000000010410407221018008891474773800722220317889147   1040001600030000   591220000302000000010000290Shwe Ohh Pharmacy (Nor Yangon        MMR11007221018008891470722000000000000000   10300001F00104100000000002925000000000000     
100   95050321480184540000000000010000000000010000002000000010410407220450262026780563490722000007525742   1030000200030000   333800010001203104000003327KBZPay                 Yangon        MMR11007220450262026780722000000000000000   10300001F05104100000000002100000000000000     
100   95050324154190880000000000012500000000012500002000000010410407210612380021552754130721000356640098   1030000300030000   591200000292000000000000173CB BANK                MEDICARE STOR MMR11007210612380021550721000000000000000   10300001F00104100000000003000000000000000     
100   95050320928153430000000000005700000000005700002000000010410407210551520001178392350721220212000117   1030000500030000   531120155607000045311201556GAMONE PWINT           PTN           MMR11007210551520001170721000000000000000   10300001 00104100000000001368000000000000     
100   62911028202162640000000000164900000000164900002000000010410407211128210007394773800721220217000739   1030000500030000   591220132901008605912201329THEIK DI WIN SHOP      PTN           MMR11007211128210007390721000000000000000   10300001 00104100000000009894000000000000     
100   95050310750557450000000000018200000000018200002000000010410407210916080025724200760721220215002572   1030000500030000   541120229104000045411202291CITY MART YANKIN       PTN           MMR11007210916080025720721000000000000000   10300001 00104100000000004550000000000000     
100   62911028202163630000000000060700000000060700002000000010410407221020328893914773800722220317889391   1040001600030000   591220000302000000010000290Shwe Ohh Pharmacy (Nor Yangon        MMR11007221020328893910722000000000000000   10300001F00104100000000003642000000000000     
100   62911028202154640000000000032336000000032336002000000010410407220818024430724773800722104481402202   1030000900030000   541119001265190110000000958City Mart PLST C 8     YANGONMYOTHIT MMR11007220818024430720722000000000000000   10300001F00104100000000001940000000000000     
100   95050317834964620000000000008850000000008850002000000010410407221044294477518493590722657141729202   1030000900030000   541119001359190110000000977Ocean PZD C 13         YANGONAUNG    MMR11007221044294477510722000000000000000   10300001F00104100000000002213000000000000     
100   95030301100081330000000000066750000000066750002000000010410407211250150022664773800721220219002266   1030000500030000   531120226710000045311202267OCEAN NORTH POINT      PTN           MMR11007211250150022660721000000000000000   10300001 00104100000000004005000000000000     
100   95050322295410690000000000026849000000026849002000000010410407210545340032101527120721220212003210   1030000500030000   541120226806000045411202268CITY MART WAIZAYANDA   PTN           MMR11007210545340032100721000000000000000   10300001 00104100000000006713000000000000     
100   62911028202159020000000000024500000000024500002000000010410407221013258886974773800722220317888697   1040001600030000   591220000298000000010000286Shwe Ohh Pharmacy (Shw Yangon        MMR11007221013258886970722000000000000000   10300001F00104100000000001470000000000000     
100   62911028202651050000000000080276000000080276002000000010410407221522330383644773800722000750553849   1030000200030000   541188001041000008000000010KBZ BANK               MARKETPLACE - MMR11007221522330383640722000000000000000   10300001 00104100000000004817000000000000     
100   62911028202159020000000000025400000000025400002000000010410407220659288766204773800722220313876620   1040001600030000   591220000258000000010000246Shwe Ohh Pharmacy (Sin Yangon        MMR11007220659288766200722000000000000000   10300001F00104100000000001524000000000000     
100   62911028202594880000000000029900000000029900002000000010410407221047308921104773800722220317892110   1040001600030000   591220000270000000010000258Shwe Ohh Pharmacy (U C Yangon        MMR11007221047308921100722000000000000000   10300001F00104100000000001794000000000000     
100   62911028202677390000000000030000000000030000002000000010410407211049250341564773800721220210034156   1030000600030000   554100001113315799420000571DENKO THAN HLYIN -1    THAN HLYIN    MMR11007211049250341560721000000000000000   10300001 00104100000000000900000000000000     
100   62911028202416760000000000050000000000050000002000000010410407221041438915094773800722220317891509   1040001600030000   598320000658000000010000527Shwe Taung Energy (YGN Yangon        MMR11007221041438915090722000000000000000   10300001F00104100000000001500000000000000     
100   62911028202595200000000000069860000000069860002000000010410407221013018886674773800722220317888667   1040001600030000   598320001170000000010000527Shwe Taung Energy (YGN Yangon        MMR11007221013018886670722000000000000000   10300001F00104100000000002096000000000000     
100   62911028202163630000000000030850000000030850002000000010410407221016258889654773800722220317888965   1040001600030000   591220000302000000010000290Shwe Ohh Pharmacy (Nor Yangon        MMR11007221016258889650722000000000000000   10300001F00104100000000001851000000000000     
100   95050322220807920000000000041650000000041650002000000010410407221030198903740911940722220317890374   1040001600030000   541120000569000000010000465Ocean Shwe Gone Daing  Yangon        MMR11007221030198903740722000000000000000   10300001F00104100000000010413000000000000     
100   95050322220807920000000000034534000000034534002000000010410407221119138955300486460722220318895530   1040001600030000   541120000563000000010000465Ocean Shwe Gone Daing  Yangon        MMR11007221119138955300722000000000000000   10300001F00104100000000008634000000000000     
100   62911028202103410000000000056459000000056459002000000010410407210953450014174773800721220216001417   1030000500030000   531120226707000045311202267OCEAN NORTH POINT      PTN           MMR11007210953450014170721000000000000000   10300001 00104100000000003388000000000000     
100   95050324154190880000000000039250000000039250002000000010410407210343450002125208130721220210000212   1030000500030000   591220012901014405912200129SHWE OHH PHARMACY      PTN           MMR11007210343450002120721000000000000000   10300001 00104100000000009420000000000000     
100   95050326426352250000000000050700000000050700002000000010410407210453130007725328880721220211000772   1030000500030000   541120203810000015411202038CITY MART SUPERMARKET  PTN           MMR11007210453130007720721000000000000000   10300001 00104100000000012675000000000000     
100   62911028202790310000000000040000000000040000002000000010410407210239180017534773800721220209001753   1030000500030000   598320001601000015172200016MAX ENERGY             PTN           MMR11007210239180017530721000000000000000   10300001 00104100000000001200000000000000     
100   62911028202209100000000000052600000000052600002000000010410407210503090022454773800721220211002245   1030000500030000   541120203706000015411202037CITY MART SUPERMARKET  PTN           MMR11007210503090022450721000000000000000   10300001 00104100000000003156000000000000     
100   95050320928153430000000000004350000000004350002000000010410407210548320001221782410721220212000122   1030000500030000   531120155602000045311201556GAMONE PWINT           PTN           MMR11007210548320001220721000000000000000   10300001 00104100000000001044000000000000     
100   62911028202471860000000000090000000000090000002000000010410407211120460019904773800721220217001990   1030000500030000   598320001203000015172200012MAX ENERGY             PTN           MMR11007211120460019900721000000000000000   10300001 00104100000000002700000000000000     
100   62911028202464020000000000002100000000002100002000000010410407210802480002604773800721220214000260   1030000500030000   591220211101014405912202111SHWE OHH PHARMACY      PTN           MMR11007210802480002600721000000000000000   10300001 00104100000000000126000000000000     
100   95050326426352250000000000092800000000092800002000000010410407210513180016090385220721220211001609   1030000500030000   541120203805000015411202038CITY MART SUPERMARKET  PTN           MMR11007210513180016090721000000000000000   10300001 00104100000000023200000000000000     
100   62911028202593140000000000010900000000010900002000000010410407211020050018214773800721220216001821   1030000500030000   541120227503000045411202275CITY MART (AHLONE BRAN PTN           MMR11007211020050018210721000000000000000   10300001 00104100000000000654000000000000     
100   62911028202214130000000000029500000000029500002000000010410407211145080019974773800721220218001997   1030000500030000   598320001203000015172200012MAX ENERGY             PTN           MMR11007211145080019970721000000000000000   10300001 00104100000000000885000000000000     
100   62911028202460140000000000014500000000014500002000000010410407211100020001774773800721220211000177   1030000600030000   591200002215315799420001560365 PHARMACY 3         YANGON        MMR11007211100020001770721000000000000000   10300001 00104100000000000870000000000000     
100   62443100333488440000000000030003000000030003002000000010410407210935360009706968480721220216000970   1030000500030000   598320001303000015172200013MAX ENERGY             PTN           MMR11007210935360009700721000000000000000   10300001 00104100000000003600000000000000     
