100   62911028202442250000000000062000000000062000002000000010410407231051260001694773800723220417000169   1030000500030000   531120155605000045311201556GAMONE PWINT           PTN           MMR11007231051260001690723000000000000000   10300001 00104100000000003720000000000000     
100   62443100355445150000000000002750000000002750002000000010410407231141190008367925500723220418000836   1030000500030000   541120227608000045411202276CITY MART ( 47 BRANCH  PTN           MMR11007231141190008360723000000000000000   10300001 00104100000000000688000000000000     
100   62443100323428970000000000109650000000109650002000000010410407230923460009480159870723000357029714   1030000300030000   541100003028000000000000102CB BANK                MAKRO MYANMAR MMR11007230923460009480723000000000000000   10300001F00104100000000027413000000000000     
100   62911028202442250000000000018500000000018500002000000010410407231054190001714773800723220417000171   1030000500030000   531120155605000045311201556GAMONE PWINT           PTN           MMR11007231054190001710723000000000000000   10300001 00104100000000001110000000000000     
100   62911028202405120000000000016700000000016700002000000010410407230523460008364773800723220411000836   1030000500030000   591220132901008605912201329THEIK DI WIN SHOP      PTN           MMR11007230523460008360723000000000000000   10300001 00104100000000001002000000000000     
100   62443100344229520000000000036100000000036100002000000010410407230630050009264485990723220413000926   1030000500030000   581220041801000055812200418SHWE LAR HOT POT       PTN           MMR11007230630050009260723000000000000000   10300001 00104100000000015343000000000000     
100   62911028202308280000000000100750000000100750002000000010410407230605050002414773800723220412000241   1030000500030000   591220014201014405912200142SHWE OHH PHARMACY      PTN           MMR11007230605050002410723000000000000000   10300001 00104100000000006045000000000000     
100   62911028202142850000000000051900000000051900002000000010410407230136190008944773800723220408000894   1030000500030000   541120020701022205411200207ORANGE (YDG)           PTN           MMR11007230136190008940723000000000000000   10300001 00104100000000003114000000000000     
100   95050313145843230000000000021250000000021250002000000010410407230302510000146975650723000356975043   1030000300030000   541100000088000000000000028CB BANK                ONE STOP KITC MMR11007230302510000140723000000000000000   10300001F00104100000000005313000000000000     
100   62911028202135350000000000069090000000069090002000000010410407230607100002354773800723220412000235   1030000500030000   581220224901000085812202249TOKYO BBQ DINING MANPU PTN           MMR11007230607100002350723000000000000000   10300001 00104100000000007047000000000000     
100   95050319391394380000000000004500000000004500002000000010410407230739520002527025090723220414000252   1030000500030000   541120024801022205411200248ORANGE (THARKAYTA)     PTN           MMR11007230739520002520723000000000000000   10300001 00104100000000001125000000000000     
100   62911028202684060000000000047500000000047500002000000010410407231107410012564773800723220417001256   1030000500030000   531120226718000045311202267OCEAN NORTH POINT      PTN           MMR11007231107410012560723000000000000000   10300001 00104100000000002850000000000000     
100   62911028202442250000000000014000000000014000002000000010410407230240170025774773800723220409002577   1030000500030000   598320001201000015172200012MAX ENERGY             PTN           MMR11007230240170025770723000000000000000   10300001 00104100000000000420000000000000     
100   62911028202116120000000000215970000000215970002000000010410407231246590023924773800723220419002392   1030000500030000   531120226317000045311202263OCEAN SUPER CENTER STJ PTN           MMR11007231246590023920723000000000000000   10300001 00104100000000012958000000000000     
100   62443100355445150000000000031600000000031600002000000010410407231139340027981230470723220418002798   1030000500030000   541120227604000045411202276CITY MART ( 47 BRANCH  PTN           MMR11007231139340027980723000000000000000   10300001 00104100000000007900000000000000     
100   62911028202233510000000000015200000000015200002000000010410407230732280015104773800723220414001510   1030000500030000   541120203705000015411202037CITY MART SUPERMARKET  PTN           MMR11007230732280015100723000000000000000   10300001 00104100000000000912000000000000     
100   62911028202136750000000000045000000000045000002000000010410407220656010001274773800722220313000127   1030000500030000   481220087901003104812200879C4E COMPUTER & MOBILE  PTN           MMR11007220656010001270722000000000000000   10300001 00104100000000002700000000000000     
100   62911028202074950000000000022900000000022900002000000010410407220934570010244773800722220316001024   1030000500030000   541120227501000045411202275CITY MART (AHLONE BRAN PTN           MMR11007220934570010240722000000000000000   10300001 00104100000000001374000000000000     
100   62443101065883000000000000063336000000063336002000000010410407221148550010319720600722220318001031   1030000500030000   541120227501000045411202275CITY MART (AHLONE BRAN PTN           MMR11007221148550010310722000000000000000   10300001 00104100000000015834000000000000     
100   62911028202593140000000000014950000000014950002000000010410407221246550010384773800722220319001038   1030000500030000   541120227501000045411202275CITY MART (AHLONE BRAN PTN           MMR11007221246550010380722000000000000000   10300001 00104100000000000897000000000000     
100   62911028202443650000000000069150000000069150002000000010410407221327000010414773800722220319001041   1030000500030000   541120227501000045411202275CITY MART (AHLONE BRAN PTN           MMR11007221327000010410722000000000000000   10300001 00104100000000004149000000000000     
100   62911028202158290000000000015450000000015450002000000010410407221045240010284773800722220317001028   1030000500030000   541120227501000045411202275CITY MART (AHLONE BRAN PTN           MMR11007221045240010280722000000000000000   10300001 00104100000000000927000000000000     
100   62443101023815100000000000020700000000020700002000000010410407221206340010351287990722220318001035   1030000500030000   541120227501000045411202275CITY MART (AHLONE BRAN PTN           MMR11007221206340010350722000000000000000   10300001 00104100000000005175000000000000     
100   62443100300412100000000000002700000000002700002000000010410407241425140017841820420724000750645672   1030000200030000   541188001046000008000000010KBZ BANK               MARKETPLACE - MMR11007241425140017840724000000000000000   10300001 00104100000000000675000000000000     
100   62911028202285900000000000020000000000020000002000000010410407230658380020714773800723220413002071   1030000500030000   598320001604000015172200016MAX ENERGY             PTN           MMR11007230658380020710723000000000000000   10300001 00104100000000000600000000000000     
100   95050316818460650000000000021505000000021505002000000010410407231153520026162372370723220418002616   1030000500030000   598320001003000015172200010MAX ENERGY             PTN           MMR11007231153520026160723000000000000000   10300001 00104100000000002581000000000000     
100   62911028202792960000000000007200000000007200002000000010410407231018450027894773800723220416002789   1030000500030000   541120227604000045411202276CITY MART ( 47 BRANCH  PTN           MMR11007231018450027890723000000000000000   10300001 00104100000000000432000000000000     
100   62911028202460140000000000010000000000010000002000000010410407231013520029724773800723220416002972   1030000500030000   598320001204000015172200012MAX ENERGY             PTN           MMR11007231013520029720723000000000000000   10300001 00104100000000000300000000000000     
100   62443100344229520000000000026600000000026600002000000010410407230713360042482152740723220413004248   1030000500030000   541120226812000045411202268CITY MART WAIZAYANDA   PTN           MMR11007230713360042480723000000000000000   10300001 00104100000000006650000000000000     
100   95050315955808830000000000034000000000034000002000000010410407231137460025339577980723220418002533   1030000500030000   598320001104000015172200011MAX ENERGY             PTN           MMR11007231137460025330723000000000000000   10300001 00104100000000004080000000000000     
100   62911028202312890000000000040000000000040000002000000010410407231307310030104773800723220419003010   1030000500030000   598320001204000015172200012MAX ENERGY             PTN           MMR11007231307310030100723000000000000000   10300001 00104100000000001200000000000000     
100   62911028202136750000000000013005000000013005002000000010410407231108380036634773800723220417003663   1030000500030000   598320001902000015172200019MAX ENERGY             PTN           MMR11007231108380036630723000000000000000   10300001 00104100000000000390000000000000     
100   95030322371504830000000000171053000000171053002000000010410407241002180031124773800724000750633786   1030000200030000   541188001482000008000000399KBZ BANK               OCEAN SUPERCE MMR11007241002180031120724000000000000000   10300001 00104100000000010263000000000000     
100   95050323749862420000000000016500000000016500002000000010410407240347190008045246140724000750634410   1030000200030000   569988000864000008000004736KBZ BANK               BENCH MYANMAR MMR11007240347190008040724000000000000000   10300001 00104100000000003960000000000000     
100   95050311959900780000000000004950000000004950002000000010410407240330100010741685890724000007533621   1020000200030000   333400010001204104000000281Myanmar Soft-Gate Tech Yangon        MMR11007240330100010740724000000000000000   10300001F05104100000000001040000000000000     
100   95030322371504830000000000094200000000094200002000000010410407241006430031144773800724000750633957   1030000200030000   541188001482000008000000399KBZ BANK               OCEAN SUPERCE MMR11007241006430031140724000000000000000   10300001 00104100000000005652000000000000     
100   62911028202448030000000000005000000000005000002000000010410407240840080033164773800724000750631445   1030000200030000   541188001014000008000000008KBZ BANK               MARKETPLACE - MMR11007240840080033160724000000000000000   10300001 00104100000000000300000000000000     
100   62443101001072630000000000007700000000007700002000000010410407241037330009453508570724000750635222   1030000200030000   541188001369000008000000395KBZ BANK               OCEAN SUPERMA MMR11007241037330009450724000000000000000   10300001 00104100000000001925000000000000     
100   95050321188471220000000000013200000000013200002000000010410407241055320022794565370724000750636106   1030000200030000   541188001484000008000000399KBZ BANK               OCEAN SUPERCE MMR11007241055320022790724000000000000000   10300001 00104100000000003300000000000000     
100   95050319870763910000000000000990000000000990002000000010410407241430080008340373790724000007535774   1020000200030000   333400010001204104000000281Myanmar Soft-Gate Tech Yangon        MMR11007241430080008340724000000000000000   10300001F05104100000000000208000000000000     
100   62443100395964530000000000021000000000021000002000000010410407230945220021032784070723220416002103   1030000500030000   598320001604000015172200016MAX ENERGY             PTN           MMR11007230945220021030723000000000000000   10300001 00104100000000002520000000000000     
100   62911028202120400000000000035000000000035000002000000010410407230310520025824773800723220409002582   1030000500030000   598320001201000015172200012MAX ENERGY             PTN           MMR11007230310520025820723000000000000000   10300001 00104100000000001050000000000000     
100   95050324836095860000000000030898000000030898002000000010410407231254490014290719890723220419001429   1030000500030000   531120231223000045311202312OCEAN OATTARA THIRI    PTN           MMR11007231254490014290723000000000000000   10300001 00104100000000007416000000000000     
100   95030390626214130000000000003500000000003500002000000010410407230817320012454773800723000357019996   1030000300030000   531100000863000000000000599CB BANK                MGOU-OP       MMR11007230817320012450723000000000000000   10300001F00104100000000000210000000000000     
100   62911028202461130000000000022250000000022250002000000010410407230936000023764773800723220416002376   1030000500030000   541120203706000015411202037CITY MART SUPERMARKET  PTN           MMR11007230936000023760723000000000000000   10300001 00104100000000001335000000000000     
100   95050314950595330000000000012000000000012000002000000010410407231631230123895081660723000007532973   1030000200030000   3338000100012031040000040022C2P (Myanmar) Co. Ltd Yangon        MMR11007231631230123890723000000000000000   10300001F05104100000000002520000000000000     
100   95050318601641810000000000000990000000000990002000000010410407240227335733593088800724000007533473   1020000200030000   333400010001204104000000281Myanmar Soft-Gate Tech Yangon        MMR11007240227335733590724000000000000000   10300001F05104100000000000208000000000000     
100   95050319331315630000000000014850000000014850002000000010410407241226145614822707040724000007535394   1020000200030000   333400010001204104000000281Myanmar Soft-Gate Tech Yangon        MMR11007241226145614820724000000000000000   10300001F05104100000000003119000000000000     
100   95050318919136220000000000040647000000040647002000000010410407241258040015684224990724000750641211   1030000200030000   541188001422000008000000401KBZ BANK               OCEAN SUPERCE MMR11007241258040015680724000000000000000   10300001 00104100000000010162000000000000     
100   62911028202473840000000000503000000000503000002000000010410407240242450047354773800724220509004735   1020000200030000   806200105002300018062000010MWD BANK               YGN           MMR11007240242450047350724000000000000000   10300001 00104100000000030180000000000000     
100   95050311569615630000000000104050000000104050002000000010410407241538490052551480040724000750649316   1030000200030000   541188001424000008000000401KBZ BANK               OCEAN SUPERCE MMR11007241538490052550724000000000000000   10300001 00104100000000026013000000000000     
100   95030322371504830000000000078000000000078000002000000010410407241004420031134773800724000750633867   1030000200030000   541188001482000008000000399KBZ BANK               OCEAN SUPERCE MMR11007241004420031130724000000000000000   10300001 00104100000000004680000000000000     
100   95030322371504830000000000020850000000020850002000000010410407241007480031154773800724000750634018   1030000200030000   541188001482000008000000399KBZ BANK               OCEAN SUPERCE MMR11007241007480031150724000000000000000   10300001 00104100000000001251000000000000     
100   95030322371504830000000000041850000000041850002000000010410407241024130029054773800724000750634690   1030000200030000   541188001480000008000000399KBZ BANK               OCEAN SUPERCE MMR11007241024130029050724000000000000000   10300001 00104100000000002511000000000000     
100   95030322371504830000000000020850000000020850002000000010410407241025400029074773800724000750634743   1030000200030000   541188001480000008000000399KBZ BANK               OCEAN SUPERCE MMR11007241025400029070724000000000000000   10300001 00104100000000001251000000000000     
100   95050312482469810000000000012900000000012900002000000010410407241530450079043643100724000750648966   1030000200030000   541188001286000008000000472KBZ BANK               NEIGHBOURHOOD MMR11007241530450079040724000000000000000   10300001 00104100000000003225000000000000     
100   95050313732480420000000000000990000000000990002000000010410407240555332533292742690724000007534142   1020000200030000   333400010001204104000000281Myanmar Soft-Gate Tech Yangon        MMR11007240555332533290724000000000000000   10300001F05104100000000000208000000000000     
100   95050322654733420000000000014000000000014000002000000010410407230532280000534642400723220412000053   1030000500030000   569120109701008205691201097ESCORT (PYAY)          PTN           MMR11007230532280000530723000000000000000   10300001 00104100000000003360000000000000     
100   62911028202792960000000000011700000000011700002000000010410407231010210008314773800723220416000831   1030000500030000   541120227608000045411202276CITY MART ( 47 BRANCH  PTN           MMR11007231010210008310723000000000000000   10300001 00104100000000000702000000000000     
100   95030390626214130000000000016500000000016500002000000010410407230942010009134773800723220416000913   1030000500030000   531120156005000045311201560GAMONE PWINT           PTN           MMR11007230942010009130723000000000000000   10300001 00104100000000000990000000000000     
100   95050319204938440000000000015000000000015000002000000010410407240659442944746934280724000007534376   1030000200030000   333800010001203104000003327KBZPay                 Yangon        MMR11007240659442944740724000000000000000   10300001F05104100000000003150000000000000     
100   95050313145843230000000000025000000000025000002000000010410407240322565256096478860724000007533600   1030000200030000   333800010001203104000003327KBZPay                 Yangon        MMR11007240322565256090724000000000000000   10300001F05104100000000005250000000000000     
100   62911028202417000000000000023900000000023900002000000010410407241036044997964773800724465061704204   1030000900030000   541119001207190110000000948City Mart YK C 5       YANGONAUNG    MMR11007241036044997960724000000000000000   10300001F00104100000000001434000000000000     
100   95050326426352250000000000026000000000026000002000000010410407230857570016686599610723220415001668   1030000500030000   541120203805000015411202038CITY MART SUPERMARKET  PTN           MMR11007230857570016680723000000000000000   10300001 00104100000000006500000000000000     
100   62911028202527070000000000023967000000023967002000000010410407241551280063734773800724000750650001   1030000200030000   541188001021000008000000298KBZ BANK               CITY MART - M MMR11007241551280063730724000000000000000   10300001 00104100000000001438000000000000     
100   95050325925517520000000000041800000000041800002000000010410407241122380043006473150724000750637188   1030000200030000   581288000947000008000004873KBZ BANK               PIZZA HUT RES MMR11007241122380043000724000000000000000   10300001 00104100000000017765000000000000     
100   62443100300412100000000000007650000000007650002000000010410407241419140265275210490724000750645377   1030000200030000   541188001037000008000000010KBZ BANK               MARKETPLACE - MMR11007241419140265270724000000000000000   10300001 00104100000000001913000000000000     
100   95050317176867660000000000001980000000001980002000000010410407231737370737712117080724000007533094   1020000200030000   333400010001204104000000281Myanmar Soft-Gate Tech Yangon        MMR11007231737370737710724000000000000000   10300001F05104100000000000416000000000000     
100   95050318951177660000000000040000000000040000002000000010410407240435460546887870340724000007533853   1030000200030000   333800010001203104000003327KBZPay                 Yangon        MMR11007240435460546880724000000000000000   10300001F05104100000000008400000000000000     
100   62911028202448030000000000031838000000031838002000000010410407240934430074434773800724000750632810   1030000200030000   541188001004000008000000008KBZ BANK               MARKETPLACE - MMR11007240934430074430724000000000000000   10300001 00104100000000001910000000000000     
100   95050312498129060000000000002970000000002970002000000010410407240332320232626643340724000007533629   1020000200030000   333400010001204104000000281Myanmar Soft-Gate Tech Yangon        MMR11007240332320232620724000000000000000   10300001F05104100000000000624000000000000     
100   95030394609966640000000000023850000000023850002000000010410407241220090191764773800724000750639674   1030000200030000   541188001020000008000000298KBZ BANK               CITY MART - M MMR11007241220090191760724000000000000000   10300001 00104100000000001431000000000000     
100   62911028202151340000000000007900000000007900002000000010410407241041150173794773800724000750635411   1030000200030000   541188001023000008000000298KBZ BANK               CITY MART - M MMR11007241041150173790724000000000000000   10300001 00104100000000000474000000000000     
100   62911028202417260000000000020800000000020800002000000010410407240513204913444773800724644431120204   1030000900030000   541119001257190110000000957City Mart JS City Care YANGONUT      MMR11007240513204913440724000000000000000   10300001F00104100000000001248000000000000     
100   95050314979630620000000000001980000000001980002000000010410407240954192419295040300724000007534933   1020000200030000   333400010001204104000000281Myanmar Soft-Gate Tech Yangon        MMR11007240954192419290724000000000000000   10300001F05104100000000000416000000000000     
100   62911028202598430000000000104400000000104400002000000010410407240335070008684773800724000750633883   1030000200030000   569988002501000008000006688KBZ BANK               ST-JOHN IPANE MMR11007240335070008680724000000000000000   10300001 00104100000000006264000000000000     
100   62443100309698080000000000018700000000018700002000000010410407230606320009044230700723220412000904   1030000500030000   531120156005000045311201560GAMONE PWINT           PTN           MMR11007230606320009040723000000000000000   10300001 00104100000000004488000000000000     
100   95050313732480420000000000000990000000000990002000000010410407240501033103433083080724000007533941   1020000200030000   333400010001204104000000281Myanmar Soft-Gate Tech Yangon        MMR11007240501033103430724000000000000000   10300001F05104100000000000208000000000000     
100   95050324411430900000000000033000000000033000002000000010410407230257150010675408260723000356974314   1030000300030000   598300001209000000000000817CB BANK                SHWE TAUNG EN MMR11007230257150010670723000000000000000   10300001F00104100000000003960000000000000     
100   62911028202105150000000000029000000000029000002000000010410407240534076819914773800724004073416172   1040001400030000   581210000464025812100002920Golden Duck Restaurant (Sayarsan) nu MMR11007240534076819910724000000000000000   10300001 00104100000000002958000000000000     
100   62911028202469070000000000055200000000055200002000000010410407241020240141434773800724000750634554   1030000200030000   541188001081000008000000294KBZ BANK               CITY MART - J MMR11007241020240141430724000000000000000   10300001 00104100000000003312000000000000     
100   62911028202472440000000000008400000000008400002000000010410407241920150123514773800724000750659758   1030000200030000   541188001033000008000000298KBZ BANK               CITY MART - M MMR11007241920150123510724000000000000000   10300001 00104100000000000504000000000000     
100   95050312498129060000000000001980000000001980002000000010410407240535170517982402310724000007534072   1020000200030000   333400010001204104000000281Myanmar Soft-Gate Tech Yangon        MMR11007240535170517980724000000000000000   10300001F05104100000000000416000000000000     
100   95030394609966640000000000003000000000003000002000000010410407241227530123084773800724000750640007   1030000200030000   541188001033000008000000298KBZ BANK               CITY MART - M MMR11007241227530123080724000000000000000   10300001 00104100000000000180000000000000     
100   95050319156011610000000000002970000000002970002000000010410407240236340634944741280724000007533494   1020000200030000   333400010001204104000000281Myanmar Soft-Gate Tech Yangon        MMR11007240236340634940724000000000000000   10300001F05104100000000000624000000000000     
100   62911028202555020000000000039200000000039200002000000010410407241528440079024773800724000750648867   1030000200030000   541188001286000008000000472KBZ BANK               NEIGHBOURHOOD MMR11007241528440079020724000000000000000   10300001 00104100000000002352000000000000     
100   62911028202809060000000000100000000000100000002000000010410407241438120812374773800724000007535792   1030000200030000   333800010001203104000003327KBZPay                 Yangon        MMR11007241438120812370724000000000000000   10300001F05104100000000021000000000000000     
100   95050312675525330000000000005000000000005000002000000010410407241231460146239402080724000007535412   1030000200030000   333800010001203104000003327KBZPay                 Yangon        MMR11007241231460146230724000000000000000   10300001F05104100000000001050000000000000     
100   62911028202154800000000000055014000000055014002000000010410407240523054915894773800724775531105204   1030000900030000   541119001260190110000000958City Mart PLST C 3     YANGONMYOTHIT MMR11007240523054915890724000000000000000   10300001F00104100000000003301000000000000     
100   62911028202610960000000000095000000000095000002000000010410407231043260021134773800723220417002113   1030000500030000   598320001602000015172200016MAX ENERGY             PTN           MMR11007231043260021130723000000000000000   10300001 00104100000000002850000000000000     
100   95050326593223450000000000058000000000058000002000000010410407230432240059356720360723000356987409   1030000300030000   541100000218000000000000113CB BANK                ONESTOP KITCH MMR11007230432240059350723000000000000000   10300001F00104100000000014500000000000000     
100   95050316067768680000000000001980000000001980002000000010410407241329025902835501430724000007535576   1020000200030000   333400010001204104000000281Myanmar Soft-Gate Tech Yangon        MMR11007241329025902830724000000000000000   10300001F05104100000000000416000000000000     
100   62911028202461130000000000020350000000020350002000000010410407230946120020724773800723220416002072   1030000500030000   541120203704000015411202037CITY MART SUPERMARKET  PTN           MMR11007230946120020720723000000000000000   10300001 00104100000000001221000000000000     
100   95030374458345210000000000273640000000273640002000000010410407241220035023904773800724942501803204   1030000900030000   541119001358190110000000977Ocean PZD C 12         YANGONAUNG    MMR11007241220035023900724000000000000000   10300001F00104100000000016418000000000000     
100   95050318617855880000000000000990000000000990002000000010410407240120225022877074540724000007533335   1020000200030000   333400010001204104000000281Myanmar Soft-Gate Tech Yangon        MMR11007240120225022870724000000000000000   10300001F05104100000000000208000000000000     
100   95050319870763910000000000000990000000000990002000000010410407241423105310682111370724000007535755   1020000200030000   333400010001204104000000281Myanmar Soft-Gate Tech Yangon        MMR11007241423105310680724000000000000000   10300001F05104100000000000208000000000000     
100   62911028202473840000000000028982000000028982002000000010410407241634340221444773800724000750652184   1030000200030000   541188001080000008000000294KBZ BANK               CITY MART - J MMR11007241634340221440724000000000000000   10300001 00104100000000001739000000000000     
100   62911028202448030000000000014700000000014700002000000010410407240929520325414773800724000750632673   1030000200030000   541188001012000008000000008KBZ BANK               MARKETPLACE - MMR11007240929520325410724000000000000000   10300001 00104100000000000882000000000000     
100   95050325925517520000000000035300000000035300002000000010410407241138400289156388050724000750637823   1030000200030000   541188001003000008000000008KBZ BANK               MARKETPLACE - MMR11007241138400289150724000000000000000   10300001 00104100000000008825000000000000     
100   62911028202809060000000000300000000000300000002000000010410407241435300530074773800724000007535784   1030000200030000   333800010001203104000003327KBZPay                 Yangon        MMR11007241435300530070724000000000000000   10300001F05104100000000063000000000000000     
100   95050314020354280000000000009000000000009000002000000010410407241725230195976012010724000750654836   1030000200030000   541188001304000008000000325KBZ BANK               CITY MART - A MMR11007241725230195970724000000000000000   10300001 00104100000000002250000000000000     
100   62911028202151340000000000013500000000013500002000000010410407241129500228924773800724000750637499   1030000200030000   541188001075000008000000294KBZ BANK               CITY MART - J MMR11007241129500228920724000000000000000   10300001 00104100000000000810000000000000     
100   62911028202166940000000000089550000000089550002000000010410407241012290327814773800724000750634228   1030000200030000   541188001042000008000000010KBZ BANK               MARKETPLACE - MMR11007241012290327810724000000000000000   10300001 00104100000000005373000000000000     
100   95050317942168830000000000002970000000002970002000000010410407240434440444281175310724000007533850   1020000200030000   333400010001204104000000281Myanmar Soft-Gate Tech Yangon        MMR11007240434440444280724000000000000000   10300001F05104100000000000624000000000000     
100   95050314307746340000000000000990000000000990002000000010410407241322205220838806400724000007535553   1020000200030000   333400010001204104000000281Myanmar Soft-Gate Tech Yangon        MMR11007241322205220830724000000000000000   10300001F05104100000000000208000000000000     
100   95050310332595380000000000000990000000000990002000000010410407240450502050038210730724000007533908   1020000200030000   333400010001204104000000281Myanmar Soft-Gate Tech Yangon        MMR11007240450502050030724000000000000000   10300001F05104100000000000208000000000000     
100   95050315743141220000000000002970000000002970002000000010410407240536370637884054800724000007534079   1020000200030000   333400010001204104000000281Myanmar Soft-Gate Tech Yangon        MMR11007240536370637880724000000000000000   10300001F05104100000000000624000000000000     
100   95030318100004530000000000043256000000043256002000000010410407241636160059054773800724000750652283   1030000200030000   541188001440000008000000401KBZ BANK               OCEAN SUPERCE MMR11007241636160059050724000000000000000   10300001 00104100000000002595000000000000     
100   62911028202555020000000000010650000000010650002000000010410407241529520079034773800724000750648920   1030000200030000   541188001286000008000000472KBZ BANK               NEIGHBOURHOOD MMR11007241529520079030724000000000000000   10300001 00104100000000000639000000000000     
100   62911028202301170000000000051100000000051100002000000010410407241558480063754773800724000750650394   1030000200030000   541188001021000008000000298KBZ BANK               CITY MART - M MMR11007241558480063750724000000000000000   10300001 00104100000000003066000000000000     
100   62911028202313470000000000048051000000048051002000000010410407240702134940344773800724055321313204   1030000900030000   541119001233190110000000951Marketplace KTY C 3    YANGONARTAUNG MMR11007240702134940340724000000000000000   10300001F00104100000000002883000000000000     
100   62911028202809060000000000300000000000300000002000000010410407241436250625484773800724000007535789   1030000200030000   333800010001203104000003327KBZPay                 Yangon        MMR11007241436250625480724000000000000000   10300001F05104100000000063000000000000000     
100   95050315150726490000000000001980000000001980002000000010410407240502223222914735570724000007533944   1020000200030000   333400010001204104000000281Myanmar Soft-Gate Tech Yangon        MMR11007240502223222910724000000000000000   10300001F05104100000000000416000000000000     
100   62911028202132460000000000029950000000029950002000000010410407240516564914264773800724686461156204   1030000900030000   591219000609190110000000449Shwe Ohh Pharmacy St-3 YANGONAUNG    MMR11007240516564914260724000000000000000   10300001F00104100000000001797000000000000     
100   62911028202169750000000000064039000000064039002000000010410407240610004927734773800724400401200204   1030000900030000   541119001283190110000000963City Mart SPL C 8      YANGONMYOTHIT MMR11007240610004927730724000000000000000   10300001F00104100000000003842000000000000     
100   62911028202110420000000000082700000000082700002000000010410407241324371109604773800724543737320743   1040001400030000   592110000076015921100000365Million Mart Million M rt No. (519/  MMR11007241324371109600724000000000000000   10300001 00104100000000004962000000000000     
100   95050310652791070000000000035000000000035000002000000010410407231708383838996734150724000007533046   1030000200030000   333800010001203104000003327KBZPay                 Yangon        MMR11007231708383838990724000000000000000   10300001F05104100000000007350000000000000     
100   95050316563230820000000000010000000000010000002000000010410407240658462846245281800724000007534372   1030000200030000   333800010001203104000003327KBZPay                 Yangon        MMR11007240658462846240724000000000000000   10300001F05104100000000002100000000000000     
100   95050312962334280000000000000990000000000990002000000010410407240608073807656047660724000007534173   1020000200030000   333400010001204104000000281Myanmar Soft-Gate Tech Yangon        MMR11007240608073807650724000000000000000   10300001F05104100000000000208000000000000     
100   62911028202417260000000000001400000000001400002000000010410407240519594915124773800724729491159204   1030000900030000   541119001250190110000000955City Mart JS C 9       YANGONUT      MMR11007240519594915120724000000000000000   10300001F00104100000000000084000000000000     
100   62911028202809060000000000300000000000300000002000000010410407241437150715594773800724000007535791   1030000200030000   333800010001203104000003327KBZPay                 Yangon        MMR11007241437150715590724000000000000000   10300001F05104100000000063000000000000000     
100   95050315424817550000000000002970000000002970002000000010410407240657242724300324340724000007534360   1020000200030000   333400010001204104000000281Myanmar Soft-Gate Tech Yangon        MMR11007240657242724300724000000000000000   10300001F05104100000000000624000000000000     
100   95050315005801680000000000002970000000002970002000000010410407241446131613765756720724000007535814   1020000200030000   333400010001204104000000281Myanmar Soft-Gate Tech Yangon        MMR11007241446131613760724000000000000000   10300001F05104100000000000624000000000000     
100   95050319331315630000000000002970000000002970002000000010410407241216064606346182210724000007535356   1020000200030000   333400010001204104000000281Myanmar Soft-Gate Tech Yangon        MMR11007241216064606340724000000000000000   10300001F05104100000000000624000000000000     
100   95050315017843630000000000010000000000010000002000000010410407241102463246730969460724000007535147   1040001600030000   333800010001220104000004507A +                    Yangon        MMR11007241102463246730724000000000000000   10300001F05104100000000002100000000000000     
100   62911028202319090000000000034700000000034700002000000010410407240244124880474773800724118140912204   1030000900030000   591219000609190110000000449Shwe Ohh Pharmacy St-3 YANGONAUNG    MMR11007240244124880470724000000000000000   10300001F00104100000000002082000000000000     
100   62911028202307860000000000058700000000058700002000000010410407240930514979424773800724326001651204   1030000900030000   541119000881190110000000084Pro (1) Global (Pazund YANGONARTAUNG MMR11007240930514979420724000000000000000   10300001F00104100000000003522000000000000     
100   95030301100022270000000000022000000000022000002000000010410407240900404970654773800724788301540204   1030000900030000   554119001101190110000000213New Day Energy SOK     YANGONOKKALAP MMR11007240900404970650724000000000000000   10300001F00104100000000000660000000000000     
100   95050319925596540000000000009900000000009900002000000010410407241251022102237153920724000007535455   1020000200030000   333400010001204104000000281Myanmar Soft-Gate Tech Yangon        MMR11007241251022102230724000000000000000   10300001F05104100000000002079000000000000     
100   62443100395250310000000000000990000000000990002000000010410407240446171617661515700724000007533893   1020000200030000   333400010001204104000000281Myanmar Soft-Gate Tech Yangon        MMR11007240446171617660724000000000000000   10300001F05104100000000000208000000000000     
100   62911028202214130000000000247100000000247100002000000010410407241028084995474773800724309581608204   1030000900030000   599919001138190110000000918Lucky Man Uwisarya     YANGONUT      MMR11007241028084995470724000000000000000   10300001F00104100000000014826000000000000     
100   95050314641725490000000000050000000000050000002000000010410407241344341434635416340724000007535625   1030000200030000   333800010001203104000003327KBZPay                 Yangon        MMR11007241344341434630724000000000000000   10300001F05104100000000010500000000000000     
100   95050317003064220000000000000990000000000990002000000010410407241111474147220884370724000007535187   1020000200030000   333400010001204104000000281Myanmar Soft-Gate Tech Yangon        MMR11007241111474147220724000000000000000   10300001F05104100000000000208000000000000     
100   62911028202442250000000000041300000000041300002000000010410407240743114950774773800724657131411204   1030000900030000   541119001154190110000000930OCEAN HTY C 4          YANGONTHARYA  MMR11007240743114950770724000000000000000   10300001F00104100000000002478000000000000     
100   95050327192897240000000000011700000000011700002000000010410407241132305012527494300724301021830204   1030000900030000   541119000149190110000000083SeinGayHarParami Cente YANGON        MMR11007241132305012520724000000000000000   10300001F00104100000000002925000000000000     
100   95050313817486860000000000004950000000004950002000000010410407240753122312485125390724000007534547   1020000200030000   333400010001204104000000281Myanmar Soft-Gate Tech Yangon        MMR11007240753122312480724000000000000000   10300001F05104100000000001040000000000000     
100   95050313396828960000000000000990000000000990002000000010410407240648271827338671860724000007534328   1020000200030000   333400010001204104000000281Myanmar Soft-Gate Tech Yangon        MMR11007240648271827330724000000000000000   10300001F05104100000000000208000000000000     
100   95050315005801680000000000002970000000002970002000000010410407241447311731530799270724000007535818   1020000200030000   333400010001204104000000281Myanmar Soft-Gate Tech Yangon        MMR11007241447311731530724000000000000000   10300001F05104100000000000624000000000000     
100   95050316421999920000000000001980000000001980002000000010410407241108223822622621950724000007535177   1020000200030000   333400010001204104000000281Myanmar Soft-Gate Tech Yangon        MMR11007241108223822620724000000000000000   10300001F05104100000000000416000000000000     
100   95030325264619140000000000023100000000023100002000000010410407240244314880594773800724129140931204   1030000900030000   541119000882190110000000084Pro (1) Global (Pazund YANGONARTAUNG MMR11007240244314880590724000000000000000   10300001F00104100000000001386000000000000     
100   62911028202243590000000000048050000000048050002000000010410407240931134979524773800724333011613204   1030000900030000   541119001262190110000000958City Mart PLST C 5     YANGONMYOTHIT MMR11007240931134979520724000000000000000   10300001F00104100000000002883000000000000     
100   95050310397364970000000000001980000000001980002000000010410407241417304730630458880724000007535730   1020000200030000   333400010001204104000000281Myanmar Soft-Gate Tech Yangon        MMR11007241417304730630724000000000000000   10300001F05104100000000000416000000000000     
100   62911028202472440000000000003700000000003700002000000010410407240547294921434773800724052171229204   1030000900030000   541119001257190110000000957City Mart JS City Care YANGONUT      MMR11007240547294921430724000000000000000   10300001F00104100000000000222000000000000     
100   62443100392426520000000000010000000000010000002000000010410407240154502450931946890724000007533407   1030000200030000   333800010001203104000003327KBZPay                 Yangon        MMR11007240154502450930724000000000000000   10300001F05104100000000002100000000000000     
100   95050317072727910000000000000990000000000990002000000010410407240315344534746563960724000007533577   1020000200030000   333400010001204104000000281Myanmar Soft-Gate Tech Yangon        MMR11007240315344534740724000000000000000   10300001F05104100000000000208000000000000     
100   62443100303702210000000000041100000000041100002000000010410407240717024943955622180724259471302204   1030000900030000   541119001283190110000000963City Mart SPL C 8      YANGONMYOTHIT MMR11007240717024943950724000000000000000   10300001F00104100000000010275000000000000     
100   95050314794441720000000000200000000000200000002000000010410407240055312531690379500724000007533312   1030000200030000   333800010001203104000003327KBZPay                 Yangon        MMR11007240055312531690724000000000000000   10300001F05104100000000042000000000000000     
100   95050322957045260000000000015000000000015000002000000010410407241158262826639572260724000007535307   1030000200030000   3338000100012031040000040022C2P (Myanmar) Co. Ltd Yangon        MMR11007241158262826630724000000000000000   10300001F05104100000000003150000000000000     
100   95050318621775380000000000003000000000003000002000000010410407241014114411208260170724000007534984   1030000200030000   3338000100012031040000040022C2P (Myanmar) Co. Ltd Yangon        MMR11007241014114411200724000000000000000   10300001F05104100000000000630000000000000     
100   62911028202703030000000000038300000000038300002000000010410407241020254993344773800724173501625204   1030000900030000   591219000601190110000000441Shwe Ohh Pharmacy St-3 YANGON        MMR11007241020254993340724000000000000000   10300001F00104100000000002298000000000000     
100   95050327416134790000000000000990000000000990002000000010410407241341481148113763860724000007535613   1020000200030000   333400010001204104000000281Myanmar Soft-Gate Tech Yangon        MMR11007241341481148110724000000000000000   10300001F05104100000000000208000000000000     
100   62911028202163480000000000050000000000050000002000000010410407240509293929304773800724000007533978   1030000500030000   333800010001201104000003863AYA Pay                Yangon        MMR11007240509293929300724000000000000000   10300001F05104100000000010500000000000000     
100   62443100379184770000000000010000000000010000002000000010410407240601193119299352630724000007534156   1030000200030000   333800010001203104000003327KBZPay                 Yangon        MMR11007240601193119290724000000000000000   10300001F05104100000000002100000000000000     
100   62911028202473840000000000503000000000503000002000000010410407240435424904674773800724210051142204   1030000900030000   806219001119190110000000900Shwe La Min Hospital L YANGONAW      MMR11007240435424904670724000000000000000   10300001F00104100000000030180000000000000     
100   95050322715181550000000000078000000000078000002000000010410407240730324947765451990724494001432204   1030000900030000   554119001101190110000000213New Day Energy SOK     YANGONOKKALAP MMR11007240730324947760724000000000000000   10300001F00104100000000009360000000000000     
100   95050310427855490000000000000990000000000990002000000010410407241250332033828891500724000007535454   1020000200030000   333400010001204104000000281Myanmar Soft-Gate Tech Yangon        MMR11007241250332033820724000000000000000   10300001F05104100000000000208000000000000     
100   62911028202231380000000000007600000000007600002000000010410407241133425012784773800724314031842204   1030000900030000   541119001255190110000000956City Mart JS Season C  YANGONUT      MMR11007241133425012780724000000000000000   10300001F00104100000000000456000000000000     
100   95050317176867660000000000002970000000002970002000000010410407240153522352613684470724000007533405   1020000200030000   333400010001204104000000281Myanmar Soft-Gate Tech Yangon        MMR11007240153522352610724000000000000000   10300001F05104100000000000624000000000000     
100   95050319111666800000000000000990000000000990002000000010410407241248441844672196460724000007535451   1020000200030000   333400010001204104000000281Myanmar Soft-Gate Tech Yangon        MMR11007241248441844670724000000000000000   10300001F05104100000000000208000000000000     
100   95050310332595380000000000000990000000000990002000000010410407241503183318292451750724000007535859   1020000200030000   333400010001204104000000281Myanmar Soft-Gate Tech Yangon        MMR11007241503183318290724000000000000000   10300001F05104100000000000208000000000000     
100   95050315099113150000000000002970000000002970002000000010410407240710224022103544220724000007534414   1020000200030000   333400010001204104000000281Myanmar Soft-Gate Tech Yangon        MMR11007240710224022100724000000000000000   10300001F05104100000000000624000000000000     
100   62911028202243590000000000005000000000005000002000000010410407240901344970934773800724808311534204   1030000900030000   541119001273190110000000960City Mart PLST Season  YANGONMYOTHIT MMR11007240901344970930724000000000000000   10300001F00104100000000000300000000000000     
100   62911028202214130000000000100900000000100900002000000010410407241127355011274773800724223571735204   1030000900030000   541119000128190110000000082Sein Gay Har Super Cen YANGON        MMR11007241127355011270724000000000000000   10300001F00104100000000006054000000000000     
100   95050316717221100000000000000990000000000990002000000010410407240415474547362912890724000007533792   1020000200030000   333400010001204104000000281Myanmar Soft-Gate Tech Yangon        MMR11007240415474547360724000000000000000   10300001F05104100000000000208000000000000     
100   95050316896526710000000000005000000000005000002000000010410407241002153215624955200724000007534948   1030000200030000   333800010001203104000003327KBZPay                 Yangon        MMR11007241002153215620724000000000000000   10300001F05104100000000001050000000000000     
100   62911028202313470000000000018250000000018250002000000010410407240657224939344773800724004271322204   1030000900030000   541119001239190110000000953Marketplace KTYCity Ca YANGONARTAUNG MMR11007240657224939340724000000000000000   10300001F00104100000000001095000000000000     
100   95050310427855490000000000002970000000002970002000000010410407240601353135281005120724000007534160   1020000200030000   333400010001204104000000281Myanmar Soft-Gate Tech Yangon        MMR11007240601353135280724000000000000000   10300001F05104100000000000624000000000000     
100   95050324603874200000000000232050000000232050002000000010410407240411024899344650470724958411002204   1030000900030000   594419001118190110000000899Zwe Htet Gems & Jewell YANGON        MMR11007240411024899340724000000000000000   10300001F00104100000000055692000000000000     
100   62443100346413950000000000076800000000076800002000000010410407230329150000455578450723000356978675   1030000300030000   571900003730000000000001118CB BANK                PRO 1 HOME CE MMR11007230329150000450723000000000000000   10300001F00104100000000018432000000000000     
100   62911028202471600000000000170350000000170350002000000010410407230750530002184773800723220414000218   1030000500030000   591220012301014405912200123SHWE OHH PHARMACY      PTN           MMR11007230750530002180723000000000000000   10300001 00104100000000010221000000000000     
100   95050322654733420000000000031000000000031000002000000010410407230534200000541337430723220412000054   1030000500030000   569120109701008205691201097ESCORT (PYAY)          PTN           MMR11007230534200000540723000000000000000   10300001 00104100000000007440000000000000     
100   62911028202405120000000000102750000000102750002000000010410407230519410003584773800723220411000358   1030000500030000   591220010401014405912200104SHWE OHH PHARMACY      PTN           MMR11007230519410003580723000000000000000   10300001 00104100000000006165000000000000     
100   95030390626214130000000000021600000000021600002000000010410407230422410004654773800723000356986069   1030000300030000   806200000193000000000000097CB BANK                AUNG YADANA H MMR11007230422410004650723000000000000000   10300001F00104100000000001296000000000000     
100   62911028202530930000000000145980000000145980002000000010410407230705400000544773800723220413000054   1030000500030000   569120091101000015691200911GIORDANO YUZANA PLAZA  PTN           MMR11007230705400000540723000000000000000   10300001 00104100000000008759000000000000     
100   62911028202293090000000000121350000000121350002000000010410407230321080005784773800723220409000578   1030000500030000   591220012001014405912200120SHWE OHH PHARMACY      PTN           MMR11007230321080005780723000000000000000   10300001 00104100000000007281000000000000     
100   62443100340422630000000000008050000000008050002000000010410407230947110001982869160723000357033204   1030000300030000   581200003115000000000002208CB BANK                LOCALE RESTAU MMR11007230947110001980723000000000000000   10300001F00104100000000003422000000000000     
100   62911028202207040000000000065300000000065300002000000010410407230225320003114773800723220408000311   1030000500030000   591220211101014405912202111SHWE OHH PHARMACY      PTN           MMR11007230225320003110723000000000000000   10300001 00104100000000003918000000000000     
100   62443100306744650000000000077700000000077700002000000010410407230843280005685032220723220415000568   1030000500030000   541120129725000045411201297MAKRO MYANMAR          PTN           MMR11007230843280005680723000000000000000   10300001 00104100000000019425000000000000     
