100   62911028202319090000000000062850000000062850002000000010410407230354369442764773800723220410944276   1040001600030000   591220000301000000010000289Shwe Ohh Pharmacy (Yay Yangon        MMR11007230354369442760723000000000000000   10300001F00104100000000003771000000000000     
100   95050312695033440000000000000990000000000990002000000010410407230406363636748117560723000007530564   1020000200030000   333400010001204104000000281Myanmar Soft-Gate Tech Yangon        MMR11007230406363636740723000000000000000   10300001F05104100000000000208000000000000     
100   62911028202440680000000000004250000000004250002000000010410407221336240005114773800722220320000511   1030000500030000   541120227901000045411202279CITY EXPRESS (MCS - 14 PTN           MMR11007221336240005110722000000000000000   10300001 00104100000000000255000000000000     
100   62911028202074950000000000032350000000032350002000000010410407220311250021504773800722220309002150   1030000500030000   531120226326000045311202263OCEAN SUPER CENTER STJ PTN           MMR11007220311250021500722000000000000000   10300001 00104100000000001941000000000000     
100   62443101023815100000000000009800000000009800002000000010410407221211040010668323410722220318001066   1030000500030000   541120227505000045411202275CITY MART (AHLONE BRAN PTN           MMR11007221211040010660722000000000000000   10300001 00104100000000002450000000000000     
100   95050310305109410000000000000990000000000990002000000010410407230415064506933415390723000007530605   1020000200030000   333400010001204104000000281Myanmar Soft-Gate Tech Yangon        MMR11007230415064506930723000000000000000   10300001F05104100000000000208000000000000     
100   95050326228858240000000000034800000000034800002000000010410407220849310034948123270722220315003494   1030000500030000   541120226805000045411202268CITY MART WAIZAYANDA   PTN           MMR11007220849310034940722000000000000000   10300001 00104100000000008700000000000000     
100   95050313145843230000000000051000000000051000002000000010410407231144181418396273020723000007532110   1030000200030000   333800010001203104000003327KBZPay                 Yangon        MMR11007231144181418390723000000000000000   10300001F05104100000000010710000000000000     
100   62911028202809060000000000300000000000300000002000000010410407231537250725204773800723000007532871   1030000200030000   333800010001203104000003327KBZPay                 Yangon        MMR11007231537250725200723000000000000000   10300001F05104100000000063000000000000000     
100   62911028202656830000000000024900000000024900002000000010410407231219530107484773800723000750592717   1030000200030000   541188001060000008000000314KBZ BANK               MARKETPLACE - MMR11007231219530107480723000000000000000   10300001 00104100000000001494000000000000     
100   95030301100081330000000000015800000000015800002000000010410407231811280129724773800723000750612871   1030000200030000   541188001303000008000000325KBZ BANK               CITY MART - A MMR11007231811280129720723000000000000000   10300001 00104100000000000948000000000000     
100   95050314414024490000000000100000000000100000002000000010410407230950072007649479090723000007531789   1030000200030000   333800010001203104000003327KBZPay                 Yangon        MMR11007230950072007640723000000000000000   10300001F05104100000000021000000000000000     
100   62911028202158290000000000012250000000012250002000000010410407221047380010644773800722220317001064   1030000500030000   541120227505000045411202275CITY MART (AHLONE BRAN PTN           MMR11007221047380010640722000000000000000   10300001 00104100000000000735000000000000     
100   62911028202162640000000000031700000000031700002000000010410407221142330011984773800722220318001198   1030000500030000   541120020902022205411200209ORANGE (HLAING)        PTN           MMR11007221142330011980722000000000000000   10300001 00104100000000001902000000000000     
100   62911028202502480000000000096936000000096936002000000010410407231332420049664773800723000750596522   1030000200030000   541188001040000008000000010KBZ BANK               MARKETPLACE - MMR11007231332420049660723000000000000000   10300001 00104100000000005816000000000000     
100   62911028202443650000000000043100000000043100002000000010410407221155230008824773800722220318000882   1030000500030000   541120020701022205411200207ORANGE (YDG)           PTN           MMR11007221155230008820722000000000000000   10300001 00104100000000002586000000000000     
100   95050317072727910000000000018750000000018750002000000010410407221110300010770060980722000356869753   1030000300030000   531100000568000000000000376CB BANK                CAPITAL HYPER MMR11007221110300010770722000000000000000   10300001F00104100000000004500000000000000     
100   95050315955808830000000000024130000000024130002000000010410407231105269747606017720723220418974760   1040001600030000   591220001200000000010000908Shwe Ohh Pharmacy (Thu Ygn           MMR11007231105269747600723000000000000000   10300001F00104100000000005791000000000000     
100   62911028202871900000000000022000000000022000002000000010410407230745090006074773800723000750599258   1030000200030000   598388001831000008000005302KBZ BANK               BOC (SHWEPANC MMR11007230745090006070723000000000000000   10300001 00104100000000000660000000000000     
100   95050311806372620000000000036950000000036950002000000010410407231510300020770074770723000750602741   1030000200030000   541188001438000008000000401KBZ BANK               OCEAN SUPERCE MMR11007231510300020770723000000000000000   10300001 00104100000000009238000000000000     
100   95030303100034700000000000019950000000019950002000000010410407230823420010764773800723000750601681   1030000200030000   591288001567000008000005053KBZ BANK               ORCHID (TKT)  MMR11007230823420010760723000000000000000   10300001 00104100000000001197000000000000     
100   62911028202149470000000000059200000000059200002000000010410407230540510018264773800723000750592282   1030000200030000   806281231112000008000001642KBZ BANK               ASIA ROYAL HO MMR11007230540510018260723000000000000000   10300001 00104100000000003552000000000000     
100   62911028202169750000000000001800000000001800002000000010410407231303130044364773800723000750594963   1030000200030000   541188001188000008000000383KBZ BANK               OCEAN SUPER C MMR11007231303130044360723000000000000000   10300001 00104100000000000108000000000000     
100   62911028202871900000000000034500000000034500002000000010410407231133590013554773800723000750590450   1030000200030000   541188001361000008000000395KBZ BANK               OCEAN SUPERMA MMR11007231133590013550723000000000000000   10300001 00104100000000002070000000000000     
100   95030303100034700000000000040100000000040100002000000010410407230821120010754773800723000750601541   1030000200030000   591288001567000008000005053KBZ BANK               ORCHID (TKT)  MMR11007230821120010750723000000000000000   10300001 00104100000000002406000000000000     
100   62911028202357510000000000064450000000064450002000000010410407231526260014894773800723000750603616   1030000200030000   541188001351000008000000395KBZ BANK               OCEAN SUPERMA MMR11007231526260014890723000000000000000   10300001 00104100000000003867000000000000     
100   62911028202463780000000000006600000000006600002000000010410407220700420020194773800722220313002019   1030000500030000   541120203704000015411202037CITY MART SUPERMARKET  PTN           MMR11007220700420020190722000000000000000   10300001 00104100000000000396000000000000     
100   62443100327902100000000000099900000000099900002000000010410407220719150002960031040722220313000296   1030000500030000   531120201602000085311202016STJ BLAZON             PTN           MMR11007220719150002960722000000000000000   10300001 00104100000000023976000000000000     
100   62911028202402980000000000095200000000095200002000000010410407220353520003514773800722220310000351   1030000500030000   591220011001014405912200110SHWE OHH PHARMACY      PTN           MMR11007220353520003510722000000000000000   10300001 00104100000000005712000000000000     
100   62911028202463780000000000048550000000048550002000000010410407220655240014584773800722220313001458   1030000500030000   541120203705000015411202037CITY MART SUPERMARKET  PTN           MMR11007220655240014580722000000000000000   10300001 00104100000000002913000000000000     
100   62911028202490830000000000500000000000500000002000000010410407220118450007704773800722220307000770   1030000500030000   806220046404006308062200464ASIA ROYAL HOSPITAL    PTN           MMR11007220118450007700722000000000000000   10300001 00104100000000030000000000000000     
100   62911028202598430000000000148900000000148900002000000010410407220653470010114773800722220313001011   1030000500030000   541120227501000045411202275CITY MART (AHLONE BRAN PTN           MMR11007220653470010110722000000000000000   10300001 00104100000000008934000000000000     
100   95050322921717110000000000020000000000020000002000000010410407220124570019264159390722220307001926   1030000500030000   598320001602000015172200016MAX ENERGY             PTN           MMR11007220124570019260722000000000000000   10300001 00104100000000002400000000000000     
100   62911028202581260000000000492500000000492500002000000010410407221209020001604773800722220318000160   1030000500030000   594420080601000015944200806VJM (MP)               PTN           MMR11007221209020001600722000000000000000   10300001 00104100000000029550000000000000     
100   62911028202663430000000000002800000000002800002000000010410407220941000008714773800722220316000871   1030000500030000   541120020701022205411200207ORANGE (YDG)           PTN           MMR11007220941000008710722000000000000000   10300001 00104100000000000168000000000000     
100   62443100371022130000000000014008000000014008002000000010410407220647100020820102350722220313002082   1030000500030000   598320001203000015172200012MAX ENERGY             PTN           MMR11007220647100020820722000000000000000   10300001 00104100000000001681000000000000     
100   95030301100022270000000000122900000000122900002000000010410407220722440001564773800722000356833304   1030000300030000   541100002341000000000000102CB BANK                MAKRO MYANMAR MMR11007220722440001560722000000000000000   10300001F00104100000000007374000000000000     
100   62911028202156540000000000055370000000055370002000000010410407220604530003154773800722220312000315   1030000500030000   806220172403013008062201724GRAND HANTHA HOSPITAL  PTN           MMR11007220604530003150722000000000000000   10300001 00104100000000003322000000000000     
100   62911028202207380000000000005100000000005100002000000010410407220815430014614773800722220314001461   1030000500030000   541120203705000015411202037CITY MART SUPERMARKET  PTN           MMR11007220815430014610722000000000000000   10300001 00104100000000000306000000000000     
100   62911028202110420000000000062000000000062000002000000010410407221330110010074773800722220320001007   1030000500030000   598320001304000015172200013MAX ENERGY             PTN           MMR11007221330110010070722000000000000000   10300001 00104100000000001860000000000000     
100   95050310750557450000000000052000000000052000002000000010410407220725180010201683530722000356833755   1030000300030000   541100002358000000000000102CB BANK                MAKRO MYANMAR MMR11007220725180010200722000000000000000   10300001F00104100000000013000000000000000     
100   62911028202708080000000000022950000000022950002000000010410407220918190014664773800722220315001466   1030000500030000   541120227606000045411202276CITY MART ( 47 BRANCH  PTN           MMR11007220918190014660722000000000000000   10300001 00104100000000001377000000000000     
100   62443100313112320000000000006900000000006900002000000010410407220931150020237612690722220316002023   1030000500030000   541120203704000015411202037CITY MART SUPERMARKET  PTN           MMR11007220931150020230722000000000000000   10300001 00104100000000001725000000000000     
100   95030394609966640000000000004000000000004000002000000010410407220346260003504773800722220310000350   1030000500030000   591220011001014405912200110SHWE OHH PHARMACY      PTN           MMR11007220346260003500722000000000000000   10300001 00104100000000000240000000000000     
100   95050320205194540000000000071800000000071800002000000010410407221016050002222309140722220316000222   1030000500030000   591220014201014405912200142SHWE OHH PHARMACY      PTN           MMR11007221016050002220722000000000000000   10300001 00104100000000017232000000000000     
100   62443100306045460000000000021400000000021400002000000010410407220936560003542059570722220316000354   1030000500030000   581220263901000085812202639BREAD TALK             PTN           MMR11007220936560003540722000000000000000   10300001 00104100000000009095000000000000     
100   62911028202631420000000000136950000000136950002000000010410407221157480003724773800722220318000372   1030000500030000   541120203703000015411202037CITY MART SUPERMARKET  PTN           MMR11007221157480003720722000000000000000   10300001 00104100000000008217000000000000     
100   62911028202202580000000000061550000000061550002000000010410407220431030002974773800722220311000297   1030000500030000   591220014301014405912200143SHWE OHH PHARMACY      PTN           MMR11007220431030002970722000000000000000   10300001 00104100000000003693000000000000     
100   62911028202611530000000000057000000000057000002000000010410407221219490002264773800722220318000226   1030000500030000   591220014201014405912200142SHWE OHH PHARMACY      PTN           MMR11007221219490002260722000000000000000   10300001 00104100000000003420000000000000     
100   95050329023136610000000000006400000000006400002000000010410407220747390004180286330722000356837622   1030000300030000   541100000489000000000000349CB BANK                G & G CONVENI MMR11007220747390004180722000000000000000   10300001F00104100000000001600000000000000     
100   62911028202792960000000000038700000000038700002000000010410407221220340016374773800722220318001637   1030000500030000   541120227603000045411202276CITY MART ( 47 BRANCH  PTN           MMR11007221220340016370722000000000000000   10300001 00104100000000002322000000000000     
100   62911028202913580000000000015600000000015600002000000010410407220633480002954773800722220313000295   1030000500030000   591220012701014405912200127SHWE OHH PHARMACY      PTN           MMR11007220633480002950722000000000000000   10300001 00104100000000000936000000000000     
100   62911028202792960000000000010000000000010000002000000010410407221223270008114773800722220318000811   1030000500030000   541120227608000045411202276CITY MART ( 47 BRANCH  PTN           MMR11007221223270008110722000000000000000   10300001 00104100000000000600000000000000     
100   95030305700676370000000000040000000000040000002000000010410407220719160000104773800722000356832713   1030000300030000   598300001210000000000000817CB BANK                SHWE TAUNG EN MMR11007220719160000100722000000000000000   10300001F00104100000000001200000000000000     
100   95030305700676370000000000087300000000087300002000000010410407221024440000354773800722220316000035   1030000500030000   481220238901000084812202389TOS                    PTN           MMR11007221024440000350722000000000000000   10300001 00104100000000005238000000000000     
100   62911028202197630000000000006700000000006700002000000010410407220702450002504773800722220313000250   1030000500030000   541120024701022205411200247ORANGE (SHWE PYI THAR) PTN           MMR11007220702450002500722000000000000000   10300001 00104100000000000402000000000000     
100   95030301100127050000000000070700000000070700002000000010410407220818490003924773800722220314000392   1030000500030000   591220020501005105912200205MINGALAR PHARMACY      PTN           MMR11007220818490003920722000000000000000   10300001 00104100000000004242000000000000     
100   95050328074436620000000000051005000000051005002000000010410407212301550026128145130722220305002612   1030000500030000   598320001302000015172200013MAX ENERGY             PTN           MMR11007212301550026120722000000000000000   10300001 00104100000000006121000000000000     
100   62911028202169750000000000031506000000031506002000000010410407220709020024344773800722220313002434   1030000500030000   541120226204000045411202262CITY MART ZAWANA       PTN           MMR11007220709020024340722000000000000000   10300001 00104100000000001890000000000000     
100   62911028202674810000000000002000000000002000002000000010410407220553520026904773800722220312002690   1030000500030000   541120227604000045411202276CITY MART ( 47 BRANCH  PTN           MMR11007220553520026900722000000000000000   10300001 00104100000000000120000000000000     
100   95050316311487940000000000007000000000007000002000000010410407220505240023519967810722220311002351   1030000500030000   541120229102000045411202291CITY MART YANKIN       PTN           MMR11007220505240023510722000000000000000   10300001 00104100000000001750000000000000     
100   95030389641831340000000000025732000000025732002000000010410407220622320026704773800722220312002670   1030000500030000   598320001001000015172200010MAX ENERGY             PTN           MMR11007220622320026700722000000000000000   10300001 00104100000000000772000000000000     
100   62911028202202410000000000028466000000028466002000000010410407221131380024624773800722220318002462   1030000500030000   541120226204000045411202262CITY MART ZAWANA       PTN           MMR11007221131380024620722000000000000000   10300001 00104100000000001708000000000000     
100   62911028202074950000000000007700000000007700002000000010410407220307420028634773800722220309002863   1030000500030000   531120226308000045311202263OCEAN SUPER CENTER STJ PTN           MMR11007220307420028630722000000000000000   10300001 00104100000000000462000000000000     
100   95050316311487940000000000003250000000003250002000000010410407220506090023528230230722220311002352   1030000500030000   541120229102000045411202291CITY MART YANKIN       PTN           MMR11007220506090023520722000000000000000   10300001 00104100000000000813000000000000     
100   62911028202136750000000000021000000000021000002000000010410407220316450030444773800722220309003044   1030000500030000   598320001901000015172200019MAX ENERGY             PTN           MMR11007220316450030440722000000000000000   10300001 00104100000000000630000000000000     
100   62911028202133940000000000051000000000051000002000000010410407220812220026634773800722220314002663   1030000500030000   598320001404000015172200014MAX ENERGY             PTN           MMR11007220812220026630722000000000000000   10300001 00104100000000001530000000000000     
100   95050326228858240000000000053000000000053000002000000010410407220910380030122995630722220315003012   1030000500030000   541120226807000045411202268CITY MART WAIZAYANDA   PTN           MMR11007220910380030120722000000000000000   10300001 00104100000000013250000000000000     
100   62911028202112400000000000021500000000021500002000000010410407220138030023924773800722220308002392   1030000500030000   598320001202000015172200012MAX ENERGY             PTN           MMR11007220138030023920722000000000000000   10300001 00104100000000000645000000000000     
100   95050316818460650000000000020000000000020000002000000010410407221228150027171628370722220318002717   1030000500030000   598320001001000015172200010MAX ENERGY             PTN           MMR11007221228150027170722000000000000000   10300001 00104100000000002400000000000000     
100   62911028202108200000000000093400000000093400002000000010410407220432208671244773800722220311867124   1040001600030000   541120000584000000010000465Ocean Shwe Gone Daing  Yangon        MMR11007220432208671240722000000000000000   10300001F00104100000000005604000000000000     
100   62911028202169750000000000017000000000017000002000000010410407220644298757284773800722220313875728   1040001600030000   598320000838000000010000600Regency Petrol Station Ygn           MMR11007220644298757280722000000000000000   10300001F00104100000000000510000000000000     
100   95030301100121270000000000036000000000036000002000000010410407220942598862634773800722220316886263   1040001600030000   598320000917000000010000665MMTM - Thingangyun     Ygn           MMR11007220942598862630722000000000000000   10300001F00104100000000001080000000000000     
100   62443100318296470000000000057650000000057650002000000010410407220707348770231925030722220314877023   1040001600030000   581420001511000000010001203The Brew               Yangon        MMR11007220707348770230722000000000000000   10300001F00104100000000006918000000000000     
100   62443100336591330000000000065403000000065403002000000010410407220144508586602506910722220308858660   1040001600030000   806220001354000000010001061Grand Hantha Internati Ygn           MMR11007220144508586600722000000000000000   10300001F00104100000000015697000000000000     
100   62911028202074950000000000048500000000048500002000000010410407220317120030014773800722220309003001   1030000500030000   531120226301000045311202263OCEAN SUPER CENTER STJ PTN           MMR11007220317120030010722000000000000000   10300001 00104100000000002910000000000000     
100   62911028202404050000000000026000000000026000002000000010410407220202230025934773800722220308002593   1030000500030000   598320001404000015172200014MAX ENERGY             PTN           MMR11007220202230025930722000000000000000   10300001 00104100000000000780000000000000     
100   62911028202451150000000000030303000000030303002000000010410407210654090002934773800721220213000293   1030000500030000   598320198002000075983201980MOON SUN EXCELLENT APE PTN           MMR11007210654090002930721000000000000000   10300001 00104100000000000909000000000000     
100   95030393174848800000000000144836000000144836002000000010410407210547120014934773800721220212001493   1030000500030000   541120231305000045411202313CITY MART (AYEYARWON)  PTN           MMR11007210547120014930721000000000000000   10300001 00104100000000008690000000000000     
100   95030327835334700000000000023036000000023036002000000010410407221810450108104773800722000750565107   1030000200030000   541188001245000008000000323KBZ BANK               CITY MART - I MMR11007221810450108100722000000000000000   10300001 00104100000000001382000000000000     
100   62911028202581260000000000039800000000039800002000000010410407231205554767454773800723046351855203   1030000900030000   541119001281190110000000963City Mart SPL C6       YANGONMYOTHIT MMR11007231205554767450723000000000000000   10300001F00104100000000002388000000000000     
100   95050318400277060000000000016000000000016000002000000010410407231133170317558010590723000007532080   1030000200030000   333800010001203104000003327KBZPay                 Yangon        MMR11007231133170317550723000000000000000   10300001F05104100000000003360000000000000     
100   62911028202502480000000000096439000000096439002000000010410407231336160049674773800723000750596746   1030000200030000   541188001040000008000000010KBZ BANK               MARKETPLACE - MMR11007231336160049670723000000000000000   10300001 00104100000000005786000000000000     
100   62443100300743690000000000008514000000008514002000000010410407231041344744034450340723607111734203   1030000900030000   581219000371190110000000243Jo Jo Hot Pot (Junctio YANGONN       MMR11007231041344744030723000000000000000   10300001F00104100000000003619000000000000     
100   62911028202293090000000000099750000000099750002000000010410407220413390024224773800722220310002422   1030000500030000   541120226204000045411202262CITY MART ZAWANA       PTN           MMR11007220413390024220722000000000000000   10300001 00104100000000005985000000000000     
100   62911028202319090000000000056400000000056400002000000010410407220236130003744773800722220309000374   1030000500030000   591220020501005105912200205MINGALAR PHARMACY      PTN           MMR11007220236130003740722000000000000000   10300001 00104100000000003384000000000000     
100   62911028202407100000000000014000000000014000002000000010410407221130330005084773800722220318000508   1030000500030000   541120227001000045411202270CITY EXPRESS (MCS - 27 PTN           MMR11007221130330005080722000000000000000   10300001 00104100000000000840000000000000     
100   62443100306416880000000000004600000000004600002000000010410407230802084701204060510723072321408203   1030000900030000   541119001239190110000000953Marketplace KTYCity Ca YANGONARTAUNG MMR11007230802084701200723000000000000000   10300001F00104100000000001150000000000000     
100   62911028202317430000000000053150000000053150002000000010410407221237200014854773800722220319001485   1030000500030000   541120227606000045411202276CITY MART ( 47 BRANCH  PTN           MMR11007221237200014850722000000000000000   10300001 00104100000000003189000000000000     
100   95050316573091630000000000014300000000014300002000000010410407230927134722346259220723254571513203   1030000900030000   541119001250190110000000955City Mart JS C 9       YANGONUT      MMR11007230927134722340723000000000000000   10300001F00104100000000003575000000000000     
100   62911028202656830000000000015960000000015960002000000010410407230459450019834773800723000750590295   1030000200030000   569988000804000008000004617KBZ BANK               JCY-TFS       MMR11007230459450019830723000000000000000   10300001 00104100000000000958000000000000     
100   62911028202161240000000000007620000000007620002000000010410407231021480129774773800723000750587136   1030000200030000   541188001022000008000000298KBZ BANK               CITY MART - M MMR11007231021480129770723000000000000000   10300001 00104100000000000457000000000000     
100   95050321798808970000000000010000000000010000002000000010410407230539450945607947360723000007530922   1030000200030000   333800010001203104000003327KBZPay                 Yangon        MMR11007230539450945600723000000000000000   10300001F05104100000000002100000000000000     
100   95050318131043910000000000000990000000000990002000000010410407231356082608081861790723000007532586   1020000200030000   333400010001204104000000281Myanmar Soft-Gate Tech Yangon        MMR11007231356082608080723000000000000000   10300001F05104100000000000208000000000000     
100   62911028202793040000000000005000000000005000002000000010410407230111364136764773800723000007530059   1030000200030000   3334000100012031040000040102C2P (Myanmar) Co. Ltd Yangon        MMR11007230111364136760723000000000000000   10300001F05104100000000001050000000000000     
100   62911028202161240000000000010950000000010950002000000010410407231158440173054773800723000750591607   1030000200030000   541188001023000008000000298KBZ BANK               CITY MART - M MMR11007231158440173050723000000000000000   10300001 00104100000000000657000000000000     
100   95050311068653690000000000030000000000030000002000000010410407230449121912442819720723000007530740   1030000200030000   333800010001203104000003327KBZPay                 Yangon        MMR11007230449121912440723000000000000000   10300001F05104100000000006300000000000000     
100   62911028202169750000000000200816000000200816002000000010410407231208440141604773800723000750592145   1030000200030000   541188001009000008000000008KBZ BANK               MARKETPLACE - MMR11007231208440141600723000000000000000   10300001 00104100000000012049000000000000     
100   95050323233042810000000000000990000000000990002000000010410407230150522052539394000723000007530127   1020000200030000   333400010001204104000000281Myanmar Soft-Gate Tech Yangon        MMR11007230150522052530723000000000000000   10300001F05104100000000000208000000000000     
100   95050314307746340000000000000990000000000990002000000010410407230255042504897571330723000007530315   1020000200030000   333400010001204104000000281Myanmar Soft-Gate Tech Yangon        MMR11007230255042504890723000000000000000   10300001F05104100000000000208000000000000     
100   95050315345734110000000000030000000000030000002000000010410407231058472847576102830723000007531992   1030000200030000   333800010001203104000003327KBZPay                 Yangon        MMR11007231058472847570723000000000000000   10300001F05104100000000006300000000000000     
100   95050327416134790000000000001980000000001980002000000010410407231245481548139152500723000007532335   1020000200030000   333400010001204104000000281Myanmar Soft-Gate Tech Yangon        MMR11007231245481548130723000000000000000   10300001F05104100000000000416000000000000     
100   95050311121153200000000000000990000000000990002000000010410407231213394339070890080723000007532232   1020000200030000   333400010001204104000000281Myanmar Soft-Gate Tech Yangon        MMR11007231213394339070723000000000000000   10300001F05104100000000000208000000000000     
100   62443100398129000000000000071050000000071050002000000010410407230547324666412578220723114171232203   1030000900030000   541119000162190110000000084Pro (1) Global (Pazund YANGONARTAUNG MMR11007230547324666410723000000000000000   10300001F00104100000000017763000000000000     
100   62911028202207610000000000023100000000023100002000000010410407230918460220684773800723000750584514   1030000200030000   541188001080000008000000294KBZ BANK               CITY MART - J MMR11007230918460220680723000000000000000   10300001 00104100000000001386000000000000     
100   95050314064416890000000000001980000000001980002000000010410407221638080808714507860723000007529707   1020000200030000   333400010001204104000000281Myanmar Soft-Gate Tech Yangon        MMR11007221638080808710723000000000000000   10300001F05104100000000000416000000000000     
100   95050314064416890000000000002970000000002970002000000010410407222350582058230791200723000007529977   1020000200030000   333400010001204104000000281Myanmar Soft-Gate Tech Yangon        MMR11007222350582058230723000000000000000   10300001F05104100000000000624000000000000     
100   95030306100096490000000000000990000000000990002000000010410407230200533053954773800723000007530156   1020000200030000   333400010001204104000000281Myanmar Soft-Gate Tech Yangon        MMR11007230200533053950723000000000000000   10300001F05104100000000000208000000000000     
100   95050319938772870000000000002970000000002970002000000010410407231303043304797414920723000007532400   1020000200030000   333400010001204104000000281Myanmar Soft-Gate Tech Yangon        MMR11007231303043304790723000000000000000   10300001F05104100000000000624000000000000     
100   95050314791376690000000000000990000000000990002000000010410407231437230723493429190723000007532714   1020000200030000   333400010001204104000000281Myanmar Soft-Gate Tech Yangon        MMR11007231437230723490723000000000000000   10300001F05104100000000000208000000000000     
100   62911028202448030000000000030200000000030200002000000010410407231530420173334773800723000750603870   1030000200030000   541188001023000008000000298KBZ BANK               CITY MART - M MMR11007231530420173330723000000000000000   10300001 00104100000000001812000000000000     
100   95050323133124350000000000003000000000003000002000000010410407230639270927146138480723000007531122   1030000200030000   333800010001203104000003327KBZPay                 Yangon        MMR11007230639270927140723000000000000000   10300001F05104100000000000630000000000000     
100   62911028202169750000000000035000000000035000002000000010410407230705554686564773800723239351355203   1030000900030000   554119001101190110000000213New Day Energy SOK     YANGONOKKALAP MMR11007230705554686560723000000000000000   10300001F00104100000000001050000000000000     
100   95050323481251170000000000040000000000040000002000000010410407230340031003512188390723000007530447   1030000200030000   333800010001203104000003327KBZPay                 Yangon        MMR11007230340031003510723000000000000000   10300001F05104100000000008400000000000000     
100   95050319870763910000000000000990000000000990002000000010410407230658122812877705860723000007531182   1020000200030000   333400010001204104000000281Myanmar Soft-Gate Tech Yangon        MMR11007230658122812870723000000000000000   10300001F05104100000000000208000000000000     
100   95050315424817550000000000001980000000001980002000000010410407230409003900953500490723000007530578   1020000200030000   333400010001204104000000281Myanmar Soft-Gate Tech Yangon        MMR11007230409003900950723000000000000000   10300001F05104100000000000416000000000000     
100   95050312675873230000000000002970000000002970002000000010410407230909113911800330060723000007531665   1020000200030000   333400010001204104000000281Myanmar Soft-Gate Tech Yangon        MMR11007230909113911800723000000000000000   10300001F05104100000000000624000000000000     
100   95050319938772870000000000000990000000000990002000000010410407231304573457738556820723000007532411   1020000200030000   333400010001204104000000281Myanmar Soft-Gate Tech Yangon        MMR11007231304573457730723000000000000000   10300001F05104100000000000208000000000000     
100   95050326552133160000000000115600000000115600002000000010410407230358444637764812590723483281044203   1030000900030000   571219001537190110000001113Pro 1 Plus Store-2     YANGONADON    MMR11007230358444637760723000000000000000   10300001F00104100000000027744000000000000     
100   62911028202319090000000000038400000000038400002000000010410407230422214644174773800723837521021203   1030000900030000   591219000690190110000000521Shwe Ohh Pharmacy ST-1 YANGONAUNG    MMR11007230422214644170723000000000000000   10300001F00104100000000002304000000000000     
100   62443100306045460000000000012100000000012100002000000010410407230749044697835372610723873191404203   1030000900030000   541119001261190110000000958City Mart PLST C 4     YANGONMYOTHIT MMR11007230749044697830723000000000000000   10300001F00104100000000003025000000000000     
100   62911028202290100000000000043200000000043200002000000010410407231438260220934773800723000750600666   1030000200030000   541188001080000008000000294KBZ BANK               CITY MART - J MMR11007231438260220930723000000000000000   10300001 00104100000000002592000000000000     
100   95050324622440820000000000054800000000054800002000000010410407231734010197637755310723000750610939   1030000200030000   541188001305000008000000325KBZ BANK               CITY MART - A MMR11007231734010197630723000000000000000   10300001 00104100000000013700000000000000     
100   62443100395535610000000000020000000000020000002000000010410407231337320732785166760723000007532539   1030000200030000   333800010001203104000003327KBZPay                 Yangon        MMR11007231337320732780723000000000000000   10300001F05104100000000004200000000000000     
100   62911028202809060000000000300000000000300000002000000010410407230056562656504773800723000007530045   1030000200030000   333800010001203104000003327KBZPay                 Yangon        MMR11007230056562656500723000000000000000   10300001F05104100000000063000000000000000     
100   95050312224678430000000000004950000000004950002000000010410407230205373537046003940723000007530172   1020000200030000   333400010001204104000000281Myanmar Soft-Gate Tech Yangon        MMR11007230205373537040723000000000000000   10300001F05104100000000001040000000000000     
100   95050317823045920000000000050000000000050000002000000010410407230405393539453075010723000007530563   1030000200030000   333800010001203104000003327KBZPay                 Yangon        MMR11007230405393539450723000000000000000   10300001F05104100000000010500000000000000     
100   62911028202448030000000000008400000000008400002000000010410407230722164690474773800723450521316203   1030000900030000   591219000795190110000000627Shwe Ohh Pharmacy ST-3 YANGONINDAING MMR11007230722164690470723000000000000000   10300001F00104100000000000504000000000000     
100   95030327835334700000000000013400000000013400002000000010410407232040440175964773800723000750618111   1030000200030000   541188001242000008000000323KBZ BANK               CITY MART - I MMR11007232040440175960723000000000000000   10300001 00104100000000000804000000000000     
100   95050312498129060000000000005940000000005940002000000010410407231300133013675762440723000007532386   1020000200030000   333400010001204104000000281Myanmar Soft-Gate Tech Yangon        MMR11007231300133013670723000000000000000   10300001F05104100000000001247000000000000     
100   62911028202871900000000000250000000000250000002000000010410407230433201786584773800723032006198120   1040001400030000   599910000387025999100001869MAHAR SAN USA Store nu l No-55  Byin MMR11007230433201786580723000000000000000   10300001 00104100000000015000000000000000     
100   95050314064416890000000000000990000000000990002000000010410407230414054405061762910723000007530603   1020000200030000   333400010001204104000000281Myanmar Soft-Gate Tech Yangon        MMR11007230414054405060723000000000000000   10300001F05104100000000000208000000000000     
100   95050314996291580000000000001980000000001980002000000010410407231132510251566358110723000007532078   1020000200030000   333400010001204104000000281Myanmar Soft-Gate Tech Yangon        MMR11007231132510251560723000000000000000   10300001F05104100000000000416000000000000     
100   62911028202215530000000000026100000000026100002000000010410407231111160241444773800723000750589356   1030000200030000   541188001054000008000000314KBZ BANK               MARKETPLACE - MMR11007231111160241440723000000000000000   10300001 00104100000000001566000000000000     
100   95050319709462380000000000000990000000000990002000000010410407230733360336427110190723000007531311   1020000200030000   333400010001204104000000281Myanmar Soft-Gate Tech Yangon        MMR11007230733360336420723000000000000000   10300001F05104100000000000208000000000000     
100   95050310427855490000000000002970000000002970002000000010410407230837420742108932870723000007531567   1020000200030000   333400010001204104000000281Myanmar Soft-Gate Tech Yangon        MMR11007230837420742100723000000000000000   10300001F05104100000000000624000000000000     
100   95050310427855490000000000000990000000000990002000000010410407231247081708520804990723000007532340   1020000200030000   333400010001204104000000281Myanmar Soft-Gate Tech Yangon        MMR11007231247081708520723000000000000000   10300001F05104100000000000208000000000000     
100   95050328741376010000000000035000000000035000002000000010410407230154462446346089030723000007530137   1030000200030000   333800010001203104000003327KBZPay                 Yangon        MMR11007230154462446340723000000000000000   10300001F05104100000000007350000000000000     
100   95050310332595380000000000000990000000000990002000000010410407230905513551343635030723000007531654   1020000200030000   333400010001204104000000281Myanmar Soft-Gate Tech Yangon        MMR11007230905513551340723000000000000000   10300001F05104100000000000208000000000000     
100   62911028202809060000000000300000000000300000002000000010410407231538190819784773800723000007532873   1030000200030000   333800010001203104000003327KBZPay                 Yangon        MMR11007231538190819780723000000000000000   10300001F05104100000000063000000000000000     
100   62911028202809060000000000100000000000100000002000000010410407231539300930924773800723000007532875   1030000200030000   333800010001203104000003327KBZPay                 Yangon        MMR11007231539300930920723000000000000000   10300001F05104100000000021000000000000000     
100   95050328741376010000000000004000000000004000002000000010410407230152372237371046490723000007530134   1030000200030000   333800010001203104000003327KBZPay                 Yangon        MMR11007230152372237370723000000000000000   10300001F05104100000000000840000000000000     
100   95050322823372070000000000076700000000076700002000000010410407231659120191543039350723000750609078   1030000200030000   541188001020000008000000298KBZ BANK               CITY MART - M MMR11007231659120191540723000000000000000   10300001 00104100000000019175000000000000     
100   95050312498129060000000000000990000000000990002000000010410407231215194519497585110723000007532241   1020000200030000   333400010001204104000000281Myanmar Soft-Gate Tech Yangon        MMR11007231215194519490723000000000000000   10300001F05104100000000000208000000000000     
100   95050318131043910000000000000990000000000990002000000010410407231354352435066819250723000007532581   1020000200030000   333400010001204104000000281Myanmar Soft-Gate Tech Yangon        MMR11007231354352435060723000000000000000   10300001F05104100000000000208000000000000     
100   95050319156011610000000000033788000000033788002000000010410407230457294652892734620723326271129203   1030000900030000   541119001355190110000000977Ocean PZD C9           YANGONAUNG    MMR11007230457294652890723000000000000000   10300001F00104100000000008447000000000000     
100   62911028202031710000000000080550000000080550002000000010410407230714134688404773800723338441313203   1030000900030000   541119001260190110000000958City Mart PLST C 3     YANGONMYOTHIT MMR11007230714134688400723000000000000000   10300001F00104100000000004833000000000000     
100   62911028202482830000000000013300000000013300002000000010410407231207500141014773800723000750592091   1030000200030000   541188001081000008000000294KBZ BANK               CITY MART - J MMR11007231207500141010723000000000000000   10300001 00104100000000000798000000000000     
100   62911028202421380000000000020800000000020800002000000010410407231100510140984773800723000750588909   1030000200030000   541188001081000008000000294KBZ BANK               CITY MART - J MMR11007231100510140980723000000000000000   10300001 00104100000000001248000000000000     
100   62911028202108380000000000017770000000017770002000000010410407231837130221114773800723000750614142   1030000200030000   541188001080000008000000294KBZ BANK               CITY MART - J MMR11007231837130221110723000000000000000   10300001 00104100000000001066000000000000     
100   95050317175714970000000000025000000000025000002000000010410407230352502250158798330723000007530515   1030000200030000   333800010001203104000003327KBZPay                 Yangon        MMR11007230352502250150723000000000000000   10300001F05104100000000005250000000000000     
100   95050319156011610000000000002970000000002970002000000010410407230912204220236940000723000007531669   1020000200030000   333400010001204104000000281Myanmar Soft-Gate Tech Yangon        MMR11007230912204220230723000000000000000   10300001F05104100000000000624000000000000     
100   95050312498129060000000000001980000000001980002000000010410407231310304030930209310723000007532439   1020000200030000   333400010001204104000000281Myanmar Soft-Gate Tech Yangon        MMR11007231310304030930723000000000000000   10300001F05104100000000000416000000000000     
100   95030357228658460000000000005850000000005850002000000010410407230856294714544773800723797261529203   1030000900030000   541119000147190110000000083SeinGayHarParami Cente YANGON        MMR11007230856294714540723000000000000000   10300001F00104100000000000351000000000000     
100   95050315066440750000000000016582000000016582002000000010410407230946434727666514510723575161643203   1030000900030000   541119001263190110000000958City Mart PLST C 6     YANGONMYOTHIT MMR11007230946434727660723000000000000000   10300001F00104100000000004146000000000000     
100   95030357228658460000000000004700000000004700002000000010410407230919254720294773800723132491525203   1030000900030000   594519001541190110000001115BKB BabyandToys Center YANGON        MMR11007230919254720290723000000000000000   10300001F00104100000000000282000000000000     
100   62911028202161990000000000005700000000005700002000000010410407231040294743714773800723586101729203   1030000900030000   541119001462190110000000077Sein Gay Har Chinatown YANGON        MMR11007231040294743710723000000000000000   10300001F00104100000000000342000000000000     
100   95050317834964620000000000001800000000001800002000000010410407231128034757030975180723407581703203   1030000900030000   541119001355190110000000977Ocean PZD C9           YANGONAUNG    MMR11007231128034757030723000000000000000   10300001F00104100000000000450000000000000     
100   95050315259054570000000000002000000000002000002000000010410407231029145914524691840723000007531891   1030000200030000   333800010001203104000003327KBZPay                 Yangon        MMR11007231029145914520723000000000000000   10300001F05104100000000000420000000000000     
100   95050315017843630000000000005000000000005000002000000010410407230620425042674145610723000007531050   1040001600030000   333800010001220104000004507A +                    Yangon        MMR11007230620425042670723000000000000000   10300001F05104100000000001050000000000000     
100   62911028202484810000000000040000000000040000002000000010410407230909564717794773800723980391556203   1030000900030000   554119001100190110000000212New Day Energy PZD     YANGON        MMR11007230909564717790723000000000000000   10300001F00104100000000001200000000000000     
100   62911028202448030000000000030000000000030000002000000010410407230916549655224773800723220416965522   1040001600030000   598320001170000000010000527Shwe Taung Energy (YGN Yangon        MMR11007230916549655220723000000000000000   10300001F00104100000000000900000000000000     
100   95050312498129060000000000000990000000000990002000000010410407231221455145547500020723000007532266   1020000200030000   333400010001204104000000281Myanmar Soft-Gate Tech Yangon        MMR11007231221455145540723000000000000000   10300001F05104100000000000208000000000000     
100   62911028202099210000000000010000000000010000002000000010410407230625385538874773800723000007531073   1030000200030000   333800010001203104000003327KBZPay                 Yangon        MMR11007230625385538870723000000000000000   10300001F05104100000000002100000000000000     
100   95050321379436960000000000026000000000026000002000000010410407230929429664161216680723220416966416   1040001600030000   541120000573000000010000465Ocean Shwe Gone Daing  Yangon        MMR11007230929429664160723000000000000000   10300001F00104100000000006500000000000000     
100   62911028202197630000000000008000000000008000002000000010410407231209019812104773800723220419981210   1040001600030000   598320001456000000010001150360 Petro (Bayint Naun Ygn           MMR11007231209019812100723000000000000000   10300001F00104100000000000240000000000000     
100   62911028202181120000000000017360000000017360002000000010410407231012344735274773800723053421634203   1030000900030000   541119001262190110000000958City Mart PLST C 5     YANGONMYOTHIT MMR11007231012344735270723000000000000000   10300001F00104100000000001042000000000000     
100   62911028202136750000000000030000000000030000002000000010410407230552379521714773800723220412952171   1040001600030000   598320001456000000010001150360 Petro (Bayint Naun Ygn           MMR11007230552379521710723000000000000000   10300001F00104100000000000900000000000000     
100   62911028202677390000000000030000000000030000002000000010410407230416179455734773800723220411945573   1040001600030000   598320001065000000010000785Yangon Petrol (Thudama Ygn           MMR11007230416179455730723000000000000000   10300001F00104100000000000900000000000000     
100   95030310098554020000000000020000000000020000002000000010410407230944234727114773800723546141623203   1030000900030000   554119001100190110000000212New Day Energy PZD     YANGON        MMR11007230944234727110723000000000000000   10300001F00104100000000000600000000000000     
100   62911028202611530000000000019450000000019450002000000010410407231155354764694773800723875251835203   1030000900030000   591219000969190110000000776Shwe Ohh Pharmacy St ( YANGONADA     MMR11007231155354764690723000000000000000   10300001F00104100000000001167000000000000     
100   62911028202355040000000000039450000000039450002000000010410407230922034721054773800723177521503203   1030000900030000   541119001471190110000001069K Mart Super Market-1  MONLAMYAING   MMR11007230922034721050723000000000000000   10300001F00104100000000002367000000000000     
100   62911028202132460000000000015000000000015000002000000010410407230629199547294773800723220413954729   1040001600030000   591220000285000000010000273Shwe Ohh Pharmacy (47t Yangon        MMR11007230629199547290723000000000000000   10300001F00104100000000000900000000000000     
100   62911028202448030000000000016000000000016000002000000010410407230558259526094773800723220412952609   1040001600030000   569120001365000000010001065Generation Concept Sto Ygn           MMR11007230558259526090723000000000000000   10300001F00104100000000000960000000000000     
100   95050312280776950000000000005000000000005000002000000010410407231021095109156344320723000007531868   1030000200030000   3338000100012031040000040022C2P (Myanmar) Co. Ltd Yangon        MMR11007231021095109150723000000000000000   10300001F05104100000000001050000000000000     
100   95050311077567400000000000007000000000007000002000000010410407230858514715078252100723829281551203   1030000900030000   541119000147190110000000083SeinGayHarParami Cente YANGON        MMR11007230858514715070723000000000000000   10300001F00104100000000001750000000000000     
100   95050317834964620000000000027840000000027840002000000010410407231134144758783053140723520041814203   1030000900030000   541119001355190110000000977Ocean PZD C9           YANGONAUNG    MMR11007231134144758780723000000000000000   10300001F00104100000000006960000000000000     
100   62911028202289130000000000016000000000016000002000000010410407230503049486284773800723220412948628   1040001600030000   598320000658000000010000527Shwe Taung Energy (YGN Yangon        MMR11007230503049486280723000000000000000   10300001F00104100000000000480000000000000     
100   62911028202448030000000000028450000000028450002000000010410407230800319606184773800723220415960618   1040001600030000   591220000303000000010000291Shwe Ohh Pharmacy (Kyu Yangon        MMR11007230800319606180723000000000000000   10300001F00104100000000001707000000000000     
100   62911028202248050000000000095361000000095361002000000010410407231053374747994773800723871231737203   1030000900030000   541119001329190110000000971Ocean Junction NPT C 7 NAYPYITAW     MMR11007231053374747990723000000000000000   10300001F00104100000000005722000000000000     
100   95050316067768680000000000000990000000000990002000000010410407231319264926096904340723000007532481   1020000200030000   333400010001204104000000281Myanmar Soft-Gate Tech Yangon        MMR11007231319264926090723000000000000000   10300001F05104100000000000208000000000000     
100   95050310332595380000000000000990000000000990002000000010410407231518394839468471730723000007532839   1020000200030000   333400010001204104000000281Myanmar Soft-Gate Tech Yangon        MMR11007231518394839460723000000000000000   10300001F05104100000000000208000000000000     
100   62911028202163480000000000300000000000300000002000000010410407230521315131504773800723000007530850   1030000500030000   333800010001201104000003863AYA Pay                Yangon        MMR11007230521315131500723000000000000000   10300001F05104100000000063000000000000000     
100   95050319161596230000000000000990000000000990002000000010410407231020325032498081900723000007531869   1020000200030000   333400010001204104000000281Myanmar Soft-Gate Tech Yangon        MMR11007231020325032490723000000000000000   10300001F05104100000000000208000000000000     
100   62911028202150190000000000060000000000060000002000000010410407230536099509454773800723220412950945   1040001600030000   598320001170000000010000527Shwe Taung Energy (YGN Yangon        MMR11007230536099509450723000000000000000   10300001F00104100000000001800000000000000     
100   62911028202169750000000000051839000000051839002000000010410407230625539544864773800723220413954486   1040001600030000   541120000557000000010000465Ocean Shwe Gone Daing  Yangon        MMR11007230625539544860723000000000000000   10300001F00104100000000003110000000000000     
