100   95050327531396450000000000200000000000200000002000000010410407250707093709674913610725000007538611   1030000200030000   333800010001203104000003327KBZPay                 Yangon        MMR11007250707093709670725000000000000000   10300001F05104100000000042000000000000000     
100   62911028202537390000000000030000000000030000002000000010410407251009011225584773800725220617122558   1040001600030000   598320001062000000010000782Yangon Petrol (South/N Ygn           MMR11007251009011225580725000000000000000   10300001F00104100000000000900000000000000     
100   62911028202139640000000000300000000000300000002000000010410407250402083208964773800725000007537265   1030000200030000   333800010001203104000003327KBZPay                 Yangon        MMR11007250402083208960725000000000000000   10300001F05104100000000063000000000000000     
100   95050319220344710000000000005000000000005000002000000010410407250519294929602805930725000007537909   1030000900030000   333400010001202104000002022ACS                    Yangon        MMR11007250519294929600725000000000000000   10300001F05104100000000001050000000000000     
100   95050317834964620000000000002350000000002350002000000010410407251106525241113941900725058361752205   1030000900030000   541119001359190110000000977Ocean PZD C 13         YANGONAUNG    MMR11007251106525241110725000000000000000   10300001F00104100000000000588000000000000     
100   62911028202809060000000000300000000000300000002000000010410407251322465246374773800725000007540397   1030000200030000   333800010001203104000003327KBZPay                 Yangon        MMR11007251322465246370725000000000000000   10300001F05104100000000063000000000000000     
100   62911028202150190000000000040950000000040950002000000010410407251032035231564773800725572021703205   1030000900030000   581219001391190110000000996King BBQ sayarsan      YANGON        MMR11007251032035231560725000000000000000   10300001F00104100000000004177000000000000     
100   62443100300743690000000000007950000000007950002000000010410407251351351447523700400725220620144752   1040001600030000   541120000561000000010000465Ocean Shwe Gone Daing  Yangon        MMR11007251351351447520725000000000000000   10300001F00104100000000001988000000000000     
100   62911028202355870000000001000000000001000000002000000010410407250813474347684773800725000007539063   1040001600030000   333800010001220104000004507A +                    Yangon        MMR11007250813474347680725000000000000000   10300001F05104100000000210000000000000000     
100   95050311959900780000000000000990000000000990002000000010410407251405343534528657850725000007540545   1020000200030000   333400010001204104000000281Myanmar Soft-Gate Tech Yangon        MMR11007251405343534520725000000000000000   10300001F05104100000000000208000000000000     
100   62443100313002190000000000070000000000070000002000000010410407251008173817114963050725000007539717   1030000200030000   333800010001203104000003327KBZPay                 Yangon        MMR11007251008173817110725000000000000000   10300001F05104100000000014700000000000000     
100   95050321976590420000000000022500000000022500002000000010410407251025555229590977310725452551655205   1030000900030000   723019001047190110000000850Beauty Diary LDK       YANGONNGKUUN  MMR11007251025555229590725000000000000000   10300001F00104100000000005400000000000000     
100   62443100348951400000000000050000000000050000002000000010410407241723335333937409210725000007536126   1030000200030000   333800010001203104000003327KBZPay                 Yangon        MMR11007241723335333930725000000000000000   10300001F05104100000000010500000000000000     
100   62443100379321630000000000009200000000009200002000000010410407250438525132446791670725566081152205   1030000900030000   541119001173190110000000931OCEAN HTY SEASON       YANGON        MMR11007250438525132440725000000000000000   10300001F00104100000000002300000000000000     
100   62443100398129000000000000060000000000060000002000000010410407251339545278672047910725134092054205   1030000900030000   554119000348190110000000215New Day Energy MYG     YANGONONE     MMR11007251339545278670725000000000000000   10300001F00104100000000007200000000000000     
100   95050312675525330000000000036500000000036500002000000010410407250147041704270302480725000007536519   1030000200030000   333800010001203104000003327KBZPay                 Yangon        MMR11007250147041704270725000000000000000   10300001F05104100000000007665000000000000     
100   62911028202169750000000000002500000000002500002000000010410407250329035114904773800725737590903205   1030000900030000   541119000128190110000000082Sein Gay Har Super Cen YANGON        MMR11007250329035114900725000000000000000   10300001F00104100000000000150000000000000     
100   62911028202238150000000000174850000000174850002000000010410407250433481023124773800725220611102312   1040001600030000   591220000268000000010000256Shwe Ohh Pharmacy (Uni Yangon        MMR11007250433481023120725000000000000000   10300001F00104100000000010491000000000000     
100   62911028202794110000000000050000000000050000002000000010410407251056552655934773800725000007539931   1030000200030000   333800010001203104000003327KBZPay                 Yangon        MMR11007251056552655930725000000000000000   10300001F05104100000000010500000000000000     
100   62911028202809060000000000300000000000300000002000000010410407251323505350644773800725000007540407   1030000200030000   333800010001203104000003327KBZPay                 Yangon        MMR11007251323505350640725000000000000000   10300001F05104100000000063000000000000000     
100   95050315701710960000000000001980000000001980002000000010410407251327085708223785490725000007540416   1020000200030000   333400010001204104000000281Myanmar Soft-Gate Tech Yangon        MMR11007251327085708220725000000000000000   10300001F05104100000000000416000000000000     
100   62911028202139640000000000300000000000300000002000000010410407250325505550414773800725000007536961   1030000200030000   333800010001203104000003327KBZPay                 Yangon        MMR11007250325505550410725000000000000000   10300001F05104100000000063000000000000000     
100   95050329213164970000000000002970000000002970002000000010410407250623585358400381640725000007538325   1020000200030000   333400010001204104000000281Myanmar Soft-Gate Tech Yangon        MMR11007250623585358400725000000000000000   10300001F05104100000000000624000000000000     
100   62911028202594880000000000008200000000008200002000000010410407240446410004514773800724220511000451   1030000500030000   591220013601014405912200136SHWE OHH PHARMACY      PTN           MMR11007240446410004510724000000000000000   10300001 00104100000000000492000000000000     
100   62911028202217020000000000038600000000038600002000000010410407221044000001924773800722220310000192   1030000600030000   591200002215315799420001560365 PHARMACY 3         YANGON        MMR11007221044000001920722000000000000000   10300001 00104100000000002316000000000000     
100   62443100384660050000000000060000000000060000002000000010410407220249220244065386400722220302024406   1030000600030000   554100001212315799420000664DENKO TA TAR OO        TA TAR OO     MMR11007220249220244060722000000000000000   10300001 00104100000000007200000000000000     
100   62911028202169750000000000020000000000020000002000000010410407211014580014554773800721220216001455   1030000500030000   541120203902000015411202039NEIGHBOURHOOD          PTN           MMR11007211014580014550721000000000000000   10300001 00104100000000001200000000000000     
100   62911028202280200000000000018250000000018250002000000010410407240543220002784773800724220512000278   1030000500030000   591220014501014405912200145SHWE OHH PHARMACY      PTN           MMR11007240543220002780724000000000000000   10300001 00104100000000001095000000000000     
100   62911028202319090000000000019500000000019500002000000010410407240411170004404773800724220510000440   1030000500030000   591220020501005105912200205MINGALAR PHARMACY      PTN           MMR11007240411170004400724000000000000000   10300001 00104100000000001170000000000000     
100   95030325264619140000000000055750000000055750002000000010410407240223540002284773800724000357145937   1030000300030000   541100002341000000000000102CB BANK                MAKRO MYANMAR MMR11007240223540002280724000000000000000   10300001F00104100000000003345000000000000     
100   62443100390038980000000000012300000000012300002000000010410407240112500002845422050724220507000284   1030000500030000   581220112801000015812201128Feel Myanmar           PTN           MMR11007240112500002840724000000000000000   10300001 00104100000000005228000000000000     
100   62911028202598430000000000294815000000294815002000000010410407240438470002294773800724220511000229   1030000500030000   531120226309000045311202263OCEAN SUPER CENTER STJ PTN           MMR11007240438470002290724000000000000000   10300001 00104100000000017689000000000000     
100   95030390626214130000000000001980000000001980002000000010410407250624075407174773800725000007538321   1020000200030000   333400010001204104000000281Myanmar Soft-Gate Tech Yangon        MMR11007250624075407170725000000000000000   10300001F05104100000000000416000000000000     
100   95050319161596230000000000000990000000000990002000000010410407250059162916132281560725000007536383   1020000200030000   333400010001204104000000281Myanmar Soft-Gate Tech Yangon        MMR11007250059162916130725000000000000000   10300001F05104100000000000208000000000000     
100   95050319006804440000000000000990000000000990002000000010410407250415494549292259700725000007537413   1020000200030000   333400010001204104000000281Myanmar Soft-Gate Tech Yangon        MMR11007250415494549290725000000000000000   10300001F05104100000000000208000000000000     
100   95050314996291580000000000001980000000001980002000000010410407250452082208501834220725000007537689   1020000200030000   333400010001204104000000281Myanmar Soft-Gate Tech Yangon        MMR11007250452082208500725000000000000000   10300001F05104100000000000416000000000000     
100   62911028202440680000000000005000000000005000002000000010410407250938071203194773800725220616120319   1040001600030000   591220000296000000010000284Shwe Ohh Pharmacy (Lan Yangon        MMR11007250938071203190725000000000000000   10300001F00104100000000000300000000000000     
100   95050324850150480000000000070000000000070000002000000010410407250211480953606912420725220609095360   1040001600030000   598320000316000000010000304PT Power Petrol Statio Yangon        MMR11007250211480953600725000000000000000   10300001F00104100000000008400000000000000     
100   95030301100126550000000000045000000000045000002000000010410407251011265225204773800725223411626205   1030000900030000   554119000347190110000000214New Day Energy MTN     YANGONARTAUNG MMR11007251011265225200725000000000000000   10300001F00104100000000001350000000000000     
100   95050324082484780000000000295058000000295058002000000010410407251102475239912799990725999321747205   1030000900030000   541119001305190110000000968Ocean Mingalar MDY C 1 MANDALAYHARSI MMR11007251102475239910725000000000000000   10300001F00104100000000073765000000000000     
100   62911028202319090000000000050150000000050150002000000010410407240744020004454773800724220514000445   1030000500030000   591220020501005105912200205MINGALAR PHARMACY      PTN           MMR11007240744020004450724000000000000000   10300001 00104100000000003009000000000000     
100   62911028202151340000000000014250000000014250002000000010410407240440100002584773800724220511000258   1030000500030000   581220264201000085812202642BREAD TALK             PTN           MMR11007240440100002580724000000000000000   10300001 00104100000000001454000000000000     
100   95050326228858240000000000055596000000055596002000000010410407240745020004200167940724220514000420   1030000500030000   581220214501000085812202145CHILLI POT MALA XIANG  PTN           MMR11007240745020004200724000000000000000   10300001 00104100000000023629000000000000     
100   95050321455580800000000000037706000000037706002000000010410407241204580000407834690724000357227088   1030000300030000   531100000604000000000000408CB BANK                CAPITAL HYPER MMR11007241204580000400724000000000000000   10300001F00104100000000009050000000000000     
100   95050327285327260000000000027950000000027950002000000010410407240750400000526862980724000357190323   1030000300030000   541100000088000000000000028CB BANK                ONE STOP KITC MMR11007240750400000520724000000000000000   10300001F00104100000000006988000000000000     
100   62911028202446540000000000022000000000022000002000000010410407241133290022594773800724220518002259   1030000500030000   598320002101000015172200021MAX ENERGY             PTN           MMR11007241133290022590724000000000000000   10300001 00104100000000000660000000000000     
100   95050323749862420000000000030000000000030000002000000010410407240212220010908641920724220508001090   1030000500030000   598320001304000015172200013MAX ENERGY             PTN           MMR11007240212220010900724000000000000000   10300001 00104100000000003600000000000000     
100   62911028202822250000000000040000000000040000002000000010410407240241110012224773800724220509001222   1030000500030000   598320041904000055983200419MAX ENERGY             PTN           MMR11007240241110012220724000000000000000   10300001 00104100000000001200000000000000     
100   95050316717221100000000000000990000000000990002000000010410407250948121812351658080725000007539615   1020000200030000   333400010001204104000000281Myanmar Soft-Gate Tech Yangon        MMR11007250948121812350725000000000000000   10300001F05104100000000000208000000000000     
100   95050311121153200000000000000990000000000990002000000010410407251055302530211232600725000007539932   1020000200030000   333400010001204104000000281Myanmar Soft-Gate Tech Yangon        MMR11007251055302530210725000000000000000   10300001F05104100000000000208000000000000     
100   95050310427855490000000000000990000000000990002000000010410407251210244024365764570725000007540173   1020000200030000   333400010001204104000000281Myanmar Soft-Gate Tech Yangon        MMR11007251210244024360725000000000000000   10300001F05104100000000000208000000000000     
100   62911028202197630000000000008000000000008000002000000010410407220943400294404773800722220309029440   1030000600030000   554100002319315799420000477DENKO INSEIN           YANGON        MMR11007220943400294400722000000000000000   10300001 00104100000000000240000000000000     
100   62911028202313470000000000046000000000046000002000000010410407240516450001814773800724220511000181   1030000500030000   806220046403006308062200464ASIA ROYAL HOSPITAL    PTN           MMR11007240516450001810724000000000000000   10300001 00104100000000002760000000000000     
100   95030308100042590000000000044000000000044000002000000010410407241216030016634773800724220518001663   1030000500030000   598320001704000015172200017MAX ENERGY             PTN           MMR11007241216030016630724000000000000000   10300001 00104100000000001320000000000000     
100   62911028202611530000000000020233000000020233002000000010410407251821240177054773800725000750724286   1030000200030000   541188001306000008000000325KBZ BANK               CITY MART - A MMR11007251821240177050725000000000000000   10300001 00104100000000001214000000000000     
100   62443100395250310000000000000990000000000990002000000010410407250357512751327458650725000007537215   1020000200030000   333400010001204104000000281Myanmar Soft-Gate Tech Yangon        MMR11007250357512751320725000000000000000   10300001F05104100000000000208000000000000     
100   62911028202659640000000000064850000000064850002000000010410407240614190011124773800724220512001112   1030000500030000   541120229107000045411202291CITY MART YANKIN       PTN           MMR11007240614190011120724000000000000000   10300001 00104100000000003891000000000000     
100   95030325264619140000000000025000000000025000002000000010410407240316270021794773800724220509002179   1030000500030000   598320001602000015172200016MAX ENERGY             PTN           MMR11007240316270021790724000000000000000   10300001 00104100000000000750000000000000     
100   62911028202074950000000000001800000000001800002000000010410407240310340013014773800724220509001301   1030000500030000   541120227507000045411202275CITY MART (AHLONE BRAN PTN           MMR11007240310340013010724000000000000000   10300001 00104100000000000108000000000000     
100   62443100363668680000000000030900000000030900002000000010410407241213220009704444620724220518000970   1030000500030000   581220041801000055812200418SHWE LAR HOT POT       PTN           MMR11007241213220009700724000000000000000   10300001 00104100000000013133000000000000     
100   95030363090756500000000000020000000000020000002000000010410407240335510017474773800724000357154909   1030000300030000   598300001213000000000000820CB BANK                SHWE TAUNG EN MMR11007240335510017470724000000000000000   10300001F00104100000000000600000000000000     
100   62911028202506770000000000003000000000003000002000000010410407241005220013114773800724220516001311   1030000500030000   541120227507000045411202275CITY MART (AHLONE BRAN PTN           MMR11007241005220013110724000000000000000   10300001 00104100000000000180000000000000     
100   62911028202506770000000000004600000000004600002000000010410407241002510019294773800724220516001929   1030000500030000   541120227503000045411202275CITY MART (AHLONE BRAN PTN           MMR11007241002510019290724000000000000000   10300001 00104100000000000276000000000000     
100   62911028202503210000000000053200000000053200002000000010410407240710350018164773800724220513001816   1030000500030000   531120226733000045311202267OCEAN NORTH POINT      PTN           MMR11007240710350018160724000000000000000   10300001 00104100000000003192000000000000     
100   62911028202355870000000001000000000001000000002000000010410407250812594259074773800725000007539059   1040001600030000   333800010001220104000004507A +                    Yangon        MMR11007250812594259070725000000000000000   10300001F05104100000000210000000000000000     
100   95050310332595380000000000000990000000000990002000000010410407251025265526419324830725000007539811   1020000200030000   333400010001204104000000281Myanmar Soft-Gate Tech Yangon        MMR11007251025265526410725000000000000000   10300001F05104100000000000208000000000000     
100   95050316601084530000000000000990000000000990002000000010410407250414584458182344790725000007537408   1020000200030000   333400010001204104000000281Myanmar Soft-Gate Tech Yangon        MMR11007250414584458180725000000000000000   10300001F05104100000000000208000000000000     
100   95050318141561190000000000010000000000010000002000000010410407251052012201357927630725000007539924   1040001600030000   333800010001220104000004507A +                    Yangon        MMR11007251052012201350725000000000000000   10300001F05104100000000002100000000000000     
100   62911028202319090000000000011700000000011700002000000010410407240328130001614773800724220509000161   1030000500030000   591220011201014405912200112SHWE OHH PHARMACY      PTN           MMR11007240328130001610724000000000000000   10300001 00104100000000000702000000000000     
100   62911028202207380000000000011600000000011600002000000010410407240414530254874773800724220511025487   1040001600030000   541120000559000000010000465Ocean Shwe Gone Daing  Yangon        MMR11007240414530254870724000000000000000   10300001F00104100000000000696000000000000     
100   95050325455962190000000000001980000000001980002000000010410407251404223422520395430725000007540542   1020000200030000   333400010001204104000000281Myanmar Soft-Gate Tech Yangon        MMR11007251404223422520725000000000000000   10300001F05104100000000000416000000000000     
100   95050310494988230000000000002970000000002970002000000010410407250714264426899785970725000007538663   1020000200030000   333400010001204104000000281Myanmar Soft-Gate Tech Yangon        MMR11007250714264426890725000000000000000   10300001F05104100000000000624000000000000     
100   95050325925517520000000000026025000000026025002000000010410407240430520021606217850724220511002160   1030000500030000   598320001604000015172200016MAX ENERGY             PTN           MMR11007240430520021600724000000000000000   10300001 00104100000000003123000000000000     
100   62911028202214130000000000018000000000018000002000000010410407240907040027674773800724220515002767   1030000500030000   598320001201000015172200012MAX ENERGY             PTN           MMR11007240907040027670724000000000000000   10300001 00104100000000000540000000000000     
100   62911028202581260000000000094506000000094506002000000010410407240852450031384773800724220515003138   1030000500030000   541120226807000045411202268CITY MART WAIZAYANDA   PTN           MMR11007240852450031380724000000000000000   10300001 00104100000000005670000000000000     
100   62911028202214130000000000012707000000012707002000000010410407241142170031384773800724220518003138   1030000500030000   598320001204000015172200012MAX ENERGY             PTN           MMR11007241142170031380724000000000000000   10300001 00104100000000000381000000000000     
100   62911028202448030000000000070010000000070010002000000010410407240849350031184773800724220515003118   1030000500030000   598320001204000015172200012MAX ENERGY             PTN           MMR11007240849350031180724000000000000000   10300001 00104100000000002100000000000000     
100   62911028202142930000000000017000000000017000002000000010410407240805310022284773800724220514002228   1030000500030000   598320002101000015172200021MAX ENERGY             PTN           MMR11007240805310022280724000000000000000   10300001 00104100000000000510000000000000     
100   62911028202417260000000000015000000000015000002000000010410407241238300029764773800724220519002976   1030000500030000   598320001403000015172200014MAX ENERGY             PTN           MMR11007241238300029760724000000000000000   10300001 00104100000000000450000000000000     
100   62443100363668680000000000026000000000026000002000000010410407240741360020803558010724220514002080   1030000500030000   598320002102000015172200021MAX ENERGY             PTN           MMR11007240741360020800724000000000000000   10300001 00104100000000003120000000000000     
100   95050317084233280000000000014850000000014850002000000010410407250534480448433146320725000007538012   1020000200030000   333400010001204104000000281Myanmar Soft-Gate Tech Yangon        MMR11007250534480448430725000000000000000   10300001F05104100000000003119000000000000     
100   62443100355903280000000000001980000000001980002000000010410407251006243624903310570725000007539709   1020000200030000   333400010001204104000000281Myanmar Soft-Gate Tech Yangon        MMR11007251006243624900725000000000000000   10300001F05104100000000000416000000000000     
100   62911028202045260000000000020650000000020650002000000010410407240735220004134773800724220514000413   1030000500030000   541120203703000015411202037CITY MART SUPERMARKET  PTN           MMR11007240735220004130724000000000000000   10300001 00104100000000001239000000000000     
100   62911028202307860000000000023200000000023200002000000010410407241007040002154773800724220516000215   1030000500030000   541120129720000045411201297MAKRO MYANMAR          PTN           MMR11007241007040002150724000000000000000   10300001 00104100000000001392000000000000     
100   95030399326190680000000000023365000000023365002000000010410407251143115251364773800725618131811205   1030000900030000   541119001355190110000000977Ocean PZD C9           YANGONAUNG    MMR11007251143115251360725000000000000000   10300001F00104100000000001402000000000000     
100   95050329579110880000000000220000000000220000002000000010410407250509243924257848470725000007537824   1030000200030000   3338000100012031040000040022C2P (Myanmar) Co. Ltd Yangon        MMR11007250509243924250725000000000000000   10300001F05104100000000046200000000000000     
100   62911028202530930000000000077947000000077947002000000010410407240905150036144773800724220515003614   1030000500030000   541120226403000045411202264MARKET PLACE MYANMARPL PTN           MMR11007240905150036140724000000000000000   10300001 00104100000000004677000000000000     
100   95050324622440820000000000088700000000088700002000000010410407240301060018791606510724000357150505   1030000300030000   541100002348000000000000102CB BANK                MAKRO MYANMAR MMR11007240301060018790724000000000000000   10300001F00104100000000022175000000000000     
100   62911028202307860000000000077175000000077175002000000010410407241223060019634773800724220518001963   1030000500030000   598320002003000015172200020MAX ENERGY             PTN           MMR11007241223060019630724000000000000000   10300001 00104100000000002315000000000000     
100   62911028202139640000000000054382000000054382002000000010410407241124170026154773800724220517002615   1030000500030000   531120226721000045311202267OCEAN NORTH POINT      PTN           MMR11007241124170026150724000000000000000   10300001 00104100000000003263000000000000     
100   62911028202490830000000000610210000000610210002000000010410407240341510008554773800724220510000855   1030000500030000   806220046404006308062200464ASIA ROYAL HOSPITAL    PTN           MMR11007240341510008550724000000000000000   10300001 00104100000000036613000000000000     
100   62911028202464020000000000016650000000016650002000000010410407240535170020854773800724220512002085   1030000500030000   541120203704000015411202037CITY MART SUPERMARKET  PTN           MMR11007240535170020850724000000000000000   10300001 00104100000000000999000000000000     
100   62911028202527490000000000035000000000035000002000000010410407240958120022444773800724220516002244   1030000500030000   598320002101000015172200021MAX ENERGY             PTN           MMR11007240958120022440724000000000000000   10300001 00104100000000001050000000000000     
100   62911028202074950000000000015000000000015000002000000010410407240912390027484773800724220515002748   1030000500030000   598320001202000015172200012MAX ENERGY             PTN           MMR11007240912390027480724000000000000000   10300001 00104100000000000450000000000000     
100   62443100390038980000000000033100000000033100002000000010410407241221550009741054560724220518000974   1030000500030000   581220041801000055812200418SHWE LAR HOT POT       PTN           MMR11007241221550009740724000000000000000   10300001 00104100000000014068000000000000     
100   95030394609966640000000000005150000000005150002000000010410407240654300013174773800724220513001317   1030000500030000   541120020902022205411200209ORANGE (HLAING)        PTN           MMR11007240654300013170724000000000000000   10300001 00104100000000000309000000000000     
100   95050319207947610000000000016715000000016715002000000010410407240230260059958131340724000357146732   1030000300030000   541100000218000000000000113CB BANK                ONESTOP KITCH MMR11007240230260059950724000000000000000   10300001F00104100000000004179000000000000     
100   62911028202668300000000000020000000000020000002000000010410407240144470011304773800724220508001130   1030000500030000   598320001301000015172200013MAX ENERGY             PTN           MMR11007240144470011300724000000000000000   10300001 00104100000000000600000000000000     
100   62911028202656830000000000052450000000052450002000000010410407240608550330104773800724220513033010   1040001600030000   581420000079000000010000075Spicy Hot Pot Saya San Yangon        MMR11007240608550330100724000000000000000   10300001F00104100000000001574000000000000     
100   62911028202559990000000000028000000000028000002000000010410407240658110364684773800724220513036468   1040001600030000   598320001065000000010000785Yangon Petrol (Thudama Ygn           MMR11007240658110364680724000000000000000   10300001F00104100000000000840000000000000     
100   62911028202661370000000000096400000000096400002000000010410407230913400010214773800723220415001021   1030000500030000   531120226711000045311202267OCEAN NORTH POINT      PTN           MMR11007230913400010210723000000000000000   10300001 00104100000000005784000000000000     
100   95030303100034700000000000017800000000017800002000000010410407230902550015424773800723220415001542   1030000500030000   541120231302000045411202313CITY MART (AYEYARWON)  PTN           MMR11007230902550015420723000000000000000   10300001 00104100000000001068000000000000     
100   62443100398129000000000000165550000000165550002000000010410407251515190000281962820725000750729267   1030000200030000   581288002643000008000007150KBZ BANK               THE READING R MMR11007251515190000280725000000000000000   10300001 00104100000000070359000000000000     
100   62911028202120400000000000026300000000026300002000000010410407250714270018174773800725000750704272   1030000200030000   599988000603000008000003448KBZ BANK               SWEETY HOME(6 MMR11007250714270018170725000000000000000   10300001 00104100000000001578000000000000     
100   62911028202150190000000000007500000000007500002000000010410407250513110015974773800725000750690837   1030000200030000   541188001628000008000000008KBZ BANK               MARKETPLACE - MMR11007250513110015970725000000000000000   10300001 00104100000000000450000000000000     
100   95050314534800510000000000000990000000000990002000000010410407250332570257211359290725000007536999   1020000200030000   333400010001204104000000281Myanmar Soft-Gate Tech Yangon        MMR11007250332570257210725000000000000000   10300001F05104100000000000208000000000000     
100   62911028202093430000000000002970000000002970002000000010410407250135190519124773800725000007536475   1020000200030000   333400010001204104000000281Myanmar Soft-Gate Tech Yangon        MMR11007250135190519120725000000000000000   10300001F05104100000000000624000000000000     
100   62911028202467900000000000096200000000096200002000000010410407251242150279284773800725000750697781   1030000200030000   541188001059000008000000314KBZ BANK               MARKETPLACE - MMR11007251242150279280725000000000000000   10300001 00104100000000005772000000000000     
100   62443100398129000000000000014300000000014300002000000010410407251513190039346920270725000750729242   1030000200030000   581288000389000008000002776KBZ BANK               RANGOON TEA H MMR11007251513190039340725000000000000000   10300001 00104100000000006078000000000000     
100   62911028202093430000000000000990000000000990002000000010410407250136290629604773800725000007536480   1020000200030000   333400010001204104000000281Myanmar Soft-Gate Tech Yangon        MMR11007250136290629600725000000000000000   10300001F05104100000000000208000000000000     
100   62911028202819790000000000020000000000020000002000000010410407250935151201084773800725220616120108   1040001600030000   581420000961000000010000708Imperial Garden (Sein  Yangon        MMR11007250935151201080725000000000000000   10300001F00104100000000000600000000000000     
100   95050329613303740000000000020000000000020000002000000010410407250931540154441402790725000007539516   1030000200030000   333800010001203104000003327KBZPay                 Yangon        MMR11007250931540154440725000000000000000   10300001F05104100000000004200000000000000     
100   62911028202290100000000000044000000000044000002000000010410407250910281185844773800725220616118584   1040001600030000   598320001170000000010000527Shwe Taung Energy (YGN Yangon        MMR11007250910281185840725000000000000000   10300001F00104100000000001320000000000000     
100   62911028202110420000000000081500000000081500002000000010410407251918560075374773800725000750726652   1030000200030000   541188001004000008000000008KBZ BANK               MARKETPLACE - MMR11007251918560075370725000000000000000   10300001 00104100000000004890000000000000     
100   62443101006037900000000000053600000000053600002000000010410407250431080108953571800725000007537532   1030000200030000   333300010001203104000003632Myanmar Tradenet Test  Yangon        MMR11007250431080108950725000000000000000   10300001F05104100000000010000000000000000     
100   62911028202684060000000000043000000000043000002000000010410407250335220994694773800725220610099469   1040001600030000   598320000658000000010000527Shwe Taung Energy (YGN Yangon        MMR11007250335220994690725000000000000000   10300001F00104100000000001290000000000000     
100   62911028202651050000000000023502000000023502002000000010410407250930330385604773800725000750677087   1030000200030000   541188001041000008000000010KBZ BANK               MARKETPLACE - MMR11007250930330385600725000000000000000   10300001 00104100000000001410000000000000     
100   62911028202281450000000000123600000000123600002000000010410407250355401003914773800725220610100391   1040001600030000   591220000287000000010000275Shwe Ohh Pharmacy (Wit Yangon        MMR11007250355401003910725000000000000000   10300001F00104100000000007416000000000000     
100   62911028202523840000000000018460000000018460002000000010410407250307160981644773800725220610098164   1040001600030000   591220000261000000010000249Shwe Ohh Pharmacy (Thi Yangon        MMR11007250307160981640725000000000000000   10300001F00104100000000001108000000000000     
100   62911028202290100000000000044900000000044900002000000010410407250535311063094773800725220612106309   1040001600030000   591220000295000000010000283Shwe Ohh Pharmacy (39t Yangon        MMR11007250535311063090725000000000000000   10300001F00104100000000002694000000000000     
100   95050323576695670000000000024950000000024950002000000010410407251819410180682119220725000750724197   1030000200030000   541188001056000008000000314KBZ BANK               MARKETPLACE - MMR11007251819410180680725000000000000000   10300001 00104100000000006238000000000000     
100   95050311736839760000000000000990000000000990002000000010410407250331150115249706810725000007537000   1020000200030000   333400010001204104000000281Myanmar Soft-Gate Tech Yangon        MMR11007250331150115240725000000000000000   10300001F05104100000000000208000000000000     
100   95050318416662540000000000010060000000010060002000000010410407251433290329330310330725000007540634   1030000200030000   333800010001203104000003327KBZPay                 Yangon        MMR11007251433290329330725000000000000000   10300001F05104100000000002113000000000000     
100   62911028202469070000000000035050000000035050002000000010410407250414541013714773800725220611101371   1040001600030000   591220001007000000010000737Shwe Ohh Pharmacy (Tan Ygn           MMR11007250414541013710725000000000000000   10300001F00104100000000002103000000000000     
100   62911028202207040000000000032050000000032050002000000010410407250225580960924773800725220609096092   1040001600030000   591220001007000000010000737Shwe Ohh Pharmacy (Tan Ygn           MMR11007250225580960920725000000000000000   10300001F00104100000000001923000000000000     
100   62911028202201670000000000017588000000017588002000000010410407251235480141964773800725000750697014   1030000200030000   541188001081000008000000294KBZ BANK               CITY MART - J MMR11007251235480141960725000000000000000   10300001 00104100000000001055000000000000     
100   62911028202421380000000000026400000000026400002000000010410407251609580142064773800725000750716917   1030000200030000   541188001081000008000000294KBZ BANK               CITY MART - J MMR11007251609580142060725000000000000000   10300001 00104100000000001584000000000000     
100   95050316949180000000000000002970000000002970002000000010410407251434420442575352880725000007540638   1020000200030000   333400010001204104000000281Myanmar Soft-Gate Tech Yangon        MMR11007251434420442570725000000000000000   10300001F05104100000000000624000000000000     
100   95050313817486860000000000004950000000004950002000000010410407250339150915684579160725000007537033   1020000200030000   333400010001204104000000281Myanmar Soft-Gate Tech Yangon        MMR11007250339150915680725000000000000000   10300001F05104100000000001040000000000000     
100   62911028202139640000000000300000000000300000002000000010410407250401033103314773800725000007537252   1030000200030000   333800010001203104000003327KBZPay                 Yangon        MMR11007250401033103310725000000000000000   10300001F05104100000000063000000000000000     
100   95050313400081980000000000007000000000007000002000000010410407250213164316378564900725000007536618   1030000200030000   333800010001203104000003327KBZPay                 Yangon        MMR11007250213164316370725000000000000000   10300001F05104100000000001470000000000000     
100   95050315110306410000000000003000000000003000002000000010410407251505403540187005360725000007540716   1030000200030000   333800010001203104000003327KBZPay                 Yangon        MMR11007251505403540180725000000000000000   10300001F05104100000000000630000000000000     
100   95050316601084530000000000001980000000001980002000000010410407250318174817863352160725000007536922   1020000200030000   333400010001204104000000281Myanmar Soft-Gate Tech Yangon        MMR11007250318174817860725000000000000000   10300001F05104100000000000416000000000000     
100   95050313497815710000000000003000000000003000002000000010410407250343261326659026030725000007537050   1030000200030000   333800010001203104000003327KBZPay                 Yangon        MMR11007250343261326650725000000000000000   10300001F05104100000000000630000000000000     
100   95030306100096490000000000002970000000002970002000000010410407250043501350504773800725000007536363   1020000200030000   333400010001204104000000281Myanmar Soft-Gate Tech Yangon        MMR11007250043501350500725000000000000000   10300001F05104100000000000624000000000000     
100   95050312641885210000000000009900000000009900002000000010410407250159032903821954960725000007536560   1020000200030000   333400010001204104000000281Myanmar Soft-Gate Tech Yangon        MMR11007250159032903820725000000000000000   10300001F05104100000000002079000000000000     
100   95050319161596230000000000001980000000001980002000000010410407251253342334875679480725000007540314   1020000200030000   333400010001204104000000281Myanmar Soft-Gate Tech Yangon        MMR11007251253342334870725000000000000000   10300001F05104100000000000416000000000000     
100   95050327192897240000000000002970000000002970002000000010410407250600353035235940710725000007538173   1020000200030000   333400010001204104000000281Myanmar Soft-Gate Tech Yangon        MMR11007250600353035230725000000000000000   10300001F05104100000000000624000000000000     
100   95030301954234130000000000030000000000030000002000000010410407250759562956434773800725000007538970   1030000200030000   333800010001203104000003327KBZPay                 Yangon        MMR11007250759562956430725000000000000000   10300001F05104100000000006300000000000000     
100   62911028202355870000000001000000000001000000002000000010410407250812054205044773800725000007539055   1040001600030000   333800010001220104000004507A +                    Yangon        MMR11007250812054205040725000000000000000   10300001F05104100000000210000000000000000     
100   62443100381661260000000000005500000000005500002000000010410407250200235098760217390725031300823205   1030000900030000   591219000969190110000000776Shwe Ohh Pharmacy St ( YANGONADA     MMR11007250200235098760725000000000000000   10300001F00104100000000001320000000000000     
100   95050313400081980000000000001000000000001000002000000010410407251522475247503615300725000007540766   1030000200030000   333800010001203104000003327KBZPay                 Yangon        MMR11007251522475247500725000000000000000   10300001F05104100000000000210000000000000     
100   95050314775367220000000000067500000000067500002000000010410407250602233223660898160725000007538163   1030000200030000   333800010001203104000003327KBZPay                 Yangon        MMR11007250602233223660725000000000000000   10300001F05104100000000014175000000000000     
100   95050327531396450000000000200000000000200000002000000010410407250705113511502835640725000007538598   1030000200030000   333800010001203104000003327KBZPay                 Yangon        MMR11007250705113511500725000000000000000   10300001F05104100000000042000000000000000     
100   95050317834964620000000000001500000000001500002000000010410407251108515241702204310725088381751205   1030000900030000   541119001371190110000000978Ocean PZD Season C 1   YANGONAUNG    MMR11007251108515241700725000000000000000   10300001F00104100000000000375000000000000     
100   62911028202116120000000000090900000000090900002000000010410407251218555261244773800725200481855205   1030000900030000   591219001556190110000001130Life Plus Store 35     YANGON        MMR11007251218555261240725000000000000000   10300001F00104100000000005454000000000000     
100   62911028202294570000000000020950000000020950002000000010410407251245195268454773800725634151919205   1030000900030000   541119001263190110000000958City Mart PLST C 6     YANGONMYOTHIT MMR11007251245195268450725000000000000000   10300001F00104100000000001257000000000000     
100   95030306100096490000000000000990000000000990002000000010410407251355542554954773800725000007540523   1020000200030000   333400010001204104000000281Myanmar Soft-Gate Tech Yangon        MMR11007251355542554950725000000000000000   10300001F05104100000000000208000000000000     
100   95050314557307430000000000012870000000012870002000000010410407250609403940463346220725000007538231   1020000200030000   333400010001204104000000281Myanmar Soft-Gate Tech Yangon        MMR11007250609403940460725000000000000000   10300001F05104100000000002703000000000000     
100   95050321084131410000000000300000000000300000002000000010410407251100003000341147510725000007539939   1030000200030000   333800010001203104000003327KBZPay                 Yangon        MMR11007251100003000340725000000000000000   10300001F05104100000000063000000000000000     
100   95050318617855880000000000000990000000000990002000000010410407250958502850216615540725000007539672   1020000200030000   333400010001204104000000281Myanmar Soft-Gate Tech Yangon        MMR11007250958502850210725000000000000000   10300001F05104100000000000208000000000000     
100   95050312695033440000000000005940000000005940002000000010410407250414264426395649760725000007537406   1020000200030000   333400010001204104000000281Myanmar Soft-Gate Tech Yangon        MMR11007250414264426390725000000000000000   10300001F05104100000000001247000000000000     
100   62911028202355870000000001000000000001000000002000000010410407250812414241234773800725000007539057   1040001600030000   333800010001220104000004507A +                    Yangon        MMR11007250812414241230725000000000000000   10300001F05104100000000210000000000000000     
100   95050311959900780000000000000990000000000990002000000010410407250858352835455133240725000007539331   1020000200030000   333400010001204104000000281Myanmar Soft-Gate Tech Yangon        MMR11007250858352835450725000000000000000   10300001F05104100000000000208000000000000     
100   95030301100103860000000000006050000000006050002000000010410407251046105235454773800725774161710205   1030000900030000   541119000120190110000000080Sein Gay Har BAK       YANGONADA     MMR11007251046105235450725000000000000000   10300001F00104100000000000363000000000000     
100   95050323233042810000000000000990000000000990002000000010410407250300043004649791910725000007536822   1020000200030000   333400010001204104000000281Myanmar Soft-Gate Tech Yangon        MMR11007250300043004640725000000000000000   10300001F05104100000000000208000000000000     
100   62911028202355870000000001000000000001000000002000000010410407250811284128234773800725000007539052   1040001600030000   333800010001220104000004507A +                    Yangon        MMR11007250811284128230725000000000000000   10300001F05104100000000210000000000000000     
100   62911028202093430000000000000990000000000990002000000010410407250405223522594773800725000007537294   1020000200030000   333400010001204104000000281Myanmar Soft-Gate Tech Yangon        MMR11007250405223522590725000000000000000   10300001F05104100000000000208000000000000     
100   95050315099113150000000000000990000000000990002000000010410407250605233523733431320725000007538203   1020000200030000   333400010001204104000000281Myanmar Soft-Gate Tech Yangon        MMR11007250605233523730725000000000000000   10300001F05104100000000000208000000000000     
100   95050317084233280000000000000979000000000979002000000010410407250708063806116566090725000007538619   1020000200030000   333400010001204104000000281Myanmar Soft-Gate Tech Yangon        MMR11007250708063806110725000000000000000   10300001F05104100000000000205000000000000     
100   95050319006804440000000000000990000000000990002000000010410407250645051505790211450725000007538452   1020000200030000   333400010001204104000000281Myanmar Soft-Gate Tech Yangon        MMR11007250645051505790725000000000000000   10300001F05104100000000000208000000000000     
100   62443100395250310000000000000990000000000990002000000010410407250401273127439111140725000007537248   1020000200030000   333400010001204104000000281Myanmar Soft-Gate Tech Yangon        MMR11007250401273127430725000000000000000   10300001F05104100000000000208000000000000     
100   95050314749068520000000000170000000000170000002000000010410407250615074507926651190725000007538268   1030000200030000   333800010001203104000003327KBZPay                 Yangon        MMR11007250615074507920725000000000000000   10300001F05104100000000035700000000000000     
100   95050315122972560000000000030000000000030000002000000010410407250550422042918990380725000007538106   1040001600030000   333800010001220104000004507A +                    Yangon        MMR11007250550422042910725000000000000000   10300001F05104100000000006300000000000000     
100   95050328074436620000000000021400000000021400002000000010410407250346021602850678520725000007537086   1030000300030000   333300010001206104000000984Mandalar Min Express   Yangon        MMR11007250346021602850725000000000000000   10300001F05104100000000010000000000000000     
100   95050316785465380000000000001980000000001980002000000010410407250415374537853997280725000007537414   1020000200030000   333400010001204104000000281Myanmar Soft-Gate Tech Yangon        MMR11007250415374537850725000000000000000   10300001F05104100000000000416000000000000     
100   95050324411430900000000000100000000000100000002000000010410407250918034803959835410725000007539436   1030000300030000   333300010001206104000002147DICA Company Limited   Yangon        MMR11007250918034803950725000000000000000   10300001F05104100000000010000000000000000     
100   95050316067768680000000000001980000000001980002000000010410407250916404640258693500725000007539434   1020000200030000   333400010001204104000000281Myanmar Soft-Gate Tech Yangon        MMR11007250916404640250725000000000000000   10300001F05104100000000000416000000000000     
100   95050312641885210000000000004950000000004950002000000010410407250748191819085970420725000007538895   1020000200030000   333400010001204104000000281Myanmar Soft-Gate Tech Yangon        MMR11007250748191819080725000000000000000   10300001F05104100000000001040000000000000     
