100   62443100306416880000000000017423000000017423002000000010410407230847139636423379740723220415963642   1040001600030000   541120000559000000010000465Ocean Shwe Gone Daing  Yangon        MMR11007230847139636420723000000000000000   10300001F00104100000000004356000000000000     
100   62911028202319090000000000035000000000035000002000000010410407230302549414154773800723220410941415   1040001600030000   591220000043000000010000041Mingalar Pharmacy      Yangon        MMR11007230302549414150723000000000000000   10300001F00104100000000002100000000000000     
100   62911028202031710000000000050000000000050000002000000010410407230504019486864773800723220412948686   1040001600030000   598320000916000000010000664MMTM - North Dagon     Ygn           MMR11007230504019486860723000000000000000   10300001F00104100000000001500000000000000     
100   62911028202916630000000000025000000000025000002000000010410407231121289764154773800723220418976415   1040001600030000   598320000916000000010000664MMTM - North Dagon     Ygn           MMR11007231121289764150723000000000000000   10300001F00104100000000000750000000000000     
100   62911028202421040000000000052990000000052990002000000010410407261106070005574773800726000750782935   1030000200030000   569988000190000008000004350KBZ BANK               GIO  BSX (9ML MMR11007261106070005570726000000000000000   10300001 00104100000000003179000000000000     
100   62911028202147720000000000009200000000009200002000000010410407261546170028414773800726000750776634   1030000200030000   541188001311000008000000325KBZ BANK               CITY MART - A MMR11007261546170028410726000000000000000   10300001 00104100000000000552000000000000     
100   62443100383487320000000000275000000000275000002000000010410407260631120009845772650726000750762996   1030000200030000   597788000925000008000001861KBZ BANK               ESTEE LAUDER( MMR11007260631120009840726000000000000000   10300001 00104100000000066000000000000000     
100   95050322328337270000000000027000000000027000002000000010410407261747020053168446290726000750783496   1030000200030000   541188001465000008000000391KBZ BANK               OCEAN SUPER C MMR11007261747020053160726000000000000000   10300001 00104100000000006750000000000000     
100   95050329720609600000000000201000000000201000002000000010410407261434450141419722730726000750771653   1030000200030000   541188001065000008000000314KBZ BANK               MARKETPLACE - MMR11007261434450141410726000000000000000   10300001 00104100000000050250000000000000     
100   62443101065883000000000000044065000000044065002000000010410407251043270019702544700725220617001970   1030000500030000   541120227503000045411202275CITY MART (AHLONE BRAN PTN           MMR11007251043270019700725000000000000000   10300001 00104100000000011017000000000000     
100   62443100395964530000000000023200000000023200002000000010410407250330510024734323870725000357328114   1030000300030000   581200001812000000000001296CB BANK                SP BAKERY (YA MMR11007250330510024730725000000000000000   10300001F00104100000000009860000000000000     
100   95050322426452690000000000034700000000034700002000000010410407260233041727752849430726220709172775   1040001600030000   598320000320000000010000308PT Power Petrol Statio Yangon        MMR11007260233041727750726000000000000000   10300001F00104100000000004164000000000000     
100   62443100300412100000000000033000000000033000002000000010410407250550561011894032930725220605101189   1030000600030000   554100000946315799420000471DENKO BAHAN            YANGON        MMR11007250550561011890725000000000000000   10300001 00104100000000003960000000000000     
100   62443100303702210000000000390000000000390000002000000010410407240734030081637189570724220507008163   1030000600030000   554100002404315799420000480DENKO N.DAGON - 3      YANGON        MMR11007240734030081630724000000000000000   10300001 00104100000000046800000000000000     
100   95050324154190880000000000018000000000018000002000000010410407231211101008085592240723220412100808   1030000600030000   554100000946315799420000471DENKO BAHAN            YANGON        MMR11007231211101008080723000000000000000   10300001 00104100000000002160000000000000     
100   95050316769671810000000000002970000000002970002000000010410407260200273027933530200726000007541472   1020000200030000   333400010001204104000000281Myanmar Soft-Gate Tech Yangon        MMR11007260200273027930726000000000000000   10300001F05104100000000000624000000000000     
100   95050321188471220000000000008936000000008936002000000010410407261048090022597310090726000750749251   1030000200030000   541188001479000008000000399KBZ BANK               OCEAN SUPERCE MMR11007261048090022590726000000000000000   10300001 00104100000000002234000000000000     
100   95050315344668630000000000012500000000012500002000000010410407251009310016334877950725220616001633   1030000500030000   541120203705000015411202037CITY MART SUPERMARKET  PTN           MMR11007251009310016330725000000000000000   10300001 00104100000000003125000000000000     
100   62911028202004330000000000013400000000013400002000000010410407251151210024734773800725220618002473   1030000500030000   531120226317000045311202263OCEAN SUPER CENTER STJ PTN           MMR11007251151210024730725000000000000000   10300001 00104100000000000804000000000000     
100   62911028202201670000000000004700000000004700002000000010410407250546120002824773800725220612000282   1030000500030000   581220264201000085812202642BREAD TALK             PTN           MMR11007250546120002820725000000000000000   10300001 00104100000000000479000000000000     
100   62911028202331290000000000069700000000069700002000000010410407251016040002724773800725220616000272   1030000500030000   591220014201014405912200142SHWE OHH PHARMACY      PTN           MMR11007251016040002720725000000000000000   10300001 00104100000000004182000000000000     
100   62911028202116120000000000142168000000142168002000000010410407251200550004194773800725220618000419   1030000500030000   591220010401014405912200104SHWE OHH PHARMACY      PTN           MMR11007251200550004190725000000000000000   10300001 00104100000000008530000000000000     
100   62443101065883000000000000038550000000038550002000000010410407251050030011759580120725220617001175   1030000500030000   541120227505000045411202275CITY MART (AHLONE BRAN PTN           MMR11007251050030011750725000000000000000   10300001 00104100000000009638000000000000     
100   62911028202448030000000000055504000000055504002000000010410407250931470028724773800725220616002872   1030000500030000   598320001202000015172200012MAX ENERGY             PTN           MMR11007250931470028720725000000000000000   10300001 00104100000000001665000000000000     
100   95030363090756500000000000030000000000030000002000000010410407261150212080884773800726220718208088   1040001600030000   598320000660000000010000529Shwe Taung Energy (NPT Naypyitaw     MMR11007261150212080880726000000000000000   10300001F00104100000000000900000000000000     
100   95050319709462380000000000001000000000001000002000000010410407261105223522351921450726000007545234   1030000200030000   3338000100012031040000040022C2P (Myanmar) Co. Ltd Yangon        MMR11007261105223522350726000000000000000   10300001F05104100000000000210000000000000     
100   95050314538419220000000000011150000000011150002000000010410407261157335511929772180726423271833206   1030000900030000   541119000123190110000000080Sein Gay Har BAK       YANGON        MMR11007261157335511920726000000000000000   10300001F00104100000000002788000000000000     
100   62911028202110420000000000029950000000029950002000000010410407261128526597254773800726058522648844   1040001400030000   592110000076015921100000365Million Mart Million M rt No. (519/  MMR11007261128526597250726000000000000000   10300001 00104100000000001797000000000000     
100   95050318699187280000000000005500000000005500002000000010410407261248451845499687080726000007545568   1030000500030000   333800010001201104000003236Paymal                 Yangon        MMR11007261248451845490726000000000000000   10300001F05104100000000001155000000000000     
100   62911028202355870000000001000000000001000000002000000010410407260933580358194773800726000007544806   1030000600030000   333800010001230104000004564Trusty Wallet          Yangon        MMR11007260933580358190726000000000000000   10300001F05104100000000210000000000000000     
100   95050314307746340000000000000990000000000990002000000010410407251708173817737345750726000007540995   1020000200030000   333400010001204104000000281Myanmar Soft-Gate Tech Yangon        MMR11007251708173817730726000000000000000   10300001F05104100000000000208000000000000     
100   62911028202197630000000000016000000000016000002000000010410407240934040464194773800724220516046419   1040001600030000   598320001456000000010001150360 Petro (Bayint Naun Ygn           MMR11007240934040464190724000000000000000   10300001F00104100000000000480000000000000     
100   62911028202651050000000000021750000000021750002000000010410407250231370004704773800725220609000470   1030000500030000   591220013601014405912200136SHWE OHH PHARMACY      PTN           MMR11007250231370004700725000000000000000   10300001 00104100000000001305000000000000     
100   95050315005801680000000000019050000000019050002000000010410407251212040013252459600725220618001325   1030000500030000   531120226718000045311202267OCEAN NORTH POINT      PTN           MMR11007251212040013250725000000000000000   10300001 00104100000000004572000000000000     
100   62911028202443730000000000017950000000017950002000000010410407250426150018894773800725220610001889   1030000500030000   531120226318000045311202263OCEAN SUPER CENTER STJ PTN           MMR11007250426150018890725000000000000000   10300001 00104100000000001077000000000000     
100   62443100379321630000000000003300000000003300002000000010410407250756460015329020100725220614001532   1030000500030000   541120226206000045411202262CITY MART ZAWANA       PTN           MMR11007250756460015320725000000000000000   10300001 00104100000000000825000000000000     
100   95050324826664210000000000038000000000038000002000000010410407250936200029685048150725220616002968   1030000500030000   598320001402000015172200014MAX ENERGY             PTN           MMR11007250936200029680725000000000000000   10300001 00104100000000004560000000000000     
100   95050324836095860000000000022978000000022978002000000010410407250925120009209750310725220615000920   1030000500030000   531120231215000045311202312OCEAN OATTARA THIRI    PTN           MMR11007250925120009200725000000000000000   10300001 00104100000000005515000000000000     
100   62443101023815100000000000009855000000009855002000000010410407250413290023183912180725220610002318   1030000500030000   541120227504000045411202275CITY MART (AHLONE BRAN PTN           MMR11007250413290023180725000000000000000   10300001 00104100000000002464000000000000     
100   62911028202031710000000000017000000000017000002000000010410407251031360029584773800725220617002958   1030000500030000   598320001302000015172200013MAX ENERGY             PTN           MMR11007251031360029580725000000000000000   10300001 00104100000000000510000000000000     
100   62443100300412100000000000112959000000112959002000000010410407240718170066790239250724220507006679   1030000600030000   581200002287315799420000141FUJI COFFEE HOUSE      YANGON        MMR11007240718170066790724000000000000000   10300001 00104100000000048008000000000000     
100   95050320559934420000000000103600000000103600002000000010410407251057550022207842540725220617002220   1030000500030000   541120229106000045411202291CITY MART YANKIN       PTN           MMR11007251057550022200725000000000000000   10300001 00104100000000025900000000000000     
100   62443100379321630000000000018600000000018600002000000010410407250715480015301438450725220613001530   1030000500030000   541120226206000045411202262CITY MART ZAWANA       PTN           MMR11007250715480015300725000000000000000   10300001 00104100000000004650000000000000     
100   95030325264619140000000000010500000000010500002000000010410407250537150053184773800725000357350383   1030000300030000   541100000254000000000000126CB BANK                UNITED LIVING MMR11007250537150053180725000000000000000   10300001F00104100000000000630000000000000     
100   62911028202807400000000000580000000000580000002000000010410407250624520000774773800725220612000077   1030000500030000   573220034701005905732200347EXCELLENCE ELECTRONIC  PTN           MMR11007250624520000770725000000000000000   10300001 00104100000000034800000000000000     
100   62911028202045260000000000021300000000021300002000000010410407251014150005864773800725220616000586   1030000500030000   541120233301000045411202333CITY EXPRESS (MCS - 19 PTN           MMR11007251014150005860725000000000000000   10300001 00104100000000001278000000000000     
100   62911028202792960000000000013200000000013200002000000010410407250934520008854773800725220616000885   1030000500030000   541120227608000045411202276CITY MART ( 47 BRANCH  PTN           MMR11007250934520008850725000000000000000   10300001 00104100000000000792000000000000     
100   95050324154190880000000000017500000000017500002000000010410407250850330003486785730725220615000348   1030000500030000   573220040101000015732200401REMAX                  PTN           MMR11007250850330003480725000000000000000   10300001 00104100000000004200000000000000     
100   95050324947866880000000000013875000000013875002000000010410407251210200013247417060725220618001324   1030000500030000   531120226718000045311202267OCEAN NORTH POINT      PTN           MMR11007251210200013240725000000000000000   10300001 00104100000000003330000000000000     
100   62911028202684060000000000036900000000036900002000000010410407250517520016224773800725220611001622   1030000500030000   531120226707000045311202267OCEAN NORTH POINT      PTN           MMR11007250517520016220725000000000000000   10300001 00104100000000002214000000000000     
100   62911028202792960000000000008650000000008650002000000010410407250941210016514773800725220616001651   1030000500030000   541120227606000045411202276CITY MART ( 47 BRANCH  PTN           MMR11007250941210016510725000000000000000   10300001 00104100000000000519000000000000     
100   62443100371022130000000000024387000000024387002000000010410407251120230012678899350725220617001267   1030000500030000   598320001304000015172200013MAX ENERGY             PTN           MMR11007251120230012670725000000000000000   10300001 00104100000000002926000000000000     
100   62443100355445150000000000015350000000015350002000000010410407251016530029071062410725220616002907   1030000500030000   541120227604000045411202276CITY MART ( 47 BRANCH  PTN           MMR11007251016530029070725000000000000000   10300001 00104100000000003838000000000000     
100   62911028202108460000000000040000000000040000002000000010410407250216470028584773800725220608002858   1030000500030000   598320001201000015172200012MAX ENERGY             PTN           MMR11007250216470028580725000000000000000   10300001 00104100000000001200000000000000     
100   62911028202443730000000000111203000000111203002000000010410407250349590023124773800725220610002312   1030000500030000   531120226307000045311202263OCEAN SUPER CENTER STJ PTN           MMR11007250349590023120725000000000000000   10300001 00104100000000006672000000000000     
100   62443100346413950000000000017500000000017500002000000010410407250111190029187082610725220607002918   1030000500030000   598320001001000015172200010MAX ENERGY             PTN           MMR11007250111190029180725000000000000000   10300001 00104100000000002100000000000000     
100   95030319910180840000000000015250000000015250002000000010410407250903570004164773800725220615000416   1030000500030000   591220010401014405912200104SHWE OHH PHARMACY      PTN           MMR11007250903570004160725000000000000000   10300001 00104100000000000915000000000000     
100   62911028202204490000000000030000000000030000002000000010410407251100400364324773800725220611036432   1030000600030000   554100002085315799420000471DENKO BAHAN            YANGON        MMR11007251100400364320725000000000000000   10300001 00104100000000000900000000000000     
100   62911028202126020000000000026950000000026950002000000010410407250334300031854773800725220610003185   1030000500030000   541120226807000045411202268CITY MART WAIZAYANDA   PTN           MMR11007250334300031850725000000000000000   10300001 00104100000000001617000000000000     
100   95030325264619140000000000016950000000016950002000000010410407250525540052054773800725000357348430   1030000300030000   541100000253000000000000126CB BANK                UNITED LIVING MMR11007250525540052050725000000000000000   10300001F00104100000000001017000000000000     
100   62911028202502480000000000016000000000016000002000000010410407250749130030444773800725220614003044   1030000500030000   598320001403000015172200014MAX ENERGY             PTN           MMR11007250749130030440725000000000000000   10300001 00104100000000000480000000000000     
100   95050321232876860000000000098000000000098000002000000010410407251145040171510551830725220611017151   1030000600030000   554100002328315799420001235DENKO NAY PYI TAW 2    NAYPYITAW     MMR11007251145040171510725000000000000000   10300001 00104100000000011760000000000000     
100   62443100333488440000000000025200000000025200002000000010410407250418490036423316510725220610003642   1030000500030000   541120226403000045411202264MARKET PLACE MYANMARPL PTN           MMR11007250418490036420725000000000000000   10300001 00104100000000006300000000000000     
100   62443100340422630000000000065000000000065000002000000010410407250750261141947112330725220614114194   1040001600030000   598320001453000000010001147360 Petro (Sat San)    Ygn           MMR11007250750261141940725000000000000000   10300001F00104100000000007800000000000000     
100   62443100389971990000000000005000000000005000002000000010410407260336120612399033890726000007542081   1030000200030000   333800010001203104000003327KBZPay                 Yangon        MMR11007260336120612390726000000000000000   10300001F05104100000000001050000000000000     
100   62443100372718280000000000031360000000031360002000000010410407260105531678975012490726220708167897   1040001600030000   598320000658000000010000527Shwe Taung Energy (YGN Yangon        MMR11007260105531678970726000000000000000   10300001F00104100000000003763000000000000     
100   62911028202151910000000000011200000000011200002000000010410407261321380255504773800726000750764975   1030000200030000   541188001017000008000000008KBZ BANK               MARKETPLACE - MMR11007261321380255500726000000000000000   10300001 00104100000000000672000000000000     
100   62911028202355870000000001000000000001000000002000000010410407260949381938224773800726000007544891   1030000600030000   333800010001230104000004564Trusty Wallet          Yangon        MMR11007260949381938220726000000000000000   10300001F05104100000000210000000000000000     
100   62911028202441420000000000035950000000035950002000000010410407261328120222174773800726000750765606   1030000200030000   541188001080000008000000294KBZ BANK               CITY MART - J MMR11007261328120222170726000000000000000   10300001 00104100000000002157000000000000     
100   95050328074436620000000000004950000000004950002000000010410407261442511251301594850726000007545964   1020000200030000   333400010001204104000000281Myanmar Soft-Gate Tech Yangon        MMR11007261442511251300726000000000000000   10300001F05104100000000001040000000000000     
100   62911028202471600000000000008100000000008100002000000010410407260618581850124773800726220713185012   1040001600030000   581420000162000000010000150Cha Tra Mue (City Mall Yangon        MMR11007260618581850120726000000000000000   10300001F00104100000000000243000000000000     
100   95050312695033440000000000002970000000002970002000000010410407260731500150165517360726000007544022   1020000200030000   333400010001204104000000281Myanmar Soft-Gate Tech Yangon        MMR11007260731500150160726000000000000000   10300001F05104100000000000624000000000000     
100   62911028202133940000000000029600000000029600002000000010410407261806040177354773800726000750784417   1030000200030000   541188001306000008000000325KBZ BANK               CITY MART - A MMR11007261806040177350726000000000000000   10300001 00104100000000001776000000000000     
100   62911028202133940000000000029019000000029019002000000010410407261808530177364773800726000750784526   1030000200030000   541188001306000008000000325KBZ BANK               CITY MART - A MMR11007261808530177360726000000000000000   10300001 00104100000000001741000000000000     
100   62443100369813440000000000020000000000020000002000000010410407260535141821877771230726220712182187   1040001600030000   598320000838000000010000600Regency Petrol Station Ygn           MMR11007260535141821870726000000000000000   10300001F00104100000000002400000000000000     
100   95050314759815990000000000080000000000080000002000000010410407260949151915410609350726000007544889   1030000200030000   333800010001203104000003327KBZPay                 Yangon        MMR11007260949151915410726000000000000000   10300001F05104100000000016800000000000000     
100   62911028202151910000000000086899000000086899002000000010410407261306360272044773800726000750763544   1030000200030000   541188001001000008000000008KBZ BANK               MARKETPLACE - MMR11007261306360272040726000000000000000   10300001 00104100000000005214000000000000     
100   95050316421999920000000000000990000000000990002000000010410407261544331433980999170726000007546129   1020000200030000   333400010001204104000000281Myanmar Soft-Gate Tech Yangon        MMR11007261544331433980726000000000000000   10300001F05104100000000000208000000000000     
100   62911028202595200000000000059612000000059612002000000010410407261004331975324773800726220717197532   1040001600030000   598320001170000000010000527Shwe Taung Energy (YGN Yangon        MMR11007261004331975320726000000000000000   10300001F00104100000000001788000000000000     
100   62911028202147720000000000026300000000026300002000000010410407261543490196774773800726000750776494   1030000200030000   541188001304000008000000325KBZ BANK               CITY MART - A MMR11007261543490196770726000000000000000   10300001 00104100000000001578000000000000     
100   62911028202355870000000001000000000001000000002000000010410407260933070307264773800726000007544798   1030000600030000   333800010001230104000004564Trusty Wallet          Yangon        MMR11007260933070307260726000000000000000   10300001F05104100000000210000000000000000     
100   62443100301716860000000000000990000000000990002000000010410407261441381138686637400726000007545958   1020000200030000   333400010001204104000000281Myanmar Soft-Gate Tech Yangon        MMR11007261441381138680726000000000000000   10300001F05104100000000000208000000000000     
100   62911028202355870000000001000000000001000000002000000010410407260949071907814773800726000007544890   1030000600030000   333800010001230104000004564Trusty Wallet          Yangon        MMR11007260949071907810726000000000000000   10300001F05104100000000210000000000000000     
100   62443101063232860000000000046013000000046013002000000010410407260857581932452687320726220715193245   1040001600030000   598320000310000000010000298PT Power Petrol Statio Yangon        MMR11007260857581932450726000000000000000   10300001F00104100000000005522000000000000     
100   95050314931885730000000000001000000000001000002000000010410407260146251625871537330726000007541435   1030000200030000   3338000100012031040000040022C2P (Myanmar) Co. Ltd Yangon        MMR11007260146251625870726000000000000000   10300001F05104100000000000210000000000000     
100   95030378062733680000000000020000000000020000002000000010410407260710351876594773800726220714187659   1040001600030000   598320000326000000010000314PT Power Petrol Statio Nay Pyi Taw   MMR11007260710351876590726000000000000000   10300001F00104100000000000600000000000000     
100   95050310332595380000000000000990000000000990002000000010410407261236380638541339560726000007545556   1020000200030000   333400010001204104000000281Myanmar Soft-Gate Tech Yangon        MMR11007261236380638540726000000000000000   10300001F05104100000000000208000000000000     
100   62911028202166940000000000019700000000019700002000000010410407261753260204474773800726000750783829   1030000200030000   541188001126000008000000296KBZ BANK               CITY MART - J MMR11007261753260204470726000000000000000   10300001 00104100000000001182000000000000     
100   95050310427855490000000000002970000000002970002000000010410407261341441144713332430726000007545767   1020000200030000   333400010001204104000000281Myanmar Soft-Gate Tech Yangon        MMR11007261341441144710726000000000000000   10300001F05104100000000000624000000000000     
100   62911028202581260000000000065820000000065820002000000010410407260858181932694773800726220715193269   1040001600030000   581420000804000000010000580Jeff's Kitchen (Kan Ye Yangon        MMR11007260858181932690726000000000000000   10300001F00104100000000001975000000000000     
100   95050328074436620000000000004950000000004950002000000010410407261441151115224984920726000007545957   1020000200030000   333400010001204104000000281Myanmar Soft-Gate Tech Yangon        MMR11007261441151115220726000000000000000   10300001F05104100000000001040000000000000     
100   62443100318296470000000000035000000000035000002000000010410407260602331840324460550726220713184032   1040001600030000   598320000658000000010000527Shwe Taung Energy (YGN Yangon        MMR11007260602331840320726000000000000000   10300001F00104100000000004200000000000000     
100   62911028202161240000000000013700000000013700002000000010410407261905520409734773800726000750786947   1030000200030000   541188001025000008000000298KBZ BANK               CITY MART - M MMR11007261905520409730726000000000000000   10300001 00104100000000000822000000000000     
100   95050311068653690000000000010000000000010000002000000010410407252148401840883955680726000007541193   1030000200030000   333800010001203104000003327KBZPay                 Yangon        MMR11007252148401840880726000000000000000   10300001F05104100000000002100000000000000     
100   95050313843656520000000000000500000000000500002000000010410407261100533053823148450726000007545216   1030000200030000   333800010001203104000003327KBZPay                 Yangon        MMR11007261100533053820726000000000000000   10300001F05104100000000000105000000000000     
100   62911028202473840000000001006000000001006000002000000010410407260457315401934773800726630271131206   1030000900030000   806219001119190110000000900Shwe La Min Hospital L YANGONAW      MMR11007260457315401930726000000000000000   10300001F00104100000000060360000000000000     
100   95050314791376690000000000002970000000002970002000000010410407261259422942186722500726000007545628   1020000200030000   333400010001204104000000281Myanmar Soft-Gate Tech Yangon        MMR11007261259422942180726000000000000000   10300001F05104100000000000624000000000000     
100   95050312240830690000000000002970000000002970002000000010410407261506213621016041730726000007546054   1020000200030000   333400010001204104000000281Myanmar Soft-Gate Tech Yangon        MMR11007261506213621010726000000000000000   10300001F05104100000000000624000000000000     
100   62911028202369990000000000100000000000100000002000000010410407261321165116044773800726000007545705   1030000200030000   333800010001203104000003327KBZPay                 Yangon        MMR11007261321165116040726000000000000000   10300001F05104100000000021000000000000000     
100   95050312298324450000000000002970000000002970002000000010410407261453162316994389240726000007546012   1020000200030000   333400010001204104000000281Myanmar Soft-Gate Tech Yangon        MMR11007261453162316990726000000000000000   10300001F05104100000000000624000000000000     
100   95050313702988830000000000001980000000001980002000000010410407261306213621621765050726000007545646   1020000200030000   333400010001204104000000281Myanmar Soft-Gate Tech Yangon        MMR11007261306213621620726000000000000000   10300001F05104100000000000416000000000000     
100   95050310397364970000000000000990000000000990002000000010410407261404073407168374980726000007545827   1020000200030000   333400010001204104000000281Myanmar Soft-Gate Tech Yangon        MMR11007261404073407160726000000000000000   10300001F05104100000000000208000000000000     
100   95050313843656520000000000001980000000001980002000000010410407260218354835035097590726000007541524   1020000200030000   333400010001204104000000281Myanmar Soft-Gate Tech Yangon        MMR11007260218354835030726000000000000000   10300001F05104100000000000416000000000000     
100   95050313843656520000000000020000000000020000002000000010410407261058552855743233550726000007545211   1030000200030000   333800010001203104000003327KBZPay                 Yangon        MMR11007261058552855740726000000000000000   10300001F05104100000000004200000000000000     
100   62911028202793040000000000004050000000004050002000000010410407260156015360494773800726807260801206   1030000900030000   591219001419190110000001023Life Plus Store 24     YANGONOKKALAP MMR11007260156015360490726000000000000000   10300001F00104100000000000243000000000000     
100   95050315099113150000000000000990000000000990002000000010410407260354032403295984210726000007542294   1020000200030000   333400010001204104000000281Myanmar Soft-Gate Tech Yangon        MMR11007260354032403290726000000000000000   10300001F05104100000000000208000000000000     
100   95050316321163940000000000035000000000035000002000000010410407260901053105850949730726000007544605   1030000200030000   333800010001203104000003327KBZPay                 Yangon        MMR11007260901053105850726000000000000000   10300001F05104100000000007350000000000000     
100   95050323233042810000000000000990000000000990002000000010410407261113504350648531380726000007545267   1020000200030000   333400010001204104000000281Myanmar Soft-Gate Tech Yangon        MMR11007261113504350640726000000000000000   10300001F05104100000000000208000000000000     
100   95050310427855490000000000002970000000002970002000000010410407260154052405846494790726000007541460   1020000200030000   333400010001204104000000281Myanmar Soft-Gate Tech Yangon        MMR11007260154052405840726000000000000000   10300001F05104100000000000624000000000000     
100   62911028202809060000000000050000000000050000002000000010410407260651092109684773800726000007543701   1030000200030000   333800010001203104000003327KBZPay                 Yangon        MMR11007260651092109680726000000000000000   10300001F05104100000000010500000000000000     
100   95050313843656520000000000000990000000000990002000000010410407260315564556162338850726000007541785   1020000200030000   333400010001204104000000281Myanmar Soft-Gate Tech Yangon        MMR11007260315564556160726000000000000000   10300001F05104100000000000208000000000000     
100   95050325139996190000000000003300000000003300002000000010410407260419444944268962580726000007542484   1030000200030000   333300010001203104000003632Myanmar Tradenet Test  Yangon        MMR11007260419444944260726000000000000000   10300001F05104100000000010000000000000000     
100   62911028202471860000000000020070000000020070002000000010410407260444365397934773800726419141136206   1030000900030000   591219000694190110000000525Shwe Ohh Pharmacy ST-2 YANGONAW      MMR11007260444365397930726000000000000000   10300001F00104100000000001204000000000000     
100   62911028202291270000000000016100000000016100002000000010410407260310045374694773800726348400904206   1030000900030000   541119001218190110000000945City Mart TM C 3       YANGONONE     MMR11007260310045374690726000000000000000   10300001F00104100000000000966000000000000     
100   95050313732480420000000000002970000000002970002000000010410407260654142414094205260726000007543720   1020000200030000   333400010001204104000000281Myanmar Soft-Gate Tech Yangon        MMR11007260654142414090726000000000000000   10300001F05104100000000000624000000000000     
100   95030306100096490000000000000990000000000990002000000010410407261053142314054773800726000007545193   1020000200030000   333400010001204104000000281Myanmar Soft-Gate Tech Yangon        MMR11007261053142314050726000000000000000   10300001F05104100000000000208000000000000     
100   95050314752934410000000000080000000000080000002000000010410407261023465346638276090726000007545080   1030000200030000   333800010001203104000003327KBZPay                 Yangon        MMR11007261023465346630726000000000000000   10300001F05104100000000016800000000000000     
100   95050317003064220000000000000990000000000990002000000010410407260905293529320439160726000007544635   1020000200030000   333400010001204104000000281Myanmar Soft-Gate Tech Yangon        MMR11007260905293529320726000000000000000   10300001F05104100000000000208000000000000     
100   95050314931885730000000000000990000000000990002000000010410407260152172217654842300726000007541452   1020000200030000   333400010001204104000000281Myanmar Soft-Gate Tech Yangon        MMR11007260152172217650726000000000000000   10300001F05104100000000000208000000000000     
100   95050313817486860000000000004950000000004950002000000010410407260311264126035728920726000007541773   1020000200030000   333400010001204104000000281Myanmar Soft-Gate Tech Yangon        MMR11007260311264126030726000000000000000   10300001F05104100000000001040000000000000     
100   62911028202291270000000000055000000000055000002000000010410407260341475381414773800726613111047206   1030000900030000   541119000131190110000000083SeinGayHarParami Cente YANGON        MMR11007260341475381410726000000000000000   10300001F00104100000000003300000000000000     
100   95050314160856250000000000000990000000000990002000000010410407260707083708560900290726000007543826   1020000200030000   333400010001204104000000281Myanmar Soft-Gate Tech Yangon        MMR11007260707083708560726000000000000000   10300001F05104100000000000208000000000000     
100   95050319161596230000000000000990000000000990002000000010410407260116474647506579880726000007541351   1020000200030000   333400010001204104000000281Myanmar Soft-Gate Tech Yangon        MMR11007260116474647500726000000000000000   10300001F05104100000000000208000000000000     
100   95050316067768680000000000001980000000001980002000000010410407261256272627875070010726000007545616   1020000200030000   333400010001204104000000281Myanmar Soft-Gate Tech Yangon        MMR11007261256272627870726000000000000000   10300001F05104100000000000416000000000000     
100   62911028202308280000000000015941000000015941002000000010410407221230070020794773800722220312002079   1030000600030000   5499000022263157994200015671 STOP S M BOGYOKE RD  YANGON        MMR11007221230070020790722000000000000000   10300001 00104100000000001626000000000000     
100   62911028202530930000000000130000000000130000002000000010410407221333490069804773800722220313006980   1030000600030000   581200000719315799420000302BEAUTY IN THE POT      YANGON        MMR11007221333490069800722000000000000000   10300001 00104100000000013260000000000000     
100   62443100323428970000000000013250000000013250002000000010410407241113240018122536850724220517001812   1030000500030000   541120203903000015411202039NEIGHBOURHOOD          PTN           MMR11007241113240018120724000000000000000   10300001 00104100000000003313000000000000     
100   62443100300743690000000000004725000000004725002000000010410407241509350042400714170724220515004240   1030000600030000   5499000022283157994200015671 STOP S M BOGYOKE RD  YANGON        MMR11007241509350042400724000000000000000   10300001 00104100000000002008000000000000     
100   62443100384660050000000000030000000000030000002000000010410407240343010044978636210724220503004497   1030000600030000   554100000845315799420000377DENKO NYAUNG U 2       NYAUNG U      MMR11007240343010044970724000000000000000   10300001 00104100000000003600000000000000     
100   95050321232876860000000000076000000000076000002000000010410407240540100427900749830724220505042790   1030000600030000   554100001865315799420001235DENKO NAY PYI TAW 2    NAYPYITAW     MMR11007240540100427900724000000000000000   10300001 00104100000000009120000000000000     
100   62443100303702210000000000399000000000399000002000000010410407240434000608999522820724220504060899   1030000600030000   554100001756315799420001137DENKO NORTH DAGON 2    YANGON        MMR11007240434000608990724000000000000000   10300001 00104100000000047880000000000000     
100   62443100303702210000000000037300000000037300002000000010410407240437100609006132760724220504060900   1030000600030000   554100001756315799420001137DENKO NORTH DAGON 2    YANGON        MMR11007240437100609000724000000000000000   10300001 00104100000000004476000000000000     
100   62911028202159100000000000026750000000026750002000000010410407260348025382994773800726693181002206   1030000900030000   541119001077190110000000872Sein Gay Har Hledan    YANGONUT      MMR11007260348025382990726000000000000000   10300001F00104100000000001605000000000000     
100   62443100340422630000000000147200000000147200002000000010410407251015060046611572990725000357396509   1030000300030000   541100002333000000000000102CB BANK                MAKRO MYANMAR MMR11007251015060046610725000000000000000   10300001F00104100000000036800000000000000     
100   95050326511614440000000000023000000000023000002000000010410407240947410473614614820724220516047361   1040001600030000   569120000924000000010000671Generation Concept Sto Ygn           MMR11007240947410473610724000000000000000   10300001F00104100000000005520000000000000     
100   95050317834964620000000000002900000000002900002000000010410407261017375485460013680726887471637206   1030000900030000   541119001355190110000000977Ocean PZD C9           YANGONAUNG    MMR11007261017375485460726000000000000000   10300001F00104100000000000725000000000000     
100   95050318617855880000000000002970000000002970002000000010410407261228305830636382110726000007545520   1020000200030000   333400010001204104000000281Myanmar Soft-Gate Tech Yangon        MMR11007261228305830630726000000000000000   10300001F05104100000000000624000000000000     
100   62443100379321630000000000032000000000032000002000000010410407250501160322159586060725220605032215   1030000600030000   554100002086315799420001136DENKOHLAING THAR YAR   YANGON        MMR11007250501160322150725000000000000000   10300001 00104100000000003840000000000000     
100   62443101053241940000000000025000000000025000002000000010410407240432041009351260410724220504100935   1030000600030000   554100000946315799420000471DENKO BAHAN            YANGON        MMR11007240432041009350724000000000000000   10300001 00104100000000003000000000000000     
100   95050317945250280000000000007100000000007100002000000010410407261219005517016467210726728491800206   1030000900030000   541119001074190110000000872Sein Gay Har Hledan    YANGONUT      MMR11007261219005517010726000000000000000   10300001F00104100000000001775000000000000     
100   62911028202319090000000000030400000000030400002000000010410407240309200217424773800724220510021742   1040001600030000   591220000301000000010000289Shwe Ohh Pharmacy (Yay Yangon        MMR11007240309200217420724000000000000000   10300001F00104100000000001824000000000000     
100   62911028202319090000000000031650000000031650002000000010410407240411080252554773800724220511025255   1040001600030000   591220000043000000010000041Mingalar Pharmacy      Yangon        MMR11007240411080252550724000000000000000   10300001F00104100000000001899000000000000     
100   62911028202684060000000000033200000000033200002000000010410407240753150400644773800724220514040064   1040001600030000   591220000275000000010000263Shwe Ohh Pharmacy (Hla Yangon        MMR11007240753150400640724000000000000000   10300001F00104100000000001992000000000000     
100   62443100303702210000000000385000000000385000002000000010410407240545210609129012250724220505060912   1030000600030000   554100001756315799420001137DENKO NORTH DAGON 2    YANGON        MMR11007240545210609120724000000000000000   10300001 00104100000000046200000000000000     
100   62911028202680670000000000031000000000031000002000000010410407240748530297414773800724220507029741   1030000600030000   554100002319315799420000477DENKO INSEIN           YANGON        MMR11007240748530297410724000000000000000   10300001 00104100000000000930000000000000     
100   62911028202703030000000000055900000000055900002000000010410407240854220437794773800724220515043779   1040001600030000   591220000277000000010000265Shwe Ohh Pharmacy (Thu Yangon        MMR11007240854220437790724000000000000000   10300001F00104100000000003354000000000000     
100   62443100300743690000000000014830000000014830002000000010410407241220030613226097110724220519061322   1040001600030000   598320000911000000010000662MMTM - Tamwe           Ygn           MMR11007241220030613220724000000000000000   10300001F00104100000000001780000000000000     
100   62911028202423360000000000030000000000030000002000000010410407230111210295104773800723220401029510   1030000600030000   554100002319315799420000477DENKO INSEIN           YANGON        MMR11007230111210295100723000000000000000   10300001 00104100000000000900000000000000     
100   95050321848852460000000000056000000000056000002000000010410407261502015543201084270726044322101206   1030000900030000   554119001103190110000000215New Day Energy MYG     YANGONONE     MMR11007261502015543200726000000000000000   10300001F00104100000000006720000000000000     
100   62911028202556760000000000030000000000030000002000000010410407250852500580254773800725220608058025   1030000600030000   554100000969315799420000481DENKO NORTH OKKALAPA   YANGON        MMR11007250852500580250725000000000000000   10300001 00104100000000000900000000000000     
100   62911028202793040000000000037000000000037000002000000010410407250923180208004773800725220609020800   1030000600030000   554100002324315799420000481DENKO NORTH OKKALAPA   YANGON        MMR11007250923180208000725000000000000000   10300001 00104100000000001110000000000000     
100   95050326198165350000000000006150000000006150002000000010410407261100045497875226420726630301704206   1030000900030000   541119001250190110000000955City Mart JS C 9       YANGONUT      MMR11007261100045497870726000000000000000   10300001F00104100000000001538000000000000     
100   62911028202169750000000000022000000000022000002000000010410407261112065500664773800726773421706206   1030000900030000   554119001103190110000000215New Day Energy MYG     YANGONONE     MMR11007261112065500660726000000000000000   10300001F00104100000000000660000000000000     
100   62911028202690570000000000024975000000024975002000000010410407250744331138724773800725220614113872   1040001600030000   598320001127000000010000608Terminal Petrol Statio Yangon        MMR11007250744331138720725000000000000000   10300001F00104100000000000749000000000000     
100   62911028202355870000000001000000000001000000002000000010410407260950402040534773800726000007544902   1030000600030000   333800010001230104000004564Trusty Wallet          Yangon        MMR11007260950402040530726000000000000000   10300001F05104100000000210000000000000000     
100   62911028202031710000000000019450000000019450002000000010410407261100565498174773800726642301756206   1030000900030000   541119001189190110000000942City Mart HDC C 4      YANGONUT      MMR11007261100565498170726000000000000000   10300001F00104100000000001167000000000000     
100   95050322149411750000000000020000000000020000002000000010410407231411091008441776700723220414100844   1030000600030000   554100000946315799420000471DENKO BAHAN            YANGON        MMR11007231411091008440723000000000000000   10300001 00104100000000002400000000000000     
100   62911028202912590000000000035000000000035000002000000010410407231019260359794773800723220410035979   1030000600030000   554100002085315799420000471DENKO BAHAN            YANGON        MMR11007231019260359790723000000000000000   10300001 00104100000000001050000000000000     
100   62911028202248050000000000020000000000020000002000000010410407230322390419054773800723220403041905   1030000600030000   554100001155315799420000607DENKO NPT 1            NAYPYITAW.    MMR11007230322390419050723000000000000000   10300001 00104100000000000600000000000000     
100   62911028202188560000000000020000000000020000002000000010410407230857060570784773800723220408057078   1030000600030000   554100001001315799420000498DENKO SHWE PYI THAR    YANGON        MMR11007230857060570780723000000000000000   10300001 00104100000000000600000000000000     
100   62911028202366010000000000096000000000096000002000000010410407230841310170324773800723220408017032   1030000600030000   554100002328315799420001235DENKO NAY PYI TAW 2    NAYPYITAW     MMR11007230841310170320723000000000000000   10300001 00104100000000002880000000000000     
100   95030301100126550000000000029000000000029000002000000010410407230949300578334773800723220409057833   1030000600030000   554100000969315799420000481DENKO NORTH OKKALAPA   YANGON        MMR11007230949300578330723000000000000000   10300001 00104100000000000870000000000000     
100   62911028202132460000000000082085000000082085002000000010410407230147409373774773800723220408937377   1040001600030000   806220001354000000010001061Grand Hantha Internati Ygn           MMR11007230147409373770723000000000000000   10300001F00104100000000004925000000000000     
100   62911028202260160000000000082000000000082000002000000010410407230814279614644773800723220415961464   1040001600030000   598320000916000000010000664MMTM - North Dagon     Ygn           MMR11007230814279614640723000000000000000   10300001F00104100000000002460000000000000     
100   95050317945250280000000000007000000000007000002000000010410407261236015520842992050726963061901206   1030000900030000   541119001074190110000000872Sein Gay Har Hledan    YANGONUT      MMR11007261236015520840726000000000000000   10300001F00104100000000001750000000000000     
100   62911028202231380000000000036710000000036710002000000010410407250827070028664773800725220614002866   1030000500030000   598320001202000015172200012MAX ENERGY             PTN           MMR11007250827070028660725000000000000000   10300001 00104100000000001101000000000000     
100   62443100379321630000000000085250000000085250002000000010410407251048070015260892220725000357401619   1030000300030000   541100002372000000000000102CB BANK                MAKRO MYANMAR MMR11007251048070015260725000000000000000   10300001F00104100000000021313000000000000     
100   95050326590859670000000000050000000000050000002000000010410407260248381838251452240726000007541645   1030000200030000   333800010001203104000003327KBZPay                 Yangon        MMR11007260248381838250726000000000000000   10300001F05104100000000010500000000000000     
100   62443100392773440000000000082379000000082379002000000010410407250528030026951493830725220611002695   1030000500030000   531120226302000045311202263OCEAN SUPER CENTER STJ PTN           MMR11007250528030026950725000000000000000   10300001 00104100000000019771000000000000     
100   95050319709462380000000000000990000000000990002000000010410407260828405840911460310726000007544384   1020000200030000   333400010001204104000000281Myanmar Soft-Gate Tech Yangon        MMR11007260828405840910726000000000000000   10300001F05104100000000000208000000000000     
100   62911028202611530000000000014450000000014450002000000010410407261402280279894773800726000750768555   1030000200030000   541188001059000008000000314KBZ BANK               MARKETPLACE - MMR11007261402280279890726000000000000000   10300001 00104100000000000867000000000000     
100   62911028202502480000000000009000000000009000002000000010410407250057030029024773800725220607002902   1030000500030000   598320001402000015172200014MAX ENERGY             PTN           MMR11007250057030029020725000000000000000   10300001 00104100000000000270000000000000     
