100   95030306100096490000000000000990000000000990002000000010410407271136380638404773800727000007550382   1020000200030000   333400010001204104000000281Myanmar Soft-Gate Tech Yangon        MMR11007271136380638400727000000000000000   10300001F05104100000000000208000000000000     
100   62911028202788350000000000020000000000020000002000000010410407270350402040214773800727000007547486   1030000200030000   333800010001203104000003327KBZPay                 Yangon        MMR11007270350402040210727000000000000000   10300001F05104100000000004200000000000000     
100   95050315474529910000000000050000000000050000002000000010410407271255112511585503570727000007550728   1030000200030000   333800010001203104000003327KBZPay                 Yangon        MMR11007271255112511580727000000000000000   10300001F05104100000000010500000000000000     
100   95050319528093960000000000001980000000001980002000000010410407270539050905705574870727000007548314   1020000200030000   333400010001204104000000281Myanmar Soft-Gate Tech Yangon        MMR11007270539050905700727000000000000000   10300001F05104100000000000416000000000000     
100   95050319938772870000000000002970000000002970002000000010410407270025315531311169370727000007546596   1020000200030000   333400010001204104000000281Myanmar Soft-Gate Tech Yangon        MMR11007270025315531310727000000000000000   10300001F05104100000000000624000000000000     
100   62443100374797770000000000047500000000047500002000000010410407271104465770787836830727476341746207   1030000900030000   541119000112190110000000077Sein Gay Har Chinatown YANGON        MMR11007271104465770780727000000000000000   10300001F00104100000000011875000000000000     
100   62911028202204800000000000063750000000063750002000000010410407270604242596624773800727220813259662   1040001600030000   591220000278000000010000266Shwe Ohh Pharmacy (Bah Yangon        MMR11007270604242596620727000000000000000   10300001F00104100000000003825000000000000     
100   62911028202595200000000000025274000000025274002000000010410407270834172676804773800727220815267680   1040001600030000   598320000658000000010000527Shwe Taung Energy (YGN Yangon        MMR11007270834172676800727000000000000000   10300001F00104100000000000758000000000000     
100   95050312695033440000000000000990000000000990002000000010410407271412414241098212860727000007551018   1020000200030000   333400010001204104000000281Myanmar Soft-Gate Tech Yangon        MMR11007271412414241090727000000000000000   10300001F05104100000000000208000000000000     
100   62443100378297160000000000010000000000010000002000000010410407270622455245613326720727000007548584   1030000200030000   3338000100012031040000040022C2P (Myanmar) Co. Ltd Yangon        MMR11007270622455245610727000000000000000   10300001F05104100000000002100000000000000     
100   95030306100096490000000000001980000000001980002000000010410407271527205720904773800727000007551276   1020000200030000   333400010001204104000000281Myanmar Soft-Gate Tech Yangon        MMR11007271527205720900727000000000000000   10300001F05104100000000000416000000000000     
100   62443100330108240000000000001980000000001980002000000010410407270657252725238113970727000007548823   1020000200030000   333400010001204104000000281Myanmar Soft-Gate Tech Yangon        MMR11007270657252725230727000000000000000   10300001F05104100000000000416000000000000     
100   62443100372702000000000000500000000000500000002000000010410407271304083408040546110727000007550754   1040001600030000   333800010001220104000004507A +                    Yangon        MMR11007271304083408040727000000000000000   10300001F05104100000000105000000000000000     
100   95050312695033440000000000000990000000000990002000000010410407262316584658389261600727000007546549   1020000200030000   333400010001204104000000281Myanmar Soft-Gate Tech Yangon        MMR11007262316584658380727000000000000000   10300001F05104100000000000208000000000000     
100   95050318575030940000000000035000000000035000002000000010410407270419564956684693970727000007547719   1030000200030000   333800010001203104000003327KBZPay                 Yangon        MMR11007270419564956680727000000000000000   10300001F05104100000000007350000000000000     
100   62911028202154800000000000033200000000033200002000000010410407270940375745264773800727046101637207   1030000900030000   591219001578190110000001149Life Plus Store 39     YANGONMYOTHIT MMR11007270940375745260727000000000000000   10300001F00104100000000001992000000000000     
100   62911028202809060000000000008800000000008800002000000010410407271031202758044773800727220817275804   1040001600030000   591220000275000000010000263Shwe Ohh Pharmacy (Hla Yangon        MMR11007271031202758040727000000000000000   10300001F00104100000000000528000000000000     
100   95050316438375580000000000000990000000000990002000000010410407270423175317711389000727000007547764   1020000200030000   333400010001204104000000281Myanmar Soft-Gate Tech Yangon        MMR11007270423175317710727000000000000000   10300001F05104100000000000208000000000000     
100   95050326155679180000000000008910000000008910002000000010410407271524505450723595790727000007551270   1020000200030000   333400010001204104000000281Myanmar Soft-Gate Tech Yangon        MMR11007271524505450720727000000000000000   10300001F05104100000000001871000000000000     
100   95050319938772870000000000000990000000000990002000000010410407270023525352242906950727000007546594   1020000200030000   333400010001204104000000281Myanmar Soft-Gate Tech Yangon        MMR11007270023525352240727000000000000000   10300001F05104100000000000208000000000000     
100   62911028202214130000000000169800000000169800002000000010410407271001255751414773800727376311625207   1030000900030000   599919001138190110000000918Lucky Man Uwisarya     YANGONUT      MMR11007271001255751410727000000000000000   10300001F00104100000000010188000000000000     
100   62443100372702000000000001000000000001000000002000000010410407271019014901307823030727000007549994   1040001600030000   333800010001220104000004507A +                    Yangon        MMR11007271019014901300727000000000000000   10300001F05104100000000210000000000000000     
100   95050316949180000000000000000990000000000990002000000010410407271315434543684992990727000007550795   1020000200030000   333400010001204104000000281Myanmar Soft-Gate Tech Yangon        MMR11007271315434543680727000000000000000   10300001F05104100000000000208000000000000     
100   95050319938772870000000000001980000000001980002000000010410407271315444544180035540727000007550797   1020000200030000   333400010001204104000000281Myanmar Soft-Gate Tech Yangon        MMR11007271315444544180727000000000000000   10300001F05104100000000000416000000000000     
100   62911028202684060000000000206900000000206900002000000010410407260410060000954773800726220710000095   1030000500030000   806220067201014208062200672FAME  (CLINIC)         PTN           MMR11007260410060000950726000000000000000   10300001 00104100000000012414000000000000     
100   95050319925596540000000000031000000000031000002000000010410407260837000002095822090726220715000209   1030000500030000   481220100601000014812201006LINN IT AND MOBILE (NA PTN           MMR11007260837000002090726000000000000000   10300001 00104100000000007440000000000000     
100   62911028202219340000000000068894000000068894002000000010410407260800500001544773800726220714000154   1030000500030000   541120226802000045411202268CITY MART WAIZAYANDA   PTN           MMR11007260800500001540726000000000000000   10300001 00104100000000004134000000000000     
100   62911028202530930000000000239200000000239200002000000010410407260707460001824773800726220713000182   1030000500030000   569120061401006305691200614YOF JC                 PTN           MMR11007260707460001820726000000000000000   10300001 00104100000000014352000000000000     
100   62911028202528710000000000007400000000007400002000000010410407260450210002564773800726220711000256   1030000500030000   581220264401000085812202644BREAD TALK             PTN           MMR11007260450210002560726000000000000000   10300001 00104100000000000755000000000000     
100   62443100300743690000000000005800000000005800002000000010410407261416110000678289890726000357614993   1030000300030000   581200001517000000000001066CB BANK                YKKO(TAMWE)   MMR11007261416110000670726000000000000000   10300001F00104100000000002465000000000000     
100   62443100318296470000000000052369000000052369002000000010410407260548510001381076200726000357539879   1030000300030000   581200000433000000000000312CB BANK                HOTEL G YANGO MMR11007260548510001380726000000000000000   10300001F00104100000000022257000000000000     
100   95030366960186690000000000013300000000013300002000000010410407260456280004234773800726220711000423   1030000500030000   591220010401014405912200104SHWE OHH PHARMACY      PTN           MMR11007260456280004230726000000000000000   10300001 00104100000000000798000000000000     
100   95050311959900780000000000000990000000000990002000000010410407270620555055465064300727000007548570   1020000200030000   333400010001204104000000281Myanmar Soft-Gate Tech Yangon        MMR11007270620555055460727000000000000000   10300001F05104100000000000208000000000000     
100   62911028202154800000000000013000000000013000002000000010410407271013105754824773800727547431610207   1030000900030000   541119001274190110000000961City Mart PLST City Ca YANGONMYOTHIT MMR11007271013105754820727000000000000000   10300001F00104100000000000780000000000000     
100   62911028202139640000000000300000000000300000002000000010410407270304553455254773800727000007547107   1030000200030000   333800010001203104000003327KBZPay                 Yangon        MMR11007270304553455250727000000000000000   10300001F05104100000000063000000000000000     
100   95050312695033440000000000000990000000000990002000000010410407271403443344366560380727000007550985   1020000200030000   333400010001204104000000281Myanmar Soft-Gate Tech Yangon        MMR11007271403443344360727000000000000000   10300001F05104100000000000208000000000000     
100   95050310332595380000000000000990000000000990002000000010410407271000223022704262770727000007549927   1020000200030000   333400010001204104000000281Myanmar Soft-Gate Tech Yangon        MMR11007271000223022700727000000000000000   10300001F05104100000000000208000000000000     
100   62443100355445150000000000091050000000091050002000000010410407270259585625908325540727783290958207   1030000900030000   591219000609190110000000449Shwe Ohh Pharmacy St-3 YANGONAUNG    MMR11007270259585625900727000000000000000   10300001F00104100000000021852000000000000     
100   95050319709462380000000000003000000000003000002000000010410407270921255125236340740727000007549693   1030000200030000   3338000100012031040000040022C2P (Myanmar) Co. Ltd Yangon        MMR11007270921255125230727000000000000000   10300001F05104100000000000630000000000000     
100   62443100345308040000000000050000000000050000002000000010410407271202453245973765990727000007550505   1030000200030000   333800010001203104000003327KBZPay                 Yangon        MMR11007271202453245970727000000000000000   10300001F05104100000000010500000000000000     
100   62911028202488950000000000043900000000043900002000000010410407261130390002464773800726220718000246   1030000500030000   541120129720000045411201297MAKRO MYANMAR          PTN           MMR11007261130390002460726000000000000000   10300001 00104100000000002634000000000000     
100   62911028202154640000000000021400000000021400002000000010410407261055280002344773800726220717000234   1030000500030000   541120207201000085411202072INFINITY MART          PTN           MMR11007261055280002340726000000000000000   10300001 00104100000000001284000000000000     
100   62911028202530930000000000349970000000349970002000000010410407260638330003444773800726220713000344   1030000500030000   569120091201000015691200912GIORDANO               PTN           MMR11007260638330003440726000000000000000   10300001 00104100000000020998000000000000     
100   62911028202311230000000000046200000000046200002000000010410407260131070004094773800726220708000409   1030000500030000   541120129713000045411201297MAKRO MYANMAR          PTN           MMR11007260131070004090726000000000000000   10300001 00104100000000002772000000000000     
100   62911028202790310000000000061450000000061450002000000010410407260337100004134773800726220710000413   1030000500030000   541120129713000045411201297MAKRO MYANMAR          PTN           MMR11007260337100004130726000000000000000   10300001 00104100000000003687000000000000     
100   62911028202471600000000000157700000000157700002000000010410407260554590023854773800726220712002385   1030000500030000   531120226307000045311202263OCEAN SUPER CENTER STJ PTN           MMR11007260554590023850726000000000000000   10300001 00104100000000009462000000000000     
100   62911028202161240000000000020000000000020000002000000010410407260619260029884773800726220712002988   1030000500030000   598320001201000015172200012MAX ENERGY             PTN           MMR11007260619260029880726000000000000000   10300001 00104100000000000600000000000000     
100   95050317072727910000000000002500000000002500002000000010410407261111560011811836350726000357590729   1030000300030000   531100000568000000000000376CB BANK                CAPITAL HYPER MMR11007261111560011810726000000000000000   10300001F00104100000000000600000000000000     
100   95050318131043910000000000001000000000001000002000000010410407271304173417502198600727000007550755   1030000200030000   3334000100012031040000040102C2P (Myanmar) Co. Ltd Yangon        MMR11007271304173417500727000000000000000   10300001F05104100000000000210000000000000     
100   95050319528093960000000000001980000000001980002000000010410407270200503050359176500727000007546813   1020000200030000   333400010001204104000000281Myanmar Soft-Gate Tech Yangon        MMR11007270200503050350727000000000000000   10300001F05104100000000000416000000000000     
100   95050317834964620000000000000850000000000850002000000010410407270152585611127524010727171220858207   1030000900030000   591219000609190110000000449Shwe Ohh Pharmacy St-3 YANGONAUNG    MMR11007270152585611120727000000000000000   10300001F00104100000000000204000000000000     
100   62911028202598430000000000250000000000250000002000000010410407271213212865464773800727220819286546   1040001600030000   591220000013000000010000011Golden Bell            Yangon        MMR11007271213212865460727000000000000000   10300001F00104100000000015000000000000000     
100   62911028202464020000000000049400000000049400002000000010410407270538315669504773800727969081231207   1030000900030000   591219000970190110000000777Shwe Ohh Pharmacy St ( YANGONAW      MMR11007270538315669500727000000000000000   10300001F00104100000000002964000000000000     
100   95050320928153430000000000010000000000010000002000000010410407270830555724380837060727934001555207   1030000900030000   541119001079190110000000872Sein Gay Har Hledan    YANGONUT      MMR11007270830555724380727000000000000000   10300001F00104100000000002500000000000000     
100   95050321455580800000000000022196000000022196002000000010410407271003005751757993230727391331600207   1030000900030000   541119001363190110000000977Ocean PZD C17          YANGONAUNG    MMR11007271003005751750727000000000000000   10300001F00104100000000005549000000000000     
100   62443100379321630000000000103000000000103000002000000010410407270915232700543120870727220816270054   1040001600030000   598320001170000000010000527Shwe Taung Energy (YGN Yangon        MMR11007270915232700540727000000000000000   10300001F00104100000000012360000000000000     
100   62911028202421040000000000026500000000026500002000000010410407261042290025654773800726220717002565   1030000500030000   531120226719000045311202267OCEAN NORTH POINT      PTN           MMR11007261042290025650726000000000000000   10300001 00104100000000001590000000000000     
100   62911028202126850000000000070000000000070000002000000010410407260907070029634773800726220715002963   1030000500030000   598320001202000015172200012MAX ENERGY             PTN           MMR11007260907070029630726000000000000000   10300001 00104100000000002100000000000000     
100   62911028202471860000000000036000000000036000002000000010410407260427550029424773800726220710002942   1030000500030000   598320001202000015172200012MAX ENERGY             PTN           MMR11007260427550029420726000000000000000   10300001 00104100000000001080000000000000     
100   95050317072727910000000000005300000000005300002000000010410407261112330011823488840726000357590823   1030000300030000   531100000568000000000000376CB BANK                CAPITAL HYPER MMR11007261112330011820726000000000000000   10300001F00104100000000001272000000000000     
100   62911028202216940000000000010550000000010550002000000010410407260546530025354773800726220712002535   1030000500030000   541120203706000015411202037CITY MART SUPERMARKET  PTN           MMR11007260546530025350726000000000000000   10300001 00104100000000000633000000000000     
100   62911028202112400000000000016000000000016000002000000010410407260129500029644773800726220707002964   1030000500030000   598320001201000015172200012MAX ENERGY             PTN           MMR11007260129500029640726000000000000000   10300001 00104100000000000480000000000000     
100   62911028202421380000000000061000000000061000002000000010410407260339250033204773800726220710003320   1030000500030000   598320001901000015172200019MAX ENERGY             PTN           MMR11007260339250033200726000000000000000   10300001 00104100000000001830000000000000     
100   62911028202440680000000000042489000000042489002000000010410407261147330029914773800726220718002991   1030000500030000   598320001202000015172200012MAX ENERGY             PTN           MMR11007261147330029910726000000000000000   10300001 00104100000000001275000000000000     
100   62911028202788350000000000020000000000020000002000000010410407270604573457214773800727000007548456   1030000200030000   333800010001203104000003327KBZPay                 Yangon        MMR11007270604573457210727000000000000000   10300001F05104100000000004200000000000000     
100   95030301100157160000000000034500000000034500002000000010410407270500073007154773800727000007548017   1030000200030000   3333000100012031040000040282C2P (Myanmar) Co. Ltd Yangon        MMR11007270500073007150727000000000000000   10300001F05104100000000010000000000000000     
100   95030306100096490000000000000990000000000990002000000010410407271309083908214773800727000007550770   1020000200030000   333400010001204104000000281Myanmar Soft-Gate Tech Yangon        MMR11007271309083908210727000000000000000   10300001F05104100000000000208000000000000     
100   95050325305150830000000000002970000000002970002000000010410407270609083908615659980727000007548475   1020000200030000   333400010001204104000000281Myanmar Soft-Gate Tech Yangon        MMR11007270609083908610727000000000000000   10300001F05104100000000000624000000000000     
100   95050312962334280000000000000990000000000990002000000010410407271319414941881688020727000007550816   1020000200030000   333400010001204104000000281Myanmar Soft-Gate Tech Yangon        MMR11007271319414941880727000000000000000   10300001F05104100000000000208000000000000     
100   95030305234413920000000000019750000000019750002000000010410407270504095660144773800727510341109207   1030000900030000   591219000501190110000000348Shwe Ohh Pharmacy (SmL YANGONUT      MMR11007270504095660140727000000000000000   10300001F00104100000000001185000000000000     
100   95050315017843630000000000002970000000002970002000000010410407271428005800393255410727000007551079   1020000200030000   333400010001204104000000281Myanmar Soft-Gate Tech Yangon        MMR11007271428005800390727000000000000000   10300001F05104100000000000624000000000000     
100   95050318141561190000000000010000000000010000002000000010410407270306583658400403500727000007547084   1040001600030000   333800010001220104000004507A +                    Yangon        MMR11007270306583658400727000000000000000   10300001F05104100000000002100000000000000     
100   62443100308973140000000000151800000000151800002000000010410407261236440035318034590726220719003531   1030000500030000   531120226305000045311202263OCEAN SUPER CENTER STJ PTN           MMR11007261236440035310726000000000000000   10300001 00104100000000036432000000000000     
100   62911028202471600000000000024500000000024500002000000010410407260608540024794773800726220712002479   1030000500030000   531120226317000045311202263OCEAN SUPER CENTER STJ PTN           MMR11007260608540024790726000000000000000   10300001 00104100000000001470000000000000     
100   62443101037081820000000000032000000000032000002000000010410407261128180033776793810726220717003377   1030000500030000   598320001204000015172200012MAX ENERGY             PTN           MMR11007261128180033770726000000000000000   10300001 00104100000000003840000000000000     
100   62911028202181120000000000045000000000045000002000000010410407260855050105684773800726220708010568   1030000600030000   554100002322315799420000497DENKO KONE TA LA PAUNG YANGON        MMR11007260855050105680726000000000000000   10300001 00104100000000001350000000000000     
100   62911028202471860000000000045000000000045000002000000010410407260716360029564773800726220713002956   1030000500030000   598320001202000015172200012MAX ENERGY             PTN           MMR11007260716360029560726000000000000000   10300001 00104100000000001350000000000000     
100   62911028202181120000000000020500000000020500002000000010410407260018590105364773800726220700010536   1030000600030000   554100002322315799420000497DENKO KONE TA LA PAUNG YANGON        MMR11007260018590105360726000000000000000   10300001 00104100000000000615000000000000     
100   62911028202471600000000000007850000000007850002000000010410407260434030024254773800726220711002425   1030000500030000   531120226326000045311202263OCEAN SUPER CENTER STJ PTN           MMR11007260434030024250726000000000000000   10300001 00104100000000000471000000000000     
100   62443100313002190000000000017000000000017000002000000010410407261057060008099843480726220717000809   1030000500030000   541120230112000045411202301CITY MART SUPERMARKET  PTN           MMR11007261057060008090726000000000000000   10300001 00104100000000004250000000000000     
100   62443100372702000000000001000000000001000000002000000010410407271017484748811128000727000007549993   1040001600030000   333800010001220104000004507A +                    Yangon        MMR11007271017484748810727000000000000000   10300001F05104100000000210000000000000000     
100   95050316785465380000000000000990000000000990002000000010410407270614304430130106850727000007548526   1020000200030000   333400010001204104000000281Myanmar Soft-Gate Tech Yangon        MMR11007270614304430130727000000000000000   10300001F05104100000000000208000000000000     
100   62911028202057620000000000050000000000050000002000000010410407270810154015834773800727000007549315   1030000500030000   333800010001201104000003863AYA Pay                Yangon        MMR11007270810154015830727000000000000000   10300001F05104100000000010500000000000000     
100   95050320928153430000000000022200000000022200002000000010410407270900345733913546350727461301534207   1030000900030000   541119001077190110000000872Sein Gay Har Hledan    YANGONUT      MMR11007270900345733910727000000000000000   10300001F00104100000000005550000000000000     
100   62911028202298040000000000054600000000054600002000000010410407270940462716524773800727220816271652   1040001600030000   591220000043000000010000041Mingalar Pharmacy      Yangon        MMR11007270940462716520727000000000000000   10300001F00104100000000003276000000000000     
100   95050315166583130000000000090000000000090000002000000010410407270108163816304474340727000007546666   1030000200030000   333800010001203104000003327KBZPay                 Yangon        MMR11007270108163816300727000000000000000   10300001F05104100000000018900000000000000     
100   95050311182936420000000000000990000000000990002000000010410407271516524652046900760727000007551246   1020000200030000   333400010001204104000000281Myanmar Soft-Gate Tech Yangon        MMR11007271516524652040727000000000000000   10300001F05104100000000000208000000000000     
100   62911028202788350000000000030000000000030000002000000010410407270515574557864773800727000007548129   1030000200030000   333800010001203104000003327KBZPay                 Yangon        MMR11007270515574557860727000000000000000   10300001F05104100000000006300000000000000     
100   62911028202529960000000000026900000000026900002000000010410407260514220020074773800726220705002007   1030000600030000   549900001956315799420001325EASY MART 012          YANGON        MMR11007260514220020070726000000000000000   10300001 00104100000000002744000000000000     
100   62911028202004330000000000004800000000004800002000000010410407261204150024654773800726220718002465   1030000500030000   531120226326000045311202263OCEAN SUPER CENTER STJ PTN           MMR11007261204150024650726000000000000000   10300001 00104100000000000288000000000000     
100   62911028202225440000000000011000000000011000002000000010410407261143350025714773800726220718002571   1030000500030000   541120203706000015411202037CITY MART SUPERMARKET  PTN           MMR11007261143350025710726000000000000000   10300001 00104100000000000660000000000000     
100   62443100390038980000000000030250000000030250002000000010410407261307130010473417530726220719001047   1030000500030000   581220041801000055812200418SHWE LAR HOT POT       PTN           MMR11007261307130010470726000000000000000   10300001 00104100000000012857000000000000     
100   62911028202193670000000000031000000000031000002000000010410407260930340023244773800726220716002324   1030000500030000   598320001604000015172200016MAX ENERGY             PTN           MMR11007260930340023240726000000000000000   10300001 00104100000000000930000000000000     
100   62911028202357510000000000056000000000056000002000000010410407261019090030114773800726220710003011   1030000600030000   554100000775315799420000342DENKO  YIN TAW         MANDALAY      MMR11007261019090030110726000000000000000   10300001 00104100000000001680000000000000     
100   62911028202530930000000000055786000000055786002000000010410407260353280036114773800726220703003611   1030000600030000   581200002268315799420001575SIGNATURE FINEDINING 4 YANGON        MMR11007260353280036110726000000000000000   10300001 00104100000000005690000000000000     
100   95050312933828140000000000067800000000067800002000000010410407261222360009804729630726220718000980   1030000500030000   541120203802000015411202038CITY MART SUPERMARKET  PTN           MMR11007261222360009800726000000000000000   10300001 00104100000000016950000000000000     
100   95050319528093960000000000000990000000000990002000000010410407270222085208842396380727000007546882   1020000200030000   333400010001204104000000281Myanmar Soft-Gate Tech Yangon        MMR11007270222085208840727000000000000000   10300001F05104100000000000208000000000000     
100   95050319528093960000000000000990000000000990002000000010410407270224445444130658790727000007546888   1020000200030000   333400010001204104000000281Myanmar Soft-Gate Tech Yangon        MMR11007270224445444130727000000000000000   10300001F05104100000000000208000000000000     
100   95050313123223200000000000000990000000000990002000000010410407271327565756371602930727000007550853   1020000200030000   333400010001204104000000281Myanmar Soft-Gate Tech Yangon        MMR11007271327565756370727000000000000000   10300001F05104100000000000208000000000000     
100   62911028202308280000000000016485000000016485002000000010410407271247272902494773800727220819290249   1040001600030000   581420001161000000010000871Kin Sakura (Bo Aung Ky ygn           MMR11007271247272902490727000000000000000   10300001F00104100000000000495000000000000     
100   95050319528093960000000000001980000000001980002000000010410407271515304530301517830727000007551242   1020000200030000   333400010001204104000000281Myanmar Soft-Gate Tech Yangon        MMR11007271515304530300727000000000000000   10300001F05104100000000000416000000000000     
100   62911028202222620000000000016500000000016500002000000010410407271014385755284773800727576441638207   1030000900030000   541119001361190110000000977Ocean PZD C 15         YANGONAUNG    MMR11007271014385755280727000000000000000   10300001F00104100000000000990000000000000     
100   62443100335647210000000000004950000000004950002000000010410407270305133513815360960727000007547118   1020000200030000   333400010001204104000000281Myanmar Soft-Gate Tech Yangon        MMR11007270305133513810727000000000000000   10300001F05104100000000001040000000000000     
100   95050311419479170000000000001980000000001980002000000010410407270109383938456126820727000007546669   1020000200030000   333400010001204104000000281Myanmar Soft-Gate Tech Yangon        MMR11007270109383938450727000000000000000   10300001F05104100000000000416000000000000     
100   62911028202154800000000000027000000000027000002000000010410407260408150011594773800726220710001159   1030000500030000   541120226406000045411202264MARKET PLACE MYANMARPL PTN           MMR11007260408150011590726000000000000000   10300001 00104100000000001620000000000000     
100   95050319207947610000000000014250000000014250002000000010410407251248560013860722030725220612001386   1030000600030000   5499000023523157994200016371 STOP S M KAMARKYI    YANGON        MMR11007251248560013860725000000000000000   10300001 00104100000000006057000000000000     
100   95050324154190880000000000023000000000023000002000000010410407251258230364707331960725220612036470   1030000600030000   554100002085315799420000471DENKO BAHAN            YANGON        MMR11007251258230364700725000000000000000   10300001 00104100000000002760000000000000     
100   62911028202366010000000000036000000000036000002000000010410407260917530171944773800726220709017194   1030000600030000   554100002328315799420001235DENKO NAY PYI TAW 2    NAYPYITAW     MMR11007260917530171940726000000000000000   10300001 00104100000000001080000000000000     
100   95030301100126550000000000023000000000023000002000000010410407261147110247094773800726220711024709   1030000600030000   554100002323315799420000474DENKO N.DAGON - 1      YANGON        MMR11007261147110247090726000000000000000   10300001 00104100000000000690000000000000     
100   62911028202474000000000000061000000000061000002000000010410407260544341013584773800726220705101358   1030000600030000   554100000946315799420000471DENKO BAHAN            YANGON        MMR11007260544341013580726000000000000000   10300001 00104100000000001830000000000000     
100   62911028202474000000000000062000000000062000002000000010410407260250061013264773800726220702101326   1030000600030000   554100000946315799420000471DENKO BAHAN            YANGON        MMR11007260250061013260726000000000000000   10300001 00104100000000001860000000000000     
100   62443100314171200000000000082150000000082150002000000010410407271117140002517573460727000750813029   1030000200030000   541188001082000008000000294KBZ BANK               CITY MART - J MMR11007271117140002510727000000000000000   10300001 00104100000000020538000000000000     
100   95050319938772870000000000000990000000000990002000000010410407271325565556079950440727000007550841   1020000200030000   333400010001204104000000281Myanmar Soft-Gate Tech Yangon        MMR11007271325565556070727000000000000000   10300001F05104100000000000208000000000000     
100   95050311182936420000000000000990000000000990002000000010410407262324115411244304140727000007546552   1020000200030000   333400010001204104000000281Myanmar Soft-Gate Tech Yangon        MMR11007262324115411240727000000000000000   10300001F05104100000000000208000000000000     
100   95050322990383760000000000003250000000003250002000000010410407270419365647056346460727813491036207   1030000900030000   541119001206190110000000948City Mart YK C 4       YANGONAUNG    MMR11007270419365647050727000000000000000   10300001F00104100000000000813000000000000     
100   95050325593833300000000000037100000000037100002000000010410407270942245745792695390727074121624207   1030000900030000   541119001077190110000000872Sein Gay Har Hledan    YANGONUT      MMR11007270942245745790727000000000000000   10300001F00104100000000009275000000000000     
100   95050324622440820000000000038900000000038900002000000010410407270227465617888495730727429570846207   1030000900030000   541119000158190110000000084Pro (1) Global (Pazund YANGONARTAUNG MMR11007270227465617880727000000000000000   10300001F00104100000000009725000000000000     
100   95050312962334280000000000000990000000000990002000000010410407271329525952056645470727000007550861   1020000200030000   333400010001204104000000281Myanmar Soft-Gate Tech Yangon        MMR11007271329525952050727000000000000000   10300001F05104100000000000208000000000000     
100   95050326094581320000000000059642000000059642002000000010410407271243505795595588670727853131950207   1030000900030000   541119001512190110000001102Ocean MGDTM C-5        YANGONADON    MMR11007271243505795590727000000000000000   10300001F00104100000000014911000000000000     
100   95050313968650950000000000000990000000000990002000000010410407271245311531287241150727000007550683   1020000200030000   333400010001204104000000281Myanmar Soft-Gate Tech Yangon        MMR11007271245311531280727000000000000000   10300001F05104100000000000208000000000000     
100   62911028202737450000000000007800000000007800002000000010410407271021570021534773800727000750807843   1030000200030000   541188001496000008000000399KBZ BANK               OCEAN SUPERCE MMR11007271021570021530727000000000000000   10300001 00104100000000000468000000000000     
100   62911028202265290000000000040200000000040200002000000010410407271843270005644773800727000750848637   1030000200030000   541188001260000008000000310KBZ BANK               CITY MART- FM MMR11007271843270005640727000000000000000   10300001 00104100000000002412000000000000     
100   95050314307746340000000000000990000000000990002000000010410407271130300030639319110727000007550353   1020000200030000   333400010001204104000000281Myanmar Soft-Gate Tech Yangon        MMR11007271130300030630727000000000000000   10300001F05104100000000000208000000000000     
100   62911028202355870000000001000000000001000000002000000010410407270647261726774773800727000007548755   1040001600030000   333800010001220104000004507A +                    Yangon        MMR11007270647261726770727000000000000000   10300001F05104100000000210000000000000000     
100   62911028202207380000000000005000000000005000002000000010410407270530420042254773800727000007548247   1030000200030000   333800010001203104000003327KBZPay                 Yangon        MMR11007270530420042250727000000000000000   10300001F05104100000000001050000000000000     
100   95050313843656520000000000017000000000017000002000000010410407271231010101254021280727000007550619   1030000200030000   333800010001203104000003327KBZPay                 Yangon        MMR11007271231010101250727000000000000000   10300001F05104100000000003570000000000000     
100   62911028202233510000000000012450000000012450002000000010410407271640100050214773800727000750841471   1030000200030000   541188001079000008000000294KBZ BANK               CITY MART - J MMR11007271640100050210727000000000000000   10300001 00104100000000000747000000000000     
100   62443100392426520000000000010000000000010000002000000010410407270034580458712821850727000007546612   1030000200030000   333800010001203104000003327KBZPay                 Yangon        MMR11007270034580458710727000000000000000   10300001F05104100000000002100000000000000     
100   62911028202471600000000000000700000000000700002000000010410407260515160032954773800726220711003295   1030000500030000   531120226301000045311202263OCEAN SUPER CENTER STJ PTN           MMR11007260515160032950726000000000000000   10300001 00104100000000000042000000000000     
100   62911028202421040000000000036700000000036700002000000010410407261040450025644773800726220717002564   1030000500030000   531120226719000045311202267OCEAN NORTH POINT      PTN           MMR11007261040450025640726000000000000000   10300001 00104100000000002202000000000000     
100   62911028202471600000000000021402000000021402002000000010410407260557480023874773800726220712002387   1030000500030000   531120226307000045311202263OCEAN SUPER CENTER STJ PTN           MMR11007260557480023870726000000000000000   10300001 00104100000000001284000000000000     
100   95050321232876860000000000062000000000062000002000000010410407260256530429347977080726220702042934   1030000600030000   554100001865315799420001235DENKO NAY PYI TAW 2    NAYPYITAW     MMR11007260256530429340726000000000000000   10300001 00104100000000007440000000000000     
100   95030346179196360000000000023000000000023000002000000010410407261101072029274773800726220718202927   1040001600030000   598320000856000000010000609Terminal Petrol Statio Yangon        MMR11007261101072029270726000000000000000   10300001F00104100000000000690000000000000     
100   95050326689257240000000000021000000000021000002000000010410407261235170254251424660726000357602563   1030000300030000   531100000794000000000000540CB BANK                CAPITAL SUPER MMR11007261235170254250726000000000000000   10300001F00104100000000005040000000000000     
100   62911028202530930000000000039457000000039457002000000010410407260947560013634773800726220716001363   1030000500030000   581220146401013205812201464THAI 47 (HELPIN BRANCH PTN           MMR11007260947560013630726000000000000000   10300001 00104100000000004025000000000000     
100   62911028202537390000000000013500000000013500002000000010410407260645560029684773800726220713002968   1030000500030000   598320001004000015172200010MAX ENERGY             PTN           MMR11007260645560029680726000000000000000   10300001 00104100000000000405000000000000     
100   95050310427855490000000000001980000000001980002000000010410407271253262326183851080727000007550720   1020000200030000   333400010001204104000000281Myanmar Soft-Gate Tech Yangon        MMR11007271253262326180727000000000000000   10300001F05104100000000000416000000000000     
100   95030306100096490000000000000990000000000990002000000010410407270349251925674773800727000007547473   1020000200030000   333400010001204104000000281Myanmar Soft-Gate Tech Yangon        MMR11007270349251925670727000000000000000   10300001F05104100000000000208000000000000     
100   62443100314171200000000000007250000000007250002000000010410407271057040049164608880727000750811088   1030000200030000   541188001085000008000000294KBZ BANK               CITY MART - J MMR11007271057040049160727000000000000000   10300001 00104100000000001813000000000000     
100   62911028202651050000000000015250000000015250002000000010410407270946000266664773800727000750805018   1030000200030000   541188001037000008000000010KBZ BANK               MARKETPLACE - MMR11007270946000266660727000000000000000   10300001 00104100000000000915000000000000     
100   62911028202355870000000001000000000001000000002000000010410407270641171117404773800727000007548703   1040001600030000   333800010001220104000004507A +                    Yangon        MMR11007270641171117400727000000000000000   10300001F05104100000000210000000000000000     
100   62911028202108380000000000070300000000070300002000000010410407271315540050044773800727000750825171   1030000200030000   541188001079000008000000294KBZ BANK               CITY MART - J MMR11007271315540050040727000000000000000   10300001 00104100000000004218000000000000     
100   62911028202045260000000000068200000000068200002000000010410407271419400050084773800727000750831343   1030000200030000   541188001079000008000000294KBZ BANK               CITY MART - J MMR11007271419400050080727000000000000000   10300001 00104100000000004092000000000000     
100   62911028202161240000000000012281000000012281002000000010410407271213440413174773800727000750818752   1030000200030000   541188001024000008000000298KBZ BANK               CITY MART - M MMR11007271213440413170727000000000000000   10300001 00104100000000000737000000000000     
100   62911028202527150000000000030000000000030000002000000010410407271212052863834773800727220819286383   1040001600030000   598320000659000000010000528Shwe Taung Energy (YGN Yangon        MMR11007271212052863830727000000000000000   10300001F00104100000000000900000000000000     
100   62443100372718280000000000023605000000023605002000000010410407270920142703754688250727220816270375   1040001600030000   598320000658000000010000527Shwe Taung Energy (YGN Yangon        MMR11007270920142703750727000000000000000   10300001F00104100000000002833000000000000     
100   95050314557307430000000000001980000000001980002000000010410407270918494849706425840727000007549679   1020000200030000   333400010001204104000000281Myanmar Soft-Gate Tech Yangon        MMR11007270918494849700727000000000000000   10300001F05104100000000000416000000000000     
100   62911028202474000000000000011906000000011906002000000010410407271524450116434773800727000750836927   1030000200030000   541188001006000008000000008KBZ BANK               MARKETPLACE - MMR11007271524450116430727000000000000000   10300001 00104100000000000714000000000000     
100   62911028202809060000000000030000000000030000002000000010410407270654262426124773800727000007548806   1030000200030000   333800010001203104000003327KBZPay                 Yangon        MMR11007270654262426120727000000000000000   10300001F05104100000000006300000000000000     
100   62911028202907490000000000023624000000023624002000000010410407271343040130614773800727000750827887   1030000200030000   541188001303000008000000325KBZ BANK               CITY MART - A MMR11007271343040130610727000000000000000   10300001 00104100000000001417000000000000     
100   95050329613303740000000000020000000000020000002000000010410407270042011201737864400727000007546620   1030000200030000   333800010001203104000003327KBZPay                 Yangon        MMR11007270042011201730727000000000000000   10300001F05104100000000004200000000000000     
100   62911028202611530000000000057850000000057850002000000010410407270910335736944773800727616401533207   1030000900030000   591219000506190110000000353Shwe Ohh Pharmacy - (Y YANGON        MMR11007270910335736940727000000000000000   10300001F00104100000000003471000000000000     
100   62911028202355870000000001000000000001000000002000000010410407270646111611544773800727000007548739   1040001600030000   333800010001220104000004507A +                    Yangon        MMR11007270646111611540727000000000000000   10300001F05104100000000210000000000000000     
100   62443100330108240000000000000990000000000990002000000010410407270654332433981504040727000007548809   1020000200030000   333400010001204104000000281Myanmar Soft-Gate Tech Yangon        MMR11007270654332433980727000000000000000   10300001F05104100000000000208000000000000     
100   95050319532433550000000000010000000000010000002000000010410407271443271327774907900727000007551131   1030000200030000   333800010001203104000003327KBZPay                 Yangon        MMR11007271443271327770727000000000000000   10300001F05104100000000002100000000000000     
100   62443100306698200000000000107929000000107929002000000010410407271024120387200076910727000750808034   1030000200030000   541188001041000008000000010KBZ BANK               MARKETPLACE - MMR11007271024120387200727000000000000000   10300001 00104100000000026983000000000000     
100   62911028202809060000000000118450000000118450002000000010410407270443032544404773800727220811254440   1040001600030000   591220000043000000010000041Mingalar Pharmacy      Yangon        MMR11007270443032544400727000000000000000   10300001F00104100000000007107000000000000     
100   62911028202215530000000000007850000000007850002000000010410407271102430222544773800727000750811591   1030000200030000   541188001080000008000000294KBZ BANK               CITY MART - J MMR11007271102430222540727000000000000000   10300001 00104100000000000471000000000000     
100   95050311458479980000000000008000000000008000002000000010410407270636190619081674230727000007548680   1030000200030000   3338000100012031040000040022C2P (Myanmar) Co. Ltd Yangon        MMR11007270636190619080727000000000000000   10300001F05104100000000001680000000000000     
100   62911028202448030000000000001500000000001500002000000010410407270901192395504773800727311991149268   1040001400030000   581410000409025814100002871Sweets & Treats (Junct on Square) nu MMR11007270901192395500727000000000000000   10300001 00104100000000000045000000000000     
100   95050317876216360000000000001980000000001980002000000010410407270950092009729305330727000007549874   1020000200030000   333400010001204104000000281Myanmar Soft-Gate Tech Yangon        MMR11007270950092009720727000000000000000   10300001F05104100000000000416000000000000     
100   95050328074436620000000000021400000000021400002000000010410407270851012101305283930727000007549553   1030000300030000   333300010001206104000000984Mandalar Min Express   Yangon        MMR11007270851012101300727000000000000000   10300001F05104100000000010000000000000000     
100   62911028202789750000000000003400000000003400002000000010410407271040355764004773800727099101735207   1030000900030000   591219000610190110000000450Shwe Ohh Pharmacy St-1 YANGONUNG     MMR11007271040355764000727000000000000000   10300001F00104100000000000204000000000000     
100   95050316067768680000000000001980000000001980002000000010410407270236470647155020570727000007546955   1020000200030000   333400010001204104000000281Myanmar Soft-Gate Tech Yangon        MMR11007270236470647150727000000000000000   10300001F05104100000000000416000000000000     
100   95050317876216360000000000001980000000001980002000000010410407270947511751680957810727000007549850   1020000200030000   333400010001204104000000281Myanmar Soft-Gate Tech Yangon        MMR11007270947511751680727000000000000000   10300001F05104100000000000416000000000000     
100   62911028202289130000000000021000000000021000002000000010410407271210232861974773800727220819286197   1040001600030000   598320001170000000010000527Shwe Taung Energy (YGN Yangon        MMR11007271210232861970727000000000000000   10300001F00104100000000000630000000000000     
100   95050317876216360000000000001980000000001980002000000010410407270953052305989220230727000007549891   1020000200030000   333400010001204104000000281Myanmar Soft-Gate Tech Yangon        MMR11007270953052305980727000000000000000   10300001F05104100000000000416000000000000     
100   62911028202416760000000000050000000000050000002000000010410407270406502526014773800727220811252601   1040001600030000   598320001127000000010000608Terminal Petrol Statio Yangon        MMR11007270406502526010727000000000000000   10300001F00104100000000001500000000000000     
100   95050316785465380000000000001980000000001980002000000010410407270736560656782645950727000007549125   1020000200030000   333400010001204104000000281Myanmar Soft-Gate Tech Yangon        MMR11007270736560656780727000000000000000   10300001F05104100000000000416000000000000     
100   95050319938772870000000000000990000000000990002000000010410407271447411741423170310727000007551145   1020000200030000   333400010001204104000000281Myanmar Soft-Gate Tech Yangon        MMR11007271447411741420727000000000000000   10300001F05104100000000000208000000000000     
100   95050310409767690000000000000990000000000990002000000010410407270155342534572481470727000007546790   1020000200030000   333400010001204104000000281Myanmar Soft-Gate Tech Yangon        MMR11007270155342534570727000000000000000   10300001F05104100000000000208000000000000     
100   62911028202611530000000000001500000000001500002000000010410407271910220199394773800727000750849793   1030000200030000   541188001305000008000000325KBZ BANK               CITY MART - A MMR11007271910220199390727000000000000000   10300001 00104100000000000090000000000000     
100   62443100399918110000000000011112000000011112002000000010410407271316010222635234490727000750825176   1030000200030000   541188001080000008000000294KBZ BANK               CITY MART - J MMR11007271316010222630727000000000000000   10300001 00104100000000002778000000000000     
100   95050319528093960000000000000990000000000990002000000010410407261638090809727694210727000007546254   1020000200030000   333400010001204104000000281Myanmar Soft-Gate Tech Yangon        MMR11007261638090809720727000000000000000   10300001F05104100000000000208000000000000     
100   62911028202788350000000000030000000000030000002000000010410407270445521552844773800727000007547936   1030000200030000   333800010001203104000003327KBZPay                 Yangon        MMR11007270445521552840727000000000000000   10300001F05104100000000006300000000000000     
100   62911028202611530000000000003200000000003200002000000010410407271904000130774773800727000750849516   1030000200030000   541188001303000008000000325KBZ BANK               CITY MART - A MMR11007271904000130770727000000000000000   10300001 00104100000000000192000000000000     
100   62911028202175690000000000011650000000011650002000000010410407271202040280344773800727000750817488   1030000200030000   541188001059000008000000314KBZ BANK               MARKETPLACE - MMR11007271202040280340727000000000000000   10300001 00104100000000000699000000000000     
100   62911028202651050000000000042814000000042814002000000010410407271326530266794773800727000750826296   1030000200030000   541188001037000008000000010KBZ BANK               MARKETPLACE - MMR11007271326530266790727000000000000000   10300001 00104100000000002569000000000000     
100   95050316067768680000000000001980000000001980002000000010410407270238520852900063120727000007546962   1020000200030000   333400010001204104000000281Myanmar Soft-Gate Tech Yangon        MMR11007270238520852900727000000000000000   10300001F05104100000000000416000000000000     
100   62911028202469980000000000031600000000031600002000000010410407271651310230424773800727000750842135   1030000200030000   541188001075000008000000294KBZ BANK               CITY MART - J MMR11007271651310230420727000000000000000   10300001 00104100000000001896000000000000     
100   95050317317598540000000000010050000000010050002000000010410407270241271127871715600727000007546972   1030000200030000   333800010001203104000003327KBZPay                 Yangon        MMR11007270241271127870727000000000000000   10300001F05104100000000002111000000000000     
100   62911028202355870000000001000000000001000000002000000010410407270642411241104773800727000007548718   1040001600030000   333800010001220104000004507A +                    Yangon        MMR11007270642411241100727000000000000000   10300001F05104100000000210000000000000000     
100   62911028202355870000000001000000000001000000002000000010410407270651362136484773800727000007548790   1040001600030000   333800010001220104000004507A +                    Yangon        MMR11007270651362136480727000000000000000   10300001F05104100000000210000000000000000     
100   95050310427855490000000000001980000000001980002000000010410407271245241524928978730727000007550684   1020000200030000   333400010001204104000000281Myanmar Soft-Gate Tech Yangon        MMR11007271245241524920727000000000000000   10300001F05104100000000000416000000000000     
100   62911028202611530000000000033300000000033300002000000010410407271839040280894773800727000750848432   1030000200030000   541188001059000008000000314KBZ BANK               MARKETPLACE - MMR11007271839040280890727000000000000000   10300001 00104100000000001998000000000000     
100   95050319528093960000000000004950000000004950002000000010410407270540241024643837300727000007548324   1020000200030000   333400010001204104000000281Myanmar Soft-Gate Tech Yangon        MMR11007270540241024640727000000000000000   10300001F05104100000000001040000000000000     
100   62911028202737450000000000114859000000114859002000000010410407271049420031334773800727000750810340   1030000200030000   541188001482000008000000399KBZ BANK               OCEAN SUPERCE MMR11007271049420031330727000000000000000   10300001 00104100000000006892000000000000     
100   95050314355878900000000000020000000000020000002000000010410407270431050105135750780727000007547826   1030000200030000   333800010001203104000003327KBZPay                 Yangon        MMR11007270431050105130727000000000000000   10300001F05104100000000004200000000000000     
100   95050319161596230000000000000990000000000990002000000010410407270343471347926516650727000007547422   1020000200030000   333400010001204104000000281Myanmar Soft-Gate Tech Yangon        MMR11007270343471347920727000000000000000   10300001F05104100000000000208000000000000     
100   95050314414024490000000000100000000000100000002000000010410407270951062106457567740727000007549879   1030000200030000   333800010001203104000003327KBZPay                 Yangon        MMR11007270951062106450727000000000000000   10300001F05104100000000021000000000000000     
100   95050319156011610000000000000990000000000990002000000010410407271246321632568893630727000007550692   1020000200030000   333400010001204104000000281Myanmar Soft-Gate Tech Yangon        MMR11007271246321632560727000000000000000   10300001F05104100000000000208000000000000     
100   95050311121153200000000000000990000000000990002000000010410407271356242624538297960727000007550956   1020000200030000   333400010001204104000000281Myanmar Soft-Gate Tech Yangon        MMR11007271356242624530727000000000000000   10300001F05104100000000000208000000000000     
100   62911028202611530000000000007000000000007000002000000010410407271845420280904773800727000750848753   1030000200030000   541188001059000008000000314KBZ BANK               MARKETPLACE - MMR11007271845420280900727000000000000000   10300001 00104100000000000420000000000000     
100   62911028202472440000000000121600000000121600002000000010410407271104500272844773800727000750811787   1030000200030000   541188001001000008000000008KBZ BANK               MARKETPLACE - MMR11007271104500272840727000000000000000   10300001 00104100000000007296000000000000     
100   95050317376014640000000000002970000000002970002000000010410407270133510351003963760727000007546740   1020000200030000   333400010001204104000000281Myanmar Soft-Gate Tech Yangon        MMR11007270133510351000727000000000000000   10300001F05104100000000000624000000000000     
100   62443100301716860000000000003960000000003960002000000010410407270949521952097652840727000007549872   1020000200030000   333400010001204104000000281Myanmar Soft-Gate Tech Yangon        MMR11007270949521952090727000000000000000   10300001F05104100000000000832000000000000     
100   95030305700676370000000000070000000000070000002000000010410407270452592549674773800727220811254967   1040001600030000   598320001170000000010000527Shwe Taung Energy (YGN Yangon        MMR11007270452592549670727000000000000000   10300001F00104100000000002100000000000000     
100   62911028202319090000000000029200000000029200002000000010410407270254142491734773800727220809249173   1040001600030000   591220000043000000010000041Mingalar Pharmacy      Yangon        MMR11007270254142491730727000000000000000   10300001F00104100000000001752000000000000     
