100   62911028202319090000000000028000000000028000002000000010410407271125260017974773800727220817001797   1030000500030000   541120227606000045411202276CITY MART ( 47 BRANCH  PTN           MMR11007271125260017970727000000000000000   10300001 00104100000000001680000000000000     
100   62911028202004330000000000008400000000008400002000000010410407271159460025484773800727220818002548   1030000500030000   531120226317000045311202263OCEAN SUPER CENTER STJ PTN           MMR11007271159460025480727000000000000000   10300001 00104100000000000504000000000000     
100   62911028202790310000000000040000000000040000002000000010410407270742570000334773800727220814000033   1030000500030000   598320001603000015172200016MAX ENERGY             PTN           MMR11007270742570000330727000000000000000   10300001 00104100000000001200000000000000     
100   62911028202404540000000000008300000000008300002000000010410407270937140000404773800727220816000040   1030000500030000   541120248101000045411202481CITY EXPRESS (MCS - 13 PTN           MMR11007270937140000400727000000000000000   10300001 00104100000000000498000000000000     
100   62911028202212490000000000042000000000042000002000000010410407271038360000984773800727220817000098   1030000500030000   598320001204000015172200012MAX ENERGY             PTN           MMR11007271038360000980727000000000000000   10300001 00104100000000001260000000000000     
100   62911028202448030000000000070000000000070000002000000010410407270439490000274773800727220811000027   1030000500030000   598320001204000015172200012MAX ENERGY             PTN           MMR11007270439490000270727000000000000000   10300001 00104100000000002100000000000000     
100   95050321379436960000000000019285000000019285002000000010410407271148320001728723440727220818000172   1030000500030000   597720147701008005977201477CLOVER COSMETICS       PTN           MMR11007271148320001720727000000000000000   10300001 00104100000000004628000000000000     
100   62911028202074950000000000026000000000026000002000000010410407270852400000754773800727220815000075   1030000500030000   598320001204000015172200012MAX ENERGY             PTN           MMR11007270852400000750727000000000000000   10300001 00104100000000000780000000000000     
100   95050324622440820000000000062400000000062400002000000010410407280256515902539453650728525260951208   1030000900030000   541119000161190110000000084Pro (1) Global (Pazund YANGONARTAUNG MMR11007280256515902530728000000000000000   10300001F00104100000000015600000000000000     
100   62911028202473840000000001006000000001006000002000000010410407280144545889204773800728043140854208   1030000900030000   806219001119190110000000900Shwe La Min Hospital L YANGONAW      MMR11007280144545889200728000000000000000   10300001F00104100000000060360000000000000     
100   62911028202355870000000001000000000001000000002000000010410407280258392839024773800728000007552191   1040001600030000   333800010001220104000004507A +                    Yangon        MMR11007280258392839020728000000000000000   10300001F05104100000000210000000000000000     
100   95050313145843230000000000005000000000005000002000000010410407280727355735562487180728000007554526   1030000200030000   333800010001203104000003327KBZPay                 Yangon        MMR11007280727355735560728000000000000000   10300001F05104100000000001050000000000000     
100   62911028202319090000000000076300000000076300002000000010410407280347475915604773800728140171047208   1030000900030000   541119001208190110000000948City Mart YK C 6       YANGONAUNG    MMR11007280347475915600728000000000000000   10300001F00104100000000004578000000000000     
100   62911028202281450000000000013100000000013100002000000010410407281132463638414773800728220918363841   1040001600030000   591220000287000000010000275Shwe Ohh Pharmacy (Wit Yangon        MMR11007281132463638410728000000000000000   10300001F00104100000000000786000000000000     
100   95050318621775380000000000014000000000014000002000000010410407281116014601930921690728000007555789   1030000200030000   3338000100012031040000040022C2P (Myanmar) Co. Ltd Yangon        MMR11007281116014601930728000000000000000   10300001F05104100000000002940000000000000     
100   95050316818236190000000000001980000000001980002000000010410407280921525152336042790728000007555264   1020000200030000   333400010001204104000000281Myanmar Soft-Gate Tech Yangon        MMR11007280921525152330728000000000000000   10300001F05104100000000000416000000000000     
100   95030385550669610000000000008100000000008100002000000010410407271211450004344773800727220818000434   1030000500030000   541120230201000045411202302CITY MART SUPERMARKET  PTN           MMR11007271211450004340727000000000000000   10300001 00104100000000000486000000000000     
100   62911028202530930000000000090000000000090000002000000010410407270232400021424773800727220809002142   1030000500030000   598320002104000015172200021MAX ENERGY             PTN           MMR11007270232400021420727000000000000000   10300001 00104100000000002700000000000000     
100   62911028202110420000000000010300000000010300002000000010410407271136480004254773800727220818000425   1030000500030000   541120009001004505499200090M MART                 PTN           MMR11007271136480004250727000000000000000   10300001 00104100000000000618000000000000     
100   62911028202197630000000000027250000000027250002000000010410407270914200011484773800727220815001148   1030000500030000   541120230105000045411202301CITY MART SUPERMARKET  PTN           MMR11007270914200011480727000000000000000   10300001 00104100000000001635000000000000     
100   62911028202446540000000000050550000000050550002000000010410407270422080000014773800727220810000001   1030000500030000   591220012601014405912200126SHWE OHH PHARMACY      PTN           MMR11007270422080000010727000000000000000   10300001 00104100000000003033000000000000     
100   62911028202108200000000000030000000000030000002000000010410407270413380000114773800727220810000011   1030000500030000   598320001302000015172200013MAX ENERGY             PTN           MMR11007270413380000110727000000000000000   10300001 00104100000000000900000000000000     
100   62911028202162640000000000015850000000015850002000000010410407271122230000234773800727220817000023   1030000500030000   591220132901008605912201329THEIK DI WIN SHOP      PTN           MMR11007271122230000230727000000000000000   10300001 00104100000000000951000000000000     
100   62911028202656670000000000150000000000150000002000000010410407270650570000104773800727220813000010   1030000500030000   541120129721000045411201297MAKRO MYANMAR          PTN           MMR11007270650570000100727000000000000000   10300001 00104100000000009000000000000000     
100   62911028202110420000000000041400000000041400002000000010410407280926203048504773800728562018961445   1040001400030000   592110000076015921100000365Million Mart Million M rt No. (519/  MMR11007280926203048500728000000000000000   10300001 00104100000000002484000000000000     
100   95050313732480420000000000001980000000001980002000000010410407280711594159497436560728000007554378   1020000200030000   333400010001204104000000281Myanmar Soft-Gate Tech Yangon        MMR11007280711594159490728000000000000000   10300001F05104100000000000416000000000000     
100   62911028202291190000000000022000000000022000002000000010410407280637165966684773800728867071316208   1030000900030000   541119000546190110000000394Super One ShoppingMall YANGON        MMR11007280637165966680728000000000000000   10300001F00104100000000001320000000000000     
100   62443100373945130000000000030000000000030000002000000010410407280558313393699887210728220912339369   1040001600030000   598320000911000000010000662MMTM - Tamwe           Ygn           MMR11007280558313393690728000000000000000   10300001F00104100000000003600000000000000     
100   95050324247403260000000000070000000000070000002000000010410407280634193418245293000728220913341824   1040001600030000   598320000854000000010000608Terminal Petrol Statio Yangon        MMR11007280634193418240728000000000000000   10300001F00104100000000008400000000000000     
100   62911028202169750000000000123100000000123100002000000010410407280943053540984773800728220916354098   1040001600030000   591220000272000000010000260Shwe Ohh Pharmacy ( Th Yangon        MMR11007280943053540980728000000000000000   10300001F00104100000000007386000000000000     
100   95050315122972560000000000001980000000001980002000000010410407281217424742281698980728000007556026   1020000200030000   333400010001204104000000281Myanmar Soft-Gate Tech Yangon        MMR11007281217424742280728000000000000000   10300001F05104100000000000416000000000000     
100   95050317741619680000000000055000000000055000002000000010410407281125475547474751010728000007555826   1030000200030000   333800010001203104000003327KBZPay                 Yangon        MMR11007281125475547470728000000000000000   10300001F05104100000000011550000000000000     
100   62911028202212490000000000051000000000051000002000000010410407270444490000344773800727220811000034   1030000500030000   598320001201000015172200012MAX ENERGY             PTN           MMR11007270444490000340727000000000000000   10300001 00104100000000001530000000000000     
100   62911028202136750000000000025550000000025550002000000010410407270455200008264773800727220811000826   1030000500030000   541120230112000045411202301CITY MART SUPERMARKET  PTN           MMR11007270455200008260727000000000000000   10300001 00104100000000001533000000000000     
100   95050329720609600000000000500000000000500000002000000010410407270853310000546851320727220815000054   1030000500030000   703220082601000017032200826FIT WAY GYM            PTN           MMR11007270853310000540727000000000000000   10300001 00104100000000120000000000000000     
100   62911028202442250000000000021000000000021000002000000010410407270253190000174773800727220809000017   1030000500030000   598320001204000015172200012MAX ENERGY             PTN           MMR11007270253190000170727000000000000000   10300001 00104100000000000630000000000000     
100   62911028202443730000000000018000000000018000002000000010410407270906340000654773800727220815000065   1030000500030000   598320001902000015172200019MAX ENERGY             PTN           MMR11007270906340000650727000000000000000   10300001 00104100000000000540000000000000     
100   62911028202467900000000000047500000000047500002000000010410407270944260026084773800727220816002608   1030000500030000   541120203706000015411202037CITY MART SUPERMARKET  PTN           MMR11007270944260026080727000000000000000   10300001 00104100000000002850000000000000     
100   62911028202448030000000000056800000000056800002000000010410407270844170001044773800727220815000104   1030000500030000   569120134801009505691201348F1 FREE POINT FASHION  PTN           MMR11007270844170001040727000000000000000   10300001 00104100000000003408000000000000     
100   62443100313002190000000000017800000000017800002000000010410407271136270008392113500727220818000839   1030000500030000   541120230112000045411202301CITY MART SUPERMARKET  PTN           MMR11007271136270008390727000000000000000   10300001 00104100000000004450000000000000     
100   95050317003064220000000000000990000000000990002000000010410407281524465446178929830728000007556705   1020000200030000   333400010001204104000000281Myanmar Soft-Gate Tech Yangon        MMR11007281524465446170728000000000000000   10300001F05104100000000000208000000000000     
100   95050318712627500000000000004950000000004950002000000010410407280801323132154614590728000007554797   1020000200030000   333400010001204104000000281Myanmar Soft-Gate Tech Yangon        MMR11007280801323132150728000000000000000   10300001F05104100000000001040000000000000     
100   95050310833306920000000000045600000000045600002000000010410407280502303356135097410728220912335613   1040001600030000   591220000269000000010000257Shwe Ohh Pharmacy (Tam Yangon        MMR11007280502303356130728000000000000000   10300001F00104100000000010944000000000000     
100   95030301100102610000000000020000000000020000002000000010410407280706473647554773800728000007554350   1030000200030000   333800010001203104000003327KBZPay                 Yangon        MMR11007280706473647550728000000000000000   10300001F05104100000000004200000000000000     
100   95050310833306920000000000006600000000006600002000000010410407280504023357020139950728220912335702   1040001600030000   591220000269000000010000257Shwe Ohh Pharmacy (Tam Yangon        MMR11007280504023357020728000000000000000   10300001F00104100000000001584000000000000     
100   95050324411430900000000000032000000000032000002000000010410407281044133592531984230728220917359253   1040001600030000   598320001170000000010000527Shwe Taung Energy (YGN Yangon        MMR11007281044133592530728000000000000000   10300001F00104100000000003840000000000000     
100   62911028202740570000000000004032000000004032002000000010410407280710074007804773800728000007554365   1030000900030000   333800010001202104000003301uab bank               Yangon        MMR11007280710074007800728000000000000000   10300001F05104100000000000847000000000000     
100   62443100306882420000000000030000000000030000002000000010410407281415324532951770250728000007556496   1030000200030000   333800010001203104000003327KBZPay                 Yangon        MMR11007281415324532950728000000000000000   10300001F05104100000000006300000000000000     
100   62911028202462200000000000017000000000017000002000000010410407270321420000014773800727220809000001   1030000500030000   591220011601014405912200116SHWE OHH PHARMACY      PTN           MMR11007270321420000010727000000000000000   10300001 00104100000000001020000000000000     
100   95050324154190880000000000017000000000017000002000000010410407270143590000130488600727220808000013   1030000500030000   598320001301000015172200013MAX ENERGY             PTN           MMR11007270143590000130727000000000000000   10300001 00104100000000002040000000000000     
100   62911028202312890000000000045000000000045000002000000010410407270659120000304773800727220813000030   1030000500030000   598320001603000015172200016MAX ENERGY             PTN           MMR11007270659120000300727000000000000000   10300001 00104100000000001350000000000000     
100   62911028202446540000000000876000000000876000002000000010410407270641070002104773800727220813000210   1030000500030000   806220094201024208062200942DENT ASIA ROYAL CLINIC PTN           MMR11007270641070002100727000000000000000   10300001 00104100000000052560000000000000     
100   62911028202136750000000000006600000000006600002000000010410407270446500009144773800727220811000914   1030000500030000   541120230106000045411202301CITY MART SUPERMARKET  PTN           MMR11007270446500009140727000000000000000   10300001 00104100000000000396000000000000     
100   95030305234413920000000000011738000000011738002000000010410407270931310017094773800727220816001709   1030000500030000   541120203705000015411202037CITY MART SUPERMARKET  PTN           MMR11007270931310017090727000000000000000   10300001 00104100000000000704000000000000     
100   62911028202197630000000000016250000000016250002000000010410407270906170008314773800727220815000831   1030000500030000   541120230112000045411202301CITY MART SUPERMARKET  PTN           MMR11007270906170008310727000000000000000   10300001 00104100000000000975000000000000     
100   95030314863516850000000000006000000000006000002000000010410407271633100310234773800727000007551431   1030000200030000   333800010001203104000003327KBZPay                 Yangon        MMR11007271633100310230727000000000000000   10300001F05104100000000001260000000000000     
100   62911028202664420000000000096062000000096062002000000010410407280421063332504773800728220911333250   1040001600030000   541120000559000000010000465Ocean Shwe Gone Daing  Yangon        MMR11007280421063332500728000000000000000   10300001F00104100000000005764000000000000     
100   62911028202440680000000000005850000000005850002000000010410407280600573395334773800728220913339533   1040001600030000   591220000296000000010000284Shwe Ohh Pharmacy (Lan Yangon        MMR11007280600573395330728000000000000000   10300001F00104100000000000351000000000000     
100   62911028202520380000000000073500000000073500002000000010410407280725273452754773800728220914345275   1040001600030000   541120000557000000010000465Ocean Shwe Gone Daing  Yangon        MMR11007280725273452750728000000000000000   10300001F00104100000000004410000000000000     
100   95050319111666800000000000000990000000000990002000000010410407281331250125722195790728000007556300   1020000200030000   333400010001204104000000281Myanmar Soft-Gate Tech Yangon        MMR11007281331250125720728000000000000000   10300001F05104100000000000208000000000000     
100   62911028202057620000000000201750000000201750002000000010410407281146366075464773800728080161836208   1030000900030000   541119001353190110000000977Ocean PZD C 7          YANGONAUNG    MMR11007281146366075460728000000000000000   10300001F00104100000000012105000000000000     
100   95030305700676370000000000034500000000034500002000000010410407270702440038184773800727220813003818   1030000500030000   541120226403000045411202264MARKET PLACE MYANMARPL PTN           MMR11007270702440038180727000000000000000   10300001 00104100000000002070000000000000     
100   62443101065883000000000000059400000000059400002000000010410407280943226024865690960728970131622208   1030000900030000   541119001231190110000000951Marketplace KTY C 1    YANGONARTAUNG MMR11007280943226024860728000000000000000   10300001F00104100000000014850000000000000     
100   62911028202664420000000000041950000000041950002000000010410407280319303300544773800728220910330054   1040001600030000   541120000584000000010000465Ocean Shwe Gone Daing  Yangon        MMR11007280319303300540728000000000000000   10300001F00104100000000002517000000000000     
100   62911028202423360000000000030000000000030000002000000010410407270107100859714773800727220801085971   1030000600030000   554100000955315799420000477DENKO INSEIN           YANGON        MMR11007270107100859710727000000000000000   10300001 00104100000000000900000000000000     
100   95050324850150480000000000030000000000030000002000000010410407270004330207906211920727220800020790   1030000600030000   554100001011315799420000505DENKO HTAN TA PIN      YANGON        MMR11007270004330207900727000000000000000   10300001 00104100000000003600000000000000     
100   62911028202136750000000000019508000000019508002000000010410407270514060575074773800727220805057507   1030000600030000   554100001001315799420000498DENKO SHWE PYI THAR    YANGON        MMR11007270514060575070727000000000000000   10300001 00104100000000000585000000000000     
100   95050329023136610000000000067050000000067050002000000010410407270659582628635950920727220813262863   1040001600030000   541120000559000000010000465Ocean Shwe Gone Daing  Yangon        MMR11007270659582628630727000000000000000   10300001F00104100000000016763000000000000     
100   62911028202831990000000000005000000000005000002000000010410407271051550055804773800727220810005580   1030000600030000   554100000746315799420000324DENKO SHANKALAY KYUN   MANDALAY      MMR11007271051550055800727000000000000000   10300001 00104100000000000150000000000000     
100   62443100315110470000000000074350000000074350002000000010410407270941562717427737940727220816271742   1040001600030000   581420000076000000010000074Hot Pot City Ahlone    Yangon        MMR11007270941562717420727000000000000000   10300001F00104100000000008922000000000000     
100   62911028202791220000000000048000000000048000002000000010410407270629001015804773800727220806101580   1030000600030000   554100000946315799420000471DENKO BAHAN            YANGON        MMR11007270629001015800727000000000000000   10300001 00104100000000001440000000000000     
100   62911028202172540000000000150000000000150000002000000010410407270925410002714773800727220815000271   1030000500030000   541120129724000045411201297MAKRO MYANMAR          PTN           MMR11007270925410002710727000000000000000   10300001 00104100000000009000000000000000     
100   95030390626214130000000000033700000000033700002000000010410407280803490021994773800728220914002199   1020000200030000   541100255007300115411000025MWD BANK               YGN           MMR11007280803490021990728000000000000000   10300001 00104100000000002022000000000000     
100   62911028202136750000000000047000000000047000002000000010410407280915373521864773800728220916352186   1040001600030000   598320001456000000010001150360 Petro (Bayint Naun Ygn           MMR11007280915373521860728000000000000000   10300001F00104100000000001410000000000000     
100   95030301100121270000000000068050000000068050002000000010410407281031296042094773800728954011729208   1030000900030000   541119001264190110000000958City Mart PLST C 7     YANGONMYOTHIT MMR11007281031296042090728000000000000000   10300001F00104100000000004083000000000000     
100   95050317834964620000000000009045000000009045002000000010410407281038116045465033890728160081711208   1030000900030000   541119001355190110000000977Ocean PZD C9           YANGONAUNG    MMR11007281038116045460728000000000000000   10300001F00104100000000002262000000000000     
100   62911028202154800000000000092008000000092008002000000010410407270017180247254773800727220800024725   1030000600030000   554100002323315799420000474DENKO N.DAGON - 1      YANGON        MMR11007270017180247250727000000000000000   10300001 00104100000000002760000000000000     
100   95050322715181550000000000044000000000044000002000000010410407280942366024625265500728954121636208   1030000900030000   554119001101190110000000213New Day Energy SOK     YANGONOKKALAP MMR11007280942366024620728000000000000000   10300001F00104100000000005280000000000000     
100   62911028202248050000000000020000000000020000002000000010410407261447520422524773800726220714042252   1030000600030000   554100001155315799420000607DENKO NPT 1            NAYPYITAW.    MMR11007261447520422520726000000000000000   10300001 00104100000000000600000000000000     
100   62911028202169750000000000213300000000213300002000000010410407280812283482134773800728220915348213   1040001600030000   591220000274000000010000262Shwe Ohh Pharmacy (Shw Yangon        MMR11007280812283482130728000000000000000   10300001F00104100000000012798000000000000     
100   62911028202319090000000000165700000000165700002000000010410407271029400017904773800727220816001790   1030000500030000   541120227606000045411202276CITY MART ( 47 BRANCH  PTN           MMR11007271029400017900727000000000000000   10300001 00104100000000009942000000000000     
100   95050329632900220000000000050000000000050000002000000010410407270656520000547603400727220813000054   1030000500030000   598320001304000015172200013MAX ENERGY             PTN           MMR11007270656520000540727000000000000000   10300001 00104100000000006000000000000000     
100   62911028202298040000000000036400000000036400002000000010410407270939190000054773800727220816000005   1030000500030000   591220020501005105912200205MINGALAR PHARMACY      PTN           MMR11007270939190000050727000000000000000   10300001 00104100000000002184000000000000     
100   62911028202207380000000000010800000000010800002000000010410407270610480025934773800727220812002593   1030000500030000   541120203706000015411202037CITY MART SUPERMARKET  PTN           MMR11007270610480025930727000000000000000   10300001 00104100000000000648000000000000     
100   62443101063232860000000000018000000000018000002000000010410407280640315967780008950728917101331208   1030000900030000   554119000347190110000000214New Day Energy MTN     YANGONARTAUNG MMR11007280640315967780728000000000000000   10300001F00104100000000002160000000000000     
100   95050317175714970000000000030600000000030600002000000010410407270348200000055034360727220810000005   1030000500030000   591220211101014405912202111SHWE OHH PHARMACY      PTN           MMR11007270348200000050727000000000000000   10300001 00104100000000007344000000000000     
100   95050314570621780000000000000990000000000990002000000010410407280818204820641699450728000007554888   1020000200030000   333400010001204104000000281Myanmar Soft-Gate Tech Yangon        MMR11007280818204820640728000000000000000   10300001F05104100000000000208000000000000     
100   95030308100042590000000000020200000000020200002000000010410407280503375936364773800728183331137208   1030000900030000   541119001218190110000000945City Mart TM C 3       YANGONONE     MMR11007280503375936360728000000000000000   10300001F00104100000000001212000000000000     
100   62443100315110470000000000048000000000048000002000000010410407270351010367678424420727220803036767   1030000600030000   554100002085315799420000471DENKO BAHAN            YANGON        MMR11007270351010367670727000000000000000   10300001 00104100000000005760000000000000     
100   62443100388528570000000000012600000000012600002000000010410407281051016052205884850728591211701208   1030000900030000   541119000138190110000000083SeinGayHarParami Cente YANGON        MMR11007281051016052200728000000000000000   10300001F00104100000000003150000000000000     
100   95050324850150480000000000040000000000040000002000000010410407270653200056584894100727220806005658   1030000600030000   554100001813315799420001188DENKO GWA              GWA           MMR11007270653200056580727000000000000000   10300001 00104100000000004800000000000000     
100   62443100392426520000000000010000000000010000002000000010410407280308513851236148680728000007552279   1030000200030000   333800010001203104000003327KBZPay                 Yangon        MMR11007280308513851230728000000000000000   10300001F05104100000000002100000000000000     
100   62911028202169750000000000081994000000081994002000000010410407280539013380064773800728220912338006   1040001600030000   541120000561000000010000465Ocean Shwe Gone Daing  Yangon        MMR11007280539013380060728000000000000000   10300001F00104100000000004920000000000000     
100   95050314570621780000000000003960000000003960002000000010410407280959022902015477030728000007555448   1020000200030000   333400010001204104000000281Myanmar Soft-Gate Tech Yangon        MMR11007280959022902010728000000000000000   10300001F05104100000000000832000000000000     
100   62911028202139640000000000300000000000300000002000000010410407280446081608994773800728000007553274   1030000200030000   333800010001203104000003327KBZPay                 Yangon        MMR11007280446081608990728000000000000000   10300001F05104100000000063000000000000000     
100   62443100369813440000000000020000000000020000002000000010410407280612025957423846360728338421202208   1030000900030000   554119001101190110000000213New Day Energy SOK     YANGONOKKALAP MMR11007280612025957420728000000000000000   10300001F00104100000000002400000000000000     
100   95030394609966640000000000040000000000040000002000000010410407280603503397214773800728220913339721   1040001600030000   598320000658000000010000527Shwe Taung Energy (YGN Yangon        MMR11007280603503397210728000000000000000   10300001F00104100000000001200000000000000     
100   62443100397667340000000000002970000000002970002000000010410407280513034303232047730728000007553484   1020000200030000   333400010001204104000000281Myanmar Soft-Gate Tech Yangon        MMR11007280513034303230728000000000000000   10300001F05104100000000000624000000000000     
100   95050313400081980000000000005500000000005500002000000010410407281407463746844819950728000007556453   1030000200030000   333800010001203104000003327KBZPay                 Yangon        MMR11007281407463746840728000000000000000   10300001F05104100000000001155000000000000     
100   62443100397667340000000000029700000000029700002000000010410407280510254025910480340728000007553464   1020000200030000   333400010001204104000000281Myanmar Soft-Gate Tech Yangon        MMR11007280510254025910728000000000000000   10300001F05104100000000006237000000000000     
100   62911028202199530000000000016000000000016000002000000010410407270438170006094773800727220811000609   1030000500030000   581220263901000085812202639BREAD TALK             PTN           MMR11007270438170006090727000000000000000   10300001 00104100000000001632000000000000     
100   62911028202264610000000000017095000000017095002000000010410407280814583483724773800728220915348372   1040001600030000   591220000274000000010000262Shwe Ohh Pharmacy (Shw Yangon        MMR11007280814583483720728000000000000000   10300001F00104100000000001026000000000000     
100   95050310332595380000000000000990000000000990002000000010410407280720045004903684250728000007554438   1020000200030000   333400010001204104000000281Myanmar Soft-Gate Tech Yangon        MMR11007280720045004900728000000000000000   10300001F05104100000000000208000000000000     
100   62911028202461130000000000020850000000020850002000000010410407270745000004954773800727220814000495   1030000500030000   541120203703000015411202037CITY MART SUPERMARKET  PTN           MMR11007270745000004950727000000000000000   10300001 00104100000000001251000000000000     
100   62911028202790980000000001000000000001000000002000000010410407281429360000974773800728000750920431   1030000200030000   481288001529000008000004974KBZ BANK               YOUNIQUE INFO MMR11007281429360000970728000000000000000   10300001 00104100000000060000000000000000     
100   62911028202790980000000001000000000001000000002000000010410407281431190000994773800728000750920464   1030000200030000   481288001529000008000004974KBZ BANK               YOUNIQUE INFO MMR11007281431190000990728000000000000000   10300001 00104100000000060000000000000000     
100   62911028202790980000000001000000000001000000002000000010410407281429140000964773800728000750920425   1030000200030000   481288001529000008000004974KBZ BANK               YOUNIQUE INFO MMR11007281429140000960728000000000000000   10300001 00104100000000060000000000000000     
100   95030320108927800000000000205855000000205855002000000010410407280801010000474773800728000750896684   1030000200030000   551188002595000008000006988KBZ BANK               MINGALAR MOTO MMR11007280801010000470728000000000000000   10300001 00104100000000012351000000000000     
100   62911028202126850000000000345000000000345000002000000010410407280413060001454773800728000750873474   1030000200030000   481288002331000008000006205KBZ BANK               5BB SHOWROOM  MMR11007280413060001450728000000000000000   10300001 00104100000000020700000000000000     
100   62911028202317430000000000033350000000033350002000000010410407281907280006534773800728000750917614   1030000200030000   541188001289000008000001475KBZ BANK               CITY CARE STA MMR11007281907280006530728000000000000000   10300001 00104100000000002001000000000000     
100   62911028202126850000000000414000000000414000002000000010410407280356400001414773800728000750871919   1030000200030000   481288002331000008000006205KBZ BANK               5BB SHOWROOM  MMR11007280356400001410728000000000000000   10300001 00104100000000024840000000000000     
100   62911028202126850000000000552000000000552000002000000010410407280400580001424773800728000750872221   1030000200030000   481288002331000008000006205KBZ BANK               5BB SHOWROOM  MMR11007280400580001420728000000000000000   10300001 00104100000000033120000000000000     
100   62911028202790980000000001000000000001000000002000000010410407281412400000934773800728000750920146   1030000200030000   481288001529000008000004974KBZ BANK               YOUNIQUE INFO MMR11007281412400000930728000000000000000   10300001 00104100000000060000000000000000     
100   62911028202790980000000000900000000000900000002000000010410407281430200000984773800728000750920448   1030000200030000   481288001529000008000004974KBZ BANK               YOUNIQUE INFO MMR11007281430200000980728000000000000000   10300001 00104100000000054000000000000000     
100   62911028202790980000000000100000000000100000002000000010410407281428500000954773800728000750920411   1030000200030000   481288001529000008000004974KBZ BANK               YOUNIQUE INFO MMR11007281428500000950728000000000000000   10300001 00104100000000006000000000000000     
100   62911028202726970000000000020082000000020082002000000010410407281238490022404773800728000750885408   1030000200030000   541188001485000008000000399KBZ BANK               OCEAN SUPERCE MMR11007281238490022400728000000000000000   10300001 00104100000000001205000000000000     
100   62911028202139640000000000300000000000300000002000000010410407280443501350514773800728000007553253   1030000200030000   333800010001203104000003327KBZPay                 Yangon        MMR11007280443501350510728000000000000000   10300001F05104100000000063000000000000000     
100   62911028202169750000000000536800000000536800002000000010410407281007330976334773800728373353316334   1040001400030000   591210000148025912100001206Thuwunnadipa null No-9   Groud Floor MMR11007281007330976330728000000000000000   10300001 00104100000000032208000000000000     
100   95050319528093960000000000001980000000001980002000000010410407281539450945618078820728000007556744   1020000200030000   333400010001204104000000281Myanmar Soft-Gate Tech Yangon        MMR11007281539450945610728000000000000000   10300001F05104100000000000416000000000000     
100   62911028202209440000000000051839000000051839002000000010410407281136470291994773800728000750878987   1030000200030000   541188001003000008000000008KBZ BANK               MARKETPLACE - MMR11007281136470291990728000000000000000   10300001 00104100000000003110000000000000     
100   95050316818236190000000000000990000000000990002000000010410407281135070507268009920728000007555871   1020000200030000   333400010001204104000000281Myanmar Soft-Gate Tech Yangon        MMR11007281135070507260728000000000000000   10300001F05104100000000000208000000000000     
100   95050313763920110000000000040320000000040320002000000010410407280741461146495075730728000007554646   1030000900030000   333800010001202104000003301uab bank               Yangon        MMR11007280741461146490728000000000000000   10300001F05104100000000008467000000000000     
100   62443100313002190000000000008850000000008850002000000010410407281430030123058515230728000750896572   1030000200030000   541188001132000008000000296KBZ BANK               CITY MART - J MMR11007281430030123050728000000000000000   10300001 00104100000000002213000000000000     
100   62443100364681690000000001000000000001000000002000000010410407281540001000388504320728000007556748   1040001600030000   333800010001220104000004507A +                    Yangon        MMR11007281540001000380728000000000000000   10300001F05104100000000210000000000000000     
100   95050327243132200000000000005200000000005200002000000010410407281415130182001260180728000750894927   1030000200030000   541188001056000008000000314KBZ BANK               MARKETPLACE - MMR11007281415130182000728000000000000000   10300001 00104100000000001300000000000000     
100   95050313072967520000000000030000000000030000002000000010410407281433450345345454660728000007556554   1030000200030000   333800010001203104000003327KBZPay                 Yangon        MMR11007281433450345340728000000000000000   10300001F05104100000000006300000000000000     
100   95050317248519320000000000002000000000002000002000000010410407281243001300450919330728000007556124   1030000200030000   3338000100012031040000040022C2P (Myanmar) Co. Ltd Yangon        MMR11007281243001300450728000000000000000   10300001F05104100000000000420000000000000     
100   95050316785465380000000000000990000000000990002000000010410407281535520552441553990728000007556734   1020000200030000   333400010001204104000000281Myanmar Soft-Gate Tech Yangon        MMR11007281535520552440728000000000000000   10300001F05104100000000000208000000000000     
100   95030327835334700000000000021697000000021697002000000010410407281832530160454773800728000750916079   1030000200030000   541188001244000008000000323KBZ BANK               CITY MART - I MMR11007281832530160450728000000000000000   10300001 00104100000000001302000000000000     
100   62911028202139640000000000300000000000300000002000000010410407280444581458194773800728000007553260   1030000200030000   333800010001203104000003327KBZPay                 Yangon        MMR11007280444581458190728000000000000000   10300001F05104100000000063000000000000000     
100   95050314996291580000000000002970000000002970002000000010410407280552142214655511640728000007553796   1020000200030000   333400010001204104000000281Myanmar Soft-Gate Tech Yangon        MMR11007280552142214650728000000000000000   10300001F05104100000000000624000000000000     
100   95030310100002200000000000037097000000037097002000000010410407281614340038194773800728000750907176   1030000200030000   541188001354000008000000395KBZ BANK               OCEAN SUPERMA MMR11007281614340038190728000000000000000   10300001 00104100000000002226000000000000     
100   95030314100001680000000000002970000000002970002000000010410407281145221522204773800728000007555915   1020000200030000   333400010001204104000000281Myanmar Soft-Gate Tech Yangon        MMR11007281145221522200728000000000000000   10300001F05104100000000000624000000000000     
100   62911028202474180000000000053800000000053800002000000010410407281355310109234773800728000750893050   1030000200030000   541188001060000008000000314KBZ BANK               MARKETPLACE - MMR11007281355310109230728000000000000000   10300001 00104100000000003228000000000000     
100   62443100313002190000000000026150000000026150002000000010410407281439160149694032710728000750897815   1030000200030000   541188001127000008000000296KBZ BANK               CITY MART - J MMR11007281439160149690728000000000000000   10300001 00104100000000006538000000000000     
100   62911028202169750000000000195213000000195213002000000010410407281132390273464773800728000750878636   1030000200030000   541188001001000008000000008KBZ BANK               MARKETPLACE - MMR11007281132390273460728000000000000000   10300001 00104100000000011713000000000000     
100   95050328303533000000000000003000000000003000002000000010410407280050052005157872480728000007551792   1030000200030000   3334000100012031040000040102C2P (Myanmar) Co. Ltd Yangon        MMR11007280050052005150728000000000000000   10300001F05104100000000000630000000000000     
100   62911028202611530000000000015550000000015550002000000010410407281815440281404773800728000750915184   1030000200030000   541188001059000008000000314KBZ BANK               MARKETPLACE - MMR11007281815440281400728000000000000000   10300001 00104100000000000933000000000000     
100   95050316818236190000000000000990000000000990002000000010410407280344061406620510470728000007552704   1020000200030000   333400010001204104000000281Myanmar Soft-Gate Tech Yangon        MMR11007280344061406620728000000000000000   10300001F05104100000000000208000000000000     
100   95050319928585020000000000000990000000000990002000000010410407280854262426138381790728000007555106   1020000200030000   333400010001204104000000281Myanmar Soft-Gate Tech Yangon        MMR11007280854262426130728000000000000000   10300001F05104100000000000208000000000000     
100   62911028202313470000000000038534000000038534002000000010410407281719100158624773800728000750911687   1030000200030000   541188001002000008000000008KBZ BANK               MARKETPLACE - MMR11007281719100158620728000000000000000   10300001 00104100000000002312000000000000     
100   62443100364681690000000000500000000000500000002000000010410407281541591159827653360728000007556754   1040001600030000   333800010001220104000004507A +                    Yangon        MMR11007281541591159820728000000000000000   10300001F05104100000000105000000000000000     
100   95050310427855490000000000000990000000000990002000000010410407281548491849974178190728000007556768   1020000200030000   333400010001204104000000281Myanmar Soft-Gate Tech Yangon        MMR11007281548491849970728000000000000000   10300001F05104100000000000208000000000000     
100   62443100364681690000000001000000000001000000002000000010410407281541051105305029160728000007556751   1040001600030000   333800010001220104000004507A +                    Yangon        MMR11007281541051105300728000000000000000   10300001F05104100000000210000000000000000     
100   95050328303533000000000000005000000000005000002000000010410407280045251525326219990728000007551786   1030000200030000   3334000100012031040000040102C2P (Myanmar) Co. Ltd Yangon        MMR11007280045251525320728000000000000000   10300001F05104100000000001050000000000000     
100   95050311382087030000000000010000000000010000002000000010410407281152222222205953800728000007555936   1030000200030000   3338000100012031040000040022C2P (Myanmar) Co. Ltd Yangon        MMR11007281152222222200728000000000000000   10300001F05104100000000002100000000000000     
100   95050327192897240000000000000990000000000990002000000010410407280552512251262547060728000007553779   1020000200030000   333400010001204104000000281Myanmar Soft-Gate Tech Yangon        MMR11007280552512251260728000000000000000   10300001F05104100000000000208000000000000     
100   62911028202472440000000000038627000000038627002000000010410407281318530039574773800728000750889307   1030000200030000   541188001008000008000000008KBZ BANK               MARKETPLACE - MMR11007281318530039570728000000000000000   10300001 00104100000000002318000000000000     
100   62911028202313470000000000013200000000013200002000000010410407281725370069294773800728000750912104   1030000200030000   541188001005000008000000008KBZ BANK               MARKETPLACE - MMR11007281725370069290728000000000000000   10300001 00104100000000000792000000000000     
100   62911028202698420000000000028050000000028050002000000010410407281421410267394773800728000750895622   1030000200030000   541188001037000008000000010KBZ BANK               MARKETPLACE - MMR11007281421410267390728000000000000000   10300001 00104100000000001683000000000000     
100   95050311419479170000000000002000000000002000002000000010410407280343161316628857980728000007552681   1030000200030000   3334000100012031040000040102C2P (Myanmar) Co. Ltd Yangon        MMR11007280343161316620728000000000000000   10300001F05104100000000000420000000000000     
100   62911028202139640000000000100000000000100000002000000010410407280448551855354773800728000007553297   1030000200030000   333800010001203104000003327KBZPay                 Yangon        MMR11007280448551855350728000000000000000   10300001F05104100000000021000000000000000     
100   95030308100042590000000000002800000000002800002000000010410407280506495937394773800728235361149208   1030000900030000   541119001229190110000000946City Mart TM Season C  YANGONONE     MMR11007280506495937390728000000000000000   10300001F00104100000000000168000000000000     
100   62911028202355870000000000700000000000700000002000000010410407280302123212594773800728000007552207   1040001600030000   333800010001220104000004507A +                    Yangon        MMR11007280302123212590728000000000000000   10300001F05104100000000147000000000000000     
100   62911028202520380000000000034299000000034299002000000010410407280728003454274773800728220914345427   1040001600030000   541120000557000000010000465Ocean Shwe Gone Daing  Yangon        MMR11007280728003454270728000000000000000   10300001F00104100000000002058000000000000     
100   95050327022536610000000000079000000000079000002000000010410407281209393939483755100728000007556002   1030000200030000   3333000100012031040000040282C2P (Myanmar) Co. Ltd Yangon        MMR11007281209393939480728000000000000000   10300001F05104100000000010000000000000000     
100   95050312937155340000000000093250000000093250002000000010410407281123563629588651680728220918362958   1040001600030000   591220000291000000010000279Shwe Ohh Pharmacy (Sou Yangon        MMR11007281123563629580728000000000000000   10300001F00104100000000022380000000000000     
100   95050314557307430000000000002970000000002970002000000010410407280853022302473630150728000007555098   1020000200030000   333400010001204104000000281Myanmar Soft-Gate Tech Yangon        MMR11007280853022302470728000000000000000   10300001F05104100000000000624000000000000     
100   62911028202264610000000000007900000000007900002000000010410407280944293541714773800728220916354171   1040001600030000   591220000272000000010000260Shwe Ohh Pharmacy ( Th Yangon        MMR11007280944293541710728000000000000000   10300001F00104100000000000474000000000000     
100   95050312695033440000000000001980000000001980002000000010410407280311304130267801170728000007552306   1020000200030000   333400010001204104000000281Myanmar Soft-Gate Tech Yangon        MMR11007280311304130260728000000000000000   10300001F05104100000000000416000000000000     
100   62911028202169750000000000339600000000339600002000000010410407280905536011674773800728229351553208   1030000900030000   591219000503190110000000350Shwe Ohh Pharmacy (WZD YANGONNGKUUN  MMR11007280905536011670728000000000000000   10300001F00104100000000020376000000000000     
100   95050312298324450000000000000990000000000990002000000010410407271635120512065163190728000007551436   1020000200030000   333400010001204104000000281Myanmar Soft-Gate Tech Yangon        MMR11007271635120512060728000000000000000   10300001F05104100000000000208000000000000     
100   95050316785465380000000000002970000000002970002000000010410407280603383338649376630728000007553872   1020000200030000   333400010001204104000000281Myanmar Soft-Gate Tech Yangon        MMR11007280603383338640728000000000000000   10300001F05104100000000000624000000000000     
100   62911028202935780000000000013500000000013500002000000010410407280624083411174773800728220913341117   1040001600030000   591220000260000000010000248Shwe Ohh Pharmacy (KDL Yangon        MMR11007280624083411170728000000000000000   10300001F00104100000000000810000000000000     
100   95050325139996190000000000003300000000003300002000000010410407280326545654970595560728000007552498   1030000200030000   333300010001203104000003632Myanmar Tradenet Test  Yangon        MMR11007280326545654970728000000000000000   10300001F05104100000000010000000000000000     
100   95050311419479170000000000001000000000001000002000000010410407281555462546824603650728000007556794   1030000200030000   3334000100012031040000040102C2P (Myanmar) Co. Ltd Yangon        MMR11007281555462546820728000000000000000   10300001F05104100000000000210000000000000     
100   62911028202355870000000001000000000001000000002000000010410407280255532553514773800728000007552170   1040001600030000   333800010001220104000004507A +                    Yangon        MMR11007280255532553510728000000000000000   10300001F05104100000000210000000000000000     
100   62911028202440680000000000006700000000006700002000000010410407280824223489584773800728220915348958   1040001600030000   591220000296000000010000284Shwe Ohh Pharmacy (Lan Yangon        MMR11007280824223489580728000000000000000   10300001F00104100000000000402000000000000     
100   62911028202809060000000000050000000000050000002000000010410407280206263626034773800728000007551952   1030000200030000   333800010001203104000003327KBZPay                 Yangon        MMR11007280206263626030728000000000000000   10300001F05104100000000010500000000000000     
100   95050322957045260000000000070000000000070000002000000010410407281011104110227250270728000007555522   1030000200030000   3338000100012031040000040022C2P (Myanmar) Co. Ltd Yangon        MMR11007281011104110220728000000000000000   10300001F05104100000000014700000000000000     
