100   95050324082484780000000000009700000000009700002000000010410407291151306422760192930729839211830209   1030000900030000   541119001298190110000000968Ocean Mingalar MDY C 6 MANDALAYHARSI MMR11007291151306422760729000000000000000   10300001F00104100000000002425000000000000     
100   62911028202104730000000001328357000001328357002000000010410407290315564556434773800729000007557920   1010000100030000   333500010001212104000002840Internal Revenue Depar Yangon        MMR11007290315564556430729000000000000000   10300001F05104100000000060000000000000000     
100   62911028202112400000000000040600000000040600002000000010410407290936456364534773800729297061645209   1030000900030000   541119001247190110000000955City Mart JS C 6       YANGONUT      MMR11007290936456364530729000000000000000   10300001F00104100000000002436000000000000     
100   95050320205194540000000000021150000000021150002000000010410407291116414394992270900729221018439499   1040001600030000   591220000292000000010000280Shwe Ohh Pharmacy (Cha Yangon        MMR11007291116414394990729000000000000000   10300001F00104100000000005076000000000000     
100   62911028202119270000000000054400000000054400002000000010410407290245186202954773800729139150918209   1030000900030000   541119000112190110000000077Sein Gay Har Chinatown YANGON        MMR11007290245186202950729000000000000000   10300001F00104100000000003264000000000000     
100   95050315017843630000000000000990000000000990002000000010410407291218564856577058170729000007562321   1020000200030000   333400010001204104000000281Myanmar Soft-Gate Tech Yangon        MMR11007291218564856570729000000000000000   10300001F05104100000000000208000000000000     
100   62911028202319090000000000048800000000048800002000000010410407290856156347454773800729245261515209   1030000900030000   541119001358190110000000977Ocean PZD C 12         YANGONAUNG    MMR11007290856156347450729000000000000000   10300001F00104100000000002928000000000000     
100   95050316601084530000000000001980000000001980002000000010410407291115294529677228350729000007562030   1020000200030000   333400010001204104000000281Myanmar Soft-Gate Tech Yangon        MMR11007291115294529670729000000000000000   10300001F05104100000000000416000000000000     
100   62911028202169750000000000017850000000017850002000000010410407290848256343974773800729043181525209   1030000900030000   591219001148190110000000927Shwe Ohh Pharmacy St 4 YANGON        MMR11007290848256343970729000000000000000   10300001F00104100000000001071000000000000     
100   62911028202136750000000000007650000000007650002000000010410407291035526387814773800729600051752209   1030000900030000   541119001216190110000000945City Mart TM C 1       YANGONONE     MMR11007291035526387810729000000000000000   10300001F00104100000000000459000000000000     
100   62443100335647210000000000001980000000001980002000000010410407291017404740933448460729000007561752   1020000200030000   333400010001204104000000281Myanmar Soft-Gate Tech Yangon        MMR11007291017404740930729000000000000000   10300001F05104100000000000416000000000000     
100   62911028202474180000000000008250000000008250002000000010410407291055036398234773800729279251703209   1030000900030000   541119001266190110000000958City Mart PLST C9      YANGONMYOTHIT MMR11007291055036398230729000000000000000   10300001F00104100000000000495000000000000     
100   95030338164853990000000000021800000000021800002000000010410407291031184351084773800729221017435108   1040001600030000   591220000258000000010000246Shwe Ohh Pharmacy (Sin Yangon        MMR11007291031184351080729000000000000000   10300001F00104100000000001308000000000000     
100   95050326593223450000000000067000000000067000002000000010410407291048456394521724670729043181745209   1030000900030000   554119000348190110000000215New Day Energy MYG     YANGONONE     MMR11007291048456394520729000000000000000   10300001F00104100000000008040000000000000     
100   62911028202169750000000000040600000000040600002000000010410407290824144263464773800729221015426346   1040001600030000   591220001006000000010000736Shwe Ohh Pharmacy (Kyi Ygn           MMR11007290824144263460729000000000000000   10300001F00104100000000002436000000000000     
100   95050325630928770000000000000990000000000990002000000010410407290420085008813901520729000007558687   1020000200030000   333400010001204104000000281Myanmar Soft-Gate Tech Yangon        MMR11007290420085008810729000000000000000   10300001F05104100000000000208000000000000     
100   62911028202473840000000001509000000001509000002000000010410407290755206321544773800729726251420209   1030000900030000   806219001119190110000000900Shwe La Min Hospital L YANGONAW      MMR11007290755206321540729000000000000000   10300001F00104100000000090540000000000000     
100   95050322715181550000000000025564000000025564002000000010410407290910496354009688080729670401549209   1030000900030000   581219000006190110000000004Jo Jo Hot Pot Junction YANGONUT      MMR11007290910496354000729000000000000000   10300001F00104100000000010865000000000000     
100   95030338164853990000000000081800000000081800002000000010410407291023014343614773800729221017434361   1040001600030000   591220000258000000010000246Shwe Ohh Pharmacy (Sin Yangon        MMR11007291023014343610729000000000000000   10300001F00104100000000004908000000000000     
100   95050328035424750000000000201450000000201450002000000010410407291123144499289136130729531438520037   1040001400030000   569910000581025699100003527F1 Free Point Fashion  ull Myanmar L MMR11007291123144499280729000000000000000   10300001 00104100000000048348000000000000     
100   95050317743858310000000000018250000000018250002000000010410407290943576367376377390729474131657209   1030000900030000   541119000121190110000000080Sein Gay Har BAK       YANGONADA     MMR11007290943576367370729000000000000000   10300001F00104100000000004563000000000000     
100   62911028202800470000000000099368000000099368002000000010410407291131046415184773800729378011804209   1030000900030000   541119001203190110000000948City Mart YK C 1       YANGONAUNG    MMR11007291131046415180729000000000000000   10300001F00104100000000005962000000000000     
100   62911028202169750000000000035700000000035700002000000010410407290757014247614773800729221014424761   1040001600030000   591220000259000000010000247Shwe Ohh Pharmacy (KKT Yangon        MMR11007290757014247610729000000000000000   10300001F00104100000000002142000000000000     
100   95050313145843230000000000030000000000030000002000000010410407290545241524436284220729000007559510   1030000200030000   333800010001203104000003327KBZPay                 Yangon        MMR11007290545241524430729000000000000000   10300001F05104100000000006300000000000000     
100   95050310735627670000000000032200000000032200002000000010410407290946191619409517880729000007561509   1030000200030000   333800010001203104000003327KBZPay                 Yangon        MMR11007290946191619400729000000000000000   10300001F05104100000000006762000000000000     
100   95050325139996190000000000093600000000093600002000000010410407290645481548925787430729000007560071   1030000200030000   333300010001203104000003632Myanmar Tradenet Test  Yangon        MMR11007290645481548920729000000000000000   10300001F05104100000000010000000000000000     
100   62911028202169750000000000023800000000023800002000000010410407290621016282504773800729442511201209   1030000900030000   591219000604190110000000444Shwe Ohh Pharmacy St-1 YANGON        MMR11007290621016282500729000000000000000   10300001F00104100000000001428000000000000     
100   62911028202232370000000000015000000000015000002000000010410407290131270127124773800729000007557358   1030000200030000   333800010001203104000003327KBZPay                 Yangon        MMR11007290131270127120729000000000000000   10300001F05104100000000003150000000000000     
100   62443100315110470000000000005800000000005800002000000010410407280855170014652139790728220915001465   1030000500030000   541120226813000045411202268CITY MART WAIZAYANDA   PTN           MMR11007280855170014650728000000000000000   10300001 00104100000000001450000000000000     
100   95050310305109410000000000001980000000001980002000000010410407291522145214530206730729000007563190   1020000200030000   333400010001204104000000281Myanmar Soft-Gate Tech Yangon        MMR11007291522145214530729000000000000000   10300001F05104100000000000416000000000000     
100   62443100300743690000000000002600000000002600002000000010410407291240176439805079080729921101917209   1030000900030000   541119001213190110000000949City Mart YK Season C  YANGONAUNG    MMR11007291240176439800729000000000000000   10300001F00104100000000000650000000000000     
100   62911028202260400000000000027000000000027000002000000010410407280400290000024773800728220910000002   1030000500030000   581220247001004505812202470SHAKE CAFE & BAKERY    PTN           MMR11007280400290000020728000000000000000   10300001 00104100000000002754000000000000     
100   95050313817486860000000000001980000000001980002000000010410407290917244724471340560729000007561283   1020000200030000   333400010001204104000000281Myanmar Soft-Gate Tech Yangon        MMR11007290917244724470729000000000000000   10300001F05104100000000000416000000000000     
100   62911028202451150000000000064622000000064622002000000010410407290337134676674773800729071361495718   1040001400030000   806210000094028062100000766Yoma OUE Pun Hlaing Ho pital  Yoma O MMR11007290337134676670729000000000000000   10300001 00104100000000003877000000000000     
100   95030394609966640000000000024500000000024500002000000010410407280427250012184773800728220910001218   1030000500030000   541120227505000045411202275CITY MART (AHLONE BRAN PTN           MMR11007280427250012180728000000000000000   10300001 00104100000000001470000000000000     
100   62911028202103410000000000039000000000039000002000000010410407280835060370654773800728220908037065   1030000600030000   554100002085315799420000471DENKO BAHAN            YANGON        MMR11007280835060370650728000000000000000   10300001 00104100000000001170000000000000     
100   62911028202471600000000000092250000000092250002000000010410407280731280034014773800728220914003401   1030000500030000   531120226301000045311202263OCEAN SUPER CENTER STJ PTN           MMR11007280731280034010728000000000000000   10300001 00104100000000005535000000000000     
100   62443100390038980000000000257730000000257730002000000010410407281123590032565176510728000357968375   1030000300030000   569100001650000000000001172CB BANK                ESPRIT (JC)   MMR11007281123590032560728000000000000000   10300001F00104100000000061855000000000000     
100   62443100303702210000000000030000000000030000002000000010410407280707200614555989920728220907061455   1030000600030000   554100001756315799420001137DENKO NORTH DAGON 2    YANGON        MMR11007280707200614550728000000000000000   10300001 00104100000000003600000000000000     
100   62911028202217100000000000052350000000052350002000000010410407290531254154204773800729221012415420   1040001600030000   591220000276000000010000264Shwe Ohh Pharmacy (YGH Yangon        MMR11007290531254154200729000000000000000   10300001F00104100000000003141000000000000     
100   62911028202181120000000000010598000000010598002000000010410407291046476393294773800729960161747209   1030000900030000   541119001265190110000000958City Mart PLST C 8     YANGONMYOTHIT MMR11007291046476393290729000000000000000   10300001F00104100000000000636000000000000     
100   95050322990383760000000000026000000000026000002000000010410407280418060026431992750728220910002643   1030000500030000   541120203706000015411202037CITY MART SUPERMARKET  PTN           MMR11007280418060026430728000000000000000   10300001 00104100000000006500000000000000     
100   95050324082484780000000000009400000000009400002000000010410407291140556419006887970729609101855209   1030000900030000   541119001321190110000000970Ocean Mingalar MDY Sea MANDALAYHARSI MMR11007291140556419000729000000000000000   10300001F00104100000000002350000000000000     
100   62911028202126020000000000011000000000011000002000000010410407281104590033034773800728220917003303   1030000500030000   541120226804000045411202268CITY MART WAIZAYANDA   PTN           MMR11007281104590033030728000000000000000   10300001 00104100000000000660000000000000     
100   62911028202317430000000000030678000000030678002000000010410407281122240022514773800728220917002251   1030000500030000   541120230003000045411202300MARKET PLACE BY CITY M PTN           MMR11007281122240022510728000000000000000   10300001 00104100000000001841000000000000     
100   95050311419479170000000000002000000000002000002000000010410407290559072907826539510729000007559610   1030000200030000   3334000100012031040000040102C2P (Myanmar) Co. Ltd Yangon        MMR11007290559072907820729000000000000000   10300001F05104100000000000420000000000000     
100   62911028202445710000000000092000000000092000002000000010410407280338460040244773800728220910004024   1030000500030000   598320001903000015172200019MAX ENERGY             PTN           MMR11007280338460040240728000000000000000   10300001 00104100000000002760000000000000     
100   62443100315110470000000000035297000000035297002000000010410407280847480037817034010728220915003781   1030000500030000   541120226809000045411202268CITY MART WAIZAYANDA   PTN           MMR11007280847480037810728000000000000000   10300001 00104100000000008825000000000000     
100   62911028202074950000000000005900000000005900002000000010410407280448490024674773800728220911002467   1030000500030000   531120226307000045311202263OCEAN SUPER CENTER STJ PTN           MMR11007280448490024670728000000000000000   10300001 00104100000000000354000000000000     
100   62443100315110470000000000011700000000011700002000000010410407281230360002067798310728000357978125   1030000300030000   581200001487000000000001033CB BANK                YKKO (MAKRO)  MMR11007281230360002060728000000000000000   10300001F00104100000000004973000000000000     
100   62911028202290100000000000013900000000013900002000000010410407280638250002904773800728220913000290   1030000500030000   591220014201014405912200142SHWE OHH PHARMACY      PTN           MMR11007280638250002900728000000000000000   10300001 00104100000000000834000000000000     
100   62911028202045260000000000010200000000010200002000000010410407280653250007114773800728220913000711   1030000500030000   541120229201000045411202292CITY EXPRESS (MCS - 07 PTN           MMR11007280653250007110728000000000000000   10300001 00104100000000000612000000000000     
100   62911028202161240000000000035000000000035000002000000010410407280528230000944773800728220911000094   1030000500030000   598320001203000015172200012MAX ENERGY             PTN           MMR11007280528230000940728000000000000000   10300001 00104100000000001050000000000000     
100   62443100357925510000000000020000000000020000002000000010410407281024260001573189340728220916000157   1030000500030000   598320001102000015172200011MAX ENERGY             PTN           MMR11007281024260001570728000000000000000   10300001 00104100000000002400000000000000     
100   62911028202126020000000000003800000000003800002000000010410407281107040014504773800728220917001450   1030000500030000   541120226814000045411202268CITY MART WAIZAYANDA   PTN           MMR11007281107040014500728000000000000000   10300001 00104100000000000228000000000000     
100   62443100323428970000000000051450000000051450002000000010410407281124040000493474580728220917000049   1030000500030000   541120129720000045411201297MAKRO MYANMAR          PTN           MMR11007281124040000490728000000000000000   10300001 00104100000000012863000000000000     
100   62911028202471860000000000057350000000057350002000000010410407280843120003244773800728220915000324   1030000500030000   531120226309000045311202263OCEAN SUPER CENTER STJ PTN           MMR11007280843120003240728000000000000000   10300001 00104100000000003441000000000000     
100   62443100371022130000000000027400000000027400002000000010410407280358280016013985630728000357891895   1030000300030000   598300001209000000000000817CB BANK                SHWE TAUNG EN MMR11007280358280016010728000000000000000   10300001F00104100000000003288000000000000     
100   62911028202912590000000000052000000000052000002000000010410407280717400001084773800728220913000108   1030000500030000   598320001601000015172200016MAX ENERGY             PTN           MMR11007280717400001080728000000000000000   10300001 00104100000000001560000000000000     
100   62911028202423360000000000001600000000001600002000000010410407281121350011584773800728220917001158   1030000500030000   531120226711000045311202267OCEAN NORTH POINT      PTN           MMR11007281121350011580728000000000000000   10300001 00104100000000000096000000000000     
100   62443100390038980000000000010650000000010650002000000010410407281129550000441485090728220917000044   1030000500030000   581220263901000085812202639BREAD TALK             PTN           MMR11007281129550000440728000000000000000   10300001 00104100000000004527000000000000     
100   62911028202916630000000000012957000000012957002000000010410407280119550001114773800728220907000111   1030000500030000   598320001301000015172200013MAX ENERGY             PTN           MMR11007280119550001110728000000000000000   10300001 00104100000000000389000000000000     
100   62443100315110470000000000150000000000150000002000000010410407281201260000155457030728220918000015   1030000500030000   541120129726000045411201297MAKRO MYANMAR          PTN           MMR11007281201260000150728000000000000000   10300001 00104100000000037500000000000000     
100   62911028202445710000000000015000000000015000002000000010410407281116580000134773800728220917000013   1030000500030000   599520213901000085995202139NPT PET MART GROUP     PTN           MMR11007281116580000130728000000000000000   10300001 00104100000000000900000000000000     
100   62911028202474180000000000020900000000020900002000000010410407291711150021724773800729000750991411   1030000200030000   581288000855000008000004704KBZ BANK               PIZZA HUT RES MMR11007291711150021720729000000000000000   10300001 00104100000000002132000000000000     
100   62443100395250310000000000000990000000000990002000000010410407290830430043007319170729000007560960   1020000200030000   333400010001204104000000281Myanmar Soft-Gate Tech Yangon        MMR11007290830430043000729000000000000000   10300001F05104100000000000208000000000000     
100   62911028202610540000000000025850000000025850002000000010410407291841280100744773800729000750997976   1030000200030000   541188001074000008000000294KBZ BANK               CITY MART - J MMR11007291841280100740729000000000000000   10300001 00104100000000001551000000000000     
100   62911028202502480000000000047750000000047750002000000010410407291407450054574773800729000750972795   1030000200030000   541188001035000008000000010KBZ BANK               MARKETPLACE - MMR11007291407450054570729000000000000000   10300001 00104100000000002865000000000000     
100   62911028202662690000000000004100000000004100002000000010410407291442490125994773800729000750976986   1030000200030000   541188001033000008000000298KBZ BANK               CITY MART - M MMR11007291442490125990729000000000000000   10300001 00104100000000000246000000000000     
100   95030306100096490000000000000990000000000990002000000010410407290131170117644773800729000007557359   1020000200030000   333400010001204104000000281Myanmar Soft-Gate Tech Yangon        MMR11007290131170117640729000000000000000   10300001F05104100000000000208000000000000     
100   95050324247403260000000000007000000000007000002000000010410407291744030205767313450729000750994035   1030000200030000   541188001126000008000000296KBZ BANK               CITY MART - J MMR11007291744030205760729000000000000000   10300001 00104100000000001750000000000000     
100   62911028202103410000000000017285000000017285002000000010410407291754530268234773800729000750994836   1030000200030000   541188001037000008000000010KBZ BANK               MARKETPLACE - MMR11007291754530268230729000000000000000   10300001 00104100000000001037000000000000     
100   62911028202045260000000000042000000000042000002000000010410407280647530000164773800728220913000016   1030000500030000   591220012501014405912200125SHWE OHH PHARMACY      PTN           MMR11007280647530000160728000000000000000   10300001 00104100000000002520000000000000     
100   62911028202110420000000000050000000000050000002000000010410407281214340001594773800728220918000159   1030000500030000   598320001303000015172200013MAX ENERGY             PTN           MMR11007281214340001590728000000000000000   10300001 00104100000000001500000000000000     
100   62911028202471860000000000069200000000069200002000000010410407280817460010834773800728220914001083   1030000500030000   531120226304000045311202263OCEAN SUPER CENTER STJ PTN           MMR11007280817460010830728000000000000000   10300001 00104100000000004152000000000000     
100   62443100399918110000000000016000000000016000002000000010410407280136280000076134900728220908000007   1030000500030000   591220010401014405912200104SHWE OHH PHARMACY      PTN           MMR11007280136280000070728000000000000000   10300001 00104100000000003840000000000000     
100   62911028202595200000000000150000000000150000002000000010410407280839320000084773800728220915000008   1030000500030000   541120129723000045411201297MAKRO MYANMAR          PTN           MMR11007280839320000080728000000000000000   10300001 00104100000000009000000000000000     
100   62911028202147720000000000038000000000038000002000000010410407280227300000844773800728220908000084   1030000500030000   598320001604000015172200016MAX ENERGY             PTN           MMR11007280227300000840728000000000000000   10300001 00104100000000001140000000000000     
100   62911028202313470000000000040000000000040000002000000010410407281120500001104773800728220917000110   1030000500030000   598320001602000015172200016MAX ENERGY             PTN           MMR11007281120500001100728000000000000000   10300001 00104100000000001200000000000000     
100   95030308100042590000000000032000000000032000002000000010410407281027590001184773800728220916000118   1030000500030000   598320001701000015172200017MAX ENERGY             PTN           MMR11007281027590001180728000000000000000   10300001 00104100000000000960000000000000     
100   62911028202668300000000000031800000000031800002000000010410407291026030034864773800729000750990139   1030000200030000   569988000778000008000004529KBZ BANK               JSQ-IPANEMA   MMR11007291026030034860729000000000000000   10300001 00104100000000001908000000000000     
100   62911028202473840000000000166856000000166856002000000010410407290650380047684773800729221013004768   1020000200030000   806200105002300018062000010MWD BANK               YGN           MMR11007290650380047680729000000000000000   10300001 00104100000000010011000000000000     
100   62911028202265290000000000031350000000031350002000000010410407290902220139984773800729000750936020   1030000200030000   541188001256000008000000310KBZ BANK               CITY MART- FM MMR11007290902220139980729000000000000000   10300001 00104100000000001881000000000000     
100   62911028202107210000000000164600000000164600002000000010410407291837000117804773800729000750997733   1030000200030000   541188001006000008000000008KBZ BANK               MARKETPLACE - MMR11007291837000117800729000000000000000   10300001 00104100000000009876000000000000     
100   62911028202651050000000000050000000000050000002000000010410407290917320052094773800729000750937307   1030000200030000   541188001040000008000000010KBZ BANK               MARKETPLACE - MMR11007290917320052090729000000000000000   10300001 00104100000000003000000000000000     
100   62911028202118690000000000030489000000030489002000000010410407291309400141924773800729000750966484   1030000200030000   541188001065000008000000314KBZ BANK               MARKETPLACE - MMR11007291309400141920729000000000000000   10300001 00104100000000001829000000000000     
100   95050312613888920000000000055000000000055000002000000010410407290933080308946298010729000007561408   1030000200030000   333800010001203104000003327KBZPay                 Yangon        MMR11007290933080308940729000000000000000   10300001F05104100000000011550000000000000     
100   62911028202703370000000000022000000000022000002000000010410407270846460000654773800727220815000065   1030000500030000   701120075301009207011200753ROYAL PLATINUM HOTEL   PTN           MMR11007270846460000650727000000000000000   10300001 00104100000000002244000000000000     
100   62911028202074950000000000008000000000008000002000000010410407281010080001154773800728220916000115   1030000500030000   598320001401000015172200014MAX ENERGY             PTN           MMR11007281010080001150728000000000000000   10300001 00104100000000000240000000000000     
100   62911028202105150000000000014900000000014900002000000010410407280511420022114773800728220911002211   1030000500030000   541120230003000045411202300MARKET PLACE BY CITY M PTN           MMR11007280511420022110728000000000000000   10300001 00104100000000000894000000000000     
100   62443100303702210000000000390000000000390000002000000010410407280705000614542860860728220907061454   1030000600030000   554100001756315799420001137DENKO NORTH DAGON 2    YANGON        MMR11007280705000614540728000000000000000   10300001 00104100000000046800000000000000     
100   95030325264619140000000000026643000000026643002000000010410407280440280048024773800728000357898994   1030000300030000   541100001219000000000000826CB BANK                PROMART       MMR11007280440280048020728000000000000000   10300001F00104100000000001599000000000000     
100   95050322083768590000000000014650000000014650002000000010410407281115000025489148450728220911002548   1030000600030000   549900002155315799420001504EASY MART- 025         YANGON        MMR11007281115000025480728000000000000000   10300001 00104100000000006227000000000000     
100   95050324850150480000000000040000000000040000002000000010410407280204220047618127770728220902004761   1030000600030000   554100001850315799420001222DENKO THANDWE          THANDWE       MMR11007280204220047610728000000000000000   10300001 00104100000000004800000000000000     
100   95050326228858240000000000011050000000011050002000000010410407280505250031686664800728220911003168   1030000500030000   541120226412000045411202264MARKET PLACE MYANMARPL PTN           MMR11007280505250031680728000000000000000   10300001 00104100000000002763000000000000     
100   62911028202421040000000000023000000000023000002000000010410407280346190248694773800728220903024869   1030000600030000   554100002323315799420000474DENKO N.DAGON - 1      YANGON        MMR11007280346190248690728000000000000000   10300001 00104100000000000690000000000000     
100   62911028202175690000000000028500000000028500002000000010410407270757420022604773800727220807002260   1030000600030000   581200002191315799420001536CANTON PARADISE TC     YANGON        MMR11007270757420022600727000000000000000   10300001 00104100000000002907000000000000     
100   95050312781844250000000000005000000000005000002000000010410407291401073107855334370729000007562846   1030000200030000   3334000100012031040000040102C2P (Myanmar) Co. Ltd Yangon        MMR11007291401073107850729000000000000000   10300001F05104100000000001050000000000000     
100   95050315396509660000000000007500000000007500002000000010410407290605023502626454410729000007559684   1030000200030000   333800010001203104000003327KBZPay                 Yangon        MMR11007290605023502620729000000000000000   10300001F05104100000000001575000000000000     
100   95050322654733420000000000016000000000016000002000000010410407290305553555857170840729000007557794   1030000200030000   3338000100012031040000040022C2P (Myanmar) Co. Ltd Yangon        MMR11007290305553555850729000000000000000   10300001F05104100000000003360000000000000     
100   95050315110306410000000000002000000000002000002000000010410407291339580958104908890729000007562740   1030000200030000   333800010001203104000003327KBZPay                 Yangon        MMR11007291339580958100729000000000000000   10300001F05104100000000000420000000000000     
100   95050311959900780000000000000990000000000990002000000010410407290755202520274851370729000007560713   1020000200030000   333400010001204104000000281Myanmar Soft-Gate Tech Yangon        MMR11007290755202520270729000000000000000   10300001F05104100000000000208000000000000     
100   95050311382087030000000000029500000000029500002000000010410407290600123012008192000729000007559625   1030000200030000   333800010001203104000003327KBZPay                 Yangon        MMR11007290600123012000729000000000000000   10300001F05104100000000006195000000000000     
100   95050319938772870000000000004950000000004950002000000010410407291400153015940291820729000007562841   1020000200030000   333400010001204104000000281Myanmar Soft-Gate Tech Yangon        MMR11007291400153015940729000000000000000   10300001F05104100000000001040000000000000     
100   62443100390038980000000000494410000000494410002000000010410407281120240032557871990728000357967836   1030000300030000   569100001650000000000001172CB BANK                ESPRIT (JC)   MMR11007281120240032550728000000000000000   10300001F00104100000000118658000000000000     
100   62911028202471600000000000240327000000240327002000000010410407280729110034004773800728220913003400   1030000500030000   531120226301000045311202263OCEAN SUPER CENTER STJ PTN           MMR11007280729110034000728000000000000000   10300001 00104100000000014420000000000000     
100   62911028202474180000000000036300000000036300002000000010410407280713520049654773800728220907004965   1030000600030000   581200001876315799420001246BLACK CANYON JC        PABEDAN       MMR11007280713520049650728000000000000000   10300001 00104100000000003703000000000000     
100   62911028202471860000000000046300000000046300002000000010410407281030070022044773800728220917002204   1030000500030000   541120203704000015411202037CITY MART SUPERMARKET  PTN           MMR11007281030070022040728000000000000000   10300001 00104100000000002778000000000000     
100   62911028202471600000000000026700000000026700002000000010410407280808100024804773800728220914002480   1030000500030000   531120226307000045311202263OCEAN SUPER CENTER STJ PTN           MMR11007280808100024800728000000000000000   10300001 00104100000000001602000000000000     
100   62911028202291190000000000003000000000003000002000000010410407280817560024814773800728220914002481   1030000500030000   531120226307000045311202263OCEAN SUPER CENTER STJ PTN           MMR11007280817560024810728000000000000000   10300001 00104100000000000180000000000000     
100   62443100390038980000000000079050000000079050002000000010410407281250230066183118030728000357980764   1030000300030000   581200003057000000000002149CB BANK                SORABOL KOREA MMR11007281250230066180728000000000000000   10300001F00104100000000033597000000000000     
100   62911028202317430000000000047000000000047000002000000010410407281124340022524773800728220917002252   1030000500030000   541120230003000045411202300MARKET PLACE BY CITY M PTN           MMR11007281124340022520728000000000000000   10300001 00104100000000002820000000000000     
100   62911028202169750000000000078376000000078376002000000010410407290725571580074773800729555756397269   1040001400030000   591210000149025912100001206Thuwunnadipa null No-9   Groud Floor MMR11007290725571580070729000000000000000   10300001 00104100000000004703000000000000     
100   95050310427855490000000000000990000000000990002000000010410407291447271727451859210729000007563039   1020000200030000   333400010001204104000000281Myanmar Soft-Gate Tech Yangon        MMR11007291447271727450729000000000000000   10300001F05104100000000000208000000000000     
100   95050311273457710000000000150000000000150000002000000010410407290343211321649369550729000007558301   1030000200030000   333800010001203104000003327KBZPay                 Yangon        MMR11007290343211321640729000000000000000   10300001F05104100000000031500000000000000     
100   95050319532433550000000000030000000000030000002000000010410407291443211321903596790729000007563029   1030000200030000   333800010001203104000003327KBZPay                 Yangon        MMR11007291443211321900729000000000000000   10300001F05104100000000006300000000000000     
100   95050312139901420000000000003000000000003000002000000010410407290553242324606199120729000007559566   1030000200030000   333800010001203104000003327KBZPay                 Yangon        MMR11007290553242324600729000000000000000   10300001F05104100000000000630000000000000     
100   62911028202232370000000000015000000000015000002000000010410407291146471647884773800729000007562170   1030000200030000   333800010001203104000003327KBZPay                 Yangon        MMR11007291146471647880729000000000000000   10300001F05104100000000003150000000000000     
100   95050319938772870000000000000990000000000990002000000010410407291438130813921944300729000007563012   1020000200030000   333400010001204104000000281Myanmar Soft-Gate Tech Yangon        MMR11007291438130813920729000000000000000   10300001F05104100000000000208000000000000     
100   95050315017843630000000000001980000000001980002000000010410407282346051605341199840729000007557204   1020000200030000   333400010001204104000000281Myanmar Soft-Gate Tech Yangon        MMR11007282346051605340729000000000000000   10300001F05104100000000000416000000000000     
100   62443100300412100000000000053000000000053000002000000010410407280711160370346209560728220907037034   1030000600030000   554100002085315799420000471DENKO BAHAN            YANGON        MMR11007280711160370340728000000000000000   10300001 00104100000000006360000000000000     
100   95050324082484780000000000019000000000019000002000000010410407280756220087275040070728220907008727   1030000600030000   554100000722315799420000304DENKO MDY - 62         MANDALAY      MMR11007280756220087270728000000000000000   10300001 00104100000000002280000000000000     
100   62443100313002190000000000030000000000030000002000000010410407280644040576346618890728220906057634   1030000600030000   554100001001315799420000498DENKO SHWE PYI THAR    YANGON        MMR11007280644040576340728000000000000000   10300001 00104100000000003600000000000000     
100   95030301100126550000000000035000000000035000002000000010410407281122343628324773800728220918362832   1040001600030000   598320001065000000010000785Yangon Petrol (Thudama Ygn           MMR11007281122343628320728000000000000000   10300001F00104100000000001050000000000000     
100   62911028202400660000000000397734000000397734002000000010410407281028123577574773800728220917357757   1040001600030000   598320001127000000010000608Terminal Petrol Statio Yangon        MMR11007281028123577570728000000000000000   10300001F00104100000000011932000000000000     
100   95050312568198510000000000001000000000001000002000000010410407291350262026493256410729000007562808   1030000200030000   3338000100012031040000040022C2P (Myanmar) Co. Ltd Yangon        MMR11007291350262026490729000000000000000   10300001F05104100000000000210000000000000     
100   95050315099113150000000000000990000000000990002000000010410407290958472847841249750729000007561608   1020000200030000   333400010001204104000000281Myanmar Soft-Gate Tech Yangon        MMR11007290958472847840729000000000000000   10300001F05104100000000000208000000000000     
100   95050315396509660000000000010000000000010000002000000010410407281700273027201128530729000007556967   1030000200030000   333800010001203104000003327KBZPay                 Yangon        MMR11007281700273027200729000000000000000   10300001F05104100000000002100000000000000     
100   95050312781844250000000000051000000000051000002000000010410407290105113511578646950729000007557287   1030000200030000   333800010001203104000003327KBZPay                 Yangon        MMR11007290105113511570729000000000000000   10300001F05104100000000010710000000000000     
100   95050319532433550000000000030000000000030000002000000010410407291409133913656986860729000007562881   1030000200030000   333800010001203104000003327KBZPay                 Yangon        MMR11007291409133913650729000000000000000   10300001F05104100000000006300000000000000     
100   95050314979630620000000000000990000000000990002000000010410407291149121912243583000729000007562184   1020000200030000   333400010001204104000000281Myanmar Soft-Gate Tech Yangon        MMR11007291149121912240729000000000000000   10300001F05104100000000000208000000000000     
100   95050311419479170000000000002000000000002000002000000010410407290554262426357766510729000007559575   1030000200030000   3334000100012031040000040102C2P (Myanmar) Co. Ltd Yangon        MMR11007290554262426350729000000000000000   10300001F05104100000000000420000000000000     
100   95050319528093960000000000001980000000001980002000000010410407291500303030653511690729000007563088   1020000200030000   333400010001204104000000281Myanmar Soft-Gate Tech Yangon        MMR11007291500303030650729000000000000000   10300001F05104100000000000416000000000000     
100   95050315557781210000000000005000000000005000002000000010410407290648431843722397360729000007560109   1040001600030000   333800010001220104000004507A +                    Yangon        MMR11007290648431843720729000000000000000   10300001F05104100000000001050000000000000     
100   95050319528093960000000000000990000000000990002000000010410407290408283828041277330729000007558568   1020000200030000   333400010001204104000000281Myanmar Soft-Gate Tech Yangon        MMR11007290408283828040729000000000000000   10300001F05104100000000000208000000000000     
100   95050312613888920000000000010000000000010000002000000010410407290948261826803072420729000007561531   1030000200030000   333800010001203104000003327KBZPay                 Yangon        MMR11007290948261826800729000000000000000   10300001F05104100000000002100000000000000     
100   62911028202663430000000000002400000000002400002000000010410407291436300414464773800729000750976256   1030000200030000   541188001024000008000000298KBZ BANK               CITY MART - M MMR11007291436300414460729000000000000000   10300001 00104100000000000144000000000000     
100   95050312695033440000000000000990000000000990002000000010410407291234480448076973060729000007562378   1020000200030000   333400010001204104000000281Myanmar Soft-Gate Tech Yangon        MMR11007291234480448070729000000000000000   10300001F05104100000000000208000000000000     
100   95050325715886680000000000003960000000003960002000000010410407290450382038662007540729000007558967   1020000200030000   333400010001204104000000281Myanmar Soft-Gate Tech Yangon        MMR11007290450382038660729000000000000000   10300001F05104100000000000832000000000000     
100   95030301100081330000000000035150000000035150002000000010410407291233502699274773800729035078823369   1040001400030000   541110000255025411100002149Sein Daung Super Store Sein Daung Su MMR11007291233502699270729000000000000000   10300001 00104100000000002109000000000000     
100   62443100318296470000000000037500000000037500002000000010410407290203454036550346510729221009403655   1040001600030000   598320000658000000010000527Shwe Taung Energy (YGN Yangon        MMR11007290203454036550729000000000000000   10300001F00104100000000004500000000000000     
100   62911028202133940000000000021750000000021750002000000010410407290355324094834773800729221010409483   1040001600030000   591220000260000000010000248Shwe Ohh Pharmacy (KDL Yangon        MMR11007290355324094830729000000000000000   10300001F00104100000000001305000000000000     
100   95050315099113150000000000000990000000000990002000000010410407290836570657565921970729000007560997   1020000200030000   333400010001204104000000281Myanmar Soft-Gate Tech Yangon        MMR11007290836570657560729000000000000000   10300001F05104100000000000208000000000000     
100   62911028202663430000000000003600000000003600002000000010410407291440100134764773800729000750976633   1030000200030000   541188001022000008000000298KBZ BANK               CITY MART - M MMR11007291440100134760729000000000000000   10300001 00104100000000000216000000000000     
100   95050315122972560000000000001980000000001980002000000010410407291348031803276561380729000007562791   1020000200030000   333400010001204104000000281Myanmar Soft-Gate Tech Yangon        MMR11007291348031803270729000000000000000   10300001F05104100000000000416000000000000     
100   95050312613888920000000000020000000000020000002000000010410407290947121712497865400729000007561518   1030000200030000   333800010001203104000003327KBZPay                 Yangon        MMR11007290947121712490729000000000000000   10300001F05104100000000004200000000000000     
100   62911028202822900000000000005000000000005000002000000010410407291300013001564773800729000007562509   1030000200030000   333800010001203104000003327KBZPay                 Yangon        MMR11007291300013001560729000000000000000   10300001F05104100000000001050000000000000     
100   95050310427855490000000000003960000000003960002000000010410407291503293329328554240729000007563101   1020000200030000   333400010001204104000000281Myanmar Soft-Gate Tech Yangon        MMR11007291503293329320729000000000000000   10300001F05104100000000000832000000000000     
100   95050319709462380000000000002000000000002000002000000010410407290956082608042476750729000007561597   1030000200030000   3338000100012031040000040022C2P (Myanmar) Co. Ltd Yangon        MMR11007290956082608040729000000000000000   10300001F05104100000000000420000000000000     
100   95030301100081330000000000015650000000015650002000000010410407291226502454504773800729056501729194   1040001400030000   541110000369025411100002149Sein Daung Super Store Sein Daung Su MMR11007291226502454500729000000000000000   10300001 00104100000000000939000000000000     
100   62911028202530930000000000333250000000333250002000000010410407290948364315914773800729221016431591   1040001600030000   591220000299000000010000287Shwe Ohh Pharmacy (Yan Yangon        MMR11007290948364315910729000000000000000   10300001F00104100000000019995000000000000     
100   95050327416134790000000000001980000000001980002000000010410407291415314531585249270729000007562903   1020000200030000   333400010001204104000000281Myanmar Soft-Gate Tech Yangon        MMR11007291415314531580729000000000000000   10300001F05104100000000000416000000000000     
100   62443100390038980000000000049000000000049000002000000010410407290542396265954631740729456121239209   1030000900030000   554119001101190110000000213New Day Energy SOK     YANGONOKKALAP MMR11007290542396265950729000000000000000   10300001F00104100000000005880000000000000     
100   62911028202169750000000000083150000000083150002000000010410407290609094180344773800729221013418034   1040001600030000   591220000279000000010000267Shwe Ohh Pharmacy (Ar  Yangon        MMR11007290609094180340729000000000000000   10300001F00104100000000004989000000000000     
100   95030306100096490000000000003960000000003960002000000010410407291226425642544773800729000007562347   1020000200030000   333400010001204104000000281Myanmar Soft-Gate Tech Yangon        MMR11007291226425642540729000000000000000   10300001F05104100000000000832000000000000     
100   62911028202472440000000000066000000000066000002000000010410407290707344218794773800729221014421879   1040001600030000   598320000658000000010000527Shwe Taung Energy (YGN Yangon        MMR11007290707344218790729000000000000000   10300001F00104100000000001980000000000000     
100   95050310332595380000000000000990000000000990002000000010410407290415324532812929810729000007558635   1020000200030000   333400010001204104000000281Myanmar Soft-Gate Tech Yangon        MMR11007290415324532810729000000000000000   10300001F05104100000000000208000000000000     
100   62911028202169750000000000033600000000033600002000000010410407290651534208984773800729221013420898   1040001600030000   591220000261000000010000249Shwe Ohh Pharmacy (Thi Yangon        MMR11007290651534208980729000000000000000   10300001F00104100000000002016000000000000     
100   95050317775833170000000000046300000000046300002000000010410407291018144814433363360729000007561761   1030000200030000   333800010001203104000003327KBZPay                 Yangon        MMR11007291018144814430729000000000000000   10300001F05104100000000009723000000000000     
100   95030305234413920000000000014950000000014950002000000010410407290644324203834773800729221013420383   1040001600030000   591220000267000000010000255Shwe Ohh Pharmacy (Bah Yangon        MMR11007290644324203830729000000000000000   10300001F00104100000000000897000000000000     
100   62911028202212490000000000006700000000006700002000000010410407290414036233614773800729714441003209   1030000900030000   581219000715190110000000546Akkhaya Tea House(Dago YANGON        MMR11007290414036233610729000000000000000   10300001F00104100000000000683000000000000     
100   62443100390038980000000000030000000000030000002000000010410407290540246265085142320729409101224209   1030000900030000   554119001101190110000000213New Day Energy SOK     YANGONOKKALAP MMR11007290540246265080729000000000000000   10300001F00104100000000003600000000000000     
100   95050326689257240000000000012700000000012700002000000010410407290825026334492361720729502551402209   1030000900030000   541119001267190110000000958City Mart PLST C 10    YANGONMYOTHIT MMR11007290825026334490729000000000000000   10300001F00104100000000003175000000000000     
100   95050318741700180000000000000990000000000990002000000010410407290212394239097368110729000007557509   1020000200030000   333400010001204104000000281Myanmar Soft-Gate Tech Yangon        MMR11007290212394239090729000000000000000   10300001F05104100000000000208000000000000     
100   62911028202169750000000000023800000000023800002000000010410407290832436337574773800729667021543209   1030000900030000   591219001378190110000000983Shwe Ohh Pharmacy St 5 YANGONAUNG    MMR11007290832436337570729000000000000000   10300001F00104100000000001428000000000000     
