100   62911028202795770000000000038000000000038000002000000010410407310335435672254773800731221210567225   1040001600030000   806220001355000000010001061Grand Hantha Internati Ygn           MMR11007310335435672250731000000000000000   10300001F00104100000000002280000000000000     
100   62911028202473840000000000052031000000052031002000000010410407310640340047864773800731221213004786   1020000200030000   806200105002300018062000010MWD BANK               YGN           MMR11007310640340047860731000000000000000   10300001 00104100000000003122000000000000     
100   62911028202449100000000000000600000000000600002000000010410407311226230018894773800731000751074683   1030000200030000   541188001030000008000000298KBZ BANK               CITY MART - M MMR11007311226230018890731000000000000000   10300001 00104100000000000036000000000000     
100   62911028202474000000000000084941000000084941002000000010410407312013200026344773800731000751097107   1030000200030000   541188001011000008000000008KBZ BANK               MARKETPLACE - MMR11007312013200026340731000000000000000   10300001 00104100000000005097000000000000     
100   95050321188471220000000000021900000000021900002000000010410407311655000023364749720731000751088871   1030000200030000   541188001484000008000000399KBZ BANK               OCEAN SUPERCE MMR11007311655000023360731000000000000000   10300001 00104100000000005475000000000000     
100   95030371724152130000000000012500000000012500002000000010410407311647100034654773800731000751088479   1030000200030000   541188001452000008000000391KBZ BANK               OCEAN SUPER C MMR11007311647100034650731000000000000000   10300001 00104100000000000750000000000000     
100   62911028202790310000000000215841000000215841002000000010410407311617530020464773800731000751086986   1030000200030000   541188001010000008000000008KBZ BANK               MARKETPLACE - MMR11007311617530020460731000000000000000   10300001 00104100000000012951000000000000     
100   95030330072988250000000000008600000000008600002000000010410407301054390000944773800730221117000094   1030000500030000   581220264401000085812202644BREAD TALK             PTN           MMR11007301054390000940730000000000000000   10300001 00104100000000000877000000000000     
100   95030308100042590000000000050000000000050000002000000010410407300610460002164773800730221112000216   1030000500030000   598320001701000015172200017MAX ENERGY             PTN           MMR11007300610460002160730000000000000000   10300001 00104100000000001500000000000000     
100   62911028202581260000000000266500000000266500002000000010410407300654330000034773800730221113000003   1030000500030000   597720019301000055977200193SEOUL COSMETICs        PTN           MMR11007300654330000030730000000000000000   10300001 00104100000000015990000000000000     
100   95030310098554020000000000015500000000015500002000000010410407300326540000834773800730221109000083   1030000500030000   581220264201000085812202642BREAD TALK             PTN           MMR11007300326540000830730000000000000000   10300001 00104100000000001581000000000000     
100   62443101037081820000000000058360000000058360002000000010410407301037290000899210380730221117000089   1030000500030000   569120096201019505691200962MK FASHION SHOP        PTN           MMR11007301037290000890730000000000000000   10300001 00104100000000014006000000000000     
100   95030385550669610000000000023415000000023415002000000010410407300755360001424773800730000358323514   1030000300030000   581400001715000000000001228CB BANK                THE PIZZA COM MMR11007300755360001420730000000000000000   10300001F00104100000000000703000000000000     
100   95050326154591400000000000002600000000002600002000000010410407300650380009566125050730000358313932   1030000300030000   581400001682000000000001204CB BANK                SHWEPALIN MYA MMR11007300650380009560730000000000000000   10300001F00104100000000000312000000000000     
100   95030310098554020000000000035800000000035800002000000010410407300419330000184773800730221110000018   1030000500030000   531120201603000085311202016STJ BLAZON             PTN           MMR11007300419330000180730000000000000000   10300001 00104100000000002148000000000000     
100   62911028202668300000000000030000000000030000002000000010410407300147210002694773800730221108000269   1030000500030000   598320001302000015172200013MAX ENERGY             PTN           MMR11007300147210002690730000000000000000   10300001 00104100000000000900000000000000     
100   62911028202193830000000000042100000000042100002000000010410407300306190002454773800730221109000245   1030000500030000   598320001604000015172200016MAX ENERGY             PTN           MMR11007300306190002450730000000000000000   10300001 00104100000000001263000000000000     
100   62911028202112400000000000045000000000045000002000000010410407300711290000414773800730221113000041   1030000500030000   591220211101014405912202111SHWE OHH PHARMACY      PTN           MMR11007300711290000410730000000000000000   10300001 00104100000000002700000000000000     
100   62443100340422630000000000010450000000010450002000000010410407301114320000656415990730221117000065   1030000500030000   591220011501014405912200115SHWE OHH PHARMACY      PTN           MMR11007301114320000650730000000000000000   10300001 00104100000000002508000000000000     
100   62911028202615590000000000050378000000050378002000000010410407300039380002394773800730221107000239   1030000500030000   598320001003000015172200010MAX ENERGY             PTN           MMR11007300039380002390730000000000000000   10300001 00104100000000001511000000000000     
100   62911028202074950000000000020006000000020006002000000010410407300956130003984773800730221116000398   1030000500030000   598320001203000015172200012MAX ENERGY             PTN           MMR11007300956130003980730000000000000000   10300001 00104100000000000600000000000000     
100   95050321057500320000000000150000000000150000002000000010410407300639150000118979730730000358312206   1030000300030000   541100002355000000000000102CB BANK                MAKRO MYANMAR MMR11007300639150000110730000000000000000   10300001F00104100000000037500000000000000     
100   62911028202499680000000000038800000000038800002000000010410407300645110000154773800730221113000015   1030000500030000   531120155715000045311201557GAMONE PWINT           PTN           MMR11007300645110000150730000000000000000   10300001 00104100000000002328000000000000     
100   95050319122743920000000000075700000000075700002000000010410407300614170006630376920730000358308534   1030000300030000   531100000539000000000000376CB BANK                CAPITAL HYPER MMR11007300614170006630730000000000000000   10300001F00104100000000018168000000000000     
100   62911028202154800000000000011000000000011000002000000010410407300952510001544773800730221116000154   1030000500030000   581220263901000085812202639BREAD TALK             PTN           MMR11007300952510001540730000000000000000   10300001 00104100000000001122000000000000     
100   62911028202610960000000000070000000000070000002000000010410407301205060002754773800730221118000275   1030000500030000   598320001602000015172200016MAX ENERGY             PTN           MMR11007301205060002750730000000000000000   10300001 00104100000000002100000000000000     
100   62911028202581260000000000624000000000624000002000000010410407300830290000124773800730221115000012   1030000500030000   594420080601000015944200806VJM (MP)               PTN           MMR11007300830290000120730000000000000000   10300001 00104100000000037440000000000000     
100   62911028202366010000000000019100000000019100002000000010410407300521040002004773800730221111000200   1030000500030000   531120231210000045311202312OCEAN OATTARA THIRI    PTN           MMR11007300521040002000730000000000000000   10300001 00104100000000001146000000000000     
100   95050322921717110000000000020000000000020000002000000010410407300214030002615199830730221108000261   1030000500030000   598320002702000015172200027MAX ENERGY             PTN           MMR11007300214030002610730000000000000000   10300001 00104100000000002400000000000000     
100   95030330072988250000000000015000000000015000002000000010410407301013050000294773800730000358344466   1030000300030000   531100000884000000000000622CB BANK                MGOU-JZ       MMR11007301013050000290730000000000000000   10300001F00104100000000000900000000000000     
100   62911028202065470000000000053000000000053000002000000010410407300919240000994773800730221115000099   1030000500030000   569120104001008205691201040ESCORT ( CITY MALL-ST. PTN           MMR11007300919240000990730000000000000000   10300001 00104100000000003180000000000000     
100   62911028202474180000000000024000000000024000002000000010410407300435550001384773800730221111000138   1030000500030000   598320041901000055983200419MAX ENERGY             PTN           MMR11007300435550001380730000000000000000   10300001 00104100000000000720000000000000     
100   95030385550669610000000000001600000000001600002000000010410407300709060000014773800730000358316642   1030000300030000   581400002323000000000001581CB BANK                THE PIZZA COM MMR11007300709060000010730000000000000000   10300001F00104100000000000048000000000000     
100   62911028202130300000000000060800000000060800002000000010410407310456456838424773800731619261145211   1030000900030000   541119001207190110000000948City Mart YK C 5       YANGONAUNG    MMR11007310456456838420731000000000000000   10300001F00104100000000003648000000000000     
100   62911028202154800000000000055000000000055000002000000010410407310359056826754773800731006291005211   1030000900030000   554119000348190110000000215New Day Energy MYG     YANGONONE     MMR11007310359056826750731000000000000000   10300001F00104100000000001650000000000000     
100   95030385550669610000000000026600000000026600002000000010410407310635466861304773800731898051346211   1030000900030000   541119001260190110000000958City Mart PLST C 3     YANGONMYOTHIT MMR11007310635466861300731000000000000000   10300001F00104100000000001596000000000000     
100   62911028202791220000000000286450000000286450002000000010410407310855536893634773800731946251553211   1030000900030000   581319001622190110000001182Lapiesa Eat Drink Laug YANGONUT      MMR11007310855536893630731000000000000000   10300001F00104100000000029218000000000000     
100   62911028202290100000000000040000000000040000002000000010410407310956466905534773800731899261646211   1030000900030000   554119001100190110000000212New Day Energy PZD     YANGON        MMR11007310956466905530731000000000000000   10300001F00104100000000001200000000000000     
100   62911028202142930000000000015000000000015000002000000010410407310802055843084773800731221215584308   1040001600030000   598320000659000000010000528Shwe Taung Energy (YGN Yangon        MMR11007310802055843080731000000000000000   10300001F00104100000000000450000000000000     
100   62911028202169750000000000059178000000059178002000000010410407311145236011734773800731221218601173   1040001600030000   541120000560000000010000465Ocean Shwe Gone Daing  Yangon        MMR11007311145236011730731000000000000000   10300001F00104100000000003551000000000000     
100   95030308100042590000000000078000000000078000002000000010410407300940540002304773800730221116000230   1030000500030000   598320001701000015172200017MAX ENERGY             PTN           MMR11007300940540002300730000000000000000   10300001 00104100000000002340000000000000     
100   62911028202142850000000000026550000000026550002000000010410407300246140000994773800730221109000099   1030000500030000   541120020701022205411200207ORANGE (YDG)           PTN           MMR11007300246140000990730000000000000000   10300001 00104100000000001593000000000000     
100   62911028202366010000000000014500000000014500002000000010410407300633230006464773800730221113000646   1030000500030000   531120231231000045311202312OCEAN OATTARA THIRI    PTN           MMR11007300633230006460730000000000000000   10300001 00104100000000000870000000000000     
100   62911028202440680000000000007250000000007250002000000010410407300436160006414773800730221111000641   1030000500030000   541120233301000045411202333CITY EXPRESS (MCS - 19 PTN           MMR11007300436160006410730000000000000000   10300001 00104100000000000435000000000000     
100   62443100373945130000000000018600000000018600002000000010410407301138090000481458540730221118000048   1030000500030000   541120045801009205411200458126 STORE              PTN           MMR11007301138090000480730000000000000000   10300001 00104100000000004650000000000000     
100   62911028202207460000000000011100000000011100002000000010410407300717160002204773800730221113000220   1030000500030000   531120226313000045311202263OCEAN SUPER CENTER STJ PTN           MMR11007300717160002200730000000000000000   10300001 00104100000000000666000000000000     
100   95050324082484780000000000007500000000007500002000000010410407301028060000222358950730221116000022   1030000500030000   598320004102000015172200041MAX ENERGY             PTN           MMR11007301028060000220730000000000000000   10300001 00104100000000000900000000000000     
100   95050322654733420000000000009000000000009000002000000010410407300641530001020632210730000358312631   1030000300030000   531100000909000000000000646CB BANK                MGOU-PYAY     MMR11007300641530001020730000000000000000   10300001F00104100000000002160000000000000     
100   95030314001421450000000000144700000000144700002000000010410407310954596904984773800731851241659211   1030000900030000   571219001537190110000001113Pro 1 Plus Store-2     YANGONADON    MMR11007310954596904980731000000000000000   10300001F00104100000000008682000000000000     
100   62443100363668680000000000106987000000106987002000000010410407310818315853056232010731221215585305   1040001600030000   541120000560000000010000465Ocean Shwe Gone Daing  Yangon        MMR11007310818315853050731000000000000000   10300001F00104100000000026747000000000000     
100   62443100372718280000000000055810000000055810002000000010410407311123515992008820550731221218599200   1040001600030000   806220001356000000010001061Grand Hantha Internati Ygn           MMR11007311123515992000731000000000000000   10300001F00104100000000013394000000000000     
100   62911028202651050000000000004400000000004400002000000010410407310543526849494773800731239131252211   1030000900030000   541119001220190110000000945City Mart TM C 5       YANGONONE     MMR11007310543526849490731000000000000000   10300001F00104100000000000264000000000000     
100   62911028202417260000000000006850000000006850002000000010410407310355186825974773800731966251018211   1030000900030000   541119001242190110000000955City Mart JS C 1       YANGONUT      MMR11007310355186825970731000000000000000   10300001F00104100000000000411000000000000     
100   62911028202448600000000000057600000000057600002000000010410407310355186825984773800731967251018211   1030000900030000   591219000795190110000000627Shwe Ohh Pharmacy ST-3 YANGONINDAING MMR11007310355186825980731000000000000000   10300001F00104100000000003456000000000000     
100   95050328074436620000000000028000000000028000002000000010410407311041305955818139780731221217595581   1040001600030000   598320001170000000010000527Shwe Taung Energy (YGN Yangon        MMR11007311041305955810731000000000000000   10300001F00104100000000003360000000000000     
100   62911028202027440000000000071890000000071890002000000010410407310525296845404773800731013551129211   1030000900030000   554119001103190110000000215New Day Energy MYG     YANGONONE     MMR11007310525296845400731000000000000000   10300001F00104100000000002157000000000000     
100   95050328861342240000000000030000000000030000002000000010410407301416230004248408870730221120000424   1030000500030000   598320001203000015172200012MAX ENERGY             PTN           MMR11007301416230004240730000000000000000   10300001 00104100000000003600000000000000     
100   62911028202286990000000000030000000000030000002000000010410407300322420002794773800730221109000279   1030000500030000   598320001302000015172200013MAX ENERGY             PTN           MMR11007300322420002790730000000000000000   10300001 00104100000000000900000000000000     
100   95050328074436620000000000055000000000055000002000000010410407292329110002984653600730221105000298   1030000500030000   598320001203000015172200012MAX ENERGY             PTN           MMR11007292329110002980730000000000000000   10300001 00104100000000006600000000000000     
100   62911028202440680000000000008000000000008000002000000010410407301354090002404773800730221120000240   1030000500030000   541120229701000045411202297CITY EXPRESS (MCS - 95 PTN           MMR11007301354090002400730000000000000000   10300001 00104100000000000480000000000000     
100   62443101050502450000000000433015000000433015002000000010410407301455060009240657020730000751051955   1030000200030000   581281230919000008000001024KBZ BANK               WORLD WIDE FA MMR11007301455060009240730000000000000000   10300001 00104100000000184032000000000000     
100   95030394609966640000000000002000000000002000002000000010410407300752270014544773800730221114001454   1030000500030000   541120227507000045411202275CITY MART (AHLONE BRAN PTN           MMR11007300752270014540730000000000000000   10300001 00104100000000000120000000000000     
100   95030394609966640000000000026550000000026550002000000010410407300746510012634773800730221114001263   1030000500030000   541120227501000045411202275CITY MART (AHLONE BRAN PTN           MMR11007300746510012630730000000000000000   10300001 00104100000000001593000000000000     
100   95030330072988250000000000033400000000033400002000000010410407301046370033484773800730221117003348   1030000500030000   541120226203000045411202262CITY MART ZAWANA       PTN           MMR11007301046370033480730000000000000000   10300001 00104100000000002004000000000000     
100   95030323161862590000000001850000000001850000002000000010410407310909116896184773800731158391511211   1030000900030000   701119000073190110000000024Lotte Hotel            YANGON        MMR11007310909116896180731000000000000000   10300001F00104100000000188700000000000000     
100   95050316717221100000000000015650000000015650002000000010410407310228096807597338260731987580809211   1030000900030000   591219001558190110000001132Life Plus Store 38     YANGONOKKALAP MMR11007310228096807590731000000000000000   10300001F00104100000000003756000000000000     
100   95050314996291580000000000001980000000001980002000000010410407311328575857663953910731000007569934   1020000200030000   333400010001204104000000281Myanmar Soft-Gate Tech Yangon        MMR11007311328575857660731000000000000000   10300001F05104100000000000416000000000000     
100   95050322715181550000000000028900000000028900002000000010410407310629386859916962230731824591238211   1030000900030000   541119000282190110000000177Pro1 Global (Insein)   YANGON        MMR11007310629386859910731000000000000000   10300001F00104100000000007225000000000000     
100   62911028202598430000000000070000000000070000002000000010410407310504585725154773800731221212572515   1040001600030000   598320000316000000010000304PT Power Petrol Statio Yangon        MMR11007310504585725150731000000000000000   10300001F00104100000000002100000000000000     
100   62911028202169750000000000022000000000022000002000000010410407311105325975874773800731221218597587   1040001600030000   598320000838000000010000600Regency Petrol Station Ygn           MMR11007311105325975870731000000000000000   10300001F00104100000000000660000000000000     
100   62911028202916630000000000132950000000132950002000000010410407310630306860164773800731837001330211   1030000900030000   541119000380190110000000248Victoria Hyper Mart    YANGON        MMR11007310630306860160731000000000000000   10300001F00104100000000007977000000000000     
100   62911028202659640000000000029700000000029700002000000010410407310656066865634773800731139261306211   1030000900030000   581219000423190110000000284BCC (SYS)              YANGON        MMR11007310656066865630731000000000000000   10300001F00104100000000003029000000000000     
100   95050310739614720000000000031460000000031460002000000010410407300519130076031142780730000358300268   1030000300030000   806200000197000000000000097CB BANK                AUNG YADANA H MMR11007300519130076030730000000000000000   10300001F00104100000000007550000000000000     
100   62911028202446540000000000018000000000018000002000000010410407300442450012494773800730221111001249   1030000500030000   541120227505000045411202275CITY MART (AHLONE BRAN PTN           MMR11007300442450012490730000000000000000   10300001 00104100000000001080000000000000     
100   62911028202366010000000000155228000000155228002000000010410407300619280010544773800730221112001054   1030000500030000   531120231214000045311202312OCEAN OATTARA THIRI    PTN           MMR11007300619280010540730000000000000000   10300001 00104100000000009314000000000000     
100   95050324622440820000000000022150000000022150002000000010410407301002020019439224170730221116001943   1030000500030000   541120227603000045411202276CITY MART ( 47 BRANCH  PTN           MMR11007301002020019430730000000000000000   10300001 00104100000000005538000000000000     
100   62443100360763680000000000150000000000150000002000000010410407300643000047435589660730000358312788   1030000300030000   541100002337000000000000102CB BANK                MAKRO MYANMAR MMR11007300643000047430730000000000000000   10300001F00104100000000037500000000000000     
100   62443100399918110000000000149550000000149550002000000010410407300953140055069053980730000358341314   1030000300030000   541100002356000000000000102CB BANK                MAKRO MYANMAR MMR11007300953140055060730000000000000000   10300001F00104100000000037388000000000000     
100   95030363090756500000000000020000000000020000002000000010410407301033520021664773800730000358347660   1030000300030000   598300001213000000000000820CB BANK                SHWE TAUNG EN MMR11007301033520021660730000000000000000   10300001F00104100000000000600000000000000     
100   95050324411430900000000000030000000000030000002000000010410407300651320017959430020730000358314069   1030000300030000   598300001209000000000000817CB BANK                SHWE TAUNG EN MMR11007300651320017950730000000000000000   10300001F00104100000000003600000000000000     
100   62911028202331290000000000028350000000028350002000000010410407311039016915864773800731677091701211   1030000900030000   541119000124190110000000080Sein Gay Har BAK       YANGONADA     MMR11007311039016915860731000000000000000   10300001F00104100000000001701000000000000     
100   95050318601641810000000000010217000000010217002000000010410407310213386805248990750731891430838211   1030000900030000   541119001222190110000000945City Mart TM C 7       YANGONONE     MMR11007310213386805240731000000000000000   10300001F00104100000000002555000000000000     
100   95050324250133010000000000034914000000034914002000000010410407310527236845881494190731044571123211   1030000900030000   581219000980190110000000787Jo Jo Hot Pot          YANGON        MMR11007310527236845880731000000000000000   10300001F00104100000000014839000000000000     
100   62443100369813440000000000020000000000020000002000000010410407310634526861145394840731891041352211   1030000900030000   554119001103190110000000215New Day Energy MYG     YANGONONE     MMR11007310634526861140731000000000000000   10300001F00104100000000002400000000000000     
100   95050324800108530000000000047600000000047600002000000010410407311016126909646402200731235461612211   1030000900030000   541119001312190110000000968Ocean Mingalar MDY C 2 MANDALAYHARSI MMR11007311016126909640731000000000000000   10300001F00104100000000011900000000000000     
100   95050315017843630000000000001980000000001980002000000010410407311227265726706578110731000007569690   1020000200030000   333400010001204104000000281Myanmar Soft-Gate Tech Yangon        MMR11007311227265726700731000000000000000   10300001F05104100000000000416000000000000     
100   62443100372718280000000000078230000000078230002000000010410407311140286007138480170731221218600713   1040001600030000   806220001355000000010001061Grand Hantha Internati Ygn           MMR11007311140286007130731000000000000000   10300001F00104100000000018775000000000000     
100   95050324005082180000000000053100000000053100002000000010410407310344186823542721200731831141018211   1030000900030000   541119001083190110000000872Sein Gay Har Hledan    YANGONUT      MMR11007310344186823540731000000000000000   10300001F00104100000000013275000000000000     
100   95050322990383760000000000003000000000003000002000000010410407300922210018365068240730221115001836   1030000500030000   541120203705000015411202037CITY MART SUPERMARKET  PTN           MMR11007300922210018360730000000000000000   10300001 00104100000000000750000000000000     
100   62911028202446540000000000020350000000020350002000000010410407300439250012534773800730221111001253   1030000500030000   541120227501000045411202275CITY MART (AHLONE BRAN PTN           MMR11007300439250012530730000000000000000   10300001 00104100000000001221000000000000     
100   62443100399918110000000000074350000000074350002000000010410407300719365026350997400730221114502635   1040001600030000   581420000076000000010000074Hot Pot City Ahlone    Yangon        MMR11007300719365026350730000000000000000   10300001F00104100000000008922000000000000     
100   95030303100044290000000000015200000000015200002000000010410407300728005031194773800730221114503119   1040001600030000   541120000573000000010000465Ocean Shwe Gone Daing  Yangon        MMR11007300728005031190730000000000000000   10300001F00104100000000000912000000000000     
100   62443101050502450000000000069000000000069000002000000010410407300538354958149405200730221112495814   1040001600030000   592120001313000000010001018Alkohol Shop (Kamayut) Ygn           MMR11007300538354958140730000000000000000   10300001F00104100000000016560000000000000     
100   95050314996291580000000000000990000000000990002000000010410407311326355635283868820731000007569927   1020000200030000   333400010001204104000000281Myanmar Soft-Gate Tech Yangon        MMR11007311326355635280731000000000000000   10300001F05104100000000000208000000000000     
100   95050310427855490000000000001980000000001980002000000010410407311350362036990223460731000007570012   1020000200030000   333400010001204104000000281Myanmar Soft-Gate Tech Yangon        MMR11007311350362036990731000000000000000   10300001F05104100000000000416000000000000     
100   62443100373945130000000000030000000000030000002000000010410407310410585692001153810731221211569200   1040001600030000   598320000911000000010000662MMTM - Tamwe           Ygn           MMR11007310410585692000731000000000000000   10300001F00104100000000003600000000000000     
100   62911028202448030000000000080026000000080026002000000010410407311227210136084773800731000751074740   1030000200030000   541188001022000008000000298KBZ BANK               CITY MART - M MMR11007311227210136080731000000000000000   10300001 00104100000000004802000000000000     
100   95050311959900780000000000000990000000000990002000000010410407311404563456255180920731000007570076   1020000200030000   333400010001204104000000281Myanmar Soft-Gate Tech Yangon        MMR11007311404563456250731000000000000000   10300001F05104100000000000208000000000000     
100   95050318575030940000000000010000000000010000002000000010410407310705083508773983860731000007568588   1040001600030000   333800010001220104000004507A +                    Yangon        MMR11007310705083508770731000000000000000   10300001F05104100000000002100000000000000     
100   62443100374797770000000000082450000000082450002000000010410407311658090004509707170731000751089034   1030000200030000   541188001082000008000000294KBZ BANK               CITY MART - J MMR11007311658090004500731000000000000000   10300001 00104100000000020613000000000000     
100   62443101037081820000000000080750000000080750002000000010410407310938030011764324240731000751086451   1030000200030000   569188000857000008000004708KBZ BANK               HBT YANGON (T MMR11007310938030011760731000000000000000   10300001 00104100000000019380000000000000     
100   95050323133124350000000000002970000000002970002000000010410407310536150615704884260731000007568281   1020000200030000   333400010001204104000000281Myanmar Soft-Gate Tech Yangon        MMR11007310536150615700731000000000000000   10300001F05104100000000000624000000000000     
100   95050318131043910000000000000990000000000990002000000010410407311317344734190563850731000007569887   1020000200030000   333400010001204104000000281Myanmar Soft-Gate Tech Yangon        MMR11007311317344734190731000000000000000   10300001F05104100000000000208000000000000     
100   62911028202163630000000000032000000000032000002000000010410407310725435819694773800731221214581969   1040001600030000   598320000916000000010000664MMTM - North Dagon     Ygn           MMR11007310725435819690731000000000000000   10300001F00104100000000000960000000000000     
100   62911028202472440000000000110501000000110501002000000010410407311220130390164773800731000751074406   1030000200030000   541188001041000008000000010KBZ BANK               MARKETPLACE - MMR11007311220130390160731000000000000000   10300001 00104100000000006630000000000000     
100   95050310332595380000000000000990000000000990002000000010410407310604293429653827450731000007568387   1020000200030000   333400010001204104000000281Myanmar Soft-Gate Tech Yangon        MMR11007310604293429650731000000000000000   10300001F05104100000000000208000000000000     
100   95050311273457710000000000007000000000007000002000000010410407301916374637095784670731000007567325   1030000200030000   333800010001203104000003327KBZPay                 Yangon        MMR11007301916374637090731000000000000000   10300001F05104100000000001470000000000000     
100   62911028202154800000000000017383000000017383002000000010410407311642510379274773800731000751088272   1030000200030000   541188001039000008000000010KBZ BANK               MARKETPLACE - MMR11007311642510379270731000000000000000   10300001 00104100000000001043000000000000     
100   95050324247403260000000000029923000000029923002000000010410407311703020379319792270731000751089272   1030000200030000   541188001039000008000000010KBZ BANK               MARKETPLACE - MMR11007311703020379310731000000000000000   10300001 00104100000000007481000000000000     
100   95050322318997110000000000010000000000010000002000000010410407310845331533550849080731000007568931   1030000200030000   333800010001203104000003327KBZPay                 Yangon        MMR11007310845331533550731000000000000000   10300001F05104100000000002100000000000000     
100   95050319938772870000000000000990000000000990002000000010410407311249081908577088690731000007569773   1020000200030000   333400010001204104000000281Myanmar Soft-Gate Tech Yangon        MMR11007311249081908570731000000000000000   10300001F05104100000000000208000000000000     
100   95050317866508340000000000005000000000005000002000000010410407311238410841785436210731000007569738   1030000200030000   333800010001203104000003327KBZPay                 Yangon        MMR11007311238410841780731000000000000000   10300001F05104100000000001050000000000000     
100   95050310735627670000000000010070000000010070002000000010410407310425195519164458780731000007568006   1030000200030000   333800010001203104000003327KBZPay                 Yangon        MMR11007310425195519160731000000000000000   10300001F05104100000000002115000000000000     
100   62911028202328810000000000040000000000040000002000000010410407310346265677914773800731221210567791   1040001600030000   598320000911000000010000662MMTM - Tamwe           Ygn           MMR11007310346265677910731000000000000000   10300001F00104100000000001200000000000000     
100   62911028202698420000000000038700000000038700002000000010410407311337400295044773800731000751078107   1030000200030000   541188001038000008000000010KBZ BANK               MARKETPLACE - MMR11007311337400295040731000000000000000   10300001 00104100000000002322000000000000     
100   95050314979630620000000000000990000000000990002000000010410407311048121812720302850731000007569357   1020000200030000   333400010001204104000000281Myanmar Soft-Gate Tech Yangon        MMR11007311048121812720731000000000000000   10300001F05104100000000000208000000000000     
100   62911028202232370000000000010000000000010000002000000010410407310702043204604773800731000007568574   1030000200030000   333800010001203104000003327KBZPay                 Yangon        MMR11007310702043204600731000000000000000   10300001F05104100000000002100000000000000     
100   95050313396828960000000000009900000000009900002000000010410407310550302030656621840731000007568341   1020000200030000   333400010001204104000000281Myanmar Soft-Gate Tech Yangon        MMR11007310550302030650731000000000000000   10300001F05104100000000002079000000000000     
100   95050313817486860000000000004950000000004950002000000010410407310212434243282210620731000007567563   1020000200030000   333400010001204104000000281Myanmar Soft-Gate Tech Yangon        MMR11007310212434243280731000000000000000   10300001F05104100000000001040000000000000     
100   95050317741619680000000000002000000000002000002000000010410407301732070207867352050731000007567206   1030000200030000   333800010001203104000003327KBZPay                 Yangon        MMR11007301732070207860731000000000000000   10300001F05104100000000000420000000000000     
100   95050315017843630000000000001980000000001980002000000010410407310644491449778941300731000007568513   1020000200030000   333400010001204104000000281Myanmar Soft-Gate Tech Yangon        MMR11007310644491449770731000000000000000   10300001F05104100000000000416000000000000     
100   95050319753756490000000000170000000000170000002000000010410407310440551055503401970731000007568070   1030000200030000   333800010001203104000003327KBZPay                 Yangon        MMR11007310440551055500731000000000000000   10300001F05104100000000035700000000000000     
100   95050319938772870000000000000990000000000990002000000010410407311251242124427173780731000007569782   1020000200030000   333400010001204104000000281Myanmar Soft-Gate Tech Yangon        MMR11007311251242124420731000000000000000   10300001F05104100000000000208000000000000     
100   95050312280776950000000000030000000000030000002000000010410407310533250325494799160731000007568272   1030000200030000   3338000100012031040000040022C2P (Myanmar) Co. Ltd Yangon        MMR11007310533250325490731000000000000000   10300001F05104100000000006300000000000000     
100   95050315396509660000000000005500000000005500002000000010410407311453242324717003590731000007570225   1030000200030000   333800010001203104000003327KBZPay                 Yangon        MMR11007311453242324710731000000000000000   10300001F05104100000000001155000000000000     
100   95050312675525330000000000003000000000003000002000000010410407311525265526891961040731000007570321   1030000200030000   333800010001203104000003327KBZPay                 Yangon        MMR11007311525265526890731000000000000000   10300001F05104100000000000630000000000000     
100   95050311959900780000000000000990000000000990002000000010410407311009463946855005010731000007569217   1020000200030000   333400010001204104000000281Myanmar Soft-Gate Tech Yangon        MMR11007311009463946850731000000000000000   10300001F05104100000000000208000000000000     
100   95050315396509660000000000011500000000011500002000000010410407310345481548624288580731000007567851   1030000200030000   333800010001203104000003327KBZPay                 Yangon        MMR11007310345481548620731000000000000000   10300001F05104100000000002415000000000000     
100   95050315615561720000000000000990000000000990002000000010410407311106183618420387940731000007569416   1020000200030000   333400010001204104000000281Myanmar Soft-Gate Tech Yangon        MMR11007311106183618420731000000000000000   10300001F05104100000000000208000000000000     
100   95050315017843630000000000000990000000000990002000000010410407310509593959198104130731000007568182   1020000200030000   333400010001204104000000281Myanmar Soft-Gate Tech Yangon        MMR11007310509593959190731000000000000000   10300001F05104100000000000208000000000000     
100   62443100360763680000000000064150000000064150002000000010410407310218325632953948200731221209563295   1040001600030000   591220000287000000010000275Shwe Ohh Pharmacy (Wit Yangon        MMR11007310218325632950731000000000000000   10300001F00104100000000015396000000000000     
100   62443100374797770000000000079150000000079150002000000010410407311629040101588309980731000751087542   1030000200030000   541188001074000008000000294KBZ BANK               CITY MART - J MMR11007311629040101580731000000000000000   10300001 00104100000000019788000000000000     
100   95030301100081330000000000043000000000043000002000000010410407310244465646084773800731221209564608   1040001600030000   598320000660000000010000529Shwe Taung Energy (NPT Naypyitaw     MMR11007310244465646080731000000000000000   10300001F00104100000000001290000000000000     
100   62911028202472440000000000004050000000004050002000000010410407311214270205514773800731000751074101   1030000200030000   541188001049000008000000010KBZ BANK               MARKETPLACE - MMR11007311214270205510731000000000000000   10300001 00104100000000000243000000000000     
100   95050310616516480000000000008250000000008250002000000010410407311738140106498735460731000751091266   1030000200030000   541188001282000008000000319KBZ BANK               NEIGHBOURHOOD MMR11007311738140106490731000000000000000   10300001 00104100000000002063000000000000     
100   95050318131043910000000000000990000000000990002000000010410407310102243224237423360731000007567466   1020000200030000   333400010001204104000000281Myanmar Soft-Gate Tech Yangon        MMR11007310102243224230731000000000000000   10300001F05104100000000000208000000000000     
100   62911028202698420000000000060000000000060000002000000010410407310128455609284773800731221208560928   1040001600030000   598320001127000000010000608Terminal Petrol Statio Yangon        MMR11007310128455609280731000000000000000   10300001F00104100000000001800000000000000     
100   95030314863516850000000000007000000000007000002000000010410407301847471747844773800731000007567303   1030000200030000   333800010001203104000003327KBZPay                 Yangon        MMR11007301847471747840731000000000000000   10300001F05104100000000001470000000000000     
100   95050312675525330000000000008000000000008000002000000010410407310941121112261529850731000007569131   1030000200030000   333800010001203104000003327KBZPay                 Yangon        MMR11007310941121112260731000000000000000   10300001F05104100000000001680000000000000     
100   95050311959900780000000000002970000000002970002000000010410407311341171117058911370731000007569976   1020000200030000   333400010001204104000000281Myanmar Soft-Gate Tech Yangon        MMR11007311341171117050731000000000000000   10300001F05104100000000000624000000000000     
100   95050316067768680000000000000990000000000990002000000010410407311341191119887258880731000007569979   1020000200030000   333400010001204104000000281Myanmar Soft-Gate Tech Yangon        MMR11007311341191119880731000000000000000   10300001F05104100000000000208000000000000     
100   95050310427855490000000000002970000000002970002000000010410407310609063906143912550731000007568403   1020000200030000   333400010001204104000000281Myanmar Soft-Gate Tech Yangon        MMR11007310609063906140731000000000000000   10300001F05104100000000000624000000000000     
100   95050316785465380000000000000990000000000990002000000010410407310411574157929501330731000007567953   1020000200030000   333400010001204104000000281Myanmar Soft-Gate Tech Yangon        MMR11007310411574157920731000000000000000   10300001F05104100000000000208000000000000     
100   62443100323428970000000000075000000000075000002000000010410407311720020294838650360731000751090206   1030000200030000   541188001003000008000000008KBZ BANK               MARKETPLACE - MMR11007311720020294830731000000000000000   10300001 00104100000000018750000000000000     
100   95050319938772870000000000000990000000000990002000000010410407311247481748518741170731000007569766   1020000200030000   333400010001204104000000281Myanmar Soft-Gate Tech Yangon        MMR11007311247481748510731000000000000000   10300001F05104100000000000208000000000000     
100   95050314979630620000000000000990000000000990002000000010410407311544211421530308560731000007570359   1020000200030000   333400010001204104000000281Myanmar Soft-Gate Tech Yangon        MMR11007311544211421530731000000000000000   10300001F05104100000000000208000000000000     
100   62443101023815100000000000041003000000041003002000000010410407310033415588340486830731221207558834   1040001600030000   598320000316000000010000304PT Power Petrol Statio Yangon        MMR11007310033415588340731000000000000000   10300001F00104100000000004920000000000000     
100   62443101023815100000000000046524000000046524002000000010410407310034315588788834350731221207558878   1040001600030000   598320000316000000010000304PT Power Petrol Statio Yangon        MMR11007310034315588780731000000000000000   10300001F00104100000000005583000000000000     
100   95030314863516850000000000014000000000014000002000000010410407310913234323004773800731000007569034   1030000200030000   333800010001203104000003327KBZPay                 Yangon        MMR11007310913234323000731000000000000000   10300001F05104100000000002940000000000000     
100   95030318100004530000000000075100000000075100002000000010410407311539420063324773800731000751084847   1030000200030000   541188001420000008000000401KBZ BANK               OCEAN SUPERCE MMR11007311539420063320731000000000000000   10300001 00104100000000004506000000000000     
100   62911028202284910000000000026120000000026120002000000010410407311855530295434773800731000751094887   1030000200030000   541188001038000008000000010KBZ BANK               MARKETPLACE - MMR11007311855530295430731000000000000000   10300001 00104100000000001567000000000000     
100   95050315396509660000000000002000000000002000002000000010410407310948401840689877370731000007569150   1030000200030000   333800010001203104000003327KBZPay                 Yangon        MMR11007310948401840680731000000000000000   10300001F05104100000000000420000000000000     
100   62443100373105840000000000100000000000100000002000000010410407310110194019659160940731000007567475   1030000200030000   333800010001203104000003327KBZPay                 Yangon        MMR11007310110194019650731000000000000000   10300001F05104100000000021000000000000000     
100   62443101023815100000000000049000000000049000002000000010410407310035265589213791790731221207558921   1040001600030000   598320000316000000010000304PT Power Petrol Statio Yangon        MMR11007310035265589210731000000000000000   10300001F00104100000000005880000000000000     
100   95050310332595380000000000000990000000000990002000000010410407310301423142586281460731000007567700   1020000200030000   333400010001204104000000281Myanmar Soft-Gate Tech Yangon        MMR11007310301423142580731000000000000000   10300001F05104100000000000208000000000000     
100   95050315166583130000000000030000000000030000002000000010410407310251452145197848840731000007567680   1030000200030000   333800010001203104000003327KBZPay                 Yangon        MMR11007310251452145190731000000000000000   10300001F05104100000000006300000000000000     
100   95050315017843630000000000001980000000001980002000000010410407311322435243705521300731000007569910   1020000200030000   333400010001204104000000281Myanmar Soft-Gate Tech Yangon        MMR11007311322435243700731000000000000000   10300001F05104100000000000416000000000000     
100   62911028202154800000000000077700000000077700002000000010410407311636560205844773800731000751087963   1030000200030000   541188001049000008000000010KBZ BANK               MARKETPLACE - MMR11007311636560205840731000000000000000   10300001 00104100000000004662000000000000     
100   95050313396828960000000000000990000000000990002000000010410407310552162216401579290731000007568349   1020000200030000   333400010001204104000000281Myanmar Soft-Gate Tech Yangon        MMR11007310552162216400731000000000000000   10300001F05104100000000000208000000000000     
100   62911028202520380000000000004400000000004400002000000010410407311443320133984773800731000751081853   1030000200030000   541188001189000008000000383KBZ BANK               OCEAN SUPER C MMR11007311443320133980731000000000000000   10300001 00104100000000000264000000000000     
100   95050315099113150000000000002970000000002970002000000010410407301631000100842394600731000007567079   1020000200030000   333400010001204104000000281Myanmar Soft-Gate Tech Yangon        MMR11007301631000100840731000000000000000   10300001F05104100000000000624000000000000     
100   95050316785465380000000000000990000000000990002000000010410407310348431843574373680731000007567859   1020000200030000   333400010001204104000000281Myanmar Soft-Gate Tech Yangon        MMR11007310348431843570731000000000000000   10300001F05104100000000000208000000000000     
100   95050314307746340000000000000990000000000990002000000010410407311606473647822046140731000007570416   1020000200030000   333400010001204104000000281Myanmar Soft-Gate Tech Yangon        MMR11007311606473647820731000000000000000   10300001F05104100000000000208000000000000     
100   95050314160856250000000000001980000000001980002000000010410407311218114811650053270731000007569640   1020000200030000   333400010001204104000000281Myanmar Soft-Gate Tech Yangon        MMR11007311218114811650731000000000000000   10300001F05104100000000000416000000000000     
100   62443100314843770000000000080000000000080000002000000010410407310620165016127217510731000007568436   1030000200030000   333800010001203104000003327KBZPay                 Yangon        MMR11007310620165016120731000000000000000   10300001F05104100000000016800000000000000     
100   95050315017843630000000000000990000000000990002000000010410407310511554155106451650731000007568190   1020000200030000   333400010001204104000000281Myanmar Soft-Gate Tech Yangon        MMR11007310511554155100731000000000000000   10300001F05104100000000000208000000000000     
100   95050326511614440000000000029000000000029000002000000010410407310748126877669366780731882181412211   1030000900030000   723019001050190110000000853Nail Diary(SYS) -2     YANGON        MMR11007310748126877660731000000000000000   10300001F00104100000000006960000000000000     
100   62443100330105920000000000068200000000068200002000000010410407311219286941881535560731301491828211   1030000900030000   541119001373190110000000979Ocean PZD City Care C- YANGONAUNG    MMR11007311219286941880731000000000000000   10300001F00104100000000017050000000000000     
100   95050321848852460000000000072000000000072000002000000010410407311247066948962131240731764171906211   1030000900030000   554119000348190110000000215New Day Energy MYG     YANGONONE     MMR11007311247066948960731000000000000000   10300001F00104100000000008640000000000000     
100   62443100313529540000000000003960000000003960002000000010410407310429415941191664390731000007568026   1020000200030000   333400010001204104000000281Myanmar Soft-Gate Tech Yangon        MMR11007310429415941190731000000000000000   10300001F05104100000000000832000000000000     
100   95030308100042590000000000030800000000030800002000000010410407301002580033914773800730000358342823   1030000300030000   581400000692000000000000478CB BANK                KFC PARAMI SG MMR11007301002580033910730000000000000000   10300001F00104100000000000924000000000000     
100   95050321084131410000000000061000000000061000002000000010410407300830240002266295240730221115000226   1030000500030000   598320001701000015172200017MAX ENERGY             PTN           MMR11007300830240002260730000000000000000   10300001 00104100000000007320000000000000     
100   95050318601641810000000000000990000000000990002000000010410407311132380238970047560731000007569486   1020000200030000   333400010001204104000000281Myanmar Soft-Gate Tech Yangon        MMR11007311132380238970731000000000000000   10300001F05104100000000000208000000000000     
100   95050325455962190000000000000990000000000990002000000010410407310740571057246061820731000007568723   1020000200030000   333400010001204104000000281Myanmar Soft-Gate Tech Yangon        MMR11007310740571057240731000000000000000   10300001F05104100000000000208000000000000     
100   95030331386331890000000000025500000000025500002000000010410407310753182318594773800731000007568775   1030000200030000   333800010001203104000003327KBZPay                 Yangon        MMR11007310753182318590731000000000000000   10300001F05104100000000005355000000000000     
100   95050321848852460000000000063000000000063000002000000010410407311411066965613528430731695412006211   1030000900030000   554119000348190110000000215New Day Energy MYG     YANGONONE     MMR11007311411066965610731000000000000000   10300001F00104100000000007560000000000000     
100   62911028202717230000000000031650000000031650002000000010410407301000450027494773800730221116002749   1030000500030000   541120203706000015411202037CITY MART SUPERMARKET  PTN           MMR11007301000450027490730000000000000000   10300001 00104100000000001899000000000000     
100   62911028202290100000000000012675000000012675002000000010410407311139410224214773800731000751072437   1030000200030000   541188001080000008000000294KBZ BANK               CITY MART - J MMR11007311139410224210731000000000000000   10300001 00104100000000000761000000000000     
100   62443100372718280000000000021500000000021500002000000010410407311119105987730473040731221218598773   1040001600030000   806220001355000000010001061Grand Hantha Internati Ygn           MMR11007311119105987730731000000000000000   10300001F00104100000000005160000000000000     
100   95050327185992630000000000039000000000039000002000000010410407300925230001036805820730221115000103   1030000500030000   569120104001008205691201040ESCORT ( CITY MALL-ST. PTN           MMR11007300925230001030730000000000000000   10300001 00104100000000009360000000000000     
100   62911028202151340000000000046100000000046100002000000010410407301229450000474773800730221118000047   1030000500030000   591220211101014405912202111SHWE OHH PHARMACY      PTN           MMR11007301229450000470730000000000000000   10300001 00104100000000002766000000000000     
100   62443101037081820000000000043400000000043400002000000010410407300347274887276270430730221110488727   1040001600030000   581420001511000000010001203The Brew               Yangon        MMR11007300347274887270730000000000000000   10300001F00104100000000005208000000000000     
100   95030301100126550000000000040000000000040000002000000010410407301055175178754773800730221117517875   1040001600030000   598320000854000000010000608Terminal Petrol Statio Yangon        MMR11007301055175178750730000000000000000   10300001F00104100000000001200000000000000     
100   95050325388974590000000000020400000000020400002000000010410407301133280006993111030730221118000699   1030000500030000   541120227602000045411202276CITY MART ( 47 BRANCH  PTN           MMR11007301133280006990730000000000000000   10300001 00104100000000005100000000000000     
100   62911028202294570000000000045000000000045000002000000010410407300945080000904773800730221116000090   1030000500030000   598320041904000055983200419MAX ENERGY             PTN           MMR11007300945080000900730000000000000000   10300001 00104100000000001350000000000000     
100   62911028202154640000000000119950000000119950002000000010410407300715320000064773800730221113000006   1030000500030000   541120129717000045411201297MAKRO MYANMAR          PTN           MMR11007300715320000060730000000000000000   10300001 00104100000000007197000000000000     
100   62911028202313470000000000025000000000025000002000000010410407310721005816754773800731221214581675   1040001600030000   591220000285000000010000273Shwe Ohh Pharmacy (47t Yangon        MMR11007310721005816750731000000000000000   10300001F00104100000000001500000000000000     
100   62443100392773440000000000041279000000041279002000000010410407300728040020739855500730221113002073   1030000500030000   531120226318000045311202263OCEAN SUPER CENTER STJ PTN           MMR11007300728040020730730000000000000000   10300001 00104100000000009907000000000000     
100   62911028202795770000000000065600000000065600002000000010410407310338055673454773800731221210567345   1040001600030000   806220001355000000010001061Grand Hantha Internati Ygn           MMR11007310338055673450731000000000000000   10300001F00104100000000003936000000000000     
