100   62911028202169750000000000023800000000023800002000000010410407290629570000124773800729221012000012   1030000500030000   591220010901014405912200109SHWE OHH PHARMACY      PTN           MMR11007290629570000120729000000000000000   10300001 00104100000000001428000000000000     
100   62911028202088990000000000091000000000091000002000000010410407290020590002624773800729221006000262   1030000500030000   598320003201000015172200032MAX ENERGY             PTN           MMR11007290020590002620729000000000000000   10300001 00104100000000002730000000000000     
100   95050326228858240000000000149850000000149850002000000010410407291313520000608384050729000358188261   1030000300030000   581200003442000000000002516CB BANK                PARKROYAL SI  MMR11007291313520000600729000000000000000   10300001F00104100000000063687000000000000     
100   95050326593223450000000000157000000000157000002000000010410407290642030009047439920729221013000904   1030000500030000   503920036608000015039200366PRO-1 HOME CENTER      PTN           MMR11007290642030009040729000000000000000   10300001 00104100000000037680000000000000     
100   62911028202499350000000000014600000000014600002000000010410407291140300000074773800729221018000007   1030000500030000   531120155715000045311201557GAMONE PWINT           PTN           MMR11007291140300000070729000000000000000   10300001 00104100000000000876000000000000     
100   62911028202542160000000000023000000000023000002000000010410407291019360000744773800729221016000074   1030000500030000   806220172406013008062201724GRAND HANTHA HOSPITAL  PTN           MMR11007291019360000740729000000000000000   10300001 00104100000000001380000000000000     
100   95050313970192050000000000001700000000001700002000000010410407291332020003804993980729221020000380   1030000500030000   541120232801000045411202328CITY EXPRESS (MCS - 34 PTN           MMR11007291332020003800729000000000000000   10300001 00104100000000000425000000000000     
100   62911028202118690000000000030000000000030000002000000010410407290707040000054773800729221013000005   1030000500030000   569120057801016505691200578IMMI                   PTN           MMR11007290707040000050729000000000000000   10300001 00104100000000001800000000000000     
100   62443101037081820000000000030000000000030000002000000010410407301121375204814763510730221118520481   1040001600030000   569120000929000000010000676Generation Concept Sto Ygn           MMR11007301121375204810730000000000000000   10300001F00104100000000007200000000000000     
100   95050312173216740000000000016800000000016800002000000010410407300859486657423671040730770291548210   1030000900030000   541119001274190110000000961City Mart PLST City Ca YANGONMYOTHIT MMR11007300859486657420730000000000000000   10300001F00104100000000004200000000000000     
100   95050314979630620000000000001980000000001980002000000010410407301423545354127266960730000007566698   1020000200030000   333400010001204104000000281Myanmar Soft-Gate Tech Yangon        MMR11007301423545354120730000000000000000   10300001F05104100000000000416000000000000     
100   62911028202169750000000000006650000000006650002000000010410407300634006619304773800730415041300210   1030000900030000   541119001274190110000000961City Mart PLST City Ca YANGONMYOTHIT MMR11007300634006619300730000000000000000   10300001F00104100000000000399000000000000     
100   95050327456215690000000000045000000000045000002000000010410407300925066664311763280730218551506210   1030000900030000   554119001103190110000000215New Day Energy MYG     YANGONONE     MMR11007300925066664310730000000000000000   10300001F00104100000000005400000000000000     
100   62911028202698420000000000214610000000214610002000000010410407301231035274714773800730221119527471   1040001600030000   581420000804000000010000580Jeff's Kitchen (Kan Ye Yangon        MMR11007301231035274710730000000000000000   10300001F00104100000000006438000000000000     
100   62911028202308280000000000059250000000059250002000000010410407301009216676694773800730039391621210   1030000900030000   541119000124190110000000080Sein Gay Har BAK       YANGONADA     MMR11007301009216676690730000000000000000   10300001F00104100000000003555000000000000     
100   62911028202132460000000000030200000000030200002000000010410407300240236555114773800730637100923210   1030000900030000   591219000609190110000000449Shwe Ohh Pharmacy St-3 YANGONAUNG    MMR11007300240236555110730000000000000000   10300001F00104100000000001812000000000000     
100   62911028202294730000000000093000000000093000002000000010410407290914330002314773800729221015000231   1030000500030000   598320001601000015172200016MAX ENERGY             PTN           MMR11007290914330002310729000000000000000   10300001 00104100000000002790000000000000     
100   95050324154190880000000000015400000000015400002000000010410407291334470002789951440729000358191016   1030000300030000   581200001513000000000001062CB BANK                YKKO(BAHAN)   MMR11007291334470002780729000000000000000   10300001F00104100000000006545000000000000     
100   95050324444444460000000000061793000000061793002000000010410407290608200001166369320729000358110435   1030000300030000   581200001846000000000001321CB BANK                SHAN YOE YAR  MMR11007290608200001160729000000000000000   10300001F00104100000000026262000000000000     
100   62443100330048680000000000045000000000045000002000000010410407291150150002528540450729221018000252   1030000500030000   598320001102000015172200011MAX ENERGY             PTN           MMR11007291150150002520729000000000000000   10300001 00104100000000005400000000000000     
100   62911028202317430000000000058200000000058200002000000010410407290415090018754773800729221010001875   1030000500030000   541120227603000045411202276CITY MART ( 47 BRANCH  PTN           MMR11007290415090018750729000000000000000   10300001 00104100000000003492000000000000     
100   62911028202471600000000000069663000000069663002000000010410407291121480026534773800729221017002653   1030000500030000   531120226317000045311202263OCEAN SUPER CENTER STJ PTN           MMR11007291121480026530729000000000000000   10300001 00104100000000004180000000000000     
100   95050328861342240000000000025000000000025000002000000010410407290643040014562482460729221013001456   1030000500030000   598320041902000055983200419MAX ENERGY             PTN           MMR11007290643040014560729000000000000000   10300001 00104100000000003000000000000000     
100   62911028202088990000000000002400000000002400002000000010410407291155040014414773800729221018001441   1030000500030000   541120227507000045411202275CITY MART (AHLONE BRAN PTN           MMR11007291155040014410729000000000000000   10300001 00104100000000000144000000000000     
100   95030323161862590000000004255000000004255000002000000010410407301404106735734773800730773342010210   1030000900030000   701119000073190110000000024Lotte Hotel            YANGON        MMR11007301404106735730730000000000000000   10300001F00104100000000434010000000000000     
100   62911028202248050000000000018400000000018400002000000010410407301038086684834773800730591081708210   1030000900030000   541119001328190110000000971Ocean Junction NPT C6  NAYPYITAW     MMR11007301038086684830730000000000000000   10300001F00104100000000001104000000000000     
100   62911028202308280000000000022250000000022250002000000010410407300448226590114773800730643181122210   1030000900030000   541119000120190110000000080Sein Gay Har BAK       YANGONADA     MMR11007300448226590110730000000000000000   10300001F00104100000000001335000000000000     
100   95050315360655070000000000183000000000183000002000000010410407300608116612418724430730984381211210   1030000900030000   594419000705190110000000536Zwe Htet Gems & Jewell YANGON        MMR11007300608116612410730000000000000000   10300001F00104100000000043920000000000000     
100   95030351849812630000000000048900000000048900002000000010410407300853056655664773800730647231505210   1030000900030000   541119001328190110000000971Ocean Junction NPT C6  NAYPYITAW     MMR11007300853056655660730000000000000000   10300001F00104100000000002934000000000000     
100   95050312173216740000000000000900000000000900002000000010410407300900496657718713600730788301549210   1030000900030000   541119001274190110000000961City Mart PLST City Ca YANGONMYOTHIT MMR11007300900496657710730000000000000000   10300001F00104100000000000225000000000000     
100   62911028202154640000000000014012000000014012002000000010410407301308506724884773800730143381950210   1030000900030000   541119001263190110000000958City Mart PLST C 6     YANGONMYOTHIT MMR11007301308506724880730000000000000000   10300001F00104100000000000841000000000000     
100   62911028202169750000000000019331000000019331002000000010410407300630316618284773800730352001331210   1030000900030000   541119001267190110000000958City Mart PLST C 10    YANGONMYOTHIT MMR11007300630316618280730000000000000000   10300001F00104100000000001160000000000000     
100   62443100372718280000000000025674000000025674002000000010410407291203440017623412800729000358177947   1030000300030000   598300001209000000000000817CB BANK                SHWE TAUNG EN MMR11007291203440017620729000000000000000   10300001F00104100000000003081000000000000     
100   95050326593223450000000000066300000000066300002000000010410407290544300022133489830729000358105306   1030000300030000   541100002348000000000000102CB BANK                MAKRO MYANMAR MMR11007290544300022130729000000000000000   10300001F00104100000000016575000000000000     
100   62911028202236330000000000054000000000054000002000000010410407291208310030554773800729221018003055   1030000500030000   598320001104000015172200011MAX ENERGY             PTN           MMR11007291208310030550729000000000000000   10300001 00104100000000001620000000000000     
100   62443101023815100000000000032204000000032204002000000010410407290413380021067887260729221010002106   1030000500030000   541120227503000045411202275CITY MART (AHLONE BRAN PTN           MMR11007290413380021060729000000000000000   10300001 00104100000000008051000000000000     
100   95050327456215690000000000171300000000171300002000000010410407290504480028360610340729221011002836   1030000500030000   531120226302000045311202263OCEAN SUPER CENTER STJ PTN           MMR11007290504480028360729000000000000000   10300001 00104100000000041112000000000000     
100   95050318057347910000000000044250000000044250002000000010410407291648030059675100950729000750989244   1030000200030000   541188001440000008000000401KBZ BANK               OCEAN SUPERCE MMR11007291648030059670729000000000000000   10300001 00104100000000011063000000000000     
100   62911028202116120000000000118650000000118650002000000010410407291218050032934773800729221018003293   1030000500030000   531120226308000045311202263OCEAN SUPER CENTER STJ PTN           MMR11007291218050032930729000000000000000   10300001 00104100000000007119000000000000     
100   62911028202530930000000000037914000000037914002000000010410407290516060037004773800729221011003700   1030000500030000   541120226402000045411202264MARKET PLACE MYANMARPL PTN           MMR11007290516060037000729000000000000000   10300001 00104100000000002275000000000000     
100   62911028202154640000000000003650000000003650002000000010410407301310196725174773800730163401919210   1030000900030000   541119001274190110000000961City Mart PLST City Ca YANGONMYOTHIT MMR11007301310196725170730000000000000000   10300001F00104100000000000219000000000000     
100   62911028202616170000000000083000000000083000002000000010410407300641596621364773800730535111359210   1030000900030000   723019001050190110000000853Nail Diary(SYS) -2     YANGON        MMR11007300641596621360730000000000000000   10300001F00104100000000004980000000000000     
100   62911028202916630000000000018000000000018000002000000010410407301006256675874773800730983361625210   1030000900030000   554119000348190110000000215New Day Energy MYG     YANGONONE     MMR11007301006256675870730000000000000000   10300001F00104100000000000540000000000000     
100   95050324005082180000000000021700000000021700002000000010410407300956086672942444040730795261608210   1030000900030000   541119001077190110000000872Sein Gay Har Hledan    YANGONUT      MMR11007300956086672940730000000000000000   10300001F00104100000000005425000000000000     
100   62911028202108460000000000005500000000005500002000000010410407301106056692954773800730120361705210   1030000900030000   591219000795190110000000627Shwe Ohh Pharmacy ST-3 YANGONINDAING MMR11007301106056692950730000000000000000   10300001F00104100000000000330000000000000     
100   62911028202110420000000000043850000000043850002000000010410407300643377186854773800730133736959031   1040001400030000   592110000076015921100000365Million Mart Million M rt No. (519/  MMR11007300643377186850730000000000000000   10300001 00104100000000002631000000000000     
100   95050311835716660000000000269000000000269000002000000010410407300958186673660876660730847281618210   1030000900030000   573219001183190110000000939UNIQUE Thingangyun     YANGONNGKUUN  MMR11007300958186673660730000000000000000   10300001F00104100000000064560000000000000     
100   95050310283518110000000000020850000000020850002000000010410407292024390040848639340729000751001615   1030000200030000   541188001444000008000000401KBZ BANK               OCEAN SUPERCE MMR11007292024390040840729000000000000000   10300001 00104100000000005213000000000000     
100   95050310283518110000000000029550000000029550002000000010410407292018180059711603920729000751001504   1030000200030000   541188001440000008000000401KBZ BANK               OCEAN SUPERCE MMR11007292018180059710729000000000000000   10300001 00104100000000007388000000000000     
100   95030346179196360000000000045000000000045000002000000010410407291015534337094773800729221017433709   1040001600030000   598320000856000000010000609Terminal Petrol Statio Yangon        MMR11007291015534337090729000000000000000   10300001F00104100000000001350000000000000     
100   62443101076362230000000000091300000000091300002000000010410407291432314588656901760729221021458865   1040001600030000   581420001099000000010000816Master Coal BBQ        Ygn           MMR11007291432314588650729000000000000000   10300001F00104100000000010956000000000000     
100   95030306100096490000000000000990000000000990002000000010410407301513214321924773800730000007566873   1020000200030000   333400010001204104000000281Myanmar Soft-Gate Tech Yangon        MMR11007301513214321920730000000000000000   10300001F05104100000000000208000000000000     
100   95050312695033440000000000000990000000000990002000000010410407301017174717143926330730000007565865   1020000200030000   333400010001204104000000281Myanmar Soft-Gate Tech Yangon        MMR11007301017174717140730000000000000000   10300001F05104100000000000208000000000000     
100   62911028202532910000000000012850000000012850002000000010410407301512480059554773800730000751036110   1030000200030000   541188001057000008000000314KBZ BANK               MARKETPLACE - MMR11007301512480059550730000000000000000   10300001 00104100000000000771000000000000     
100   95050315396509660000000000003000000000003000002000000010410407300616014601102454890730000007564909   1030000200030000   333800010001203104000003327KBZPay                 Yangon        MMR11007300616014601100730000000000000000   10300001F05104100000000000630000000000000     
100   95050328303533000000000000001000000000001000002000000010410407301017324732278883790730000007565864   1030000200030000   3334000100012031040000040102C2P (Myanmar) Co. Ltd Yangon        MMR11007301017324732270730000000000000000   10300001F05104100000000000210000000000000     
100   95050316717221100000000000004950000000004950002000000010410407301022205220808968880730000007565882   1020000200030000   333400010001204104000000281Myanmar Soft-Gate Tech Yangon        MMR11007301022205220800730000000000000000   10300001F05104100000000001040000000000000     
100   62911028202668300000000000030000000000030000002000000010410407291038460002084773800729221017000208   1030000500030000   598320001401000015172200014MAX ENERGY             PTN           MMR11007291038460002080729000000000000000   10300001 00104100000000000900000000000000     
100   95050314979630620000000000000990000000000990002000000010410407301248371837528238670730000007566345   1020000200030000   333400010001204104000000281Myanmar Soft-Gate Tech Yangon        MMR11007301248371837520730000000000000000   10300001F05104100000000000208000000000000     
100   62443100300743690000000000007644000000007644002000000010410407300659366626166210150730833291336210   1030000900030000   581219000371190110000000243Jo Jo Hot Pot (Junctio YANGONN       MMR11007300659366626160730000000000000000   10300001F00104100000000003249000000000000     
100   95050326228858240000000000060050000000060050002000000010410407291339050066326646470729000358191509   1030000300030000   581200003057000000000002149CB BANK                SORABOL KOREA MMR11007291339050066320729000000000000000   10300001F00104100000000025522000000000000     
100   95050313817486860000000000002970000000002970002000000010410407301416144614340061350730000007566658   1020000200030000   333400010001204104000000281Myanmar Soft-Gate Tech Yangon        MMR11007301416144614340730000000000000000   10300001F05104100000000000624000000000000     
100   95050313411345710000000000002970000000002970002000000010410407301247531753839891150730000007566359   1020000200030000   333400010001204104000000281Myanmar Soft-Gate Tech Yangon        MMR11007301247531753830730000000000000000   10300001F05104100000000000624000000000000     
100   62911028202115960000000000189486000000189486002000000010410407291203270035534773800729221018003553   1030000500030000   541120226807000045411202268CITY MART WAIZAYANDA   PTN           MMR11007291203270035530729000000000000000   10300001 00104100000000011369000000000000     
100   95050318601641810000000000000990000000000990002000000010410407292310224022239611050730000007563703   1020000200030000   333400010001204104000000281Myanmar Soft-Gate Tech Yangon        MMR11007292310224022230730000000000000000   10300001F05104100000000000208000000000000     
100   95050314064416890000000000000990000000000990002000000010410407300142501250894228120730000007563872   1020000200030000   333400010001204104000000281Myanmar Soft-Gate Tech Yangon        MMR11007300142501250890730000000000000000   10300001F05104100000000000208000000000000     
100   62443100348951400000000000050400000000050400002000000010410407301428335833095614470730000007566719   1030000900030000   333800010001202104000003301uab bank               Yangon        MMR11007301428335833090730000000000000000   10300001F05104100000000010584000000000000     
100   95050316067768680000000000000990000000000990002000000010410407300645531553874387470730000007565031   1020000200030000   333400010001204104000000281Myanmar Soft-Gate Tech Yangon        MMR11007300645531553870730000000000000000   10300001F05104100000000000208000000000000     
100   95050311419479170000000000001000000000001000002000000010410407301046371637422345160730000007565957   1030000200030000   3334000100012031040000040102C2P (Myanmar) Co. Ltd Yangon        MMR11007301046371637420730000000000000000   10300001F05104100000000000210000000000000     
100   62911028202407100000000000012850000000012850002000000010410407301031175156574773800730221117515657   1040001600030000   591220000258000000010000246Shwe Ohh Pharmacy (Sin Yangon        MMR11007301031175156570730000000000000000   10300001F00104100000000000771000000000000     
100   62911028202913580000000000002150000000002150002000000010410407300500354931384773800730221112493138   1040001600030000   591220000280000000010000268Shwe Ohh Pharmacy (Naw Yangon        MMR11007300500354931380730000000000000000   10300001F00104100000000000129000000000000     
100   95050316717221100000000000000990000000000990002000000010410407301023515351947316400730000007565887   1020000200030000   333400010001204104000000281Myanmar Soft-Gate Tech Yangon        MMR11007301023515351940730000000000000000   10300001F05104100000000000208000000000000     
100   95050323133124350000000000024000000000024000002000000010410407301005233523084266720730000007565821   1030000200030000   333800010001203104000003327KBZPay                 Yangon        MMR11007301005233523080730000000000000000   10300001F05104100000000005040000000000000     
100   62911028202126850000000000040000000000040000002000000010410407291111000003054773800729221017000305   1030000500030000   598320001204000015172200012MAX ENERGY             PTN           MMR11007291111000003050729000000000000000   10300001 00104100000000001200000000000000     
100   62443100314171200000000000100050000000100050002000000010410407300850575082388032820730221115508238   1040001600030000   541120000563000000010000465Ocean Shwe Gone Daing  Yangon        MMR11007300850575082380730000000000000000   10300001F00104100000000025013000000000000     
100   62911028202442250000000000016000000000016000002000000010410407290049410001644773800729221007000164   1030000500030000   598320001203000015172200012MAX ENERGY             PTN           MMR11007290049410001640729000000000000000   10300001 00104100000000000480000000000000     
100   62443100355445150000000000081200000000081200002000000010410407290151440012901977130729000358063628   1030000300030000   541100002357000000000000102CB BANK                MAKRO MYANMAR MMR11007290151440012900729000000000000000   10300001F00104100000000020300000000000000     
100   95050328861342240000000000092700000000092700002000000010410407290416500046941192230729000358087234   1030000300030000   541100002337000000000000102CB BANK                MAKRO MYANMAR MMR11007290416500046940729000000000000000   10300001F00104100000000023175000000000000     
100   95050327185992630000000000056600000000056600002000000010410407300941540008993500850730000751039335   1030000200030000   569988002501000008000006688KBZ BANK               ST-JOHN IPANE MMR11007300941540008990730000000000000000   10300001 00104100000000013584000000000000     
100   62911028202248050000000000012900000000012900002000000010410407301056150038504773800730221117003850   1020000200030000   541100255005300115411000025MWD BANK               YGN           MMR11007301056150038500730000000000000000   10300001 00104100000000000774000000000000     
100   62911028202610540000000000026240000000026240002000000010410407301455150144404773800730000751035098   1030000200030000   541188001081000008000000294KBZ BANK               CITY MART - J MMR11007301455150144400730000000000000000   10300001 00104100000000001574000000000000     
100   95030303100034700000000000027300000000027300002000000010410407301205440127574773800730000751025198   1030000200030000   541188001128000008000000296KBZ BANK               CITY MART - J MMR11007301205440127570730000000000000000   10300001 00104100000000001638000000000000     
100   62911028202610540000000000004000000000004000002000000010410407301356240115104773800730000751031913   1030000200030000   541188001088000008000000294KBZ BANK               CITY MART - J MMR11007301356240115100730000000000000000   10300001 00104100000000000240000000000000     
100   62911028202287150000000000042068000000042068002000000010410407300536120044264773800730000751025230   1030000200030000   541188001627000008000000008KBZ BANK               MARKETPLACE - MMR11007300536120044260730000000000000000   10300001 00104100000000002524000000000000     
100   62911028202651050000000000038800000000038800002000000010410407300908170052444773800730000751015933   1030000200030000   541188001040000008000000010KBZ BANK               MARKETPLACE - MMR11007300908170052440730000000000000000   10300001 00104100000000002328000000000000     
100   62911028202446130000000000023400000000023400002000000010410407301424490189894773800730000751033503   1030000200030000   541188001061000008000000314KBZ BANK               MARKETPLACE - MMR11007301424490189890730000000000000000   10300001 00104100000000001404000000000000     
100   95050319308486800000000000182000000000182000002000000010410407301058520043081483170730000751021670   1030000200030000   541188001454000008000000391KBZ BANK               OCEAN SUPER C MMR11007301058520043080730000000000000000   10300001 00104100000000045500000000000000     
100   62911028202154800000000000026372000000026372002000000010410407301606330109784773800730000751038991   1030000200030000   541188001060000008000000314KBZ BANK               MARKETPLACE - MMR11007301606330109780730000000000000000   10300001 00104100000000001582000000000000     
100   95030394609966640000000000017200000000017200002000000010410407301334340018764773800730000751030705   1030000200030000   541188001030000008000000298KBZ BANK               CITY MART - M MMR11007301334340018760730000000000000000   10300001 00104100000000001032000000000000     
100   95030310098554020000000000025800000000025800002000000010410407300954090050044773800730000751017979   1030000200030000   541188001085000008000000294KBZ BANK               CITY MART - J MMR11007300954090050040730000000000000000   10300001 00104100000000001548000000000000     
100   95050319532433550000000000030000000000030000002000000010410407300931440144281848370730000007565676   1030000200030000   333800010001203104000003327KBZPay                 Yangon        MMR11007300931440144280730000000000000000   10300001F05104100000000006300000000000000     
100   95030318100002710000000000035267000000035267002000000010410407301319360063134773800730000751029861   1030000200030000   541188001420000008000000401KBZ BANK               OCEAN SUPERCE MMR11007301319360063130730000000000000000   10300001 00104100000000002116000000000000     
100   62911028202663430000000000003300000000003300002000000010410407301005120126284773800730000751018608   1030000200030000   541188001033000008000000298KBZ BANK               CITY MART - M MMR11007301005120126280730000000000000000   10300001 00104100000000000198000000000000     
100   62911028202150190000000000046633000000046633002000000010410407301232460159854773800730000751026913   1030000200030000   541188001002000008000000008KBZ BANK               MARKETPLACE - MMR11007301232460159850730000000000000000   10300001 00104100000000002798000000000000     
100   95030394609966640000000000013550000000013550002000000010410407301332480178514773800730000751030608   1030000200030000   541188001023000008000000298KBZ BANK               CITY MART - M MMR11007301332480178510730000000000000000   10300001 00104100000000000813000000000000     
100   95050311959900780000000000000990000000000990002000000010410407301405523552685018800730000007566627   1020000200030000   333400010001204104000000281Myanmar Soft-Gate Tech Yangon        MMR11007301405523552680730000000000000000   10300001F05104100000000000208000000000000     
100   95050311959900780000000000000990000000000990002000000010410407300105553555501093340730000007563799   1020000200030000   333400010001204104000000281Myanmar Soft-Gate Tech Yangon        MMR11007300105553555500730000000000000000   10300001F05104100000000000208000000000000     
100   95030374458345210000000000047300000000047300002000000010410407301337520293694773800730000751030883   1030000200030000   541188001003000008000000008KBZ BANK               MARKETPLACE - MMR11007301337520293690730000000000000000   10300001 00104100000000002838000000000000     
100   95050324133333980000000000700000000000700000002000000010410407300855140929801422890730251438541302   1040001400030000   504510000941035045100005747Technoland Computer Tr ding Co. Ltd  MMR11007300855140929800730000000000000000   10300001 00104100000000168000000000000000     
100   95050313411345710000000000000990000000000990002000000010410407301246301630956586190730000007566350   1020000200030000   333400010001204104000000281Myanmar Soft-Gate Tech Yangon        MMR11007301246301630950730000000000000000   10300001F05104100000000000208000000000000     
100   95050319122743920000000000050000000000050000002000000010410407300212424837105284930730221109483710   1040001600030000   598320001059000000010000780Yangon Petrol (Tharket Ygn           MMR11007300212424837100730000000000000000   10300001F00104100000000006000000000000000     
100   95050312695033440000000000000990000000000990002000000010410407300116544654581008250730000007563810   1020000200030000   333400010001204104000000281Myanmar Soft-Gate Tech Yangon        MMR11007300116544654580730000000000000000   10300001F05104100000000000208000000000000     
100   62911028202308280000000000050000000000050000002000000010410407300705044273224773800730350401336920   1040001400030000   581410000465025814100002939Golden Duck Restaurant (Kan Taw Min) MMR11007300705044273220730000000000000000   10300001 00104100000000001500000000000000     
100   62443100392426520000000000010000000000010000002000000010410407301326575657303366310730000007566495   1030000200030000   333800010001203104000003327KBZPay                 Yangon        MMR11007301326575657300730000000000000000   10300001F05104100000000002100000000000000     
100   95030301100121270000000000039500000000039500002000000010410407301059390333194773800730002939345339   1040001400030000   555610000612025556100003510119 Store null No-119  Anawrahta Roa MMR11007301059390333190730000000000000000   10300001 00104100000000002370000000000000     
100   62911028202093430000000000001980000000001980002000000010410407301218514851904773800730000007566265   1020000200030000   333400010001204104000000281Myanmar Soft-Gate Tech Yangon        MMR11007301218514851900730000000000000000   10300001F05104100000000000416000000000000     
100   95050314307746340000000000000990000000000990002000000010410407300416574657081568270730000007564402   1020000200030000   333400010001204104000000281Myanmar Soft-Gate Tech Yangon        MMR11007300416574657080730000000000000000   10300001F05104100000000000208000000000000     
100   62443100373945130000000000030000000000030000002000000010410407301126555209839720960730221118520983   1040001600030000   598320000911000000010000662MMTM - Tamwe           Ygn           MMR11007301126555209830730000000000000000   10300001F00104100000000003600000000000000     
100   95050319753756490000000000130000000000130000002000000010410407301447101710288919440730000007566789   1030000200030000   333800010001203104000003327KBZPay                 Yangon        MMR11007301447101710280730000000000000000   10300001F05104100000000027300000000000000     
100   95050312641885210000000000001980000000001980002000000010410407300842091209441337790730000007565494   1020000200030000   333400010001204104000000281Myanmar Soft-Gate Tech Yangon        MMR11007300842091209440730000000000000000   10300001F05104100000000000416000000000000     
100   95050315396509660000000000012000000000012000002000000010410407300416124612009915780730000007564399   1030000200030000   333800010001203104000003327KBZPay                 Yangon        MMR11007300416124612000730000000000000000   10300001F05104100000000002520000000000000     
100   62443100330108240000000000100000000000100000002000000010410407300322245224863135660730000007564198   1030000200030000   333800010001203104000003327KBZPay                 Yangon        MMR11007300322245224860730000000000000000   10300001F05104100000000021000000000000000     
100   95050327416134790000000000000990000000000990002000000010410407301249131913249976250730000007566363   1020000200030000   333400010001204104000000281Myanmar Soft-Gate Tech Yangon        MMR11007301249131913240730000000000000000   10300001F05104100000000000208000000000000     
100   95050311273457710000000000030000000000030000002000000010410407300657512751249515120730000007565079   1030000200030000   333800010001203104000003327KBZPay                 Yangon        MMR11007300657512751240730000000000000000   10300001F05104100000000006300000000000000     
100   95050318131043910000000000002970000000002970002000000010410407300959532953839139080730000007565789   1020000200030000   333400010001204104000000281Myanmar Soft-Gate Tech Yangon        MMR11007300959532953830730000000000000000   10300001F05104100000000000624000000000000     
100   95050312613888920000000000005500000000005500002000000010410407300354572457886695910730000007564319   1030000200030000   333800010001203104000003327KBZPay                 Yangon        MMR11007300354572457880730000000000000000   10300001F05104100000000001155000000000000     
100   95050316067768680000000000000990000000000990002000000010410407300644091409133937180730000007565024   1020000200030000   333400010001204104000000281Myanmar Soft-Gate Tech Yangon        MMR11007300644091409130730000000000000000   10300001F05104100000000000208000000000000     
100   95050314570621780000000000003960000000003960002000000010410407300413534353714873240730000007564394   1020000200030000   333400010001204104000000281Myanmar Soft-Gate Tech Yangon        MMR11007300413534353710730000000000000000   10300001F05104100000000000832000000000000     
100   95050310332595380000000000000990000000000990002000000010410407300217464746853547350730000007563977   1020000200030000   333400010001204104000000281Myanmar Soft-Gate Tech Yangon        MMR11007300217464746850730000000000000000   10300001F05104100000000000208000000000000     
100   62911028202777790000000000005422000000005422002000000010410407301228305830724773800730000007566290   1030000200030000   333800010001203104000003327KBZPay                 Yangon        MMR11007301228305830720730000000000000000   10300001F05104100000000001139000000000000     
100   62911028202161240000000000025214000000025214002000000010410407301025310414964773800730000751019749   1030000200030000   541188001024000008000000298KBZ BANK               CITY MART - M MMR11007301025310414960730000000000000000   10300001 00104100000000001513000000000000     
100   95050310332595380000000000000990000000000990002000000010410407301537120712682309510730000007566925   1020000200030000   333400010001204104000000281Myanmar Soft-Gate Tech Yangon        MMR11007301537120712680730000000000000000   10300001F05104100000000000208000000000000     
100   95050319925596540000000000009900000000009900002000000010410407300506493649211227880730000007564594   1020000200030000   333400010001204104000000281Myanmar Soft-Gate Tech Yangon        MMR11007300506493649210730000000000000000   10300001F05104100000000002079000000000000     
100   62911028202057620000000000200000000000200000002000000010410407300802593259314773800730000007565333   1030000200030000   333800010001203104000003327KBZPay                 Yangon        MMR11007300802593259310730000000000000000   10300001F05104100000000042000000000000000     
100   95050315564078030000000000100000000000100000002000000010410407300044551455684823790730000007563775   1030000200030000   3338000100012031040000040022C2P (Myanmar) Co. Ltd Yangon        MMR11007300044551455680730000000000000000   10300001F05104100000000021000000000000000     
100   95050316321163940000000000000990000000000990002000000010410407300702093209494557660730000007565093   1020000200030000   333400010001204104000000281Myanmar Soft-Gate Tech Yangon        MMR11007300702093209490730000000000000000   10300001F05104100000000000208000000000000     
100   95050319006804440000000000000990000000000990002000000010410407300503563356889575400730000007564579   1020000200030000   333400010001204104000000281Myanmar Soft-Gate Tech Yangon        MMR11007300503563356880730000000000000000   10300001F05104100000000000208000000000000     
100   62911028202169750000000000053400000000053400002000000010410407300449274923864773800730221111492386   1040001600030000   591220000085000000010000081Golden Bell (North Okk Yangon        MMR11007300449274923860730000000000000000   10300001F00104100000000003204000000000000     
100   95050327416134790000000000002970000000002970002000000010410407301246481648804933700730000007566354   1020000200030000   333400010001204104000000281Myanmar Soft-Gate Tech Yangon        MMR11007301246481648800730000000000000000   10300001F05104100000000000624000000000000     
100   62443100394939820000000000100000000000100000002000000010410407291804283428250121630730000007563544   1030000200030000   333800010001203104000003327KBZPay                 Yangon        MMR11007291804283428250730000000000000000   10300001F05104100000000021000000000000000     
100   95050325455962190000000000002970000000002970002000000010410407300908083808527146200730000007565582   1020000200030000   333400010001204104000000281Myanmar Soft-Gate Tech Yangon        MMR11007300908083808520730000000000000000   10300001F05104100000000000624000000000000     
100   95050312695033440000000000000990000000000990002000000010410407300652502250461167600730000007565055   1020000200030000   333400010001204104000000281Myanmar Soft-Gate Tech Yangon        MMR11007300652502250460730000000000000000   10300001F05104100000000000208000000000000     
100   95050327185992630000000000047000000000047000002000000010410407300913115096762103660730221116509676   1040001600030000   569120000925000000010000672Generation Concept Sto Ygn           MMR11007300913115096760730000000000000000   10300001F00104100000000011280000000000000     
100   95050324133333980000000000117500000000117500002000000010410407300810355833160025690730403569360674   1040001400030000   504510000941035045100005747Technoland Computer Tr ding Co. Ltd  MMR11007300810355833160730000000000000000   10300001 00104100000000028200000000000000     
100   95050311926829590000000000000990000000000990002000000010410407300450412041850887500730000007564547   1020000200030000   333400010001204104000000281Myanmar Soft-Gate Tech Yangon        MMR11007300450412041850730000000000000000   10300001F05104100000000000208000000000000     
100   62443100378297160000000000016000000000016000002000000010410407300939130913345153340730000007565704   1030000200030000   3338000100012031040000040022C2P (Myanmar) Co. Ltd Yangon        MMR11007300939130913340730000000000000000   10300001F05104100000000003360000000000000     
100   95050316377977350000000000005000000000005000002000000010410407301458042804319004540730000007566826   1040001600030000   333800010001220104000004507A +                    Yangon        MMR11007301458042804310730000000000000000   10300001F05104100000000001050000000000000     
100   62443100321407540000000000059000000000059000002000000010410407300201064830673717540730221109483067   1040001600030000   569920001532000000010001223DI Fashion Mall        Ygn           MMR11007300201064830670730000000000000000   10300001F00104100000000014160000000000000     
100   62911028202169750000000000016800000000016800002000000010410407300442544919724773800730221111491972   1040001600030000   591220000294000000010000282Shwe Ohh Pharmacy (Kha Yangon        MMR11007300442544919720730000000000000000   10300001F00104100000000001008000000000000     
100   62443100314171200000000000097863000000097863002000000010410407300847345080263075370730221115508026   1040001600030000   541120000563000000010000465Ocean Shwe Gone Daing  Yangon        MMR11007300847345080260730000000000000000   10300001F00104100000000024466000000000000     
100   95050315259054570000000000003500000000003500002000000010410407300235080508745540210730000007564041   1030000200030000   333800010001203104000003327KBZPay                 Yangon        MMR11007300235080508740730000000000000000   10300001F05104100000000000735000000000000     
100   95050313817486860000000000002970000000002970002000000010410407301414074407845103890730000007566656   1020000200030000   333400010001204104000000281Myanmar Soft-Gate Tech Yangon        MMR11007301414074407840730000000000000000   10300001F05104100000000000624000000000000     
100   95050312781844250000000000005000000000005000002000000010410407301314094409043281220730000007566451   1030000200030000   3334000100012031040000040102C2P (Myanmar) Co. Ltd Yangon        MMR11007301314094409040730000000000000000   10300001F05104100000000001050000000000000     
100   62911028202197630000000000018300000000018300002000000010410407290325490000174773800729221009000017   1030000500030000   541120024703022205411200247ORANGE (SHWE PYI THAR) PTN           MMR11007290325490000170729000000000000000   10300001 00104100000000001098000000000000     
100   62911028202462200000000000004500000000004500002000000010410407290229440000364773800729221008000036   1030000500030000   591220012101014405912200121SHWE OHH PHARMACY      PTN           MMR11007290229440000360729000000000000000   10300001 00104100000000000270000000000000     
100   62911028202154800000000000108000000000108000002000000010410407290828490000974773800729221014000097   1030000500030000   598320001502000015172200015MAX ENERGY             PTN           MMR11007290828490000970729000000000000000   10300001 00104100000000003240000000000000     
100   62911028202169750000000000134150000000134150002000000010410407290523310000024773800729221011000002   1030000500030000   591220012801014405912200128SHWE OHH PHARMACY      PTN           MMR11007290523310000020729000000000000000   10300001 00104100000000008049000000000000     
100   95030385550669610000000000021592000000021592002000000010410407291214560000374773800729221018000037   1030000500030000   581220214501000085812202145CHILLI POT MALA XIANG  PTN           MMR11007291214560000370729000000000000000   10300001 00104100000000002202000000000000     
100   62911028202109290000000000011550000000011550002000000010410407290134040003754773800729221008000375   1030000500030000   541120232801000045411202328CITY EXPRESS (MCS - 34 PTN           MMR11007290134040003750729000000000000000   10300001 00104100000000000693000000000000     
100   62911028202318340000000000034000000000034000002000000010410407290021400000434773800729221006000043   1030000500030000   598320003802000015172200038MAX ENERGY             PTN           MMR11007290021400000430729000000000000000   10300001 00104100000000001020000000000000     
100   62911028202112400000000000023000000000023000002000000010410407290135010002434773800729221008000243   1030000500030000   598320001204000015172200012MAX ENERGY             PTN           MMR11007290135010002430729000000000000000   10300001 00104100000000000690000000000000     
100   62443100300743690000000000010779000000010779002000000010410407301008085134847571690730221117513484   1040001600030000   541120000558000000010000465Ocean Shwe Gone Daing  Yangon        MMR11007301008085134840730000000000000000   10300001F00104100000000002695000000000000     
100   95030301100319290000000000004950000000004950002000000010410407300737250725624773800730000007565230   1020000200030000   333400010001204104000000281Myanmar Soft-Gate Tech Yangon        MMR11007300737250725620730000000000000000   10300001F05104100000000001040000000000000     
100   95050315396509660000000000003500000000003500002000000010410407301335480548571713830730000007566524   1030000200030000   333800010001203104000003327KBZPay                 Yangon        MMR11007301335480548570730000000000000000   10300001F05104100000000000735000000000000     
100   95050312613888920000000000005000000000005000002000000010410407300350462046441653360730000007564308   1030000200030000   333800010001203104000003327KBZPay                 Yangon        MMR11007300350462046440730000000000000000   10300001F05104100000000001050000000000000     
100   95050317866508340000000000004000000000004000002000000010410407300950172017004096530730000007565744   1030000200030000   333800010001203104000003327KBZPay                 Yangon        MMR11007300950172017000730000000000000000   10300001F05104100000000000840000000000000     
100   95050323667276610000000000009900000000009900002000000010410407300556372637428809530730000007564827   1020000200030000   333400010001204104000000281Myanmar Soft-Gate Tech Yangon        MMR11007300556372637420730000000000000000   10300001F05104100000000002079000000000000     
100   95050315259054570000000000000990000000000990002000000010410407301558552855324047090730000007566986   1020000200030000   333400010001204104000000281Myanmar Soft-Gate Tech Yangon        MMR11007301558552855320730000000000000000   10300001F05104100000000000208000000000000     
100   62911028202416760000000000050000000000050000002000000010410407300547384964784773800730221112496478   1040001600030000   598320000854000000010000608Terminal Petrol Statio Yangon        MMR11007300547384964780730000000000000000   10300001F00104100000000001500000000000000     
