100   95050312139901420000000000097000000000097000002000000010410408010512044204088790620801000007573102   1030000200030000   333800010001203104000003327KBZPay                 Yangon        MMR11008010512044204080801000000000000000   10300001F05104100000000020370000000000000     
100   95050321455580800000000000050000000000050000002000000010410408010418594859901733330801000007572508   1030000200030000   333800010001203104000003327KBZPay                 Yangon        MMR11008010418594859900801000000000000000   10300001F05104100000000010500000000000000     
100   95050317284600370000000000040000000000040000002000000010410408011022105210340289240801000007575773   1030000200030000   333800010001203104000003327KBZPay                 Yangon        MMR11008011022105210340801000000000000000   10300001F05104100000000008400000000000000     
100   95050318712627500000000000000990000000000990002000000010410408010318344834186599970801000007571794   1020000200030000   333400010001204104000000281Myanmar Soft-Gate Tech Yangon        MMR11008010318344834180801000000000000000   10300001F05104100000000000208000000000000     
100   95050311182936420000000000004950000000004950002000000010410407312337380738289251750801000007570775   1020000200030000   333400010001204104000000281Myanmar Soft-Gate Tech Yangon        MMR11007312337380738280801000000000000000   10300001F05104100000000001040000000000000     
100   95050311718887830000000000300000000000300000002000000010410408010407183718576435500801000007572392   1030000200030000   333800010001203104000003327KBZPay                 Yangon        MMR11008010407183718570801000000000000000   10300001F05104100000000063000000000000000     
100   95050315448852350000000000170000000000170000002000000010410408011306263626293127350801000007576642   1030000200030000   333800010001203104000003327KBZPay                 Yangon        MMR11008011306263626290801000000000000000   10300001F05104100000000035700000000000000     
100   62443100330108240000000000003960000000003960002000000010410408011325245524365205320801000007576717   1020000200030000   333400010001204104000000281Myanmar Soft-Gate Tech Yangon        MMR11008011325245524360801000000000000000   10300001F05104100000000000832000000000000     
100   95030363090756500000000000040000000000040000002000000010410408011022596649424773800801221317664942   1040001600030000   598320000660000000010000529Shwe Taung Energy (NPT Naypyitaw     MMR11008011022596649420801000000000000000   10300001F00104100000000001200000000000000     
100   62911028202328810000000000039382000000039382002000000010410407310425130038884773800731221210003888   1030000500030000   541120226806000045411202268CITY MART WAIZAYANDA   PTN           MMR11007310425130038880731000000000000000   10300001 00104100000000002363000000000000     
100   95050322990383760000000000001000000000001000002000000010410407310934390005963182330731221216000596   1030000500030000   541120203712000015411202037CITY MART SUPERMARKET  PTN           MMR11007310934390005960731000000000000000   10300001 00104100000000000250000000000000     
100   95030301100022270000000000015000000000015000002000000010410407310627420004094773800731221212000409   1030000500030000   598320001303000015172200013MAX ENERGY             PTN           MMR11007310627420004090731000000000000000   10300001 00104100000000000450000000000000     
100   95050314946697790000000000020750000000020750002000000010410408011146157196663218170801734161815212   1030000900030000   541119001189190110000000942City Mart HDC C 4      YANGONUT      MMR11008011146157196660801000000000000000   10300001F00104100000000005188000000000000     
100   95050313145843230000000000030000000000030000002000000010410408010901163116318999000801000007575140   1030000200030000   333800010001203104000003327KBZPay                 Yangon        MMR11008010901163116310801000000000000000   10300001F05104100000000006300000000000000     
100   95050314805716580000000000048300000000048300002000000010410408011038337172462743240801277081733212   1030000900030000   541119001262190110000000958City Mart PLST C 5     YANGONMYOTHIT MMR11008011038337172460801000000000000000   10300001F00104100000000012075000000000000     
100   62911028202110420000000000026150000000026150002000000010410407311247020004864773800731221219000486   1030000500030000   541120009001004505499200090M MART                 PTN           MMR11007311247020004860731000000000000000   10300001 00104100000000001569000000000000     
100   95050324250133010000000000103000000000103000002000000010410408010114596347019918730801221308634701   1040001600030000   598320000838000000010000600Regency Petrol Station Ygn           MMR11008010114596347010801000000000000000   10300001F00104100000000012360000000000000     
100   95050312210363590000000000012500000000012500002000000010410408011546311631061389770801000007577306   1030000200030000   333800010001203104000003327KBZPay                 Yangon        MMR11008011546311631060801000000000000000   10300001F05104100000000002625000000000000     
100   62911028202809060000000000300000000000300000002000000010410408011503023302104773800801000007577164   1030000200030000   333800010001203104000003327KBZPay                 Yangon        MMR11008011503023302100801000000000000000   10300001F05104100000000063000000000000000     
100   95050313732480420000000000003960000000003960002000000010410408010423155315815450000801000007572571   1020000200030000   333400010001204104000000281Myanmar Soft-Gate Tech Yangon        MMR11008010423155315810801000000000000000   10300001F05104100000000000832000000000000     
100   95050310291835770000000000300000000000300000002000000010410408010343571357354321880801000007572121   1030000200030000   333800010001203104000003327KBZPay                 Yangon        MMR11008010343571357350801000000000000000   10300001F05104100000000063000000000000000     
100   95050327416134790000000000001980000000001980002000000010410408011244171417348169900801000007576565   1020000200030000   333400010001204104000000281Myanmar Soft-Gate Tech Yangon        MMR11008011244171417340801000000000000000   10300001F05104100000000000416000000000000     
100   95050315017843630000000000001980000000001980002000000010410408011400513051280077680801000007576888   1020000200030000   333400010001204104000000281Myanmar Soft-Gate Tech Yangon        MMR11008011400513051280801000000000000000   10300001F05104100000000000416000000000000     
100   62911028202169750000000000119350000000119350002000000010410408010620086507544773800801221313650754   1040001600030000   541120000555000000010000465Ocean Shwe Gone Daing  Yangon        MMR11008010620086507540801000000000000000   10300001F00104100000000007161000000000000     
100   62911028202117290000000000100000000000100000002000000010410408011425525552504773800801000007577007   1030000200030000   333800010001203104000003327KBZPay                 Yangon        MMR11008011425525552500801000000000000000   10300001F05104100000000021000000000000000     
100   95050326228858240000000000018375000000018375002000000010410407310724395819172076080731221214581917   1040001600030000   581420001162000000010000872Kin Sakura (Kyauk Kone ygn           MMR11007310724395819170731000000000000000   10300001F00104100000000002205000000000000     
100   95050310711432300000000000300000000000300000002000000010410408011013354335184360070801000007575720   1030000200030000   333800010001203104000003327KBZPay                 Yangon        MMR11008011013354335180801000000000000000   10300001F05104100000000063000000000000000     
100   62443100373945130000000000030000000000030000002000000010410407311159046024876663210731221218602487   1040001600030000   598320001062000000010000782Yangon Petrol (South/N Ygn           MMR11007311159046024870731000000000000000   10300001F00104100000000003600000000000000     
100   62443100389971990000000000060000000000060000002000000010410408010246161616226989800801000007571428   1030000200030000   333800010001203104000003327KBZPay                 Yangon        MMR11008010246161616220801000000000000000   10300001F05104100000000012600000000000000     
100   95050327192897240000000000000990000000000990002000000010410408010753302330710435020801000007574637   1020000200030000   333400010001204104000000281Myanmar Soft-Gate Tech Yangon        MMR11008010753302330710801000000000000000   10300001F05104100000000000208000000000000     
100   62443100393841160000000000300000000000300000002000000010410408010918244824922317760801000007575255   1030000200030000   333800010001203104000003327KBZPay                 Yangon        MMR11008010918244824920801000000000000000   10300001F05104100000000063000000000000000     
100   95030327835334700000000000004743000000004743002000000010410408011827540161944773800801000751170328   1030000200030000   541188001244000008000000323KBZ BANK               CITY MART - I MMR11008011827540161940801000000000000000   10300001 00104100000000000285000000000000     
100   95050311619387960000000000050000000000050000002000000010410408010644171417988885620801000007574035   1030000200030000   333800010001203104000003327KBZPay                 Yangon        MMR11008010644171417980801000000000000000   10300001F05104100000000010500000000000000     
100   95050319728246800000000000300000000000300000002000000010410408010448131813344393190801000007572854   1030000500030000   333800010001201104000003863AYA Pay                Yangon        MMR11008010448131813340801000000000000000   10300001F05104100000000063000000000000000     
100   95050311182936420000000000004950000000004950002000000010410407312339190919967599260801000007570777   1020000200030000   333400010001204104000000281Myanmar Soft-Gate Tech Yangon        MMR11007312339190919960801000000000000000   10300001F05104100000000001040000000000000     
100   62911028202809060000000000300000000000300000002000000010410408011503553355264773800801000007577172   1030000200030000   333800010001203104000003327KBZPay                 Yangon        MMR11008011503553355260801000000000000000   10300001F05104100000000063000000000000000     
100   95050316067768680000000000001980000000001980002000000010410408010208323832267379630801000007571192   1020000200030000   333400010001204104000000281Myanmar Soft-Gate Tech Yangon        MMR11008010208323832260801000000000000000   10300001F05104100000000000416000000000000     
100   95050317100052460000000000010000000000010000002000000010410408010421545154512059930801000007572535   1030000200030000   333800010001203104000003327KBZPay                 Yangon        MMR11008010421545154510801000000000000000   10300001F05104100000000002100000000000000     
100   95050318597867880000000000028000000000028000002000000010410408010924315431957530500801000007575297   1030000200030000   333800010001203104000003327KBZPay                 Yangon        MMR11008010924315431950801000000000000000   10300001F05104100000000005880000000000000     
100   95050314996291580000000000001980000000001980002000000010410408011348141814051730160801000007576830   1020000200030000   333400010001204104000000281Myanmar Soft-Gate Tech Yangon        MMR11008011348141814050801000000000000000   10300001F05104100000000000416000000000000     
100   95050319978637470000000000005000000000005000002000000010410408010618334833127960970801000007573780   1030000200030000   3338000100012031040000040022C2P (Myanmar) Co. Ltd Yangon        MMR11008010618334833120801000000000000000   10300001F05104100000000001050000000000000     
100   95030385550669610000000000020000000000020000002000000010410407310742570001384773800731221214000138   1030000500030000   581220041801000055812200418SHWE LAR HOT POT       PTN           MMR11007310742570001380731000000000000000   10300001 00104100000000002040000000000000     
100   95050311419479170000000000004950000000004950002000000010410407311926515651893698620801000007570688   1020000200030000   333400010001204104000000281Myanmar Soft-Gate Tech Yangon        MMR11007311926515651890801000000000000000   10300001F05104100000000001040000000000000     
100   62443100301716860000000000000990000000000990002000000010410408011146001600918175620801000007576303   1020000200030000   333400010001204104000000281Myanmar Soft-Gate Tech Yangon        MMR11008011146001600910801000000000000000   10300001F05104100000000000208000000000000     
100   95050318511918960000000000050400000000050400002000000010410408011037290729651431140801000007575900   1030000200030000   333800010001203104000003327KBZPay                 Yangon        MMR11008011037290729650801000000000000000   10300001F05104100000000010584000000000000     
100   95030301100103940000000000011000000000011000002000000010410407310713350002284773800731221213000228   1030000500030000   573220039701000015732200397REMAX                  PTN           MMR11007310713350002280731000000000000000   10300001 00104100000000000660000000000000     
100   62911028202156540000000000029700000000029700002000000010410408010506166463034773800801221312646303   1040001600030000   591220000258000000010000246Shwe Ohh Pharmacy (Sin Yangon        MMR11008010506166463030801000000000000000   10300001F00104100000000001782000000000000     
100   95050315487243490000000000300000000000300000002000000010410408010543521352125976210801000007573475   1030000200030000   3338000100012031040000040022C2P (Myanmar) Co. Ltd Yangon        MMR11008010543521352120801000000000000000   10300001F05104100000000063000000000000000     
100   95050316786253730000000000030000000000030000002000000010410408011047301730452913440801000007575982   1030000200030000   333800010001203104000003327KBZPay                 Yangon        MMR11008011047301730450801000000000000000   10300001F05104100000000006300000000000000     
100   95050319938772870000000000002000000000002000002000000010410408010451362136196471150801000007572896   1030000200030000   333800010001203104000003327KBZPay                 Yangon        MMR11008010451362136190801000000000000000   10300001F05104100000000000420000000000000     
100   95050313923133060000000000056000000000056000002000000010410408010550502050557606830801000007573531   1030000200030000   333800010001203104000003327KBZPay                 Yangon        MMR11008010550502050550801000000000000000   10300001F05104100000000011760000000000000     
100   62911028202369990000000000300000000000300000002000000010410408011506013601954773800801000007577178   1030000200030000   333800010001203104000003327KBZPay                 Yangon        MMR11008011506013601950801000000000000000   10300001F05104100000000063000000000000000     
100   95050315017843630000000000001980000000001980002000000010410408011404213421055035130801000007576903   1020000200030000   333400010001204104000000281Myanmar Soft-Gate Tech Yangon        MMR11008011404213421050801000000000000000   10300001F05104100000000000416000000000000     
100   95050319938772870000000000021000000000021000002000000010410408010409523952747832690801000007572419   1030000200030000   333800010001203104000003327KBZPay                 Yangon        MMR11008010409523952740801000000000000000   10300001F05104100000000004410000000000000     
100   95030346645639490000000000005600000000005600002000000010410408010305246406244773800801221310640624   1040001600030000   591220000258000000010000246Shwe Ohh Pharmacy (Sin Yangon        MMR11008010305246406240801000000000000000   10300001F00104100000000000336000000000000     
100   95050315424817550000000000000990000000000990002000000010410408010225135513223017860801000007571318   1020000200030000   333400010001204104000000281Myanmar Soft-Gate Tech Yangon        MMR11008010225135513220801000000000000000   10300001F05104100000000000208000000000000     
100   95050315110306410000000000005000000000005000002000000010410408011302243224706432330801000007576631   1030000200030000   333800010001203104000003327KBZPay                 Yangon        MMR11008011302243224700801000000000000000   10300001F05104100000000001050000000000000     
100   95050310794962000000000000005000000000005000002000000010410408010648181818897963340801000007574072   1030000200030000   3338000100012031040000040022C2P (Myanmar) Co. Ltd Yangon        MMR11008010648181818890801000000000000000   10300001F05104100000000001050000000000000     
100   95050314117051850000000000020000000000020000002000000010410408010751202120549924450801000007574629   1030000200030000   3338000100012031040000040022C2P (Myanmar) Co. Ltd Yangon        MMR11008010751202120540801000000000000000   10300001F05104100000000004200000000000000     
100   95050311959900780000000000002970000000002970002000000010410408011045381538548041080801000007575976   1020000200030000   333400010001204104000000281Myanmar Soft-Gate Tech Yangon        MMR11008011045381538540801000000000000000   10300001F05104100000000000624000000000000     
100   95050313970192050000000000014400000000014400002000000010410407310938390003876487300731221216000387   1030000500030000   541120232801000045411202328CITY EXPRESS (MCS - 34 PTN           MMR11007310938390003870731000000000000000   10300001 00104100000000003600000000000000     
100   95050318242219520000000000000990000000000990002000000010410408011129265926201820970801000007576225   1020000200030000   333400010001204104000000281Myanmar Soft-Gate Tech Yangon        MMR11008011129265926200801000000000000000   10300001F05104100000000000208000000000000     
100   62443100306416880000000000024900000000024900002000000010410407310729020000963898760731221213000096   1030000500030000   569120074901009305691200749MK FASHION SHOP        PTN           MMR11007310729020000960731000000000000000   10300001 00104100000000005976000000000000     
100   95050315396509660000000000003000000000003000002000000010410408010516184618000783490801000007573142   1030000200030000   333800010001203104000003327KBZPay                 Yangon        MMR11008010516184618000801000000000000000   10300001F05104100000000000630000000000000     
100   95050318712627500000000000000990000000000990002000000010410408010327385738463975780801000007571926   1020000200030000   333400010001204104000000281Myanmar Soft-Gate Tech Yangon        MMR11008010327385738460801000000000000000   10300001F05104100000000000208000000000000     
100   95050313052602140000000000050000000000050000002000000010410408011528375837544354360801000007577245   1030000200030000   333800010001203104000003327KBZPay                 Yangon        MMR11008011528375837540801000000000000000   10300001F05104100000000010500000000000000     
100   95050315557781210000000000200000000000200000002000000010410408010446411641057698150801000007572834   1030000200030000   333800010001203104000003327KBZPay                 Yangon        MMR11008010446411641050801000000000000000   10300001F05104100000000042000000000000000     
100   62443100372718280000000000038257000000038257002000000010410408011133136721047920330801221318672104   1040001600030000   598320000658000000010000527Shwe Taung Energy (YGN Yangon        MMR11008011133136721040801000000000000000   10300001F00104100000000004591000000000000     
100   95030308100042590000000000011500000000011500002000000010410408010536527081464773800801711061252212   1030000900030000   541119001230190110000000947City Mart TM City Care YANGONONE     MMR11008010536527081460801000000000000000   10300001F00104100000000000690000000000000     
100   62443100373945130000000000028874000000028874002000000010410408010702427104378151210801812321342212   1030000900030000   581219000981190110000000788Jo Jo Hot Pot (KTY)    YANGONARTAUNG MMR11008010702427104370801000000000000000   10300001F00104100000000012272000000000000     
100   95050327456215690000000000268400000000268400002000000010410408010731447111595441920801128011444212   1030000900030000   581219000368190110000000241Beauty In The Pot (PHS YANGON        MMR11008010731447111590801000000000000000   10300001F00104100000000114070000000000000     
100   62911028202472440000000000036000000000036000002000000010410408010835186575534773800801221315657553   1040001600030000   598320000658000000010000527Shwe Taung Energy (YGN Yangon        MMR11008010835186575530801000000000000000   10300001F00104100000000001080000000000000     
100   95050317176867660000000000001980000000001980002000000010410408011602013201113042260801000007577360   1020000200030000   333400010001204104000000281Myanmar Soft-Gate Tech Yangon        MMR11008011602013201110801000000000000000   10300001F05104100000000000416000000000000     
100   62911028202313470000000000025622000000025622002000000010410407310735430032344773800731221214003234   1030000500030000   541120227604000045411202276CITY MART ( 47 BRANCH  PTN           MMR11007310735430032340731000000000000000   10300001 00104100000000001537000000000000     
100   95050322990383760000000000020850000000020850002000000010410407310948150028108224880731221216002810   1030000500030000   541120203706000015411202037CITY MART SUPERMARKET  PTN           MMR11007310948150028100731000000000000000   10300001 00104100000000005213000000000000     
100   62911028202031710000000000055150000000055150002000000010410407310540580028884773800731221212002888   1030000500030000   541120226204000045411202262CITY MART ZAWANA       PTN           MMR11007310540580028880731000000000000000   10300001 00104100000000003309000000000000     
100   62443100360763680000000000213300000000213300002000000010410407310454290035130097000731221211003513   1030000500030000   531120226308000045311202263OCEAN SUPER CENTER STJ PTN           MMR11007310454290035130731000000000000000   10300001 00104100000000051192000000000000     
100   62911028202506770000000000012100000000012100002000000010410407311014010026154773800731221216002615   1030000500030000   541120227504000045411202275CITY MART (AHLONE BRAN PTN           MMR11007311014010026150731000000000000000   10300001 00104100000000000726000000000000     
100   62443100381661260000000000028050000000028050002000000010410407311142150025585175200731221218002558   1030000500030000   541120226202000045411202262CITY MART ZAWANA       PTN           MMR11007311142150025580731000000000000000   10300001 00104100000000007013000000000000     
100   95030305700676370000000000061100000000061100002000000010410407310111060018314773800731000358446673   1030000300030000   598300001209000000000000817CB BANK                SHWE TAUNG EN MMR11007310111060018310731000000000000000   10300001F00104100000000001833000000000000     
100   62911028202541250000000000028350000000028350002000000010410408011101236687254773800801221318668725   1040001600030000   541120000571000000010000465Ocean Shwe Gone Daing  Yangon        MMR11008011101236687250801000000000000000   10300001F00104100000000001701000000000000     
100   62911028202142930000000000056700000000056700002000000010410408011054016679544773800801221317667954   1040001600030000   541120000573000000010000465Ocean Shwe Gone Daing  Yangon        MMR11008011054016679540801000000000000000   10300001F00104100000000003402000000000000     
100   95030308100042590000000000002800000000002800002000000010410408010539047082004773800801734091204212   1030000900030000   541119001229190110000000946City Mart TM Season C  YANGONONE     MMR11008010539047082000801000000000000000   10300001F00104100000000000168000000000000     
100   95030379578686440000000000058350000000058350002000000010410408010409577058404773800801606391057212   1030000900030000   541119001187190110000000942City Mart HDC C 2      YANGONUT      MMR11008010409577058400801000000000000000   10300001F00104100000000003501000000000000     
100   62911028202031710000000000030000000000030000002000000010410408010812407122204773800801608421440212   1030000900030000   554119000348190110000000215New Day Energy MYG     YANGONONE     MMR11008010812407122200801000000000000000   10300001F00104100000000000900000000000000     
100   95030351849812630000000000016575000000016575002000000010410408011002527157964773800801456321652212   1030000900030000   541119001462190110000000077Sein Gay Har Chinatown YANGON        MMR11008011002527157960801000000000000000   10300001F00104100000000000995000000000000     
100   62911028202473840000000001006000000001006000002000000010410408010655147102374773800801716251314212   1030000900030000   806219001119190110000000900Shwe La Min Hospital L YANGONAW      MMR11008010655147102370801000000000000000   10300001F00104100000000060360000000000000     
100   95050314557307430000000000009950000000009950002000000010410408011102216688230679060801221318668823   1040001600030000   541120000571000000010000465Ocean Shwe Gone Daing  Yangon        MMR11008011102216688230801000000000000000   10300001F00104100000000002488000000000000     
100   95050327285327260000000000044800000000044800002000000010410407311124060050603778010731000358531628   1030000300030000   531100000540000000000000376CB BANK                CAPITAL HYPER MMR11007311124060050600731000000000000000   10300001F00104100000000010752000000000000     
100   62443101065883000000000000028001000000028001002000000010410407310800010026032841950731221214002603   1030000500030000   541120227504000045411202275CITY MART (AHLONE BRAN PTN           MMR11007310800010026030731000000000000000   10300001 00104100000000007001000000000000     
100   62911028202792960000000000015850000000015850002000000010410407311156290032444773800731221218003244   1030000500030000   541120227604000045411202276CITY MART ( 47 BRANCH  PTN           MMR11007311156290032440731000000000000000   10300001 00104100000000000951000000000000     
100   62911028202451150000000000110195000000110195002000000010410407310858430013654773800731221215001365   1030000500030000   541120229001000045411202290CITY MART SUPERMARKET  PTN           MMR11007310858430013650731000000000000000   10300001 00104100000000006612000000000000     
100   62911028202506770000000000005200000000005200002000000010410407311006380014914773800731221216001491   1030000500030000   541120227507000045411202275CITY MART (AHLONE BRAN PTN           MMR11007311006380014910731000000000000000   10300001 00104100000000000312000000000000     
100   62911028202693960000000000150000000000150000002000000010410407300531530000734773800730221112000073   1030000500030000   541120129713000045411201297MAKRO MYANMAR          PTN           MMR11007300531530000730730000000000000000   10300001 00104100000000009000000000000000     
100   95050328212196190000000000161223000000161223002000000010410408010632207095749311120801396021320212   1030000900030000   541119001280190110000000963City Mart SPL C 5      YANGONMYOTHIT MMR11008010632207095740801000000000000000   10300001F00104100000000040306000000000000     
100   95050313123223200000000000007700000000007700002000000010410408010740157113695598330801214101415212   1030000900030000   541119000124190110000000080Sein Gay Har BAK       YANGONADA     MMR11008010740157113690801000000000000000   10300001F00104100000000001925000000000000     
100   62911028202318340000000000045000000000045000002000000010410408010911347140294773800801516411534212   1030000900030000   569119001496190110000001090Next Generation GCS JC YANGONN       MMR11008010911347140290801000000000000000   10300001F00104100000000002700000000000000     
100   62443100343196790000000000800000000000800000002000000010410408010948110000414941960801000751162325   1030000200030000   504688002448000008000006515KBZ BANK               MARY HEAD OFF MMR11008010948110000410801000000000000000   10300001 00104100000000192000000000000000     
100   62443101037081820000000000110900000000110900002000000010410407311422386141728656080731221221614172   1040001600030000   581420000076000000010000074Hot Pot City Ahlone    Yangon        MMR11007311422386141720731000000000000000   10300001F00104100000000013308000000000000     
100   95030301100121270000000000030000000000030000002000000010410407311102075972834773800731221218597283   1040001600030000   598320000917000000010000665MMTM - Thingangyun     Ygn           MMR11007311102075972830731000000000000000   10300001F00104100000000000900000000000000     
100   95050328570548980000000000020000000000020000002000000010410407281256100371489217400728220912037148   1030000600030000   554100002085315799420000471DENKO BAHAN            YANGON        MMR11007281256100371480728000000000000000   10300001 00104100000000002400000000000000     
100   95050310346399930000000000228000000000228000002000000010410408011019590006915416880801000751164522   1030000200030000   594488000253000008000002280KBZ BANK               PWINT HTUN GO MMR11008011019590006910801000000000000000   10300001 00104100000000054720000000000000     
100   62443101001072630000000000035000000000035000002000000010410407290701390328427099530729221007032842   1030000600030000   554100000725315799420000306DENKO MDY - 78         MANDALAY      MMR11007290701390328420729000000000000000   10300001 00104100000000004200000000000000     
100   95050324154190880000000000025000000000025000002000000010410407291026041020276583240729221010102027   1030000600030000   554100000946315799420000471DENKO BAHAN            YANGON        MMR11007291026041020270729000000000000000   10300001 00104100000000003000000000000000     
100   62911028202217690000000000005000000000005000002000000010410408010601203120244773800801000007573620   1030000200030000   333800010001203104000003327KBZPay                 Yangon        MMR11008010601203120240801000000000000000   10300001F05104100000000001050000000000000     
100   95050314996291580000000000003000000000003000002000000010410408011402233223248340090801000007576890   1030000200030000   3338000100012031040000040022C2P (Myanmar) Co. Ltd Yangon        MMR11008011402233223240801000000000000000   10300001F05104100000000000630000000000000     
100   95050316717221100000000000001980000000001980002000000010410408011015534553630884910801000007575741   1020000200030000   333400010001204104000000281Myanmar Soft-Gate Tech Yangon        MMR11008011015534553630801000000000000000   10300001F05104100000000000416000000000000     
100   95050317100052460000000000030000000000030000002000000010410408010411114111654527720801000007572434   1030000200030000   333800010001203104000003327KBZPay                 Yangon        MMR11008010411114111650801000000000000000   10300001F05104100000000006300000000000000     
100   95050314401921990000000000010000000000010000002000000010410408011011124112526097660801000007575696   1030000200030000   333800010001203104000003327KBZPay                 Yangon        MMR11008011011124112520801000000000000000   10300001F05104100000000002100000000000000     
100   62443100393841160000000000200000000000200000002000000010410408010921565156787190120801000007575284   1030000200030000   333800010001203104000003327KBZPay                 Yangon        MMR11008010921565156780801000000000000000   10300001F05104100000000042000000000000000     
100   95050313702988830000000000002970000000002970002000000010410408011230050005883212460801000007576487   1020000200030000   333400010001204104000000281Myanmar Soft-Gate Tech Yangon        MMR11008011230050005880801000000000000000   10300001F05104100000000000624000000000000     
100   95050315144447320000000000005000000000005000002000000010410408010648080003468388800801000751144827   1030000200030000   541188002338000008000006213KBZ BANK               BEAR MART-1   MMR11008010648080003460801000000000000000   10300001 00104100000000001250000000000000     
100   95050310427855490000000000000990000000000990002000000010410408011615174517108084810801000007577388   1020000200030000   333400010001204104000000281Myanmar Soft-Gate Tech Yangon        MMR11008011615174517100801000000000000000   10300001F05104100000000000208000000000000     
100   62911028202809060000000000100000000000100000002000000010410408011505373537684773800801000007577181   1030000200030000   333800010001203104000003327KBZPay                 Yangon        MMR11008011505373537680801000000000000000   10300001F05104100000000021000000000000000     
100   95050323576695670000000000043000000000043000002000000010410407310628520001776877130731000358488704   1030000300030000   701100002526000000000001719CB BANK                360 INTERNATI MMR11007310628520001770731000000000000000   10300001F00104100000000018275000000000000     
100   62911028202313470000000000046000000000046000002000000010410407310522130000404773800731221211000040   1030000500030000   806220046403006308062200464ASIA ROYAL HOSPITAL    PTN           MMR11007310522130000400731000000000000000   10300001 00104100000000002760000000000000     
100   95030346179196360000000000325300000000325300002000000010410407311005560001154773800731221216000115   1030000500030000   599520213801000085995202138NPT PET MART GROUP     PTN           MMR11007311005560001150731000000000000000   10300001 00104100000000019518000000000000     
100   95050322990383760000000000002950000000002950002000000010410407310958080006733352530731221216000673   1030000500030000   541120203701000015411202037CITY MART SUPERMARKET  PTN           MMR11007310958080006730731000000000000000   10300001 00104100000000000738000000000000     
100   62443100330108240000000000000990000000000990002000000010410408011327215721286857810801000007576728   1020000200030000   333400010001204104000000281Myanmar Soft-Gate Tech Yangon        MMR11008011327215721280801000000000000000   10300001F05104100000000000208000000000000     
100   95050316653112190000000000017000000000017000002000000010410408010925595559410835470801000007575316   1030000200030000   333800010001203104000003327KBZPay                 Yangon        MMR11008010925595559410801000000000000000   10300001F05104100000000003570000000000000     
100   95050329698388160000000000300000000000300000002000000010410408011142551255424445170801000007576288   1030000200030000   333800010001203104000003327KBZPay                 Yangon        MMR11008011142551255420801000000000000000   10300001F05104100000000063000000000000000     
100   95050312781844250000000000001000000000001000002000000010410408010453362336618450230801000007572924   1030000200030000   3334000100012031040000040102C2P (Myanmar) Co. Ltd Yangon        MMR11008010453362336610801000000000000000   10300001F05104100000000000210000000000000     
100   95030306100096490000000000000990000000000990002000000010410408010453202320254773800801000007572925   1020000200030000   333400010001204104000000281Myanmar Soft-Gate Tech Yangon        MMR11008010453202320250801000000000000000   10300001F05104100000000000208000000000000     
100   95050326155679180000000000005940000000005940002000000010410408010458492849234889970801000007572978   1020000200030000   333400010001204104000000281Myanmar Soft-Gate Tech Yangon        MMR11008010458492849230801000000000000000   10300001F05104100000000001247000000000000     
100   95050310332595380000000000002970000000002970002000000010410408011508493849497659330801000007577197   1020000200030000   333400010001204104000000281Myanmar Soft-Gate Tech Yangon        MMR11008011508493849490801000000000000000   10300001F05104100000000000624000000000000     
100   95050323233042810000000000000990000000000990002000000010410408011212304230776602520801000007576426   1020000200030000   333400010001204104000000281Myanmar Soft-Gate Tech Yangon        MMR11008011212304230770801000000000000000   10300001F05104100000000000208000000000000     
100   62911028202222620000000000272500000000272500002000000010410407310446430000544773800731221211000054   1030000500030000   591220211101014405912202111SHWE OHH PHARMACY      PTN           MMR11007310446430000540731000000000000000   10300001 00104100000000016350000000000000     
100   95050319695392670000000000007700000000007700002000000010410407310903030006804239140731000358510986   1030000300030000   531100000602000000000000408CB BANK                CAPITAL HYPER MMR11007310903030006800731000000000000000   10300001F00104100000000001848000000000000     
100   95050311091346230000000000009950000000009950002000000010410407310502190001975139550731221211000197   1030000500030000   531120155802000045311201558GAMONE PWINT           PTN           MMR11007310502190001970731000000000000000   10300001 00104100000000002388000000000000     
100   62911028202506770000000000025600000000025600002000000010410407311039560012704773800731221217001270   1030000500030000   541120227505000045411202275CITY MART (AHLONE BRAN PTN           MMR11007311039560012700731000000000000000   10300001 00104100000000001536000000000000     
100   62911028202197630000000000014000000000014000002000000010410407310634120003304773800731221213000330   1030000500030000   598320001904000015172200019MAX ENERGY             PTN           MMR11007310634120003300731000000000000000   10300001 00104100000000000420000000000000     
100   62443100371022130000000000024407000000024407002000000010410407311211110004531705750731221218000453   1030000500030000   598320001302000015172200013MAX ENERGY             PTN           MMR11007311211110004530731000000000000000   10300001 00104100000000002929000000000000     
100   95050326094581320000000000034050000000034050002000000010410407311323070002285606400731221219000228   1030000500030000   541120020601022205411200206ORANGE (NOKL)          PTN           MMR11007311323070002280731000000000000000   10300001 00104100000000008513000000000000     
100   62443100330048680000000000040000000000040000002000000010410407310808010003306146910731221214000330   1030000500030000   598320001101000015172200011MAX ENERGY             PTN           MMR11007310808010003300731000000000000000   10300001 00104100000000004800000000000000     
100   95050312240830690000000000008910000000008910002000000010410408011120265026615296140801000007576180   1020000200030000   333400010001204104000000281Myanmar Soft-Gate Tech Yangon        MMR11008011120265026610801000000000000000   10300001F05104100000000001871000000000000     
100   95050316818236190000000000001980000000001980002000000010410408011444351435131134490801000007577084   1020000200030000   333400010001204104000000281Myanmar Soft-Gate Tech Yangon        MMR11008011444351435130801000000000000000   10300001F05104100000000000416000000000000     
100   95050315743141220000000000051000000000051000002000000010410408010801583158668708060801000007574710   1030000200030000   333800010001203104000003327KBZPay                 Yangon        MMR11008010801583158660801000000000000000   10300001F05104100000000010710000000000000     
100   95050312781844250000000000270000000000270000002000000010410408010211144114902507280801000007571215   1040001600030000   333800010001220104000004507A +                    Yangon        MMR11008010211144114900801000000000000000   10300001F05104100000000056700000000000000     
100   95050322104201170000000000065000000000065000002000000010410408010116404640960003830801000007571010   1030000200030000   333800010001203104000003327KBZPay                 Yangon        MMR11008010116404640960801000000000000000   10300001F05104100000000013650000000000000     
100   95050312728902740000000000053000000000053000002000000010410408011020475047993679300801000007575762   1030000200030000   333800010001203104000003327KBZPay                 Yangon        MMR11008011020475047990801000000000000000   10300001F05104100000000011130000000000000     
100   95050315919368400000000000000990000000000990002000000010410408010222005200087975310801000007571292   1020000200030000   333400010001204104000000281Myanmar Soft-Gate Tech Yangon        MMR11008010222005200080801000000000000000   10300001F05104100000000000208000000000000     
100   95050315017843630000000000000990000000000990002000000010410408011225145514191645060801000007576467   1020000200030000   333400010001204104000000281Myanmar Soft-Gate Tech Yangon        MMR11008011225145514190801000000000000000   10300001F05104100000000000208000000000000     
100   62911028202193670000000000036000000000036000002000000010410407311011590004004773800731221216000400   1030000500030000   598320001604000015172200016MAX ENERGY             PTN           MMR11007311011590004000731000000000000000   10300001 00104100000000001080000000000000     
100   95030301100216560000000000002150000000002150002000000010410407310958500011244773800731000358519188   1030000300030000   541100000959000000000000683CB BANK                ONE STOP KITC MMR11007310958500011240731000000000000000   10300001F00104100000000000129000000000000     
100   95050311091346230000000000039000000000039000002000000010410407310447550000601749480731221211000060   1030000500030000   531120155801000045311201558GAMONE PWINT           PTN           MMR11007310447550000600731000000000000000   10300001 00104100000000009360000000000000     
100   62443101037081820000000000071920000000071920002000000010410407310846120001165806530731221215000116   1030000500030000   569120096201019505691200962MK FASHION SHOP        PTN           MMR11007310846120001160731000000000000000   10300001 00104100000000017261000000000000     
100   95030301100086460000000000150000000000150000002000000010410407310836300002024773800731221215000202   1030000500030000   541120129720000045411201297MAKRO MYANMAR          PTN           MMR11007310836300002020731000000000000000   10300001 00104100000000009000000000000000     
100   62911028202492990000000000064000000000064000002000000010410407310234430003574773800731221209000357   1030000500030000   598320001601000015172200016MAX ENERGY             PTN           MMR11007310234430003570731000000000000000   10300001 00104100000000001920000000000000     
100   62911028202442250000000000027000000000027000002000000010410407310350150005074773800731221210000507   1030000500030000   598320001204000015172200012MAX ENERGY             PTN           MMR11007310350150005070731000000000000000   10300001 00104100000000000810000000000000     
100   95030302131871490000000000012050000000012050002000000010410407310829230001264773800731221214000126   1030000500030000   531120226330000045311202263OCEAN SUPER CENTER STJ PTN           MMR11007310829230001260731000000000000000   10300001 00104100000000000723000000000000     
100   95050313702988830000000000002970000000002970002000000010410408011227435743993297550801000007576477   1020000200030000   333400010001204104000000281Myanmar Soft-Gate Tech Yangon        MMR11008011227435743990801000000000000000   10300001F05104100000000000624000000000000     
100   95050312498129060000000000000990000000000990002000000010410408011228425842271559970801000007576482   1020000200030000   333400010001204104000000281Myanmar Soft-Gate Tech Yangon        MMR11008011228425842270801000000000000000   10300001F05104100000000000208000000000000     
100   95050319604564870000000000030000000000030000002000000010410408011045171517992658150801000007575968   1030000200030000   333800010001203104000003327KBZPay                 Yangon        MMR11008011045171517990801000000000000000   10300001F05104100000000006300000000000000     
100   95050311184380560000000000002970000000002970002000000010410408010749031903868442150801000007574607   1020000200030000   333400010001204104000000281Myanmar Soft-Gate Tech Yangon        MMR11008010749031903860801000000000000000   10300001F05104100000000000624000000000000     
100   95050311184380560000000000002970000000002970002000000010410408010753392339695392480801000007574646   1020000200030000   333400010001204104000000281Myanmar Soft-Gate Tech Yangon        MMR11008010753392339690801000000000000000   10300001F05104100000000000624000000000000     
100   62911028202809060000000000300000000000300000002000000010410408011504473447524773800801000007577176   1030000200030000   333800010001203104000003327KBZPay                 Yangon        MMR11008011504473447520801000000000000000   10300001F05104100000000063000000000000000     
100   95050314401921990000000000002970000000002970002000000010410408010227215721651024980801000007571333   1020000200030000   333400010001204104000000281Myanmar Soft-Gate Tech Yangon        MMR11008010227215721650801000000000000000   10300001F05104100000000000624000000000000     
100   62911028202525330000000000019500000000019500002000000010410408010754116554144773800801221314655414   1040001600030000   591220000269000000010000257Shwe Ohh Pharmacy (Tam Yangon        MMR11008010754116554140801000000000000000   10300001F00104100000000001170000000000000     
100   95050324247403260000000000050000000000050000002000000010410407310429000004553316870731221210000455   1030000500030000   598320001403000015172200014MAX ENERGY             PTN           MMR11007310429000004550731000000000000000   10300001 00104100000000006000000000000000     
100   62911028202400660000000000150000000000150000002000000010410407310604070000114773800731221212000011   1030000500030000   541120129717000045411201297MAKRO MYANMAR          PTN           MMR11007310604070000110731000000000000000   10300001 00104100000000009000000000000000     
100   62443101037081820000000000079400000000079400002000000010410407311059430001103607820731000358528077   1030000300030000   541100002356000000000000102CB BANK                MAKRO MYANMAR MMR11007311059430001100731000000000000000   10300001F00104100000000019850000000000000     
100   95030394609966640000000000003600000000003600002000000010410407310805220002494773800731221214000249   1030000500030000   541120020902022205411200209ORANGE (HLAING)        PTN           MMR11007310805220002490731000000000000000   10300001 00104100000000000216000000000000     
100   62911028202115960000000000144450000000144450002000000010410407310707520000424773800731221213000042   1030000500030000   591220013801014405912200138SHWE OHH PHARMACY      PTN           MMR11007310707520000420731000000000000000   10300001 00104100000000008667000000000000     
100   62911028202214130000000000048500000000048500002000000010410407310302430004494773800731221209000449   1030000500030000   598320001203000015172200012MAX ENERGY             PTN           MMR11007310302430004490731000000000000000   10300001 00104100000000001455000000000000     
100   62911028202610540000000000008950000000008950002000000010410407310726520004804773800731221213000480   1030000500030000   531120226309000045311202263OCEAN SUPER CENTER STJ PTN           MMR11007310726520004800731000000000000000   10300001 00104100000000000537000000000000     
100   62911028202461130000000000027550000000027550002000000010410407310717410006554773800731221213000655   1030000500030000   541120203703000015411202037CITY MART SUPERMARKET  PTN           MMR11007310717410006550731000000000000000   10300001 00104100000000001653000000000000     
100   95050327416134790000000000004950000000004950002000000010410408011247051705189822390801000007576575   1020000200030000   333400010001204104000000281Myanmar Soft-Gate Tech Yangon        MMR11008011247051705180801000000000000000   10300001F05104100000000001040000000000000     
100   95050315150726490000000000001980000000001980002000000010410408011247051705494864930801000007576573   1020000200030000   333400010001204104000000281Myanmar Soft-Gate Tech Yangon        MMR11008011247051705490801000000000000000   10300001F05104100000000000416000000000000     
100   95050317685093130000000000030000000000030000002000000010410408010650592059405764640801000007574100   1030000200030000   333800010001203104000003327KBZPay                 Yangon        MMR11008010650592059400801000000000000000   10300001F05104100000000006300000000000000     
100   95050316377977350000000000003000000000003000002000000010410408011353402340648425190801000007576857   1030000200030000   3338000100012031040000040022C2P (Myanmar) Co. Ltd Yangon        MMR11008011353402340640801000000000000000   10300001F05104100000000000630000000000000     
100   95050315017843630000000000001980000000001980002000000010410408011402393239259992580801000007576894   1020000200030000   333400010001204104000000281Myanmar Soft-Gate Tech Yangon        MMR11008011402393239250801000000000000000   10300001F05104100000000000416000000000000     
100   95050317876216360000000000004950000000004950002000000010410408011012324232467750130801000007575718   1020000200030000   333400010001204104000000281Myanmar Soft-Gate Tech Yangon        MMR11008011012324232460801000000000000000   10300001F05104100000000001040000000000000     
100   95050315259054570000000000010000000000010000002000000010410408010212584258170514410801000007571228   1030000200030000   333800010001203104000003327KBZPay                 Yangon        MMR11008010212584258170801000000000000000   10300001F05104100000000002100000000000000     
100   95050316785465380000000000000990000000000990002000000010410408011122565256111906070801000007576188   1020000200030000   333400010001204104000000281Myanmar Soft-Gate Tech Yangon        MMR11008011122565256110801000000000000000   10300001F05104100000000000208000000000000     
100   95050310739614720000000000150300000000150300002000000010410407310450050076478444520731000358474371   1030000300030000   806200000197000000000000097CB BANK                AUNG YADANA H MMR11007310450050076470731000000000000000   10300001F00104100000000036072000000000000     
100   95050316717221100000000000004172000000004172002000000010410407310215190043620558140731000358453923   1030000300030000   591200000215000000000000112CB BANK                MEDICARE STOR MMR11007310215190043620731000000000000000   10300001F00104100000000001001000000000000     
100   95030394609966640000000000001700000000001700002000000010410408011128270127534773800801000751131709   1030000200030000   541188001033000008000000298KBZ BANK               CITY MART - M MMR11008011128270127530801000000000000000   10300001 00104100000000000102000000000000     
100   95050319709462380000000000005000000000005000002000000010410408011432400240614524550801000007577031   1030000200030000   3338000100012031040000040022C2P (Myanmar) Co. Ltd Yangon        MMR11008011432400240610801000000000000000   10300001F05104100000000001050000000000000     
100   95050313411345710000000000002970000000002970002000000010410408011030230023417239560801000007575849   1020000200030000   333400010001204104000000281Myanmar Soft-Gate Tech Yangon        MMR11008011030230023410801000000000000000   10300001F05104100000000000624000000000000     
100   62911028202204070000000000096300000000096300002000000010410408011104010095324773800801000751128517   1030000200030000   541188001071000008000000314KBZ BANK               MARKETPLACE - MMR11008011104010095320801000000000000000   10300001 00104100000000005778000000000000     
100   95030306100096490000000000004950000000004950002000000010410408011435310531524773800801000007577048   1020000200030000   333400010001204104000000281Myanmar Soft-Gate Tech Yangon        MMR11008011435310531520801000000000000000   10300001F05104100000000001040000000000000     
100   95050314996291580000000000003000000000003000002000000010410408011338510851426772710801000007576783   1030000200030000   3338000100012031040000040022C2P (Myanmar) Co. Ltd Yangon        MMR11008011338510851420801000000000000000   10300001F05104100000000000630000000000000     
100   95050314979630620000000000000990000000000990002000000010410408011441131113994439450801000007577071   1020000200030000   333400010001204104000000281Myanmar Soft-Gate Tech Yangon        MMR11008011441131113990801000000000000000   10300001F05104100000000000208000000000000     
100   95050316272163320000000000020100000000020100002000000010410408010647341734655267870801000007574068   1030000200030000   333800010001203104000003327KBZPay                 Yangon        MMR11008010647341734650801000000000000000   10300001F05104100000000004221000000000000     
100   95050318741700180000000000000990000000000990002000000010410408010245291529388642290801000007571421   1020000200030000   333400010001204104000000281Myanmar Soft-Gate Tech Yangon        MMR11008010245291529380801000000000000000   10300001F05104100000000000208000000000000     
100   95030301100128610000000000200000000000200000002000000010410408010252092209364773800801000007571473   1030000200030000   333800010001203104000003327KBZPay                 Yangon        MMR11008010252092209360801000000000000000   10300001F05104100000000042000000000000000     
100   95050310711432300000000000245000000000245000002000000010410408011112154215158345810801000007576134   1030000200030000   333800010001203104000003327KBZPay                 Yangon        MMR11008011112154215150801000000000000000   10300001F05104100000000051450000000000000     
100   62911028202010500000000000100000000000100000002000000010410408010618574857124773800801000007573785   1030000200030000   333800010001203104000003327KBZPay                 Yangon        MMR11008010618574857120801000000000000000   10300001F05104100000000021000000000000000     
100   95050314064416890000000000000990000000000990002000000010410408011048191819261019450801000007575992   1020000200030000   333400010001204104000000281Myanmar Soft-Gate Tech Yangon        MMR11008011048191819260801000000000000000   10300001F05104100000000000208000000000000     
100   95050318575030940000000000070000000000070000002000000010410408010157182718325386760801000007571146   1030000200030000   333800010001203104000003327KBZPay                 Yangon        MMR11008010157182718320801000000000000000   10300001F05104100000000014700000000000000     
100   62911028202392820000000000018885000000018885002000000010410408011134170016514773800801000751132319   1030000200030000   541188001422000008000000401KBZ BANK               OCEAN SUPERCE MMR11008011134170016510801000000000000000   10300001 00104100000000001133000000000000     
100   62911028202204070000000000004800000000004800002000000010410408011109290095334773800801000751129302   1030000200030000   541188001071000008000000314KBZ BANK               MARKETPLACE - MMR11008011109290095330801000000000000000   10300001 00104100000000000288000000000000     
100   95030301954234130000000000020000000000020000002000000010410408010330350035964773800801000007571974   1030000200030000   333800010001203104000003327KBZPay                 Yangon        MMR11008010330350035960801000000000000000   10300001F05104100000000004200000000000000     
100   95050327936713000000000000005000000000005000002000000010410408010632210221862987920801000007573920   1030000200030000   333800010001203104000003327KBZPay                 Yangon        MMR11008010632210221860801000000000000000   10300001F05104100000000001050000000000000     
100   95050316785465380000000000008000000000008000002000000010410408011200140053804769220801000751135214   1030000200030000   541188001463000008000000391KBZ BANK               OCEAN SUPER C MMR11008011200140053800801000000000000000   10300001 00104100000000002000000000000000     
100   95050311736839760000000000002970000000002970002000000010410408010332140214938938940801000007571988   1020000200030000   333400010001204104000000281Myanmar Soft-Gate Tech Yangon        MMR11008010332140214930801000000000000000   10300001F05104100000000000624000000000000     
100   95050319938772870000000000000990000000000990002000000010410408011338310831585120220801000007576784   1020000200030000   333400010001204104000000281Myanmar Soft-Gate Tech Yangon        MMR11008011338310831580801000000000000000   10300001F05104100000000000208000000000000     
100   62911028202474000000000000064900000000064900002000000010410408010301180045344773800801000751117551   1030000200030000   599988000601000008000003442KBZ BANK               SWEETY HOME ( MMR11008010301180045340801000000000000000   10300001 00104100000000003894000000000000     
100   95050313145843230000000000025000000000025000002000000010410408010113234323746528670801000007570993   1030000200030000   333800010001203104000003327KBZPay                 Yangon        MMR11008010113234323740801000000000000000   10300001F05104100000000005250000000000000     
100   62911028202350170000000000010000000000010000002000000010410408010515154515214773800801000007573134   1030000200030000   333800010001203104000003327KBZPay                 Yangon        MMR11008010515154515210801000000000000000   10300001F05104100000000002100000000000000     
100   95050312675525330000000000151000000000151000002000000010410408011513344334269311810801000007577217   1030000200030000   333800010001203104000003327KBZPay                 Yangon        MMR11008011513344334260801000000000000000   10300001F05104100000000031710000000000000     
100   62443100384474840000000000700000000000700000002000000010410408010423575357933797510801000007572558   1030000400030000   333800010001205104000004531Onepay                 Yangon        MMR11008010423575357930801000000000000000   10300001F05104100000000147000000000000000     
100   62911028202441420000000000080600000000080600002000000010410408010851296584454773800801221315658445   1040001600030000   591220000296000000010000284Shwe Ohh Pharmacy (Lan Yangon        MMR11008010851296584450801000000000000000   10300001F00104100000000004836000000000000     
100   95050317502160260000000000056000000000056000002000000010410408010852426585170736590801221315658517   1040001600030000   569120000933000000010000680Generation Concept Sto Ygn           MMR11008010852426585170801000000000000000   10300001F00104100000000013440000000000000     
100   95050318601641810000000000000990000000000990002000000010410407312344121412012641810801000007570784   1020000200030000   333400010001204104000000281Myanmar Soft-Gate Tech Yangon        MMR11007312344121412010801000000000000000   10300001F05104100000000000208000000000000     
100   95050314534800510000000000000990000000000990002000000010410408010247381738341691970801000007571439   1020000200030000   333400010001204104000000281Myanmar Soft-Gate Tech Yangon        MMR11008010247381738340801000000000000000   10300001F05104100000000000208000000000000     
100   62443100392426520000000000020000000000020000002000000010410408010232400240176479230801000007571362   1030000200030000   333800010001203104000003327KBZPay                 Yangon        MMR11008010232400240170801000000000000000   10300001F05104100000000004200000000000000     
100   62911028202142930000000000009500000000009500002000000010410408011605130134314773800801000751161309   1030000200030000   541188001189000008000000383KBZ BANK               OCEAN SUPER C MMR11008011605130134310801000000000000000   10300001 00104100000000000570000000000000     
100   95030301504712580000000000009700000000009700002000000010410408011101150043384773800801000751128118   1030000200030000   541188001454000008000000391KBZ BANK               OCEAN SUPER C MMR11008011101150043380801000000000000000   10300001 00104100000000000582000000000000     
100   62443100388528570000000000019800000000019800002000000010410408010832280228126119520801000007574923   1020000200030000   333400010001204104000000281Myanmar Soft-Gate Tech Yangon        MMR11008010832280228120801000000000000000   10300001F05104100000000004158000000000000     
100   95050314292165140000000000015000000000015000002000000010410408010430450045760152160801000007572654   1030000200030000   3338000100012031040000040022C2P (Myanmar) Co. Ltd Yangon        MMR11008010430450045760801000000000000000   10300001F05104100000000003150000000000000     
100   95050326228858240000000000096000000000096000002000000010410408011715410034739693570801000751166389   1030000200030000   541188001452000008000000391KBZ BANK               OCEAN SUPER C MMR11008011715410034730801000000000000000   10300001 00104100000000024000000000000000     
100   62911028202471860000000000029061000000029061002000000010410408011255080224624773800801000751142084   1030000200030000   541188001080000008000000294KBZ BANK               CITY MART - J MMR11008011255080224620801000000000000000   10300001 00104100000000001744000000000000     
100   95050319468370810000000000046200000000046200002000000010410408011340351035361815260801000007576798   1030000200030000   3333000100012031040000040282C2P (Myanmar) Co. Ltd Yangon        MMR11008011340351035360801000000000000000   10300001F05104100000000010000000000000000     
100   95050314567755980000000000001980000000001980002000000010410408010000243024810989330801000007570807   1020000200030000   333400010001204104000000281Myanmar Soft-Gate Tech Yangon        MMR11008010000243024810801000000000000000   10300001F05104100000000000416000000000000     
100   95050311184380560000000000004950000000004950002000000010410408011004263426295842370801000007575637   1020000200030000   333400010001204104000000281Myanmar Soft-Gate Tech Yangon        MMR11008011004263426290801000000000000000   10300001F05104100000000001040000000000000     
100   62443100313529540000000000001980000000001980002000000010410408011009083908187324650801000007575689   1020000200030000   333400010001204104000000281Myanmar Soft-Gate Tech Yangon        MMR11008011009083908180801000000000000000   10300001F05104100000000000416000000000000     
100   95050315017843630000000000000990000000000990002000000010410408011314294429570162770801000007576672   1020000200030000   333400010001204104000000281Myanmar Soft-Gate Tech Yangon        MMR11008011314294429570801000000000000000   10300001F05104100000000000208000000000000     
100   95050326948926900000000000050000000000050000002000000010410408010325205520160926100801000007571897   1030000200030000   333800010001203104000003327KBZPay                 Yangon        MMR11008010325205520160801000000000000000   10300001F05104100000000010500000000000000     
100   62911028202163630000000000057000000000057000002000000010410408010311446409444773800801221310640944   1040001600030000   591220000302000000010000290Shwe Ohh Pharmacy (Nor Yangon        MMR11008010311446409440801000000000000000   10300001F00104100000000003420000000000000     
100   62911028202163630000000000000700000000000700002000000010410408010312536409994773800801221310640999   1040001600030000   591220000302000000010000290Shwe Ohh Pharmacy (Nor Yangon        MMR11008010312536409990801000000000000000   10300001F00104100000000000042000000000000     
100   95050319468370810000000000010000000000010000002000000010410408011344421442083467740801000007576820   1030000900030000   333400010001202104000002022ACS                    Yangon        MMR11008011344421442080801000000000000000   10300001F05104100000000002100000000000000     
100   95030323161862590000000000001250000000001250002000000010410408011139480079494773800801000751132925   1030000200030000   541188001004000008000000008KBZ BANK               MARKETPLACE - MMR11008011139480079490801000000000000000   10300001 00104100000000000075000000000000     
100   62911028202916630000000000065000000000065000002000000010410408010431540154924773800801000007572658   1030000200030000   333800010001203104000003327KBZPay                 Yangon        MMR11008010431540154920801000000000000000   10300001F05104100000000013650000000000000     
100   95050311419479170000000000000990000000000990002000000010410408010537100710795196560801000007573399   1020000200030000   333400010001204104000000281Myanmar Soft-Gate Tech Yangon        MMR11008010537100710790801000000000000000   10300001F05104100000000000208000000000000     
100   95030394609966640000000000003600000000003600002000000010410408011149050180044773800801000751133947   1030000200030000   541188001023000008000000298KBZ BANK               CITY MART - M MMR11008011149050180040801000000000000000   10300001 00104100000000000216000000000000     
100   62911028202093430000000000002970000000002970002000000010410408010231050105424773800801000007571352   1020000200030000   333400010001204104000000281Myanmar Soft-Gate Tech Yangon        MMR11008010231050105420801000000000000000   10300001F05104100000000000624000000000000     
100   95050310409767690000000000140000000000140000002000000010410408010434060406474052800801000007572692   1030000200030000   333800010001203104000003327KBZPay                 Yangon        MMR11008010434060406470801000000000000000   10300001F05104100000000029400000000000000     
100   95050329698388160000000000300000000000300000002000000010410408011141281128032877780801000007576279   1030000200030000   333800010001203104000003327KBZPay                 Yangon        MMR11008011141281128030801000000000000000   10300001F05104100000000063000000000000000     
100   95050322715181550000000000056000000000056000002000000010410408011126217190989572810801391561721212   1030000900030000   554119001101190110000000213New Day Energy SOK     YANGONOKKALAP MMR11008011126217190980801000000000000000   10300001F00104100000000006720000000000000     
100   95050311959900780000000000004950000000004950002000000010410408010348461846856570040801000007572181   1020000200030000   333400010001204104000000281Myanmar Soft-Gate Tech Yangon        MMR11008010348461846850801000000000000000   10300001F05104100000000001040000000000000     
100   95050327416134790000000000001980000000001980002000000010410408011249071907184779840801000007576583   1020000200030000   333400010001204104000000281Myanmar Soft-Gate Tech Yangon        MMR11008011249071907180801000000000000000   10300001F05104100000000000416000000000000     
100   95050319728246800000000000200000000000200000002000000010410408010449311931588378920801000007572872   1030000500030000   333800010001201104000003863AYA Pay                Yangon        MMR11008010449311931580801000000000000000   10300001F05104100000000042000000000000000     
100   95050313732480420000000000000990000000000990002000000010410408010256392639410464960801000007571511   1020000200030000   333400010001204104000000281Myanmar Soft-Gate Tech Yangon        MMR11008010256392639410801000000000000000   10300001F05104100000000000208000000000000     
100   95050319938772870000000000002970000000002970002000000010410408010001283128562726910801000007570810   1020000200030000   333400010001204104000000281Myanmar Soft-Gate Tech Yangon        MMR11008010001283128560801000000000000000   10300001F05104100000000000624000000000000     
100   95050325630928770000000000000990000000000990002000000010410408010306483648001387240801000007571604   1020000200030000   333400010001204104000000281Myanmar Soft-Gate Tech Yangon        MMR11008010306483648000801000000000000000   10300001F05104100000000000208000000000000     
100   62911028202777790000000000010000000000010000002000000010410408010909423942984773800801000007575190   1030000200030000   333800010001203104000003327KBZPay                 Yangon        MMR11008010909423942980801000000000000000   10300001F05104100000000002100000000000000     
100   62443100313002190000000000065000000000065000002000000010410408010814124412778367680801000007574798   1030000200030000   333800010001203104000003327KBZPay                 Yangon        MMR11008010814124412770801000000000000000   10300001F05104100000000013650000000000000     
100   95050325139996190000000000010000000000010000002000000010410408010512004200050443100801000007573070   1030000300030000   333300010001206104000002147DICA Company Limited   Yangon        MMR11008010512004200050801000000000000000   10300001F05104100000000010000000000000000     
100   95050311736839760000000000002970000000002970002000000010410408010334180418931988620801000007572027   1020000200030000   333400010001204104000000281Myanmar Soft-Gate Tech Yangon        MMR11008010334180418930801000000000000000   10300001F05104100000000000624000000000000     
100   62911028202088990000000000035200000000035200002000000010410408011150407198184773800801818201840212   1030000900030000   581219001143190110000000923Classic Garden         YANGON        MMR11008011150407198180801000000000000000   10300001F00104100000000003590000000000000     
100   62443100306416880000000000038150000000038150002000000010410407310655330019980593790731221213001998   1030000500030000   541120226401000045411202264MARKET PLACE MYANMARPL PTN           MMR11007310655330019980731000000000000000   10300001 00104100000000009538000000000000     
100   62911028202473840000000000051100000000051100002000000010410408011104456690874773800801221318669087   1040001600030000   541120000559000000010000465Ocean Shwe Gone Daing  Yangon        MMR11008011104456690870801000000000000000   10300001F00104100000000003066000000000000     
100   95030314100001680000000000002970000000002970002000000010410408010937250725144773800801000007575425   1020000200030000   333400010001204104000000281Myanmar Soft-Gate Tech Yangon        MMR11008010937250725140801000000000000000   10300001F05104100000000000624000000000000     
100   95050319391394380000000000005250000000005250002000000010410408011042557174331260950801389121755212   1030000900030000   541119000121190110000000080Sein Gay Har BAK       YANGONADA     MMR11008011042557174330801000000000000000   10300001F00104100000000001313000000000000     
100   62911028202684060000000000142770000000142770002000000010410408010421028927694773800801510207013358   1040001400030000   806210000094028062100000766Yoma OUE Pun Hlaing Ho pital  Yoma O MMR11008010421028927690801000000000000000   10300001 00104100000000008566000000000000     
