100   95050324154190880000000000017000000000017000002000000010410408010701230006156413630801221313000615   1030000500030000   598320001204000015172200012MAX ENERGY             PTN           MMR11008010701230006150801000000000000000   10300001 00104100000000002040000000000000     
100   62443100333488440000000000004300000000004300002000000010410408010327300004280670810801000358641856   1030000300030000   531100001408000000000000962CB BANK                G & G CONVENI MMR11008010327300004280801000000000000000   10300001F00104100000000001032000000000000     
100   95050325925517520000000000035000000000035000002000000010410408010405130004222790140801221310000422   1030000500030000   598320002104000015172200021MAX ENERGY             PTN           MMR11008010405130004220801000000000000000   10300001 00104100000000004200000000000000     
100   62911028202528710000000000040000000000040000002000000010410408010718040004634773800801221313000463   1030000500030000   598320001604000015172200016MAX ENERGY             PTN           MMR11008010718040004630801000000000000000   10300001 00104100000000001200000000000000     
100   95050314365758940000000000021950000000021950002000000010410408011300010010961474870801221319001096   1030000500030000   541120203802000015411202038CITY MART SUPERMARKET  PTN           MMR11008011300010010960801000000000000000   10300001 00104100000000005488000000000000     
100   62911028202421380000000000081000000000081000002000000010410408010414090004794773800801221310000479   1030000500030000   598320001902000015172200019MAX ENERGY             PTN           MMR11008010414090004790801000000000000000   10300001 00104100000000002430000000000000     
100   62443100315110470000000000150000000000150000002000000010410408011030270002705501980801000358718332   1030000300030000   541100002346000000000000102CB BANK                MAKRO MYANMAR MMR11008011030270002700801000000000000000   10300001F00104100000000037500000000000000     
100   62443100315110470000000000150000000000150000002000000010410408011033200002713764400801000358718808   1030000300030000   541100002346000000000000102CB BANK                MAKRO MYANMAR MMR11008011033200002710801000000000000000   10300001F00104100000000037500000000000000     
100   95050324850150480000000000070000000000070000002000000010410407300805460209168288110730221108020916   1030000600030000   554100001011315799420000505DENKO HTAN TA PIN      YANGON        MMR11007300805460209160730000000000000000   10300001 00104100000000008400000000000000     
100   62911028202397530000000000055845000000055845002000000010410408020818587415624773800802397481458213   1030000900030000   541119001296190110000000968Ocean Mingalar MDY C 4 MANDALAYHARSI MMR11008020818587415620802000000000000000   10300001F00104100000000003351000000000000     
100   62911028202169750000000000345080000000345080002000000010410408020547327236264773800802221412723626   1040001600030000   541120000559000000010000465Ocean Shwe Gone Daing  Yangon        MMR11008020547327236260802000000000000000   10300001F00104100000000020705000000000000     
100   95050315743141220000000000000990000000000990002000000010410408020729145914200525020802000007580934   1020000200030000   333400010001204104000000281Myanmar Soft-Gate Tech Yangon        MMR11008020729145914200802000000000000000   10300001F05104100000000000208000000000000     
100   95050320092651450000000000020000000000020000002000000010410407301134031022668068480730221111102266   1030000600030000   554100000946315799420000471DENKO BAHAN            YANGON        MMR11007301134031022660730000000000000000   10300001 00104100000000002400000000000000     
100   62443101093150400000000000025000000000025000002000000010410407311100280213411955330731221211021341   1030000600030000   554100002324315799420000481DENKO NORTH OKKALAPA   YANGON        MMR11007311100280213410731000000000000000   10300001 00104100000000003000000000000000     
100   62911028202680670000000000026200000000026200002000000010410407310609130306464773800731221206030646   1030000600030000   554100002319315799420000477DENKO INSEIN           YANGON        MMR11007310609130306460731000000000000000   10300001 00104100000000000786000000000000     
100   62911028202474000000000000044000000000044000002000000010410407311213520378284773800731221212037828   1030000600030000   554100002085315799420000471DENKO BAHAN            YANGON        MMR11007311213520378280731000000000000000   10300001 00104100000000001320000000000000     
100   62911028202449100000000000075005000000075005002000000010410408011002110006454773800801221316000645   1030000500030000   598320001204000015172200012MAX ENERGY             PTN           MMR11008011002110006450801000000000000000   10300001 00104100000000002250000000000000     
100   62911028202045260000000000032400000000032400002000000010410408010450390006684773800801221311000668   1030000500030000   541120233301000045411202333CITY EXPRESS (MCS - 19 PTN           MMR11008010450390006680801000000000000000   10300001 00104100000000001944000000000000     
100   95050326593223450000000000060000000000060000002000000010410408010332000003733726210801221310000373   1030000500030000   598320068302000055983200683MAX ENERGY             PTN           MMR11008010332000003730801000000000000000   10300001 00104100000000007200000000000000     
100   95050320559934420000000000014900000000014900002000000010410408010523330008126251520801221311000812   1030000500030000   541120230004000045411202300MARKET PLACE BY CITY M PTN           MMR11008010523330008120801000000000000000   10300001 00104100000000003725000000000000     
100   95050319996628650000000000000990000000000990002000000010410408020848531853247014210802000007581456   1020000200030000   333400010001204104000000281Myanmar Soft-Gate Tech Yangon        MMR11008020848531853240802000000000000000   10300001F05104100000000000208000000000000     
100   95050328074436620000000000009900000000009900002000000010410408021251122112589767230802000007582701   1020000200030000   333400010001204104000000281Myanmar Soft-Gate Tech Yangon        MMR11008021251122112580802000000000000000   10300001F05104100000000002079000000000000     
100   62911028202068510000000000100000000000100000002000000010410408020221165116014773800802000007578048   1030000200030000   333800010001203104000003327KBZPay                 Yangon        MMR11008020221165116010802000000000000000   10300001F05104100000000021000000000000000     
100   95050319331315630000000000001980000000001980002000000010410408021129505950208284940802000007582339   1020000200030000   333400010001204104000000281Myanmar Soft-Gate Tech Yangon        MMR11008021129505950200802000000000000000   10300001F05104100000000000416000000000000     
100   62911028202440680000000000035574000000035574002000000010410407311029320067984773800731221210006798   1030000600030000   581200000715315799420000297IPPUDO JC              YANGON        MMR11007311029320067980731000000000000000   10300001 00104100000000003629000000000000     
100   62911028202466670000000000060000000000060000002000000010410407310438181024054773800731221204102405   1030000600030000   554100000946315799420000471DENKO BAHAN            YANGON        MMR11007310438181024050731000000000000000   10300001 00104100000000001800000000000000     
100   62911028202752520000000000078000000000078000002000000010410407310118340468464773800731221201046846   1030000600030000   554100001106315799420000564DENKO PHYUU            PHYUU         MMR11007310118340468460731000000000000000   10300001 00104100000000002340000000000000     
100   62911028202598430000000000050000000000050000002000000010410407310737440220414773800731221207022041   1030000600030000   554100002320315799420000564DENKO PHYUU            PHYUU         MMR11007310737440220410731000000000000000   10300001 00104100000000001500000000000000     
100   95030305700676370000000000070000000000070000002000000010410407311148510085874773800731221211008587   1030000600030000   554100002141315799420001490DENKO MEIKHTILA 3      MANDALAY      MMR11007311148510085870731000000000000000   10300001 00104100000000002100000000000000     
100   62911028202188560000000000020000000000020000002000000010410407310216400734784773800731221202073478   1030000600030000   554100000952315799420000474DENKO N.DAGON - 1      YANGON        MMR11007310216400734780731000000000000000   10300001 00104100000000000600000000000000     
100   62443100390038980000000000061000000000061000002000000010410407311016260209601359660731221210020960   1030000600030000   554100001011315799420000505DENKO HTAN TA PIN      YANGON        MMR11007311016260209600731000000000000000   10300001 00104100000000007320000000000000     
100   62911028202556760000000000030000000000030000002000000010410408011158000214134773800801221311021413   1030000600030000   554100002324315799420000481DENKO NORTH OKKALAPA   YANGON        MMR11008011158000214130801000000000000000   10300001 00104100000000000900000000000000     
100   95050314307746340000000000000990000000000990002000000010410408020633100310718652910802000007580455   1020000200030000   333400010001204104000000281Myanmar Soft-Gate Tech Yangon        MMR11008020633100310710802000000000000000   10300001F05104100000000000208000000000000     
100   62443100392426520000000000010000000000010000002000000010410408021334540454180824040802000007582895   1030000200030000   333800010001203104000003327KBZPay                 Yangon        MMR11008021334540454180802000000000000000   10300001F05104100000000002100000000000000     
100   95050311959900780000000000000990000000000990002000000010410408011642091209689737300802000007577443   1020000200030000   333400010001204104000000281Myanmar Soft-Gate Tech Yangon        MMR11008011642091209680802000000000000000   10300001F05104100000000000208000000000000     
100   62443100322986690000000000200000000000200000002000000010410408021352112211519171560802000007582987   1030000200030000   333800010001203104000003327KBZPay                 Yangon        MMR11008021352112211510802000000000000000   10300001F05104100000000042000000000000000     
100   95050318048516790000000000010000000000010000002000000010410408020551142114146028710802000007580082   1030000200030000   333800010001203104000003327KBZPay                 Yangon        MMR11008020551142114140802000000000000000   10300001F05104100000000002100000000000000     
100   95050317100052460000000000005000000000005000002000000010410408020200273027415411170802000007577990   1030000200030000   333800010001203104000003327KBZPay                 Yangon        MMR11008020200273027410802000000000000000   10300001F05104100000000001050000000000000     
100   95050319709462380000000000000990000000000990002000000010410408020810174017919602750802000007581194   1020000200030000   333400010001204104000000281Myanmar Soft-Gate Tech Yangon        MMR11008020810174017910802000000000000000   10300001F05104100000000000208000000000000     
100   62911028202684060000000000018500000000018500002000000010410408020418004726854773800802480064079898   1040001400030000   806210000094028062100000766Yoma OUE Pun Hlaing Ho pital  Yoma O MMR11008020418004726850802000000000000000   10300001 00104100000000001110000000000000     
100   95050324082484780000000000163000000000163000002000000010410408010420450080868584770801221304008086   1030000600030000   554100001252315799420000706DENKO MONEYWAR - 2     MONEYWAR      MMR11008010420450080860801000000000000000   10300001 00104100000000019560000000000000     
100   62443100363668680000000000150000000000150000002000000010410408011206220019664950030801000358734412   1030000300030000   541100002345000000000000102CB BANK                MAKRO MYANMAR MMR11008011206220019660801000000000000000   10300001F00104100000000037500000000000000     
100   95050326159929830000000000078650000000078650002000000010410408011144390068906523140801000358730924   1030000300030000   541100000151000000000000074CB BANK                ROYAL MART SU MMR11008011144390068900801000000000000000   10300001F00104100000000019663000000000000     
100   62911028202709150000000000045000000000045000002000000010410408010917290585934773800801221309058593   1030000600030000   554100000969315799420000481DENKO NORTH OKKALAPA   YANGON        MMR11008010917290585930801000000000000000   10300001 00104100000000001350000000000000     
100   62911028202207380000000000011500000000011500002000000010410408010307260028404773800801221309002840   1030000500030000   541120203706000015411202037CITY MART SUPERMARKET  PTN           MMR11008010307260028400801000000000000000   10300001 00104100000000000690000000000000     
100   62911028202074950000000000033428000000033428002000000010410408010539060031524773800801221312003152   1030000500030000   531120226314000045311202263OCEAN SUPER CENTER STJ PTN           MMR11008010539060031520801000000000000000   10300001 00104100000000002006000000000000     
100   62911028202154800000000000050000000000050000002000000010410408010635440088284773800801221306008828   1030000600030000   554100002404315799420000480DENKO N.DAGON - 3      YANGON        MMR11008010635440088280801000000000000000   10300001 00104100000000001500000000000000     
100   95030301100126550000000000036000000000036000002000000010410408011036110736594773800801221310073659   1030000600030000   554100000952315799420000474DENKO N.DAGON - 1      YANGON        MMR11008011036110736590801000000000000000   10300001 00104100000000001080000000000000     
100   95050313817486860000000000000990000000000990002000000010410408021118544854201760100802000007582303   1020000200030000   333400010001204104000000281Myanmar Soft-Gate Tech Yangon        MMR11008021118544854200802000000000000000   10300001F05104100000000000208000000000000     
100   95050318057347910000000000030000000000030000002000000010410408021245391539618199840802000007582674   1030000200030000   3338000100012031040000040022C2P (Myanmar) Co. Ltd Yangon        MMR11008021245391539610802000000000000000   10300001F05104100000000006300000000000000     
100   95050316043499650000000000010000000000010000002000000010410408020848221822385361720802000007581463   1030000200030000   333800010001203104000003327KBZPay                 Yangon        MMR11008020848221822380802000000000000000   10300001F05104100000000002100000000000000     
100   95050311182936420000000000001980000000001980002000000010410408020251142114613091700802000007578222   1020000200030000   333400010001204104000000281Myanmar Soft-Gate Tech Yangon        MMR11008020251142114610802000000000000000   10300001F05104100000000000416000000000000     
100   95050315017843630000000000004950000000004950002000000010410408020253392339200843540802000007578238   1020000200030000   333400010001204104000000281Myanmar Soft-Gate Tech Yangon        MMR11008020253392339200802000000000000000   10300001F05104100000000001040000000000000     
100   62911028202077190000000000000990000000000990002000000010410408020101413141664773800802000007577796   1020000200030000   333400010001204104000000281Myanmar Soft-Gate Tech Yangon        MMR11008020101413141660802000000000000000   10300001F05104100000000000208000000000000     
100   95050316377977350000000000002000000000002000002000000010410408021105233523157483420802000007582247   1030000200030000   3338000100012031040000040022C2P (Myanmar) Co. Ltd Yangon        MMR11008021105233523150802000000000000000   10300001F05104100000000000420000000000000     
100   95030314863516850000000000025000000000025000002000000010410408021622095209234773800802000007583606   1030000200030000   333800010001203104000003327KBZPay                 Yangon        MMR11008021622095209230802000000000000000   10300001F05104100000000005250000000000000     
100   62911028202293090000000000027006000000027006002000000010410408010315100033664773800801221309003366   1030000500030000   541120226201000045411202262CITY MART ZAWANA       PTN           MMR11008010315100033660801000000000000000   10300001 00104100000000001620000000000000     
100   62911028202446700000000000006434000000006434002000000010410408010711370018124773800801221313001812   1030000500030000   541120231304000045411202313CITY MART (AYEYARWON)  PTN           MMR11008010711370018120801000000000000000   10300001 00104100000000000386000000000000     
100   62911028202204070000000000036350000000036350002000000010410408011228240038904773800801221318003890   1030000500030000   531120226305000045311202263OCEAN SUPER CENTER STJ PTN           MMR11008011228240038900801000000000000000   10300001 00104100000000002181000000000000     
100   62911028202651050000000000130850000000130850002000000010410408011017530039414773800801221316003941   1030000500030000   541120226402000045411202264MARKET PLACE MYANMARPL PTN           MMR11008011017530039410801000000000000000   10300001 00104100000000007851000000000000     
100   95050312035823210000000000005000000000005000002000000010410408020931280128336583010802000007581700   1030000200030000   3338000100012031040000040022C2P (Myanmar) Co. Ltd Yangon        MMR11008020931280128330802000000000000000   10300001F05104100000000001050000000000000     
100   95050313396828960000000000000990000000000990002000000010410408020131070107185240980802000007577873   1020000200030000   333400010001204104000000281Myanmar Soft-Gate Tech Yangon        MMR11008020131070107180802000000000000000   10300001F05104100000000000208000000000000     
100   62911028202446540000000000014500000000014500002000000010410408021833180034664773800802000751236475   1030000200030000   541188001014000008000000008KBZ BANK               MARKETPLACE - MMR11008021833180034660802000000000000000   10300001 00104100000000000870000000000000     
100   62443100314171200000000000011700000000011700002000000010410408021359220050942177510802000751216475   1030000200030000   541188001085000008000000294KBZ BANK               CITY MART - J MMR11008021359220050940802000000000000000   10300001 00104100000000002925000000000000     
100   95050313843656520000000000001980000000001980002000000010410408011725175517459652200802000007577510   1020000200030000   333400010001204104000000281Myanmar Soft-Gate Tech Yangon        MMR11008011725175517450802000000000000000   10300001F05104100000000000416000000000000     
100   95050314117051850000000000000990000000000990002000000010410408012333490349402957170802000007577674   1020000200030000   333400010001204104000000281Myanmar Soft-Gate Tech Yangon        MMR11008012333490349400802000000000000000   10300001F05104100000000000208000000000000     
100   95050310735627670000000000008000000000008000002000000010410408021039320932412256890802000007582114   1030000200030000   333800010001203104000003327KBZPay                 Yangon        MMR11008021039320932410802000000000000000   10300001F05104100000000001680000000000000     
100   95050315017843630000000000002970000000002970002000000010410408020251462146621354120802000007578228   1020000200030000   333400010001204104000000281Myanmar Soft-Gate Tech Yangon        MMR11008020251462146620802000000000000000   10300001F05104100000000000624000000000000     
100   95050325027979170000000000050000000000050000002000000010410408020703353335324425670802000007580714   1030000200030000   333800010001203104000003327KBZPay                 Yangon        MMR11008020703353335320802000000000000000   10300001F05104100000000010500000000000000     
100   95050315424817550000000000001980000000001980002000000010410408021403353335459086460802000007583043   1020000200030000   333400010001204104000000281Myanmar Soft-Gate Tech Yangon        MMR11008021403353335450802000000000000000   10300001F05104100000000000416000000000000     
100   95050316949180000000000000010890000000010890002000000010410408020209103910826737060802000007578017   1020000200030000   333400010001204104000000281Myanmar Soft-Gate Tech Yangon        MMR11008020209103910820802000000000000000   10300001F05104100000000002287000000000000     
100   95050314302558730000000000002970000000002970002000000010410408020516084608929199130802000007579741   1020000200030000   333400010001204104000000281Myanmar Soft-Gate Tech Yangon        MMR11008020516084608920802000000000000000   10300001F05104100000000000624000000000000     
100   62443100314171200000000000006200000000006200002000000010410408021400250050957220060802000751216589   1030000200030000   541188001085000008000000294KBZ BANK               CITY MART - J MMR11008021400250050950802000000000000000   10300001 00104100000000001550000000000000     
100   62443100314171200000000000002800000000002800002000000010410408021401190050968872540802000751216692   1030000200030000   541188001085000008000000294KBZ BANK               CITY MART - J MMR11008021401190050960802000000000000000   10300001 00104100000000000700000000000000     
100   62443101076362230000000000299000000000299000002000000010410408021027360038219377400802000751230620   1030000200030000   581288001738000008000005244KBZ BANK               SEAFOOD CITY  MMR11008021027360038210802000000000000000   10300001 00104100000000127075000000000000     
100   62443100372718280000000000020650000000020650002000000010410408021500460038994049630802000751222719   1030000200030000   541188001077000008000000294KBZ BANK               CITY MART - J MMR11008021500460038990802000000000000000   10300001 00104100000000005163000000000000     
100   95050315743141220000000000000990000000000990002000000010410408020731210121167134960802000007580949   1020000200030000   333400010001204104000000281Myanmar Soft-Gate Tech Yangon        MMR11008020731210121160802000000000000000   10300001F05104100000000000208000000000000     
100   95050326198165350000000000021800000000021800002000000010410408020604450035325688320802000751207201   1030000200030000   569988000778000008000004529KBZ BANK               JSQ-IPANEMA   MMR11008020604450035320802000000000000000   10300001 00104100000000005232000000000000     
100   95050316785465380000000000027200000000027200002000000010410408021919550046889852320802000751238492   1030000200030000   541188001459000008000000391KBZ BANK               OCEAN SUPER C MMR11008021919550046880802000000000000000   10300001 00104100000000006800000000000000     
100   95050310427855490000000000002970000000002970002000000010410408011730060006874694740802000007577514   1020000200030000   333400010001204104000000281Myanmar Soft-Gate Tech Yangon        MMR11008011730060006870802000000000000000   10300001F05104100000000000624000000000000     
100   62911028202077500000000000005000000000005000002000000010410408020927465746084773800802000007581678   1040001600030000   333800010001220104000004507A +                    Yangon        MMR11008020927465746080802000000000000000   10300001F05104100000000001050000000000000     
100   95050310213446310000000000005000000000005000002000000010410408020235080508121864700802000007578111   1030000200030000   3338000100012031040000040022C2P (Myanmar) Co. Ltd Yangon        MMR11008020235080508120802000000000000000   10300001F05104100000000001050000000000000     
100   95050328074436620000000000009900000000009900002000000010410408021249531953548114750802000007582692   1020000200030000   333400010001204104000000281Myanmar Soft-Gate Tech Yangon        MMR11008021249531953540802000000000000000   10300001F05104100000000002079000000000000     
100   95050311959900780000000000000990000000000990002000000010410408021606553655344384300802000007583568   1020000200030000   333400010001204104000000281Myanmar Soft-Gate Tech Yangon        MMR11008021606553655340802000000000000000   10300001F05104100000000000208000000000000     
100   62443100360763680000000000004950000000004950002000000010410408021404023402034129010802000007583042   1020000200030000   333400010001204104000000281Myanmar Soft-Gate Tech Yangon        MMR11008021404023402030802000000000000000   10300001F05104100000000001040000000000000     
100   95050318141561190000000000020000000000020000002000000010410408020905233523936844010802000007581545   1040001600030000   333800010001220104000004507A +                    Yangon        MMR11008020905233523930802000000000000000   10300001F05104100000000004200000000000000     
100   62911028202651050000000000057893000000057893002000000010410408020959010296054773800802000751190725   1030000200030000   541188001038000008000000010KBZ BANK               MARKETPLACE - MMR11008020959010296050802000000000000000   10300001 00104100000000003474000000000000     
100   95050310305100650000000000100000000000100000002000000010410408020836540654715617010802000007581397   1030000200030000   3338000100012031040000040022C2P (Myanmar) Co. Ltd Yangon        MMR11008020836540654710802000000000000000   10300001F05104100000000021000000000000000     
100   62911028202448030000000000001100000000001100002000000010410408020914197352024773800802221416735202   1040001600030000   591220000287000000010000275Shwe Ohh Pharmacy (Wit Yangon        MMR11008020914197352020802000000000000000   10300001F00104100000000000066000000000000     
100   95050318601641810000000000011521000000011521002000000010410408021148547486765235260802466181854213   1030000900030000   541119001219190110000000945City Mart TM C 4       YANGONONE     MMR11008021148547486760802000000000000000   10300001F00104100000000002881000000000000     
100   95050329023136610000000000032249000000032249002000000010410408020722387291335652670802221414729133   1040001600030000   541120000553000000010000465Ocean Shwe Gone Daing  Yangon        MMR11008020722387291330802000000000000000   10300001F00104100000000008063000000000000     
100   62911028202448030000000000016200000000016200002000000010410408020820307416164773800802419501430213   1030000900030000   541119000126190110000000082Sein Gay Har Super Cen YANGON        MMR11008020820307416160802000000000000000   10300001F00104100000000000972000000000000     
100   95050327185992630000000000069000000000069000002000000010410408021136007482738625330802229061800213   1030000900030000   481219000913190110000000722Snoopy Mobile ( 4 )Lat YANGON        MMR11008021136007482730802000000000000000   10300001F00104100000000016560000000000000     
100   95050320205194540000000000022750000000022750002000000010410408021149567487136887740802485191856213   1030000900030000   541119001259190110000000958City Mart PLST C 2     YANGONMYOTHIT MMR11008021149567487130802000000000000000   10300001F00104100000000005688000000000000     
100   95050322426452690000000000055650000000055650002000000010410408021205437503049682140802221419750304   1040001600030000   598320000320000000010000308PT Power Petrol Statio Yangon        MMR11008021205437503040802000000000000000   10300001F00104100000000006678000000000000     
100   95050316717221100000000000046500000000046500002000000010410408020625017383265433030802753551201213   1030000900030000   541119001515190110000001102Ocean MGDTM C-8        YANGONADON    MMR11008020625017383260802000000000000000   10300001F00104100000000011625000000000000     
100   95050310213446310000000000002970000000002970002000000010410408020251212121974744190802000007578225   1020000200030000   333400010001204104000000281Myanmar Soft-Gate Tech Yangon        MMR11008020251212121970802000000000000000   10300001F05104100000000000624000000000000     
100   95050318057347910000000000020000000000020000002000000010410408021251262126574809780802000007582704   1030000200030000   3338000100012031040000040022C2P (Myanmar) Co. Ltd Yangon        MMR11008021251262126570802000000000000000   10300001F05104100000000004200000000000000     
100   95050328074436620000000000009900000000009900002000000010410408021252442244804724690802000007582708   1020000200030000   333400010001204104000000281Myanmar Soft-Gate Tech Yangon        MMR11008021252442244800802000000000000000   10300001F05104100000000002079000000000000     
100   95050314931885730000000000001000000000001000002000000010410408021302233223151419710802000007582755   1030000200030000   3338000100012031040000040022C2P (Myanmar) Co. Ltd Yangon        MMR11008021302233223150802000000000000000   10300001F05104100000000000210000000000000     
100   95050313616076540000000000025000000000025000002000000010410408021007583758030058170802000007581918   1030000200030000   333800010001203104000003327KBZPay                 Yangon        MMR11008021007583758030802000000000000000   10300001F05104100000000005250000000000000     
100   95050315743141220000000000000990000000000990002000000010410408020726255625872262600802000007580918   1020000200030000   333400010001204104000000281Myanmar Soft-Gate Tech Yangon        MMR11008020726255625870802000000000000000   10300001F05104100000000000208000000000000     
100   95050314064416890000000000000990000000000990002000000010410408021344111411297519070802000007582941   1020000200030000   333400010001204104000000281Myanmar Soft-Gate Tech Yangon        MMR11008021344111411290802000000000000000   10300001F05104100000000000208000000000000     
100   95050311382087030000000000040000000000040000002000000010410408020056342634565921750802000007577787   1030000200030000   333800010001203104000003327KBZPay                 Yangon        MMR11008020056342634560802000000000000000   10300001F05104100000000008400000000000000     
100   62911028202590580000000000030000000000030000002000000010410408020618157256284773800802221413725628   1040001600030000   569120000925000000010000672Generation Concept Sto Ygn           MMR11008020618157256280802000000000000000   10300001F00104100000000001800000000000000     
100   95030305234413920000000000007250000000007250002000000010410408020516097361774773800802601461109213   1030000900030000   591219000504190110000000351Shwe Ohh Pharmacy - (Y YANGONAW      MMR11008020516097361770802000000000000000   10300001F00104100000000000435000000000000     
100   95050320092651450000000000016900000000016900002000000010410408020930257439403278040802679001625213   1030000900030000   541119001244190110000000955City Mart JS C 3       YANGONUT      MMR11008020930257439400802000000000000000   10300001F00104100000000004225000000000000     
100   62911028202281450000000000020500000000020500002000000010410408020930287439434773800802682001628213   1030000900030000   541119001241190110000000082Sein Gay Har Super Cen YANGON        MMR11008020930287439430802000000000000000   10300001F00104100000000001230000000000000     
100   95050320624349010000000000020000000000020000002000000010410408020223147312793687380802195530814213   1030000900030000   554119001101190110000000213New Day Energy SOK     YANGONOKKALAP MMR11008020223147312790802000000000000000   10300001F00104100000000002400000000000000     
100   95030320108927800000000000090000000000090000002000000010410408020753357408474773800802027231435213   1030000900030000   592119000255190110000000150HtunHtunOo Liquor (May YANGONONE     MMR11008020753357408470802000000000000000   10300001F00104100000000005400000000000000     
100   95050316206034940000000000200000000000200000002000000010410408020311237324388595390802711410923213   1030000900030000   573219001178190110000000934UNIQUE Pansodan        YANGONADA     MMR11008020311237324380802000000000000000   10300001F00104100000000048000000000000000     
100   95050318257792630000000000009200000000009200002000000010410408020727597401335482480802671571359213   1030000900030000   541119001246190110000000955City Mart JS C 5       YANGONUT      MMR11008020727597401330802000000000000000   10300001F00104100000000002300000000000000     
100   62911028202777790000000000007000000000007000002000000010410408020758072807394773800802000007581131   1030000200030000   333800010001203104000003327KBZPay                 Yangon        MMR11008020758072807390802000000000000000   10300001F05104100000000001470000000000000     
100   95050319502933380000000000000990000000000990002000000010410408021058122812165575650802000007582207   1020000200030000   333400010001204104000000281Myanmar Soft-Gate Tech Yangon        MMR11008021058122812160802000000000000000   10300001F05104100000000000208000000000000     
100   95050312675525330000000000016800000000016800002000000010410408021319574957564214100802000007582835   1030000200030000   333800010001203104000003327KBZPay                 Yangon        MMR11008021319574957560802000000000000000   10300001F05104100000000003528000000000000     
100   62911028202809060000000000300000000000300000002000000010410408021526285628154773800802000007583416   1030000200030000   333800010001203104000003327KBZPay                 Yangon        MMR11008021526285628150802000000000000000   10300001F05104100000000063000000000000000     
100   95050312520116690000000000050000000000050000002000000010410408021233180318572816910802000007582605   1030000200030000   333800010001203104000003327KBZPay                 Yangon        MMR11008021233180318570802000000000000000   10300001F05104100000000010500000000000000     
100   95050310126166580000000000300000000000300000002000000010410408021159302930003582780802000007582482   1030000200030000   333800010001203104000003327KBZPay                 Yangon        MMR11008021159302930000802000000000000000   10300001F05104100000000063000000000000000     
100   62911028202166940000000000108300000000108300002000000010410408021808160152004773800802000751235049   1030000200030000   541188001127000008000000296KBZ BANK               CITY MART - J MMR11008021808160152000802000000000000000   10300001 00104100000000006498000000000000     
100   95050316949180000000000000005940000000005940002000000010410408020432390239359375040802000007579343   1020000200030000   333400010001204104000000281Myanmar Soft-Gate Tech Yangon        MMR11008020432390239350802000000000000000   10300001F05104100000000001247000000000000     
100   62443100326436660000000000015400000000015400002000000010410408021056317468858795520802402261731213   1030000900030000   541119001203190110000000948City Mart YK C 1       YANGONAUNG    MMR11008021056317468850802000000000000000   10300001F00104100000000003850000000000000     
100   95050310676042860000000000025000000000025000002000000010410408020829145914152482240802000007581342   1030000200030000   333800010001203104000003327KBZPay                 Yangon        MMR11008020829145914150802000000000000000   10300001F05104100000000005250000000000000     
100   62911028202281450000000000050500000000050500002000000010410408020911357433074773800802322411535213   1030000900030000   541119000127190110000000082Sein Gay Har Super Cen YANGON        MMR11008020911357433070802000000000000000   10300001F00104100000000003030000000000000     
100   62911028202218350000000000018000000000018000002000000010410408020852507427094773800802998221550213   1030000900030000   541119000113190110000000077Sein Gay Har Chinatown YANGON        MMR11008020852507427090802000000000000000   10300001F00104100000000001080000000000000     
100   95030301100103860000000000021000000000021000002000000010410408021039247462504773800802005091724213   1030000900030000   541119000121190110000000080Sein Gay Har BAK       YANGONADA     MMR11008021039247462500802000000000000000   10300001F00104100000000001260000000000000     
100   62911028202698420000000000030000000000030000002000000010410408020718507289314773800802221414728931   1040001600030000   598320000854000000010000608Terminal Petrol Statio Yangon        MMR11008020718507289310802000000000000000   10300001F00104100000000000900000000000000     
100   95050314995854750000000000024900000000024900002000000010410408020644027389019638410802045141302213   1030000900030000   541119001517190110000001102Ocean MGDTM C-10       YANGONADON    MMR11008020644027389010802000000000000000   10300001F00104100000000006225000000000000     
100   95050316184853420000000000300000000000300000002000000010410408020328005800006786500802000007578622   1030000200030000   333800010001203104000003327KBZPay                 Yangon        MMR11008020328005800000802000000000000000   10300001F05104100000000063000000000000000     
100   62911028202651050000000000003900000000003900002000000010410408020959450296064773800802000751190786   1030000200030000   541188001038000008000000010KBZ BANK               MARKETPLACE - MMR11008020959450296060802000000000000000   10300001 00104100000000000234000000000000     
100   95050312728902740000000000010200000000010200002000000010410408020135130513166808360802000007577889   1030000200030000   333800010001203104000003327KBZPay                 Yangon        MMR11008020135130513160802000000000000000   10300001F05104100000000002142000000000000     
100   62911028202093430000000000000990000000000990002000000010410408020143081308134773800802000007577917   1020000200030000   333400010001204104000000281Myanmar Soft-Gate Tech Yangon        MMR11008020143081308130802000000000000000   10300001F05104100000000000208000000000000     
100   95050317486512680000000000205000000000205000002000000010410408011649301930047999710802000007577461   1030000200030000   333800010001203104000003327KBZPay                 Yangon        MMR11008011649301930040802000000000000000   10300001F05104100000000043050000000000000     
100   95050319331315630000000000002970000000002970002000000010410408020957032703338490790802000007581843   1020000200030000   333400010001204104000000281Myanmar Soft-Gate Tech Yangon        MMR11008020957032703330802000000000000000   10300001F05104100000000000624000000000000     
100   95050312498129060000000000000990000000000990002000000010410408020959542954336753200802000007581864   1020000200030000   333400010001204104000000281Myanmar Soft-Gate Tech Yangon        MMR11008020959542954330802000000000000000   10300001F05104100000000000208000000000000     
100   95050311382087030000000000028000000000028000002000000010410408020015024502969056520802000007577711   1030000200030000   3338000100012031040000040022C2P (Myanmar) Co. Ltd Yangon        MMR11008020015024502960802000000000000000   10300001F05104100000000005880000000000000     
100   95050318214455130000000000002970000000002970002000000010410408011824315431616262130802000007577576   1020000200030000   333400010001204104000000281Myanmar Soft-Gate Tech Yangon        MMR11008011824315431610802000000000000000   10300001F05104100000000000624000000000000     
100   95050314995854750000000000011700000000011700002000000010410408020649457390889893700802147191345213   1030000900030000   541119001528190110000001107Ocean MGDTM-Season C-1 YANGONADON    MMR11008020649457390880802000000000000000   10300001F00104100000000002925000000000000     
100   62443100315110470000000000150000000000150000002000000010410408011037180002731516240801000358719491   1030000300030000   541100002346000000000000102CB BANK                MAKRO MYANMAR MMR11008011037180002730801000000000000000   10300001F00104100000000037500000000000000     
100   95050316785465380000000000001980000000001980002000000010410408020518524852836149460802000007579750   1020000200030000   333400010001204104000000281Myanmar Soft-Gate Tech Yangon        MMR11008020518524852830802000000000000000   10300001F05104100000000000416000000000000     
100   62911028202527490000000000038000000000038000002000000010410408010400226430494773800801221311643049   1040001600030000   598320000916000000010000664MMTM - North Dagon     Ygn           MMR11008010400226430490801000000000000000   10300001F00104100000000001140000000000000     
100   95050313710136610000000000009900000000009900002000000010410408021710590247233909370802000751231454   1030000200030000   541188001054000008000000314KBZ BANK               MARKETPLACE - MMR11008021710590247230802000000000000000   10300001 00104100000000002475000000000000     
100   95050314557307430000000000009900000000009900002000000010410408020918314831957008500802000007581618   1020000200030000   333400010001204104000000281Myanmar Soft-Gate Tech Yangon        MMR11008020918314831950802000000000000000   10300001F05104100000000002079000000000000     
100   62911028202195570000000000007135000000007135002000000010410407311011420013154773800731221210001315   1030000600030000   5499000023533157994200016371 STOP S M KAMARKYI    YANGON        MMR11007311011420013150731000000000000000   10300001 00104100000000000728000000000000     
100   62443100315110470000000000204400000000204400002000000010410408011038540002746814080801000358719762   1030000300030000   541100002346000000000000102CB BANK                MAKRO MYANMAR MMR11008011038540002740801000000000000000   10300001F00104100000000051100000000000000     
100   62911028202809060000000000300000000000300000002000000010410408021527295729484773800802000007583419   1030000200030000   333800010001203104000003327KBZPay                 Yangon        MMR11008021527295729480802000000000000000   10300001F05104100000000063000000000000000     
100   95050311184380560000000000000990000000000990002000000010410408021035140514524079570802000007582075   1020000200030000   333400010001204104000000281Myanmar Soft-Gate Tech Yangon        MMR11008021035140514520802000000000000000   10300001F05104100000000000208000000000000     
100   95050328074436620000000000009900000000009900002000000010410408021255132513906377160802000007582722   1020000200030000   333400010001204104000000281Myanmar Soft-Gate Tech Yangon        MMR11008021255132513900802000000000000000   10300001F05104100000000002079000000000000     
100   95030363502824520000000000292674000000292674002000000010410408021559312931954773800802000007583530   1030000200030000   333800010001203104000003327KBZPay                 Yangon        MMR11008021559312931950802000000000000000   10300001F05104100000000061461000000000000     
100   95050312498129060000000000000990000000000990002000000010410408021205083508841334620802000007582506   1020000200030000   333400010001204104000000281Myanmar Soft-Gate Tech Yangon        MMR11008021205083508840802000000000000000   10300001F05104100000000000208000000000000     
100   95050311736839760000000000000990000000000990002000000010410408021158142814841930290802000007582475   1020000200030000   333400010001204104000000281Myanmar Soft-Gate Tech Yangon        MMR11008021158142814840802000000000000000   10300001F05104100000000000208000000000000     
100   95050310494988230000000000034000000000034000002000000010410408021131450145066632450802000007582347   1030000200030000   333800010001203104000003327KBZPay                 Yangon        MMR11008021131450145060802000000000000000   10300001F05104100000000007140000000000000     
100   62911028202446540000000000010750000000010750002000000010410408021852410162494773800802000751237498   1030000200030000   541188001002000008000000008KBZ BANK               MARKETPLACE - MMR11008021852410162490802000000000000000   10300001 00104100000000000645000000000000     
100   62911028202474000000000000016200000000016200002000000010410408010650210000614773800801221313000061   1030000500030000   569120060701000015691200607MIX (JUNCTION CITY)    PTN           MMR11008010650210000610801000000000000000   10300001 00104100000000000972000000000000     
100   62911028202294730000000000079008000000079008002000000010410408010355580004154773800801221310000415   1030000500030000   598320001602000015172200016MAX ENERGY             PTN           MMR11008010355580004150801000000000000000   10300001 00104100000000002370000000000000     
100   62911028202449100000000000120000000000120000002000000010410408010343430003444773800801221310000344   1030000500030000   598320001202000015172200012MAX ENERGY             PTN           MMR11008010343430003440801000000000000000   10300001 00104100000000003600000000000000     
100   95030314863516850000000000006000000000006000002000000010410408020206253625104773800802000007578006   1030000200030000   333800010001203104000003327KBZPay                 Yangon        MMR11008020206253625100802000000000000000   10300001F05104100000000001260000000000000     
100   62911028202533900000000000030000000000030000002000000010410408010348210001124773800801221310000112   1030000500030000   541120129713000045411201297MAKRO MYANMAR          PTN           MMR11008010348210001120801000000000000000   10300001 00104100000000001800000000000000     
100   95050315017843630000000000001980000000001980002000000010410408021251502150746462260802000007582705   1020000200030000   333400010001204104000000281Myanmar Soft-Gate Tech Yangon        MMR11008021251502150740802000000000000000   10300001F05104100000000000416000000000000     
100   95050324082484780000000000019000000000019000002000000010410407300838330030569600210730221108003056   1030000600030000   554100000775315799420000342DENKO  YIN TAW         MANDALAY      MMR11007300838330030560730000000000000000   10300001 00104100000000002280000000000000     
100   62911028202406450000000000002900000000002900002000000010410408010246380015084773800801221309001508   1030000500030000   541120227507000045411202275CITY MART (AHLONE BRAN PTN           MMR11008010246380015080801000000000000000   10300001 00104100000000000174000000000000     
100   95050310213446310000000000045000000000045000002000000010410408020232530253250297310802000007578098   1030000200030000   3338000100012031040000040022C2P (Myanmar) Co. Ltd Yangon        MMR11008020232530253250802000000000000000   10300001F05104100000000009450000000000000     
100   95050313710136610000000000024028000000024028002000000010410408021655070284127724920802000751230392   1030000200030000   541188001059000008000000314KBZ BANK               MARKETPLACE - MMR11008021655070284120802000000000000000   10300001 00104100000000006007000000000000     
100   95050314649264560000000000040000000000040000002000000010410408021333510351292561620802000007582890   1030000200030000   333800010001203104000003327KBZPay                 Yangon        MMR11008021333510351290802000000000000000   10300001F05104100000000008400000000000000     
100   95050315017843630000000000000990000000000990002000000010410408021438090809075781490802000007583192   1020000200030000   333400010001204104000000281Myanmar Soft-Gate Tech Yangon        MMR11008021438090809070802000000000000000   10300001F05104100000000000208000000000000     
100   95050314557307430000000000002970000000002970002000000010410408020038100810330623910802000007577756   1020000200030000   333400010001204104000000281Myanmar Soft-Gate Tech Yangon        MMR11008020038100810330802000000000000000   10300001F05104100000000000624000000000000     
100   95050322318997110000000000050000000000050000002000000010410408020252252225449191060802000007578224   1030000200030000   333800010001203104000003327KBZPay                 Yangon        MMR11008020252252225440802000000000000000   10300001F05104100000000010500000000000000     
100   95050327416134790000000000001980000000001980002000000010410408020850032003231971660802000007581466   1020000200030000   333400010001204104000000281Myanmar Soft-Gate Tech Yangon        MMR11008020850032003230802000000000000000   10300001F05104100000000000416000000000000     
100   95050310126166580000000000100000000000100000002000000010410408021202083208193497680802000007582492   1030000200030000   333800010001203104000003327KBZPay                 Yangon        MMR11008021202083208190802000000000000000   10300001F05104100000000021000000000000000     
100   95050315743141220000000000000990000000000990002000000010410408020723355335870610120802000007580895   1020000200030000   333400010001204104000000281Myanmar Soft-Gate Tech Yangon        MMR11008020723355335870802000000000000000   10300001F05104100000000000208000000000000     
100   62443100313529540000000000006035000000006035002000000010410408021238540854101504810802000007582636   1030000200030000   333800010001203104000003327KBZPay                 Yangon        MMR11008021238540854100802000000000000000   10300001F05104100000000001267000000000000     
100   95030357228658460000000000016660000000016660002000000010410408010745120000694773800801221314000069   1030000500030000   531120155701000045311201557GAMONE PWINT           PTN           MMR11008010745120000690801000000000000000   10300001 00104100000000001000000000000000     
100   95050310427855490000000000000990000000000990002000000010410408021331090109980909140802000007582880   1020000200030000   333400010001204104000000281Myanmar Soft-Gate Tech Yangon        MMR11008021331090109980802000000000000000   10300001F05104100000000000208000000000000     
100   95050328861342240000000000030000000000030000002000000010410408010209590003678861930801221308000367   1030000500030000   598320068302000055983200683MAX ENERGY             PTN           MMR11008010209590003670801000000000000000   10300001 00104100000000003600000000000000     
100   95050324947866880000000000017126000000017126002000000010410407310918160019582671750731221215001958   1030000500030000   531120226707000045311202267OCEAN NORTH POINT      PTN           MMR11007310918160019580731000000000000000   10300001 00104100000000004110000000000000     
100   95050313145843230000000000029210000000029210002000000010410407310403540032409416230731221204003240   1030000600030000   5499000022633157994200015731 STOP S M LAYHTAUKKAN YANGON        MMR11007310403540032400731000000000000000   10300001 00104100000000012415000000000000     
100   62443100306416880000000000055955000000055955002000000010410407310641280019347047320731221206001934   1030000600030000   569100001986315799420001355RENE MYANMAR MP        MAYANGONE     MMR11007310641280019340731000000000000000   10300001 00104100000000013429000000000000     
100   95050319502933380000000000000990000000000990002000000010410408020600443044441241440802000007580164   1020000200030000   333400010001204104000000281Myanmar Soft-Gate Tech Yangon        MMR11008020600443044440802000000000000000   10300001F05104100000000000208000000000000     
100   95050312498129060000000000007920000000007920002000000010410408021007013701135015630802000007581915   1020000200030000   333400010001204104000000281Myanmar Soft-Gate Tech Yangon        MMR11008021007013701130802000000000000000   10300001F05104100000000001663000000000000     
100   62911028202077430000000000000990000000000990002000000010410408021011274127324773800802000007581931   1020000200030000   333400010001204104000000281Myanmar Soft-Gate Tech Yangon        MMR11008021011274127320802000000000000000   10300001F05104100000000000208000000000000     
100   95050327416134790000000000022000000000022000002000000010410408020411284128328913910802000007579114   1030000200030000   3333000100012031040000040282C2P (Myanmar) Co. Ltd Yangon        MMR11008020411284128320802000000000000000   10300001F05104100000000010000000000000000     
100   62911028202809060000000000300000000000300000002000000010410408021525305530374773800802000007583411   1030000200030000   333800010001203104000003327KBZPay                 Yangon        MMR11008021525305530370802000000000000000   10300001F05104100000000063000000000000000     
100   95050313763920110000000000010000000000010000002000000010410408021240261026383157290802000007582643   1030000200030000   333800010001203104000003327KBZPay                 Yangon        MMR11008021240261026380802000000000000000   10300001F05104100000000002100000000000000     
100   95050323667276610000000000039600000000039600002000000010410408021559562956206121880802000007583532   1020000200030000   333400010001204104000000281Myanmar Soft-Gate Tech Yangon        MMR11008021559562956200802000000000000000   10300001F05104100000000008316000000000000     
100   95050310520330790000000000240000000000240000002000000010410408021004373437273448240802000007581897   1030000200030000   333800010001203104000003327KBZPay                 Yangon        MMR11008021004373437270802000000000000000   10300001F05104100000000050400000000000000     
100   95050315005801680000000000012550000000012550002000000010410407310915540019570934180731221215001957   1030000500030000   531120226707000045311202267OCEAN NORTH POINT      PTN           MMR11007310915540019570731000000000000000   10300001 00104100000000003012000000000000     
100   62911028202308280000000000028372000000028372002000000010410407311006190042924773800731221210004292   1030000600030000   5499000022283157994200015671 STOP S M BOGYOKE RD  YANGON        MMR11007311006190042920731000000000000000   10300001 00104100000000002894000000000000     
100   95030318100004530000000000023000000000023000002000000010410407300257390125724773800730221102012572   1030000600030000   554100001218315799420000670DENKO MAWLAMYAING      MON STATE.    MMR11007300257390125720730000000000000000   10300001 00104100000000000690000000000000     
100   62911028202328810000000000015840000000015840002000000010410407300222530024364773800730221102002436   1030000600030000   581200002335315799420001620SIGNATURE FINEDINING 5 YANGON        MMR11007300222530024360730000000000000000   10300001 00104100000000001616000000000000     
100   95050321232876860000000000083000000000083000002000000010410407300309170173645043430730221103017364   1030000600030000   554100002328315799420001235DENKO NAY PYI TAW 2    NAYPYITAW     MMR11007300309170173640730000000000000000   10300001 00104100000000009960000000000000     
100   62911028202499350000000000022700000000022700002000000010410407301112570026764773800730221111002676   1030000600030000   549900001954315799420001324EASY MART 011          HLAING        MMR11007301112570026760730000000000000000   10300001 00104100000000002315000000000000     
100   95050324154190880000000000021000000000021000002000000010410407301003321022484181620730221110102248   1030000600030000   554100000946315799420000471DENKO BAHAN            YANGON        MMR11007301003321022480730000000000000000   10300001 00104100000000002520000000000000     
100   95050321232876860000000000108800000000108800002000000010410407300931310432740110790730221109043274   1030000600030000   554100001865315799420001235DENKO NAY PYI TAW 2    NAYPYITAW     MMR11007300931310432740730000000000000000   10300001 00104100000000013056000000000000     
100   95050312498129060000000000009500000000009500002000000010410408012311114111471304680802000007577658   1030000200030000   3333000100012031040000040282C2P (Myanmar) Co. Ltd Yangon        MMR11008012311114111470802000000000000000   10300001F05104100000000010000000000000000     
100   95030363502824520000000000001000000000001000002000000010410408020211134113124773800802000007578026   1030000200030000   333800010001203104000003327KBZPay                 Yangon        MMR11008020211134113120802000000000000000   10300001F05104100000000000210000000000000     
100   95050315099113150000000000000990000000000990002000000010410408020439060906431367910802000007579406   1020000200030000   333400010001204104000000281Myanmar Soft-Gate Tech Yangon        MMR11008020439060906430802000000000000000   10300001F05104100000000000208000000000000     
100   95050312160676580000000000050000000000050000002000000010410408020440111011569630330802000007579423   1030000200030000   333800010001203104000003327KBZPay                 Yangon        MMR11008020440111011560802000000000000000   10300001F05104100000000010500000000000000     
100   95050315017843630000000000000990000000000990002000000010410408021444211421724043910802000007583225   1020000200030000   333400010001204104000000281Myanmar Soft-Gate Tech Yangon        MMR11008021444211421720802000000000000000   10300001F05104100000000000208000000000000     
100   62911028202777790000000000013000000000013000002000000010410408020845351535024773800802000007581442   1030000200030000   333800010001203104000003327KBZPay                 Yangon        MMR11008020845351535020802000000000000000   10300001F05104100000000002730000000000000     
100   95050312498129060000000000007920000000007920002000000010410408020242551255203006610802000007578169   1020000200030000   333400010001204104000000281Myanmar Soft-Gate Tech Yangon        MMR11008020242551255200802000000000000000   10300001F05104100000000001663000000000000     
100   95050315398070120000000000300000000000300000002000000010410408021008283828571710660802000007581913   1030000200030000   333800010001203104000003327KBZPay                 Yangon        MMR11008021008283828570802000000000000000   10300001F05104100000000063000000000000000     
100   62443100333488440000000000033000000000033000002000000010410407300622180374804107370730221106037480   1030000600030000   554100002085315799420000471DENKO BAHAN            YANGON        MMR11007300622180374800730000000000000000   10300001 00104100000000003960000000000000     
100   62911028202169750000000000018000000000018000002000000010410407300510230734054773800730221105073405   1030000600030000   554100000952315799420000474DENKO N.DAGON - 1      YANGON        MMR11007300510230734050730000000000000000   10300001 00104100000000000540000000000000     
100   62911028202809060000000000100000000000100000002000000010410408021528265826684773800802000007583424   1030000200030000   333800010001203104000003327KBZPay                 Yangon        MMR11008021528265826680802000000000000000   10300001F05104100000000021000000000000000     
100   95050312498129060000000000004950000000004950002000000010410408020235520552296907250802000007578117   1020000200030000   333400010001204104000000281Myanmar Soft-Gate Tech Yangon        MMR11008020235520552290802000000000000000   10300001F05104100000000001040000000000000     
100   95030331386331890000000000020000000000020000002000000010410408011739290929324773800802000007577522   1030000200030000   333800010001203104000003327KBZPay                 Yangon        MMR11008011739290929320802000000000000000   10300001F05104100000000004200000000000000     
100   62911028202750390000000000002970000000002970002000000010410408020346031603354773800802000007578850   1020000200030000   333400010001204104000000281Myanmar Soft-Gate Tech Yangon        MMR11008020346031603350802000000000000000   10300001F05104100000000000624000000000000     
100   62911028202077010000000000011733000000011733002000000010410408021149141914004773800802000007582438   1030000200030000   3333000100012031040000040282C2P (Myanmar) Co. Ltd Yangon        MMR11008021149141914000802000000000000000   10300001F05104100000000010000000000000000     
100   95050315110306410000000000030000000000030000002000000010410408020354272427320892990802000007578951   1030000200030000   333800010001203104000003327KBZPay                 Yangon        MMR11008020354272427320802000000000000000   10300001F05104100000000006300000000000000     
100   95050315919368400000000000057000000000057000002000000010410408020354562456777502920802000007578960   1030000200030000   333800010001203104000003327KBZPay                 Yangon        MMR11008020354562456770802000000000000000   10300001F05104100000000011970000000000000     
100   95050311419479170000000000001000000000001000002000000010410408020811304130161255240802000007581204   1030000200030000   3334000100012031040000040102C2P (Myanmar) Co. Ltd Yangon        MMR11008020811304130160802000000000000000   10300001F05104100000000000210000000000000     
100   62443101076362230000000000071262000000071262002000000010410407291157570006158455360729221011000615   1030000600030000   701100000978315799420000494LOTTE HOTELS & RESORTS YANGON        MMR11007291157570006150729000000000000000   10300001 00104100000000030287000000000000     
100   62911028202421040000000000085000000000085000002000000010410407291333240583514773800729221013058351   1030000600030000   554100000969315799420000481DENKO NORTH OKKALAPA   YANGON        MMR11007291333240583510729000000000000000   10300001 00104100000000002550000000000000     
100   95030301100081330000000000045000000000045000002000000010410408010150531025564773800801221301102556   1030000600030000   554100000946315799420000471DENKO BAHAN            YANGON        MMR11008010150531025560801000000000000000   10300001 00104100000000001350000000000000     
100   62911028202537390000000000033000000000033000002000000010410408011233006787214773800801221319678721   1040001600030000   598320001062000000010000782Yangon Petrol (South/N Ygn           MMR11008011233006787210801000000000000000   10300001F00104100000000000990000000000000     
100   95050310283577350000000000020600000000020600002000000010410408011156050000841395490801221318000084   1030000500030000   541120020901022205411200209ORANGE (HLAING)        PTN           MMR11008011156050000840801000000000000000   10300001 00104100000000005150000000000000     
100   62911028202448030000000000029800000000029800002000000010410408010954110001464773800801221316000146   1030000500030000   581220264201000085812202642BREAD TALK             PTN           MMR11008010954110001460801000000000000000   10300001 00104100000000003040000000000000     
100   62443100323428970000000000234600000000234600002000000010410408010509420000486081320801221311000048   1030000500030000   806220009102024108062200091ARYU INTL HOSPITAL     PTN           MMR11008010509420000480801000000000000000   10300001 00104100000000056304000000000000     
100   95050314775367220000000000020000000000020000002000000010410408020911374137293788620802000007581584   1030000200030000   333800010001203104000003327KBZPay                 Yangon        MMR11008020911374137290802000000000000000   10300001F05104100000000004200000000000000     
100   95050312539675540000000000008910000000008910002000000010410408020721335133567305150802000007580880   1020000200030000   333400010001204104000000281Myanmar Soft-Gate Tech Yangon        MMR11008020721335133560802000000000000000   10300001F05104100000000001871000000000000     
100   95050317003064220000000000001980000000001980002000000010410408020334510451430346760802000007578717   1020000200030000   333400010001204104000000281Myanmar Soft-Gate Tech Yangon        MMR11008020334510451430802000000000000000   10300001F05104100000000000416000000000000     
100   95050317072727910000000000000990000000000990002000000010410408020537100710881312750802000007579931   1020000200030000   333400010001204104000000281Myanmar Soft-Gate Tech Yangon        MMR11008020537100710880802000000000000000   10300001F05104100000000000208000000000000     
100   62443100330048680000000000016715000000016715002000000010410407311224150007709883080731221212000770   1030000600030000   5499000022593157994200015721 STOP S M SU PAUNG    YANGON        MMR11007311224150007700731000000000000000   10300001 00104100000000007104000000000000     
100   62911028202328810000000000011393000000011393002000000010410407300229110024394773800730221102002439   1030000600030000   581200002335315799420001620SIGNATURE FINEDINING 5 YANGON        MMR11007300229110024390730000000000000000   10300001 00104100000000001162000000000000     
100   95050324836095860000000000112748000000112748002000000010410408010711180010283619240801221313001028   1030000500030000   531120231209000045311202312OCEAN OATTARA THIRI    PTN           MMR11008010711180010280801000000000000000   10300001 00104100000000027060000000000000     
100   62911028202313470000000000006050000000006050002000000010410408020939077442264773800802839091607213   1030000900030000   541119001357190110000000977Ocean PZD C 11         YANGONAUNG    MMR11008020939077442260802000000000000000   10300001F00104100000000000363000000000000     
100   62911028202795770000000000030900000000030900002000000010410408011123350001854773800801221317000185   1030000500030000   806220172406013008062201724GRAND HANTHA HOSPITAL  PTN           MMR11008011123350001850801000000000000000   10300001 00104100000000001854000000000000     
100   62911028202142850000000000053400000000053400002000000010410408010625440002084773800801221312000208   1030000500030000   541120020701022205411200207ORANGE (YDG)           PTN           MMR11008010625440002080801000000000000000   10300001 00104100000000003204000000000000     
100   62911028202795770000000000033305000000033305002000000010410408011117200001844773800801221317000184   1030000500030000   806220172406013008062201724GRAND HANTHA HOSPITAL  PTN           MMR11008011117200001840801000000000000000   10300001 00104100000000001998000000000000     
100   95050327185992630000000000018500000000018500002000000010410408011159280000839828100801000358733398   1030000300030000   729800001744000000000001248CB BANK                ART & T8      MMR11008011159280000830801000000000000000   10300001F00104100000000004440000000000000     
100   95050329720609600000000000450000000000450000002000000010410408010950150000027906540801221316000002   1030000500030000   703220082601000017032200826FIT WAY GYM            PTN           MMR11008010950150000020801000000000000000   10300001 00104100000000108000000000000000     
100   95050313699604770000000000096300000000096300002000000010410408010320380000075968650801221309000007   1030000500030000   594420172701000015944201727VJM (ST)               PTN           MMR11008010320380000070801000000000000000   10300001 00104100000000023112000000000000     
100   62911028202662690000000000037800000000037800002000000010410408010329080003404773800801221309000340   1030000500030000   598320001202000015172200012MAX ENERGY             PTN           MMR11008010329080003400801000000000000000   10300001 00104100000000001134000000000000     
100   95050314365758940000000000012200000000012200002000000010410408011308460006248510290801221319000624   1030000500030000   541120203812000015411202038CITY MART SUPERMARKET  PTN           MMR11008011308460006240801000000000000000   10300001 00104100000000003050000000000000     
100   95050310281229490000000000050302000000050302002000000010410408020148391839731765810802000007577943   1030000200030000   333800010001203104000003327KBZPay                 Yangon        MMR11008020148391839730802000000000000000   10300001F05104100000000010563000000000000     
100   95050314995854750000000000034000000000034000002000000010410408020627387384102042970802797571238213   1030000900030000   541119001515190110000001102Ocean MGDTM C-8        YANGONADON    MMR11008020627387384100802000000000000000   10300001F00104100000000008500000000000000     
100   62443100390038980000000000100000000000100000002000000010410407301222170023266841470730221112002326   1030000600030000   554100002170315799420001517DENKO KYAUNG KONE      AYAWADY       MMR11007301222170023260730000000000000000   10300001 00104100000000012000000000000000     
100   62443100301716860000000000000990000000000990002000000010410408021340031003362476520802000007582924   1020000200030000   333400010001204104000000281Myanmar Soft-Gate Tech Yangon        MMR11008021340031003360802000000000000000   10300001F05104100000000000208000000000000     
100   62443100314171200000000000125932000000125932002000000010410408021418560145611680720802000751218616   1030000200030000   541188001081000008000000294KBZ BANK               CITY MART - J MMR11008021418560145610802000000000000000   10300001 00104100000000031483000000000000     
100   62911028202154800000000000021531000000021531002000000010410408020942007443184773800802891121600213   1030000900030000   541119001262190110000000958City Mart PLST C 5     YANGONMYOTHIT MMR11008020942007443180802000000000000000   10300001F00104100000000001292000000000000     
100   62443100313002190000000000050000000000050000002000000010410408010427090209763372030801221304020976   1030000600030000   554100001011315799420000505DENKO HTAN TA PIN      YANGON        MMR11008010427090209760801000000000000000   10300001 00104100000000006000000000000000     
100   62443101001072630000000000095000000000095000002000000010410407310019210329590742120731221200032959   1030000600030000   554100000725315799420000306DENKO MDY - 78         MANDALAY      MMR11007310019210329590731000000000000000   10300001 00104100000000011400000000000000     
