100   95050310427855490000000000002970000000002970002000000010410408031134200420942305920803000007590024   1020000200030000   333400010001204104000000281Myanmar Soft-Gate Tech Yangon        MMR11008031134200420940803000000000000000   10300001F05104100000000000624000000000000     
100   62911028202470870000000000005650000000005650002000000010410408031716460225674773800803000751297963   1030000200030000   541188001080000008000000294KBZ BANK               CITY MART - J MMR11008031716460225670803000000000000000   10300001 00104100000000000339000000000000     
100   62443101076362230000000000040200000000040200002000000010410408031242120296731714060803000751271966   1030000200030000   541188001038000008000000010KBZ BANK               MARKETPLACE - MMR11008031242120296730803000000000000000   10300001 00104100000000010050000000000000     
100   95050313702988830000000000002970000000002970002000000010410408030259072907920412350803000007584713   1020000200030000   333400010001204104000000281Myanmar Soft-Gate Tech Yangon        MMR11008030259072907920803000000000000000   10300001F05104100000000000624000000000000     
100   95050321057500320000000000004950000000004950002000000010410408030306103610296511710803000007584828   1020000200030000   333400010001204104000000281Myanmar Soft-Gate Tech Yangon        MMR11008030306103610290803000000000000000   10300001F05104100000000001040000000000000     
100   62911028202027440000000000018900000000018900002000000010410408030752437687334773800803797221443214   1030000900030000   554119001103190110000000215New Day Energy MYG     YANGONONE     MMR11008030752437687330803000000000000000   10300001F00104100000000000567000000000000     
100   95050316067768680000000000000990000000000990002000000010410408031506423642353085580803000007590917   1020000200030000   333400010001204104000000281Myanmar Soft-Gate Tech Yangon        MMR11008031506423642350803000000000000000   10300001F05104100000000000208000000000000     
100   62911028202809060000000000300000000000300000002000000010410408031311584158274773800803000007590476   1030000200030000   333800010001203104000003327KBZPay                 Yangon        MMR11008031311584158270803000000000000000   10300001F05104100000000063000000000000000     
100   95050316442084030000000000030200000000030200002000000010410408030217314731889185350803000007584433   1030000200030000   333800010001203104000003327KBZPay                 Yangon        MMR11008030217314731880803000000000000000   10300001F05104100000000006342000000000000     
100   95050310902464360000000000002970000000002970002000000010410408031112534253196349130803000007589945   1020000200030000   333400010001204104000000281Myanmar Soft-Gate Tech Yangon        MMR11008031112534253190803000000000000000   10300001F05104100000000000624000000000000     
100   62911028202488950000000000020000000000020000002000000010410408031111507750984773800803263411750214   1030000900030000   554119001100190110000000212New Day Energy PZD     YANGON        MMR11008031111507750980803000000000000000   10300001F00104100000000000600000000000000     
100   95050316785465380000000000001980000000001980002000000010410408031139190919822731380803000007590061   1020000200030000   333400010001204104000000281Myanmar Soft-Gate Tech Yangon        MMR11008031139190919820803000000000000000   10300001F05104100000000000416000000000000     
100   95050317003064220000000000000990000000000990002000000010410408030254492449627192480803000007584673   1020000200030000   333400010001204104000000281Myanmar Soft-Gate Tech Yangon        MMR11008030254492449620803000000000000000   10300001F05104100000000000208000000000000     
100   95050319532433550000000000030000000000030000002000000010410408031312004200586986200803000007590477   1030000200030000   333800010001203104000003327KBZPay                 Yangon        MMR11008031312004200580803000000000000000   10300001F05104100000000006300000000000000     
100   95050326393773020000000000001980000000001980002000000010410408030807323732811458770803000007588467   1020000200030000   333400010001204104000000281Myanmar Soft-Gate Tech Yangon        MMR11008030807323732810803000000000000000   10300001F05104100000000000416000000000000     
100   62911028202809060000000000300000000000300000002000000010410408031312464246674773800803000007590478   1030000200030000   333800010001203104000003327KBZPay                 Yangon        MMR11008031312464246670803000000000000000   10300001F05104100000000063000000000000000     
100   62911028202031710000000000018000000000018000002000000010410408031051077744554773800803886211707214   1030000900030000   554119000346190110000000213New Day Energy SOK     YANGONOKKALAP MMR11008031051077744550803000000000000000   10300001F00104100000000000540000000000000     
100   95050315122972560000000000000990000000000990002000000010410408030539170917674947720803000007586887   1020000200030000   333400010001204104000000281Myanmar Soft-Gate Tech Yangon        MMR11008030539170917670803000000000000000   10300001F05104100000000000208000000000000     
100   95050313374257020000000000100800000000100800002000000010410408031146281628246632010803000007590108   1030000900030000   333800010001202104000003301uab bank               Yangon        MMR11008031146281628240803000000000000000   10300001F05104100000000021168000000000000     
100   95050314979630620000000000000990000000000990002000000010410408031222175217393228160803000007590299   1020000200030000   333400010001204104000000281Myanmar Soft-Gate Tech Yangon        MMR11008031222175217390803000000000000000   10300001F05104100000000000208000000000000     
100   95050318416662540000000000090000000000090000002000000010410408031521245124926135200803000007590955   1030000200030000   333800010001203104000003327KBZPay                 Yangon        MMR11008031521245124920803000000000000000   10300001F05104100000000018900000000000000     
100   95050315701710960000000000120000000000120000002000000010410408030128465846853887510803000007584206   1030000200030000   333800010001203104000003327KBZPay                 Yangon        MMR11008030128465846850803000000000000000   10300001F05104100000000025200000000000000     
100   95050325784857510000000000021950000000021950002000000010410408031043517742202945280803747131751214   1030000900030000   541119001207190110000000948City Mart YK C 5       YANGONAUNG    MMR11008031043517742200803000000000000000   10300001F00104100000000005488000000000000     
100   95050312171561790000000000050000000000050000002000000010410408030514344434097486810803000007586605   1030000200030000   333800010001203104000003327KBZPay                 Yangon        MMR11008030514344434090803000000000000000   10300001F05104100000000010500000000000000     
100   95050311419479170000000000000990000000000990002000000010410408030325045504614263550803000007585183   1020000200030000   333400010001204104000000281Myanmar Soft-Gate Tech Yangon        MMR11008030325045504610803000000000000000   10300001F05104100000000000208000000000000     
100   95050318214455130000000000002970000000002970002000000010410408031238120812177979750803000007590368   1020000200030000   333400010001204104000000281Myanmar Soft-Gate Tech Yangon        MMR11008031238120812170803000000000000000   10300001F05104100000000000624000000000000     
100   62911028202794110000000000010064000000010064002000000010410408030321305130124773800803000007585118   1030000200030000   333800010001203104000003327KBZPay                 Yangon        MMR11008030321305130120803000000000000000   10300001F05104100000000002113000000000000     
100   95050319881452370000000000300000000000300000002000000010410408031224435443547554290803000007590312   1030000200030000   333800010001203104000003327KBZPay                 Yangon        MMR11008031224435443540803000000000000000   10300001F05104100000000063000000000000000     
100   95050326198165350000000000009250000000009250002000000010410408031057527746696277860803021271752214   1030000900030000   541119001250190110000000955City Mart JS C 9       YANGONUT      MMR11008031057527746690803000000000000000   10300001F00104100000000002313000000000000     
100   95050312911050270000000000060000000000060000002000000010410408030315564556059646480803000007585003   1030000200030000   333800010001203104000003327KBZPay                 Yangon        MMR11008030315564556050803000000000000000   10300001F05104100000000012600000000000000     
100   62443100355903280000000000026000000000026000002000000010410408030223245324207447770803000007584459   1030000200030000   333800010001203104000003327KBZPay                 Yangon        MMR11008030223245324200803000000000000000   10300001F05104100000000005460000000000000     
100   62911028202474180000000000016000000000016000002000000010410408030454327638614773800803421241132214   1030000900030000   581219001595190110000001163Shwe Palin KMD         YANGONINDAING MMR11008030454327638610803000000000000000   10300001F00104100000000001632000000000000     
100   62443100330220920000000001001000000001001000002000000010410408030716057677426720950803328461305214   1030000900030000   541119000815190110000000178Pro (1) Global (East D YANGONMYOTHIT MMR11008030716057677420803000000000000000   10300001F00104100000000250250000000000000     
100   62911028202027440000000000025231000000025231002000000010410408031021597734694773800803311511659214   1030000900030000   554119001103190110000000215New Day Energy MYG     YANGONONE     MMR11008031021597734690803000000000000000   10300001F00104100000000000757000000000000     
100   95030301100124990000000000042500000000042500002000000010410408031123057754364773800803462531705214   1030000900030000   541119001175190110000000932OCEAN HTY CITY CARE    YANGONTHARYA  MMR11008031123057754360803000000000000000   10300001F00104100000000002550000000000000     
100   95050310427855490000000000002970000000002970002000000010410408031428525852141809110803000007590781   1020000200030000   333400010001204104000000281Myanmar Soft-Gate Tech Yangon        MMR11008031428525852140803000000000000000   10300001F05104100000000000624000000000000     
100   62443100328070970000000000025600000000025600002000000010410408031044487742474575940803766141748214   1030000900030000   541119001525190110000001105Ocean MGDTM City Care  YANGONADON    MMR11008031044487742470803000000000000000   10300001F00104100000000006400000000000000     
100   95050324947866880000000000047850000000047850002000000010410408031216547768783653620803304461854214   1030000900030000   541119001223190110000000945City Mart TM C 8       YANGONONE     MMR11008031216547768780803000000000000000   10300001F00104100000000011963000000000000     
100   62443100392426520000000000010000000000010000002000000010410408030839580958474920140803000007588767   1030000200030000   333800010001203104000003327KBZPay                 Yangon        MMR11008030839580958470803000000000000000   10300001F05104100000000002100000000000000     
100   95050315150726490000000000001980000000001980002000000010410408030147541754190582540803000007584276   1020000200030000   333400010001204104000000281Myanmar Soft-Gate Tech Yangon        MMR11008030147541754190803000000000000000   10300001F05104100000000000416000000000000     
100   62911028202024130000000000500200000000500200002000000010410408030439490949914773800803000007586197   1030000900030000   333300010001202104000002659MSP                    Yangon        MMR11008030439490949910803000000000000000   10300001F05104100000000010000000000000000     
100   62911028202163480000000000300000000000300000002000000010410408030903123312214773800803000007589018   1030000200030000   333800010001203104000003327KBZPay                 Yangon        MMR11008030903123312210803000000000000000   10300001F05104100000000063000000000000000     
100   95050327416134790000000000001980000000001980002000000010410408031316514651893511040803000007590491   1020000200030000   333400010001204104000000281Myanmar Soft-Gate Tech Yangon        MMR11008031316514651890803000000000000000   10300001F05104100000000000416000000000000     
100   62911028202294570000000000059050000000059050002000000010410408030908037711604773800803071381503214   1030000900030000   541119001266190110000000958City Mart PLST C9      YANGONMYOTHIT MMR11008030908037711600803000000000000000   10300001F00104100000000003543000000000000     
100   95050318694773110000000000050000000000050000002000000010410408030145501550055539990803000007584268   1030000200030000   3338000100012031040000040022C2P (Myanmar) Co. Ltd Yangon        MMR11008030145501550050803000000000000000   10300001F05104100000000010500000000000000     
100   62911028202777790000000000007000000000007000002000000010410408030904343434494773800803000007589034   1030000200030000   333800010001203104000003327KBZPay                 Yangon        MMR11008030904343434490803000000000000000   10300001F05104100000000001470000000000000     
100   95050327936713000000000000030000000000030000002000000010410408030407023702182624850803000007585764   1030000200030000   333800010001203104000003327KBZPay                 Yangon        MMR11008030407023702180803000000000000000   10300001F05104100000000006300000000000000     
100   62911028202777790000000000002000000000002000002000000010410408031354302430754773800803000007590640   1030000200030000   333800010001203104000003327KBZPay                 Yangon        MMR11008031354302430750803000000000000000   10300001F05104100000000000420000000000000     
100   95050312926040930000000000020000000000020000002000000010410408030807023702319806280803000007588465   1030000200030000   333800010001203104000003327KBZPay                 Yangon        MMR11008030807023702310803000000000000000   10300001F05104100000000004200000000000000     
100   95030301100157400000000000003500000000003500002000000010410408031316124612884773800803000007590485   1030000200030000   333800010001203104000003327KBZPay                 Yangon        MMR11008031316124612880803000000000000000   10300001F05104100000000000735000000000000     
100   95050311959900780000000000000990000000000990002000000010410408031414494449001383600803000007590733   1020000200030000   333400010001204104000000281Myanmar Soft-Gate Tech Yangon        MMR11008031414494449000803000000000000000   10300001F05104100000000000208000000000000     
100   95030314863516850000000000030000000000030000002000000010410408021649421942254773800803000007583702   1030000200030000   333800010001203104000003327KBZPay                 Yangon        MMR11008021649421942250803000000000000000   10300001F05104100000000006300000000000000     
100   95030306100096490000000000001980000000001980002000000010410408031401213121524773800803000007590667   1020000200030000   333400010001204104000000281Myanmar Soft-Gate Tech Yangon        MMR11008031401213121520803000000000000000   10300001F05104100000000000416000000000000     
100   62911028202777790000000000002000000000002000002000000010410408031013124312374773800803000007589605   1030000200030000   333800010001203104000003327KBZPay                 Yangon        MMR11008031013124312370803000000000000000   10300001F05104100000000000420000000000000     
100   95030390626214130000000000001980000000001980002000000010410408030349541954634773800803000007585559   1020000200030000   333400010001204104000000281Myanmar Soft-Gate Tech Yangon        MMR11008030349541954630803000000000000000   10300001F05104100000000000416000000000000     
100   95050317248519320000000000003000000000003000002000000010410408031151472147997482980803000007590145   1030000200030000   3338000100012031040000040022C2P (Myanmar) Co. Ltd Yangon        MMR11008031151472147990803000000000000000   10300001F05104100000000000630000000000000     
100   62911028202057620000000000100000000000100000002000000010410408030323445344474773800803000007585158   1030000200030000   333800010001203104000003327KBZPay                 Yangon        MMR11008030323445344470803000000000000000   10300001F05104100000000021000000000000000     
100   62911028202777790000000000002500000000002500002000000010410408030822255225264773800803000007588586   1030000200030000   333800010001203104000003327KBZPay                 Yangon        MMR11008030822255225260803000000000000000   10300001F05104100000000000525000000000000     
100   62911028202473840000000001006000000001006000002000000010410408030439437634614773800803236091143214   1030000900030000   806219001119190110000000900Shwe La Min Hospital L YANGONAW      MMR11008030439437634610803000000000000000   10300001F00104100000000060360000000000000     
100   95050324947866880000000000006200000000006200002000000010410408031219337769464079120803341491833214   1030000900030000   541119001230190110000000947City Mart TM City Care YANGONONE     MMR11008031219337769460803000000000000000   10300001F00104100000000001550000000000000     
100   95050312618592720000000000050000000000050000002000000010410408030646241624112309730803000007587549   1030000200030000   333800010001203104000003327KBZPay                 Yangon        MMR11008030646241624110803000000000000000   10300001F05104100000000010500000000000000     
100   95050318131043910000000000004950000000004950002000000010410408030307113711816426610803000007584856   1020000200030000   333400010001204104000000281Myanmar Soft-Gate Tech Yangon        MMR11008030307113711810803000000000000000   10300001F05104100000000001040000000000000     
100   95050314534800510000000000001980000000001980002000000010410408030813384338207983600803000007588540   1020000200030000   333400010001204104000000281Myanmar Soft-Gate Tech Yangon        MMR11008030813384338200803000000000000000   10300001F05104100000000000416000000000000     
100   95050319938772870000000000000990000000000990002000000010410408031418154815604858770803000007590749   1020000200030000   333400010001204104000000281Myanmar Soft-Gate Tech Yangon        MMR11008031418154815600803000000000000000   10300001F05104100000000000208000000000000     
100   95050314979630620000000000000990000000000990002000000010410408031620145014458550240803000007591114   1020000200030000   333400010001204104000000281Myanmar Soft-Gate Tech Yangon        MMR11008031620145014450803000000000000000   10300001F05104100000000000208000000000000     
100   95050321455580800000000000086178000000086178002000000010410408031024227735294647200803341541622214   1030000900030000   541119001353190110000000977Ocean PZD C 7          YANGONAUNG    MMR11008031024227735290803000000000000000   10300001F00104100000000021545000000000000     
100   62443100328070970000000000022286000000022286002000000010410408031039297740539044650803641091729214   1030000900030000   541119001515190110000001102Ocean MGDTM C-8        YANGONADON    MMR11008031039297740530803000000000000000   10300001F00104100000000005572000000000000     
100   62443100330105920000000000027326000000027326002000000010410408031311598326844930080803221520832684   1040001600030000   541120000557000000010000465Ocean Shwe Gone Daing  Yangon        MMR11008031311598326840803000000000000000   10300001F00104100000000006832000000000000     
100   95050325997730520000000000049353000000049353002000000010410408030746418056160607800803221514805616   1040001600030000   598320000321000000010000309PT Power Petrol Statio Yangon        MMR11008030746418056160803000000000000000   10300001F00104100000000005922000000000000     
100   95050326228858240000000000145650000000145650002000000010410408020701220006734085280802000358877772   1030000300030000   581200002067000000000001382CB BANK                THE SUSHI BAR MMR11008020701220006730802000000000000000   10300001F00104100000000061902000000000000     
100   95050321848852460000000000044000000000044000002000000010410408031414387793214433270803635442038214   1030000900030000   554119000348190110000000215New Day Energy MYG     YANGONONE     MMR11008031414387793210803000000000000000   10300001F00104100000000005280000000000000     
100   95050324411430900000000000033000000000033000002000000010410408030657308030152905400803221513803015   1040001600030000   598320000658000000010000527Shwe Taung Energy (YGN Yangon        MMR11008030657308030150803000000000000000   10300001F00104100000000003960000000000000     
100   62911028202181120000000000035000000000035000002000000010410408020008110253014773800802221400025301   1030000600030000   554100002323315799420000474DENKO N.DAGON - 1      YANGON        MMR11008020008110253010802000000000000000   10300001 00104100000000001050000000000000     
100   62443100311760720000000000055000000000055000002000000010410408020200180381113758690802221402038111   1030000600030000   554100002085315799420000471DENKO BAHAN            YANGON        MMR11008020200180381110802000000000000000   10300001 00104100000000006600000000000000     
100   95050318808284430000000000100000000000100000002000000010410408030757060002011118380803000751284881   1030000200030000   509488001918000008000005406KBZ BANK               SEIN NAN TAW  MMR11008030757060002010803000000000000000   10300001 00104100000000040000000000000000     
100   62911028202595200000000000050968000000050968002000000010410408030534370003274773800803000751267552   1030000200030000   594488000567000008000003791KBZ BANK               J.ESTINA (JUN MMR11008030534370003270803000000000000000   10300001 00104100000000003058000000000000     
100   95030303100034700000000000055450000000055450002000000010410408020910140020794773800802000358900623   1030000300030000   531100000610000000000000408CB BANK                CAPITAL HYPER MMR11008020910140020790802000000000000000   10300001F00104100000000003327000000000000     
100   62443100314171200000000000144984000000144984002000000010410408020823270027983794340802221408002798   1030000600030000   806200002190315799420001535ASIA ROYAL HOSPITAL    YANGON        MMR11008020823270027980802000000000000000   10300001 00104100000000034796000000000000     
100   62911028202074950000000000010058000000010058002000000010410408020619030039084773800802221412003908   1030000500030000   531120226305000045311202263OCEAN SUPER CENTER STJ PTN           MMR11008020619030039080802000000000000000   10300001 00104100000000000604000000000000     
100   95050329023136610000000000021500000000021500002000000010410408020704100032896078150802000358878304   1030000300030000   531100000872000000000000608CB BANK                MGOU-OSGD     MMR11008020704100032890802000000000000000   10300001F00104100000000005160000000000000     
100   95050313715913510000000000011054000000011054002000000010410408031240117775631454920803739101911214   1030000900030000   581219000372190110000000244Jo Jo HotPot(CapitalHy YANGONA       MMR11008031240117775630803000000000000000   10300001F00104100000000004698000000000000     
100   95050310213446310000000000001980000000001980002000000010410408031028575857454221740803000007589707   1020000200030000   333400010001204104000000281Myanmar Soft-Gate Tech Yangon        MMR11008031028575857450803000000000000000   10300001F05104100000000000416000000000000     
100   62911028202499270000000000009350000000009350002000000010410408031154138248584773800803221518824858   1040001600030000   591220000043000000010000041Mingalar Pharmacy      Yangon        MMR11008031154138248580803000000000000000   10300001F00104100000000000561000000000000     
100   95050320335873810000000000032900000000032900002000000010410408031052458186171100720803221517818617   1040001600030000   569920001498000000010001190Hang Ten (San Yeik Nye Ygn           MMR11008031052458186170803000000000000000   10300001F00104100000000007896000000000000     
100   62911028202209440000000000085000000000085000002000000010410408030624578011884773800803221513801188   1040001600030000   598320000658000000010000527Shwe Taung Energy (YGN Yangon        MMR11008030624578011880803000000000000000   10300001F00104100000000002550000000000000     
100   62911028202795770000000000054300000000054300002000000010410408030226307878324773800803221509787832   1040001600030000   806220001356000000010001061Grand Hantha Internati Ygn           MMR11008030226307878320803000000000000000   10300001F00104100000000003258000000000000     
100   95050324104751500000000000219450000000219450002000000010410408031151018245220107140803221518824522   1040001600030000   591220000285000000010000273Shwe Ohh Pharmacy (47t Yangon        MMR11008031151018245220803000000000000000   10300001F00104100000000052668000000000000     
100   62911028202136750000000000037000000000037000002000000010410408031237448293314773800803221519829331   1040001600030000   598320001456000000010001150360 Petro (Bayint Naun Ygn           MMR11008031237448293310803000000000000000   10300001F00104100000000001110000000000000     
100   95030303100034700000000000022035000000022035002000000010410408020914270020804773800802000358901309   1030000300030000   531100000610000000000000408CB BANK                CAPITAL HYPER MMR11008020914270020800802000000000000000   10300001F00104100000000001322000000000000     
100   62911028202590580000000000010150000000010150002000000010410408020632120039104773800802221413003910   1030000500030000   531120226305000045311202263OCEAN SUPER CENTER STJ PTN           MMR11008020632120039100802000000000000000   10300001 00104100000000000609000000000000     
100   95030301100120850000000000008600000000008600002000000010410408020602500024344773800802221412002434   1030000500030000   531120226331000045311202263OCEAN SUPER CENTER STJ PTN           MMR11008020602500024340802000000000000000   10300001 00104100000000000516000000000000     
100   95050314995854750000000000004800000000004800002000000010410408020705050005029383120802000358878479   1030000300030000   581200000839000000000000575CB BANK                YKKO (TMGLD)  MMR11008020705050005020802000000000000000   10300001F00104100000000002040000000000000     
100   95050314995854750000000000023700000000023700002000000010410408020547280004984787920802000358863512   1030000300030000   581200000839000000000000575CB BANK                YKKO (TMGLD)  MMR11008020547280004980802000000000000000   10300001F00104100000000010073000000000000     
100   62911028202611530000000000005200000000005200002000000010410408021358130032984773800802221420003298   1030000500030000   541120230002000045411202300MARKET PLACE BY CITY M PTN           MMR11008021358130032980802000000000000000   10300001 00104100000000000312000000000000     
100   62911028202154640000000000002600000000002600002000000010410408020507100004494773800802221405000449   1030000600030000   5499000024173157994200016871 STOP S M PIN LONE    YANGON        MMR11008020507100004490802000000000000000   10300001 00104100000000000265000000000000     
100   62911028202593140000000000027750000000027750002000000010410408021159050022964773800802221418002296   1030000500030000   541120227503000045411202275CITY MART (AHLONE BRAN PTN           MMR11008021159050022960802000000000000000   10300001 00104100000000001665000000000000     
100   95050322222444890000000000011250000000011250002000000010410408020243290005584659090802000358831415   1030000300030000   531100000750000000000000408CB BANK                CAPITAL HYPER MMR11008020243290005580802000000000000000   10300001F00104100000000002700000000000000     
100   62443100384660050000000000060000000000060000002000000010410408020923220175355611300802221409017535   1030000600030000   554100002329315799420000304DENKO MDY - 62         MANDALAY      MMR11008020923220175350802000000000000000   10300001 00104100000000007200000000000000     
100   95030301100126550000000000026995000000026995002000000010410408021119540253914773800802221411025391   1030000600030000   554100002323315799420000474DENKO N.DAGON - 1      YANGON        MMR11008021119540253910802000000000000000   10300001 00104100000000000810000000000000     
100   95050316067768680000000000000990000000000990002000000010410408031505013501385709740803000007590910   1020000200030000   333400010001204104000000281Myanmar Soft-Gate Tech Yangon        MMR11008031505013501380803000000000000000   10300001F05104100000000000208000000000000     
100   62911028202207380000000000001000000000001000002000000010410408030341201120254773800803000007585437   1030000200030000   333800010001203104000003327KBZPay                 Yangon        MMR11008030341201120250803000000000000000   10300001F05104100000000000210000000000000     
100   95050315259054570000000000000990000000000990002000000010410408030414504450388809300803000007585864   1020000200030000   333400010001204104000000281Myanmar Soft-Gate Tech Yangon        MMR11008030414504450380803000000000000000   10300001F05104100000000000208000000000000     
100   62911028202469980000000000042250000000042250002000000010410408031737130102924773800803000751299699   1030000200030000   541188001074000008000000294KBZ BANK               CITY MART - J MMR11008031737130102920803000000000000000   10300001 00104100000000002535000000000000     
100   95030399304534290000000000162950000000162950002000000010410408020335020000454773800802221410000045   1030000500030000   569120051501000015691200515AMERICAN BRANDED COLLE PTN           MMR11008020335020000450802000000000000000   10300001 00104100000000009777000000000000     
100   95030340340746190000000000045350000000045350002000000010410408020728210011574773800802221413001157   1030000500030000   541120229003000045411202290CITY MART SUPERMARKET  PTN           MMR11008020728210011570802000000000000000   10300001 00104100000000002721000000000000     
100   62911028202610960000000000044313000000044313002000000010410408020529190025854773800802221411002585   1030000500030000   541120226411000045411202264MARKET PLACE MYANMARPL PTN           MMR11008020529190025850802000000000000000   10300001 00104100000000002659000000000000     
100   62911028202666570000000000031311000000031311002000000010410408020745490004934773800802221414000493   1030000500030000   531120156008000045311201560GAMONE PWINT           PTN           MMR11008020745490004930802000000000000000   10300001 00104100000000001879000000000000     
100   95030385550669610000000000013850000000013850002000000010410408021105590007134773800802221417000713   1030000500030000   541120230201000045411202302CITY MART SUPERMARKET  PTN           MMR11008021105590007130802000000000000000   10300001 00104100000000000831000000000000     
100   62911028202474000000000000062700000000062700002000000010410408020308520027654773800802221409002765   1030000500030000   541120226811000045411202268CITY MART WAIZAYANDA   PTN           MMR11008020308520027650802000000000000000   10300001 00104100000000003762000000000000     
100   62911028202503210000000000022000000000022000002000000010410408020800110007604773800802221414000760   1030000500030000   598320001403000015172200014MAX ENERGY             PTN           MMR11008020800110007600802000000000000000   10300001 00104100000000000660000000000000     
100   62911028202790310000000000051000000000051000002000000010410408020240340004934773800802221409000493   1030000500030000   598320001601000015172200016MAX ENERGY             PTN           MMR11008020240340004930802000000000000000   10300001 00104100000000001530000000000000     
100   95050315122972560000000000022000000000022000002000000010410408021041530000144164660802221417000014   1030000500030000   569120109701008205691201097ESCORT (PYAY)          PTN           MMR11008021041530000140802000000000000000   10300001 00104100000000005280000000000000     
100   62443100318296470000000001019500000001019500002000000010410408030437457634129610830803212071145214   1030000900030000   541119000159190110000000084Pro (1) Global (Pazund YANGONIKANAUN MMR11008030437457634120803000000000000000   10300001F00104100000000254875000000000000     
100   62443100382109160000000000100000000000100000002000000010410408030437450745352660510803000007586172   1030000200030000   333800010001203104000003327KBZPay                 Yangon        MMR11008030437450745350803000000000000000   10300001F05104100000000021000000000000000     
100   95030346645639490000000000015500000000015500002000000010410408020532070000854773800802221412000085   1030000500030000   531120155701000045311201557GAMONE PWINT           PTN           MMR11008020532070000850802000000000000000   10300001 00104100000000000930000000000000     
100   62911028202807400000000000030000000000030000002000000010410408030854327706984773800803825241532214   1030000900030000   554119001103190110000000215New Day Energy MYG     YANGONONE     MMR11008030854327706980803000000000000000   10300001F00104100000000000900000000000000     
100   62911028202124530000000000026700000000026700002000000010410408031014037732264773800803182441603214   1030000900030000   541119001207190110000000948City Mart YK C 5       YANGONAUNG    MMR11008031014037732260803000000000000000   10300001F00104100000000001602000000000000     
100   62911028202319090000000000045200000000045200002000000010410408020628170000964773800802221412000096   1030000500030000   591220020501005105912200205MINGALAR PHARMACY      PTN           MMR11008020628170000960802000000000000000   10300001 00104100000000002712000000000000     
100   95030331386331890000000000020000000000020000002000000010410408021703063306634773800803000007583735   1030000200030000   333800010001203104000003327KBZPay                 Yangon        MMR11008021703063306630803000000000000000   10300001F05104100000000004200000000000000     
100   95050314995854750000000000003700000000003700002000000010410408021117260002520107610802000358921903   1030000300030000   581400000720000000000000502CB BANK                KFC HTAUK KYA MMR11008021117260002520802000000000000000   10300001F00104100000000000444000000000000     
100   62911028202703370000000000015000000000015000002000000010410408020759050000054773800802221414000005   1030000500030000   701120141601008207011201416GREEN PARADISE HOTEL   PTN           MMR11008020759050000050802000000000000000   10300001 00104100000000001530000000000000     
100   62911028202154640000000000035550000000035550002000000010410408020728410001354773800802221413000135   1030000500030000   581220024401000015812200244SHWE LAR HOT POT       PTN           MMR11008020728410001350802000000000000000   10300001 00104100000000003626000000000000     
100   62911028202448030000000000002250000000002250002000000010410408020902380002474773800802221415000247   1030000500030000   541120020701022205411200207ORANGE (YDG)           PTN           MMR11008020902380002470802000000000000000   10300001 00104100000000000135000000000000     
100   95030346645639490000000000003430000000003430002000000010410408020521570000674773800802221411000067   1030000500030000   531120155705000045311201557GAMONE PWINT           PTN           MMR11008020521570000670802000000000000000   10300001 00104100000000000206000000000000     
100   95030346645639490000000000001352000000001352002000000010410408020550430000514773800802221412000051   1030000500030000   531120155703000045311201557GAMONE PWINT           PTN           MMR11008020550430000510802000000000000000   10300001 00104100000000000081000000000000     
100   95050317072727910000000000010050000000010050002000000010410408021159410001971845200802000358928759   1030000300030000   531100000568000000000000376CB BANK                CAPITAL HYPER MMR11008021159410001970802000000000000000   10300001F00104100000000002412000000000000     
100   62443100323428970000000000028600000000028600002000000010410408020306490000747028000802221409000074   1030000500030000   591220042601014405912200426SHWE OHH PHARMACY      PTN           MMR11008020306490000740802000000000000000   10300001 00104100000000006864000000000000     
100   95050315066440750000000000024150000000024150002000000010410408021307560001463072200802221419000146   1030000500030000   581220024401000015812200244SHWE LAR HOT POT       PTN           MMR11008021307560001460802000000000000000   10300001 00104100000000010264000000000000     
100   95050323576695670000000000028322000000028322002000000010410408020802070003387524790802221414000338   1030000500030000   531120155802000045311201558GAMONE PWINT           PTN           MMR11008020802070003380802000000000000000   10300001 00104100000000006797000000000000     
100   62911028202169750000000000044650000000044650002000000010410408020619160001704773800802221412000170   1030000500030000   541120020801022205411200208ORANGE (TAMWE)         PTN           MMR11008020619160001700802000000000000000   10300001 00104100000000002679000000000000     
100   62911028202136750000000000150000000000150000002000000010410408020819000000794773800802221414000079   1030000500030000   541120129723000045411201297MAKRO MYANMAR          PTN           MMR11008020819000000790802000000000000000   10300001 00104100000000009000000000000000     
100   95030346645639490000000000106511000000106511002000000010410408020514490001494773800802221411000149   1030000500030000   531120155714000045311201557GAMONE PWINT           PTN           MMR11008020514490001490802000000000000000   10300001 00104100000000006391000000000000     
100   95030301100081330000000000006900000000006900002000000010410408031536400034084773800803000751291175   1030000200030000   541188001312000008000000325KBZ BANK               CITY MART - A MMR11008031536400034080803000000000000000   10300001 00104100000000000414000000000000     
100   95050314567080940000000000081000000000081000002000000010410408030633560356502139540803000007587436   1030000200030000   333800010001203104000003327KBZPay                 Yangon        MMR11008030633560356500803000000000000000   10300001F05104100000000017010000000000000     
100   95050319067144780000000000044450000000044450002000000010410408031109300063601433500803000751262009   1030000200030000   541188001420000008000000401KBZ BANK               OCEAN SUPERCE MMR11008031109300063600803000000000000000   10300001 00104100000000011113000000000000     
100   62443100300412100000000000050600000000050600002000000010410408031150380392693125040803000751266108   1030000200030000   541188001041000008000000010KBZ BANK               MARKETPLACE - MMR11008031150380392690803000000000000000   10300001 00104100000000012650000000000000     
100   95050319220344710000000000015000000000015000002000000010410408031434590459899184900803000007590808   1030000900030000   333400010001202104000002022ACS                    Yangon        MMR11008031434590459890803000000000000000   10300001F05104100000000003150000000000000     
100   95050316563230820000000000050000000000050000002000000010410408031535420542649610360803000007591005   1030000200030000   333800010001203104000003327KBZPay                 Yangon        MMR11008031535420542640803000000000000000   10300001F05104100000000010500000000000000     
100   95050311736839760000000000000990000000000990002000000010410408031138300830743156840803000007590057   1020000200030000   333400010001204104000000281Myanmar Soft-Gate Tech Yangon        MMR11008031138300830740803000000000000000   10300001F05104100000000000208000000000000     
100   62911028202151590000000000021302000000021302002000000010410408031918210202044773800803000751306365   1030000200030000   541188001305000008000000325KBZ BANK               CITY MART - A MMR11008031918210202040803000000000000000   10300001 00104100000000001278000000000000     
100   95050310305100650000000000043000000000043000002000000010410408030237000700731894640803000007584541   1030000200030000   3338000100012031040000040022C2P (Myanmar) Co. Ltd Yangon        MMR11008030237000700730803000000000000000   10300001F05104100000000009030000000000000     
100   95050315615561720000000000000990000000000990002000000010410408030037110711340752740803000007584075   1020000200030000   333400010001204104000000281Myanmar Soft-Gate Tech Yangon        MMR11008030037110711340803000000000000000   10300001F05104100000000000208000000000000     
100   62911028202045260000000000066600000000066600002000000010410408031221300052794773800803000751269473   1030000200030000   541188001079000008000000294KBZ BANK               CITY MART - J MMR11008031221300052790803000000000000000   10300001 00104100000000003996000000000000     
100   95030306100096490000000000001980000000001980002000000010410408031131230123044773800803000007590012   1020000200030000   333400010001204104000000281Myanmar Soft-Gate Tech Yangon        MMR11008031131230123040803000000000000000   10300001F05104100000000000416000000000000     
100   95030394609966640000000000014800000000014800002000000010410408031416590138034773800803000751283680   1030000200030000   541188001022000008000000298KBZ BANK               CITY MART - M MMR11008031416590138030803000000000000000   10300001 00104100000000000888000000000000     
100   95030301100081330000000000058550000000058550002000000010410408031540050201914773800803000751291416   1030000200030000   541188001305000008000000325KBZ BANK               CITY MART - A MMR11008031540050201910803000000000000000   10300001 00104100000000003513000000000000     
100   95050325455962190000000000002970000000002970002000000010410408031231200120017128780803000007590345   1020000200030000   333400010001204104000000281Myanmar Soft-Gate Tech Yangon        MMR11008031231200120010803000000000000000   10300001F05104100000000000624000000000000     
100   95030394609966640000000000006200000000006200002000000010410408031422410128784773800803000751284386   1030000200030000   541188001033000008000000298KBZ BANK               CITY MART - M MMR11008031422410128780803000000000000000   10300001 00104100000000000372000000000000     
100   95050328074436620000000000027950000000027950002000000010410408031754300296923724930803000751301159   1030000200030000   541188001038000008000000010KBZ BANK               MARKETPLACE - MMR11008031754300296920803000000000000000   10300001 00104100000000006988000000000000     
100   95050316786253730000000000130000000000130000002000000010410408031134060406808830760803000007590022   1030000200030000   333800010001203104000003327KBZPay                 Yangon        MMR11008031134060406800803000000000000000   10300001F05104100000000027300000000000000     
100   95050314542175100000000000050000000000050000002000000010410408030234480448293547130803000007584529   1030000200030000   333800010001203104000003327KBZPay                 Yangon        MMR11008030234480448290803000000000000000   10300001F05104100000000010500000000000000     
