100   62911028202581830000000000005300000000005300002000000010410408041251052105644773800804000007596256   1030000200030000   333800010001203104000003327KBZPay                 Yangon        MMR11008041251052105640804000000000000000   10300001F05104100000000001113000000000000     
100   95050315445638160000000000096000000000096000002000000010410408041047231723866579180804000007595771   1030000200030000   333800010001203104000003327KBZPay                 Yangon        MMR11008041047231723860804000000000000000   10300001F05104100000000020160000000000000     
100   95050313732480420000000000002970000000002970002000000010410408040124095409811031820804000007591637   1020000200030000   333400010001204104000000281Myanmar Soft-Gate Tech Yangon        MMR11008040124095409810804000000000000000   10300001F05104100000000000624000000000000     
100   95050320093758110000000000020000000000020000002000000010410408031109110093362873960803221511009336   1030000600030000   554100002139315799420001488DENKO MDY-12           MANDALAY      MMR11008031109110093360803000000000000000   10300001 00104100000000002400000000000000     
100   95050311077567400000000000050000000000050000002000000010410408040910447992667330680804196401544215   1030000900030000   481219000911190110000000720Snoopy Mobile ( 2 )Par YANGON        MMR11008040910447992660804000000000000000   10300001F00104100000000012000000000000000     
100   95050316321163940000000000001980000000001980002000000010410408041027115711608566190804000007595649   1020000200030000   333400010001204104000000281Myanmar Soft-Gate Tech Yangon        MMR11008041027115711600804000000000000000   10300001F05104100000000000416000000000000     
100   62911028202110420000000000064000000000064000002000000010410408030759360007234773800803221514000723   1030000500030000   598320001304000015172200013MAX ENERGY             PTN           MMR11008030759360007230803000000000000000   10300001 00104100000000001920000000000000     
100   95050311184380560000000000000990000000000990002000000010410408040254332433651882740804000007591965   1020000200030000   333400010001204104000000281Myanmar Soft-Gate Tech Yangon        MMR11008040254332433650804000000000000000   10300001F05104100000000000208000000000000     
100   62911028202537390000000000075000000000075000002000000010410408040606158768394773800804221613876839   1040001600030000   598320001062000000010000782Yangon Petrol (South/N Ygn           MMR11008040606158768390804000000000000000   10300001F00104100000000002250000000000000     
100   62911028202154640000000000055072000000055072002000000010410408030254180000064773800803221509000006   1030000500030000   541120275910000085411202759MAXI WHOLESALE         PTN           MMR11008030254180000060803000000000000000   10300001 00104100000000003304000000000000     
100   95050311382087030000000000001980000000001980002000000010410408041433120312995067970804000007596691   1020000200030000   333400010001204104000000281Myanmar Soft-Gate Tech Yangon        MMR11008041433120312990804000000000000000   10300001F05104100000000000416000000000000     
100   95030317922148660000000000041300000000041300002000000010410408041506390279194773800804000751366960   1030000200030000   541188001001000008000000008KBZ BANK               MARKETPLACE - MMR11008041506390279190804000000000000000   10300001 00104100000000002478000000000000     
100   62911028202538950000000000013000000000013000002000000010410408040406543654834773800804000007592839   1030000200030000   333800010001203104000003327KBZPay                 Yangon        MMR11008040406543654830804000000000000000   10300001F05104100000000002730000000000000     
100   62911028202907490000000000038817000000038817002000000010410408031031280029464773800803221517002946   1030000500030000   541120229102000045411202291CITY MART YANKIN       PTN           MMR11008031031280029460803000000000000000   10300001 00104100000000002329000000000000     
100   62911028202074950000000000022000000000022000002000000010410408030306221029484773800803221503102948   1030000600030000   554100000946315799420000471DENKO BAHAN            YANGON        MMR11008030306221029480803000000000000000   10300001 00104100000000000660000000000000     
100   95050327192897240000000000000990000000000990002000000010410408040527335733989358940804000007593686   1020000200030000   333400010001204104000000281Myanmar Soft-Gate Tech Yangon        MMR11008040527335733980804000000000000000   10300001F05104100000000000208000000000000     
100   62911028202809060000000000300000000000300000002000000010410408040959182918804773800804000007595505   1030000200030000   333800010001203104000003327KBZPay                 Yangon        MMR11008040959182918800804000000000000000   10300001F05104100000000063000000000000000     
100   95050324104751500000000000032250000000032250002000000010410408031201290020890532680803221518002089   1030000500030000   541120227603000045411202276CITY MART ( 47 BRANCH  PTN           MMR11008031201290020890803000000000000000   10300001 00104100000000008063000000000000     
100   62443101065883000000000000034400000000034400002000000010410408030904400023217168300803221515002321   1030000500030000   541120227503000045411202275CITY MART (AHLONE BRAN PTN           MMR11008030904400023210803000000000000000   10300001 00104100000000008600000000000000     
100   62911028202163630000000000026000000000026000002000000010410408030402440622144773800803221504062214   1030000600030000   554100001756315799420001137DENKO NORTH DAGON 2    YANGON        MMR11008030402440622140803000000000000000   10300001 00104100000000000780000000000000     
100   62443101083052160000000000150000000000150000002000000010410408030926340018964203710803000359097654   1030000300030000   541100002372000000000000102CB BANK                MAKRO MYANMAR MMR11008030926340018960803000000000000000   10300001F00104100000000037500000000000000     
100   62911028202328810000000000033440000000033440002000000010410408030159490037034773800803221501003703   1030000600030000   581200002268315799420001575SIGNATURE FINEDINING 4 YANGON        MMR11008030159490037030803000000000000000   10300001 00104100000000003411000000000000     
100   95050329352979980000000000040000000000040000002000000010410408031246090429511029460803221512042951   1030000600030000   554100001155315799420000607DENKO NPT 1            NAYPYITAW.    MMR11008031246090429510803000000000000000   10300001 00104100000000004800000000000000     
100   62911028202595200000000000029900000000029900002000000010410408031011570028304773800803221510002830   1030000600030000   806200002190315799420001535ASIA ROYAL HOSPITAL    YANGON        MMR11008031011570028300803000000000000000   10300001 00104100000000001794000000000000     
100   95050324850150480000000000078000000000078000002000000010410408030800100250924508450803221508025092   1030000600030000   554100001212315799420000664DENKO TA TAR OO        TA TAR OO     MMR11008030800100250920803000000000000000   10300001 00104100000000009360000000000000     
100   62911028202366010000000000033000000000033000002000000010410408030926120435804773800803221509043580   1030000600030000   554100001865315799420001235DENKO NAY PYI TAW 2    NAYPYITAW     MMR11008030926120435800803000000000000000   10300001 00104100000000000990000000000000     
100   95030393174848800000000000022862000000022862002000000010410408030448260019344773800803221511001934   1030000500030000   541120231305000045411202313CITY MART (AYEYARWON)  PTN           MMR11008030448260019340803000000000000000   10300001 00104100000000001372000000000000     
100   62443100387665370000000000005915000000005915002000000010410408030943040020714288810803221516002071   1030000500030000   541120227603000045411202276CITY MART ( 47 BRANCH  PTN           MMR11008030943040020710803000000000000000   10300001 00104100000000001479000000000000     
100   62911028202181120000000000030000000000030000002000000010410408020739350470254773800802221407047025   1030000600030000   554100001106315799420000564DENKO PHYUU            PHYUU         MMR11008020739350470250802000000000000000   10300001 00104100000000000900000000000000     
100   95030301100126550000000000017000000000017000002000000010410408031045128178294773800803221517817829   1040001600030000   598320001065000000010000785Yangon Petrol (Thudama Ygn           MMR11008031045128178290803000000000000000   10300001F00104100000000000510000000000000     
100   62911028202416760000000000050000000000050000002000000010410408030844148088184773800803221515808818   1040001600030000   598320000854000000010000608Terminal Petrol Statio Yangon        MMR11008030844148088180803000000000000000   10300001F00104100000000001500000000000000     
100   62443100330048680000000000033000000000033000002000000010410408031130490007089681680803221518000708   1030000500030000   598320001103000015172200011MAX ENERGY             PTN           MMR11008031130490007080803000000000000000   10300001 00104100000000003960000000000000     
100   95050312549035820000000000050000000000050000002000000010410408041129205920768782660804000007595923   1030000200030000   333800010001203104000003327KBZPay                 Yangon        MMR11008041129205920760804000000000000000   10300001F05104100000000010500000000000000     
100   62911028202693960000000000038000000000038000002000000010410408040416167899804773800804329461016215   1030000900030000   541119001255190110000000956City Mart JS Season C  YANGONUT      MMR11008040416167899800804000000000000000   10300001F00104100000000002280000000000000     
100   95030366960186690000000000078450000000078450002000000010410408040709047954044773800804186391304215   1030000900030000   573219001181190110000000937UNIQUE Hlaing          YANGON        MMR11008040709047954040804000000000000000   10300001F00104100000000004707000000000000     
100   62443100390038980000000000093000000000093000002000000010410408040620348777090380090804221613877709   1040001600030000   598320001065000000010000785Yangon Petrol (Thudama Ygn           MMR11008040620348777090804000000000000000   10300001F00104100000000011160000000000000     
100   95030363090756500000000000030000000000030000002000000010410408040717038808514773800804221614880851   1040001600030000   598320000660000000010000529Shwe Taung Energy (NPT Naypyitaw     MMR11008040717038808510804000000000000000   10300001F00104100000000000900000000000000     
100   62443100390038980000000000066000000000066000002000000010410408041034048935419559900804221617893541   1040001600030000   598320000830000000010000596Regency Petrol Station Ygn           MMR11008041034048935410804000000000000000   10300001F00104100000000007920000000000000     
100   95050313411345710000000000002970000000002970002000000010410408040922435243711089080804000007595326   1020000200030000   333400010001204104000000281Myanmar Soft-Gate Tech Yangon        MMR11008040922435243710804000000000000000   10300001F05104100000000000624000000000000     
100   95050316321163940000000000000990000000000990002000000010410408041035220522504808230804000007595695   1020000200030000   333400010001204104000000281Myanmar Soft-Gate Tech Yangon        MMR11008041035220522500804000000000000000   10300001F05104100000000000208000000000000     
100   62911028202464020000000000041000000000041000002000000010410408040908248869334773800804221616886933   1040001600030000   591220001007000000010000737Shwe Ohh Pharmacy (Tan Ygn           MMR11008040908248869330804000000000000000   10300001F00104100000000002460000000000000     
100   62911028202147150000000000094000000000094000002000000010410408040630298783224773800804221613878322   1040001600030000   806220001354000000010001061Grand Hantha Internati Ygn           MMR11008040630298783220804000000000000000   10300001F00104100000000005640000000000000     
100   95030323161862590000000000092000000000092000002000000010410408040801558831854773800804221615883185   1040001600030000   598320001457000000010001151360 Petro (Ayar Wun)   Ygn           MMR11008040801558831850804000000000000000   10300001F00104100000000002760000000000000     
100   95050323233042810000000000000990000000000990002000000010410408041414064406095493480804000007596588   1020000200030000   333400010001204104000000281Myanmar Soft-Gate Tech Yangon        MMR11008041414064406090804000000000000000   10300001F05104100000000000208000000000000     
100   62911028202464020000000000004250000000004250002000000010410408040913238872534773800804221616887253   1040001600030000   591220001007000000010000737Shwe Ohh Pharmacy (Tan Ygn           MMR11008040913238872530804000000000000000   10300001F00104100000000000255000000000000     
100   95050319938772870000000000000990000000000990002000000010410408041412234223892018310804000007596586   1020000200030000   333400010001204104000000281Myanmar Soft-Gate Tech Yangon        MMR11008041412234223890804000000000000000   10300001F05104100000000000208000000000000     
100   62911028202027440000000000088876000000088876002000000010410408040653327948744773800804903231332215   1030000900030000   541119001329190110000000971Ocean Junction NPT C 7 NAYPYITAW     MMR11008040653327948740804000000000000000   10300001F00104100000000005333000000000000     
100   62911028202684060000000000018500000000018500002000000010410408040726118292444773800804056117477998   1040001400030000   806210000094028062100000766Yoma OUE Pun Hlaing Ho pital  Yoma O MMR11008040726118292440804000000000000000   10300001 00104100000000001110000000000000     
100   95050314557307430000000000002970000000002970002000000010410408041229125912661309970804000007596170   1020000200030000   333400010001204104000000281Myanmar Soft-Gate Tech Yangon        MMR11008041229125912660804000000000000000   10300001F05104100000000000624000000000000     
100   62911028202680670000000000025650000000025650002000000010410408040923088878594773800804221616887859   1040001600030000   591220000293000000010000281Shwe Ohh Pharmacy (Pea Yangon        MMR11008040923088878590804000000000000000   10300001F00104100000000001539000000000000     
100   95050312926040930000000000015000000000015000002000000010410408041512274227912089620804000007596831   1030000200030000   333800010001203104000003327KBZPay                 Yangon        MMR11008041512274227910804000000000000000   10300001F05104100000000003150000000000000     
100   62911028202350170000000000010000000000010000002000000010410408041317454745304773800804000007596372   1030000200030000   333800010001203104000003327KBZPay                 Yangon        MMR11008041317454745300804000000000000000   10300001F05104100000000002100000000000000     
100   95050315099113150000000000000990000000000990002000000010410408040126205620024081440804000007591642   1020000200030000   333400010001204104000000281Myanmar Soft-Gate Tech Yangon        MMR11008040126205620020804000000000000000   10300001F05104100000000000208000000000000     
100   95050328137327770000000000050000000000050000002000000010410408040228125812605854680804000007591838   1030000200030000   333800010001203104000003327KBZPay                 Yangon        MMR11008040228125812600804000000000000000   10300001F05104100000000010500000000000000     
100   62911028202443730000000000033500000000033500002000000010410408040351048685804773800804221610868580   1040001600030000   591220000262000000010000250Shwe Ohh Pharmacy (SC- Yangon        MMR11008040351048685800804000000000000000   10300001F00104100000000002010000000000000     
100   62443100315110470000000000002500000000002500002000000010410408041313014301761735430804000007596351   1030000900030000   333400010001202104000002022ACS                    Yangon        MMR11008041313014301760804000000000000000   10300001F05104100000000000525000000000000     
100   95050316321163940000000000002970000000002970002000000010410408041025255525417076260804000007595643   1020000200030000   333400010001204104000000281Myanmar Soft-Gate Tech Yangon        MMR11008041025255525410804000000000000000   10300001F05104100000000000624000000000000     
100   95050316321163940000000000001980000000001980002000000010410408041029155915833814510804000007595661   1020000200030000   333400010001204104000000281Myanmar Soft-Gate Tech Yangon        MMR11008041029155915830804000000000000000   10300001F05104100000000000416000000000000     
100   62911028202677880000000000024950000000024950002000000010410408040437207905884773800804614071120215   1030000900030000   591219000899190110000000708Shwe Ohh Pharmacy St 3 YANGONONE     MMR11008040437207905880804000000000000000   10300001F00104100000000001497000000000000     
100   62911028202684060000000000045000000000045000002000000010410408040412238695764773800804221611869576   1040001600030000   598320001170000000010000527Shwe Taung Energy (YGN Yangon        MMR11008040412238695760804000000000000000   10300001F00104100000000001350000000000000     
100   62911028202471600000000000026200000000026200002000000010410408040916008874174773800804221616887417   1040001600030000   591220001007000000010000737Shwe Ohh Pharmacy (Tan Ygn           MMR11008040916008874170804000000000000000   10300001F00104100000000001572000000000000     
100   95050310281229490000000000050300000000050300002000000010410408040120465046493230520804000007591627   1030000200030000   333800010001203104000003327KBZPay                 Yangon        MMR11008040120465046490804000000000000000   10300001F05104100000000010563000000000000     
100   95050312119522920000000000098784000000098784002000000010410408040721325132285290940804000007594588   1030000900030000   333800010001202104000003301uab bank               Yangon        MMR11008040721325132280804000000000000000   10300001F05104100000000020745000000000000     
100   62911028202291270000000000024300000000024300002000000010410408040830387980994773800804603001538215   1030000900030000   541119000141190110000000083SeinGayHarParami Cente YANGON        MMR11008040830387980990804000000000000000   10300001F00104100000000001458000000000000     
100   62911028202595200000000000150000000000150000002000000010410408030616260001014773800803221512000101   1030000500030000   541120129723000045411201297MAKRO MYANMAR          PTN           MMR11008030616260001010803000000000000000   10300001 00104100000000009000000000000000     
100   62443100390038980000000000040276000000040276002000000010410408030853380003057083200803000359092059   1030000300030000   581200001801000000000001289CB BANK                SHWE KAUNG (S MMR11008030853380003050803000000000000000   10300001F00104100000000017118000000000000     
100   62911028202151910000000000042000000000042000002000000010410408031114510005814773800803221517000581   1030000500030000   598320001202000015172200012MAX ENERGY             PTN           MMR11008031114510005810803000000000000000   10300001 00104100000000001260000000000000     
100   95050327456215690000000000130800000000130800002000000010410408031023370002180746580803000359106899   1030000300030000   541100002358000000000000102CB BANK                MAKRO MYANMAR MMR11008031023370002180803000000000000000   10300001F00104100000000032700000000000000     
100   95050325814892040000000000037999000000037999002000000010410408030638040005309004760803221513000530   1030000500030000   598320002004000015172200020MAX ENERGY             PTN           MMR11008030638040005300803000000000000000   10300001 00104100000000004560000000000000     
100   62911028202207790000000000085000000000085000002000000010410408030312030005274773800803221509000527   1030000500030000   598320001904000015172200019MAX ENERGY             PTN           MMR11008030312030005270803000000000000000   10300001 00104100000000002550000000000000     
100   62911028202595200000000000021600000000021600002000000010410408030440440002434773800803221511000243   1030000500030000   503920036610000015039200366PRO-1 HOME CENTER      PTN           MMR11008030440440002430803000000000000000   10300001 00104100000000001296000000000000     
100   62911028202446540000000000038000000000038000002000000010410408031135370006424773800803221518000642   1030000500030000   598320002104000015172200021MAX ENERGY             PTN           MMR11008031135370006420803000000000000000   10300001 00104100000000001140000000000000     
100   95030301504712580000000000033828000000033828002000000010410408030525480000344773800803221511000034   1030000500030000   598320005201000015172200052MAX ENERGY             PTN           MMR11008030525480000340803000000000000000   10300001 00104100000000001015000000000000     
100   62911028202473840000000000033900000000033900002000000010410408031018280003874773800803221516000387   1030000500030000   541120229501000045411202295CITY EXPRESS (MCS - 10 PTN           MMR11008031018280003870803000000000000000   10300001 00104100000000002034000000000000     
100   62911028202147720000000000030000000000030000002000000010410408030300210006314773800803221509000631   1030000500030000   598320001604000015172200016MAX ENERGY             PTN           MMR11008030300210006310803000000000000000   10300001 00104100000000000900000000000000     
100   62911028202151340000000000005700000000005700002000000010410408030759310001924773800803221514000192   1030000500030000   581220264201000085812202642BREAD TALK             PTN           MMR11008030759310001920803000000000000000   10300001 00104100000000000581000000000000     
100   95050325784857510000000000001700000000001700002000000010410408031052420004225001400803221517000422   1030000500030000   541120233201000045411202332CITY EXPRESS (MCS - 68 PTN           MMR11008031052420004220803000000000000000   10300001 00104100000000000425000000000000     
100   62911028202294570000000000039155000000039155002000000010410408030747190002464773800803221514000246   1030000500030000   581220106701000015812201067THAI 47                PTN           MMR11008030747190002460803000000000000000   10300001 00104100000000003994000000000000     
100   62911028202154800000000000090550000000090550002000000010410408030409080001264773800803221510000126   1030000500030000   591220013501014405912200135SHWE OHH PHARMACY      PTN           MMR11008030409080001260803000000000000000   10300001 00104100000000005433000000000000     
100   62911028202045260000000000014850000000014850002000000010410408030320100000954773800803221509000095   1030000500030000   591220211101014405912202111SHWE OHH PHARMACY      PTN           MMR11008030320100000950803000000000000000   10300001 00104100000000000891000000000000     
100   62911028202010920000000000018250000000018250002000000010410408020352390018584773800802221410001858   1030000500030000   541120203902000015411202039NEIGHBOURHOOD          PTN           MMR11008020352390018580802000000000000000   10300001 00104100000000001095000000000000     
100   62911028202112400000000000014000000000014000002000000010410408030641100008244773800803221513000824   1030000500030000   598320001204000015172200012MAX ENERGY             PTN           MMR11008030641100008240803000000000000000   10300001 00104100000000000420000000000000     
100   62911028202530930000000000051900000000051900002000000010410408030650550007944773800803000751276730   1030000200030000   581288000746000008000004038KBZ BANK               CAESAR CAF? & MMR11008030650550007940803000000000000000   10300001 00104100000000005294000000000000     
100   62911028202611530000000000023310000000023310002000000010410408031128280012394773800803221517001239   1030000500030000   541120230001000045411202300MARKET PLACE BY CITY M PTN           MMR11008031128280012390803000000000000000   10300001 00104100000000001399000000000000     
100   62911028202667150000000000026000000000026000002000000010410408030557310006544773800803221512000654   1030000500030000   598320001604000015172200016MAX ENERGY             PTN           MMR11008030557310006540803000000000000000   10300001 00104100000000000780000000000000     
100   62911028202684060000000000013816000000013816002000000010410408030524460012454773800803221511001245   1030000500030000   541120229002000045411202290CITY MART SUPERMARKET  PTN           MMR11008030524460012450803000000000000000   10300001 00104100000000000829000000000000     
100   62911028202402980000000000018700000000018700002000000010410408041338570031984773800804000751355907   1030000200030000   541188001029000008000000298KBZ BANK               CITY MART - M MMR11008041338570031980804000000000000000   10300001 00104100000000001122000000000000     
100   62911028202133940000000000044946000000044946002000000010410408042013590202464773800804000751388393   1030000200030000   541188001305000008000000325KBZ BANK               CITY MART - A MMR11008042013590202460804000000000000000   10300001 00104100000000002697000000000000     
100   95050310332595380000000000000990000000000990002000000010410408040139080908034932450804000007591696   1020000200030000   333400010001204104000000281Myanmar Soft-Gate Tech Yangon        MMR11008040139080908030804000000000000000   10300001F05104100000000000208000000000000     
100   95050315099113150000000000000990000000000990002000000010410408041358542854188117680804000007596527   1020000200030000   333400010001204104000000281Myanmar Soft-Gate Tech Yangon        MMR11008041358542854180804000000000000000   10300001F05104100000000000208000000000000     
100   95050326393773020000000000002970000000002970002000000010410408041334380438215636060804000007596430   1020000200030000   333400010001204104000000281Myanmar Soft-Gate Tech Yangon        MMR11008041334380438210804000000000000000   10300001F05104100000000000624000000000000     
100   95050310427855490000000000000990000000000990002000000010410408041406253625111592850804000007596544   1020000200030000   333400010001204104000000281Myanmar Soft-Gate Tech Yangon        MMR11008041406253625110804000000000000000   10300001F05104100000000000208000000000000     
100   95050326426352250000000000070000000000070000002000000010410408041201253125627338030804000007596065   1030000200030000   333800010001203104000003327KBZPay                 Yangon        MMR11008041201253125620804000000000000000   10300001F05104100000000014700000000000000     
100   95050313145843230000000000050000000000050000002000000010410408040605553555336649640804000007593985   1030000200030000   333800010001203104000003327KBZPay                 Yangon        MMR11008040605553555330804000000000000000   10300001F05104100000000010500000000000000     
100   95050317003064220000000000000990000000000990002000000010410408040852182218375858980804000007595161   1020000200030000   333400010001204104000000281Myanmar Soft-Gate Tech Yangon        MMR11008040852182218370804000000000000000   10300001F05104100000000000208000000000000     
100   95050312224678430000000000001980000000001980002000000010410408040406263626886018310804000007592833   1020000200030000   333400010001204104000000281Myanmar Soft-Gate Tech Yangon        MMR11008040406263626880804000000000000000   10300001F05104100000000000416000000000000     
100   95050310585042220000000000050400000000050400002000000010410408041213114311270458960804000007596119   1030000200030000   333800010001203104000003327KBZPay                 Yangon        MMR11008041213114311270804000000000000000   10300001F05104100000000010584000000000000     
100   62911028202349600000000000024000000000024000002000000010410408041213114311704773800804000007596120   1030000200030000   3338000100012031040000040022C2P (Myanmar) Co. Ltd Yangon        MMR11008041213114311700804000000000000000   10300001F05104100000000005040000000000000     
100   95050319096688200000000000047000000000047000002000000010410408040506433643829018550804000007593510   1030000200030000   333800010001203104000003327KBZPay                 Yangon        MMR11008040506433643820804000000000000000   10300001F05104100000000009870000000000000     
100   95050312360118350000000000016000000000016000002000000010410408041206313631414713780804000007596085   1030000200030000   333800010001203104000003327KBZPay                 Yangon        MMR11008041206313631410804000000000000000   10300001F05104100000000003360000000000000     
100   95050315701710960000000000000990000000000990002000000010410408041410414041144642470804000007596570   1020000200030000   333400010001204104000000281Myanmar Soft-Gate Tech Yangon        MMR11008041410414041140804000000000000000   10300001F05104100000000000208000000000000     
100   95050317461467820000000000058350000000058350002000000010410408041010224022111369680804000007595556   1030000200030000   333800010001203104000003327KBZPay                 Yangon        MMR11008041010224022110804000000000000000   10300001F05104100000000012254000000000000     
100   95030301954234130000000000010000000000010000002000000010410408040345221522114773800804000007592596   1030000200030000   333800010001203104000003327KBZPay                 Yangon        MMR11008040345221522110804000000000000000   10300001F05104100000000002100000000000000     
100   95050325630928770000000000000990000000000990002000000010410408040240391039296137560804000007591900   1020000200030000   333400010001204104000000281Myanmar Soft-Gate Tech Yangon        MMR11008040240391039290804000000000000000   10300001F05104100000000000208000000000000     
100   62911028202581830000000000070500000000070500002000000010410408041244491449974773800804000007596225   1030000200030000   333800010001203104000003327KBZPay                 Yangon        MMR11008041244491449970804000000000000000   10300001F05104100000000014805000000000000     
100   62911028202809060000000000300000000000300000002000000010410408041000323032524773800804000007595511   1030000200030000   333800010001203104000003327KBZPay                 Yangon        MMR11008041000323032520804000000000000000   10300001F05104100000000063000000000000000     
100   95050316896526710000000000100000000000100000002000000010410408040354412441712287870804000007592679   1030000200030000   333800010001203104000003327KBZPay                 Yangon        MMR11008040354412441710804000000000000000   10300001F05104100000000021000000000000000     
100   95030306100096490000000000000990000000000990002000000010410408041207313731834773800804000007596094   1020000200030000   333400010001204104000000281Myanmar Soft-Gate Tech Yangon        MMR11008041207313731830804000000000000000   10300001F05104100000000000208000000000000     
100   62443100313002190000000000030000000000030000002000000010410408041156272627014288320804000007596041   1030000900030000   333400010001202104000002022ACS                    Yangon        MMR11008041156272627010804000000000000000   10300001F05104100000000006300000000000000     
100   95050319974529540000000000021000000000021000002000000010410408031758192819821599860804000007591301   1030000200030000   333800010001203104000003327KBZPay                 Yangon        MMR11008031758192819820804000000000000000   10300001F05104100000000004410000000000000     
100   62443100394939820000000000100000000000100000002000000010410408041115554555602043980804000007595888   1030000200030000   333800010001203104000003327KBZPay                 Yangon        MMR11008041115554555600804000000000000000   10300001F05104100000000021000000000000000     
100   62911028202110420000000000023850000000023850002000000010410408041618580195484773800804000751373708   1030000200030000   541188001020000008000000298KBZ BANK               CITY MART - M MMR11008041618580195480804000000000000000   10300001 00104100000000001431000000000000     
100   62911028202169750000000000215379000000215379002000000010410408041453100297654773800804000751365529   1030000200030000   541188001003000008000000008KBZ BANK               MARKETPLACE - MMR11008041453100297650804000000000000000   10300001 00104100000000012923000000000000     
100   62443100313002190000000000070000000000070000002000000010410408040840421042826355750804000007595107   1030000200030000   333800010001203104000003327KBZPay                 Yangon        MMR11008040840421042820804000000000000000   10300001F05104100000000014700000000000000     
100   62911028202809060000000000100000000000100000002000000010410408041049031903854773800804000007595783   1030000200030000   333800010001203104000003327KBZPay                 Yangon        MMR11008041049031903850804000000000000000   10300001F05104100000000021000000000000000     
100   95050319156544340000000000098400000000098400002000000010410408040155302530071103090804000007591721   1030000200030000   333800010001203104000003327KBZPay                 Yangon        MMR11008040155302530070804000000000000000   10300001F05104100000000020664000000000000     
100   95050319178423260000000000030000000000030000002000000010410408040413184318161656530804000007592913   1030000200030000   333800010001203104000003327KBZPay                 Yangon        MMR11008040413184318160804000000000000000   10300001F05104100000000006300000000000000     
100   62911028202163480000000000100000000000100000002000000010410408040735410541944773800804000007594697   1030000200030000   333800010001203104000003327KBZPay                 Yangon        MMR11008040735410541940804000000000000000   10300001F05104100000000021000000000000000     
100   95050316321163940000000000000990000000000990002000000010410408041036470647448467920804000007595706   1020000200030000   333400010001204104000000281Myanmar Soft-Gate Tech Yangon        MMR11008041036470647440804000000000000000   10300001F05104100000000000208000000000000     
100   95050314979630620000000000000990000000000990002000000010410408041339320932394217010804000007596454   1020000200030000   333400010001204104000000281Myanmar Soft-Gate Tech Yangon        MMR11008041339320932390804000000000000000   10300001F05104100000000000208000000000000     
100   95050315158357300000000000020000000000020000002000000010410408041253292329718685720804000007596268   1030000200030000   333800010001203104000003327KBZPay                 Yangon        MMR11008041253292329710804000000000000000   10300001F05104100000000004200000000000000     
100   95050327416134790000000000001980000000001980002000000010410408041345031503100741840804000007596469   1020000200030000   333400010001204104000000281Myanmar Soft-Gate Tech Yangon        MMR11008041345031503100804000000000000000   10300001F05104100000000000416000000000000     
100   95050315701710960000000000000990000000000990002000000010410408041407423742611167300804000007596555   1020000200030000   333400010001204104000000281Myanmar Soft-Gate Tech Yangon        MMR11008041407423742610804000000000000000   10300001F05104100000000000208000000000000     
100   95050316717221100000000000001980000000001980002000000010410408041131490149353037700804000007595956   1020000200030000   333400010001204104000000281Myanmar Soft-Gate Tech Yangon        MMR11008041131490149350804000000000000000   10300001F05104100000000000416000000000000     
100   62911028202809060000000000300000000000300000002000000010410408041048001800664773800804000007595775   1030000200030000   333800010001203104000003327KBZPay                 Yangon        MMR11008041048001800660804000000000000000   10300001F05104100000000063000000000000000     
100   95050311226945870000000000110000000000110000002000000010410408040505193519920671040804000007593498   1030000200030000   333800010001203104000003327KBZPay                 Yangon        MMR11008040505193519920804000000000000000   10300001F05104100000000023100000000000000     
100   95050313843656520000000000001980000000001980002000000010410408040135450545321457280804000007591681   1020000200030000   333400010001204104000000281Myanmar Soft-Gate Tech Yangon        MMR11008040135450545320804000000000000000   10300001F05104100000000000416000000000000     
100   95050313145843230000000000100000000000100000002000000010410408040250542054548407620804000007591951   1030000200030000   333800010001203104000003327KBZPay                 Yangon        MMR11008040250542054540804000000000000000   10300001F05104100000000021000000000000000     
