100   95050316067768680000000000001980000000001980002000000010410408070725275527993503440807000007609741   1020000200030000   333400010001204104000000281Myanmar Soft-Gate Tech Yangon        MMR11008070725275527990807000000000000000   10300001F05104100000000000416000000000000     
100   95050313079290890000000000019500000000019500002000000010410408070410518691107439730807259401051218   1030000900030000   541119000117190110000000078Sein Gay Har Kan Thar  YANGONOKKALAP MMR11008070410518691100807000000000000000   10300001F00104100000000004875000000000000     
100   95050320205194540000000000110100000000110100002000000010410408070701428726316638210807363311342218   1030000900030000   541119001261190110000000958City Mart PLST C 4     YANGONMYOTHIT MMR11008070701428726310807000000000000000   10300001F00104100000000027525000000000000     
100   62911028202027440000000000077000000000077000002000000010410408070854448752674773800807992241544218   1030000900030000   554119001103190110000000215New Day Energy MYG     YANGONONE     MMR11008070854448752670807000000000000000   10300001F00104100000000002310000000000000     
100   62911028202154800000000000052070000000052070002000000010410408071042538780714773800807829121753218   1030000900030000   541119001247190110000000955City Mart JS C 6       YANGONUT      MMR11008071042538780710807000000000000000   10300001F00104100000000003124000000000000     
100   95050327192897240000000000007150000000007150002000000010410408071053038783502688130807020231703218   1030000900030000   541119000147190110000000083SeinGayHarParami Cente YANGON        MMR11008071053038783500807000000000000000   10300001F00104100000000001788000000000000     
100   95030301100126550000000000025850000000025850002000000010410408070636198721394773800807085061319218   1030000900030000   541119000146190110000000083SeinGayHarParami Cente YANGON        MMR11008070636198721390807000000000000000   10300001F00104100000000001551000000000000     
100   62911028202793040000000000009200000000009200002000000010410408070544138710194773800807400141213218   1030000900030000   591219001419190110000001023Life Plus Store 24     YANGONOKKALAP MMR11008070544138710190807000000000000000   10300001F00104100000000000552000000000000     
100   62443100350052510000000000300850000000300850002000000010410408060810040000879682180806221814000087   1030000500030000   581220044201022605812200442HOT POT CITY (AHLONE)  PTN           MMR11008060810040000870806000000000000000   10300001 00104100000000127862000000000000     
100   95050321084131410000000000035308000000035308002000000010410408061126230001272682420806221817000127   1030000500030000   598320001701000015172200017MAX ENERGY             PTN           MMR11008061126230001270806000000000000000   10300001 00104100000000004237000000000000     
100   62911028202136750000000000031000000000031000002000000010410408061131180001684773800806221818000168   1030000500030000   598320001902000015172200019MAX ENERGY             PTN           MMR11008061131180001680806000000000000000   10300001 00104100000000000930000000000000     
100   95050310102690960000000000038700000000038700002000000010410408060713300000154980010806221813000015   1030000500030000   531120155807000045311201558GAMONE PWINT           PTN           MMR11008060713300000150806000000000000000   10300001 00104100000000009288000000000000     
100   95050322715181550000000000093947000000093947002000000010410408070906368755495312330807166361536218   1030000900030000   581219000006190110000000004Jo Jo Hot Pot Junction YANGONUT      MMR11008070906368755490807000000000000000   10300001F00104100000000039928000000000000     
100   62911028202294570000000000009240000000009240002000000010410408061325210000434773800806221819000043   1030000500030000   581320123101000045813201231MALIBU BAR             PTN           MMR11008061325210000430806000000000000000   10300001 00104100000000000942000000000000     
100   62911028202616250000000000195750000000195750002000000010410408060807170034254773800806221814003425   1030000500030000   531120226314000045311202263OCEAN SUPER CENTER STJ PTN           MMR11008060807170034250806000000000000000   10300001 00104100000000011745000000000000     
100   95050327192897240000000000045900000000045900002000000010410408070938088764120610160807736081608218   1030000900030000   541119001219190110000000945City Mart TM C 4       YANGONONE     MMR11008070938088764120807000000000000000   10300001F00104100000000011475000000000000     
100   62911028202464020000000000014150000000014150002000000010410408060906080020814773800806221815002081   1030000500030000   541120203705000015411202037CITY MART SUPERMARKET  PTN           MMR11008060906080020810806000000000000000   10300001 00104100000000000849000000000000     
100   95050328861342240000000000030000000000030000002000000010410408070640448722222737570807134101344218   1030000900030000   554119001103190110000000215New Day Energy MYG     YANGONONE     MMR11008070640448722220807000000000000000   10300001F00104100000000003600000000000000     
100   62911028202484810000000000030000000000030000002000000010410408070927358760894773800807511571535218   1030000900030000   554119001100190110000000212New Day Energy PZD     YANGON        MMR11008070927358760890807000000000000000   10300001F00104100000000000900000000000000     
100   95050329720609600000000000120000000000120000002000000010410408061255560711656497960806221819071165   1040001600030000   799720001421000000010001118Fit Way Gym-1          Ygn           MMR11008061255560711650806000000000000000   10300001F00104100000000028800000000000000     
100   95050315413187270000000000043700000000043700002000000010410408060827310002921334660806000359666850   1030000300030000   564100002646000000000001826CB BANK                HAPPY BABY ST MMR11008060827310002920806000000000000000   10300001F00104100000000010488000000000000     
100   62443101076362230000000000057000000000057000002000000010410408071033218778453744940807683031721218   1030000900030000   554119001103190110000000215New Day Energy MYG     YANGONONE     MMR11008071033218778450807000000000000000   10300001F00104100000000006840000000000000     
100   95050324444444460000000000048832000000048832002000000010410408070626038719551085080807986561203218   1030000900030000   581219001121190110000000902Yoon Kitchen           YANGONONE     MMR11008070626038719550807000000000000000   10300001F00104100000000020754000000000000     
100   62443100363668680000000000020300000000020300002000000010410408061152080000217469670806221818000021   1030000500030000   591220012901014405912200129SHWE OHH PHARMACY      PTN           MMR11008061152080000210806000000000000000   10300001 00104100000000004872000000000000     
100   62443100306045460000000000118860000000118860002000000010410408061336150000339547640806221820000033   1030000500030000   581220123001000045812201230YOON KITCHEN           PTN           MMR11008061336150000330806000000000000000   10300001 00104100000000050516000000000000     
100   62443100300743690000000000010504000000010504002000000010410408071042448780668787490807825121744218   1030000900030000   581219000981190110000000788Jo Jo Hot Pot (KTY)    YANGONARTAUNG MMR11008071042448780660807000000000000000   10300001F00104100000000004464000000000000     
100   62443100300743690000000000031200000000031200002000000010410408061112420013672355820806221817001367   1030000500030000   541120229107000045411202291CITY MART YANKIN       PTN           MMR11008061112420013670806000000000000000   10300001 00104100000000007800000000000000     
100   62443100333488440000000000045000000000045000002000000010410408060252420000068504620806221809000006   1030000500030000   594420080601000015944200806VJM (MP)               PTN           MMR11008060252420000060806000000000000000   10300001 00104100000000010800000000000000     
100   62911028202668300000000000020000000000020000002000000010410408060204050001194773800806221808000119   1030000500030000   598320001304000015172200013MAX ENERGY             PTN           MMR11008060204050001190806000000000000000   10300001 00104100000000000600000000000000     
100   62911028202169750000000000052700000000052700002000000010410408060605180000394773800806221812000039   1030000500030000   503920036611000015039200366PRO-1 HOME CENTER      PTN           MMR11008060605180000390806000000000000000   10300001 00104100000000003162000000000000     
100   95050310305440490000000000035310000000035310002000000010410408060954030006423412630806000359679839   1030000300030000   531100000544000000000000376CB BANK                CAPITAL HYPER MMR11008060954030006420806000000000000000   10300001F00104100000000008474000000000000     
100   62911028202331290000000000059500000000059500002000000010410408061010430000164773800806221816000016   1030000500030000   591220014201014405912200142SHWE OHH PHARMACY      PTN           MMR11008061010430000160806000000000000000   10300001 00104100000000003570000000000000     
100   95050328035424750000000000099000000000099000002000000010410408040727160000274794120804221613000027   1030000500030000   481220100501000014812201005LINN IT AND MOBILE (PY PTN           MMR11008040727160000270804000000000000000   10300001 00104100000000023760000000000000     
100   95050315259054570000000000008000000000008000002000000010410408070345241524351801510807000007608894   1030000200030000   333800010001203104000003327KBZPay                 Yangon        MMR11008070345241524350807000000000000000   10300001F05104100000000001680000000000000     
100   95050310427855490000000000002970000000002970002000000010410408062258562856215270950807000007608359   1020000200030000   333400010001204104000000281Myanmar Soft-Gate Tech Yangon        MMR11008062258562856210807000000000000000   10300001F05104100000000000624000000000000     
100   95050314570621780000000000003960000000003960002000000010410408071026435643650354870807000007610334   1020000200030000   333400010001204104000000281Myanmar Soft-Gate Tech Yangon        MMR11008071026435643650807000000000000000   10300001F05104100000000000832000000000000     
100   95050316067768680000000000000990000000000990002000000010410408071341151115363198710807000007610997   1020000200030000   333400010001204104000000281Myanmar Soft-Gate Tech Yangon        MMR11008071341151115360807000000000000000   10300001F05104100000000000208000000000000     
100   62443100378093870000000000032243000000032243002000000010410408070301518678661971700807627310951218   1030000900030000   541119001206190110000000948City Mart YK C 4       YANGONAUNG    MMR11008070301518678660807000000000000000   10300001F00104100000000008061000000000000     
100   95050324200302760000000000047850000000047850002000000010410408070526458706259517700807148561145218   1030000900030000   541119001207190110000000948City Mart YK C 5       YANGONAUNG    MMR11008070526458706250807000000000000000   10300001F00104100000000011963000000000000     
100   95050327386436040000000000026140000000026140002000000010410408071809180064169553350807000751568176   1030000200030000   541188001420000008000000401KBZ BANK               OCEAN SUPERCE MMR11008071809180064160807000000000000000   10300001 00104100000000006535000000000000     
100   62443100300743690000000000015900000000015900002000000010410408061139180000570689550806000359695572   1030000300030000   531100001402000000000000956CB BANK                G & G CONVENI MMR11008061139180000570806000000000000000   10300001F00104100000000003816000000000000     
100   95050320996331370000000000076000000000076000002000000010410408060334430001005454940806221810000100   1030000500030000   598320068302000055983200683MAX ENERGY             PTN           MMR11008060334430001000806000000000000000   10300001 00104100000000009120000000000000     
100   62911028202530930000000000096024000000096024002000000010410408060620210001524773800806221812000152   1030000500030000   598320001603000015172200016MAX ENERGY             PTN           MMR11008060620210001520806000000000000000   10300001 00104100000000002881000000000000     
100   62911028202103410000000000035000000000035000002000000010410408060518590001814773800806221811000181   1030000500030000   598320001404000015172200014MAX ENERGY             PTN           MMR11008060518590001810806000000000000000   10300001 00104100000000001050000000000000     
100   62911028202743960000000000046339000000046339002000000010410408061152210000194773800806221818000019   1030000500030000   598320005101000015172200051MAX ENERGY             PTN           MMR11008061152210000190806000000000000000   10300001 00104100000000001390000000000000     
100   62443100315110470000000000229000000000229000002000000010410408060841070000293072240806000359668838   1030000300030000   573200001861000000000001335CB BANK                WAI YAN SHOWR MMR11008060841070000290806000000000000000   10300001F00104100000000054960000000000000     
100   95050324154190880000000000016000000000016000002000000010410408061206510002489207250806221818000248   1030000500030000   598320001403000015172200014MAX ENERGY             PTN           MMR11008061206510002480806000000000000000   10300001 00104100000000001920000000000000     
100   62911028202142850000000000046450000000046450002000000010410408060138430000324773800806221808000032   1030000500030000   541120020701022205411200207ORANGE (YDG)           PTN           MMR11008060138430000320806000000000000000   10300001 00104100000000002787000000000000     
100   95050314557307430000000000000990000000000990002000000010410408070415554555345787250807000007609039   1020000200030000   333400010001204104000000281Myanmar Soft-Gate Tech Yangon        MMR11008070415554555340807000000000000000   10300001F05104100000000000208000000000000     
100   95050311959900780000000000000990000000000990002000000010410408071615284528682943420807000007611421   1020000200030000   333400010001204104000000281Myanmar Soft-Gate Tech Yangon        MMR11008071615284528680807000000000000000   10300001F05104100000000000208000000000000     
100   95050326155679180000000000005940000000005940002000000010410408071546591659428326350807000007611356   1020000200030000   333400010001204104000000281Myanmar Soft-Gate Tech Yangon        MMR11008071546591659420807000000000000000   10300001F05104100000000001247000000000000     
100   95050313079290890000000000006608000000006608002000000010410408070355228687945191570807081251022218   1030000900030000   541119000116190110000000078Sein Gay Har Kan Thar  YANGONOKKALAP MMR11008070355228687940807000000000000000   10300001F00104100000000001652000000000000     
100   95050317942168830000000000010000000000010000002000000010410408071108283828726078190807000007610474   1030000200030000   333800010001203104000003327KBZPay                 Yangon        MMR11008071108283828720807000000000000000   10300001F05104100000000002100000000000000     
100   62911028202296140000000000055000000000055000002000000010410408070808400001994773800807000751556410   1030000200030000   569988002649000008000007169KBZ BANK               SKECHERS-PROM MMR11008070808400001990807000000000000000   10300001 00104100000000003300000000000000     
100   62443100300743690000000000004400000000004400002000000010410408071044410009482482280807000751543546   1030000200030000   541188001288000008000001475KBZ BANK               CITY CARE STA MMR11008071044410009480807000000000000000   10300001 00104100000000001100000000000000     
100   62443100355903280000000000028750000000028750002000000010410408070935030034963624190807000751540000   1030000200030000   541188001452000008000000391KBZ BANK               OCEAN SUPER C MMR11008070935030034960807000000000000000   10300001 00104100000000007188000000000000     
100   95050320335873810000000000022500000000022500002000000010410408060555130010606121920806000359643316   1030000300030000   591200000214000000000000111CB BANK                MEDICARE STOR MMR11008060555130010600806000000000000000   10300001F00104100000000005400000000000000     
100   95050318710290270000000000012760000000012760002000000010410408061121510001041029930806221817000104   1030000500030000   581220199401000085812201994LITTLE BOSS MAWTIN     PTN           MMR11008061121510001040806000000000000000   10300001 00104100000000005423000000000000     
100   62911028202442250000000000026000000000026000002000000010410408061050380000094773800806221817000009   1030000500030000   581220225801000015812202258STEAK ON THE STREET    PTN           MMR11008061050380000090806000000000000000   10300001 00104100000000002652000000000000     
100   62911028202312890000000000025000000000025000002000000010410408060525340000814773800806221811000081   1030000500030000   598320001701000015172200017MAX ENERGY             PTN           MMR11008060525340000810806000000000000000   10300001 00104100000000000750000000000000     
100   62443100325551180000000000027000000000027000002000000010410408060407410001075540040806221810000107   1030000500030000   598320002104000015172200021MAX ENERGY             PTN           MMR11008060407410001070806000000000000000   10300001 00104100000000003240000000000000     
100   62443100373945130000000000030000000000030000002000000010410408061129390001274419990806221817000127   1030000500030000   598320015601000045983200156REGENCY PETROL STATION PTN           MMR11008061129390001270806000000000000000   10300001 00104100000000003600000000000000     
100   62911028202407100000000000070500000000070500002000000010410408060859000000464773800806221815000046   1030000500030000   541120129721000045411201297MAKRO MYANMAR          PTN           MMR11008060859000000460806000000000000000   10300001 00104100000000004230000000000000     
100   95050323749862420000000000014008000000014008002000000010410408060240040000945029450806221809000094   1030000500030000   598320001303000015172200013MAX ENERGY             PTN           MMR11008060240040000940806000000000000000   10300001 00104100000000001681000000000000     
100   62911028202698420000000000026600000000026600002000000010410408071214140209514773800807000751548043   1030000200030000   541188001049000008000000010KBZ BANK               MARKETPLACE - MMR11008071214140209510807000000000000000   10300001 00104100000000001596000000000000     
100   95030302100015820000000000034600000000034600002000000010410408071607080143674773800807000751561216   1030000200030000   541188001065000008000000314KBZ BANK               MARKETPLACE - MMR11008071607080143670807000000000000000   10300001 00104100000000002076000000000000     
100   95050323233042810000000000001980000000001980002000000010410408061830250025931880890807000007608235   1020000200030000   333400010001204104000000281Myanmar Soft-Gate Tech Yangon        MMR11008061830250025930807000000000000000   10300001F05104100000000000416000000000000     
100   95050310213446310000000000010000000000010000002000000010410408070434260426004219860807000007609107   1030000200030000   3338000100012031040000040022C2P (Myanmar) Co. Ltd Yangon        MMR11008070434260426000807000000000000000   10300001F05104100000000002100000000000000     
100   62911028202715330000000000042988000000042988002000000010410408071125020017174773800807000751545450   1030000200030000   541188001422000008000000401KBZ BANK               OCEAN SUPERCE MMR11008071125020017170807000000000000000   10300001 00104100000000002579000000000000     
100   95050327306623390000000000023550000000023550002000000010410408071934520085144851190807000751571429   1030000200030000   541188001316000008000000306KBZ BANK               CITY MART - S MMR11008071934520085140807000000000000000   10300001 00104100000000005888000000000000     
100   62911028202598430000000000242923000000242923002000000010410408071842320075254773800807000751569736   1030000200030000   541188001005000008000000008KBZ BANK               MARKETPLACE - MMR11008071842320075250807000000000000000   10300001 00104100000000014575000000000000     
100   95050322921717110000000000036466000000036466002000000010410408070950030165832056800807000751540706   1030000200030000   541188001002000008000000008KBZ BANK               MARKETPLACE - MMR11008070950030165830807000000000000000   10300001 00104100000000009117000000000000     
100   62443100333488440000000000030700000000030700002000000010410408060339330001953802450806000359621052   1030000300030000   581200001773000000000001274CB BANK                THE MANHATTAN MMR11008060339330001950806000000000000000   10300001F00104100000000013048000000000000     
100   95030394609966640000000000014100000000014100002000000010410408060457230000694773800806221811000069   1030000500030000   541120020902022205411200209ORANGE (HLAING)        PTN           MMR11008060457230000690806000000000000000   10300001 00104100000000000846000000000000     
100   62911028202294570000000000053000000000053000002000000010410408061403580000744773800806221820000074   1030000500030000   598320041902000055983200419MAX ENERGY             PTN           MMR11008061403580000740806000000000000000   10300001 00104100000000001590000000000000     
100   62911028202440680000000000039600000000039600002000000010410408061123090001004773800806221817000100   1030000500030000   581220044201022605812200442HOT POT CITY (AHLONE)  PTN           MMR11008061123090001000806000000000000000   10300001 00104100000000004039000000000000     
100   62911028202105150000000000060600000000060600002000000010410408060356130002904773800806221810000290   1030000500030000   541120229105000045411202291CITY MART YANKIN       PTN           MMR11008060356130002900806000000000000000   10300001 00104100000000003636000000000000     
100   62443100300743690000000000033450000000033450002000000010410408061111550013664008300806221817001366   1030000500030000   541120229107000045411202291CITY MART YANKIN       PTN           MMR11008061111550013660806000000000000000   10300001 00104100000000008363000000000000     
100   95050324622440820000000000044600000000044600002000000010410408060855390014474809820806221815001447   1030000500030000   541120227605000045411202276CITY MART ( 47 BRANCH  PTN           MMR11008060855390014470806000000000000000   10300001 00104100000000011150000000000000     
100   62911028202027440000000000055000000000055000002000000010410408060015250000124773800806221806000012   1030000500030000   701120027201000107011200272HOTEL MAX NAYPYITAW    PTN           MMR11008060015250000120806000000000000000   10300001 00104100000000005610000000000000     
100   62911028202555020000000000067050000000067050002000000010410408071202100032424773800807000751547429   1030000200030000   541188001287000008000000472KBZ BANK               NEIGHBOURHOOD MMR11008071202100032420807000000000000000   10300001 00104100000000004023000000000000     
100   95050313817486860000000000022100000000022100002000000010410408071825460053829127870807000751568988   1030000200030000   541188001424000008000000401KBZ BANK               OCEAN SUPERCE MMR11008071825460053820807000000000000000   10300001 00104100000000005525000000000000     
100   95030396594260770000000000051600000000051600002000000010410408071717110060454773800807000751565337   1030000200030000   541188001440000008000000401KBZ BANK               OCEAN SUPERCE MMR11008071717110060450807000000000000000   10300001 00104100000000003096000000000000     
100   95050310080023760000000000050000000000050000002000000010410408070433391144209262410807221911114420   1040001600030000   598320001127000000010000608Terminal Petrol Statio Yangon        MMR11008070433391144200807000000000000000   10300001F00104100000000006000000000000000     
100   62911028202197630000000000005000000000005000002000000010410408070624101220334773800807221913122033   1040001600030000   598320001456000000010001150360 Petro (Bayint Naun Ygn           MMR11008070624101220330807000000000000000   10300001F00104100000000000150000000000000     
100   95050314248677090000000000060000000000060000002000000010410408070044121412851625600807000007608405   1030000200030000   333800010001203104000003327KBZPay                 Yangon        MMR11008070044121412850807000000000000000   10300001F05104100000000012600000000000000     
100   95050323670692380000000000010000000000010000002000000010410408070111364136383363190807000007608445   1030000200030000   333800010001203104000003327KBZPay                 Yangon        MMR11008070111364136380807000000000000000   10300001F05104100000000002100000000000000     
100   95050316067768680000000000000990000000000990002000000010410408071342451245921546220807000007611012   1020000200030000   333400010001204104000000281Myanmar Soft-Gate Tech Yangon        MMR11008071342451245920807000000000000000   10300001F05104100000000000208000000000000     
100   95050325925517520000000000021800000000021800002000000010410408060447040000195284750806221811000019   1030000500030000   503920036611000015039200366PRO-1 HOME CENTER      PTN           MMR11008060447040000190806000000000000000   10300001 00104100000000005232000000000000     
100   62443100363668680000000000022000000000022000002000000010410408061213530001614164710806221818000161   1030000500030000   598320001301000015172200013MAX ENERGY             PTN           MMR11008061213530001610806000000000000000   10300001 00104100000000002640000000000000     
100   62443100333488440000000000715000000000715000002000000010410408060838450000066377210806221815000006   1030000500030000   573320111001000015733201110YAMAHA                 PTN           MMR11008060838450000060806000000000000000   10300001 00104100000000171600000000000000     
100   62443100333488440000000000037200000000037200002000000010410408060943350000390448040806221816000039   1030000500030000   581220040401022605812200404HOT POT COUNTRY        PTN           MMR11008060943350000390806000000000000000   10300001 00104100000000015810000000000000     
100   62911028202499680000000000094700000000094700002000000010410408060553010000464773800806221812000046   1030000500030000   531120155714000045311201557GAMONE PWINT           PTN           MMR11008060553010000460806000000000000000   10300001 00104100000000005682000000000000     
100   95050328861342240000000000020000000000020000002000000010410408060318080000968079140806221809000096   1030000500030000   598320068302000055983200683MAX ENERGY             PTN           MMR11008060318080000960806000000000000000   10300001 00104100000000002400000000000000     
100   62911028202792960000000000025000000000025000002000000010410408061402420002194773800806221820000219   1030000500030000   598320001603000015172200016MAX ENERGY             PTN           MMR11008061402420002190806000000000000000   10300001 00104100000000000750000000000000     
100   62443101061229100000000000025500000000025500002000000010410408060606500008881249570806000359645287   1030000300030000   581400003096000000000002186CB BANK                KRISPY KREME  MMR11008060606500008880806000000000000000   10300001F00104100000000003060000000000000     
100   95050311419479170000000000001000000000001000002000000010410408061702123212780143320807000007608101   1030000200030000   3334000100012031040000040102C2P (Myanmar) Co. Ltd Yangon        MMR11008061702123212780807000000000000000   10300001F05104100000000000210000000000000     
100   95050314557307430000000000001980000000001980002000000010410408070718224822131765860807000007609708   1020000200030000   333400010001204104000000281Myanmar Soft-Gate Tech Yangon        MMR11008070718224822130807000000000000000   10300001F05104100000000000416000000000000     
100   95050310332595380000000000000990000000000990002000000010410408070738320832388460890807000007609776   1020000200030000   333400010001204104000000281Myanmar Soft-Gate Tech Yangon        MMR11008070738320832380807000000000000000   10300001F05104100000000000208000000000000     
100   62911028202142930000000000020000000000020000002000000010410408070758491282684773800807221914128268   1040001600030000   598320000659000000010000528Shwe Taung Energy (YGN Yangon        MMR11008070758491282680807000000000000000   10300001F00104100000000000600000000000000     
100   95050325925517520000000000019006000000019006002000000010410408071134131459289468260807221918145928   1040001600030000   598320000310000000010000298PT Power Petrol Statio Yangon        MMR11008071134131459280807000000000000000   10300001F00104100000000002281000000000000     
100   95050310427855490000000000003960000000003960002000000010410408071413524352404936280807000007611100   1020000200030000   333400010001204104000000281Myanmar Soft-Gate Tech Yangon        MMR11008071413524352400807000000000000000   10300001F05104100000000000832000000000000     
100   95030394609966640000000000001500000000001500002000000010410408070502168701024773800807812321116218   1030000900030000   581219000083190110000000058313C Bakery            YANGON        MMR11008070502168701020807000000000000000   10300001F00104100000000000153000000000000     
100   95050314950595330000000000002000000000002000002000000010410408070335010501872141900807000007608850   1030000200030000   3338000100012031040000040022C2P (Myanmar) Co. Ltd Yangon        MMR11008070335010501870807000000000000000   10300001F05104100000000000420000000000000     
100   62911028202442250000000000059700000000059700002000000010410408060152560000014773800806221808000001   1030000500030000   541120089605006305411200896SPIRITS                PTN           MMR11008060152560000010806000000000000000   10300001 00104100000000003582000000000000     
100   62911028202743960000000000025118000000025118002000000010410408061231430000204773800806221819000020   1030000500030000   598320005101000015172200051MAX ENERGY             PTN           MMR11008061231430000200806000000000000000   10300001 00104100000000000754000000000000     
100   95050316901496590000000000003650000000003650002000000010410408060951310000261760140806221816000026   1030000500030000   541120045801009205411200458126 STORE              PTN           MMR11008060951310000260806000000000000000   10300001 00104100000000000913000000000000     
100   62911028202294570000000000112715000000112715002000000010410408061326030000444773800806221819000044   1030000500030000   581320123101000045813201231MALIBU BAR             PTN           MMR11008061326030000440806000000000000000   10300001 00104100000000011497000000000000     
100   95050310739614720000000000093500000000093500002000000010410408060427530077767277610806000359628929   1030000300030000   806200000197000000000000097CB BANK                AUNG YADANA H MMR11008060427530077760806000000000000000   10300001F00104100000000022440000000000000     
100   62911028202366010000000000019596000000019596002000000010410408061206370014634773800806221818001463   1030000500030000   531120231201000045311202312OCEAN OATTARA THIRI    PTN           MMR11008061206370014630806000000000000000   10300001 00104100000000001176000000000000     
100   62911028202907490000000000003661000000003661002000000010410408060638400033814773800806221813003381   1030000500030000   541120229104000045411202291CITY MART YANKIN       PTN           MMR11008060638400033810806000000000000000   10300001 00104100000000000220000000000000     
100   62911028202446130000000000058900000000058900002000000010410408060943510034294773800806221816003429   1030000500030000   531120226314000045311202263OCEAN SUPER CENTER STJ PTN           MMR11008060943510034290806000000000000000   10300001 00104100000000003534000000000000     
100   95050314641725490000000000100000000000100000002000000010410408070246481648418831210807000007608704   1030000200030000   333800010001203104000003327KBZPay                 Yangon        MMR11008070246481648410807000000000000000   10300001F05104100000000021000000000000000     
100   62911028202698420000000000250832000000250832002000000010410408071222060337164773800807000751548508   1030000200030000   541188001042000008000000010KBZ BANK               MARKETPLACE - MMR11008071222060337160807000000000000000   10300001 00104100000000015050000000000000     
100   95050328303533000000000000010000000000010000002000000010410408071039390939395482510807000007610376   1030000200030000   3334000100012031040000040102C2P (Myanmar) Co. Ltd Yangon        MMR11008071039390939390807000000000000000   10300001F05104100000000002100000000000000     
100   95050310213446310000000000002970000000002970002000000010410408070839400940725142130807000007609972   1020000200030000   333400010001204104000000281Myanmar Soft-Gate Tech Yangon        MMR11008070839400940720807000000000000000   10300001F05104100000000000624000000000000     
100   62443100330108240000000000000990000000000990002000000010410408071003223322098957680807000007610250   1020000200030000   333400010001204104000000281Myanmar Soft-Gate Tech Yangon        MMR11008071003223322090807000000000000000   10300001F05104100000000000208000000000000     
100   95030320108927800000000000130000000000130000002000000010410408070312458680554773800807720420945218   1030000900030000   592119000255190110000000150HtunHtunOo Liquor (May YANGONONE     MMR11008070312458680550807000000000000000   10300001F00104100000000007800000000000000     
100   95050328282898390000000000112284000000112284002000000010410408070313018680590404320807722430901218   1030000900030000   541119001151190110000000930OCEAN HTY C 1          YANGONTHARYA  MMR11008070313018680590807000000000000000   10300001F00104100000000028071000000000000     
100   62443100311760720000000000029100000000029100002000000010410408071011518193154085320807415118154140   1040001400030000   592110000077015921100000365Million Mart Million M rt No. (519/  MMR11008071011518193150807000000000000000   10300001 00104100000000006984000000000000     
100   62911028202792960000000000060700000000060700002000000010410408060922180023234773800806221815002323   1030000500030000   541120203704000015411202037CITY MART SUPERMARKET  PTN           MMR11008060922180023230806000000000000000   10300001 00104100000000003642000000000000     
100   62443100378093870000000000070450000000070450002000000010410408060132210019484689070806000359603682   1030000300030000   541100002371000000000000102CB BANK                MAKRO MYANMAR MMR11008060132210019480806000000000000000   10300001F00104100000000017613000000000000     
100   95050313640946520000000000009300000000009300002000000010410408061138390022569037060806221818002256   1030000500030000   541120203903000015411202039NEIGHBOURHOOD          PTN           MMR11008061138390022560806000000000000000   10300001 00104100000000002325000000000000     
100   62443100333488440000000000034000000000034000002000000010410408060255420030956852130806221809003095   1030000500030000   541120226417000045411202264MARKET PLACE MYANMARPL PTN           MMR11008060255420030950806000000000000000   10300001 00104100000000008500000000000000     
100   95030308100042590000000000017600000000017600002000000010410408060328370034624773800806000359619395   1030000300030000   581400000692000000000000478CB BANK                KFC PARAMI SG MMR11008060328370034620806000000000000000   10300001F00104100000000000528000000000000     
100   62443100323428970000000000200000000000200000002000000010410408060458200007406937230806221811000740   1030000500030000   806220009101024108062200091ARYU INTL HOSPITAL     PTN           MMR11008060458200007400806000000000000000   10300001 00104100000000048000000000000000     
100   95050315158357300000000000001980000000001980002000000010410408070402353235878496540807000007608983   1020000200030000   333400010001204104000000281Myanmar Soft-Gate Tech Yangon        MMR11008070402353235870807000000000000000   10300001F05104100000000000416000000000000     
100   95050311931431670000000000004950000000004950002000000010410408070507313731007354640807000007609208   1020000200030000   333400010001204104000000281Myanmar Soft-Gate Tech Yangon        MMR11008070507313731000807000000000000000   10300001F05104100000000001040000000000000     
100   95050317376014640000000000000990000000000990002000000010410408070759262926263163050807000007609856   1020000200030000   333400010001204104000000281Myanmar Soft-Gate Tech Yangon        MMR11008070759262926260807000000000000000   10300001F05104100000000000208000000000000     
100   95050325784857510000000000004700000000004700002000000010410408070229458673845441150807421590845218   1030000900030000   541119001215190110000000950City Mart YK City Care YANGONAUNG    MMR11008070229458673840807000000000000000   10300001F00104100000000001175000000000000     
100   95030302100015820000000000008000000000008000002000000010410408070855291320044773800807221915132004   1040001600030000   569120000924000000010000671Generation Concept Sto Ygn           MMR11008070855291320040807000000000000000   10300001F00104100000000000480000000000000     
100   95050314064416890000000000000990000000000990002000000010410408070957312731825652710807000007610228   1020000200030000   333400010001204104000000281Myanmar Soft-Gate Tech Yangon        MMR11008070957312731820807000000000000000   10300001F05104100000000000208000000000000     
100   95050318141561190000000000010000000000010000002000000010410408071217074707730865450807000007610742   1040001600030000   333800010001220104000004507A +                    Yangon        MMR11008071217074707730807000000000000000   10300001F05104100000000002100000000000000     
100   62911028202665580000000000020000000000020000002000000010410408070441251149284773800807221911114928   1040001600030000   598320001127000000010000608Terminal Petrol Statio Yangon        MMR11008070441251149280807000000000000000   10300001F00104100000000000600000000000000     
100   95030302100015820000000000036000000000036000002000000010410408070849381316294773800807221915131629   1040001600030000   569120000924000000010000671Generation Concept Sto Ygn           MMR11008070849381316290807000000000000000   10300001F00104100000000002160000000000000     
100   95050316949180000000000000005940000000005940002000000010410408070856242624530184680807000007610031   1020000200030000   333400010001204104000000281Myanmar Soft-Gate Tech Yangon        MMR11008070856242624530807000000000000000   10300001F05104100000000001247000000000000     
100   95030380157605420000000000100000000000100000002000000010410408070519284928434773800807000007609263   1030000200030000   333800010001203104000003327KBZPay                 Yangon        MMR11008070519284928430807000000000000000   10300001F05104100000000021000000000000000     
100   62443100340422630000000000034300000000034300002000000010410408071051401415600525070807221917141560   1040001600030000   591220001007000000010000737Shwe Ohh Pharmacy (Tan Ygn           MMR11008071051401415600807000000000000000   10300001F00104100000000008232000000000000     
100   95050317486512680000000000102000000000102000002000000010410408071352582258506588770807000007611039   1030000200030000   333800010001203104000003327KBZPay                 Yangon        MMR11008071352582258500807000000000000000   10300001F05104100000000021420000000000000     
100   95050315701710960000000000100000000000100000002000000010410408070421065106975872350807000007609063   1030000200030000   333800010001203104000003327KBZPay                 Yangon        MMR11008070421065106970807000000000000000   10300001F05104100000000021000000000000000     
100   95050328876009750000000000010000000000010000002000000010410408071421115111876673870807000007611123   1030000200030000   333800010001203104000003327KBZPay                 Yangon        MMR11008071421115111870807000000000000000   10300001F05104100000000002100000000000000     
100   95050310397364970000000000001980000000001980002000000010410408070544471447072992860807000007609346   1020000200030000   333400010001204104000000281Myanmar Soft-Gate Tech Yangon        MMR11008070544471447070807000000000000000   10300001F05104100000000000416000000000000     
100   62443100330108240000000000000990000000000990002000000010410408071005343534627305190807000007610256   1020000200030000   333400010001204104000000281Myanmar Soft-Gate Tech Yangon        MMR11008071005343534620807000000000000000   10300001F05104100000000000208000000000000     
100   62911028202809060000000000050000000000050000002000000010410408071107583758504773800807000007610479   1030000200030000   333800010001203104000003327KBZPay                 Yangon        MMR11008071107583758500807000000000000000   10300001F05104100000000010500000000000000     
100   95050319161596230000000000001980000000001980002000000010410408070400173017500149030807000007608965   1020000200030000   333400010001204104000000281Myanmar Soft-Gate Tech Yangon        MMR11008070400173017500807000000000000000   10300001F05104100000000000416000000000000     
100   62443100340648380000000000020000000000020000002000000010410408071031490149355397420807000007610339   1030000200030000   333800010001203104000003327KBZPay                 Yangon        MMR11008071031490149350807000000000000000   10300001F05104100000000004200000000000000     
100   95050310213446310000000000004950000000004950002000000010410408071050072007927220100807000007610422   1020000200030000   333400010001204104000000281Myanmar Soft-Gate Tech Yangon        MMR11008071050072007920807000000000000000   10300001F05104100000000001040000000000000     
100   95050310213446310000000000000990000000000990002000000010410408071052022202209383160807000007610429   1020000200030000   333400010001204104000000281Myanmar Soft-Gate Tech Yangon        MMR11008071052022202200807000000000000000   10300001F05104100000000000208000000000000     
100   95050315564078030000000000010000000000010000002000000010410408070129445944763448280807000007608478   1030000200030000   3338000100012031040000040022C2P (Myanmar) Co. Ltd Yangon        MMR11008070129445944760807000000000000000   10300001F05104100000000002100000000000000     
100   95050320205194540000000000028600000000028600002000000010410408070652281239442822670807221913123944   1040001600030000   591220000288000000010000276Shwe Ohh Pharmacy (Nor Yangon        MMR11008070652281239440807000000000000000   10300001F00104100000000006864000000000000     
100   95030302100015820000000000020000000000020000002000000010410408070906021326814773800807221916132681   1040001600030000   569120000924000000010000671Generation Concept Sto Ygn           MMR11008070906021326810807000000000000000   10300001F00104100000000001200000000000000     
100   95030325264619140000000000019150000000019150002000000010410408070829571302944773800807221915130294   1040001600030000   541120000553000000010000465Ocean Shwe Gone Daing  Yangon        MMR11008070829571302940807000000000000000   10300001F00104100000000001149000000000000     
100   95050319709462380000000000003000000000003000002000000010410408071349241924141631320807000007611030   1030000200030000   3338000100012031040000040022C2P (Myanmar) Co. Ltd Yangon        MMR11008071349241924140807000000000000000   10300001F05104100000000000630000000000000     
100   95030310098554020000000000100000000000100000002000000010410408071140131465164773800807221918146516   1040001600030000   591220000043000000010000041Mingalar Pharmacy      Yangon        MMR11008071140131465160807000000000000000   10300001F00104100000000006000000000000000     
100   95050313540228790000000000050000000000050000002000000010410408070302553255463873760807000007608754   1030000200030000   333800010001203104000003327KBZPay                 Yangon        MMR11008070302553255460807000000000000000   10300001F05104100000000010500000000000000     
100   95050325027979170000000000050000000000050000002000000010410408070651272127254475150807000007609609   1030000200030000   333800010001203104000003327KBZPay                 Yangon        MMR11008070651272127250807000000000000000   10300001F05104100000000010500000000000000     
100   95050316067768680000000000001980000000001980002000000010410408070721145114943418340807000007609718   1020000200030000   333400010001204104000000281Myanmar Soft-Gate Tech Yangon        MMR11008070721145114940807000000000000000   10300001F05104100000000000416000000000000     
100   62443100312243020000000000252000000000252000002000000010410408070720505050755070830807000007609717   1030000200030000   333800010001203104000003327KBZPay                 Yangon        MMR11008070720505050750807000000000000000   10300001F05104100000000052920000000000000     
100   95050311559234320000000000005940000000005940002000000010410408070413044304544134770807000007609027   1020000200030000   333400010001204104000000281Myanmar Soft-Gate Tech Yangon        MMR11008070413044304540807000000000000000   10300001F05104100000000001247000000000000     
100   95050325784857510000000000008600000000008600002000000010410408070235358674803788670807458050935218   1030000900030000   541119001206190110000000948City Mart YK C 4       YANGONAUNG    MMR11008070235358674800807000000000000000   10300001F00104100000000002150000000000000     
100   95050319835237500000000000029300000000029300002000000010410408070517358704176212730807011471135218   1030000900030000   541119001298190110000000968Ocean Mingalar MDY C 6 MANDALAYHARSI MMR11008070517358704170807000000000000000   10300001F00104100000000007325000000000000     
100   62443100313002190000000000113500000000113500002000000010410408071343131313863283800807000007611013   1030000200030000   333800010001203104000003327KBZPay                 Yangon        MMR11008071343131313860807000000000000000   10300001F05104100000000023835000000000000     
100   95050321057500320000000000049650000000049650002000000010410408070920121337226964810807221916133722   1040001600030000   591220000298000000010000286Shwe Ohh Pharmacy (Shw Yangon        MMR11008070920121337220807000000000000000   10300001F00104100000000011916000000000000     
100   62443100371022130000000000047742000000047742002000000010410408071002421367454000230807221917136745   1040001600030000   598320000911000000010000662MMTM - Tamwe           Ygn           MMR11008071002421367450807000000000000000   10300001F00104100000000005729000000000000     
100   95050327416134790000000000001980000000001980002000000010410408071306503650589808640807000007610893   1020000200030000   333400010001204104000000281Myanmar Soft-Gate Tech Yangon        MMR11008071306503650580807000000000000000   10300001F05104100000000000416000000000000     
100   95050310101767130000000000100000000000100000002000000010410408070723575357135155920807000007609733   1030000200030000   333800010001203104000003327KBZPay                 Yangon        MMR11008070723575357130807000000000000000   10300001F05104100000000021000000000000000     
100   62443100317500820000000000080000000000080000002000000010410408070611304130875957440807000007609444   1030000200030000   333800010001203104000003327KBZPay                 Yangon        MMR11008070611304130870807000000000000000   10300001F05104100000000016800000000000000     
100   95050318131043910000000000000990000000000990002000000010410408071436090609049978840807000007611153   1020000200030000   333400010001204104000000281Myanmar Soft-Gate Tech Yangon        MMR11008071436090609040807000000000000000   10300001F05104100000000000208000000000000     
100   95050325095525130000000000050000000000050000002000000010410408070939200920251752070807000007610173   1030000200030000   333800010001203104000003327KBZPay                 Yangon        MMR11008070939200920250807000000000000000   10300001F05104100000000010500000000000000     
100   95030331386331890000000000015000000000015000002000000010410408070838440844344773800807000007609967   1030000200030000   333800010001203104000003327KBZPay                 Yangon        MMR11008070838440844340807000000000000000   10300001F05104100000000003150000000000000     
100   95050317376014640000000000000990000000000990002000000010410408070756392639024730440807000007609850   1020000200030000   333400010001204104000000281Myanmar Soft-Gate Tech Yangon        MMR11008070756392639020807000000000000000   10300001F05104100000000000208000000000000     
100   62443101045531990000000000080100000000080100002000000010410408070406188690234049670807213361018218   1030000900030000   569919000576190110000000416D & C Myanmar (Mdy)    MANDALAYHARSI MMR11008070406188690230807000000000000000   10300001F00104100000000019224000000000000     
100   62911028202684060000000000018500000000018500002000000010410408070453170811654773800807231731244303   1040001400030000   806210000094028062100000766Yoma OUE Pun Hlaing Ho pital  Yoma O MMR11008070453170811650807000000000000000   10300001 00104100000000001110000000000000     
100   95050325630928770000000000000990000000000990002000000010410408070451372137740489410807000007609160   1020000200030000   333400010001204104000000281Myanmar Soft-Gate Tech Yangon        MMR11008070451372137740807000000000000000   10300001F05104100000000000208000000000000     
