100   95050318710290270000000000020300000000020300002000000010410408061709450104242526010806000751516276   1030000200030000   541188001074000008000000294KBZ BANK               CITY MART - J MMR11008061709450104240806000000000000000   10300001 00104100000000005075000000000000     
100   62443100300412100000000000008150000000008150002000000010410408061631100143425065110806000751514181   1030000200030000   541188001256000008000000310KBZ BANK               CITY MART- FM MMR11008061631100143420806000000000000000   10300001 00104100000000002038000000000000     
100   62911028202416760000000000050000000000050000002000000010410408060140230207864773800806221808020786   1040001600030000   598320001127000000010000608Terminal Petrol Statio Yangon        MMR11008060140230207860806000000000000000   10300001F00104100000000001500000000000000     
100   95050313862405980000000000021450000000021450002000000010410408061537310028585320400806000751511292   1030000200030000   541188001486000008000000399KBZ BANK               OCEAN SUPERCE MMR11008061537310028580806000000000000000   10300001 00104100000000005363000000000000     
100   95050318710290270000000000013900000000013900002000000010410408061720110147347568560806000751516836   1030000200030000   541188001081000008000000294KBZ BANK               CITY MART - J MMR11008061720110147340806000000000000000   10300001 00104100000000003475000000000000     
100   95030394609966640000000000040000000000040000002000000010410408060405340288424773800806221811028842   1040001600030000   598320000658000000010000527Shwe Taung Energy (YGN Yangon        MMR11008060405340288420806000000000000000   10300001F00104100000000001200000000000000     
100   95050319938772870000000000000990000000000990002000000010410408052330500050724603980806000007604586   1020000200030000   333400010001204104000000281Myanmar Soft-Gate Tech Yangon        MMR11008052330500050720806000000000000000   10300001F05104100000000000208000000000000     
100   62443100355903280000000000002970000000002970002000000010410408061006243624670107660806000007606800   1020000200030000   333400010001204104000000281Myanmar Soft-Gate Tech Yangon        MMR11008061006243624670806000000000000000   10300001F05104100000000000624000000000000     
100   95050314064416890000000000001980000000001980002000000010410408061105393539385575690806000007606981   1020000200030000   333400010001204104000000281Myanmar Soft-Gate Tech Yangon        MMR11008061105393539380806000000000000000   10300001F05104100000000000416000000000000     
100   95030308100042590000000000002500000000002500002000000010410408060339418457954773800806098091041217   1030000900030000   541119000149190110000000083SeinGayHarParami Cente YANGON        MMR11008060339418457950806000000000000000   10300001F00104100000000000150000000000000     
100   95050312641885210000000000001980000000001980002000000010410408061136050605766072480806000007607088   1020000200030000   333400010001204104000000281Myanmar Soft-Gate Tech Yangon        MMR11008061136050605760806000000000000000   10300001F05104100000000000416000000000000     
100   62911028202407100000000000029500000000029500002000000010410408060755440446054773800806221814044605   1040001600030000   598320001453000000010001147360 Petro (Sat San)    Ygn           MMR11008060755440446050806000000000000000   10300001F00104100000000000885000000000000     
100   95050314248160600000000000098200000000098200002000000010410408060203443344871128810806000007604825   1030000200030000   333800010001203104000003327KBZPay                 Yangon        MMR11008060203443344870806000000000000000   10300001F05104100000000020622000000000000     
100   95050314752934410000000000030000000000030000002000000010410408060356012601717107420806000007605222   1030000200030000   333800010001203104000003327KBZPay                 Yangon        MMR11008060356012601710806000000000000000   10300001F05104100000000006300000000000000     
100   62911028202369990000000000200000000000200000002000000010410408061101143114324773800806000007606966   1030000200030000   333800010001203104000003327KBZPay                 Yangon        MMR11008061101143114320806000000000000000   10300001F05104100000000042000000000000000     
100   95050312498129060000000000009500000000009500002000000010410408060357212721102149970806000007605231   1030000200030000   3333000100012031040000040282C2P (Myanmar) Co. Ltd Yangon        MMR11008060357212721100806000000000000000   10300001F05104100000000010000000000000000     
100   95050312595952760000000000019800000000019800002000000010410408060518204820127618000806000007605632   1020000200030000   333400010001204104000000281Myanmar Soft-Gate Tech Yangon        MMR11008060518204820120806000000000000000   10300001F05104100000000004158000000000000     
100   95050324420254860000000000044550000000044550002000000010410408061145070638083994510806221818063808   1040001600030000   591220000298000000010000286Shwe Ohh Pharmacy (Shw Yangon        MMR11008061145070638080806000000000000000   10300001F00104100000000010692000000000000     
100   95050319938772870000000000000990000000000990002000000010410408061354502450824505090806000007607618   1020000200030000   333400010001204104000000281Myanmar Soft-Gate Tech Yangon        MMR11008061354502450820806000000000000000   10300001F05104100000000000208000000000000     
100   62443100394939820000000000030000000000030000002000000010410408060150292029759391240806000007604780   1040001600030000   333800010001220104000004507A +                    Yangon        MMR11008060150292029750806000000000000000   10300001F05104100000000006300000000000000     
100   95030314863516850000000000023000000000023000002000000010410408061613394339984773800806000007608022   1030000200030000   333800010001203104000003327KBZPay                 Yangon        MMR11008061613394339980806000000000000000   10300001F05104100000000004830000000000000     
100   95030374458345210000000000031700000000031700002000000010410408060609130374694773800806221813037469   1040001600030000   591220000295000000010000283Shwe Ohh Pharmacy (39t Yangon        MMR11008060609130374690806000000000000000   10300001F00104100000000001902000000000000     
100   62911028202136750000000000017000000000017000002000000010410408061220240674704773800806221819067470   1040001600030000   598320001456000000010001150360 Petro (Bayint Naun Ygn           MMR11008061220240674700806000000000000000   10300001F00104100000000000510000000000000     
100   95050323233042810000000000000990000000000990002000000010410408061250322032388150440806000007607371   1020000200030000   333400010001204104000000281Myanmar Soft-Gate Tech Yangon        MMR11008061250322032380806000000000000000   10300001F05104100000000000208000000000000     
100   95050318617855880000000000009900000000009900002000000010410408060209313931791639400806000007604840   1020000200030000   333400010001204104000000281Myanmar Soft-Gate Tech Yangon        MMR11008060209313931790806000000000000000   10300001F05104100000000002079000000000000     
100   62911028202809060000000000200000000000200000002000000010410408061325565556414773800806000007607499   1030000200030000   333800010001203104000003327KBZPay                 Yangon        MMR11008061325565556410806000000000000000   10300001F05104100000000042000000000000000     
100   95050314567755980000000000035000000000035000002000000010410408060440421042075199650806000007605456   1030000200030000   333800010001203104000003327KBZPay                 Yangon        MMR11008060440421042070806000000000000000   10300001F05104100000000007350000000000000     
100   95050314950595330000000000006000000000006000002000000010410408060816324632588029690806000007606378   1030000200030000   3338000100012031040000040022C2P (Myanmar) Co. Ltd Yangon        MMR11008060816324632580806000000000000000   10300001F05104100000000001260000000000000     
100   62443100330108240000000000000990000000000990002000000010410408061520525052979632730806000007607882   1020000200030000   333400010001204104000000281Myanmar Soft-Gate Tech Yangon        MMR11008061520525052970806000000000000000   10300001F05104100000000000208000000000000     
100   62443100395535610000000000300000000000300000002000000010410408061027505750175745880806000007606859   1030000200030000   333800010001203104000003327KBZPay                 Yangon        MMR11008061027505750170806000000000000000   10300001F05104100000000063000000000000000     
100   95050311959900780000000000000990000000000990002000000010410408061323175317996157570806000007607490   1020000200030000   333400010001204104000000281Myanmar Soft-Gate Tech Yangon        MMR11008061323175317990806000000000000000   10300001F05104100000000000208000000000000     
100   95030371405797020000000000004100000000004100002000000010410408061440331033954773800806000007607773   1030000200030000   333800010001203104000003327KBZPay                 Yangon        MMR11008061440331033950806000000000000000   10300001F05104100000000000861000000000000     
100   95050310332595380000000000000990000000000990002000000010410408061058132813608880660806000007606965   1020000200030000   333400010001204104000000281Myanmar Soft-Gate Tech Yangon        MMR11008061058132813600806000000000000000   10300001F05104100000000000208000000000000     
100   95050313145843230000000000005000000000005000002000000010410408061103283328162270720806000007606974   1030000200030000   333800010001203104000003327KBZPay                 Yangon        MMR11008061103283328160806000000000000000   10300001F05104100000000001050000000000000     
100   62443100392426520000000000010000000000010000002000000010410408060019044904352951490806000007604640   1030000200030000   333800010001203104000003327KBZPay                 Yangon        MMR11008060019044904350806000000000000000   10300001F05104100000000002100000000000000     
100   62911028202027440000000000271000000000271000002000000010410408060747595057114773800806175947193024   1040001400030000   571210000171025712100001244Pwint Oo Furniture Pwi t Oo Furnitur MMR11008060747595057110806000000000000000   10300001 00104100000000016260000000000000     
100   95050315474529910000000000014200000000014200002000000010410408061225255525863022800806000007607277   1030000200030000   333800010001203104000003327KBZPay                 Yangon        MMR11008061225255525860806000000000000000   10300001F05104100000000002982000000000000     
100   62911028202922400000000000037250000000037250002000000010410408061257040712944773800806221819071294   1040001600030000   541120000563000000010000465Ocean Shwe Gone Daing  Yangon        MMR11008061257040712940806000000000000000   10300001F00104100000000002235000000000000     
100   95050310427855490000000000000990000000000990002000000010410408061108083808330618240806000007606987   1020000200030000   333400010001204104000000281Myanmar Soft-Gate Tech Yangon        MMR11008061108083808330806000000000000000   10300001F05104100000000000208000000000000     
100   95050322295410690000000000038000000000038000002000000010410408060405358463820582580806414351035217   1030000900030000   554119000348190110000000215New Day Energy MYG     YANGONONE     MMR11008060405358463820806000000000000000   10300001F00104100000000004560000000000000     
100   62911028202163630000000000015000000000015000002000000010410408061009540538184773800806221817053818   1040001600030000   598320000916000000010000664MMTM - North Dagon     Ygn           MMR11008061009540538180806000000000000000   10300001F00104100000000000450000000000000     
100   95050310332595380000000000000990000000000990002000000010410408061037360736474178490806000007606894   1020000200030000   333400010001204104000000281Myanmar Soft-Gate Tech Yangon        MMR11008061037360736470806000000000000000   10300001F05104100000000000208000000000000     
100   62911028202793040000000000010000000000010000002000000010410408061202023202184773800806000007607176   1030000200030000   3334000100012031040000040102C2P (Myanmar) Co. Ltd Yangon        MMR11008061202023202180806000000000000000   10300001F05104100000000002100000000000000     
100   62911028202124460000000000080500000000080500002000000010410408060550420361314773800806221812036131   1040001600030000   591220000260000000010000248Shwe Ohh Pharmacy (KDL Yangon        MMR11008060550420361310806000000000000000   10300001F00104100000000004830000000000000     
100   95050310494988230000000000050000000000050000002000000010410408060724045404139937470806000007606172   1030000200030000   333800010001203104000003327KBZPay                 Yangon        MMR11008060724045404130806000000000000000   10300001F05104100000000010500000000000000     
100   95050319753756490000000000020000000000020000002000000010410408061626115611121795800806000007608057   1030000200030000   333800010001203104000003327KBZPay                 Yangon        MMR11008061626115611120806000000000000000   10300001F05104100000000004200000000000000     
100   95050312641885210000000000001980000000001980002000000010410408060946251625795490590806000007606719   1020000200030000   333400010001204104000000281Myanmar Soft-Gate Tech Yangon        MMR11008060946251625790806000000000000000   10300001F05104100000000000416000000000000     
100   95050316785465380000000000000990000000000990002000000010410408060614294429882476570806000007605869   1020000200030000   333400010001204104000000281Myanmar Soft-Gate Tech Yangon        MMR11008060614294429880806000000000000000   10300001F05104100000000000208000000000000     
100   62443100312243020000000000015100000000015100002000000010410408060449491949903547170806000007605497   1030000200030000   333800010001203104000003327KBZPay                 Yangon        MMR11008060449491949900806000000000000000   10300001F05104100000000003171000000000000     
100   95050315259054570000000000005000000000005000002000000010410408060255472547146767040806000007604983   1030000200030000   333800010001203104000003327KBZPay                 Yangon        MMR11008060255472547140806000000000000000   10300001F05104100000000001050000000000000     
100   95050312240830690000000000002970000000002970002000000010410408061411094109237895150806000007607683   1020000200030000   333400010001204104000000281Myanmar Soft-Gate Tech Yangon        MMR11008061411094109230806000000000000000   10300001F05104100000000000624000000000000     
100   95050312926040930000000000014850000000014850002000000010410408061319384938663192990806000007607477   1020000200030000   333400010001204104000000281Myanmar Soft-Gate Tech Yangon        MMR11008061319384938660806000000000000000   10300001F05104100000000003119000000000000     
100   95050312240830690000000000000990000000000990002000000010410408061321525152547810060806000007607483   1020000200030000   333400010001204104000000281Myanmar Soft-Gate Tech Yangon        MMR11008061321525152540806000000000000000   10300001F05104100000000000208000000000000     
100   62911028202108460000000000005600000000005600002000000010410408061034020563244773800806221817056324   1040001600030000   591220001200000000010000908Shwe Ohh Pharmacy (Thu Ygn           MMR11008061034020563240806000000000000000   10300001F00104100000000000336000000000000     
100   95050318617855880000000000001980000000001980002000000010410408061208223822959122160806000007607195   1020000200030000   333400010001204104000000281Myanmar Soft-Gate Tech Yangon        MMR11008061208223822950806000000000000000   10300001F05104100000000000416000000000000     
100   95050312360118350000000000008000000000008000002000000010410408061435060506407980250806000007607758   1030000200030000   333800010001203104000003327KBZPay                 Yangon        MMR11008061435060506400806000000000000000   10300001F05104100000000001680000000000000     
100   62911028202289130000000000007500000000007500002000000010410408061020400549004773800806221817054900   1040001600030000   598320001170000000010000527Shwe Taung Energy (YGN Yangon        MMR11008061020400549000806000000000000000   10300001F00104100000000000225000000000000     
100   95050313400081980000000000010000000000010000002000000010410408061237490749806412860806000007607332   1030000200030000   333800010001203104000003327KBZPay                 Yangon        MMR11008061237490749800806000000000000000   10300001F05104100000000002100000000000000     
100   95050311959900780000000000000990000000000990002000000010410408061028215821897483460806000007606860   1020000200030000   333400010001204104000000281Myanmar Soft-Gate Tech Yangon        MMR11008061028215821890806000000000000000   10300001F05104100000000000208000000000000     
100   62911028202530930000000000011500000000011500002000000010410408060429068469064773800806688591006217   1030000900030000   581419000966190110000000773Yuki Mugi Bakery       YANGONONE     MMR11008060429068469060806000000000000000   10300001F00104100000000000345000000000000     
100   95050313411345710000000000004000000000004000002000000010410408061236230623098065350806000007607325   1030000200030000   333800010001203104000003327KBZPay                 Yangon        MMR11008061236230623090806000000000000000   10300001F05104100000000000840000000000000     
100   95050312539675540000000000004950000000004950002000000010410408060845511551384724720806000007606499   1020000200030000   333400010001204104000000281Myanmar Soft-Gate Tech Yangon        MMR11008060845511551380806000000000000000   10300001F05104100000000001040000000000000     
100   95050314950595330000000000001000000000001000002000000010410408060819454945812987150806000007606382   1030000200030000   3338000100012031040000040022C2P (Myanmar) Co. Ltd Yangon        MMR11008060819454945810806000000000000000   10300001F05104100000000000210000000000000     
100   95050314946697790000000000012370000000012370002000000010410408060522500340554398130806221812034055   1040001600030000   591220000266000000010000254Shwe Ohh Pharmacy (Sin Yangon        MMR11008060522500340550806000000000000000   10300001F00104100000000002969000000000000     
100   95050315360655070000000000008232000000008232002000000010410408050949390000090612940805221716000009   1030000500030000   531120155806000045311201558GAMONE PWINT           PTN           MMR11008050949390000090805000000000000000   10300001 00104100000000001976000000000000     
100   95050321237170130000000000036322000000036322002000000010410408051115070000525078900805221717000052   1030000500030000   598320002104000015172200021MAX ENERGY             PTN           MMR11008051115070000520805000000000000000   10300001 00104100000000004359000000000000     
100   95030320108927800000000000055700000000055700002000000010410408061255348592784773800806852251934217   1030000900030000   581219001134190110000000915Gamone in Tea House    YANGONUT      MMR11008061255348592780806000000000000000   10300001F00104100000000005681000000000000     
100   95050320694620120000000000186050000000186050002000000010410408061100288564327228170806075301728217   1030000900030000   541119001243190110000000955City Mart JS C 2       YANGONUT      MMR11008061100288564320806000000000000000   10300001F00104100000000046513000000000000     
100   95050316377977350000000000005000000000005000002000000010410408061359492949702852600806000007607633   1030000200030000   3338000100012031040000040022C2P (Myanmar) Co. Ltd Yangon        MMR11008061359492949700806000000000000000   10300001F05104100000000001050000000000000     
100   95030366960186690000000000057300000000057300002000000010410408060601178489074773800806740311217217   1030000900030000   594219000084190110000000059Innwa Books            YANGONUT      MMR11008060601178489070806000000000000000   10300001F00104100000000003438000000000000     
100   62443100344229520000000000095100000000095100002000000010410408060614148492402561660806933441214217   1030000900030000   541119001279190110000000963City Mart SPL C 4      YANGONMYOTHIT MMR11008060614148492400806000000000000000   10300001F00104100000000023775000000000000     
100   95030366960186690000000000028500000000028500002000000010410408060633498497344773800806220031349217   1030000900030000   563119000646190110000000477Monster Fashion Access YANGONUT      MMR11008060633498497340806000000000000000   10300001F00104100000000001710000000000000     
100   62911028202916630000000000018900000000018900002000000010410408050634270000064773800805221713000006   1030000500030000   581220116501000015812201165OMNIVORE BY SHARKYS    PTN           MMR11008050634270000060805000000000000000   10300001 00104100000000001928000000000000     
100   62911028202108460000000000040000000000040000002000000010410408050235500000104773800805221709000010   1030000500030000   598320001201000015172200012MAX ENERGY             PTN           MMR11008050235500000100805000000000000000   10300001 00104100000000001200000000000000     
100   62911028202069430000000000012480000000012480002000000010410408050720500000024773800805221713000002   1030000500030000   531120155708000045311201557GAMONE PWINT           PTN           MMR11008050720500000020805000000000000000   10300001 00104100000000000749000000000000     
100   62911028202069430000000000060000000000060000002000000010410408050828320000194773800805221714000019   1030000500030000   531120155707000045311201557GAMONE PWINT           PTN           MMR11008050828320000190805000000000000000   10300001 00104100000000003600000000000000     
100   62911028202074950000000000016000000000016000002000000010410408050019390000034773800805221706000003   1030000500030000   598320001203000015172200012MAX ENERGY             PTN           MMR11008050019390000030805000000000000000   10300001 00104100000000000480000000000000     
100   62911028202116120000000000052000000000052000002000000010410408050345470000304773800805221710000030   1030000500030000   829920034501000048299200345THALUN INTL SCHOOL     PTN           MMR11008050345470000300805000000000000000   10300001 00104100000000003120000000000000     
100   62911028202488950000000000029550000000029550002000000010410408051204440000104773800805221718000010   1030000500030000   541120129716000045411201297MAKRO MYANMAR          PTN           MMR11008051204440000100805000000000000000   10300001 00104100000000001773000000000000     
100   62911028202105230000000000030000000000030000002000000010410408051017320000234773800805221716000023   1030000500030000   598320002701000015172200027MAX ENERGY             PTN           MMR11008051017320000230805000000000000000   10300001 00104100000000000900000000000000     
100   62443100328070970000000000004800000000004800002000000010410408061031148556749221050806598011714217   1030000900030000   541119001525190110000001105Ocean MGDTM City Care  YANGONADON    MMR11008061031148556740806000000000000000   10300001F00104100000000001200000000000000     
100   62911028202449100000000000130000000000130000002000000010410408050413210000344773800805221710000034   1030000500030000   598320001204000015172200012MAX ENERGY             PTN           MMR11008050413210000340805000000000000000   10300001 00104100000000003900000000000000     
100   95050322921717110000000000030000000000030000002000000010410408050121310000063720240805221707000006   1030000500030000   598320001601000015172200016MAX ENERGY             PTN           MMR11008050121310000060805000000000000000   10300001 00104100000000003600000000000000     
100   95050316385053500000000000014500000000014500002000000010410408060525228481242320170806324551122217   1030000900030000   541119000153190110000000083SeinGayHarParami Cente YANGON        MMR11008060525228481240806000000000000000   10300001F00104100000000003625000000000000     
100   62443100328070970000000000005130000000005130002000000010410408061040588559144263590806741101758217   1030000900030000   541119001515190110000001102Ocean MGDTM C-8        YANGONADON    MMR11008061040588559140806000000000000000   10300001F00104100000000001283000000000000     
100   95050312641885210000000000009000000000009000002000000010410408051022350000119866160805221716000011   1030000500030000   531120155705000045311201557GAMONE PWINT           PTN           MMR11008051022350000110805000000000000000   10300001 00104100000000002160000000000000     
100   62911028202027440000000001081800000001081800002000000010410408060636498498064773800806257061349217   1030000900030000   573219001177190110000000933UNIQUE Kabaraye        YANGON        MMR11008060636498498060806000000000000000   10300001F00104100000000064908000000000000     
100   95030314863516850000000000017000000000017000002000000010410408061306123612274773800806000007607420   1030000200030000   333800010001203104000003327KBZPay                 Yangon        MMR11008061306123612270806000000000000000   10300001F05104100000000003570000000000000     
100   95050326094581320000000000010000000000010000002000000010410408051013330000354738510805221716000035   1030000500030000   531120156004000045311201560GAMONE PWINT           PTN           MMR11008051013330000350805000000000000000   10300001 00104100000000002400000000000000     
100   95050312641885210000000000016500000000016500002000000010410408050950080000103237190805221716000010   1030000500030000   531120155705000045311201557GAMONE PWINT           PTN           MMR11008050950080000100805000000000000000   10300001 00104100000000003960000000000000     
100   95050328861342240000000000030000000000030000002000000010410408050104390000163648880805221707000016   1030000500030000   598320068303000055983200683MAX ENERGY             PTN           MMR11008050104390000160805000000000000000   10300001 00104100000000003600000000000000     
100   62911028202212490000000000019000000000019000002000000010410408050508590000244773800805221711000024   1030000500030000   598320001201000015172200012MAX ENERGY             PTN           MMR11008050508590000240805000000000000000   10300001 00104100000000000570000000000000     
100   95050317502160260000000000033000000000033000002000000010410408050950590000292811680805221716000029   1030000500030000   569120169901008205691201699ESCORT                 PTN           MMR11008050950590000290805000000000000000   10300001 00104100000000007920000000000000     
100   62443100306028540000000000091700000000091700002000000010410408050821320028453802900805221714002845   1030000500030000   531120226320000045311202263OCEAN SUPER CENTER STJ PTN           MMR11008050821320028450805000000000000000   10300001 00104100000000022008000000000000     
100   62443100314002660000000000013500000000013500002000000010410408050448000001472466090805000359437659   1030000300030000   531100000858000000000000594CB BANK                MGOU-OPT      MMR11008050448000001470805000000000000000   10300001F00104100000000003240000000000000     
100   95030305234413920000000000041982000000041982002000000010410408050408490023734773800805221710002373   1030000500030000   541120227503000045411202275CITY MART (AHLONE BRAN PTN           MMR11008050408490023730805000000000000000   10300001 00104100000000002519000000000000     
100   95050321976590420000000000006500000000006500002000000010410408051035470001087788200805000359501139   1030000300030000   531100000884000000000000622CB BANK                MGOU-JZ       MMR11008051035470001080805000000000000000   10300001F00104100000000001560000000000000     
100   95030305234413920000000000002800000000002800002000000010410408050521400002294773800805221711000229   1030000500030000   531120226313000045311202263OCEAN SUPER CENTER STJ PTN           MMR11008050521400002290805000000000000000   10300001 00104100000000000168000000000000     
100   62443101053241940000000000181385000000181385002000000010410408060916578538207057980806492461557217   1030000900030000   541119001259190110000000958City Mart PLST C 2     YANGONMYOTHIT MMR11008060916578538200806000000000000000   10300001F00104100000000045347000000000000     
100   62911028202909050000000000006050000000006050002000000010410408061218228583024773800806219481822217   1030000900030000   541119000138190110000000083SeinGayHarParami Cente YANGON        MMR11008061218228583020806000000000000000   10300001F00104100000000000363000000000000     
100   95050310332595380000000000000990000000000990002000000010410408060156562656387823850806000007604797   1020000200030000   333400010001204104000000281Myanmar Soft-Gate Tech Yangon        MMR11008060156562656380806000000000000000   10300001F05104100000000000208000000000000     
100   62911028202709150000000000023450000000023450002000000010410408060559208488664773800806716291220217   1030000900030000   541119000116190110000000078Sein Gay Har Kan Thar  YANGONOKKALAP MMR11008060559208488660806000000000000000   10300001F00104100000000001407000000000000     
100   95050317770415060000000000020000000000020000002000000010410408051956422642650972410806000007604504   1030000200030000   333800010001203104000003327KBZPay                 Yangon        MMR11008051956422642650806000000000000000   10300001F05104100000000004200000000000000     
100   95050316385053500000000000004800000000004800002000000010410408060511468478170922970806156411146217   1030000900030000   541119000138190110000000083SeinGayHarParami Cente YANGON        MMR11008060511468478170806000000000000000   10300001F00104100000000001200000000000000     
100   62911028202074950000000000001166000000001166002000000010410408050846250028194773800805221715002819   1030000500030000   541120227504000045411202275CITY MART (AHLONE BRAN PTN           MMR11008050846250028190805000000000000000   10300001 00104100000000000070000000000000     
100   62443100374797770000000001000000000001000000002000000010410408050843090000446569730805000359481097   1030000300030000   594400002973000000000002073CB BANK                MYA MYA YADAN MMR11008050843090000440805000000000000000   10300001F00104100000000240000000000000000     
100   62911028202684060000000000080764000000080764002000000010410408050406070028944773800805221710002894   1030000500030000   531120226704000045311202267OCEAN NORTH POINT      PTN           MMR11008050406070028940805000000000000000   10300001 00104100000000004846000000000000     
100   62911028202229400000000000006400000000006400002000000010410408050428410030574773800805221710003057   1030000500030000   541120203706000015411202037CITY MART SUPERMARKET  PTN           MMR11008050428410030570805000000000000000   10300001 00104100000000000384000000000000     
100   62911028202443400000000000052800000000052800002000000010410408050338020028544773800805221710002854   1030000500030000   531120226326000045311202263OCEAN SUPER CENTER STJ PTN           MMR11008050338020028540805000000000000000   10300001 00104100000000003168000000000000     
100   62911028202421380000000000070000000000070000002000000010410408050544470000604773800805221712000060   1030000500030000   598320001901000015172200019MAX ENERGY             PTN           MMR11008050544470000600805000000000000000   10300001 00104100000000002100000000000000     
100   62911028202443730000000000081022000000081022002000000010410408050409020014494773800805221710001449   1030000500030000   531120226304000045311202263OCEAN SUPER CENTER STJ PTN           MMR11008050409020014490805000000000000000   10300001 00104100000000004861000000000000     
100   62911028202443730000000000066000000000066000002000000010410408050331380028534773800805221710002853   1030000500030000   531120226326000045311202263OCEAN SUPER CENTER STJ PTN           MMR11008050331380028530805000000000000000   10300001 00104100000000003960000000000000     
100   95030325332426120000000000023400000000023400002000000010410408060906448535864773800806352361544217   1030000900030000   591219000607190110000000447Shwe Ohh Pharmacy St-3 YANGONINDAING MMR11008060906448535860806000000000000000   10300001F00104100000000001404000000000000     
100   62443100300743690000000000018000000000018000002000000010410408051346510000492880180805221720000049   1030000500030000   598320001602000015172200016MAX ENERGY             PTN           MMR11008051346510000490805000000000000000   10300001 00104100000000002160000000000000     
100   62911028202443400000000000052800000000052800002000000010410408050338470028554773800805221710002855   1030000500030000   531120226326000045311202263OCEAN SUPER CENTER STJ PTN           MMR11008050338470028550805000000000000000   10300001 00104100000000003168000000000000     
100   62911028202443400000000000004500000000004500002000000010410408050413010025604773800805221710002560   1030000500030000   531120226331000045311202263OCEAN SUPER CENTER STJ PTN           MMR11008050413010025600805000000000000000   10300001 00104100000000000270000000000000     
100   95050313862405980000000000034000000000034000002000000010410408060911258536823753010806402411525217   1030000900030000   569119001507190110000001101Next Generation GCS MY SAGAING       MMR11008060911258536820806000000000000000   10300001F00104100000000008160000000000000     
100   95050313145843230000000000021500000000021500002000000010410408061002008548978455170806115321600217   1030000900030000   541119000129190110000000082Sein Gay Har Super Cen YANGON        MMR11008061002008548970806000000000000000   10300001F00104100000000005375000000000000     
100   62911028202207460000000000015600000000015600002000000010410408061232090096754773800806000751501231   1030000200030000   541188001071000008000000314KBZ BANK               MARKETPLACE - MMR11008061232090096750806000000000000000   10300001 00104100000000000936000000000000     
100   62443100373945130000000000035361000000035361002000000010410408060912500495340362950806221816049534   1040001600030000   541120000561000000010000465Ocean Shwe Gone Daing  Yangon        MMR11008060912500495340806000000000000000   10300001F00104100000000008841000000000000     
100   62911028202471860000000000060000000000060000002000000010410408051056090001394773800805221717000139   1030000500030000   598320001203000015172200012MAX ENERGY             PTN           MMR11008051056090001390805000000000000000   10300001 00104100000000001800000000000000     
100   62443100303702210000000000206274000000206274002000000010410408050813060001430824550805000359475451   1030000300030000   531100003903000000000002936CB BANK                MAXI WHOLESAL MMR11008050813060001430805000000000000000   10300001F00104100000000049506000000000000     
100   95050320694620120000000000023700000000023700002000000010410408051153180035315419290805221718003531   1030000500030000   541120227604000045411202276CITY MART ( 47 BRANCH  PTN           MMR11008051153180035310805000000000000000   10300001 00104100000000005925000000000000     
100   62443100315384790000000000159000000000159000002000000010410408050844160011623094520805000359481328   1030000300030000   829900002887000000000001992CB BANK                KMD COMPANY L MMR11008050844160011620805000000000000000   10300001F00104100000000038160000000000000     
100   62911028202031710000000000080800000000080800002000000010410408051050550031294773800805221717003129   1030000500030000   541120226204000045411202262CITY MART ZAWANA       PTN           MMR11008051050550031290805000000000000000   10300001 00104100000000004848000000000000     
100   62443100374797770000000001000000000001000000002000000010410408050842330000436144230805000359480984   1030000300030000   594400002973000000000002073CB BANK                MYA MYA YADAN MMR11008050842330000430805000000000000000   10300001F00104100000000240000000000000000     
100   95050328861342240000000000032950000000032950002000000010410408050224520010421450180805000359414144   1030000300030000   591200000214000000000000111CB BANK                MEDICARE STOR MMR11008050224520010420805000000000000000   10300001F00104100000000007908000000000000     
100   62911028202074950000000000001800000000001800002000000010410408050849130016034773800805221715001603   1030000500030000   541120227507000045411202275CITY MART (AHLONE BRAN PTN           MMR11008050849130016030805000000000000000   10300001 00104100000000000108000000000000     
100   62443100306028540000000000600000000000600000002000000010410408051316460023367837640805221719002336   1030000500030000   531120226311000045311202263OCEAN SUPER CENTER STJ PTN           MMR11008051316460023360805000000000000000   10300001 00104100000000144000000000000000     
100   95050321237170130000000000040000000000040000002000000010410408050527320000413352700805221711000041   1030000500030000   598320001903000015172200019MAX ENERGY             PTN           MMR11008050527320000410805000000000000000   10300001 00104100000000004800000000000000     
100   95050328074436620000000000041000000000041000002000000010410408051100300000824993810805221717000082   1030000500030000   598320001202000015172200012MAX ENERGY             PTN           MMR11008051100300000820805000000000000000   10300001 00104100000000004920000000000000     
100   95050321976590420000000000029100000000029100002000000010410408051056140027605249090805221717002760   1030000500030000   541120226202000045411202262CITY MART ZAWANA       PTN           MMR11008051056140027600805000000000000000   10300001 00104100000000007275000000000000     
100   62911028202471860000000000061450000000061450002000000010410408050958550030684773800805221716003068   1030000500030000   541120203706000015411202037CITY MART SUPERMARKET  PTN           MMR11008050958550030680805000000000000000   10300001 00104100000000003687000000000000     
100   62911028202527490000000000036000000000036000002000000010410408050506519504684773800805221712950468   1040001600030000   598320000916000000010000664MMTM - North Dagon     Ygn           MMR11008050506519504680805000000000000000   10300001F00104100000000001080000000000000     
100   62911028202154800000000000048000000000048000002000000010410408051044129725554773800805221717972555   1040001600030000   598320000856000000010000609Terminal Petrol Statio Yangon        MMR11008051044129725550805000000000000000   10300001F00104100000000001440000000000000     
100   62911028202286990000000000030000000000030000002000000010410408051037450000324773800805221717000032   1030000500030000   598320002103000015172200021MAX ENERGY             PTN           MMR11008051037450000320805000000000000000   10300001 00104100000000000900000000000000     
100   62911028202260400000000000273000000000273000002000000010410408060857160005584773800806000751510758   1030000200030000   509488002506000008000006706KBZ BANK               SHWE SAN EAIN MMR11008060857160005580806000000000000000   10300001 00104100000000027300000000000000     
100   95050317578818060000000000036700000000036700002000000010410408060812420003067944600806000751508147   1030000200030000   569988002301000008000006128KBZ BANK               SOON - JUNCTI MMR11008060812420003060806000000000000000   10300001 00104100000000008808000000000000     
100   95030301100126550000000000171950000000171950002000000010410408061058270002534773800806000751517312   1030000200030000   599988002298000008000006149KBZ BANK               PRO 1 (MYANMA MMR11008061058270002530806000000000000000   10300001 00104100000000010317000000000000     
100   95050322312197120000000000053900000000053900002000000010410408060429300007001894690806000751495508   1030000200030000   564188002193000008000005818KBZ BANK               SB BABY-16    MMR11008060429300007000806000000000000000   10300001 00104100000000012936000000000000     
100   95030301100126550000000000098000000000098000002000000010410408061102270002544773800806000751517531   1030000200030000   599988002298000008000006149KBZ BANK               PRO 1 (MYANMA MMR11008061102270002540806000000000000000   10300001 00104100000000005880000000000000     
100   62911028202922400000000000019000000000019000002000000010410408061229220004404773800806000751521879   1030000200030000   561188002253000008000005984KBZ BANK               D&C DESIGN &  MMR11008061229220004400806000000000000000   10300001 00104100000000001140000000000000     
100   62911028202150190000000000017216000000017216002000000010410408060934510006684773800806000751490792   1030000200030000   541188001082000008000000294KBZ BANK               CITY MART - J MMR11008060934510006680806000000000000000   10300001 00104100000000001033000000000000     
100   62911028202665580000000000018500000000018500002000000010410408061147200298284773800806000751498275   1030000200030000   541188001038000008000000010KBZ BANK               MARKETPLACE - MMR11008061147200298280806000000000000000   10300001 00104100000000001110000000000000     
100   62911028202527490000000000013000000000013000002000000010410408060458140322874773800806221811032287   1040001600030000   598320000916000000010000664MMTM - North Dagon     Ygn           MMR11008060458140322870806000000000000000   10300001F00104100000000000390000000000000     
100   62911028202150190000000000013438000000013438002000000010410408061704310070064773800806000751516048   1030000200030000   541188001021000008000000298KBZ BANK               CITY MART - M MMR11008061704310070060806000000000000000   10300001 00104100000000000806000000000000     
100   62911028202150190000000000005800000000005800002000000010410408061705500019874773800806000751516094   1030000200030000   541188001030000008000000298KBZ BANK               CITY MART - M MMR11008061705500019870806000000000000000   10300001 00104100000000000348000000000000     
100   95050317945250280000000000152400000000152400002000000010410408060424200300648930100806221811030064   1040001600030000   591220000287000000010000275Shwe Ohh Pharmacy (Wit Yangon        MMR11008060424200300640806000000000000000   10300001F00104100000000036576000000000000     
100   62911028202698420000000000206100000000206100002000000010410408060707250049174773800806000751504565   1030000200030000   599988000600000008000003439KBZ BANK               SWEETY HOME ( MMR11008060707250049170806000000000000000   10300001 00104100000000012366000000000000     
100   62911028202502480000000000027940000000027940002000000010410408060418380296834773800806221811029683   1040001600030000   598320000854000000010000608Terminal Petrol Statio Yangon        MMR11008060418380296830806000000000000000   10300001F00104100000000000838000000000000     
100   62443100343196790000000000006212000000006212002000000010410408061250060043980909180806000751502269   1030000200030000   541188001454000008000000391KBZ BANK               OCEAN SUPER C MMR11008061250060043980806000000000000000   10300001 00104100000000001553000000000000     
100   62443100343196790000000000001450000000001450002000000010410408061259020047185951730806000751502764   1030000200030000   541188001459000008000000391KBZ BANK               OCEAN SUPER C MMR11008061259020047180806000000000000000   10300001 00104100000000000363000000000000     
