100   95050313843656520000000000002970000000002970002000000010410408050235560556748191320805000007597928   1020000200030000   333400010001204104000000281Myanmar Soft-Gate Tech Yangon        MMR11008050235560556740805000000000000000   10300001F05104100000000000624000000000000     
100   95050310427855490000000000002970000000002970002000000010410408051254112411024447570805000007603527   1020000200030000   333400010001204104000000281Myanmar Soft-Gate Tech Yangon        MMR11008051254112411020805000000000000000   10300001F05104100000000000624000000000000     
100   95050323722449090000000000009900000000009900002000000010410408050323035303790601630805000007598441   1020000200030000   333400010001204104000000281Myanmar Soft-Gate Tech Yangon        MMR11008050323035303790805000000000000000   10300001F05104100000000002079000000000000     
100   95050310397364970000000000001980000000001980002000000010410408051521245124832624890805000007604065   1020000200030000   333400010001204104000000281Myanmar Soft-Gate Tech Yangon        MMR11008051521245124830805000000000000000   10300001F05104100000000000416000000000000     
100   95050313892255050000000000100000000000100000002000000010410408051129155915900717120805000007603175   1030000200030000   333800010001203104000003327KBZPay                 Yangon        MMR11008051129155915900805000000000000000   10300001F05104100000000021000000000000000     
100   95050310332595380000000000000990000000000990002000000010410408050051572157739748260805000007597556   1020000200030000   333400010001204104000000281Myanmar Soft-Gate Tech Yangon        MMR11008050051572157730805000000000000000   10300001F05104100000000000208000000000000     
100   95050327416134790000000000001980000000001980002000000010410408051302533253892795090805000007603552   1020000200030000   333400010001204104000000281Myanmar Soft-Gate Tech Yangon        MMR11008051302533253890805000000000000000   10300001F05104100000000000416000000000000     
100   95050313441999020000000000005000000000005000002000000010410408050826415641356427110805000007601851   1030000200030000   3338000100012031040000040022C2P (Myanmar) Co. Ltd Yangon        MMR11008050826415641350805000000000000000   10300001F05104100000000001050000000000000     
100   95050315250339200000000000202000000000202000002000000010410408050729595959462814010805000007601351   1030000200030000   333800010001203104000003327KBZPay                 Yangon        MMR11008050729595959460805000000000000000   10300001F05104100000000042420000000000000     
100   95050318741700180000000000002970000000002970002000000010410408051442281228724192280805000007603927   1020000200030000   333400010001204104000000281Myanmar Soft-Gate Tech Yangon        MMR11008051442281228720805000000000000000   10300001F05104100000000000624000000000000     
100   95050322569804950000000000100000000000100000002000000010410408050747551755432742740805000007601521   1030000200030000   3338000100012031040000040022C2P (Myanmar) Co. Ltd Yangon        MMR11008050747551755430805000000000000000   10300001F05104100000000021000000000000000     
100   62443100330108240000000000002970000000002970002000000010410408050401003100819679310805000007599015   1020000200030000   333400010001204104000000281Myanmar Soft-Gate Tech Yangon        MMR11008050401003100810805000000000000000   10300001F05104100000000000624000000000000     
100   95050312160676580000000000050600000000050600002000000010410408050305103510250672900805000007598141   1030000200030000   333800010001203104000003327KBZPay                 Yangon        MMR11008050305103510250805000000000000000   10300001F05104100000000010626000000000000     
100   95050329213164970000000000004950000000004950002000000010410408051415364536929234830805000007603838   1020000200030000   333400010001204104000000281Myanmar Soft-Gate Tech Yangon        MMR11008051415364536920805000000000000000   10300001F05104100000000001040000000000000     
100   95050318141561190000000000010000000000010000002000000010410408051321005100496185150805000007603614   1040001600030000   333800010001220104000004507A +                    Yangon        MMR11008051321005100490805000000000000000   10300001F05104100000000002100000000000000     
100   95050316377977350000000000005000000000005000002000000010410408051223505350032199410805000007603408   1030000200030000   3338000100012031040000040022C2P (Myanmar) Co. Ltd Yangon        MMR11008051223505350030805000000000000000   10300001F05104100000000001050000000000000     
100   95050312675525330000000000004000000000004000002000000010410408050228405840275776320805000007597886   1030000200030000   333800010001203104000003327KBZPay                 Yangon        MMR11008050228405840270805000000000000000   10300001F05104100000000000840000000000000     
100   95050313145843230000000000030000000000030000002000000010410408051128405840658979540805000007603177   1030000200030000   333800010001203104000003327KBZPay                 Yangon        MMR11008051128405840650805000000000000000   10300001F05104100000000006300000000000000     
100   95050317176867660000000000005200000000005200002000000010410408050243398168655638420805774130939216   1030000900030000   541119000112190110000000077Sein Gay Har Chinatown YANGON        MMR11008050243398168650805000000000000000   10300001F00104100000000001300000000000000     
100   62911028202103410000000000050000000000050000002000000010410408050756042604194773800805000007601577   1030000300030000   333300010001206104000002147DICA Company Limited   Yangon        MMR11008050756042604190805000000000000000   10300001F05104100000000010000000000000000     
100   62911028202163480000000000050000000000050000002000000010410408051213144314754773800805000007603375   1030000200030000   333800010001203104000003327KBZPay                 Yangon        MMR11008051213144314750805000000000000000   10300001F05104100000000010500000000000000     
100   95030301100102610000000000020000000000020000002000000010410408051413584358824773800805000007603828   1030000200030000   333800010001203104000003327KBZPay                 Yangon        MMR11008051413584358820805000000000000000   10300001F05104100000000004200000000000000     
100   95050316321163940000000000002970000000002970002000000010410408051143181318768724250805000007603254   1020000200030000   333400010001204104000000281Myanmar Soft-Gate Tech Yangon        MMR11008051143181318760805000000000000000   10300001F05104100000000000624000000000000     
100   95050315104396860000000000050000000000050000002000000010410408050615134513069906960805000007600478   1030000200030000   333800010001203104000003327KBZPay                 Yangon        MMR11008050615134513060805000000000000000   10300001F05104100000000010500000000000000     
100   95050315681162360000000000150000000000150000002000000010410408050628145814727922200805000007600627   1030000200030000   333800010001203104000003327KBZPay                 Yangon        MMR11008050628145814720805000000000000000   10300001F05104100000000031500000000000000     
100   62911028202448030000000000006600000000006600002000000010410408050335468181994773800805376051046216   1030000900030000   581219001595190110000001163Shwe Palin KMD         YANGONINDAING MMR11008050335468181990805000000000000000   10300001F00104100000000000673000000000000     
100   95050314979630620000000000000990000000000990002000000010410408050333160316754927720805000007598581   1020000200030000   333400010001204104000000281Myanmar Soft-Gate Tech Yangon        MMR11008050333160316750805000000000000000   10300001F05104100000000000208000000000000     
100   62911028202287150000000000044000000000044000002000000010410408051120230947024773800805502316650938   1040001400030000   481210000450024812100002674Win Mobile null No.46/ 8(A)  Ground  MMR11008051120230947020805000000000000000   10300001 00104100000000002640000000000000     
100   95050318712627500000000000004950000000004950002000000010410408050753192319047991140805000007601568   1020000200030000   333400010001204104000000281Myanmar Soft-Gate Tech Yangon        MMR11008050753192319040805000000000000000   10300001F05104100000000001040000000000000     
100   62911028202777790000000000012000000000012000002000000010410408050809023902314773800805000007601687   1030000200030000   333800010001203104000003327KBZPay                 Yangon        MMR11008050809023902310805000000000000000   10300001F05104100000000002520000000000000     
100   95050314327553180000000000050000000000050000002000000010410408050626265626054943800805000007600609   1030000200030000   333800010001203104000003327KBZPay                 Yangon        MMR11008050626265626050805000000000000000   10300001F05104100000000010500000000000000     
100   62443100392426520000000000010000000000010000002000000010410408050518534853405345580805000007599998   1030000200030000   333800010001203104000003327KBZPay                 Yangon        MMR11008050518534853400805000000000000000   10300001F05104100000000002100000000000000     
100   62911028202916630000000000046600000000046600002000000010410408050207498161324773800805492370849216   1030000900030000   591219000969190110000000776Shwe Ohh Pharmacy St ( YANGONADA     MMR11008050207498161320805000000000000000   10300001F00104100000000002796000000000000     
100   95050315122972560000000000000990000000000990002000000010410408051039240924882915840805000007602928   1020000200030000   333400010001204104000000281Myanmar Soft-Gate Tech Yangon        MMR11008051039240924880805000000000000000   10300001F05104100000000000208000000000000     
100   95050319161596230000000000000990000000000990002000000010410408050545391539148487920805000007600263   1020000200030000   333400010001204104000000281Myanmar Soft-Gate Tech Yangon        MMR11008050545391539140805000000000000000   10300001F05104100000000000208000000000000     
100   95050329213164970000000000002970000000002970002000000010410408050759082908016001600805000007601617   1020000200030000   333400010001204104000000281Myanmar Soft-Gate Tech Yangon        MMR11008050759082908010805000000000000000   10300001F05104100000000000624000000000000     
100   62443100350052510000000000063600000000063600002000000010410408050306583658281098400805000007598125   1030000200030000   333300010001203104000003632Myanmar Tradenet Test  Yangon        MMR11008050306583658280805000000000000000   10300001F05104100000000010000000000000000     
100   95050311382087030000000000002970000000002970002000000010410408051410574057689149730805000007603811   1020000200030000   333400010001204104000000281Myanmar Soft-Gate Tech Yangon        MMR11008051410574057680805000000000000000   10300001F05104100000000000624000000000000     
100   62911028202777790000000000007000000000007000002000000010410408050324095409674773800805000007598479   1030000200030000   333800010001203104000003327KBZPay                 Yangon        MMR11008050324095409670805000000000000000   10300001F05104100000000001470000000000000     
100   95050315259054570000000000035000000000035000002000000010410408050221585158437975060805000007597854   1030000200030000   333800010001203104000003327KBZPay                 Yangon        MMR11008050221585158430805000000000000000   10300001F05104100000000007350000000000000     
100   95050310902464360000000000015000000000015000002000000010410408040719220000024439930804221613000002   1030000500030000   569120109701008205691201097ESCORT (PYAY)          PTN           MMR11008040719220000020804000000000000000   10300001 00104100000000003600000000000000     
100   95050310902464360000000000039000000000039000002000000010410408040715290000014865390804221613000001   1030000500030000   569120109701008205691201097ESCORT (PYAY)          PTN           MMR11008040715290000010804000000000000000   10300001 00104100000000009360000000000000     
100   62443100318296470000000000050400000000050400002000000010410408040441010000055217700804221611000005   1030000500030000   541120020701022205411200207ORANGE (YDG)           PTN           MMR11008040441010000050804000000000000000   10300001 00104100000000012600000000000000     
100   62911028202446130000000000008900000000008900002000000010410408040520280015774773800804221611001577   1030000500030000   541120227507000045411202275CITY MART (AHLONE BRAN PTN           MMR11008040520280015770804000000000000000   10300001 00104100000000000534000000000000     
100   62911028202312890000000000027000000000027000002000000010410408040700340000374773800804221613000037   1030000500030000   598320001601000015172200016MAX ENERGY             PTN           MMR11008040700340000370804000000000000000   10300001 00104100000000000810000000000000     
100   95050317945250280000000000031600000000031600002000000010410408041010420001466120920804000359302231   1030000300030000   594300002198000000000001467CB BANK                GOLDEN TIGER  MMR11008041010420001460804000000000000000   10300001F00104100000000007584000000000000     
100   62911028202809060000000000021500000000021500002000000010410408040756370021794773800804221614002179   1030000500030000   531120226733000045311202267OCEAN NORTH POINT      PTN           MMR11008040756370021790804000000000000000   10300001 00104100000000001290000000000000     
100   95050328436198120000000000381300000000381300002000000010410408040506040000124061100804221611000012   1030000500030000   481220207701005904812202077TECHNOLAND (MAWLAMYINE PTN           MMR11008040506040000120804000000000000000   10300001 00104100000000091512000000000000     
100   95030357919784470000000000096650000000096650002000000010410408050410248193184773800805926401024216   1030000900030000   591219000796190110000000628Shwe Ohh Pharmacy ST-3 YANGONMYOTHIT MMR11008050410248193180805000000000000000   10300001F00104100000000005799000000000000     
100   95050317876216360000000000002970000000002970002000000010410408050341471147910176130805000007598733   1020000200030000   333400010001204104000000281Myanmar Soft-Gate Tech Yangon        MMR11008050341471147910805000000000000000   10300001F05104100000000000624000000000000     
100   95050316377977350000000000002000000000002000002000000010410408051344571457439575220805000007603714   1030000200030000   3338000100012031040000040022C2P (Myanmar) Co. Ltd Yangon        MMR11008051344571457430805000000000000000   10300001F05104100000000000420000000000000     
100   95050310213446310000000000004950000000004950002000000010410408042359312931719039910805000007597454   1020000200030000   333400010001204104000000281Myanmar Soft-Gate Tech Yangon        MMR11008042359312931710805000000000000000   10300001F05104100000000001040000000000000     
100   95050311740551900000000000080000000000080000002000000010410408050657222722182103300805000007600915   1030000200030000   333800010001203104000003327KBZPay                 Yangon        MMR11008050657222722180805000000000000000   10300001F05104100000000016800000000000000     
100   95050315122972560000000000000990000000000990002000000010410408051042181218974568330805000007602940   1020000200030000   333400010001204104000000281Myanmar Soft-Gate Tech Yangon        MMR11008051042181218970805000000000000000   10300001F05104100000000000208000000000000     
100   95050311959900780000000000000990000000000990002000000010410408050542481248977708260805000007600234   1020000200030000   333400010001204104000000281Myanmar Soft-Gate Tech Yangon        MMR11008050542481248970805000000000000000   10300001F05104100000000000208000000000000     
100   95050312675525330000000000013500000000013500002000000010410408051250242024632709990805000007603511   1030000200030000   333800010001203104000003327KBZPay                 Yangon        MMR11008051250242024630805000000000000000   10300001F05104100000000002835000000000000     
100   62443101037081820000000000028000000000028000002000000010410408041004280000837114210804221616000083   1030000500030000   598320001202000015172200012MAX ENERGY             PTN           MMR11008041004280000830804000000000000000   10300001 00104100000000003360000000000000     
100   62443100306045460000000000171700000000171700002000000010410408041147270001349962190804000359317075   1030000300030000   531100003898000000000002936CB BANK                MAXI WHOLESAL MMR11008041147270001340804000000000000000   10300001F00104100000000041208000000000000     
100   62911028202752030000000000140000000000140000002000000010410408041138590001354773800804221618000135   1030000500030000   598320003202000015172200032MAX ENERGY             PTN           MMR11008041138590001350804000000000000000   10300001 00104100000000004200000000000000     
100   95050326593223450000000000076650000000076650002000000010410408040459400000130585940804221611000013   1030000500030000   503920036601000015039200366PRO-1 HOME CENTER      PTN           MMR11008040459400000130804000000000000000   10300001 00104100000000018396000000000000     
100   62911028202285900000000000020000000000020000002000000010410408040432330000244773800804221611000024   1030000500030000   598320001604000015172200016MAX ENERGY             PTN           MMR11008040432330000240804000000000000000   10300001 00104100000000000600000000000000     
100   95030383710373370000000000021500000000021500002000000010410408041313530000164773800804221619000016   1030000500030000   581220024301000015812200243SHWE LAR HOT POT       PTN           MMR11008041313530000160804000000000000000   10300001 00104100000000002193000000000000     
100   95050324154190880000000000020000000000020000002000000010410408040854300000558057720804221615000055   1030000500030000   598320002103000015172200021MAX ENERGY             PTN           MMR11008040854300000550804000000000000000   10300001 00104100000000002400000000000000     
100   62911028202027440000000000060000000000060000002000000010410408040413160000944773800804221610000094   1030000500030000   701120027201000107011200272HOTEL MAX NAYPYITAW    PTN           MMR11008040413160000940804000000000000000   10300001 00104100000000006120000000000000     
100   95050313400081980000000000001350000000001350002000000010410408050958452845436286850805000007602603   1030000200030000   333800010001203104000003327KBZPay                 Yangon        MMR11008050958452845430805000000000000000   10300001F05104100000000000284000000000000     
100   95050325715886680000000000006930000000006930002000000010410408050857022702059122580805000007602093   1020000200030000   333400010001204104000000281Myanmar Soft-Gate Tech Yangon        MMR11008050857022702050805000000000000000   10300001F05104100000000001455000000000000     
100   95050315615561720000000000004950000000004950002000000010410408050913014301763591330805000007602258   1020000200030000   333400010001204104000000281Myanmar Soft-Gate Tech Yangon        MMR11008050913014301760805000000000000000   10300001F05104100000000001040000000000000     
100   95050314794441720000000000300000000000300000002000000010410408050325225522127977380805000007598396   1030000200030000   333800010001203104000003327KBZPay                 Yangon        MMR11008050325225522120805000000000000000   10300001F05104100000000063000000000000000     
100   95030371405797020000000000300000000000300000002000000010410408051029295929834773800805000007602847   1030000200030000   333800010001203104000003327KBZPay                 Yangon        MMR11008051029295929830805000000000000000   10300001F05104100000000063000000000000000     
100   95050310427855490000000000000990000000000990002000000010410408051347031703044532670805000007603720   1020000200030000   333400010001204104000000281Myanmar Soft-Gate Tech Yangon        MMR11008051347031703040805000000000000000   10300001F05104100000000000208000000000000     
100   95050315158357300000000000001980000000001980002000000010410408051448381838252539800805000007603942   1020000200030000   333400010001204104000000281Myanmar Soft-Gate Tech Yangon        MMR11008051448381838250805000000000000000   10300001F05104100000000000416000000000000     
100   62443100330108240000000000030000000000030000002000000010410408050957272727569762020805000007602592   1030000200030000   333800010001203104000003327KBZPay                 Yangon        MMR11008050957272727560805000000000000000   10300001F05104100000000006300000000000000     
100   62443100372718280000000000023258000000023258002000000010410408040107010003731174400804000359207106   1030000300030000   598300001210000000000000817CB BANK                SHWE TAUNG EN MMR11008040107010003730804000000000000000   10300001F00104100000000002791000000000000     
100   62911028202197630000000000008000000000008000002000000010410408040442500000634773800804221611000063   1030000500030000   598320001901000015172200019MAX ENERGY             PTN           MMR11008040442500000630804000000000000000   10300001 00104100000000000240000000000000     
100   62443100315110470000000000148250000000148250002000000010410408041109280004337789370804221617000433   1030000500030000   541120129720000045411201297MAKRO MYANMAR          PTN           MMR11008041109280004330804000000000000000   10300001 00104100000000037063000000000000     
100   95050326593223450000000000023900000000023900002000000010410408040519460000191983130804221611000019   1030000500030000   503920036601000015039200366PRO-1 HOME CENTER      PTN           MMR11008040519460000190804000000000000000   10300001 00104100000000005736000000000000     
100   95050324622440820000000000040550000000040550002000000010410408040714370000198340600804221613000019   1030000500030000   503920036604000015039200366PRO-1 HOME CENTER      PTN           MMR11008040714370000190804000000000000000   10300001 00104100000000009732000000000000     
100   62911028202792960000000000038193000000038193002000000010410408040941370000574773800804221616000057   1030000500030000   598320001604000015172200016MAX ENERGY             PTN           MMR11008040941370000570804000000000000000   10300001 00104100000000001146000000000000     
100   95030317922148660000000000048000000000048000002000000010410408040748070000634773800804221614000063   1030000500030000   592120185601000085921201856I LOVE LIQUOR 2        PTN           MMR11008040748070000630804000000000000000   10300001 00104100000000002880000000000000     
100   62911028202446130000000000014350000000014350002000000010410408040514250027704773800804221611002770   1030000500030000   541120227504000045411202275CITY MART (AHLONE BRAN PTN           MMR11008040514250027700804000000000000000   10300001 00104100000000000861000000000000     
100   62911028202523840000000001700000000001700000002000000010410408050330598180714773800805323001059216   1030000900030000   573219001179190110000000935UNIQUE Seikkanthar     YANGONADA     MMR11008050330598180710805000000000000000   10300001F00104100000000102000000000000000     
100   95050329720609600000000000020000000000020000002000000010410408051510340244046995190805000751453616   1030000200030000   541188001070000008000000314KBZ BANK               MARKETPLACE - MMR11008051510340244040805000000000000000   10300001 00104100000000005000000000000000     
100   62443100394939820000000000020000000000020000002000000010410408051314154415937752540805000007603586   1040001600030000   333800010001220104000004507A +                    Yangon        MMR11008051314154415930805000000000000000   10300001F05104100000000004200000000000000     
100   62911028202093430000000000001980000000001980002000000010410408050019424942024773800805000007597480   1020000200030000   333400010001204104000000281Myanmar Soft-Gate Tech Yangon        MMR11008050019424942020805000000000000000   10300001F05104100000000000416000000000000     
100   95050322990383760000000000012050000000012050002000000010410408051136469781382454700805221718978138   1040001600030000   591220000043000000010000041Mingalar Pharmacy      Yangon        MMR11008051136469781380805000000000000000   10300001F00104100000000002892000000000000     
100   95050310534130230000000000025000000000025000002000000010410408051051449733133511510805221717973313   1040001600030000   591220000043000000010000041Mingalar Pharmacy      Yangon        MMR11008051051449733130805000000000000000   10300001F00104100000000006000000000000000     
100   62911028202440680000000000004350000000004350002000000010410408050905178277604773800805015351517216   1030000900030000   591219000970190110000000777Shwe Ohh Pharmacy St ( YANGONAW      MMR11008050905178277600805000000000000000   10300001F00104100000000000261000000000000     
100   62911028202125030000000000419900000000419900002000000010410408051051508313064773800805957211750216   1030000900030000   573219001180190110000000936UNIQUE UChit Maung     YANGON        MMR11008051051508313060805000000000000000   10300001F00104100000000025194000000000000     
100   95050324082484780000000000015000000000015000002000000010410408040528170030994316390804221605003099   1030000600030000   554100000775315799420000342DENKO  YIN TAW         MANDALAY      MMR11008040528170030990804000000000000000   10300001 00104100000000001800000000000000     
100   95050324082484780000000000026000000000026000002000000010410408040528420031002663900804221605003100   1030000600030000   554100000775315799420000342DENKO  YIN TAW         MANDALAY      MMR11008040528420031000804000000000000000   10300001 00104100000000003120000000000000     
100   62911028202471600000000000007550000000007550002000000010410408040908160002314773800804221609000231   1030000600030000   591200002215315799420001560365 PHARMACY 3         YANGON        MMR11008040908160002310804000000000000000   10300001 00104100000000000453000000000000     
100   62911028202402980000000000033650000000033650002000000010410408040652000000074773800804221613000007   1030000500030000   591220011001014405912200110SHWE OHH PHARMACY      PTN           MMR11008040652000000070804000000000000000   10300001 00104100000000002019000000000000     
100   95050310283577350000000000069188000000069188002000000010410408041207370000400884470804221618000040   1030000500030000   531120155712000045311201557GAMONE PWINT           PTN           MMR11008041207370000400804000000000000000   10300001 00104100000000016605000000000000     
100   62911028202204490000000000031000000000031000002000000010410408041320030001104773800804221619000110   1030000500030000   598320001202000015172200012MAX ENERGY             PTN           MMR11008041320030001100804000000000000000   10300001 00104100000000000930000000000000     
100   62911028202611530000000000011500000000011500002000000010410408040700390030154773800804221613003015   1030000500030000   541120203706000015411202037CITY MART SUPERMARKET  PTN           MMR11008040700390030150804000000000000000   10300001 00104100000000000690000000000000     
100   62911028202169750000000000020000000000020000002000000010410408040902340000094773800804221615000009   1030000500030000   598320002101000015172200021MAX ENERGY             PTN           MMR11008040902340000090804000000000000000   10300001 00104100000000000600000000000000     
100   62911028202595200000000000054319000000054319002000000010410408050708119585204773800805221714958520   1040001600030000   598320000658000000010000527Shwe Taung Energy (YGN Yangon        MMR11008050708119585200805000000000000000   10300001F00104100000000001630000000000000     
100   62911028202084020000000000036950000000036950002000000010410408050948228293304773800805894181622216   1030000900030000   541119000126190110000000082Sein Gay Har Super Cen YANGON        MMR11008050948228293300805000000000000000   10300001F00104100000000002217000000000000     
100   95050319695392670000000000008700000000008700002000000010410408051115519758453341320805221718975845   1040001600030000   541120000563000000010000465Ocean Shwe Gone Daing  Yangon        MMR11008051115519758450805000000000000000   10300001F00104100000000002175000000000000     
100   62443100395250310000000000031836000000031836002000000010410408050936348289355861350805675061634216   1030000900030000   541119001265190110000000958City Mart PLST C 8     YANGONMYOTHIT MMR11008050936348289350805000000000000000   10300001F00104100000000007959000000000000     
100   62911028202154640000000000028094000000028094002000000010410408050709578243034773800805278391357216   1030000900030000   541119001260190110000000958City Mart PLST C 3     YANGONMYOTHIT MMR11008050709578243030805000000000000000   10300001F00104100000000001686000000000000     
100   95030385550669610000000000049000000000049000002000000010410408051137469782614773800805221718978261   1040001600030000   598320001059000000010000780Yangon Petrol (Tharket Ygn           MMR11008051137469782610805000000000000000   10300001F00104100000000001470000000000000     
100   62911028202916630000000000016000000000016000002000000010410408051312028352714773800805247421902216   1030000900030000   554119000348190110000000215New Day Energy MYG     YANGONONE     MMR11008051312028352710805000000000000000   10300001F00104100000000000480000000000000     
100   62911028202248050000000000125813000000125813002000000010410408050501338207194773800805585311133216   1030000900030000   541119001330190110000000971Ocean Junction NPT C 8 NAYPYITAW     MMR11008050501338207190805000000000000000   10300001F00104100000000007549000000000000     
100   62911028202809060000000000009200000000009200002000000010410408040825450029104773800804221614002910   1030000500030000   531120226710000045311202267OCEAN NORTH POINT      PTN           MMR11008040825450029100804000000000000000   10300001 00104100000000000552000000000000     
100   62911028202631420000000000008520000000008520002000000010410408040718140030184773800804221613003018   1030000500030000   541120203706000015411202037CITY MART SUPERMARKET  PTN           MMR11008040718140030180804000000000000000   10300001 00104100000000000511000000000000     
100   95030323161862590000000000122140000000122140002000000010410408041305430000124773800804221619000012   1030000500030000   581220066601000015812200666MUSIC BUZZ ENTERTAINME PTN           MMR11008041305430000120804000000000000000   10300001 00104100000000012458000000000000     
100   62911028202809060000000000038554000000038554002000000010410408040820210021604773800804221614002160   1030000500030000   531120226707000045311202267OCEAN NORTH POINT      PTN           MMR11008040820210021600804000000000000000   10300001 00104100000000002313000000000000     
100   62911028202400660000000000041000000000041000002000000010410408040619190030014773800804221612003001   1030000500030000   531120226719000045311202267OCEAN NORTH POINT      PTN           MMR11008040619190030010804000000000000000   10300001 00104100000000002460000000000000     
100   62911028202178740000000000020700000000020700002000000010410408040516580000094773800804221611000009   1030000500030000   541120020701022205411200207ORANGE (YDG)           PTN           MMR11008040516580000090804000000000000000   10300001 00104100000000001242000000000000     
100   95050326689257240000000000030300000000030300002000000010410408041207300053348188950804000359319849   1030000300030000   531100000797000000000000540CB BANK                CAPITAL SUPER MMR11008041207300053340804000000000000000   10300001F00104100000000007272000000000000     
100   95050311076838860000000000023650000000023650002000000010410408041337140043167692180804221620004316   1030000500030000   541120226809000045411202268CITY MART WAIZAYANDA   PTN           MMR11008041337140043160804000000000000000   10300001 00104100000000005913000000000000     
100   95050310543219930000000000060000000000060000002000000010410408050942068291183733960805768121606216   1030000900030000   569119001498190110000001092Next Generation GCS GM YANGONUT      MMR11008050942068291180805000000000000000   10300001F00104100000000014400000000000000     
100   62911028202488950000000000030000000000030000002000000010410408051104098316754773800805166341709216   1030000900030000   554119001100190110000000212New Day Energy PZD     YANGON        MMR11008051104098316750805000000000000000   10300001F00104100000000000900000000000000     
100   62911028202530930000000000038500000000038500002000000010410408051232418344184773800805777021941216   1030000900030000   581219000423190110000000284BCC (SYS)              YANGON        MMR11008051232418344180805000000000000000   10300001F00104100000000003927000000000000     
100   62911028202668300000000000028500000000028500002000000010410408050145399400694773800805221708940069   1040001600030000   598320001127000000010000608Terminal Petrol Statio Yangon        MMR11008050145399400690805000000000000000   10300001F00104100000000000855000000000000     
100   95050312845568060000000000006300000000006300002000000010410408050723578246847140180805460531357216   1030000900030000   573219001179190110000000935UNIQUE Seikkanthar     YANGONADA     MMR11008050723578246840805000000000000000   10300001F00104100000000001512000000000000     
100   62911028202304970000000000013850000000013850002000000010410408050741198251834773800805716111419216   1030000900030000   541119001265190110000000958City Mart PLST C 8     YANGONMYOTHIT MMR11008050741198251830805000000000000000   10300001F00104100000000000831000000000000     
100   62911028202084020000000000082150000000082150002000000010410408050846418271894773800805721161541216   1030000900030000   541119000130190110000000082Sein Gay Har Super Cen YANGON        MMR11008050846418271890805000000000000000   10300001F00104100000000004929000000000000     
100   62911028202556760000000000020450000000020450002000000010410408051145129790904773800805221718979090   1040001600030000   591220000297000000010000285Shwe Ohh Pharmacy (Nor Yangon        MMR11008051145129790900805000000000000000   10300001F00104100000000001227000000000000     
100   95050322420590810000000000075010000000075010002000000010410408040112580738799755350804221601073879   1030000600030000   554100000952315799420000474DENKO N.DAGON - 1      YANGON        MMR11008040112580738790804000000000000000   10300001 00104100000000009001000000000000     
100   62911028202366010000000000057000000000057000002000000010410408040919540436704773800804221609043670   1030000600030000   554100001865315799420001235DENKO NAY PYI TAW 2    NAYPYITAW     MMR11008040919540436700804000000000000000   10300001 00104100000000001710000000000000     
100   95050311876202380000000000060000000000060000002000000010410408040403380176301316150804221604017630   1030000600030000   554100002328315799420001235DENKO NAY PYI TAW 2    NAYPYITAW     MMR11008040403380176300804000000000000000   10300001 00104100000000007200000000000000     
100   62911028202615590000000000037846000000037846002000000010410408040218130255644773800804221602025564   1030000600030000   554100002323315799420000474DENKO N.DAGON - 1      YANGON        MMR11008040218130255640804000000000000000   10300001 00104100000000001135000000000000     
100   95050321232876860000000000084000000000084000002000000010410408041137000436834528060804221611043683   1030000600030000   554100001865315799420001235DENKO NAY PYI TAW 2    NAYPYITAW     MMR11008041137000436830804000000000000000   10300001 00104100000000010080000000000000     
100   62911028202792960000000000011800000000011800002000000010410408041145570034624773800804221618003462   1030000500030000   541120227604000045411202276CITY MART ( 47 BRANCH  PTN           MMR11008041145570034620804000000000000000   10300001 00104100000000000708000000000000     
100   95050311560587250000000000004600000000004600002000000010410408041127320036923534770804000359314257   1030000300030000   531100000104000000000000038CB BANK                ICELAND CO.LT MMR11008041127320036920804000000000000000   10300001F00104100000000001104000000000000     
100   62443100343312450000000000182028000000182028002000000010410408051148270017033766800805000751469380   1030000200030000   541188001628000008000000008KBZ BANK               MARKETPLACE - MMR11008051148270017030805000000000000000   10300001 00104100000000045507000000000000     
100   95050320205194540000000000083300000000083300002000000010410408050933378288100541670805607031637216   1030000900030000   591219000969190110000000776Shwe Ohh Pharmacy St ( YANGONADA     MMR11008050933378288100805000000000000000   10300001F00104100000000019992000000000000     
100   62911028202294730000000000007600000000007600002000000010410408051112208319314773800805310421720216   1030000900030000   541119000130190110000000082Sein Gay Har Super Cen YANGON        MMR11008051112208319310805000000000000000   10300001F00104100000000000456000000000000     
100   95050321848852460000000000049000000000049000002000000010410408051445428367714277380805932152142216   1030000900030000   554119000348190110000000215New Day Energy MYG     YANGONONE     MMR11008051445428367710805000000000000000   10300001F00104100000000005880000000000000     
100   62911028202311310000000000075300000000075300002000000010410408040201430000014773800804221608000001   1030000500030000   541120129721000045411201297MAKRO MYANMAR          PTN           MMR11008040201430000010804000000000000000   10300001 00104100000000004518000000000000     
100   62911028202193830000000000191780000000191780002000000010410408051105078317004773800805181351707216   1030000900030000   541119001241190110000000082Sein Gay Har Super Cen YANGON        MMR11008051105078317000805000000000000000   10300001F00104100000000011507000000000000     
100   62911028202537390000000000050000000000050000002000000010410408042235079322174773800805221705932217   1040001600030000   598320001062000000010000782Yangon Petrol (South/N Ygn           MMR11008042235079322170805000000000000000   10300001F00104100000000001500000000000000     
100   95050316377977350000000000001000000000001000002000000010410408051210414041725504380805000007603354   1030000200030000   3338000100012031040000040022C2P (Myanmar) Co. Ltd Yangon        MMR11008051210414041720805000000000000000   10300001F05104100000000000210000000000000     
100   62911028202595200000000000854800000000854800002000000010410408051010108300544773800805288401610216   1030000900030000   573219001177190110000000933UNIQUE Kabaraye        YANGON        MMR11008051010108300540805000000000000000   10300001F00104100000000051288000000000000     
100   62911028202204800000000000028800000000028800002000000010410408051241580006334773800805000751432279   1030000200030000   541188001082000008000000294KBZ BANK               CITY MART - J MMR11008051241580006330805000000000000000   10300001 00104100000000001728000000000000     
100   62443100314002660000000000036265000000036265002000000010410408051133140033251785320805000751422417   1030000200030000   541188001462000008000000391KBZ BANK               OCEAN SUPER C MMR11008051133140033250805000000000000000   10300001 00104100000000009067000000000000     
100   62443100314002660000000000015000000000015000002000000010410408051250380033292248330805000751433849   1030000200030000   541188001462000008000000391KBZ BANK               OCEAN SUPER C MMR11008051250380033290805000000000000000   10300001 00104100000000003750000000000000     
100   62911028202595200000000000003600000000003600002000000010410408050456000028734773800805000751421545   1030000200030000   541188000960000008000004886KBZ BANK               EASY-1        MMR11008050456000028730805000000000000000   10300001 00104100000000000216000000000000     
100   62911028202116120000000000018050000000018050002000000010410408051103060006294773800805000751418468   1030000200030000   541188001082000008000000294KBZ BANK               CITY MART - J MMR11008051103060006290805000000000000000   10300001 00104100000000001083000000000000     
100   95050310283518110000000000014100000000014100002000000010410408051113580041174203670805000751420020   1030000200030000   541188001444000008000000401KBZ BANK               OCEAN SUPERCE MMR11008051113580041170805000000000000000   10300001 00104100000000003525000000000000     
100   62443100300412100000000000156194000000156194002000000010410408051124040011015589480805000751467565   1030000200030000   806281231111000008000001642KBZ BANK               ASIA ROYAL HO MMR11008051124040011010805000000000000000   10300001 00104100000000037486000000000000     
100   95050321232876860000000000100000000000100000002000000010410408031625090436172025410803221516043617   1030000600030000   554100001865315799420001235DENKO NAY PYI TAW 2    NAYPYITAW     MMR11008031625090436170803000000000000000   10300001 00104100000000012000000000000000     
100   62443100306045460000000000006500000000006500002000000010410408051217048339593851900805496471804216   1030000900030000   541119001290190110000000965City Mart SPL City Car YANGONMYOTHIT MMR11008051217048339590805000000000000000   10300001F00104100000000001625000000000000     
100   62443100394939820000000000035000000000035000002000000010410408051107269749559951250805221718974955   1040001600030000   598320001453000000010001147360 Petro (Sat San)    Ygn           MMR11008051107269749550805000000000000000   10300001F00104100000000004200000000000000     
100   62911028202132460000000000008100000000008100002000000010410408051142568329004773800805863121856216   1030000900030000   541119001372190110000000978Ocean PZD Season C 2   YANGONAUNG    MMR11008051142568329000805000000000000000   10300001F00104100000000000486000000000000     
100   62911028202132460000000000031650000000031650002000000010410408051137048327504773800805781071804216   1030000900030000   541119001359190110000000977Ocean PZD C 13         YANGONAUNG    MMR11008051137048327500805000000000000000   10300001F00104100000000001899000000000000     
100   62911028202598430000000000100000000000100000002000000010410408030639570222364773800803221506022236   1030000600030000   554100002320315799420000564DENKO PHYUU            PHYUU         MMR11008030639570222360803000000000000000   10300001 00104100000000003000000000000000     
100   95030306100096490000000000000990000000000990002000000010410408050752032203874773800805000007601556   1020000200030000   333400010001204104000000281Myanmar Soft-Gate Tech Yangon        MMR11008050752032203870805000000000000000   10300001F05104100000000000208000000000000     
100   95050317176867660000000000002970000000002970002000000010410408051621185118266014960805000007604215   1020000200030000   333400010001204104000000281Myanmar Soft-Gate Tech Yangon        MMR11008051621185118260805000000000000000   10300001F05104100000000000624000000000000     
100   95050312641885210000000000022000000000022000002000000010410408051325295529309490120805000007603643   1030000200030000   333800010001203104000003327KBZPay                 Yangon        MMR11008051325295529300805000000000000000   10300001F05104100000000004620000000000000     
100   62911028202799160000000000095000000000095000002000000010410408031045490077754773800803221510007775   1030000600030000   554100001207315799420000659DENKO TAUNGOO          TAUNGOO.      MMR11008031045490077750803000000000000000   10300001 00104100000000002850000000000000     
100   62911028202074950000000000004600000000004600002000000010410408051621140182994773800805000751460224   1030000200030000   541188001023000008000000298KBZ BANK               CITY MART - M MMR11008051621140182990805000000000000000   10300001 00104100000000000276000000000000     
100   95030327835334700000000000030850000000030850002000000010410408051552580110184773800805000751457849   1030000200030000   541188001245000008000000323KBZ BANK               CITY MART - I MMR11008051552580110180805000000000000000   10300001 00104100000000001851000000000000     
100   95050312595952760000000000000990000000000990002000000010410408050331560156861452550805000007598589   1020000200030000   333400010001204104000000281Myanmar Soft-Gate Tech Yangon        MMR11008050331560156860805000000000000000   10300001F05104100000000000208000000000000     
100   62911028202611530000000000021600000000021600002000000010410408051339420062644773800805000751441626   1030000200030000   541188001057000008000000314KBZ BANK               MARKETPLACE - MMR11008051339420062640805000000000000000   10300001 00104100000000001296000000000000     
100   62911028202611530000000000013500000000013500002000000010410408051342510062654773800805000751442120   1030000200030000   541188001057000008000000314KBZ BANK               MARKETPLACE - MMR11008051342510062650805000000000000000   10300001 00104100000000000810000000000000     
100   95050329720609600000000000089800000000089800002000000010410408051508460062713520020805000751453463   1030000200030000   541188001057000008000000314KBZ BANK               MARKETPLACE - MMR11008051508460062710805000000000000000   10300001 00104100000000022450000000000000     
100   62443100383487320000000000120124000000120124002000000010410408051147590121437083160805000751424418   1030000200030000   541188001006000008000000008KBZ BANK               MARKETPLACE - MMR11008051147590121430805000000000000000   10300001 00104100000000030031000000000000     
100   95030306100096490000000000000990000000000990002000000010410408051042481248664773800805000007602953   1020000200030000   333400010001204104000000281Myanmar Soft-Gate Tech Yangon        MMR11008051042481248660805000000000000000   10300001F05104100000000000208000000000000     
100   62443100338512680000000000110000000000110000002000000010410408050604173417594729910805000007600401   1030000200030000   3338000100012031040000040022C2P (Myanmar) Co. Ltd Yangon        MMR11008050604173417590805000000000000000   10300001F05104100000000023100000000000000     
100   62443101076362230000000000880000000000880000002000000010410408050735548250448913380805650051454216   1030000900030000   554119001101190110000000213New Day Energy SOK     YANGONOKKALAP MMR11008050735548250440805000000000000000   10300001F00104100000000105600000000000000     
100   62911028202809060000000000300000000000300000002000000010410408050043561356464773800805000007597540   1030000200030000   333800010001203104000003327KBZPay                 Yangon        MMR11008050043561356460805000000000000000   10300001F05104100000000063000000000000000     
100   62911028202169750000000000062382000000062382002000000010410408040854458861294773800804221615886129   1040001600030000   541120000559000000010000465Ocean Shwe Gone Daing  Yangon        MMR11008040854458861290804000000000000000   10300001F00104100000000003743000000000000     
100   95050328035424750000000000191800000000191800002000000010410408041143490012043437360804221618001204   1030000500030000   531120231217000045311202312OCEAN OATTARA THIRI    PTN           MMR11008041143490012040804000000000000000   10300001 00104100000000046032000000000000     
100   95050324082484780000000000010650000000010650002000000010410408050928598286197917470805501581559216   1030000900030000   541119001296190110000000968Ocean Mingalar MDY C 4 MANDALAYHARSI MMR11008050928598286190805000000000000000   10300001F00104100000000002663000000000000     
100   62911028202822250000000000040000000000040000002000000010410408040647450000094773800804221613000009   1030000500030000   598320001904000015172200019MAX ENERGY             PTN           MMR11008040647450000090804000000000000000   10300001 00104100000000001200000000000000     
100   95050310283518110000000000018470000000018470002000000010410408051110390066437593730805000751419630   1030000200030000   541188001432000008000000401KBZ BANK               OCEAN SUPERCE MMR11008051110390066430805000000000000000   10300001 00104100000000004618000000000000     
100   95030318100004530000000000026300000000026300002000000010410408051128340053514773800805000751421832   1030000200030000   541188001424000008000000401KBZ BANK               OCEAN SUPERCE MMR11008051128340053510805000000000000000   10300001 00104100000000001578000000000000     
100   95050315150726490000000000001980000000001980002000000010410408051531130113685929860805000007604095   1020000200030000   333400010001204104000000281Myanmar Soft-Gate Tech Yangon        MMR11008051531130113680805000000000000000   10300001F05104100000000000416000000000000     
100   95050320694620120000000000017400000000017400002000000010410408051748050133093426420805000751467164   1030000200030000   541188001303000008000000325KBZ BANK               CITY MART - A MMR11008051748050133090805000000000000000   10300001 00104100000000004350000000000000     
100   95050311458479980000000000005000000000005000002000000010410408050832070207282951940805000007601900   1030000200030000   3338000100012031040000040022C2P (Myanmar) Co. Ltd Yangon        MMR11008050832070207280805000000000000000   10300001F05104100000000001050000000000000     
100   62911028202307860000000000005800000000005800002000000010410408051433480201134773800805000751449211   1030000200030000   541188001304000008000000325KBZ BANK               CITY MART - A MMR11008051433480201130805000000000000000   10300001 00104100000000000348000000000000     
100   95050315122972560000000000000990000000000990002000000010410408050352012201502232200805000007598888   1020000200030000   333400010001204104000000281Myanmar Soft-Gate Tech Yangon        MMR11008050352012201500805000000000000000   10300001F05104100000000000208000000000000     
100   95050311959900780000000000000990000000000990002000000010410408051359192919157497250805000007603766   1020000200030000   333400010001204104000000281Myanmar Soft-Gate Tech Yangon        MMR11008051359192919150805000000000000000   10300001F05104100000000000208000000000000     
100   95050312845568060000000000100000000000100000002000000010410408051126215621210632020805000007603147   1030000200030000   333800010001203104000003327KBZPay                 Yangon        MMR11008051126215621210805000000000000000   10300001F05104100000000021000000000000000     
100   62443100306045460000000000034500000000034500002000000010410408051225298342341057510805672551829216   1030000900030000   541119001283190110000000963City Mart SPL C 8      YANGONMYOTHIT MMR11008051225298342340805000000000000000   10300001F00104100000000008625000000000000     
100   95050310397364970000000000002970000000002970002000000010410408050333410341082303560805000007598317   1020000200030000   333400010001204104000000281Myanmar Soft-Gate Tech Yangon        MMR11008050333410341080805000000000000000   10300001F05104100000000000624000000000000     
100   62911028202421380000000000020150000000020150002000000010410408051807460146994773800805000751468588   1030000200030000   541188001081000008000000294KBZ BANK               CITY MART - J MMR11008051807460146990805000000000000000   10300001 00104100000000001209000000000000     
100   95050310572950870000000000030000000000030000002000000010410408050608063806950403780805000007600418   1030000200030000   333800010001203104000003327KBZPay                 Yangon        MMR11008050608063806950805000000000000000   10300001F05104100000000006300000000000000     
100   62911028202027440000000000089340000000089340002000000010410408050657128239644773800805121271312216   1030000900030000   541119001331190110000000971Ocean Junction NPT C 9 NAYPYITAW     MMR11008050657128239640805000000000000000   10300001F00104100000000005360000000000000     
100   62911028202123960000000000026100000000026100002000000010410408040159100000024773800804221608000002   1030000500030000   541120129723000045411201297MAKRO MYANMAR          PTN           MMR11008040159100000020804000000000000000   10300001 00104100000000001566000000000000     
100   95050312926040930000000000003000000000003000002000000010410408050255352535097765860805000007598054   1030000200030000   333800010001203104000003327KBZPay                 Yangon        MMR11008050255352535090805000000000000000   10300001F05104100000000000630000000000000     
100   95050316769671810000000000000990000000000990002000000010410408050301483148176346810805000007598092   1020000200030000   333400010001204104000000281Myanmar Soft-Gate Tech Yangon        MMR11008050301483148170805000000000000000   10300001F05104100000000000208000000000000     
100   95050317003064220000000000000990000000000990002000000010410408050313074307686843580805000007598288   1020000200030000   333400010001204104000000281Myanmar Soft-Gate Tech Yangon        MMR11008050313074307680805000000000000000   10300001F05104100000000000208000000000000     
100   95050311959900780000000000000990000000000990002000000010410408051525305530617582350805000007604068   1020000200030000   333400010001204104000000281Myanmar Soft-Gate Tech Yangon        MMR11008051525305530610805000000000000000   10300001F05104100000000000208000000000000     
100   95030343892826500000000000200000000000200000002000000010410408050536020602924773800805000007600161   1030000200030000   333800010001203104000003327KBZPay                 Yangon        MMR11008050536020602920805000000000000000   10300001F05104100000000042000000000000000     
100   95050312160676580000000000000990000000000990002000000010410408050636040604553308500805000007600712   1020000200030000   333400010001204104000000281Myanmar Soft-Gate Tech Yangon        MMR11008050636040604550805000000000000000   10300001F05104100000000000208000000000000     
100   95050311419479170000000000001000000000001000002000000010410408050138470847167620910805000007597715   1030000200030000   3334000100012031040000040102C2P (Myanmar) Co. Ltd Yangon        MMR11008050138470847160805000000000000000   10300001F05104100000000000210000000000000     
100   95050319161596230000000000004950000000004950002000000010410408050543041304508133730805000007600243   1020000200030000   333400010001204104000000281Myanmar Soft-Gate Tech Yangon        MMR11008050543041304500805000000000000000   10300001F05104100000000001040000000000000     
100   62911028202809060000000000300000000000300000002000000010410408050042471247904773800805000007597535   1030000200030000   333800010001203104000003327KBZPay                 Yangon        MMR11008050042471247900805000000000000000   10300001F05104100000000063000000000000000     
100   62911028202709150000000000004050000000004050002000000010410408040603030000014773800804221612000001   1030000500030000   591220014101014405912200141SHWE OHH PHARMACY      PTN           MMR11008040603030000010804000000000000000   10300001 00104100000000000243000000000000     
100   62443100300412100000000000429385000000429385002000000010410408050840428269916923880805617101542216   1030000900030000   701119000074190110000000024Lotte Hotel            YANGON        MMR11008050840428269910805000000000000000   10300001F00104100000000182489000000000000     
100   95050319695392670000000000005400000000005400002000000010410408051100449742556986670805221718974255   1040001600030000   541120000573000000010000465Ocean Shwe Gone Daing  Yangon        MMR11008051100449742550805000000000000000   10300001F00104100000000001350000000000000     
100   95050319220344710000000000055000000000055000002000000010410408051006043604791433550805000007602669   1030000200030000   333800010001203104000003327KBZPay                 Yangon        MMR11008051006043604790805000000000000000   10300001F05104100000000011550000000000000     
100   95030305234413920000000000013700000000013700002000000010410408050913208280254773800805161431520216   1030000900030000   541119000128190110000000082Sein Gay Har Super Cen YANGON        MMR11008050913208280250805000000000000000   10300001F00104100000000000822000000000000     
100   95050313396828960000000000001980000000001980002000000010410408051536000600337667440805000007604106   1020000200030000   333400010001204104000000281Myanmar Soft-Gate Tech Yangon        MMR11008051536000600330805000000000000000   10300001F05104100000000000416000000000000     
100   95050324082484780000000000028548000000028548002000000010410408051103048316408298770805150331704216   1030000900030000   541119001295190110000000968Ocean Mingalar MDY C 3 MANDALAYHARSI MMR11008051103048316400805000000000000000   10300001F00104100000000007137000000000000     
100   95050327192897240000000000016450000000016450002000000010410408051036560201036629650805000751414764   1030000200030000   541188001304000008000000325KBZ BANK               CITY MART - A MMR11008051036560201030805000000000000000   10300001 00104100000000004113000000000000     
100   95050319178423260000000000015000000000015000002000000010410408041818444844655990250805000007597226   1030000200030000   333800010001203104000003327KBZPay                 Yangon        MMR11008041818444844650805000000000000000   10300001F05104100000000003150000000000000     
100   95050310902464360000000000002970000000002970002000000010410408050922235223169690710805000007602332   1020000200030000   333400010001204104000000281Myanmar Soft-Gate Tech Yangon        MMR11008050922235223160805000000000000000   10300001F05104100000000000624000000000000     
100   95050314307746340000000000000990000000000990002000000010410408051122255225042284510805000007603143   1020000200030000   333400010001204104000000281Myanmar Soft-Gate Tech Yangon        MMR11008051122255225040805000000000000000   10300001F05104100000000000208000000000000     
100   95050314064416890000000000001980000000001980002000000010410408050754332433221466310805000007601572   1020000200030000   333400010001204104000000281Myanmar Soft-Gate Tech Yangon        MMR11008050754332433220805000000000000000   10300001F05104100000000000416000000000000     
100   95050319928585020000000000001980000000001980002000000010410408051325065506791142610805000007603640   1020000200030000   333400010001204104000000281Myanmar Soft-Gate Tech Yangon        MMR11008051325065506790805000000000000000   10300001F05104100000000000416000000000000     
100   95030304441505280000000005038060000005038060002000000010410408050727415741064773800805000007601324   1010000100030000   333500010001212104000003087Internal Revenue Depar Yangon        MMR11008050727415741060805000000000000000   10300001F05104100000000060000000000000000     
100   62443100330108240000000000004950000000004950002000000010410408051329365936221227700805000007603661   1020000200030000   333400010001204104000000281Myanmar Soft-Gate Tech Yangon        MMR11008051329365936220805000000000000000   10300001F05104100000000001040000000000000     
100   95050310213446310000000000020000000000020000002000000010410408050232340234969251480805000007597908   1030000200030000   3338000100012031040000040022C2P (Myanmar) Co. Ltd Yangon        MMR11008050232340234960805000000000000000   10300001F05104100000000004200000000000000     
100   62911028202442250000000000022000000000022000002000000010410408040040580000094773800804221607000009   1030000500030000   598320001203000015172200012MAX ENERGY             PTN           MMR11008040040580000090804000000000000000   10300001 00104100000000000660000000000000     
100   95050313732480420000000000006930000000006930002000000010410408050719254925907848520805000007601220   1020000200030000   333400010001204104000000281Myanmar Soft-Gate Tech Yangon        MMR11008050719254925900805000000000000000   10300001F05104100000000001455000000000000     
100   95050326426352250000000000050000000000050000002000000010410408050455422542200217930805000007599720   1030000200030000   333800010001203104000003327KBZPay                 Yangon        MMR11008050455422542200805000000000000000   10300001F05104100000000010500000000000000     
100   95050310332595380000000000000990000000000990002000000010410408050706523652630401410805000007601040   1020000200030000   333400010001204104000000281Myanmar Soft-Gate Tech Yangon        MMR11008050706523652630805000000000000000   10300001F05104100000000000208000000000000     
100   62911028202472440000000000015200000000015200002000000010410408051535280129884773800805000751456246   1030000200030000   541188001033000008000000298KBZ BANK               CITY MART - M MMR11008051535280129880805000000000000000   10300001 00104100000000000912000000000000     
100   62911028202122630000000000035000000000035000002000000010410408041102350000624773800804221617000062   1030000500030000   598320001603000015172200016MAX ENERGY             PTN           MMR11008041102350000620804000000000000000   10300001 00104100000000001050000000000000     
100   62911028202328810000000000020400000000020400002000000010410408040553360042754773800804221612004275   1030000500030000   541120226805000045411202268CITY MART WAIZAYANDA   PTN           MMR11008040553360042750804000000000000000   10300001 00104100000000001224000000000000     
