100   95050316110433120000000000018000000000018000002000000010410408081107009027431140240808987371700219   1030000900030000   541119001229190110000000946City Mart TM Season C  YANGONONE     MMR11008081107009027430808000000000000000   10300001F00104100000000004500000000000000     
100   95050322312885760000000000007000000000007000002000000010410408080905083508423558600808000007616557   1030000200030000   333800010001203104000003327KBZPay                 Yangon        MMR11008080905083508420808000000000000000   10300001F05104100000000001470000000000000     
100   62911028202248050000000000024000000000024000002000000010410408051019330431444773800805221710043144   1030000600030000   554100001155315799420000607DENKO NPT 1            NAYPYITAW.    MMR11008051019330431440805000000000000000   10300001 00104100000000000720000000000000     
100   95050311959900780000000000000990000000000990002000000010410408080540351035542666260808000007614572   1020000200030000   333400010001204104000000281Myanmar Soft-Gate Tech Yangon        MMR11008080540351035540808000000000000000   10300001F05104100000000000208000000000000     
100   62911028202093760000000000028000000000028000002000000010410408070715590000184773800807221913000018   1030000500030000   569120069001008205691200690ESCORT                 PTN           MMR11008070715590000180807000000000000000   10300001 00104100000000001680000000000000     
100   95050313396828960000000000002970000000002970002000000010410408080102513251836574980808000007611885   1020000200030000   333400010001204104000000281Myanmar Soft-Gate Tech Yangon        MMR11008080102513251830808000000000000000   10300001F05104100000000000624000000000000     
100   62443100306416880000000000021149000000021149002000000010410408070604340002424304960807221912000242   1030000500030000   598320001604000015172200016MAX ENERGY             PTN           MMR11008070604340002420807000000000000000   10300001 00104100000000002538000000000000     
100   62911028202355870000000001000000000001000000002000000010410408080548521852684773800808000007614670   1040001600030000   333800010001220104000004507A +                    Yangon        MMR11008080548521852680808000000000000000   10300001F05104100000000210000000000000000     
100   62911028202260320000000000412000000000412000002000000010410408080708048958374773800808449381304219   1030000900030000   599919001138190110000000918Lucky Man Uwisarya     YANGONUT      MMR11008080708048958370808000000000000000   10300001F00104100000000024720000000000000     
100   95050315701710960000000000050000000000050000002000000010410408080204563456548993330808000007612037   1030000200030000   333800010001203104000003327KBZPay                 Yangon        MMR11008080204563456540808000000000000000   10300001F05104100000000010500000000000000     
100   62911028202684060000000000089748000000089748002000000010410408080346389840224773800808163886224905   1040001400030000   806210000094028062100000766Yoma OUE Pun Hlaing Ho pital  Yoma O MMR11008080346389840220808000000000000000   10300001 00104100000000005385000000000000     
100   95050322715181550000000000021400000000021400002000000010410408081111559028912792730808076411755219   1030000900030000   541119001229190110000000946City Mart TM Season C  YANGONONE     MMR11008081111559028910808000000000000000   10300001F00104100000000005350000000000000     
100   95030310098554020000000000032000000000032000002000000010410408070351150002244773800807221910000224   1030000500030000   598320001604000015172200016MAX ENERGY             PTN           MMR11008070351150002240807000000000000000   10300001 00104100000000000960000000000000     
100   62443100300743690000000000004200000000004200002000000010410408061046290002025916070806221817000202   1030000500030000   541120229113000045411202291CITY MART YANKIN       PTN           MMR11008061046290002020806000000000000000   10300001 00104100000000001050000000000000     
100   62911028202110420000000000062600000000062600002000000010410408060554470026794773800806221812002679   1030000500030000   541120226411000045411202264MARKET PLACE MYANMARPL PTN           MMR11008060554470026790806000000000000000   10300001 00104100000000003756000000000000     
100   95050312224678430000000000004950000000004950002000000010410408080553002300603091750808000007614704   1020000200030000   333400010001204104000000281Myanmar Soft-Gate Tech Yangon        MMR11008080553002300600808000000000000000   10300001F05104100000000001040000000000000     
100   62911028202366010000000000075150000000075150002000000010410408081012039009514773800808978421603219   1030000900030000   541119001330190110000000971Ocean Junction NPT C 8 NAYPYITAW     MMR11008081012039009510808000000000000000   10300001F00104100000000004509000000000000     
100   62443100322986690000000000200000000000200000002000000010410408081101013101537750180808000007617228   1030000200030000   333800010001203104000003327KBZPay                 Yangon        MMR11008081101013101530808000000000000000   10300001F05104100000000042000000000000000     
100   62911028202169750000000000022000000000022000002000000010410408070305420000654773800807221909000065   1030000500030000   503920036611000015039200366PRO-1 HOME CENTER      PTN           MMR11008070305420000650807000000000000000   10300001 00104100000000001320000000000000     
100   62911028202921410000000000027850000000027850002000000010410408070707340001224773800807221913000122   1030000500030000   591220013101014405912200131SHWE OHH PHARMACY      PTN           MMR11008070707340001220807000000000000000   10300001 00104100000000001671000000000000     
100   62911028202594880000000000047000000000047000002000000010410408071003210001904773800807221916000190   1030000500030000   598320001302000015172200013MAX ENERGY             PTN           MMR11008071003210001900807000000000000000   10300001 00104100000000001410000000000000     
100   95030327743474500000000000060000000000060000002000000010410408070426500003864773800807221910000386   1030000500030000   598320015701000045983200157REGENCY PETROL STATION PTN           MMR11008070426500003860807000000000000000   10300001 00104100000000001800000000000000     
100   62911028202069430000000000070000000000070000002000000010410408071004410000754773800807221916000075   1030000500030000   531120155707000045311201557GAMONE PWINT           PTN           MMR11008071004410000750807000000000000000   10300001 00104100000000004200000000000000     
100   62911028202698420000000000065150000000065150002000000010410408070915050000214773800807221915000021   1030000500030000   581320195801000085813201958HARRYS BAR TAW WIN     PTN           MMR11008070915050000210807000000000000000   10300001 00104100000000006645000000000000     
100   62443100303702210000000000250000000000250000002000000010410408051104360015496646290805221711001549   1030000600030000   554100002325315799420000504DENKO SOUTH DAGON      YANGON        MMR11008051104360015490805000000000000000   10300001 00104100000000030000000000000000     
100   62911028202357510000000000035000000000035000002000000010410408051118400087954773800805221711008795   1030000600030000   554100000732315799420000312DENKO MDY - 74         MANDALAY      MMR11008051118400087950805000000000000000   10300001 00104100000000001050000000000000     
100   95030366960186690000000000067015000000067015002000000010410408050841160226214773800805221708022621   1030000600030000   809900000537315799420000147GRAND HANTHA HOSPITAL  YANGON        MMR11008050841160226210805000000000000000   10300001 00104100000000004021000000000000     
100   62911028202169750000000000028000000000028000002000000010410408050426240381734773800805221704038173   1030000600030000   554100001006315799420000502DENKO DAGON HARBOUR    YANGON        MMR11008050426240381730805000000000000000   10300001 00104100000000000840000000000000     
100   62911028202556760000000000030000000000030000002000000010410408050550220589144773800805221705058914   1030000600030000   554100000969315799420000481DENKO NORTH OKKALAPA   YANGON        MMR11008050550220589140805000000000000000   10300001 00104100000000000900000000000000     
100   95030327743474500000000000104000000000104000002000000010410408051044220337174773800805221710033717   1030000600030000   554100001116315799420000574DENKO HLAE KUU         HLAE KUU      MMR11008051044220337170805000000000000000   10300001 00104100000000003120000000000000     
100   62443100369813440000000000020000000000020000002000000010410408050132060588950245070805221701058895   1030000600030000   554100000969315799420000481DENKO NORTH OKKALAPA   YANGON        MMR11008050132060588950805000000000000000   10300001 00104100000000002400000000000000     
100   95050321232876860000000000061000000000061000002000000010410408050255330437114290690805221702043711   1030000600030000   554100001865315799420001235DENKO NAY PYI TAW 2    NAYPYITAW     MMR11008050255330437110805000000000000000   10300001 00104100000000007320000000000000     
100   62911028202442250000000000015542000000015542002000000010410408070145450002814773800807221908000281   1030000500030000   598320001203000015172200012MAX ENERGY             PTN           MMR11008070145450002810807000000000000000   10300001 00104100000000000466000000000000     
100   62911028202214130000000000035400000000035400002000000010410408070918100003204773800807221915000320   1030000500030000   598320001204000015172200012MAX ENERGY             PTN           MMR11008070918100003200807000000000000000   10300001 00104100000000001062000000000000     
100   62911028202285900000000000031000000000031000002000000010410408070605300002624773800807221912000262   1030000500030000   598320001603000015172200016MAX ENERGY             PTN           MMR11008070605300002620807000000000000000   10300001 00104100000000000930000000000000     
100   62911028202193670000000000042000000000042000002000000010410408070554350002594773800807221912000259   1030000500030000   598320001603000015172200016MAX ENERGY             PTN           MMR11008070554350002590807000000000000000   10300001 00104100000000001260000000000000     
100   95050322715181550000000000074000000000074000002000000010410408071043090001037135000807221917000103   1030000500030000   598320252001000085983202520PUMA POWER             PTN           MMR11008071043090001030807000000000000000   10300001 00104100000000008880000000000000     
100   95050314287403810000000000010000000000010000002000000010410408070310340000065276670807221909000006   1030000500030000   569120109701008205691201097ESCORT (PYAY)          PTN           MMR11008070310340000060807000000000000000   10300001 00104100000000002400000000000000     
100   62911028202162640000000000028377000000028377002000000010410408070635320001314773800807221913000131   1030000500030000   541120020902022205411200209ORANGE (HLAING)        PTN           MMR11008070635320001310807000000000000000   10300001 00104100000000001703000000000000     
100   62911028202690570000000000024225000000024225002000000010410408071102200002944773800807221917000294   1030000500030000   598320001404000015172200014MAX ENERGY             PTN           MMR11008071102200002940807000000000000000   10300001 00104100000000000727000000000000     
100   95030318100004530000000000033958000000033958002000000010410408081634160017334773800808000751632433   1030000200030000   541188001422000008000000401KBZ BANK               OCEAN SUPERCE MMR11008081634160017330808000000000000000   10300001 00104100000000002037000000000000     
100   62443100358839880000000000128300000000128300002000000010410408080620450005862191340808000751612957   1030000200030000   804381231109000008000001635KBZ BANK               AMERICAN VISI MMR11008080620450005860808000000000000000   10300001 00104100000000030792000000000000     
100   62911028202150190000000000060000000000060000002000000010410408080444141936384773800808222011193638   1040001600030000   598320001170000000010000527Shwe Taung Energy (YGN Yangon        MMR11008080444141936380808000000000000000   10300001F00104100000000001800000000000000     
100   95050311959900780000000000000990000000000990002000000010410408080543171317011609460808000007614597   1020000200030000   333400010001204104000000281Myanmar Soft-Gate Tech Yangon        MMR11008080543171317010808000000000000000   10300001F05104100000000000208000000000000     
100   95050327386436040000000000010647000000010647002000000010410408081640530050573083670808000751632753   1030000200030000   541188001428000008000000401KBZ BANK               OCEAN SUPERCE MMR11008081640530050570808000000000000000   10300001 00104100000000002662000000000000     
100   62911028202651050000000000021600000000021600002000000010410408080950010075404773800808000751591178   1030000200030000   541188001005000008000000008KBZ BANK               MARKETPLACE - MMR11008080950010075400808000000000000000   10300001 00104100000000001296000000000000     
100   62911028202093430000000000000990000000000990002000000010410408081440141014914773800808000007618097   1020000200030000   333400010001204104000000281Myanmar Soft-Gate Tech Yangon        MMR11008081440141014910808000000000000000   10300001F05104100000000000208000000000000     
100   95050316601084530000000000000990000000000990002000000010410408080337290729519369370808000007612927   1020000200030000   333400010001204104000000281Myanmar Soft-Gate Tech Yangon        MMR11008080337290729510808000000000000000   10300001F05104100000000000208000000000000     
100   62911028202296140000000000075980000000075980002000000010410408070823270000244773800807221914000024   1030000500030000   569120090401000015691200904GIORDANO JUNCTION SQUA PTN           MMR11008070823270000240807000000000000000   10300001 00104100000000004559000000000000     
100   95050319216089110000000000005000000000005000002000000010410408070451090002458922030807221911000245   1030000500030000   594520116701000015945201167TOYS M 21              PTN           MMR11008070451090002450807000000000000000   10300001 00104100000000001200000000000000     
100   62911028202136750000000000021000000000021000002000000010410408071201130001974773800807221918000197   1030000500030000   598320001701000015172200017MAX ENERGY             PTN           MMR11008071201130001970807000000000000000   10300001 00104100000000000630000000000000     
100   62911028202743960000000000018000000000018000002000000010410408070401580000024773800807221910000002   1030000500030000   598320005102000015172200051MAX ENERGY             PTN           MMR11008070401580000020807000000000000000   10300001 00104100000000000540000000000000     
100   62911028202319090000000000063400000000063400002000000010410408070553590000284773800807221912000028   1030000500030000   591220020501005105912200205MINGALAR PHARMACY      PTN           MMR11008070553590000280807000000000000000   10300001 00104100000000003804000000000000     
100   95050317743858310000000000055932000000055932002000000010410408070407000006741886610807000359803808   1030000300030000   531100000750000000000000408CB BANK                CAPITAL HYPER MMR11008070407000006740807000000000000000   10300001F00104100000000013424000000000000     
100   62911028202069430000000000079000000000079000002000000010410408071002440000744773800807221916000074   1030000500030000   531120155707000045311201557GAMONE PWINT           PTN           MMR11008071002440000740807000000000000000   10300001 00104100000000004740000000000000     
100   62911028202555020000000000034750000000034750002000000010410408070931090001414773800807221916000141   1030000500030000   531120156008000045311201560GAMONE PWINT           PTN           MMR11008070931090001410807000000000000000   10300001 00104100000000002085000000000000     
100   95050313732480420000000000000990000000000990002000000010410408080231150115148191810808000007612176   1020000200030000   333400010001204104000000281Myanmar Soft-Gate Tech Yangon        MMR11008080231150115140808000000000000000   10300001F05104100000000000208000000000000     
100   95050317003064220000000000002970000000002970002000000010410408080245301530114873060808000007612249   1020000200030000   333400010001204104000000281Myanmar Soft-Gate Tech Yangon        MMR11008080245301530110808000000000000000   10300001F05104100000000000624000000000000     
100   95050316067768680000000000001980000000001980002000000010410408081438470847366764680808000007618090   1020000200030000   333400010001204104000000281Myanmar Soft-Gate Tech Yangon        MMR11008081438470847360808000000000000000   10300001F05104100000000000416000000000000     
100   62911028202166940000000000018200000000018200002000000010410408081832180154524773800808000751638927   1030000200030000   541188001127000008000000296KBZ BANK               CITY MART - J MMR11008081832180154520808000000000000000   10300001 00104100000000001092000000000000     
100   62911028202400660000000000119128000000119128002000000010410408081645040338364773800808000751632997   1030000200030000   541188001042000008000000010KBZ BANK               MARKETPLACE - MMR11008081645040338360808000000000000000   10300001 00104100000000007148000000000000     
100   95030305700676370000000000050000000000050000002000000010410408080845120055944773800808000751627490   1030000200030000   598388001833000008000005310KBZ BANK               BOC (138 MILE MMR11008080845120055940808000000000000000   10300001 00104100000000001500000000000000     
100   95050318048516790000000000030000000000030000002000000010410408080442051205644708580808000007613797   1030000200030000   333800010001203104000003327KBZPay                 Yangon        MMR11008080442051205640808000000000000000   10300001F05104100000000006300000000000000     
100   62911028202795770000000000017000000000017000002000000010410408081202020185534773800808000751606909   1030000200030000   541188001023000008000000298KBZ BANK               CITY MART - M MMR11008081202020185530808000000000000000   10300001 00104100000000001020000000000000     
100   95050322149411750000000000020000000000020000002000000010410408070508340003175702160807221911000317   1030000500030000   598320001403000015172200014MAX ENERGY             PTN           MMR11008070508340003170807000000000000000   10300001 00104100000000002400000000000000     
100   95050322478649490000000000072900000000072900002000000010410408071117220005736163290807000359866223   1030000300030000   541100002346000000000000102CB BANK                MAKRO MYANMAR MMR11008071117220005730807000000000000000   10300001F00104100000000018225000000000000     
100   62911028202445710000000000059000000000059000002000000010410408070118400000724773800807221907000072   1030000500030000   598320001901000015172200019MAX ENERGY             PTN           MMR11008070118400000720807000000000000000   10300001 00104100000000001770000000000000     
100   62911028202116120000000000016040000000016040002000000010410408071140410000414773800807221918000041   1030000500030000   591220010401014405912200104SHWE OHH PHARMACY      PTN           MMR11008071140410000410807000000000000000   10300001 00104100000000000962000000000000     
100   95030343892826500000000000020000000000020000002000000010410408070416400001414773800807000359805170   1030000300030000   531100000884000000000000622CB BANK                MGOU-JZ       MMR11008070416400001410807000000000000000   10300001F00104100000000001200000000000000     
100   95050313970192050000000000002700000000002700002000000010410408071251310004567645580807221919000456   1030000500030000   541120232801000045411202328CITY EXPRESS (MCS - 34 PTN           MMR11008071251310004560807000000000000000   10300001 00104100000000000675000000000000     
100   95050316901496590000000000003900000000003900002000000010410408071133000000427815770807221918000042   1030000500030000   541120045801009205411200458126 STORE              PTN           MMR11008071133000000420807000000000000000   10300001 00104100000000000975000000000000     
100   95030390626214130000000000041000000000041000002000000010410408070349560001624773800807221910000162   1030000500030000   598320068303000055983200683MAX ENERGY             PTN           MMR11008070349560001620807000000000000000   10300001 00104100000000001230000000000000     
100   95050318242219520000000000001980000000001980002000000010410408081539460946230154740808000007618283   1020000200030000   333400010001204104000000281Myanmar Soft-Gate Tech Yangon        MMR11008081539460946230808000000000000000   10300001F05104100000000000416000000000000     
100   62911028202057620000000000088000000000088000002000000010410408080234030403944773800808000007612190   1030000200030000   333800010001203104000003327KBZPay                 Yangon        MMR11008080234030403940808000000000000000   10300001F05104100000000018480000000000000     
100   95050314327553180000000000080000000000080000002000000010410408080441031103067928450808000007613798   1030000200030000   333800010001203104000003327KBZPay                 Yangon        MMR11008080441031103060808000000000000000   10300001F05104100000000016800000000000000     
100   62911028202133940000000000031499000000031499002000000010410408081508250282314773800808000751627251   1030000200030000   541188001001000008000000008KBZ BANK               MARKETPLACE - MMR11008081508250282310808000000000000000   10300001 00104100000000001890000000000000     
100   95050316377977350000000000001000000000001000002000000010410408081333030303292778940808000007617874   1030000200030000   3338000100012031040000040022C2P (Myanmar) Co. Ltd Yangon        MMR11008081333030303290808000000000000000   10300001F05104100000000000210000000000000     
100   62911028202355870000000001000000000001000000002000000010410408080547371737354773800808000007614660   1040001600030000   333800010001220104000004507A +                    Yangon        MMR11008080547371737350808000000000000000   10300001F05104100000000210000000000000000     
100   95050314534800510000000000000990000000000990002000000010410408080245441544233220570808000007612245   1020000200030000   333400010001204104000000281Myanmar Soft-Gate Tech Yangon        MMR11008080245441544230808000000000000000   10300001F05104100000000000208000000000000     
100   95050310427855490000000000002970000000002970002000000010410408071638060806571290930808000007611450   1020000200030000   333400010001204104000000281Myanmar Soft-Gate Tech Yangon        MMR11008071638060806570808000000000000000   10300001F05104100000000000624000000000000     
100   95050310750557450000000000018000000000018000002000000010410408071058450002291035640807221917000229   1030000500030000   598320068302000055983200683MAX ENERGY             PTN           MMR11008071058450002290807000000000000000   10300001 00104100000000002160000000000000     
100   95050316573091630000000000052400000000052400002000000010410408070906390011683574750807000359846812   1030000300030000   541100002341000000000000102CB BANK                MAKRO MYANMAR MMR11008070906390011680807000000000000000   10300001F00104100000000013100000000000000     
100   62911028202313470000000000010972000000010972002000000010410408070536380021934773800807221912002193   1030000500030000   541120227603000045411202276CITY MART ( 47 BRANCH  PTN           MMR11008070536380021930807000000000000000   10300001 00104100000000000658000000000000     
100   62911028202289130000000000093700000000093700002000000010410408071049270015324773800807221917001532   1030000500030000   541120227501000045411202275CITY MART (AHLONE BRAN PTN           MMR11008071049270015320807000000000000000   10300001 00104100000000005622000000000000     
100   62911028202286240000000000035750000000035750002000000010410408071002140037824773800807221916003782   1030000500030000   541120226203000045411202262CITY MART ZAWANA       PTN           MMR11008071002140037820807000000000000000   10300001 00104100000000002145000000000000     
100   62443100328070970000000000013750000000013750002000000010410408070934570051974886840807000359850928   1030000300030000   541100002337000000000000102CB BANK                MAKRO MYANMAR MMR11008070934570051970807000000000000000   10300001F00104100000000003438000000000000     
100   62911028202169750000000000046399000000046399002000000010410408070400460031914773800807221910003191   1030000500030000   541120226204000045411202262CITY MART ZAWANA       PTN           MMR11008070400460031910807000000000000000   10300001 00104100000000002784000000000000     
100   62911028202296140000000000049900000000049900002000000010410408071425260069494773800807000751555613   1030000200030000   596588000900000008000000712KBZ BANK               AK CONCEPT SH MMR11008071425260069490807000000000000000   10300001 00104100000000002994000000000000     
100   62911028202350170000000000005000000000005000002000000010410408081143521352094773800808000007617402   1030000200030000   333800010001203104000003327KBZPay                 Yangon        MMR11008081143521352090808000000000000000   10300001F05104100000000001050000000000000     
100   95030314863516850000000000015000000000015000002000000010410408080530530053244773800808000007614433   1030000200030000   333800010001203104000003327KBZPay                 Yangon        MMR11008080530530053240808000000000000000   10300001F05104100000000003150000000000000     
100   62911028202807400000000000017686000000017686002000000010410408080832090384244773800808000751585546   1030000200030000   541188001039000008000000010KBZ BANK               MARKETPLACE - MMR11008080832090384240808000000000000000   10300001 00104100000000001061000000000000     
100   95050315259054570000000000000990000000000990002000000010410408080336030603167631790808000007612902   1020000200030000   333400010001204104000000281Myanmar Soft-Gate Tech Yangon        MMR11008080336030603160808000000000000000   10300001F05104100000000000208000000000000     
100   62911028202319090000000000018400000000018400002000000010410408080251491881264773800808222009188126   1040001600030000   591220000043000000010000041Mingalar Pharmacy      Yangon        MMR11008080251491881260808000000000000000   10300001F00104100000000001104000000000000     
100   62911028202502480000000000021300000000021300002000000010410408081412310397364773800808000751621776   1030000200030000   541188001041000008000000010KBZ BANK               MARKETPLACE - MMR11008081412310397360808000000000000000   10300001 00104100000000001278000000000000     
100   95050319938772870000000000000990000000000990002000000010410408081343121312831637030808000007617906   1020000200030000   333400010001204104000000281Myanmar Soft-Gate Tech Yangon        MMR11008081343121312830808000000000000000   10300001F05104100000000000208000000000000     
100   95050313732480420000000000000990000000000990002000000010410408080733360336249567140808000007615883   1020000200030000   333400010001204104000000281Myanmar Soft-Gate Tech Yangon        MMR11008080733360336240808000000000000000   10300001F05104100000000000208000000000000     
100   62443100340422630000000000003000000000003000002000000010410408071232450018579298060807221919001857   1030000500030000   541120229114000045411202291CITY MART YANKIN       PTN           MMR11008071232450018570807000000000000000   10300001 00104100000000000750000000000000     
100   62911028202488950000000000022150000000022150002000000010410408070605460023724773800807221912002372   1030000500030000   531120226311000045311202263OCEAN SUPER CENTER STJ PTN           MMR11008070605460023720807000000000000000   10300001 00104100000000001329000000000000     
100   95050317942168830000000000008608000000008608002000000010410408070857470021660269780807221915002166   1030000500030000   541120203806000015411202038CITY MART SUPERMARKET  PTN           MMR11008070857470021660807000000000000000   10300001 00104100000000002152000000000000     
100   62443100328070970000000000050500000000050500002000000010410408070824020029499858080807221914002949   1030000500030000   531120226307000045311202263OCEAN SUPER CENTER STJ PTN           MMR11008070824020029490807000000000000000   10300001 00104100000000012120000000000000     
100   95030343892826500000000000057250000000057250002000000010410408070511190032034773800807221911003203   1030000500030000   541120226204000045411202262CITY MART ZAWANA       PTN           MMR11008070511190032030807000000000000000   10300001 00104100000000003435000000000000     
100   62911028202792960000000000005950000000005950002000000010410408071150400022244773800807221918002224   1030000500030000   541120227603000045411202276CITY MART ( 47 BRANCH  PTN           MMR11008071150400022240807000000000000000   10300001 00104100000000000357000000000000     
100   95050322312197120000000000023600000000023600002000000010410408070358400022720234120807221910002272   1030000500030000   541120203903000015411202039NEIGHBOURHOOD          PTN           MMR11008070358400022720807000000000000000   10300001 00104100000000005900000000000000     
100   62911028202204070000000000034950000000034950002000000010410408071127350021314773800807221917002131   1030000500030000   541120203705000015411202037CITY MART SUPERMARKET  PTN           MMR11008071127350021310807000000000000000   10300001 00104100000000002097000000000000     
100   62911028202919290000000000015000000000015000002000000010410408080258532853974773800808000007612338   1030000200030000   333800010001203104000003327KBZPay                 Yangon        MMR11008080258532853970808000000000000000   10300001F05104100000000003150000000000000     
100   62443100322986690000000000070200000000070200002000000010410408081507143714620069640808000007618188   1030000300030000   333300010001206104000001685MM Bus Ticket          Yangon        MMR11008081507143714620808000000000000000   10300001F05104100000000010000000000000000     
100   95050325139996190000000000010000000000010000002000000010410408080818144814631565730808000007616208   1030000300030000   333300010001206104000002147DICA Company Limited   Yangon        MMR11008080818144814630808000000000000000   10300001F05104100000000010000000000000000     
100   95050310816569570000000000300000000000300000002000000010410408081025405540734565960808000007617030   1030000200030000   333800010001203104000003327KBZPay                 Yangon        MMR11008081025405540730808000000000000000   10300001F05104100000000063000000000000000     
100   62443101037081820000000000039620000000039620002000000010410408081055159023483849540808761251715219   1030000900030000   581219000280190110000000175Min Lan Restaurant (Ka YANGONARTAUNG MMR11008081055159023480808000000000000000   10300001F00104100000000016839000000000000     
100   62911028202693960000000000910000000000910000002000000010410408080834098983094773800808689041509219   1030000900030000   509419000624190110000000457Royal Diamond Sea Gems YANGON        MMR11008080834098983090808000000000000000   10300001F00104100000000091000000000000000     
100   95050320996331370000000000109600000000109600002000000010410408080900202087695125980808222016208769   1040001600030000   541120000571000000010000465Ocean Shwe Gone Daing  Yangon        MMR11008080900202087690808000000000000000   10300001F00104100000000027400000000000000     
100   95050328074436620000000000009900000000009900002000000010410408080004363436113440210808000007611802   1020000200030000   333400010001204104000000281Myanmar Soft-Gate Tech Yangon        MMR11008080004363436110808000000000000000   10300001F05104100000000002079000000000000     
100   62911028202631420000000000148150000000148150002000000010410408070801510031904773800807221914003190   1030000500030000   541120203706000015411202037CITY MART SUPERMARKET  PTN           MMR11008070801510031900807000000000000000   10300001 00104100000000008889000000000000     
100   62443100340422630000000000053583000000053583002000000010410408071229260031535993100807221918003153   1030000500030000   541120229102000045411202291CITY MART YANKIN       PTN           MMR11008071229260031530807000000000000000   10300001 00104100000000013396000000000000     
100   62911028202809060000000000132103000000132103002000000010410408070745170030954773800807221914003095   1030000500030000   531120226710000045311202267OCEAN NORTH POINT      PTN           MMR11008070745170030950807000000000000000   10300001 00104100000000007926000000000000     
100   95050312482469810000000000073550000000073550002000000010410408071200400080981170180807000751547337   1030000200030000   541188001286000008000000472KBZ BANK               NEIGHBOURHOOD MMR11008071200400080980807000000000000000   10300001 00104100000000018388000000000000     
100   62443101037081820000000000039600000000039600002000000010410408071435511625695021390807221921162569   1040001600030000   581420000076000000010000074Hot Pot City Ahlone    Yangon        MMR11008071435511625690807000000000000000   10300001F00104100000000004752000000000000     
100   62911028202698420000000000061350000000061350002000000010410408060555010000434773800806221812000043   1030000500030000   581220021101000015812200211SHWE LAR HOT POT       PTN           MMR11008060555010000430806000000000000000   10300001 00104100000000006258000000000000     
100   62911028202907490000000000001600000000001600002000000010410408060642480002004773800806221813000200   1030000500030000   541120229113000045411202291CITY MART YANKIN       PTN           MMR11008060642480002000806000000000000000   10300001 00104100000000000096000000000000     
100   95050315345734110000000000011700000000011700002000000010410408061003570000270192760806221816000027   1030000500030000   531120156003000045311201560GAMONE PWINT           PTN           MMR11008061003570000270806000000000000000   10300001 00104100000000002808000000000000     
100   62911028202246800000000000032900000000032900002000000010410408081041449018814773800808496111744219   1030000900030000   541119001260190110000000958City Mart PLST C 3     YANGONMYOTHIT MMR11008081041449018810808000000000000000   10300001F00104100000000001974000000000000     
100   95050311121153200000000000005000000000005000002000000010410408080252462246706355350808000007612297   1030000200030000   3338000100012031040000040022C2P (Myanmar) Co. Ltd Yangon        MMR11008080252462246700808000000000000000   10300001F05104100000000001050000000000000     
100   62911028202067860000000000000990000000000990002000000010410408080303023302214773800808000007612370   1020000200030000   333400010001204104000000281Myanmar Soft-Gate Tech Yangon        MMR11008080303023302210808000000000000000   10300001F05104100000000000208000000000000     
100   95050316997303010000000000010000000000010000002000000010410408081111564156909487760808000007617262   1030000200030000   333800010001203104000003327KBZPay                 Yangon        MMR11008081111564156900808000000000000000   10300001F05104100000000002100000000000000     
100   95050314931885730000000000001000000000001000002000000010410408080828295829793303310808000007616296   1030000200030000   3338000100012031040000040022C2P (Myanmar) Co. Ltd Yangon        MMR11008080828295829790808000000000000000   10300001F05104100000000000210000000000000     
100   95050315104396860000000000040000000000040000002000000010410408080920525052455466370808000007616649   1030000200030000   333800010001203104000003327KBZPay                 Yangon        MMR11008080920525052450808000000000000000   10300001F05104100000000008400000000000000     
100   95050310305109410000000000000990000000000990002000000010410408080953102310635976950808000007616834   1020000200030000   333400010001204104000000281Myanmar Soft-Gate Tech Yangon        MMR11008080953102310630808000000000000000   10300001F05104100000000000208000000000000     
100   95050310332595380000000000000990000000000990002000000010410408080259032903976440440808000007612333   1020000200030000   333400010001204104000000281Myanmar Soft-Gate Tech Yangon        MMR11008080259032903970808000000000000000   10300001F05104100000000000208000000000000     
100   62443100333488440000000000106200000000106200002000000010410408060308120038990157100806221809003899   1030000500030000   541120226412000045411202264MARKET PLACE MYANMARPL PTN           MMR11008060308120038990806000000000000000   10300001 00104100000000026550000000000000     
100   95050317919176400000000000021776000000021776002000000010410408061109580011699050850806221817001169   1030000500030000   541120203802000015411202038CITY MART SUPERMARKET  PTN           MMR11008061109580011690806000000000000000   10300001 00104100000000005444000000000000     
100   62911028202214130000000000180246000000180246002000000010410408071648140227534773800807000751563716   1030000200030000   541188001080000008000000294KBZ BANK               CITY MART - J MMR11008071648140227530807000000000000000   10300001 00104100000000010815000000000000     
100   95030305234413920000000000114050000000114050002000000010410408070412540011374773800807000359804641   1030000300030000   541100002341000000000000102CB BANK                MAKRO MYANMAR MMR11008070412540011370807000000000000000   10300001F00104100000000006843000000000000     
100   95050314570621780000000000002970000000002970002000000010410408080328105810696234590808000007612737   1020000200030000   333400010001204104000000281Myanmar Soft-Gate Tech Yangon        MMR11008080328105810690808000000000000000   10300001F05104100000000000624000000000000     
100   95050310456843760000000000004950000000004950002000000010410408081223115311607991680808000007617601   1020000200030000   333400010001204104000000281Myanmar Soft-Gate Tech Yangon        MMR11008081223115311600808000000000000000   10300001F05104100000000001040000000000000     
100   62911028202773650000000000060000000000060000002000000010410408081257092709524773800808000007617723   1030000200030000   333800010001203104000003327KBZPay                 Yangon        MMR11008081257092709520808000000000000000   10300001F05104100000000012600000000000000     
100   95050313732480420000000000001980000000001980002000000010410408080311594159415894210808000007612498   1020000200030000   333400010001204104000000281Myanmar Soft-Gate Tech Yangon        MMR11008080311594159410808000000000000000   10300001F05104100000000000416000000000000     
100   95050319753756490000000000010000000000010000002000000010410408081025135513196133350808000007617029   1030000200030000   333800010001203104000003327KBZPay                 Yangon        MMR11008081025135513190808000000000000000   10300001F05104100000000002100000000000000     
100   95030306100096490000000000000990000000000990002000000010410408081221365136914773800808000007617590   1020000200030000   333400010001204104000000281Myanmar Soft-Gate Tech Yangon        MMR11008081221365136910808000000000000000   10300001F05104100000000000208000000000000     
100   62911028202355870000000001000000000001000000002000000010410408080550572057154773800808000007614686   1040001600030000   333800010001220104000004507A +                    Yangon        MMR11008080550572057150808000000000000000   10300001F05104100000000210000000000000000     
100   95030314863516850000000000023000000000023000002000000010410408080555442544044773800808000007614727   1030000200030000   333800010001203104000003327KBZPay                 Yangon        MMR11008080555442544040808000000000000000   10300001F05104100000000004830000000000000     
100   62911028202117290000000000050000000000050000002000000010410408080754162416664773800808000007616038   1030000200030000   333800010001203104000003327KBZPay                 Yangon        MMR11008080754162416660808000000000000000   10300001F05104100000000010500000000000000     
100   95050312020318170000000000030000000000030000002000000010410408081114194419174445210808000007617270   1030000200030000   333800010001203104000003327KBZPay                 Yangon        MMR11008081114194419170808000000000000000   10300001F05104100000000006300000000000000     
100   95050311419479170000000000001000000000001000002000000010410408080114424442132213200808000007611905   1030000200030000   3334000100012031040000040102C2P (Myanmar) Co. Ltd Yangon        MMR11008080114424442130808000000000000000   10300001F05104100000000000210000000000000     
100   62443100392426520000000000010000000000010000002000000010410408080822395239634955790808000007616244   1030000200030000   333800010001203104000003327KBZPay                 Yangon        MMR11008080822395239630808000000000000000   10300001F05104100000000002100000000000000     
100   95050310281229490000000000005000000000005000002000000010410408080559082908165425000808000007614760   1030000200030000   333800010001203104000003327KBZPay                 Yangon        MMR11008080559082908160808000000000000000   10300001F05104100000000001050000000000000     
100   62911028202185260000000000410000000000410000002000000010410408080328278902984773800808868580927219   1030000900030000   481219000913190110000000722Snoopy Mobile ( 4 )Lat YANGON        MMR11008080328278902980808000000000000000   10300001F00104100000000024600000000000000     
100   95050316785465380000000000000990000000000990002000000010410408080753332333586602560808000007616041   1020000200030000   333400010001204104000000281Myanmar Soft-Gate Tech Yangon        MMR11008080753332333580808000000000000000   10300001F05104100000000000208000000000000     
100   95050313145843230000000000002970000000002970002000000010410408080301183118912078660808000007612360   1020000200030000   333400010001204104000000281Myanmar Soft-Gate Tech Yangon        MMR11008080301183118910808000000000000000   10300001F05104100000000000624000000000000     
100   95050310494988230000000000004950000000004950002000000010410408081402533253416679580808000007617968   1020000200030000   333400010001204104000000281Myanmar Soft-Gate Tech Yangon        MMR11008081402533253410808000000000000000   10300001F05104100000000001040000000000000     
100   95050311959900780000000000000990000000000990002000000010410408080459292929986871640808000007614067   1020000200030000   333400010001204104000000281Myanmar Soft-Gate Tech Yangon        MMR11008080459292929980808000000000000000   10300001F05104100000000000208000000000000     
100   95050312287957830000000000008300000000008300002000000010410408080700298956624694790808379301329219   1030000900030000   541119001349190110000000977Ocean PZD C 3          YANGONAUNG    MMR11008080700298956620808000000000000000   10300001F00104100000000002075000000000000     
100   95050313702988830000000000002970000000002970002000000010410408071649561956436248390808000007611469   1020000200030000   333400010001204104000000281Myanmar Soft-Gate Tech Yangon        MMR11008071649561956430808000000000000000   10300001F05104100000000000624000000000000     
100   95050322312885760000000000010000000000010000002000000010410408080354192419541027570808000007613184   1030000200030000   333800010001203104000003327KBZPay                 Yangon        MMR11008080354192419540808000000000000000   10300001F05104100000000002100000000000000     
100   95050311382087030000000000002970000000002970002000000010410408071753132313454595900808000007611567   1020000200030000   333400010001204104000000281Myanmar Soft-Gate Tech Yangon        MMR11008071753132313450808000000000000000   10300001F05104100000000000624000000000000     
100   95050316573091630000000000004950000000004950002000000010410408081003383338466303540808000007616887   1020000200030000   333400010001204104000000281Myanmar Soft-Gate Tech Yangon        MMR11008081003383338460808000000000000000   10300001F05104100000000001040000000000000     
100   95050319532433550000000000015090000000015090002000000010410408081518284828621807230808000007618221   1030000200030000   333800010001203104000003327KBZPay                 Yangon        MMR11008081518284828620808000000000000000   10300001F05104100000000003169000000000000     
100   95050314979630620000000000000990000000000990002000000010410408080125565556995603270808000007611934   1020000200030000   333400010001204104000000281Myanmar Soft-Gate Tech Yangon        MMR11008080125565556990808000000000000000   10300001F05104100000000000208000000000000     
100   95050312224678430000000000004950000000004950002000000010410408080551162116248049200808000007614689   1020000200030000   333400010001204104000000281Myanmar Soft-Gate Tech Yangon        MMR11008080551162116240808000000000000000   10300001F05104100000000001040000000000000     
100   62911028202355870000000001000000000001000000002000000010410408080554372437484773800808000007614722   1040001600030000   333800010001220104000004507A +                    Yangon        MMR11008080554372437480808000000000000000   10300001F05104100000000210000000000000000     
100   95050317100052460000000000015000000000015000002000000010410408080612554255810212260808000007614909   1030000200030000   333800010001203104000003327KBZPay                 Yangon        MMR11008080612554255810808000000000000000   10300001F05104100000000003150000000000000     
100   95050312595952760000000000001980000000001980002000000010410408080619214921737233890808000007615014   1020000200030000   333400010001204104000000281Myanmar Soft-Gate Tech Yangon        MMR11008080619214921730808000000000000000   10300001F05104100000000000416000000000000     
100   62443100394939820000000000030000000000030000002000000010410408081324575457931126460808000007617830   1040001600030000   333800010001220104000004507A +                    Yangon        MMR11008081324575457930808000000000000000   10300001F05104100000000006300000000000000     
100   95050321848852460000000000032000000000032000002000000010410408080153158885321071300808207230815219   1030000900030000   554119000348190110000000215New Day Energy MYG     YANGONONE     MMR11008080153158885320808000000000000000   10300001F00104100000000003840000000000000     
100   95050312287957830000000000030850000000030850002000000010410408080652318954448971470808269221331219   1030000900030000   541119001353190110000000977Ocean PZD C 7          YANGONAUNG    MMR11008080652318954440808000000000000000   10300001F00104100000000007713000000000000     
100   62911028202355870000000001000000000001000000002000000010410408080553502350934773800808000007614710   1040001600030000   333800010001220104000004507A +                    Yangon        MMR11008080553502350930808000000000000000   10300001F05104100000000210000000000000000     
100   62443101006037900000000000083600000000083600002000000010410408080302573257387121210808000007612378   1030000200030000   333300010001203104000003632Myanmar Tradenet Test  Yangon        MMR11008080302573257380808000000000000000   10300001F05104100000000010000000000000000     
100   95050315701710960000000000000990000000000990002000000010410408080158342834042723780808000007612026   1020000200030000   333400010001204104000000281Myanmar Soft-Gate Tech Yangon        MMR11008080158342834040808000000000000000   10300001F05104100000000000208000000000000     
100   62911028202737030000000000300000000000300000002000000010410408080107293729294773800808000007611895   1030000200030000   333800010001203104000003327KBZPay                 Yangon        MMR11008080107293729290808000000000000000   10300001F05104100000000063000000000000000     
100   95050310816569570000000000050000000000050000002000000010410408081027135713389608510808000007617044   1030000200030000   333800010001203104000003327KBZPay                 Yangon        MMR11008081027135713380808000000000000000   10300001F05104100000000010500000000000000     
100   95050325139996190000000000010000000000010000002000000010410408080810064006884870690808000007616141   1030000300030000   333300010001206104000002147DICA Company Limited   Yangon        MMR11008080810064006880808000000000000000   10300001F05104100000000010000000000000000     
100   95050311736839760000000000000990000000000990002000000010410408080317054705947887080808000007612574   1020000200030000   333400010001204104000000281Myanmar Soft-Gate Tech Yangon        MMR11008080317054705940808000000000000000   10300001F05104100000000000208000000000000     
100   95050319925596540000000000009900000000009900002000000010410408080123225322413950780808000007611924   1020000200030000   333400010001204104000000281Myanmar Soft-Gate Tech Yangon        MMR11008080123225322410808000000000000000   10300001F05104100000000002079000000000000     
100   62911028202154800000000000013035000000013035002000000010410408081146249039764773800808733161824219   1030000900030000   541119001266190110000000958City Mart PLST C9      YANGONMYOTHIT MMR11008081146249039760808000000000000000   10300001F00104100000000000782000000000000     
100   95050315104396860000000000300000000000300000002000000010410408080917574757097544340808000007616635   1030000200030000   333800010001203104000003327KBZPay                 Yangon        MMR11008080917574757090808000000000000000   10300001F05104100000000063000000000000000     
100   95050314794441720000000000200000000000200000002000000010410408080326125612411192050808000007612639   1030000200030000   333800010001203104000003327KBZPay                 Yangon        MMR11008080326125612410808000000000000000   10300001F05104100000000042000000000000000     
100   62911028202502480000000000023765000000023765002000000010410408081410510397354773800808000751621584   1030000200030000   541188001041000008000000010KBZ BANK               MARKETPLACE - MMR11008081410510397350808000000000000000   10300001 00104100000000001426000000000000     
100   95050318141561190000000000010000000000010000002000000010410408080800133013246687650808000007616083   1040001600030000   333800010001220104000004507A +                    Yangon        MMR11008080800133013240808000000000000000   10300001F05104100000000002100000000000000     
100   95050313497815710000000000010000000000010000002000000010410408081325315531584431420808000007617833   1030000200030000   333800010001203104000003327KBZPay                 Yangon        MMR11008081325315531580808000000000000000   10300001F05104100000000002100000000000000     
100   62911028202290100000000000055000000000055000002000000010410408081041279018734773800808491111727219   1030000900030000   554119001100190110000000212New Day Energy PZD     YANGON        MMR11008081041279018730808000000000000000   10300001F00104100000000001650000000000000     
100   95050316067768680000000000000990000000000990002000000010410408081437120712918417160808000007618080   1020000200030000   333400010001204104000000281Myanmar Soft-Gate Tech Yangon        MMR11008081437120712910808000000000000000   10300001F05104100000000000208000000000000     
