100   62911028202246800000000000023650000000023650002000000010410408081124260001064773800808222017000106   1030000500030000   581220024401000015812200244SHWE LAR HOT POT       PTN           MMR11008081124260001060808000000000000000   10300001 00104100000000002412000000000000     
100   62911028202540670000000000060000000000060000002000000010410408080815410003134773800808222014000313   1030000500030000   598320001103000015172200011MAX ENERGY             PTN           MMR11008080815410003130808000000000000000   10300001 00104100000000001800000000000000     
100   62911028202471860000000000042000000000042000002000000010410408080756090003734773800808222014000373   1030000500030000   598320001204000015172200012MAX ENERGY             PTN           MMR11008080756090003730808000000000000000   10300001 00104100000000001260000000000000     
100   62911028202446540000000000012100000000012100002000000010410408080201230000284773800808222008000028   1030000500030000   591220014301014405912200143SHWE OHH PHARMACY      PTN           MMR11008080201230000280808000000000000000   10300001 00104100000000000726000000000000     
100   62443100395964530000000000023500000000023500002000000010410408081013070012031516290808000360044241   1030000300030000   581200001888000000000001351CB BANK                OISHII RESTAU MMR11008081013070012030808000000000000000   10300001F00104100000000009988000000000000     
100   62911028202445710000000000490000000000490000002000000010410408080100350001824773800808222007000182   1030000500030000   806220009102024108062200091ARYU INTL HOSPITAL     PTN           MMR11008080100350001820808000000000000000   10300001 00104100000000029400000000000000     
100   62911028202440680000000000006200000000006200002000000010410408081130150000304773800808222018000030   1030000500030000   591220014301014405912200143SHWE OHH PHARMACY      PTN           MMR11008081130150000300808000000000000000   10300001 00104100000000000372000000000000     
100   62443100303702210000000000262088000000262088002000000010410408080714410004331474910808000360015843   1030000300030000   581200000152000000000000075CB BANK                PAN PACIFIC Y MMR11008080714410004330808000000000000000   10300001F00104100000000111388000000000000     
100   62443100306045460000000000438248000000438248002000000010410408091118019295817472030809888481701220   1030000900030000   541119001282190110000000963City Mart SPL C 7      YANGONMYOTHIT MMR11008091118019295810809000000000000000   10300001F00104100000000109562000000000000     
100   95050314979630620000000000000990000000000990002000000010410408090835540554737705460809000007622952   1020000200030000   333400010001204104000000281Myanmar Soft-Gate Tech Yangon        MMR11008090835540554730809000000000000000   10300001F05104100000000000208000000000000     
100   95030308100041500000000000010705000000010705002000000010410408091034189285204773800809331041718220   1030000900030000   541119001260190110000000958City Mart PLST C 3     YANGONMYOTHIT MMR11008091034189285200809000000000000000   10300001F00104100000000000642000000000000     
100   95050310456843760000000000021900000000021900002000000010410408091157529304909890390809368271852220   1030000900030000   541119000124190110000000080Sein Gay Har BAK       YANGONADA     MMR11008091157529304900809000000000000000   10300001F00104100000000005475000000000000     
100   62443101053241940000000000039000000000039000002000000010410408091118359296005819550809900481735220   1030000900030000   554119000348190110000000215New Day Energy MYG     YANGONONE     MMR11008091118359296000809000000000000000   10300001F00104100000000004680000000000000     
100   62911028202193830000000000027924000000027924002000000010410408091206339307054773800809483361833220   1030000900030000   541119001068190110000000082Sein Gay Har Super Cen YANGON        MMR11008091206339307050809000000000000000   10300001F00104100000000001675000000000000     
100   62911028202687780000000000016650000000016650002000000010410408070505360315704773800807221905031570   1030000600030000   554100002319315799420000477DENKO INSEIN           YANGON        MMR11008070505360315700807000000000000000   10300001 00104100000000000500000000000000     
100   95050319391394380000000000005338000000005338002000000010410408091111069294369039420809816411706220   1030000900030000   541119000124190110000000080Sein Gay Har BAK       YANGONADA     MMR11008091111069294360809000000000000000   10300001F00104100000000001335000000000000     
100   62443100315110470000000000194250000000194250002000000010410408080613590000308801270808222012000030   1030000500030000   421420098901022504214200989DHL (LANMADAW)         PTN           MMR11008080613590000300808000000000000000   10300001 00104100000000046620000000000000     
100   62911028202188560000000000135000000000135000002000000010410408080745490000704773800808222014000070   1030000500030000   531120155705000045311201557GAMONE PWINT           PTN           MMR11008080745490000700808000000000000000   10300001 00104100000000008100000000000000     
100   62911028202822250000000000050000000000050000002000000010410408081039160003164773800808222017000316   1030000500030000   598320001102000015172200011MAX ENERGY             PTN           MMR11008081039160003160808000000000000000   10300001 00104100000000001500000000000000     
100   62911028202319090000000000023000000000023000002000000010410408080252470000384773800808222009000038   1030000500030000   591220020501005105912200205MINGALAR PHARMACY      PTN           MMR11008080252470000380808000000000000000   10300001 00104100000000001380000000000000     
100   62443100315110470000000000053000000000053000002000000010410408080528570004244403840808222011000424   1030000500030000   598320001203000015172200012MAX ENERGY             PTN           MMR11008080528570004240808000000000000000   10300001 00104100000000006360000000000000     
100   62443100321407540000000000178300000000178300002000000010410408081057490002786097690808222017000278   1030000500030000   503920036610000015039200366PRO-1 HOME CENTER      PTN           MMR11008081057490002780808000000000000000   10300001 00104100000000042792000000000000     
100   62443100333488440000000001000000000001000000002000000010410408080858010016671821010808000360032645   1030000300030000   573200001740000000000001243CB BANK                WIN MOBILE WO MMR11008080858010016670808000000000000000   10300001F00104100000000240000000000000000     
100   62911028202684060000000000003150000000003150002000000010410408080408310000564773800808222010000056   1030000500030000   591220013601014405912200136SHWE OHH PHARMACY      PTN           MMR11008080408310000560808000000000000000   10300001 00104100000000000189000000000000     
100   95050329023136610000000000034100000000034100002000000010410408090558452742704175140809222112274270   1040001600030000   541120000559000000010000465Ocean Shwe Gone Daing  Yangon        MMR11008090558452742700809000000000000000   10300001F00104100000000008525000000000000     
100   62911028202107390000000000055000000000055000002000000010410408090717089231084773800809617471308220   1030000900030000   554119001101190110000000213New Day Energy SOK     YANGONOKKALAP MMR11008090717089231080809000000000000000   10300001F00104100000000001650000000000000     
100   95050322715181550000000000062000000000062000002000000010410408091150459303346500320809280201845220   1030000900030000   554119000997190110000000803Puma Power SOKL        YANGONOKKALAP MMR11008091150459303340809000000000000000   10300001F00104100000000007440000000000000     
100   95030319588829360000000000020000000000020000002000000010410408080246150317164773800808222002031716   1030000600030000   554100002319315799420000477DENKO INSEIN           YANGON        MMR11008080246150317160808000000000000000   10300001 00104100000000000600000000000000     
100   62911028202366010000000000053000000000053000002000000010410408071112170439594773800807221911043959   1030000600030000   554100001865315799420001235DENKO NAY PYI TAW 2    NAYPYITAW     MMR11008071112170439590807000000000000000   10300001 00104100000000001590000000000000     
100   95050328137327770000000000030000000000030000002000000010410408090151022102413715000809000007618988   1030000200030000   333800010001203104000003327KBZPay                 Yangon        MMR11008090151022102410809000000000000000   10300001F05104100000000006300000000000000     
100   62911028202212490000000000003500000000003500002000000010410408091026539283224773800809240561653220   1030000900030000   581219000715190110000000546Akkhaya Tea House(Dago YANGON        MMR11008091026539283220809000000000000000   10300001F00104100000000000357000000000000     
100   62911028202147720000000000027274000000027274002000000010410408091354260180964773800809000751685144   1030000200030000   541188001306000008000000325KBZ BANK               CITY MART - A MMR11008091354260180960809000000000000000   10300001 00104100000000001636000000000000     
100   95050316901496590000000000003800000000003800002000000010410408081047030000555416930808222017000055   1030000500030000   541120045801009205411200458126 STORE              PTN           MMR11008081047030000550808000000000000000   10300001 00104100000000000950000000000000     
100   62911028202126020000000000151920000000151920002000000010410408080606180001654773800808222012000165   1030000500030000   581220106701000015812201067THAI 47                PTN           MMR11008080606180001650808000000000000000   10300001 00104100000000015496000000000000     
100   62911028202126850000000000026700000000026700002000000010410408080759540031224773800808222014003122   1030000500030000   531120226317000045311202263OCEAN SUPER CENTER STJ PTN           MMR11008080759540031220808000000000000000   10300001 00104100000000001602000000000000     
100   95050324247403260000000000059000000000059000002000000010410408080331210588084667210808222003058808   1030000600030000   554100001001315799420000498DENKO SHWE PYI THAR    YANGON        MMR11008080331210588080808000000000000000   10300001 00104100000000007080000000000000     
100   62911028202709150000000000047000000000047000002000000010410408080930030592074773800808222009059207   1030000600030000   554100000969315799420000481DENKO NORTH OKKALAPA   YANGON        MMR11008080930030592070808000000000000000   10300001 00104100000000001410000000000000     
100   62911028202219340000000000079850000000079850002000000010410408080925560257614773800808000360036956   1030000300030000   531100000794000000000000540CB BANK                CAPITAL SUPER MMR11008080925560257610808000000000000000   10300001F00104100000000004791000000000000     
100   62911028202423360000000000030000000000030000002000000010410408080310400872714773800808222003087271   1030000600030000   554100000955315799420000477DENKO INSEIN           YANGON        MMR11008080310400872710808000000000000000   10300001 00104100000000000900000000000000     
100   62911028202677390000000000074362000000074362002000000010410408081357510047274773800808000360074484   1030000300030000   541100000442000000000000319CB BANK                ONESTOP KITCH MMR11008081357510047270808000000000000000   10300001F00104100000000004462000000000000     
100   62911028202260160000000000023800000000023800002000000010410408090853315649804773800809233143717610   1040001400030000   591210000277025912100002552AAA Pharmacy null No(1 2)A Lay Daung MMR11008090853315649800809000000000000000   10300001 00104100000000001428000000000000     
100   62443100371022130000000000019297000000019297002000000010410408090436449186360919610809368061144220   1030000900030000   541119001154190110000000930OCEAN HTY C 4          YANGONTHARYA  MMR11008090436449186360809000000000000000   10300001F00104100000000004825000000000000     
100   62911028202027440000000000031492000000031492002000000010410408090443169188034773800809451131116220   1030000900030000   554119001103190110000000215New Day Energy MYG     YANGONONE     MMR11008090443169188030809000000000000000   10300001F00104100000000000945000000000000     
100   95050316377977350000000000005000000000005000002000000010410408090151142114828672450809000007618991   1040001600030000   333800010001220104000004507A +                    Yangon        MMR11008090151142114820809000000000000000   10300001F05104100000000001050000000000000     
100   95050316049877640000000000011250000000011250002000000010410408091032459284728883020809312021745220   1030000900030000   541119001260190110000000958City Mart PLST C 3     YANGONMYOTHIT MMR11008091032459284720809000000000000000   10300001F00104100000000002813000000000000     
100   62911028202691640000000000150000000000150000002000000010410408080912040052464773800808000360034847   1030000300030000   541100002337000000000000102CB BANK                MAKRO MYANMAR MMR11008080912040052460808000000000000000   10300001F00104100000000009000000000000000     
100   62911028202527490000000000018768000000018768002000000010410408070521370003664773800807221905000366   1030000600030000   5499000024203157994200016871 STOP S M PIN LONE    YANGON        MMR11008070521370003660807000000000000000   10300001 00104100000000001914000000000000     
100   95050322426452690000000000038600000000038600002000000010410408091234093052714592550809222119305271   1040001600030000   598320000320000000010000308PT Power Petrol Statio Yangon        MMR11008091234093052710809000000000000000   10300001F00104100000000004632000000000000     
100   62443100384660050000000000065000000000065000002000000010410408081007090255248126220808222010025524   1030000600030000   554100000747315799420000325DENKO MDY 26           YANGON        MMR11008081007090255240808000000000000000   10300001 00104100000000007800000000000000     
100   62443100352902910000000000150000000000150000002000000010410408080816310052376608280808000360026149   1030000300030000   541100002337000000000000102CB BANK                MAKRO MYANMAR MMR11008080816310052370808000000000000000   10300001F00104100000000037500000000000000     
100   62911028202530930000000000028932000000028932002000000010410408080348400082074773800808222003008207   1030000600030000   581200001904315799420001274SIGNATURE FINEDINING 2 BAHAN         MMR11008080348400082070808000000000000000   10300001 00104100000000002951000000000000     
100   62911028202126850000000000041100000000041100002000000010410408080459460025004773800808222011002500   1030000500030000   541120227503000045411202275CITY MART (AHLONE BRAN PTN           MMR11008080459460025000808000000000000000   10300001 00104100000000002466000000000000     
100   62911028202366010000000000026000000000026000002000000010410408081040060179164773800808222010017916   1030000600030000   554100002328315799420001235DENKO NAY PYI TAW 2    NAYPYITAW     MMR11008081040060179160808000000000000000   10300001 00104100000000000780000000000000     
100   95050321237170130000000000004000000000004000002000000010410408080456390872802084380808222004087280   1030000600030000   554100000955315799420000477DENKO INSEIN           YANGON        MMR11008080456390872800808000000000000000   10300001 00104100000000000480000000000000     
100   95050321237170130000000000036000000000036000002000000010410408080457340872817212030808222004087281   1030000600030000   554100000955315799420000477DENKO INSEIN           YANGON        MMR11008080457340872810808000000000000000   10300001 00104100000000004320000000000000     
100   95050314650717570000000000022000000000022000002000000010410408091355450066849478690809000751685277   1030000200030000   541188001432000008000000401KBZ BANK               OCEAN SUPERCE MMR11008091355450066840809000000000000000   10300001 00104100000000005500000000000000     
100   95050311560587250000000000017510000000017510002000000010410408060520330001396050610806221805000139   1030000600030000   5499000024633157994200017221 STOP  KITCHEN 1      YANGON        MMR11008060520330001390806000000000000000   10300001 00104100000000007442000000000000     
100   95050315150726490000000000005600000000005600002000000010410408091005589277430195110809943351658220   1030000900030000   541119000116190110000000078Sein Gay Har Kan Thar  YANGONOKKALAP MMR11008091005589277430809000000000000000   10300001F00104100000000001400000000000000     
100   62443100300412100000000000036960000000036960002000000010410408060842020070171419760806221808007017   1030000600030000   581200002287315799420000141FUJI COFFEE HOUSE      YANGON        MMR11008060842020070170806000000000000000   10300001 00104100000000015708000000000000     
100   95050322312885760000000000003000000000003000002000000010410408090421135113274699500809000007620408   1030000200030000   333800010001203104000003327KBZPay                 Yangon        MMR11008090421135113270809000000000000000   10300001F05104100000000000630000000000000     
100   62911028202525660000000000014565000000014565002000000010410408081309540044894773800808222019004489   1030000500030000   541120226806000045411202268CITY MART WAIZAYANDA   PTN           MMR11008081309540044890808000000000000000   10300001 00104100000000000874000000000000     
100   95050324850150480000000000030000000000030000002000000010410408080434450051578900160808222004005157   1030000600030000   554100001269315799420000723DENKO GYOBINGAUK       GYOBINGAUK    MMR11008080434450051570808000000000000000   10300001 00104100000000003600000000000000     
100   95050311779172060000000000003000000000003000002000000010410408091051122112097727320809000007623808   1030000200030000   333800010001203104000003327KBZPay                 Yangon        MMR11008091051122112090809000000000000000   10300001F05104100000000000630000000000000     
100   62911028202593140000000000023500000000023500002000000010410408081038480015544773800808222017001554   1030000500030000   541120227501000045411202275CITY MART (AHLONE BRAN PTN           MMR11008081038480015540808000000000000000   10300001 00104100000000001410000000000000     
100   95050314401921990000000000000990000000000990002000000010410408091242371237482940060809000007624245   1020000200030000   333400010001204104000000281Myanmar Soft-Gate Tech Yangon        MMR11008091242371237480809000000000000000   10300001F05104100000000000208000000000000     
100   95050327416134790000000000000990000000000990002000000010410408091250382038053025150809000007624271   1020000200030000   333400010001204104000000281Myanmar Soft-Gate Tech Yangon        MMR11008091250382038050809000000000000000   10300001F05104100000000000208000000000000     
100   95050314064416890000000000001980000000001980002000000010410408090941241124411507210809000007623392   1020000200030000   333400010001204104000000281Myanmar Soft-Gate Tech Yangon        MMR11008090941241124410809000000000000000   10300001F05104100000000000416000000000000     
100   62911028202469070000000000040416000000040416002000000010410408091026010228134773800809000751661072   1030000200030000   541188001080000008000000294KBZ BANK               CITY MART - J MMR11008091026010228130809000000000000000   10300001 00104100000000002425000000000000     
100   62911028202355870000000001000000000001000000002000000010410408081736190619344773800809000007618541   1030000600030000   333800010001230104000004564Trusty Wallet          Yangon        MMR11008081736190619340809000000000000000   10300001F05104100000000210000000000000000     
100   95050312334818820000000000248000000000248000002000000010410408090843121312459443040809000007622979   1030000200030000   333800010001203104000003327KBZPay                 Yangon        MMR11008090843121312450809000000000000000   10300001F05104100000000052080000000000000     
100   95050325139996190000000000018394310000018394312000000010410408090354122412681784370809000007619967   1030000200030000   333300010001203104000003632Myanmar Tradenet Test  Yangon        MMR11008090354122412680809000000000000000   10300001F05104100000000010000000000000000     
100   62911028202491330000000000047956000000047956002000000010410408091616300148934773800809000751696895   1030000200030000   541188001081000008000000294KBZ BANK               CITY MART - J MMR11008091616300148930809000000000000000   10300001 00104100000000002877000000000000     
100   95050311883152260000000000022150000000022150002000000010410408080151480015692638690808222001001569   1030000600030000   5499000022383157994200015691 STOP S M SATSAN      YANGON        MMR11008080151480015690808000000000000000   10300001 00104100000000009414000000000000     
100   62443100300412100000000000017350000000017350002000000010410408090953179274428797920809803231617220   1030000900030000   541119001161190110000000930OCEAN HTY C 11         YANGONTHARYA  MMR11008090953179274420809000000000000000   10300001F00104100000000004338000000000000     
100   62911028202595200000000000149000000000149000002000000010410408080637500000414773800808222013000041   1030000500030000   541120129714000045411201297MAKRO MYANMAR          PTN           MMR11008080637500000410808000000000000000   10300001 00104100000000008940000000000000     
100   62911028202680670000000000027200000000027200002000000010410408071231130872244773800807221912087224   1030000600030000   554100000955315799420000477DENKO INSEIN           YANGON        MMR11008071231130872240807000000000000000   10300001 00104100000000000816000000000000     
100   62443100328070970000000000010950000000010950002000000010410408091112029294584081970809826421702220   1030000900030000   541119001514190110000001102Ocean MGDTM C-7        YANGONADON    MMR11008091112029294580809000000000000000   10300001F00104100000000002738000000000000     
100   62911028202280200000000000039000000000039000002000000010410408091002223174454773800809322284437773   1040001400030000   599910000882025999100001869MAHAR SAN USA Store nu l No-55  Byin MMR11008091002223174450809000000000000000   10300001 00104100000000002340000000000000     
100   95050319161596230000000000000990000000000990002000000010410408090940221022779769630809000007623391   1020000200030000   333400010001204104000000281Myanmar Soft-Gate Tech Yangon        MMR11008090940221022770809000000000000000   10300001F05104100000000000208000000000000     
100   95050313702988830000000000000990000000000990002000000010410408091137490749129209610809000007623977   1020000200030000   333400010001204104000000281Myanmar Soft-Gate Tech Yangon        MMR11008091137490749120809000000000000000   10300001F05104100000000000208000000000000     
100   62911028202355870000000002000000000002000000002000000010410408081740101010874773800809000007618552   1030000600030000   333800010001230104000004564Trusty Wallet          Yangon        MMR11008081740101010870809000000000000000   10300001F05104100000000420000000000000000     
100   95050314979630620000000000000990000000000990002000000010410408090752372237901641750809000007622645   1020000200030000   333400010001204104000000281Myanmar Soft-Gate Tech Yangon        MMR11008090752372237900809000000000000000   10300001F05104100000000000208000000000000     
100   95050316530487400000000000225500000000225500002000000010410408090431540154886763680809000007620545   1030000200030000   333800010001203104000003327KBZPay                 Yangon        MMR11008090431540154880809000000000000000   10300001F05104100000000047355000000000000     
100   95050319938772870000000000000990000000000990002000000010410408091435390539510982850809000007624665   1020000200030000   333400010001204104000000281Myanmar Soft-Gate Tech Yangon        MMR11008091435390539510809000000000000000   10300001F05104100000000000208000000000000     
100   95050311779172060000000000005000000000005000002000000010410408090035170517408927740809000007618799   1030000200030000   333800010001203104000003327KBZPay                 Yangon        MMR11008090035170517400809000000000000000   10300001F05104100000000001050000000000000     
100   95050319391394380000000000015200000000015200002000000010410408090237520752969424530809000007619178   1030000200030000   333800010001203104000003327KBZPay                 Yangon        MMR11008090237520752960809000000000000000   10300001F05104100000000003192000000000000     
100   62911028202355870000000002000000000002000000002000000010410408081737190719064773800809000007618544   1030000600030000   333800010001230104000004564Trusty Wallet          Yangon        MMR11008081737190719060809000000000000000   10300001F05104100000000420000000000000000     
100   95050318214455130000000000004950000000004950002000000010410408091044011401520705690809000007623779   1020000200030000   333400010001204104000000281Myanmar Soft-Gate Tech Yangon        MMR11008091044011401520809000000000000000   10300001F05104100000000001040000000000000     
100   62911028202074950000000000135250000000135250002000000010410408090532409201344773800809115021240220   1030000900030000   591219000795190110000000627Shwe Ohh Pharmacy ST-3 YANGONINDAING MMR11008090532409201340809000000000000000   10300001F00104100000000008115000000000000     
100   62911028202498100000000000102000000000102000002000000010410408090828465846924773800809000007622900   1010000100030000   333500010001205104000000364Internal Revenue Depar Yangon        MMR11008090828465846920809000000000000000   10300001F05104100000000060000000000000000     
100   95050310719071210000000000043331000000043331002000000010410408091348550021064351050809000751684537   1030000200030000   541188001438000008000000401KBZ BANK               OCEAN SUPERCE MMR11008091348550021060809000000000000000   10300001 00104100000000010833000000000000     
100   95050310397364970000000000001980000000001980002000000010410408090431140114385536680809000007620528   1020000200030000   333400010001204104000000281Myanmar Soft-Gate Tech Yangon        MMR11008090431140114380809000000000000000   10300001F05104100000000000416000000000000     
100   95050315448852350000000000200000000000200000002000000010410408091339190919948578280809000007624471   1030000200030000   333800010001203104000003327KBZPay                 Yangon        MMR11008091339190919940809000000000000000   10300001F05104100000000042000000000000000     
100   62911028202147720000000000019900000000019900002000000010410408091401570031214773800809000751685946   1030000200030000   541188001311000008000000325KBZ BANK               CITY MART - A MMR11008091401570031210809000000000000000   10300001 00104100000000001194000000000000     
100   62911028202290100000000000140526000000140526002000000010410408091209300250484773800809000751672963   1030000200030000   541188001054000008000000314KBZ BANK               MARKETPLACE - MMR11008091209300250480809000000000000000   10300001 00104100000000008432000000000000     
100   62911028202074950000000000009424000000009424002000000010410408091010410204024773800809000751659404   1030000200030000   541188001305000008000000325KBZ BANK               CITY MART - A MMR11008091010410204020809000000000000000   10300001 00104100000000000565000000000000     
100   95050313817486860000000000004950000000004950002000000010410408091142341234309720190809000007624012   1020000200030000   333400010001204104000000281Myanmar Soft-Gate Tech Yangon        MMR11008091142341234300809000000000000000   10300001F05104100000000001040000000000000     
100   95050310494988230000000000001980000000001980002000000010410408090641501150717650300809000007621975   1020000200030000   333400010001204104000000281Myanmar Soft-Gate Tech Yangon        MMR11008090641501150710809000000000000000   10300001F05104100000000000416000000000000     
100   95050312933828140000000000011700000000011700002000000010410408070619010006610999990807221912000661   1030000500030000   541120203812000015411202038CITY MART SUPERMARKET  PTN           MMR11008070619010006610807000000000000000   10300001 00104100000000002925000000000000     
100   62443100323428970000000000020300000000020300002000000010410408070839280020336794620807221915002033   1030000500030000   541120203902000015411202039NEIGHBOURHOOD          PTN           MMR11008070839280020330807000000000000000   10300001 00104100000000005075000000000000     
100   95030327743474500000000000053000000000053000002000000010410408070820120042344773800807221908004234   1030000600030000   554100000796315799420000361DENKO HTOE BO 2        YANGON        MMR11008070820120042340807000000000000000   10300001 00104100000000001590000000000000     
100   95050320093758110000000000020000000000020000002000000010410408070102400094429973120807221901009442   1030000600030000   554100002139315799420001488DENKO MDY-12           MANDALAY      MMR11008070102400094420807000000000000000   10300001 00104100000000002400000000000000     
100   95050315296997180000000000010000000000010000002000000010410408071218180254952603030807221912025495   1030000600030000   554100000747315799420000325DENKO MDY 26           YANGON        MMR11008071218180254950807000000000000000   10300001 00104100000000001200000000000000     
100   62443101001072630000000000050000000000050000002000000010410408070234260334003703570807221902033400   1030000600030000   554100000725315799420000306DENKO MDY - 78         MANDALAY      MMR11008070234260334000807000000000000000   10300001 00104100000000006000000000000000     
100   95030327743474500000000000048000000000048000002000000010410408070035470337964773800807221900033796   1030000600030000   554100001116315799420000574DENKO HLAE KUU         HLAE KUU      MMR11008070035470337960807000000000000000   10300001 00104100000000001440000000000000     
100   95030396594260770000000000030000000000030000002000000010410408070332230127824773800807221903012782   1030000600030000   554100001218315799420000670DENKO MAWLAMYAING      MON STATE.    MMR11008070332230127820807000000000000000   10300001 00104100000000000900000000000000     
100   95050314248677090000000000070000000000070000002000000010410408062351190742414930570807221923074241   1030000600030000   554100000952315799420000474DENKO N.DAGON - 1      YANGON        MMR11008062351190742410807000000000000000   10300001 00104100000000008400000000000000     
100   95050327996244850000000000300000000000300000002000000010410408090158362836352658190809000007619014   1030000200030000   333800010001203104000003327KBZPay                 Yangon        MMR11008090158362836350809000000000000000   10300001F05104100000000063000000000000000     
100   95030337649220130000000000002970000000002970002000000010410408090815414541314773800809000007622703   1020000200030000   333400010001204104000000281Myanmar Soft-Gate Tech Yangon        MMR11008090815414541310809000000000000000   10300001F05104100000000000624000000000000     
100   95050319974529540000000000010000000000010000002000000010410408091525565556032294950809000007624846   1030000200030000   333800010001203104000003327KBZPay                 Yangon        MMR11008091525565556030809000000000000000   10300001F05104100000000002100000000000000     
100   95050318057347910000000000050000000000050000002000000010410408090356262626431869460809000007620086   1030000200030000   3338000100012031040000040022C2P (Myanmar) Co. Ltd Yangon        MMR11008090356262626430809000000000000000   10300001F05104100000000010500000000000000     
100   95050327996244850000000000300000000000300000002000000010410408090159492949131005710809000007619019   1030000200030000   333800010001203104000003327KBZPay                 Yangon        MMR11008090159492949130809000000000000000   10300001F05104100000000063000000000000000     
100   95050310427855490000000000000990000000000990002000000010410408090010034003980410030809000007618772   1020000200030000   333400010001204104000000281Myanmar Soft-Gate Tech Yangon        MMR11008090010034003980809000000000000000   10300001F05104100000000000208000000000000     
100   62911028202498100000000001387766000001387766002000000010410408090821345134694773800809000007622847   1010000100030000   333500010001205104000000364Internal Revenue Depar Yangon        MMR11008090821345134690809000000000000000   10300001F05104100000000060000000000000000     
100   95050313145843230000000000005100000000005100002000000010410408090648381838119898460809000007622040   1030000200030000   333800010001203104000003327KBZPay                 Yangon        MMR11008090648381838110809000000000000000   10300001F05104100000000001071000000000000     
100   62911028202809060000000000315300000000315300002000000010410408090211382615124773800809222109261512   1040001600030000   591220000043000000010000041Mingalar Pharmacy      Yangon        MMR11008090211382615120809000000000000000   10300001F00104100000000018918000000000000     
100   62911028202809060000000000093150000000093150002000000010410408090619372757484773800809222113275748   1040001600030000   591220000043000000010000041Mingalar Pharmacy      Yangon        MMR11008090619372757480809000000000000000   10300001F00104100000000005589000000000000     
100   62911028202280200000000000067000000000067000002000000010410408090959583563104773800809029584925652   1040001400030000   599910000882025999100001869MAHAR SAN USA Store nu l No-55  Byin MMR11008090959583563100809000000000000000   10300001 00104100000000004020000000000000     
100   95050310322713510000000000025000000000025000002000000010410408091514024402117252400809000007624805   1030000200030000   333800010001203104000003327KBZPay                 Yangon        MMR11008091514024402110809000000000000000   10300001F05104100000000005250000000000000     
100   95050319532433550000000000040240000000040240002000000010410408091326555655525188220809000007624429   1030000200030000   333800010001203104000003327KBZPay                 Yangon        MMR11008091326555655520809000000000000000   10300001F05104100000000008450000000000000     
100   95050319709462380000000000000990000000000990002000000010410408090559052905589132590809000007621565   1020000200030000   333400010001204104000000281Myanmar Soft-Gate Tech Yangon        MMR11008090559052905580809000000000000000   10300001F05104100000000000208000000000000     
100   95050322220807920000000000060000000000060000002000000010410408090528393050895317040809583966415719   1040001400030000   569910000591025699100003527F1 Free Point Fashion  ull Myanmar L MMR11008090528393050890809000000000000000   10300001 00104100000000014400000000000000     
100   95050315259054570000000000005000000000005000002000000010410408090215394539233970290809000007619105   1030000200030000   333800010001203104000003327KBZPay                 Yangon        MMR11008090215394539230809000000000000000   10300001F05104100000000001050000000000000     
100   95050316949180000000000000002970000000002970002000000010410408091454532453694287820809000007624717   1020000200030000   333400010001204104000000281Myanmar Soft-Gate Tech Yangon        MMR11008091454532453690809000000000000000   10300001F05104100000000000624000000000000     
100   95050312926040930000000000010000000000010000002000000010410408081951032103078246970809000007618673   1030000200030000   333800010001203104000003327KBZPay                 Yangon        MMR11008081951032103070809000000000000000   10300001F05104100000000002100000000000000     
100   95050317185868580000000000030000000000030000002000000010410408090448441844700749420809000007620769   1030000200030000   333800010001203104000003327KBZPay                 Yangon        MMR11008090448441844700809000000000000000   10300001F05104100000000006300000000000000     
100   95050315259054570000000000000990000000000990002000000010410408090756512651175542400809000007622677   1020000200030000   333400010001204104000000281Myanmar Soft-Gate Tech Yangon        MMR11008090756512651170809000000000000000   10300001F05104100000000000208000000000000     
100   95050322312885760000000000005000000000005000002000000010410408090856582658695797680809000007623117   1030000200030000   333800010001203104000003327KBZPay                 Yangon        MMR11008090856582658690809000000000000000   10300001F05104100000000001050000000000000     
100   95050311184380560000000000001980000000001980002000000010410408091511044104648904880809000007624787   1020000200030000   333400010001204104000000281Myanmar Soft-Gate Tech Yangon        MMR11008091511044104640809000000000000000   10300001F05104100000000000416000000000000     
100   95050314302558730000000000004950000000004950002000000010410408091616094609090642460809000007624962   1020000200030000   333400010001204104000000281Myanmar Soft-Gate Tech Yangon        MMR11008091616094609090809000000000000000   10300001F05104100000000001040000000000000     
100   95050315250339200000000000005000000000005000002000000010410408091120595059852514580809000007623920   1030000200030000   333800010001203104000003327KBZPay                 Yangon        MMR11008091120595059850809000000000000000   10300001F05104100000000001050000000000000     
100   95050327996244850000000000100000000000100000002000000010410408090155272527667615640809000007619006   1030000200030000   333800010001203104000003327KBZPay                 Yangon        MMR11008090155272527660809000000000000000   10300001F05104100000000021000000000000000     
100   95050327996244850000000000300000000000300000002000000010410408090156402640852573090809000007619008   1030000200030000   333800010001203104000003327KBZPay                 Yangon        MMR11008090156402640850809000000000000000   10300001F05104100000000063000000000000000     
100   95050325273694860000000000004000000000004000002000000010410408090911442855885868990809222116285588   1040001600030000   591220000285000000010000273Shwe Ohh Pharmacy (47t Yangon        MMR11008090911442855880809000000000000000   10300001F00104100000000000960000000000000     
100   95050312160676580000000000000990000000000990002000000010410408090800153015267194880809000007622701   1020000200030000   333400010001204104000000281Myanmar Soft-Gate Tech Yangon        MMR11008090800153015260809000000000000000   10300001F05104100000000000208000000000000     
100   95050316563230820000000000020000000000020000002000000010410408091306263626346330130809000007624323   1030000200030000   333800010001203104000003327KBZPay                 Yangon        MMR11008091306263626340809000000000000000   10300001F05104100000000004200000000000000     
100   62911028202169750000000000029198000000029198002000000010410408090735392799284773800809222114279928   1040001600030000   541120000561000000010000465Ocean Shwe Gone Daing  Yangon        MMR11008090735392799280809000000000000000   10300001F00104100000000001752000000000000     
100   95050311779172060000000000003000000000003000002000000010410408090727385738184521240809000007622440   1030000200030000   333800010001203104000003327KBZPay                 Yangon        MMR11008090727385738180809000000000000000   10300001F05104100000000000630000000000000     
100   95050322312885760000000000007000000000007000002000000010410408090820555055194315390809000007622839   1030000200030000   333800010001203104000003327KBZPay                 Yangon        MMR11008090820555055190809000000000000000   10300001F05104100000000001470000000000000     
100   95030307963177330000000000043500000000043500002000000010410408090346402662924773800809222110266292   1040001600030000   806220001356000000010001061Grand Hantha Internati Ygn           MMR11008090346402662920809000000000000000   10300001F00104100000000002610000000000000     
100   62911028202916630000000000200000000000200000002000000010410408090257542754614773800809000007619316   1030000200030000   333800010001203104000003327KBZPay                 Yangon        MMR11008090257542754610809000000000000000   10300001F05104100000000042000000000000000     
100   95050311779172060000000000003000000000003000002000000010410408090055332533282232710809000007618841   1030000200030000   333800010001203104000003327KBZPay                 Yangon        MMR11008090055332533280809000000000000000   10300001F05104100000000000630000000000000     
100   95050311779172060000000000002000000000002000002000000010410408090047071707767275250809000007618822   1030000200030000   333800010001203104000003327KBZPay                 Yangon        MMR11008090047071707760809000000000000000   10300001F05104100000000000420000000000000     
100   62443100355903280000000000002970000000002970002000000010410408091353472347776925800809000007624534   1020000200030000   333400010001204104000000281Myanmar Soft-Gate Tech Yangon        MMR11008091353472347770809000000000000000   10300001F05104100000000000624000000000000     
100   95050319006804440000000000001980000000001980002000000010410408091027415741730960980809000007623683   1020000200030000   333400010001204104000000281Myanmar Soft-Gate Tech Yangon        MMR11008091027415741730809000000000000000   10300001F05104100000000000416000000000000     
100   95030306100096490000000000001980000000001980002000000010410408090801153115124773800809000007622711   1020000200030000   333400010001204104000000281Myanmar Soft-Gate Tech Yangon        MMR11008090801153115120809000000000000000   10300001F05104100000000000416000000000000     
100   95050310572950870000000000020000000000020000002000000010410408090700113011931380750809000007622152   1030000200030000   333800010001203104000003327KBZPay                 Yangon        MMR11008090700113011930809000000000000000   10300001F05104100000000004200000000000000     
100   95050317823045920000000000050000000000050000002000000010410408090316264626343495360809000007619532   1030000200030000   333800010001203104000003327KBZPay                 Yangon        MMR11008090316264626340809000000000000000   10300001F05104100000000010500000000000000     
100   95030318192435180000000000009500000000009500002000000010410408090513189195764773800809824431118220   1030000900030000   581219000931190110000000740Shwe Palin City Mall   YANGONAW      MMR11008090513189195760809000000000000000   10300001F00104100000000000969000000000000     
100   95050310332595380000000000000990000000000990002000000010410408090254112411126545040809000007619296   1020000200030000   333400010001204104000000281Myanmar Soft-Gate Tech Yangon        MMR11008090254112411120809000000000000000   10300001F05104100000000000208000000000000     
100   62443100355903280000000000001980000000001980002000000010410408091355482548511883250809000007624541   1020000200030000   333400010001204104000000281Myanmar Soft-Gate Tech Yangon        MMR11008091355482548510809000000000000000   10300001F05104100000000000416000000000000     
100   95050313817486860000000000000990000000000990002000000010410408090244471447299169240809000007619235   1020000200030000   333400010001204104000000281Myanmar Soft-Gate Tech Yangon        MMR11008090244471447290809000000000000000   10300001F05104100000000000208000000000000     
100   95050321688266460000000000115000000000115000002000000010410408091518464846980557360809000007624818   1030000200030000   333800010001203104000003327KBZPay                 Yangon        MMR11008091518464846980809000000000000000   10300001F05104100000000024150000000000000     
100   95050325784857510000000000015500000000015500002000000010410408090407369178800458480809996371036220   1030000900030000   573219001179190110000000935UNIQUE Seikkanthar     YANGONADA     MMR11008090407369178800809000000000000000   10300001F00104100000000003720000000000000     
100   62911028202336730000000000018000000000018000002000000010410408082058452845524773800809000007618700   1030000200030000   333800010001203104000003327KBZPay                 Yangon        MMR11008082058452845520809000000000000000   10300001F05104100000000003780000000000000     
100   95050312695033440000000000000990000000000990002000000010410408091408583858186755610809000007624580   1020000200030000   333400010001204104000000281Myanmar Soft-Gate Tech Yangon        MMR11008091408583858180809000000000000000   10300001F05104100000000000208000000000000     
100   95050314979630620000000000000990000000000990002000000010410408090412214221165415930809000007620279   1020000200030000   333400010001204104000000281Myanmar Soft-Gate Tech Yangon        MMR11008090412214221160809000000000000000   10300001F05104100000000000208000000000000     
100   95050313400081980000000000100000000000100000002000000010410408090625105510139558070809000007621811   1030000200030000   333800010001203104000003327KBZPay                 Yangon        MMR11008090625105510130809000000000000000   10300001F05104100000000021000000000000000     
100   62443100371309900000000000144376000000144376002000000010410408061223350005884675280806221812000588   1030000600030000   5499000022273157994200015671 STOP S M BOGYOKE RD  YANGON        MMR11008061223350005880806000000000000000   10300001 00104100000000061360000000000000     
100   62443100302523870000000000037000000000037000002000000010410408060039390217926341560806221800021792   1030000600030000   554100002324315799420000481DENKO NORTH OKKALAPA   YANGON        MMR11008060039390217920806000000000000000   10300001 00104100000000004440000000000000     
100   62443100306416880000000000053530000000053530002000000010410408060618220014210824080806221806001421   1030000600030000   5499000023533157994200016371 STOP S M KAMARKYI    YANGON        MMR11008060618220014210806000000000000000   10300001 00104100000000022751000000000000     
100   95050326228858240000000000038000000000038000002000000010410408060332260084491469200806221803008449   1030000600030000   554100001226315799420000679DENKO MAGWAY - 2       MAGWAY        MMR11008060332260084490806000000000000000   10300001 00104100000000004560000000000000     
100   95030305700676370000000000051000000000051000002000000010410408061134050042224773800806221811004222   1030000600030000   554100000796315799420000361DENKO HTOE BO 2        YANGON        MMR11008061134050042220806000000000000000   10300001 00104100000000001530000000000000     
100   62443100303702210000000000245000000000245000002000000010410408060330490627808164230806221803062780   1030000600030000   554100001756315799420001137DENKO NORTH DAGON 2    YANGON        MMR11008060330490627800806000000000000000   10300001 00104100000000029400000000000000     
100   62911028202677390000000000030000000000030000002000000010410408061129490352064773800806221811035206   1030000600030000   554100001113315799420000571DENKO THAN HLYIN -1    THAN HLYIN    MMR11008061129490352060806000000000000000   10300001 00104100000000000900000000000000     
100   62443100390038980000000000051000000000051000002000000010410408061154390438855732090806221811043885   1030000600030000   554100001865315799420001235DENKO NAY PYI TAW 2    NAYPYITAW     MMR11008061154390438850806000000000000000   10300001 00104100000000006120000000000000     
100   95050312940629360000000000006700000000006700002000000010410408090618389213924515530809739481238220   1030000900030000   541119000123190110000000080Sein Gay Har BAK       YANGON        MMR11008090618389213920809000000000000000   10300001F00104100000000001675000000000000     
100   62911028202319090000000000010800000000010800002000000010410408080505250000394773800808222011000039   1030000500030000   591220020501005105912200205MINGALAR PHARMACY      PTN           MMR11008080505250000390808000000000000000   10300001 00104100000000000648000000000000     
100   62911028202404540000000000013800000000013800002000000010410408080519490002334773800808222011000233   1030000500030000   531120156002000045311201560GAMONE PWINT           PTN           MMR11008080519490002330808000000000000000   10300001 00104100000000000828000000000000     
100   62443100371022130000000000012650000000012650002000000010410408090435249186037529550809351051124220   1030000900030000   541119001154190110000000930OCEAN HTY C 4          YANGONTHARYA  MMR11008090435249186030809000000000000000   10300001F00104100000000003163000000000000     
