100   62443100372718280000000000036720000000036720002000000010410408082322040398401551940809222123039840   1030000600030000   554100002085315799420000471DENKO BAHAN            YANGON        MMR11008082322040398400809000000000000000   10300001 00104100000000004406000000000000     
100   62911028202461130000000000021800000000021800002000000010410408090738510023764773800809222114002376   1030000500030000   541120203704000015411202037CITY MART SUPERMARKET  PTN           MMR11008090738510023760809000000000000000   10300001 00104100000000001308000000000000     
100   95050326750398570000000000019100000000019100002000000010410408091334000032636840700809222120003263   1030000500030000   531120226719000045311202267OCEAN NORTH POINT      PTN           MMR11008091334000032630809000000000000000   10300001 00104100000000004584000000000000     
100   95030332666916030000000000025750000000025750002000000010410408091123030045214773800809222117004521   1030000500030000   541120226402000045411202264MARKET PLACE MYANMARPL PTN           MMR11008091123030045210809000000000000000   10300001 00104100000000001545000000000000     
100   62911028202246800000000000030000000000030000002000000010410408090743180261604773800809222107026160   1030000600030000   554100002323315799420000474DENKO N.DAGON - 1      YANGON        MMR11008090743180261600809000000000000000   10300001 00104100000000000900000000000000     
100   62911028202074950000000000014000000000014000002000000010410408090603421043254773800809222106104325   1030000600030000   554100000946315799420000471DENKO BAHAN            YANGON        MMR11008090603421043250809000000000000000   10300001 00104100000000000420000000000000     
100   62443100386703740000000000033600000000033600002000000010410408090747530036829904170809222114003682   1030000500030000   541120230002000045411202300MARKET PLACE BY CITY M PTN           MMR11008090747530036820809000000000000000   10300001 00104100000000008400000000000000     
100   62911028202294730000000000012009000000012009002000000010410408091156270031764773800809222118003176   1030000500030000   531120226317000045311202263OCEAN SUPER CENTER STJ PTN           MMR11008091156270031760809000000000000000   10300001 00104100000000000721000000000000     
100   95030318192435180000000000003600000000003600002000000010410408090506390039184773800809222111003918   1030000500030000   531120226308000045311202263OCEAN SUPER CENTER STJ PTN           MMR11008090506390039180809000000000000000   10300001 00104100000000000216000000000000     
100   95050324104751500000000000459000000000459000002000000010410408070424560006560829800807221904000656   1030000600030000   597700000665315799420000248SHISEIDO JC            YANGON        MMR11008070424560006560807000000000000000   10300001 00104100000000110160000000000000     
100   95050315150726490000000000004950000000004950002000000010410408101257192719582569740810000007630708   1020000200030000   333400010001204104000000281Myanmar Soft-Gate Tech Yangon        MMR11008101257192719580810000000000000000   10300001F05104100000000001040000000000000     
100   95050318048516790000000000010000000000010000002000000010410408100311304130050697620810000007626264   1030000200030000   333800010001203104000003327KBZPay                 Yangon        MMR11008100311304130050810000000000000000   10300001F05104100000000002100000000000000     
100   95050310332595380000000000000990000000000990002000000010410408100123245324066195590810000007625553   1020000200030000   333400010001204104000000281Myanmar Soft-Gate Tech Yangon        MMR11008100123245324060810000000000000000   10300001F05104100000000000208000000000000     
100   95050310672555840000000000028900000000028900002000000010410408101314404440827612280810000007630766   1030000200030000   333800010001203104000003327KBZPay                 Yangon        MMR11008101314404440820810000000000000000   10300001F05104100000000006069000000000000     
100   95050317465574180000000000010000000000010000002000000010410408101519504950968924380810000007631159   1030000200030000   333800010001203104000003327KBZPay                 Yangon        MMR11008101519504950960810000000000000000   10300001F05104100000000002100000000000000     
100   62911028202737030000000000300000000000300000002000000010410408100500343034754773800810000007627574   1030000200030000   333800010001203104000003327KBZPay                 Yangon        MMR11008100500343034750810000000000000000   10300001F05104100000000063000000000000000     
100   95050316769671810000000000039900000000039900002000000010410408100725515551157711170810000007628786   1030000200030000   333800010001203104000003327KBZPay                 Yangon        MMR11008100725515551150810000000000000000   10300001F05104100000000008379000000000000     
100   95050320047636150000000000200000000000200000002000000010410408100255472547630016850810000007626055   1030000200030000   333800010001203104000003327KBZPay                 Yangon        MMR11008100255472547630810000000000000000   10300001F05104100000000042000000000000000     
100   95050324411430900000000002278030000002278030002000000010410408100902273227956895860810000007629603   1010000100030000   333500010001212104000002543Internal Revenue Depar Yangon        MMR11008100902273227950810000000000000000   10300001F05104100000000060000000000000000     
100   95050324411430900000000000029500000000029500002000000010410408100922365236956009250810000007629750   1010000100030000   333500010001212104000002840Internal Revenue Depar Yangon        MMR11008100922365236950810000000000000000   10300001F05104100000000060000000000000000     
100   95050314567755980000000000001550000000001550002000000010410408101123005300967101710810000007630381   1030000200030000   333800010001203104000003327KBZPay                 Yangon        MMR11008101123005300960810000000000000000   10300001F05104100000000000326000000000000     
100   62911028202823400000000000300000000000300000002000000010410408100446501650814773800810000007627434   1030000200030000   333800010001203104000003327KBZPay                 Yangon        MMR11008100446501650810810000000000000000   10300001F05104100000000063000000000000000     
100   62443100338139870000000000300000000000300000002000000010410408101414360007581611820810000751749856   1030000200030000   541188001067000008000000314KBZ BANK               MARKETPLACE - MMR11008101414360007580810000000000000000   10300001 00104100000000075000000000000000     
100   62911028202747190000000000024000000000024000002000000010410408100919010003924773800810000751757910   1030000200030000   541188002338000008000006213KBZ BANK               BEAR MART-1   MMR11008100919010003920810000000000000000   10300001 00104100000000001440000000000000     
100   95050315110306410000000000003000000000003000002000000010410408100230250025318954320810000007625897   1030000200030000   333800010001203104000003327KBZPay                 Yangon        MMR11008100230250025310810000000000000000   10300001F05104100000000000630000000000000     
100   95050316658424370000000000045200000000045200002000000010410408100934220014927307560810000751722322   1030000200030000   541188001448000008000000401KBZ BANK               OCEAN SUPERCE MMR11008100934220014920810000000000000000   10300001 00104100000000011300000000000000     
100   95050312855530910000000000070000000000070000002000000010410408100337010007269470610810000751724831   1030000200030000   594488000253000008000002280KBZ BANK               PWINT HTUN GO MMR11008100337010007260810000000000000000   10300001 00104100000000016800000000000000     
100   95050329185828460000000000080000000000080000002000000010410408101238310831085789610810000007630638   1030000200030000   333800010001203104000003327KBZPay                 Yangon        MMR11008101238310831080810000000000000000   10300001F05104100000000016800000000000000     
100   95050322990383760000000000001000000000001000002000000010410408100838020802748477040810000007629383   1030000200030000   3334000100012031040000040102C2P (Myanmar) Co. Ltd Yangon        MMR11008100838020802740810000000000000000   10300001F05104100000000000210000000000000     
100   95050314752934410000000000150000000000150000002000000010410408100648201820095682650810000007628405   1030000200030000   333800010001203104000003327KBZPay                 Yangon        MMR11008100648201820090810000000000000000   10300001F05104100000000031500000000000000     
100   95030333478847140000000000042634000000042634002000000010410408101522480044064773800810000751756244   1030000200030000   541188001008000008000000008KBZ BANK               MARKETPLACE - MMR11008101522480044060810000000000000000   10300001 00104100000000002558000000000000     
100   62911028202400660000000000128950000000128950002000000010410408101211110398854773800810000751737369   1030000200030000   541188001041000008000000010KBZ BANK               MARKETPLACE - MMR11008101211110398850810000000000000000   10300001 00104100000000007737000000000000     
100   95050316601084530000000000000990000000000990002000000010410408100636380638489577580810000007628296   1020000200030000   333400010001204104000000281Myanmar Soft-Gate Tech Yangon        MMR11008100636380638480810000000000000000   10300001F05104100000000000208000000000000     
100   95050315166583130000000000100000000000100000002000000010410408101339540954379264770810000007630854   1030000200030000   333800010001203104000003327KBZPay                 Yangon        MMR11008101339540954370810000000000000000   10300001F05104100000000021000000000000000     
100   95050310397364970000000000000990000000000990002000000010410408100241101110100351520810000007625972   1020000200030000   333400010001204104000000281Myanmar Soft-Gate Tech Yangon        MMR11008100241101110100810000000000000000   10300001F05104100000000000208000000000000     
100   95050323233042810000000000006000000000006000002000000010410408101449531953140576870810000007631078   1030000200030000   333800010001203104000003327KBZPay                 Yangon        MMR11008101449531953140810000000000000000   10300001F05104100000000001260000000000000     
100   95050312498129060000000000004950000000004950002000000010410408101333190319740917250810000007630834   1020000200030000   333400010001204104000000281Myanmar Soft-Gate Tech Yangon        MMR11008101333190319740810000000000000000   10300001F05104100000000001040000000000000     
100   95050323722449090000000000004409000000004409002000000010410408100945021502096349630810000007629922   1020000200030000   333400010001204104000000281Myanmar Soft-Gate Tech Yangon        MMR11008100945021502090810000000000000000   10300001F05104100000000000926000000000000     
100   95050311779172060000000000004000000000004000002000000010410408100040511051507762980810000007625417   1030000200030000   333800010001203104000003327KBZPay                 Yangon        MMR11008100040511051500810000000000000000   10300001F05104100000000000840000000000000     
100   62911028202651050000000000037518000000037518002000000010410408101003330275884773800810000751724507   1030000200030000   541188001037000008000000010KBZ BANK               MARKETPLACE - MMR11008101003330275880810000000000000000   10300001 00104100000000002251000000000000     
100   62911028202651050000000000062000000000062000002000000010410408101004490275894773800810000751724604   1030000200030000   541188001037000008000000010KBZ BANK               MARKETPLACE - MMR11008101004490275890810000000000000000   10300001 00104100000000003720000000000000     
100   62911028202225850000000000116000000000116000002000000010410408101128120288294773800810000751732817   1030000200030000   541188001059000008000000314KBZ BANK               MARKETPLACE - MMR11008101128120288290810000000000000000   10300001 00104100000000006960000000000000     
100   95050312554086980000000000013600000000013600002000000010410408101220340288374570680810000751738337   1030000200030000   541188001059000008000000314KBZ BANK               MARKETPLACE - MMR11008101220340288370810000000000000000   10300001 00104100000000003400000000000000     
100   95050310902464360000000000002970000000002970002000000010410408100434150415390003060810000007627299   1020000200030000   333400010001204104000000281Myanmar Soft-Gate Tech Yangon        MMR11008100434150415390810000000000000000   10300001F05104100000000000624000000000000     
100   95030302100062270000000000029700000000029700002000000010410408100804540423104773800810000751719195   1030000200030000   541188001024000008000000298KBZ BANK               CITY MART - M MMR11008100804540423100810000000000000000   10300001 00104100000000001782000000000000     
100   95050311959900780000000000000990000000000990002000000010410408091649531953423947430810000007625021   1020000200030000   333400010001204104000000281Myanmar Soft-Gate Tech Yangon        MMR11008091649531953420810000000000000000   10300001F05104100000000000208000000000000     
100   62911028202284260000000000024002000000024002002000000010410408101243440228614773800810000751740492   1030000200030000   541188001080000008000000294KBZ BANK               CITY MART - J MMR11008101243440228610810000000000000000   10300001 00104100000000001440000000000000     
100   62443100330108240000000000004950000000004950002000000010410408101442071207395619420810000007631051   1020000200030000   333400010001204104000000281Myanmar Soft-Gate Tech Yangon        MMR11008101442071207390810000000000000000   10300001F05104100000000001040000000000000     
100   95050314557307430000000000001980000000001980002000000010410408100046051605272720430810000007625429   1020000200030000   333400010001204104000000281Myanmar Soft-Gate Tech Yangon        MMR11008100046051605270810000000000000000   10300001F05104100000000000416000000000000     
100   62443100395964530000000000023557000000023557002000000010410408101517100134710456120810000751755853   1030000200030000   541188001303000008000000325KBZ BANK               CITY MART - A MMR11008101517100134710810000000000000000   10300001 00104100000000005890000000000000     
100   62911028202610540000000000024150000000024150002000000010410408101023130236494773800810000751726386   1030000200030000   541188001075000008000000294KBZ BANK               CITY MART - J MMR11008101023130236490810000000000000000   10300001 00104100000000001449000000000000     
100   62911028202355870000000002800000000002800000002000000010410408091737060706704773800810000007625091   1030000600030000   333800010001230104000004564Trusty Wallet          Yangon        MMR11008091737060706700810000000000000000   10300001F05104100000000588000000000000000     
100   62911028202355870000000002000000000002000000002000000010410408091742541254174773800810000007625106   1030000600030000   333800010001230104000004564Trusty Wallet          Yangon        MMR11008091742541254170810000000000000000   10300001F05104100000000420000000000000000     
100   62443100395964530000000000050405000000050405002000000010410408101518160134732193700810000751755941   1030000200030000   541188001303000008000000325KBZ BANK               CITY MART - A MMR11008101518160134730810000000000000000   10300001 00104100000000012602000000000000     
100   95050318458849030000000000026200000000026200002000000010410408101221280288387960750810000751738430   1030000200030000   541188001059000008000000314KBZ BANK               MARKETPLACE - MMR11008101221280288380810000000000000000   10300001 00104100000000006550000000000000     
100   95030306100096490000000000004950000000004950002000000010410408100346051605794773800810000007626773   1020000200030000   333400010001204104000000281Myanmar Soft-Gate Tech Yangon        MMR11008100346051605790810000000000000000   10300001F05104100000000001040000000000000     
100   95050318416662540000000000027000000000027000002000000010410408101145251525843456360810000007630475   1030000200030000   333800010001203104000003327KBZPay                 Yangon        MMR11008101145251525840810000000000000000   10300001F05104100000000005670000000000000     
100   62911028202294570000000000032800000000032800002000000010410408100900290062344773800810000751756808   1030000200030000   569988000803000008000004614KBZ BANK               JCY-IPANEMA   MMR11008100900290062340810000000000000000   10300001 00104100000000001968000000000000     
100   62911028202313470000000000053876000000053876002000000010410408101628540076954773800810000751760156   1030000200030000   541188001066000008000000314KBZ BANK               MARKETPLACE - MMR11008101628540076950810000000000000000   10300001 00104100000000003233000000000000     
100   95050325139996190000000000003300000000003300002000000010410408100831120112585086980810000007629311   1030000200030000   333300010001203104000003632Myanmar Tradenet Test  Yangon        MMR11008100831120112580810000000000000000   10300001F05104100000000010000000000000000     
100   62911028202611530000000000024550000000024550002000000010410408101843310204704773800810000751767502   1030000200030000   541188001305000008000000325KBZ BANK               CITY MART - A MMR11008101843310204700810000000000000000   10300001 00104100000000001473000000000000     
100   95050318141561190000000000010000000000010000002000000010410408100243151315808699030810000007625977   1040001600030000   333800010001220104000004507A +                    Yangon        MMR11008100243151315800810000000000000000   10300001F05104100000000002100000000000000     
100   62911028202656670000000000094000000000094000002000000010410408101501270055314773800810000751754419   1030000200030000   541188001079000008000000294KBZ BANK               CITY MART - J MMR11008101501270055310810000000000000000   10300001 00104100000000005640000000000000     
100   95050317465574180000000000040000000000040000002000000010410408100133560356377848070810000007625590   1030000200030000   333800010001203104000003327KBZPay                 Yangon        MMR11008100133560356370810000000000000000   10300001F05104100000000008400000000000000     
100   95050317176867660000000000001980000000001980002000000010410408101551162116210661960810000007631240   1020000200030000   333400010001204104000000281Myanmar Soft-Gate Tech Yangon        MMR11008101551162116210810000000000000000   10300001F05104100000000000416000000000000     
100   62911028202471860000000000025350000000025350002000000010410408101543240055354773800810000751757638   1030000200030000   541188001079000008000000294KBZ BANK               CITY MART - J MMR11008101543240055350810000000000000000   10300001 00104100000000001521000000000000     
100   62911028202142930000000000014755000000014755002000000010410408101550050149374773800810000751757981   1030000200030000   541188001081000008000000294KBZ BANK               CITY MART - J MMR11008101550050149370810000000000000000   10300001 00104100000000000885000000000000     
100   62911028202610540000000000025900000000025900002000000010410408101025080052674773800810000751726577   1030000200030000   541188001085000008000000294KBZ BANK               CITY MART - J MMR11008101025080052670810000000000000000   10300001 00104100000000001554000000000000     
100   95050312618592720000000000030000000000030000002000000010410408100330530053700442330810000007626574   1030000200030000   333800010001203104000003327KBZPay                 Yangon        MMR11008100330530053700810000000000000000   10300001F05104100000000006300000000000000     
100   62911028202469980000000000060800000000060800002000000010410408101748480149504773800810000751764997   1030000200030000   541188001081000008000000294KBZ BANK               CITY MART - J MMR11008101748480149500810000000000000000   10300001 00104100000000003648000000000000     
100   62911028202238150000000000025900000000025900002000000010410408100348579435114773800810186181057221   1030000900030000   581219000715190110000000546Akkhaya Tea House(Dago YANGON        MMR11008100348579435110810000000000000000   10300001F00104100000000002642000000000000     
100   95050324411430900000000000103750000000103750002000000010410408100909533953465413570810000007629660   1010000100030000   333500010001212104000002543Internal Revenue Depar Yangon        MMR11008100909533953460810000000000000000   10300001F05104100000000060000000000000000     
100   62911028202286240000000000009900000000009900002000000010410408091018310000634773800809222116000063   1030000500030000   541120230006000045411202300MARKET PLACE BY CITY M PTN           MMR11008091018310000630809000000000000000   10300001 00104100000000000594000000000000     
100   62911028202790310000000000043014000000043014002000000010410408090235270002734773800809222109000273   1030000500030000   598320001602000015172200016MAX ENERGY             PTN           MMR11008090235270002730809000000000000000   10300001 00104100000000001290000000000000     
100   62911028202319090000000000014100000000014100002000000010410408090229300000464773800809222108000046   1030000500030000   591220020501005105912200205MINGALAR PHARMACY      PTN           MMR11008090229300000460809000000000000000   10300001 00104100000000000846000000000000     
100   62911028202442250000000000013000000000013000002000000010410408090737510003284773800809222114000328   1030000500030000   598320001902000015172200019MAX ENERGY             PTN           MMR11008090737510003280809000000000000000   10300001 00104100000000000390000000000000     
100   62911028202133940000000000062000000000062000002000000010410408090114200004684773800809222107000468   1030000500030000   598320001401000015172200014MAX ENERGY             PTN           MMR11008090114200004680809000000000000000   10300001 00104100000000001860000000000000     
100   95030309581505260000000000500000000000500000002000000010410408091332200001374773800809222120000137   1030000500030000   806220046404006308062200464ASIA ROYAL HOSPITAL    PTN           MMR11008091332200001370809000000000000000   10300001 00104100000000030000000000000000     
100   95050311931431670000000000004950000000004950002000000010410408100429235923896201300810000007627220   1020000200030000   333400010001204104000000281Myanmar Soft-Gate Tech Yangon        MMR11008100429235923890810000000000000000   10300001F05104100000000001040000000000000     
100   62911028202404540000000000069993000000069993002000000010410408100919527478664773800810495292153992   1040001400030000   591210000151025912100001206Thuwunnadipa null No-9   Groud Floor MMR11008100919527478660810000000000000000   10300001 00104100000000004200000000000000     
100   95050324411430900000000000307250000000307250002000000010410408100858212821068973830810000007629545   1010000100030000   333500010001212104000002840Internal Revenue Depar Yangon        MMR11008100858212821060810000000000000000   10300001F05104100000000060000000000000000     
100   95050327416134790000000000001980000000001980002000000010410408101306043604527527190810000007630746   1020000200030000   333400010001204104000000281Myanmar Soft-Gate Tech Yangon        MMR11008101306043604520810000000000000000   10300001F05104100000000000416000000000000     
100   95050319161596230000000000000990000000000990002000000010410408100500253025862166120810000007627565   1020000200030000   333400010001204104000000281Myanmar Soft-Gate Tech Yangon        MMR11008100500253025860810000000000000000   10300001F05104100000000000208000000000000     
100   95050312240830690000000000000990000000000990002000000010410408101416534653613881840810000007630961   1020000200030000   333400010001204104000000281Myanmar Soft-Gate Tech Yangon        MMR11008101416534653610810000000000000000   10300001F05104100000000000208000000000000     
100   95050324411430900000000000760681000000760681002000000010410408100917574757792619180810000007629718   1010000100030000   333500010001212104000002535Internal Revenue Depar Yangon        MMR11008100917574757790810000000000000000   10300001F05104100000000060000000000000000     
100   95050312035823210000000000005000000000005000002000000010410408100423345334726371500810000007627151   1030000200030000   3338000100012031040000040022C2P (Myanmar) Co. Ltd Yangon        MMR11008100423345334720810000000000000000   10300001F05104100000000001050000000000000     
100   95050328861342240000000000030000000000030000002000000010410408090259030002771417400809222109000277   1030000500030000   598320001301000015172200013MAX ENERGY             PTN           MMR11008090259030002770809000000000000000   10300001 00104100000000003600000000000000     
100   62911028202188560000000000025150000000025150002000000010410408090308070030084773800809222109003008   1030000500030000   531120226326000045311202263OCEAN SUPER CENTER STJ PTN           MMR11008090308070030080809000000000000000   10300001 00104100000000001509000000000000     
100   95050314791376690000000000021100000000021100002000000010410408091141010000621457770809222118000062   1030000500030000   541120025201022205411200252ORANGE (80ST)          PTN           MMR11008091141010000620809000000000000000   10300001 00104100000000005275000000000000     
100   95050311560587250000000000013500000000013500002000000010410408081304050001787651300808222013000178   1030000600030000   5499000024633157994200017221 STOP  KITCHEN 1      YANGON        MMR11008081304050001780808000000000000000   10300001 00104100000000005738000000000000     
100   62911028202446540000000000024000000000024000002000000010410408090508150002314773800809222111000231   1030000500030000   569120104001008205691201040ESCORT ( CITY MALL-ST. PTN           MMR11008090508150002310809000000000000000   10300001 00104100000000001440000000000000     
100   95050313970192050000000000004700000000004700002000000010410408090608430004718792210809222112000471   1030000500030000   541120232801000045411202328CITY EXPRESS (MCS - 34 PTN           MMR11008090608430004710809000000000000000   10300001 00104100000000001175000000000000     
100   95050310534130230000000000011300000000011300002000000010410408091058320006010691900809222117000601   1030000500030000   531120155803000045311201558GAMONE PWINT           PTN           MMR11008091058320006010809000000000000000   10300001 00104100000000002712000000000000     
100   62911028202659640000000000038800000000038800002000000010410408090910310015824773800809222109001582   1030000600030000   5499000022383157994200015691 STOP S M SATSAN      YANGON        MMR11008090910310015820809000000000000000   10300001 00104100000000003958000000000000     
100   95050318046885190000000000050000000000050000002000000010410408100253302330640357230810000007626054   1030000200030000   333800010001203104000003327KBZPay                 Yangon        MMR11008100253302330640810000000000000000   10300001F05104100000000010500000000000000     
100   95050310305109410000000000000990000000000990002000000010410408100323355335625399780810000007626431   1020000200030000   333400010001204104000000281Myanmar Soft-Gate Tech Yangon        MMR11008100323355335620810000000000000000   10300001F05104100000000000208000000000000     
100   95050316717221100000000000000990000000000990002000000010410408101128045804045449230810000007630404   1020000200030000   333400010001204104000000281Myanmar Soft-Gate Tech Yangon        MMR11008101128045804040810000000000000000   10300001F05104100000000000208000000000000     
100   95050314401921990000000000015000000000015000002000000010410408100428395839062811240810000007627212   1030000200030000   333800010001203104000003327KBZPay                 Yangon        MMR11008100428395839060810000000000000000   10300001F05104100000000003150000000000000     
100   95050319525934530000000000028900000000028900002000000010410408101311544154795874710810000007630760   1030000200030000   333800010001203104000003327KBZPay                 Yangon        MMR11008101311544154790810000000000000000   10300001F05104100000000006069000000000000     
100   62911028202520530000000000020000000000020000002000000010410408101121345134374773800810000007630373   1030000200030000   3338000100012031040000040022C2P (Myanmar) Co. Ltd Yangon        MMR11008101121345134370810000000000000000   10300001F05104100000000004200000000000000     
100   95050324411430900000000000145417000000145417002000000010410408100926205620929399310810000007629786   1010000100030000   333500010001212104000002543Internal Revenue Depar Yangon        MMR11008100926205620920810000000000000000   10300001F05104100000000060000000000000000     
100   62443100355445150000000000121050000000121050002000000010410408100230359418205308970810509000935221   1030000900030000   591219000609190110000000449Shwe Ohh Pharmacy St-3 YANGONAUNG    MMR11008100230359418200810000000000000000   10300001F00104100000000029052000000000000     
100   95050312818293620000000000035200000000035200002000000010410408090520220000866884430809222111000086   1030000500030000   531120155806000045311201558GAMONE PWINT           PTN           MMR11008090520220000860809000000000000000   10300001 00104100000000008448000000000000     
100   95050320996331370000000000079700000000079700002000000010410408091029490000707230530809222116000070   1030000500030000   541120045801009205411200458126 STORE              PTN           MMR11008091029490000700809000000000000000   10300001 00104100000000019925000000000000     
100   95050322220807920000000000054800000000054800002000000010410408090843420001225712590809222115000122   1030000500030000   581220216201000085812202162ASTONS                 PTN           MMR11008090843420001220809000000000000000   10300001 00104100000000023290000000000000     
100   62911028202105150000000000008300000000008300002000000010410408090341440018094773800809222110001809   1030000500030000   541120230011000045411202300MARKET PLACE BY CITY M PTN           MMR11008090341440018090809000000000000000   10300001 00104100000000000498000000000000     
100   95050322954091830000000000020536000000020536002000000010410408091213570007161202480809222118000716   1030000500030000   541120231307000045411202313CITY MART (AYEYARWON)  PTN           MMR11008091213570007160809000000000000000   10300001 00104100000000005134000000000000     
100   95030393174848800000000000083550000000083550002000000010410408090515420000084773800809222111000008   1030000500030000   591220209601000085912202096ORCHID PHARMACY        PTN           MMR11008090515420000080809000000000000000   10300001 00104100000000005013000000000000     
100   95030325264619140000000000036000000000036000002000000010410408090537220003244773800809222112000324   1030000500030000   598320001302000015172200013MAX ENERGY             PTN           MMR11008090537220003240809000000000000000   10300001 00104100000000001080000000000000     
100   62911028202668300000000000020000000000020000002000000010410408090114390002784773800809222107000278   1030000500030000   598320001302000015172200013MAX ENERGY             PTN           MMR11008090114390002780809000000000000000   10300001 00104100000000000600000000000000     
100   62911028202823400000000000200000000000200000002000000010410408100448341834924773800810000007627465   1030000200030000   333800010001203104000003327KBZPay                 Yangon        MMR11008100448341834920810000000000000000   10300001F05104100000000042000000000000000     
100   62911028202659640000000000058000000000058000002000000010410408100310509426084773800810800400950221   1030000900030000   554119001101190110000000213New Day Energy SOK     YANGONOKKALAP MMR11008100310509426080810000000000000000   10300001F00104100000000001740000000000000     
100   95050324411430900000000000076000000000076000002000000010410408100906003600982023510810000007629627   1010000100030000   333500010001212104000002543Internal Revenue Depar Yangon        MMR11008100906003600980810000000000000000   10300001F05104100000000060000000000000000     
100   95050317003064220000000000000990000000000990002000000010410408100816344634220384810810000007629176   1020000200030000   333400010001204104000000281Myanmar Soft-Gate Tech Yangon        MMR11008100816344634220810000000000000000   10300001F05104100000000000208000000000000     
100   95050323233042810000000000000990000000000990002000000010410408101418034803672229360810000007630971   1020000200030000   333400010001204104000000281Myanmar Soft-Gate Tech Yangon        MMR11008101418034803670810000000000000000   10300001F05104100000000000208000000000000     
100   95050324411430900000000000346519000000346519002000000010410408100914124412819229120810000007629687   1010000100030000   333500010001212104000002535Internal Revenue Depar Yangon        MMR11008100914124412810810000000000000000   10300001F05104100000000060000000000000000     
100   95050326155679180000000000008910000000008910002000000010410408100326535653187137360810000007626511   1020000200030000   333400010001204104000000281Myanmar Soft-Gate Tech Yangon        MMR11008100326535653180810000000000000000   10300001F05104100000000001871000000000000     
100   62911028202202580000000000013700000000013700002000000010410408100220059415924773800810407500805221   1030000900030000   591219000970190110000000777Shwe Ohh Pharmacy St ( YANGONAW      MMR11008100220059415920810000000000000000   10300001F00104100000000000822000000000000     
100   95050320996331370000000000043515000000043515002000000010410408091138470001888067710809000360245916   1030000300030000   541100000900000000000000637CB BANK                ONE STOP MART MMR11008091138470001880809000000000000000   10300001F00104100000000010879000000000000     
100   95050310608512070000000000011500000000011500002000000010410408090237180003857686950809000360155708   1030000300030000   591200000169000000000000084CB BANK                MEDICARE STOR MMR11008090237180003850809000000000000000   10300001F00104100000000002760000000000000     
100   95050310534130230000000000021500000000021500002000000010410408091128110000650862100809222117000065   1030000500030000   531120155801000045311201558GAMONE PWINT           PTN           MMR11008091128110000650809000000000000000   10300001 00104100000000005160000000000000     
100   62911028202590250000000000050000000000050000002000000010410408090153000001284773800809222108000128   1030000500030000   598320001903000015172200019MAX ENERGY             PTN           MMR11008090153000001280809000000000000000   10300001 00104100000000001500000000000000     
100   95050328074436620000000000029764000000029764002000000010410408091049200004294422360809222117000429   1030000500030000   598320001204000015172200012MAX ENERGY             PTN           MMR11008091049200004290809000000000000000   10300001 00104100000000003572000000000000     
100   62911028202289130000000000095500000000095500002000000010410408091053450008484773800809222117000848   1030000500030000   531120226316000045311202263OCEAN SUPER CENTER STJ PTN           MMR11008091053450008480809000000000000000   10300001 00104100000000005730000000000000     
100   95050317621139300000000000021250000000021250002000000010410408090425250012720409040809222110001272   1030000500030000   531120231217000045311202312OCEAN OATTARA THIRI    PTN           MMR11008090425250012720809000000000000000   10300001 00104100000000005100000000000000     
100   95050312940629360000000000014000000000014000002000000010410408090159570003825963160809000360150768   1030000300030000   591200000169000000000000084CB BANK                MEDICARE STOR MMR11008090159570003820809000000000000000   10300001F00104100000000003360000000000000     
100   95050310332595380000000000000990000000000990002000000010410408101026025602931902760810000007630140   1020000200030000   333400010001204104000000281Myanmar Soft-Gate Tech Yangon        MMR11008101026025602930810000000000000000   10300001F05104100000000000208000000000000     
100   95050311419479170000000000001980000000001980002000000010410408100928165816174101470810000007629805   1020000200030000   333400010001204104000000281Myanmar Soft-Gate Tech Yangon        MMR11008100928165816170810000000000000000   10300001F05104100000000000416000000000000     
100   62443100313002190000000000150000000000150000002000000010410408100900373037262278800810000007629579   1030000300030000   333300010001206104000002147DICA Company Limited   Yangon        MMR11008100900373037260810000000000000000   10300001F05104100000000010000000000000000     
100   95050316321163940000000000000990000000000990002000000010410408100200383038191833810810000007625720   1020000200030000   333400010001204104000000281Myanmar Soft-Gate Tech Yangon        MMR11008100200383038190810000000000000000   10300001F05104100000000000208000000000000     
100   95030314100001680000000000002970000000002970002000000010410408100912014201254773800810000007629674   1020000200030000   333400010001204104000000281Myanmar Soft-Gate Tech Yangon        MMR11008100912014201250810000000000000000   10300001F05104100000000000624000000000000     
100   95050315122972560000000000001980000000001980002000000010410408101026315631836860210810000007630142   1020000200030000   333400010001204104000000281Myanmar Soft-Gate Tech Yangon        MMR11008101026315631830810000000000000000   10300001F05104100000000000416000000000000     
100   62911028202077430000000000000990000000000990002000000010410408100454342434414773800810000007627507   1020000200030000   333400010001204104000000281Myanmar Soft-Gate Tech Yangon        MMR11008100454342434410810000000000000000   10300001F05104100000000000208000000000000     
100   62911028202077430000000000000990000000000990002000000010410408100457062706364773800810000007627542   1020000200030000   333400010001204104000000281Myanmar Soft-Gate Tech Yangon        MMR11008100457062706360810000000000000000   10300001F05104100000000000208000000000000     
100   62911028202154800000000000012700000000012700002000000010410408090758450015464773800809222114001546   1030000500030000   531120226711000045311202267OCEAN NORTH POINT      PTN           MMR11008090758450015460809000000000000000   10300001 00104100000000000762000000000000     
100   62911028202105150000000000084700000000084700002000000010410408090337010014784773800809222110001478   1030000500030000   541120230009000045411202300MARKET PLACE BY CITY M PTN           MMR11008090337010014780809000000000000000   10300001 00104100000000005082000000000000     
100   95050329581164220000000000090000000000090000002000000010410408091245340008774677640809222119000877   1030001300030000   555500000047700000000000035SHWEBANK BANK          959           MMR11008091245340008770809000000000000000   10300001 00104100000000021600000000000000     
100   62443100306045460000000000373190000000373190002000000010410408091206410005134507450809222112000513   1030000600030000   591200002216315799420001561365 PHARMACY 2         YANGON        MMR11008091206410005130809000000000000000   10300001 00104100000000089566000000000000     
100   62911028202663500000000000032890000000032890002000000010410408090631370024084773800809222113002408   1030000500030000   531120226707000045311202267OCEAN NORTH POINT      PTN           MMR11008090631370024080809000000000000000   10300001 00104100000000001973000000000000     
100   95050326159929830000000000012600000000012600002000000010410408091114560001074167060809222117000107   1030000500030000   531120155804000045311201558GAMONE PWINT           PTN           MMR11008091114560001070809000000000000000   10300001 00104100000000003024000000000000     
100   62911028202169750000000000023000000000023000002000000010410408090434480002904773800809222111000290   1030000500030000   598320002103000015172200021MAX ENERGY             PTN           MMR11008090434480002900809000000000000000   10300001 00104100000000000690000000000000     
100   62443100330048680000000000025000000000025000002000000010410408090258560003389764910809222109000338   1030000500030000   598320001104000015172200011MAX ENERGY             PTN           MMR11008090258560003380809000000000000000   10300001 00104100000000003000000000000000     
100   95050316049877640000000000000990000000000990002000000010410408100019124912176280680810000007625380   1020000200030000   333400010001204104000000281Myanmar Soft-Gate Tech Yangon        MMR11008100019124912170810000000000000000   10300001F05104100000000000208000000000000     
100   95050311419479170000000000000990000000000990002000000010410408100422105210082555950810000007627142   1020000200030000   333400010001204104000000281Myanmar Soft-Gate Tech Yangon        MMR11008100422105210080810000000000000000   10300001F05104100000000000208000000000000     
100   95050311959900780000000000000990000000000990002000000010410408101327565756455959800810000007630812   1020000200030000   333400010001204104000000281Myanmar Soft-Gate Tech Yangon        MMR11008101327565756450810000000000000000   10300001F05104100000000000208000000000000     
100   95050311926829590000000000000990000000000990002000000010410408101155072507751803870810000007630514   1020000200030000   333400010001204104000000281Myanmar Soft-Gate Tech Yangon        MMR11008101155072507750810000000000000000   10300001F05104100000000000208000000000000     
100   95050314829126520000000000010000000000010000002000000010410408100512084208553478220810000007627675   1030000200030000   333800010001203104000003327KBZPay                 Yangon        MMR11008100512084208550810000000000000000   10300001F05104100000000002100000000000000     
100   95050310427855490000000000001980000000001980002000000010410408101201483148203541450810000007630535   1020000200030000   333400010001204104000000281Myanmar Soft-Gate Tech Yangon        MMR11008101201483148200810000000000000000   10300001F05104100000000000416000000000000     
100   62911028202651050000000000148699000000148699002000000010410408101002040275874773800810000751724396   1030000200030000   541188001037000008000000010KBZ BANK               MARKETPLACE - MMR11008101002040275870810000000000000000   10300001 00104100000000008922000000000000     
100   62911028202540670000000000032000000000032000002000000010410408081211180225854773800808222012022585   1030000600030000   554100002320315799420000564DENKO PHYUU            PHYUU         MMR11008081211180225850808000000000000000   10300001 00104100000000000960000000000000     
100   62911028202112400000000000025165000000025165002000000010410408091145340003384773800809222118000338   1030000500030000   598320001201000015172200012MAX ENERGY             PTN           MMR11008091145340003380809000000000000000   10300001 00104100000000000755000000000000     
100   95050310534130230000000000009350000000009350002000000010410408091141190007019805280809222118000701   1030000500030000   531120155802000045311201558GAMONE PWINT           PTN           MMR11008091141190007010809000000000000000   10300001 00104100000000002244000000000000     
100   62911028202294570000000000024486000000024486002000000010410408090846070002094773800809222115000209   1030000500030000   581220106701000015812201067THAI 47                PTN           MMR11008090846070002090809000000000000000   10300001 00104100000000002498000000000000     
100   95050311560587250000000000100000000000100000002000000010410408091017590000492528370809222116000049   1030000500030000   541120089606006305411200896SPIRITS                PTN           MMR11008091017590000490809000000000000000   10300001 00104100000000025000000000000000     
100   95050312482469810000000000012597000000012597002000000010410408090202310003834310670809000360151100   1030000300030000   591200000169000000000000084CB BANK                MEDICARE STOR MMR11008090202310003830809000000000000000   10300001F00104100000000003023000000000000     
100   95050328861342240000000000020000000000020000002000000010410408090625070000164600620809222112000016   1030000500030000   804320041601000018043200416ZEEKWEK EYEWEAR        PTN           MMR11008090625070000160809000000000000000   10300001 00104100000000004800000000000000     
100   95050324411430900000000000040000000000040000002000000010410408090323490398809048490809222103039880   1030000600030000   554100002085315799420000471DENKO BAHAN            YANGON        MMR11008090323490398800809000000000000000   10300001 00104100000000004800000000000000     
100   62443100399918110000000000013876000000013876002000000010410408091556050064730996640809000751695625   1030000200030000   541188001057000008000000314KBZ BANK               MARKETPLACE - MMR11008091556050064730809000000000000000   10300001 00104100000000003469000000000000     
100   62911028202540670000000000031000000000031000002000000010410408091258340441344773800809222112044134   1030000600030000   554100001865315799420001235DENKO NAY PYI TAW 2    NAYPYITAW     MMR11008091258340441340809000000000000000   10300001 00104100000000000930000000000000     
100   95050314126593570000000000008009000000008009002000000010410408101205459579866931520810676351845221   1030000900030000   541119001189190110000000942City Mart HDC C 4      YANGONUT      MMR11008101205459579860810000000000000000   10300001F00104100000000002003000000000000     
100   62911028202446540000000000022450000000022450002000000010410408090537080024914773800809222112002491   1030000500030000   531120226318000045311202263OCEAN SUPER CENTER STJ PTN           MMR11008090537080024910809000000000000000   10300001 00104100000000001347000000000000     
100   95030301100081330000000000209000000000209000002000000010410408100724589496024773800810187541358221   1030000900030000   541119000282190110000000177Pro1 Global (Insein)   YANGON        MMR11008100724589496020810000000000000000   10300001F00104100000000012540000000000000     
100   62911028202451150000000000032178000000032178002000000010410408070952270000314773800807221916000031   1030000500030000   598320198002000075983201980MOON SUN EXCELLENT APE PTN           MMR11008070952270000310807000000000000000   10300001 00104100000000000965000000000000     
100   95050313715913510000000000027200000000027200002000000010410408100738159500326654360810411081415221   1030000900030000   541119000124190110000000080Sein Gay Har BAK       YANGONADA     MMR11008100738159500320810000000000000000   10300001F00104100000000006800000000000000     
100   62911028202294570000000000045700000000045700002000000010410408100851009522574773800810570211500221   1030000900030000   723019001054190110000000857Beauty Diary JC        YANGONN       MMR11008100851009522570810000000000000000   10300001F00104100000000002742000000000000     
100   62911028202502480000000000015000000000015000002000000010410408100832099517204773800810296021509221   1030000900030000   554119001099190110000000211New Day Energy SCH     YANGONUNG     MMR11008100832099517200810000000000000000   10300001F00104100000000000450000000000000     
100   95050321232876860000000000081000000000081000002000000010410408090759050441218847370809222107044121   1030000600030000   554100001865315799420001235DENKO NAY PYI TAW 2    NAYPYITAW     MMR11008090759050441210809000000000000000   10300001 00104100000000009720000000000000     
100   62911028202795770000000000045900000000045900002000000010410408090131420029544773800809222101002954   1030000600030000   806200002190315799420001535ASIA ROYAL HOSPITAL    YANGON        MMR11008090131420029540809000000000000000   10300001 00104100000000002754000000000000     
100   62911028202126850000000000036100000000036100002000000010410408090507040030154773800809222111003015   1030000500030000   541120227504000045411202275CITY MART (AHLONE BRAN PTN           MMR11008090507040030150809000000000000000   10300001 00104100000000002166000000000000     
100   62911028202520380000000000068000000000068000002000000010410408090958141043774773800809222109104377   1030000600030000   554100000946315799420000471DENKO BAHAN            YANGON        MMR11008090958141043770809000000000000000   10300001 00104100000000002040000000000000     
100   62911028202684060000000000023622000000023622002000000010410408090937050031924773800809222116003192   1030000500030000   531120226710000045311202267OCEAN NORTH POINT      PTN           MMR11008090937050031920809000000000000000   10300001 00104100000000001417000000000000     
100   95030332666916030000000000025725000000025725002000000010410408091055050040904773800809000360239766   1030000300030000   581400001707000000000001224CB BANK                THE PIZZA & S MMR11008091055050040900809000000000000000   10300001F00104100000000000772000000000000     
100   95050322220807920000000000029644000000029644002000000010410408091557560064745954090809000751695739   1030000200030000   541188001057000008000000314KBZ BANK               MARKETPLACE - MMR11008091557560064740809000000000000000   10300001 00104100000000007411000000000000     
100   62911028202471600000000000080969000000080969002000000010410408090635160021754773800809222113002175   1030000500030000   541120203705000015411202037CITY MART SUPERMARKET  PTN           MMR11008090635160021750809000000000000000   10300001 00104100000000004858000000000000     
100   62443101093150400000000001110000000001110000002000000010410408101026559550825207730810039561655221   1030000900030000   573219001177190110000000933UNIQUE Kabaraye        YANGON        MMR11008101026559550820810000000000000000   10300001F00104100000000266400000000000000     
100   95050322990383760000000000004550000000004550002000000010410408101107189564311974070810806371718221   1030000900030000   541119001203190110000000948City Mart YK C 1       YANGONAUNG    MMR11008101107189564310810000000000000000   10300001F00104100000000001138000000000000     
100   62911028202693960000000000098636000000098636002000000010410408100648499485994773800810687181349221   1030000900030000   581219000006190110000000004Jo Jo Hot Pot Junction YANGONUT      MMR11008100648499485990810000000000000000   10300001F00104100000000010061000000000000     
100   62911028202313470000000000022200000000022200002000000010410408101037119554164773800810222071711221   1030000900030000   541119001231190110000000951Marketplace KTY C 1    YANGONARTAUNG MMR11008101037119554160810000000000000000   10300001F00104100000000001332000000000000     
100   95050316785465380000000000001980000000001980002000000010410408101615104510089009490810000007631293   1020000200030000   333400010001204104000000281Myanmar Soft-Gate Tech Yangon        MMR11008101615104510080810000000000000000   10300001F05104100000000000416000000000000     
100   62911028202088990000000000030000000000030000002000000010410408090208200070154773800809222102007015   1030000600030000   554100001211315799420000663DENKO  TETKONE         TETKONE       MMR11008090208200070150809000000000000000   10300001 00104100000000000900000000000000     
100   95050312482469810000000000029100000000029100002000000010410408100806489509632037300810911361448221   1030000900030000   541119000121190110000000080Sein Gay Har BAK       YANGONADA     MMR11008100806489509630810000000000000000   10300001F00104100000000007275000000000000     
100   95030332666916030000000000047800000000047800002000000010410408101108099564654773800810826381709221   1030000900030000   541119001355190110000000977Ocean PZD C9           YANGONAUNG    MMR11008101108099564650810000000000000000   10300001F00104100000000002868000000000000     
