100   95050310616516480000000000037895000000037895002000000010410408111105159820382907990811218351715222   1030000900030000   541119001263190110000000958City Mart PLST C 6     YANGONMYOTHIT MMR11008111105159820380811000000000000000   10300001F00104100000000009474000000000000     
100   62911028202107540000000000015500000000015500002000000010410408110334254271264773800811222310427126   1040001600030000   591220001006000000010000736Shwe Ohh Pharmacy (Kyi Ygn           MMR11008110334254271260811000000000000000   10300001F00104100000000000930000000000000     
100   95050320996331370000000000043000000000043000002000000010410408091446043176005940300809222121317600   1040001600030000   598320001457000000010001151360 Petro (Ayar Wun)   Ygn           MMR11008091446043176000809000000000000000   10300001F00104100000000005160000000000000     
100   95050314570621780000000000000990000000000990002000000010410408110422285228711823600811000007632686   1020000200030000   333400010001204104000000281Myanmar Soft-Gate Tech Yangon        MMR11008110422285228710811000000000000000   10300001F05104100000000000208000000000000     
100   62443100322986690000000000053958000000053958002000000010410408111237199842553333470811401071919222   1030000900030000   541119000141190110000000083SeinGayHarParami Cente YANGON        MMR11008111237199842550811000000000000000   10300001F00104100000000013490000000000000     
100   95050322478649490000000000100000000000100000002000000010410408111046471647214475380811000007635408   1030000200030000   333800010001203104000003327KBZPay                 Yangon        MMR11008111046471647210811000000000000000   10300001F05104100000000021000000000000000     
100   62911028202416760000000000070000000000070000002000000010410408110519564329124773800811222312432912   1040001600030000   598320000316000000010000304PT Power Petrol Statio Yangon        MMR11008110519564329120811000000000000000   10300001F00104100000000002100000000000000     
100   95050316043499650000000000000990000000000990002000000010410408111009403940253157560811000007635236   1020000200030000   333400010001204104000000281Myanmar Soft-Gate Tech Yangon        MMR11008111009403940250811000000000000000   10300001F05104100000000000208000000000000     
100   95050315557781210000000000028000000000028000002000000010410408110925285528574639850811000007635009   1030000200030000   333800010001203104000003327KBZPay                 Yangon        MMR11008110925285528570811000000000000000   10300001F05104100000000005880000000000000     
100   95050324411430900000000000635000000000635000002000000010410408110917335598781249790811473314691070   1040001400030000   504510000942025045100005752Technoland Computer Tr ding Co. Ltd( MMR11008110917335598780811000000000000000   10300001 00104100000000152400000000000000     
100   62443100392426520000000000010000000000010000002000000010410408110551562156032015660811000007633274   1030000200030000   333800010001203104000003327KBZPay                 Yangon        MMR11008110551562156030811000000000000000   10300001F05104100000000002100000000000000     
100   95050324411430900000000000025000000000025000002000000010410408110338534273228433540811222310427322   1040001600030000   598320001170000000010000527Shwe Taung Energy (YGN Yangon        MMR11008110338534273220811000000000000000   10300001F00104100000000003000000000000000     
100   62911028202440680000000000010000000000010000002000000010410408110821574438434773800811222315443843   1040001600030000   591220000296000000010000284Shwe Ohh Pharmacy (Lan Yangon        MMR11008110821574438430811000000000000000   10300001F00104100000000000600000000000000     
100   62443101006037900000000000048000000000048000002000000010410408102353449663791342740811923230644222   1030000900030000   554119001103190110000000215New Day Energy MYG     YANGONONE     MMR11008102353449663790811000000000000000   10300001F00104100000000005760000000000000     
100   95030338164853990000000000052800000000052800002000000010410408111151024609974773800811222318460997   1040001600030000   806220001356000000010001061Grand Hantha Internati Ygn           MMR11008111151024609970811000000000000000   10300001F00104100000000003168000000000000     
100   95050324773225760000000000100000000000100000002000000010410408110622595259654774400811000007633463   1030000200030000   333800010001203104000003327KBZPay                 Yangon        MMR11008110622595259650811000000000000000   10300001F05104100000000021000000000000000     
100   95050314767696390000000000027000000000027000002000000010410408110250059691316270470811866200905222   1030000900030000   594519000889190110000000698BKB Baby &Toys(NorthDa YANGONMYOTHIT MMR11008110250059691310811000000000000000   10300001F00104100000000006480000000000000     
100   95050315690875920000000000022200000000022200002000000010410408110740429763945029680811380101442222   1030000900030000   571219001598190110000001164Pro (1) Global South D YANGONMYOTHIT MMR11008110740429763940811000000000000000   10300001F00104100000000005328000000000000     
100   95050326689257240000000000016700000000016700002000000010410408111217089837913248370811140471808222   1030000900030000   541119001264190110000000958City Mart PLST C 7     YANGONMYOTHIT MMR11008111217089837910811000000000000000   10300001F00104100000000004175000000000000     
100   95050319938772870000000000000990000000000990002000000010410408111411194119929056790811000007636234   1020000200030000   333400010001204104000000281Myanmar Soft-Gate Tech Yangon        MMR11008111411194119920811000000000000000   10300001F05104100000000000208000000000000     
100   95050319996628650000000000000990000000000990002000000010410408111319584958020028500811000007635995   1020000200030000   333400010001204104000000281Myanmar Soft-Gate Tech Yangon        MMR11008111319584958020811000000000000000   10300001F05104100000000000208000000000000     
100   62911028202003590000000000009450000000009450002000000010410408111217319837994773800811144471831222   1030000900030000   541119000148190110000000083SeinGayHarParami Cente YANGON        MMR11008111217319837990811000000000000000   10300001F00104100000000000567000000000000     
100   62911028202464020000000000006750000000006750002000000010410408110501429724104773800811433311142222   1030000900030000   581219001595190110000001163Shwe Palin KMD         YANGONINDAING MMR11008110501429724100811000000000000000   10300001F00104100000000000689000000000000     
100   95050315919368400000000000030000000000030000002000000010410408110212334233551598020811000007631989   1030000200030000   333800010001203104000003327KBZPay                 Yangon        MMR11008110212334233550811000000000000000   10300001F05104100000000006300000000000000     
100   95050311736839760000000000000990000000000990002000000010410408111616024602974354620811000007636651   1020000200030000   333400010001204104000000281Myanmar Soft-Gate Tech Yangon        MMR11008111616024602970811000000000000000   10300001F05104100000000000208000000000000     
100   95050311779172060000000000003000000000003000002000000010410408111429195919275326340811000007636314   1030000200030000   333800010001203104000003327KBZPay                 Yangon        MMR11008111429195919270811000000000000000   10300001F05104100000000000630000000000000     
100   95050321685338790000000000092350000000092350002000000010410408110220119684502369830811557500811222   1030000900030000   581219001443190110000001047Noodle Bowl Sayarsan   YANGON        MMR11008110220119684500811000000000000000   10300001F00104100000000039249000000000000     
100   62911028202684060000000000042000000000042000002000000010410408110447294308014773800811222311430801   1040001600030000   598320001170000000010000527Shwe Taung Energy (YGN Yangon        MMR11008110447294308010811000000000000000   10300001F00104100000000001260000000000000     
100   95050312360118350000000000010000000000010000002000000010410408101720355035152314450811000007631414   1030000200030000   333800010001203104000003327KBZPay                 Yangon        MMR11008101720355035150811000000000000000   10300001F05104100000000002100000000000000     
100   95050314557307430000000000001980000000001980002000000010410408110527455745370206770811000007633136   1020000200030000   333400010001204104000000281Myanmar Soft-Gate Tech Yangon        MMR11008110527455745370811000000000000000   10300001F05104100000000000416000000000000     
100   95030308100041500000000000002700000000002700002000000010410408110404209711264773800811829341020222   1030000900030000   541119001265190110000000958City Mart PLST C 8     YANGONMYOTHIT MMR11008110404209711260811000000000000000   10300001F00104100000000000162000000000000     
100   62911028202163630000000000052950000000052950002000000010410408110809489771724773800811756391448222   1030000900030000   591219000796190110000000628Shwe Ohh Pharmacy ST-3 YANGONMYOTHIT MMR11008110809489771720811000000000000000   10300001F00104100000000003177000000000000     
100   62911028202188560000000000030000000000030000002000000010410408110825444440324773800811222315444032   1040001600030000   598320001454000000010001148360 Petro (Danyingone) Ygn           MMR11008110825444440320811000000000000000   10300001F00104100000000000900000000000000     
100   62911028202158290000000000013950000000013950002000000010410408110144269678254773800811315140826222   1030000900030000   591219000504190110000000351Shwe Ohh Pharmacy - (Y YANGONAW      MMR11008110144269678250811000000000000000   10300001F00104100000000000837000000000000     
100   95050313145843230000000000020150000000020150002000000010410408110925119792647944820811795551511222   1030000900030000   541119000124190110000000080Sein Gay Har BAK       YANGONADA     MMR11008110925119792640811000000000000000   10300001F00104100000000005038000000000000     
100   62911028202291190000000000014900000000014900002000000010410408110759009769024773800811634291400222   1030000900030000   541119000129190110000000082Sein Gay Har Super Cen YANGON        MMR11008110759009769020811000000000000000   10300001F00104100000000000894000000000000     
100   62443100303702210000000000121620000000121620002000000010410408100722360019655463010810222207001965   1030000600030000   554100002325315799420000504DENKO SOUTH DAGON      YANGON        MMR11008100722360019650810000000000000000   10300001 00104100000000014594000000000000     
100   62443100300792360000000000006400000000006400002000000010410408101020470021223555240810222216002122   1030000500030000   531120226306000045311202263OCEAN SUPER CENTER STJ PTN           MMR11008101020470021220810000000000000000   10300001 00104100000000001536000000000000     
100   95050311736839760000000000012200000000012200002000000010410408101112090000632059160810222217000063   1030000500030000   541120024802022205411200248ORANGE (THARKAYTA)     PTN           MMR11008101112090000630810000000000000000   10300001 00104100000000003050000000000000     
100   95030301100121270000000000025000000000025000002000000010410408100220330004364773800810222208000436   1030000500030000   598320001102000015172200011MAX ENERGY             PTN           MMR11008100220330004360810000000000000000   10300001 00104100000000000750000000000000     
100   95050310746600650000000000017600000000017600002000000010410408101103230012076690020810222211001207   1030000600030000   597700001925315799420001295NATURE REPUBLIC D2     MANDALAY.     MMR11008101103230012070810000000000000000   10300001 00104100000000004224000000000000     
100   62911028202790800000000000057000000000057000002000000010410408100750010000674773800810222214000067   1030000500030000   598320003202000015172200032MAX ENERGY             PTN           MMR11008100750010000670810000000000000000   10300001 00104100000000001710000000000000     
100   95050325925517520000000000023000000000023000002000000010410408100735020004094916780810222214000409   1030000500030000   598320001604000015172200016MAX ENERGY             PTN           MMR11008100735020004090810000000000000000   10300001 00104100000000002760000000000000     
100   62911028202212490000000000045000000000045000002000000010410408100745060005434773800810222214000543   1030000500030000   598320001204000015172200012MAX ENERGY             PTN           MMR11008100745060005430810000000000000000   10300001 00104100000000001350000000000000     
100   62911028202154800000000000275000000000275000002000000010410408100908590000174773800810222215000017   1030000500030000   594420062001008705944200620SATKYAR SHWE YEE JEWEL PTN           MMR11008100908590000170810000000000000000   10300001 00104100000000016500000000000000     
100   62911028202294570000000000007140000000007140002000000010410408100946220000974773800810000360418661   1030000300030000   581400001712000000000001227CB BANK                THE PIZZA & S MMR11008100946220000970810000000000000000   10300001F00104100000000000214000000000000     
100   95050324154190880000000000021000000000021000002000000010410408100406540005930307790810222210000593   1030000500030000   598320001401000015172200014MAX ENERGY             PTN           MMR11008100406540005930810000000000000000   10300001 00104100000000002520000000000000     
100   62911028202530930000000000033000000000033000002000000010410408100710230004744773800810222213000474   1030000500030000   598320002104000015172200021MAX ENERGY             PTN           MMR11008100710230004740810000000000000000   10300001 00104100000000000990000000000000     
100   62443100303702210000000000300000000000300000002000000010410408100156140019301748710810222201001930   1030000600030000   554100002325315799420000504DENKO SOUTH DAGON      YANGON        MMR11008100156140019300810000000000000000   10300001 00104100000000036000000000000000     
100   62911028202150190000000000060000000000060000002000000010410408100949550000864773800810000360419201   1030000300030000   598300001210000000000000817CB BANK                SHWE TAUNG EN MMR11008100949550000860810000000000000000   10300001F00104100000000001800000000000000     
100   95030302100000550000000000058200000000058200002000000010410408100649580001974773800810000360389156   1030000300030000   531100003904000000000002936CB BANK                MAXI WHOLESAL MMR11008100649580001970810000000000000000   10300001F00104100000000003492000000000000     
100   62911028202451150000000000137385000000137385002000000010410408100746110012784773800810222214001278   1030000500030000   541120229003000045411202290CITY MART SUPERMARKET  PTN           MMR11008100746110012780810000000000000000   10300001 00104100000000008243000000000000     
100   95050326583352640000000000018150000000018150002000000010410408100636420015447420230810222213001544   1030000500030000   531120231201000045311202312OCEAN OATTARA THIRI    PTN           MMR11008100636420015440810000000000000000   10300001 00104100000000004356000000000000     
100   62911028202122630000000000030000000000030000002000000010410408101221460004884773800810222218000488   1030000500030000   598320001603000015172200016MAX ENERGY             PTN           MMR11008101221460004880810000000000000000   10300001 00104100000000000900000000000000     
100   62443100313002190000000000018800000000018800002000000010410408101124530010530406680810222217001053   1030000500030000   541120230112000045411202301CITY MART SUPERMARKET  PTN           MMR11008101124530010530810000000000000000   10300001 00104100000000004700000000000000     
100   62911028202280200000000000024045000000024045002000000010410408100403080016204773800810000360358981   1030000300030000   581400001725000000000001232CB BANK                THE PIZZA COM MMR11008100403080016200810000000000000000   10300001F00104100000000000721000000000000     
100   62911028202311230000000000059200000000059200002000000010410408090137530000804773800809222108000080   1030000500030000   541120129715000045411201297MAKRO MYANMAR          PTN           MMR11008090137530000800809000000000000000   10300001 00104100000000003552000000000000     
100   95050326228858240000000000234300000000234300002000000010410408091332133112193535740809222120311219   1040001600030000   581420001511000000010001203The Brew               Yangon        MMR11008091332133112190809000000000000000   10300001F00104100000000028116000000000000     
100   62911028202154800000000000050000000000050000002000000010410408090255572639154773800809222109263915   1040001600030000   598320000856000000010000609Terminal Petrol Statio Yangon        MMR11008090255572639150809000000000000000   10300001F00104100000000001500000000000000     
100   95030322371504830000000000066156000000066156002000000010410408111651440023604773800811000751818237   1030000200030000   541188001479000008000000399KBZ BANK               OCEAN SUPERCE MMR11008111651440023600811000000000000000   10300001 00104100000000003969000000000000     
100   62911028202290100000000000027500000000027500002000000010410408111608190009234773800811000751816315   1030000200030000   541188001082000008000000294KBZ BANK               CITY MART - J MMR11008111608190009230811000000000000000   10300001 00104100000000001650000000000000     
100   62443100365061410000000000110476000000110476002000000010410408111545070012192817180811000751815140   1030000200030000   541188001332000008000000327KBZ BANK               CITY MART - S MMR11008111545070012190811000000000000000   10300001 00104100000000027619000000000000     
100   62443100343312450000000000300700000000300700002000000010410408111348190039902276660811000751826125   1030000200030000   581288001737000008000005244KBZ BANK               SEAFOOD CITY  MMR11008111348190039900811000000000000000   10300001 00104100000000127798000000000000     
100   95050314307746340000000000000990000000000990002000000010410408110237070707458809570811000007632056   1020000200030000   333400010001204104000000281Myanmar Soft-Gate Tech Yangon        MMR11008110237070707450811000000000000000   10300001F05104100000000000208000000000000     
100   62443100303702210000000000037001000000037001002000000010410408100157370019313486290810222201001931   1030000600030000   554100002325315799420000504DENKO SOUTH DAGON      YANGON        MMR11008100157370019310810000000000000000   10300001 00104100000000004440000000000000     
100   95050322220807920000000000009250000000009250002000000010410408100817220000038732330810222214000003   1030000500030000   569120135001009505691201350F1 FREE POINT FASHION  PTN           MMR11008100817220000030810000000000000000   10300001 00104100000000002220000000000000     
100   62911028202154800000000000025900000000025900002000000010410408100642180000274773800810222213000027   1030000500030000   564120055801016505641200558BABY & ME              PTN           MMR11008100642180000270810000000000000000   10300001 00104100000000001554000000000000     
100   95050310005653210000000000022000000000022000002000000010410408101137030000798498900810222218000079   1030000500030000   531120155701000045311201557GAMONE PWINT           PTN           MMR11008101137030000790810000000000000000   10300001 00104100000000005280000000000000     
100   95050329023136610000000000007500000000007500002000000010410408100925280005024356760810000360415382   1030000300030000   541100000489000000000000349CB BANK                G & G CONVENI MMR11008100925280005020810000000000000000   10300001F00104100000000001875000000000000     
100   95050326689257240000000000025200000000025200002000000010410408101233340016227442090810000360442843   1030000300030000   531100000793000000000000540CB BANK                CAPITAL SUPER MMR11008101233340016220810000000000000000   10300001F00104100000000006048000000000000     
100   62911028202181120000000000017950000000017950002000000010410408101247460000474773800810222219000047   1030000500030000   541120207201000085411202072INFINITY MART          PTN           MMR11008101247460000470810000000000000000   10300001 00104100000000001077000000000000     
100   62443100390038980000000000093500000000093500002000000010410408101416530002657186800810222220000265   1030000500030000   581220106701000015812201067THAI 47                PTN           MMR11008101416530002650810000000000000000   10300001 00104100000000039738000000000000     
100   95050316067768680000000000000990000000000990002000000010410408111037500750836468250811000007635383   1020000200030000   333400010001204104000000281Myanmar Soft-Gate Tech Yangon        MMR11008111037500750830811000000000000000   10300001F05104100000000000208000000000000     
100   95050316785465380000000000000990000000000990002000000010410408111059532953196127860811000007635485   1020000200030000   333400010001204104000000281Myanmar Soft-Gate Tech Yangon        MMR11008111059532953190811000000000000000   10300001F05104100000000000208000000000000     
100   95050316785465380000000000000990000000000990002000000010410408111102083208777865440811000007635500   1020000200030000   333400010001204104000000281Myanmar Soft-Gate Tech Yangon        MMR11008111102083208770811000000000000000   10300001F05104100000000000208000000000000     
100   95050317084233280000000000001980000000001980002000000010410408111355582558460624180811000007636173   1020000200030000   333400010001204104000000281Myanmar Soft-Gate Tech Yangon        MMR11008111355582558460811000000000000000   10300001F05104100000000000416000000000000     
100   95050310494988230000000000002970000000002970002000000010410408110510004000348639380811000007633010   1020000200030000   333400010001204104000000281Myanmar Soft-Gate Tech Yangon        MMR11008110510004000340811000000000000000   10300001F05104100000000000624000000000000     
100   95050329192229210000000000300000000000300000002000000010410408111404143414034014240811000007636199   1030000200030000   333800010001203104000003327KBZPay                 Yangon        MMR11008111404143414030811000000000000000   10300001F05104100000000063000000000000000     
100   95050318141561190000000000010000000000010000002000000010410408111257492749548376020811000007635897   1040001600030000   333800010001220104000004507A +                    Yangon        MMR11008111257492749540811000000000000000   10300001F05104100000000002100000000000000     
100   95050312675525330000000000025000000000025000002000000010410408111402533253983929150811000007636190   1030000200030000   333800010001203104000003327KBZPay                 Yangon        MMR11008111402533253980811000000000000000   10300001F05104100000000005250000000000000     
100   62911028202156540000000000054000000000054000002000000010410408100928240002354773800810222215000235   1030000500030000   531120155714000045311201557GAMONE PWINT           PTN           MMR11008100928240002350810000000000000000   10300001 00104100000000003240000000000000     
100   62911028202294570000000000019300000000019300002000000010410408101000090003644773800810222216000364   1030000500030000   581220263901000085812202639BREAD TALK             PTN           MMR11008101000090003640810000000000000000   10300001 00104100000000001969000000000000     
100   62911028202204490000000000060000000000060000002000000010410408100520550005264773800810222211000526   1030000500030000   598320001204000015172200012MAX ENERGY             PTN           MMR11008100520550005260810000000000000000   10300001 00104100000000001800000000000000     
100   62911028202400660000000000134970000000134970002000000010410408100610340001284773800810222212000128   1030000500030000   531120156003000045311201560GAMONE PWINT           PTN           MMR11008100610340001280810000000000000000   10300001 00104100000000008098000000000000     
100   62911028202284260000000000032000000000032000002000000010410408100847540004344773800810222215000434   1030000500030000   598320001902000015172200019MAX ENERGY             PTN           MMR11008100847540004340810000000000000000   10300001 00104100000000000960000000000000     
100   62443100369813440000000000022000000000022000002000000010410408101128030014978754190810222217001497   1030000500030000   541120229110000045411202291CITY MART YANKIN       PTN           MMR11008101128030014970810000000000000000   10300001 00104100000000005500000000000000     
100   62911028202222390000000000024000000000024000002000000010410408101007020003394773800810222216000339   1030000500030000   503920036604000015039200366PRO-1 HOME CENTER      PTN           MMR11008101007020003390810000000000000000   10300001 00104100000000001440000000000000     
100   62443100303702210000000000102508000000102508002000000010410408100615440019588471320810222206001958   1030000600030000   554100002325315799420000504DENKO SOUTH DAGON      YANGON        MMR11008100615440019580810000000000000000   10300001 00104100000000012301000000000000     
100   95050313732480420000000000001980000000001980002000000010410408110441121112511980010811000007632813   1020000200030000   333400010001204104000000281Myanmar Soft-Gate Tech Yangon        MMR11008110441121112510811000000000000000   10300001F05104100000000000416000000000000     
100   95050314401921990000000000020000000000020000002000000010410408111154402440751510800811000007635673   1030000200030000   3338000100012031040000040022C2P (Myanmar) Co. Ltd Yangon        MMR11008111154402440750811000000000000000   10300001F05104100000000004200000000000000     
100   95050327416134790000000000000990000000000990002000000010410408111244131413978290930811000007635855   1020000200030000   333400010001204104000000281Myanmar Soft-Gate Tech Yangon        MMR11008111244131413970811000000000000000   10300001F05104100000000000208000000000000     
100   95030322371504830000000000177313000000177313002000000010410408111654020023614773800811000751818339   1030000200030000   541188001479000008000000399KBZ BANK               OCEAN SUPERCE MMR11008111654020023610811000000000000000   10300001 00104100000000010639000000000000     
100   95050322312885760000000000015000000000015000002000000010410408110240581058208979770811000007632107   1030000200030000   333800010001203104000003327KBZPay                 Yangon        MMR11008110240581058200811000000000000000   10300001F05104100000000003150000000000000     
100   95050319331315630000000000001980000000001980002000000010410408111054342434352822890811000007635459   1020000200030000   333400010001204104000000281Myanmar Soft-Gate Tech Yangon        MMR11008111054342434350811000000000000000   10300001F05104100000000000416000000000000     
100   95050311931431670000000000002970000000002970002000000010410408110907443744560569020811000007634904   1020000200030000   333400010001204104000000281Myanmar Soft-Gate Tech Yangon        MMR11008110907443744560811000000000000000   10300001F05104100000000000624000000000000     
100   95050311926829590000000000000990000000000990002000000010410408111159222922239858310811000007635698   1020000200030000   333400010001204104000000281Myanmar Soft-Gate Tech Yangon        MMR11008111159222922230811000000000000000   10300001F05104100000000000208000000000000     
100   95050322220807920000000000054800000000054800002000000010410408100755590000066484170810222214000006   1030000500030000   569120096501000015691200965VKK FASHION            PTN           MMR11008100755590000060810000000000000000   10300001 00104100000000013152000000000000     
100   62911028202530930000000000046000000000046000002000000010410408100508190003344773800810222211000334   1030000500030000   598320002102000015172200021MAX ENERGY             PTN           MMR11008100508190003340810000000000000000   10300001 00104100000000001380000000000000     
100   95050322220807920000000000006500000000006500002000000010410408100836590000075172070810222215000007   1030000500030000   569120135001009505691201350F1 FREE POINT FASHION  PTN           MMR11008100836590000070810000000000000000   10300001 00104100000000001560000000000000     
100   62911028202312890000000000030000000000030000002000000010410408100546530002744773800810222212000274   1030000500030000   598320001701000015172200017MAX ENERGY             PTN           MMR11008100546530002740810000000000000000   10300001 00104100000000000900000000000000     
100   95030301100126550000000000022000000000022000002000000010410408101048480263184773800810222210026318   1030000600030000   554100002323315799420000474DENKO N.DAGON - 1      YANGON        MMR11008101048480263180810000000000000000   10300001 00104100000000000660000000000000     
100   62443100303702210000000000300000000000300000002000000010410408100845000635862108600810222208063586   1030000600030000   554100001756315799420001137DENKO NORTH DAGON 2    YANGON        MMR11008100845000635860810000000000000000   10300001 00104100000000036000000000000000     
100   95050322149411750000000000020000000000020000002000000010410408100826390027790469910810000360406004   1030000300030000   598300001209000000000000817CB BANK                SHWE TAUNG EN MMR11008100826390027790810000000000000000   10300001F00104100000000002400000000000000     
100   62911028202404540000000000012150000000012150002000000010410408100844380039304773800810222215003930   1030000500030000   541120226203000045411202262CITY MART ZAWANA       PTN           MMR11008100844380039300810000000000000000   10300001 00104100000000000729000000000000     
100   95050316658424370000000000019350000000019350002000000010410408111002040064508348440811000751787527   1030000200030000   541188001420000008000000401KBZ BANK               OCEAN SUPERCE MMR11008111002040064500811000000000000000   10300001 00104100000000004838000000000000     
100   62911028202110420000000000005350000000005350002000000010410408111351370085394773800811000751806965   1030000200030000   541188001315000008000000306KBZ BANK               CITY MART - S MMR11008111351370085390811000000000000000   10300001 00104100000000000321000000000000     
100   95050325139996190000000000093600000000093600002000000010410408110733460346286597070811000007634197   1030000200030000   333300010001203104000003632Myanmar Tradenet Test  Yangon        MMR11008110733460346280811000000000000000   10300001F05104100000000010000000000000000     
100   95050325027979170000000000250000000000250000002000000010410408110701343134748504840811000007633703   1030000200030000   333800010001203104000003327KBZPay                 Yangon        MMR11008110701343134740811000000000000000   10300001F05104100000000052500000000000000     
100   95030322371504830000000000076400000000076400002000000010410408111637090029244773800811000751817574   1030000200030000   541188001481000008000000399KBZ BANK               OCEAN SUPERCE MMR11008111637090029240811000000000000000   10300001 00104100000000004584000000000000     
100   95050322312885760000000000009000000000009000002000000010410408110838560856990739210811000007634735   1030000200030000   333800010001203104000003327KBZPay                 Yangon        MMR11008110838560856990811000000000000000   10300001F05104100000000001890000000000000     
100   62443100317500820000000000020000000000020000002000000010410408110151362136368122870811000007631931   1030000200030000   333800010001203104000003327KBZPay                 Yangon        MMR11008110151362136360811000000000000000   10300001F05104100000000004200000000000000     
100   95050312695033440000000000001980000000001980002000000010410408111303033303516723530811000007635920   1020000200030000   333400010001204104000000281Myanmar Soft-Gate Tech Yangon        MMR11008111303033303510811000000000000000   10300001F05104100000000000416000000000000     
100   95050321685338790000000000132882000000132882002000000010410408100329400106332094810810222203010633   1030000600030000   581200000526315799420000143SIGNATURE FINEDINING 1 YANGON        MMR11008100329400106330810000000000000000   10300001 00104100000000056475000000000000     
100   62911028202659640000000000082200000000082200002000000010410408100255180046574773800810222209004657   1030000500030000   541120226809000045411202268CITY MART WAIZAYANDA   PTN           MMR11008100255180046570810000000000000000   10300001 00104100000000004932000000000000     
100   62911028202611530000000000035850000000035850002000000010410408101245490028944773800810222219002894   1030000500030000   541120230003000045411202300MARKET PLACE BY CITY M PTN           MMR11008101245490028940810000000000000000   10300001 00104100000000002151000000000000     
100   62443100303702210000000000390000000000390000002000000010410408100417570635274378630810222204063527   1030000600030000   554100001756315799420001137DENKO NORTH DAGON 2    YANGON        MMR11008100417570635270810000000000000000   10300001 00104100000000046800000000000000     
100   62443100300412100000000000031000000000031000002000000010410408100701050376216703800810222207037621   1030000600030000   554100001016315799420000510DENKO AUNG SAN         YANGON        MMR11008100701050376210810000000000000000   10300001 00104100000000003720000000000000     
100   95030373033018450000000000021400000000021400002000000010410408100759340044354773800810222214004435   1030000500030000   541120226807000045411202268CITY MART WAIZAYANDA   PTN           MMR11008100759340044350810000000000000000   10300001 00104100000000001284000000000000     
100   62911028202807400000000000020000000000020000002000000010410408100738170376254773800810222207037625   1030000600030000   554100001016315799420000510DENKO AUNG SAN         YANGON        MMR11008100738170376250810000000000000000   10300001 00104100000000000600000000000000     
100   62443100315110470000000000234162000000234162002000000010410408100631100036427840000810222213003642   1030000500030000   531120226314000045311202263OCEAN SUPER CENTER STJ PTN           MMR11008100631100036420810000000000000000   10300001 00104100000000056199000000000000     
100   95050329192229210000000000300000000000300000002000000010410408111403063306905666730811000007636191   1030000200030000   333800010001203104000003327KBZPay                 Yangon        MMR11008111403063306900811000000000000000   10300001F05104100000000063000000000000000     
100   95050326948926900000000000060000000000060000002000000010410408111430480048526978820811000007636324   1030000200030000   333800010001203104000003327KBZPay                 Yangon        MMR11008111430480048520811000000000000000   10300001F05104100000000012600000000000000     
100   95050316067768680000000000000990000000000990002000000010410408111040001000944390280811000007635392   1020000200030000   333400010001204104000000281Myanmar Soft-Gate Tech Yangon        MMR11008111040001000940811000000000000000   10300001F05104100000000000208000000000000     
100   95050315259054570000000000010000000000010000002000000010410408110656012601906767260811000007633668   1030000200030000   333800010001203104000003327KBZPay                 Yangon        MMR11008110656012601900811000000000000000   10300001F05104100000000002100000000000000     
100   95050319161596230000000000000990000000000990002000000010410408110140141014689434960811000007631905   1020000200030000   333400010001204104000000281Myanmar Soft-Gate Tech Yangon        MMR11008110140141014680811000000000000000   10300001F05104100000000000208000000000000     
100   95050326094581320000000000032146000000032146002000000010410408111624510210858370300811000751817042   1030000200030000   541188001126000008000000296KBZ BANK               CITY MART - J MMR11008111624510210850811000000000000000   10300001 00104100000000008037000000000000     
100   95050327192897240000000000002970000000002970002000000010410408110444331433242150200811000007632834   1020000200030000   333400010001204104000000281Myanmar Soft-Gate Tech Yangon        MMR11008110444331433240811000000000000000   10300001F05104100000000000624000000000000     
100   95050316949180000000000000000990000000000990002000000010410408110902163216998831440811000007634872   1020000200030000   333400010001204104000000281Myanmar Soft-Gate Tech Yangon        MMR11008110902163216990811000000000000000   10300001F05104100000000000208000000000000     
100   95050324154190880000000000025782000000025782002000000010410408101235560032200747060810222219003220   1030000500030000   531120226317000045311202263OCEAN SUPER CENTER STJ PTN           MMR11008101235560032200810000000000000000   10300001 00104100000000006188000000000000     
100   62911028202595200000000000077000000000077000002000000010410408101016230039714773800810222216003971   1030000500030000   531120226308000045311202263OCEAN SUPER CENTER STJ PTN           MMR11008101016230039710810000000000000000   10300001 00104100000000004620000000000000     
100   62911028202441420000000000005100000000005100002000000010410408100939013676584773800810222216367658   1040001600030000   591220000297000000010000285Shwe Ohh Pharmacy (Nor Yangon        MMR11008100939013676580810000000000000000   10300001F00104100000000000306000000000000     
100   62443100373945130000000000050000000000050000002000000010410408100537583530415981670810222212353041   1040001600030000   598320000911000000010000662MMTM - Tamwe           Ygn           MMR11008100537583530410810000000000000000   10300001F00104100000000006000000000000000     
100   62911028202163630000000000015000000000015000002000000010410408100505553506614773800810222212350661   1040001600030000   598320000915000000010000664MMTM - North Dagon     Ygn           MMR11008100505553506610810000000000000000   10300001F00104100000000000450000000000000     
100   62911028202136750000000000031000000000031000002000000010410408100901303651324773800810222216365132   1040001600030000   598320001061000000010000781Yangon Petrol (Yuzana) Ygn           MMR11008100901303651320810000000000000000   10300001F00104100000000000930000000000000     
100   62911028202685470000000000014000000000014000002000000010410408100209513415464773800810222209341546   1040001600030000   806220000003000000010000001Victoria Hospital      Yangon        MMR11008100209513415460810000000000000000   10300001F00104100000000000840000000000000     
100   62911028202537390000000000024700000000024700002000000010410408100611583554574773800810222213355457   1040001600030000   598320001062000000010000782Yangon Petrol (South/N Ygn           MMR11008100611583554570810000000000000000   10300001F00104100000000000741000000000000     
100   95050317866508340000000000003000000000003000002000000010410408110759322932671966210811000007634457   1030000200030000   333800010001203104000003327KBZPay                 Yangon        MMR11008110759322932670811000000000000000   10300001F05104100000000000630000000000000     
100   62443100306416880000000000026850000000026850002000000010410408111716140110992737800811000751819567   1030000200030000   541188001062000008000000314KBZ BANK               MARKETPLACE - MMR11008111716140110990811000000000000000   10300001 00104100000000006713000000000000     
100   95050312926040930000000000015000000000015000002000000010410408110056132613656385290811000007631791   1030000200030000   333800010001203104000003327KBZPay                 Yangon        MMR11008110056132613650811000000000000000   10300001F05104100000000003150000000000000     
100   62443100395250310000000000030000000000030000002000000010410408110748321832483618700811000007634372   1030000200030000   333800010001203104000003327KBZPay                 Yangon        MMR11008110748321832480811000000000000000   10300001F05104100000000006300000000000000     
100   62911028202446700000000000005035000000005035002000000010410408111408023802544773800811000007636218   1030000200030000   333800010001203104000003327KBZPay                 Yangon        MMR11008111408023802540811000000000000000   10300001F05104100000000001057000000000000     
100   95050329192229210000000000300000000000300000002000000010410408111401483148065581630811000007636185   1030000200030000   333800010001203104000003327KBZPay                 Yangon        MMR11008111401483148060811000000000000000   10300001F05104100000000063000000000000000     
100   95050316818236190000000000002970000000002970002000000010410408110958122812063327760811000007635180   1020000200030000   333400010001204104000000281Myanmar Soft-Gate Tech Yangon        MMR11008110958122812060811000000000000000   10300001F05104100000000000624000000000000     
100   95050327192897240000000000004950000000004950002000000010410408110447531753039526000811000007632858   1020000200030000   333400010001204104000000281Myanmar Soft-Gate Tech Yangon        MMR11008110447531753030811000000000000000   10300001F05104100000000001040000000000000     
100   62911028202685470000000000100000000000100000002000000010410408100333253457724773800810222210345772   1040001600030000   806220000001000000010000001Victoria Hospital      Yangon        MMR11008100333253457720810000000000000000   10300001F00104100000000006000000000000000     
100   95030305700676370000000000058000000000058000002000000010410408101045093735504773800810222217373550   1040001600030000   598320000316000000010000304PT Power Petrol Statio Yangon        MMR11008101045093735500810000000000000000   10300001F00104100000000001740000000000000     
100   62911028202527490000000000048363000000048363002000000010410408092342473334934773800810222206333493   1040001600030000   598320000915000000010000664MMTM - North Dagon     Ygn           MMR11008092342473334930810000000000000000   10300001F00104100000000001451000000000000     
100   62911028202162640000000000075000000000075000002000000010410408091037360018064773800809000360237109   1030000300030000   804300002930000000000002034CB BANK                UNITED VISION MMR11008091037360018060809000000000000000   10300001F00104100000000004500000000000000     
100   62911028202135350000000000073000000000073000002000000010410408091128450027184773800809000360244558   1030000300030000   598300001209000000000000817CB BANK                SHWE TAUNG EN MMR11008091128450027180809000000000000000   10300001F00104100000000002190000000000000     
100   62911028202248050000000000027000000000027000002000000010410408100209230435934773800810222202043593   1030000600030000   554100001155315799420000607DENKO NPT 1            NAYPYITAW.    MMR11008100209230435930810000000000000000   10300001 00104100000000000810000000000000     
100   95050321685338790000000000096900000000096900002000000010410408100619030006570634390810000360383562   1030000300030000   581200001895000000000001353CB BANK                OISHII RESTAU MMR11008100619030006570810000000000000000   10300001F00104100000000041183000000000000     
100   62911028202464020000000000043488000000043488002000000010410408110600284358804773800811222313435880   1040001600030000   598320001170000000010000527Shwe Taung Energy (YGN Yangon        MMR11008110600284358800811000000000000000   10300001F00104100000000001305000000000000     
100   62911028202169750000000000207426000000207426002000000010410408111441060284594773800811000751811081   1030000200030000   541188001001000008000000008KBZ BANK               MARKETPLACE - MMR11008111441060284590811000000000000000   10300001 00104100000000012446000000000000     
100   95050318141561190000000000010000000000010000002000000010410408102340481048776300190811000007631692   1040001600030000   333800010001220104000004507A +                    Yangon        MMR11008102340481048770811000000000000000   10300001F05104100000000002100000000000000     
100   62911028202336730000000000005000000000005000002000000010410408102357372737634773800811000007631722   1030000200030000   333800010001203104000003327KBZPay                 Yangon        MMR11008102357372737630811000000000000000   10300001F05104100000000001050000000000000     
100   95050312926040930000000000005000000000005000002000000010410408102359442944889690250811000007631727   1030000200030000   333800010001203104000003327KBZPay                 Yangon        MMR11008102359442944880811000000000000000   10300001F05104100000000001050000000000000     
100   95050311931431670000000000004950000000004950002000000010410408110910544054209001630811000007634916   1020000200030000   333400010001204104000000281Myanmar Soft-Gate Tech Yangon        MMR11008110910544054200811000000000000000   10300001F05104100000000001040000000000000     
100   95030301504712580000000000013350000000013350002000000010410408111207330035244773800811000751797695   1030000200030000   541188001452000008000000391KBZ BANK               OCEAN SUPER C MMR11008111207330035240811000000000000000   10300001 00104100000000000801000000000000     
100   95050317465574180000000000005000000000005000002000000010410408111336310631767234110811000007636075   1030000200030000   333800010001203104000003327KBZPay                 Yangon        MMR11008111336310631760811000000000000000   10300001F05104100000000001050000000000000     
100   62443100330048680000000000042100000000042100002000000010410408110348391839880426400811000007632478   1030000200030000   333800010001203104000003327KBZPay                 Yangon        MMR11008110348391839880811000000000000000   10300001F05104100000000008841000000000000     
100   95050316067768680000000000001980000000001980002000000010410408111034320432493078180811000007635367   1020000200030000   333400010001204104000000281Myanmar Soft-Gate Tech Yangon        MMR11008111034320432490811000000000000000   10300001F05104100000000000416000000000000     
100   95030327835334700000000000028730000000028730002000000010410408111801400181864773800811000751821724   1030000200030000   541188001242000008000000323KBZ BANK               CITY MART - I MMR11008111801400181860811000000000000000   10300001 00104100000000001724000000000000     
100   95030308100042590000000000143000000000143000002000000010410408100216560002404773800810222208000240   1030000500030000   598320001704000015172200017MAX ENERGY             PTN           MMR11008100216560002400810000000000000000   10300001 00104100000000004290000000000000     
100   95050319938772870000000000000990000000000990002000000010410408111347101710420539080811000007636122   1020000200030000   333400010001204104000000281Myanmar Soft-Gate Tech Yangon        MMR11008111347101710420811000000000000000   10300001F05104100000000000208000000000000     
100   95050320092651450000000000043200000000043200002000000010410408110926174473799597310811222316447379   1040001600030000   541120000553000000010000465Ocean Shwe Gone Daing  Yangon        MMR11008110926174473790811000000000000000   10300001F00104100000000010800000000000000     
100   95050310427855490000000000001980000000001980002000000010410408111524355435747149020811000007636506   1020000200030000   333400010001204104000000281Myanmar Soft-Gate Tech Yangon        MMR11008111524355435740811000000000000000   10300001F05104100000000000416000000000000     
100   95030307963177330000000000065034000000065034002000000010410408111207409835894773800811028371840222   1030000900030000   541119001250190110000000955City Mart JS C 9       YANGONUT      MMR11008111207409835890811000000000000000   10300001F00104100000000003902000000000000     
100   95050315690875920000000000013900000000013900002000000010410408110806569771073703800811726361456222   1030000900030000   541119001288190110000000964City Mart SPL Season C YANGONMYOTHIT MMR11008110806569771070811000000000000000   10300001F00104100000000003475000000000000     
100   95050323133124350000000000005000000000005000002000000010410408111147011701063588760811000007635646   1030000200030000   333800010001203104000003327KBZPay                 Yangon        MMR11008111147011701060811000000000000000   10300001F05104100000000001050000000000000     
100   95050322312885760000000000003000000000003000002000000010410408110909583958963959080811000007634911   1030000200030000   333800010001203104000003327KBZPay                 Yangon        MMR11008110909583958960811000000000000000   10300001F05104100000000000630000000000000     
100   95050310427855490000000000002970000000002970002000000010410408110556262626392611330811000007633296   1020000200030000   333400010001204104000000281Myanmar Soft-Gate Tech Yangon        MMR11008110556262626390811000000000000000   10300001F05104100000000000624000000000000     
100   62443100379184770000000000020000000000020000002000000010410408111345381538292191570811000007636106   1030000200030000   333800010001203104000003327KBZPay                 Yangon        MMR11008111345381538290811000000000000000   10300001F05104100000000004200000000000000     
100   95050322312885760000000000006000000000006000002000000010410408110348091809222078890811000007632475   1030000200030000   333800010001203104000003327KBZPay                 Yangon        MMR11008110348091809220811000000000000000   10300001F05104100000000001260000000000000     
100   95050310332595380000000000000990000000000990002000000010410408110507393739046986900811000007632993   1020000200030000   333400010001204104000000281Myanmar Soft-Gate Tech Yangon        MMR11008110507393739040811000000000000000   10300001F05104100000000000208000000000000     
100   62443100371022130000000000003394000000003394002000000010410408110451279722068128810811341211127222   1030000900030000   541119001161190110000000930OCEAN HTY C 11         YANGONTHARYA  MMR11008110451279722060811000000000000000   10300001F00104100000000000849000000000000     
100   95050329192229210000000000100000000000100000002000000010410408111405063506018971690811000007636205   1030000200030000   333800010001203104000003327KBZPay                 Yangon        MMR11008111405063506010811000000000000000   10300001F05104100000000021000000000000000     
100   95050310833306920000000000057750000000057750002000000010410408111053149817327780340811064231714222   1030000900030000   591219000503190110000000350Shwe Ohh Pharmacy (WZD YANGONNGKUUN  MMR11008111053149817320811000000000000000   10300001F00104100000000013860000000000000     
100   62911028202154800000000000013300000000013300002000000010410408100714480003514773800810222213000351   1030000500030000   581220263901000085812202639BREAD TALK             PTN           MMR11008100714480003510810000000000000000   10300001 00104100000000001357000000000000     
100   62911028202126850000000000050563000000050563002000000010410408100943250025394773800810222216002539   1030000500030000   531120226318000045311202263OCEAN SUPER CENTER STJ PTN           MMR11008100943250025390810000000000000000   10300001 00104100000000003034000000000000     
100   62911028202595200000000000016450000000016450002000000010410408101019010030604773800810222216003060   1030000500030000   531120226326000045311202263OCEAN SUPER CENTER STJ PTN           MMR11008101019010030600810000000000000000   10300001 00104100000000000987000000000000     
100   95050319161596230000000000000990000000000990002000000010410408111129295929261936280811000007635598   1020000200030000   333400010001204104000000281Myanmar Soft-Gate Tech Yangon        MMR11008111129295929260811000000000000000   10300001F05104100000000000208000000000000     
100   95050321455580800000000000028260000000028260002000000010410408101007510008323214850810000360422032   1030000300030000   531100000602000000000000408CB BANK                CAPITAL HYPER MMR11008101007510008320810000000000000000   10300001F00104100000000006782000000000000     
100   62911028202668300000000000020000000000020000002000000010410408100901373651394773800810222216365139   1040001600030000   598320001062000000010000782Yangon Petrol (South/N Ygn           MMR11008100901373651390810000000000000000   10300001F00104100000000000600000000000000     
100   95050320559934420000000000395000000000395000002000000010410408110915554467661164690811222316446766   1040001600030000   541120000569000000010000465Ocean Shwe Gone Daing  Yangon        MMR11008110915554467660811000000000000000   10300001F00104100000000098750000000000000     
100   95050312224678430000000000001980000000001980002000000010410408111317504750091680990811000007635982   1020000200030000   333400010001204104000000281Myanmar Soft-Gate Tech Yangon        MMR11008111317504750090811000000000000000   10300001F05104100000000000416000000000000     
100   62911028202667150000000000008355000000008355002000000010410408110546369734794773800811962161236222   1030000900030000   541119001068190110000000082Sein Gay Har Super Cen YANGON        MMR11008110546369734790811000000000000000   10300001F00104100000000000501000000000000     
100   95050310833306920000000000027650000000027650002000000010410408110742239764413377200811407121423222   1030000900030000   571219001598190110000001164Pro (1) Global South D YANGONMYOTHIT MMR11008110742239764410811000000000000000   10300001F00104100000000006636000000000000     
100   95030301100128610000000000015000000000015000002000000010410408110703109754304773800811936331310222   1030000900030000   541119001361190110000000977Ocean PZD C 15         YANGONAUNG    MMR11008110703109754300811000000000000000   10300001F00104100000000000900000000000000     
100   95050312240830690000000000002970000000002970002000000010410408111611334133366007110811000007636636   1020000200030000   333400010001204104000000281Myanmar Soft-Gate Tech Yangon        MMR11008111611334133360811000000000000000   10300001F05104100000000000624000000000000     
100   95050320559934420000000000097400000000097400002000000010410408110901014459104214370811222316445910   1040001600030000   541120000571000000010000465Ocean Shwe Gone Daing  Yangon        MMR11008110901014459100811000000000000000   10300001F00104100000000024350000000000000     
100   95050322295410690000000000012704000000012704002000000010410408110742349764495271180811411121434222   1030000900030000   581219000980190110000000787Jo Jo Hot Pot          YANGON        MMR11008110742349764490811000000000000000   10300001F00104100000000005399000000000000     
