100   95050321057500320000000000006400000000006400002000000010410408140808010579635236470814874381401225   1030000900030000   581219000931190110000000740Shwe Palin City Mall   YANGONAW      MMR11008140808010579630814000000000000000   10300001F00104100000000002720000000000000     
100   95050324657517450000000000506500000000506500002000000010410408140947460603954668340814244171646225   1030000900030000   541119000140190110000000083SeinGayHarParami Cente YANGON        MMR11008140947460603950814000000000000000   10300001F00104100000000126625000000000000     
100   95050312539675540000000000000990000000000990002000000010410408141152512251379304000814000007649475   1020000200030000   333400010001204104000000281Myanmar Soft-Gate Tech Yangon        MMR11008141152512251370814000000000000000   10300001F05104100000000000208000000000000     
100   95050311168163370000000000022150000000022150002000000010410408140925030597944171570814873551503225   1030000900030000   541119001195190110000000942City Mart HDC C 10     YANGONUT      MMR11008140925030597940814000000000000000   10300001F00104100000000005538000000000000     
100   62911028202280200000000000025100000000025100002000000010410408141015030611104773800814672451603225   1030000900030000   541119001195190110000000942City Mart HDC C 10     YANGONUT      MMR11008141015030611100814000000000000000   10300001F00104100000000001506000000000000     
100   95050314287403810000000000002970000000002970002000000010410408140943571357610767720814000007649081   1020000200030000   333400010001204104000000281Myanmar Soft-Gate Tech Yangon        MMR11008140943571357610814000000000000000   10300001F05104100000000000624000000000000     
100   62443100386703740000000000006500000000006500002000000010410408141023563203452183490814535672752821   1040001400030000   581210000049025812100000393Feel Delight (Star Cit ) Feel Deligh MMR11008141023563203450814000000000000000   10300001 00104100000000002763000000000000     
100   95050310572950870000000000100000000000100000002000000010410408141411204120396339420814000007649958   1030000200030000   333800010001203104000003327KBZPay                 Yangon        MMR11008141411204120390814000000000000000   10300001F05104100000000021000000000000000     
100   95050326511614440000000000029635000000029635002000000010410408130833570001470588520813222515000147   1030000500030000   581220214501000085812202145CHILLI POT MALA XIANG  PTN           MMR11008130833570001470813000000000000000   10300001 00104100000000012595000000000000     
100   95050326750398570000000000005800000000005800002000000010410408130305370007472205350813000360902047   1030000300030000   581400001691000000000001213CB BANK                SHWEPALIN(NOR MMR11008130305370007470813000000000000000   10300001F00104100000000000696000000000000     
100   95050319695392670000000000014900000000014900002000000010410408130900440000367283560813000360953212   1030000300030000   531100000752000000000000408CB BANK                CAPITAL HYPER MMR11008130900440000360813000000000000000   10300001F00104100000000003576000000000000     
100   62911028202440680000000000015750000000015750002000000010410408131114320001504773800813000360973492   1030000300030000   581400002323000000000001581CB BANK                THE PIZZA COM MMR11008131114320001500813000000000000000   10300001F00104100000000000473000000000000     
100   62443100306045460000000000054000000000054000002000000010410408131042210004299346260813222517000429   1030000500030000   569120104001008205691201040ESCORT ( CITY MALL-ST. PTN           MMR11008131042210004290813000000000000000   10300001 00104100000000012960000000000000     
100   95050314365758940000000000051401000000051401002000000010410408131021380005089361520813222516000508   1030000500030000   541120203803000015411202038CITY MART SUPERMARKET  PTN           MMR11008131021380005080813000000000000000   10300001 00104100000000012851000000000000     
100   62911028202214130000000000045400000000045400002000000010410408130238400006594773800813222509000659   1030000500030000   598320001603000015172200016MAX ENERGY             PTN           MMR11008130238400006590813000000000000000   10300001 00104100000000001362000000000000     
100   95050314995854750000000000008500000000008500002000000010410408131009410000712666490813000360963676   1030000300030000   541100000088000000000000028CB BANK                ONE STOP KITC MMR11008131009410000710813000000000000000   10300001F00104100000000002125000000000000     
100   95030305700676370000000000075000000000075000002000000010410408141408137296764773800814222621729676   1040001600030000   598320000316000000010000304PT Power Petrol Statio Yangon        MMR11008141408137296760814000000000000000   10300001F00104100000000002250000000000000     
100   62443100323428970000000000039565000000039565002000000010410408130422220001635680520813000360912387   1030000300030000   806200001839000000000001318CB BANK                ASIA ROYAL CO MMR11008130422220001630813000000000000000   10300001F00104100000000009496000000000000     
100   62911028202502480000000000024700000000024700002000000010410408141229350212864773800814000751955706   1030000200030000   541188001049000008000000010KBZ BANK               MARKETPLACE - MMR11008141229350212860814000000000000000   10300001 00104100000000001482000000000000     
100   95050311077567400000000000010850000000010850002000000010410408130913440000517879230813222515000051   1030000500030000   594520209401000085945202094BKB 11 (PRM)           PTN           MMR11008130913440000510813000000000000000   10300001 00104100000000002604000000000000     
100   62443100355445150000000000061300000000061300002000000010410408141027240614235488460814852571624225   1030000900030000   541119001353190110000000977Ocean PZD C 7          YANGONAUNG    MMR11008141027240614230814000000000000000   10300001F00104100000000015325000000000000     
100   95050327416134790000000000000990000000000990002000000010410408141403493349583034450814000007649936   1020000200030000   333400010001204104000000281Myanmar Soft-Gate Tech Yangon        MMR11008141403493349580814000000000000000   10300001F05104100000000000208000000000000     
100   62911028202790980000000000050000000000050000002000000010410408140654406923704773800814222613692370   1040001600030000   598320000322000000010000310PT Power Petrol Statio Yangon        MMR11008140654406923700814000000000000000   10300001F00104100000000001500000000000000     
100   95030394609966640000000000015225000000015225002000000010410408140822356982754773800814222615698275   1040001600030000   581420001161000000010000871Kin Sakura (Bo Aung Ky ygn           MMR11008140822356982750814000000000000000   10300001F00104100000000000457000000000000     
100   95050314365758940000000000006400000000006400002000000010410408131026250007318495340813222516000731   1030000500030000   541120203812000015411202038CITY MART SUPERMARKET  PTN           MMR11008131026250007310813000000000000000   10300001 00104100000000001600000000000000     
100   62911028202665580000000000058300000000058300002000000010410408130514550011154773800813000360919806   1030000300030000   541100002330000000000000102CB BANK                MAKRO MYANMAR MMR11008130514550011150813000000000000000   10300001F00104100000000003498000000000000     
100   62911028202464020000000000048000000000048000002000000010410408131031010000934773800813222517000093   1030000500030000   591220211101014405912202111SHWE OHH PHARMACY      PTN           MMR11008131031010000930813000000000000000   10300001 00104100000000002880000000000000     
100   62911028202116120000000000033497000000033497002000000010410408131211420004094773800813222518000409   1030000500030000   531120155714000045311201557GAMONE PWINT           PTN           MMR11008131211420004090813000000000000000   10300001 00104100000000002010000000000000     
100   62911028202135350000000000026000000000026000002000000010410408131335000008484773800813222520000848   1030000500030000   598320001402000015172200014MAX ENERGY             PTN           MMR11008131335000008480813000000000000000   10300001 00104100000000000780000000000000     
100   95050311131833760000000000032699000000032699002000000010410408130401370009006020900813222510000900   1030000500030000   531120155802000045311201558GAMONE PWINT           PTN           MMR11008130401370009000813000000000000000   10300001 00104100000000007848000000000000     
100   95030308100042590000000000095000000000095000002000000010410408130600030003154773800813222512000315   1030000500030000   598320001904000015172200019MAX ENERGY             PTN           MMR11008130600030003150813000000000000000   10300001 00104100000000002850000000000000     
100   62911028202442250000000000018500000000018500002000000010410408130645010005724773800813222513000572   1030000500030000   598320001902000015172200019MAX ENERGY             PTN           MMR11008130645010005720813000000000000000   10300001 00104100000000000555000000000000     
100   62911028202285410000000000204160000000204160002000000010410408130413190002524773800813000360911115   1030000300030000   531100003903000000000002936CB BANK                MAXI WHOLESAL MMR11008130413190002520813000000000000000   10300001F00104100000000012250000000000000     
100   95050314414024490000000000050000000000050000002000000010410408140739020902771832570814000007648640   1030000200030000   333800010001203104000003327KBZPay                 Yangon        MMR11008140739020902770814000000000000000   10300001F05104100000000010500000000000000     
100   62911028202289130000000000132500000000132500002000000010410408140416436809034773800814222611680903   1040001600030000   591220000280000000010000268Shwe Ohh Pharmacy (Naw Yangon        MMR11008140416436809030814000000000000000   10300001F00104100000000007950000000000000     
100   95050319703729630000000000250000000000250000002000000010410408141153212321614261450814000007649473   1030000200030000   333800010001203104000003327KBZPay                 Yangon        MMR11008141153212321610814000000000000000   10300001F05104100000000052500000000000000     
100   62911028202197630000000000033117000000033117002000000010410408120553570012474773800812222412001247   1030000500030000   541120230103000045411202301CITY MART SUPERMARKET  PTN           MMR11008120553570012470812000000000000000   10300001 00104100000000001987000000000000     
100   62911028202445710000000000310000000000310000002000000010410408130650370007594773800813000360933874   1030000300030000   581200001895000000000001353CB BANK                OISHII RESTAU MMR11008130650370007590813000000000000000   10300001F00104100000000031620000000000000     
100   62911028202116120000000000042000000000042000002000000010410408131145570008464773800813000360978077   1030000300030000   531100000828000000000000565CB BANK                MGOU-SYT      MMR11008131145570008460813000000000000000   10300001F00104100000000002520000000000000     
100   62911028202473430000000000027100000000027100002000000010410408140423210523974773800814794531021225   1030000900030000   541119000130190110000000082Sein Gay Har Super Cen YANGON        MMR11008140423210523970814000000000000000   10300001F00104100000000001626000000000000     
100   62443100318296470000000000050000000000050000002000000010410408130000300006714914650813222506000671   1030000500030000   598320001304000015172200013MAX ENERGY             PTN           MMR11008130000300006710813000000000000000   10300001 00104100000000006000000000000000     
100   95050318257792630000000000019300000000019300002000000010410408130651120002613042530813222513000261   1030000500030000   531120156001000045311201560GAMONE PWINT           PTN           MMR11008130651120002610813000000000000000   10300001 00104100000000004632000000000000     
100   95050324947866880000000000029200000000029200002000000010410408130519020010012801030813222511001001   1030000500030000   531120226723000045311202267OCEAN NORTH POINT      PTN           MMR11008130519020010010813000000000000000   10300001 00104100000000007008000000000000     
100   62911028202440680000000000011950000000011950002000000010410408130718500000474773800813222513000047   1030000500030000   591220014301014405912200143SHWE OHH PHARMACY      PTN           MMR11008130718500000470813000000000000000   10300001 00104100000000000717000000000000     
100   62443101065883000000000000030100000000030100002000000010410408131042260009886722100813222517000988   1030000500030000   541120227502000045411202275CITY MART (AHLONE BRAN PTN           MMR11008131042260009880813000000000000000   10300001 00104100000000007525000000000000     
100   62443100363668680000000000112400000000112400002000000010410408130215330005162035160813222508000516   1030000500030000   806220172406013008062201724GRAND HANTHA HOSPITAL  PTN           MMR11008130215330005160813000000000000000   10300001 00104100000000026976000000000000     
100   62443100333488440000000000030000000000030000002000000010410408130511020008119410960813222511000811   1030000500030000   598320001401000015172200014MAX ENERGY             PTN           MMR11008130511020008110813000000000000000   10300001 00104100000000003600000000000000     
100   62911028202158290000000000007000000000007000002000000010410408130244380016594773800813222509001659   1030000500030000   541120227501000045411202275CITY MART (AHLONE BRAN PTN           MMR11008130244380016590813000000000000000   10300001 00104100000000000420000000000000     
100   95050314995854750000000000001900000000001900002000000010410408130318070002346822420813000360903706   1030000300030000   541100000864000000000000600CB BANK                ONE STOP MART MMR11008130318070002340813000000000000000   10300001F00104100000000000475000000000000     
100   95050313396828960000000000020200000000020200002000000010410408140848110589657363860814441181511225   1030000900030000   541119001301190110000000968Ocean Mingalar MDY C 9 MANDALAYHARSI MMR11008140848110589650814000000000000000   10300001F00104100000000005050000000000000     
100   95050318242219520000000000001980000000001980002000000010410408140735250525508782860814000007648628   1020000200030000   333400010001204104000000281Myanmar Soft-Gate Tech Yangon        MMR11008140735250525500814000000000000000   10300001F05104100000000000416000000000000     
100   95050315259054570000000000010000000000010000002000000010410408140335560556071972830814000007647811   1030000200030000   333800010001203104000003327KBZPay                 Yangon        MMR11008140335560556070814000000000000000   10300001F05104100000000002100000000000000     
100   95050316736513170000000000010000000000010000002000000010410408140602153215906439220814000007648325   1030000200030000   333800010001203104000003327KBZPay                 Yangon        MMR11008140602153215900814000000000000000   10300001F05104100000000002100000000000000     
100   95050325784857510000000000008450000000008450002000000010410408140235380499610834250814588050938225   1030000900030000   541119001208190110000000948City Mart YK C 6       YANGONAUNG    MMR11008140235380499610814000000000000000   10300001F00104100000000002113000000000000     
100   95050324154190880000000000010000000000010000002000000010410408130113410005239701900813222507000523   1030000500030000   598320002102000015172200021MAX ENERGY             PTN           MMR11008130113410005230813000000000000000   10300001 00104100000000001200000000000000     
100   95050319610090530000000000400000000000400000002000000010410408140710480565217009710814067401348225   1030000900030000   481219000914190110000000723Snoopy Mobile ( 5 )Thi YANGONNGKUUN  MMR11008140710480565210814000000000000000   10300001F00104100000000096000000000000000     
100   62443100323428970000000000029084000000029084002000000010410408131137210018273601080813222518001827   1030000500030000   541120226810000045411202268CITY MART WAIZAYANDA   PTN           MMR11008131137210018270813000000000000000   10300001 00104100000000007271000000000000     
100   62911028202471860000000000150000000000150000002000000010410408130838350015284773800813000360950055   1030000300030000   541100002341000000000000102CB BANK                MAKRO MYANMAR MMR11008130838350015280813000000000000000   10300001F00104100000000009000000000000000     
100   62443100300792360000000000022200000000022200002000000010410408131103020026802892740813222517002680   1030000500030000   541120227503000045411202275CITY MART (AHLONE BRAN PTN           MMR11008131103020026800813000000000000000   10300001 00104100000000005550000000000000     
100   62911028202328810000000000008300000000008300002000000010410408130547570049324773800813222512004932   1030000500030000   541120226809000045411202268CITY MART WAIZAYANDA   PTN           MMR11008130547570049320813000000000000000   10300001 00104100000000000498000000000000     
100   62911028202919290000000000091950000000091950002000000010410408131231430023264773800813222519002326   1030000500030000   531120226725000045311202267OCEAN NORTH POINT      PTN           MMR11008131231430023260813000000000000000   10300001 00104100000000005517000000000000     
100   62911028202328810000000000008250000000008250002000000010410408130554140057724773800813222512005772   1030000500030000   541120226812000045411202268CITY MART WAIZAYANDA   PTN           MMR11008130554140057720813000000000000000   10300001 00104100000000000495000000000000     
100   62911028202407100000000000075750000000075750002000000010410408131102090025504773800813000360971738   1030000300030000   541100002345000000000000102CB BANK                MAKRO MYANMAR MMR11008131102090025500813000000000000000   10300001F00104100000000004545000000000000     
100   95030308100042590000000000015600000000015600002000000010410408130622100035594773800813000360929599   1030000300030000   581400000692000000000000478CB BANK                KFC PARAMI SG MMR11008130622100035590813000000000000000   10300001F00104100000000000468000000000000     
100   62443100392426520000000000030000000000030000002000000010410408140912164216765519310814000007648997   1030000200030000   333800010001203104000003327KBZPay                 Yangon        MMR11008140912164216760814000000000000000   10300001F05104100000000006300000000000000     
100   95050311779172060000000000004600000000004600002000000010410408140750380575081264490814615201438225   1030000900030000   723019001054190110000000857Beauty Diary JC        YANGONN       MMR11008140750380575080814000000000000000   10300001F00104100000000001104000000000000     
100   95050313710136610000000000002970000000002970002000000010410408141429415941169729480814000007650022   1020000200030000   333400010001204104000000281Myanmar Soft-Gate Tech Yangon        MMR11008141429415941160814000000000000000   10300001F05104100000000000624000000000000     
100   95050325784857510000000000005200000000005200002000000010410408130417280039623942940813222510003962   1030000500030000   541120227604000045411202276CITY MART ( 47 BRANCH  PTN           MMR11008130417280039620813000000000000000   10300001 00104100000000001300000000000000     
100   62443101065883000000000000152665000000152665002000000010410408131635100267714233880813000751922337   1030000200030000   541188001007000008000000008KBZ BANK               MARKETPLACE - MMR11008131635100267710813000000000000000   10300001 00104100000000038167000000000000     
100   62911028202472440000000000197613000000197613002000000010410408131110370267444773800813000751905088   1030000200030000   541188001007000008000000008KBZ BANK               MARKETPLACE - MMR11008131110370267440813000000000000000   10300001 00104100000000011857000000000000     
100   62443100309698080000000000055750000000055750002000000010410408130858416152583978590813222515615258   1040001600030000   581420000076000000010000074Hot Pot City Ahlone    Yangon        MMR11008130858416152580813000000000000000   10300001F00104100000000006690000000000000     
100   62443100373945130000000000020000000000020000002000000010410408131142416301756650790813222518630175   1040001600030000   598320001061000000010000781Yangon Petrol (Yuzana) Ygn           MMR11008131142416301750813000000000000000   10300001F00104100000000002400000000000000     
100   62911028202472440000000000009000000000009000002000000010410408140522050538564773800814597521105225   1030000900030000   541119001257190110000000957City Mart JS City Care YANGONUT      MMR11008140522050538560814000000000000000   10300001F00104100000000000540000000000000     
100   62443100300792360000000000054450000000054450002000000010410408140303430051331050550814000751946934   1030000200030000   581288000098000008000003562KBZ BANK               CANTON PARADI MMR11008140303430051330814000000000000000   10300001 00104100000000023142000000000000     
100   95050325095525130000000000200000000000200000002000000010410408140331470147248497700814000007647794   1030000200030000   333800010001203104000003327KBZPay                 Yangon        MMR11008140331470147240814000000000000000   10300001F05104100000000042000000000000000     
100   62911028202151590000000000026290000000026290002000000010410408141016150193114773800814000751949232   1030000200030000   541188001056000008000000314KBZ BANK               MARKETPLACE - MMR11008141016150193110814000000000000000   10300001 00104100000000001577000000000000     
100   62911028202530930000000000089691000000089691002000000010410408141813570079934773800814000751973400   1030000200030000   541188001005000008000000008KBZ BANK               MARKETPLACE - MMR11008141813570079930814000000000000000   10300001 00104100000000005382000000000000     
100   62911028202027440000000000064835000000064835002000000010410408141729320279054773800814000751971125   1030000200030000   541188001037000008000000010KBZ BANK               MARKETPLACE - MMR11008141729320279050814000000000000000   10300001 00104100000000003890000000000000     
100   95030351849812630000000000022750000000022750002000000010410408140443460529324773800814086131146225   1030000900030000   541119000123190110000000080Sein Gay Har BAK       YANGON        MMR11008140443460529320814000000000000000   10300001F00104100000000001365000000000000     
100   95030302100000550000000000429500000000429500002000000010410408141239550171334773800814000751956130   1030000200030000   541188001002000008000000008KBZ BANK               MARKETPLACE - MMR11008141239550171330814000000000000000   10300001 00104100000000025770000000000000     
100   62911028202027440000000000037423000000037423002000000010410408140002300475114773800814788320630225   1030000900030000   554119001103190110000000215New Day Energy MYG     YANGONONE     MMR11008140002300475110814000000000000000   10300001F00104100000000001123000000000000     
100   62443100300792360000000000083600000000083600002000000010410408141128470040198283770814000751952791   1030000200030000   541188001077000008000000294KBZ BANK               CITY MART - J MMR11008141128470040190814000000000000000   10300001 00104100000000020900000000000000     
100   95050318134586070000000000005500000000005500002000000010410408141904320120547396230814000751975560   1030000200030000   541188001313000008000000306KBZ BANK               CITY MART - S MMR11008141904320120540814000000000000000   10300001 00104100000000001375000000000000     
100   62911028202166940000000000112469000000112469002000000010410408141346030156894773800814000751959590   1030000200030000   541188001127000008000000296KBZ BANK               CITY MART - J MMR11008141346030156890814000000000000000   10300001 00104100000000006748000000000000     
100   62911028202404050000000000061600000000061600002000000010410408140304210505584773800814859340921225   1030000900030000   541119001250190110000000955City Mart JS C 9       YANGONUT      MMR11008140304210505580814000000000000000   10300001F00104100000000003696000000000000     
100   62911028202473840000000000603600000000603600002000000010410408140414370049024773800814222610004902   1020000200030000   806200105002300018062000010MWD BANK               YGN           MMR11008140414370049020814000000000000000   10300001 00104100000000036216000000000000     
100   62911028202136750000000000197548000000197548002000000010410408141441130126844773800814000751962208   1030000200030000   541188001006000008000000008KBZ BANK               MARKETPLACE - MMR11008141441130126840814000000000000000   10300001 00104100000000011853000000000000     
100   95050324247403260000000000005734000000005734002000000010410408141824430205802608970814000751973856   1030000200030000   541188001124000008000000296KBZ BANK               CITY MART - J MMR11008141824430205800814000000000000000   10300001 00104100000000001434000000000000     
100   62911028202527490000000000024000000000024000002000000010410408140335560511824773800814143051056225   1030000900030000   554119000997190110000000803Puma Power SOKL        YANGONOKKALAP MMR11008140335560511820814000000000000000   10300001F00104100000000000720000000000000     
100   95050311779172060000000000004700000000004700002000000010410408141307270079667577750814000751957440   1030000200030000   541188001066000008000000314KBZ BANK               MARKETPLACE - MMR11008141307270079660814000000000000000   10300001 00104100000000001175000000000000     
100   62911028202136750000000000034900000000034900002000000010410408141453580265404773800814000751962847   1030000200030000   541188001017000008000000008KBZ BANK               MARKETPLACE - MMR11008141453580265400814000000000000000   10300001 00104100000000002094000000000000     
100   62911028202154800000000000032450000000032450002000000010410408141719320253514773800814000751970540   1030000200030000   541188001054000008000000314KBZ BANK               MARKETPLACE - MMR11008141719320253510814000000000000000   10300001 00104100000000001947000000000000     
100   95050322295410690000000000065000000000065000002000000010410408140338140512255448000814164081014225   1030000900030000   554119001103190110000000215New Day Energy MYG     YANGONONE     MMR11008140338140512250814000000000000000   10300001F00104100000000007800000000000000     
100   62911028202473430000000000006800000000006800002000000010410408140431120526064773800814902011112225   1030000900030000   541119000126190110000000082Sein Gay Har Super Cen YANGON        MMR11008140431120526060814000000000000000   10300001F00104100000000000408000000000000     
100   62911028202207610000000000008900000000008900002000000010410408141031400056884773800814000751949979   1030000200030000   541188001079000008000000294KBZ BANK               CITY MART - J MMR11008141031400056880814000000000000000   10300001 00104100000000000534000000000000     
100   62911028202611530000000000016100000000016100002000000010410408141021170205934773800814000751949497   1030000200030000   541188001305000008000000325KBZ BANK               CITY MART - A MMR11008141021170205930814000000000000000   10300001 00104100000000000966000000000000     
100   95050319996628650000000000000990000000000990002000000010410408140532160216618212460814000007648240   1020000200030000   333400010001204104000000281Myanmar Soft-Gate Tech Yangon        MMR11008140532160216610814000000000000000   10300001F05104100000000000208000000000000     
100   95050324104751500000000000079650000000079650002000000010410408140412140520257504120814579421014225   1030000900030000   541119001206190110000000948City Mart YK C 4       YANGONAUNG    MMR11008140412140520250814000000000000000   10300001F00104100000000019913000000000000     
100   62911028202472440000000000181961000000181961002000000010410408140538590542314773800814804081259225   1030000900030000   541119001250190110000000955City Mart JS C 9       YANGONUT      MMR11008140538590542310814000000000000000   10300001F00104100000000010918000000000000     
100   95030301100120850000000000011550000000011550002000000010410408141656240193534773800814000751969329   1030000200030000   541188001056000008000000314KBZ BANK               MARKETPLACE - MMR11008141656240193530814000000000000000   10300001 00104100000000000693000000000000     
100   62911028202502480000000000016500000000016500002000000010410408141238010212874773800814000751956043   1030000200030000   541188001049000008000000010KBZ BANK               MARKETPLACE - MMR11008141238010212870814000000000000000   10300001 00104100000000000990000000000000     
100   62911028202502480000000000004800000000004800002000000010410408141231340401684773800814000751955796   1030000200030000   541188001041000008000000010KBZ BANK               MARKETPLACE - MMR11008141231340401680814000000000000000   10300001 00104100000000000288000000000000     
100   62443100383487320000000000054913000000054913002000000010410408141608280079833391880814000751966751   1030000200030000   541188001005000008000000008KBZ BANK               MARKETPLACE - MMR11008141608280079830814000000000000000   10300001 00104100000000013729000000000000     
100   62911028202217020000000000006900000000006900002000000010410408140337220512154773800814158071022225   1030000900030000   541119000118190110000000079Sein Kaung Store       YANGONAW      MMR11008140337220512150814000000000000000   10300001F00104100000000000414000000000000     
100   62443100300792360000000000027900000000027900002000000010410408141130400053631333430814000751952882   1030000200030000   541188001085000008000000294KBZ BANK               CITY MART - J MMR11008141130400053630814000000000000000   10300001 00104100000000006975000000000000     
100   62911028202503390000000000014350000000014350002000000010410408141117490074604773800814000751952146   1030000200030000   541188001021000008000000298KBZ BANK               CITY MART - M MMR11008141117490074600814000000000000000   10300001 00104100000000000861000000000000     
100   95050312728902740000000000006577000000006577002000000010410408141550110145513320570814000751965700   1030000200030000   541188001022000008000000298KBZ BANK               CITY MART - M MMR11008141550110145510814000000000000000   10300001 00104100000000001645000000000000     
100   62443100318296470000000000059500000000059500002000000010410408140842560190163033040814000751945335   1030000200030000   541188001023000008000000298KBZ BANK               CITY MART - M MMR11008140842560190160814000000000000000   10300001 00104100000000014875000000000000     
100   62911028202222620000000000021700000000021700002000000010410408140200170493654773800814385300817225   1030000900030000   541119000112190110000000077Sein Gay Har Chinatown YANGON        MMR11008140200170493650814000000000000000   10300001F00104100000000001302000000000000     
100   95050324104751500000000000016400000000016400002000000010410408140421250523329134730814749511025225   1030000900030000   541119001206190110000000948City Mart YK C 4       YANGONAUNG    MMR11008140421250523320814000000000000000   10300001F00104100000000004100000000000000     
100   62911028202217020000000000020000000000020000002000000010410408140942280602684773800814169121628225   1030000900030000   541119000113190110000000077Sein Gay Har Chinatown YANGON        MMR11008140942280602680814000000000000000   10300001F00104100000000001200000000000000     
100   95050314557307430000000000002970000000002970002000000010410408141146441644209218910814000007649457   1020000200030000   333400010001204104000000281Myanmar Soft-Gate Tech Yangon        MMR11008141146441644200814000000000000000   10300001F05104100000000000624000000000000     
100   62443100355903280000000000001980000000001980002000000010410408141214424442450616100814000007649553   1020000200030000   333400010001204104000000281Myanmar Soft-Gate Tech Yangon        MMR11008141214424442450814000000000000000   10300001F05104100000000000416000000000000     
100   95050313817486860000000000004950000000004950002000000010410408140423345334134028950814000007647978   1020000200030000   333400010001204104000000281Myanmar Soft-Gate Tech Yangon        MMR11008140423345334130814000000000000000   10300001F05104100000000001040000000000000     
100   95030306100096490000000000000990000000000990002000000010410408141128205820434773800814000007649391   1020000200030000   333400010001204104000000281Myanmar Soft-Gate Tech Yangon        MMR11008141128205820430814000000000000000   10300001F05104100000000000208000000000000     
100   95050318741700180000000000002970000000002970002000000010410408141428215821851381970814000007650015   1020000200030000   333400010001204104000000281Myanmar Soft-Gate Tech Yangon        MMR11008141428215821850814000000000000000   10300001F05104100000000000624000000000000     
100   95050324657517450000000000042500000000042500002000000010410408140621080551997152290814329511208225   1030000900030000   541119000148190110000000083SeinGayHarParami Cente YANGON        MMR11008140621080551990814000000000000000   10300001F00104100000000010625000000000000     
100   62911028202294570000000000126000000000126000002000000010410408140711420565454773800814081411342225   1030000900030000   541119001512190110000001102Ocean MGDTM C-5        YANGONADON    MMR11008140711420565450814000000000000000   10300001F00104100000000007560000000000000     
100   95050326511614440000000000027000000000027000002000000010410408140829280585176512900814195591428225   1030000900030000   723019001054190110000000857Beauty Diary JC        YANGONN       MMR11008140829280585170814000000000000000   10300001F00104100000000006480000000000000     
100   95050324800108530000000000017250000000017250002000000010410408140915570595690696400814750451557225   1030000900030000   541119001298190110000000968Ocean Mingalar MDY C 6 MANDALAYHARSI MMR11008140915570595690814000000000000000   10300001F00104100000000004313000000000000     
100   95050318057347910000000000050000000000050000002000000010410408140458572857224808560814000007648114   1030000200030000   3338000100012031040000040022C2P (Myanmar) Co. Ltd Yangon        MMR11008140458572857220814000000000000000   10300001F05104100000000010500000000000000     
100   95030301100102610000000000030000000000030000002000000010410408141013084308464773800814000007649179   1030000200030000   333800010001203104000003327KBZPay                 Yangon        MMR11008141013084308460814000000000000000   10300001F05104100000000006300000000000000     
100   95050313411345710000000000016000000000016000002000000010410408141311254125524601840814000007649762   1030000200030000   3338000100012031040000040022C2P (Myanmar) Co. Ltd Yangon        MMR11008141311254125520814000000000000000   10300001F05104100000000003360000000000000     
100   95050323233042810000000000000990000000000990002000000010410408140521125112160765350814000007648209   1020000200030000   333400010001204104000000281Myanmar Soft-Gate Tech Yangon        MMR11008140521125112160814000000000000000   10300001F05104100000000000208000000000000     
100   95050324657517450000000000055000000000055000002000000010410408140602430547818428720814107321243225   1030000900030000   541119000152190110000000083SeinGayHarParami Cente YANGON        MMR11008140602430547810814000000000000000   10300001F00104100000000013750000000000000     
100   62911028202465350000000000020600000000020600002000000010410408141209420640604773800814468391842225   1030000900030000   591219000970190110000000777Shwe Ohh Pharmacy St ( YANGONAW      MMR11008141209420640600814000000000000000   10300001F00104100000000001236000000000000     
100   95030317922148660000000000030000000000030000002000000010410408140813420581034773800814952431442225   1030000900030000   554119001103190110000000215New Day Energy MYG     YANGONONE     MMR11008140813420581030814000000000000000   10300001F00104100000000000900000000000000     
100   95050315166583130000000000050000000000050000002000000010410408140037220722369629140814000007647470   1030000200030000   333800010001203104000003327KBZPay                 Yangon        MMR11008140037220722360814000000000000000   10300001F05104100000000010500000000000000     
100   95050318141561190000000000010000000000010000002000000010410408140242351235314309460814000007647670   1040001600030000   333800010001220104000004507A +                    Yangon        MMR11008140242351235310814000000000000000   10300001F05104100000000002100000000000000     
100   95030301100128610000000000300000000000300000002000000010410408140701273127404773800814000007648525   1030000200030000   333800010001203104000003327KBZPay                 Yangon        MMR11008140701273127400814000000000000000   10300001F05104100000000063000000000000000     
100   62911028202472440000000000009600000000009600002000000010410408140523490538804773800814606531149225   1030000900030000   541119001257190110000000957City Mart JS City Care YANGONUT      MMR11008140523490538800814000000000000000   10300001F00104100000000000576000000000000     
100   95050324657517450000000000037950000000037950002000000010410408140559060546855379050814052291206225   1030000900030000   541119000152190110000000083SeinGayHarParami Cente YANGON        MMR11008140559060546850814000000000000000   10300001F00104100000000009488000000000000     
100   95030301100126550000000000081900000000081900002000000010410408140751490575434773800814636211449225   1030000900030000   541119000138190110000000083SeinGayHarParami Cente YANGON        MMR11008140751490575430814000000000000000   10300001F00104100000000004914000000000000     
100   95050319532433550000000000020120000000020120002000000010410408141354052405224686940814000007649910   1030000200030000   333800010001203104000003327KBZPay                 Yangon        MMR11008141354052405220814000000000000000   10300001F05104100000000004225000000000000     
100   62443100371022130000000000041600000000041600002000000010410408140458086836623957640814222611683662   1040001600030000   598320000911000000010000662MMTM - Tamwe           Ygn           MMR11008140458086836620814000000000000000   10300001F00104100000000004992000000000000     
100   95050312539675540000000000000990000000000990002000000010410408141151422142870956490814000007649471   1020000200030000   333400010001204104000000281Myanmar Soft-Gate Tech Yangon        MMR11008141151422142870814000000000000000   10300001F05104100000000000208000000000000     
100   62911028202924480000000000002200000000002200002000000010410408140704210563674773800814979341321225   1030000900030000   541119001509190110000001102Ocean MGDTM-C 2        YANGONADON    MMR11008140704210563670814000000000000000   10300001F00104100000000000132000000000000     
100   62911028202793040000000000005000000000005000002000000010410408141437480748074773800814000007650046   1030000200030000   3334000100012031040000040102C2P (Myanmar) Co. Ltd Yangon        MMR11008141437480748070814000000000000000   10300001F05104100000000001050000000000000     
100   95050319928585020000000000000990000000000990002000000010410408140418134813760553780814000007647950   1020000200030000   333400010001204104000000281Myanmar Soft-Gate Tech Yangon        MMR11008140418134813760814000000000000000   10300001F05104100000000000208000000000000     
100   95050324657517450000000000160000000000160000002000000010410408140830040001843037690814000751963122   1030000200030000   599988002205000008000005868KBZ BANK               GOLDEN CURL B MMR11008140830040001840814000000000000000   10300001 00104100000000038400000000000000     
100   62443100300792360000000000019040000000019040002000000010410408141128310022464176360814000751972657   1030000200030000   806281231112000008000001642KBZ BANK               ASIA ROYAL HO MMR11008141128310022460814000000000000000   10300001 00104100000000004570000000000000     
100   62911028202136750000000000030000000000030000002000000010410408141443460028144773800814000751962337   1030000200030000   541188001011000008000000008KBZ BANK               MARKETPLACE - MMR11008141443460028140814000000000000000   10300001 00104100000000001800000000000000     
100   62911028202136750000000000170000000000170000002000000010410408141445170028154773800814000751962403   1030000200030000   541188001011000008000000008KBZ BANK               MARKETPLACE - MMR11008141445170028150814000000000000000   10300001 00104100000000010200000000000000     
100   62443101023815100000000000060500000000060500002000000010410408141854040021967311140814000751975172   1030000200030000   541188001010000008000000008KBZ BANK               MARKETPLACE - MMR11008141854040021960814000000000000000   10300001 00104100000000015125000000000000     
100   62911028202290100000000000039400000000039400002000000010410408141528530010324773800814000751964518   1030000200030000   541188001082000008000000294KBZ BANK               CITY MART - J MMR11008141528530010320814000000000000000   10300001 00104100000000002364000000000000     
100   62911028202404050000000000012800000000012800002000000010410408140254450014764773800814000751946556   1030000200030000   569988000780000008000004535KBZ BANK               JSQ-TFS       MMR11008140254450014760814000000000000000   10300001 00104100000000000768000000000000     
100   95050326028605570000000000106152000000106152002000000010410408140945190029358072200814000751947514   1030000200030000   541188001481000008000000399KBZ BANK               OCEAN SUPERCE MMR11008140945190029350814000000000000000   10300001 00104100000000026538000000000000     
100   95050313702988830000000000002970000000002970002000000010410408141128365836342523880814000007649392   1020000200030000   333400010001204104000000281Myanmar Soft-Gate Tech Yangon        MMR11008141128365836340814000000000000000   10300001F05104100000000000624000000000000     
100   95050324250133010000000000110000000000110000002000000010410408140124586713717004980814222608671371   1040001600030000   598320000911000000010000662MMTM - Tamwe           Ygn           MMR11008140124586713710814000000000000000   10300001F00104100000000013200000000000000     
100   95050318141561190000000000010000000000010000002000000010410408141256532653380786300814000007649708   1040001600030000   333800010001220104000004507A +                    Yangon        MMR11008141256532653380814000000000000000   10300001F05104100000000002100000000000000     
100   95050312358501180000000000070440000000070440002000000010410408140156526729403812690814222608672940   1040001600030000   806220001355000000010001061Grand Hantha Internati Ygn           MMR11008140156526729400814000000000000000   10300001F00104100000000016906000000000000     
100   95050324657517450000000000055000000000055000002000000010410408140601160547338854220814075311216225   1030000900030000   541119000152190110000000083SeinGayHarParami Cente YANGON        MMR11008140601160547330814000000000000000   10300001F00104100000000013750000000000000     
100   95050312224678430000000000001980000000001980002000000010410408140251052105538210090814000007647693   1020000200030000   333400010001204104000000281Myanmar Soft-Gate Tech Yangon        MMR11008140251052105530814000000000000000   10300001F05104100000000000416000000000000     
100   62443100330105920000000000100000000000100000002000000010410408141124005400151928200814000007649374   1030000200030000   333800010001203104000003327KBZPay                 Yangon        MMR11008141124005400150814000000000000000   10300001F05104100000000021000000000000000     
100   95050324005082180000000000045950000000045950002000000010410408140720330567531335800814193501333225   1030000900030000   729819000218190110000000118Cherish Beauty Collect YANGONUNG     MMR11008140720330567530814000000000000000   10300001F00104100000000011028000000000000     
100   62443100300792360000000000065000000000065000002000000010410408141111540022448538140814000751971820   1030000200030000   806281231112000008000001642KBZ BANK               ASIA ROYAL HO MMR11008141111540022440814000000000000000   10300001 00104100000000015600000000000000     
100   95050311736839760000000000070000000000070000002000000010410408141103490025355148070814000751971335   1030000200030000   599988000602000008000003445KBZ BANK               SWEETY HOME ( MMR11008141103490025350814000000000000000   10300001 00104100000000016800000000000000     
100   95050324411430900000000000033503000000033503002000000010410408131148400007221402380813222518000722   1030000500030000   598320001201000015172200012MAX ENERGY             PTN           MMR11008131148400007220813000000000000000   10300001 00104100000000004020000000000000     
100   62911028202442410000000000316800000000316800002000000010410408130606330000404773800813222512000040   1030000500030000   531120201701000085311202017STJ C&K                PTN           MMR11008130606330000400813000000000000000   10300001 00104100000000019008000000000000     
100   95050316901496590000000000003800000000003800002000000010410408131146080001300551460813222518000130   1030000500030000   541120045801009205411200458126 STORE              PTN           MMR11008131146080001300813000000000000000   10300001 00104100000000000950000000000000     
100   62911028202499350000000000004800000000004800002000000010410408130647210006324773800813000360933364   1030000300030000   581400001673000000000001195CB BANK                SHWEPALIN SAN MMR11008130647210006320813000000000000000   10300001F00104100000000000144000000000000     
100   95050319286546940000000000038600000000038600002000000010410408130457540012656446380813222511001265   1030000500030000   541120230103000045411202301CITY MART SUPERMARKET  PTN           MMR11008130457540012650813000000000000000   10300001 00104100000000009650000000000000     
100   62911028202310160000000000008624000000008624002000000010410408131218460000184773800813222518000018   1030000500030000   531120155716000045311201557GAMONE PWINT           PTN           MMR11008131218460000180813000000000000000   10300001 00104100000000000517000000000000     
100   95050310332595380000000000000990000000000990002000000010410408140345431543506298960814000007647844   1020000200030000   333400010001204104000000281Myanmar Soft-Gate Tech Yangon        MMR11008140345431543500814000000000000000   10300001F05104100000000000208000000000000     
100   95050310332595380000000000000990000000000990002000000010410408140748511851172683540814000007648676   1020000200030000   333400010001204104000000281Myanmar Soft-Gate Tech Yangon        MMR11008140748511851170814000000000000000   10300001F05104100000000000208000000000000     
100   95030306100096490000000000000990000000000990002000000010410408140654382438374773800814000007648501   1020000200030000   333400010001204104000000281Myanmar Soft-Gate Tech Yangon        MMR11008140654382438370814000000000000000   10300001F05104100000000000208000000000000     
100   95050314302558730000000000002970000000002970002000000010410408141257002700389133810814000007649715   1020000200030000   333400010001204104000000281Myanmar Soft-Gate Tech Yangon        MMR11008141257002700380814000000000000000   10300001F05104100000000000624000000000000     
100   95050327531396450000000000010000000000010000002000000010410408140221455145656082660814000007647637   1030000200030000   333800010001203104000003327KBZPay                 Yangon        MMR11008140221455145650814000000000000000   10300001F05104100000000002100000000000000     
100   95050324200302760000000000006550000000006550002000000010410408140638130556700627460814592081313225   1030000900030000   541119001207190110000000948City Mart YK C 5       YANGONAUNG    MMR11008140638130556700814000000000000000   10300001F00104100000000001638000000000000     
100   95050311077567400000000000007050000000007050002000000010410408140931060599507221240814967011606225   1030000900030000   541119000142190110000000083SeinGayHarParami Cente YANGON        MMR11008140931060599500814000000000000000   10300001F00104100000000001763000000000000     
100   95050314064416890000000000001980000000001980002000000010410408141308543854109644390814000007649754   1020000200030000   333400010001204104000000281Myanmar Soft-Gate Tech Yangon        MMR11008141308543854100814000000000000000   10300001F05104100000000000416000000000000     
100   62911028202169750000000000026000000000026000002000000010410408130348430006974773800813222510000697   1030000500030000   598320001304000015172200013MAX ENERGY             PTN           MMR11008130348430006970813000000000000000   10300001 00104100000000000780000000000000     
100   95050312878706670000000000008000000000008000002000000010410408130608430007261560240813000360927613   1030000300030000   531100000598000000000000408CB BANK                CAPITAL HYPER MMR11008130608430007260813000000000000000   10300001F00104100000000001920000000000000     
100   62911028202260400000000000086500000000086500002000000010410408130733220002374773800813222514000237   1030000500030000   599520213801000085995202138NPT PET MART GROUP     PTN           MMR11008130733220002370813000000000000000   10300001 00104100000000005190000000000000     
100   62443100344229520000000000021750000000021750002000000010410408130621450002374950300813222512000237   1030000500030000   581220024401000015812200244SHWE LAR HOT POT       PTN           MMR11008130621450002370813000000000000000   10300001 00104100000000009244000000000000     
100   62911028202924480000000000012300000000012300002000000010410408130625290002774773800813000360930089   1030000300030000   581200002467000000000001664CB BANK                URBAN KITCHEN MMR11008130625290002770813000000000000000   10300001F00104100000000001255000000000000     
100   62911028202698670000000000016000000000016000002000000010410408130955240004944773800813222516000494   1030000500030000   541120020902022205411200209ORANGE (HLAING)        PTN           MMR11008130955240004940813000000000000000   10300001 00104100000000000960000000000000     
100   62911028202417260000000000010200000000010200002000000010410408130810330004664773800813222514000466   1030000500030000   581220264001000085812202640BREAD TALK             PTN           MMR11008130810330004660813000000000000000   10300001 00104100000000001040000000000000     
100   95050312878706670000000000022200000000022200002000000010410408130705210001133553110813000360936032   1030000300030000   531100000609000000000000408CB BANK                CAPITAL HYPER MMR11008130705210001130813000000000000000   10300001F00104100000000005328000000000000     
100   95050324657517450000000000008500000000008500002000000010410408140707470564493534500814025371347225   1030000900030000   541119000137190110000000083SeinGayHarParami Cente YANGON        MMR11008140707470564490814000000000000000   10300001F00104100000000002125000000000000     
100   95050318617855880000000000001980000000001980002000000010410408140638040804131052920814000007648443   1020000200030000   333400010001204104000000281Myanmar Soft-Gate Tech Yangon        MMR11008140638040804130814000000000000000   10300001F05104100000000000416000000000000     
100   95050319161596230000000000001980000000001980002000000010410408141305103510591296870814000007649739   1020000200030000   333400010001204104000000281Myanmar Soft-Gate Tech Yangon        MMR11008141305103510590814000000000000000   10300001F05104100000000000416000000000000     
100   95050317084233280000000000001980000000001980002000000010410408141211044104927651520814000007649544   1020000200030000   333400010001204104000000281Myanmar Soft-Gate Tech Yangon        MMR11008141211044104920814000000000000000   10300001F05104100000000000416000000000000     
100   62911028202280200000000000043650000000043650002000000010410408140954110605544773800814335241611225   1030000900030000   541119001077190110000000872Sein Gay Har Hledan    YANGONUT      MMR11008140954110605540814000000000000000   10300001F00104100000000002619000000000000     
100   95050315066440750000000000011100000000011100002000000010410408141038320617378878520814049081732225   1030000900030000   541119001264190110000000958City Mart PLST C 7     YANGONMYOTHIT MMR11008141038320617370814000000000000000   10300001F00104100000000002775000000000000     
100   95050310427855490000000000000990000000000990002000000010410408141606493649599814580814000007650308   1020000200030000   333400010001204104000000281Myanmar Soft-Gate Tech Yangon        MMR11008141606493649590814000000000000000   10300001F05104100000000000208000000000000     
100   95050313710136610000000000002970000000002970002000000010410408141420475047026424520814000007649988   1020000200030000   333400010001204104000000281Myanmar Soft-Gate Tech Yangon        MMR11008141420475047020814000000000000000   10300001F05104100000000000624000000000000     
