100   95030310098554020000000000004200000000004200002000000010410408110744370028304773800811222314002830   1030000500030000   531120226331000045311202263OCEAN SUPER CENTER STJ PTN           MMR11008110744370028300811000000000000000   10300001 00104100000000000252000000000000     
100   62443100392773440000000000117602000000117602002000000010410408110555530037061043940811222312003706   1030000500030000   531120226314000045311202263OCEAN SUPER CENTER STJ PTN           MMR11008110555530037060811000000000000000   10300001 00104100000000028224000000000000     
100   62911028202284910000000000060000000000060000002000000010410408110555110404604773800811222305040460   1030000600030000   554100002085315799420000471DENKO BAHAN            YANGON        MMR11008110555110404600811000000000000000   10300001 00104100000000001800000000000000     
100   62443100302523870000000000040000000000040000002000000010410408102300370222096215090811222323022209   1030000600030000   554100002324315799420000481DENKO NORTH OKKALAPA   YANGON        MMR11008102300370222090811000000000000000   10300001 00104100000000004800000000000000     
100   62911028202204070000000000054000000000054000002000000010410408110424410124934773800811222304012493   1030000600030000   554100002321315799420000502DENKO DAGON HARBOUR    YANGON        MMR11008110424410124930811000000000000000   10300001 00104100000000001620000000000000     
100   62911028202291190000000000008000000000008000002000000010410408110913290036094773800811222315003609   1030000500030000   531120226310000045311202263OCEAN SUPER CENTER STJ PTN           MMR11008110913290036090811000000000000000   10300001 00104100000000000480000000000000     
100   62911028202919290000000000040000000000040000002000000010410408110101320593904773800811222301059390   1030000600030000   554100000969315799420000481DENKO NORTH OKKALAPA   YANGON        MMR11008110101320593900811000000000000000   10300001 00104100000000001200000000000000     
100   62443100345353730000000000070000000000070000002000000010410408110308170095655930090811222303009565   1030000600030000   554100002139315799420001488DENKO MDY-12           MANDALAY      MMR11008110308170095650811000000000000000   10300001 00104100000000008400000000000000     
100   62911028202598430000000000110000000000110000002000000010410408102350020403684773800811222323040368   1030000600030000   554100002085315799420000471DENKO BAHAN            YANGON        MMR11008102350020403680811000000000000000   10300001 00104100000000003300000000000000     
100   95050329352979980000000000030000000000030000002000000010410408110622470437133036810811222306043713   1030000600030000   554100001155315799420000607DENKO NPT 1            NAYPYITAW.    MMR11008110622470437130811000000000000000   10300001 00104100000000003600000000000000     
100   62911028202470870000000000019500000000019500002000000010410408110450320033704773800811222311003370   1030000500030000   541120203706000015411202037CITY MART SUPERMARKET  PTN           MMR11008110450320033700811000000000000000   10300001 00104100000000001170000000000000     
100   62911028202471860000000000080000000000080000002000000010410408110812404433294773800811222315443329   1040001600030000   598320000856000000010000609Terminal Petrol Statio Yangon        MMR11008110812404433290811000000000000000   10300001F00104100000000002400000000000000     
100   62911028202169750000000000083276000000083276002000000010410408110850024452984773800811222315445298   1040001600030000   541120000555000000010000465Ocean Shwe Gone Daing  Yangon        MMR11008110850024452980811000000000000000   10300001F00104100000000004997000000000000     
100   95050318741700180000000000005700000000005700002000000010410408101022030021643470150810222210002164   1030000600030000   5499000022293157994200015671 STOP S M BOGYOKE RD  YANGON        MMR11008101022030021640810000000000000000   10300001 00104100000000002423000000000000     
100   62911028202291190000000000025521000000025521002000000010410408110939530032414773800811222316003241   1030000500030000   531120226317000045311202263OCEAN SUPER CENTER STJ PTN           MMR11008110939530032410811000000000000000   10300001 00104100000000001531000000000000     
100   62443100315853220000000000172200000000172200002000000010410408121050120022053574970812000751846686   1030000200030000   541188001496000008000000399KBZ BANK               OCEAN SUPERCE MMR11008121050120022050812000000000000000   10300001 00104100000000043050000000000000     
100   95050310283518110000000000008000000000008000002000000010410408121706210060997212250812000751879591   1030000200030000   541188001440000008000000401KBZ BANK               OCEAN SUPERCE MMR11008121706210060990812000000000000000   10300001 00104100000000002000000000000000     
100   95050310283518110000000000007000000000007000002000000010410408121707500061008864730812000751879659   1030000200030000   541188001440000008000000401KBZ BANK               OCEAN SUPERCE MMR11008121707500061000812000000000000000   10300001 00104100000000001750000000000000     
100   62911028202313470000000000104934000000104934002000000010410408121054210097174773800812700241721223   1030000900030000   541119001357190110000000977Ocean PZD C 11         YANGONAUNG    MMR11008121054210097170812000000000000000   10300001F00104100000000006296000000000000     
100   62911028202238150000000000086396000000086396002000000010410408121057060078064773800812000751847319   1030000200030000   541188001005000008000000008KBZ BANK               MARKETPLACE - MMR11008121057060078060812000000000000000   10300001 00104100000000005184000000000000     
100   95050326198165350000000000006000000000006000002000000010410408121109270101392680280812915391727223   1030000900030000   541119001249190110000000955City Mart JS C 8       YANGONUT      MMR11008121109270101390812000000000000000   10300001F00104100000000001500000000000000     
100   62911028202474000000000000001300000000001300002000000010410408120706260032604773800812498361326223   1030000900030000   541119001256190110000000957City Mart JS City Care YANGONUT      MMR11008120706260032600812000000000000000   10300001F00104100000000000078000000000000     
100   62911028202909050000000000009500000000009500002000000010410408121054470097314773800812707241747223   1030000900030000   541119001074190110000000872Sein Gay Har Hledan    YANGONUT      MMR11008121054470097310812000000000000000   10300001F00104100000000000570000000000000     
100   62911028202328810000000000300000000000300000002000000010410408121155180023324773800812000751883555   1030000200030000   799381230914000008000001007KBZ BANK               ALIBABA AMUSE MMR11008121155180023320812000000000000000   10300001 00104100000000018000000000000000     
100   62443100315853220000000000120650000000120650002000000010410408121041040022856284260812000751845865   1030000200030000   541188001485000008000000399KBZ BANK               OCEAN SUPERCE MMR11008121041040022850812000000000000000   10300001 00104100000000030163000000000000     
100   62443100315853220000000000078670000000078670002000000010410408121043540022868021840812000751846123   1030000200030000   541188001485000008000000399KBZ BANK               OCEAN SUPERCE MMR11008121043540022860812000000000000000   10300001 00104100000000019668000000000000     
100   95050312554086980000000000011000000000011000002000000010410408121305300055993100050812000751860721   1030000200030000   541188001079000008000000294KBZ BANK               CITY MART - J MMR11008121305300055990812000000000000000   10300001 00104100000000002750000000000000     
100   62911028202474000000000000005900000000005900002000000010410408120913330066804773800812159431533223   1030000900030000   591219001405190110000001009Life Plus Store 8      YANGONUT      MMR11008120913330066800812000000000000000   10300001F00104100000000000354000000000000     
100   62911028202107540000000000026850000000026850002000000010410408121012070084314773800812019421607223   1030000900030000   541119001358190110000000977Ocean PZD C 12         YANGONAUNG    MMR11008121012070084310812000000000000000   10300001F00104100000000001611000000000000     
100   62443100300412100000000000021900000000021900002000000010410408121048210095367042060812601181721223   1030000900030000   591219000691190110000000522Shwe Ohh Pharmacy ST-1 YANGONUNG     MMR11008121048210095360812000000000000000   10300001F00104100000000005256000000000000     
100   62911028202132460000000000019050000000019050002000000010410408121118220103844773800812040481722223   1030000900030000   541119001462190110000000077Sein Gay Har Chinatown YANGON        MMR11008121118220103840812000000000000000   10300001F00104100000000001143000000000000     
100   62911028202294730000000000026700000000026700002000000010410408121042410093794773800812523121741223   1030000900030000   541119000130190110000000082Sein Gay Har Super Cen YANGON        MMR11008121042410093790812000000000000000   10300001F00104100000000001602000000000000     
100   95050310213446310000000000001980000000001980002000000010410408121032480248135049180812000007642619   1020000200030000   333400010001204104000000281Myanmar Soft-Gate Tech Yangon        MMR11008121032480248130812000000000000000   10300001F05104100000000000416000000000000     
100   95030301100121270000000000024193000000024193002000000010410408121038460092604773800812464081746223   1030000900030000   541119001262190110000000958City Mart PLST C 5     YANGONMYOTHIT MMR11008121038460092600812000000000000000   10300001F00104100000000001452000000000000     
100   95050311168163370000000000009500000000009500002000000010410408121133010107634502950812239031801223   1030000900030000   541119001196190110000000942City Mart HDC C 11     YANGONUT      MMR11008121133010107630812000000000000000   10300001F00104100000000002375000000000000     
100   62443100317863910000000000091000000000091000002000000010410408120709250033373951010812538391325223   1030000900030000   554119000346190110000000213New Day Energy SOK     YANGONOKKALAP MMR11008120709250033370812000000000000000   10300001F00104100000000010920000000000000     
100   62911028202107540000000000010350000000010350002000000010410408120806050048534773800812276361405223   1030000900030000   541119001349190110000000977Ocean PZD C 3          YANGONAUNG    MMR11008120806050048530812000000000000000   10300001F00104100000000000621000000000000     
100   95050319391394380000000000007500000000007500002000000010410408121101200099092169700812800311720223   1030000900030000   541119000123190110000000080Sein Gay Har BAK       YANGON        MMR11008121101200099090812000000000000000   10300001F00104100000000001875000000000000     
100   95030301100119700000000000022380000000022380002000000010410408121525210112154773800812000751873674   1030000200030000   541188001314000008000000306KBZ BANK               CITY MART - S MMR11008121525210112150812000000000000000   10300001 00104100000000001343000000000000     
100   62911028202298040000000000022500000000022500002000000010410408120357285109054773800812222410510905   1040001600030000   591220000043000000010000041Mingalar Pharmacy      Yangon        MMR11008120357285109050812000000000000000   10300001F00104100000000001350000000000000     
100   62911028202445710000000000149700000000149700002000000010410408120833135302774773800812222415530277   1040001600030000   591220000287000000010000275Shwe Ohh Pharmacy (Wit Yangon        MMR11008120833135302770812000000000000000   10300001F00104100000000008982000000000000     
100   95050313396828960000000000000990000000000990002000000010410408111719214921719312080812000007636797   1020000200030000   333400010001204104000000281Myanmar Soft-Gate Tech Yangon        MMR11008111719214921710812000000000000000   10300001F05104100000000000208000000000000     
100   95050322954091830000000000005000000000005000002000000010410408121554462446352935570812000007643838   1030000200030000   3334000100012031040000040102C2P (Myanmar) Co. Ltd Yangon        MMR11008121554462446350812000000000000000   10300001F05104100000000001050000000000000     
100   95050313400081980000000000010000000000010000002000000010410408121155482548269120020812000007643014   1030000200030000   333800010001203104000003327KBZPay                 Yangon        MMR11008121155482548260812000000000000000   10300001F05104100000000002100000000000000     
100   95050310332595380000000000000990000000000990002000000010410408111720585058199397170812000007636802   1020000200030000   333400010001204104000000281Myanmar Soft-Gate Tech Yangon        MMR11008111720585058190812000000000000000   10300001F05104100000000000208000000000000     
100   62443100301716860000000000300000000000300000002000000010410408120343061306621071520812000007638300   1030000200030000   333800010001203104000003327KBZPay                 Yangon        MMR11008120343061306620812000000000000000   10300001F05104100000000063000000000000000     
100   62911028202593140000000000020900000000020900002000000010410408121422380285284773800812000751868345   1030000200030000   541188001001000008000000008KBZ BANK               MARKETPLACE - MMR11008121422380285280812000000000000000   10300001 00104100000000001254000000000000     
100   95050315701710960000000000001980000000001980002000000010410408120416284628963064390812000007638972   1020000200030000   333400010001204104000000281Myanmar Soft-Gate Tech Yangon        MMR11008120416284628960812000000000000000   10300001F05104100000000000416000000000000     
100   95050319753756490000000000100000000000100000002000000010410408121018014801209921540812000007642503   1030000200030000   333800010001203104000003327KBZPay                 Yangon        MMR11008121018014801200812000000000000000   10300001F05104100000000021000000000000000     
100   95030306100096490000000000001980000000001980002000000010410408121120335033584773800812000007642865   1020000200030000   333400010001204104000000281Myanmar Soft-Gate Tech Yangon        MMR11008121120335033580812000000000000000   10300001F05104100000000000416000000000000     
100   95050316321163940000000000030000000000030000002000000010410408120845181518284041820812000007641742   1030000200030000   333800010001203104000003327KBZPay                 Yangon        MMR11008120845181518280812000000000000000   10300001F05104100000000006300000000000000     
100   95050314292165140000000000028000000000028000002000000010410408120409573957462979300812000007638822   1030000200030000   3338000100012031040000040022C2P (Myanmar) Co. Ltd Yangon        MMR11008120409573957460812000000000000000   10300001F05104100000000005880000000000000     
100   62443100301716860000000000300000000000300000002000000010410408120344051405289419040812000007638328   1030000200030000   333800010001203104000003327KBZPay                 Yangon        MMR11008120344051405280812000000000000000   10300001F05104100000000063000000000000000     
100   95050312210363590000000000026000000000026000002000000010410408121317424742754758240812000007643331   1030000200030000   333800010001203104000003327KBZPay                 Yangon        MMR11008121317424742750812000000000000000   10300001F05104100000000005460000000000000     
100   95050314996291580000000000005000000000005000002000000010410408112354302430784524820812000007637054   1030000200030000   3338000100012031040000040022C2P (Myanmar) Co. Ltd Yangon        MMR11008112354302430780812000000000000000   10300001F05104100000000001050000000000000     
100   95050310332595380000000000000990000000000990002000000010410408120057132713402446850812000007637135   1020000200030000   333400010001204104000000281Myanmar Soft-Gate Tech Yangon        MMR11008120057132713400812000000000000000   10300001F05104100000000000208000000000000     
100   62911028202207380000000000020000000000020000002000000010410408120802493249944773800812000007641395   1030000200030000   333800010001203104000003327KBZPay                 Yangon        MMR11008120802493249940812000000000000000   10300001F05104100000000004200000000000000     
100   62443100301716860000000000300000000000300000002000000010410408120513274327604085550812000007639790   1030000200030000   333800010001203104000003327KBZPay                 Yangon        MMR11008120513274327600812000000000000000   10300001F05104100000000063000000000000000     
100   62911028202197630000000000008000000000008000002000000010410408120612245204974773800812222413520497   1040001600030000   598320001454000000010001148360 Petro (Danyingone) Ygn           MMR11008120612245204970812000000000000000   10300001F00104100000000000240000000000000     
100   95050316311487940000000000050000000000050000002000000010410408120909043904724552400812000007641975   1030000200030000   333800010001203104000003327KBZPay                 Yangon        MMR11008120909043904720812000000000000000   10300001F05104100000000010500000000000000     
100   95050318046885190000000000090000000000090000002000000010410408120315474547393709510812000007637808   1030000200030000   333800010001203104000003327KBZPay                 Yangon        MMR11008120315474547390812000000000000000   10300001F05104100000000018900000000000000     
100   95050311182936420000000000004950000000004950002000000010410408120033430343847829790812000007637101   1020000200030000   333400010001204104000000281Myanmar Soft-Gate Tech Yangon        MMR11008120033430343840812000000000000000   10300001F05104100000000001040000000000000     
100   95050317903887690000000000000990000000000990002000000010410408120302163216591461350812000007637606   1020000200030000   333400010001204104000000281Myanmar Soft-Gate Tech Yangon        MMR11008120302163216590812000000000000000   10300001F05104100000000000208000000000000     
100   62443100301716860000000000100000000000100000002000000010410408120514174417425823130812000007639807   1030000200030000   333800010001203104000003327KBZPay                 Yangon        MMR11008120514174417420812000000000000000   10300001F05104100000000021000000000000000     
100   95050312845568060000000000031000000000031000002000000010410408120720455045540305660812000007641114   1030000200030000   333800010001203104000003327KBZPay                 Yangon        MMR11008120720455045540812000000000000000   10300001F05104100000000006510000000000000     
100   95050314307746340000000000001980000000001980002000000010410408120720395039962383620812000007641126   1020000200030000   333400010001204104000000281Myanmar Soft-Gate Tech Yangon        MMR11008120720395039960812000000000000000   10300001F05104100000000000416000000000000     
100   95050312675525330000000000004500000000004500002000000010410408121011234123646531480812000007642457   1030000200030000   333800010001203104000003327KBZPay                 Yangon        MMR11008121011234123640812000000000000000   10300001F05104100000000000945000000000000     
100   95050313732480420000000000000990000000000990002000000010410408120410584058467936750812000007638848   1020000200030000   333400010001204104000000281Myanmar Soft-Gate Tech Yangon        MMR11008120410584058460812000000000000000   10300001F05104100000000000208000000000000     
100   95050314565805350000000000050000000000050000002000000010410408120716594659167341070812000007641069   1030000200030000   333800010001203104000003327KBZPay                 Yangon        MMR11008120716594659160812000000000000000   10300001F05104100000000010500000000000000     
100   62911028202469070000000000029950000000029950002000000010410408121103020150004773800812000751847856   1030000200030000   541188001081000008000000294KBZ BANK               CITY MART - J MMR11008121103020150000812000000000000000   10300001 00104100000000001797000000000000     
100   95050310332595380000000000000990000000000990002000000010410408111758452845242702140812000007636870   1020000200030000   333400010001204104000000281Myanmar Soft-Gate Tech Yangon        MMR11008111758452845240812000000000000000   10300001F05104100000000000208000000000000     
100   95050314307746340000000000000990000000000990002000000010410408121603423342594673150812000007643864   1020000200030000   333400010001204104000000281Myanmar Soft-Gate Tech Yangon        MMR11008121603423342590812000000000000000   10300001F05104100000000000208000000000000     
100   95050313640946520000000000300000000000300000002000000010410408120321415141472567600812000007637902   1030000200030000   333800010001203104000003327KBZPay                 Yangon        MMR11008120321415141470812000000000000000   10300001F05104100000000063000000000000000     
100   95050316321163940000000000005000000000005000002000000010410408121432170217116240530812000007643617   1030000200030000   333800010001203104000003327KBZPay                 Yangon        MMR11008121432170217110812000000000000000   10300001F05104100000000001050000000000000     
100   95050325455962190000000000110000000000110000002000000010410408120344261426004376490812000007638329   1030000200030000   333800010001203104000003327KBZPay                 Yangon        MMR11008120344261426000812000000000000000   10300001F05104100000000023100000000000000     
100   62911028202473840000000000137400000000137400002000000010410408120448265144444773800812222411514444   1040001600030000   591220000278000000010000266Shwe Ohh Pharmacy (Bah Yangon        MMR11008120448265144440812000000000000000   10300001F00104100000000008244000000000000     
100   95050313067820340000000000069800000000069800002000000010410408120612324232259114300812000007640386   1030000200030000   333800010001203104000003327KBZPay                 Yangon        MMR11008120612324232250812000000000000000   10300001F05104100000000014658000000000000     
100   62443100333488440000000000047080000000047080002000000010410408120312435081211546450812222410508121   1040001600030000   541120000559000000010000465Ocean Shwe Gone Daing  Yangon        MMR11008120312435081210812000000000000000   10300001F00104100000000011770000000000000     
100   95050313968650950000000000019800000000019800002000000010410408121431530153297893020812000007643603   1020000200030000   333400010001204104000000281Myanmar Soft-Gate Tech Yangon        MMR11008121431530153290812000000000000000   10300001F05104100000000004158000000000000     
100   95050310427855490000000000000990000000000990002000000010410408121440231023611197980812000007643648   1020000200030000   333400010001204104000000281Myanmar Soft-Gate Tech Yangon        MMR11008121440231023610812000000000000000   10300001F05104100000000000208000000000000     
100   95030320100005330000000000004500000000004500002000000010410408120842191219824773800812000007641707   1030000200030000   333800010001203104000003327KBZPay                 Yangon        MMR11008120842191219820812000000000000000   10300001F05104100000000000945000000000000     
100   62911028202232370000000000010000000000010000002000000010410408120511294129284773800812000007639749   1030000200030000   333800010001203104000003327KBZPay                 Yangon        MMR11008120511294129280812000000000000000   10300001F05104100000000002100000000000000     
100   95050314996291580000000000002970000000002970002000000010410408120246191619358071280812000007637506   1020000200030000   333400010001204104000000281Myanmar Soft-Gate Tech Yangon        MMR11008120246191619350812000000000000000   10300001F05104100000000000624000000000000     
100   95030306100096490000000000002970000000002970002000000010410408121450402040674773800812000007643684   1020000200030000   333400010001204104000000281Myanmar Soft-Gate Tech Yangon        MMR11008121450402040670812000000000000000   10300001F05104100000000000624000000000000     
100   95050326393773020000000000000990000000000990002000000010410408120907203720276119790812000007641937   1020000200030000   333400010001204104000000281Myanmar Soft-Gate Tech Yangon        MMR11008120907203720270812000000000000000   10300001F05104100000000000208000000000000     
100   95050329720609600000000000200000000000200000002000000010410408121125055446621112890812222418544662   1040001600030000   799720001421000000010001118Fit Way Gym-1          Ygn           MMR11008121125055446620812000000000000000   10300001F00104100000000048000000000000000     
100   95050328282898390000000000047850000000047850002000000010410408121702230189186701670812000751879395   1030000200030000   541188001023000008000000298KBZ BANK               CITY MART - M MMR11008121702230189180812000000000000000   10300001 00104100000000011963000000000000     
100   95050327416134790000000000000990000000000990002000000010410408121324505450723105760812000007643368   1020000200030000   333400010001204104000000281Myanmar Soft-Gate Tech Yangon        MMR11008121324505450720812000000000000000   10300001F05104100000000000208000000000000     
100   62911028202598430000000000050000000000050000002000000010410408110014271047874773800811222300104787   1030000600030000   554100000946315799420000471DENKO BAHAN            YANGON        MMR11008110014271047870811000000000000000   10300001 00104100000000001500000000000000     
100   95030389237176000000000000033150000000033150002000000010410408120902570063734773800812022321557223   1030000900030000   541119001309190110000000968Ocean Mingalar MDY C 1 MANDALAYHARSI MMR11008120902570063730812000000000000000   10300001F00104100000000001989000000000000     
100   62911028202631420000000000016817000000016817002000000010410408110611280022334773800811222312002233   1030000500030000   541120203705000015411202037CITY MART SUPERMARKET  PTN           MMR11008110611280022330811000000000000000   10300001 00104100000000001009000000000000     
100   95050317186823010000000000070500000000070500002000000010410408110418560000460171120811222310000046   1030000500030000   503920036902017205039200369PRO-1 HOME CENTER      PTN           MMR11008110418560000460811000000000000000   10300001 00104100000000016920000000000000     
100   95050321848852460000000000019300000000019300002000000010410408121210295492392510090812222419549239   1040001600030000   581420000803000000010000579Jeff's Kitchen (Ahlone Yangon        MMR11008121210295492390812000000000000000   10300001F00104100000000002316000000000000     
100   95050314557307430000000000000990000000000990002000000010410408121259472947779290220812000007643249   1020000200030000   333400010001204104000000281Myanmar Soft-Gate Tech Yangon        MMR11008121259472947770812000000000000000   10300001F05104100000000000208000000000000     
100   95050313970192050000000000007650000000007650002000000010410408110149530004889775350811222308000488   1030000500030000   541120232801000045411202328CITY EXPRESS (MCS - 34 PTN           MMR11008110149530004880811000000000000000   10300001 00104100000000001913000000000000     
100   95050318214455130000000000004950000000004950002000000010410408121316054605132595180812000007643322   1020000200030000   333400010001204104000000281Myanmar Soft-Gate Tech Yangon        MMR11008121316054605130812000000000000000   10300001F05104100000000001040000000000000     
100   62911028202027440000000000029900000000029900002000000010410408110513190002014773800811222311000201   1030000500030000   531120156005000045311201560GAMONE PWINT           PTN           MMR11008110513190002010811000000000000000   10300001 00104100000000001794000000000000     
100   62911028202506770000000000050000000000050000002000000010410408110822370006864773800811222314000686   1030000500030000   598320001204000015172200012MAX ENERGY             PTN           MMR11008110822370006860811000000000000000   10300001 00104100000000001500000000000000     
100   95050322295410690000000000019500000000019500002000000010410408110640550027166086490811000360572141   1030000300030000   531100000899000000000000636CB BANK                MGOU-MMPZ     MMR11008110640550027160811000000000000000   10300001F00104100000000004680000000000000     
100   62443101093150400000000000150000000000150000002000000010410408110731250019878249550811000360580266   1030000300030000   541100002357000000000000102CB BANK                MAKRO MYANMAR MMR11008110731250019870811000000000000000   10300001F00104100000000037500000000000000     
100   62911028202142280000000000005000000000005000002000000010410408111035000002604773800811000360608096   1030000300030000   541100000395000000000000277CB BANK                ONE STOP MART MMR11008111035000002600811000000000000000   10300001F00104100000000000300000000000000     
100   62911028202108460000000000044000000000044000002000000010410408102333510004894773800811222306000489   1030000500030000   598320001103000015172200011MAX ENERGY             PTN           MMR11008102333510004890811000000000000000   10300001 00104100000000001320000000000000     
100   62911028202442250000000000017500000000017500002000000010410408110050370006384773800811222307000638   1030000500030000   598320001203000015172200012MAX ENERGY             PTN           MMR11008110050370006380811000000000000000   10300001 00104100000000000525000000000000     
100   95050321798808970000000000030000000000030000002000000010410408120329475947659092440812000007638043   1030000200030000   333800010001203104000003327KBZPay                 Yangon        MMR11008120329475947650812000000000000000   10300001F05104100000000006300000000000000     
100   95050317043153610000000000006400000000006400002000000010410408110824070007270228630811222314000727   1030000500030000   541120203712000015411202037CITY MART SUPERMARKET  PTN           MMR11008110824070007270811000000000000000   10300001 00104100000000001600000000000000     
100   95050311559234320000000000002970000000002970002000000010410408121056572657778694540812000007642768   1020000200030000   333400010001204104000000281Myanmar Soft-Gate Tech Yangon        MMR11008121056572657770812000000000000000   10300001F05104100000000000624000000000000     
100   62443101093150400000000000150000000000150000002000000010410408110754350000666923670811000360584012   1030000300030000   541100002367000000000000102CB BANK                MAKRO MYANMAR MMR11008110754350000660811000000000000000   10300001F00104100000000037500000000000000     
100   95050316377977350000000000001500000000001500002000000010410408121521485148369630600812000007643769   1030000200030000   3338000100012031040000040022C2P (Myanmar) Co. Ltd Yangon        MMR11008121521485148360812000000000000000   10300001F05104100000000000315000000000000     
100   95030346645639490000000000023900000000023900002000000010410408121053545416394773800812222417541639   1040001600030000   591220000258000000010000246Shwe Ohh Pharmacy (Sin Yangon        MMR11008121053545416390812000000000000000   10300001F00104100000000001434000000000000     
100   95050312240830690000000000000990000000000990002000000010410408121425395539904928440812000007643587   1020000200030000   333400010001204104000000281Myanmar Soft-Gate Tech Yangon        MMR11008121425395539900812000000000000000   10300001F05104100000000000208000000000000     
100   62911028202685390000000000037900000000037900002000000010410408110414050002634773800811222310000263   1030000500030000   531120155714000045311201557GAMONE PWINT           PTN           MMR11008110414050002630811000000000000000   10300001 00104100000000002274000000000000     
100   62443101023815100000000000009198000000009198002000000010410408111213100026044900860811222318002604   1030000500030000   541120227503000045411202275CITY MART (AHLONE BRAN PTN           MMR11008111213100026040811000000000000000   10300001 00104100000000002300000000000000     
100   95030307963177330000000000098522000000098522002000000010410408110959410000464773800811222316000046   1030000500030000   806220172402013008062201724GRAND HANTHA HOSPITAL  PTN           MMR11008110959410000460811000000000000000   10300001 00104100000000005911000000000000     
100   62911028202291190000000000015500000000015500002000000010410408110851470001554773800811222315000155   1030000500030000   569120044601000015691200446AMERICAN BRANDED COLLE PTN           MMR11008110851470001550811000000000000000   10300001 00104100000000000930000000000000     
100   62911028202147720000000000053000000000053000002000000010410408110611410004904773800811222312000490   1030000500030000   598320001601000015172200016MAX ENERGY             PTN           MMR11008110611410004900811000000000000000   10300001 00104100000000001590000000000000     
100   95050326159929830000000000038000000000038000002000000010410408111139260008105241240811222318000810   1030000500030000   531120155802000045311201558GAMONE PWINT           PTN           MMR11008111139260008100811000000000000000   10300001 00104100000000009120000000000000     
100   62911028202132460000000000074300000000074300002000000010410408110411160003564773800811222310000356   1030000500030000   503920036604000015039200366PRO-1 HOME CENTER      PTN           MMR11008110411160003560811000000000000000   10300001 00104100000000004458000000000000     
100   95050316658424370000000000019800000000019800002000000010410408110308370011187667670811222303001118   1030000600030000   597700002014315799420001383NATURE REPUBLIC MLM    MAWLAMYAING   MMR11008110308370011180811000000000000000   10300001 00104100000000004752000000000000     
100   62911028202291190000000000005000000000005000002000000010410408110944510005654773800811222316000565   1030000500030000   531120226325000045311202263OCEAN SUPER CENTER STJ PTN           MMR11008110944510005650811000000000000000   10300001 00104100000000000300000000000000     
100   95030302100015820000000000017480000000017480002000000010410408121451410066184773800812000751871202   1030000200030000   541188001057000008000000314KBZ BANK               MARKETPLACE - MMR11008121451410066180812000000000000000   10300001 00104100000000001049000000000000     
100   95050319753756490000000000020000000000020000002000000010410408121524235423524588050812000007643775   1030000200030000   333800010001203104000003327KBZPay                 Yangon        MMR11008121524235423520812000000000000000   10300001F05104100000000004200000000000000     
100   62911028202313470000000000060000000000060000002000000010410408121206545488874773800812222419548887   1040001600030000   598320001453000000010001147360 Petro (Sat San)    Ygn           MMR11008121206545488870812000000000000000   10300001F00104100000000001800000000000000     
100   95050317084233280000000000009900000000009900002000000010410408121128015801684417860812000007642907   1020000200030000   333400010001204104000000281Myanmar Soft-Gate Tech Yangon        MMR11008121128015801680812000000000000000   10300001F05104100000000002079000000000000     
100   95050310332595380000000000000990000000000990002000000010410408120128215821055836920812000007637198   1020000200030000   333400010001204104000000281Myanmar Soft-Gate Tech Yangon        MMR11008120128215821050812000000000000000   10300001F05104100000000000208000000000000     
100   62911028202170490000000000022800000000022800002000000010410408110536050000854773800811000360561155   1030000300030000   531100000544000000000000376CB BANK                CAPITAL HYPER MMR11008110536050000850811000000000000000   10300001F00104100000000001368000000000000     
100   95050313640946520000000000050000000000050000002000000010410408120322515251097695250812000007637925   1030000200030000   333800010001203104000003327KBZPay                 Yangon        MMR11008120322515251090812000000000000000   10300001F05104100000000010500000000000000     
100   95050311598146290000000000050000000000050000002000000010410408120239510951540064160812000007637473   1030000200030000   333800010001203104000003327KBZPay                 Yangon        MMR11008120239510951540812000000000000000   10300001F05104100000000010500000000000000     
100   62911028202440680000000000007500000000007500002000000010410408110826050001274773800811000360589035   1030000300030000   592100002270000000000001539CB BANK                BO 1000 LIQUO MMR11008110826050001270811000000000000000   10300001F00104100000000000450000000000000     
100   62911028202328810000000000006250000000006250002000000010410408110450090032404773800811222311003240   1030000500030000   541120226811000045411202268CITY MART WAIZAYANDA   PTN           MMR11008110450090032400811000000000000000   10300001 00104100000000000375000000000000     
100   62911028202170490000000000069800000000069800002000000010410408110713580000584773800811222313000058   1030000500030000   531120201603000085311202016STJ BLAZON             PTN           MMR11008110713580000580811000000000000000   10300001 00104100000000004188000000000000     
100   62443100313529540000000000005300000000005300002000000010410408111209250001431595890811000360621334   1030000300030000   729800001753000000000001257CB BANK                ART & T8      MMR11008111209250001430811000000000000000   10300001F00104100000000001272000000000000     
100   62911028202099390000000000040100000000040100002000000010410408110441210004624773800811222311000462   1030000500030000   598320001604000015172200016MAX ENERGY             PTN           MMR11008110441210004620811000000000000000   10300001 00104100000000001203000000000000     
100   62443100388528570000000000019800000000019800002000000010410408110242100012901142830811222309001290   1030000500030000   541120230004000045411202300MARKET PLACE BY CITY M PTN           MMR11008110242100012900811000000000000000   10300001 00104100000000004950000000000000     
100   62911028202615590000000000065799000000065799002000000010410408110055440005314773800811222307000531   1030000500030000   598320001004000015172200010MAX ENERGY             PTN           MMR11008110055440005310811000000000000000   10300001 00104100000000001974000000000000     
100   62911028202743960000000000003709000000003709002000000010410408110234560000304773800811222309000030   1030000500030000   598320005201000015172200052MAX ENERGY             PTN           MMR11008110234560000300811000000000000000   10300001 00104100000000000111000000000000     
100   95050315166583130000000000100000000000100000002000000010410408120824425442558318500812000007641568   1030000200030000   333800010001203104000003327KBZPay                 Yangon        MMR11008120824425442550812000000000000000   10300001F05104100000000021000000000000000     
100   95050327416134790000000000004950000000004950002000000010410408121127005700309460410812000007642897   1020000200030000   333400010001204104000000281Myanmar Soft-Gate Tech Yangon        MMR11008121127005700300812000000000000000   10300001F05104100000000001040000000000000     
100   95050325455962190000000000002970000000002970002000000010410408121039290929160602310812000007642664   1020000200030000   333400010001204104000000281Myanmar Soft-Gate Tech Yangon        MMR11008121039290929160812000000000000000   10300001F05104100000000000624000000000000     
100   62911028202474000000000000023600000000023600002000000010410408120910320065894773800812116401532223   1030000900030000   591219001405190110000001009Life Plus Store 8      YANGONUT      MMR11008120910320065890812000000000000000   10300001F00104100000000001416000000000000     
100   95050317533455090000000000100000000000100000002000000010410408120953382338710176830812000007642326   1030000200030000   333800010001203104000003327KBZPay                 Yangon        MMR11008120953382338710812000000000000000   10300001F05104100000000021000000000000000     
100   62443100300743690000000000053390000000053390002000000010410408121252035535570857600812222419553557   1040001600030000   541120000555000000010000465Ocean Shwe Gone Daing  Yangon        MMR11008121252035535570812000000000000000   10300001F00104100000000013348000000000000     
100   95050311168163370000000000044300000000044300002000000010410408121158570115002424990812639281857223   1030000900030000   541119001195190110000000942City Mart HDC C 10     YANGONUT      MMR11008121158570115000812000000000000000   10300001F00104100000000011075000000000000     
100   95050318057347910000000000013932000000013932002000000010410408121725270017710347020812000751880517   1030000200030000   541188001422000008000000401KBZ BANK               OCEAN SUPERCE MMR11008121725270017710812000000000000000   10300001 00104100000000003483000000000000     
100   95030310098554020000000000064000000000064000002000000010410408110738000030884773800811222314003088   1030000500030000   531120226326000045311202263OCEAN SUPER CENTER STJ PTN           MMR11008110738000030880811000000000000000   10300001 00104100000000003840000000000000     
100   62911028202260400000000000113500000000113500002000000010410408110658090000184773800811222313000018   1030000500030000   554120103901000015541201039M.A.D CAR SERVICE      PTN           MMR11008110658090000180811000000000000000   10300001 00104100000000003405000000000000     
100   62443100300792360000000000107000000000107000002000000010410408111029590006014730670811222316000601   1030000500030000   598320001102000015172200011MAX ENERGY             PTN           MMR11008111029590006010811000000000000000   10300001 00104100000000012840000000000000     
100   95030310098554020000000000010500000000010500002000000010410408110735520008134773800811000360580959   1030000300030000   531100000819000000000000558CB BANK                MGOU-CM       MMR11008110735520008130811000000000000000   10300001F00104100000000000630000000000000     
100   95050325814892040000000000042000000000042000002000000010410408110151510002951512930811222308000295   1030000500030000   598320002003000015172200020MAX ENERGY             PTN           MMR11008110151510002950811000000000000000   10300001 00104100000000005040000000000000     
100   62443100371022130000000000019903000000019903002000000010410408111148220005766553340811222318000576   1030000500030000   598320001303000015172200013MAX ENERGY             PTN           MMR11008111148220005760811000000000000000   10300001 00104100000000002388000000000000     
100   62911028202170490000000000095956000000095956002000000010410408110829180016544773800811222314001654   1030000500030000   531120226304000045311202263OCEAN SUPER CENTER STJ PTN           MMR11008110829180016540811000000000000000   10300001 00104100000000005757000000000000     
100   62911028202286990000000000030000000000030000002000000010410408110156120003454773800811222308000345   1030000500030000   598320001901000015172200019MAX ENERGY             PTN           MMR11008110156120003450811000000000000000   10300001 00104100000000000900000000000000     
100   62911028202170490000000000009500000000009500002000000010410408110457510010774773800811000360555017   1030000300030000   531100000831000000000000567CB BANK                MGOU-CP       MMR11008110457510010770811000000000000000   10300001F00104100000000000570000000000000     
100   95050316520270830000000000800000000000800000002000000010410408110539550001543838330811000360561786   1030000300030000   594400002393000000000001615CB BANK                ZWE HTET GOLD MMR11008110539550001540811000000000000000   10300001F00104100000000192000000000000000     
100   62911028202170490000000000024500000000024500002000000010410408110921210003384773800811000360597269   1030000300030000   581200001490000000000001036CB BANK                YKKO (ST. JOH MMR11008110921210003380811000000000000000   10300001F00104100000000002499000000000000     
100   62911028202169750000000000031000000000031000002000000010410408110912200005514773800811222315000551   1030000500030000   598320002101000015172200021MAX ENERGY             PTN           MMR11008110912200005510811000000000000000   10300001 00104100000000000930000000000000     
100   62443100369813440000000000020000000000020000002000000010410408110307340005216015190811222309000521   1030000500030000   598320001302000015172200013MAX ENERGY             PTN           MMR11008110307340005210811000000000000000   10300001 00104100000000002400000000000000     
100   62443100300743690000000000002450000000002450002000000010410408111452420040698801500811000360640583   1030000300030000   541100000447000000000000319CB BANK                ONESTOP KITCH MMR11008111452420040690811000000000000000   10300001F00104100000000000613000000000000     
100   95050324082484780000000000044500000000044500002000000010410408110117460057884392410811222301005788   1030000600030000   554100000746315799420000324DENKO SHANKALAY KYUN   MANDALAY      MMR11008110117460057880811000000000000000   10300001 00104100000000005340000000000000     
100   95050324082484780000000000054000000000054000002000000010410408110133310057892739930811222301005789   1030000600030000   554100000746315799420000324DENKO SHANKALAY KYUN   MANDALAY      MMR11008110133310057890811000000000000000   10300001 00104100000000006480000000000000     
