100   95050322104201170000000000005000000000005000002000000010410408130914064406382836680813000007645904   1030000200030000   333800010001203104000003327KBZPay                 Yangon        MMR11008130914064406380813000000000000000   10300001F05104100000000001050000000000000     
100   95050312035823210000000000005000000000005000002000000010410408130658592859681390040813000007645529   1030000200030000   3338000100012031040000040022C2P (Myanmar) Co. Ltd Yangon        MMR11008130658592859680813000000000000000   10300001F05104100000000001050000000000000     
100   95050314542175100000000000030000000000030000002000000010410408130342531253766992610813000007644758   1030000200030000   333800010001203104000003327KBZPay                 Yangon        MMR11008130342531253760813000000000000000   10300001F05104100000000006300000000000000     
100   95050311382087030000000000003000000000003000002000000010410408131446261626687855900813000007646899   1030000200030000   3338000100012031040000040022C2P (Myanmar) Co. Ltd Yangon        MMR11008131446261626680813000000000000000   10300001F05104100000000000630000000000000     
100   62443100389971990000000000011000000000011000002000000010410408131001353135709276420813000007646052   1030000200030000   333800010001203104000003327KBZPay                 Yangon        MMR11008131001353135700813000000000000000   10300001F05104100000000002310000000000000     
100   62443100381661260000000000066000000000066000002000000010410408130723573462338680750813535776059921   1040001400030000   569910000744025699100004582The Smart Guys Fashion null No-290 P MMR11008130723573462330813000000000000000   10300001 00104100000000015840000000000000     
100   62911028202440680000000000039000000000039000002000000010410408131100016256794773800813222518625679   1040001600030000   598320001453000000010001147360 Petro (Sat San)    Ygn           MMR11008131100016256790813000000000000000   10300001F00104100000000001170000000000000     
100   62443100390038980000000000037350000000037350002000000010410408131323040402687430440813319531904224   1030000900030000   581219001647190110000001204Shwe Lar Hot Pot Yanki YANGON        MMR11008131323040402680813000000000000000   10300001F00104100000000015874000000000000     
100   95050310427855490000000000001980000000001980002000000010410408130338090809873687650813000007644741   1020000200030000   333400010001204104000000281Myanmar Soft-Gate Tech Yangon        MMR11008130338090809870813000000000000000   10300001F05104100000000000416000000000000     
100   95050315158357300000000000002970000000002970002000000010410408131451522152758706860813000007646925   1020000200030000   333400010001204104000000281Myanmar Soft-Gate Tech Yangon        MMR11008131451522152750813000000000000000   10300001F05104100000000000624000000000000     
100   95050312695033440000000000000990000000000990002000000010410408130429175917398985480813000007644944   1020000200030000   333400010001204104000000281Myanmar Soft-Gate Tech Yangon        MMR11008130429175917390813000000000000000   10300001F05104100000000000208000000000000     
100   62911028202331290000000000071200000000071200002000000010410408131039576235604773800813222517623560   1040001600030000   591220000295000000010000283Shwe Ohh Pharmacy (39t Yangon        MMR11008131039576235600813000000000000000   10300001F00104100000000004272000000000000     
100   62443100386703740000000000090090000000090090002000000010410408131242009458561899150813120058449262   1040001400030000   581210001523025812100010794Ginki Bar and Restaura t Ginki Bar a MMR11008131242009458560813000000000000000   10300001 00104100000000038289000000000000     
100   95050310572950870000000000020000000000020000002000000010410408131150272027167076250813000007646361   1030000200030000   333800010001203104000003327KBZPay                 Yangon        MMR11008131150272027160813000000000000000   10300001F05104100000000004200000000000000     
100   95050313732480420000000000002970000000002970002000000010410408131152322232457927210813000007646367   1020000200030000   333400010001204104000000281Myanmar Soft-Gate Tech Yangon        MMR11008131152322232450813000000000000000   10300001F05104100000000000624000000000000     
100   95050312210363590000000000010000000000010000002000000010410408130348201820849240770813000007644773   1030000200030000   333800010001203104000003327KBZPay                 Yangon        MMR11008130348201820840813000000000000000   10300001F05104100000000002100000000000000     
100   95050327416134790000000000001980000000001980002000000010410408131324555455668849490813000007646648   1020000200030000   333400010001204104000000281Myanmar Soft-Gate Tech Yangon        MMR11008131324555455660813000000000000000   10300001F05104100000000000416000000000000     
100   62443100388528570000000000065061000000065061002000000010410408130055535849371694770813222507584937   1040001600030000   598320001127000000010000608Terminal Petrol Statio Yangon        MMR11008130055535849370813000000000000000   10300001F00104100000000007807000000000000     
100   95050317003064220000000000000990000000000990002000000010410408130527325732284538610813000007645212   1020000200030000   333400010001204104000000281Myanmar Soft-Gate Tech Yangon        MMR11008130527325732280813000000000000000   10300001F05104100000000000208000000000000     
100   62911028202685390000000000089055000000089055002000000010410408130400175946534773800813222511594653   1040001600030000   806220001361000000010001061Grand Hantha Internati Ygn           MMR11008130400175946530813000000000000000   10300001F00104100000000005343000000000000     
100   95050311712422700000000000101000000000101000002000000010410408121655102510893020660813000007643962   1030000200030000   333800010001203104000003327KBZPay                 Yangon        MMR11008121655102510890813000000000000000   10300001F05104100000000021210000000000000     
100   62911028202031710000000000051000000000051000002000000010410408131233185138984773800813031866549839   1040001400030000   569910000191025699100001425Flannel Box Flannel Bo No.290 Pyay R MMR11008131233185138980813000000000000000   10300001 00104100000000003060000000000000     
100   95050311736839760000000000000990000000000990002000000010410408131525565556751756570813000007647021   1020000200030000   333400010001204104000000281Myanmar Soft-Gate Tech Yangon        MMR11008131525565556750813000000000000000   10300001F05104100000000000208000000000000     
100   62911028202790980000000000050000000000050000002000000010410408130727596091814773800813222514609181   1040001600030000   598320000322000000010000310PT Power Petrol Statio Yangon        MMR11008130727596091810813000000000000000   10300001F00104100000000001500000000000000     
100   95050310822142100000000000050000000000050000002000000010410408130058042804961779870813000007644304   1030000200030000   333800010001203104000003327KBZPay                 Yangon        MMR11008130058042804960813000000000000000   10300001F05104100000000010500000000000000     
100   95050312947607030000000000038000000000038000002000000010410408130922365236266226750813000007645936   1030000200030000   333800010001203104000003327KBZPay                 Yangon        MMR11008130922365236260813000000000000000   10300001F05104100000000007980000000000000     
100   95050310427855490000000000001980000000001980002000000010410408131108133813242467280813000007646239   1020000200030000   333400010001204104000000281Myanmar Soft-Gate Tech Yangon        MMR11008131108133813240813000000000000000   10300001F05104100000000000416000000000000     
100   95050312641885210000000000000990000000000990002000000010410408131608153815625657200813000007647100   1020000200030000   333400010001204104000000281Myanmar Soft-Gate Tech Yangon        MMR11008131608153815620813000000000000000   10300001F05104100000000000208000000000000     
100   95050310332595380000000000000990000000000990002000000010410408131119014901633743750813000007646273   1020000200030000   333400010001204104000000281Myanmar Soft-Gate Tech Yangon        MMR11008131119014901630813000000000000000   10300001F05104100000000000208000000000000     
100   62911028202163630000000000015750000000015750002000000010410408130705596077304773800813222514607730   1040001600030000   591220000288000000010000276Shwe Ohh Pharmacy (Nor Yangon        MMR11008130705596077300813000000000000000   10300001F00104100000000000945000000000000     
100   62443100352902910000000000035000000000035000002000000010410408130601593159268255270813000007645361   1030000900030000   333400010001202104000002022ACS                    Yangon        MMR11008130601593159260813000000000000000   10300001F05104100000000007350000000000000     
100   95050310332595380000000000000990000000000990002000000010410408131520075007168281400813000007647002   1020000200030000   333400010001204104000000281Myanmar Soft-Gate Tech Yangon        MMR11008131520075007160813000000000000000   10300001F05104100000000000208000000000000     
100   95050328035424750000000000201000000000201000002000000010410408130822326128505545970813222515612850   1040001600030000   573220000052000000010000050Laser IT & Mobile (Pyi Pyinmana      MMR11008130822326128500813000000000000000   10300001F00104100000000048240000000000000     
100   62911028202110420000000000051250000000051250002000000010410408131149306309124773800813222518630912   1040001600030000   591220000270000000010000258Shwe Ohh Pharmacy (U C Yangon        MMR11008131149306309120813000000000000000   10300001F00104100000000003075000000000000     
100   95050315259054570000000000020000000000020000002000000010410408130250432043793857840813000007644559   1030000200030000   333800010001203104000003327KBZPay                 Yangon        MMR11008130250432043790813000000000000000   10300001F05104100000000004200000000000000     
100   95050328082468580000000000010000000000010000002000000010410408131358132813023955270813000007646746   1030000200030000   333800010001203104000003327KBZPay                 Yangon        MMR11008131358132813020813000000000000000   10300001F05104100000000002100000000000000     
100   95050319502933380000000000000990000000000990002000000010410408131401073107101331070813000007646752   1020000200030000   333400010001204104000000281Myanmar Soft-Gate Tech Yangon        MMR11008131401073107100813000000000000000   10300001F05104100000000000208000000000000     
100   95050318288857520000000000030000000000030000002000000010410408130055582558400042290813000007644296   1030000200030000   333800010001203104000003327KBZPay                 Yangon        MMR11008130055582558400813000000000000000   10300001F05104100000000006300000000000000     
100   95050319870763910000000000001980000000001980002000000010410408130659572957150248140813000007645544   1020000200030000   333400010001204104000000281Myanmar Soft-Gate Tech Yangon        MMR11008130659572957150813000000000000000   10300001F05104100000000000416000000000000     
100   62443100336591330000000000100000000000100000002000000010410408130636376055722957430813222513605572   1040001600030000   598320000854000000010000608Terminal Petrol Statio Yangon        MMR11008130636376055720813000000000000000   10300001F00104100000000012000000000000000     
100   95050326228858240000000000080740000000080740002000000010410408121343210044871623470812000360816882   1030000300030000   581200002703000000000001836CB BANK                REN JAPANESE  MMR11008121343210044870812000000000000000   10300001F00104100000000034315000000000000     
100   62443100313112320000000000046500000000046500002000000010410408130855236150172241010813222515615017   1040001600030000   541120001499000000010001191MONSTER                Ygn           MMR11008130855236150170813000000000000000   10300001F00104100000000011625000000000000     
100   95050314064416890000000000001980000000001980002000000010410408130946011601134659360813000007645991   1020000200030000   333400010001204104000000281Myanmar Soft-Gate Tech Yangon        MMR11008130946011601130813000000000000000   10300001F05104100000000000416000000000000     
100   95050315701710960000000000020000000000020000002000000010410408130234090409042120260813000007644496   1030000200030000   333800010001203104000003327KBZPay                 Yangon        MMR11008130234090409040813000000000000000   10300001F05104100000000004200000000000000     
100   62911028202031710000000000056390000000056390002000000010410408131305500422984773800813000751910955   1030000200030000   541188001025000008000000298KBZ BANK               CITY MART - M MMR11008131305500422980813000000000000000   10300001 00104100000000003383000000000000     
100   95050317072727910000000000000990000000000990002000000010410408131535280528992607490813000007647041   1020000200030000   333400010001204104000000281Myanmar Soft-Gate Tech Yangon        MMR11008131535280528990813000000000000000   10300001F05104100000000000208000000000000     
100   95050311959900780000000000000990000000000990002000000010410408131139010901230125910813000007646335   1020000200030000   333400010001204104000000281Myanmar Soft-Gate Tech Yangon        MMR11008131139010901230813000000000000000   10300001F05104100000000000208000000000000     
100   62911028202027440000000000048800000000048800002000000010410408130633156053054773800813222513605305   1040001600030000   541120000561000000010000465Ocean Shwe Gone Daing  Yangon        MMR11008130633156053050813000000000000000   10300001F00104100000000002928000000000000     
100   62443100300743690000000000050000000000050000002000000010410408130913256162374489170813222516616237   1040001600030000   804320001343000000010001050Zaw Ye Naing Optical   Ygn           MMR11008130913256162370813000000000000000   10300001F00104100000000012000000000000000     
100   62911028202074950000000000004387000000004387002000000010410408130917420425384773800813000751900603   1030000200030000   541188001024000008000000298KBZ BANK               CITY MART - M MMR11008130917420425380813000000000000000   10300001 00104100000000000263000000000000     
100   62443100392426520000000000010000000000010000002000000010410408131056142614300197270813000007646211   1030000200030000   333800010001203104000003327KBZPay                 Yangon        MMR11008131056142614300813000000000000000   10300001F05104100000000002100000000000000     
100   62911028202031710000000000065000000000065000002000000010410408130901013446124773800813310122860671   1040001400030000   569910000744025699100004582The Smart Guys Fashion null No-290 P MMR11008130901013446120813000000000000000   10300001 00104100000000003900000000000000     
100   62443100330048680000000000002100000000002100002000000010410408131027245724591099100813000007646139   1030000200030000   333800010001203104000003327KBZPay                 Yangon        MMR11008131027245724590813000000000000000   10300001F05104100000000000441000000000000     
100   62443100373945130000000000040000000000040000002000000010410408130421065960185595410813222511596018   1040001600030000   598320000314000000010000302PT Power Petrol Statio Yangon        MMR11008130421065960180813000000000000000   10300001F00104100000000004800000000000000     
100   62443100301716860000000000036500000000036500002000000010410408130636010601391219850813000007645469   1030000200030000   333800010001203104000003327KBZPay                 Yangon        MMR11008130636010601390813000000000000000   10300001F05104100000000007665000000000000     
100   95050315429354870000000000005850000000005850002000000010410408120204000037969638670812000360710510   1030000300030000   591200000183000000000000090CB BANK                MEDICARE STOR MMR11008120204000037960812000000000000000   10300001F00104100000000001404000000000000     
100   62911028202662690000000000016170000000016170002000000010410408120811260008404773800812222414000840   1030000500030000   598320001203000015172200012MAX ENERGY             PTN           MMR11008120811260008400812000000000000000   10300001 00104100000000000485000000000000     
100   62443100311603990000000002462200000002462200002000000010410408120953280002946871860812000360785056   1030000300030000   571900003733000000000001118CB BANK                PRO 1 HOME CE MMR11008120953280002940812000000000000000   10300001F00104100000000590928000000000000     
100   62911028202142280000000000005750000000005750002000000010410408121121280002694773800812000360798029   1030000300030000   541100000395000000000000277CB BANK                ONE STOP MART MMR11008121121280002690812000000000000000   10300001F00104100000000000345000000000000     
100   95050322295410690000000000011200000000011200002000000010410408121141330020616155440812222418002061   1030000500030000   541120226407000045411202264MARKET PLACE MYANMARPL PTN           MMR11008121141330020610812000000000000000   10300001 00104100000000002800000000000000     
100   95030333257899680000000000138000000000138000002000000010410408120612250000224773800812222412000022   1030000500030000   806220080801000208062200808DENT MYANMAR DENTAL CE PTN           MMR11008120612250000220812000000000000000   10300001 00104100000000008280000000000000     
100   62443100300412100000000000264618000000264618002000000010410408121018180001398269060812000360788820   1030000300030000   806200001837000000000001318CB BANK                ASIA ROYAL CO MMR11008121018180001390812000000000000000   10300001F00104100000000063508000000000000     
100   95050326228858240000000000120000000000120000002000000010410408121416500006549970990812222420000654   1030000500030000   598320001302000015172200013MAX ENERGY             PTN           MMR11008121416500006540812000000000000000   10300001 00104100000000014400000000000000     
100   62911028202448030000000000110000000000110000002000000010410408120729360008184773800812222413000818   1030000500030000   598320001204000015172200012MAX ENERGY             PTN           MMR11008120729360008180812000000000000000   10300001 00104100000000003300000000000000     
100   62911028202400660000000000019000000000019000002000000010410408120912130016004773800812222415001600   1030000500030000   531120226737000045311202267OCEAN NORTH POINT      PTN           MMR11008120912130016000812000000000000000   10300001 00104100000000001140000000000000     
100   62443101093150400000000000150000000000150000002000000010410408120604560006969029210812000360748261   1030000300030000   541100002331000000000000102CB BANK                MAKRO MYANMAR MMR11008120604560006960812000000000000000   10300001F00104100000000037500000000000000     
100   62911028202319090000000000038600000000038600002000000010410408120541460000754773800812222412000075   1030000500030000   591220020501005105912200205MINGALAR PHARMACY      PTN           MMR11008120541460000750812000000000000000   10300001 00104100000000002316000000000000     
100   62443101093150400000000000150000000000150000002000000010410408120624440001048057500812000360751749   1030000300030000   541100002367000000000000102CB BANK                MAKRO MYANMAR MMR11008120624440001040812000000000000000   10300001F00104100000000037500000000000000     
100   95050328074436620000000000026505000000026505002000000010410408120100440005835751820812222407000583   1030000500030000   598320001201000015172200012MAX ENERGY             PTN           MMR11008120100440005830812000000000000000   10300001 00104100000000003181000000000000     
100   95050327409540490000000000123540000000123540002000000010410408120920010021389424750812222415002138   1030000500030000   541120203805000015411202038CITY MART SUPERMARKET  PTN           MMR11008120920010021380812000000000000000   10300001 00104100000000030885000000000000     
100   62911028202146650000000000021200000000021200002000000010410408120919070001484773800812222415000148   1030000500030000   591220132901008605912201329THEIK DI WIN SHOP      PTN           MMR11008120919070001480812000000000000000   10300001 00104100000000001272000000000000     
100   62911028202221220000000000002750000000002750002000000010410408120253200003614773800812222409000361   1030000500030000   541120232101000045411202321CITY EXPRESS (MCS - 10 PTN           MMR11008120253200003610812000000000000000   10300001 00104100000000000165000000000000     
100   62911028202443730000000000024000000000024000002000000010410408121224400003114773800812222418000311   1030000500030000   598320001904000015172200019MAX ENERGY             PTN           MMR11008121224400003110812000000000000000   10300001 00104100000000000720000000000000     
100   62911028202595200000000000021315000000021315002000000010410408121258240002154773800812222419000215   1030000500030000   581220248501000085812202485CHILLI POT MALA XIANG  PTN           MMR11008121258240002150812000000000000000   10300001 00104100000000002174000000000000     
100   62911028202105230000000000030000000000030000002000000010410408121037230005744773800812222417000574   1030000500030000   598320002701000015172200027MAX ENERGY             PTN           MMR11008121037230005740812000000000000000   10300001 00104100000000000900000000000000     
100   62443100394939820000000000064200000000064200002000000010410408121133420001982850470812222418000198   1030000500030000   541120129720000045411201297MAKRO MYANMAR          PTN           MMR11008121133420001980812000000000000000   10300001 00104100000000016050000000000000     
100   62911028202285410000000000335390000000335390002000000010410408120553590002304773800812000360746195   1030000300030000   531100003904000000000002936CB BANK                MAXI WHOLESAL MMR11008120553590002300812000000000000000   10300001F00104100000000020123000000000000     
100   62911028202204490000000000043000000000043000002000000010410408120554390008124773800812222412000812   1030000500030000   598320001203000015172200012MAX ENERGY             PTN           MMR11008120554390008120812000000000000000   10300001 00104100000000001290000000000000     
100   62443100300792360000000000031040000000031040002000000010410408121117050001427637730812000360797381   1030000300030000   806200001837000000000001318CB BANK                ASIA ROYAL CO MMR11008121117050001420812000000000000000   10300001F00104100000000007450000000000000     
100   62911028202136750000000000027000000000027000002000000010410408121211500004444773800812222418000444   1030000500030000   598320001704000015172200017MAX ENERGY             PTN           MMR11008121211500004440812000000000000000   10300001 00104100000000000810000000000000     
100   95050310005653210000000000070400000000070400002000000010410408120547250007725567840812000360744997   1030000300030000   541100000454000000000000323CB BANK                ONESTOP KITCH MMR11008120547250007720812000000000000000   10300001F00104100000000017600000000000000     
100   95050314160856250000000000007700000000007700002000000010410408120201370037944681230812000360710220   1030000300030000   591200000183000000000000090CB BANK                MEDICARE STOR MMR11008120201370037940812000000000000000   10300001F00104100000000001848000000000000     
100   62911028202594880000000000043868000000043868002000000010410408120451300036884773800812222411003688   1030000500030000   541120229104000045411202291CITY MART YANKIN       PTN           MMR11008120451300036880812000000000000000   10300001 00104100000000002632000000000000     
100   62443100300743690000000000003000000000003000002000000010410408121518300040931283080812000360827474   1030000300030000   541100000447000000000000319CB BANK                ONESTOP KITCH MMR11008121518300040930812000000000000000   10300001F00104100000000000750000000000000     
100   62911028202328810000000000015700000000015700002000000010410408121113050050554773800812222417005055   1030000500030000   541120226403000045411202264MARKET PLACE MYANMARPL PTN           MMR11008121113050050550812000000000000000   10300001 00104100000000000942000000000000     
100   62443101023815100000000000044200000000044200002000000010410408120524310026152518160812222411002615   1030000500030000   541120227503000045411202275CITY MART (AHLONE BRAN PTN           MMR11008120524310026150812000000000000000   10300001 00104100000000011050000000000000     
100   95050325925517520000000000015094000000015094002000000010410408121001480032618524340812222416003261   1030000500030000   531120226307000045311202263OCEAN SUPER CENTER STJ PTN           MMR11008121001480032610812000000000000000   10300001 00104100000000003622000000000000     
100   62443100371022130000000000008600000000008600002000000010410408120225460029973284030812000360713130   1030000300030000   581200001812000000000001296CB BANK                SP BAKERY (YA MMR11008120225460029970812000000000000000   10300001F00104100000000003655000000000000     
100   95030305234413920000000000011360000000011360002000000010410408120401440037684773800812222410003768   1030000500030000   531120226314000045311202263OCEAN SUPER CENTER STJ PTN           MMR11008120401440037680812000000000000000   10300001 00104100000000000682000000000000     
100   62911028202400660000000000028900000000028900002000000010410408120901360033754773800812222415003375   1030000500030000   531120226719000045311202267OCEAN NORTH POINT      PTN           MMR11008120901360033750812000000000000000   10300001 00104100000000001734000000000000     
100   62911028202595200000000000150000000000150000002000000010410408121133290019154773800812000360799803   1030000300030000   541100003028000000000000102CB BANK                MAKRO MYANMAR MMR11008121133290019150812000000000000000   10300001F00104100000000009000000000000000     
100   95050322295410690000000000011970000000011970002000000010410408121206410047457467540812222418004745   1030000500030000   541120226402000045411202264MARKET PLACE MYANMARPL PTN           MMR11008121206410047450812000000000000000   10300001 00104100000000002993000000000000     
100   62911028202593140000000000030000000000030000002000000010410408120724310029564773800812000360761859   1030000300030000   598300001209000000000000817CB BANK                SHWE TAUNG EN MMR11008120724310029560812000000000000000   10300001F00104100000000000900000000000000     
100   95030305234413920000000000001700000000001700002000000010410408120417080031114773800812222410003111   1030000500030000   531120226326000045311202263OCEAN SUPER CENTER STJ PTN           MMR11008120417080031110812000000000000000   10300001 00104100000000000102000000000000     
100   62443100395535610000000000010200000000010200002000000010410408120910210044606289980812000360778710   1030000300030000   591200000314000000000000195CB BANK                MEDICARE STOR MMR11008120910210044600812000000000000000   10300001F00104100000000002448000000000000     
100   95050316377977350000000000005000000000005000002000000010410408131254492449062324650813000007646558   1040001600030000   333800010001220104000004507A +                    Yangon        MMR11008131254492449060813000000000000000   10300001F05104100000000001050000000000000     
100   62911028202280200000000000164500000000164500002000000010410408131108440006174773800813000751926028   1030000200030000   569988001629000008000005150KBZ BANK               YDG OFFICE    MMR11008131108440006170813000000000000000   10300001 00104100000000009870000000000000     
100   62911028202530930000000000023000000000023000002000000010410408130628170007974773800813000751910530   1030000200030000   581288000746000008000004038KBZ BANK               CAESAR CAF? & MMR11008130628170007970813000000000000000   10300001 00104100000000002346000000000000     
100   62911028202659640000000000060324000000060324002000000010410408131216260000694773800813000751908384   1030000200030000   541188001003000008000000008KBZ BANK               MARKETPLACE - MMR11008131216260000690813000000000000000   10300001 00104100000000003619000000000000     
100   95030318192435180000000000028000000000028000002000000010410408130556500002654773800813000751908918   1030000200030000   569988002289000008000006050KBZ BANK               PAPILLON - JU MMR11008130556500002650813000000000000000   10300001 00104100000000001680000000000000     
100   62911028202116120000000000020900000000020900002000000010410408131914230012764773800813000751930107   1030000200030000   581288000949000008000004876KBZ BANK               PIZZA HUT RES MMR11008131914230012760813000000000000000   10300001 00104100000000002132000000000000     
100   95050310332595380000000000000990000000000990002000000010410408130030180018493262160813000007644260   1020000200030000   333400010001204104000000281Myanmar Soft-Gate Tech Yangon        MMR11008130030180018490813000000000000000   10300001F05104100000000000208000000000000     
100   95050311244478510000000000047760000000047760002000000010410408131111490055579070580813000751905135   1030000200030000   541188001463000008000000391KBZ BANK               OCEAN SUPER C MMR11008131111490055570813000000000000000   10300001 00104100000000011940000000000000     
100   95050329352979980000000000044500000000044500002000000010410408131032050039462395970813222517003946   1020000200030000   541100255005300115411000025MWD BANK               YGN           MMR11008131032050039460813000000000000000   10300001 00104100000000011125000000000000     
100   95050317176867660000000000002970000000002970002000000010410408130529255925267928670813000007645218   1020000200030000   333400010001204104000000281Myanmar Soft-Gate Tech Yangon        MMR11008130529255925260813000000000000000   10300001F05104100000000000624000000000000     
100   62911028202319090000000000014650000000014650002000000010410408120529330025254773800812222411002525   1030000500030000   541120227606000045411202276CITY MART ( 47 BRANCH  PTN           MMR11008120529330025250812000000000000000   10300001 00104100000000000879000000000000     
100   95030306100096490000000000003960000000003960002000000010410408131401083108264773800813000007646754   1020000200030000   333400010001204104000000281Myanmar Soft-Gate Tech Yangon        MMR11008131401083108260813000000000000000   10300001F05104100000000000832000000000000     
100   95050319161596230000000000000990000000000990002000000010410408130706183618823638200813000007645562   1020000200030000   333400010001204104000000281Myanmar Soft-Gate Tech Yangon        MMR11008130706183618820813000000000000000   10300001F05104100000000000208000000000000     
100   95050311959900780000000000000990000000000990002000000010410408131243071307701473690813000007646517   1020000200030000   333400010001204104000000281Myanmar Soft-Gate Tech Yangon        MMR11008131243071307700813000000000000000   10300001F05104100000000000208000000000000     
100   95050324834443150000000000056502000000056502002000000010410408131109500370186367910813401391750224   1030000900030000   541119001303190110000000968Ocean Mingalar MDY C11 MANDALAYHARSI MMR11008131109500370180813000000000000000   10300001F00104100000000014126000000000000     
100   62443100330048680000000000035000000000035000002000000010410408120348370006074121200812222410000607   1030000500030000   598320001101000015172200011MAX ENERGY             PTN           MMR11008120348370006070812000000000000000   10300001 00104100000000004200000000000000     
100   62911028202074950000000000001800000000001800002000000010410408130920380219424773800813000751900702   1030000200030000   541188001032000008000000298KBZ BANK               CITY MART - M MMR11008130920380219420813000000000000000   10300001 00104100000000000108000000000000     
100   62911028202465350000000000013100000000013100002000000010410408130953110053334773800813000751901762   1030000200030000   541188001085000008000000294KBZ BANK               CITY MART - J MMR11008130953110053330813000000000000000   10300001 00104100000000000786000000000000     
100   95050311823681970000000000021300000000021300002000000010410408131544250030617794130813000751919572   1030000200030000   541188001480000008000000399KBZ BANK               OCEAN SUPERCE MMR11008131544250030610813000000000000000   10300001 00104100000000005325000000000000     
100   62911028202473430000000000050000000000050000002000000010410408131617130028074773800813000751921364   1030000200030000   541188001011000008000000008KBZ BANK               MARKETPLACE - MMR11008131617130028070813000000000000000   10300001 00104100000000003000000000000000     
100   95050329352979980000000000009300000000009300002000000010410408131038510039932821430813222517003993   1020000200030000   541100255008300115411000025MWD BANK               YGN           MMR11008131038510039930813000000000000000   10300001 00104100000000002325000000000000     
100   62911028202907560000000000004100000000004100002000000010410408131126530053364773800813000751905896   1030000200030000   541188001085000008000000294KBZ BANK               CITY MART - J MMR11008131126530053360813000000000000000   10300001 00104100000000000246000000000000     
100   95050311823681970000000000021450000000021450002000000010410408131546140030626141650813000751919670   1030000200030000   541188001480000008000000399KBZ BANK               OCEAN SUPERCE MMR11008131546140030620813000000000000000   10300001 00104100000000005363000000000000     
100   62911028202216940000000000020750000000020750002000000010410408131827160056814773800813000751928423   1030000200030000   541188001079000008000000294KBZ BANK               CITY MART - J MMR11008131827160056810813000000000000000   10300001 00104100000000001245000000000000     
100   62911028202392820000000000138995000000138995002000000010410408131310220064714773800813000751911183   1030000200030000   541188001420000008000000401KBZ BANK               OCEAN SUPERCE MMR11008131310220064710813000000000000000   10300001 00104100000000008340000000000000     
100   95050314931885730000000000001000000000001000002000000010410408130202043204696567140813000007644423   1030000200030000   3338000100012031040000040022C2P (Myanmar) Co. Ltd Yangon        MMR11008130202043204690813000000000000000   10300001F05104100000000000210000000000000     
100   62911028202146650000000000034500000000034500002000000010410408120915580001454773800812222415000145   1030000500030000   591220132901008605912201329THEIK DI WIN SHOP      PTN           MMR11008120915580001450812000000000000000   10300001 00104100000000002070000000000000     
100   95030305234413920000000000012000000000012000002000000010410408120412170040174773800812222410004017   1030000500030000   531120226308000045311202263OCEAN SUPER CENTER STJ PTN           MMR11008120412170040170812000000000000000   10300001 00104100000000000720000000000000     
100   62911028202416760000000000050000000000050000002000000010410408130308595916854773800813222510591685   1040001600030000   598320000316000000010000304PT Power Petrol Statio Yangon        MMR11008130308595916850813000000000000000   10300001F00104100000000001500000000000000     
100   62443100333488440000000000028872000000028872002000000010410408131203560302123127620813000751907818   1030000200030000   541188001038000008000000010KBZ BANK               MARKETPLACE - MMR11008131203560302120813000000000000000   10300001 00104100000000007218000000000000     
100   95050310397364970000000000002970000000002970002000000010410408130733460346095120490813000007645655   1020000200030000   333400010001204104000000281Myanmar Soft-Gate Tech Yangon        MMR11008130733460346090813000000000000000   10300001F05104100000000000624000000000000     
100   95050310427855490000000000002970000000002970002000000010410408131532430243369132370813000007647034   1020000200030000   333400010001204104000000281Myanmar Soft-Gate Tech Yangon        MMR11008131532430243360813000000000000000   10300001F05104100000000000624000000000000     
100   95050310572950870000000000020000000000020000002000000010410408131549111911792182030813000007647070   1030000200030000   333800010001203104000003327KBZPay                 Yangon        MMR11008131549111911790813000000000000000   10300001F05104100000000004200000000000000     
100   62911028202248050000000000032650000000032650002000000010410408130328070036144773800813222509003614   1020000200030000   541100255006300115411000025MWD BANK               YGN           MMR11008130328070036140813000000000000000   10300001 00104100000000001959000000000000     
100   62443100306698200000000000111249000000111249002000000010410408131529320086532326100813000751918821   1030000200030000   541188001004000008000000008KBZ BANK               MARKETPLACE - MMR11008131529320086530813000000000000000   10300001 00104100000000027813000000000000     
100   95030301100120440000000000044900000000044900002000000010410408131636550077334773800813000751922433   1030000200030000   541188001307000008000000325KBZ BANK               CITY MART - A MMR11008131636550077330813000000000000000   10300001 00104100000000002694000000000000     
100   95030310098554020000000000080286000000080286002000000010410408131030420358564773800813679001742224   1030000900030000   541119001353190110000000977Ocean PZD C 7          YANGONAUNG    MMR11008131030420358560813000000000000000   10300001F00104100000000004817000000000000     
100   95050328212196190000000000024230000000024230002000000010410408130404310258029325870813003341031224   1030000900030000   541119001280190110000000963City Mart SPL C 5      YANGONMYOTHIT MMR11008130404310258020813000000000000000   10300001F00104100000000006058000000000000     
100   62911028202280200000000000081550000000081550002000000010410408131039310361284773800813851091731224   1030000900030000   541119001242190110000000955City Mart JS C 1       YANGONUT      MMR11008131039310361280813000000000000000   10300001F00104100000000004893000000000000     
100   62911028202692140000000000042690000000042690002000000010410408130843270301894773800813000751899542   1030000200030000   541188001038000008000000010KBZ BANK               MARKETPLACE - MMR11008130843270301890813000000000000000   10300001 00104100000000002561000000000000     
100   62911028202912590000000000033000000000033000002000000010410408131016490354544773800813426461649224   1030000900030000   554119000348190110000000215New Day Energy MYG     YANGONONE     MMR11008131016490354540813000000000000000   10300001F00104100000000000990000000000000     
100   62911028202503390000000000003600000000003600002000000010410408120502010004024773800812222411000402   1030000500030000   541120020902022205411200209ORANGE (HLAING)        PTN           MMR11008120502010004020812000000000000000   10300001 00104100000000000216000000000000     
100   95050322921717110000000000030000000000030000002000000010410408120110270005534099340812222407000553   1030000500030000   598320001601000015172200016MAX ENERGY             PTN           MMR11008120110270005530812000000000000000   10300001 00104100000000003600000000000000     
100   62911028202503390000000000001200000000001200002000000010410408131038500133804773800813000751903621   1030000200030000   541188001033000008000000298KBZ BANK               CITY MART - M MMR11008131038500133800813000000000000000   10300001 00104100000000000072000000000000     
100   95030318192435180000000000028465000000028465002000000010410408131016300150444773800813000751902595   1030000200030000   541188001081000008000000294KBZ BANK               CITY MART - J MMR11008131016300150440813000000000000000   10300001 00104100000000001708000000000000     
100   62911028202464020000000000024800000000024800002000000010410408131118200372564773800813550481720224   1030000900030000   591219000970190110000000777Shwe Ohh Pharmacy St ( YANGONAW      MMR11008131118200372560813000000000000000   10300001F00104100000000001488000000000000     
100   62911028202465350000000000005900000000005900002000000010410408131012290117244773800813000751902458   1030000200030000   541188001088000008000000294KBZ BANK               CITY MART - J MMR11008131012290117240813000000000000000   10300001 00104100000000000354000000000000     
100   62911028202684060000000000032302000000032302002000000010410408131050570133834773800813000751904148   1030000200030000   541188001128000008000000296KBZ BANK               CITY MART - J MMR11008131050570133830813000000000000000   10300001 00104100000000001938000000000000     
100   95030342412592190000000000019100000000019100002000000010410408130813580322034773800813497431458224   1030000900030000   541119001156190110000000930OCEAN HTY C 6          YANGONTHARYA  MMR11008130813580322030813000000000000000   10300001F00104100000000001146000000000000     
100   95050315066440750000000000041900000000041900002000000010410408130755190316907113370813198251419224   1030000900030000   591219000796190110000000628Shwe Ohh Pharmacy ST-3 YANGONMYOTHIT MMR11008130755190316900813000000000000000   10300001F00104100000000010056000000000000     
100   95050313396828960000000000001980000000001980002000000010410408131331200120100905610813000007646671   1020000200030000   333400010001204104000000281Myanmar Soft-Gate Tech Yangon        MMR11008131331200120100813000000000000000   10300001F05104100000000000416000000000000     
100   95050311184380560000000000300000000000300000002000000010410408130837120327753893490813812071512224   1030000900030000   573219001181190110000000937UNIQUE Hlaing          YANGON        MMR11008130837120327750813000000000000000   10300001F00104100000000072000000000000000     
100   62911028202284260000000000084950000000084950002000000010410408131108420369814773800813379381742224   1030000900030000   541119001247190110000000955City Mart JS C 6       YANGONUT      MMR11008131108420369810813000000000000000   10300001F00104100000000005097000000000000     
100   95050311547837790000000000044177000000044177002000000010410408130656160301638595650813326261316224   1030000900030000   541119001216190110000000945City Mart TM C 1       YANGONONE     MMR11008130656160301630813000000000000000   10300001F00104100000000011045000000000000     
100   62443101093150400000000000019200000000019200002000000010410408130031060216104999740813328010706224   1030000900030000   581219000528190110000000376Shwepalin (Hantharwadd YANGONUT      MMR11008130031060216100813000000000000000   10300001F00104100000000008160000000000000     
100   62911028202924480000000000019050000000019050002000000010410408130753320316234773800813154231432224   1030000900030000   541119001513190110000001102Ocean MGDTM C-6        YANGONADON    MMR11008130753320316230813000000000000000   10300001F00104100000000001143000000000000     
100   95050324082484780000000000021200000000021200002000000010410408130922190340031184200813550521519224   1030000900030000   541119001304190110000000968Ocean Mingalar MDY C 1 MANDALAYHARSI MMR11008130922190340030813000000000000000   10300001F00104100000000005300000000000000     
100   95050320205194540000000000041800000000041800002000000010410408131137250377703175620813849071825224   1030000900030000   541119001263190110000000958City Mart PLST C 6     YANGONMYOTHIT MMR11008131137250377700813000000000000000   10300001F00104100000000010450000000000000     
100   95050315166583130000000000030000000000030000002000000010410408130226435643930382680813000007644470   1030000200030000   333800010001203104000003327KBZPay                 Yangon        MMR11008130226435643930813000000000000000   10300001F05104100000000006300000000000000     
100   62911028202169750000000000024671000000024671002000000010410408130308555916794773800813222510591679   1040001600030000   541120000559000000010000465Ocean Shwe Gone Daing  Yangon        MMR11008130308555916790813000000000000000   10300001F00104100000000001480000000000000     
100   95050312224678430000000000001980000000001980002000000010410408130300163016357162810813000007644580   1020000200030000   333400010001204104000000281Myanmar Soft-Gate Tech Yangon        MMR11008130300163016350813000000000000000   10300001F05104100000000000416000000000000     
