100   62911028202559990000000000020000000000020000002000000010410408060910190000344773800806221815000034   1030000500030000   598320198201000075983201982MOON SUN NORTH OKKALAP PTN           MMR11008060910190000340806000000000000000   10300001 00104100000000000600000000000000     
100   62911028202520380000000000041000000000041000002000000010410408141022460001924773800814000361138758   1030000300030000   598300001209000000000000817CB BANK                SHWE TAUNG EN MMR11008141022460001920814000000000000000   10300001F00104100000000001230000000000000     
100   95030394609966640000000000050889000000050889002000000010410408140310580003594773800814222609000359   1030000500030000   598320001904000015172200019MAX ENERGY             PTN           MMR11008140310580003590814000000000000000   10300001 00104100000000001527000000000000     
100   62911028202287150000000000772000000000772000002000000010410408140620090000164773800814000361104363   1030000300030000   573200001718000000000001226CB BANK                MDRIVE(KABAR  MMR11008140620090000160814000000000000000   10300001F00104100000000046320000000000000     
100   62911028202310160000000000006144000000006144002000000010410408141245080001254773800814222619000125   1030000500030000   531120155711000045311201557GAMONE PWINT           PTN           MMR11008141245080001250814000000000000000   10300001 00104100000000000369000000000000     
100   95050320996331370000000000029000000000029000002000000010410408140052570001246153970814222607000124   1030000500030000   799220099801013607992200998YANGON GOLF CLUB       PTN           MMR11008140052570001240814000000000000000   10300001 00104100000000006960000000000000     
100   62911028202304220000000000901500000000901500002000000010410408140749590000454773800814222614000045   1030000500030000   481220086401000404812200864M-9 (THEIN PHYU)       PTN           MMR11008140749590000450814000000000000000   10300001 00104100000000054090000000000000     
100   62911028202010500000000000030000000000030000002000000010410408140958030000224773800814222616000022   1030000500030000   569120066901008205691200669ESCORT                 PTN           MMR11008140958030000220814000000000000000   10300001 00104100000000001800000000000000     
100   62443100372702000000000000500000000000500000002000000010410408151150202020825578280815000007655451   1040001600030000   333800010001220104000004507A +                    Yangon        MMR11008151150202020820815000000000000000   10300001F05104100000000105000000000000000     
100   95050311419479170000000000004000000000004000002000000010410408150756402640834359340815000007654103   1030000200030000   3334000100012031040000040102C2P (Myanmar) Co. Ltd Yangon        MMR11008150756402640830815000000000000000   10300001F05104100000000000840000000000000     
100   95050312595952760000000000000990000000000990002000000010410408150505353535012415920815000007652593   1020000200030000   333400010001204104000000281Myanmar Soft-Gate Tech Yangon        MMR11008150505353535010815000000000000000   10300001F05104100000000000208000000000000     
100   95050317317598540000000000040000000000040000002000000010410408151220465046738627950815000007655571   1030000200030000   333800010001203104000003327KBZPay                 Yangon        MMR11008151220465046730815000000000000000   10300001F05104100000000008400000000000000     
100   62911028202290100000000000159600000000159600002000000010410408150733497756364773800815222714775636   1040001600030000   591220000295000000010000283Shwe Ohh Pharmacy (39t Yangon        MMR11008150733497756360815000000000000000   10300001F00104100000000009576000000000000     
100   95050319925596540000000000009900000000009900002000000010410408151057102710049783650815000007655202   1020000200030000   333400010001204104000000281Myanmar Soft-Gate Tech Yangon        MMR11008151057102710040815000000000000000   10300001F05104100000000002079000000000000     
100   95050327416134790000000000000990000000000990002000000010410408151300183018045408080815000007655746   1020000200030000   333400010001204104000000281Myanmar Soft-Gate Tech Yangon        MMR11008151300183018040815000000000000000   10300001F05104100000000000208000000000000     
100   95050314570621780000000000001980000000001980002000000010410408150413054305184869920815000007652021   1020000200030000   333400010001204104000000281Myanmar Soft-Gate Tech Yangon        MMR11008150413054305180815000000000000000   10300001F05104100000000000416000000000000     
100   62911028202310160000000000013132000000013132002000000010410408141217000001134773800814222618000113   1030000500030000   531120155715000045311201557GAMONE PWINT           PTN           MMR11008141217000001130814000000000000000   10300001 00104100000000000788000000000000     
100   62911028202502480000000000050000000000050000002000000010410408140757050000044773800814222614000004   1030000500030000   531120155717000045311201557GAMONE PWINT           PTN           MMR11008140757050000040814000000000000000   10300001 00104100000000003000000000000000     
100   62911028202696360000000000044700000000044700002000000010410408141114360001244773800814222617000124   1030000500030000   591220010401014405912200104SHWE OHH PHARMACY      PTN           MMR11008141114360001240814000000000000000   10300001 00104100000000002682000000000000     
100   62443100313112320000000000073350000000073350002000000010410408140538220004684737290814222612000468   1030000500030000   503920036604000015039200366PRO-1 HOME CENTER      PTN           MMR11008140538220004680814000000000000000   10300001 00104100000000017604000000000000     
100   95050317416187280000000000200000000000200000002000000010410408140441350000027007340814222611000002   1030000500030000   481220250401009804812202504KHIT THIT MOBILE       PTN           MMR11008140441350000020814000000000000000   10300001 00104100000000048000000000000000     
100   62911028202448030000000000150000000000150000002000000010410408140402420001774773800814000361085543   1030000300030000   541100002348000000000000102CB BANK                MAKRO MYANMAR MMR11008140402420001770814000000000000000   10300001F00104100000000009000000000000000     
100   62911028202684060000000000053250000000053250002000000010410408140302440001734773800814222609000173   1030000500030000   591220013601014405912200136SHWE OHH PHARMACY      PTN           MMR11008140302440001730814000000000000000   10300001 00104100000000003195000000000000     
100   62443100371022130000000000098500000000098500002000000010410408141408230001198077000814222620000119   1030000500030000   581220050501023105812200505FUSAN RESTAURANT       PTN           MMR11008141408230001190814000000000000000   10300001 00104100000000041863000000000000     
100   95050315259054570000000000008000000000008000002000000010410408151223065306113585410815000007655576   1030000200030000   333800010001203104000003327KBZPay                 Yangon        MMR11008151223065306110815000000000000000   10300001F05104100000000001680000000000000     
100   62911028202684060000000000144271000000144271002000000010410408150351201923594773800815212018726567   1040001400030000   806210000094028062100000766Yoma OUE Pun Hlaing Ho pital  Yoma O MMR11008150351201923590815000000000000000   10300001 00104100000000008656000000000000     
100   95050322312885760000000000009500000000009500002000000010410408150847171717516423520815000007654436   1030000200030000   333800010001203104000003327KBZPay                 Yangon        MMR11008150847171717510815000000000000000   10300001F05104100000000001995000000000000     
100   62911028202093430000000000001980000000001980002000000010410408150259522952094773800815000007651089   1020000200030000   333400010001204104000000281Myanmar Soft-Gate Tech Yangon        MMR11008150259522952090815000000000000000   10300001F05104100000000000416000000000000     
100   62911028202103410000000000011750000000011750002000000010410408150818080820154773800815352481408226   1030000900030000   541119001195190110000000942City Mart HDC C 10     YANGONUT      MMR11008150818080820150815000000000000000   10300001F00104100000000000705000000000000     
100   95050315099113150000000000000990000000000990002000000010410408141659582958217736610815000007650382   1020000200030000   333400010001204104000000281Myanmar Soft-Gate Tech Yangon        MMR11008141659582958210815000000000000000   10300001F05104100000000000208000000000000     
100   95050319156011610000000000000990000000000990002000000010410408151320315031967315850815000007655843   1020000200030000   333400010001204104000000281Myanmar Soft-Gate Tech Yangon        MMR11008151320315031960815000000000000000   10300001F05104100000000000208000000000000     
100   95050317743858310000000000030000000000030000002000000010410408150808433843885998040815000007654180   1030000200030000   333800010001203104000003327KBZPay                 Yangon        MMR11008150808433843880815000000000000000   10300001F05104100000000006300000000000000     
100   95050324622440820000000000048279000000048279002000000010410408140449500002744383100814222611000274   1030000500030000   581220021301000015812200213THAI 47                PTN           MMR11008140449500002740814000000000000000   10300001 00104100000000020519000000000000     
100   95030332666916030000000000226900000000226900002000000010410408140805480001054773800814222614000105   1030000500030000   531120201505000085311202015HAGL BLAZON            PTN           MMR11008140805480001050814000000000000000   10300001 00104100000000013614000000000000     
100   62911028202286990000000001000000000001000000002000000010410408140618560000134773800814000361104194   1030000300030000   573200001718000000000001226CB BANK                MDRIVE(KABAR  MMR11008140618560000130814000000000000000   10300001F00104100000000060000000000000000     
100   62911028202911760000000000062600000000062600002000000010410408140419550000914773800814222610000091   1030000500030000   541120025102022205411200251ORANGE (THANLYIN-2)    PTN           MMR11008140419550000910814000000000000000   10300001 00104100000000003756000000000000     
100   95030301100121270000000000016000000000016000002000000010410408110855260000494773800811222308000049   1030000600030000   554100002415315799420001685MMTM THINGANGYUN       YANGON        MMR11008110855260000490811000000000000000   10300001 00104100000000000480000000000000     
100   95050328082468580000000000020865000000020865002000000010410408110253190007264617990811222302000726   1030000600030000   5499000022273157994200015671 STOP S M BOGYOKE RD  YANGON        MMR11008110253190007260811000000000000000   10300001 00104100000000008868000000000000     
100   95030310098554020000000000031000000000031000002000000010410408140453510007814773800814222611000781   1030000500030000   598320001302000015172200013MAX ENERGY             PTN           MMR11008140453510007810814000000000000000   10300001 00104100000000000930000000000000     
100   95050326583352640000000000103295000000103295002000000010410408140811360012289562560814222614001228   1030000500030000   531120231203000045311202312OCEAN OATTARA THIRI    PTN           MMR11008140811360012280814000000000000000   10300001 00104100000000024791000000000000     
100   62911028202217690000000000040000000000040000002000000010410408151013534353254773800815000007654977   1030000200030000   333800010001203104000003327KBZPay                 Yangon        MMR11008151013534353250815000000000000000   10300001F05104100000000008400000000000000     
100   62911028202662690000000000126546000000126546002000000010410408150341441144004773800815000007651689   1010000100030000   333500010001212104000002535Internal Revenue Depar Yangon        MMR11008150341441144000815000000000000000   10300001F05104100000000060000000000000000     
100   95050311458479980000000000032000000000032000002000000010410408151002193219874400720815000007654920   1030000200030000   3338000100012031040000040022C2P (Myanmar) Co. Ltd Yangon        MMR11008151002193219870815000000000000000   10300001F05104100000000006720000000000000     
100   95050313003526690000000000050000000000050000002000000010410408150824055405775026330815000007654278   1030000200030000   333800010001203104000003327KBZPay                 Yangon        MMR11008150824055405770815000000000000000   10300001F05104100000000010500000000000000     
100   95050314767696390000000000012000000000012000002000000010410408151000330850789358170815908301633226   1030000900030000   594519000441190110000000296BKB Baby &Toys(North D YANGONMYOTHIT MMR11008151000330850780815000000000000000   10300001F00104100000000002880000000000000     
100   95050319701366650000000000012100000000012100002000000010410408151127170879453429000815548571717226   1030000900030000   541119001196190110000000942City Mart HDC C 11     YANGONUT      MMR11008151127170879450815000000000000000   10300001F00104100000000003025000000000000     
100   95050319978637470000000000020000000000020000002000000010410408150512004200250933630815000007652669   1030000200030000   3338000100012031040000040022C2P (Myanmar) Co. Ltd Yangon        MMR11008150512004200250815000000000000000   10300001F05104100000000004200000000000000     
100   62443100350052510000000000083600000000083600002000000010410408150326095609625940520815000007651446   1030000200030000   333300010001203104000003632Myanmar Tradenet Test  Yangon        MMR11008150326095609620815000000000000000   10300001F05104100000000010000000000000000     
100   62911028202616250000000000092950000000092950002000000010410408140532590023404773800814000361097821   1030000300030000   531100002946000000000002048CB BANK                S & P DISTRIB MMR11008140532590023400814000000000000000   10300001F00104100000000005577000000000000     
100   95030394609966640000000000050750000000050750002000000010410408141000590005494773800814222616000549   1030000500030000   541120020902022205411200209ORANGE (HLAING)        PTN           MMR11008141000590005490814000000000000000   10300001 00104100000000003045000000000000     
100   62911028202074950000000000010970000000010970002000000010410408140443010032424773800814222611003242   1030000500030000   541120227504000045411202275CITY MART (AHLONE BRAN PTN           MMR11008140443010032420814000000000000000   10300001 00104100000000000658000000000000     
100   62443100318296470000000000045001000000045001002000000010410408132343270007975728510814222606000797   1030000500030000   598320001202000015172200012MAX ENERGY             PTN           MMR11008132343270007970814000000000000000   10300001 00104100000000005400000000000000     
100   62443100355445150000000000008600000000008600002000000010410408140935500008456867040814222616000845   1030000500030000   541120227602000045411202276CITY MART ( 47 BRANCH  PTN           MMR11008140935500008450814000000000000000   10300001 00104100000000002150000000000000     
100   95050322498193470000000000158220000000158220002000000010410408141141480007330871390814222618000733   1030000500030000   531120231205000045311202312OCEAN OATTARA THIRI    PTN           MMR11008141141480007330814000000000000000   10300001 00104100000000037973000000000000     
100   62443100333488440000000000009500000000009500002000000010410408140251120003627575390814222609000362   1030000500030000   541120228601000045411202286CITY EXPRESS (MCS - 11 PTN           MMR11008140251120003620814000000000000000   10300001 00104100000000002375000000000000     
100   62911028202728380000000000005500000000005500002000000010410408140454380021154773800814222611002115   1030000500030000   541120226206000045411202262CITY MART ZAWANA       PTN           MMR11008140454380021150814000000000000000   10300001 00104100000000000330000000000000     
100   95050313732480420000000000002970000000002970002000000010410408150654012401126898450815000007653593   1020000200030000   333400010001204104000000281Myanmar Soft-Gate Tech Yangon        MMR11008150654012401120815000000000000000   10300001F05104100000000000624000000000000     
100   95050311419479170000000000002000000000002000002000000010410408150801353135942863260815000007654128   1030000200030000   3334000100012031040000040102C2P (Myanmar) Co. Ltd Yangon        MMR11008150801353135940815000000000000000   10300001F05104100000000000420000000000000     
100   95050314020354280000000000002970000000002970002000000010410408151309053905549393820815000007655785   1020000200030000   333400010001204104000000281Myanmar Soft-Gate Tech Yangon        MMR11008151309053905540815000000000000000   10300001F05104100000000000624000000000000     
100   95050312595952760000000000000990000000000990002000000010410408150507113711394153500815000007652613   1020000200030000   333400010001204104000000281Myanmar Soft-Gate Tech Yangon        MMR11008150507113711390815000000000000000   10300001F05104100000000000208000000000000     
100   95050317942168830000000000035000000000035000002000000010410408151320365036265663370815000007655841   1030000200030000   333800010001203104000003327KBZPay                 Yangon        MMR11008151320365036260815000000000000000   10300001F05104100000000007350000000000000     
100   62443100372702000000000001000000000001000000002000000010410408151122105210577074360815000007655324   1040001600030000   333800010001220104000004507A +                    Yangon        MMR11008151122105210570815000000000000000   10300001F05104100000000210000000000000000     
100   95050313145843230000000000010000000000010000002000000010410408150224095409346742040815000007650918   1030000200030000   333800010001203104000003327KBZPay                 Yangon        MMR11008150224095409340815000000000000000   10300001F05104100000000002100000000000000     
100   95030338164853990000000000034050000000034050002000000010410408150647240797274773800815277171324226   1030000900030000   541119001206190110000000948City Mart YK C 4       YANGONAUNG    MMR11008150647240797270815000000000000000   10300001F00104100000000002043000000000000     
100   62443100300792360000000000037630000000037630002000000010410408140408000014773177980814222610001477   1030000500030000   541120230004000045411202300MARKET PLACE BY CITY M PTN           MMR11008140408000014770814000000000000000   10300001 00104100000000009408000000000000     
100   62911028202469800000000000077993000000077993002000000010410408141125250027414773800814222617002741   1030000500030000   531120226311000045311202263OCEAN SUPER CENTER STJ PTN           MMR11008141125250027410814000000000000000   10300001 00104100000000004680000000000000     
100   62443101037081820000000000050000000000050000002000000010410408141323480009442949360814222619000944   1030000500030000   598320001202000015172200012MAX ENERGY             PTN           MMR11008141323480009440814000000000000000   10300001 00104100000000006000000000000000     
100   62911028202151910000000000050000000000050000002000000010410408140122270009874773800814222607000987   1030000500030000   598320001204000015172200012MAX ENERGY             PTN           MMR11008140122270009870814000000000000000   10300001 00104100000000001500000000000000     
100   62911028202668300000000000035000000000035000002000000010410408140216280004704773800814222608000470   1030000500030000   598320002003000015172200020MAX ENERGY             PTN           MMR11008140216280004700814000000000000000   10300001 00104100000000001050000000000000     
100   95050328074436620000000000012605000000012605002000000010410408140238540010003883960814222609001000   1030000500030000   598320001203000015172200012MAX ENERGY             PTN           MMR11008140238540010000814000000000000000   10300001 00104100000000001513000000000000     
100   62911028202616250000000000237700000000237700002000000010410408140733310032524773800814222614003252   1030000500030000   541120226404000045411202264MARKET PLACE MYANMARPL PTN           MMR11008140733310032520814000000000000000   10300001 00104100000000014262000000000000     
100   62911028202136750000000000053000000000053000002000000010410408141210190006964773800814222618000696   1030000500030000   598320001902000015172200019MAX ENERGY             PTN           MMR11008141210190006960814000000000000000   10300001 00104100000000001590000000000000     
100   62911028202169750000000000018000000000018000002000000010410408151011540854414773800815100411654226   1030000900030000   554119000346190110000000213New Day Energy SOK     YANGONOKKALAP MMR11008151011540854410815000000000000000   10300001F00104100000000000540000000000000     
100   95050310409767690000000000015000000000015000002000000010410408150748331833007494120815000007654049   1030000200030000   333800010001203104000003327KBZPay                 Yangon        MMR11008150748331833000815000000000000000   10300001F05104100000000003150000000000000     
100   95050311168163370000000000001000000000001000002000000010410408150906513651343884420815000007654554   1030000200030000   333800010001203104000003327KBZPay                 Yangon        MMR11008150906513651340815000000000000000   10300001F05104100000000000210000000000000     
100   95050325455962190000000000001980000000001980002000000010410408141711264126711041580815000007650395   1020000200030000   333400010001204104000000281Myanmar Soft-Gate Tech Yangon        MMR11008141711264126710815000000000000000   10300001F05104100000000000416000000000000     
100   95050328741376010000000000050000000000050000002000000010410408150416364636111564960815000007652045   1030000200030000   333800010001203104000003327KBZPay                 Yangon        MMR11008150416364636110815000000000000000   10300001F05104100000000010500000000000000     
100   95050315259054570000000000010000000000010000002000000010410408150221395139498394530815000007650909   1030000200030000   333800010001203104000003327KBZPay                 Yangon        MMR11008150221395139490815000000000000000   10300001F05104100000000002100000000000000     
100   62911028202935520000000000028275000000028275002000000010410408150805590816794773800815177351459226   1030000900030000   541119001332190110000000971Ocean Junction NPT C 1 NAYPYITAW     MMR11008150805590816790815000000000000000   10300001F00104100000000001697000000000000     
100   95030301100216560000000000018000000000018000002000000010410408150954480848934773800815807241648226   1030000900030000   541119001078190110000000872Sein Gay Har Hledan    YANGONONE     MMR11008150954480848930815000000000000000   10300001F00104100000000001080000000000000     
100   62911028202286990000000000030000000000030000002000000010410408140628560007944773800814222612000794   1030000500030000   598320001304000015172200013MAX ENERGY             PTN           MMR11008140628560007940814000000000000000   10300001 00104100000000000900000000000000     
100   62911028202142930000000000017000000000017000002000000010410408140125530011884773800814000361066187   1030000300030000   598300001212000000000000819CB BANK                SHWE TAUNG EN MMR11008140125530011880814000000000000000   10300001F00104100000000000510000000000000     
100   62911028202320300000000000032000000000032000002000000010410408140045590007554773800814222607000755   1030000500030000   598320001201000015172200012MAX ENERGY             PTN           MMR11008140045590007550814000000000000000   10300001 00104100000000000960000000000000     
100   62443100340422630000000000027000000000027000002000000010410408140800340008092540910814222614000809   1030000500030000   598320001302000015172200013MAX ENERGY             PTN           MMR11008140800340008090814000000000000000   10300001 00104100000000003240000000000000     
100   62911028202010500000000000005800000000005800002000000010410408141016000021084773800814222616002108   1030000500030000   541120226407000045411202264MARKET PLACE MYANMARPL PTN           MMR11008141016000021080814000000000000000   10300001 00104100000000000348000000000000     
100   62911028202294570000000000045001000000045001002000000010410408140552370005064773800814222612000506   1030000500030000   598320041901000055983200419MAX ENERGY             PTN           MMR11008140552370005060814000000000000000   10300001 00104100000000001350000000000000     
100   62911028202133940000000000063510000000063510002000000010410408140144160007444773800814222608000744   1030000500030000   598320001101000015172200011MAX ENERGY             PTN           MMR11008140144160007440814000000000000000   10300001 00104100000000001905000000000000     
100   62911028202161240000000000015000000000015000002000000010410408140605550008674773800814222612000867   1030000500030000   598320001202000015172200012MAX ENERGY             PTN           MMR11008140605550008670814000000000000000   10300001 00104100000000000450000000000000     
100   95050329613303740000000000010000000000010000002000000010410408150851482148384941230815000007654451   1030000200030000   333800010001203104000003327KBZPay                 Yangon        MMR11008150851482148380815000000000000000   10300001F05104100000000002100000000000000     
100   95050317084233280000000000000990000000000990002000000010410408151049471947689698550815000007655165   1020000200030000   333400010001204104000000281Myanmar Soft-Gate Tech Yangon        MMR11008151049471947680815000000000000000   10300001F05104100000000000208000000000000     
100   95050312360118350000000000005000000000005000002000000010410408141858522852399474200815000007650506   1030000200030000   333800010001203104000003327KBZPay                 Yangon        MMR11008141858522852390815000000000000000   10300001F05104100000000001050000000000000     
100   95050313003526690000000000032000000000032000002000000010410408151315294529352358400815000007655818   1030000200030000   3338000100012031040000040022C2P (Myanmar) Co. Ltd Yangon        MMR11008151315294529350815000000000000000   10300001F05104100000000006720000000000000     
100   62911028202446540000000000043350000000043350002000000010410408150150057557244773800815222708755724   1040001600030000   591220000287000000010000275Shwe Ohh Pharmacy (Wit Yangon        MMR11008150150057557240815000000000000000   10300001F00104100000000002601000000000000     
100   62911028202446540000000000086250000000086250002000000010410408150152247558604773800815222708755860   1040001600030000   591220000287000000010000275Shwe Ohh Pharmacy (Wit Yangon        MMR11008150152247558600815000000000000000   10300001F00104100000000005175000000000000     
100   62911028202469800000000000046250000000046250002000000010410408150439107645384773800815222711764538   1040001600030000   591220000276000000010000264Shwe Ohh Pharmacy (YGH Yangon        MMR11008150439107645380815000000000000000   10300001F00104100000000002775000000000000     
100   95050329023136610000000000045344000000045344002000000010410408150753187765947579210815222714776594   1040001600030000   541120000555000000010000465Ocean Shwe Gone Daing  Yangon        MMR11008150753187765940815000000000000000   10300001F00104100000000011336000000000000     
100   62911028202692140000000000013502000000013502002000000010410408140125050009494773800814222607000949   1030000500030000   598320001401000015172200014MAX ENERGY             PTN           MMR11008140125050009490814000000000000000   10300001 00104100000000000405000000000000     
100   62911028202442250000000000021000000000021000002000000010410408140219020007704773800814222608000770   1030000500030000   598320001201000015172200012MAX ENERGY             PTN           MMR11008140219020007700814000000000000000   10300001 00104100000000000630000000000000     
100   62911028202204490000000000033000000000033000002000000010410408140659580008724773800814222613000872   1030000500030000   598320001202000015172200012MAX ENERGY             PTN           MMR11008140659580008720814000000000000000   10300001 00104100000000000990000000000000     
100   62911028202193670000000000036000000000036000002000000010410408141042060007764773800814222617000776   1030000500030000   598320001603000015172200016MAX ENERGY             PTN           MMR11008141042060007760814000000000000000   10300001 00104100000000001080000000000000     
100   62911028202110420000000000089000000000089000002000000010410408141200160008004773800814222618000800   1030000500030000   598320001303000015172200013MAX ENERGY             PTN           MMR11008141200160008000814000000000000000   10300001 00104100000000002670000000000000     
100   62911028202559990000000000042003000000042003002000000010410408100244470000724773800810222209000072   1030000500030000   598320198202000075983201982MOON SUN NORTH OKKALAP PTN           MMR11008100244470000720810000000000000000   10300001 00104100000000001260000000000000     
100   62443100376865460000000000024300000000024300002000000010410408140855260038100413520814222615003810   1030000500030000   531120226310000045311202263OCEAN SUPER CENTER STJ PTN           MMR11008140855260038100814000000000000000   10300001 00104100000000005832000000000000     
100   95050317176867660000000000027900000000027900002000000010410408140308370040751901520814000361078536   1030000300030000   531100000540000000000000376CB BANK                CAPITAL HYPER MMR11008140308370040750814000000000000000   10300001F00104100000000006696000000000000     
100   95050321798808970000000000020000000000020000002000000010410408150257272727590557590815000007651061   1030000200030000   333800010001203104000003327KBZPay                 Yangon        MMR11008150257272727590815000000000000000   10300001F05104100000000004200000000000000     
100   95050314064416890000000000002970000000002970002000000010410408150827065706859983780815000007654313   1020000200030000   333400010001204104000000281Myanmar Soft-Gate Tech Yangon        MMR11008150827065706850815000000000000000   10300001F05104100000000000624000000000000     
100   62911028202736950000000000005000000000005000002000000010410408150127075707084773800815000007650756   1040001600030000   333800010001220104000004507A +                    Yangon        MMR11008150127075707080815000000000000000   10300001F05104100000000001050000000000000     
100   95050314979630620000000000000990000000000990002000000010410408151144521452875493180815000007655427   1020000200030000   333400010001204104000000281Myanmar Soft-Gate Tech Yangon        MMR11008151144521452870815000000000000000   10300001F05104100000000000208000000000000     
100   95050310816569570000000000150000000000150000002000000010410408150952132213830414970815000007654869   1030000200030000   3338000100012031040000040022C2P (Myanmar) Co. Ltd Yangon        MMR11008150952132213830815000000000000000   10300001F05104100000000031500000000000000     
100   95050322312885760000000000002500000000002500002000000010410408150900163016598926970815000007654512   1030000200030000   333800010001203104000003327KBZPay                 Yangon        MMR11008150900163016590815000000000000000   10300001F05104100000000000525000000000000     
100   95050314534800510000000000000990000000000990002000000010410408150238430843969961910815000007650974   1020000200030000   333400010001204104000000281Myanmar Soft-Gate Tech Yangon        MMR11008150238430843960815000000000000000   10300001F05104100000000000208000000000000     
100   62911028202441420000000000011200000000011200002000000010410408150925477821214773800815222716782121   1040001600030000   591220000297000000010000285Shwe Ohh Pharmacy (Nor Yangon        MMR11008150925477821210815000000000000000   10300001F00104100000000000672000000000000     
100   62911028202084020000000000146200000000146200002000000010410408140405450054714773800814000361085922   1030000300030000   541100002337000000000000102CB BANK                MAKRO MYANMAR MMR11008140405450054710814000000000000000   10300001F00104100000000008772000000000000     
100   62911028202611530000000000007051000000007051002000000010410408140949100039614773800814222616003961   1030000500030000   541120230002000045411202300MARKET PLACE BY CITY M PTN           MMR11008140949100039610814000000000000000   10300001 00104100000000000423000000000000     
100   95050311779172060000000000004000000000004000002000000010410408140618330037233251660814000361104142   1030000300030000   531100000838000000000000574CB BANK                MGOU-JC       MMR11008140618330037230814000000000000000   10300001F00104100000000000960000000000000     
100   62911028202443730000000000057200000000057200002000000010410408140409250044374773800814222610004437   1030000500030000   531120226301000045311202263OCEAN SUPER CENTER STJ PTN           MMR11008140409250044370814000000000000000   10300001 00104100000000003432000000000000     
100   62911028202242010000000000175877000000175877002000000010410408140341310048644773800814222610004864   1030000500030000   541120226806000045411202268CITY MART WAIZAYANDA   PTN           MMR11008140341310048640814000000000000000   10300001 00104100000000010553000000000000     
100   62911028202291270000000000114500000000114500002000000010410408140818486979954773800814222615697995   1040001600030000   581420000079000000010000075Spicy Hot Pot Saya San Yangon        MMR11008140818486979950814000000000000000   10300001F00104100000000003435000000000000     
100   62911028202448030000000000110000000000110000002000000010410408140803290008044773800814222614000804   1030000500030000   598320001201000015172200012MAX ENERGY             PTN           MMR11008140803290008040814000000000000000   10300001 00104100000000003300000000000000     
100   62911028202077500000000000005000000000005000002000000010410408150510214021844773800815000007652648   1040001600030000   333800010001220104000004507A +                    Yangon        MMR11008150510214021840815000000000000000   10300001F05104100000000001050000000000000     
100   95050324247403260000000000086000000000086000002000000010410408141127290009347566430814222617000934   1030000500030000   598320001402000015172200014MAX ENERGY             PTN           MMR11008141127290009340814000000000000000   10300001 00104100000000010320000000000000     
100   62911028202314040000000000013000000000013000002000000010410408151019447862824773800815222717786282   1040001600030000   598320001059000000010000780Yangon Petrol (Tharket Ygn           MMR11008151019447862820815000000000000000   10300001F00104100000000000390000000000000     
100   62911028202790980000000000082000000000082000002000000010410408112253150093324773800812222422009332   1030000600030000   554100001812315799420001187DENKO  SHWE TAUNG      SHWE TAUNG    MMR11008112253150093320812000000000000000   10300001 00104100000000002460000000000000     
100   95050317578818060000000000009580000000009580002000000010410408141115030021998623230814222617002199   1030000500030000   541120229108000045411202291CITY MART YANKIN       PTN           MMR11008141115030021990814000000000000000   10300001 00104100000000002395000000000000     
100   62443100300743690000000000035000000000035000002000000010410408151217537972270280440815222719797227   1040001600030000   598320000911000000010000662MMTM - Tamwe           Ygn           MMR11008151217537972270815000000000000000   10300001F00104100000000004200000000000000     
100   62911028202162640000000000015000000000015000002000000010410408140202430009564773800814222608000956   1030000500030000   598320001401000015172200014MAX ENERGY             PTN           MMR11008140202430009560814000000000000000   10300001 00104100000000000450000000000000     
100   95050321848852460000000000086000000000086000002000000010410408151251218002357060570815222719800235   1040001600030000   598320001059000000010000780Yangon Petrol (Tharket Ygn           MMR11008151251218002350815000000000000000   10300001F00104100000000010320000000000000     
100   95050320624349010000000000020000000000020000002000000010410408070913280000613659840807221915000061   1030000500030000   598320198202000075983201982MOON SUN NORTH OKKALAP PTN           MMR11008070913280000610807000000000000000   10300001 00104100000000002400000000000000     
100   62911028202502480000000000048489000000048489002000000010410408151426290390304773800815000752025892   1030000200030000   541188001039000008000000010KBZ BANK               MARKETPLACE - MMR11008151426290390300815000000000000000   10300001 00104100000000002909000000000000     
100   95050317043153610000000000025200000000025200002000000010410408140647110023024102580814222613002302   1030000500030000   541120231305000045411202313CITY MART (AYEYARWON)  PTN           MMR11008140647110023020814000000000000000   10300001 00104100000000006300000000000000     
100   95050315889680120000000000003000000000003000002000000010410408150308073807508734910815000007651181   1030000200030000   333800010001203104000003327KBZPay                 Yangon        MMR11008150308073807500815000000000000000   10300001F05104100000000000630000000000000     
100   62911028202616250000000000414500000000414500002000000010410408140621230000774773800814222612000077   1030000500030000   569120066701000015691200667NIKE (NMP)             PTN           MMR11008140621230000770814000000000000000   10300001 00104100000000024870000000000000     
100   62443101007477200000000000160000000000160000002000000010410408140229210002643458500814222608000264   1030000500030000   599520213801000085995202138NPT PET MART GROUP     PTN           MMR11008140229210002640814000000000000000   10300001 00104100000000038400000000000000     
100   62911028202924480000000000010800000000010800002000000010410408140617440002934773800814000361104025   1030000300030000   581200002467000000000001664CB BANK                URBAN KITCHEN MMR11008140617440002930814000000000000000   10300001F00104100000000001102000000000000     
100   62443100355445150000000000108000000000108000002000000010410408140149450001682961680814000361068888   1030000300030000   541100002348000000000000102CB BANK                MAKRO MYANMAR MMR11008140149450001680814000000000000000   10300001F00104100000000027000000000000000     
100   95050312675525330000000000001000000000001000002000000010410408151406363636789138530815000007656047   1030000200030000   333800010001203104000003327KBZPay                 Yangon        MMR11008151406363636780815000000000000000   10300001F05104100000000000210000000000000     
100   95050317945250280000000000032450000000032450002000000010410408151103447905883684290815222718790588   1040001600030000   591220000287000000010000275Shwe Ohh Pharmacy (Wit Yangon        MMR11008151103447905880815000000000000000   10300001F00104100000000007788000000000000     
100   62911028202448030000000000020000000000020000002000000010410408151133287932214773800815222718793221   1040001600030000   598320000658000000010000527Shwe Taung Energy (YGN Yangon        MMR11008151133287932210815000000000000000   10300001F00104100000000000600000000000000     
100   62911028202133940000000000034000000000034000002000000010410408141017280000644773800814222616000064   1030000500030000   591220012501014405912200125SHWE OHH PHARMACY      PTN           MMR11008141017280000640814000000000000000   10300001 00104100000000002040000000000000     
100   95030301100126550000000000020000000000020000002000000010410408111103320264774773800811222311026477   1030000600030000   554100002323315799420000474DENKO N.DAGON - 1      YANGON        MMR11008111103320264770811000000000000000   10300001 00104100000000000600000000000000     
100   95050325637546660000000000050000000000050000002000000010410408151209037964038542860815222719796403   1040001600030000   598320000326000000010000314PT Power Petrol Statio Nay Pyi Taw   MMR11008151209037964030815000000000000000   10300001F00104100000000006000000000000000     
100   95030346645639490000000000002550000000002550002000000010410408150422387636204773800815222711763620   1040001600030000   591220000258000000010000246Shwe Ohh Pharmacy (Sin Yangon        MMR11008150422387636200815000000000000000   10300001F00104100000000000153000000000000     
100   95050314565805350000000000076000000000076000002000000010410408150255052505792210070815000007651050   1030000200030000   333800010001203104000003327KBZPay                 Yangon        MMR11008150255052505790815000000000000000   10300001F05104100000000015960000000000000     
100   62911028202310160000000000029253000000029253002000000010410408141229420000734773800814222618000073   1030000500030000   531120155713000045311201557GAMONE PWINT           PTN           MMR11008141229420000730814000000000000000   10300001 00104100000000001755000000000000     
100   62911028202154800000000000007100000000007100002000000010410408141102010005984773800814222617000598   1030000500030000   581220263901000085812202639BREAD TALK             PTN           MMR11008141102010005980814000000000000000   10300001 00104100000000000724000000000000     
100   95030346179196360000000000032200000000032200002000000010410408141009157060694773800814222617706069   1040001600030000   598320000856000000010000609Terminal Petrol Statio Yangon        MMR11008141009157060690814000000000000000   10300001F00104100000000000966000000000000     
100   62911028202074950000000000057009000000057009002000000010410408132338300007454773800814222606000745   1030000500030000   598320001201000015172200012MAX ENERGY             PTN           MMR11008132338300007450814000000000000000   10300001 00104100000000001710000000000000     
100   95050318134586070000000000026700000000026700002000000010410408151528210113138841880815000752031419   1030000200030000   541188001314000008000000306KBZ BANK               CITY MART - S MMR11008151528210113130815000000000000000   10300001 00104100000000006675000000000000     
100   62911028202662690000000000050000000000050000002000000010410408150326515651954773800815000007651470   1030000300030000   333300010001206104000002147DICA Company Limited   Yangon        MMR11008150326515651950815000000000000000   10300001F05104100000000010000000000000000     
100   62911028202181120000000000041500000000041500002000000010410408120023280113284773800812222400011328   1030000600030000   554100002322315799420000497DENKO KONE TA LA PAUNG YANGON        MMR11008120023280113280812000000000000000   10300001 00104100000000001245000000000000     
100   62911028202280200000000000042030000000042030002000000010410408120801360323274773800812222408032327   1030000600030000   554100002319315799420000477DENKO INSEIN           YANGON        MMR11008120801360323270812000000000000000   10300001 00104100000000001261000000000000     
100   62911028202074950000000000025000000000025000002000000010410408120424000406694773800812222404040669   1030000600030000   554100002085315799420000471DENKO BAHAN            YANGON        MMR11008120424000406690812000000000000000   10300001 00104100000000000750000000000000     
100   62911028202366010000000000116000000000116000002000000010410408120831330443684773800812222408044368   1030000600030000   554100001865315799420001235DENKO NAY PYI TAW 2    NAYPYITAW     MMR11008120831330443680812000000000000000   10300001 00104100000000003480000000000000     
100   62911028202366010000000000113000000000113000002000000010410408120832170443694773800812222408044369   1030000600030000   554100001865315799420001235DENKO NAY PYI TAW 2    NAYPYITAW     MMR11008120832170443690812000000000000000   10300001 00104100000000003390000000000000     
100   62443100313002190000000000070000000000070000002000000010410408121014210592064878990812222410059206   1030000600030000   554100001001315799420000498DENKO SHWE PYI THAR    YANGON        MMR11008121014210592060812000000000000000   10300001 00104100000000008400000000000000     
100   62443100330108240000000000000990000000000990002000000010410408151347591759789053440815000007655974   1020000200030000   333400010001204104000000281Myanmar Soft-Gate Tech Yangon        MMR11008151347591759780815000000000000000   10300001F05104100000000000208000000000000     
100   62443100372702000000000001000000000001000000002000000010410408151125435543138726840815000007655348   1040001600030000   333800010001220104000004507A +                    Yangon        MMR11008151125435543130815000000000000000   10300001F05104100000000210000000000000000     
100   95050311959900780000000000000990000000000990002000000010410408151405243524750791020815000007656040   1020000200030000   333400010001204104000000281Myanmar Soft-Gate Tech Yangon        MMR11008151405243524750815000000000000000   10300001F05104100000000000208000000000000     
100   62443100372718280000000000073410000000073410002000000010410408150327257608489330590815222710760848   1040001600030000   806220001356000000010001061Grand Hantha Internati Ygn           MMR11008150327257608480815000000000000000   10300001F00104100000000017618000000000000     
100   62911028202474000000000000260250000000260250002000000010410408140528576859694773800814222612685969   1040001600030000   581420000076000000010000074Hot Pot City Ahlone    Yangon        MMR11008140528576859690814000000000000000   10300001F00104100000000007808000000000000     
100   62911028202680670000000001150000000001150000002000000010410408150926430840094773800815344561543226   1030000900030000   573219001181190110000000937UNIQUE Hlaing          YANGON        MMR11008150926430840090815000000000000000   10300001F00104100000000069000000000000000     
100   62911028202442410000000000044300000000044300002000000010410408140256430032334773800814222609003233   1030000500030000   541120227504000045411202275CITY MART (AHLONE BRAN PTN           MMR11008140256430032330814000000000000000   10300001 00104100000000002658000000000000     
100   62443100318296470000000000681000000000681000002000000010410408150657250799973253090815404271325226   1030000900030000   541119000163190110000000084Pro (1) Global (Pazund YANGONARTAUNG MMR11008150657250799970815000000000000000   10300001F00104100000000170250000000000000     
100   95030393174848800000000000108700000000108700002000000010410408150615070006224773800815000752014604   1030000200030000   591288002327000008000006195KBZ BANK               ORCHID (TKT-2 MMR11008150615070006220815000000000000000   10300001 00104100000000006522000000000000     
100   95050319709462380000000000000990000000000990002000000010410408150330250025924032750815000007651538   1020000200030000   333400010001204104000000281Myanmar Soft-Gate Tech Yangon        MMR11008150330250025920815000000000000000   10300001F05104100000000000208000000000000     
100   95050310902464360000000000002970000000002970002000000010410408151230030003131932920815000007655605   1020000200030000   333400010001204104000000281Myanmar Soft-Gate Tech Yangon        MMR11008151230030003130815000000000000000   10300001F05104100000000000624000000000000     
100   95030317922148660000000000019610000000019610002000000010410408151539540287384773800815000752032405   1030000200030000   541188001001000008000000008KBZ BANK               MARKETPLACE - MMR11008151539540287380815000000000000000   10300001 00104100000000001177000000000000     
100   62911028202355870000000003000000000003000000002000000010410408151336040604884773800815000007655921   1030000600030000   333800010001230104000004564Trusty Wallet          Yangon        MMR11008151336040604880815000000000000000   10300001F05104100000000630000000000000000     
100   62443100369813440000000000026598000000026598002000000010410408151421210205379231700815000752025313   1030000200030000   541188001304000008000000325KBZ BANK               CITY MART - A MMR11008151421210205370815000000000000000   10300001 00104100000000006650000000000000     
100   62911028202502480000000000298650000000298650002000000010410408151411560213444773800815000752024371   1030000200030000   541188001049000008000000010KBZ BANK               MARKETPLACE - MMR11008151411560213440815000000000000000   10300001 00104100000000017919000000000000     
100   95050315889680120000000000001000000000001000002000000010410408151237340734583670500815000007655635   1030000200030000   333800010001203104000003327KBZPay                 Yangon        MMR11008151237340734580815000000000000000   10300001F05104100000000000210000000000000     
100   95050324247403260000000000068000000000068000002000000010410408150826130822398416390815461561413226   1030000900030000   554119001099190110000000211New Day Energy SCH     YANGONUNG     MMR11008150826130822390815000000000000000   10300001F00104100000000008160000000000000     
100   62911028202502480000000000014100000000014100002000000010410408151427510390314773800815000752026052   1030000200030000   541188001039000008000000010KBZ BANK               MARKETPLACE - MMR11008151427510390310815000000000000000   10300001 00104100000000000846000000000000     
100   62911028202355870000000002000000000002000000002000000010410408151337000700664773800815000007655924   1030000600030000   333800010001230104000004564Trusty Wallet          Yangon        MMR11008151337000700660815000000000000000   10300001F05104100000000420000000000000000     
100   62911028202107210000000000143600000000143600002000000010410408150549530040384773800815000752011573   1030000200030000   581288001738000008000005244KBZ BANK               SEAFOOD CITY  MMR11008150549530040380815000000000000000   10300001 00104100000000014647000000000000     
100   62911028202611530000000000010800000000010800002000000010410408151643410205444773800815000752036616   1030000200030000   541188001304000008000000325KBZ BANK               CITY MART - A MMR11008151643410205440815000000000000000   10300001 00104100000000000648000000000000     
100   62911028202151910000000000030150000000030150002000000010410408151211120338694773800815000752010697   1030000200030000   541188001012000008000000008KBZ BANK               MARKETPLACE - MMR11008151211120338690815000000000000000   10300001 00104100000000001809000000000000     
100   62911028202698420000000000091450000000091450002000000010410408151155160279374773800815000752009008   1030000200030000   541188001037000008000000010KBZ BANK               MARKETPLACE - MMR11008151155160279370815000000000000000   10300001 00104100000000005487000000000000     
100   62911028202680670000000000021850000000021850002000000010410408150405220758144773800815449351022226   1030000900030000   591219001401190110000001005Life Plus Store 1      YANGON        MMR11008150405220758140815000000000000000   10300001F00104100000000001311000000000000     
100   62911028202502480000000000107300000000107300002000000010410408151445360390354773800815000752027821   1030000200030000   541188001039000008000000010KBZ BANK               MARKETPLACE - MMR11008151445360390350815000000000000000   10300001 00104100000000006438000000000000     
100   62911028202284260000000000018500000000018500002000000010410408150737590810354773800815884071459226   1030000900030000   541119000148190110000000083SeinGayHarParami Cente YANGON        MMR11008150737590810350815000000000000000   10300001F00104100000000001110000000000000     
100   62911028202151910000000000036958000000036958002000000010410408151217040268674773800815000752011296   1030000200030000   541188001007000008000000008KBZ BANK               MARKETPLACE - MMR11008151217040268670815000000000000000   10300001 00104100000000002217000000000000     
100   62911028202698420000000000101400000000101400002000000010410408150430230763414773800815660001123226   1030000900030000   541119000284190110000000177Pro1 Global (Insein)   YANGON        MMR11008150430230763410815000000000000000   10300001F00104100000000006084000000000000     
100   62911028202154800000000000063600000000063600002000000010410408151159030098904773800815000752009442   1030000200030000   541188001052000008000000010KBZ BANK               MARKETPLACE - MMR11008151159030098900815000000000000000   10300001 00104100000000003816000000000000     
100   62443101063232860000000000071000000000071000002000000010410408150432430764091990440815688021143226   1030000900030000   554119000347190110000000214New Day Energy MTN     YANGONARTAUNG MMR11008150432430764090815000000000000000   10300001F00104100000000008520000000000000     
100   62911028202133940000000000041750000000041750002000000010410408152011220182574773800815000752045467   1030000200030000   541188001306000008000000325KBZ BANK               CITY MART - A MMR11008152011220182570815000000000000000   10300001 00104100000000002505000000000000     
100   95050314829126520000000000005000000000005000002000000010410408151238210821562018020815000007655645   1030000200030000   333800010001203104000003327KBZPay                 Yangon        MMR11008151238210821560815000000000000000   10300001F05104100000000001050000000000000     
100   62911028202491330000000000025800000000025800002000000010410408151447290230514773800815000752027994   1030000200030000   541188001080000008000000294KBZ BANK               CITY MART - J MMR11008151447290230510815000000000000000   10300001 00104100000000001548000000000000     
100   95050321044701600000000000060480000000060480002000000010410408150835260526966849010815000007654365   1030000900030000   333800010001202104000003301uab bank               Yangon        MMR11008150835260526960815000000000000000   10300001F05104100000000012701000000000000     
100   62911028202709150000000000002100000000002100002000000010410408150559470784954773800815660291247226   1030000900030000   591219000958190110000000765Shwe Ohh Pharmacy St 4 YANGONOKKALAP MMR11008150559470784950815000000000000000   10300001F00104100000000000126000000000000     
100   62911028202611530000000000010800000000010800002000000010410408151137580205284773800815000752007102   1030000200030000   541188001304000008000000325KBZ BANK               CITY MART - A MMR11008151137580205280815000000000000000   10300001 00104100000000000648000000000000     
100   62911028202696360000000000022600000000022600002000000010410408151400430340514773800815000752023062   1030000200030000   541188001326000008000000304KBZ BANK               CITY MART - S MMR11008151400430340510815000000000000000   10300001 00104100000000001356000000000000     
100   62911028202313470000000000143200000000143200002000000010410408150405530758284773800815456351053226   1030000900030000   591219000609190110000000449Shwe Ohh Pharmacy St-3 YANGONAUNG    MMR11008150405530758280815000000000000000   10300001F00104100000000008592000000000000     
100   95050310332595380000000000000990000000000990002000000010410408151441071107944095980815000007656186   1020000200030000   333400010001204104000000281Myanmar Soft-Gate Tech Yangon        MMR11008151441071107940815000000000000000   10300001F05104100000000000208000000000000     
100   62443100392426520000000000030000000000030000002000000010410408150148171817976509610815000007650803   1030000200030000   333800010001203104000003327KBZPay                 Yangon        MMR11008150148171817970815000000000000000   10300001F05104100000000006300000000000000     
100   95050313968650950000000000000990000000000990002000000010410408150925555555872061750815000007654688   1020000200030000   333400010001204104000000281Myanmar Soft-Gate Tech Yangon        MMR11008150925555555870815000000000000000   10300001F05104100000000000208000000000000     
100   95050311182936420000000000002970000000002970002000000010410408150049221922576254320815000007650677   1020000200030000   333400010001204104000000281Myanmar Soft-Gate Tech Yangon        MMR11008150049221922570815000000000000000   10300001F05104100000000000624000000000000     
