100   95050324082484780000000000016500000000016500002000000010410408160407211019693571610816939371021227   1030000900030000   541119001321190110000000970Ocean Mingalar MDY Sea MANDALAYHARSI MMR11008160407211019690816000000000000000   10300001F00104100000000004125000000000000     
100   62911028202031710000000000019800000000019800002000000010410408161824010280244773800816000752105353   1030000200030000   541188001037000008000000010KBZ BANK               MARKETPLACE - MMR11008161824010280240816000000000000000   10300001 00104100000000001188000000000000     
100   62443100348951400000000000300000000000300000002000000010410408160633430343711378610816000007659958   1030000200030000   333800010001203104000003327KBZPay                 Yangon        MMR11008160633430343710816000000000000000   10300001F05104100000000063000000000000000     
100   62911028202615590000000000040162000000040162002000000010410408160226100998124773800816038560810227   1030000900030000   554119001100190110000000212New Day Energy PZD     YANGON        MMR11008160226100998120816000000000000000   10300001F00104100000000001205000000000000     
100   62911028202442410000000000005400000000005400002000000010410408161404090099954773800816000752086978   1030000200030000   541188001071000008000000314KBZ BANK               MARKETPLACE - MMR11008161404090099950816000000000000000   10300001 00104100000000000324000000000000     
100   95050324082484780000000000038528000000038528002000000010410408160401041017990181550816859311004227   1030000900030000   541119001301190110000000968Ocean Mingalar MDY C 9 MANDALAYHARSI MMR11008160401041017990816000000000000000   10300001F00104100000000009632000000000000     
100   62911028202280200000000000007450000000007450002000000010410408160500091032954773800816562301109227   1030000900030000   541119001080190110000000872Sein Gay Har Hledan    YANGONUT      MMR11008160500091032950816000000000000000   10300001F00104100000000000447000000000000     
100   95050319902033540000000000056200000000056200002000000010410408160511191035499550220816673411119227   1030000900030000   541119001216190110000000945City Mart TM C 1       YANGONONE     MMR11008160511191035490816000000000000000   10300001F00104100000000014050000000000000     
100   62443100344229520000000000040000000000040000002000000010410408130522390000787758480813222505000078   1030000600030000   554100002414315799420001684MMTM NORTH-DAGON       YANGON        MMR11008130522390000780813000000000000000   10300001 00104100000000004800000000000000     
100   62911028202525250000000000030030000000030030002000000010410408130742170084604773800813222507008460   1030000600030000   581200001905315799420001275SIGNATURE FINEDINING 3 BAHAN         MMR11008130742170084600813000000000000000   10300001 00104100000000003063000000000000     
100   62911028202680670000000000026000000000026000002000000010410408130054050323984773800813222500032398   1030000600030000   554100002319315799420000477DENKO INSEIN           YANGON        MMR11008130054050323980813000000000000000   10300001 00104100000000000780000000000000     
100   95050324850150480000000000030000000000030000002000000010410408130207250214081524580813222502021408   1030000600030000   554100001011315799420000505DENKO HTAN TA PIN      YANGON        MMR11008130207250214080813000000000000000   10300001 00104100000000003600000000000000     
100   95050324850150480000000000045000000000045000002000000010410408130211580214099872100813222502021409   1030000600030000   554100001011315799420000505DENKO HTAN TA PIN      YANGON        MMR11008130211580214090813000000000000000   10300001 00104100000000005400000000000000     
100   62911028202709150000000000031000000000031000002000000010410408130540030596484773800813222505059648   1030000600030000   554100000969315799420000481DENKO NORTH OKKALAPA   YANGON        MMR11008130540030596480813000000000000000   10300001 00104100000000000930000000000000     
100   62443101093150400000000000037000000000037000002000000010410408122338520408569957190813222523040856   1030000600030000   554100002085315799420000471DENKO BAHAN            YANGON        MMR11008122338520408560813000000000000000   10300001 00104100000000004440000000000000     
100   95050329352979980000000000050000000000050000002000000010410408131436550439704380730813222514043970   1030000600030000   554100001155315799420000607DENKO NPT 1            NAYPYITAW.    MMR11008131436550439700813000000000000000   10300001 00104100000000006000000000000000     
100   62911028202207460000000000345000000000345000002000000010410408161351050068344773800816000752085757   1030000200030000   541188001057000008000000314KBZ BANK               MARKETPLACE - MMR11008161351050068340816000000000000000   10300001 00104100000000020700000000000000     
100   62911028202207460000000000021650000000021650002000000010410408161359580068354773800816000752086605   1030000200030000   541188001057000008000000314KBZ BANK               MARKETPLACE - MMR11008161359580068350816000000000000000   10300001 00104100000000001299000000000000     
100   95050312641885210000000000000990000000000990002000000010410408161231340134539712340816000007662192   1020000200030000   333400010001204104000000281Myanmar Soft-Gate Tech Yangon        MMR11008161231340134530816000000000000000   10300001F05104100000000000208000000000000     
100   95050312224678430000000000014850000000014850002000000010410408160235090509946854720816000007657461   1020000200030000   333400010001204104000000281Myanmar Soft-Gate Tech Yangon        MMR11008160235090509940816000000000000000   10300001F05104100000000003119000000000000     
100   62911028202687780000000000018100000000018100002000000010410408160203250994324773800816906330825227   1030000900030000   591219000601190110000000441Shwe Ohh Pharmacy St-3 YANGON        MMR11008160203250994320816000000000000000   10300001F00104100000000001086000000000000     
100   95050312482469810000000000017000000000017000002000000010410408160316001009307436600816541460900227   1030000900030000   541119000124190110000000080Sein Gay Har BAK       YANGONADA     MMR11008160316001009300816000000000000000   10300001F00104100000000004250000000000000     
100   95050316355723530000000000017900000000017900002000000010410408161058441134347634370816651281744227   1030000900030000   541119001363190110000000977Ocean PZD C17          YANGONAUNG    MMR11008161058441134340816000000000000000   10300001F00104100000000004475000000000000     
100   95030338921533090000000000007950000000007950002000000010410408161749270192074773800816000752103689   1030000200030000   541188001023000008000000298KBZ BANK               CITY MART - M MMR11008161749270192070816000000000000000   10300001 00104100000000000477000000000000     
100   95050329352979980000000000100000000000100000002000000010410408131449100439715231740813222514043971   1030000600030000   554100001155315799420000607DENKO NPT 1            NAYPYITAW.    MMR11008131449100439710813000000000000000   10300001 00104100000000012000000000000000     
100   95030389237176000000000000035000000000035000002000000010410408141013390178804773800814222610017880   1030000600030000   554100002329315799420000304DENKO MDY - 62         MANDALAY      MMR11008141013390178800814000000000000000   10300001 00104100000000001050000000000000     
100   62911028202488950000000000030000000000030000002000000010410408140718000357044773800814222607035704   1030000600030000   554100001113315799420000571DENKO THAN HLYIN -1    THAN HLYIN    MMR11008140718000357040814000000000000000   10300001 00104100000000000900000000000000     
100   95050320093758110000000000030000000000030000002000000010410408140144000096125160430814222601009612   1030000600030000   554100002139315799420001488DENKO MDY-12           MANDALAY      MMR11008140144000096120814000000000000000   10300001 00104100000000003600000000000000     
100   62443100311760720000000000071000000000071000002000000010410408140052120411392678850814222600041139   1030000600030000   554100002085315799420000471DENKO BAHAN            YANGON        MMR11008140052120411390814000000000000000   10300001 00104100000000008520000000000000     
100   62911028202366010000000000048000000000048000002000000010410408141218490445324773800814222612044532   1030000600030000   554100001865315799420001235DENKO NAY PYI TAW 2    NAYPYITAW     MMR11008141218490445320814000000000000000   10300001 00104100000000001440000000000000     
100   95050326511614440000000000035000000000035000002000000010410408140613361055836230020814222606105583   1030000600030000   554100000946315799420000471DENKO BAHAN            YANGON        MMR11008140613361055830814000000000000000   10300001 00104100000000004200000000000000     
100   95030390626214130000000000050000000000050000002000000010410408140514290596904773800814222605059690   1030000600030000   554100000969315799420000481DENKO NORTH OKKALAPA   YANGON        MMR11008140514290596900814000000000000000   10300001 00104100000000001500000000000000     
100   95050319156011610000000000005000000000005000002000000010410408160231200999228592300816092010920227   1030000900030000   541119001462190110000000077Sein Gay Har Chinatown YANGON        MMR11008160231200999220816000000000000000   10300001F00104100000000001250000000000000     
100   95050319938772870000000000000990000000000990002000000010410408161441061106902932210816000007662684   1020000200030000   333400010001204104000000281Myanmar Soft-Gate Tech Yangon        MMR11008161441061106900816000000000000000   10300001F05104100000000000208000000000000     
100   95030390626214130000000000006000000000006000002000000010410408160432340234914773800816000007658900   1030000200030000   333800010001203104000003327KBZPay                 Yangon        MMR11008160432340234910816000000000000000   10300001F05104100000000001260000000000000     
100   95050314557307430000000000000990000000000990002000000010410408160313124312391798380816000007657881   1020000200030000   333400010001204104000000281Myanmar Soft-Gate Tech Yangon        MMR11008160313124312390816000000000000000   10300001F05104100000000000208000000000000     
100   95050321688266460000000000018000000000018000002000000010410408161525145514663527880816000007662847   1030000200030000   333800010001203104000003327KBZPay                 Yangon        MMR11008161525145514660816000000000000000   10300001F05104100000000003780000000000000     
100   62911028202287720000000000006300000000006300002000000010410408160345218372764773800816222810837276   1040001600030000   591220000298000000010000286Shwe Ohh Pharmacy (Shw Yangon        MMR11008160345218372760816000000000000000   10300001F00104100000000000378000000000000     
100   62911028202027440000000000120000000000120000002000000010410408160832588543024773800816222815854302   1040001600030000   541120000569000000010000465Ocean Shwe Gone Daing  Yangon        MMR11008160832588543020816000000000000000   10300001F00104100000000007200000000000000     
100   62911028202110420000000000073000000000073000002000000010410408161201328729994773800816222819872999   1040001600030000   592120000941000000010000688Shwe Gone Daing Liquor Ygn           MMR11008161201328729990816000000000000000   10300001F00104100000000004380000000000000     
100   95050322149411750000000000030000000000030000002000000010410408140108381055153529810814222601105515   1030000600030000   554100000946315799420000471DENKO BAHAN            YANGON        MMR11008140108381055150814000000000000000   10300001 00104100000000003600000000000000     
100   95050324133333980000000000030000000000030000002000000010410408140438240641126935990814222604064112   1030000600030000   554100001756315799420001137DENKO NORTH DAGON 2    YANGON        MMR11008140438240641120814000000000000000   10300001 00104100000000003600000000000000     
100   95030301100126550000000000040000000000040000002000000010410408141038110752714773800814222610075271   1030000600030000   554100000952315799420000474DENKO N.DAGON - 1      YANGON        MMR11008141038110752710814000000000000000   10300001 00104100000000001200000000000000     
100   62443100313002190000000000055000000000055000002000000010410408140601110594313389510814222606059431   1030000600030000   554100001001315799420000498DENKO SHWE PYI THAR    YANGON        MMR11008140601110594310814000000000000000   10300001 00104100000000006600000000000000     
100   62911028202696360000000000013000000000013000002000000010410408141205090880474773800814222612088047   1030000600030000   554100000955315799420000477DENKO INSEIN           YANGON        MMR11008141205090880470814000000000000000   10300001 00104100000000000390000000000000     
100   95030320108927800000000000130000000000130000002000000010410408120538190003684773800812222405000368   1030000600030000   581300002341315799420001626HTUNHTUNOOLIQUOR PARA  YANGON        MMR11008120538190003680812000000000000000   10300001 00104100000000013260000000000000     
100   95050327285327260000000000022450000000022450002000000010410408121101370035372084600812222411003537   1030000600030000   5499000022633157994200015731 STOP S M LAYHTAUKKAN YANGON        MMR11008121101370035370812000000000000000   10300001 00104100000000009542000000000000     
100   62911028202752520000000000073000000000073000002000000010410408120620140476854773800812222406047685   1030000600030000   554100001106315799420000564DENKO PHYUU            PHYUU         MMR11008120620140476850812000000000000000   10300001 00104100000000002190000000000000     
100   95050322312885760000000000012000000000012000002000000010410408160400423042136549990816000007658569   1030000200030000   333800010001203104000003327KBZPay                 Yangon        MMR11008160400423042130816000000000000000   10300001F05104100000000002520000000000000     
100   95050316234969530000000000025000000000025000002000000010410408160041431143276344140816000007656934   1030000200030000   333800010001203104000003327KBZPay                 Yangon        MMR11008160041431143270816000000000000000   10300001F05104100000000005250000000000000     
100   95050310409767690000000000005000000000005000002000000010410408160258522852513621060816000007657656   1030000200030000   333800010001203104000003327KBZPay                 Yangon        MMR11008160258522852510816000000000000000   10300001F05104100000000001050000000000000     
100   95050311779172060000000000010000000000010000002000000010410408161417434743494584700816000007662592   1030000200030000   333800010001203104000003327KBZPay                 Yangon        MMR11008161417434743490816000000000000000   10300001F05104100000000002100000000000000     
100   95050311959900780000000000000990000000000990002000000010410408161518154815521790310816000007662829   1020000200030000   333400010001204104000000281Myanmar Soft-Gate Tech Yangon        MMR11008161518154815520816000000000000000   10300001F05104100000000000208000000000000     
100   62443100315384790000000000012500000000012500002000000010410408161253261163453102400816307231926227   1030000900030000   541119001207190110000000948City Mart YK C 5       YANGONAUNG    MMR11008161253261163450816000000000000000   10300001F00104100000000003125000000000000     
100   95050319144542320000000000300000000000300000002000000010410408160246171617739904400816000007657540   1030000200030000   333800010001203104000003327KBZPay                 Yangon        MMR11008160246171617730816000000000000000   10300001F05104100000000063000000000000000     
100   95050320205194540000000000016900000000016900002000000010410408161153221149450854240816500231822227   1030000900030000   541119001265190110000000958City Mart PLST C 8     YANGONMYOTHIT MMR11008161153221149450816000000000000000   10300001F00104100000000004225000000000000     
100   95050327022536610000000000064525000000064525002000000010410408121058510750190432120812222410075019   1030000600030000   554100000952315799420000474DENKO N.DAGON - 1      YANGON        MMR11008121058510750190812000000000000000   10300001 00104100000000007743000000000000     
100   62911028202795770000000000020000000000020000002000000010410408140433130023584773800814222604002358   1030000600030000   581200002191315799420001536CANTON PARADISE TC     YANGON        MMR11008140433130023580814000000000000000   10300001 00104100000000002040000000000000     
100   62443100330048680000000000030000000000030000002000000010410408160356142614256464890816000007658486   1030000500030000   333300010001201104000003954Za Information Technol Yangon        MMR11008160356142614250816000000000000000   10300001F05104100000000010000000000000000     
100   62911028202110420000000000086950000000086950002000000010410408161108240279954773800816000752068495   1030000200030000   541188001037000008000000010KBZ BANK               MARKETPLACE - MMR11008161108240279950816000000000000000   10300001 00104100000000005217000000000000     
100   95050310332595380000000000000990000000000990002000000010410408161554052405221875400816000007662947   1020000200030000   333400010001204104000000281Myanmar Soft-Gate Tech Yangon        MMR11008161554052405220816000000000000000   10300001F05104100000000000208000000000000     
100   95050316355723530000000000021000000000021000002000000010410408161042121129782350320816390121712227   1030000900030000   541119001363190110000000977Ocean PZD C17          YANGONAUNG    MMR11008161042121129780816000000000000000   10300001F00104100000000005250000000000000     
100   62443100313112320000000000027550000000027550002000000010410408151042200042184656000815222717004218   1030000500030000   541120226203000045411202262CITY MART ZAWANA       PTN           MMR11008151042200042180815000000000000000   10300001 00104100000000006888000000000000     
100   95050311419479170000000000002000000000002000002000000010410408160940041004760272360816000007661374   1030000200030000   3334000100012031040000040102C2P (Myanmar) Co. Ltd Yangon        MMR11008160940041004760816000000000000000   10300001F05104100000000000420000000000000     
100   95050310314438940000000000024000000000024000002000000010410408160950072007968790070816000007661447   1030000200030000   333800010001203104000003327KBZPay                 Yangon        MMR11008160950072007960816000000000000000   10300001F05104100000000005040000000000000     
100   95050322312885760000000000018000000000018000002000000010410408160105583558233209370816000007656983   1030000200030000   333800010001203104000003327KBZPay                 Yangon        MMR11008160105583558230816000000000000000   10300001F05104100000000003780000000000000     
100   95050311419479170000000000001000000000001000002000000010410408160617444744589720410816000007659792   1030000200030000   3334000100012031040000040102C2P (Myanmar) Co. Ltd Yangon        MMR11008160617444744580816000000000000000   10300001F05104100000000000210000000000000     
100   95050310332595380000000000000990000000000990002000000010410408161220165016826322280816000007662155   1020000200030000   333400010001204104000000281Myanmar Soft-Gate Tech Yangon        MMR11008161220165016820816000000000000000   10300001F05104100000000000208000000000000     
100   95050318242219520000000000000990000000000990002000000010410408161424315431769542150816000007662618   1020000200030000   333400010001204104000000281Myanmar Soft-Gate Tech Yangon        MMR11008161424315431760816000000000000000   10300001F05104100000000000208000000000000     
100   62443100378093870000000000015600000000015600002000000010410408161128361143429371950816179581736227   1030000900030000   541119001203190110000000948City Mart YK C 1       YANGONAUNG    MMR11008161128361143420816000000000000000   10300001F00104100000000003900000000000000     
100   95050315110306410000000000003000000000003000002000000010410408152342491249454691660816000007656872   1030000200030000   333800010001203104000003327KBZPay                 Yangon        MMR11008152342491249450816000000000000000   10300001F05104100000000000630000000000000     
100   95050315796541830000000000003000000000003000002000000010410408151651302130532443500816000007656564   1030000200030000   333800010001203104000003327KBZPay                 Yangon        MMR11008151651302130530816000000000000000   10300001F05104100000000000630000000000000     
100   95050324082484780000000000005900000000005900002000000010410408160433451026967302070816298031145227   1030000900030000   591219001424190110000001028Life Plus Store 29     MANDALAYHARSI MMR11008160433451026960816000000000000000   10300001F00104100000000001416000000000000     
100   95050312946679160000000000035000000000035000002000000010410408161003373337095229810816000007661538   1030000200030000   333800010001203104000003327KBZPay                 Yangon        MMR11008161003373337090816000000000000000   10300001F05104100000000007350000000000000     
100   95050310572950870000000000050000000000050000002000000010410408160427305730886621300816000007658843   1030000200030000   333800010001203104000003327KBZPay                 Yangon        MMR11008160427305730880816000000000000000   10300001F05104100000000010500000000000000     
100   95050313732480420000000000001980000000001980002000000010410408160741361136640492000816000007660523   1020000200030000   333400010001204104000000281Myanmar Soft-Gate Tech Yangon        MMR11008160741361136640816000000000000000   10300001F05104100000000000416000000000000     
100   62911028202829850000000000039500000000039500002000000010410408151104510056424773800815000361331292   1030000300030000   541100002333000000000000102CB BANK                MAKRO MYANMAR MMR11008151104510056420815000000000000000   10300001F00104100000000002370000000000000     
100   95050315796541830000000000030000000000030000002000000010410408160948501850437052490816000007661438   1030000200030000   333800010001203104000003327KBZPay                 Yangon        MMR11008160948501850430816000000000000000   10300001F05104100000000006300000000000000     
100   95050329843099180000000000300000000000300000002000000010410408160305363536325358640816000007657722   1030000200030000   333800010001203104000003327KBZPay                 Yangon        MMR11008160305363536320816000000000000000   10300001F05104100000000063000000000000000     
100   62911028202527490000000000064000000000064000002000000010410408150456570004584773800815222711000458   1030000500030000   598320041904000055983200419MAX ENERGY             PTN           MMR11008150456570004580815000000000000000   10300001 00104100000000001920000000000000     
100   95050311131833760000000000010000000000010000002000000010410408160606423642113025380816000007659711   1030000200030000   333800010001203104000003327KBZPay                 Yangon        MMR11008160606423642110816000000000000000   10300001F05104100000000002100000000000000     
100   62443100348951400000000000300000000000300000002000000010410408160626575657066250970816000007659886   1030000200030000   333800010001203104000003327KBZPay                 Yangon        MMR11008160626575657060816000000000000000   10300001F05104100000000063000000000000000     
100   62443100348951400000000000300000000000300000002000000010410408160628195819194598480816000007659898   1030000200030000   333800010001203104000003327KBZPay                 Yangon        MMR11008160628195819190816000000000000000   10300001F05104100000000063000000000000000     
100   62443100330048680000000000014000000000014000002000000010410408161130118695176066980816222818869517   1040001600030000   591220001200000000010000908Shwe Ohh Pharmacy (Thu Ygn           MMR11008161130118695170816000000000000000   10300001F00104100000000003360000000000000     
100   95050313396828960000000000004950000000004950002000000010410408161347441744854499600816000007662472   1020000200030000   333400010001204104000000281Myanmar Soft-Gate Tech Yangon        MMR11008161347441744850816000000000000000   10300001F05104100000000001040000000000000     
100   62443100350052510000000000003300000000003300002000000010410408160350582058643500310816000007658453   1030000200030000   333300010001203104000003632Myanmar Tradenet Test  Yangon        MMR11008160350582058640816000000000000000   10300001F05104100000000010000000000000000     
100   95050313836159580000000000030500000000030500002000000010410408160951572157937137590816000007661453   1030000200030000   333800010001203104000003327KBZPay                 Yangon        MMR11008160951572157930816000000000000000   10300001F05104100000000006405000000000000     
100   95050313968650950000000000000990000000000990002000000010410408160254212421993294460816000007657616   1020000200030000   333400010001204104000000281Myanmar Soft-Gate Tech Yangon        MMR11008160254212421990816000000000000000   10300001F05104100000000000208000000000000     
100   95050326750398570000000000012550000000012550002000000010410408151119060030235421870815222717003023   1030000500030000   531120226721000045311202267OCEAN NORTH POINT      PTN           MMR11008151119060030230815000000000000000   10300001 00104100000000003012000000000000     
100   62443100350052510000000000083600000000083600002000000010410408160502003200951032520816000007659197   1030000200030000   333300010001203104000003632Myanmar Tradenet Test  Yangon        MMR11008160502003200950816000000000000000   10300001F05104100000000010000000000000000     
100   95050316949180000000000000002970000000002970002000000010410408160328115811790826670816000007658134   1020000200030000   333400010001204104000000281Myanmar Soft-Gate Tech Yangon        MMR11008160328115811790816000000000000000   10300001F05104100000000000624000000000000     
100   62443101034067530000000001900000000001900000002000000010410408150508220000639281140815222705000063   1030000600030000   509400002021315799420001390KAUNG KHANT CHAW KYAW  MANDALAY      MMR11008150508220000630815000000000000000   10300001 00104100000000760000000000000000     
100   95050311403968010000000000042000000000042000002000000010410408161429095909237889660816000007662642   1030000200030000   333800010001203104000003327KBZPay                 Yangon        MMR11008161429095909230816000000000000000   10300001F05104100000000008820000000000000     
100   62911028202407100000000000022100000000022100002000000010410408151023110002324773800815222716000232   1030000500030000   591220132901008605912201329THEIK DI WIN SHOP      PTN           MMR11008151023110002320815000000000000000   10300001 00104100000000001326000000000000     
100   95050313732480420000000000001980000000001980002000000010410408160334200420152308960816000007658230   1020000200030000   333400010001204104000000281Myanmar Soft-Gate Tech Yangon        MMR11008160334200420150816000000000000000   10300001F05104100000000000416000000000000     
100   62911028202461130000000000029200000000029200002000000010410408150742520035904773800815222714003590   1030000500030000   541120203706000015411202037CITY MART SUPERMARKET  PTN           MMR11008150742520035900815000000000000000   10300001 00104100000000001752000000000000     
100   95050317876216360000000000005940000000005940002000000010410408160257072707188422100816000007657630   1020000200030000   333400010001204104000000281Myanmar Soft-Gate Tech Yangon        MMR11008160257072707180816000000000000000   10300001F05104100000000001247000000000000     
100   95050317072727910000000000000990000000000990002000000010410408160503363336799380030816000007659207   1020000200030000   333400010001204104000000281Myanmar Soft-Gate Tech Yangon        MMR11008160503363336790816000000000000000   10300001F05104100000000000208000000000000     
100   62443100330105920000000000020000000000020000002000000010410408161513414341198485340816000007662814   1030000200030000   333800010001203104000003327KBZPay                 Yangon        MMR11008161513414341190816000000000000000   10300001F05104100000000004200000000000000     
100   62443100348951400000000000300000000000300000002000000010410408160629315931229555940816000007659912   1030000200030000   333800010001203104000003327KBZPay                 Yangon        MMR11008160629315931220816000000000000000   10300001F05104100000000063000000000000000     
100   62911028202169750000000000019780000000019780002000000010410408160634358478614773800816222813847861   1040001600030000   541120000553000000010000465Ocean Shwe Gone Daing  Yangon        MMR11008160634358478610816000000000000000   10300001F00104100000000001187000000000000     
100   62911028202355870000000002700000000002700000002000000010410408151742261226634773800816000007656648   1030000600030000   333800010001230104000004564Trusty Wallet          Yangon        MMR11008151742261226630816000000000000000   10300001F05104100000000567000000000000000     
100   95050316997303010000000000005000000000005000002000000010410408161302503250551449920816000007662306   1040001600030000   333800010001220104000004507A +                    Yangon        MMR11008161302503250550816000000000000000   10300001F05104100000000001050000000000000     
100   95050312618592720000000000030000000000030000002000000010410408160921435143129166110816000007661229   1030000200030000   333800010001203104000003327KBZPay                 Yangon        MMR11008160921435143120816000000000000000   10300001F05104100000000006300000000000000     
100   62911028202355870000000002300000000002300000002000000010410408151741051105374773800816000007656641   1030000600030000   333800010001230104000004564Trusty Wallet          Yangon        MMR11008151741051105370816000000000000000   10300001F05104100000000483000000000000000     
100   62443100371022130000000000010200000000010200002000000010410408160426581025188358870816213561058227   1030000900030000   541119001156190110000000930OCEAN HTY C 6          YANGONTHARYA  MMR11008160426581025180816000000000000000   10300001F00104100000000002550000000000000     
100   95030393174848800000000000024000000000024000002000000010410408150549340009234773800815222712000923   1030000500030000   541120231307000045411202313CITY MART (AYEYARWON)  PTN           MMR11008150549340009230815000000000000000   10300001 00104100000000001440000000000000     
100   95050324005082180000000000150000000000150000002000000010410408150736070016582196290815000361298830   1030000300030000   541100002341000000000000102CB BANK                MAKRO MYANMAR MMR11008150736070016580815000000000000000   10300001F00104100000000037500000000000000     
100   62443100355445150000000000041400000000041400002000000010410408150921090015868756770815222715001586   1030000500030000   541120227605000045411202276CITY MART ( 47 BRANCH  PTN           MMR11008150921090015860815000000000000000   10300001 00104100000000010350000000000000     
100   62911028202290100000000000011750000000011750002000000010410408161532020230824773800816000752095111   1030000200030000   541188001080000008000000294KBZ BANK               CITY MART - J MMR11008161532020230820816000000000000000   10300001 00104100000000000705000000000000     
100   62911028202397530000000000113000000000113000002000000010410408141021240255584773800814222610025558   1030000600030000   554100001212315799420000664DENKO TA TAR OO        TA TAR OO     MMR11008141021240255580814000000000000000   10300001 00104100000000003390000000000000     
100   62911028202366010000000000086000000000086000002000000010410408130648010182144773800813222506018214   1030000600030000   554100002328315799420001235DENKO NAY PYI TAW 2    NAYPYITAW     MMR11008130648010182140813000000000000000   10300001 00104100000000002580000000000000     
100   95050319753756490000000000030000000000030000002000000010410408161455172517301279730816000007662740   1030000200030000   333800010001203104000003327KBZPay                 Yangon        MMR11008161455172517300816000000000000000   10300001F05104100000000006300000000000000     
100   95050313817486860000000000000990000000000990002000000010410408160215514551896173950816000007657338   1020000200030000   333400010001204104000000281Myanmar Soft-Gate Tech Yangon        MMR11008160215514551890816000000000000000   10300001F05104100000000000208000000000000     
100   95050329698388160000000000200000000000200000002000000010410408160409583958228614160816000007658676   1030000200030000   333800010001203104000003327KBZPay                 Yangon        MMR11008160409583958220816000000000000000   10300001F05104100000000042000000000000000     
100   62443100373105840000000000010000000000010000002000000010410408161022505250759130450816000007661632   1030000200030000   333800010001203104000003327KBZPay                 Yangon        MMR11008161022505250750816000000000000000   10300001F05104100000000002100000000000000     
100   95050310534130230000000000005200000000005200002000000010410408161026431125412435420816143561643227   1030000900030000   541119001207190110000000948City Mart YK C 5       YANGONAUNG    MMR11008161026431125410816000000000000000   10300001F00104100000000001300000000000000     
100   95050314557307430000000000001980000000001980002000000010410408160043231323778081720816000007656937   1020000200030000   333400010001204104000000281Myanmar Soft-Gate Tech Yangon        MMR11008160043231323770816000000000000000   10300001F05104100000000000416000000000000     
100   95030314100001680000000000002970000000002970002000000010410408161058392839614773800816000007661820   1020000200030000   333400010001204104000000281Myanmar Soft-Gate Tech Yangon        MMR11008161058392839610816000000000000000   10300001F05104100000000000624000000000000     
100   62443100394939820000000000200000000000200000002000000010410408161051132113534002810816000007661790   1030000200030000   333800010001203104000003327KBZPay                 Yangon        MMR11008161051132113530816000000000000000   10300001F05104100000000042000000000000000     
100   95050313970192050000000000008000000000008000002000000010410408150734520005281139470815222714000528   1030000500030000   541120232801000045411202328CITY EXPRESS (MCS - 34 PTN           MMR11008150734520005280815000000000000000   10300001 00104100000000002000000000000000     
100   62911028202312890000000000034000000000034000002000000010410408151037320005544773800815222717000554   1030000500030000   598320001701000015172200017MAX ENERGY             PTN           MMR11008151037320005540815000000000000000   10300001 00104100000000001020000000000000     
100   95050328570548980000000000030000000000030000002000000010410408150253500006112295170815222709000611   1030000500030000   598320002102000015172200021MAX ENERGY             PTN           MMR11008150253500006110815000000000000000   10300001 00104100000000003600000000000000     
100   62443100369813440000000000020000000000020000002000000010410408150032490008187906810815222707000818   1030000500030000   598320001301000015172200013MAX ENERGY             PTN           MMR11008150032490008180815000000000000000   10300001 00104100000000002400000000000000     
100   95030317922148660000000000012823000000012823002000000010410408150917030002954773800815222715000295   1030000500030000   581220248501000085812202485CHILLI POT MALA XIANG  PTN           MMR11008150917030002950815000000000000000   10300001 00104100000000001308000000000000     
100   95030346645639490000000000055288000000055288002000000010410408150522510003944773800815222711000394   1030000500030000   531120155712000045311201557GAMONE PWINT           PTN           MMR11008150522510003940815000000000000000   10300001 00104100000000003317000000000000     
100   62911028202314380000000000004400000000004400002000000010410408150535090019894773800815222712001989   1030000500030000   541120230011000045411202300MARKET PLACE BY CITY M PTN           MMR11008150535090019890815000000000000000   10300001 00104100000000000264000000000000     
100   95030306100078820000000000014800000000014800002000000010410408151304030004974773800815222719000497   1030000500030000   541120020701022205411200207ORANGE (YDG)           PTN           MMR11008151304030004970815000000000000000   10300001 00104100000000000888000000000000     
100   95050313145843230000000000205000000000205000002000000010410408161157112711962506730816000007662058   1030000200030000   333800010001203104000003327KBZPay                 Yangon        MMR11008161157112711960816000000000000000   10300001F05104100000000043050000000000000     
100   95050313411345710000000000003000000000003000002000000010410408161505063506530137820816000007662785   1030000200030000   333800010001203104000003327KBZPay                 Yangon        MMR11008161505063506530816000000000000000   10300001F05104100000000000630000000000000     
100   95030325264619140000000000033951000000033951002000000010410408160724208505504773800816222814850550   1040001600030000   541120000563000000010000465Ocean Shwe Gone Daing  Yangon        MMR11008160724208505500816000000000000000   10300001F00104100000000002037000000000000     
100   62443100371022130000000000030188000000030188002000000010410408161136011145457719470816293061801227   1030000900030000   554119000348190110000000215New Day Energy MYG     YANGONONE     MMR11008161136011145450816000000000000000   10300001F00104100000000003622000000000000     
100   95050311394574080000000000300000000000300000002000000010410408160244361436296599430816000007657526   1030000200030000   333800010001203104000003327KBZPay                 Yangon        MMR11008160244361436290816000000000000000   10300001F05104100000000063000000000000000     
100   62443100350052510000000000003300000000003300002000000010410408160442311231275649580816000007659010   1030000200030000   333300010001203104000003632Myanmar Tradenet Test  Yangon        MMR11008160442311231270816000000000000000   10300001F05104100000000010000000000000000     
100   95050310902464360000000000015000000000015000002000000010410408160643461346602775810816000007660049   1030000200030000   3338000100012031040000040022C2P (Myanmar) Co. Ltd Yangon        MMR11008160643461346600816000000000000000   10300001F05104100000000003150000000000000     
100   95050313396828960000000000002970000000002970002000000010410408161349021902216237180816000007662481   1020000200030000   333400010001204104000000281Myanmar Soft-Gate Tech Yangon        MMR11008161349021902210816000000000000000   10300001F05104100000000000624000000000000     
100   62911028202611530000000000020000000000020000002000000010410408150648580007454773800815222713000745   1030000500030000   598320002103000015172200021MAX ENERGY             PTN           MMR11008150648580007450815000000000000000   10300001 00104100000000000600000000000000     
100   62911028202449440000000000098000000000098000002000000010410408150058490008424773800815222707000842   1030000500030000   598320001201000015172200012MAX ENERGY             PTN           MMR11008150058490008420815000000000000000   10300001 00104100000000002940000000000000     
100   95050311168163370000000000007000000000007000002000000010410408150236080001676571850815000361247741   1030000300030000   504700002813000000000001923CB BANK                PADAUK OO PHA MMR11008150236080001670815000000000000000   10300001F00104100000000001680000000000000     
100   62911028202116120000000000026250000000026250002000000010410408150927030001664773800815000361316832   1030000300030000   581400003075000000000002164CB BANK                KRISPY KREME  MMR11008150927030001660815000000000000000   10300001F00104100000000000788000000000000     
100   95050324826664210000000000030000000000030000002000000010410408151113470011315336780815222717001131   1030000500030000   598320001401000015172200014MAX ENERGY             PTN           MMR11008151113470011310815000000000000000   10300001 00104100000000003600000000000000     
100   62911028202260160000000000062237000000062237002000000010410408151047090003854773800815222717000385   1030000500030000   541120226210000045411202262CITY MART ZAWANA       PTN           MMR11008151047090003850815000000000000000   10300001 00104100000000003734000000000000     
100   95050324154190880000000000014000000000014000002000000010410408150334240006185770330815222710000618   1030000500030000   598320002102000015172200021MAX ENERGY             PTN           MMR11008150334240006180815000000000000000   10300001 00104100000000001680000000000000     
100   62911028202790310000000000045000000000045000002000000010410408150931300007314773800815222716000731   1030000500030000   598320001602000015172200016MAX ENERGY             PTN           MMR11008150931300007310815000000000000000   10300001 00104100000000001350000000000000     
100   95050329698388160000000000300000000000300000002000000010410408160406043604050266650816000007658633   1030000200030000   333800010001203104000003327KBZPay                 Yangon        MMR11008160406043604050816000000000000000   10300001F05104100000000063000000000000000     
100   62443100357925510000000000006400000000006400002000000010410408161329051169746152080816617591905227   1030000900030000   541119001208190110000000948City Mart YK C 6       YANGONAUNG    MMR11008161329051169740816000000000000000   10300001F00104100000000001600000000000000     
100   95050318141561190000000000010000000000010000002000000010410408160347501750738372660816000007658410   1040001600030000   333800010001220104000004507A +                    Yangon        MMR11008160347501750730816000000000000000   10300001F05104100000000002100000000000000     
100   95050329720648480000000000040000000000040000002000000010410408161429335933039627240816000007662637   1030000200030000   333800010001203104000003327KBZPay                 Yangon        MMR11008161429335933030816000000000000000   10300001F05104100000000008400000000000000     
100   95030302100000550000000000144450000000144450002000000010410408161043588643754773800816222817864375   1040001600030000   591220000288000000010000276Shwe Ohh Pharmacy (Nor Yangon        MMR11008161043588643750816000000000000000   10300001F00104100000000008667000000000000     
100   62443100350052510000000000083600000000083600002000000010410408160509493949517812640816000007659272   1030000200030000   333300010001203104000003632Myanmar Tradenet Test  Yangon        MMR11008160509493949510816000000000000000   10300001F05104100000000010000000000000000     
100   95050310427855490000000000002970000000002970002000000010410408161220525052974669790816000007662159   1020000200030000   333400010001204104000000281Myanmar Soft-Gate Tech Yangon        MMR11008161220525052970816000000000000000   10300001F05104100000000000624000000000000     
100   95050326686895020000000000200000000000200000002000000010410408160245281528691556880816000007657527   1030000200030000   3338000100012031040000040022C2P (Myanmar) Co. Ltd Yangon        MMR11008160245281528690816000000000000000   10300001F05104100000000042000000000000000     
100   62911028202400660000000000012000000000012000002000000010410408151121040003564773800815222717000356   1030000500030000   581220264101000085812202641BREAD TALK             PTN           MMR11008151121040003560815000000000000000   10300001 00104100000000001224000000000000     
100   62911028202212490000000000043000000000043000002000000010410408150854260011924773800815222715001192   1030000500030000   598320001203000015172200012MAX ENERGY             PTN           MMR11008150854260011920815000000000000000   10300001 00104100000000001290000000000000     
100   62911028202103410000000000028000000000028000002000000010410408150840150010134773800815222715001013   1030000500030000   598320001404000015172200014MAX ENERGY             PTN           MMR11008150840150010130815000000000000000   10300001 00104100000000000840000000000000     
100   62911028202204800000000000030400000000030400002000000010410408150144120008784773800815000361241096   1030000300030000   591200000191000000000000096CB BANK                MEDICARE STOR MMR11008150144120008780815000000000000000   10300001F00104100000000001824000000000000     
100   95050320996331370000000000085000000000085000002000000010410408150607220007621430410815222712000762   1030000500030000   598320002701000015172200027MAX ENERGY             PTN           MMR11008150607220007620815000000000000000   10300001 00104100000000010200000000000000     
100   95050321237170130000000000040000000000040000002000000010410408150538440010019621530815222712001001   1030000500030000   598320001202000015172200012MAX ENERGY             PTN           MMR11008150538440010010815000000000000000   10300001 00104100000000004800000000000000     
100   62911028202230390000000000027000000000027000002000000010410408150452040007124773800815222711000712   1030000500030000   598320001602000015172200016MAX ENERGY             PTN           MMR11008150452040007120815000000000000000   10300001 00104100000000000810000000000000     
100   95030388822041290000000000116600000000116600002000000010410408150739360016594773800815000361299425   1030000300030000   541100002341000000000000102CB BANK                MAKRO MYANMAR MMR11008150739360016590815000000000000000   10300001F00104100000000006996000000000000     
100   95050311736839760000000000000990000000000990002000000010410408160311354135182053670816000007657844   1020000200030000   333400010001204104000000281Myanmar Soft-Gate Tech Yangon        MMR11008160311354135180816000000000000000   10300001F05104100000000000208000000000000     
100   95050315439834520000000000030000000000030000002000000010410408160316004600236840930816000007657934   1030000200030000   333800010001203104000003327KBZPay                 Yangon        MMR11008160316004600230816000000000000000   10300001F05104100000000006300000000000000     
100   95050326686895020000000000500000000000500000002000000010410408160241391139248251910816000007657486   1030000200030000   3338000100012031040000040022C2P (Myanmar) Co. Ltd Yangon        MMR11008160241391139240816000000000000000   10300001F05104100000000105000000000000000     
100   62443100386703740000000000150500000000150500002000000010410408161317221167731109540816526471922227   1030000900030000   581219001121190110000000902Yoon Kitchen           YANGONONE     MMR11008161317221167730816000000000000000   10300001F00104100000000063963000000000000     
100   95050329720648480000000000060000000000060000002000000010410408161517104710753442790816000007662820   1030000200030000   333800010001203104000003327KBZPay                 Yangon        MMR11008161517104710750816000000000000000   10300001F05104100000000012600000000000000     
100   62911028202677390000000000030000000000030000002000000010410408160620198469604773800816222813846960   1040001600030000   598320001457000000010001151360 Petro (Ayar Wun)   Ygn           MMR11008160620198469600816000000000000000   10300001F00104100000000000900000000000000     
100   62911028202469800000000000054700000000054700002000000010410408161034008633544773800816222817863354   1040001600030000   591220000276000000010000264Shwe Ohh Pharmacy (YGH Yangon        MMR11008161034008633540816000000000000000   10300001F00104100000000003282000000000000     
100   62911028202469800000000000054700000000054700002000000010410408161045088645014773800816222817864501   1040001600030000   591220001007000000010000737Shwe Ohh Pharmacy (Tan Ygn           MMR11008161045088645010816000000000000000   10300001F00104100000000003282000000000000     
100   95030346645639490000000000004802000000004802002000000010410408150444510000504773800815222711000050   1030000500030000   531120155716000045311201557GAMONE PWINT           PTN           MMR11008150444510000500815000000000000000   10300001 00104100000000000288000000000000     
100   62911028202829850000000000014250000000014250002000000010410408151103220056414773800815000361331074   1030000300030000   541100002333000000000000102CB BANK                MAKRO MYANMAR MMR11008151103220056410815000000000000000   10300001F00104100000000000855000000000000     
100   62911028202313470000000000039600000000039600002000000010410408150353540040784773800815222710004078   1030000500030000   541120227604000045411202276CITY MART ( 47 BRANCH  PTN           MMR11008150353540040780815000000000000000   10300001 00104100000000002376000000000000     
100   95050322426452690000000000071850000000071850002000000010410408150412450137796522410815222704013779   1030000600030000   554100001217315799420000669DENKO PHAYAR GYI       BAGO          MMR11008150412450137790815000000000000000   10300001 00104100000000008622000000000000     
100   95030318100004530000000000040000000000040000002000000010410408150737350129344773800815222707012934   1030000600030000   554100001218315799420000670DENKO MAWLAMYAING      MON STATE.    MMR11008150737350129340815000000000000000   10300001 00104100000000001200000000000000     
100   62911028202181120000000000068000000000068000002000000010410408150504580643214773800815222705064321   1030000600030000   554100001756315799420001137DENKO NORTH DAGON 2    YANGON        MMR11008150504580643210815000000000000000   10300001 00104100000000002040000000000000     
100   95050324005082180000000000069800000000069800002000000010410408150933330052330585170815222716005233   1030000500030000   541120226403000045411202264MARKET PLACE MYANMARPL PTN           MMR11008150933330052330815000000000000000   10300001 00104100000000017450000000000000     
100   95050324005082180000000000022750000000022750002000000010410408150935060052342322750815222716005234   1030000500030000   541120226403000045411202264MARKET PLACE MYANMARPL PTN           MMR11008150935060052340815000000000000000   10300001 00104100000000005688000000000000     
100   95050312641885210000000000000990000000000990002000000010410408161218184818123017310816000007662143   1020000200030000   333400010001204104000000281Myanmar Soft-Gate Tech Yangon        MMR11008161218184818120816000000000000000   10300001F05104100000000000208000000000000     
100   62443100322704290000000000050000000000050000002000000010410408160645311531911123320816000007660060   1030000300030000   333300010001206104000002147DICA Company Limited   Yangon        MMR11008160645311531910816000000000000000   10300001F05104100000000010000000000000000     
100   95050316321163940000000000000990000000000990002000000010410408160958322832656797200816000007661501   1020000200030000   333400010001204104000000281Myanmar Soft-Gate Tech Yangon        MMR11008160958322832650816000000000000000   10300001F05104100000000000208000000000000     
100   95050316997303010000000000003960000000003960002000000010410408161308033803053187500816000007662325   1020000200030000   333400010001204104000000281Myanmar Soft-Gate Tech Yangon        MMR11008161308033803050816000000000000000   10300001F05104100000000000832000000000000     
100   62911028202416760000000000050000000000050000002000000010410408160343528372094773800816222810837209   1040001600030000   598320000316000000010000304PT Power Petrol Statio Yangon        MMR11008160343528372090816000000000000000   10300001F00104100000000001500000000000000     
100   95050310427855490000000000000990000000000990002000000010410408160855342534499179900816000007661017   1020000200030000   333400010001204104000000281Myanmar Soft-Gate Tech Yangon        MMR11008160855342534490816000000000000000   10300001F05104100000000000208000000000000     
100   95050319161596230000000000000990000000000990002000000010410408160059452945844861850816000007656964   1020000200030000   333400010001204104000000281Myanmar Soft-Gate Tech Yangon        MMR11008160059452945840816000000000000000   10300001F05104100000000000208000000000000     
100   62911028202807400000000000050000000000050000002000000010410408151144580378764773800815222711037876   1030000600030000   554100001016315799420000510DENKO AUNG SAN         YANGON        MMR11008151144580378760815000000000000000   10300001 00104100000000001500000000000000     
100   95030301100126550000000000025000000000025000002000000010410408151035260753864773800815222710075386   1030000600030000   554100000952315799420000474DENKO N.DAGON - 1      YANGON        MMR11008151035260753860815000000000000000   10300001 00104100000000000750000000000000     
100   95050321232876860000000000100000000000100000002000000010410408150310050183497082420815222703018349   1030000600030000   554100002328315799420001235DENKO NAY PYI TAW 2    NAYPYITAW     MMR11008150310050183490815000000000000000   10300001 00104100000000012000000000000000     
100   62911028202593140000000000017300000000017300002000000010410408150911520027474773800815222715002747   1030000500030000   541120227503000045411202275CITY MART (AHLONE BRAN PTN           MMR11008150911520027470815000000000000000   10300001 00104100000000001038000000000000     
100   62911028202260320000000000055750000000055750002000000010410408150656057737114773800815222713773711   1040001600030000   581420000246000000010000234Hot Pot Country        Yangon        MMR11008150656057737110815000000000000000   10300001F00104100000000001673000000000000     
100   95050324250133010000000000035050000000035050002000000010410408151106050056436989260815000361331473   1030000300030000   541100002333000000000000102CB BANK                MAKRO MYANMAR MMR11008151106050056430815000000000000000   10300001F00104100000000008763000000000000     
100   62443100390038980000000000149100000000149100002000000010410408151019140025167620590815000361324512   1030000300030000   541100002372000000000000102CB BANK                MAKRO MYANMAR MMR11008151019140025160815000000000000000   10300001F00104100000000037275000000000000     
100   95050328861342240000000000005000000000005000002000000010410408141038540286050531010814222610028605   1030000600030000   554100001118315799420000576DENKO THAN HLYIN - 2   THAN HLYIN    MMR11008141038540286050814000000000000000   10300001 00104100000000000600000000000000     
100   95050321232876860000000000105000000000105000002000000010410408130344340444085850700813222503044408   1030000600030000   554100001865315799420001235DENKO NAY PYI TAW 2    NAYPYITAW     MMR11008130344340444080813000000000000000   10300001 00104100000000012600000000000000     
100   62443100300792360000000000124000000000124000002000000010410408140344211055478923160814222603105547   1030000600030000   554100000946315799420000471DENKO BAHAN            YANGON        MMR11008140344211055470814000000000000000   10300001 00104100000000014880000000000000     
100   95050321232876860000000000141000000000141000002000000010410408130450250444129751350813222504044412   1030000600030000   554100001865315799420001235DENKO NAY PYI TAW 2    NAYPYITAW     MMR11008130450250444120813000000000000000   10300001 00104100000000016920000000000000     
100   62443100306416880000000000028550000000028550002000000010410408161205340008384159220816000752106064   1030000200030000   597788000930000008000000162KBZ BANK               L'OCCITANE( J MMR11008161205340008380816000000000000000   10300001 00104100000000006852000000000000     
100   62443100306416880000000000025000000000025000002000000010410408161145380008182336540816000752104869   1030000200030000   569988002300000008000006125KBZ BANK               SOON - JUNCTI MMR11008161145380008180816000000000000000   10300001 00104100000000006000000000000000     
100   62443100306045460000000000093500000000093500002000000010410408160054190024886429240816000752056073   1030000200030000   806288001903000008000001738KBZ BANK               SHWE GONE DIN MMR11008160054190024880816000000000000000   10300001 00104100000000022440000000000000     
100   95050314567755980000000000002950000000002950002000000010410408161330050005292847110816000007662404   1030000200030000   333800010001203104000003327KBZPay                 Yangon        MMR11008161330050005290816000000000000000   10300001F05104100000000000620000000000000     
100   62443100348951400000000000100000000000100000002000000010410408160630350035137903450816000007659931   1030000200030000   333800010001203104000003327KBZPay                 Yangon        MMR11008160630350035130816000000000000000   10300001F05104100000000021000000000000000     
100   62911028202154800000000000112475000000112475002000000010410408161015041121694773800816945451604227   1030000900030000   541119001260190110000000958City Mart PLST C 3     YANGONMYOTHIT MMR11008161015041121690816000000000000000   10300001F00104100000000006749000000000000     
100   62911028202790310000000000022450000000022450002000000010410408160921170136134773800816000752059033   1030000200030000   541188001303000008000000325KBZ BANK               CITY MART - A MMR11008160921170136130816000000000000000   10300001 00104100000000001347000000000000     
100   95050317175714970000000000025450000000025450002000000010410408160728471073686591360816556581347227   1030000900030000   541119000112190110000000077Sein Gay Har Chinatown YANGON        MMR11008160728471073680816000000000000000   10300001F00104100000000006363000000000000     
100   95050319156011610000000000008800000000008800002000000010410408160217280996416259050816966470828227   1030000900030000   541119001464190110000000077Sein Gay Har Chinatown YANGON        MMR11008160217280996410816000000000000000   10300001F00104100000000002200000000000000     
100   95030310098554020000000000030000000000030000002000000010410408161006381118984773800816801361638227   1030000900030000   554119001103190110000000215New Day Energy MYG     YANGONONE     MMR11008161006381118980816000000000000000   10300001F00104100000000000900000000000000     
100   62443100392426520000000000010000000000010000002000000010410408160431050105470011360816000007658905   1030000200030000   333800010001203104000003327KBZPay                 Yangon        MMR11008160431050105470816000000000000000   10300001F05104100000000002100000000000000     
100   62443100348951400000000000100000000000100000002000000010410408160636030603130953130816000007659974   1030000200030000   333800010001203104000003327KBZPay                 Yangon        MMR11008160636030603130816000000000000000   10300001F05104100000000021000000000000000     
100   62443100330108240000000000004950000000004950002000000010410408161437550755657974760816000007662674   1020000200030000   333400010001204104000000281Myanmar Soft-Gate Tech Yangon        MMR11008161437550755650816000000000000000   10300001F05104100000000001040000000000000     
100   62911028202170230000000000068100000000068100002000000010410408160948561113034773800816480181656227   1030000900030000   541119001186190110000000942City Mart HDC C 1      YANGONUT      MMR11008160948561113030816000000000000000   10300001F00104100000000004086000000000000     
100   95050313123223200000000000012800000000012800002000000010410408160312451008688578510816516420945227   1030000900030000   541119000124190110000000080Sein Gay Har BAK       YANGONADA     MMR11008160312451008680816000000000000000   10300001F00104100000000003200000000000000     
100   95030388822041290000000000001200000000001200002000000010410408161427310292044773800816000752089542   1030000200030000   541188001059000008000000314KBZ BANK               MARKETPLACE - MMR11008161427310292040816000000000000000   10300001 00104100000000000072000000000000     
100   95050327416134790000000000000990000000000990002000000010410408161332270227401194630816000007662406   1020000200030000   333400010001204104000000281Myanmar Soft-Gate Tech Yangon        MMR11008161332270227400816000000000000000   10300001F05104100000000000208000000000000     
100   62443100348951400000000000300000000000300000002000000010410408160634500450662605620816000007659967   1030000200030000   333800010001203104000003327KBZPay                 Yangon        MMR11008160634500450660816000000000000000   10300001F05104100000000063000000000000000     
100   95050312224678430000000000009900000000009900002000000010410408160238250825370329880816000007657487   1020000200030000   333400010001204104000000281Myanmar Soft-Gate Tech Yangon        MMR11008160238250825370816000000000000000   10300001F05104100000000002079000000000000     
100   62911028202280200000000000025800000000025800002000000010410408160442331028954773800816391121133227   1030000900030000   541119001079190110000000872Sein Gay Har Hledan    YANGONUT      MMR11008160442331028950816000000000000000   10300001F00104100000000001548000000000000     
100   62911028202474000000000000201451000000201451002000000010410408161144250269064773800816000752072610   1030000200030000   541188001007000008000000008KBZ BANK               MARKETPLACE - MMR11008161144250269060816000000000000000   10300001 00104100000000012087000000000000     
100   62911028202527490000000000034000000000034000002000000010410408132337320001574773800814222623000157   1030000600030000   554100002414315799420001684MMTM NORTH-DAGON       YANGON        MMR11008132337320001570814000000000000000   10300001 00104100000000001020000000000000     
100   95050311168163370000000000005500000000005500002000000010410408140946070002473817380814222609000247   1030000600030000   481200002211315799420001556ANYCALL HLEDAN         YANGON        MMR11008140946070002470814000000000000000   10300001 00104100000000001320000000000000     
100   95050314995854750000000000008400000000008400002000000010410408140256450001308000890814222602000130   1030000600030000   5499000022623157994200015731 STOP S M LAYHTAUKKAN YANGON        MMR11008140256450001300814000000000000000   10300001 00104100000000003570000000000000     
100   62911028202795770000000000073340000000073340002000000010410408140502260030864773800814222605003086   1030000600030000   806200002190315799420001535ASIA ROYAL HOSPITAL    YANGON        MMR11008140502260030860814000000000000000   10300001 00104100000000004400000000000000     
100   95030301100121270000000000017550000000017550002000000010410408140623220018744773800814222606001874   1030000600030000   5499000023523157994200016371 STOP S M KAMARKYI    YANGON        MMR11008140623220018740814000000000000000   10300001 00104100000000001790000000000000     
100   95050326228858240000000000134300000000134300002000000010410408140707320023600484840814222607002360   1030000600030000   581200002191315799420001536CANTON PARADISE TC     YANGON        MMR11008140707320023600814000000000000000   10300001 00104100000000057078000000000000     
100   62443100355445150000000000020700000000020700002000000010410408140936530015696441580814222616001569   1030000500030000   541120227605000045411202276CITY MART ( 47 BRANCH  PTN           MMR11008140936530015690814000000000000000   10300001 00104100000000005175000000000000     
100   62911028202217020000000000013350000000013350002000000010410408131031290002674773800813222510000267   1030000600030000   591200002215315799420001560365 PHARMACY 3         YANGON        MMR11008131031290002670813000000000000000   10300001 00104100000000000801000000000000     
