100   95050328161730520000000000100000000000100000002000000010410408170705503550286072700817000007666278   1030000200030000   333800010001203104000003327KBZPay                 Yangon        MMR11008170705503550280817000000000000000   10300001F05104100000000021000000000000000     
100   95050316377977350000000000001500000000001500002000000010410408171412264226045037760817000007668551   1030000200030000   3338000100012031040000040022C2P (Myanmar) Co. Ltd Yangon        MMR11008171412264226040817000000000000000   10300001F05104100000000000315000000000000     
100   95050310572950870000000000020000000000020000002000000010410408170427525752590003280817000007664875   1030000200030000   333800010001203104000003327KBZPay                 Yangon        MMR11008170427525752590817000000000000000   10300001F05104100000000004200000000000000     
100   95050316601084530000000000000990000000000990002000000010410408171151332133058598020817000007667978   1020000200030000   333400010001204104000000281Myanmar Soft-Gate Tech Yangon        MMR11008171151332133050817000000000000000   10300001F05104100000000000208000000000000     
100   95050321688266460000000000010000000000010000002000000010410408170553332333006868510817000007665690   1030000200030000   333800010001203104000003327KBZPay                 Yangon        MMR11008170553332333000817000000000000000   10300001F05104100000000002100000000000000     
100   95050317071956460000000000019800000000019800002000000010410408171400353035131732790817000007668502   1020000200030000   333400010001204104000000281Myanmar Soft-Gate Tech Yangon        MMR11008171400353035130817000000000000000   10300001F05104100000000004158000000000000     
100   95050316812885810000000000009900000000009900002000000010410408170114174417043612990817000007663510   1020000200030000   333400010001204104000000281Myanmar Soft-Gate Tech Yangon        MMR11008170114174417040817000000000000000   10300001F05104100000000002079000000000000     
100   95050315889680120000000000001000000000001000002000000010410408171447461746908427820817000007668697   1030000200030000   333800010001203104000003327KBZPay                 Yangon        MMR11008171447461746900817000000000000000   10300001F05104100000000000210000000000000     
100   95050322478649490000000000100000000000100000002000000010410408171022065206937420460817000007667539   1030000200030000   333800010001203104000003327KBZPay                 Yangon        MMR11008171022065206930817000000000000000   10300001F05104100000000021000000000000000     
100   62443100363668680000000000018000000000018000002000000010410408160501300008354422580816222811000835   1030000500030000   598320002101000015172200021MAX ENERGY             PTN           MMR11008160501300008350816000000000000000   10300001 00104100000000002160000000000000     
100   95050314302558730000000000002970000000002970002000000010410408171203323332873640560817000007668048   1020000200030000   333400010001204104000000281Myanmar Soft-Gate Tech Yangon        MMR11008171203323332870817000000000000000   10300001F05104100000000000624000000000000     
100   95050313003526690000000000003000000000003000002000000010410408170911154115857165170817000007667185   1030000200030000   3338000100012031040000040022C2P (Myanmar) Co. Ltd Yangon        MMR11008170911154115850817000000000000000   10300001F05104100000000000630000000000000     
100   95050312539675540000000000008456000000008456002000000010410408171010139396044030390817222917939604   1040001600030000   598320001462000000010001156360 Petro (62 Street)  MDY           MMR11008171010139396040817000000000000000   10300001F00104100000000001015000000000000     
100   62911028202132460000000000008000000000008000002000000010410408171116359464164773800817222918946416   1040001600030000   591220000285000000010000273Shwe Ohh Pharmacy (47t Yangon        MMR11008171116359464160817000000000000000   10300001F00104100000000000480000000000000     
100   95050325095525130000000000100000000000100000002000000010410408170731190119718320860817000007666509   1030000200030000   333800010001203104000003327KBZPay                 Yangon        MMR11008170731190119710817000000000000000   10300001F05104100000000021000000000000000     
100   62911028202069430000000000033350000000033350002000000010410408171211261394854773800817663411826228   1030000900030000   541119001077190110000000872Sein Gay Har Hledan    YANGONUT      MMR11008171211261394850817000000000000000   10300001F00104100000000002001000000000000     
100   62443100334378030000000000115850000000115850002000000010410408151006400018667705680815222710001866   1030000600030000   5499000022253157994200015671 STOP S M BOGYOKE RD  YANGON        MMR11008151006400018660815000000000000000   10300001 00104100000000049237000000000000     
100   95030305700676370000000000045000000000045000002000000010410408150827190479114773800815222708047911   1030000600030000   554100001106315799420000564DENKO PHYUU            PHYUU         MMR11008150827190479110815000000000000000   10300001 00104100000000001350000000000000     
100   95030305700676370000000000045000000000045000002000000010410408151147030089734773800815222711008973   1030000600030000   554100002141315799420001490DENKO MEIKHTILA 3      MANDALAY      MMR11008151147030089730815000000000000000   10300001 00104100000000001350000000000000     
100   62443100313112320000000000048000000000048000002000000010410408151314311059584010890815222713105958   1030000600030000   554100000946315799420000471DENKO BAHAN            YANGON        MMR11008151314311059580815000000000000000   10300001 00104100000000005760000000000000     
100   62911028202074950000000000028000000000028000002000000010410408160953590006684773800816000361504262   1030000300030000   598300001210000000000000817CB BANK                SHWE TAUNG EN MMR11008160953590006680816000000000000000   10300001F00104100000000000840000000000000     
100   62911028202366010000000000034660000000034660002000000010410408161222420015694773800816222818001569   1030000500030000   531120231219000045311202312OCEAN OATTARA THIRI    PTN           MMR11008161222420015690816000000000000000   10300001 00104100000000002080000000000000     
100   95050320928153430000000000009900000000009900002000000010410408160721080000223116200816222813000022   1030000500030000   531120155717000045311201557GAMONE PWINT           PTN           MMR11008160721080000220816000000000000000   10300001 00104100000000002376000000000000     
100   62443100315384790000000000022635000000022635002000000010410408161056560012409201760816000361513230   1030000300030000   829900002887000000000001992CB BANK                KMD COMPANY L MMR11008161056560012400816000000000000000   10300001F00104100000000005432000000000000     
100   95050321848852460000000000051000000000051000002000000010410408171452551423870165400817064222155228   1030000900030000   554119001103190110000000215New Day Energy MYG     YANGONONE     MMR11008171452551423870817000000000000000   10300001F00104100000000006120000000000000     
100   95050310427855490000000000000990000000000990002000000010410408170845361536234831910817000007667044   1020000200030000   333400010001204104000000281Myanmar Soft-Gate Tech Yangon        MMR11008170845361536230817000000000000000   10300001F05104100000000000208000000000000     
100   62443100364681690000000001000000000001000000002000000010410408170653212321802427350817000007666181   1040001600030000   333800010001220104000004507A +                    Yangon        MMR11008170653212321800817000000000000000   10300001F05104100000000210000000000000000     
100   95050317003064220000000000002970000000002970002000000010410408170308543854527499830817000007664049   1020000200030000   333400010001204104000000281Myanmar Soft-Gate Tech Yangon        MMR11008170308543854520817000000000000000   10300001F05104100000000000624000000000000     
100   95050312224678430000000000001980000000001980002000000010410408171411434143016690240817000007668549   1020000200030000   333400010001204104000000281Myanmar Soft-Gate Tech Yangon        MMR11008171411434143010817000000000000000   10300001F05104100000000000416000000000000     
100   95030399326190680000000000229750000000229750002000000010410408171138288139274773800817082837943806   1040001400030000   594510000412025945100002524Baby Idol null No.43 C rner of Kyunt MMR11008171138288139270817000000000000000   10300001 00104100000000013785000000000000     
100   95050319204938440000000000005000000000005000002000000010410408170248361836797173240817000007663913   1030000200030000   333800010001203104000003327KBZPay                 Yangon        MMR11008170248361836790817000000000000000   10300001F05104100000000001050000000000000     
100   95050317903887690000000000040250000000040250002000000010410408171152182218240335590817000007667988   1030000200030000   333800010001203104000003327KBZPay                 Yangon        MMR11008171152182218240817000000000000000   10300001F05104100000000008453000000000000     
100   95050324850150480000000000050000000000050000002000000010410408160337150024436294700816222803002443   1030000600030000   554100002170315799420001517DENKO KYAUNG KONE      AYAWADY       MMR11008160337150024430816000000000000000   10300001 00104100000000006000000000000000     
100   62911028202169750000000000027600000000027600002000000010410408160544250059894773800816222812005989   1030000500030000   541120226812000045411202268CITY MART WAIZAYANDA   PTN           MMR11008160544250059890816000000000000000   10300001 00104100000000001656000000000000     
100   95050313732480420000000000001980000000001980002000000010410408171136390639027917250817000007667921   1020000200030000   333400010001204104000000281Myanmar Soft-Gate Tech Yangon        MMR11008171136390639020817000000000000000   10300001F05104100000000000416000000000000     
100   62911028202651050000000000004300000000004300002000000010410408171039390280514773800817000752126982   1030000200030000   541188001037000008000000010KBZ BANK               MARKETPLACE - MMR11008171039390280510817000000000000000   10300001 00104100000000000258000000000000     
100   62911028202527490000000000022000000000022000002000000010410408160638200003774773800816222806000377   1030000600030000   554100002414315799420001684MMTM NORTH-DAGON       YANGON        MMR11008160638200003770816000000000000000   10300001 00104100000000000660000000000000     
100   95050319156011610000000000008890000000008890002000000010410408171143201388456945530817327131820228   1030000900030000   541119001462190110000000077Sein Gay Har Chinatown YANGON        MMR11008171143201388450817000000000000000   10300001F00104100000000002223000000000000     
100   62911028202421380000000000030400000000030400002000000010410408171601050152194773800817000752153444   1030000200030000   541188001081000008000000294KBZ BANK               CITY MART - J MMR11008171601050152190817000000000000000   10300001 00104100000000001824000000000000     
100   62911028202397530000000000035600000000035600002000000010410408170655081312624773800817558251308228   1030000900030000   541119001303190110000000968Ocean Mingalar MDY C11 MANDALAYHARSI MMR11008170655081312620817000000000000000   10300001F00104100000000002136000000000000     
100   95050316812885810000000000000990000000000990002000000010410408170124505450236577570817000007663565   1020000200030000   333400010001204104000000281Myanmar Soft-Gate Tech Yangon        MMR11008170124505450230817000000000000000   10300001F05104100000000000208000000000000     
100   95050323133124350000000000015000000000015000002000000010410408170616464646155221740817000007665865   1040001600030000   333800010001220104000004507A +                    Yangon        MMR11008170616464646150817000000000000000   10300001F05104100000000003150000000000000     
100   62443100364681690000000001000000000001000000002000000010410408170654352435460349390817000007666194   1040001600030000   333800010001220104000004507A +                    Yangon        MMR11008170654352435460817000000000000000   10300001F05104100000000210000000000000000     
100   95050322312885760000000000007000000000007000002000000010410408170416474647089662900817000007664767   1030000200030000   333800010001203104000003327KBZPay                 Yangon        MMR11008170416474647080817000000000000000   10300001F05104100000000001470000000000000     
100   95030314863516850000000000023000000000023000002000000010410408170424555455004773800817000007664851   1030000200030000   333800010001203104000003327KBZPay                 Yangon        MMR11008170424555455000817000000000000000   10300001F05104100000000004830000000000000     
100   95050318214455130000000000004950000000004950002000000010410408170647381738272342260817000007666124   1020000200030000   333400010001204104000000281Myanmar Soft-Gate Tech Yangon        MMR11008170647381738270817000000000000000   10300001F05104100000000001040000000000000     
100   95050310397364970000000000000990000000000990002000000010410408171414104410346775340817000007668559   1020000200030000   333400010001204104000000281Myanmar Soft-Gate Tech Yangon        MMR11008171414104410340817000000000000000   10300001F05104100000000000208000000000000     
100   62443100301716860000000000000990000000000990002000000010410408170301593159350804800817000007663976   1020000200030000   333400010001204104000000281Myanmar Soft-Gate Tech Yangon        MMR11008170301593159350817000000000000000   10300001F05104100000000000208000000000000     
100   95050328282898390000000000065250000000065250002000000010410408170319171263885932450817478490917228   1030000900030000   541119001175190110000000932OCEAN HTY CITY CARE    YANGONTHARYA  MMR11008170319171263880817000000000000000   10300001F00104100000000016313000000000000     
100   95050321455580800000000000060032000000060032002000000010410408160354520009419769860816000361445495   1030000300030000   531100000750000000000000408CB BANK                CAPITAL HYPER MMR11008160354520009410816000000000000000   10300001F00104100000000014408000000000000     
100   62911028202312890000000000015000000000015000002000000010410408160355180010824773800816222810001082   1030000500030000   598320001202000015172200012MAX ENERGY             PTN           MMR11008160355180010820816000000000000000   10300001 00104100000000000450000000000000     
100   62911028202169750000000000001100000000001100002000000010410408160601580025744773800816222812002574   1030000500030000   541120203903000015411202039NEIGHBOURHOOD          PTN           MMR11008160601580025740816000000000000000   10300001 00104100000000000066000000000000     
100   62443100392773440000000000053867000000053867002000000010410408160930570042616967400816222816004261   1030000500030000   531120226308000045311202263OCEAN SUPER CENTER STJ PTN           MMR11008160930570042610816000000000000000   10300001 00104100000000012928000000000000     
100   62911028202142930000000000004750000000004750002000000010410408161036150000324773800816000361510408   1030000300030000   531100000544000000000000376CB BANK                CAPITAL HYPER MMR11008161036150000320816000000000000000   10300001F00104100000000000285000000000000     
100   62911028202285410000000000514898000000514898002000000010410408160626540017894773800816222812001789   1030000500030000   531120226718000045311202267OCEAN NORTH POINT      PTN           MMR11008160626540017890816000000000000000   10300001 00104100000000030894000000000000     
100   62911028202162640000000000050300000000050300002000000010410408160358550002444773800816222810000244   1030000500030000   591220132901008605912201329THEIK DI WIN SHOP      PTN           MMR11008160358550002440816000000000000000   10300001 00104100000000003018000000000000     
100   95050316067768680000000000000990000000000990002000000010410408171432090209820080300817000007668625   1020000200030000   333400010001204104000000281Myanmar Soft-Gate Tech Yangon        MMR11008171432090209820817000000000000000   10300001F05104100000000000208000000000000     
100   62443100364681690000000000500000000000500000002000000010410408170655332533023654350817000007666206   1040001600030000   333800010001220104000004507A +                    Yangon        MMR11008170655332533020817000000000000000   10300001F05104100000000105000000000000000     
100   62911028202355870000000005000000000005000000002000000010410408161812104210694773800817000007663211   1030000600030000   333800010001230104000004564Trusty Wallet          Yangon        MMR11008161812104210690817000000000000000   10300001F05104100000001050000000000000000     
100   62911028202521110000000000027300000000027300002000000010410408170933589367134773800817222916936713   1040001600030000   591220000261000000010000249Shwe Ohh Pharmacy (Thi Yangon        MMR11008170933589367130817000000000000000   10300001F00104100000000001638000000000000     
100   95050328161730520000000000100000000000100000002000000010410408170657122712643739450817000007666214   1030000200030000   333800010001203104000003327KBZPay                 Yangon        MMR11008170657122712640817000000000000000   10300001F05104100000000021000000000000000     
100   95050323233042810000000000000990000000000990002000000010410408170407283728656272830817000007664677   1020000200030000   333400010001204104000000281Myanmar Soft-Gate Tech Yangon        MMR11008170407283728650817000000000000000   10300001F05104100000000000208000000000000     
100   62443100395250310000000000001980000000001980002000000010410408171318134813458768210817000007668347   1020000200030000   333400010001204104000000281Myanmar Soft-Gate Tech Yangon        MMR11008171318134813450817000000000000000   10300001F05104100000000000416000000000000     
100   62443100355903280000000000001000000000001000002000000010410408171152312231608683110817000007667987   1030000200030000   3334000100012031040000040102C2P (Myanmar) Co. Ltd Yangon        MMR11008171152312231600817000000000000000   10300001F05104100000000000210000000000000     
100   62911028202595200000000000071433000000071433002000000010410408160849140006234773800816000361494770   1030000300030000   598300001210000000000000817CB BANK                SHWE TAUNG EN MMR11008160849140006230816000000000000000   10300001F00104100000000002143000000000000     
100   62911028202108200000000000030377000000030377002000000010410408160309350007054773800816222803000705   1030000600030000   5499000022323157994200015681 STOP S M PHOE SEIN   YANGON        MMR11008160309350007050816000000000000000   10300001 00104100000000003098000000000000     
100   95030321100004250000000000006708000000006708002000000010410408161004330015604773800816222816001560   1030000500030000   531120231219000045311202312OCEAN OATTARA THIRI    PTN           MMR11008161004330015600816000000000000000   10300001 00104100000000000403000000000000     
100   95030399326190680000000000041300000000041300002000000010410408161146260001304773800816222818000130   1030000500030000   591220020501005105912200205MINGALAR PHARMACY      PTN           MMR11008161146260001300816000000000000000   10300001 00104100000000002478000000000000     
100   62911028202296140000000000009500000000009500002000000010410408160825440008854773800816000361491405   1030000300030000   531100000828000000000000565CB BANK                MGOU-SYT      MMR11008160825440008850816000000000000000   10300001F00104100000000000570000000000000     
100   62911028202147720000000000054000000000054000002000000010410408160802580015374773800816222814001537   1030000500030000   541120227505000045411202275CITY MART (AHLONE BRAN PTN           MMR11008160802580015370816000000000000000   10300001 00104100000000003240000000000000     
100   95050320928153430000000000022950000000022950002000000010410408160653510000215023960816222813000021   1030000500030000   531120155717000045311201557GAMONE PWINT           PTN           MMR11008160653510000210816000000000000000   10300001 00104100000000005508000000000000     
100   95030301100337010000000000009350000000009350002000000010410408161151160001134773800816222818000113   1030000500030000   541120025102022205411200251ORANGE (THANLYIN-2)    PTN           MMR11008161151160001130816000000000000000   10300001 00104100000000000561000000000000     
100   95030314863516850000000000023000000000023000002000000010410408171300173017014773800817000007668280   1030000200030000   333800010001203104000003327KBZPay                 Yangon        MMR11008171300173017010817000000000000000   10300001F05104100000000004830000000000000     
100   95050311736839760000000000000990000000000990002000000010410408170110144014020308010817000007663489   1020000200030000   333400010001204104000000281Myanmar Soft-Gate Tech Yangon        MMR11008170110144014020817000000000000000   10300001F05104100000000000208000000000000     
100   62911028202142930000000000018500000000018500002000000010410408170745139303814773800817222914930381   1040001600030000   569920000597000000010000472BOSSINI (Capital)      Yangon        MMR11008170745139303810817000000000000000   10300001F00104100000000001110000000000000     
100   95050310572950870000000000020000000000020000002000000010410408170704273427301030150817000007666258   1030000200030000   333800010001203104000003327KBZPay                 Yangon        MMR11008170704273427300817000000000000000   10300001F05104100000000004200000000000000     
100   95050316638224720000000000003960000000003960002000000010410408170306543654074109770817000007664033   1020000200030000   333400010001204104000000281Myanmar Soft-Gate Tech Yangon        MMR11008170306543654070817000000000000000   10300001F05104100000000000832000000000000     
100   95050314570621780000000000002970000000002970002000000010410408170606323632370179190817000007665790   1020000200030000   333400010001204104000000281Myanmar Soft-Gate Tech Yangon        MMR11008170606323632370817000000000000000   10300001F05104100000000000624000000000000     
100   95050313441999020000000000005000000000005000002000000010410408171206093609233725660817000007668064   1030000200030000   3338000100012031040000040022C2P (Myanmar) Co. Ltd Yangon        MMR11008171206093609230817000000000000000   10300001F05104100000000001050000000000000     
100   95050318712627500000000000022800000000022800002000000010410408161029480035742520520816222816003574   1030000500030000   541120229102000045411202291CITY MART YANKIN       PTN           MMR11008161029480035740816000000000000000   10300001 00104100000000005700000000000000     
100   62911028202142930000000000021000000000021000002000000010410408160756450008624773800816222814000862   1030000500030000   598320002101000015172200021MAX ENERGY             PTN           MMR11008160756450008620816000000000000000   10300001 00104100000000000630000000000000     
100   62911028202611530000000000018300000000018300002000000010410408160727390016014773800816222813001601   1030000500030000   541120230004000045411202300MARKET PLACE BY CITY M PTN           MMR11008160727390016010816000000000000000   10300001 00104100000000001098000000000000     
100   62443101023815100000000000007339000000007339002000000010410408161225460027994754890816222818002799   1030000500030000   541120227503000045411202275CITY MART (AHLONE BRAN PTN           MMR11008161225460027990816000000000000000   10300001 00104100000000001835000000000000     
100   62911028202743960000000000063000000000063000002000000010410408161229550000644773800816222818000064   1030000500030000   598320005202000015172200052MAX ENERGY             PTN           MMR11008161229550000640816000000000000000   10300001 00104100000000001890000000000000     
100   62911028202188560000000000013440000000013440002000000010410408160509300002584773800816222811000258   1030000500030000   531120155707000045311201557GAMONE PWINT           PTN           MMR11008160509300002580816000000000000000   10300001 00104100000000000806000000000000     
100   62911028202533900000000000020000000000020000002000000010410408160546020008454773800816222812000845   1030000500030000   598320002101000015172200021MAX ENERGY             PTN           MMR11008160546020008450816000000000000000   10300001 00104100000000000600000000000000     
100   62911028202207610000000000043000000000043000002000000010410408160650180009594773800816222813000959   1030000500030000   598320001201000015172200012MAX ENERGY             PTN           MMR11008160650180009590816000000000000000   10300001 00104100000000001290000000000000     
100   62443100328070970000000000010572000000010572002000000010410408161056490036049286860816222817003604   1030000500030000   531120226719000045311202267OCEAN NORTH POINT      PTN           MMR11008161056490036040816000000000000000   10300001 00104100000000002537000000000000     
100   95050314774151170000000000066050000000066050002000000010410408160746250000232229580816000361485414   1030000300030000   531100000544000000000000376CB BANK                CAPITAL HYPER MMR11008160746250000230816000000000000000   10300001F00104100000000015852000000000000     
100   62911028202312890000000000035000000000035000002000000010410408160351100010814773800816222810001081   1030000500030000   598320001202000015172200012MAX ENERGY             PTN           MMR11008160351100010810816000000000000000   10300001 00104100000000001050000000000000     
100   62911028202684060000000000034150000000034150002000000010410408160438240013864773800816222811001386   1030000500030000   541120229003000045411202290CITY MART SUPERMARKET  PTN           MMR11008160438240013860816000000000000000   10300001 00104100000000002049000000000000     
100   62911028202150190000000000010915000000010915002000000010410408161242110000554773800816222819000055   1030000500030000   581220049201006405812200492OTHENTIC RESTAURANT    PTN           MMR11008161242110000550816000000000000000   10300001 00104100000000001113000000000000     
100   62911028202449440000000000133000000000133000002000000010410408161101390006294773800816222817000629   1030000500030000   598320001704000015172200017MAX ENERGY             PTN           MMR11008161101390006290816000000000000000   10300001 00104100000000003990000000000000     
100   62911028202184760000000000020000000000020000002000000010410408160614110008474773800816222812000847   1030000500030000   598320002101000015172200021MAX ENERGY             PTN           MMR11008160614110008470816000000000000000   10300001 00104100000000000600000000000000     
100   62911028202631420000000000033300000000033300002000000010410408160655510008264773800816222813000826   1030000500030000   541120203701000015411202037CITY MART SUPERMARKET  PTN           MMR11008160655510008260816000000000000000   10300001 00104100000000001998000000000000     
100   62911028202225440000000000011000000000011000002000000010410408161025320036444773800816222816003644   1030000500030000   541120203706000015411202037CITY MART SUPERMARKET  PTN           MMR11008161025320036440816000000000000000   10300001 00104100000000000660000000000000     
100   62911028202314040000000000037000000000037000002000000010410408160611380001394773800816222812000139   1030000500030000   573220038801000015732200388REMAX                  PTN           MMR11008160611380001390816000000000000000   10300001 00104100000000002220000000000000     
100   62911028202448030000000000100000000000100000002000000010410408160557370012684773800816222812001268   1030000500030000   598320001204000015172200012MAX ENERGY             PTN           MMR11008160557370012680816000000000000000   10300001 00104100000000003000000000000000     
100   62911028202684060000000000029100000000029100002000000010410408160441090013874773800816222811001387   1030000500030000   541120229003000045411202290CITY MART SUPERMARKET  PTN           MMR11008160441090013870816000000000000000   10300001 00104100000000001746000000000000     
100   62443100386703740000000000006000000000006000002000000010410408160720550015468158740816222813001546   1030000500030000   541120230001000045411202300MARKET PLACE BY CITY M PTN           MMR11008160720550015460816000000000000000   10300001 00104100000000001500000000000000     
100   62911028202188560000000000032500000000032500002000000010410408160337290033124773800816222810003312   1030000500030000   531120226326000045311202263OCEAN SUPER CENTER STJ PTN           MMR11008160337290033120816000000000000000   10300001 00104100000000001950000000000000     
100   95050312554086980000000000018150000000018150002000000010410408160939060004811924850816000361502178   1030000300030000   591200000169000000000000084CB BANK                MEDICARE STOR MMR11008160939060004810816000000000000000   10300001F00104100000000004356000000000000     
100   62911028202806660000000000017178000000017178002000000010410408160318380015784773800816222809001578   1030000500030000   541120230004000045411202300MARKET PLACE BY CITY M PTN           MMR11008160318380015780816000000000000000   10300001 00104100000000001031000000000000     
100   62911028202147720000000000010700000000010700002000000010410408160805490018614773800816222814001861   1030000500030000   541120227507000045411202275CITY MART (AHLONE BRAN PTN           MMR11008160805490018610816000000000000000   10300001 00104100000000000642000000000000     
100   62911028202482830000000000003750000000003750002000000010410408160357180036204773800816222810003620   1030000500030000   541120203706000015411202037CITY MART SUPERMARKET  PTN           MMR11008160357180036200816000000000000000   10300001 00104100000000000225000000000000     
100   62911028202471860000000000127100000000127100002000000010410408161145000001014773800816222818000101   1030000500030000   541120129718000045411201297MAKRO MYANMAR          PTN           MMR11008161145000001010816000000000000000   10300001 00104100000000007626000000000000     
100   62911028202169750000000000092630000000092630002000000010410408160539160048454773800816222812004845   1030000500030000   541120226807000045411202268CITY MART WAIZAYANDA   PTN           MMR11008160539160048450816000000000000000   10300001 00104100000000005558000000000000     
100   62911028202248050000000000030100000000030100002000000010410408160504130442094773800816222805044209   1030000600030000   554100001155315799420000607DENKO NPT 1            NAYPYITAW.    MMR11008160504130442090816000000000000000   10300001 00104100000000000903000000000000     
100   95030323161862590000000000102660000000102660002000000010410408160727010596064773800816222807059606   1030000600030000   554100001001315799420000498DENKO SHWE PYI THAR    YANGON        MMR11008160727010596060816000000000000000   10300001 00104100000000003080000000000000     
100   62911028202871900000000000019700000000019700002000000010410408161626450110054773800816000752098738   1030000200030000   541188001282000008000000319KBZ BANK               NEIGHBOURHOOD MMR11008161626450110050816000000000000000   10300001 00104100000000001182000000000000     
100   62911028202154800000000000061000000000061000002000000010410408160933120270924773800816222809027092   1030000600030000   554100002323315799420000474DENKO N.DAGON - 1      YANGON        MMR11008160933120270920816000000000000000   10300001 00104100000000001830000000000000     
100   62443100302523870000000000030000000000030000002000000010410408152348370598543039170816222823059854   1030000600030000   554100000969315799420000481DENKO NORTH OKKALAPA   YANGON        MMR11008152348370598540816000000000000000   10300001 00104100000000003600000000000000     
100   95050324622440820000000000029100000000029100002000000010410408161007590092235740390816222810009223   1030000600030000   549900002153315799420001502EASY MART- 003         YANGON        MMR11008161007590092230816000000000000000   10300001 00104100000000012368000000000000     
100   95030327743474500000000000081000000000081000002000000010410408160034240344094773800816222800034409   1030000600030000   554100001116315799420000574DENKO HLAE KUU         HLAE KUU      MMR11008160034240344090816000000000000000   10300001 00104100000000002430000000000000     
100   62443100340422630000000000010000000000010000002000000010410408161236150053429797440816222819005342   1030000500030000   541120226403000045411202264MARKET PLACE MYANMARPL PTN           MMR11008161236150053420816000000000000000   10300001 00104100000000002500000000000000     
100   95030394609966640000000000065350000000065350002000000010410408161056418657184773800816222817865718   1040001600030000   581420000076000000010000074Hot Pot City Ahlone    Yangon        MMR11008161056418657180816000000000000000   10300001F00104100000000001961000000000000     
100   62443100383487320000000000077000000000077000002000000010410408170649140008404079830817000752140336   1030000200030000   597788000930000008000000162KBZ BANK               L'OCCITANE( J MMR11008170649140008400817000000000000000   10300001 00104100000000018480000000000000     
100   95050321848852460000000000020200000000020200002000000010410408171033200033292973580817000752156733   1030000200030000   599988000599000008000003436KBZ BANK               SWEETY HOME ( MMR11008171033200033290817000000000000000   10300001 00104100000000004848000000000000     
100   95050328282898390000000000093967000000093967002000000010410408170307241261747584930817401370924228   1030000900030000   541119001160190110000000930OCEAN HTY C 10         YANGONTHARYA  MMR11008170307241261740817000000000000000   10300001F00104100000000023492000000000000     
100   95050315889680120000000000012000000000012000002000000010410408170243281328162215790817000007663884   1030000200030000   333800010001203104000003327KBZPay                 Yangon        MMR11008170243281328160817000000000000000   10300001F05104100000000002520000000000000     
100   62443101065883000000000000102494000000102494002000000010410408170824450088873357700817000752120111   1030000200030000   541188001004000008000000008KBZ BANK               MARKETPLACE - MMR11008170824450088870817000000000000000   10300001 00104100000000025624000000000000     
100   95050319528093960000000000000990000000000990002000000010410408170734290429771625830817000007666540   1020000200030000   333400010001204104000000281Myanmar Soft-Gate Tech Yangon        MMR11008170734290429770817000000000000000   10300001F05104100000000000208000000000000     
100   95050315158357300000000000000990000000000990002000000010410408170437590759776783410817000007664957   1020000200030000   333400010001204104000000281Myanmar Soft-Gate Tech Yangon        MMR11008170437590759770817000000000000000   10300001F05104100000000000208000000000000     
100   95050310534130230000000000007600000000007600002000000010410408171113291381596520050817986431729228   1030000900030000   541119001203190110000000948City Mart YK C 1       YANGONAUNG    MMR11008171113291381590817000000000000000   10300001F00104100000000001900000000000000     
100   95050312539675540000000000000990000000000990002000000010410408170933100310763860200817000007667291   1020000200030000   333400010001204104000000281Myanmar Soft-Gate Tech Yangon        MMR11008170933100310760817000000000000000   10300001F05104100000000000208000000000000     
100   62911028202284260000000000042700000000042700002000000010410408170939401355684773800817636091640228   1030000900030000   541119000141190110000000083SeinGayHarParami Cente YANGON        MMR11008170939401355680817000000000000000   10300001F00104100000000002562000000000000     
100   95050321455580800000000000024500000000024500002000000010410408171104230339828435900817000752128744   1030000200030000   541188001012000008000000008KBZ BANK               MARKETPLACE - MMR11008171104230339820817000000000000000   10300001 00104100000000006125000000000000     
100   95050322312885760000000000013000000000013000002000000010410408171535100510783555460817000007668867   1030000200030000   333800010001203104000003327KBZPay                 Yangon        MMR11008171535100510780817000000000000000   10300001F05104100000000002730000000000000     
100   95050311926829590000000000020000000000020000002000000010410408170837010701281441850817000007666980   1030000200030000   333800010001203104000003327KBZPay                 Yangon        MMR11008170837010701280817000000000000000   10300001F05104100000000004200000000000000     
100   95030318100004530000000000038950000000038950002000000010410408171352190061454773800817000752143624   1030000200030000   541188001440000008000000401KBZ BANK               OCEAN SUPERCE MMR11008171352190061450817000000000000000   10300001 00104100000000002337000000000000     
100   95050328841190290000000000018750000000018750002000000010410408171022340136278982130817000752125543   1030000200030000   541188001303000008000000325KBZ BANK               CITY MART - A MMR11008171022340136270817000000000000000   10300001 00104100000000004688000000000000     
100   62911028202474000000000000015900000000015900002000000010410408171237150231164773800817000752136496   1030000200030000   541188001080000008000000294KBZ BANK               CITY MART - J MMR11008171237150231160817000000000000000   10300001 00104100000000000954000000000000     
100   95050329843099180000000000030000000000030000002000000010410408170732530253626668380817000007666511   1030000200030000   333800010001203104000003327KBZPay                 Yangon        MMR11008170732530253620817000000000000000   10300001F05104100000000006300000000000000     
100   95050310572950870000000000020000000000020000002000000010410408170333500350957244540817000007664320   1030000200030000   333800010001203104000003327KBZPay                 Yangon        MMR11008170333500350950817000000000000000   10300001F05104100000000004200000000000000     
100   62911028202179990000000000289891000000289891002000000010410408171120141383204773800817060501714228   1030000900030000   541119001243190110000000955City Mart JS C 2       YANGONUT      MMR11008171120141383200817000000000000000   10300001F00104100000000017394000000000000     
100   62911028202809060000000000050000000000050000002000000010410408170839260926144773800817000007667007   1030000200030000   333800010001203104000003327KBZPay                 Yangon        MMR11008170839260926140817000000000000000   10300001F05104100000000010500000000000000     
100   95050311121153200000000000022500000000022500002000000010410408171034030403646448750817000007667599   1030000200030000   333800010001203104000003327KBZPay                 Yangon        MMR11008171034030403640817000000000000000   10300001F05104100000000004725000000000000     
100   62911028202662690000000000018806000000018806002000000010410408171454310089184773800817000752149114   1030000200030000   541188001004000008000000008KBZ BANK               MARKETPLACE - MMR11008171454310089180817000000000000000   10300001 00104100000000001128000000000000     
100   62911028202662690000000000049445000000049445002000000010410408171455470089194773800817000752149229   1030000200030000   541188001004000008000000008KBZ BANK               MARKETPLACE - MMR11008171455470089190817000000000000000   10300001 00104100000000002967000000000000     
100   62911028202685390000000000042900000000042900002000000010410408171603450304274773800817000752153562   1030000200030000   541188001038000008000000010KBZ BANK               MARKETPLACE - MMR11008171603450304270817000000000000000   10300001 00104100000000002574000000000000     
100   62911028202166940000000000029150000000029150002000000010410408171454150213284773800817000752149077   1030000200030000   541188001126000008000000296KBZ BANK               CITY MART - J MMR11008171454150213280817000000000000000   10300001 00104100000000001749000000000000     
100   62911028202246800000000000015400000000015400002000000010410408171727020082704773800817000752157937   1030000200030000   541188001286000008000000472KBZ BANK               NEIGHBOURHOOD MMR11008171727020082700817000000000000000   10300001 00104100000000000924000000000000     
100   62911028202651050000000000010835000000010835002000000010410408171038500280504773800817000752126927   1030000200030000   541188001037000008000000010KBZ BANK               MARKETPLACE - MMR11008171038500280500817000000000000000   10300001 00104100000000000650000000000000     
100   95050310332595380000000000000990000000000990002000000010410408170634160416233909640817000007666004   1020000200030000   333400010001204104000000281Myanmar Soft-Gate Tech Yangon        MMR11008170634160416230817000000000000000   10300001F05104100000000000208000000000000     
100   95050327192897240000000000004950000000004950002000000010410408170633410341451746580817000007665997   1020000200030000   333400010001204104000000281Myanmar Soft-Gate Tech Yangon        MMR11008170633410341450817000000000000000   10300001F05104100000000001040000000000000     
100   62911028202294570000000000025600000000025600002000000010410408170349081269944773800817705191008228   1030000900030000   541119001262190110000000958City Mart PLST C 5     YANGONMYOTHIT MMR11008170349081269940817000000000000000   10300001F00104100000000001536000000000000     
100   95050316377977350000000000001500000000001500002000000010410408162337410741370222920817000007663360   1030000200030000   3338000100012031040000040022C2P (Myanmar) Co. Ltd Yangon        MMR11008162337410741370817000000000000000   10300001F05104100000000000315000000000000     
100   62911028202616250000000000187000000000187000002000000010410408170804371331104773800817466341437228   1030000900030000   541119000127190110000000082Sein Gay Har Super Cen YANGON        MMR11008170804371331100817000000000000000   10300001F00104100000000011220000000000000     
100   62911028202397530000000000059159000000059159002000000010410408170652321311924773800817529221332228   1030000900030000   541119001303190110000000968Ocean Mingalar MDY C11 MANDALAYHARSI MMR11008170652321311920817000000000000000   10300001F00104100000000003550000000000000     
100   95050314775367220000000000010100000000010100002000000010410408170921495149720470130817000007667239   1030000200030000   333800010001203104000003327KBZPay                 Yangon        MMR11008170921495149720817000000000000000   10300001F05104100000000002121000000000000     
100   95050327416134790000000000000990000000000990002000000010410408171319444944453385270817000007668352   1020000200030000   333400010001204104000000281Myanmar Soft-Gate Tech Yangon        MMR11008171319444944450817000000000000000   10300001F05104100000000000208000000000000     
100   95030314863516850000000000016000000000016000002000000010410408161825565556744773800817000007663217   1030000200030000   333800010001203104000003327KBZPay                 Yangon        MMR11008161825565556740817000000000000000   10300001F05104100000000003360000000000000     
100   62911028202132460000000000073000000000073000002000000010410408171128539477304773800817222918947730   1040001600030000   591220001374000000010001074Kyal Sin Pharmacy (Paz Ygn           MMR11008171128539477300817000000000000000   10300001F00104100000000004380000000000000     
100   95050311598146290000000000010000000000010000002000000010410408170156192619341705210817000007663695   1030000200030000   333800010001203104000003327KBZPay                 Yangon        MMR11008170156192619340817000000000000000   10300001F05104100000000002100000000000000     
100   62911028202074950000000000006400000000006400002000000010410408171008059394384773800817222917939438   1040001600030000   591220000296000000010000284Shwe Ohh Pharmacy (Lan Yangon        MMR11008171008059394380817000000000000000   10300001F00104100000000000384000000000000     
100   95050323133124350000000000005000000000005000002000000010410408171500093009098512920817000007668749   1030000200030000   333800010001203104000003327KBZPay                 Yangon        MMR11008171500093009090817000000000000000   10300001F05104100000000001050000000000000     
100   95050328161730520000000000300000000000300000002000000010410408170655202520228696900817000007666198   1030000200030000   333800010001203104000003327KBZPay                 Yangon        MMR11008170655202520220817000000000000000   10300001F05104100000000063000000000000000     
100   95050310397364970000000000001980000000001980002000000010410408170052352235018570440817000007663436   1020000200030000   333400010001204104000000281Myanmar Soft-Gate Tech Yangon        MMR11008170052352235010817000000000000000   10300001F05104100000000000416000000000000     
100   62443100312243020000000000050000000000050000002000000010410408171501423142583470370817000007668757   1030000200030000   333800010001203104000003327KBZPay                 Yangon        MMR11008171501423142580817000000000000000   10300001F05104100000000010500000000000000     
100   95050319331315630000000000004950000000004950002000000010410408170416024602781315380817000007664755   1020000200030000   333400010001204104000000281Myanmar Soft-Gate Tech Yangon        MMR11008170416024602780817000000000000000   10300001F05104100000000001040000000000000     
