100   62443100315110470000000000014212000000014212002000000010410408180639261572146516420818652091326229   1030000900030000   581219000371190110000000243Jo Jo Hot Pot (Junctio YANGONN       MMR11008180639261572140818000000000000000   10300001F00104100000000006040000000000000     
100   95050310102690960000000000002000000000002000002000000010410408180707191579703381650818019371319229   1030000900030000   541119001371190110000000978Ocean PZD Season C 1   YANGONAUNG    MMR11008180707191579700818000000000000000   10300001F00104100000000000500000000000000     
100   95050326393773020000000000002970000000002970002000000010410408171644121412201902980818000007669065   1020000200030000   333400010001204104000000281Myanmar Soft-Gate Tech Yangon        MMR11008171644121412200818000000000000000   10300001F05104100000000000624000000000000     
100   62911028202294570000000000008800000000008800002000000010410408170405470000244773800817000361626815   1030000300030000   531100003905000000000002936CB BANK                MAXI WHOLESAL MMR11008170405470000240817000000000000000   10300001F00104100000000000528000000000000     
100   62911028202166940000000000006900000000006900002000000010410408170808050002554773800817222914000255   1030000500030000   581220264301000085812202643BREAD TALK             PTN           MMR11008170808050002550817000000000000000   10300001 00104100000000000704000000000000     
100   62911028202400660000000000047100000000047100002000000010410408181159310404544773800818000752191926   1030000200030000   541188001041000008000000010KBZ BANK               MARKETPLACE - MMR11008181159310404540818000000000000000   10300001 00104100000000002826000000000000     
100   62911028202057620000000000021000000000021000002000000010410408180922525252714773800818000007673063   1030000200030000   333800010001203104000003327KBZPay                 Yangon        MMR11008180922525252710818000000000000000   10300001F05104100000000004410000000000000     
100   62911028202471860000000000085000000000085000002000000010410408181216161663874773800818318461816229   1030000900030000   554119001037190110000000842Puma Power(BBIBB)      MONON         MMR11008181216161663870818000000000000000   10300001F00104100000000002550000000000000     
100   95050316997303010000000000001980000000001980002000000010410408181424215421545643590818000007674617   1020000200030000   333400010001204104000000281Myanmar Soft-Gate Tech Yangon        MMR11008181424215421540818000000000000000   10300001F05104100000000000416000000000000     
100   95030394609966640000000000086000000000086000002000000010410408170725390015574773800817222913001557   1030000500030000   541120227505000045411202275CITY MART (AHLONE BRAN PTN           MMR11008170725390015570817000000000000000   10300001 00104100000000005160000000000000     
100   62911028202916630000000000065150000000065150002000000010410408180214101501184773800818346440810229   1030000900030000   591219000969190110000000776Shwe Ohh Pharmacy St ( YANGONADA     MMR11008180214101501180818000000000000000   10300001F00104100000000003909000000000000     
100   95030390626214130000000000180000000000180000002000000010410408180303293329124773800818000007670066   1030000500030000   333800010001201104000003863AYA Pay                Yangon        MMR11008180303293329120818000000000000000   10300001F05104100000000037800000000000000     
100   95050311959900780000000000000990000000000990002000000010410408180358342834665073410818000007670604   1020000200030000   333400010001204104000000281Myanmar Soft-Gate Tech Yangon        MMR11008180358342834660818000000000000000   10300001F05104100000000000208000000000000     
100   95050325455962190000000000001980000000001980002000000010410408181355292529437296080818000007674482   1020000200030000   333400010001204104000000281Myanmar Soft-Gate Tech Yangon        MMR11008181355292529430818000000000000000   10300001F05104100000000000416000000000000     
100   95050310746600650000000000046300000000046300002000000010410408180312234223672825250818000007670182   1030000200030000   333800010001203104000003327KBZPay                 Yangon        MMR11008180312234223670818000000000000000   10300001F05104100000000009723000000000000     
100   95050312280776950000000000010000000000010000002000000010410408180913124312485594150818000007672999   1030000200030000   3338000100012031040000040022C2P (Myanmar) Co. Ltd Yangon        MMR11008180913124312480818000000000000000   10300001F05104100000000002100000000000000     
100   95050324411430900000000000035000000000035000002000000010410408180339299966653506020818223010996665   1040001600030000   598320000658000000010000527Shwe Taung Energy (YGN Yangon        MMR11008180339299966650818000000000000000   10300001F00104100000000004200000000000000     
100   95050319006804440000000000000990000000000990002000000010410408180249351935657711400818000007669989   1020000200030000   333400010001204104000000281Myanmar Soft-Gate Tech Yangon        MMR11008180249351935650818000000000000000   10300001F05104100000000000208000000000000     
100   95050315889680120000000000005000000000005000002000000010410408180657002700213041260818000007672078   1030000200030000   333800010001203104000003327KBZPay                 Yangon        MMR11008180657002700210818000000000000000   10300001F05104100000000001050000000000000     
100   95050319753756490000000000030000000000030000002000000010410408181307173717589544240818000007674210   1030000200030000   333800010001203104000003327KBZPay                 Yangon        MMR11008181307173717580818000000000000000   10300001F05104100000000006300000000000000     
100   95050324250133010000000000014600000000014600002000000010410408171108020036187931030817222917003618   1030000500030000   541120226204000045411202262CITY MART ZAWANA       PTN           MMR11008171108020036180817000000000000000   10300001 00104100000000003650000000000000     
100   95050326689257240000000000012800000000012800002000000010410408181220571665414671880818407501857229   1030000900030000   541119001265190110000000958City Mart PLST C 8     YANGONMYOTHIT MMR11008181220571665410818000000000000000   10300001F00104100000000003200000000000000     
100   95050319144542320000000000025000000000025000002000000010410408181602173217652253530818000007675005   1030000200030000   333800010001203104000003327KBZPay                 Yangon        MMR11008181602173217650818000000000000000   10300001F05104100000000005250000000000000     
100   95050312160676580000000000000990000000000990002000000010410408180254082408031342960818000007670010   1020000200030000   333400010001204104000000281Myanmar Soft-Gate Tech Yangon        MMR11008180254082408030818000000000000000   10300001F05104100000000000208000000000000     
100   95050327416134790000000000001980000000001980002000000010410408181347251725126154180818000007674423   1020000200030000   333400010001204104000000281Myanmar Soft-Gate Tech Yangon        MMR11008181347251725120818000000000000000   10300001F05104100000000000416000000000000     
100   62911028202142930000000000011600000000011600002000000010410408170704540002084773800817000361656507   1030000300030000   531100000609000000000000408CB BANK                CAPITAL HYPER MMR11008170704540002080817000000000000000   10300001F00104100000000000696000000000000     
100   95030314863516850000000000025000000000025000002000000010410408180449381938194773800818000007671036   1030000200030000   333800010001203104000003327KBZPay                 Yangon        MMR11008180449381938190818000000000000000   10300001F05104100000000005250000000000000     
100   95050319925596540000000000002970000000002970002000000010410408180801293129655934540818000007672559   1020000200030000   333400010001204104000000281Myanmar Soft-Gate Tech Yangon        MMR11008180801293129650818000000000000000   10300001F05104100000000000624000000000000     
100   95050314703432410000000000001000000000001000002000000010410408181010174017656821160818000007673297   1030000200030000   3338000100012031040000040022C2P (Myanmar) Co. Ltd Yangon        MMR11008181010174017650818000000000000000   10300001F05104100000000000210000000000000     
100   95050314565805350000000000150000000000150000002000000010410408180504583458632665230818000007671160   1030000200030000   333800010001203104000003327KBZPay                 Yangon        MMR11008180504583458630818000000000000000   10300001F05104100000000031500000000000000     
100   95050314979630620000000000000990000000000990002000000010410408181328175817047806660818000007674307   1020000200030000   333400010001204104000000281Myanmar Soft-Gate Tech Yangon        MMR11008181328175817040818000000000000000   10300001F05104100000000000208000000000000     
100   62443100386703740000000000008830000000008830002000000010410408170635490019745647220817222906001974   1030000600030000   5499000023523157994200016371 STOP S M KAMARKYI    YANGON        MMR11008170635490019740817000000000000000   10300001 00104100000000003753000000000000     
100   62911028202708080000000000300000000000300000002000000010410408181058432843114773800818000007673590   1030000200030000   333800010001203104000003327KBZPay                 Yangon        MMR11008181058432843110818000000000000000   10300001F05104100000000063000000000000000     
100   95050315259054570000000000002000000000002000002000000010410408181013224322515083580818000007673314   1030000200030000   333800010001203104000003327KBZPay                 Yangon        MMR11008181013224322510818000000000000000   10300001F05104100000000000420000000000000     
100   62443101037081820000000000100000000000100000002000000010410408170749420013541697140817222914001354   1030000500030000   598320001204000015172200012MAX ENERGY             PTN           MMR11008170749420013540817000000000000000   10300001 00104100000000012000000000000000     
100   62443100303702210000000000280000000000280000002000000010410408170716500646304505310817222907064630   1030000600030000   554100001756315799420001137DENKO NORTH DAGON 2    YANGON        MMR11008170716500646300817000000000000000   10300001 00104100000000033600000000000000     
100   95050313702988830000000000002970000000002970002000000010410408171807503750807371010818000007669273   1020000200030000   333400010001204104000000281Myanmar Soft-Gate Tech Yangon        MMR11008171807503750800818000000000000000   10300001F05104100000000000624000000000000     
100   95050328919375610000000000100000000000100000002000000010410408180623095309034863940818000007671791   1030000200030000   333800010001203104000003327KBZPay                 Yangon        MMR11008180623095309030818000000000000000   10300001F05104100000000021000000000000000     
100   95050312224678430000000000002970000000002970002000000010410408180324465446846215320818000007670307   1020000200030000   333400010001204104000000281Myanmar Soft-Gate Tech Yangon        MMR11008180324465446840818000000000000000   10300001F05104100000000000624000000000000     
100   62911028202284260000000000032000000000032000002000000010410408171026110012104773800817222916001210   1030000500030000   598320001404000015172200014MAX ENERGY             PTN           MMR11008171026110012100817000000000000000   10300001 00104100000000000960000000000000     
100   95050316067768680000000000000990000000000990002000000010410408181228485848584586790818000007674019   1020000200030000   333400010001204104000000281Myanmar Soft-Gate Tech Yangon        MMR11008181228485848580818000000000000000   10300001F05104100000000000208000000000000     
100   62911028202665170000000000050000000000050000002000000010410408170125480013074773800817222907001307   1030000500030000   598320001204000015172200012MAX ENERGY             PTN           MMR11008170125480013070817000000000000000   10300001 00104100000000001500000000000000     
100   95050317175714970000000000033416000000033416002000000010410408181202171660055983980818098321817229   1030000900030000   541119001358190110000000977Ocean PZD C 12         YANGONAUNG    MMR11008181202171660050818000000000000000   10300001F00104100000000008354000000000000     
100   62911028202069430000000000049250000000049250002000000010410408181223221666134773800818450531822229   1030000900030000   541119001202190110000000944City Mart HDC City Car YANGONUT      MMR11008181223221666130818000000000000000   10300001F00104100000000002955000000000000     
100   95050310397364970000000000000990000000000990002000000010410408180958172817073516190818000007673238   1020000200030000   333400010001204104000000281Myanmar Soft-Gate Tech Yangon        MMR11008180958172817070818000000000000000   10300001F05104100000000000208000000000000     
100   95050312160676580000000000010000000000010000002000000010410408180203453345442328460818000007669803   1030000200030000   333800010001203104000003327KBZPay                 Yangon        MMR11008180203453345440818000000000000000   10300001F05104100000000002100000000000000     
100   95050310676042860000000000013000000000013000002000000010410408181405063506328948570818000007674534   1030000200030000   333800010001203104000003327KBZPay                 Yangon        MMR11008181405063506320818000000000000000   10300001F05104100000000002730000000000000     
100   62443100373945130000000000030000000000030000002000000010410408180048209871317541200818223007987131   1040001600030000   598320000314000000010000302PT Power Petrol Statio Yangon        MMR11008180048209871310818000000000000000   10300001F00104100000000003600000000000000     
100   95050318141561190000000000020000000000020000002000000010410408180310384038126130220818000007670158   1040001600030000   333800010001220104000004507A +                    Yangon        MMR11008180310384038120818000000000000000   10300001F05104100000000004200000000000000     
100   95030301100120280000000000005000000000005000002000000010410408180825365536584773800818000007672688   1030000200030000   333800010001203104000003327KBZPay                 Yangon        MMR11008180825365536580818000000000000000   10300001F05104100000000001050000000000000     
100   95050310397364970000000000000990000000000990002000000010410408180949271927701948800818000007673198   1020000200030000   333400010001204104000000281Myanmar Soft-Gate Tech Yangon        MMR11008180949271927700818000000000000000   10300001F05104100000000000208000000000000     
100   62911028202369990000000000300000000000300000002000000010410408171701363136544773800818000007669105   1030000200030000   333800010001203104000003327KBZPay                 Yangon        MMR11008171701363136540818000000000000000   10300001F05104100000000063000000000000000     
100   95050310332595380000000000000990000000000990002000000010410408181000483048628558740818000007673252   1020000200030000   333400010001204104000000281Myanmar Soft-Gate Tech Yangon        MMR11008181000483048620818000000000000000   10300001F05104100000000000208000000000000     
100   95050311959900780000000000001980000000001980002000000010410408180411274127639059150818000007670727   1020000200030000   333400010001204104000000281Myanmar Soft-Gate Tech Yangon        MMR11008180411274127630818000000000000000   10300001F05104100000000000416000000000000     
100   95050326393773020000000000002970000000002970002000000010410408180713564356490076680818000007672218   1020000200030000   333400010001204104000000281Myanmar Soft-Gate Tech Yangon        MMR11008180713564356490818000000000000000   10300001F05104100000000000624000000000000     
100   62911028202314040000000000016000000000016000002000000010410408180201569916474773800818223009991647   1040001600030000   598320001059000000010000780Yangon Petrol (Tharket Ygn           MMR11008180201569916470818000000000000000   10300001F00104100000000000480000000000000     
100   62911028202069430000000000024700000000024700002000000010410408181208161661504773800818168381816229   1030000900030000   541119001187190110000000942City Mart HDC C 2      YANGONUT      MMR11008181208161661500818000000000000000   10300001F00104100000000001482000000000000     
100   95050310427855490000000000001980000000001980002000000010410408180413084308277406660818000007670754   1020000200030000   333400010001204104000000281Myanmar Soft-Gate Tech Yangon        MMR11008180413084308270818000000000000000   10300001F05104100000000000416000000000000     
100   95050312539675540000000000000990000000000990002000000010410408181612144214420515960818000007675036   1020000200030000   333400010001204104000000281Myanmar Soft-Gate Tech Yangon        MMR11008181612144214420818000000000000000   10300001F05104100000000000208000000000000     
100   62911028202407100000000000091550000000091550002000000010410408170941420056584773800817000361680531   1030000300030000   541100002337000000000000102CB BANK                MAKRO MYANMAR MMR11008170941420056580817000000000000000   10300001F00104100000000005493000000000000     
100   95050311779172060000000000010000000000010000002000000010410408181411294129653991120818000007674570   1030000200030000   333800010001203104000003327KBZPay                 Yangon        MMR11008181411294129650818000000000000000   10300001F05104100000000002100000000000000     
100   95050328161730520000000000200000000000200000002000000010410408180916154615517246640818000007673016   1030000200030000   333800010001203104000003327KBZPay                 Yangon        MMR11008180916154615510818000000000000000   10300001F05104100000000042000000000000000     
100   95030306100096490000000000001980000000001980002000000010410408180627085708884773800818000007671836   1020000200030000   333400010001204104000000281Myanmar Soft-Gate Tech Yangon        MMR11008180627085708880818000000000000000   10300001F05104100000000000416000000000000     
100   95050318131043910000000000004950000000004950002000000010410408181304133413617891760818000007674195   1020000200030000   333400010001204104000000281Myanmar Soft-Gate Tech Yangon        MMR11008181304133413610818000000000000000   10300001F05104100000000001040000000000000     
100   95050311382087030000000000000979000000000979002000000010410408181117304730584487910818000007673681   1020000200030000   333400010001204104000000281Myanmar Soft-Gate Tech Yangon        MMR11008181117304730580818000000000000000   10300001F05104100000000000205000000000000     
100   95050317317598540000000000005000000000005000002000000010410408180015514551045718530818000007669539   1030000200030000   333800010001203104000003327KBZPay                 Yangon        MMR11008180015514551040818000000000000000   10300001F05104100000000001050000000000000     
100   95050316949180000000000000000990000000000990002000000010410408180855522552438643830818000007672881   1020000200030000   333400010001204104000000281Myanmar Soft-Gate Tech Yangon        MMR11008180855522552430818000000000000000   10300001F05104100000000000208000000000000     
100   62911028202471860000000000050000000000050000002000000010410408170807340013594773800817222914001359   1030000500030000   598320001204000015172200012MAX ENERGY             PTN           MMR11008170807340013590817000000000000000   10300001 00104100000000001500000000000000     
100   62911028202284260000000000037100000000037100002000000010410408170844360035574773800817222915003557   1030000500030000   531120226710000045311202267OCEAN NORTH POINT      PTN           MMR11008170844360035570817000000000000000   10300001 00104100000000002226000000000000     
100   95030320108927800000000000130000000000130000002000000010410408170815150003884773800817222908000388   1030000600030000   581300002341315799420001626HTUNHTUNOOLIQUOR PARA  YANGON        MMR11008170815150003880817000000000000000   10300001 00104100000000013260000000000000     
100   95030399326190680000000000127950000000127950002000000010410408171146210009404773800817000361698590   1030000300030000   564100003479000000000002553CB BANK                HAPPY BABY ST MMR11008171146210009400817000000000000000   10300001F00104100000000007677000000000000     
100   62911028202179990000000000053000000000053000002000000010410408170946180006444773800817222916000644   1030000500030000   806220172406013008062201724GRAND HANTHA HOSPITAL  PTN           MMR11008170946180006440817000000000000000   10300001 00104100000000003180000000000000     
100   62911028202684060000000000032410000000032410002000000010410408180536080032184773800818223012003218   1040001600030000   591220000258000000010000246Shwe Ohh Pharmacy (Sin Yangon        MMR11008180536080032180818000000000000000   10300001F00104100000000001945000000000000     
100   95050318056373170000000000140000000000140000002000000010410408180841250007776019640818000752209550   1030000200030000   594488000253000008000002280KBZ BANK               PWINT HTUN GO MMR11008180841250007770818000000000000000   10300001 00104100000000033600000000000000     
100   62911028202169750000000000102240000000102240002000000010410408180524430023724773800818223012002372   1040001600030000   541120000555000000010000465Ocean Shwe Gone Daing  Yangon        MMR11008180524430023720818000000000000000   10300001F00104100000000006134000000000000     
100   95050310251874990000000000005300000000005300002000000010410408181313360006671473880818000752199085   1030000200030000   541188001445000008000000401KBZ BANK               OCEAN SUPERCE MMR11008181313360006670818000000000000000   10300001 00104100000000001325000000000000     
100   95050325273694860000000000025000000000025000002000000010410408181148440005681111630818000752219845   1030000200030000   569988002305000008000006140KBZ BANK               SOON - CAPITA MMR11008181148440005680818000000000000000   10300001 00104100000000006000000000000000     
100   62911028202149130000000000161000000000161000002000000010410408180451000001994773800818000752188312   1030000200030000   481288002331000008000006205KBZ BANK               5BB SHOWROOM  MMR11008180451000001990818000000000000000   10300001 00104100000000009660000000000000     
100   95050315144447320000000000015600000000015600002000000010410408181006500003380126130818000752214450   1030000200030000   541188002337000008000006213KBZ BANK               BEAR MART-1   MMR11008181006500003380818000000000000000   10300001 00104100000000003900000000000000     
100   62443100323428970000000000025778000000025778002000000010410408170519440022500428770817222911002250   1030000500030000   541120203805000015411202038CITY MART SUPERMARKET  PTN           MMR11008170519440022500817000000000000000   10300001 00104100000000006445000000000000     
100   95030394609966640000000000010850000000010850002000000010410408170741260028124773800817222914002812   1030000500030000   541120227503000045411202275CITY MART (AHLONE BRAN PTN           MMR11008170741260028120817000000000000000   10300001 00104100000000000651000000000000     
100   62443100300743690000000000003000000000003000002000000010410408171513170000011817890817000361723418   1030000300030000   541100000444000000000000319CB BANK                ONESTOP KITCH MMR11008171513170000010817000000000000000   10300001F00104100000000000750000000000000     
100   95030308100042590000000000078000000000078000002000000010410408171133260005364773800817222918000536   1030000500030000   598320041903000055983200419MAX ENERGY             PTN           MMR11008171133260005360817000000000000000   10300001 00104100000000002340000000000000     
100   95050324250133010000000000011550000000011550002000000010410408171110190013069825010817222917001306   1030000500030000   541120226208000045411202262CITY MART ZAWANA       PTN           MMR11008171110190013060817000000000000000   10300001 00104100000000002888000000000000     
100   62443100373945130000000000020150000000020150002000000010410408170901060039918732550817222915003991   1030000500030000   541120229104000045411202291CITY MART YANKIN       PTN           MMR11008170901060039910817000000000000000   10300001 00104100000000005038000000000000     
100   62911028202913580000000000003000000000003000002000000010410408170549290000504773800817000361644075   1030000300030000   541100001046000000000000743CB BANK                ONE STOP MART MMR11008170549290000500817000000000000000   10300001F00104100000000000180000000000000     
100   62911028202142280000000000002700000000002700002000000010410408171049250005274773800817000361690472   1030000300030000   591200000187000000000000092CB BANK                MEDICARE STOR MMR11008171049250005270817000000000000000   10300001F00104100000000000162000000000000     
100   95050315259054570000000000007000000000007000002000000010410408180637200720339821390818000007671926   1030000200030000   333800010001203104000003327KBZPay                 Yangon        MMR11008180637200720330818000000000000000   10300001F05104100000000001470000000000000     
100   95050310251874990000000000025122000000025122002000000010410408181343010054925034140818000752201898   1030000200030000   541188001424000008000000401KBZ BANK               OCEAN SUPERCE MMR11008181343010054920818000000000000000   10300001 00104100000000006281000000000000     
100   95050316812885810000000000160000000000160000002000000010410408180536500650723636940818000007671413   1030000200030000   3338000100012031040000040022C2P (Myanmar) Co. Ltd Yangon        MMR11008180536500650720818000000000000000   10300001F05104100000000033600000000000000     
100   62911028202179990000000000034500000000034500002000000010410408180844570141904773800818223015014190   1040001600030000   806220001354000000010001061Grand Hantha Internati Ygn           MMR11008180844570141900818000000000000000   10300001F00104100000000002070000000000000     
100   62443100313529540000000000007700000000007700002000000010410408181821430196272764110818000752220178   1030000200030000   541188001056000008000000314KBZ BANK               MARKETPLACE - MMR11008181821430196270818000000000000000   10300001 00104100000000001925000000000000     
100   62443101063232860000000000047000000000047000002000000010410408180720580096561644070818223014009656   1040001600030000   598320001059000000010000780Yangon Petrol (Tharket Ygn           MMR11008180720580096560818000000000000000   10300001F00104100000000005640000000000000     
100   95050313968650950000000000000990000000000990002000000010410408181233540354861281820818000007674033   1020000200030000   333400010001204104000000281Myanmar Soft-Gate Tech Yangon        MMR11008181233540354860818000000000000000   10300001F05104100000000000208000000000000     
100   95050321848852460000000000018400000000018400002000000010410408181207430320205898880818223019032020   1040001600030000   581420000803000000010000579Jeff's Kitchen (Ahlone Yangon        MMR11008181207430320200818000000000000000   10300001F00104100000000002208000000000000     
100   95050319902033540000000000122129000000122129002000000010410408170744240008336413090817222914000833   1030000500030000   531120156002000045311201560GAMONE PWINT           PTN           MMR11008170744240008330817000000000000000   10300001 00104100000000029311000000000000     
100   62911028202529960000000000009350000000009350002000000010410408171150290020644773800817222911002064   1030000600030000   549900001956315799420001325EASY MART 012          YANGON        MMR11008171150290020640817000000000000000   10300001 00104100000000000954000000000000     
100   62911028202156540000000000040000000000040000002000000010410408170308300000714773800817000361618373   1030000300030000   806200001839000000000001318CB BANK                ASIA ROYAL CO MMR11008170308300000710817000000000000000   10300001F00104100000000002400000000000000     
100   62911028202212490000000000006200000000006200002000000010410408171017250001564773800817222916000156   1030000500030000   581220195901000085812201959AKKHAYA TEA HOUSE      PTN           MMR11008171017250001560817000000000000000   10300001 00104100000000000632000000000000     
100   62911028202193670000000000056000000000056000002000000010410408170853000009794773800817222915000979   1030000500030000   598320001603000015172200016MAX ENERGY             PTN           MMR11008170853000009790817000000000000000   10300001 00104100000000001680000000000000     
100   95050321232876860000000000040500000000040500002000000010410408171234110020887115720817222919002088   1030000500030000   531120231223000045311202312OCEAN OATTARA THIRI    PTN           MMR11008171234110020880817000000000000000   10300001 00104100000000009720000000000000     
100   62911028202112400000000000020000000000020000002000000010410408170637390011694773800817222913001169   1030000500030000   598320001202000015172200012MAX ENERGY             PTN           MMR11008170637390011690817000000000000000   10300001 00104100000000000600000000000000     
100   62443100330048680000000000045000000000045000002000000010410408170451440010374875640817222911001037   1030000500030000   598320001104000015172200011MAX ENERGY             PTN           MMR11008170451440010370817000000000000000   10300001 00104100000000005400000000000000     
100   62911028202400660000000000059000000000059000002000000010410408181212550099474773800818000752193180   1030000200030000   541188001052000008000000010KBZ BANK               MARKETPLACE - MMR11008181212550099470818000000000000000   10300001 00104100000000003540000000000000     
100   62911028202170490000000000026900000000026900002000000010410408181505430214634773800818000752209143   1030000200030000   541188001049000008000000010KBZ BANK               MARKETPLACE - MMR11008181505430214630818000000000000000   10300001 00104100000000001614000000000000     
100   95050316717221100000000000001980000000001980002000000010410408181333080308919459140818000007674330   1020000200030000   333400010001204104000000281Myanmar Soft-Gate Tech Yangon        MMR11008181333080308910818000000000000000   10300001F05104100000000000416000000000000     
100   62911028202822900000000000020000000000020000002000000010410408181123580272294773800818223018027229   1040001600030000   591220001006000000010000736Shwe Ohh Pharmacy (Kyi Ygn           MMR11008181123580272290818000000000000000   10300001F00104100000000001200000000000000     
100   62911028202314040000000000008061000000008061002000000010410408181413430081584773800818000752204991   1030000200030000   541188001066000008000000314KBZ BANK               MARKETPLACE - MMR11008181413430081580818000000000000000   10300001 00104100000000000484000000000000     
100   62911028202169750000000000237261000000237261002000000010410408181104160289534773800818000752186617   1030000200030000   541188001001000008000000008KBZ BANK               MARKETPLACE - MMR11008181104160289530818000000000000000   10300001 00104100000000014236000000000000     
100   95050316736513170000000000001000000000001000002000000010410408181338010801914501690818000007674356   1030000200030000   333800010001203104000003327KBZPay                 Yangon        MMR11008181338010801910818000000000000000   10300001F05104100000000000210000000000000     
100   95030366960186690000000000009200000000009200002000000010410408181056200044014773800818000752185868   1030000200030000   541188001048000008000000010KBZ BANK               MARKETPLACE - MMR11008181056200044010818000000000000000   10300001 00104100000000000552000000000000     
100   95050320047636150000000000800000000000800000002000000010410408170424070016562797670817000361629992   1030000300030000   573200001013000000000000717CB BANK                UNIQUE MOBILE MMR11008170424070016560817000000000000000   10300001F00104100000000192000000000000000     
100   62911028202331290000000000060000000000060000002000000010410408170700570003204773800817222913000320   1030000500030000   531120155806000045311201558GAMONE PWINT           PTN           MMR11008170700570003200817000000000000000   10300001 00104100000000003600000000000000     
100   62911028202163630000000000020000000000020000002000000010410408171151010004784773800817222911000478   1030000600030000   554100002414315799420001684MMTM NORTH-DAGON       YANGON        MMR11008171151010004780817000000000000000   10300001 00104100000000000600000000000000     
100   62911028202112400000000000143400000000143400002000000010410408171100220000584773800817222917000058   1030000500030000   541120129728000045411201297MAKRO MYANMAR          PTN           MMR11008171100220000580817000000000000000   10300001 00104100000000008604000000000000     
100   62911028202286240000000000014350000000014350002000000010410408171204060002774773800817000361701113   1030000300030000   541100000075000000000000016CB BANK                CAPITAL EXPRE MMR11008171204060002770817000000000000000   10300001F00104100000000000861000000000000     
100   62911028202528710000000000050000000000050000002000000010410408170737180009704773800817222914000970   1030000500030000   598320001603000015172200016MAX ENERGY             PTN           MMR11008170737180009700817000000000000000   10300001 00104100000000001500000000000000     
100   95050325388974590000000000020200000000020200002000000010410408170910390028092122620817222915002809   1030000500030000   541120227606000045411202276CITY MART ( 47 BRANCH  PTN           MMR11008170910390028090817000000000000000   10300001 00104100000000005050000000000000     
100   95030305234413920000000000019000000000019000002000000010410408171014300041724773800817222916004172   1030000500030000   531120226314000045311202263OCEAN SUPER CENTER STJ PTN           MMR11008171014300041720817000000000000000   10300001 00104100000000001140000000000000     
100   62911028202170490000000000082160000000082160002000000010410408181551120281474773800818000752212045   1030000200030000   541188001037000008000000010KBZ BANK               MARKETPLACE - MMR11008181551120281470818000000000000000   10300001 00104100000000004930000000000000     
100   62911028202284260000000000033800000000033800002000000010410408180502550037024773800818000752189351   1030000200030000   569988000778000008000004529KBZ BANK               JSQ-IPANEMA   MMR11008180502550037020818000000000000000   10300001 00104100000000002028000000000000     
100   62911028202110420000000000080300000000080300002000000010410408181107390254884773800818223018025488   1040001600030000   592120000945000000010000692GENTLEMAN Liquor       Ygn           MMR11008181107390254880818000000000000000   10300001F00104100000000004818000000000000     
100   95030366960186690000000000050300000000050300002000000010410408181052380392324773800818000752185448   1030000200030000   541188001039000008000000010KBZ BANK               MARKETPLACE - MMR11008181052380392320818000000000000000   10300001 00104100000000003018000000000000     
100   62443100392426520000000000010000000000010000002000000010410408180432340234111137120818000007670894   1030000200030000   333800010001203104000003327KBZPay                 Yangon        MMR11008180432340234110818000000000000000   10300001F05104100000000002100000000000000     
100   95050322957045260000000000001000000000001000002000000010410408180533280328377027000818000007671384   1030000200030000   3338000100012031040000040022C2P (Myanmar) Co. Ltd Yangon        MMR11008180533280328370818000000000000000   10300001F05104100000000000210000000000000     
100   62911028202595200000000000075354000000075354002000000010410408180625360065354773800818223013006535   1040001600030000   598320001170000000010000527Shwe Taung Energy (YGN Yangon        MMR11008180625360065350818000000000000000   10300001F00104100000000002261000000000000     
100   62911028202443730000000000032796000000032796002000000010410408181001500199744773800818000752180566   1030000200030000   541188001020000008000000298KBZ BANK               CITY MART - M MMR11008181001500199740818000000000000000   10300001 00104100000000001968000000000000     
100   62911028202161240000000000055000000000055000002000000010410408170541570011594773800817222912001159   1030000500030000   598320001202000015172200012MAX ENERGY             PTN           MMR11008170541570011590817000000000000000   10300001 00104100000000001650000000000000     
100   62911028202294570000000000010810000000010810002000000010410408170419470000124773800817000361629256   1030000300030000   531100003898000000000002936CB BANK                MAXI WHOLESAL MMR11008170419470000120817000000000000000   10300001F00104100000000000649000000000000     
100   62911028202527490000000000023500000000023500002000000010410408171022310004704773800817222910000470   1030000600030000   554100002414315799420001684MMTM NORTH-DAGON       YANGON        MMR11008171022310004700817000000000000000   10300001 00104100000000000705000000000000     
100   62911028202449440000000000051000000000051000002000000010410408170954580010864773800817222916001086   1030000500030000   598320001201000015172200012MAX ENERGY             PTN           MMR11008170954580010860817000000000000000   10300001 00104100000000001530000000000000     
100   62911028202204490000000000045000000000045000002000000010410408170736430013734773800817222914001373   1030000500030000   598320001203000015172200012MAX ENERGY             PTN           MMR11008170736430013730817000000000000000   10300001 00104100000000001350000000000000     
100   62911028202207040000000000055400000000055400002000000010410408170155470001424773800817222908000142   1030000500030000   591220211101014405912202111SHWE OHH PHARMACY      PTN           MMR11008170155470001420817000000000000000   10300001 00104100000000003324000000000000     
100   95050326159929830000000000019850000000019850002000000010410408171125260073681647690817000361695678   1030000300030000   541100000151000000000000074CB BANK                ROYAL MART SU MMR11008171125260073680817000000000000000   10300001F00104100000000004963000000000000     
100   62911028202520380000000000086624000000086624002000000010410408170439420046414773800817222911004641   1030000500030000   531120226301000045311202263OCEAN SUPER CENTER STJ PTN           MMR11008170439420046410817000000000000000   10300001 00104100000000005197000000000000     
100   95050318617855880000000000014850000000014850002000000010410408181443131313923906020818000007674707   1020000200030000   333400010001204104000000281Myanmar Soft-Gate Tech Yangon        MMR11008181443131313920818000000000000000   10300001F05104100000000003119000000000000     
100   95050319156011610000000000000990000000000990002000000010410408180441231123514271890818000007670969   1020000200030000   333400010001204104000000281Myanmar Soft-Gate Tech Yangon        MMR11008180441231123510818000000000000000   10300001F05104100000000000208000000000000     
100   95050311931431670000000000000990000000000990002000000010410408180844261426190466510818000007672807   1020000200030000   333400010001204104000000281Myanmar Soft-Gate Tech Yangon        MMR11008180844261426190818000000000000000   10300001F05104100000000000208000000000000     
100   95050323670692380000000000010000000000010000002000000010410408180043161316409108590818000007669582   1030000200030000   333800010001203104000003327KBZPay                 Yangon        MMR11008180043161316400818000000000000000   10300001F05104100000000002100000000000000     
100   62911028202822900000000000005000000000005000002000000010410408180336260626554773800818000007670395   1030000200030000   333800010001203104000003327KBZPay                 Yangon        MMR11008180336260626550818000000000000000   10300001F05104100000000001050000000000000     
100   95050325305150830000000000000990000000000990002000000010410408181540331033550601050818000007674920   1020000200030000   333400010001204104000000281Myanmar Soft-Gate Tech Yangon        MMR11008181540331033550818000000000000000   10300001F05104100000000000208000000000000     
100   62911028202527490000000000020250000000020250002000000010410408180446371540184773800818102161137229   1030000900030000   541119001264190110000000958City Mart PLST C 7     YANGONMYOTHIT MMR11008180446371540180818000000000000000   10300001F00104100000000001215000000000000     
100   95050319156011610000000000000990000000000990002000000010410408181242571257201196720818000007674084   1020000200030000   333400010001204104000000281Myanmar Soft-Gate Tech Yangon        MMR11008181242571257200818000000000000000   10300001F05104100000000000208000000000000     
100   95050317878347340000000000037650000000037650002000000010410408171033269418281321100817222917941828   1040001600030000   541120000557000000010000465Ocean Shwe Gone Daing  Yangon        MMR11008171033269418280817000000000000000   10300001F00104100000000009413000000000000     
100   95050314570621780000000000003960000000003960002000000010410408180645591559656431330818000007672001   1020000200030000   333400010001204104000000281Myanmar Soft-Gate Tech Yangon        MMR11008180645591559650818000000000000000   10300001F05104100000000000832000000000000     
100   95050320205194540000000000029750000000029750002000000010410408181158031659207721560818052281803229   1030000900030000   541119001264190110000000958City Mart PLST C 7     YANGONMYOTHIT MMR11008181158031659200818000000000000000   10300001F00104100000000007438000000000000     
100   95050313968650950000000000000990000000000990002000000010410408181238410841022934300818000007674052   1020000200030000   333400010001204104000000281Myanmar Soft-Gate Tech Yangon        MMR11008181238410841020818000000000000000   10300001F05104100000000000208000000000000     
100   95050319156011610000000000000990000000000990002000000010410408180446431643607576860818000007671013   1020000200030000   333400010001204104000000281Myanmar Soft-Gate Tech Yangon        MMR11008180446431643600818000000000000000   10300001F05104100000000000208000000000000     
100   95050319156011610000000000000990000000000990002000000010410408180440021002634186790818000007670953   1020000200030000   333400010001204104000000281Myanmar Soft-Gate Tech Yangon        MMR11008180440021002630818000000000000000   10300001F05104100000000000208000000000000     
100   62443100355445150000000000037850000000037850002000000010410408180248461509279448980818706180946229   1030000900030000   541119000882190110000000084Pro (1) Global (Pazund YANGONARTAUNG MMR11008180248461509270818000000000000000   10300001F00104100000000009463000000000000     
100   62911028202031710000000000040000000000040000002000000010410408180940231621844773800818067101623229   1030000900030000   554119000348190110000000215New Day Energy MYG     YANGONONE     MMR11008180940231621840818000000000000000   10300001F00104100000000001200000000000000     
100   62443100340648380000000000050000000000050000002000000010410408181444591459115558500818000007674710   1030000300030000   333800010001206104000003988CB Card +              Yangon        MMR11008181444591459110818000000000000000   10300001F05104100000000010500000000000000     
100   62443100371022130000000000006250000000006250002000000010410408180415011530887151370818664451001229   1030000900030000   541119001162190110000000930OCEAN HTY C 12         YANGONTHARYA  MMR11008180415011530880818000000000000000   10300001F00104100000000001563000000000000     
100   95030399304534290000000000082600000000082600002000000010410408180242551507844773800818634120955229   1030000900030000   541119001208190110000000948City Mart YK C 6       YANGONAUNG    MMR11008180242551507840818000000000000000   10300001F00104100000000004956000000000000     
100   62911028202472440000000000031550000000031550002000000010410408180610521564104773800818254401252229   1030000900030000   541119000118190110000000079Sein Kaung Store       YANGONAW      MMR11008180610521564100818000000000000000   10300001F00104100000000001893000000000000     
100   95050326583352640000000000081608000000081608002000000010410408180858541610499069310818513281554229   1030000900030000   541119001328190110000000971Ocean Junction NPT C6  NAYPYITAW     MMR11008180858541610490818000000000000000   10300001F00104100000000020402000000000000     
100   95050311168163370000000000039200000000039200002000000010410408181148171657052679010818946181817229   1030000900030000   541119001196190110000000942City Mart HDC C 11     YANGONUT      MMR11008181148171657050818000000000000000   10300001F00104100000000009800000000000000     
100   95050310652791070000000000010000000000010000002000000010410408181041421142166225480818000007673496   1030000200030000   333800010001203104000003327KBZPay                 Yangon        MMR11008181041421142160818000000000000000   10300001F05104100000000002100000000000000     
100   62911028202355870000000005000000000005000000002000000010410408171740201020454773800818000007669211   1030000600030000   333800010001230104000004564Trusty Wallet          Yangon        MMR11008171740201020450818000000000000000   10300001F05104100000001050000000000000000     
100   95050322318997110000000000020000000000020000002000000010410408180836390639356189830818000007672759   1030000200030000   333800010001203104000003327KBZPay                 Yangon        MMR11008180836390639350818000000000000000   10300001F05104100000000004200000000000000     
100   62911028202185260000000000017350000000017350002000000010410408180422481533354773800818775521048229   1030000900030000   541119000120190110000000080Sein Gay Har BAK       YANGONADA     MMR11008180422481533350818000000000000000   10300001F00104100000000001041000000000000     
100   62911028202527490000000000030000000000030000002000000010410408180451471541524773800818158211147229   1030000900030000   541119001274190110000000961City Mart PLST City Ca YANGONMYOTHIT MMR11008180451471541520818000000000000000   10300001F00104100000000001800000000000000     
100   62911028202484810000000000020000000000020000002000000010410408180906501612624773800818609361550229   1030000900030000   554119001100190110000000212New Day Energy PZD     YANGON        MMR11008180906501612620818000000000000000   10300001F00104100000000000600000000000000     
100   95050311931431670000000000000990000000000990002000000010410408180843081308028814030818000007672796   1020000200030000   333400010001204104000000281Myanmar Soft-Gate Tech Yangon        MMR11008180843081308020818000000000000000   10300001F05104100000000000208000000000000     
100   95050319156011610000000000000990000000000990002000000010410408180445211521089229340818000007671000   1020000200030000   333400010001204104000000281Myanmar Soft-Gate Tech Yangon        MMR11008180445211521080818000000000000000   10300001F05104100000000000208000000000000     
100   62443100371022130000000000005600000000005600002000000010410408180405061527484101700818487351006229   1030000900030000   541119001172190110000000931OCEAN HTY SEASON C 1   YANGONTHARYA  MMR11008180405061527480818000000000000000   10300001F00104100000000001400000000000000     
