100   62911028202151910000000000030000000000030000002000000010410408191154520015074773800819223118001507   1030000500030000   598320001401000015172200014MAX ENERGY             PTN           MMR11008191154520015070819000000000000000   10300001 00104100000000000900000000000000     
100   95050324005082180000000000001100000000001100002000000010410408190804010001139368600819223114000113   1030000500030000   531120155716000045311201557GAMONE PWINT           PTN           MMR11008190804010001130819000000000000000   10300001 00104100000000000264000000000000     
100   62911028202212490000000000004500000000004500002000000010410408190416380001724773800819223110000172   1030000500030000   581220195901000085812201959AKKHAYA TEA HOUSE      PTN           MMR11008190416380001720819000000000000000   10300001 00104100000000000459000000000000     
100   95050324005082180000000000009950000000009950002000000010410408190758240002004666440819223114000200   1030000500030000   531120155710000045311201557GAMONE PWINT           PTN           MMR11008190758240002000819000000000000000   10300001 00104100000000002388000000000000     
100   62911028202074950000000000018000000000018000002000000010410408182350300013034773800819223106001303   1030000500030000   598320001202000015172200012MAX ENERGY             PTN           MMR11008182350300013030819000000000000000   10300001 00104100000000000540000000000000     
100   62911028202523840000000000038800000000038800002000000010410408190825550001074773800819223114000107   1030000500030000   591220011601014405912200116SHWE OHH PHARMACY      PTN           MMR11008190825550001070819000000000000000   10300001 00104100000000002328000000000000     
100   62443101023815100000000000017555000000017555002000000010410408191147500018409977800819223118001840   1030000500030000   541120227501000045411202275CITY MART (AHLONE BRAN PTN           MMR11008191147500018400819000000000000000   10300001 00104100000000004389000000000000     
100   95050326750398570000000000017404000000017404002000000010410408191340400037351289890819223120003735   1030000500030000   531120226719000045311202267OCEAN NORTH POINT      PTN           MMR11008191340400037350819000000000000000   10300001 00104100000000004177000000000000     
100   62911028202446540000000000045100000000045100002000000010410408190503490043304773800819223111004330   1030000500030000   531120226308000045311202263OCEAN SUPER CENTER STJ PTN           MMR11008190503490043300819000000000000000   10300001 00104100000000002706000000000000     
100   62911028202294730000000000030200000000030200002000000010410408190309020027954773800819223109002795   1030000500030000   531120226318000045311202263OCEAN SUPER CENTER STJ PTN           MMR11008190309020027950819000000000000000   10300001 00104100000000001812000000000000     
100   62911028202185260000000000017250000000017250002000000010410408191122200037974773800819223117003797   1030000500030000   541120203706000015411202037CITY MART SUPERMARKET  PTN           MMR11008191122200037970819000000000000000   10300001 00104100000000001035000000000000     
100   62911028202446540000000000029500000000029500002000000010410408190836150038044773800819000362036493   1030000300030000   531100000838000000000000574CB BANK                MGOU-JC       MMR11008190836150038040819000000000000000   10300001F00104100000000001770000000000000     
100   62911028202674810000000000024250000000024250002000000010410408191110200025494773800819223117002549   1030000500030000   541120227603000045411202276CITY MART ( 47 BRANCH  PTN           MMR11008191110200025490819000000000000000   10300001 00104100000000001455000000000000     
100   62911028202074950000000000001600000000001600002000000010410408190506590031534773800819223111003153   1030000500030000   531120226331000045311202263OCEAN SUPER CENTER STJ PTN           MMR11008190506590031530819000000000000000   10300001 00104100000000000096000000000000     
100   95050322990383760000000000001800000000001800002000000010410408190839380037783255450819223115003778   1030000500030000   541120203706000015411202037CITY MART SUPERMARKET  PTN           MMR11008190839380037780819000000000000000   10300001 00104100000000000450000000000000     
100   62911028202161240000000000039400000000039400002000000010410408190857280955894773800819223115095589   1040001600030000   581420000076000000010000074Hot Pot City Ahlone    Yangon        MMR11008190857280955890819000000000000000   10300001F00104100000000001182000000000000     
100   95050323670692380000000000063400000000063400002000000010410408200955352161830247140820771251635231   1030000900030000   591219000688190110000000519Shwe Ohh Pharmacy ST-7 YANGONUNG     MMR11008200955352161830820000000000000000   10300001F00104100000000015216000000000000     
100   62911028202187990000000000636500000000636500002000000010410408201013072165914773800820009431607231   1030000900030000   481219000912190110000000721Snoopy Mobile ( 3 )Nor YANGONOKKALAP MMR11008201013072165910820000000000000000   10300001F00104100000000038190000000000000     
100   95030382736894330000000000076820000000076820002000000010410408200957302162394773800820807271630231   1030000900030000   806219001559190110000000290Grand Hanthar Hospital YANGONUT      MMR11008200957302162390820000000000000000   10300001F00104100000000004609000000000000     
100   95050323233042810000000000020000000000020000002000000010410408200851592159961559240820000007683283   1030000200030000   333800010001203104000003327KBZPay                 Yangon        MMR11008200851592159960820000000000000000   10300001F05104100000000004200000000000000     
100   62911028202474000000000000007500000000007500002000000010410408201036252171824773800820365061725231   1030000900030000   541119000113190110000000077Sein Gay Har Chinatown YANGON        MMR11008201036252171820820000000000000000   10300001F00104100000000000450000000000000     
100   95050322823372070000000000200000000000200000002000000010410408200945012159418509560820630151601231   1030000900030000   594419001660190110000001211Shwe San Eain Shop 3   YANGONUT      MMR11008200945012159410820000000000000000   10300001F00104100000000048000000000000000     
100   62443100328070970000000000014500000000014500002000000010410408201030382170081644340820259001738231   1030000900030000   541119001510190110000001102Ocean MGDTM-C 3        YANGONADON    MMR11008201030382170080820000000000000000   10300001F00104100000000003625000000000000     
100   62911028202446540000000000019170000000019170002000000010410408201122162184074773800820145521716231   1030000900030000   581219000718190110000000549Chilli Pot Mala Xiang  YANGONUT      MMR11008201122162184070820000000000000000   10300001F00104100000000001955000000000000     
100   62911028202093430000000000000990000000000990002000000010410408201155142514744773800820000007683898   1020000200030000   333400010001204104000000281Myanmar Soft-Gate Tech Yangon        MMR11008201155142514740820000000000000000   10300001F05104100000000000208000000000000     
100   95050312675525330000000000013100000000013100002000000010410408201356322632276928390820000007684329   1030000200030000   333800010001203104000003327KBZPay                 Yangon        MMR11008201356322632270820000000000000000   10300001F05104100000000002751000000000000     
100   95050312675873230000000000004950000000004950002000000010410408200605483548268119460820000007682660   1020000200030000   333400010001204104000000281Myanmar Soft-Gate Tech Yangon        MMR11008200605483548260820000000000000000   10300001F05104100000000001040000000000000     
100   62911028202294570000000000020550000000020550002000000010410408201052582176984773800820704221758231   1030000900030000   541119001264190110000000958City Mart PLST C 7     YANGONMYOTHIT MMR11008201052582176980820000000000000000   10300001F00104100000000001233000000000000     
100   95050312641885210000000000004850000000004850002000000010410408201136052186837098580820291061805231   1030000900030000   541119001222190110000000945City Mart TM C 7       YANGONONE     MMR11008201136052186830820000000000000000   10300001F00104100000000001213000000000000     
100   95050315005801680000000000012300000000012300002000000010410408201252482203080233350820246221948231   1030000900030000   541119000165190110000000085SeinGayHar (Dagon Cent YANGONUNG     MMR11008201252482203080820000000000000000   10300001F00104100000000003075000000000000     
100   95050314979630620000000000001980000000001980002000000010410408201058432843537013480820000007683686   1020000200030000   333400010001204104000000281Myanmar Soft-Gate Tech Yangon        MMR11008201058432843530820000000000000000   10300001F05104100000000000416000000000000     
100   95050319928585020000000000000990000000000990002000000010410408192352512251922602000820000007681477   1020000200030000   333400010001204104000000281Myanmar Soft-Gate Tech Yangon        MMR11008192352512251920820000000000000000   10300001F05104100000000000208000000000000     
100   62911028202352490000000000150200000000150200002000000010410408200802513251694773800820000007683114   1030000900030000   333300010001202104000002659MSP                    Yangon        MMR11008200802513251690820000000000000000   10300001F05104100000000010000000000000000     
100   95050317072727910000000000010000000000010000002000000010410408201004493449216942180820000007683516   1030000200030000   333800010001203104000003327KBZPay                 Yangon        MMR11008201004493449210820000000000000000   10300001F05104100000000002100000000000000     
100   95050319870763910000000000001980000000001980002000000010410408201555532553207524060820000007684744   1020000200030000   333400010001204104000000281Myanmar Soft-Gate Tech Yangon        MMR11008201555532553200820000000000000000   10300001F05104100000000000416000000000000     
100   95050319524870520000000000000990000000000990002000000010410408200306183618672445590820000007681962   1020000200030000   333400010001204104000000281Myanmar Soft-Gate Tech Yangon        MMR11008200306183618670820000000000000000   10300001F05104100000000000208000000000000     
100   95050327456215690000000000198400000000198400002000000010410408201046132175088424470820583161713231   1030000900030000   541119001068190110000000082Sein Gay Har Super Cen YANGON        MMR11008201046132175080820000000000000000   10300001F00104100000000049600000000000000     
100   95050321057500320000000000004950000000004950002000000010410408200852552255709906760820000007683289   1020000200030000   333400010001204104000000281Myanmar Soft-Gate Tech Yangon        MMR11008200852552255700820000000000000000   10300001F05104100000000001040000000000000     
100   95050319524870520000000000000990000000000990002000000010410408200554042404269857050820000007682616   1020000200030000   333400010001204104000000281Myanmar Soft-Gate Tech Yangon        MMR11008200554042404260820000000000000000   10300001F05104100000000000208000000000000     
100   95050313411345710000000000005000000000005000002000000010410408200412324232328715140820000007682241   1030000200030000   333800010001203104000003327KBZPay                 Yangon        MMR11008200412324232320820000000000000000   10300001F05104100000000001050000000000000     
100   95050310427855490000000000000990000000000990002000000010410408201112404240810318450820000007683728   1020000200030000   333400010001204104000000281Myanmar Soft-Gate Tech Yangon        MMR11008201112404240810820000000000000000   10300001F05104100000000000208000000000000     
100   95050312641885210000000000003960000000003960002000000010410408201617074707732481510820000007684796   1020000200030000   333400010001204104000000281Myanmar Soft-Gate Tech Yangon        MMR11008201617074707730820000000000000000   10300001F05104100000000000832000000000000     
100   62443100395250310000000000000990000000000990002000000010410408200117084708550864410820000007681597   1020000200030000   333400010001204104000000281Myanmar Soft-Gate Tech Yangon        MMR11008200117084708550820000000000000000   10300001F05104100000000000208000000000000     
100   95050317084233280000000000000990000000000990002000000010410408201621115111880829030820000007684803   1020000200030000   333400010001204104000000281Myanmar Soft-Gate Tech Yangon        MMR11008201621115111880820000000000000000   10300001F05104100000000000208000000000000     
100   95050312728902740000000000005000000000005000002000000010410408200954532453171814530820000007683483   1030000200030000   333800010001203104000003327KBZPay                 Yangon        MMR11008200954532453170820000000000000000   10300001F05104100000000001050000000000000     
100   95030302100000550000000000049500000000049500002000000010410408200704113698484773800820341188893984   1040001400030000   723010000628027230100003797Theresa Health & Beaut null No(1209) MMR11008200704113698480820000000000000000   10300001 00104100000000002970000000000000     
100   95050324411430900000000000089500000000089500002000000010410408200623033493967438690820530320181509   1040001400030000   504510000942025045100005752Technoland Computer Tr ding Co. Ltd( MMR11008200623033493960820000000000000000   10300001 00104100000000021480000000000000     
100   95050312641885210000000000001980000000001980002000000010410408201621515151562566600820000007684804   1020000200030000   333400010001204104000000281Myanmar Soft-Gate Tech Yangon        MMR11008201621515151560820000000000000000   10300001F05104100000000000416000000000000     
100   95050313817486860000000000004950000000004950002000000010410408200208523852765495270820000007681767   1020000200030000   333400010001204104000000281Myanmar Soft-Gate Tech Yangon        MMR11008200208523852760820000000000000000   10300001F05104100000000001040000000000000     
100   95050322957045260000000000001000000000001000002000000010410408201113254325642056030820000007683733   1030000200030000   3338000100012031040000040022C2P (Myanmar) Co. Ltd Yangon        MMR11008201113254325640820000000000000000   10300001F05104100000000000210000000000000     
100   95050315701710960000000000000990000000000990002000000010410408201407313731725786480820000007684375   1020000200030000   333400010001204104000000281Myanmar Soft-Gate Tech Yangon        MMR11008201407313731720820000000000000000   10300001F05104100000000000208000000000000     
100   95050318214455130000000000004950000000004950002000000010410408200219484948457147750820000007681800   1020000200030000   333400010001204104000000281Myanmar Soft-Gate Tech Yangon        MMR11008200219484948450820000000000000000   10300001F05104100000000001040000000000000     
100   62911028202446540000000000007700000000007700002000000010410408190645280001914773800819000362017710   1030000300030000   581200001870000000000001340CB BANK                URBAN KITCHEN MMR11008190645280001910819000000000000000   10300001F00104100000000000785000000000000     
100   95050323233042810000000000030000000000030000002000000010410408200145301530935580370820000007681699   1030000200030000   333800010001203104000003327KBZPay                 Yangon        MMR11008200145301530930820000000000000000   10300001F05104100000000006300000000000000     
100   95050324005082180000000000003600000000003600002000000010410408190947140006918978770819000362047094   1030000300030000   581400001673000000000001195CB BANK                SHWEPALIN SAN MMR11008190947140006910819000000000000000   10300001F00104100000000000432000000000000     
100   62911028202936850000000000009600000000009600002000000010410408190917370006474773800819223115000647   1030000500030000   541120020701022205411200207ORANGE (YDG)           PTN           MMR11008190917370006470819000000000000000   10300001 00104100000000000576000000000000     
100   95050318400277060000000000036000000000036000002000000010410408200928115811059566380820000007683392   1030000200030000   333800010001203104000003327KBZPay                 Yangon        MMR11008200928115811050820000000000000000   10300001F05104100000000007560000000000000     
100   62443100306028540000000000002900000000002900002000000010410408191217150003630233080819223118000363   1030000500030000   541120203707000015411202037CITY MART SUPERMARKET  PTN           MMR11008191217150003630819000000000000000   10300001 00104100000000000725000000000000     
100   95050325027979170000000000044750000000044750002000000010410408200940270282914012980820000752297446   1030000200030000   541188001037000008000000010KBZ BANK               MARKETPLACE - MMR11008200940270282910820000000000000000   10300001 00104100000000011188000000000000     
100   95050325455962190000000000001980000000001980002000000010410408200428275827951935010820000007682294   1020000200030000   333400010001204104000000281Myanmar Soft-Gate Tech Yangon        MMR11008200428275827950820000000000000000   10300001F05104100000000000416000000000000     
100   95050314570621780000000000000990000000000990002000000010410408200328295829143502400820000007682036   1020000200030000   333400010001204104000000281Myanmar Soft-Gate Tech Yangon        MMR11008200328295829140820000000000000000   10300001F05104100000000000208000000000000     
100   95050310332595380000000000000990000000000990002000000010410408200928095809551218850820000007683396   1020000200030000   333400010001204104000000281Myanmar Soft-Gate Tech Yangon        MMR11008200928095809550820000000000000000   10300001F05104100000000000208000000000000     
100   62911028202709150000000000012450000000012450002000000010410408200601472105194773800820496311247231   1030000900030000   541119000115190110000000078Sein Gay Har Kan Thar  YANGONOKKALAP MMR11008200601472105190820000000000000000   10300001F00104100000000000747000000000000     
100   95050317084233280000000000004950000000004950002000000010410408200328345834508544950820000007682035   1020000200030000   333400010001204104000000281Myanmar Soft-Gate Tech Yangon        MMR11008200328345834500820000000000000000   10300001F05104100000000001040000000000000     
100   95050319524870520000000000000990000000000990002000000010410408200722035203363843050820000007682963   1020000200030000   333400010001204104000000281Myanmar Soft-Gate Tech Yangon        MMR11008200722035203360820000000000000000   10300001F05104100000000000208000000000000     
100   95050314557307430000000000001980000000001980002000000010410408200459332933224644300820000007682409   1020000200030000   333400010001204104000000281Myanmar Soft-Gate Tech Yangon        MMR11008200459332933220820000000000000000   10300001F05104100000000000416000000000000     
100   95050318741700180000000000000990000000000990002000000010410408200807543754012616050820000007683135   1020000200030000   333400010001204104000000281Myanmar Soft-Gate Tech Yangon        MMR11008200807543754010820000000000000000   10300001F05104100000000000208000000000000     
100   95050312728902740000000000005000000000005000002000000010410408200352542254071679720820000007682149   1030000200030000   333800010001203104000003327KBZPay                 Yangon        MMR11008200352542254070820000000000000000   10300001F05104100000000001050000000000000     
100   95050324154190880000000000207000000000207000002000000010410408200916282152609481280820219461528231   1030000900030000   481219000710190110000000541I Sure Technology Co.  YANGONAUNG    MMR11008200916282152600820000000000000000   10300001F00104100000000049680000000000000     
100   62911028202465350000000000061410000000061410002000000010410408190626000002154773800819223112000215   1030000500030000   581220225001000085812202250MANPUKU JAPANESE TOKYO PTN           MMR11008190626000002150819000000000000000   10300001 00104100000000006264000000000000     
100   62911028202489110000000000043500000000043500002000000010410408190614370041614773800819000362012405   1030000300030000   729800001742000000000001247CB BANK                ART & T8      MMR11008190614370041610819000000000000000   10300001F00104100000000002610000000000000     
100   95050322921717110000000000030000000000030000002000000010410408190105340010208437990819223107001020   1030000500030000   598320001602000015172200016MAX ENERGY             PTN           MMR11008190105340010200819000000000000000   10300001 00104100000000003600000000000000     
100   62443100383487320000000000018376000000018376002000000010410408201702110176306601790820000752320205   1030000200030000   541188001002000008000000008KBZ BANK               MARKETPLACE - MMR11008201702110176300820000000000000000   10300001 00104100000000004594000000000000     
100   95050325784857510000000000002850000000002850002000000010410408200830352141634183440820572001535231   1030000900030000   541119001207190110000000948City Mart YK C 5       YANGONAUNG    MMR11008200830352141630820000000000000000   10300001F00104100000000000713000000000000     
100   62911028202651050000000000050400000000050400002000000010410408200838190344944773800820000752295500   1030000200030000   541188001042000008000000010KBZ BANK               MARKETPLACE - MMR11008200838190344940820000000000000000   10300001 00104100000000003024000000000000     
100   95050319485395370000000000250000000000250000002000000010410408201139250925118751060820000007683842   1030000200030000   333800010001203104000003327KBZPay                 Yangon        MMR11008201139250925110820000000000000000   10300001F05104100000000052500000000000000     
100   95050310397364970000000000002970000000002970002000000010410408200719534953090538090820000007682955   1020000200030000   333400010001204104000000281Myanmar Soft-Gate Tech Yangon        MMR11008200719534953090820000000000000000   10300001F05104100000000000624000000000000     
100   62911028202355870000000001000000000001000000002000000010410408191748531853364773800820000007681241   1030000600030000   333800010001230104000004564Trusty Wallet          Yangon        MMR11008191748531853360820000000000000000   10300001F05104100000000210000000000000000     
100   95050310572950870000000000020000000000020000002000000010410408201521565156489176550820000007684653   1030000200030000   333800010001203104000003327KBZPay                 Yangon        MMR11008201521565156480820000000000000000   10300001F05104100000000004200000000000000     
100   62911028202451150000000000029400000000029400002000000010410408190422200006574773800819223110000657   1030000500030000   541120229010000045411202290CITY MART SUPERMARKET  PTN           MMR11008190422200006570819000000000000000   10300001 00104100000000001764000000000000     
100   62911028202451150000000000091113000000091113002000000010410408190430020016964773800819223111001696   1030000500030000   541120229001000045411202290CITY MART SUPERMARKET  PTN           MMR11008190430020016960819000000000000000   10300001 00104100000000005467000000000000     
100   62911028202446540000000000057000000000057000002000000010410408190347020001104773800819223110000110   1030000500030000   569120037801016505691200378SOON FASHION SHOP      PTN           MMR11008190347020001100819000000000000000   10300001 00104100000000003420000000000000     
100   95050312099416380000000000014700000000014700002000000010410408190739360001994581340819223114000199   1030000500030000   541120025201022205411200252ORANGE (80ST)          PTN           MMR11008190739360001990819000000000000000   10300001 00104100000000003675000000000000     
100   62911028202446540000000000026000000000026000002000000010410408190520400006084773800819223111000608   1030000500030000   569120104001008205691201040ESCORT ( CITY MALL-ST. PTN           MMR11008190520400006080819000000000000000   10300001 00104100000000001560000000000000     
100   95050313977497770000000000010450000000010450002000000010410408190534230010218912910819000362005593   1030000300030000   531100000750000000000000408CB BANK                CAPITAL HYPER MMR11008190534230010210819000000000000000   10300001F00104100000000002508000000000000     
100   62443100340422630000000000038000000000038000002000000010410408191054090012570318180819223117001257   1030000500030000   598320001301000015172200013MAX ENERGY             PTN           MMR11008191054090012570819000000000000000   10300001 00104100000000004560000000000000     
100   62443100306028540000000000010550000000010550002000000010410408191229070013845105440819223118001384   1030000500030000   541120203703000015411202037CITY MART SUPERMARKET  PTN           MMR11008191229070013840819000000000000000   10300001 00104100000000002638000000000000     
100   62443100375796910000000000065700000000065700002000000010410408200947350025781303950820000752317687   1030000200030000   599988000602000008000003445KBZ BANK               SWEETY HOME ( MMR11008200947350025780820000000000000000   10300001 00104100000000015768000000000000     
100   62911028202651050000000000006060000000006060002000000010410408200836260344924773800820000752295467   1030000200030000   541188001042000008000000010KBZ BANK               MARKETPLACE - MMR11008200836260344920820000000000000000   10300001 00104100000000000364000000000000     
100   62911028202651050000000000006400000000006400002000000010410408200837220344934773800820000752295488   1030000200030000   541188001042000008000000010KBZ BANK               MARKETPLACE - MMR11008200837220344930820000000000000000   10300001 00104100000000000384000000000000     
100   95050311048637960000000000007596000000007596002000000010410408201452320241084098340820000752313317   1030000200030000   541188001075000008000000294KBZ BANK               CITY MART - J MMR11008201452320241080820000000000000000   10300001 00104100000000001899000000000000     
100   95050315615561720000000000000990000000000990002000000010410408200833170317230793370820000007683206   1020000200030000   333400010001204104000000281Myanmar Soft-Gate Tech Yangon        MMR11008200833170317230820000000000000000   10300001F05104100000000000208000000000000     
100   95050313411345710000000000005000000000005000002000000010410408200833230323959140890820000007683207   1030000200030000   333800010001203104000003327KBZPay                 Yangon        MMR11008200833230323950820000000000000000   10300001F05104100000000001050000000000000     
100   95050315752234130000000000021450000000021450002000000010410408201010440033486807370820000752298790   1030000200030000   541188001474000008000000391KBZ BANK               OCEAN SUPER C MMR11008201010440033480820000000000000000   10300001 00104100000000005363000000000000     
100   95050313817486860000000000018750000000018750002000000010410408201443410051822701150820000752312936   1030000200030000   541188001428000008000000401KBZ BANK               OCEAN SUPERCE MMR11008201443410051820820000000000000000   10300001 00104100000000004688000000000000     
100   95050314020354280000000000012000000000012000002000000010410408201239170206996466980820000752306360   1030000200030000   541188001304000008000000325KBZ BANK               CITY MART - A MMR11008201239170206990820000000000000000   10300001 00104100000000003000000000000000     
100   95050315150726490000000000004600000000004600002000000010410408201247380207007523790820000752306781   1030000200030000   541188001304000008000000325KBZ BANK               CITY MART - A MMR11008201247380207000820000000000000000   10300001 00104100000000001150000000000000     
100   95050312695033440000000000000990000000000990002000000010410408200132150215550622910820000007681642   1020000200030000   333400010001204104000000281Myanmar Soft-Gate Tech Yangon        MMR11008200132150215550820000000000000000   10300001F05104100000000000208000000000000     
100   95050315752234130000000000023262000000023262002000000010410408201038190045205410170820000752300118   1030000200030000   541188001454000008000000391KBZ BANK               OCEAN SUPER C MMR11008201038190045200820000000000000000   10300001 00104100000000005816000000000000     
100   95050325027979170000000000050000000000050000002000000010410408200431590159364729400820000007682313   1030000200030000   333800010001203104000003327KBZPay                 Yangon        MMR11008200431590159360820000000000000000   10300001F05104100000000010500000000000000     
100   95050317284600370000000000050000000000050000002000000010410408200531140114944899590820000007682527   1030000200030000   333800010001203104000003327KBZPay                 Yangon        MMR11008200531140114940820000000000000000   10300001F05104100000000010500000000000000     
100   95050326511614440000000000020800000000020800002000000010410408200502340064084559210820000752302743   1030000200030000   569988000803000008000004614KBZ BANK               JCY-IPANEMA   MMR11008200502340064080820000000000000000   10300001 00104100000000004992000000000000     
100   62911028202442410000000000008900000000008900002000000010410408201314180115114773800820000752308257   1030000200030000   541188001060000008000000314KBZ BANK               MARKETPLACE - MMR11008201314180115110820000000000000000   10300001 00104100000000000534000000000000     
100   95050310332595380000000000000990000000000990002000000010410408201332380238395275900820000007684249   1020000200030000   333400010001204104000000281Myanmar Soft-Gate Tech Yangon        MMR11008201332380238390820000000000000000   10300001F05104100000000000208000000000000     
100   95050322990383760000000000014000000000014000002000000010410408200819411789849055790820223215178984   1040001600030000   591220000043000000010000041Mingalar Pharmacy      Yangon        MMR11008200819411789840820000000000000000   10300001F00104100000000003360000000000000     
100   62911028202154800000000000012200000000012200002000000010410408200342112074874773800820872121011231   1030000900030000   541119001274190110000000961City Mart PLST City Ca YANGONMYOTHIT MMR11008200342112074870820000000000000000   10300001F00104100000000000732000000000000     
100   62911028202132460000000000043300000000043300002000000010410408200303192067794773800820540330919231   1030000900030000   591219000609190110000000449Shwe Ohh Pharmacy St-3 YANGONAUNG    MMR11008200303192067790820000000000000000   10300001F00104100000000002598000000000000     
100   95050312035823210000000000005000000000005000002000000010410408201237540754971800740820000007684049   1030000200030000   3338000100012031040000040022C2P (Myanmar) Co. Ltd Yangon        MMR11008201237540754970820000000000000000   10300001F05104100000000001050000000000000     
100   95050312224678430000000000001980000000001980002000000010410408200747291729116892730820000007683084   1020000200030000   333400010001204104000000281Myanmar Soft-Gate Tech Yangon        MMR11008200747291729110820000000000000000   10300001F05104100000000000416000000000000     
100   95030308100042590000000000015000000000015000002000000010410408200412022080614773800820148421002231   1030000900030000   541119000137190110000000083SeinGayHarParami Cente YANGON        MMR11008200412022080610820000000000000000   10300001F00104100000000000900000000000000     
100   95050312224678430000000000000990000000000990002000000010410408200336010601260197430820000007682072   1020000200030000   333400010001204104000000281Myanmar Soft-Gate Tech Yangon        MMR11008200336010601260820000000000000000   10300001F05104100000000000208000000000000     
100   95050317072727910000000000005100000000005100002000000010410408201148401840977183680820000007683880   1030000200030000   333800010001203104000003327KBZPay                 Yangon        MMR11008201148401840970820000000000000000   10300001F05104100000000001071000000000000     
100   95050315259054570000000000002500000000002500002000000010410408200650412041759431570820000007682854   1030000200030000   333800010001203104000003327KBZPay                 Yangon        MMR11008200650412041750820000000000000000   10300001F05104100000000000525000000000000     
100   62443100330048680000000000017000000000017000002000000010410408201108021924711970930820223218192471   1040001600030000   599520001537000000010001228Gloria's Pet Supplies  Ygn           MMR11008201108021924710820000000000000000   10300001F00104100000000004080000000000000     
100   95050325784857510000000000005150000000005150002000000010410408200448072088389686860820554181107231   1030000900030000   541119001206190110000000948City Mart YK C 4       YANGONAUNG    MMR11008200448072088380820000000000000000   10300001F00104100000000001288000000000000     
100   95050319870763910000000000000990000000000990002000000010410408200734300430833928150820000007683016   1020000200030000   333400010001204104000000281Myanmar Soft-Gate Tech Yangon        MMR11008200734300430830820000000000000000   10300001F05104100000000000208000000000000     
100   62443100325875170000000000010000000000010000002000000010410408201241531153050148260820000007684066   1030000200030000   333800010001203104000003327KBZPay                 Yangon        MMR11008201241531153050820000000000000000   10300001F05104100000000002100000000000000     
100   95030394609966640000000000054662000000054662002000000010410408200359511612724773800820223210161272   1040001600030000   598320000658000000010000527Shwe Taung Energy (YGN Yangon        MMR11008200359511612720820000000000000000   10300001F00104100000000001640000000000000     
100   95050324411430900000000000024000000000024000002000000010410408200842041803959736560820223215180395   1040001600030000   598320000658000000010000527Shwe Taung Energy (YGN Yangon        MMR11008200842041803950820000000000000000   10300001F00104100000000002880000000000000     
100   95050316997303010000000000004950000000004950002000000010410408201348441844118580870820000007684312   1020000200030000   333400010001204104000000281Myanmar Soft-Gate Tech Yangon        MMR11008201348441844110820000000000000000   10300001F05104100000000001040000000000000     
100   62443100375796910000000000030165000000030165002000000010410408200818322138842445860820420481432231   1030000900030000   541119001236190110000000951Marketplace KTY C 6    YANGONARTAUNG MMR11008200818322138840820000000000000000   10300001F00104100000000007542000000000000     
100   62911028202355870000000001000000000001000000002000000010410408191747561756354773800820000007681236   1030000600030000   333800010001230104000004564Trusty Wallet          Yangon        MMR11008191747561756350820000000000000000   10300001F05104100000000210000000000000000     
100   95030308100042590000000000005000000000005000002000000010410408200414012081104773800820173441001231   1030000900030000   541119000141190110000000083SeinGayHarParami Cente YANGON        MMR11008200414012081100820000000000000000   10300001F00104100000000000300000000000000     
100   95050324947866880000000000011685000000011685002000000010410408200735372128728970700820851051437231   1030000900030000   723019001041190110000000846Beauty Diary IS        YANGONUT      MMR11008200735372128720820000000000000000   10300001F00104100000000002804000000000000     
100   95050317376014640000000000000990000000000990002000000010410408200244401440895750560820000007681878   1020000200030000   333400010001204104000000281Myanmar Soft-Gate Tech Yangon        MMR11008200244401440890820000000000000000   10300001F05104100000000000208000000000000     
100   62911028202355870000000001000000000001000000002000000010410408191746141614834773800820000007681233   1030000600030000   333800010001230104000004564Trusty Wallet          Yangon        MMR11008191746141614830820000000000000000   10300001F05104100000000210000000000000000     
100   95050314570621780000000000002970000000002970002000000010410408201048531853743467020820000007683652   1020000200030000   333400010001204104000000281Myanmar Soft-Gate Tech Yangon        MMR11008201048531853740820000000000000000   10300001F05104100000000000624000000000000     
100   62911028202154800000000000018950000000018950002000000010410408200340312074554773800820855101031231   1030000900030000   541119001266190110000000958City Mart PLST C9      YANGONMYOTHIT MMR11008200340312074550820000000000000000   10300001F00104100000000001137000000000000     
100   62911028202077500000000000001014000000001014002000000010410408200351232123444773800820000007682141   1030000200030000   3338000100012031040000040022C2P (Myanmar) Co. Ltd Yangon        MMR11008200351232123440820000000000000000   10300001F05104100000000000213000000000000     
100   95050319902033540000000000050600000000050600002000000010410408200617491707519176280820223213170751   1040001600030000   806220001354000000010001061Grand Hantha Internati Ygn           MMR11008200617491707510820000000000000000   10300001F00104100000000012144000000000000     
100   95050322990383760000000000026400000000026400002000000010410408200825221793487403310820223215179348   1040001600030000   591220000301000000010000289Shwe Ohh Pharmacy (Yay Yangon        MMR11008200825221793480820000000000000000   10300001F00104100000000006336000000000000     
100   62911028202404050000000000025000000000025000002000000010410408201129511539634773800820595145039983   1040001400030000   581210000466025812100002956Golden Duck Restaurant (Junction 8)  MMR11008201129511539630820000000000000000   10300001 00104100000000002550000000000000     
100   62911028202027440000000000046500000000046500002000000010410408200134152049494773800820709040815231   1030000900030000   554119001103190110000000215New Day Energy MYG     YANGONONE     MMR11008200134152049490820000000000000000   10300001F00104100000000001395000000000000     
100   62911028202474000000000000019000000000019000002000000010410408200814382137694773800820348441438231   1030000900030000   562119001437190110000001041Venus Palace Fashion   YANGONUT      MMR11008200814382137690820000000000000000   10300001F00104100000000001140000000000000     
100   62911028202355870000000001000000000001000000002000000010410408191745191519494773800820000007681232   1030000600030000   333800010001230104000004564Trusty Wallet          Yangon        MMR11008191745191519490820000000000000000   10300001F05104100000000210000000000000000     
100   95050317376014640000000000001980000000001980002000000010410408200241361136427488140820000007681868   1020000200030000   333400010001204104000000281Myanmar Soft-Gate Tech Yangon        MMR11008200241361136420820000000000000000   10300001F05104100000000000416000000000000     
100   62911028202319090000000000010950000000010950002000000010410408200225022059604773800820153550802231   1030000900030000   591219001378190110000000983Shwe Ohh Pharmacy St 5 YANGONAUNG    MMR11008200225022059600820000000000000000   10300001F00104100000000000657000000000000     
100   62911028202916630000000000089150000000089150002000000010410408200508452093184773800820829381145231   1030000900030000   541119000380190110000000248Victoria Hyper Mart    YANGON        MMR11008200508452093180820000000000000000   10300001F00104100000000005349000000000000     
100   62911028202355870000000001000000000001000000002000000010410408191747021702944773800820000007681235   1030000600030000   333800010001230104000004564Trusty Wallet          Yangon        MMR11008191747021702940820000000000000000   10300001F05104100000000210000000000000000     
100   95050310447350470000000000014050000000014050002000000010410408191253140002819807610819223119000281   1030000500030000   581220198701000085812201987JO JO CAPITAL          PTN           MMR11008191253140002810819000000000000000   10300001 00104100000000005972000000000000     
100   95030308100042590000000000187500000000187500002000000010410408190533190007304773800819223112000730   1030000500030000   598320001701000015172200017MAX ENERGY             PTN           MMR11008190533190007300819000000000000000   10300001 00104100000000005625000000000000     
100   95050319902033540000000000055081000000055081002000000010410408190749480009332928860819223114000933   1030000500030000   531120156002000045311201560GAMONE PWINT           PTN           MMR11008190749480009330819000000000000000   10300001 00104100000000013220000000000000     
100   95050324622440820000000000067700000000067700002000000010410408190846300010438786450819223115001043   1030000500030000   541120227502000045411202275CITY MART (AHLONE BRAN PTN           MMR11008190846300010430819000000000000000   10300001 00104100000000016925000000000000     
100   62443100390038980000000000031845000000031845002000000010410408191255350000214424670819000362073684   1030000300030000   581200001846000000000001321CB BANK                SHAN YOE YAR  MMR11008191255350000210819000000000000000   10300001F00104100000000013534000000000000     
100   95050310447350470000000000016338000000016338002000000010410408191327440002829722510819223119000282   1030000500030000   581220198701000085812201987JO JO CAPITAL          PTN           MMR11008191327440002820819000000000000000   10300001 00104100000000006944000000000000     
100   62443100330048680000000000031000000000031000002000000010410408190309240011819835190819223109001181   1030000500030000   598320001103000015172200011MAX ENERGY             PTN           MMR11008190309240011810819000000000000000   10300001 00104100000000003720000000000000     
100   62911028202446540000000000124980000000124980002000000010410408190810340001554773800819223114000155   1030000500030000   569120091201000015691200912GIORDANO               PTN           MMR11008190810340001550819000000000000000   10300001 00104100000000007499000000000000     
100   95030388822041290000000000026600000000026600002000000010410408190749540005424773800819223114000542   1030000500030000   531120155712000045311201557GAMONE PWINT           PTN           MMR11008190749540005420819000000000000000   10300001 00104100000000001596000000000000     
100   62443101063232860000000000027825000000027825002000000010410408190504330006233529980819223111000623   1030000500030000   581220106701000015812201067THAI 47                PTN           MMR11008190504330006230819000000000000000   10300001 00104100000000011826000000000000     
100   62443100306698200000000000440500000000440500002000000010410408190733530001487375730819223114000148   1030000500030000   503920036609000015039200366PRO-1 HOME CENTER      PTN           MMR11008190733530001480819000000000000000   10300001 00104100000000105720000000000000     
100   62911028202150190000000000070000000000070000002000000010410408190609200013424773800819000362011419   1030000300030000   598300001212000000000000819CB BANK                SHWE TAUNG EN MMR11008190609200013420819000000000000000   10300001F00104100000000002100000000000000     
100   95050315144611650000000000011900000000011900002000000010410408190241270005149664990819000361978695   1030000300030000   591200000169000000000000084CB BANK                MEDICARE STOR MMR11008190241270005140819000000000000000   10300001F00104100000000002856000000000000     
100   62911028202446540000000000030000000000030000002000000010410408190857370013544773800819223115001354   1030000500030000   598320001202000015172200012MAX ENERGY             PTN           MMR11008190857370013540819000000000000000   10300001 00104100000000000900000000000000     
100   62443100375796910000000000121000000000121000002000000010410408191359160014447984930819223120001444   1030000500030000   598320001003000015172200010MAX ENERGY             PTN           MMR11008191359160014440819000000000000000   10300001 00104100000000014520000000000000     
100   95050320996331370000000000124300000000124300002000000010410408191056550002234048630819223117000223   1030000500030000   541120045801009205411200458126 STORE              PTN           MMR11008191056550002230819000000000000000   10300001 00104100000000031075000000000000     
100   95050322990383760000000000003800000000003800002000000010410408190843170008048871540819223115000804   1030000500030000   541120203712000015411202037CITY MART SUPERMARKET  PTN           MMR11008190843170008040819000000000000000   10300001 00104100000000000950000000000000     
100   62443100306416880000000000050380000000050380002000000010410408191312030001311460090819223119000131   1030000500030000   581220110402000015812201104GINKI KIDS             PTN           MMR11008191312030001310819000000000000000   10300001 00104100000000021412000000000000     
100   62911028202108460000000000042400000000042400002000000010410408190224240005834773800819000361976264   1030000300030000   531100001241000000000000843CB BANK                G & G CONVENI MMR11008190224240005830819000000000000000   10300001F00104100000000002544000000000000     
100   62911028202911760000000000062000000000062000002000000010410408190808220009834773800819223114000983   1030000500030000   598320068303000055983200683MAX ENERGY             PTN           MMR11008190808220009830819000000000000000   10300001 00104100000000001860000000000000     
100   62911028202464020000000000018300000000018300002000000010410408191019500013624773800819223116001362   1030000500030000   541120203703000015411202037CITY MART SUPERMARKET  PTN           MMR11008191019500013620819000000000000000   10300001 00104100000000001098000000000000     
100   95030394609966640000000000028700000000028700002000000010410408190721360006364773800819223113000636   1030000500030000   541120020701022205411200207ORANGE (YDG)           PTN           MMR11008190721360006360819000000000000000   10300001 00104100000000001722000000000000     
100   62911028202074950000000000008840000000008840002000000010410408190500350018314773800819223111001831   1030000500030000   531120226304000045311202263OCEAN SUPER CENTER STJ PTN           MMR11008190500350018310819000000000000000   10300001 00104100000000000530000000000000     
100   62911028202651050000000000106417000000106417002000000010410408190434290001074773800819223111000107   1030000500030000   541120203401000045411202034AZAY CO. LTD           PTN           MMR11008190434290001070819000000000000000   10300001 00104100000000006385000000000000     
100   62443100300792360000000000049000000000049000002000000010410408191106580013642311050819223117001364   1030000500030000   598320001202000015172200012MAX ENERGY             PTN           MMR11008191106580013640819000000000000000   10300001 00104100000000005880000000000000     
100   62443100313529540000000000002950000000002950002000000010410408191156390000548325310819223118000054   1030000500030000   531120155903000045311201559GAMONE PWINT           PTN           MMR11008191156390000540819000000000000000   10300001 00104100000000000708000000000000     
100   95030314001421450000000000031000000000031000002000000010410408191026270004734773800819223116000473   1030000500030000   531120156001000045311201560GAMONE PWINT           PTN           MMR11008191026270004730819000000000000000   10300001 00104100000000001860000000000000     
100   62911028202088990000000000030000000000030000002000000010410408190730580003934773800819223114000393   1030000500030000   598320003202000015172200032MAX ENERGY             PTN           MMR11008190730580003930819000000000000000   10300001 00104100000000000900000000000000     
100   62911028202169750000000000014750000000014750002000000010410408180541140006474773800818223012000647   1030000500030000   541120020801022205411200208ORANGE (TAMWE)         PTN           MMR11008180541140006470818000000000000000   10300001 00104100000000000885000000000000     
100   95050312287957830000000000003800000000003800002000000010410408180047250006242158270818223007000624   1030000500030000   541120233801000045411202338CITY EXPRESS (MCS - 51 PTN           MMR11008180047250006240818000000000000000   10300001 00104100000000000950000000000000     
100   95030394609966640000000000008600000000008600002000000010410408180432230007444773800818223011000744   1030000500030000   541120020902022205411200209ORANGE (HLAING)        PTN           MMR11008180432230007440818000000000000000   10300001 00104100000000000516000000000000     
100   62911028202474000000000000012000000000012000002000000010410408200806360007604773800820000752312508   1030000200030000   569988002288000008000006047KBZ BANK               PAPILLON - JU MMR11008200806360007600820000000000000000   10300001 00104100000000000720000000000000     
100   62443101001072630000000000005000000000005000002000000010410408201105190011791424430820000752301558   1030000200030000   541188001369000008000000395KBZ BANK               OCEAN SUPERMA MMR11008201105190011790820000000000000000   10300001 00104100000000001250000000000000     
100   95050323855563310000000000085148000000085148002000000010410408201515260029843126630820000752314404   1030000200030000   541188001481000008000000399KBZ BANK               OCEAN SUPERCE MMR11008201515260029840820000000000000000   10300001 00104100000000021287000000000000     
100   95050312695033440000000000000990000000000990002000000010410408201333140314983623420820000007684251   1020000200030000   333400010001204104000000281Myanmar Soft-Gate Tech Yangon        MMR11008201333140314980820000000000000000   10300001F05104100000000000208000000000000     
100   62911028202651050000000000062188000000062188002000000010410408200835190344914773800820000752295448   1030000200030000   541188001042000008000000010KBZ BANK               MARKETPLACE - MMR11008200835190344910820000000000000000   10300001 00104100000000003731000000000000     
