100   62911028202159100000000000006600000000006600002000000010410408210524252334834773800821397541125232   1030000900030000   541119001201190110000000943City Mart HDC Season C YANGONUT      MMR11008210524252334830821000000000000000   10300001F00104100000000000396000000000000     
100   95050321455580800000000000012940000000012940002000000010410408210631522349297389520821198011352232   1030000900030000   541119001233190110000000951Marketplace KTY C 3    YANGONARTAUNG MMR11008210631522349290821000000000000000   10300001F00104100000000003235000000000000     
100   95030301100121270000000000030450000000030450002000000010410408210733112363534773800821985031411232   1030000900030000   541119001260190110000000958City Mart PLST C 3     YANGONMYOTHIT MMR11008210733112363530821000000000000000   10300001F00104100000000001827000000000000     
100   62443100376865460000000000029250000000029250002000000010410408210835512378436502910821838051551232   1030000900030000   541119001244190110000000955City Mart JS C 3       YANGONUT      MMR11008210835512378430821000000000000000   10300001F00104100000000007313000000000000     
100   62911028202471600000000000048900000000048900002000000010410408211128332419814773800821345581733232   1030000900030000   591219000970190110000000777Shwe Ohh Pharmacy St ( YANGONAW      MMR11008211128332419810821000000000000000   10300001F00104100000000002934000000000000     
100   62911028202530930000000000030855000000030855002000000010410408211149192424144773800821589191819232   1030000900030000   581219000423190110000000284BCC (SYS)              YANGON        MMR11008211149192424140821000000000000000   10300001F00104100000000003147000000000000     
100   62911028202662690000000000024000000000024000002000000010410408210747302596354773800821223314259635   1040001600030000   569120000926000000010000673Generation Concept Sto Ygn           MMR11008210747302596350821000000000000000   10300001F00104100000000001440000000000000     
100   95050315144611650000000000001980000000001980002000000010410408211102223222116999690821000007687299   1020000200030000   333400010001204104000000281Myanmar Soft-Gate Tech Yangon        MMR11008211102223222110821000000000000000   10300001F05104100000000000416000000000000     
100   62911028202443730000000000025000000000025000002000000010410408200908510007594773800820223215000759   1030000500030000   598320001904000015172200019MAX ENERGY             PTN           MMR11008200908510007590820000000000000000   10300001 00104100000000000750000000000000     
100   62911028202169750000000000024000000000024000002000000010410408200118010012484773800820223207001248   1030000500030000   598320002104000015172200021MAX ENERGY             PTN           MMR11008200118010012480820000000000000000   10300001 00104100000000000720000000000000     
100   62911028202105230000000000040000000000040000002000000010410408201004300011324773800820223216001132   1030000500030000   598320002702000015172200027MAX ENERGY             PTN           MMR11008201004300011320820000000000000000   10300001 00104100000000001200000000000000     
100   62911028202163630000000000066280000000066280002000000010410408200643010000274773800820223213000027   1030000500030000   541120275910000085411202759MAXI WHOLESALE         PTN           MMR11008200643010000270820000000000000000   10300001 00104100000000003977000000000000     
100   95050328074436620000000000027505000000027505002000000010410408200133010010355665460820223208001035   1030000500030000   598320001303000015172200013MAX ENERGY             PTN           MMR11008200133010010350820000000000000000   10300001 00104100000000003301000000000000     
100   62911028202911760000000000085250000000085250002000000010410408200333140001844773800820223210000184   1030000500030000   541120025101022205411200251ORANGE (THANLYIN-2)    PTN           MMR11008200333140001840820000000000000000   10300001 00104100000000005115000000000000     
100   95030390626214130000000000048600000000048600002000000010410408200406500006754773800820000362171722   1030000300030000   806200000193000000000000097CB BANK                AUNG YADANA H MMR11008200406500006750820000000000000000   10300001F00104100000000002916000000000000     
100   62443100363668680000000000027000000000027000002000000010410408201216420013168495770820223218001316   1030000500030000   598320002104000015172200021MAX ENERGY             PTN           MMR11008201216420013160820000000000000000   10300001 00104100000000003240000000000000     
100   95050313732480420000000000002970000000002970002000000010410408210653562356322772450821000007686515   1020000200030000   333400010001204104000000281Myanmar Soft-Gate Tech Yangon        MMR11008210653562356320821000000000000000   10300001F05104100000000000624000000000000     
100   95030388822041290000000000009000000000009000002000000010410408210803472606674773800821223315260667   1040001600030000   581220000375000000010000351SY Cafe and Restaurant Yangon        MMR11008210803472606670821000000000000000   10300001F00104100000000000918000000000000     
100   62443100301716860000000000000990000000000990002000000010410408211357112711044460590821000007687973   1020000200030000   333400010001204104000000281Myanmar Soft-Gate Tech Yangon        MMR11008211357112711040821000000000000000   10300001F05104100000000000208000000000000     
100   95050311419479170000000000001980000000001980002000000010410408210358172817393502670821000007685799   1020000200030000   333400010001204104000000281Myanmar Soft-Gate Tech Yangon        MMR11008210358172817390821000000000000000   10300001F05104100000000000416000000000000     
100   95030302100062270000000000015300000000015300002000000010410408210632212349384773800821203021321232   1030000900030000   581219001648190110000001205Shwe Lar Hot Pot City  YANGONUNG     MMR11008210632212349380821000000000000000   10300001F00104100000000001561000000000000     
100   62911028202313470000000000017758000000017758002000000010410408210956362398544773800821074261636232   1030000900030000   541119001358190110000000977Ocean PZD C 12         YANGONAUNG    MMR11008210956362398540821000000000000000   10300001F00104100000000001065000000000000     
100   62911028202003590000000000010750000000010750002000000010410408211040282408904773800821691101728232   1030000900030000   541119000149190110000000083SeinGayHarParami Cente YANGON        MMR11008211040282408900821000000000000000   10300001F00104100000000000645000000000000     
100   95050310332595380000000000000990000000000990002000000010410408210103103310148921250821000007685257   1020000200030000   333400010001204104000000281Myanmar Soft-Gate Tech Yangon        MMR11008210103103310140821000000000000000   10300001F05104100000000000208000000000000     
100   95050314365758940000000000003800000000003800002000000010410408201041580007935119500820223217000793   1030000500030000   541120203812000015411202038CITY MART SUPERMARKET  PTN           MMR11008201041580007930820000000000000000   10300001 00104100000000000950000000000000     
100   95030310098554020000000000038000000000038000002000000010410408200813190011684773800820223214001168   1030000500030000   598320001604000015172200016MAX ENERGY             PTN           MMR11008200813190011680820000000000000000   10300001 00104100000000001140000000000000     
100   62443100340422630000000000125750000000125750002000000010410408200513420000946637180820223211000094   1030000500030000   541120129740000045411201297MAKRO MYANMAR          PTN           MMR11008200513420000940820000000000000000   10300001 00104100000000031438000000000000     
100   62911028202595200000000000150000000000150000002000000010410408200932530001804773800820000362216968   1030000300030000   541100002330000000000000102CB BANK                MAKRO MYANMAR MMR11008200932530001800820000000000000000   10300001F00104100000000009000000000000000     
100   95050314365758940000000000040926000000040926002000000010410408201039490005495034400820223217000549   1030000500030000   541120203803000015411202038CITY MART SUPERMARKET  PTN           MMR11008201039490005490820000000000000000   10300001 00104100000000010232000000000000     
100   62911028202294570000000000060000000000060000002000000010410408201015310008264773800820223216000826   1030000500030000   598320041901000055983200419MAX ENERGY             PTN           MMR11008201015310008260820000000000000000   10300001 00104100000000001800000000000000     
100   62911028202179990000000000161910000000161910002000000010410408200427460000894773800820223210000089   1030000500030000   531120201701000085311202017STJ C&K                PTN           MMR11008200427460000890820000000000000000   10300001 00104100000000009715000000000000     
100   62911028202212490000000000004500000000004500002000000010410408201027150001884773800820223216000188   1030000500030000   581220195901000085812201959AKKHAYA TEA HOUSE      PTN           MMR11008201027150001880820000000000000000   10300001 00104100000000000459000000000000     
100   95050311736839760000000000001980000000001980002000000010410408210403133313801850180821000007685822   1020000200030000   333400010001204104000000281Myanmar Soft-Gate Tech Yangon        MMR11008210403133313800821000000000000000   10300001F05104100000000000416000000000000     
100   95050322715181550000000000028754000000028754002000000010410408210730352362934850420821953001435232   1030000900030000   581219000006190110000000004Jo Jo Hot Pot Junction YANGONUT      MMR11008210730352362930821000000000000000   10300001F00104100000000012221000000000000     
100   62911028202533820000000000722000000000722000002000000010410408210932032392154773800821662021603232   1030000900030000   573219001177190110000000933UNIQUE Kabaraye        YANGON        MMR11008210932032392150821000000000000000   10300001F00104100000000043320000000000000     
100   95050316100840690000000000154900000000154900002000000010410408210642492351802176780821338121349232   1030000900030000   573219001182190110000000938UNIQUE North Okkalapa  YANGONOKKALAP MMR11008210642492351800821000000000000000   10300001F00104100000000037176000000000000     
100   95050313977497770000000000006900000000006900002000000010410408210257192306489516930821010270919232   1030000900030000   541119000120190110000000080Sein Gay Har BAK       YANGONADA     MMR11008210257192306480821000000000000000   10300001F00104100000000001725000000000000     
100   95050312224678430000000000004950000000004950002000000010410408210515334533315226460821000007686184   1020000200030000   333400010001204104000000281Myanmar Soft-Gate Tech Yangon        MMR11008210515334533310821000000000000000   10300001F05104100000000001040000000000000     
100   62911028202108460000000000077400000000077400002000000010410408201041070001444773800820223217000144   1030000500030000   591220210201000085912202102ORCHID PHARMACY        PTN           MMR11008201041070001440820000000000000000   10300001 00104100000000004644000000000000     
100   95050313732480420000000000002970000000002970002000000010410408210709373937631205070821000007686572   1020000200030000   333400010001204104000000281Myanmar Soft-Gate Tech Yangon        MMR11008210709373937630821000000000000000   10300001F05104100000000000624000000000000     
100   62443100306416880000000000010900000000010900002000000010410408201208550007883453220820223218000788   1030000500030000   531120226309000045311202263OCEAN SUPER CENTER STJ PTN           MMR11008201208550007880820000000000000000   10300001 00104100000000002616000000000000     
100   62911028202084020000000000148150000000148150002000000010410408200346110010534773800820000362169045   1030000300030000   541100002331000000000000102CB BANK                MAKRO MYANMAR MMR11008200346110010530820000000000000000   10300001F00104100000000008889000000000000     
100   95050324154190880000000000024000000000024000002000000010410408200932340012252871340820223216001225   1030000500030000   598320001601000015172200016MAX ENERGY             PTN           MMR11008200932340012250820000000000000000   10300001 00104100000000002880000000000000     
100   62911028202520380000000000090700000000090700002000000010410408200736160002334773800820000362200328   1030000300030000   541100002350000000000000102CB BANK                MAKRO MYANMAR MMR11008200736160002330820000000000000000   10300001F00104100000000005442000000000000     
100   62911028202474000000000000016000000000016000002000000010410408200405270006254773800820223210000625   1030000500030000   569120104001008205691201040ESCORT ( CITY MALL-ST. PTN           MMR11008200405270006250820000000000000000   10300001 00104100000000000960000000000000     
100   62911028202147720000000000038100000000038100002000000010410408200037430011904773800820223207001190   1030000500030000   598320001601000015172200016MAX ENERGY             PTN           MMR11008200037430011900820000000000000000   10300001 00104100000000001143000000000000     
100   95050312287957830000000000002000000000002000002000000010410408200048110006409211930820223207000640   1030000500030000   541120233801000045411202338CITY EXPRESS (MCS - 51 PTN           MMR11008200048110006400820000000000000000   10300001 00104100000000000500000000000000     
100   62443100355445150000000000147840000000147840002000000010410408200656180008107148020820223213000810   1030000500030000   581220146401013205812201464THAI 47 (HELPIN BRANCH PTN           MMR11008200656180008100820000000000000000   10300001 00104100000000062832000000000000     
100   95050311779172060000000000005000000000005000002000000010410408210626345634009042000821000007686422   1030000200030000   333800010001203104000003327KBZPay                 Yangon        MMR11008210626345634000821000000000000000   10300001F05104100000000001050000000000000     
100   95050317775833170000000000050400000000050400002000000010410408210712004200387900100821000007686584   1030000200030000   333800010001203104000003327KBZPay                 Yangon        MMR11008210712004200380821000000000000000   10300001F05104100000000010584000000000000     
100   95050312595952760000000000000990000000000990002000000010410408210410194019028204830821000007685865   1020000200030000   333400010001204104000000281Myanmar Soft-Gate Tech Yangon        MMR11008210410194019020821000000000000000   10300001F05104100000000000208000000000000     
100   62443100314171200000000000300000000000300000002000000010410408210927190064569431830821000752341723   1030000200030000   541188001028000008000000298KBZ BANK               CITY MART - M MMR11008210927190064560821000000000000000   10300001 00104100000000075000000000000000     
100   95050323233042810000000000001980000000001980002000000010410408211311234123440985430821000007687791   1020000200030000   333400010001204104000000281Myanmar Soft-Gate Tech Yangon        MMR11008211311234123440821000000000000000   10300001F05104100000000000416000000000000     
100   95050313052602140000000000030000000000030000002000000010410408211615404540175687600821000007688411   1030000200030000   333800010001203104000003327KBZPay                 Yangon        MMR11008211615404540170821000000000000000   10300001F05104100000000006300000000000000     
100   95050312157227740000000000121000000000121000002000000010410408210520235023005311560821000007686198   1030000200030000   333800010001203104000003327KBZPay                 Yangon        MMR11008210520235023000821000000000000000   10300001F05104100000000025410000000000000     
100   95050322954091830000000000005000000000005000002000000010410408202328415841305956670821000007685173   1030000200030000   3334000100012031040000040102C2P (Myanmar) Co. Ltd Yangon        MMR11008202328415841300821000000000000000   10300001F05104100000000001050000000000000     
100   62443100306416880000000000028008000000028008002000000010410408201247050012021885840820223219001202   1030000500030000   598320001602000015172200016MAX ENERGY             PTN           MMR11008201247050012020820000000000000000   10300001 00104100000000003361000000000000     
100   62443100315110470000000000041000000000041000002000000010410408200753300012948630310820223214001294   1030000500030000   598320001201000015172200012MAX ENERGY             PTN           MMR11008200753300012940820000000000000000   10300001 00104100000000004920000000000000     
100   62443100343312450000000000017850000000017850002000000010410408200608140000924814500820000362188272   1030000300030000   581400001712000000000001227CB BANK                THE PIZZA & S MMR11008200608140000920820000000000000000   10300001F00104100000000002142000000000000     
100   62911028202108380000000000128400000000128400002000000010410408200754160001624773800820000362202883   1030000300030000   541100002330000000000000102CB BANK                MAKRO MYANMAR MMR11008200754160001620820000000000000000   10300001F00104100000000007704000000000000     
100   95050314842866260000000000004416000000004416002000000010410408200822540005455750830820223214000545   1030000500030000   531120156007000045311201560GAMONE PWINT           PTN           MMR11008200822540005450820000000000000000   10300001 00104100000000001060000000000000     
100   62911028202440680000000000004350000000004350002000000010410408200217070001274773800820223208000127   1030000500030000   591220014301014405912200143SHWE OHH PHARMACY      PTN           MMR11008200217070001270820000000000000000   10300001 00104100000000000261000000000000     
100   95030301100120440000000000048100000000048100002000000010410408200858260019394773800820223215001939   1030000500030000   541120226810000045411202268CITY MART WAIZAYANDA   PTN           MMR11008200858260019390820000000000000000   10300001 00104100000000002886000000000000     
100   62911028202031710000000000043200000000043200002000000010410408200746010044534773800820223214004453   1030000500030000   541120226203000045411202262CITY MART ZAWANA       PTN           MMR11008200746010044530820000000000000000   10300001 00104100000000002592000000000000     
100   95050314842866260000000000010331000000010331002000000010410408200843080009391474140820223215000939   1030000500030000   531120156008000045311201560GAMONE PWINT           PTN           MMR11008200843080009390820000000000000000   10300001 00104100000000002480000000000000     
100   95050319156011610000000000000990000000000990002000000010410408211615484548854035110821000007688418   1020000200030000   333400010001204104000000281Myanmar Soft-Gate Tech Yangon        MMR11008211615484548850821000000000000000   10300001F05104100000000000208000000000000     
100   95050319502933380000000000015100000000015100002000000010410408210322585258797864450821000007685652   1030000200030000   333800010001203104000003327KBZPay                 Yangon        MMR11008210322585258790821000000000000000   10300001F05104100000000003171000000000000     
100   95050311959900780000000000000990000000000990002000000010410408211503433343707765560821000007688178   1020000200030000   333400010001204104000000281Myanmar Soft-Gate Tech Yangon        MMR11008211503433343700821000000000000000   10300001F05104100000000000208000000000000     
100   95050312820609340000000000292000000000292000002000000010410408210710304030682857550821000007686575   1030000200030000   333800010001203104000003327KBZPay                 Yangon        MMR11008210710304030680821000000000000000   10300001F05104100000000061320000000000000     
100   95050327192897240000000000017100000000017100002000000010410408210413204494453162280821432084819445   1040001400030000   581210000466025812100002956Golden Duck Restaurant (Junction 8)  MMR11008210413204494450821000000000000000   10300001 00104100000000007268000000000000     
100   95050310427855490000000000002970000000002970002000000010410408210425315531754899860821000007685951   1020000200030000   333400010001204104000000281Myanmar Soft-Gate Tech Yangon        MMR11008210425315531750821000000000000000   10300001F05104100000000000624000000000000     
100   62911028202108460000000000051000000000051000002000000010410408201029510013324773800820223216001332   1030000500030000   598320001104000015172200011MAX ENERGY             PTN           MMR11008201029510013320820000000000000000   10300001 00104100000000001530000000000000     
100   62443101065883000000000000031051000000031051002000000010410408201023370050913296820820223216005091   1030000500030000   541120226412000045411202264MARKET PLACE MYANMARPL PTN           MMR11008201023370050910820000000000000000   10300001 00104100000000007763000000000000     
100   95030308100042590000000000017900000000017900002000000010410408200422390036314773800820000362173749   1030000300030000   581400000692000000000000478CB BANK                KFC PARAMI SG MMR11008200422390036310820000000000000000   10300001F00104100000000000537000000000000     
100   95050315144611650000000000020000000000020000002000000010410408200826480015477488410820223214001547   1030000500030000   598320001402000015172200014MAX ENERGY             PTN           MMR11008200826480015470820000000000000000   10300001 00104100000000002400000000000000     
100   95050324104751500000000000040236000000040236002000000010410408200323260029451849920820223209002945   1030000500030000   541120227606000045411202276CITY MART ( 47 BRANCH  PTN           MMR11008200323260029450820000000000000000   10300001 00104100000000010059000000000000     
100   95050313145843230000000000036600000000036600002000000010410408200549370050718204560820000362185734   1030000300030000   531100000747000000000000408CB BANK                CAPITAL HYPER MMR11008200549370050710820000000000000000   10300001F00104100000000008784000000000000     
100   62443100300743690000000000005800000000005800002000000010410408201035550022199991850820223217002219   1030000500030000   541120229114000045411202291CITY MART YANKIN       PTN           MMR11008201035550022190820000000000000000   10300001 00104100000000001450000000000000     
100   95050322149411750000000000020000000000020000002000000010410408192339210014677559450820223206001467   1030000500030000   598320001402000015172200014MAX ENERGY             PTN           MMR11008192339210014670820000000000000000   10300001 00104100000000002400000000000000     
100   62911028202502480000000000030000000000030000002000000010410408200907040015374773800820223215001537   1030000500030000   598320001403000015172200014MAX ENERGY             PTN           MMR11008200907040015370820000000000000000   10300001 00104100000000000900000000000000     
100   95050312157227740000000000050000000000050000002000000010410408210603503350841751300821000007686359   1030000200030000   333800010001203104000003327KBZPay                 Yangon        MMR11008210603503350840821000000000000000   10300001F05104100000000010500000000000000     
100   95050317071956460000000000000990000000000990002000000010410408211014144414256659310821000007687179   1020000200030000   333400010001204104000000281Myanmar Soft-Gate Tech Yangon        MMR11008211014144414250821000000000000000   10300001F05104100000000000208000000000000     
100   95050314307746340000000000000990000000000990002000000010410408210615214521746708750821000007686382   1020000200030000   333400010001204104000000281Myanmar Soft-Gate Tech Yangon        MMR11008210615214521740821000000000000000   10300001F05104100000000000208000000000000     
100   95050327192897240000000000007900000000007900002000000010410408210416066809781509800821460619622093   1040001400030000   581210000466025812100002956Golden Duck Restaurant (Junction 8)  MMR11008210416066809780821000000000000000   10300001 00104100000000003358000000000000     
100   95050318131043910000000000001980000000001980002000000010410408211307393739662637920821000007687774   1020000200030000   333400010001204104000000281Myanmar Soft-Gate Tech Yangon        MMR11008211307393739660821000000000000000   10300001F05104100000000000416000000000000     
100   95050314064416890000000000001980000000001980002000000010410408210502493249403488880821000007686127   1020000200030000   333400010001204104000000281Myanmar Soft-Gate Tech Yangon        MMR11008210502493249400821000000000000000   10300001F05104100000000000416000000000000     
100   62443100393841160000000000200000000000200000002000000010410408202216164616395871570821000007685153   1030000200030000   333800010001203104000003327KBZPay                 Yangon        MMR11008202216164616390821000000000000000   10300001F05104100000000042000000000000000     
100   95050313732480420000000000003960000000003960002000000010410408210042451245265616290821000007685233   1020000200030000   333400010001204104000000281Myanmar Soft-Gate Tech Yangon        MMR11008210042451245260821000000000000000   10300001F05104100000000000832000000000000     
100   62443100388528570000000000600000000000600000002000000010410408201012570020857027270820000362222725   1030000300030000   573200000993000000000000707CB BANK                UNIQUE MOBILE MMR11008201012570020850820000000000000000   10300001F00104100000000144000000000000000     
100   95050329734064360000000000030000000000030000002000000010410408201022580015894949300820223216001589   1030000500030000   598320001401000015172200014MAX ENERGY             PTN           MMR11008201022580015890820000000000000000   10300001 00104100000000003600000000000000     
100   62911028202527490000000000009200000000009200002000000010410408200500330056704773800820000362178740   1030000300030000   531100000797000000000000540CB BANK                CAPITAL SUPER MMR11008200500330056700820000000000000000   10300001F00104100000000000552000000000000     
100   62911028202471600000000000041184000000041184002000000010410408200942140024964773800820223216002496   1030000500030000   541120203705000015411202037CITY MART SUPERMARKET  PTN           MMR11008200942140024960820000000000000000   10300001 00104100000000002471000000000000     
100   62443100360763680000000000036000000000036000002000000010410408200816110053274013250820223214005327   1030000500030000   541120226402000045411202264MARKET PLACE MYANMARPL PTN           MMR11008200816110053270820000000000000000   10300001 00104100000000009000000000000000     
100   95050322222444890000000000012950000000012950002000000010410408200842150050834694010820000362209878   1030000300030000   531100000747000000000000408CB BANK                CAPITAL HYPER MMR11008200842150050830820000000000000000   10300001F00104100000000003108000000000000     
100   95050320559934420000000000150250000000150250002000000010410408200747361768845240250820223214176884   1040001600030000   541120000559000000010000465Ocean Shwe Gone Daing  Yangon        MMR11008200747361768840820000000000000000   10300001F00104100000000037563000000000000     
100   62443100399918110000000000037200000000037200002000000010410408200701551739335495540820223214173933   1040001600030000   581420000076000000010000074Hot Pot City Ahlone    Yangon        MMR11008200701551739330820000000000000000   10300001F00104100000000004464000000000000     
100   62911028202677390000000000050000000000050000002000000010410408200308341583684773800820223210158368   1040001600030000   598320000850000000010000606Terminal Petrol Statio Yangon        MMR11008200308341583680820000000000000000   10300001F00104100000000001500000000000000     
100   62911028202245730000000000126000000000126000002000000010410408211336450214694773800821000752352976   1030000200030000   541188001126000008000000296KBZ BANK               CITY MART - J MMR11008211336450214690821000000000000000   10300001 00104100000000007560000000000000     
100   62911028202161240000000000002518000000002518002000000010410408211016040430884773800821000752343395   1030000200030000   541188001024000008000000298KBZ BANK               CITY MART - M MMR11008211016040430880821000000000000000   10300001 00104100000000000151000000000000     
100   95030302100000550000000000099054000000099054002000000010410408211031122406384773800821533011712232   1030000900030000   541119001261190110000000958City Mart PLST C 4     YANGONMYOTHIT MMR11008211031122406380821000000000000000   10300001F00104100000000005943000000000000     
100   62911028202366010000000000020750000000020750002000000010410408210858172383784773800821153281517232   1030000900030000   541119001328190110000000971Ocean Junction NPT C6  NAYPYITAW     MMR11008210858172383780821000000000000000   10300001F00104100000000001245000000000000     
100   62911028202665580000000000030000000000030000002000000010410408210618252537174773800821223313253717   1040001600030000   598320001127000000010000608Terminal Petrol Statio Yangon        MMR11008210618252537170821000000000000000   10300001F00104100000000000900000000000000     
100   62911028202448030000000000018000000000018000002000000010410408210806292608534773800821223315260853   1040001600030000   569120001365000000010001065Generation Concept Sto Ygn           MMR11008210806292608530821000000000000000   10300001F00104100000000001080000000000000     
100   62443100374068610000000000040950000000040950002000000010410408210704242356986162520821624341324232   1030000900030000   581219001391190110000000996King BBQ sayarsan      YANGON        MMR11008210704242356980821000000000000000   10300001F00104100000000017404000000000000     
100   62911028202474000000000000012000000000012000002000000010410408200628120001444773800820223212000144   1030000500030000   569120060701000015691200607MIX (JUNCTION CITY)    PTN           MMR11008200628120001440820000000000000000   10300001 00104100000000000720000000000000     
100   95050316091358640000000000050000000000050000002000000010410408210603073307281666200821000007686352   1030000200030000   333800010001203104000003327KBZPay                 Yangon        MMR11008210603073307280821000000000000000   10300001F05104100000000010500000000000000     
100   95030332666916030000000000052150000000052150002000000010410408211011542402094773800821276411654232   1030000900030000   541119001355190110000000977Ocean PZD C9           YANGONAUNG    MMR11008211011542402090821000000000000000   10300001F00104100000000003129000000000000     
100   95050322222444890000000000027900000000027900002000000010410408200821070044052360760820000362206849   1030000300030000   531100000607000000000000408CB BANK                CAPITAL HYPER MMR11008200821070044050820000000000000000   10300001F00104100000000006696000000000000     
100   62911028202684060000000000087600000000087600002000000010410408201029500036474773800820223216003647   1030000500030000   531120226704000045311202267OCEAN NORTH POINT      PTN           MMR11008201029500036470820000000000000000   10300001 00104100000000005256000000000000     
100   62911028202662690000000000018000000000018000002000000010410408210735512589094773800821223314258909   1040001600030000   569120000926000000010000673Generation Concept Sto Ygn           MMR11008210735512589090821000000000000000   10300001F00104100000000001080000000000000     
100   62443100375796910000000000013530000000013530002000000010410408200857540004054864210820000362211993   1030000300030000   701100003206000000000002306CB BANK                WYNDHAM GRAND MMR11008200857540004050820000000000000000   10300001F00104100000000005751000000000000     
100   95030388822041290000000000005850000000005850002000000010410408200728350001254773800820000362199306   1030000300030000   541100002300000000000001569CB BANK                G & G CONVENI MMR11008200728350001250820000000000000000   10300001F00104100000000000351000000000000     
100   62911028202405530000000000158300000000158300002000000010410408201125240002344773800820223217000234   1030000500030000   569120068701019505691200687MK FASHION SHOP        PTN           MMR11008201125240002340820000000000000000   10300001 00104100000000009498000000000000     
100   62911028202158290000000000015300000000015300002000000010410408200220110001094773800820223208000109   1030000500030000   591220012301014405912200123SHWE OHH PHARMACY      PTN           MMR11008200220110001090820000000000000000   10300001 00104100000000000918000000000000     
100   95050325273694860000000000009200000000009200002000000010410408200715280002298885600820223213000229   1030000500030000   541120024801022205411200248ORANGE (THARKAYTA)     PTN           MMR11008200715280002290820000000000000000   10300001 00104100000000002300000000000000     
100   62911028202474000000000000011000000000011000002000000010410408200503470006344773800820223211000634   1030000500030000   569120104001008205691201040ESCORT ( CITY MALL-ST. PTN           MMR11008200503470006340820000000000000000   10300001 00104100000000000660000000000000     
100   95050322957045260000000000001000000000001000002000000010410408210543151315146623650821000007686282   1030000200030000   3338000100012031040000040022C2P (Myanmar) Co. Ltd Yangon        MMR11008210543151315140821000000000000000   10300001F05104100000000000210000000000000     
100   95050326689257240000000000018900000000018900002000000010410408201207410260115105710820000362238638   1030000300030000   531100000794000000000000540CB BANK                CAPITAL SUPER MMR11008201207410260110820000000000000000   10300001F00104100000000004536000000000000     
100   62443100300743690000000000011800000000011800002000000010410408211319550019912261880821000752352105   1030000200030000   541188001046000008000000010KBZ BANK               MARKETPLACE - MMR11008211319550019910821000000000000000   10300001 00104100000000002950000000000000     
100   95050315948162700000000000087950000000087950002000000010410408211828190087095942880821000752367407   1030000200030000   541188001336000008000000327KBZ BANK               CITY MART - S MMR11008211828190087090821000000000000000   10300001 00104100000000021988000000000000     
100   95050325305150830000000000000990000000000990002000000010410408210732170217061545450821000007686671   1020000200030000   333400010001204104000000281Myanmar Soft-Gate Tech Yangon        MMR11008210732170217060821000000000000000   10300001F05104100000000000208000000000000     
100   95030302100062270000000000005050000000005050002000000010410408211322230431034773800821000752352233   1030000200030000   541188001024000008000000298KBZ BANK               CITY MART - M MMR11008211322230431030821000000000000000   10300001 00104100000000000303000000000000     
100   62911028202355870000000001000000000001000000002000000010410408210847221722554773800821000007686926   1030000600030000   333800010001230104000004564Trusty Wallet          Yangon        MMR11008210847221722550821000000000000000   10300001F05104100000000210000000000000000     
100   62911028202355870000000001000000000001000000002000000010410408210848111811114773800821000007686932   1030000600030000   333800010001230104000004564Trusty Wallet          Yangon        MMR11008210848111811110821000000000000000   10300001F05104100000000210000000000000000     
100   62911028202499680000000000017186000000017186002000000010410408211427230115624773800821000752355525   1030000200030000   541188001060000008000000314KBZ BANK               MARKETPLACE - MMR11008211427230115620821000000000000000   10300001 00104100000000001031000000000000     
100   95030318192435180000000000007780000000007780002000000010410408210929230153544773800821000752341796   1030000200030000   541188001081000008000000294KBZ BANK               CITY MART - J MMR11008210929230153540821000000000000000   10300001 00104100000000000467000000000000     
100   62443100392426520000000000010000000000010000002000000010410408210542531253542006590821000007686281   1030000200030000   333800010001203104000003327KBZPay                 Yangon        MMR11008210542531253540821000000000000000   10300001F05104100000000002100000000000000     
100   62443101037081820000000000050150000000050150002000000010410408211723130198293609630821000752364551   1030000200030000   541188001056000008000000314KBZ BANK               MARKETPLACE - MMR11008211723130198290821000000000000000   10300001 00104100000000012538000000000000     
100   95050313732480420000000000001980000000001980002000000010410408210336080608553417570821000007685728   1020000200030000   333400010001204104000000281Myanmar Soft-Gate Tech Yangon        MMR11008210336080608550821000000000000000   10300001F05104100000000000416000000000000     
100   62911028202555020000000000031850000000031850002000000010410408211357140036124773800821000752354074   1030000200030000   541188001287000008000000472KBZ BANK               NEIGHBOURHOOD MMR11008211357140036120821000000000000000   10300001 00104100000000001911000000000000     
100   95050312482469810000000000022550000000022550002000000010410408211358350036139297290821000752354147   1030000200030000   541188001287000008000000472KBZ BANK               NEIGHBOURHOOD MMR11008211358350036130821000000000000000   10300001 00104100000000005638000000000000     
100   62911028202161240000000000001800000000001800002000000010410408211018180137664773800821000752343482   1030000200030000   541188001033000008000000298KBZ BANK               CITY MART - M MMR11008211018180137660821000000000000000   10300001 00104100000000000108000000000000     
100   62443100322986690000000000027000000000027000002000000010410408210815370277884680230821453743775794   1040001400030000   569910000191025699100001425Flannel Box Flannel Bo No.290 Pyay R MMR11008210815370277880821000000000000000   10300001 00104100000000006480000000000000     
100   95050317084233280000000000001980000000001980002000000010410408210738400840628240480821000007686699   1020000200030000   333400010001204104000000281Myanmar Soft-Gate Tech Yangon        MMR11008210738400840620821000000000000000   10300001F05104100000000000416000000000000     
100   95050310427855490000000000000990000000000990002000000010410408210141221122226211960821000007685354   1020000200030000   333400010001204104000000281Myanmar Soft-Gate Tech Yangon        MMR11008210141221122220821000000000000000   10300001F05104100000000000208000000000000     
100   62443100300792360000000000026100000000026100002000000010410408210445210052519942410821000752346086   1030000200030000   581288000098000008000003562KBZ BANK               CANTON PARADI MMR11008210445210052510821000000000000000   10300001 00104100000000011093000000000000     
100   95050318712627500000000000004950000000004950002000000010410408210952482248506574210821000007687121   1020000200030000   333400010001204104000000281Myanmar Soft-Gate Tech Yangon        MMR11008210952482248500821000000000000000   10300001F05104100000000001040000000000000     
100   95050314570621780000000000000990000000000990002000000010410408211448341834819418040821000007688139   1020000200030000   333400010001204104000000281Myanmar Soft-Gate Tech Yangon        MMR11008211448341834810821000000000000000   10300001F05104100000000000208000000000000     
100   95050325305150830000000000004950000000004950002000000010410408211336150615854375500821000007687885   1020000200030000   333400010001204104000000281Myanmar Soft-Gate Tech Yangon        MMR11008211336150615850821000000000000000   10300001F05104100000000001040000000000000     
100   95050311779172060000000000005000000000005000002000000010410408211030360036162212430821000007687212   1030000200030000   333800010001203104000003327KBZPay                 Yangon        MMR11008211030360036160821000000000000000   10300001F05104100000000001050000000000000     
100   95050318141561190000000000010000000000010000002000000010410408211045121512112297530821000007687253   1040001600030000   333800010001220104000004507A +                    Yangon        MMR11008211045121512110821000000000000000   10300001F05104100000000002100000000000000     
100   95050314752934410000000000010000000000010000002000000010410408211233440344879332950821000007687649   1030000200030000   333800010001203104000003327KBZPay                 Yangon        MMR11008211233440344870821000000000000000   10300001F05104100000000002100000000000000     
100   62911028202355870000000001000000000001000000002000000010410408210845121512694773800821000007686919   1030000600030000   333800010001230104000004564Trusty Wallet          Yangon        MMR11008210845121512690821000000000000000   10300001F05104100000000210000000000000000     
100   95030399326190680000000000054000000000054000002000000010410408211018031933104773800821480322390197   1040001400030000   592110000088015921100000365Million Mart Million M rt No. (519/  MMR11008211018031933100821000000000000000   10300001 00104100000000003240000000000000     
100   95050310251874990000000000024800000000024800002000000010410408211837050068219247850821000752367675   1030000200030000   541188001432000008000000401KBZ BANK               OCEAN SUPERCE MMR11008211837050068210821000000000000000   10300001 00104100000000006200000000000000     
100   62443100300743690000000000035866000000035866002000000010410408211312400283962091680821000752351673   1030000200030000   541188001037000008000000010KBZ BANK               MARKETPLACE - MMR11008211312400283960821000000000000000   10300001 00104100000000008967000000000000     
100   62911028202489110000000000033000000000033000002000000010410408210738190341334773800821000752339027   1030000200030000   541188001012000008000000008KBZ BANK               MARKETPLACE - MMR11008210738190341330821000000000000000   10300001 00104100000000001980000000000000     
100   95050313957225860000000000110000000000110000002000000010410408210334360436621679990821000007685692   1030000200030000   333800010001203104000003327KBZPay                 Yangon        MMR11008210334360436620821000000000000000   10300001F05104100000000023100000000000000     
100   62911028202355870000000001000000000001000000002000000010410408210844151415614773800821000007686914   1030000600030000   333800010001230104000004564Trusty Wallet          Yangon        MMR11008210844151415610821000000000000000   10300001F05104100000000210000000000000000     
100   95030394609966640000000000046200000000046200002000000010410408211357320150094773800821000752354095   1030000200030000   541188001022000008000000298KBZ BANK               CITY MART - M MMR11008211357320150090821000000000000000   10300001 00104100000000002772000000000000     
100   95050322295410690000000000003543000000003543002000000010410408211410540256988325580821000752354740   1030000200030000   541188001054000008000000314KBZ BANK               MARKETPLACE - MMR11008211410540256980821000000000000000   10300001 00104100000000000886000000000000     
100   95050314979630620000000000000990000000000990002000000010410408211533020302292382630821000007688298   1020000200030000   333400010001204104000000281Myanmar Soft-Gate Tech Yangon        MMR11008211533020302290821000000000000000   10300001F05104100000000000208000000000000     
100   95050324247403260000000000172390000000172390002000000010410408211156210394350269010821000752347968   1030000200030000   541188001039000008000000010KBZ BANK               MARKETPLACE - MMR11008211156210394350821000000000000000   10300001 00104100000000043098000000000000     
100   95050327416134790000000000001980000000001980002000000010410408211249531953947680470821000007687708   1020000200030000   333400010001204104000000281Myanmar Soft-Gate Tech Yangon        MMR11008211249531953940821000000000000000   10300001F05104100000000000416000000000000     
100   62911028202355870000000001000000000001000000002000000010410408210846191619804773800821000007686923   1030000600030000   333800010001230104000004564Trusty Wallet          Yangon        MMR11008210846191619800821000000000000000   10300001F05104100000000210000000000000000     
100   95050315017843630000000000005000000000005000002000000010410408211350572057486113080821000007687944   1040001600030000   333800010001220104000004507A +                    Yangon        MMR11008211350572057480821000000000000000   10300001F05104100000000001050000000000000     
100   62443101037081820000000000131219000000131219002000000010410408211310542440871070520821583401954232   1030000900030000   581219001646190110000001203Shwe Lar Hot Pot Kamar YANGONUT      MMR11008211310542440870821000000000000000   10300001F00104100000000055768000000000000     
100   62443100376865460000000000025200000000025200002000000010410408210759552369871290160821350291455232   1030000900030000   541119001257190110000000957City Mart JS City Care YANGONUT      MMR11008210759552369870821000000000000000   10300001F00104100000000006300000000000000     
100   62911028202045260000000000009650000000009650002000000010410408211026402405224773800821456561640232   1030000900030000   591219000691190110000000522Shwe Ohh Pharmacy ST-1 YANGONUNG     MMR11008211026402405220821000000000000000   10300001F00104100000000000579000000000000     
100   62911028202216940000000000070700000000070700002000000010410408211131072420254773800821368011807232   1030000900030000   591219000970190110000000777Shwe Ohh Pharmacy St ( YANGONAW      MMR11008211131072420250821000000000000000   10300001F00104100000000004242000000000000     
100   62443100363668680000000000105500000000105500002000000010410408210754282368607985200821273241428232   1030000900030000   591219000503190110000000350Shwe Ohh Pharmacy (WZD YANGONNGKUUN  MMR11008210754282368600821000000000000000   10300001F00104100000000025320000000000000     
100   62911028202069430000000000018620000000018620002000000010410408211145442423234773800821537151844232   1030000900030000   541119001077190110000000872Sein Gay Har Hledan    YANGONUT      MMR11008211145442423230821000000000000000   10300001F00104100000000001117000000000000     
100   95030399326190680000000000034418000000034418002000000010410408210935392393084773800821714051639232   1030000900030000   541119001364190110000000977Ocean PZD C18          YANGONAUNG    MMR11008210935392393080821000000000000000   10300001F00104100000000002065000000000000     
100   62911028202169750000000000130000000000130000002000000010410408210922042659154773800821223316265915   1040001600030000   573220001251000000010000957Mobile King Branch 1   Ygn           MMR11008210922042659150821000000000000000   10300001F00104100000000007800000000000000     
100   95030302100062270000000000015300000000015300002000000010410408210631462349264773800821196011346232   1030000900030000   581219001648190110000001205Shwe Lar Hot Pot City  YANGONUNG     MMR11008210631462349260821000000000000000   10300001F00104100000000001561000000000000     
100   62911028202366010000000000083000000000083000002000000010410408210727582584114773800821223314258411   1040001600030000   598320000326000000010000314PT Power Petrol Statio Nay Pyi Taw   MMR11008210727582584110821000000000000000   10300001F00104100000000002490000000000000     
100   62911028202465350000000000139150000000139150002000000010410408211321442443234773800821730511944232   1030000900030000   581319000844190110000000659Beer Vibe              YANGONUNG     MMR11008211321442443230821000000000000000   10300001F00104100000000014193000000000000     
100   95050328035424750000000000949200000000949200002000000010410408210415502320366552350821646451050232   1030000900030000   541119000285190110000000177Pro1 Global (Insein)   YANGON        MMR11008210415502320360821000000000000000   10300001F00104100000000237300000000000000     
