100   62443100300792360000000000071000000000071000002000000010410408180436350011675924370818223011001167   1030000500030000   598320001304000015172200013MAX ENERGY             PTN           MMR11008180436350011670818000000000000000   10300001 00104100000000008520000000000000     
100   95050322990383760000000000015900000000015900002000000010410408181025030013251778610818223016001325   1030000500030000   541120203703000015411202037CITY MART SUPERMARKET  PTN           MMR11008181025030013250818000000000000000   10300001 00104100000000003975000000000000     
100   62911028202185590000000000017300000000017300002000000010410408181139110002994773800818223018000299   1030000500030000   541120024604022205411200246ORANGE (THANLYIN)      PTN           MMR11008181139110002990818000000000000000   10300001 00104100000000001038000000000000     
100   62911028202286990000000000030000000000030000002000000010410408181014270009964773800818223016000996   1030000500030000   598320002101000015172200021MAX ENERGY             PTN           MMR11008181014270009960818000000000000000   10300001 00104100000000000900000000000000     
100   62911028202442250000000000034000000000034000002000000010410408180727560009584773800818223013000958   1030000500030000   598320001902000015172200019MAX ENERGY             PTN           MMR11008180727560009580818000000000000000   10300001 00104100000000001020000000000000     
100   95050326094581320000000000047600000000047600002000000010410408181058260005219530450818223017000521   1030000500030000   541120020601022205411200206ORANGE (NOKL)          PTN           MMR11008181058260005210818000000000000000   10300001 00104100000000011900000000000000     
100   95050325273694860000000000006900000000006900002000000010410408181152450003391026530818000361882586   1030000300030000   581200001818000000000001302CB BANK                SP BAKERY (YA MMR11008181152450003390818000000000000000   10300001F00104100000000002933000000000000     
100   95050325814892040000000000035000000000035000002000000010410408180654460007624693750818223013000762   1030000500030000   598320002003000015172200020MAX ENERGY             PTN           MMR11008180654460007620818000000000000000   10300001 00104100000000004200000000000000     
100   95050316638224720000000000015000000000015000002000000010410408190620035003331567310819000007677860   1030000200030000   333800010001203104000003327KBZPay                 Yangon        MMR11008190620035003330819000000000000000   10300001F05104100000000003150000000000000     
100   95050324154190880000000000027000000000027000002000000010410408180345201064550030860818223003106455   1030000600030000   554100000946315799420000471DENKO BAHAN            YANGON        MMR11008180345201064550818000000000000000   10300001 00104100000000003240000000000000     
100   95050312595952760000000000004950000000004950002000000010410408190706203620448517640819000007678283   1020000200030000   333400010001204104000000281Myanmar Soft-Gate Tech Yangon        MMR11008190706203620440819000000000000000   10300001F05104100000000001040000000000000     
100   95050310148547290000000000050400000000050400002000000010410408190706243624793475090819000007678276   1030000900030000   333800010001202104000003301uab bank               Yangon        MMR11008190706243624790819000000000000000   10300001F05104100000000010584000000000000     
100   95050315158357300000000000002970000000002970002000000010410408190610084008441792400819000007677763   1020000200030000   333400010001204104000000281Myanmar Soft-Gate Tech Yangon        MMR11008190610084008440819000000000000000   10300001F05104100000000000624000000000000     
100   95050319156011610000000000000990000000000990002000000010410408191215244524493538050819000007680052   1020000200030000   333400010001204104000000281Myanmar Soft-Gate Tech Yangon        MMR11008191215244524490819000000000000000   10300001F05104100000000000208000000000000     
100   95050317176867660000000000000990000000000990002000000010410408190724195419377545920819000007678408   1020000200030000   333400010001204104000000281Myanmar Soft-Gate Tech Yangon        MMR11008190724195419370819000000000000000   10300001F05104100000000000208000000000000     
100   95050327531396450000000000056000000000056000002000000010410408191225265526606843020819000007680091   1030000200030000   333800010001203104000003327KBZPay                 Yangon        MMR11008191225265526600819000000000000000   10300001F05104100000000011760000000000000     
100   62911028202662690000000000023700000000023700002000000010410408180302120014564773800818223009001456   1030000500030000   598320001203000015172200012MAX ENERGY             PTN           MMR11008180302120014560818000000000000000   10300001 00104100000000000711000000000000     
100   62911028202795770000000000026040000000026040002000000010410408180235460002814773800818223009000281   1030000500030000   806220046402006308062200464ASIA ROYAL HOSPITAL    PTN           MMR11008180235460002810818000000000000000   10300001 00104100000000001562000000000000     
100   62911028202677390000000000030000000000030000002000000010410408180337540287904773800818223003028790   1030000600030000   554100001118315799420000576DENKO THAN HLYIN - 2   THAN HLYIN    MMR11008180337540287900818000000000000000   10300001 00104100000000000900000000000000     
100   95030301100126550000000000023000000000023000002000000010410408181122250270744773800818223018027074   1040001600030000   598320001065000000010000785Yangon Petrol (Thudama Ygn           MMR11008181122250270740818000000000000000   10300001F00104100000000000690000000000000     
100   62443100300412100000000000213097000000213097002000000010410408180725380157326686620818223007015732   1030000600030000   581200000524315799420000141FUJI COFFEE HOUSE      YANGON        MMR11008180725380157320818000000000000000   10300001 00104100000000090566000000000000     
100   95030388822041290000000000026200000000026200002000000010410408181234040348944773800818223019034894   1040001600030000   581220000375000000010000351SY Cafe and Restaurant Yangon        MMR11008181234040348940818000000000000000   10300001F00104100000000002672000000000000     
100   62443100300743690000000000011950000000011950002000000010410408180611490040290417070818000361829623   1030000300030000   581200001146000000000000804CB BANK                LUMBINI TEA R MMR11008180611490040290818000000000000000   10300001F00104100000000005079000000000000     
100   95050321232876860000000000137000000000137000002000000010410408180257110185619690480818223002018561   1030000600030000   554100002328315799420001235DENKO NAY PYI TAW 2    NAYPYITAW     MMR11008180257110185610818000000000000000   10300001 00104100000000016440000000000000     
100   95050322149411750000000000030000000000030000002000000010410408180744411065044608650818223007106504   1030000600030000   554100000946315799420000471DENKO BAHAN            YANGON        MMR11008180744411065040818000000000000000   10300001 00104100000000003600000000000000     
100   95050310332595380000000000000990000000000990002000000010410408190117294729765047920819000007675569   1020000200030000   333400010001204104000000281Myanmar Soft-Gate Tech Yangon        MMR11008190117294729760819000000000000000   10300001F05104100000000000208000000000000     
100   95050324200302760000000000007100000000007100002000000010410408190721021859310935990819023511302230   1030000900030000   541119001207190110000000948City Mart YK C 5       YANGONAUNG    MMR11008190721021859310819000000000000000   10300001F00104100000000001775000000000000     
100   95050317578818060000000000006445000000006445002000000010410408191634080206720801450819000752274442   1030000200030000   541188001304000008000000325KBZ BANK               CITY MART - A MMR11008191634080206720819000000000000000   10300001 00104100000000001612000000000000     
100   95050313994394430000000000045628000000045628002000000010410408191320121960638155120819532501912230   1030000900030000   541119001330190110000000971Ocean Junction NPT C 8 NAYPYITAW     MMR11008191320121960630819000000000000000   10300001F00104100000000011407000000000000     
100   62911028202471860000000000036300000000036300002000000010410408191409250136824773800819000752264012   1030000200030000   541188001303000008000000325KBZ BANK               CITY MART - A MMR11008191409250136820819000000000000000   10300001 00104100000000002178000000000000     
100   62911028202093430000000000000990000000000990002000000010410408191233110311734773800819000007680143   1020000200030000   333400010001204104000000281Myanmar Soft-Gate Tech Yangon        MMR11008191233110311730819000000000000000   10300001F05104100000000000208000000000000     
100   95050316110433120000000000025834000000025834002000000010410408191001561906925418510819466311656230   1030000900030000   541119001219190110000000945City Mart TM C 4       YANGONONE     MMR11008191001561906920819000000000000000   10300001F00104100000000006459000000000000     
100   62911028202423360000000000030000000000030000002000000010410408180714200883714773800818223007088371   1030000600030000   554100000955315799420000477DENKO INSEIN           YANGON        MMR11008180714200883710818000000000000000   10300001 00104100000000000900000000000000     
100   95050321232876860000000000107000000000107000002000000010410408180500010447389019870818223005044738   1030000600030000   554100001865315799420001235DENKO NAY PYI TAW 2    NAYPYITAW     MMR11008180500010447380818000000000000000   10300001 00104100000000012840000000000000     
100   62443100340422630000000000004400000000004400002000000010410408171052470021254540970817222917002125   1030000500030000   541120229114000045411202291CITY MART YANKIN       PTN           MMR11008171052470021250817000000000000000   10300001 00104100000000001100000000000000     
100   62443100323428970000000000018600000000018600002000000010410408170526380007603903930817222911000760   1030000500030000   541120203812000015411202038CITY MART SUPERMARKET  PTN           MMR11008170526380007600817000000000000000   10300001 00104100000000004650000000000000     
100   62443100313112320000000000055000000000055000002000000010410408171415411064025122850817222914106402   1030000600030000   554100000946315799420000471DENKO BAHAN            YANGON        MMR11008171415411064020817000000000000000   10300001 00104100000000006600000000000000     
100   62911028202790980000000000095000000000095000002000000010410408171239540047284773800817222912004728   1030000600030000   554100001260315799420000714DENKO LET PA TAN       LET PA TAN.   MMR11008171239540047280817000000000000000   10300001 00104100000000002850000000000000     
100   95050313482452630000000000150000000000150000002000000010410408190857060007827133970819000752270533   1030000200030000   594488000253000008000002280KBZ BANK               PWINT HTUN GO MMR11008190857060007820819000000000000000   10300001 00104100000000036000000000000000     
100   62443100312243020000000000037400000000037400002000000010410408191721580010355445820819000752277144   1030000200030000   541188001288000008000001475KBZ BANK               CITY CARE STA MMR11008191721580010350819000000000000000   10300001 00104100000000009350000000000000     
100   95050312641885210000000000026000000000026000002000000010410408191034481917124276610819011041748230   1030000900030000   569119001498190110000001092Next Generation GCS GM YANGONUT      MMR11008191034481917120819000000000000000   10300001F00104100000000006240000000000000     
100   62443100306416880000000000028447000000028447002000000010410408191708330115037921960819000752276298   1030000200030000   541188001060000008000000314KBZ BANK               MARKETPLACE - MMR11008191708330115030819000000000000000   10300001 00104100000000007112000000000000     
100   95050319709462380000000000003000000000003000002000000010410408190355292529339423490819000007676594   1030000200030000   3338000100012031040000040022C2P (Myanmar) Co. Ltd Yangon        MMR11008190355292529330819000000000000000   10300001F05104100000000000630000000000000     
100   95050316385053500000000000004950000000004950002000000010410408191100270001318665700819000752277714   1030000200030000   549988002602000008000007015KBZ BANK               111 MART      MMR11008191100270001310819000000000000000   10300001 00104100000000002104000000000000     
100   95030378828065520000000000007200000000007200002000000010410408191101450001324773800819000752277788   1030000200030000   549988002602000008000007015KBZ BANK               111 MART      MMR11008191101450001320819000000000000000   10300001 00104100000000000734000000000000     
100   95050319148803370000000000125000000000125000002000000010410408190844220007798212900819000752269708   1030000200030000   594488000253000008000002280KBZ BANK               PWINT HTUN GO MMR11008190844220007790819000000000000000   10300001 00104100000000030000000000000000     
100   62443100330108240000000000004950000000004950002000000010410408190731350135159028220819000007678470   1020000200030000   333400010001204104000000281Myanmar Soft-Gate Tech Yangon        MMR11008190731350135150819000000000000000   10300001F05104100000000001040000000000000     
100   95050318741700180000000000000990000000000990002000000010410408191231510151048410410819000007680136   1020000200030000   333400010001204104000000281Myanmar Soft-Gate Tech Yangon        MMR11008191231510151040819000000000000000   10300001F05104100000000000208000000000000     
100   62911028202691640000000000039900000000039900002000000010410408191837310084014773800819000752280787   1030000200030000   541188001005000008000000008KBZ BANK               MARKETPLACE - MMR11008191837310084010819000000000000000   10300001 00104100000000002394000000000000     
100   95050319996628650000000000000990000000000990002000000010410408182332060206257466280819000007675442   1020000200030000   333400010001204104000000281Myanmar Soft-Gate Tech Yangon        MMR11008182332060206250819000000000000000   10300001F05104100000000000208000000000000     
100   95050317517212300000000000037100000000037100002000000010410408190545580838555437750819223112083855   1040001600030000   541120000569000000010000465Ocean Shwe Gone Daing  Yangon        MMR11008190545580838550819000000000000000   10300001F00104100000000009275000000000000     
100   62911028202233510000000000015300000000015300002000000010410408191756520193924773800819000752279065   1030000200030000   541188001023000008000000298KBZ BANK               CITY MART - M MMR11008191756520193920819000000000000000   10300001 00104100000000000918000000000000     
100   95050317072727910000000000057345000000057345002000000010410408190337380738562898650819000007676353   1030000200030000   333800010001203104000003327KBZPay                 Yangon        MMR11008190337380738560819000000000000000   10300001F05104100000000012042000000000000     
100   62911028202161240000000000001800000000001800002000000010410408191038340136614773800819000752243205   1030000200030000   541188001033000008000000298KBZ BANK               CITY MART - M MMR11008191038340136610819000000000000000   10300001 00104100000000000108000000000000     
100   62443100300412100000000000125198000000125198002000000010410408190959240022959063870819000752274128   1030000200030000   806281231112000008000001642KBZ BANK               ASIA ROYAL HO MMR11008190959240022950819000000000000000   10300001 00104100000000030048000000000000     
100   62911028202169750000000000003200000000003200002000000010410408191447510027314773800819000752267494   1030000200030000   541188001284000008000000319KBZ BANK               NEIGHBOURHOOD MMR11008191447510027310819000000000000000   10300001 00104100000000000192000000000000     
100   95050327192897240000000000004800000000004800002000000010410408191310500082069659550819000752257951   1030000200030000   541188001066000008000000314KBZ BANK               MARKETPLACE - MMR11008191310500082060819000000000000000   10300001 00104100000000001200000000000000     
100   62911028202233510000000000003800000000003800002000000010410408191804510220994773800819000752279407   1030000200030000   541188001032000008000000298KBZ BANK               CITY MART - M MMR11008191804510220990819000000000000000   10300001 00104100000000000228000000000000     
100   95050313817486860000000000004950000000004950002000000010410408191230520052796757930819000007680130   1020000200030000   333400010001204104000000281Myanmar Soft-Gate Tech Yangon        MMR11008191230520052790819000000000000000   10300001F05104100000000001040000000000000     
100   62443100372718280000000000050000000000050000002000000010410408190042420661370175570819223107066137   1040001600030000   598320001170000000010000527Shwe Taung Energy (YGN Yangon        MMR11008190042420661370819000000000000000   10300001F00104100000000006000000000000000     
100   62911028202161240000000000022435000000022435002000000010410408191035480429474773800819000752242968   1030000200030000   541188001024000008000000298KBZ BANK               CITY MART - M MMR11008191035480429470819000000000000000   10300001 00104100000000001346000000000000     
100   62443100336591330000000000072990000000072990002000000010410408190200390710021998240819223109071002   1040001600030000   806220001354000000010001061Grand Hantha Internati Ygn           MMR11008190200390710020819000000000000000   10300001F00104100000000017518000000000000     
100   95050328161730520000000000200000000000200000002000000010410408190835480548864822840819000007678856   1030000200030000   333800010001203104000003327KBZPay                 Yangon        MMR11008190835480548860819000000000000000   10300001F05104100000000042000000000000000     
100   62911028202491410000000000034500000000034500002000000010410408190422450784994773800819223111078499   1040001600030000   806220001358000000010001061Grand Hantha Internati Ygn           MMR11008190422450784990819000000000000000   10300001F00104100000000002070000000000000     
100   62911028202448030000000000055850000000055850002000000010410408191732570077224773800819000752277841   1030000200030000   541188001021000008000000298KBZ BANK               CITY MART - M MMR11008191732570077220819000000000000000   10300001 00104100000000003351000000000000     
100   62911028202611530000000000044550000000044550002000000010410408190346480765694773800819223110076569   1040001600030000   541120000553000000010000465Ocean Shwe Gone Daing  Yangon        MMR11008190346480765690819000000000000000   10300001F00104100000000002673000000000000     
100   95050310332595380000000000000990000000000990002000000010410408191330420042913112570819000007680403   1020000200030000   333400010001204104000000281Myanmar Soft-Gate Tech Yangon        MMR11008191330420042910819000000000000000   10300001F05104100000000000208000000000000     
100   95050313763920110000000000100800000000100800002000000010410408190246211621576360020819000007675892   1030000900030000   333800010001202104000003301uab bank               Yangon        MMR11008190246211621570819000000000000000   10300001F05104100000000021168000000000000     
100   95050312240830690000000000000990000000000990002000000010410408191446551655115736770819000007680730   1020000200030000   333400010001204104000000281Myanmar Soft-Gate Tech Yangon        MMR11008191446551655110819000000000000000   10300001F05104100000000000208000000000000     
100   95050311438762210000000000020000000000020000002000000010410408190246551655588012510819000007675894   1030000200030000   333800010001203104000003327KBZPay                 Yangon        MMR11008190246551655580819000000000000000   10300001F05104100000000004200000000000000     
100   95050310685238570000000000012500000000012500002000000010410408190217261776861913150819075470826230   1030000900030000   541119000113190110000000077Sein Gay Har Chinatown YANGON        MMR11008190217261776860819000000000000000   10300001F00104100000000003125000000000000     
100   62911028202446540000000000022800000000022800002000000010410408190815481875614773800819890451448230   1030000900030000   723019001053190110000000856The Body Shop JC       YANGONN       MMR11008190815481875610819000000000000000   10300001F00104100000000001368000000000000     
100   62911028202688850000000000013700000000013700002000000010410408191023071913214773800819792531607230   1030000900030000   541119001186190110000000942City Mart HDC C 1      YANGONUT      MMR11008191023071913210819000000000000000   10300001F00104100000000000822000000000000     
100   95050310534130230000000000004187000000004187002000000010410408191036191917691056740819047061719230   1030000900030000   541119001203190110000000948City Mart YK C 1       YANGONAUNG    MMR11008191036191917690819000000000000000   10300001F00104100000000001047000000000000     
100   62443100312243020000000000032000000000032000002000000010410408191110121927449006080819613401712230   1030000900030000   541119000121190110000000080Sein Gay Har BAK       YANGONADA     MMR11008191110121927440819000000000000000   10300001F00104100000000008000000000000000     
100   62911028202355870000000001000000000001000000002000000010410408181752062206654773800819000007675261   1030000600030000   333800010001230104000004564Trusty Wallet          Yangon        MMR11008181752062206650819000000000000000   10300001F05104100000000210000000000000000     
100   62911028202355870000000001000000000001000000002000000010410408181753292329224773800819000007675263   1030000600030000   333800010001230104000004564Trusty Wallet          Yangon        MMR11008181753292329220819000000000000000   10300001F05104100000000210000000000000000     
100   95030366960186690000000000008460000000008460002000000010410408190712510895454773800819223114089545   1040001600030000   806220001356000000010001061Grand Hantha Internati Ygn           MMR11008190712510895450819000000000000000   10300001F00104100000000000508000000000000     
100   95050315344668630000000000008100000000008100002000000010410408191035411035539574450819223117103553   1040001600030000   591220001007000000010000737Shwe Ohh Pharmacy (Tan Ygn           MMR11008191035411035530819000000000000000   10300001F00104100000000001944000000000000     
100   62911028202136750000000000046000000000046000002000000010410408191119401083864773800819223118108386   1040001600030000   598320001456000000010001150360 Petro (Bayint Naun Ygn           MMR11008191119401083860819000000000000000   10300001F00104100000000001380000000000000     
100   95050311779172060000000000005000000000005000002000000010410408191348041804366332440819000007680481   1030000200030000   333800010001203104000003327KBZPay                 Yangon        MMR11008191348041804360819000000000000000   10300001F05104100000000001050000000000000     
100   62443100317863910000000000050000000000050000002000000010410408191150211117991715380819223118111799   1040001600030000   598320000911000000010000662MMTM - Tamwe           Ygn           MMR11008191150211117990819000000000000000   10300001F00104100000000006000000000000000     
100   95050317834964620000000000006314000000006314002000000010410408191037071917946014190819063071707230   1030000900030000   541119001355190110000000977Ocean PZD C9           YANGONAUNG    MMR11008191037071917940819000000000000000   10300001F00104100000000001579000000000000     
100   95050313994394430000000000037650000000037650002000000010410408191322571961158070020819559521957230   1030000900030000   541119001330190110000000971Ocean Junction NPT C 8 NAYPYITAW     MMR11008191322571961150819000000000000000   10300001F00104100000000009413000000000000     
100   95050313732480420000000000000990000000000990002000000010410408190349541954909508580819000007676545   1020000200030000   333400010001204104000000281Myanmar Soft-Gate Tech Yangon        MMR11008190349541954900819000000000000000   10300001F05104100000000000208000000000000     
100   95050312539675540000000000000990000000000990002000000010410408190451432143855267560819000007677069   1020000200030000   333400010001204104000000281Myanmar Soft-Gate Tech Yangon        MMR11008190451432143850819000000000000000   10300001F05104100000000000208000000000000     
100   62911028202355870000000001000000000001000000002000000010410408181757232723354773800819000007675270   1030000600030000   333800010001230104000004564Trusty Wallet          Yangon        MMR11008181757232723350819000000000000000   10300001F05104100000000210000000000000000     
100   62443100384660050000000000078000000000078000002000000010410408191024550807527751770819545520071930   1040001400030000   598310000056025983100000489BOC BOC Ma-83  35th st eet  Bet52 &  MMR11008191024550807520819000000000000000   10300001 00104100000000009360000000000000     
100   95050310102690960000000000002000000000002000002000000010410408190720121858995893440819003501312230   1030000900030000   541119001371190110000000978Ocean PZD Season C 1   YANGONAUNG    MMR11008190720121858990819000000000000000   10300001F00104100000000000500000000000000     
100   95050325095525130000000000100000000000100000002000000010410408190754462446956233830819000007678606   1030000200030000   333800010001203104000003327KBZPay                 Yangon        MMR11008190754462446950819000000000000000   10300001F05104100000000021000000000000000     
100   95050326155679180000000000008910000000008910002000000010410408190603493349508232140819000007677705   1020000200030000   333400010001204104000000281Myanmar Soft-Gate Tech Yangon        MMR11008190603493349500819000000000000000   10300001F05104100000000001871000000000000     
100   95050319156011610000000000008300000000008300002000000010410408190226521778679750080819131560852230   1030000900030000   541119001462190110000000077Sein Gay Har Chinatown YANGON        MMR11008190226521778670819000000000000000   10300001F00104100000000002075000000000000     
100   95050318180109730000000000019500000000019500002000000010410408190426121810790905780819606561012230   1030000900030000   541119000113190110000000077Sein Gay Har Chinatown YANGON        MMR11008190426121810790819000000000000000   10300001F00104100000000004875000000000000     
100   95050325455962190000000000014850000000014850002000000010410408191542391239789041740819000007680957   1020000200030000   333400010001204104000000281Myanmar Soft-Gate Tech Yangon        MMR11008191542391239780819000000000000000   10300001F05104100000000003119000000000000     
100   62443100373945130000000000030000000000030000002000000010410408191059261061541970660819223117106154   1040001600030000   598320000911000000010000662MMTM - Tamwe           Ygn           MMR11008191059261061540819000000000000000   10300001F00104100000000003600000000000000     
100   95050314649264560000000000007000000000007000002000000010410408190245371537941317480819000007675888   1030000200030000   333800010001203104000003327KBZPay                 Yangon        MMR11008190245371537940819000000000000000   10300001F05104100000000001470000000000000     
100   62443100340422630000000000002300000000002300002000000010410408190853330953535481480819223115095353   1040001600030000   541120000132000000010000126Asia Light Supermarket Yangon        MMR11008190853330953530819000000000000000   10300001F00104100000000000575000000000000     
100   95050311779172060000000000004300000000004300002000000010410408191254572457252772190819000007680238   1030000200030000   333800010001203104000003327KBZPay                 Yangon        MMR11008191254572457250819000000000000000   10300001F05104100000000000903000000000000     
100   95050315615561720000000000000990000000000990002000000010410408190041461146609033660819000007675506   1020000200030000   333400010001204104000000281Myanmar Soft-Gate Tech Yangon        MMR11008190041461146600819000000000000000   10300001F05104100000000000208000000000000     
100   95050312240830690000000000000990000000000990002000000010410408191449391939537389250819000007680746   1020000200030000   333400010001204104000000281Myanmar Soft-Gate Tech Yangon        MMR11008191449391939530819000000000000000   10300001F05104100000000000208000000000000     
100   95030314100001680000000000002970000000002970002000000010410408190951492149024773800819000007679422   1020000200030000   333400010001204104000000281Myanmar Soft-Gate Tech Yangon        MMR11008190951492149020819000000000000000   10300001F05104100000000000624000000000000     
100   62911028202421380000000000014750000000014750002000000010410408190641221847464773800819393111322230   1030000900030000   581419000966190110000000773Yuki Mugi Bakery       YANGONONE     MMR11008190641221847460819000000000000000   10300001F00104100000000000443000000000000     
100   62443100318296470000000000032450000000032450002000000010410408191145191937790062890819217151819230   1030000900030000   581219000698190110000000529Pizzamaru Myanmar (San YANGONUNG     MMR11008191145191937790819000000000000000   10300001F00104100000000013792000000000000     
100   62911028202533900000000000020000000000020000002000000010410408190454580802654773800819223111080265   1040001600030000   598320001062000000010000782Yangon Petrol (South/N Ygn           MMR11008190454580802650819000000000000000   10300001F00104100000000000600000000000000     
100   95050324250133010000000000113000000000113000002000000010410408191222521154860147990819223119115486   1040001600030000   598320000911000000010000662MMTM - Tamwe           Ygn           MMR11008191222521154860819000000000000000   10300001F00104100000000013560000000000000     
100   95050319391394380000000000007550000000007550002000000010410408191055371923607013210819396251737230   1030000900030000   541119000120190110000000080Sein Gay Har BAK       YANGONADA     MMR11008191055371923600819000000000000000   10300001F00104100000000001888000000000000     
100   95050320335873810000000000035000000000035000002000000010410408190949371937120631260819000007679409   1030000200030000   333800010001203104000003327KBZPay                 Yangon        MMR11008190949371937120819000000000000000   10300001F05104100000000007350000000000000     
100   62443100323117100000000000020000000000020000002000000010410408191155342534871630280819000007679973   1030000200030000   333800010001203104000003327KBZPay                 Yangon        MMR11008191155342534870819000000000000000   10300001F05104100000000004200000000000000     
100   62911028202355870000000001000000000001000000002000000010410408181754592459414773800819000007675266   1030000600030000   333800010001230104000004564Trusty Wallet          Yangon        MMR11008181754592459410819000000000000000   10300001F05104100000000210000000000000000     
100   95050311068653690000000000100000000000100000002000000010410408191244271427587729640819000007680193   1030000200030000   333800010001203104000003327KBZPay                 Yangon        MMR11008191244271427580819000000000000000   10300001F05104100000000021000000000000000     
100   95050322318997110000000000010000000000010000002000000010410408190851042104580438930819000007678943   1030000200030000   333800010001203104000003327KBZPay                 Yangon        MMR11008190851042104580819000000000000000   10300001F05104100000000002100000000000000     
100   95030314863516850000000000023000000000023000002000000010410408190657162716104773800819000007678214   1030000200030000   333800010001203104000003327KBZPay                 Yangon        MMR11008190657162716100819000000000000000   10300001F05104100000000004830000000000000     
100   95050313970192050000000000027800000000027800002000000010410408190650111850353645280819547201311230   1030000900030000   541119000122190110000000080Sein Gay Har BAK       YANGONADA     MMR11008190650111850350819000000000000000   10300001F00104100000000006950000000000000     
100   62911028202355870000000001000000000001000000002000000010410408181756032603994773800819000007675268   1030000600030000   333800010001230104000004564Trusty Wallet          Yangon        MMR11008181756032603990819000000000000000   10300001F05104100000000210000000000000000     
100   95050315889680120000000000001000000000001000002000000010410408191601263126600694220819000007681021   1030000200030000   333800010001203104000003327KBZPay                 Yangon        MMR11008191601263126600819000000000000000   10300001F05104100000000000210000000000000     
100   95050327456215690000000000055002000000055002002000000010410408190623390864599999930819223113086459   1040001600030000   598320000316000000010000304PT Power Petrol Statio Yangon        MMR11008190623390864590819000000000000000   10300001F00104100000000006600000000000000     
100   95050319156011610000000000002970000000002970002000000010410408191614294429540609130819000007681054   1020000200030000   333400010001204104000000281Myanmar Soft-Gate Tech Yangon        MMR11008191614294429540819000000000000000   10300001F05104100000000000624000000000000     
100   95050328074436620000000000009900000000009900002000000010410408190914094409180205780819000007679095   1020000200030000   333400010001204104000000281Myanmar Soft-Gate Tech Yangon        MMR11008190914094409180819000000000000000   10300001F05104100000000002079000000000000     
100   95050312539675540000000000000990000000000990002000000010410408190449361936715352650819000007677052   1020000200030000   333400010001204104000000281Myanmar Soft-Gate Tech Yangon        MMR11008190449361936710819000000000000000   10300001F05104100000000000208000000000000     
100   95050319996628650000000000004950000000004950002000000010410408190017574757634076210819000007675486   1020000200030000   333400010001204104000000281Myanmar Soft-Gate Tech Yangon        MMR11008190017574757630819000000000000000   10300001F05104100000000001040000000000000     
100   95050328074436620000000000004950000000004950002000000010410408190927095709320375970819000007679207   1020000200030000   333400010001204104000000281Myanmar Soft-Gate Tech Yangon        MMR11008190927095709320819000000000000000   10300001F05104100000000001040000000000000     
100   62443100300743690000000000006400000000006400002000000010410408181119160000152750320818000361877721   1030000300030000   701100000773000000000000523CB BANK                KFC (MINISTER MMR11008181119160000150818000000000000000   10300001F00104100000000002720000000000000     
100   95050313817486860000000000004950000000004950002000000010410408190323215321498097600819000007676214   1020000200030000   333400010001204104000000281Myanmar Soft-Gate Tech Yangon        MMR11008190323215321490819000000000000000   10300001F05104100000000001040000000000000     
100   95050310427855490000000000001980000000001980002000000010410408191529075907493999190819000007680908   1020000200030000   333400010001204104000000281Myanmar Soft-Gate Tech Yangon        MMR11008191529075907490819000000000000000   10300001F05104100000000000416000000000000     
100   95030314863516850000000000025000000000025000002000000010410408190619464946664773800819000007677851   1030000200030000   333800010001203104000003327KBZPay                 Yangon        MMR11008190619464946660819000000000000000   10300001F05104100000000005250000000000000     
100   95030306100096490000000000002970000000002970002000000010410408191406333633694773800819000007680563   1020000200030000   333400010001204104000000281Myanmar Soft-Gate Tech Yangon        MMR11008191406333633690819000000000000000   10300001F05104100000000000624000000000000     
100   95050322318997110000000000010000000000010000002000000010410408190927355735635333420819000007679193   1030000200030000   333800010001203104000003327KBZPay                 Yangon        MMR11008190927355735630819000000000000000   10300001F05104100000000002100000000000000     
100   62911028202110420000000000069000000000069000002000000010410408191337314572364773800819073146192654   1040001400030000   592110000077015921100000365Million Mart Million M rt No. (519/  MMR11008191337314572360819000000000000000   10300001 00104100000000004140000000000000     
100   95050310685238570000000000011850000000011850002000000010410408190228011778871402570819136580801230   1030000900030000   541119000112190110000000077Sein Gay Har Chinatown YANGON        MMR11008190228011778870819000000000000000   10300001F00104100000000002963000000000000     
100   95050314931885730000000000001000000000001000002000000010410408190521315131576834950819000007677354   1030000200030000   3338000100012031040000040022C2P (Myanmar) Co. Ltd Yangon        MMR11008190521315131570819000000000000000   10300001F05104100000000000210000000000000     
100   95050323233042810000000000000990000000000990002000000010410408190401033103569763880819000007676652   1020000200030000   333400010001204104000000281Myanmar Soft-Gate Tech Yangon        MMR11008190401033103560819000000000000000   10300001F05104100000000000208000000000000     
100   62911028202156540000000000123680000000123680002000000010410408180500280001264773800818000361817607   1030000300030000   806200001839000000000001318CB BANK                ASIA ROYAL CO MMR11008180500280001260818000000000000000   10300001F00104100000000007421000000000000     
100   95030308100042590000000000086000000000086000002000000010410408181131330007184773800818223018000718   1030000500030000   598320001704000015172200017MAX ENERGY             PTN           MMR11008181131330007180818000000000000000   10300001 00104100000000002580000000000000     
100   62443100355445150000000000075850000000075850002000000010410408180318270004097867800818000361800933   1030000300030000   541100002355000000000000102CB BANK                MAKRO MYANMAR MMR11008180318270004090818000000000000000   10300001F00104100000000018963000000000000     
100   95050312482469810000000000035250000000035250002000000010410408180807010005129154410818223014000512   1030000500030000   541120020601022205411200206ORANGE (NOKL)          PTN           MMR11008180807010005120818000000000000000   10300001 00104100000000008813000000000000     
100   62911028202045260000000000025000000000025000002000000010410408180829140011434773800818223014001143   1030000500030000   598320001201000015172200012MAX ENERGY             PTN           MMR11008180829140011430818000000000000000   10300001 00104100000000000750000000000000     
100   62911028202743960000000000004800000000004800002000000010410408180939250000804773800818223016000080   1030000500030000   598320005202000015172200052MAX ENERGY             PTN           MMR11008180939250000800818000000000000000   10300001 00104100000000000144000000000000     
100   62911028202314040000000000025000000000025000002000000010410408180805530001844773800818000361848739   1030000300030000   701100003008000000000002106CB BANK                TRENDI FASHIO MMR11008180805530001840818000000000000000   10300001F00104100000000002550000000000000     
100   62443100317863910000000000052789000000052789002000000010410408181255390003892849210818223019000389   1030000500030000   581220248501000085812202485CHILLI POT MALA XIANG  PTN           MMR11008181255390003890818000000000000000   10300001 00104100000000022436000000000000     
100   95030301100102610000000000020000000000020000002000000010410408190858242824814773800819000007678992   1030000200030000   333800010001203104000003327KBZPay                 Yangon        MMR11008190858242824810819000000000000000   10300001F05104100000000004200000000000000     
100   95050315066440750000000000000990000000000990002000000010410408191219054905845190530819000007680061   1020000200030000   333400010001204104000000281Myanmar Soft-Gate Tech Yangon        MMR11008191219054905840819000000000000000   10300001F05104100000000000208000000000000     
100   95050311779172060000000000010000000000010000002000000010410408182243141314459203850819000007675419   1030000200030000   333800010001203104000003327KBZPay                 Yangon        MMR11008182243141314450819000000000000000   10300001F05104100000000002100000000000000     
100   95050322478649490000000000200000000000200000002000000010410408191026335633037836870819000007679604   1030000200030000   333800010001203104000003327KBZPay                 Yangon        MMR11008191026335633030819000000000000000   10300001F05104100000000042000000000000000     
100   95050314307746340000000000000990000000000990002000000010410408191225455545488495510819000007680088   1020000200030000   333400010001204104000000281Myanmar Soft-Gate Tech Yangon        MMR11008191225455545480819000000000000000   10300001F05104100000000000208000000000000     
100   95050311959900780000000000000990000000000990002000000010410408191614004400468956640819000007681052   1020000200030000   333400010001204104000000281Myanmar Soft-Gate Tech Yangon        MMR11008191614004400460819000000000000000   10300001F05104100000000000208000000000000     
100   95050314534800510000000000000990000000000990002000000010410408191024085408074446800819000007679593   1020000200030000   333400010001204104000000281Myanmar Soft-Gate Tech Yangon        MMR11008191024085408070819000000000000000   10300001F05104100000000000208000000000000     
100   95050311959900780000000000000990000000000990002000000010410408190110424042185133020819000007675556   1020000200030000   333400010001204104000000281Myanmar Soft-Gate Tech Yangon        MMR11008190110424042180819000000000000000   10300001F05104100000000000208000000000000     
100   95050315344668630000000000014895000000014895002000000010410408181102390001647792870818223017000164   1030000500030000   591220211101014405912202111SHWE OHH PHARMACY      PTN           MMR11008181102390001640818000000000000000   10300001 00104100000000003575000000000000     
100   62911028202530930000000000094000000000094000002000000010410408180208210010094773800818223008001009   1030000500030000   598320001603000015172200016MAX ENERGY             PTN           MMR11008180208210010090818000000000000000   10300001 00104100000000002820000000000000     
100   62911028202105230000000000025000000000025000002000000010410408180116080009344773800818223007000934   1030000500030000   598320002702000015172200027MAX ENERGY             PTN           MMR11008180116080009340818000000000000000   10300001 00104100000000000750000000000000     
100   62911028202696360000000000050000000000050000002000000010410408180205330008974773800818223008000897   1030000500030000   598320068303000055983200683MAX ENERGY             PTN           MMR11008180205330008970818000000000000000   10300001 00104100000000001500000000000000     
100   95050314829126520000000000008800000000008800002000000010410408181004080013235168670818223016001323   1030000500030000   541120203703000015411202037CITY MART SUPERMARKET  PTN           MMR11008181004080013230818000000000000000   10300001 00104100000000002200000000000000     
100   62911028202170490000000000003600000000003600002000000010410408180714460004294773800818223013000429   1030000500030000   581220264101000085812202641BREAD TALK             PTN           MMR11008180714460004290818000000000000000   10300001 00104100000000000367000000000000     
100   62911028202045260000000000015300000000015300002000000010410408180840210008004773800818223015000800   1030000500030000   541120233301000045411202333CITY EXPRESS (MCS - 19 PTN           MMR11008180840210008000818000000000000000   10300001 00104100000000000918000000000000     
100   62443100315110470000000000071920000000071920002000000010410408180447490004639104970818223011000463   1030000500030000   569120096201019505691200962MK FASHION SHOP        PTN           MMR11008180447490004630818000000000000000   10300001 00104100000000017261000000000000     
100   95050310427855490000000000000990000000000990002000000010410408181711204120282168440819000007675180   1020000200030000   333400010001204104000000281Myanmar Soft-Gate Tech Yangon        MMR11008181711204120280819000000000000000   10300001F05104100000000000208000000000000     
100   95050315743141220000000000000990000000000990002000000010410408190314324432071487670819000007676121   1020000200030000   333400010001204104000000281Myanmar Soft-Gate Tech Yangon        MMR11008190314324432070819000000000000000   10300001F05104100000000000208000000000000     
100   95050314557307430000000000002970000000002970002000000010410408190922235223191943360819000007679161   1020000200030000   333400010001204104000000281Myanmar Soft-Gate Tech Yangon        MMR11008190922235223190819000000000000000   10300001F05104100000000000624000000000000     
100   95050319996628650000000000009900000000009900002000000010410408190020215021835728700819000007675491   1020000200030000   333400010001204104000000281Myanmar Soft-Gate Tech Yangon        MMR11008190020215021830819000000000000000   10300001F05104100000000002079000000000000     
100   95050315259054570000000000036000000000036000002000000010410408191023395339816099290819000007679595   1030000200030000   333800010001203104000003327KBZPay                 Yangon        MMR11008191023395339810819000000000000000   10300001F05104100000000007560000000000000     
100   95050316043499650000000000000990000000000990002000000010410408191628515851965651670819000007681090   1020000200030000   333400010001204104000000281Myanmar Soft-Gate Tech Yangon        MMR11008191628515851960819000000000000000   10300001F05104100000000000208000000000000     
100   95050313817486860000000000000990000000000990002000000010410408190328175817923140150819000007676265   1020000200030000   333400010001204104000000281Myanmar Soft-Gate Tech Yangon        MMR11008190328175817920819000000000000000   10300001F05104100000000000208000000000000     
100   95050321798808970000000000015000000000015000002000000010410408190306193619998267800819000007676014   1030000200030000   333800010001203104000003327KBZPay                 Yangon        MMR11008190306193619990819000000000000000   10300001F05104100000000003150000000000000     
