100   95050314995854750000000000005000000000005000002000000010410408210328530002553332480821000362336771   1030000300030000   541100000864000000000000600CB BANK                ONE STOP MART MMR11008210328530002550821000000000000000   10300001F00104100000000001250000000000000     
100   95050311876202380000000000060000000000060000002000000010410408211018130004940474850821223316000494   1030000500030000   598320003202000015172200032MAX ENERGY             PTN           MMR11008211018130004940821000000000000000   10300001 00104100000000007200000000000000     
100   62911028202698670000000000006650000000006650002000000010410408210625190009224773800821223312000922   1030000500030000   541120020902022205411200209ORANGE (HLAING)        PTN           MMR11008210625190009220821000000000000000   10300001 00104100000000000399000000000000     
100   62911028202136750000000000035700000000035700002000000010410408210538090000014773800821000362353551   1030000300030000   571900000759000000000000516CB BANK                PRO 1 HOME CE MMR11008210538090000010821000000000000000   10300001F00104100000000002142000000000000     
100   62443100350052510000000000063000000000063000002000000010410408210621180001470694490821223312000147   1030000500030000   581220123001000045812201230YOON KITCHEN           PTN           MMR11008210621180001470821000000000000000   10300001 00104100000000026775000000000000     
100   62911028202790310000000000050007000000050007002000000010410408210225360012264773800821223308001226   1030000500030000   598320001604000015172200016MAX ENERGY             PTN           MMR11008210225360012260821000000000000000   10300001 00104100000000001500000000000000     
100   62911028202471860000000000010000000000010000002000000010410408211311270000024773800821000362415889   1030000300030000   581200001524000000000001073CB BANK                YKKO (YKN)    MMR11008211311270000020821000000000000000   10300001F00104100000000001020000000000000     
100   62911028202232860000000000050000000000050000002000000010410408210632360011334773800821223313001133   1030000500030000   598320001902000015172200019MAX ENERGY             PTN           MMR11008210632360011330821000000000000000   10300001 00104100000000001500000000000000     
100   62911028202466670000000000116650000000116650002000000010410408210934040001194773800821223316000119   1030000500030000   591220012301014405912200123SHWE OHH PHARMACY      PTN           MMR11008210934040001190821000000000000000   10300001 00104100000000006999000000000000     
100   62443100300792360000000000023340000000023340002000000010410408210919130003606489110821000362384452   1030000300030000   541100001219000000000000826CB BANK                PROMART       MMR11008210919130003600821000000000000000   10300001F00104100000000005835000000000000     
100   95050324622440820000000000021200000000021200002000000010410408210319320016522821900821223309001652   1030000500030000   541120227605000045411202276CITY MART ( 47 BRANCH  PTN           MMR11008210319320016520821000000000000000   10300001 00104100000000005300000000000000     
100   95050324247403260000000000085590000000085590002000000010410408211026580000075517400821223316000007   1030000500030000   531120226731000045311202267OCEAN NORTH POINT      PTN           MMR11008211026580000070821000000000000000   10300001 00104100000000020542000000000000     
100   62911028202471600000000000026500000000026500002000000010410408210926020001444773800821223315000144   1030000500030000   591220014301014405912200143SHWE OHH PHARMACY      PTN           MMR11008210926020001440821000000000000000   10300001 00104100000000001590000000000000     
100   62911028202662690000000000045800000000045800002000000010410408210851320010644773800821000752358281   1030000200030000   569988002501000008000006688KBZ BANK               ST-JOHN IPANE MMR11008210851320010640821000000000000000   10300001 00104100000000002748000000000000     
100   62911028202677880000000000270411000000270411002000000010410408211116530013624773800821223317001362   1030000500030000   541120226802000045411202268CITY MART WAIZAYANDA   PTN           MMR11008211116530013620821000000000000000   10300001 00104100000000016225000000000000     
100   62911028202107210000000000150000000000150000002000000010410408210846380023124773800821000362379886   1030000300030000   541100003028000000000000102CB BANK                MAKRO MYANMAR MMR11008210846380023120821000000000000000   10300001F00104100000000009000000000000000     
100   95030301100022270000000000545900000000545900002000000010410408210912300008744773800821223315000874   1030000500030000   503920036604000015039200366PRO-1 HOME CENTER      PTN           MMR11008210912300008740821000000000000000   10300001 00104100000000032754000000000000     
100   62911028202790800000000000074560000000074560002000000010410408210834270004904773800821223315000490   1030000500030000   598320003202000015172200032MAX ENERGY             PTN           MMR11008210834270004900821000000000000000   10300001 00104100000000002237000000000000     
100   62911028202448030000000000071700000000071700002000000010410408210751060011824773800821000362372023   1030000300030000   541100002331000000000000102CB BANK                MAKRO MYANMAR MMR11008210751060011820821000000000000000   10300001F00104100000000004302000000000000     
100   62911028202214130000000000043400000000043400002000000010410408210333340017534773800821223310001753   1030000500030000   598320001203000015172200012MAX ENERGY             PTN           MMR11008210333340017530821000000000000000   10300001 00104100000000001302000000000000     
100   62443100300792360000000000005150000000005150002000000010410408210500180003771836400821223311000377   1030000500030000   581220264201000085812202642BREAD TALK             PTN           MMR11008210500180003770821000000000000000   10300001 00104100000000002189000000000000     
100   62911028202162640000000000011300000000011300002000000010410408210321220003494773800821223309000349   1030000500030000   591220132901008605912201329THEIK DI WIN SHOP      PTN           MMR11008210321220003490821000000000000000   10300001 00104100000000000678000000000000     
100   62911028202421380000000000060000000000060000002000000010410408210346380011424773800821223310001142   1030000500030000   598320001901000015172200019MAX ENERGY             PTN           MMR11008210346380011420821000000000000000   10300001 00104100000000001800000000000000     
100   62911028202027440000000000014500000000014500002000000010410408210643310017874773800821223313001787   1030000500030000   531120226327000045311202263OCEAN SUPER CENTER STJ PTN           MMR11008210643310017870821000000000000000   10300001 00104100000000000870000000000000     
100   95030318100004530000000000019000000000019000002000000010410408210359120000794773800821223310000079   1030000500030000   503920036905017205039200369PRO-1 HOME CENTER      PTN           MMR11008210359120000790821000000000000000   10300001 00104100000000001140000000000000     
100   62911028202363380000000000017000000000017000002000000010410408210505240002184773800821223311000218   1030000500030000   569120170701008205691201707ESCORT                 PTN           MMR11008210505240002180821000000000000000   10300001 00104100000000001020000000000000     
100   95050314995854750000000000002900000000002900002000000010410408210549290002570013720821000362355147   1030000300030000   541100000864000000000000600CB BANK                ONE STOP MART MMR11008210549290002570821000000000000000   10300001F00104100000000000725000000000000     
100   62443100300743690000000000007600000000007600002000000010410408210850220008296829500821223315000829   1030000500030000   541120203712000015411202037CITY MART SUPERMARKET  PTN           MMR11008210850220008290821000000000000000   10300001 00104100000000001900000000000000     
100   62443100371022130000000000024000000000024000002000000010410408210645570011247219330821223313001124   1030000500030000   598320001303000015172200013MAX ENERGY             PTN           MMR11008210645570011240821000000000000000   10300001 00104100000000002880000000000000     
100   62911028202922400000000000116950000000116950002000000010410408210930160012784773800821000362386036   1030000300030000   531100000539000000000000376CB BANK                CAPITAL HYPER MMR11008210930160012780821000000000000000   10300001F00104100000000007017000000000000     
100   62443100369813440000000000030000000000030000002000000010410408211044450015105262120821223317001510   1030000500030000   598320001301000015172200013MAX ENERGY             PTN           MMR11008211044450015100821000000000000000   10300001 00104100000000003600000000000000     
100   62911028202074950000000000023000000000023000002000000010410408210919360016764773800821223315001676   1030000500030000   598320001401000015172200014MAX ENERGY             PTN           MMR11008210919360016760821000000000000000   10300001 00104100000000000690000000000000     
100   62911028202471860000000000061000000000061000002000000010410408190953230423244773800819223109042324   1030000600030000   554100002085315799420000471DENKO BAHAN            YANGON        MMR11008190953230423240819000000000000000   10300001 00104100000000001830000000000000     
100   62443100384660050000000000050000000000050000002000000010410408190926570258180290870819223109025818   1030000600030000   554100000747315799420000325DENKO MDY 26           YANGON        MMR11008190926570258180819000000000000000   10300001 00104100000000006000000000000000     
100   95030327743474500000000000077000000000077000002000000010410408190955420346244773800819223109034624   1030000600030000   554100001116315799420000574DENKO HLAE KUU         HLAE KUU      MMR11008190955420346240819000000000000000   10300001 00104100000000002310000000000000     
100   95030301100126550000000000023000000000023000002000000010410408191134150274544773800819223111027454   1030000600030000   554100002323315799420000474DENKO N.DAGON - 1      YANGON        MMR11008191134150274540819000000000000000   10300001 00104100000000000690000000000000     
100   62911028202708080000000000124250000000124250002000000010410408190756560035934773800819223107003593   1030000600030000   5499000023543157994200016371 STOP S M KAMARKYI    YANGON        MMR11008190756560035930819000000000000000   10300001 00104100000000012674000000000000     
100   62911028202181120000000000040000000000040000002000000010410408191118290116404773800819223111011640   1030000600030000   554100002322315799420000497DENKO KONE TA LA PAUNG YANGON        MMR11008191118290116400819000000000000000   10300001 00104100000000001200000000000000     
100   62911028202181120000000000033000000000033000002000000010410408190110530420114773800819223101042011   1030000600030000   554100001003315799420000497DENKO KONE TA LA PAUNG YANGON        MMR11008190110530420110819000000000000000   10300001 00104100000000000990000000000000     
100   62911028202179990000000000057000000000057000002000000010410408191056220649214773800819223110064921   1030000600030000   554100001756315799420001137DENKO NORTH DAGON 2    YANGON        MMR11008191056220649210819000000000000000   10300001 00104100000000001710000000000000     
100   95050324154190880000000000070000000000070000002000000010410408210903460023050219560821000362382285   1030000300030000   591200000292000000000000173CB BANK                MEDICARE STOR MMR11008210903460023050821000000000000000   10300001F00104100000000016800000000000000     
100   95050324947866880000000000003050000000003050002000000010410408210539080019504971170821223312001950   1030000500030000   531120226736000045311202267OCEAN NORTH POINT      PTN           MMR11008210539080019500821000000000000000   10300001 00104100000000000732000000000000     
100   62443100346413950000000000034106000000034106002000000010410408211013390015118822370821223316001511   1030000500030000   598320001001000015172200010MAX ENERGY             PTN           MMR11008211013390015110821000000000000000   10300001 00104100000000004093000000000000     
100   95050328074436620000000000015891000000015891002000000010410408210652500017916077420821223313001791   1030000500030000   598320001203000015172200012MAX ENERGY             PTN           MMR11008210652500017910821000000000000000   10300001 00104100000000001907000000000000     
100   95050322149411750000000000030000000000030000002000000010410408210717230041014254750821000362367315   1030000300030000   598300000256000000000000141CB BANK                PETRO K -1    MMR11008210717230041010821000000000000000   10300001F00104100000000003600000000000000     
100   62443100306045460000000000040500000000040500002000000010410408211121320025432042240821000752365812   1030000200030000   806288001903000008000001738KBZ BANK               SHWE GONE DIN MMR11008211121320025430821000000000000000   10300001 00104100000000009720000000000000     
100   62911028202400660000000000025097000000025097002000000010410408210922200053874773800821223315005387   1030000500030000   541120226402000045411202264MARKET PLACE MYANMARPL PTN           MMR11008210922200053870821000000000000000   10300001 00104100000000001506000000000000     
100   62911028202611530000000000018200000000018200002000000010410408210247180043824773800821223309004382   1030000500030000   541120230002000045411202300MARKET PLACE BY CITY M PTN           MMR11008210247180043820821000000000000000   10300001 00104100000000001092000000000000     
100   62443100323891610000000000022000000000022000002000000010410408191103360210822396150819223111021082   1030000600030000   554100000741315799420000320DENKO THEIK PAN        MANDALAY      MMR11008191103360210820819000000000000000   10300001 00104100000000002640000000000000     
100   95050323749862420000000000052397000000052397002000000010410408220553310049602047960822223412004960   1020000200030000   806200105002300018062000010MWD BANK               YGN           MMR11008220553310049600822000000000000000   10300001 00104100000000012575000000000000     
100   62911028202045260000000000020850000000020850002000000010410408221604360059734773800822000752426785   1030000200030000   541188001079000008000000294KBZ BANK               CITY MART - J MMR11008221604360059730822000000000000000   10300001 00104100000000001251000000000000     
100   95050312240830690000000000026500000000026500002000000010410408221342000088727672390822000752414281   1030000200030000   541188001317000008000000306KBZ BANK               CITY MART - S MMR11008221342000088720822000000000000000   10300001 00104100000000006625000000000000     
100   62911028202151910000000000064450000000064450002000000010410408220235330052704773800822000752383934   1030000200030000   581288000098000008000003562KBZ BANK               CANTON PARADI MMR11008220235330052700822000000000000000   10300001 00104100000000006574000000000000     
100   95050310794962000000000000002000000000002000002000000010410408220150492049518020850822000007689029   1030000200030000   3338000100012031040000040022C2P (Myanmar) Co. Ltd Yangon        MMR11008220150492049510822000000000000000   10300001F05104100000000000420000000000000     
100   62911028202086910000000000062000000000062000002000000010410408220911172617184773800822173411517233   1030000900030000   723019001054190110000000857Beauty Diary JC        YANGONN       MMR11008220911172617180822000000000000000   10300001F00104100000000003720000000000000     
100   95050329843099180000000000300000000000300000002000000010410408220950202020510587530822000007694089   1030000200030000   333800010001203104000003327KBZPay                 Yangon        MMR11008220950202020510822000000000000000   10300001F05104100000000063000000000000000     
100   62443100300743690000000000002900000000002900002000000010410408210858540026671872050821223315002667   1030000500030000   541120203704000015411202037CITY MART SUPERMARKET  PTN           MMR11008210858540026670821000000000000000   10300001 00104100000000000725000000000000     
100   95050324947866880000000000010242000000010242002000000010410408210535310029743659070821223312002974   1030000500030000   531120226707000045311202267OCEAN NORTH POINT      PTN           MMR11008210535310029740821000000000000000   10300001 00104100000000002458000000000000     
100   62911028202169750000000000003528000000003528002000000010410408210627000053614773800821223312005361   1030000500030000   541120226402000045411202264MARKET PLACE MYANMARPL PTN           MMR11008210627000053610821000000000000000   10300001 00104100000000000212000000000000     
100   95050322158563070000000000118650000000118650002000000010410408211154470036324290400821223318003632   1030000500030000   531120226307000045311202263OCEAN SUPER CENTER STJ PTN           MMR11008211154470036320821000000000000000   10300001 00104100000000028476000000000000     
100   62911028202448030000000000027824000000027824002000000010410408210529280043874773800821223311004387   1030000500030000   541120230002000045411202300MARKET PLACE BY CITY M PTN           MMR11008210529280043870821000000000000000   10300001 00104100000000001669000000000000     
100   62443100394939820000000000040000000000040000002000000010410408210830242624523112840821223315262452   1040001600030000   598320001453000000010001147360 Petro (Sat San)    Ygn           MMR11008210830242624520821000000000000000   10300001F00104100000000004800000000000000     
100   62911028202074950000000000040000000000040000002000000010410408220600235757774773800822302368770683   1040001400030000   581210000464025812100002920Golden Duck Restaurant (Sayarsan) Go MMR11008220600235757770822000000000000000   10300001 00104100000000004080000000000000     
100   95030308100042590000000000029000000000029000002000000010410408221723220158154773800822000752431232   1030000200030000   541188001073000008000000294KBZ BANK               CITY MART - J MMR11008221723220158150822000000000000000   10300001 00104100000000001740000000000000     
100   62911028202107540000000000028311000000028311002000000010410408220702022586004773800822782321302233   1030000900030000   541119001363190110000000977Ocean PZD C17          YANGONAUNG    MMR11008220702022586000822000000000000000   10300001F00104100000000001699000000000000     
100   62911028202290100000000000039150000000039150002000000010410408221646240154134773800822000752429082   1030000200030000   541188001081000008000000294KBZ BANK               CITY MART - J MMR11008221646240154130822000000000000000   10300001 00104100000000002349000000000000     
100   95050315615561720000000000000990000000000990002000000010410408220332010201655061980822000007689846   1020000200030000   333400010001204104000000281Myanmar Soft-Gate Tech Yangon        MMR11008220332010201650822000000000000000   10300001F05104100000000000208000000000000     
100   95050314767696390000000000005000000000005000002000000010410408220255412524603069110822973250941233   1030000900030000   594519000889190110000000698BKB Baby &Toys(NorthDa YANGONMYOTHIT MMR11008220255412524600822000000000000000   10300001F00104100000000001200000000000000     
100   95050311931431670000000000004950000000004950002000000010410408220735070507273395710822000007693091   1020000200030000   333400010001204104000000281Myanmar Soft-Gate Tech Yangon        MMR11008220735070507270822000000000000000   10300001F05104100000000001040000000000000     
100   95050319156011610000000000000990000000000990002000000010410408221445571557450126390822000007695385   1020000200030000   333400010001204104000000281Myanmar Soft-Gate Tech Yangon        MMR11008221445571557450822000000000000000   10300001F05104100000000000208000000000000     
100   95050312878706670000000000006900000000006900002000000010410408220241462521971331530822876110946233   1030000900030000   541119000121190110000000080Sein Gay Har BAK       YANGONADA     MMR11008220241462521970822000000000000000   10300001F00104100000000001725000000000000     
100   95050322990383760000000000001000000000001000002000000010410408220320472529517139950822163500947233   1030000900030000   541119001213190110000000949City Mart YK Season C  YANGONAUNG    MMR11008220320472529510822000000000000000   10300001F00104100000000000250000000000000     
100   95050311419479170000000000002970000000002970002000000010410408220729585958556700670822000007693039   1020000200030000   333400010001204104000000281Myanmar Soft-Gate Tech Yangon        MMR11008220729585958550822000000000000000   10300001F05104100000000000624000000000000     
100   95030388822041290000000000040300000000040300002000000010410408220631543317254773800822223413331725   1040001600030000   591220000258000000010000246Shwe Ohh Pharmacy (Sin Yangon        MMR11008220631543317250822000000000000000   10300001F00104100000000002418000000000000     
100   95050329023136610000000000015800000000015800002000000010410408220814043372463991380822223415337246   1040001600030000   541120000569000000010000465Ocean Shwe Gone Daing  Yangon        MMR11008220814043372460822000000000000000   10300001F00104100000000003950000000000000     
100   62911028202314040000000000015000000000015000002000000010410408220225203173554773800822223409317355   1040001600030000   598320001059000000010000780Yangon Petrol (Tharket Ygn           MMR11008220225203173550822000000000000000   10300001F00104100000000000450000000000000     
100   95050317084233280000000000000990000000000990002000000010410408221128215821934998750822000007694641   1020000200030000   333400010001204104000000281Myanmar Soft-Gate Tech Yangon        MMR11008221128215821930822000000000000000   10300001F05104100000000000208000000000000     
100   62911028202400660000000000099900000000099900002000000010410408211016510001294773800821223316000129   1030000500030000   531120201506000085311202015HAGL BLAZON            PTN           MMR11008211016510001290821000000000000000   10300001 00104100000000005994000000000000     
100   62911028202204490000000000020250000000020250002000000010410408210647460001984773800821223313000198   1030000500030000   581220195901000085812201959AKKHAYA TEA HOUSE      PTN           MMR11008210647460001980821000000000000000   10300001 00104100000000002066000000000000     
100   62443100328070970000000000022200000000022200002000000010410408210559310027243318680821000362356570   1030000300030000   541100002345000000000000102CB BANK                MAKRO MYANMAR MMR11008210559310027240821000000000000000   10300001F00104100000000005550000000000000     
100   95050310427855490000000000001980000000001980002000000010410408221035440544759190330822000007694408   1020000200030000   333400010001204104000000281Myanmar Soft-Gate Tech Yangon        MMR11008221035440544750822000000000000000   10300001F05104100000000000416000000000000     
100   62911028202355870000000001000000000001000000002000000010410408211739420942044773800822000007688565   1030000600030000   333800010001230104000004564Trusty Wallet          Yangon        MMR11008211739420942040822000000000000000   10300001F05104100000000210000000000000000     
100   95050319331315630000000000016830000000016830002000000010410408221144301430937963330822000007694689   1020000200030000   333400010001204104000000281Myanmar Soft-Gate Tech Yangon        MMR11008221144301430930822000000000000000   10300001F05104100000000003534000000000000     
100   62911028202000450000000000001000000000001000002000000010410408220734100410874773800822000007693077   1030000200030000   333800010001203104000003327KBZPay                 Yangon        MMR11008220734100410870822000000000000000   10300001F05104100000000000210000000000000     
100   62911028202692140000000000034624000000034624002000000010410408221303110407424773800822000752409757   1030000200030000   541188001041000008000000010KBZ BANK               MARKETPLACE - MMR11008221303110407420822000000000000000   10300001 00104100000000002077000000000000     
100   62911028202935780000000000131800000000131800002000000010410408221119160208714773800822000752397591   1030000200030000   541188001305000008000000325KBZ BANK               CITY MART - A MMR11008221119160208710822000000000000000   10300001 00104100000000007908000000000000     
100   95050329843099180000000000040000000000040000002000000010410408220953092309315544980822000007694130   1030000200030000   333800010001203104000003327KBZPay                 Yangon        MMR11008220953092309310822000000000000000   10300001F05104100000000008400000000000000     
100   95050319391394380000000000010500000000010500002000000010410408220728332593171743230822134581333233   1030000900030000   541119000122190110000000080Sein Gay Har BAK       YANGONADA     MMR11008220728332593170822000000000000000   10300001F00104100000000002625000000000000     
100   95050319925596540000000000008910000000008910002000000010410408220816374637838948830822000007693435   1020000200030000   333400010001204104000000281Myanmar Soft-Gate Tech Yangon        MMR11008220816374637830822000000000000000   10300001F05104100000000001871000000000000     
100   95050318608138520000000000040150000000040150002000000010410408220927395739474147780822000007693969   1030000200030000   333800010001203104000003327KBZPay                 Yangon        MMR11008220927395739470822000000000000000   10300001F05104100000000008432000000000000     
100   95050316067768680000000000000990000000000990002000000010410408221419264926655083840822000007695302   1020000200030000   333400010001204104000000281Myanmar Soft-Gate Tech Yangon        MMR11008221419264926650822000000000000000   10300001F05104100000000000208000000000000     
100   95050323233042810000000000050000000000050000002000000010410408220741511151816870870822000007693150   1030000200030000   333800010001203104000003327KBZPay                 Yangon        MMR11008220741511151810822000000000000000   10300001F05104100000000010500000000000000     
100   62443100350052510000000000150000000000150000002000000010410408210850110023133439430821000362380370   1030000300030000   541100003028000000000000102CB BANK                MAKRO MYANMAR MMR11008210850110023130821000000000000000   10300001F00104100000000037500000000000000     
100   95050312498129060000000000004950000000004950002000000010410408211733010301394120210822000007688550   1020000200030000   333400010001204104000000281Myanmar Soft-Gate Tech Yangon        MMR11008211733010301390822000000000000000   10300001F05104100000000001040000000000000     
100   62911028202527490000000000044848000000044848002000000010410408210512550051934773800821223311005193   1030000500030000   541120226807000045411202268CITY MART WAIZAYANDA   PTN           MMR11008210512550051930821000000000000000   10300001 00104100000000002691000000000000     
100   62911028202441420000000000015000000000015000002000000010410408221110210153904773800822000752396417   1030000200030000   541188001081000008000000294KBZ BANK               CITY MART - J MMR11008221110210153900822000000000000000   10300001 00104100000000000900000000000000     
100   95050316110433120000000000003900000000003900002000000010410408220948472627893892500822701181647233   1030000900030000   541119001229190110000000946City Mart TM Season C  YANGONONE     MMR11008220948472627890822000000000000000   10300001F00104100000000000975000000000000     
100   95050312595952760000000000000990000000000990002000000010410408221131440144689956200822000007694651   1020000200030000   333400010001204104000000281Myanmar Soft-Gate Tech Yangon        MMR11008221131440144680822000000000000000   10300001F05104100000000000208000000000000     
100   62911028202794110000000000100700000000100700002000000010410408220331470147184773800822000007689845   1030000200030000   333800010001203104000003327KBZPay                 Yangon        MMR11008220331470147180822000000000000000   10300001F05104100000000021147000000000000     
100   95050323667276610000000000009900000000009900002000000010410408220536190619845608210822000007691844   1020000200030000   333400010001204104000000281Myanmar Soft-Gate Tech Yangon        MMR11008220536190619840822000000000000000   10300001F05104100000000002079000000000000     
100   95050314534800510000000000000990000000000990002000000010410408220240341034858026560822000007689241   1020000200030000   333400010001204104000000281Myanmar Soft-Gate Tech Yangon        MMR11008220240341034850822000000000000000   10300001F05104100000000000208000000000000     
100   95030390626214130000000000100000000000100000002000000010410408220842001200134773800822000007693663   1030000200030000   333800010001203104000003327KBZPay                 Yangon        MMR11008220842001200130822000000000000000   10300001F05104100000000021000000000000000     
100   62911028202935780000000000056350000000056350002000000010410408220244272522604773800822902140927233   1030000900030000   591219000602190110000000442Shwe Ohh Pharmacy St-5 YANGONARTAUNG MMR11008220244272522600822000000000000000   10300001F00104100000000003381000000000000     
100   62911028202616250000000000105150000000105150002000000010410408221700290198794773800822000752429904   1030000200030000   541188001056000008000000314KBZ BANK               MARKETPLACE - MMR11008221700290198790822000000000000000   10300001 00104100000000006309000000000000     
100   95030310098554020000000000026950000000026950002000000010410408210347580023844773800821000362339132   1030000300030000   531100000963000000000000684CB BANK                CAPITAL SUPER MMR11008210347580023840821000000000000000   10300001F00104100000000001617000000000000     
100   95030301100157160000000000014468000000014468002000000010410408220554252425814773800822000007692028   1030000200030000   3333000100012031040000040282C2P (Myanmar) Co. Ltd Yangon        MMR11008220554252425810822000000000000000   10300001F05104100000000010000000000000000     
100   95050311419479170000000000004950000000004950002000000010410408220726445644409495070822000007693008   1020000200030000   333400010001204104000000281Myanmar Soft-Gate Tech Yangon        MMR11008220726445644400822000000000000000   10300001F05104100000000001040000000000000     
100   95050310332595380000000000000990000000000990002000000010410408221031470147906225750822000007694391   1020000200030000   333400010001204104000000281Myanmar Soft-Gate Tech Yangon        MMR11008221031470147900822000000000000000   10300001F05104100000000000208000000000000     
100   62443100357925510000000000004300000000004300002000000010410408221250572687643686650822014201957233   1030000900030000   541119001213190110000000949City Mart YK Season C  YANGONAUNG    MMR11008221250572687640822000000000000000   10300001F00104100000000001075000000000000     
100   95050329843099180000000000300000000000300000002000000010410408220724325432376105000822000007692979   1030000200030000   333800010001203104000003327KBZPay                 Yangon        MMR11008220724325432370822000000000000000   10300001F05104100000000063000000000000000     
100   95050314064416890000000000000990000000000990002000000010410408220927515751169105240822000007693973   1020000200030000   333400010001204104000000281Myanmar Soft-Gate Tech Yangon        MMR11008220927515751160822000000000000000   10300001F05104100000000000208000000000000     
100   95050312845568060000000000057270000000057270002000000010410408220309093909408622240822000007689494   1030000200030000   333800010001203104000003327KBZPay                 Yangon        MMR11008220309093909400822000000000000000   10300001F05104100000000012027000000000000     
100   95050317176867660000000000013500000000013500002000000010410408220915372618475800270822242451537233   1030000900030000   541119000112190110000000077Sein Gay Har Chinatown YANGON        MMR11008220915372618470822000000000000000   10300001F00104100000000003375000000000000     
100   62911028202287150000000000092785000000092785002000000010410408221803550092634773800822000752433459   1030000200030000   541188001004000008000000008KBZ BANK               MARKETPLACE - MMR11008221803550092630822000000000000000   10300001 00104100000000005567000000000000     
100   95050312695033440000000000000990000000000990002000000010410408220031530153683233590822000007688826   1020000200030000   333400010001204104000000281Myanmar Soft-Gate Tech Yangon        MMR11008220031530153680822000000000000000   10300001F05104100000000000208000000000000     
100   95050322083768590000000000025050000000025050002000000010410408221645070207969445620822000752429035   1030000200030000   541188001304000008000000325KBZ BANK               CITY MART - A MMR11008221645070207960822000000000000000   10300001 00104100000000006263000000000000     
100   62443100306416880000000000015850000000015850002000000010410408221700150295292920780822000752429894   1030000200030000   541188001059000008000000314KBZ BANK               MARKETPLACE - MMR11008221700150295290822000000000000000   10300001 00104100000000003963000000000000     
100   95050318141561190000000000010000000000010000002000000010410408221032150215194573270822000007694387   1040001600030000   333800010001220104000004507A +                    Yangon        MMR11008221032150215190822000000000000000   10300001F05104100000000002100000000000000     
100   95050310305109410000000000001980000000001980002000000010410408220953402340822750590822000007694091   1020000200030000   333400010001204104000000281Myanmar Soft-Gate Tech Yangon        MMR11008220953402340820822000000000000000   10300001F05104100000000000416000000000000     
100   95050315889680120000000000005000000000005000002000000010410408221251252125838729200822000007694969   1030000200030000   333800010001203104000003327KBZPay                 Yangon        MMR11008221251252125830822000000000000000   10300001F05104100000000001050000000000000     
100   95050312160676580000000000001980000000001980002000000010410408221217364736241438490822000007694838   1020000200030000   333400010001204104000000281Myanmar Soft-Gate Tech Yangon        MMR11008221217364736240822000000000000000   10300001F05104100000000000416000000000000     
100   62443100330048680000000000008750000000008750002000000010410408210717370001505907230821223313000150   1030000500030000   591220210201000085912202102ORCHID PHARMACY        PTN           MMR11008210717370001500821000000000000000   10300001 00104100000000002100000000000000     
100   95050310534130230000000000004516000000004516002000000010410408221034282641432495300822381041728233   1030000900030000   541119001208190110000000948City Mart YK C 6       YANGONAUNG    MMR11008221034282641430822000000000000000   10300001F00104100000000001129000000000000     
100   62443100358839880000000000030000000000030000002000000010410408210032530002013878710821223307000201   1030000500030000   799220099801013607992200998YANGON GOLF CLUB       PTN           MMR11008210032530002010821000000000000000   10300001 00104100000000007200000000000000     
100   95050313396828960000000000003960000000003960002000000010410408221221045104546395940822000007694858   1020000200030000   333400010001204104000000281Myanmar Soft-Gate Tech Yangon        MMR11008221221045104540822000000000000000   10300001F05104100000000000832000000000000     
100   95050321455580800000000000024000000000024000002000000010410408220313522527887054850822091430952233   1030000900030000   541119001237190110000000952Marketplace KTY Season YANGONARTAUNG MMR11008220313522527880822000000000000000   10300001F00104100000000006000000000000000     
100   62911028202593140000000000014850000000014850002000000010410408211108410029454773800821223317002945   1030000500030000   541120227503000045411202275CITY MART (AHLONE BRAN PTN           MMR11008211108410029450821000000000000000   10300001 00104100000000000891000000000000     
100   95050316067768680000000000000990000000000990002000000010410408221422135213435168940822000007695311   1020000200030000   333400010001204104000000281Myanmar Soft-Gate Tech Yangon        MMR11008221422135213430822000000000000000   10300001F05104100000000000208000000000000     
100   95050316067768680000000000000990000000000990002000000010410408221037520752227537850822000007694422   1020000200030000   333400010001204104000000281Myanmar Soft-Gate Tech Yangon        MMR11008221037520752220822000000000000000   10300001F05104100000000000208000000000000     
100   95050312695033440000000000001980000000001980002000000010410408212248161816820900340822000007688746   1020000200030000   333400010001204104000000281Myanmar Soft-Gate Tech Yangon        MMR11008212248161816820822000000000000000   10300001F05104100000000000416000000000000     
100   62911028202355870000000003000000000003000000002000000010410408211742551255164773800822000007688578   1030000600030000   333800010001230104000004564Trusty Wallet          Yangon        MMR11008211742551255160822000000000000000   10300001F05104100000000630000000000000000     
100   62911028202290100000000000050000000000050000002000000010410408220520242559804773800822520501124233   1030000900030000   554119001100190110000000212New Day Energy PZD     YANGON        MMR11008220520242559800822000000000000000   10300001F00104100000000001500000000000000     
100   62911028202166940000000000047050000000047050002000000010410408221818210215284773800822000752434166   1030000200030000   541188001126000008000000296KBZ BANK               CITY MART - J MMR11008221818210215280822000000000000000   10300001 00104100000000002823000000000000     
100   62911028202151910000000000100466000000100466002000000010410408220957050092414773800822000752387623   1030000200030000   541188001004000008000000008KBZ BANK               MARKETPLACE - MMR11008220957050092410822000000000000000   10300001 00104100000000006028000000000000     
100   62911028202355870000000001000000000001000000002000000010410408211741221122544773800822000007688569   1030000600030000   333800010001230104000004564Trusty Wallet          Yangon        MMR11008211741221122540822000000000000000   10300001F05104100000000210000000000000000     
100   95050315150726490000000000005650000000005650002000000010410408221003592631836140660822876331659233   1030000900030000   541119000116190110000000078Sein Gay Har Kan Thar  YANGONOKKALAP MMR11008221003592631830822000000000000000   10300001F00104100000000001413000000000000     
100   95050329213164970000000000002970000000002970002000000010410408220624335433610565670822000007692292   1020000200030000   333400010001204104000000281Myanmar Soft-Gate Tech Yangon        MMR11008220624335433610822000000000000000   10300001F05104100000000000624000000000000     
100   62911028202752520000000000066025000000066025002000000010410408180426470480764773800818223004048076   1030000600030000   554100001106315799420000564DENKO PHYUU            PHYUU         MMR11008180426470480760818000000000000000   10300001 00104100000000001981000000000000     
100   95050324444444460000000000150000000000150000002000000010410408210842560023111460350821000362379323   1030000300030000   541100003028000000000000102CB BANK                MAKRO MYANMAR MMR11008210842560023110821000000000000000   10300001F00104100000000037500000000000000     
100   62911028202031710000000000030000000000030000002000000010410408220231342520194773800822806010934233   1030000900030000   554119000346190110000000213New Day Energy SOK     YANGONOKKALAP MMR11008220231342520190822000000000000000   10300001F00104100000000000900000000000000     
100   95050321084131410000000000300000000000300000002000000010410408220731390139340005640822000007693054   1030000200030000   333800010001203104000003327KBZPay                 Yangon        MMR11008220731390139340822000000000000000   10300001F05104100000000063000000000000000     
100   62911028202150190000000000022150000000022150002000000010410408220620422575074773800822257501242233   1030000900030000   541119000161190110000000084Pro (1) Global (Pazund YANGONARTAUNG MMR11008220620422575070822000000000000000   10300001F00104100000000001329000000000000     
100   95050324247403260000000000070004000000070004002000000010410408210429000016406637440821223310001640   1030000500030000   598320001401000015172200014MAX ENERGY             PTN           MMR11008210429000016400821000000000000000   10300001 00104100000000008400000000000000     
100   62443100323428970000000000050000000000050000002000000010410408210046010010623963810821223307001062   1030000500030000   598320002102000015172200021MAX ENERGY             PTN           MMR11008210046010010620821000000000000000   10300001 00104100000000006000000000000000     
100   95050312240830690000000000000990000000000990002000000010410408220241061106886374080822000007689255   1020000200030000   333400010001204104000000281Myanmar Soft-Gate Tech Yangon        MMR11008220241061106880822000000000000000   10300001F05104100000000000208000000000000     
100   95050312595952760000000000000990000000000990002000000010410408221142091209153346260822000007694681   1020000200030000   333400010001204104000000281Myanmar Soft-Gate Tech Yangon        MMR11008221142091209150822000000000000000   10300001F05104100000000000208000000000000     
100   95050317834964620000000000023250000000023250002000000010410408221055562647814317980822718251756233   1030000900030000   541119001353190110000000977Ocean PZD C 7          YANGONAUNG    MMR11008221055562647810822000000000000000   10300001F00104100000000005813000000000000     
100   62443101065883000000000000150000000000150000002000000010410408220935230523683807400822000007694010   1030000300030000   333300010001206104000002147DICA Company Limited   Yangon        MMR11008220935230523680822000000000000000   10300001F05104100000000010000000000000000     
100   95050310427855490000000000000990000000000990002000000010410408211635230523755772690822000007688458   1020000200030000   333400010001204104000000281Myanmar Soft-Gate Tech Yangon        MMR11008211635230523750822000000000000000   10300001F05104100000000000208000000000000     
100   62911028202163630000000000043150000000043150002000000010410408220636353319844773800822223413331984   1040001600030000   591220000288000000010000276Shwe Ohh Pharmacy (Nor Yangon        MMR11008220636353319840822000000000000000   10300001F00104100000000002589000000000000     
100   95050313441999020000000000005000000000005000002000000010410408221010154015894488170822000007694257   1030000200030000   3338000100012031040000040022C2P (Myanmar) Co. Ltd Yangon        MMR11008221010154015890822000000000000000   10300001F05104100000000001050000000000000     
100   95050313396828960000000000002970000000002970002000000010410408221317274727055509330822000007695068   1020000200030000   333400010001204104000000281Myanmar Soft-Gate Tech Yangon        MMR11008221317274727050822000000000000000   10300001F05104100000000000624000000000000     
100   95050325455962190000000000001980000000001980002000000010410408220915374537190757720822000007693878   1020000200030000   333400010001204104000000281Myanmar Soft-Gate Tech Yangon        MMR11008220915374537190822000000000000000   10300001F05104100000000000416000000000000     
100   95050313123223200000000000021650000000021650002000000010410408220721522591331147550822043511352233   1030000900030000   541119000123190110000000080Sein Gay Har BAK       YANGON        MMR11008220721522591330822000000000000000   10300001F00104100000000005413000000000000     
100   62911028202794110000000000030000000000030000002000000010410408220903483348164773800822000007693798   1030000200030000   333800010001203104000003327KBZPay                 Yangon        MMR11008220903483348160822000000000000000   10300001F05104100000000006300000000000000     
100   95050311712422700000000000250000000000250000002000000010410408220957112711371098100822000007694155   1030000200030000   333800010001203104000003327KBZPay                 Yangon        MMR11008220957112711370822000000000000000   10300001F05104100000000052500000000000000     
100   95050319161596230000000000001980000000001980002000000010410408221306403640585424230822000007695030   1020000200030000   333400010001204104000000281Myanmar Soft-Gate Tech Yangon        MMR11008221306403640580822000000000000000   10300001F05104100000000000416000000000000     
100   62911028202260160000000000070000000000070000002000000010410408220930363149854773800822003672535370   1040001400030000   591210000277025912100002552AAA Pharmacy null No(1 2)A Lay Daung MMR11008220930363149850822000000000000000   10300001 00104100000000004200000000000000     
100   95050312035823210000000000035000000000035000002000000010410408221007503750404403070822000007694241   1030000200030000   333800010001203104000003327KBZPay                 Yangon        MMR11008221007503750400822000000000000000   10300001F05104100000000007350000000000000     
100   62911028202369990000000000100000000000100000002000000010410408221204223422544773800822000007694779   1030000200030000   333800010001203104000003327KBZPay                 Yangon        MMR11008221204223422540822000000000000000   10300001F05104100000000021000000000000000     
100   95050319928585020000000000001980000000001980002000000010410408220019014901021496010822000007688804   1020000200030000   333400010001204104000000281Myanmar Soft-Gate Tech Yangon        MMR11008220019014901020822000000000000000   10300001F05104100000000000416000000000000     
100   62911028202132460000000000058941000000058941002000000010410408221224112678604773800822474541811233   1030000900030000   541119001363190110000000977Ocean PZD C17          YANGONAUNG    MMR11008221224112678600822000000000000000   10300001F00104100000000003537000000000000     
100   95050312498129060000000000009500000000009500002000000010410408221318314831270466780822000007695062   1030000200030000   3333000100012031040000040282C2P (Myanmar) Co. Ltd Yangon        MMR11008221318314831270822000000000000000   10300001F05104100000000010000000000000000     
100   95050319161596230000000000000990000000000990002000000010410408220306153615875317270822000007689450   1020000200030000   333400010001204104000000281Myanmar Soft-Gate Tech Yangon        MMR11008220306153615870822000000000000000   10300001F05104100000000000208000000000000     
100   62443100300743690000000000018950000000018950002000000010410408221117132654901608690822100471713233   1030000900030000   541119001353190110000000977Ocean PZD C 7          YANGONAUNG    MMR11008221117132654900822000000000000000   10300001F00104100000000004738000000000000     
100   95050327416134790000000000000990000000000990002000000010410408221314224422817161810822000007695047   1020000200030000   333400010001204104000000281Myanmar Soft-Gate Tech Yangon        MMR11008221314224422810822000000000000000   10300001F05104100000000000208000000000000     
100   95050321798808970000000000010000000000010000002000000010410408220217594759531161340822000007689130   1030000200030000   333800010001203104000003327KBZPay                 Yangon        MMR11008220217594759530822000000000000000   10300001F05104100000000002100000000000000     
100   62443100300743690000000000007974000000007974002000000010410408221220172677079786010822380501817233   1030000900030000   581219000372190110000000244Jo Jo HotPot(CapitalHy YANGONA       MMR11008221220172677070822000000000000000   10300001F00104100000000003389000000000000     
100   95050321848852460000000000058000000000058000002000000010410408221323592695468814300822465531959233   1030000900030000   554119000348190110000000215New Day Energy MYG     YANGONONE     MMR11008221323592695460822000000000000000   10300001F00104100000000006960000000000000     
100   95030388822041290000000000007900000000007900002000000010410408220633483318374773800822223413331837   1040001600030000   591220000258000000010000246Shwe Ohh Pharmacy (Sin Yangon        MMR11008220633483318370822000000000000000   10300001F00104100000000000474000000000000     
100   95050320205194540000000000080000000000080000002000000010410408221022553462007878230822223417346200   1040001600030000   591220000295000000010000283Shwe Ohh Pharmacy (39t Yangon        MMR11008221022553462000822000000000000000   10300001F00104100000000019200000000000000     
100   95050319006804440000000000045000000000045000002000000010410408221235002682630381680822713051900233   1030000900030000   541119000122190110000000080Sein Gay Har BAK       YANGONADA     MMR11008221235002682630822000000000000000   10300001F00104100000000011250000000000000     
100   95050311419479170000000000002970000000002970002000000010410408221301003100832034170822000007695012   1020000200030000   333400010001204104000000281Myanmar Soft-Gate Tech Yangon        MMR11008221301003100830822000000000000000   10300001F05104100000000000624000000000000     
100   62443101063232860000000000058000000000058000002000000010410408220738213353868438260822223414335386   1040001600030000   598320001059000000010000780Yangon Petrol (Tharket Ygn           MMR11008220738213353860822000000000000000   10300001F00104100000000006960000000000000     
100   95050319161596230000000000000990000000000990002000000010410408220104053405277850650822000007688910   1020000200030000   333400010001204104000000281Myanmar Soft-Gate Tech Yangon        MMR11008220104053405270822000000000000000   10300001F05104100000000000208000000000000     
100   95030301954234130000000000005000000000005000002000000010410408220212464246034773800822000007689108   1030000200030000   333800010001203104000003327KBZPay                 Yangon        MMR11008220212464246030822000000000000000   10300001F05104100000000001050000000000000     
100   95050311419479170000000000000990000000000990002000000010410408221304103410783771740822000007695024   1020000200030000   333400010001204104000000281Myanmar Soft-Gate Tech Yangon        MMR11008221304103410780822000000000000000   10300001F05104100000000000208000000000000     
100   95050314570621780000000000002970000000002970002000000010410408220417064706080700210822000007690694   1020000200030000   333400010001204104000000281Myanmar Soft-Gate Tech Yangon        MMR11008220417064706080822000000000000000   10300001F05104100000000000624000000000000     
100   95050327192897240000000000014400000000014400002000000010410408221121022656726566140822208511702233   1030000900030000   541119000136190110000000083SeinGayHarParami Cente YANGON        MMR11008221121022656720822000000000000000   10300001F00104100000000003600000000000000     
100   62443100315384790000000000024000000000024000002000000010410408221130292659958388820822393001829233   1030000900030000   541119001206190110000000948City Mart YK C 4       YANGONAUNG    MMR11008221130292659950822000000000000000   10300001F00104100000000006000000000000000     
100   62443100311603990000000000030000000000030000002000000010410408220154083155072978300822223408315507   1040001600030000   598320001059000000010000780Yangon Petrol (Tharket Ygn           MMR11008220154083155070822000000000000000   10300001F00104100000000003600000000000000     
100   62911028202151910000000000027000000000027000002000000010410408221059243500454773800822223417350045   1040001600030000   806220001354000000010001061Grand Hantha Internati Ygn           MMR11008221059243500450822000000000000000   10300001F00104100000000001620000000000000     
100   62443101003317490000000000109000000000109000002000000010410408221229393605330296580822223419360533   1040001600030000   598320000660000000010000529Shwe Taung Energy (NPT Naypyitaw     MMR11008221229393605330822000000000000000   10300001F00104100000000013080000000000000     
100   95050312675525330000000000005000000000005000002000000010410408221115444544861013010822000007694603   1030000200030000   333800010001203104000003327KBZPay                 Yangon        MMR11008221115444544860822000000000000000   10300001F05104100000000001050000000000000     
100   62443100306416880000000000027300000000027300002000000010410408210734560001846588000821223314000184   1030000500030000   541120089602006305411200896SPIRITS                PTN           MMR11008210734560001840821000000000000000   10300001 00104100000000006825000000000000     
100   95050312157227740000000000004500000000004500002000000010410408210933510002323184150821000362386590   1030000300030000   729800001751000000000001255CB BANK                ART & T8      MMR11008210933510002320821000000000000000   10300001F00104100000000001080000000000000     
