100   62911028202197630000000000013600000000013600002000000010410408220412230017134773800822223410001713   1030000500030000   598320001402000015172200014MAX ENERGY             PTN           MMR11008220412230017130822000000000000000   10300001 00104100000000000408000000000000     
100   62911028202237810000000000063150000000063150002000000010410408221001390049534773800822223416004953   1030000500030000   531120226301000045311202263OCEAN SUPER CENTER STJ PTN           MMR11008221001390049530822000000000000000   10300001 00104100000000003789000000000000     
100   62911028202540670000000000055000000000055000002000000010410408221120310059254773800822223411005925   1030000600030000   554100001257315799420000711DENKO MAUBIN           MAUBIN        MMR11008221120310059250822000000000000000   10300001 00104100000000001650000000000000     
100   62911028202595200000000000047845000000047845002000000010410408220801290003384773800822000362554533   1030000300030000   598300001209000000000000817CB BANK                SHWE TAUNG EN MMR11008220801290003380822000000000000000   10300001F00104100000000001435000000000000     
100   62911028202230390000000000023004000000023004002000000010410408220551130013264773800822223412001326   1030000500030000   598320001603000015172200016MAX ENERGY             PTN           MMR11008220551130013260822000000000000000   10300001 00104100000000000690000000000000     
100   95050321232876860000000000105000000000105000002000000010410408220322550450002097400822223403045000   1030000600030000   554100001865315799420001235DENKO NAY PYI TAW 2    NAYPYITAW     MMR11008220322550450000822000000000000000   10300001 00104100000000012600000000000000     
100   95050311876202380000000000060000000000060000002000000010410408220357270450039132820822223403045003   1030000600030000   554100001865315799420001235DENKO NAY PYI TAW 2    NAYPYITAW     MMR11008220357270450030822000000000000000   10300001 00104100000000007200000000000000     
100   62443100371022130000000000055700000000055700002000000010410408220818520340277296350822223408034027   1030000600030000   554100002086315799420001136DENKOHLAING THAR YAR   YANGON        MMR11008220818520340270822000000000000000   10300001 00104100000000006684000000000000     
100   62911028202103410000000000094454000000094454002000000010410408220730020027364773800822223414002736   1030000500030000   531120226733000045311202267OCEAN NORTH POINT      PTN           MMR11008220730020027360822000000000000000   10300001 00104100000000005667000000000000     
100   62911028202366010000000000070000000000070000002000000010410408200644450448804773800820223206044880   1030000600030000   554100001865315799420001235DENKO NAY PYI TAW 2    NAYPYITAW     MMR11008200644450448800820000000000000000   10300001 00104100000000002100000000000000     
100   62443100330108240000000000001980000000001980002000000010410408230237130713056300150823000007696511   1020000200030000   333400010001204104000000281Myanmar Soft-Gate Tech Yangon        MMR11008230237130713050823000000000000000   10300001F05104100000000000416000000000000     
100   95050314248677090000000000010000000000010000002000000010410408231402123212716533570823000007701351   1030000200030000   333800010001203104000003327KBZPay                 Yangon        MMR11008231402123212710823000000000000000   10300001F05104100000000002100000000000000     
100   95050322420590810000000000090000000000090000002000000010410408220108140759852808110822223401075985   1030000600030000   554100000952315799420000474DENKO N.DAGON - 1      YANGON        MMR11008220108140759850822000000000000000   10300001 00104100000000010800000000000000     
100   62911028202752030000000000132000000000132000002000000010410408220531580188124773800822223405018812   1030000600030000   554100002328315799420001235DENKO NAY PYI TAW 2    NAYPYITAW     MMR11008220531580188120822000000000000000   10300001 00104100000000003960000000000000     
100   95030301100126550000000000024000000000024000002000000010410408221127380277534773800822223411027753   1030000600030000   554100002323315799420000474DENKO N.DAGON - 1      YANGON        MMR11008221127380277530822000000000000000   10300001 00104100000000000720000000000000     
100   62911028202366010000000000129000000000129000002000000010410408220735500188304773800822223407018830   1030000600030000   554100002328315799420001235DENKO NAY PYI TAW 2    NAYPYITAW     MMR11008220735500188300822000000000000000   10300001 00104100000000003870000000000000     
100   62911028202169750000000000044786000000044786002000000010410408220700153333644773800822223414333364   1040001600030000   541120000559000000010000465Ocean Shwe Gone Daing  Yangon        MMR11008220700153333640822000000000000000   10300001F00104100000000002687000000000000     
100   62911028202400660000000000093000000000093000002000000010410408220919483411824773800822223416341182   1040001600030000   598320001127000000010000608Terminal Petrol Statio Yangon        MMR11008220919483411820822000000000000000   10300001F00104100000000002790000000000000     
100   62911028202527490000000000026000000000026000002000000010410408210544030006674773800821223305000667   1030000600030000   554100002414315799420001684MMTM NORTH-DAGON       YANGON        MMR11008210544030006670821000000000000000   10300001 00104100000000000780000000000000     
100   62911028202248050000000000035000000000035000002000000010410408210830340447514773800821223308044751   1030000600030000   554100001155315799420000607DENKO NPT 1            NAYPYITAW.    MMR11008210830340447510821000000000000000   10300001 00104100000000001050000000000000     
100   62443100323891610000000000018000000000018000002000000010410408211055150211348567080821223310021134   1030000600030000   554100000741315799420000320DENKO THEIK PAN        MANDALAY      MMR11008211055150211340821000000000000000   10300001 00104100000000002160000000000000     
100   62443100390038980000000000119500000000119500002000000010410408210719240023932602260821223307002393   1030000600030000   581200002191315799420001536CANTON PARADISE TC     YANGON        MMR11008210719240023930821000000000000000   10300001 00104100000000050788000000000000     
100   95030301100126550000000000038002000000038002002000000010410408210632400759264773800821223306075926   1030000600030000   554100000952315799420000474DENKO N.DAGON - 1      YANGON        MMR11008210632400759260821000000000000000   10300001 00104100000000001140000000000000     
100   62443100300792360000000000028000000000028000002000000010410408210905001071505177010821223309107150   1030000600030000   554100000946315799420000471DENKO BAHAN            YANGON        MMR11008210905001071500821000000000000000   10300001 00104100000000003360000000000000     
100   62911028202188560000000000020000000000020000002000000010410408210023270275764773800821223300027576   1030000600030000   554100002323315799420000474DENKO N.DAGON - 1      YANGON        MMR11008210023270275760821000000000000000   10300001 00104100000000000600000000000000     
100   62443100390038980000000000074266000000074266002000000010410408210145450083544559480821223301008354   1030000600030000   581200001904315799420001274SIGNATURE FINEDINING 2 BAHAN         MMR11008210145450083540821000000000000000   10300001 00104100000000031563000000000000     
100   95030338164853990000000000010850000000010850002000000010410408211021420116754773800821223310011675   1030000600030000   549900001955315799420001324EASY MART 011          HLAING        MMR11008211021420116750821000000000000000   10300001 00104100000000001107000000000000     
100   95050321848852460000000000195800000000195800002000000010410408232053230003653228600823000752500624   1030000200030000   541188001003000008000000008KBZ BANK               MARKETPLACE - MMR11008232053230003650823000000000000000   10300001 00104100000000048950000000000000     
100   95030388822041290000000000053200000000053200002000000010410408230730250014854773800823000752478435   1030000200030000   581288000670000008000004112KBZ BANK               MIN LANN REST MMR11008230730250014850823000000000000000   10300001 00104100000000005426000000000000     
100   62443100306045460000000000052000000000052000002000000010410408230151250025533420660823000752448972   1030000200030000   806288001903000008000001738KBZ BANK               SHWE GONE DIN MMR11008230151250025530823000000000000000   10300001 00104100000000012480000000000000     
100   95050313400081980000000000120000000000120000002000000010410408231354472447964966180823000007701316   1030000200030000   333800010001203104000003327KBZPay                 Yangon        MMR11008231354472447960823000000000000000   10300001F05104100000000025200000000000000     
100   95050310332595380000000000000990000000000990002000000010410408231052472247378938130823000007700616   1020000200030000   333400010001204104000000281Myanmar Soft-Gate Tech Yangon        MMR11008231052472247370823000000000000000   10300001F05104100000000000208000000000000     
100   62911028202294570000000000037840000000037840002000000010410408230607480057034773800823000752478907   1030000200030000   701188000996000008000004989KBZ BANK               EXCEL CRYSTAL MMR11008230607480057030823000000000000000   10300001 00104100000000003860000000000000     
100   95050318134586070000000000062960000000062960002000000010410408230951230088585789570823000752452774   1030000200030000   541188001316000008000000306KBZ BANK               CITY MART - S MMR11008230951230088580823000000000000000   10300001 00104100000000015740000000000000     
100   95050315259054570000000000000990000000000990002000000010410408230834470447819618910823000007699828   1020000200030000   333400010001204104000000281Myanmar Soft-Gate Tech Yangon        MMR11008230834470447810823000000000000000   10300001F05104100000000000208000000000000     
100   62443100350052510000000000050000000000050000002000000010410408230449181918081221940823000007697827   1030000300030000   333300010001206104000002147DICA Company Limited   Yangon        MMR11008230449181918080823000000000000000   10300001F05104100000000010000000000000000     
100   95050310397364970000000000001980000000001980002000000010410408231340281028391746310823000007701252   1020000200030000   333400010001204104000000281Myanmar Soft-Gate Tech Yangon        MMR11008231340281028390823000000000000000   10300001F05104100000000000416000000000000     
100   95030306100096490000000000000990000000000990002000000010410408231140321032104773800823000007700764   1020000200030000   333400010001204104000000281Myanmar Soft-Gate Tech Yangon        MMR11008231140321032100823000000000000000   10300001F05104100000000000208000000000000     
100   62911028202197630000000000075450000000075450002000000010410408231529200196624773800823000752486460   1030000200030000   541188001023000008000000298KBZ BANK               CITY MART - M MMR11008231529200196620823000000000000000   10300001 00104100000000004527000000000000     
100   95050317176867660000000000001980000000001980002000000010410408221642331233481863970823000007695715   1020000200030000   333400010001204104000000281Myanmar Soft-Gate Tech Yangon        MMR11008221642331233480823000000000000000   10300001F05104100000000000416000000000000     
100   62443100355903280000000000002970000000002970002000000010410408231343591359758271150823000007701271   1020000200030000   333400010001204104000000281Myanmar Soft-Gate Tech Yangon        MMR11008231343591359750823000000000000000   10300001F05104100000000000624000000000000     
100   62911028202209440000000000025850000000025850002000000010410408231056390178024773800823000752458631   1030000200030000   541188001002000008000000008KBZ BANK               MARKETPLACE - MMR11008231056390178020823000000000000000   10300001 00104100000000001551000000000000     
100   95050321237170130000000000035350000000035350002000000010410408231322300293483846140823000752474662   1030000200030000   541188001001000008000000008KBZ BANK               MARKETPLACE - MMR11008231322300293480823000000000000000   10300001 00104100000000008838000000000000     
100   95050322957045260000000000001000000000001000002000000010410408231354292429679923630823000007701314   1030000200030000   3338000100012031040000040022C2P (Myanmar) Co. Ltd Yangon        MMR11008231354292429670823000000000000000   10300001F05104100000000000210000000000000     
100   95050316377977350000000000001500000000001500002000000010410408231246461646620349110823000007701049   1030000200030000   3338000100012031040000040022C2P (Myanmar) Co. Ltd Yangon        MMR11008231246461646620823000000000000000   10300001F05104100000000000315000000000000     
100   95050322957045260000000000020000000000020000002000000010410408230752162216440384770823000007699504   1030000200030000   3338000100012031040000040022C2P (Myanmar) Co. Ltd Yangon        MMR11008230752162216440823000000000000000   10300001F05104100000000004200000000000000     
100   95050321848852460000000000725000000000725000002000000010410408231013481079479363610823434811657125   1040001400030000   504510000942025045100005752Technoland Computer Tr ding Co. Ltd( MMR11008231013481079470823000000000000000   10300001 00104100000000174000000000000000     
100   95050328384000040000000000015000000000015000002000000010410408230617390064152448950823000752471161   1030000200030000   799381230911000008000000998KBZ BANK               WONDERLAND AM MMR11008230617390064150823000000000000000   10300001 00104100000000003600000000000000     
100   95050314308945310000000000010000000000010000002000000010410408230731010101828306800823000007699363   1030000200030000   333800010001203104000003327KBZPay                 Yangon        MMR11008230731010101820823000000000000000   10300001F05104100000000002100000000000000     
100   95050313411345710000000000002970000000002970002000000010410408230734380438213689740823000007699392   1020000200030000   333400010001204104000000281Myanmar Soft-Gate Tech Yangon        MMR11008230734380438210823000000000000000   10300001F05104100000000000624000000000000     
100   95030394609966640000000000043600000000043600002000000010410408231548400429474773800823000752487737   1030000200030000   541188001025000008000000298KBZ BANK               CITY MART - M MMR11008231548400429470823000000000000000   10300001 00104100000000002616000000000000     
100   62911028202793040000000000005000000000005000002000000010410408230446561656944773800823000007697808   1030000200030000   3334000100012031040000040102C2P (Myanmar) Co. Ltd Yangon        MMR11008230446561656940823000000000000000   10300001F05104100000000001050000000000000     
100   62911028202291270000000000006800000000006800002000000010410408230358392807604773800823933281039234   1030000900030000   541119001229190110000000946City Mart TM Season C  YANGONONE     MMR11008230358392807600823000000000000000   10300001F00104100000000000408000000000000     
100   95050312641885210000000000004950000000004950002000000010410408230846151615006313930823000007699909   1020000200030000   333400010001204104000000281Myanmar Soft-Gate Tech Yangon        MMR11008230846151615000823000000000000000   10300001F05104100000000001040000000000000     
100   62911028202291270000000000028200000000028200002000000010410408230352442805994773800823859221044234   1030000900030000   541119001220190110000000945City Mart TM C 5       YANGONONE     MMR11008230352442805990823000000000000000   10300001F00104100000000001692000000000000     
100   95050310305109410000000000000990000000000990002000000010410408230358212821483371210823000007697294   1020000200030000   333400010001204104000000281Myanmar Soft-Gate Tech Yangon        MMR11008230358212821480823000000000000000   10300001F05104100000000000208000000000000     
100   95050317343045830000000000004950000000004950002000000010410408230850132013442923870823000007699942   1020000200030000   333400010001204104000000281Myanmar Soft-Gate Tech Yangon        MMR11008230850132013440823000000000000000   10300001F05104100000000001040000000000000     
100   95030314863516850000000000023500000000023500002000000010410408221650142014594773800823000007695726   1030000200030000   333800010001203104000003327KBZPay                 Yangon        MMR11008221650142014590823000000000000000   10300001F05104100000000004935000000000000     
100   62443100390038980000000000041450000000041450002000000010410408230112130052838037730823000752448327   1030000200030000   581288000098000008000003562KBZ BANK               CANTON PARADI MMR11008230112130052830823000000000000000   10300001 00104100000000017617000000000000     
100   95030312100077850000000000030450000000030450002000000010410408231905200209204773800823000752497973   1030000200030000   541188001305000008000000325KBZ BANK               CITY MART - A MMR11008231905200209200823000000000000000   10300001 00104100000000001827000000000000     
100   95050323722449090000000000004409000000004409002000000010410408231534520452016022990823000007701659   1020000200030000   333400010001204104000000281Myanmar Soft-Gate Tech Yangon        MMR11008231534520452010823000000000000000   10300001F05104100000000000926000000000000     
100   62911028202482830000000000008400000000008400002000000010410408231132370199094773800823000752462583   1030000200030000   541188001056000008000000314KBZ BANK               MARKETPLACE - MMR11008231132370199090823000000000000000   10300001 00104100000000000504000000000000     
100   62443100306416880000000000005550000000005550002000000010410408231222530114845668820823000752468357   1030000200030000   541188001062000008000000314KBZ BANK               MARKETPLACE - MMR11008231222530114840823000000000000000   10300001 00104100000000001388000000000000     
100   62443100390038980000000000016950000000016950002000000010410408230112500052843080270823000752448333   1030000200030000   581288000098000008000003562KBZ BANK               CANTON PARADI MMR11008230112500052840823000000000000000   10300001 00104100000000007204000000000000     
100   95030304100077020000000000007300000000007300002000000010410408231229250102224773800823000752469089   1030000200030000   541188001071000008000000314KBZ BANK               MARKETPLACE - MMR11008231229250102220823000000000000000   10300001 00104100000000000438000000000000     
100   62911028202209440000000000008200000000008200002000000010410408231106420270874773800823000752459728   1030000200030000   541188001017000008000000008KBZ BANK               MARKETPLACE - MMR11008231106420270870823000000000000000   10300001 00104100000000000492000000000000     
100   95050318134586070000000000023650000000023650002000000010410408231001180065345704470823000752453559   1030000200030000   541188001321000008000000306KBZ BANK               CITY MART - S MMR11008231001180065340823000000000000000   10300001 00104100000000005913000000000000     
100   95050328082468580000000000050000000000050000002000000010410408230313074307853796690823000007696759   1030000200030000   333800010001203104000003327KBZPay                 Yangon        MMR11008230313074307850823000000000000000   10300001F05104100000000010500000000000000     
100   95050318141561190000000000010000000000010000002000000010410408230627375737560200790823000007698758   1040001600030000   333800010001220104000004507A +                    Yangon        MMR11008230627375737560823000000000000000   10300001F05104100000000002100000000000000     
100   95030320108927800000000000185000000000185000002000000010410408230755322870074773800823860251432234   1030000900030000   592119000255190110000000150HtunHtunOo Liquor (May YANGONONE     MMR11008230755322870070823000000000000000   10300001F00104100000000011100000000000000     
100   95050311382087030000000000000979000000000979002000000010410408230101123112666385240823000007696222   1020000200030000   333400010001204104000000281Myanmar Soft-Gate Tech Yangon        MMR11008230101123112660823000000000000000   10300001F05104100000000000205000000000000     
100   95030301100081330000000000058000000000058000002000000010410408231127094328574773800823223518432857   1040001600030000   598320000660000000010000529Shwe Taung Energy (NPT Naypyitaw     MMR11008231127094328570823000000000000000   10300001F00104100000000001740000000000000     
100   62911028202355870000000001000000000001000000002000000010410408221826495649544773800823000007695886   1030000600030000   333800010001230104000004564Trusty Wallet          Yangon        MMR11008221826495649540823000000000000000   10300001F05104100000000210000000000000000     
100   62911028202355870000000001000000000001000000002000000010410408221825585558494773800823000007695884   1030000600030000   333800010001230104000004564Trusty Wallet          Yangon        MMR11008221825585558490823000000000000000   10300001F05104100000000210000000000000000     
100   95050322957045260000000000001000000000001000002000000010410408230525095509604782200823000007698165   1030000200030000   3338000100012031040000040022C2P (Myanmar) Co. Ltd Yangon        MMR11008230525095509600823000000000000000   10300001F05104100000000000210000000000000     
100   62911028202482830000000000008300000000008300002000000010410408230507112824514773800823689371111234   1030000900030000   581219001611190110000001172Shwepalin JC           YANGONN       MMR11008230507112824510823000000000000000   10300001F00104100000000000847000000000000     
100   95050314557307430000000000001980000000001980002000000010410408230049441944338122820823000007696199   1020000200030000   333400010001204104000000281Myanmar Soft-Gate Tech Yangon        MMR11008230049441944330823000000000000000   10300001F05104100000000000416000000000000     
100   95050324850150480000000000070000000000070000002000000010410408200541050482331509530820223205048233   1030000600030000   554100001106315799420000564DENKO PHYUU            PHYUU         MMR11008200541050482330820000000000000000   10300001 00104100000000008400000000000000     
100   95050316043499650000000000000990000000000990002000000010410408230321055105130747020823000007696861   1020000200030000   333400010001204104000000281Myanmar Soft-Gate Tech Yangon        MMR11008230321055105130823000000000000000   10300001F05104100000000000208000000000000     
100   62911028202809060000000000100000000000100000002000000010410408230821025102074773800823000007699733   1030000200030000   333800010001203104000003327KBZPay                 Yangon        MMR11008230821025102070823000000000000000   10300001F05104100000000021000000000000000     
100   95050315158357300000000000002970000000002970002000000010410408230649231923626810720823000007698988   1020000200030000   333400010001204104000000281Myanmar Soft-Gate Tech Yangon        MMR11008230649231923620823000000000000000   10300001F05104100000000000624000000000000     
100   95050327416134790000000000001980000000001980002000000010410408231322485248176448470823000007701183   1020000200030000   333400010001204104000000281Myanmar Soft-Gate Tech Yangon        MMR11008231322485248170823000000000000000   10300001F05104100000000000416000000000000     
100   95030390626214130000000000046065000000046065002000000010410408200456080231234773800820223204023123   1030000600030000   554100002324315799420000481DENKO NORTH OKKALAPA   YANGON        MMR11008200456080231230820000000000000000   10300001 00104100000000001382000000000000     
100   62911028202527490000000000011000000000011000002000000010410408200448500006144773800820223204000614   1030000600030000   554100002414315799420001684MMTM NORTH-DAGON       YANGON        MMR11008200448500006140820000000000000000   10300001 00104100000000000330000000000000     
100   95050310305440490000000000001800000000001800002000000010410408230531582831106264490823994011258234   1030000900030000   541119001358190110000000977Ocean PZD C 12         YANGONAUNG    MMR11008230531582831100823000000000000000   10300001F00104100000000000450000000000000     
100   95050320205194540000000000052950000000052950002000000010410408231028304264685377870823223517426468   1040001600030000   591220000295000000010000283Shwe Ohh Pharmacy (39t Yangon        MMR11008231028304264680823000000000000000   10300001F00104100000000012708000000000000     
100   95050310121313850000000000080640000000080640002000000010410408231323005300834710890823000007701177   1030000900030000   333800010001202104000003301uab bank               Yangon        MMR11008231323005300830823000000000000000   10300001F05104100000000016934000000000000     
100   62911028202355870000000001000000000001000000002000000010410408221824115411224773800823000007695880   1030000600030000   333800010001230104000004564Trusty Wallet          Yangon        MMR11008221824115411220823000000000000000   10300001F05104100000000210000000000000000     
100   95050319524870520000000000006100000000006100002000000010410408231127402931205306570823939571740234   1030000900030000   541119000136190110000000083SeinGayHarParami Cente YANGON        MMR11008231127402931200823000000000000000   10300001F00104100000000001525000000000000     
100   62911028202524260000000000054000000000054000002000000010410408230233323974314773800823223509397431   1040001600030000   598320000659000000010000528Shwe Taung Energy (YGN Yangon        MMR11008230233323974310823000000000000000   10300001F00104100000000001620000000000000     
100   95050319709462380000000000003000000000003000002000000010410408231420425042621576110823000007701418   1030000200030000   3338000100012031040000040022C2P (Myanmar) Co. Ltd Yangon        MMR11008231420425042620823000000000000000   10300001F05104100000000000630000000000000     
100   62911028202443730000000000026000000000026000002000000010410408230437034036084773800823223511403608   1040001600030000   598320000658000000010000527Shwe Taung Energy (YGN Yangon        MMR11008230437034036080823000000000000000   10300001F00104100000000000780000000000000     
100   62443101093150400000000000050000000000050000002000000010410408201041430602220076950820223210060222   1030000600030000   554100000969315799420000481DENKO NORTH OKKALAPA   YANGON        MMR11008201041430602220820000000000000000   10300001 00104100000000006000000000000000     
100   95050310305440490000000000010000000000010000002000000010410408230525402829231307040823903551140234   1030000900030000   541119001363190110000000977Ocean PZD C17          YANGONAUNG    MMR11008230525402829230823000000000000000   10300001F00104100000000002500000000000000     
100   62911028202446540000000000103980000000103980002000000010410408220349180002484773800822223410000248   1030000500030000   531120201602000085311202016STJ BLAZON             PTN           MMR11008220349180002480822000000000000000   10300001 00104100000000006239000000000000     
100   62911028202294730000000000012404000000012404002000000010410408220524420049194773800822223411004919   1030000500030000   531120226301000045311202263OCEAN SUPER CENTER STJ PTN           MMR11008220524420049190822000000000000000   10300001 00104100000000000744000000000000     
100   62911028202525250000000000051428000000051428002000000010410408221157440015844773800822223418001584   1030000500030000   531120226303000045311202263OCEAN SUPER CENTER STJ PTN           MMR11008221157440015840822000000000000000   10300001 00104100000000003086000000000000     
100   95050313616076540000000000005040000000005040002000000010410408230958312831444406160823000007700329   1030000200030000   333800010001203104000003327KBZPay                 Yangon        MMR11008230958312831440823000000000000000   10300001F05104100000000001058000000000000     
100   62911028202169750000000000011550000000011550002000000010410408220815210034754773800822223414003475   1030000500030000   541120226202000045411202262CITY MART ZAWANA       PTN           MMR11008220815210034750822000000000000000   10300001 00104100000000000693000000000000     
100   62911028202169750000000000017000000000017000002000000010410408220115510011714773800822223407001171   1030000500030000   598320002102000015172200021MAX ENERGY             PTN           MMR11008220115510011710822000000000000000   10300001 00104100000000000510000000000000     
100   95050311959900780000000000000990000000000990002000000010410408230927495749714150870823000007700170   1020000200030000   333400010001204104000000281Myanmar Soft-Gate Tech Yangon        MMR11008230927495749710823000000000000000   10300001F05104100000000000208000000000000     
100   62911028202919290000000000025151000000025151002000000010410408231302103210504773800823000007701099   1030000200030000   333800010001203104000003327KBZPay                 Yangon        MMR11008231302103210500823000000000000000   10300001F05104100000000005282000000000000     
100   95050314287403810000000000041300000000041300002000000010410408231302113211299838540823000007701100   1030000200030000   333800010001203104000003327KBZPay                 Yangon        MMR11008231302113211290823000000000000000   10300001F05104100000000008673000000000000     
100   95050329720609600000000000490000000000490000002000000010410408231147324351958441350823223518435195   1040001600030000   799720001421000000010001118Fit Way Gym-1          Ygn           MMR11008231147324351950823000000000000000   10300001F00104100000000117600000000000000     
100   95050313732480420000000000000990000000000990002000000010410408230508363836914441820823000007697981   1020000200030000   333400010001204104000000281Myanmar Soft-Gate Tech Yangon        MMR11008230508363836910823000000000000000   10300001F05104100000000000208000000000000     
100   62911028202443730000000000018400000000018400002000000010410408230908324202894773800823223516420289   1040001600030000   591220000287000000010000275Shwe Ohh Pharmacy (Wit Yangon        MMR11008230908324202890823000000000000000   10300001F00104100000000001104000000000000     
100   95050311182936420000000000002970000000002970002000000010410408230123105310524732760823000007696283   1020000200030000   333400010001204104000000281Myanmar Soft-Gate Tech Yangon        MMR11008230123105310520823000000000000000   10300001F05104100000000000624000000000000     
100   62443100313529540000000000012800000000012800002000000010410408231135552933176873950823045051855234   1030000900030000   541119000112190110000000077Sein Gay Har Chinatown YANGON        MMR11008231135552933170823000000000000000   10300001F00104100000000003200000000000000     
100   62911028202446540000000000013250000000013250002000000010410408220410230045234773800822223410004523   1030000500030000   531120226305000045311202263OCEAN SUPER CENTER STJ PTN           MMR11008220410230045230822000000000000000   10300001 00104100000000000795000000000000     
100   62443100336591330000000000171238000000171238002000000010410408201434520002114134000820223214000211   1030000600030000   5499000024643157994200017221 STOP  KITCHEN 1      YANGON        MMR11008201434520002110820000000000000000   10300001 00104100000000072776000000000000     
100   95050314995854750000000000003650000000003650002000000010410408200938340002794608920820223209000279   1030000600030000   5499000022623157994200015731 STOP S M LAYHTAUKKAN YANGON        MMR11008200938340002790820000000000000000   10300001 00104100000000001552000000000000     
100   62911028202151910000000000027000000000027000002000000010410408201152210228314773800820223211022831   1030000600030000   809900000537315799420000147GRAND HANTHA HOSPITAL  YANGON        MMR11008201152210228310820000000000000000   10300001 00104100000000001620000000000000     
100   95050322498193470000000000050000000000050000002000000010410408201229230187126843290820223212018712   1030000600030000   554100002328315799420001235DENKO NAY PYI TAW 2    NAYPYITAW     MMR11008201229230187120820000000000000000   10300001 00104100000000006000000000000000     
100   62911028202709150000000000050000000000050000002000000010410408200539010231304773800820223205023130   1030000600030000   554100002324315799420000481DENKO NORTH OKKALAPA   YANGON        MMR11008200539010231300820000000000000000   10300001 00104100000000001500000000000000     
100   62911028202680670000000000028800000000028800002000000010410408200633460885494773800820223206088549   1030000600030000   554100000955315799420000477DENKO INSEIN           YANGON        MMR11008200633460885490820000000000000000   10300001 00104100000000000864000000000000     
100   62911028202103410000000000037000000000037000002000000010410408200547170424554773800820223205042455   1030000600030000   554100002085315799420000471DENKO BAHAN            YANGON        MMR11008200547170424550820000000000000000   10300001 00104100000000001110000000000000     
100   95050315099113150000000000000990000000000990002000000010410408230400223022938328670823000007697327   1020000200030000   333400010001204104000000281Myanmar Soft-Gate Tech Yangon        MMR11008230400223022930823000000000000000   10300001F05104100000000000208000000000000     
100   95050323233042810000000000002970000000002970002000000010410408230258432843741087410823000007696621   1020000200030000   333400010001204104000000281Myanmar Soft-Gate Tech Yangon        MMR11008230258432843740823000000000000000   10300001F05104100000000000624000000000000     
100   62911028202684060000000000077100000000077100002000000010410408230520424063274773800823223512406327   1040001600030000   598320000658000000010000527Shwe Taung Energy (YGN Yangon        MMR11008230520424063270823000000000000000   10300001F00104100000000002313000000000000     
100   95050312937155340000000000025750000000025750002000000010410408230952254232456058650823223516423245   1040001600030000   591220000291000000010000279Shwe Ohh Pharmacy (Sou Yangon        MMR11008230952254232450823000000000000000   10300001F00104100000000006180000000000000     
100   95050310427855490000000000001980000000001980002000000010410408231127275727923895580823000007700721   1020000200030000   333400010001204104000000281Myanmar Soft-Gate Tech Yangon        MMR11008231127275727920823000000000000000   10300001F05104100000000000416000000000000     
100   62911028202179990000000000033710000000033710002000000010410408231143392935244773800823163131839234   1030000900030000   541119001263190110000000958City Mart PLST C 6     YANGONMYOTHIT MMR11008231143392935240823000000000000000   10300001F00104100000000002023000000000000     
100   62911028202611530000000000036000000000036000002000000010410408230249033982524773800823223509398252   1040001600030000   541120000555000000010000465Ocean Shwe Gone Daing  Yangon        MMR11008230249033982520823000000000000000   10300001F00104100000000002160000000000000     
100   62911028202417750000000000120000000000120000002000000010410408230707054133354773800823223514413335   1040001600030000   598320000660000000010000529Shwe Taung Energy (NPT Naypyitaw     MMR11008230707054133350823000000000000000   10300001F00104100000000003600000000000000     
100   62911028202404050000000000030000000000030000002000000010410408200249411068374773800820223202106837   1030000600030000   554100000946315799420000471DENKO BAHAN            YANGON        MMR11008200249411068370820000000000000000   10300001 00104100000000000900000000000000     
100   62911028202474000000000000030000000000030000002000000010410408200704240424724773800820223207042472   1030000600030000   554100002085315799420000471DENKO BAHAN            YANGON        MMR11008200704240424720820000000000000000   10300001 00104100000000000900000000000000     
100   62911028202916630000000000029654000000029654002000000010410408190222560009814773800819223102000981   1030000600030000   5499000022273157994200015671 STOP S M BOGYOKE RD  YANGON        MMR11008190222560009810819000000000000000   10300001 00104100000000003025000000000000     
100   95050324250133010000000000011000000000011000002000000010410408191108580018170658570819223111001817   1030000600030000   5499000022373157994200015691 STOP S M SATSAN      YANGON        MMR11008191108580018170819000000000000000   10300001 00104100000000004675000000000000     
100   62911028202181120000000000035000000000035000002000000010410408190734090233084773800819223107023308   1030000600030000   554100002320315799420000564DENKO PHYUU            PHYUU         MMR11008190734090233080819000000000000000   10300001 00104100000000001050000000000000     
100   62911028202417260000000000020000000000020000002000000010410408191418480423744773800819223114042374   1030000600030000   554100002085315799420000471DENKO BAHAN            YANGON        MMR11008191418480423740819000000000000000   10300001 00104100000000000600000000000000     
100   62443100300743690000000000013650000000013650002000000010410408191447090023287474350819223114002328   1030000600030000   5499000022293157994200015671 STOP S M BOGYOKE RD  YANGON        MMR11008191447090023280819000000000000000   10300001 00104100000000005802000000000000     
100   62443101000669310000000000132300000000132300002000000010410408220208110000176118790822223408000017   1030000500030000   701120274001000027011202740SHWE NAN HTIKE HOTEL   PTN           MMR11008220208110000170822000000000000000   10300001 00104100000000056228000000000000     
100   95030363090756500000000000030000000000030000002000000010410408231159494366334773800823223518436633   1040001600030000   598320000660000000010000529Shwe Taung Energy (NPT Naypyitaw     MMR11008231159494366330823000000000000000   10300001F00104100000000000900000000000000     
100   95050314463050430000000000300000000000300000002000000010410408230515454545942704230823000007698042   1030000200030000   333800010001203104000003327KBZPay                 Yangon        MMR11008230515454545940823000000000000000   10300001F05104100000000063000000000000000     
100   62911028202355870000000001000000000001000000002000000010410408221822515251084773800823000007695879   1030000600030000   333800010001230104000004564Trusty Wallet          Yangon        MMR11008221822515251080823000000000000000   10300001F05104100000000210000000000000000     
100   62911028202217690000000000100000000000100000002000000010410408230319374937984773800823000007696844   1030000200030000   333800010001203104000003327KBZPay                 Yangon        MMR11008230319374937980823000000000000000   10300001F05104100000000021000000000000000     
100   62911028202355870000000001000000000001000000002000000010410408221825025502404773800823000007695882   1030000600030000   333800010001230104000004564Trusty Wallet          Yangon        MMR11008221825025502400823000000000000000   10300001F05104100000000210000000000000000     
100   95050322295410690000000000030000000000030000002000000010410408230655122854135498620823100251312234   1030000900030000   554119000348190110000000215New Day Energy MYG     YANGONONE     MMR11008230655122854130823000000000000000   10300001F00104100000000003600000000000000     
100   95050316110433120000000000011700000000011700002000000010410408231144082935415136370823170141808234   1030000900030000   541119000115190110000000078Sein Gay Har Kan Thar  YANGONOKKALAP MMR11008231144082935410823000000000000000   10300001F00104100000000002925000000000000     
100   62911028202789750000000000002100000000002100002000000010410408230257293986724773800823223509398672   1040001600030000   591220000271000000010000259Shwe Ohh Pharmacy (Gwa Yangon        MMR11008230257293986720823000000000000000   10300001F00104100000000000126000000000000     
100   62911028202169750000000000016500000000016500002000000010410408220551570000174773800822223412000017   1030000500030000   481220050001020104812200500TELE MOBILE            PTN           MMR11008220551570000170822000000000000000   10300001 00104100000000000990000000000000     
100   95030366960186690000000000049300000000049300002000000010410408221154580002014773800822223418000201   1030000500030000   531120155702000045311201557GAMONE PWINT           PTN           MMR11008221154580002010822000000000000000   10300001 00104100000000002958000000000000     
100   95030366960186690000000000004800000000004800002000000010410408221228410002024773800822223418000202   1030000500030000   531120155702000045311201557GAMONE PWINT           PTN           MMR11008221228410002020822000000000000000   10300001 00104100000000000288000000000000     
100   95050318065288040000000000006900000000006900002000000010410408221112440001609871100822223417000160   1030000500030000   591220013401014405912200134SHWE OHH PHARMACY      PTN           MMR11008221112440001600822000000000000000   10300001 00104100000000001656000000000000     
100   62911028202319090000000000042600000000042600002000000010410408220454280001014773800822223411000101   1030000500030000   591220011201014405912200112SHWE OHH PHARMACY      PTN           MMR11008220454280001010822000000000000000   10300001 00104100000000002556000000000000     
100   62911028202280200000000000037100000000037100002000000010410408220723480002684773800822223413000268   1030000500030000   591220011301014405912200113SHWE OHH PHARMACY      PTN           MMR11008220723480002680822000000000000000   10300001 00104100000000002226000000000000     
100   62911028202169750000000000015000000000015000002000000010410408220703220001234773800822223413000123   1030000500030000   573220039701000015732200397REMAX                  PTN           MMR11008220703220001230822000000000000000   10300001 00104100000000000900000000000000     
100   62911028202132460000000000007776000000007776002000000010410408221104290001994773800822223417000199   1030000500030000   531120155807000045311201558GAMONE PWINT           PTN           MMR11008221104290001990822000000000000000   10300001 00104100000000000467000000000000     
100   95050312160676580000000000000990000000000990002000000010410408230415324532879909850823000007697485   1020000200030000   333400010001204104000000281Myanmar Soft-Gate Tech Yangon        MMR11008230415324532870823000000000000000   10300001F05104100000000000208000000000000     
100   95050311121153200000000000001000000000001000002000000010410408231358302830974881090823000007701324   1030000200030000   333800010001203104000003327KBZPay                 Yangon        MMR11008231358302830970823000000000000000   10300001F05104100000000000210000000000000     
100   62911028202448030000000000080000000000080000002000000010410408220408220017964773800822223410001796   1030000500030000   598320001204000015172200012MAX ENERGY             PTN           MMR11008220408220017960822000000000000000   10300001 00104100000000002400000000000000     
100   62911028202397530000000000105000000000105000002000000010410408210902530217604773800821223309021760   1030000600030000   554100001011315799420000505DENKO HTAN TA PIN      YANGON        MMR11008210902530217600821000000000000000   10300001 00104100000000003150000000000000     
100   95050327456215690000000000050000000000050000002000000010410408230648386145231768180823183812464996   1040001400030000   581210000466025812100002956Golden Duck Restaurant (Junction 8)  MMR11008230648386145230823000000000000000   10300001 00104100000000021250000000000000     
100   95050324247403260000000000071000000000071000002000000010410408220404560601752607980822223404060175   1030000600030000   554100001001315799420000498DENKO SHWE PYI THAR    YANGON        MMR11008220404560601750822000000000000000   10300001 00104100000000008520000000000000     
100   95030305700676370000000000090000000000090000002000000010410408221227500124734773800822223412012473   1030000600030000   554100000757315799420000328DENKO  HTONE BO        MANDALAY      MMR11008221227500124730822000000000000000   10300001 00104100000000002700000000000000     
100   95050315259054570000000000005000000000005000002000000010410408230529475947473044620823000007698210   1030000200030000   333800010001203104000003327KBZPay                 Yangon        MMR11008230529475947470823000000000000000   10300001F05104100000000001050000000000000     
100   62911028202150190000000000060000000000060000002000000010410408220446410015514773800822223411001551   1030000500030000   598320001304000015172200013MAX ENERGY             PTN           MMR11008220446410015510822000000000000000   10300001 00104100000000001800000000000000     
100   62911028202185590000000000032500000000032500002000000010410408220725540010734773800822223413001073   1030000500030000   598320068301000055983200683MAX ENERGY             PTN           MMR11008220725540010730822000000000000000   10300001 00104100000000000975000000000000     
100   95050328035424750000000000049771000000049771002000000010410408220708170016926019910822223413001692   1030000500030000   531120231219000045311202312OCEAN OATTARA THIRI    PTN           MMR11008220708170016920822000000000000000   10300001 00104100000000011945000000000000     
100   62911028202086910000000000086000000000086000002000000010410408220823490041114773800822000362558098   1030000300030000   804300002919000000000002023CB BANK                MYANMAR AMERI MMR11008220823490041110822000000000000000   10300001F00104100000000005160000000000000     
100   62911028202407100000000000086500000000086500002000000010410408220635130058954773800822000362540191   1030000300030000   541100002337000000000000102CB BANK                MAKRO MYANMAR MMR11008220635130058950822000000000000000   10300001F00104100000000005190000000000000     
100   62443100300743690000000000007500000000007500002000000010410408221419410010476821420822000362606591   1030000300030000   541100000441000000000000319CB BANK                ONESTOP KITCH MMR11008221419410010470822000000000000000   10300001F00104100000000001875000000000000     
100   62911028202684060000000000028865000000028865002000000010410408220807220038064773800822223414003806   1030000500030000   531120226710000045311202267OCEAN NORTH POINT      PTN           MMR11008220807220038060822000000000000000   10300001 00104100000000001732000000000000     
100   95030366960186690000000000049800000000049800002000000010410408221219530007414773800822223418000741   1030000500030000   531120155714000045311201557GAMONE PWINT           PTN           MMR11008221219530007410822000000000000000   10300001 00104100000000002988000000000000     
100   62443100323428970000000001500000000001500000002000000010410408200952230019686857080820223209001968   1030000600030000   806200002189315799420001535ASIA ROYAL HOSPITAL    YANGON        MMR11008200952230019680820000000000000000   10300001 00104100000000360000000000000000     
100   95050320559934420000000000018985000000018985002000000010410408220547060044257430890822223412004425   1030000500030000   541120230002000045411202300MARKET PLACE BY CITY M PTN           MMR11008220547060044250822000000000000000   10300001 00104100000000004747000000000000     
100   95050322954091830000000000041400000000041400002000000010410408220759590023255473670822223414002325   1030000500030000   541120226206000045411202262CITY MART ZAWANA       PTN           MMR11008220759590023250822000000000000000   10300001 00104100000000010350000000000000     
100   62443101093150400000000000020700000000020700002000000010410408230026432770371427790823674560643234   1030000900030000   581219000528190110000000376Shwepalin (Hantharwadd YANGONUT      MMR11008230026432770370823000000000000000   10300001F00104100000000008798000000000000     
100   62911028202392820000000000021597000000021597002000000010410408231158100066034773800823000752465692   1030000200030000   541188001420000008000000401KBZ BANK               OCEAN SUPERCE MMR11008231158100066030823000000000000000   10300001 00104100000000001296000000000000     
100   62443100390038980000000000020850000000020850002000000010410408210721100023957559710821223307002395   1030000600030000   581200002191315799420001536CANTON PARADISE TC     YANGON        MMR11008210721100023950821000000000000000   10300001 00104100000000008862000000000000     
100   62911028202540670000000000040000000000040000002000000010410408221121340059264773800822223411005926   1030000600030000   554100001257315799420000711DENKO MAUBIN           MAUBIN        MMR11008221121340059260822000000000000000   10300001 00104100000000001200000000000000     
100   95030318100004530000000000030000000000030000002000000010410408220458220130944773800822223404013094   1030000600030000   554100001218315799420000670DENKO MAWLAMYAING      MON STATE.    MMR11008220458220130940822000000000000000   10300001 00104100000000000900000000000000     
100   62443100399918110000000000033765000000033765002000000010410408220845490019727041060822223415001972   1030000500030000   531120226304000045311202263OCEAN SUPER CENTER STJ PTN           MMR11008220845490019720822000000000000000   10300001 00104100000000008104000000000000     
100   95050322220807920000000000013798000000013798002000000010410408220847560019730431120822223415001973   1030000500030000   531120226304000045311202263OCEAN SUPER CENTER STJ PTN           MMR11008220847560019730822000000000000000   10300001 00104100000000003312000000000000     
100   62911028202312890000000000060000000000060000002000000010410408220709120013344773800822223413001334   1030000500030000   598320001601000015172200016MAX ENERGY             PTN           MMR11008220709120013340822000000000000000   10300001 00104100000000001800000000000000     
100   62911028202667150000000000050000000000050000002000000010410408220554370013374773800822223412001337   1030000500030000   598320001604000015172200016MAX ENERGY             PTN           MMR11008220554370013370822000000000000000   10300001 00104100000000001500000000000000     
100   62911028202150190000000000032200000000032200002000000010410408220820470028234773800822000362557631   1030000300030000   581200001885000000000001350CB BANK                OISHII RESTAU MMR11008220820470028230822000000000000000   10300001F00104100000000003284000000000000     
100   62911028202110420000000000090000000000090000002000000010410408220936520018434773800822223416001843   1030000500030000   598320001204000015172200012MAX ENERGY             PTN           MMR11008220936520018430822000000000000000   10300001 00104100000000002700000000000000     
100   62911028202792960000000000015300000000015300002000000010410408220332120016644773800822223410001664   1030000500030000   541120227605000045411202276CITY MART ( 47 BRANCH  PTN           MMR11008220332120016640822000000000000000   10300001 00104100000000000918000000000000     
100   95050315344668630000000000008100000000008100002000000010410408221105000039317708040822223417003931   1030000500030000   541120203706000015411202037CITY MART SUPERMARKET  PTN           MMR11008221105000039310822000000000000000   10300001 00104100000000002025000000000000     
