100   62443100300743690000000000032000000000032000002000000010410408241205365177809080740824223619517780   1040001600030000   598320000911000000010000662MMTM - Tamwe           Ygn           MMR11008241205365177800824000000000000000   10300001F00104100000000003840000000000000     
100   62911028202260160000000000057000000000057000002000000010410408230722550045964773800823223513004596   1030000500030000   541120226203000045411202262CITY MART ZAWANA       PTN           MMR11008230722550045960823000000000000000   10300001 00104100000000003420000000000000     
100   95050324850150480000000000080000000000080000002000000010410408240151110059847845670824000752511898   1030000200030000   598388001833000008000005310KBZ BANK               BOC (138 MILE MMR11008240151110059840824000000000000000   10300001 00104100000000009600000000000000     
100   62443100383487320000000000027020000000027020002000000010410408241051310258167329380824000752522305   1030000200030000   541188001054000008000000314KBZ BANK               MARKETPLACE - MMR11008241051310258160824000000000000000   10300001 00104100000000006755000000000000     
100   62443100396287690000000000004000000000004000002000000010410408230921560000862583490823223515000086   1030000500030000   829920171902000048299201719BRITISH COUNCIL (YGN)  PTN           MMR11008230921560000860823000000000000000   10300001 00104100000000000960000000000000     
100   95050318741700180000000000000990000000000990002000000010410408240213444344655597510824000007702486   1020000200030000   333400010001204104000000281Myanmar Soft-Gate Tech Yangon        MMR11008240213444344650824000000000000000   10300001F05104100000000000208000000000000     
100   95030301100121270000000000063000000000063000002000000010410408241028545070164773800824223617507016   1040001600030000   598320000917000000010000665MMTM - Thingangyun     Ygn           MMR11008241028545070160824000000000000000   10300001F00104100000000001890000000000000     
100   62443100312243020000000000170000000000170000002000000010410408240709343934456236920824000007705280   1030000200030000   333800010001203104000003327KBZPay                 Yangon        MMR11008240709343934450824000000000000000   10300001F05104100000000035700000000000000     
100   95050321848852460000000000045000000000045000002000000010410408241501283249714123290824635312128235   1030000900030000   554119000348190110000000215New Day Energy MYG     YANGONONE     MMR11008241501283249710824000000000000000   10300001F00104100000000005400000000000000     
100   62443100323891610000000000015000000000015000002000000010410408230954030124847711130823223509012484   1030000600030000   554100000757315799420000328DENKO  HTONE BO        MANDALAY      MMR11008230954030124840823000000000000000   10300001 00104100000000001800000000000000     
100   62911028202314040000000000018600000000018600002000000010410408240758420008794773800824000752542897   1030000200030000   569988002300000008000006125KBZ BANK               SOON - JUNCTI MMR11008240758420008790824000000000000000   10300001 00104100000000001116000000000000     
100   62443100323891610000000000068618000000068618002000000010410408241420030006802080980824000752542220   1030000200030000   541188001359000008000000395KBZ BANK               OCEAN SUPERMA MMR11008241420030006800824000000000000000   10300001 00104100000000017155000000000000     
100   95050320092651450000000000030000000000030000002000000010410408221342580429916736330822223413042991   1030000600030000   554100002085315799420000471DENKO BAHAN            YANGON        MMR11008221342580429910822000000000000000   10300001 00104100000000003600000000000000     
100   95050324850150480000000000082000000000082000002000000010410408220124210234672893200822223401023467   1030000600030000   554100002320315799420000564DENKO PHYUU            PHYUU         MMR11008220124210234670822000000000000000   10300001 00104100000000009840000000000000     
100   62443101037081820000000000075653000000075653002000000010410408220333470158593494600822223403015859   1030000600030000   581200000524315799420000141FUJI COFFEE HOUSE      YANGON        MMR11008220333470158590822000000000000000   10300001 00104100000000032153000000000000     
100   62443100313112320000000000045000000000045000002000000010410408221304370429842119260822223413042984   1030000600030000   554100002085315799420000471DENKO BAHAN            YANGON        MMR11008221304370429840822000000000000000   10300001 00104100000000005400000000000000     
100   62911028202397530000000000085000000000085000002000000010410408230824130013514773800823223514001351   1030000500030000   598320002702000015172200027MAX ENERGY             PTN           MMR11008230824130013510823000000000000000   10300001 00104100000000002550000000000000     
100   62911028202527490000000000016000000000016000002000000010410408230417490007914773800823223504000791   1030000600030000   554100002414315799420001684MMTM NORTH-DAGON       YANGON        MMR11008230417490007910823000000000000000   10300001 00104100000000000480000000000000     
100   95050315110306410000000000001000000000001000002000000010410408241242401240132300610824000007707322   1030000200030000   333800010001203104000003327KBZPay                 Yangon        MMR11008241242401240130824000000000000000   10300001F05104100000000000210000000000000     
100   62443100336591330000000000020700000000020700002000000010410408231207460004663824270823223518000466   1030000500030000   531120226739000045311202267OCEAN NORTH POINT      PTN           MMR11008231207460004660823000000000000000   10300001 00104100000000004968000000000000     
100   95050316067768680000000000001980000000001980002000000010410408240120525052794540700824000007702345   1020000200030000   333400010001204104000000281Myanmar Soft-Gate Tech Yangon        MMR11008240120525052790824000000000000000   10300001F05104100000000000416000000000000     
100   62443101093150400000000000030000000000030000002000000010410408231039090008609023230823223517000860   1030000500030000   598320015601000045983200156REGENCY PETROL STATION PTN           MMR11008231039090008600823000000000000000   10300001 00104100000000003600000000000000     
100   95050313732480420000000000002970000000002970002000000010410408240352072207097074090824000007703092   1020000200030000   333400010001204104000000281Myanmar Soft-Gate Tech Yangon        MMR11008240352072207090824000000000000000   10300001F05104100000000000624000000000000     
100   62443100371022130000000000208200000000208200002000000010410408241134003211353066480824696041800235   1030000900030000   541119000148190110000000083SeinGayHarParami Cente YANGON        MMR11008241134003211350824000000000000000   10300001F00104100000000052050000000000000     
100   62443100300792360000000000140000000000140000002000000010410408230645460019968463210823223513001996   1030000500030000   598320001203000015172200012MAX ENERGY             PTN           MMR11008230645460019960823000000000000000   10300001 00104100000000016800000000000000     
100   62911028202822250000000000050000000000050000002000000010410408230544390011454773800823223512001145   1030000500030000   598320068302000055983200683MAX ENERGY             PTN           MMR11008230544390011450823000000000000000   10300001 00104100000000001500000000000000     
100   95030305234413920000000000019952000000019952002000000010410408231219210045124773800823223518004512   1030000500030000   531120226314000045311202263OCEAN SUPER CENTER STJ PTN           MMR11008231219210045120823000000000000000   10300001 00104100000000001197000000000000     
100   95030346179196360000000000052005000000052005002000000010410408231015084252264773800823223517425226   1040001600030000   598320000856000000010000609Terminal Petrol Statio Yangon        MMR11008231015084252260823000000000000000   10300001F00104100000000001560000000000000     
100   95050325305150830000000000000990000000000990002000000010410408240649171917495981620824000007705084   1020000200030000   333400010001204104000000281Myanmar Soft-Gate Tech Yangon        MMR11008240649171917490824000000000000000   10300001F05104100000000000208000000000000     
100   62911028202421040000000000006500000000006500002000000010410408230828390015554773800823223514001555   1030000500030000   541120229002000045411202290CITY MART SUPERMARKET  PTN           MMR11008230828390015550823000000000000000   10300001 00104100000000000390000000000000     
100   62911028202151340000000000003450000000003450002000000010410408241519480242654773800824000752546979   1030000200030000   541188001075000008000000294KBZ BANK               CITY MART - J MMR11008241519480242650824000000000000000   10300001 00104100000000000207000000000000     
100   62911028202656670000000000046500000000046500002000000010410408241615590060644773800824000752550306   1030000200030000   541188001079000008000000294KBZ BANK               CITY MART - J MMR11008241615590060640824000000000000000   10300001 00104100000000002790000000000000     
100   95050312618592720000000000020000000000020000002000000010410408241318154815979336030824000007707472   1030000200030000   333800010001203104000003327KBZPay                 Yangon        MMR11008241318154815970824000000000000000   10300001F05104100000000004200000000000000     
100   95050325593833300000000000006300000000006300002000000010410408241034383196302896290824907041738235   1030000900030000   541119001080190110000000872Sein Gay Har Hledan    YANGONUT      MMR11008241034383196300824000000000000000   10300001F00104100000000001575000000000000     
100   95050319928585020000000000000990000000000990002000000010410408240912044204600003020824000007706266   1020000200030000   333400010001204104000000281Myanmar Soft-Gate Tech Yangon        MMR11008240912044204600824000000000000000   10300001F05104100000000000208000000000000     
100   95050315701710960000000000000990000000000990002000000010410408241213534353547428260824000007707217   1020000200030000   333400010001204104000000281Myanmar Soft-Gate Tech Yangon        MMR11008241213534353540824000000000000000   10300001F05104100000000000208000000000000     
100   95050325139996190000000000003300000000003300002000000010410408240512074207726563510824000007703987   1030000200030000   333300010001203104000003632Myanmar Tradenet Test  Yangon        MMR11008240512074207720824000000000000000   10300001F05104100000000010000000000000000     
100   62911028202328810000000000040000000000040000002000000010410408240320354802954773800824223610480295   1040001600030000   598320000911000000010000662MMTM - Tamwe           Ygn           MMR11008240320354802950824000000000000000   10300001F00104100000000001200000000000000     
100   62443100300792360000000000024500000000024500002000000010410408241054375097369421130824223617509736   1040001600030000   592120000943000000010000690Shwe Gone Daing Liquor Ygn           MMR11008241054375097360824000000000000000   10300001F00104100000000005880000000000000     
100   95050325139996190000000000003300000000003300002000000010410408240521395139190208860824000007704082   1030000200030000   333300010001203104000003632Myanmar Tradenet Test  Yangon        MMR11008240521395139190824000000000000000   10300001F05104100000000010000000000000000     
100   62911028202713920000000000017675000000017675002000000010410408240658393135004773800824891281339235   1030000900030000   541119001242190110000000955City Mart JS C 1       YANGONUT      MMR11008240658393135000824000000000000000   10300001F00104100000000001061000000000000     
100   95050315424817550000000000001980000000001980002000000010410408240803333333120853980824000007705770   1020000200030000   333400010001204104000000281Myanmar Soft-Gate Tech Yangon        MMR11008240803333333120824000000000000000   10300001F05104100000000000416000000000000     
100   62443100330108240000000000004950000000004950002000000010410408240920565056295385950824000007706347   1020000200030000   333400010001204104000000281Myanmar Soft-Gate Tech Yangon        MMR11008240920565056290824000000000000000   10300001F05104100000000001040000000000000     
100   95050322343585250000000000100000000000100000002000000010410408241106373637636031070824000007706934   1030000200030000   333800010001203104000003327KBZPay                 Yangon        MMR11008241106373637630824000000000000000   10300001F05104100000000021000000000000000     
100   62911028202451150000000000091895000000091895002000000010410408240543403114704773800824924131240235   1030000900030000   541119001159190110000000930OCEAN HTY C 9          YANGONTHARYA  MMR11008240543403114700824000000000000000   10300001F00104100000000005514000000000000     
100   62911028202449440000000000391800000000391800002000000010410408241321003236544773800824130511900235   1030000900030000   581219000368190110000000241Beauty In The Pot (PHS YANGON        MMR11008241321003236540824000000000000000   10300001F00104100000000039964000000000000     
100   95050318131043910000000000000990000000000990002000000010410408241307583758112641000824000007707424   1020000200030000   333400010001204104000000281Myanmar Soft-Gate Tech Yangon        MMR11008241307583758110824000000000000000   10300001F05104100000000000208000000000000     
100   62911028202685470000000000030000000000030000002000000010410408240649294928454773800824223613492845   1040001600030000   806220000002000000010000001Victoria Hospital      Yangon        MMR11008240649294928450824000000000000000   10300001F00104100000000001800000000000000     
100   95050313702988830000000000002970000000002970002000000010410408240226265626342462730824000007702538   1020000200030000   333400010001204104000000281Myanmar Soft-Gate Tech Yangon        MMR11008240226265626340824000000000000000   10300001F05104100000000000624000000000000     
100   95050315245968360000000000037000000000037000002000000010410408240942253180651230020824073121625235   1030000900030000   541119001329190110000000971Ocean Junction NPT C 7 NAYPYITAW     MMR11008240942253180650824000000000000000   10300001F00104100000000009250000000000000     
100   95050314126593570000000000017550000000017550002000000010410408241158123216937938840824001281812235   1030000900030000   723019001041190110000000846Beauty Diary IS        YANGONUT      MMR11008241158123216930824000000000000000   10300001F00104100000000004212000000000000     
100   95050310332595380000000000000990000000000990002000000010410408241502203220992470810824000007707811   1020000200030000   333400010001204104000000281Myanmar Soft-Gate Tech Yangon        MMR11008241502203220990824000000000000000   10300001F05104100000000000208000000000000     
100   62443100312243020000000000300000000000300000002000000010410408240708253825249541880824000007705266   1030000200030000   333800010001203104000003327KBZPay                 Yangon        MMR11008240708253825240824000000000000000   10300001F05104100000000063000000000000000     
100   62443100306416880000000000011342000000011342002000000010410408231022240000807115450823223516000080   1030000500030000   581220202201000015812202022PAN PACIFIC(MARKET PLA PTN           MMR11008231022240000800823000000000000000   10300001 00104100000000004821000000000000     
100   62911028202464440000000000016900000000016900002000000010410408241514190060544773800824000752546612   1030000200030000   541188001079000008000000294KBZ BANK               CITY MART - J MMR11008241514190060540824000000000000000   10300001 00104100000000001014000000000000     
100   95050318057347910000000000052400000000052400002000000010410408241716360052139506230824000752553862   1030000200030000   541188001428000008000000401KBZ BANK               OCEAN SUPERCE MMR11008241716360052130824000000000000000   10300001 00104100000000013100000000000000     
100   62911028202221220000000000008900000000008900002000000010410408241117540178694773800824000752524783   1030000200030000   541188001002000008000000008KBZ BANK               MARKETPLACE - MMR11008241117540178690824000000000000000   10300001 00104100000000000534000000000000     
100   62911028202691640000000000157931000000157931002000000010410408241149060178754773800824000752527868   1030000200030000   541188001002000008000000008KBZ BANK               MARKETPLACE - MMR11008241149060178750824000000000000000   10300001 00104100000000009476000000000000     
100   62911028202472440000000000007800000000007800002000000010410408241236100139134773800824000752532331   1030000200030000   541188001033000008000000298KBZ BANK               CITY MART - M MMR11008241236100139130824000000000000000   10300001 00104100000000000468000000000000     
100   62443101053241940000000000029700000000029700002000000010410408241620440138067925050824000752550624   1030000200030000   541188001303000008000000325KBZ BANK               CITY MART - A MMR11008241620440138060824000000000000000   10300001 00104100000000007425000000000000     
100   62911028202440680000000000014400000000014400002000000010410408240940400242524773800824000752515581   1030000200030000   541188001075000008000000294KBZ BANK               CITY MART - J MMR11008240940400242520824000000000000000   10300001 00104100000000000864000000000000     
100   62911028202397530000000000105000000000105000002000000010410408231228230007594773800823223518000759   1030000500030000   598320015701000045983200157REGENCY PETROL STATION PTN           MMR11008231228230007590823000000000000000   10300001 00104100000000003150000000000000     
100   95050322990383760000000000001200000000001200002000000010410408230848080008482838780823223515000848   1030000500030000   541120203712000015411202037CITY MART SUPERMARKET  PTN           MMR11008230848080008480823000000000000000   10300001 00104100000000000300000000000000     
100   62911028202193830000000000070000000000070000002000000010410408230953010014314773800823223516001431   1030000500030000   598320001602000015172200016MAX ENERGY             PTN           MMR11008230953010014310823000000000000000   10300001 00104100000000002100000000000000     
100   62443101037081820000000000100000000000100000002000000010410408231328470020156363380823223519002015   1030000500030000   598320001204000015172200012MAX ENERGY             PTN           MMR11008231328470020150823000000000000000   10300001 00104100000000012000000000000000     
100   62443100300792360000000000091700000000091700002000000010410408231035460016235292780823223517001623   1030000500030000   598320001101000015172200011MAX ENERGY             PTN           MMR11008231035460016230823000000000000000   10300001 00104100000000011004000000000000     
100   62443100306045460000000000082000000000082000002000000010410408231248320025621491020823000752498447   1030000200030000   806288001903000008000001738KBZ BANK               SHWE GONE DIN MMR11008231248320025620823000000000000000   10300001 00104100000000019680000000000000     
100   62443100306045460000000000011500000000011500002000000010410408231310040025638100960823000752499055   1030000200030000   806288001903000008000001738KBZ BANK               SHWE GONE DIN MMR11008231310040025630823000000000000000   10300001 00104100000000002760000000000000     
100   62911028202118690000000000014453000000014453002000000010410408231208560029444773800823223518002944   1030000500030000   531120226306000045311202263OCEAN SUPER CENTER STJ PTN           MMR11008231208560029440823000000000000000   10300001 00104100000000000867000000000000     
100   95050320996331370000000000031000000000031000002000000010410408231351540002956618670823223520000295   1030000500030000   541120045801009205411200458126 STORE              PTN           MMR11008231351540002950823000000000000000   10300001 00104100000000007750000000000000     
100   95050312287957830000000000004900000000004900002000000010410408230454250014462789330823223511001446   1030000500030000   531120155802000045311201558GAMONE PWINT           PTN           MMR11008230454250014460823000000000000000   10300001 00104100000000001176000000000000     
100   95050324154190880000000000020000000000020000002000000010410408231138030016968526440823223518001696   1030000500030000   598320001301000015172200013MAX ENERGY             PTN           MMR11008231138030016960823000000000000000   10300001 00104100000000002400000000000000     
100   62911028202149130000000000023300000000023300002000000010410408230508270002074773800823223511000207   1030000500030000   591220211101014405912202111SHWE OHH PHARMACY      PTN           MMR11008230508270002070823000000000000000   10300001 00104100000000001398000000000000     
100   62443100330727820000000000102500000000102500002000000010410408230418330003756604880823000362700220   1030000300030000   541100002341000000000000102CB BANK                MAKRO MYANMAR MMR11008230418330003750823000000000000000   10300001F00104100000000025625000000000000     
100   62911028202542160000000000049700000000049700002000000010410408230519250007904773800823223511000790   1030000500030000   806220172406013008062201724GRAND HANTHA HOSPITAL  PTN           MMR11008230519250007900823000000000000000   10300001 00104100000000002982000000000000     
100   62911028202421040000000000003600000000003600002000000010410408230829390015564773800823223514001556   1030000500030000   541120229002000045411202290CITY MART SUPERMARKET  PTN           MMR11008230829390015560823000000000000000   10300001 00104100000000000216000000000000     
100   95050322990383760000000000014100000000014100002000000010410408230902330025601526670823223515002560   1030000500030000   541120203705000015411202037CITY MART SUPERMARKET  PTN           MMR11008230902330025600823000000000000000   10300001 00104100000000003525000000000000     
100   95050322954091830000000000036650000000036650002000000010410408231031340035280335330823223517003528   1030000500030000   541120226202000045411202262CITY MART ZAWANA       PTN           MMR11008231031340035280823000000000000000   10300001 00104100000000009163000000000000     
100   62911028202445710000000000054275000000054275002000000010410408230945210001424773800823223516000142   1030000500030000   581220214201000085812202142CHILLI POT MALA XIANG  PTN           MMR11008230945210001420823000000000000000   10300001 00104100000000005536000000000000     
100   62911028202151910000000000038500000000038500002000000010410408231140100008234773800823223518000823   1030000500030000   806220172406013008062201724GRAND HANTHA HOSPITAL  PTN           MMR11008231140100008230823000000000000000   10300001 00104100000000002310000000000000     
100   95050312173216740000000000018500000000018500002000000010410408230511070011684356720823000362709371   1030000300030000   531100000831000000000000567CB BANK                MGOU-CP       MMR11008230511070011680823000000000000000   10300001F00104100000000004440000000000000     
100   62911028202142280000000000005000000000005000002000000010410408231035460003144773800823000362761610   1030000300030000   541100000395000000000000277CB BANK                ONE STOP MART MMR11008231035460003140823000000000000000   10300001F00104100000000000300000000000000     
100   62911028202202580000000000035650000000035650002000000010410408230613340002114773800823223512000211   1030000500030000   591220211101014405912202111SHWE OHH PHARMACY      PTN           MMR11008230613340002110823000000000000000   10300001 00104100000000002139000000000000     
100   62911028202542160000000000056400000000056400002000000010410408230520530007914773800823223511000791   1030000500030000   806220172406013008062201724GRAND HANTHA HOSPITAL  PTN           MMR11008230520530007910823000000000000000   10300001 00104100000000003384000000000000     
100   62911028202118690000000000010000000000010000002000000010410408231116530008914773800823223517000891   1030000500030000   531120226309000045311202263OCEAN SUPER CENTER STJ PTN           MMR11008231116530008910823000000000000000   10300001 00104100000000000600000000000000     
100   62911028202806660000000000001300000000001300002000000010410408230716080022094773800823223513002209   1030000500030000   541120230011000045411202300MARKET PLACE BY CITY M PTN           MMR11008230716080022090823000000000000000   10300001 00104100000000000078000000000000     
100   62443100306416880000000000020455000000020455002000000010410408231249560017003143510823223519001700   1030000500030000   598320001301000015172200013MAX ENERGY             PTN           MMR11008231249560017000823000000000000000   10300001 00104100000000002455000000000000     
100   62911028202667150000000000279900000000279900002000000010410408231118150000114773800823000362767996   1030000300030000   573200001855000000000001328CB BANK                ANY CALL MOBI MMR11008231118150000110823000000000000000   10300001F00104100000000016794000000000000     
100   62443100318296470000000000050000000000050000002000000010410408230451210003862874430823000362705930   1030000300030000   598300001209000000000000817CB BANK                SHWE TAUNG EN MMR11008230451210003860823000000000000000   10300001F00104100000000006000000000000000     
100   62911028202611530000000000020000000000020000002000000010410408230257570015244773800823223509001524   1030000500030000   598320002104000015172200021MAX ENERGY             PTN           MMR11008230257570015240823000000000000000   10300001 00104100000000000600000000000000     
100   62911028202592980000000000137588000000137588002000000010410408231217060030094773800823223518003009   1030000500030000   531120226318000045311202263OCEAN SUPER CENTER STJ PTN           MMR11008231217060030090823000000000000000   10300001 00104100000000008255000000000000     
100   62911028202442250000000000037000000000037000002000000010410408230044110016014773800823223507001601   1030000500030000   598320001202000015172200012MAX ENERGY             PTN           MMR11008230044110016010823000000000000000   10300001 00104100000000001110000000000000     
100   62911028202132460000000000045100000000045100002000000010410408230724380005204773800823000362733002   1030000300030000   571900001563000000000001116CB BANK                PRO 1 HOME CE MMR11008230724380005200823000000000000000   10300001F00104100000000002706000000000000     
100   95030325264619140000000000070313000000070313002000000010410408230408550004794773800823223504000479   1030000600030000   5499000022313157994200015681 STOP S M PHOE SEIN   YANGON        MMR11008230408550004790823000000000000000   10300001 00104100000000007172000000000000     
100   62911028202135350000000000053000000000053000002000000010410408231102010018794773800823223517001879   1030000500030000   598320001403000015172200014MAX ENERGY             PTN           MMR11008231102010018790823000000000000000   10300001 00104100000000001590000000000000     
100   62443100387665370000000000021350000000021350002000000010410408230251160030711172500823223509003071   1030000500030000   541120227606000045411202276CITY MART ( 47 BRANCH  PTN           MMR11008230251160030710823000000000000000   10300001 00104100000000005338000000000000     
100   62443100300792360000000000170000000000170000002000000010410408230314080015270832110823223509001527   1030000500030000   598320001102000015172200011MAX ENERGY             PTN           MMR11008230314080015270823000000000000000   10300001 00104100000000020400000000000000     
100   95050318818534160000000000014850000000014850002000000010410408231115260020267285650823000362767616   1030000300030000   591200000340000000000000220CB BANK                MEDICARE STOR MMR11008231115260020260823000000000000000   10300001F00104100000000003564000000000000     
100   62911028202135350000000000016400000000016400002000000010410408231011540009584773800823223516000958   1030000500030000   581220264001000085812202640BREAD TALK             PTN           MMR11008231011540009580823000000000000000   10300001 00104100000000001673000000000000     
100   62443100396287690000000000002400000000002400002000000010410408230921050000857540940823223515000085   1030000500030000   829920171902000048299201719BRITISH COUNCIL (YGN)  PTN           MMR11008230921050000850823000000000000000   10300001 00104100000000000576000000000000     
100   95050324850150480000000000070000000000070000002000000010410408230848310029487966420823223508002948   1030000600030000   554100001214315799420000666DENKO MAGWAY - 1       MAGWAY.       MMR11008230848310029480823000000000000000   10300001 00104100000000008400000000000000     
100   62911028202474000000000000085000000000085000002000000010410408230328210430574773800823223503043057   1030000600030000   554100002085315799420000471DENKO BAHAN            YANGON        MMR11008230328210430570823000000000000000   10300001 00104100000000002550000000000000     
100   62443100358839880000000000112000000000112000002000000010410408230917141075663094060823223509107566   1030000600030000   554100000946315799420000471DENKO BAHAN            YANGON        MMR11008230917141075660823000000000000000   10300001 00104100000000013440000000000000     
100   95030310098554020000000000050100000000050100002000000010410408230359030045374773800823223510004537   1030000500030000   531120226305000045311202263OCEAN SUPER CENTER STJ PTN           MMR11008230359030045370823000000000000000   10300001 00104100000000003006000000000000     
100   62911028202598430000000000050000000000050000002000000010410408231140550432134773800823223511043213   1030000600030000   554100002085315799420000471DENKO BAHAN            YANGON        MMR11008231140550432130823000000000000000   10300001 00104100000000001500000000000000     
100   62443100314843770000000000011500000000011500002000000010410408231201420038942171790823223518003894   1030000500030000   541120226811000045411202268CITY MART WAIZAYANDA   PTN           MMR11008231201420038940823000000000000000   10300001 00104100000000002875000000000000     
100   62911028202197630000000000008100000000008100002000000010410408230609230339184773800823223506033918   1030000600030000   554100002319315799420000477DENKO INSEIN           YANGON        MMR11008230609230339180823000000000000000   10300001 00104100000000000243000000000000     
100   95030346179196360000000000052000000000052000002000000010410408231012114249574773800823223517424957   1040001600030000   598320000856000000010000609Terminal Petrol Statio Yangon        MMR11008231012114249570823000000000000000   10300001F00104100000000001560000000000000     
100   62911028202537390000000000050000000000050000002000000010410408230712564136324773800823223514413632   1040001600030000   598320001062000000010000782Yangon Petrol (South/N Ygn           MMR11008230712564136320823000000000000000   10300001F00104100000000001500000000000000     
100   95050312210363590000000000001000000000001000002000000010410408241333240324990903420824000007707519   1030000200030000   333800010001203104000003327KBZPay                 Yangon        MMR11008241333240324990824000000000000000   10300001F05104100000000000210000000000000     
100   62911028202651050000000000114087000000114087002000000010410408240921190347394773800824000752514219   1030000200030000   541188001042000008000000010KBZ BANK               MARKETPLACE - MMR11008240921190347390824000000000000000   10300001 00104100000000006845000000000000     
100   62911028202651050000000000011200000000011200002000000010410408240922380347404773800824000752514283   1030000200030000   541188001042000008000000010KBZ BANK               MARKETPLACE - MMR11008240922380347400824000000000000000   10300001 00104100000000000672000000000000     
100   95050310427855490000000000000990000000000990002000000010410408241450342034784208390824000007707767   1020000200030000   333400010001204104000000281Myanmar Soft-Gate Tech Yangon        MMR11008241450342034780824000000000000000   10300001F05104100000000000208000000000000     
100   62911028202284910000000000028888000000028888002000000010410408241718220409134773800824000752553953   1030000200030000   541188001041000008000000010KBZ BANK               MARKETPLACE - MMR11008241718220409130824000000000000000   10300001 00104100000000001733000000000000     
100   62911028202355870000000004000000000004000000002000000010410408231741411141444773800824000007701920   1030000600030000   333800010001230104000004564Trusty Wallet          Yangon        MMR11008231741411141440824000000000000000   10300001F05104100000000840000000000000000     
100   95050315110306410000000000001000000000001000002000000010410408232354312431704200310824000007702194   1030000200030000   333800010001203104000003327KBZPay                 Yangon        MMR11008232354312431700824000000000000000   10300001F05104100000000000210000000000000     
100   95050327192897240000000000021900000000021900002000000010410408241803530432928023940824000752556247   1030000200030000   541188001024000008000000298KBZ BANK               CITY MART - M MMR11008241803530432920824000000000000000   10300001 00104100000000005475000000000000     
100   62911028202355870000000001000000000001000000002000000010410408231740271027544773800824000007701915   1030000600030000   333800010001230104000004564Trusty Wallet          Yangon        MMR11008231740271027540824000000000000000   10300001F05104100000000210000000000000000     
100   95030390626214130000000000100000000000100000002000000010410408240346491649834773800824000007703052   1030000200030000   3338000100012031040000040022C2P (Myanmar) Co. Ltd Yangon        MMR11008240346491649830824000000000000000   10300001F05104100000000021000000000000000     
100   95050314950595330000000000001000000000001000002000000010410408241253492349335605590824000007707366   1030000200030000   3338000100012031040000040022C2P (Myanmar) Co. Ltd Yangon        MMR11008241253492349330824000000000000000   10300001F05104100000000000210000000000000     
100   62443100306416880000000000009904000000009904002000000010410408241707350296436201260824000752553424   1030000200030000   541188001059000008000000314KBZ BANK               MARKETPLACE - MMR11008241707350296430824000000000000000   10300001 00104100000000002476000000000000     
100   62911028202154800000000000060000000000060000002000000010410408240605143120054773800824158351214235   1030000900030000   554119000348190110000000215New Day Energy MYG     YANGONONE     MMR11008240605143120050824000000000000000   10300001F00104100000000001800000000000000     
100   95050315110306410000000000001000000000001000002000000010410408241246151615108995650824000007707338   1030000200030000   333800010001203104000003327KBZPay                 Yangon        MMR11008241246151615100824000000000000000   10300001F05104100000000000210000000000000     
100   95050312641885210000000000001980000000001980002000000010410408240752442244587123530824000007705673   1020000200030000   333400010001204104000000281Myanmar Soft-Gate Tech Yangon        MMR11008240752442244580824000000000000000   10300001F05104100000000000416000000000000     
100   95050314534800510000000000020150000000020150002000000010410408240549281928156138030824000007704450   1030000200030000   333800010001203104000003327KBZPay                 Yangon        MMR11008240549281928150824000000000000000   10300001F05104100000000004232000000000000     
100   95050312224678430000000000004950000000004950002000000010410408240536330633108386180824000007704308   1020000200030000   333400010001204104000000281Myanmar Soft-Gate Tech Yangon        MMR11008240536330633100824000000000000000   10300001F05104100000000001040000000000000     
100   62911028202093760000000000001000000000001000002000000010410408241248011801914773800824000007707341   1030000200030000   333800010001203104000003327KBZPay                 Yangon        MMR11008241248011801910824000000000000000   10300001F05104100000000000210000000000000     
100   62911028202773650000000000030000000000030000002000000010410408240649371937494773800824000007705089   1030000200030000   333800010001203104000003327KBZPay                 Yangon        MMR11008240649371937490824000000000000000   10300001F05104100000000006300000000000000     
100   62911028202692140000000000049850000000049850002000000010410408241714450347754773800824000752553782   1030000200030000   541188001042000008000000010KBZ BANK               MARKETPLACE - MMR11008241714450347750824000000000000000   10300001 00104100000000002991000000000000     
100   62911028202485150000000000038000000000038000002000000010410408240704173136944773800824993341317235   1030000900030000   541119000112190110000000077Sein Gay Har Chinatown YANGON        MMR11008240704173136940824000000000000000   10300001F00104100000000002280000000000000     
100   95050316573091630000000000003960000000003960002000000010410408240503193319273258540824000007703873   1020000200030000   333400010001204104000000281Myanmar Soft-Gate Tech Yangon        MMR11008240503193319270824000000000000000   10300001F05104100000000000832000000000000     
100   95050319709462380000000000002000000000002000002000000010410408240213344334373945030824000007702484   1030000200030000   3338000100012031040000040022C2P (Myanmar) Co. Ltd Yangon        MMR11008240213344334370824000000000000000   10300001F05104100000000000420000000000000     
100   95030314100000690000000000000990000000000990002000000010410408240418084808954773800824000007703263   1020000200030000   333400010001204104000000281Myanmar Soft-Gate Tech Yangon        MMR11008240418084808950824000000000000000   10300001F05104100000000000208000000000000     
100   95050319996628650000000000000990000000000990002000000010410408240807053705232506460824000007705791   1020000200030000   333400010001204104000000281Myanmar Soft-Gate Tech Yangon        MMR11008240807053705230824000000000000000   10300001F05104100000000000208000000000000     
100   95050316377977350000000000005000000000005000002000000010410408241406183618327513360824000007707613   1040001600030000   333800010001220104000004507A +                    Yangon        MMR11008241406183618320824000000000000000   10300001F05104100000000001050000000000000     
100   95050321848852460000000000008170000000008170002000000010410408240913485009447038430824223616500944   1040001600030000   581420000803000000010000579Jeff's Kitchen (Ahlone Yangon        MMR11008240913485009440824000000000000000   10300001F00104100000000000980000000000000     
100   62911028202446700000000000016000000000016000002000000010410408241219225193734773800824223619519373   1040001600030000   598320001060000000010000780Yangon Petrol (Tharket Ygn           MMR11008241219225193730824000000000000000   10300001F00104100000000000480000000000000     
100   95050319928585020000000000000990000000000990002000000010410408240922165216313648370824000007706359   1020000200030000   333400010001204104000000281Myanmar Soft-Gate Tech Yangon        MMR11008240922165216310824000000000000000   10300001F05104100000000000208000000000000     
100   95050311598146290000000000006000000000006000002000000010410408241418334833142555910824000007707664   1030000200030000   333800010001203104000003327KBZPay                 Yangon        MMR11008241418334833140824000000000000000   10300001F05104100000000001260000000000000     
100   95050325593833300000000000043350000000043350002000000010410408241032153195421400210824868021715235   1030000900030000   541119001077190110000000872Sein Gay Har Hledan    YANGONUT      MMR11008241032153195420824000000000000000   10300001F00104100000000010838000000000000     
100   95050314759815990000000000060000000000060000002000000010410408241002323232652882500824000007706625   1030000200030000   333800010001203104000003327KBZPay                 Yangon        MMR11008241002323232650824000000000000000   10300001F05104100000000012600000000000000     
100   95050311121153200000000000002000000000002000002000000010410408241010304030449917920824000007706686   1030000200030000   3338000100012031040000040022C2P (Myanmar) Co. Ltd Yangon        MMR11008241010304030440824000000000000000   10300001F05104100000000000420000000000000     
100   95050327416134790000000000004950000000004950002000000010410408241101343134541073610824000007706914   1020000200030000   333400010001204104000000281Myanmar Soft-Gate Tech Yangon        MMR11008241101343134540824000000000000000   10300001F05104100000000001040000000000000     
100   95050317834964620000000000000882000000000882002000000010410408241019483191554875370824644491648235   1030000900030000   541119001355190110000000977Ocean PZD C9           YANGONAUNG    MMR11008241019483191550824000000000000000   10300001F00104100000000000221000000000000     
100   95050318057347910000000000010000000000010000002000000010410408241111124112384378580824000007706962   1030000200030000   3338000100012031040000040022C2P (Myanmar) Co. Ltd Yangon        MMR11008241111124112380824000000000000000   10300001F05104100000000002100000000000000     
100   95050310332595380000000000000990000000000990002000000010410408240312274227631144920824000007702855   1020000200030000   333400010001204104000000281Myanmar Soft-Gate Tech Yangon        MMR11008240312274227630824000000000000000   10300001F05104100000000000208000000000000     
100   95050317088336250000000000050400000000050400002000000010410408240920305030763733460824000007706334   1030000200030000   333800010001203104000003327KBZPay                 Yangon        MMR11008240920305030760824000000000000000   10300001F05104100000000010584000000000000     
100   95050327416134790000000000001980000000001980002000000010410408241310374037824293480824000007707439   1020000200030000   333400010001204104000000281Myanmar Soft-Gate Tech Yangon        MMR11008241310374037820824000000000000000   10300001F05104100000000000416000000000000     
100   95050315158357300000000000000990000000000990002000000010410408240223005300890810250824000007702517   1020000200030000   333400010001204104000000281Myanmar Soft-Gate Tech Yangon        MMR11008240223005300890824000000000000000   10300001F05104100000000000208000000000000     
100   95050311779172060000000000010000000000010000002000000010410408241109273927447683550824000007706949   1030000200030000   333800010001203104000003327KBZPay                 Yangon        MMR11008241109273927440824000000000000000   10300001F05104100000000002100000000000000     
100   62911028202294570000000000037500000000037500002000000010410408240547105628354773800824171082997527   1040001400030000   581410001367025814100007520Shwe Yaung Lan Spring  oll Shwe Yaun MMR11008240547105628350824000000000000000   10300001 00104100000000001125000000000000     
100   95030331351256500000000000005500000000005500002000000010410408240845200018744773800824000752512709   1030000200030000   549988002460000008000006541KBZ BANK               READY & GO (C MMR11008240845200018740824000000000000000   10300001 00104100000000000561000000000000     
100   62443101053241940000000000012200000000012200002000000010410408241621490034376187470824000752550676   1030000200030000   541188001311000008000000325KBZ BANK               CITY MART - A MMR11008241621490034370824000000000000000   10300001 00104100000000003050000000000000     
100   62911028202807400000000000040900000000040900002000000010410408241428390185134773800824000752542888   1030000200030000   541188001242000008000000323KBZ BANK               CITY MART - I MMR11008241428390185130824000000000000000   10300001 00104100000000002454000000000000     
100   62911028202133940000000000040700000000040700002000000010410408241931140208644773800824000752559858   1030000200030000   541188001304000008000000325KBZ BANK               CITY MART - A MMR11008241931140208640824000000000000000   10300001 00104100000000002442000000000000     
100   62443100300792360000000000017744000000017744002000000010410408241710180258482811200824000752553557   1030000200030000   541188001054000008000000314KBZ BANK               MARKETPLACE - MMR11008241710180258480824000000000000000   10300001 00104100000000004436000000000000     
100   95030305700676370000000000060000000000060000002000000010410408240838320060014773800824000752545808   1030000200030000   598388001833000008000005310KBZ BANK               BOC (138 MILE MMR11008240838320060010824000000000000000   10300001 00104100000000001800000000000000     
100   62443100313529540000000000016500000000016500002000000010410408231631170117770980440824000007701791   1030000200030000   333800010001203104000003327KBZPay                 Yangon        MMR11008231631170117770824000000000000000   10300001F05104100000000003465000000000000     
