100   95030305700676370000000000030000000000030000002000000010410408240322150258864773800824223603025886   1030000600030000   554100001212315799420000664DENKO TA TAR OO        TA TAR OO     MMR11008240322150258860824000000000000000   10300001 00104100000000000900000000000000     
100   95050319161596230000000000000990000000000990002000000010410408250740571057462975670825000007711770   1020000200030000   333400010001204104000000281Myanmar Soft-Gate Tech Yangon        MMR11008250740571057460825000000000000000   10300001F05104100000000000208000000000000     
100   95050316949180000000000000002970000000002970002000000010410408250226395639809797170825000007708883   1020000200030000   333400010001204104000000281Myanmar Soft-Gate Tech Yangon        MMR11008250226395639800825000000000000000   10300001F05104100000000000624000000000000     
100   62911028202674810000000000033650000000033650002000000010410408251255013507274773800825437251901236   1030000900030000   541119001206190110000000948City Mart YK C 4       YANGONAUNG    MMR11008251255013507270825000000000000000   10300001F00104100000000002019000000000000     
100   62911028202355870000000001000000000001000000002000000010410408251006543654514773800825000007712610   1030000600030000   333800010001230104000004564Trusty Wallet          Yangon        MMR11008251006543654510825000000000000000   10300001F05104100000000210000000000000000     
100   62911028202417750000000000080000000000080000002000000010410408250829425779364773800825223715577936   1040001600030000   598320001459000000010001153360 Petro (Dekkhina Th NPT           MMR11008250829425779360825000000000000000   10300001F00104100000000002400000000000000     
100   95050314703432410000000000002000000000002000002000000010410408250659112911974883440825000007711378   1030000200030000   3338000100012031040000040022C2P (Myanmar) Co. Ltd Yangon        MMR11008250659112911970825000000000000000   10300001F05104100000000000420000000000000     
100   62911028202108460000000000072000000000072000002000000010410408241207140001744773800824223618000174   1030000500030000   591220210201000085912202102ORCHID PHARMACY        PTN           MMR11008241207140001740824000000000000000   10300001 00104100000000004320000000000000     
100   95050310553090700000000000012000000000012000002000000010410408250554293384104804070825286241229236   1030000900030000   541119000121190110000000080Sein Gay Har BAK       YANGONADA     MMR11008250554293384100825000000000000000   10300001F00104100000000003000000000000000     
100   62911028202465350000000000085649000000085649002000000010410408250855193437694773800825832251519236   1030000900030000   581219001646190110000001203Shwe Lar Hot Pot Kamar YANGONUT      MMR11008250855193437690825000000000000000   10300001F00104100000000008736000000000000     
100   62911028202107390000000000037000000000037000002000000010410408251011093460724773800825980411609236   1030000900030000   554119000346190110000000213New Day Energy SOK     YANGONOKKALAP MMR11008251011093460720825000000000000000   10300001F00104100000000001110000000000000     
100   95050319006804440000000000000990000000000990002000000010410408250415384538119725860825000007709768   1020000200030000   333400010001204104000000281Myanmar Soft-Gate Tech Yangon        MMR11008250415384538110825000000000000000   10300001F05104100000000000208000000000000     
100   95050319524870520000000000002970000000002970002000000010410408250724015401888273510825000007711640   1020000200030000   333400010001204104000000281Myanmar Soft-Gate Tech Yangon        MMR11008250724015401880825000000000000000   10300001F05104100000000000624000000000000     
100   62911028202794110000000000050000000000050000002000000010410408251023075307734773800825000007712688   1030000200030000   333800010001203104000003327KBZPay                 Yangon        MMR11008251023075307730825000000000000000   10300001F05104100000000010500000000000000     
100   95050317175714970000000000027300000000027300002000000010410408250502443370283662160825680321144236   1030000900030000   541119000112190110000000077Sein Gay Har Chinatown YANGON        MMR11008250502443370280825000000000000000   10300001F00104100000000006825000000000000     
100   95050314996291580000000000000990000000000990002000000010410408251114234423130145630825000007712938   1020000200030000   333400010001204104000000281Myanmar Soft-Gate Tech Yangon        MMR11008251114234423130825000000000000000   10300001F05104100000000000208000000000000     
100   95030357919784470000000000018673000000018673002000000010410408240452330003994773800824000362890878   1030000300030000   531100003903000000000002936CB BANK                MAXI WHOLESAL MMR11008240452330003990824000000000000000   10300001F00104100000000001120000000000000     
100   95030357919784470000000000083775000000083775002000000010410408240456360004004773800824000362891563   1030000300030000   531100003903000000000002936CB BANK                MAXI WHOLESAL MMR11008240456360004000824000000000000000   10300001F00104100000000005027000000000000     
100   62911028202631420000000000109000000000109000002000000010410408240723160004244773800824223613000424   1030000500030000   541120203707000015411202037CITY MART SUPERMARKET  PTN           MMR11008240723160004240824000000000000000   10300001 00104100000000006540000000000000     
100   62443100381661260000000000031500000000031500002000000010410408241233440000492385720824223619000049   1030000500030000   541120315402000045411203154NEIGHBORHOOD - THANTUM PTN           MMR11008241233440000490824000000000000000   10300001 00104100000000007875000000000000     
100   62911028202237810000000000150000000000150000002000000010410408240506470006384773800824000362893188   1030000300030000   541100002348000000000000102CB BANK                MAKRO MYANMAR MMR11008240506470006380824000000000000000   10300001F00104100000000009000000000000000     
100   62911028202170490000000000033300000000033300002000000010410408240654520011854773800824223613001185   1030000500030000   503920036611000015039200366PRO-1 HOME CENTER      PTN           MMR11008240654520011850824000000000000000   10300001 00104100000000001998000000000000     
100   62911028202809060000000000018400000000018400002000000010410408240711570000014773800824000362914050   1030000300030000   541100002367000000000000102CB BANK                MAKRO MYANMAR MMR11008240711570000010824000000000000000   10300001F00104100000000001104000000000000     
100   95050326094581320000000000018950000000018950002000000010410408241058130007496116160824223617000749   1030000500030000   541120020601022205411200206ORANGE (NOKL)          PTN           MMR11008241058130007490824000000000000000   10300001 00104100000000004738000000000000     
100   95050311959900780000000000000990000000000990002000000010410408241659332933033612720825000007708146   1020000200030000   333400010001204104000000281Myanmar Soft-Gate Tech Yangon        MMR11008241659332933030825000000000000000   10300001F05104100000000000208000000000000     
100   95050315066440750000000000000990000000000990002000000010410408251314594459815649310825000007713416   1020000200030000   333400010001204104000000281Myanmar Soft-Gate Tech Yangon        MMR11008251314594459810825000000000000000   10300001F05104100000000000208000000000000     
100   95050312224678430000000000002970000000002970002000000010410408250511394139386967120825000007710332   1020000200030000   333400010001204104000000281Myanmar Soft-Gate Tech Yangon        MMR11008250511394139380825000000000000000   10300001F05104100000000000624000000000000     
100   62911028202355870000000001000000000001000000002000000010410408251011424142174773800825000007712648   1030000600030000   333800010001230104000004564Trusty Wallet          Yangon        MMR11008251011424142170825000000000000000   10300001F05104100000000210000000000000000     
100   62911028202698420000000000075500000000075500002000000010410408250720113408764773800825442501311236   1030000900030000   541119000144190110000000083SeinGayHarParami Cente YANGON        MMR11008250720113408760825000000000000000   10300001F00104100000000004530000000000000     
100   62443100371022130000000000037065000000037065002000000010410408251143153487382769830825341131815236   1030000900030000   554119001103190110000000215New Day Energy MYG     YANGONONE     MMR11008251143153487380825000000000000000   10300001F00104100000000004448000000000000     
100   62911028202355870000000001000000000001000000002000000010410408251005183518594773800825000007712597   1030000600030000   333800010001230104000004564Trusty Wallet          Yangon        MMR11008251005183518590825000000000000000   10300001F05104100000000210000000000000000     
100   95050316377977350000000000005000000000005000002000000010410408250622525252055223830825000007710945   1040001600030000   333800010001220104000004507A +                    Yangon        MMR11008250622525252050825000000000000000   10300001F05104100000000001050000000000000     
100   62911028202294570000000000010800000000010800002000000010410408240642490000244773800824223613000024   1030000500030000   541120315402000045411203154NEIGHBORHOOD - THANTUM PTN           MMR11008240642490000240824000000000000000   10300001 00104100000000000648000000000000     
100   62911028202136750000000000079000000000079000002000000010410408240711120013524773800824223613001352   1030000500030000   598320001902000015172200019MAX ENERGY             PTN           MMR11008240711120013520824000000000000000   10300001 00104100000000002370000000000000     
100   62911028202162640000000000030550000000030550002000000010410408240559540010824773800824223612001082   1030000500030000   541120020902022205411200209ORANGE (HLAING)        PTN           MMR11008240559540010820824000000000000000   10300001 00104100000000001833000000000000     
100   62911028202708080000000000050000000000050000002000000010410408240559480012604773800824223612001260   1030000500030000   598320002004000015172200020MAX ENERGY             PTN           MMR11008240559480012600824000000000000000   10300001 00104100000000001500000000000000     
100   62911028202533900000000000040000000000040000002000000010410408240235550013194773800824223609001319   1030000500030000   598320002101000015172200021MAX ENERGY             PTN           MMR11008240235550013190824000000000000000   10300001 00104100000000001200000000000000     
100   62911028202289130000000000022000000000022000002000000010410408240643460004454773800824000362909354   1030000300030000   598300001210000000000000817CB BANK                SHWE TAUNG EN MMR11008240643460004450824000000000000000   10300001F00104100000000000660000000000000     
100   62911028202045260000000000010200000000010200002000000010410408241013090010184773800824223616001018   1030000500030000   541120234101000045411202341CITY EXPRESS (MCS - 58 PTN           MMR11008241013090010180824000000000000000   10300001 00104100000000000612000000000000     
100   62911028202294570000000000137750000000137750002000000010410408240631450000274773800824223606000027   1030000600030000   581200002434315799420001698TRUEMART BAKERY SUPPLY YANGON        MMR11008240631450000270824000000000000000   10300001 00104100000000014051000000000000     
100   62443100382109160000000000010000000000010000002000000010410408251002383238157095950825000007712577   1030000200030000   333800010001203104000003327KBZPay                 Yangon        MMR11008251002383238150825000000000000000   10300001F05104100000000002100000000000000     
100   62911028202793040000000000004200000000004200002000000010410408250513013373204773800825816431101236   1030000900030000   591219001419190110000001023Life Plus Store 24     YANGONOKKALAP MMR11008250513013373200825000000000000000   10300001F00104100000000000252000000000000     
100   62443100300743690000000000014350000000014350002000000010410408251317253512362344340825698471925236   1030000900030000   541119001206190110000000948City Mart YK C 4       YANGONAUNG    MMR11008251317253512360825000000000000000   10300001F00104100000000003588000000000000     
100   95050325095525130000000000250000000000250000002000000010410408251019274927589003730825000007712679   1030000200030000   333800010001203104000003327KBZPay                 Yangon        MMR11008251019274927580825000000000000000   10300001F05104100000000052500000000000000     
100   62911028202788010000000000032750000000032750002000000010410408250649163399804773800825020191316236   1030000900030000   591219000970190110000000777Shwe Ohh Pharmacy St ( YANGONAW      MMR11008250649163399800825000000000000000   10300001F00104100000000001965000000000000     
100   95050328082468580000000000010000000000010000002000000010410408250726145614811067900825000007711660   1030000200030000   333800010001203104000003327KBZPay                 Yangon        MMR11008250726145614810825000000000000000   10300001F05104100000000002100000000000000     
100   62911028202169750000000000053511000000053511002000000010410408250456125648444773800825223711564844   1040001600030000   541120000559000000010000465Ocean Shwe Gone Daing  Yangon        MMR11008250456125648440825000000000000000   10300001F00104100000000003211000000000000     
100   95050315345734110000000000010000000000010000002000000010410408251304223422115734410825000007713364   1030000200030000   333800010001203104000003327KBZPay                 Yangon        MMR11008251304223422110825000000000000000   10300001F05104100000000002100000000000000     
100   62911028202527490000000000026000000000026000002000000010410408240352170008594773800824223603000859   1030000600030000   554100002414315799420001684MMTM NORTH-DAGON       YANGON        MMR11008240352170008590824000000000000000   10300001 00104100000000000780000000000000     
100   95030346645639490000000000079233000000079233002000000010410408240720590007864773800824223613000786   1030000500030000   531120155714000045311201557GAMONE PWINT           PTN           MMR11008240720590007860824000000000000000   10300001 00104100000000004754000000000000     
100   95030393921562700000000000036000000000036000002000000010410408241125530003644773800824000362952209   1030000300030000   531100000884000000000000622CB BANK                MGOU-JZ       MMR11008241125530003640824000000000000000   10300001F00104100000000002160000000000000     
100   62911028202221220000000000001850000000001850002000000010410408240622450003974773800824223612000397   1030000500030000   541120232201000045411202322CITY EXPRESS (MCS - 22 PTN           MMR11008240622450003970824000000000000000   10300001 00104100000000000111000000000000     
100   62911028202294570000000000009200000000009200002000000010410408241156210005294773800824000362956385   1030000300030000   531100003899000000000002936CB BANK                MAXI WHOLESAL MMR11008241156210005290824000000000000000   10300001F00104100000000000552000000000000     
100   62911028202708080000000000435000000000435000002000000010410408240529580010194773800824000362896939   1030000300030000   531100000598000000000000408CB BANK                CAPITAL HYPER MMR11008240529580010190824000000000000000   10300001F00104100000000026100000000000000     
100   95050310543219930000000000072300000000072300002000000010410408241022040012153222890824000362942980   1030000300030000   591200000214000000000000111CB BANK                MEDICARE STOR MMR11008241022040012150824000000000000000   10300001F00104100000000017352000000000000     
100   62911028202520380000000000066000000000066000002000000010410408240853240004614773800824000362930008   1030000300030000   598300001210000000000000817CB BANK                SHWE TAUNG EN MMR11008240853240004610824000000000000000   10300001F00104100000000001980000000000000     
100   95030321100003180000000000020400000000020400002000000010410408251007163459644773800825925371616236   1030000900030000   541119001262190110000000958City Mart PLST C 5     YANGONMYOTHIT MMR11008251007163459640825000000000000000   10300001F00104100000000001224000000000000     
100   62443100306045460000000000002700000000002700002000000010410408251220483498047982560825920501848236   1030000900030000   541119001283190110000000963City Mart SPL C 8      YANGONMYOTHIT MMR11008251220483498040825000000000000000   10300001F00104100000000000675000000000000     
100   95050312695033440000000000000990000000000990002000000010410408251310294029637386890825000007713391   1020000200030000   333400010001204104000000281Myanmar Soft-Gate Tech Yangon        MMR11008251310294029630825000000000000000   10300001F05104100000000000208000000000000     
100   95050313547265370000000000073000000000073000002000000010410408250824525452778819740825000007712037   1030000200030000   333800010001203104000003327KBZPay                 Yangon        MMR11008250824525452770825000000000000000   10300001F05104100000000015330000000000000     
100   62911028202086910000000000014300000000014300002000000010410408250903193440394773800825976331519236   1030000900030000   541119000112190110000000077Sein Gay Har Chinatown YANGON        MMR11008250903193440390825000000000000000   10300001F00104100000000000858000000000000     
100   95050315259054570000000000002500000000002500002000000010410408250508543854792009670825000007710294   1030000200030000   333800010001203104000003327KBZPay                 Yangon        MMR11008250508543854790825000000000000000   10300001F05104100000000000525000000000000     
100   62443101001072630000000000060000000000060000002000000010410408251122188397786755570825521811677358   1040001400030000   598310000056025983100000489BOC BOC Ma-83  35th st eet  Bet52 &  MMR11008251122188397780825000000000000000   10300001 00104100000000007200000000000000     
100   95050310160291140000000000063044000000063044002000000010410408251142360068568619610825000752586031   1030000200030000   541188001432000008000000401KBZ BANK               OCEAN SUPERCE MMR11008251142360068560825000000000000000   10300001 00104100000000015761000000000000     
100   62911028202170490000000000023200000000023200002000000010410408240954540028904773800824223616002890   1030000500030000   541120226401000045411202264MARKET PLACE MYANMARPL PTN           MMR11008240954540028900824000000000000000   10300001 00104100000000001392000000000000     
100   62911028202677390000000000050000000000050000002000000010410408240528510016734773800824223611001673   1030000500030000   598320001104000015172200011MAX ENERGY             PTN           MMR11008240528510016730824000000000000000   10300001 00104100000000001500000000000000     
100   62911028202611530000000000013000000000013000002000000010410408240641580019914773800824223613001991   1030000500030000   541120230004000045411202300MARKET PLACE BY CITY M PTN           MMR11008240641580019910824000000000000000   10300001 00104100000000000780000000000000     
100   95050314100797310000000000009100000000009100002000000010410408240908070026991655500824223615002699   1030000500030000   541120203704000015411202037CITY MART SUPERMARKET  PTN           MMR11008240908070026990824000000000000000   10300001 00104100000000002275000000000000     
100   62443100315110470000000000110300000000110300002000000010410408241157140029936286360824223618002993   1030000500030000   531120226306000045311202263OCEAN SUPER CENTER STJ PTN           MMR11008241157140029930824000000000000000   10300001 00104100000000026472000000000000     
100   62443100392773440000000000074633000000074633002000000010410408240600460030419357900824223612003041   1030000500030000   531120226318000045311202263OCEAN SUPER CENTER STJ PTN           MMR11008240600460030410824000000000000000   10300001 00104100000000017912000000000000     
100   62911028202328810000000000017450000000017450002000000010410408240655590053914773800824223613005391   1030000500030000   541120226807000045411202268CITY MART WAIZAYANDA   PTN           MMR11008240655590053910824000000000000000   10300001 00104100000000001047000000000000     
100   62911028202185590000000000017100000000017100002000000010410408241059360028094773800824223617002809   1030000500030000   541120230203000045411202302CITY MART SUPERMARKET  PTN           MMR11008241059360028090824000000000000000   10300001 00104100000000001026000000000000     
100   95050319996628650000000000000990000000000990002000000010410408250528295829373917450825000007710498   1020000200030000   333400010001204104000000281Myanmar Soft-Gate Tech Yangon        MMR11008250528295829370825000000000000000   10300001F05104100000000000208000000000000     
100   95050324622440820000000000034900000000034900002000000010410408241039180093967853740824223610009396   1030000600030000   549900002153315799420001502EASY MART- 003         YANGON        MMR11008241039180093960824000000000000000   10300001 00104100000000014833000000000000     
100   62911028202170490000000000010500000000010500002000000010410408240927590030124773800824000362935060   1030000300030000   531100000899000000000000636CB BANK                MGOU-MMPZ     MMR11008240927590030120824000000000000000   10300001F00104100000000000630000000000000     
100   62911028202107540000000000006200000000006200002000000010410408250614313389674773800825537441231236   1030000900030000   541119001353190110000000977Ocean PZD C 7          YANGONAUNG    MMR11008250614313389670825000000000000000   10300001F00104100000000000372000000000000     
100   62443100350052510000000000018394310000018394312000000010410408250646181618367131600825000007711219   1030000200030000   333300010001203104000003632Myanmar Tradenet Test  Yangon        MMR11008250646181618360825000000000000000   10300001F05104100000000010000000000000000     
100   95050322954091830000000000005000000000005000002000000010410408241642061206861960230825000007708103   1030000200030000   3334000100012031040000040102C2P (Myanmar) Co. Ltd Yangon        MMR11008241642061206860825000000000000000   10300001F05104100000000001050000000000000     
100   95050310553090700000000000013500000000013500002000000010410408250541373380606626740825133111237236   1030000900030000   541119000122190110000000080Sein Gay Har BAK       YANGONADA     MMR11008250541373380600825000000000000000   10300001F00104100000000003375000000000000     
100   95050321057500320000000000005900000000005900002000000010410408241121410015528109030824223617001552   1030000500030000   541120234401000045411202344CITY EXPRESS (MCS - 28 PTN           MMR11008241121410015520824000000000000000   10300001 00104100000000001475000000000000     
100   95050319122743920000000000024500000000024500002000000010410408241121210043721414000824000362951546   1030000300030000   531100002212000000000001481CB BANK                G & G CONVENI MMR11008241121210043720824000000000000000   10300001F00104100000000005880000000000000     
100   62443100390038980000000000121000000000121000002000000010410408240111010189299583250824223601018929   1030000600030000   554100002328315799420001235DENKO NAY PYI TAW 2    NAYPYITAW     MMR11008240111010189290824000000000000000   10300001 00104100000000014520000000000000     
100   62911028202631420000000000019991000000019991002000000010410408240610330040204773800824223612004020   1030000500030000   541120203706000015411202037CITY MART SUPERMARKET  PTN           MMR11008240610330040200824000000000000000   10300001 00104100000000001200000000000000     
100   62911028202631420000000000115300000000115300002000000010410408240727000040244773800824223613004024   1030000500030000   541120203706000015411202037CITY MART SUPERMARKET  PTN           MMR11008240727000040240824000000000000000   10300001 00104100000000006918000000000000     
100   95050321232876860000000000095000000000095000002000000010410408240321590189436102370824223603018943   1030000600030000   554100002328315799420001235DENKO NAY PYI TAW 2    NAYPYITAW     MMR11008240321590189430824000000000000000   10300001 00104100000000011400000000000000     
100   95050316355723530000000000034732000000034732002000000010410408231000470012142668580823223510001214   1030000600030000   5499000022273157994200015671 STOP S M BOGYOKE RD  YANGON        MMR11008231000470012140823000000000000000   10300001 00104100000000014761000000000000     
100   95050312933828140000000000010650000000010650002000000010410408231033450021437030360823223510002143   1030000600030000   5499000023523157994200016371 STOP S M KAMARKYI    YANGON        MMR11008231033450021430823000000000000000   10300001 00104100000000004527000000000000     
100   62911028202179990000000000058000000000058000002000000010410408230717200235454773800823223507023545   1030000600030000   554100002320315799420000564DENKO PHYUU            PHYUU         MMR11008230717200235450823000000000000000   10300001 00104100000000001740000000000000     
100   62443100372718280000000000107250000000107250002000000010410408240610530010741435860824000362903664   1030000300030000   541100002356000000000000102CB BANK                MAKRO MYANMAR MMR11008240610530010740824000000000000000   10300001F00104100000000026813000000000000     
100   95050327456215690000000000055000000000055000002000000010410408250917335809845684970825223716580984   1040001600030000   598320000313000000010000301PT Power Petrol Statio Yangon        MMR11008250917335809840825000000000000000   10300001F00104100000000006600000000000000     
100   95050322990383760000000000002200000000002200002000000010410408240943420025916272570824223616002591   1030000500030000   541120203705000015411202037CITY MART SUPERMARKET  PTN           MMR11008240943420025910824000000000000000   10300001 00104100000000000550000000000000     
100   62443101045531990000000000100000000000100000002000000010410408251329175917543996830825000007713473   1030000200030000   333800010001203104000003327KBZPay                 Yangon        MMR11008251329175917540825000000000000000   10300001F05104100000000021000000000000000     
100   95050324082484780000000000048800000000048800002000000010410408251209315978398067670825223719597839   1040001600030000   598320001460000000010001154360 Petro (Theik Pan S MDY           MMR11008251209315978390825000000000000000   10300001F00104100000000005856000000000000     
100   95050316902141980000000000061000000000061000002000000010410408251129585958466244990825000007712986   1030000200030000   333800010001203104000003327KBZPay                 Yangon        MMR11008251129585958460825000000000000000   10300001F05104100000000012810000000000000     
100   62911028202031710000000000111940000000111940002000000010410408251754400397804773800825000752616622   1030000200030000   541188001039000008000000010KBZ BANK               MARKETPLACE - MMR11008251754400397800825000000000000000   10300001 00104100000000006716000000000000     
100   62911028202355870000000001000000000001000000002000000010410408251008243824464773800825000007712619   1030000600030000   333800010001230104000004564Trusty Wallet          Yangon        MMR11008251008243824460825000000000000000   10300001F05104100000000210000000000000000     
100   62443100371022130000000000039000000000039000002000000010410408231429510432574370510823223514043257   1030000600030000   554100002085315799420000471DENKO BAHAN            YANGON        MMR11008231429510432570823000000000000000   10300001 00104100000000004680000000000000     
100   62443101053241940000000000044000000000044000002000000010410408240844021077720173210824223608107772   1030000600030000   554100000946315799420000471DENKO BAHAN            YANGON        MMR11008240844021077720824000000000000000   10300001 00104100000000005280000000000000     
100   62911028202366010000000000062000000000062000002000000010410408240919370451824773800824223609045182   1030000600030000   554100001865315799420001235DENKO NAY PYI TAW 2    NAYPYITAW     MMR11008240919370451820824000000000000000   10300001 00104100000000001860000000000000     
100   95050324850150480000000000050000000000050000002000000010410408241111410350029761520824223611035002   1030000600030000   554100001116315799420000574DENKO HLAE KUU         HLAE KUU      MMR11008241111410350020824000000000000000   10300001 00104100000000006000000000000000     
100   95050326750398570000000000025000000000025000002000000010410408240801210341445811430824223608034144   1030000600030000   554100002319315799420000477DENKO INSEIN           YANGON        MMR11008240801210341440824000000000000000   10300001 00104100000000003000000000000000     
100   62443100372718280000000000040000000000040000002000000010410408232333481076509242860824223623107650   1030000600030000   554100000946315799420000471DENKO BAHAN            YANGON        MMR11008232333481076500824000000000000000   10300001 00104100000000004800000000000000     
100   62911028202808150000000000037200000000037200002000000010410408240526134871884773800824223612487188   1040001600030000   581420000076000000010000074Hot Pot City Ahlone    Yangon        MMR11008240526134871880824000000000000000   10300001F00104100000000001116000000000000     
100   62911028202151910000000000035300000000035300002000000010410408241003115044594773800824223617504459   1040001600030000   806220001354000000010001061Grand Hantha Internati Ygn           MMR11008241003115044590824000000000000000   10300001F00104100000000002118000000000000     
100   95030325264619140000000000009700000000009700002000000010410408240504530007534773800824000362892889   1030000300030000   581200001487000000000001033CB BANK                YKKO (MAKRO)  MMR11008240504530007530824000000000000000   10300001F00104100000000000989000000000000     
100   95030325264619140000000000150000000000150000002000000010410408240550480006904773800824000362900291   1030000300030000   541100002355000000000000102CB BANK                MAKRO MYANMAR MMR11008240550480006900824000000000000000   10300001F00104100000000009000000000000000     
100   62443100384660050000000000065000000000065000002000000010410408240228490259267505280824223602025926   1030000600030000   554100000747315799420000325DENKO MDY 26           YANGON        MMR11008240228490259260824000000000000000   10300001 00104100000000007800000000000000     
100   95050310283577350000000000050000000000050000002000000010410408241230370001327343170824223619000132   1030000500030000   531120155705000045311201557GAMONE PWINT           PTN           MMR11008241230370001320824000000000000000   10300001 00104100000000012000000000000000     
100   62911028202467900000000000018928000000018928002000000010410408251217350014474773800825000752589662   1030000200030000   541188001082000008000000294KBZ BANK               CITY MART - J MMR11008251217350014470825000000000000000   10300001 00104100000000001136000000000000     
100   95050310332595380000000000000990000000000990002000000010410408251045381538778833530825000007712791   1020000200030000   333400010001204104000000281Myanmar Soft-Gate Tech Yangon        MMR11008251045381538770825000000000000000   10300001F05104100000000000208000000000000     
100   95050327192897240000000000002970000000002970002000000010410408251233210321262940020825000007713235   1020000200030000   333400010001204104000000281Myanmar Soft-Gate Tech Yangon        MMR11008251233210321260825000000000000000   10300001F05104100000000000624000000000000     
100   95050320335873810000000000020000000000020000002000000010410408251049581958636670470825000007712811   1030000200030000   333800010001203104000003327KBZPay                 Yangon        MMR11008251049581958630825000000000000000   10300001F05104100000000004200000000000000     
100   95050319524870520000000000000990000000000990002000000010410408251342301230602259250825000007713524   1020000200030000   333400010001204104000000281Myanmar Soft-Gate Tech Yangon        MMR11008251342301230600825000000000000000   10300001F05104100000000000208000000000000     
100   62443100315110470000000000047000000000047000002000000010410408250616280510871918860825462867969000   1040001400030000   806210000095028062100000766Yoma OUE Pun Hlaing Ho pital  Yoma O MMR11008250616280510870825000000000000000   10300001 00104100000000011280000000000000     
100   95050314931885730000000000001000000000001000002000000010410408251046571657485528560825000007712795   1030000200030000   3338000100012031040000040022C2P (Myanmar) Co. Ltd Yangon        MMR11008251046571657480825000000000000000   10300001F05104100000000000210000000000000     
100   95050319524870520000000000000990000000000990002000000010410408251343591359023911730825000007713529   1020000200030000   333400010001204104000000281Myanmar Soft-Gate Tech Yangon        MMR11008251343591359020825000000000000000   10300001F05104100000000000208000000000000     
100   95050316769671810000000000001980000000001980002000000010410408250245461546214669530825000007708965   1020000200030000   333400010001204104000000281Myanmar Soft-Gate Tech Yangon        MMR11008250245461546210825000000000000000   10300001F05104100000000000416000000000000     
100   95050321084131410000000000300000000000300000002000000010410408250837210721530472230825000007712111   1030000200030000   333800010001203104000003327KBZPay                 Yangon        MMR11008250837210721530825000000000000000   10300001F05104100000000063000000000000000     
100   95050327192897240000000000004950000000004950002000000010410408251231210121874677600825000007713224   1020000200030000   333400010001204104000000281Myanmar Soft-Gate Tech Yangon        MMR11008251231210121870825000000000000000   10300001F05104100000000001040000000000000     
100   95050315005801680000000000001980000000001980002000000010410408250642331233825479120825000007711167   1020000200030000   333400010001204104000000281Myanmar Soft-Gate Tech Yangon        MMR11008250642331233820825000000000000000   10300001F05104100000000000416000000000000     
100   95050314307746340000000000000990000000000990002000000010410408251444021402840606760825000007713774   1020000200030000   333400010001204104000000281Myanmar Soft-Gate Tech Yangon        MMR11008251444021402840825000000000000000   10300001F05104100000000000208000000000000     
100   95050312675525330000000000026000000000026000002000000010410408251441071107828954280825000007713763   1030000200030000   333800010001203104000003327KBZPay                 Yangon        MMR11008251441071107820825000000000000000   10300001F05104100000000005460000000000000     
100   95050329613303740000000000050000000000050000002000000010410408250151592159053782910825000007708754   1030000200030000   333800010001203104000003327KBZPay                 Yangon        MMR11008250151592159050825000000000000000   10300001F05104100000000010500000000000000     
100   62443100382109160000000000010000000000010000002000000010410408250951202120532138500825000007712517   1030000200030000   333800010001203104000003327KBZPay                 Yangon        MMR11008250951202120530825000000000000000   10300001F05104100000000002100000000000000     
100   62911028202530930000000000087900000000087900002000000010410408251821580132614773800825000752618027   1030000200030000   541188001006000008000000008KBZ BANK               MARKETPLACE - MMR11008251821580132610825000000000000000   10300001 00104100000000005274000000000000     
100   95050310572950870000000000020000000000020000002000000010410408251037330733347266140825000007712750   1030000200030000   333800010001203104000003327KBZPay                 Yangon        MMR11008251037330733340825000000000000000   10300001F05104100000000004200000000000000     
100   62911028202169750000000000213733000000213733002000000010410408251040380087114773800825000752580266   1030000200030000   541188001005000008000000008KBZ BANK               MARKETPLACE - MMR11008251040380087110825000000000000000   10300001 00104100000000012824000000000000     
100   62911028202118690000000000018700000000018700002000000010410408251807210297074773800825000752617258   1030000200030000   541188001059000008000000314KBZ BANK               MARKETPLACE - MMR11008251807210297070825000000000000000   10300001 00104100000000001122000000000000     
100   95050311779172060000000000005000000000005000002000000010410408241636520652040818320825000007708088   1030000200030000   333800010001203104000003327KBZPay                 Yangon        MMR11008241636520652040825000000000000000   10300001F05104100000000001050000000000000     
100   95050312160676580000000000010000000000010000002000000010410408250235180518779712080825000007708927   1030000200030000   333800010001203104000003327KBZPay                 Yangon        MMR11008250235180518770825000000000000000   10300001F05104100000000002100000000000000     
100   95050327192897240000000000000990000000000990002000000010410408251235190519424592500825000007713248   1020000200030000   333400010001204104000000281Myanmar Soft-Gate Tech Yangon        MMR11008251235190519420825000000000000000   10300001F05104100000000000208000000000000     
100   95050313817486860000000000004950000000004950002000000010410408250252022202356747490825000007709004   1020000200030000   333400010001204104000000281Myanmar Soft-Gate Tech Yangon        MMR11008250252022202350825000000000000000   10300001F05104100000000001040000000000000     
100   62911028202472440000000000018400000000018400002000000010410408251214280139624773800825000752589340   1030000200030000   541188001033000008000000298KBZ BANK               CITY MART - M MMR11008251214280139620825000000000000000   10300001 00104100000000001104000000000000     
100   62911028202491330000000000121204000000121204002000000010410408251215560294824773800825000752589490   1030000200030000   541188001001000008000000008KBZ BANK               MARKETPLACE - MMR11008251215560294820825000000000000000   10300001 00104100000000007272000000000000     
100   62443100301716860000000000001980000000001980002000000010410408250441181118689385480825000007710030   1020000200030000   333400010001204104000000281Myanmar Soft-Gate Tech Yangon        MMR11008250441181118680825000000000000000   10300001F05104100000000000416000000000000     
100   95050312482469810000000000015450000000015450002000000010410408251845230037196330090825000752619037   1030000200030000   541188001287000008000000472KBZ BANK               NEIGHBOURHOOD MMR11008251845230037190825000000000000000   10300001 00104100000000003863000000000000     
100   62911028202808150000000000017400000000017400002000000010410408251122560116644773800825000752584182   1030000200030000   541188001060000008000000314KBZ BANK               MARKETPLACE - MMR11008251122560116640825000000000000000   10300001 00104100000000001044000000000000     
100   95050318919136220000000000087095000000087095002000000010410408251150090068578874900825000752586735   1030000200030000   541188001432000008000000401KBZ BANK               OCEAN SUPERCE MMR11008251150090068570825000000000000000   10300001 00104100000000021774000000000000     
100   62911028202667150000000000337200000000337200002000000010410408251642160209684773800825000752612253   1030000200030000   541188001305000008000000325KBZ BANK               CITY MART - A MMR11008251642160209680825000000000000000   10300001 00104100000000020232000000000000     
100   62911028202093430000000000001980000000001980002000000010410408250552082208044773800825000007710710   1020000200030000   333400010001204104000000281Myanmar Soft-Gate Tech Yangon        MMR11008250552082208040825000000000000000   10300001F05104100000000000416000000000000     
100   62911028202118690000000000006800000000006800002000000010410408251823350258934773800825000752618110   1030000200030000   541188001054000008000000314KBZ BANK               MARKETPLACE - MMR11008251823350258930825000000000000000   10300001 00104100000000000408000000000000     
100   62443100306045460000000000064490000000064490002000000010410408250707480023148358610825000752598336   1030000200030000   806288000932000008000001738KBZ BANK               SHWE GONE DIN MMR11008250707480023140825000000000000000   10300001 00104100000000015478000000000000     
100   95050328841190290000000000011100000000011100002000000010410408251737160209698493140825000752615597   1030000200030000   541188001305000008000000325KBZ BANK               CITY MART - A MMR11008251737160209690825000000000000000   10300001 00104100000000002775000000000000     
100   95050319524870520000000000000990000000000990002000000010410408251140051005804507410825000007713029   1020000200030000   333400010001204104000000281Myanmar Soft-Gate Tech Yangon        MMR11008251140051005800825000000000000000   10300001F05104100000000000208000000000000     
100   95050318712627500000000000004950000000004950002000000010410408251252322232484081920825000007713312   1020000200030000   333400010001204104000000281Myanmar Soft-Gate Tech Yangon        MMR11008251252322232480825000000000000000   10300001F05104100000000001040000000000000     
100   62911028202667150000000000228400000000228400002000000010410408251706060184744773800825000752613625   1030000200030000   541188001306000008000000325KBZ BANK               CITY MART - A MMR11008251706060184740825000000000000000   10300001 00104100000000013704000000000000     
100   95050312360118350000000000010000000000010000002000000010410408251248441844252429440825000007713300   1030000200030000   333800010001203104000003327KBZPay                 Yangon        MMR11008251248441844250825000000000000000   10300001F05104100000000002100000000000000     
100   95050320092651450000000000008250000000008250002000000010410408251924040152909124470825000752620344   1030000200030000   541188001022000008000000298KBZ BANK               CITY MART - M MMR11008251924040152900825000000000000000   10300001 00104100000000002063000000000000     
100   95050320996331370000000000059800000000059800002000000010410408250851270026209160130825000752607527   1030000200030000   599988000602000008000003445KBZ BANK               SWEETY HOME ( MMR11008250851270026200825000000000000000   10300001 00104100000000014352000000000000     
100   95030394609966640000000000009800000000009800002000000010410408251325370433354773800825000752597015   1030000200030000   541188001024000008000000298KBZ BANK               CITY MART - M MMR11008251325370433350825000000000000000   10300001 00104100000000000588000000000000     
100   95050316601084530000000000004950000000004950002000000010410408250639330933357216700825000007711144   1020000200030000   333400010001204104000000281Myanmar Soft-Gate Tech Yangon        MMR11008250639330933350825000000000000000   10300001F05104100000000001040000000000000     
100   95050321084131410000000000200000000000200000002000000010410408250839340934052124710825000007712126   1030000200030000   333800010001203104000003327KBZPay                 Yangon        MMR11008250839340934050825000000000000000   10300001F05104100000000042000000000000000     
100   95050327416134790000000000002970000000002970002000000010410408251054502450523280400825000007712835   1020000200030000   333400010001204104000000281Myanmar Soft-Gate Tech Yangon        MMR11008251054502450520825000000000000000   10300001F05104100000000000624000000000000     
100   95050314565805350000000000050000000000050000002000000010410408250659152915436535930825000007711371   1030000200030000   333800010001203104000003327KBZPay                 Yangon        MMR11008250659152915430825000000000000000   10300001F05104100000000010500000000000000     
100   95050320205194540000000000014700000000014700002000000010410408251144233487654422310825358141823236   1030000900030000   541119001263190110000000958City Mart PLST C 6     YANGONMYOTHIT MMR11008251144233487650825000000000000000   10300001F00104100000000003675000000000000     
100   62911028202355870000000001000000000001000000002000000010410408251010114011404773800825000007712634   1030000600030000   333800010001230104000004564Trusty Wallet          Yangon        MMR11008251010114011400825000000000000000   10300001F05104100000000210000000000000000     
100   95050319156011610000000000000990000000000990002000000010410408251501543154615989700825000007713835   1020000200030000   333400010001204104000000281Myanmar Soft-Gate Tech Yangon        MMR11008251501543154610825000000000000000   10300001F05104100000000000208000000000000     
100   95050310427855490000000000000990000000000990002000000010410408250853182318644117580825000007712200   1020000200030000   333400010001204104000000281Myanmar Soft-Gate Tech Yangon        MMR11008250853182318640825000000000000000   10300001F05104100000000000208000000000000     
100   95050319524870520000000000000990000000000990002000000010410408251258112811179039380825000007713339   1020000200030000   333400010001204104000000281Myanmar Soft-Gate Tech Yangon        MMR11008251258112811170825000000000000000   10300001F05104100000000000208000000000000     
100   62911028202328810000000000013950000000013950002000000010410408250258483339074773800825402280948236   1030000900030000   581219000715190110000000546Akkhaya Tea House(Dago YANGON        MMR11008250258483339070825000000000000000   10300001F00104100000000001423000000000000     
100   95050321848852460000000000040000000000040000002000000010410408251022223464303961180825160521622236   1030000900030000   554119001103190110000000215New Day Energy MYG     YANGONONE     MMR11008251022223464300825000000000000000   10300001F00104100000000004800000000000000     
100   62911028202809060000000000100000000000100000002000000010410408250554532453444773800825000007710732   1030000200030000   333800010001203104000003327KBZPay                 Yangon        MMR11008250554532453440825000000000000000   10300001F05104100000000021000000000000000     
100   62911028202027440000000000041300000000041300002000000010410408250722593409534773800825476521359236   1030000900030000   554119001103190110000000215New Day Energy MYG     YANGONONE     MMR11008250722593409530825000000000000000   10300001F00104100000000001239000000000000     
100   95050326198165350000000000004400000000004400002000000010410408251101043475876840660825751311704236   1030000900030000   541119001250190110000000955City Mart JS C 9       YANGONUT      MMR11008251101043475870825000000000000000   10300001F00104100000000001100000000000000     
100   95050315066440750000000000000990000000000990002000000010410408250703183318514713250825000007711403   1020000200030000   333400010001204104000000281Myanmar Soft-Gate Tech Yangon        MMR11008250703183318510825000000000000000   10300001F05104100000000000208000000000000     
100   62911028202471860000000000059200000000059200002000000010410408241105050001704773800824223617000170   1030000500030000   591220014301014405912200143SHWE OHH PHARMACY      PTN           MMR11008241105050001700824000000000000000   10300001 00104100000000003552000000000000     
100   95030346645639490000000000052500000000052500002000000010410408240735590002674773800824223614000267   1030000500030000   531120155701000045311201557GAMONE PWINT           PTN           MMR11008240735590002670824000000000000000   10300001 00104100000000003150000000000000     
100   62911028202031710000000000137050000000137050002000000010410408240309350009804773800824223609000980   1030000500030000   581220264001000085812202640BREAD TALK             PTN           MMR11008240309350009800824000000000000000   10300001 00104100000000013979000000000000     
100   62911028202212490000000000007300000000007300002000000010410408240345360002294773800824223610000229   1030000500030000   581220195901000085812201959AKKHAYA TEA HOUSE      PTN           MMR11008240345360002290824000000000000000   10300001 00104100000000000745000000000000     
100   62911028202212490000000000070000000000070000002000000010410408240633120016094773800824223613001609   1030000500030000   598320001201000015172200012MAX ENERGY             PTN           MMR11008240633120016090824000000000000000   10300001 00104100000000002100000000000000     
100   95030301100126550000000000037000000000037000002000000010410408241039580763174773800824223610076317   1030000600030000   554100000952315799420000474DENKO N.DAGON - 1      YANGON        MMR11008241039580763170824000000000000000   10300001 00104100000000001110000000000000     
100   95050318141561190000000000010000000000010000002000000010410408250251512151435095010825000007709007   1040001600030000   333800010001220104000004507A +                    Yangon        MMR11008250251512151430825000000000000000   10300001F05104100000000002100000000000000     
100   95050314996291580000000000004950000000004950002000000010410408251110144014463535690825000007712923   1020000200030000   333400010001204104000000281Myanmar Soft-Gate Tech Yangon        MMR11008251110144014460825000000000000000   10300001F05104100000000001040000000000000     
100   95050314160856250000000000001980000000001980002000000010410408251514464446367642180825000007713899   1020000200030000   333400010001204104000000281Myanmar Soft-Gate Tech Yangon        MMR11008251514464446360825000000000000000   10300001F05104100000000000416000000000000     
100   95050312946679160000000000015000000000015000002000000010410408250816404640457252360825000007711979   1030000200030000   333800010001203104000003327KBZPay                 Yangon        MMR11008250816404640450825000000000000000   10300001F05104100000000003150000000000000     
100   95050317176867660000000000001980000000001980002000000010410408250920275027293790980825000007712340   1020000200030000   333400010001204104000000281Myanmar Soft-Gate Tech Yangon        MMR11008250920275027290825000000000000000   10300001F05104100000000000416000000000000     
100   62911028202298040000000000022500000000022500002000000010410408250251435586014773800825223709558601   1040001600030000   591220000043000000010000041Mingalar Pharmacy      Yangon        MMR11008250251435586010825000000000000000   10300001F00104100000000001350000000000000     
100   95050312641885210000000000038150000000038150002000000010410408251052093473341627920825617221709236   1030000900030000   541119001222190110000000945City Mart TM C 7       YANGONONE     MMR11008251052093473340825000000000000000   10300001F00104100000000009538000000000000     
100   95050312595952760000000000001980000000001980002000000010410408250513464346685655030825000007710353   1020000200030000   333400010001204104000000281Myanmar Soft-Gate Tech Yangon        MMR11008250513464346680825000000000000000   10300001F05104100000000000416000000000000     
100   95050313732480420000000000002970000000002970002000000010410408250515364536200697580825000007710370   1020000200030000   333400010001204104000000281Myanmar Soft-Gate Tech Yangon        MMR11008250515364536200825000000000000000   10300001F05104100000000000624000000000000     
100   62911028202142930000000000008350000000008350002000000010410408251457400085384773800825000752605902   1030000200030000   541188001066000008000000314KBZ BANK               MARKETPLACE - MMR11008251457400085380825000000000000000   10300001 00104100000000000501000000000000     
100   62443100382109160000000000005000000000005000002000000010410408250345051505626250700825000007709508   1030000200030000   333800010001203104000003327KBZPay                 Yangon        MMR11008250345051505620825000000000000000   10300001F05104100000000001050000000000000     
100   95030301100081330000000000030950000000030950002000000010410408250404023354424773800825002341002236   1030000900030000   541119001329190110000000971Ocean Junction NPT C 7 NAYPYITAW     MMR11008250404023354420825000000000000000   10300001F00104100000000001857000000000000     
100   62443101003317490000000000044330000000044330002000000010410408250742345753011238090825223714575301   1040001600030000   581420000804000000010000580Jeff's Kitchen (Kan Ye Yangon        MMR11008250742345753010825000000000000000   10300001F00104100000000005320000000000000     
100   62911028202314040000000000040000000000040000002000000010410408240809470002184773800824000362923304   1030000300030000   701100003008000000000002106CB BANK                TRENDI FASHIO MMR11008240809470002180824000000000000000   10300001F00104100000000004080000000000000     
100   62911028202170490000000000030800000000030800002000000010410408240839440036834773800824223615003683   1030000500030000   531120226307000045311202263OCEAN SUPER CENTER STJ PTN           MMR11008240839440036830824000000000000000   10300001 00104100000000001848000000000000     
100   62911028202400660000000000022200000000022200002000000010410408240613510033064773800824000362904144   1030000300030000   581200001812000000000001296CB BANK                SP BAKERY (YA MMR11008240613510033060824000000000000000   10300001F00104100000000002264000000000000     
100   62911028202446700000000000014859000000014859002000000010410408241235500021084773800824223619002108   1030000500030000   541120231306000045411202313CITY MART (AYEYARWON)  PTN           MMR11008241235500021080824000000000000000   10300001 00104100000000000892000000000000     
100   62443100389971990000000000017000000000017000002000000010410408251255032503560776960825000007713322   1030000200030000   333800010001203104000003327KBZPay                 Yangon        MMR11008251255032503560825000000000000000   10300001F05104100000000003570000000000000     
100   62911028202485150000000000011020000000011020002000000010410408250610333388684773800825494401233236   1030000900030000   541119001462190110000000077Sein Gay Har Chinatown YANGON        MMR11008250610333388680825000000000000000   10300001F00104100000000000661000000000000     
100   62911028202107390000000000048000000000048000002000000010410408250826383427754773800825325561438236   1030000900030000   554119000346190110000000213New Day Energy SOK     YANGONOKKALAP MMR11008250826383427750825000000000000000   10300001F00104100000000001440000000000000     
100   62443100300743690000000000002500000000002500002000000010410408251242113504081287540825268121911236   1030000900030000   541119001213190110000000949City Mart YK Season C  YANGONAUNG    MMR11008251242113504080825000000000000000   10300001F00104100000000000625000000000000     
100   95050325455962190000000000002970000000002970002000000010410408250426165616350782670825000007709867   1020000200030000   333400010001204104000000281Myanmar Soft-Gate Tech Yangon        MMR11008250426165616350825000000000000000   10300001F05104100000000000624000000000000     
100   62911028202179990000000000189500000000189500002000000010410408250807175766874773800825223715576687   1040001600030000   569920001521000000010001212ADVISORY Fashion (Junc Ygn           MMR11008250807175766870825000000000000000   10300001F00104100000000011370000000000000     
100   95050316377977350000000000001500000000001500002000000010410408250106103610141875130825000007708636   1030000200030000   3338000100012031040000040022C2P (Myanmar) Co. Ltd Yangon        MMR11008250106103610140825000000000000000   10300001F05104100000000000315000000000000     
100   62911028202027440000000000060000000000060000002000000010410408242330463306254773800825412000646236   1030000900030000   554119001103190110000000215New Day Energy MYG     YANGONONE     MMR11008242330463306250825000000000000000   10300001F00104100000000001800000000000000     
