100   95050319156011610000000000000990000000000990002000000010410408261147591759795075500826000007719743   1020000200030000   333400010001204104000000281Myanmar Soft-Gate Tech Yangon        MMR11008261147591759790826000000000000000   10300001F05104100000000000208000000000000     
100   95030318100004530000000000035000000000035000002000000010410408261341300042384773800826000752656667   1030000200030000   541188001444000008000000401KBZ BANK               OCEAN SUPERCE MMR11008261341300042380826000000000000000   10300001 00104100000000002100000000000000     
100   95050324247403260000000000003800000000003800002000000010410408261621560161595997770826000752671307   1030000200030000   541188001127000008000000296KBZ BANK               CITY MART - J MMR11008261621560161590826000000000000000   10300001 00104100000000000950000000000000     
100   95050325787151080000000000300000000000300000002000000010410408260633180318128166550826000007717614   1030000200030000   333800010001203104000003327KBZPay                 Yangon        MMR11008260633180318120826000000000000000   10300001F05104100000000063000000000000000     
100   95050319938772870000000000005000000000005000002000000010410408260535030503402492670826000007717038   1030000200030000   333800010001203104000003327KBZPay                 Yangon        MMR11008260535030503400826000000000000000   10300001F05104100000000001050000000000000     
100   62443100392426520000000000010000000000010000002000000010410408261442331233631004670826000007720605   1030000200030000   333800010001203104000003327KBZPay                 Yangon        MMR11008261442331233630826000000000000000   10300001F05104100000000002100000000000000     
100   95050326155679180000000000005940000000005940002000000010410408260649111911021471520826000007717738   1020000200030000   333400010001204104000000281Myanmar Soft-Gate Tech Yangon        MMR11008260649111911020826000000000000000   10300001F05104100000000001247000000000000     
100   95050314557307430000000000001980000000001980002000000010410408260231400140145748200826000007715040   1020000200030000   333400010001204104000000281Myanmar Soft-Gate Tech Yangon        MMR11008260231400140140826000000000000000   10300001F05104100000000000416000000000000     
100   95050319709462380000000000003000000000003000002000000010410408260742451245385918390826000007718309   1030000200030000   3338000100012031040000040022C2P (Myanmar) Co. Ltd Yangon        MMR11008260742451245380826000000000000000   10300001F05104100000000000630000000000000     
100   62443101037081820000000000011558000000011558002000000010410408260527013664094145160826156571101237   1030000900030000   541119001247190110000000955City Mart JS C 6       YANGONUT      MMR11008260527013664090826000000000000000   10300001F00104100000000002890000000000000     
100   95050316524518200000000000029950000000029950002000000010410408261103113761265146810826849331711237   1030000900030000   591219000690190110000000521Shwe Ohh Pharmacy ST-1 YANGONAUNG    MMR11008261103113761260826000000000000000   10300001F00104100000000007188000000000000     
100   95050315158357300000000000000990000000000990002000000010410408261229315931688380470826000007719881   1020000200030000   333400010001204104000000281Myanmar Soft-Gate Tech Yangon        MMR11008261229315931680826000000000000000   10300001F05104100000000000208000000000000     
100   95050323133124350000000000121000000000121000002000000010410408261153092309081770540826000007719760   1030000200030000   333800010001203104000003327KBZPay                 Yangon        MMR11008261153092309080826000000000000000   10300001F05104100000000025410000000000000     
100   95050314570621780000000000000990000000000990002000000010410408260955332533655487200826000007719258   1020000200030000   333400010001204104000000281Myanmar Soft-Gate Tech Yangon        MMR11008260955332533650826000000000000000   10300001F05104100000000000208000000000000     
100   62911028202000450000000000002970000000002970002000000010410408260719544954134773800826000007718071   1020000200030000   333400010001204104000000281Myanmar Soft-Gate Tech Yangon        MMR11008260719544954130826000000000000000   10300001F05104100000000000624000000000000     
100   95050320559934420000000000041300000000041300002000000010410408260403256427851507170826223811642785   1040001600030000   541120000553000000010000465Ocean Shwe Gone Daing  Yangon        MMR11008260403256427850826000000000000000   10300001F00104100000000010325000000000000     
100   62443101063232860000000000039000000000039000002000000010410408260718563696331046040826705481356237   1030000900030000   554119000347190110000000214New Day Energy MTN     YANGONARTAUNG MMR11008260718563696330826000000000000000   10300001F00104100000000004680000000000000     
100   95030303100003930000000000009400000000009400002000000010410408261039273754414773800826485091727237   1030000900030000   591219000688190110000000519Shwe Ohh Pharmacy ST-7 YANGONUNG     MMR11008261039273754410826000000000000000   10300001F00104100000000000564000000000000     
100   95050310616516480000000000002970000000002970002000000010410408260928035803938160840826000007719059   1020000200030000   333400010001204104000000281Myanmar Soft-Gate Tech Yangon        MMR11008260928035803930826000000000000000   10300001F05104100000000000624000000000000     
100   95050317084233280000000000000990000000000990002000000010410408261429145914049352180826000007720549   1020000200030000   333400010001204104000000281Myanmar Soft-Gate Tech Yangon        MMR11008261429145914040826000000000000000   10300001F05104100000000000208000000000000     
100   95030306100096490000000000000990000000000990002000000010410408260925475547384773800826000007719043   1020000200030000   333400010001204104000000281Myanmar Soft-Gate Tech Yangon        MMR11008260925475547380826000000000000000   10300001F05104100000000000208000000000000     
100   95050312240830690000000000004950000000004950002000000010410408261229375937906642890826000007719882   1020000200030000   333400010001204104000000281Myanmar Soft-Gate Tech Yangon        MMR11008261229375937900826000000000000000   10300001F05104100000000001040000000000000     
100   62443100313112320000000000031042000000031042002000000010410408260400543637978117110826887301054237   1030000900030000   541119001509190110000001102Ocean MGDTM-C 2        YANGONADON    MMR11008260400543637970826000000000000000   10300001F00104100000000007761000000000000     
100   95030308100042590000000002688100000002688100002000000010410408260835203720204773800826829051520237   1030000900030000   541119000286190110000000177Pro1 Global (Insein)   YANGON        MMR11008260835203720200826000000000000000   10300001F00104100000000161286000000000000     
100   95050325715886680000000000010890000000010890002000000010410408260711024102575031780826000007717959   1020000200030000   333400010001204104000000281Myanmar Soft-Gate Tech Yangon        MMR11008260711024102570826000000000000000   10300001F05104100000000002287000000000000     
100   95050318242219520000000000000990000000000990002000000010410408260814094409342783620826000007718557   1020000200030000   333400010001204104000000281Myanmar Soft-Gate Tech Yangon        MMR11008260814094409340826000000000000000   10300001F05104100000000000208000000000000     
100   95050328246950960000000000040105000000040105002000000010410408260742026562490875840826223814656249   1040001600030000   541120000563000000010000465Ocean Shwe Gone Daing  Yangon        MMR11008260742026562490826000000000000000   10300001F00104100000000010027000000000000     
100   95050315298771650000000000050000000000050000002000000010410408260255242524430024880826000007715165   1030000200030000   333800010001203104000003327KBZPay                 Yangon        MMR11008260255242524430826000000000000000   10300001F05104100000000010500000000000000     
100   95050318621775380000000000015000000000015000002000000010410408261256202620034990410826000007720067   1030000200030000   3338000100012031040000040022C2P (Myanmar) Co. Ltd Yangon        MMR11008261256202620030826000000000000000   10300001F05104100000000003150000000000000     
100   95050328941224760000000000092200000000092200002000000010410408260232333616317400680826018020933237   1030000900030000   591219000969190110000000776Shwe Ohh Pharmacy St ( YANGONADA     MMR11008260232333616310826000000000000000   10300001F00104100000000022128000000000000     
100   95050326198165350000000000026508000000026508002000000010410408261059593760418536870826799291759237   1030000900030000   581219000718190110000000549Chilli Pot Mala Xiang  YANGONUT      MMR11008261059593760410826000000000000000   10300001F00104100000000011266000000000000     
100   95050329213164970000000000002970000000002970002000000010410408261113084308630104260826000007719613   1020000200030000   333400010001204104000000281Myanmar Soft-Gate Tech Yangon        MMR11008261113084308630826000000000000000   10300001F05104100000000000624000000000000     
100   95050315110306410000000000002000000000002000002000000010410408261518294829596047220826000007720731   1030000200030000   333800010001203104000003327KBZPay                 Yangon        MMR11008261518294829590826000000000000000   10300001F05104100000000000420000000000000     
100   95050310427855490000000000003960000000003960002000000010410408261158272827431685440826000007719779   1020000200030000   333400010001204104000000281Myanmar Soft-Gate Tech Yangon        MMR11008261158272827430826000000000000000   10300001F05104100000000000832000000000000     
100   95050313396828960000000000004950000000004950002000000010410408260256522652696719910826000007715182   1020000200030000   333400010001204104000000281Myanmar Soft-Gate Tech Yangon        MMR11008260256522652690826000000000000000   10300001F05104100000000001040000000000000     
100   95050317071956460000000000001000000000001000002000000010410408260004443444310862050826000007714600   1030000200030000   3338000100012031040000040022C2P (Myanmar) Co. Ltd Yangon        MMR11008260004443444310826000000000000000   10300001F05104100000000000210000000000000     
100   62911028202291190000000000010250000000010250002000000010410408260622033681004773800826991521203237   1030000900030000   541119000130190110000000082Sein Gay Har Super Cen YANGON        MMR11008260622033681000826000000000000000   10300001F00104100000000000615000000000000     
100   62911028202067860000000000001980000000001980002000000010410408260310394039964773800826000007715332   1020000200030000   333400010001204104000000281Myanmar Soft-Gate Tech Yangon        MMR11008260310394039960826000000000000000   10300001F05104100000000000416000000000000     
100   62911028202923980000000000016200000000016200002000000010410408260850563724044773800826992201556237   1030000900030000   541119001206190110000000948City Mart YK C 4       YANGONAUNG    MMR11008260850563724040826000000000000000   10300001F00104100000000000972000000000000     
100   95030301100336440000000000008450000000008450002000000010410408261023373749384773800826215531637237   1030000900030000   541119001208190110000000948City Mart YK C 6       YANGONAUNG    MMR11008261023373749380826000000000000000   10300001F00104100000000000507000000000000     
100   95030390626214130000000000011000000000011000002000000010410408260817414741954773800826000007718579   1030000200030000   333800010001203104000003327KBZPay                 Yangon        MMR11008260817414741950826000000000000000   10300001F05104100000000002310000000000000     
100   62443100330048680000000000013000000000013000002000000010410408260259296395924982330826223809639592   1040001600030000   599520001537000000010001228Gloria's Pet Supplies  Ygn           MMR11008260259296395920826000000000000000   10300001F00104100000000003120000000000000     
100   95050311382087030000000000003960000000003960002000000010410408260452542254645967830826000007716627   1020000200030000   333400010001204104000000281Myanmar Soft-Gate Tech Yangon        MMR11008260452542254640826000000000000000   10300001F05104100000000000832000000000000     
100   95050312529325420000000000005000000000005000002000000010410408260503123312022662860826000007716726   1030000200030000   3338000100012031040000040022C2P (Myanmar) Co. Ltd Yangon        MMR11008260503123312020826000000000000000   10300001F05104100000000001050000000000000     
100   62911028202794110000000000020000000000020000002000000010410408261019574957124773800826000007719391   1030000200030000   333800010001203104000003327KBZPay                 Yangon        MMR11008261019574957120826000000000000000   10300001F05104100000000004200000000000000     
100   95050316949180000000000000002970000000002970002000000010410408260802593259656173680826000007718461   1020000200030000   333400010001204104000000281Myanmar Soft-Gate Tech Yangon        MMR11008260802593259650826000000000000000   10300001F05104100000000000624000000000000     
100   95030302100000550000000000126688000000126688002000000010410408260645023687204773800826281151302237   1030000900030000   541119001263190110000000958City Mart PLST C 6     YANGONMYOTHIT MMR11008260645023687200826000000000000000   10300001F00104100000000007601000000000000     
100   95050317043153610000000000027350000000027350002000000010410408261151263773470032950826491211826237   1030000900030000   541119001353190110000000977Ocean PZD C 7          YANGONAUNG    MMR11008261151263773470826000000000000000   10300001F00104100000000006838000000000000     
100   62911028202003590000000000033400000000033400002000000010410408261310073793784773800826628401907237   1030000900030000   541119000149190110000000083SeinGayHarParami Cente YANGON        MMR11008261310073793780826000000000000000   10300001F00104100000000002004000000000000     
100   95050315259054570000000000016000000000016000002000000010410408260921075107138245930826000007719013   1030000200030000   333800010001203104000003327KBZPay                 Yangon        MMR11008260921075107130826000000000000000   10300001F05104100000000003360000000000000     
100   95050310572950870000000000020000000000020000002000000010410408260729545954944351010826000007718181   1030000200030000   333800010001203104000003327KBZPay                 Yangon        MMR11008260729545954940826000000000000000   10300001F05104100000000004200000000000000     
100   62911028202238150000000000071300000000071300002000000010410408260737286559774773800826223814655977   1040001600030000   591220001346000000010001053Tun Tauk Pharmacy      Ygn           MMR11008260737286559770826000000000000000   10300001F00104100000000004278000000000000     
100   62911028202169750000000000020000000000020000002000000010410408260603373675614773800826741331237237   1030000900030000   541119001236190110000000951Marketplace KTY C 6    YANGONARTAUNG MMR11008260603373675610826000000000000000   10300001F00104100000000001200000000000000     
100   62911028202181120000000000024800000000024800002000000010410408261057173759654773800826761271717237   1030000900030000   541119001260190110000000958City Mart PLST C 3     YANGONMYOTHIT MMR11008261057173759650826000000000000000   10300001F00104100000000001488000000000000     
100   95050321798808970000000000008000000000008000002000000010410408260510044004820925290826000007716796   1030000200030000   333800010001203104000003327KBZPay                 Yangon        MMR11008260510044004820826000000000000000   10300001F05104100000000001680000000000000     
100   62443100372718280000000000060000000000060000002000000010410408260350116421318287300826223810642131   1040001600030000   598320000658000000010000527Shwe Taung Energy (YGN Yangon        MMR11008260350116421310826000000000000000   10300001F00104100000000007200000000000000     
100   95050315259054570000000000000990000000000990002000000010410408260129595959210620550826000007714797   1020000200030000   333400010001204104000000281Myanmar Soft-Gate Tech Yangon        MMR11008260129595959210826000000000000000   10300001F05104100000000000208000000000000     
100   95050314703432410000000000001000000000001000002000000010410408260606273627205201970826000007717356   1030000200030000   3338000100012031040000040022C2P (Myanmar) Co. Ltd Yangon        MMR11008260606273627200826000000000000000   10300001F05104100000000000210000000000000     
100   95050312224678430000000000004950000000004950002000000010410408261112534253993409230826000007719612   1020000200030000   333400010001204104000000281Myanmar Soft-Gate Tech Yangon        MMR11008261112534253990826000000000000000   10300001F05104100000000001040000000000000     
100   95050315110306410000000000001000000000001000002000000010410408261355502550604394730826000007720387   1030000200030000   333800010001203104000003327KBZPay                 Yangon        MMR11008261355502550600826000000000000000   10300001F05104100000000000210000000000000     
100   62911028202319090000000000017550000000017550002000000010410408260443403650484773800826459131140237   1030000900030000   591219000609190110000000449Shwe Ohh Pharmacy St-3 YANGONAUNG    MMR11008260443403650480826000000000000000   10300001F00104100000000001053000000000000     
100   95050310447350470000000000030150000000030150002000000010410408260420383643652393790826134501038237   1030000900030000   541119001239190110000000953Marketplace KTYCity Ca YANGONARTAUNG MMR11008260420383643650826000000000000000   10300001F00104100000000007538000000000000     
100   95030308100042590000000000134000000000134000002000000010410408260525466477384773800826223812647738   1040001600030000   598320001456000000010001150360 Petro (Bayint Naun Ygn           MMR11008260525466477380826000000000000000   10300001F00104100000000004020000000000000     
100   95050310447350470000000000010800000000010800002000000010410408260428083645532649080826212581008237   1030000900030000   541119001231190110000000951Marketplace KTY C 1    YANGONARTAUNG MMR11008260428083645530826000000000000000   10300001F00104100000000002700000000000000     
100   62443100372718280000000000034000000000034000002000000010410408260900236605492948090826223816660549   1040001600030000   598320000658000000010000527Shwe Taung Energy (YGN Yangon        MMR11008260900236605490826000000000000000   10300001F00104100000000004080000000000000     
100   95030301100121270000000000020000000000020000002000000010410408261009016650654773800826223817665065   1040001600030000   598320000917000000010000665MMTM - Thingangyun     Ygn           MMR11008261009016650650826000000000000000   10300001F00104100000000000600000000000000     
100   62911028202161990000000000010078000000010078002000000010410408250409470051534773800825223704005153   1030000600030000   5499000022283157994200015671 STOP S M BOGYOKE RD  YANGON        MMR11008250409470051530825000000000000000   10300001 00104100000000001028000000000000     
100   62443101037081820000000000044400000000044400002000000010410408260814036579474521190826223815657947   1040001600030000   591220001007000000010000737Shwe Ohh Pharmacy (Tan Ygn           MMR11008260814036579470826000000000000000   10300001F00104100000000010656000000000000     
100   95030385550669610000000000037000000000037000002000000010410408261130476723894773800826223818672389   1040001600030000   598320001060000000010000780Yangon Petrol (Tharket Ygn           MMR11008261130476723890826000000000000000   10300001F00104100000000001110000000000000     
100   62911028202314040000000000030000000000030000002000000010410408260959196642224773800826223816664222   1040001600030000   598320001059000000010000780Yangon Petrol (Tharket Ygn           MMR11008260959196642220826000000000000000   10300001F00104100000000000900000000000000     
100   62443100318296470000000000037000000000037000002000000010410408261106346700053494330826223818670005   1040001600030000   598320001170000000010000527Shwe Taung Energy (YGN Yangon        MMR11008261106346700050826000000000000000   10300001F00104100000000004440000000000000     
100   62443100300792360000000000164300000000164300002000000010410408260450248025032237380826202451439932   1040001400030000   806210000098028062100000766Yoma OUE Pun Hlaing Ho pital  Yoma O MMR11008260450248025030826000000000000000   10300001 00104100000000039432000000000000     
100   95050319610090530000000000007400000000007400002000000010410408241319580037950988520824223613003795   1030000600030000   5499000022633157994200015731 STOP S M LAYHTAUKKAN YANGON        MMR11008241319580037950824000000000000000   10300001 00104100000000003145000000000000     
100   95050314287403810000000000013000000000013000002000000010410408250237080001556407100825000363050893   1030000300030000   531100000909000000000000646CB BANK                MGOU-PYAY     MMR11008250237080001550825000000000000000   10300001F00104100000000003120000000000000     
100   95030366960186690000000000008500000000008500002000000010410408251045560010184773800825000363128704   1030000300030000   531100000828000000000000565CB BANK                MGOU-SYT      MMR11008251045560010180825000000000000000   10300001F00104100000000000510000000000000     
100   62911028202084020000000000089500000000089500002000000010410408250436120005004773800825000363069042   1030000300030000   541100002341000000000000102CB BANK                MAKRO MYANMAR MMR11008250436120005000825000000000000000   10300001F00104100000000005370000000000000     
100   62911028202215530000000000006150000000006150002000000010410408250417300038104773800825223704003810   1030000600030000   549900002152315799420001501EASY MART- 002         YANGON        MMR11008250417300038100825000000000000000   10300001 00104100000000000627000000000000     
100   95050326159929830000000000022100000000022100002000000010410408251128500076539549960825000363135152   1030000300030000   541100000151000000000000074CB BANK                ROYAL MART SU MMR11008251128500076530825000000000000000   10300001F00104100000000005525000000000000     
100   62911028202074950000000000042000000000042000002000000010410408251036301079994773800825223710107999   1030000600030000   554100000946315799420000471DENKO BAHAN            YANGON        MMR11008251036301079990825000000000000000   10300001 00104100000000001260000000000000     
100   62911028202397530000000000133000000000133000002000000010410408250659510059004773800825223706005900   1030000600030000   554100000746315799420000324DENKO SHANKALAY KYUN   MANDALAY      MMR11008250659510059000825000000000000000   10300001 00104100000000003990000000000000     
100   95050321232876860000000000147000000000147000002000000010410408250310590452098229780825223703045209   1030000600030000   554100001865315799420001235DENKO NAY PYI TAW 2    NAYPYITAW     MMR11008250310590452090825000000000000000   10300001 00104100000000017640000000000000     
100   62443101001072630000000000070000000000070000002000000010410408251059370336924847790825223710033692   1030000600030000   554100000725315799420000306DENKO MDY - 78         MANDALAY      MMR11008251059370336920825000000000000000   10300001 00104100000000008400000000000000     
100   95050315245968360000000000021000000000021000002000000010410408250430120034942435160825000363068021   1030000300030000   581400000739000000000000511CB BANK                KFC JUNCTION  MMR11008250430120034940825000000000000000   10300001F00104100000000002520000000000000     
100   95050315245968360000000000014000000000014000002000000010410408250434390034969130190825000363068776   1030000300030000   581400000739000000000000511CB BANK                KFC JUNCTION  MMR11008250434390034960825000000000000000   10300001F00104100000000001680000000000000     
100   62911028202698420000000000090000000000090000002000000010410408250944185827744773800825223716582774   1040001600030000   569920001444000000010001138INGRI                  Ygn           MMR11008250944185827740825000000000000000   10300001F00104100000000005400000000000000     
100   95050322426452690000000000077400000000077400002000000010410408250415595626824768410825223711562682   1040001600030000   598320000320000000010000308PT Power Petrol Statio Yangon        MMR11008250415595626820825000000000000000   10300001F00104100000000009288000000000000     
100   95050314567755980000000000001000000000001000002000000010410408260124435443103925520826000007714777   1030000200030000   3338000100012031040000040022C2P (Myanmar) Co. Ltd Yangon        MMR11008260124435443100826000000000000000   10300001F05104100000000000210000000000000     
100   62443100315384790000000000018150000000018150002000000010410408261224163781796727990826941541816237   1030000900030000   541119001203190110000000948City Mart YK C 1       YANGONAUNG    MMR11008261224163781790826000000000000000   10300001F00104100000000004538000000000000     
100   62911028202169750000000000024000000000024000002000000010410408261108203762584773800826914381720237   1030000900030000   554119000346190110000000213New Day Energy SOK     YANGONOKKALAP MMR11008261108203762580826000000000000000   10300001F00104100000000000720000000000000     
100   62911028202243910000000000146900000000146900002000000010410408260534516483744773800826223812648374   1040001600030000   591220000273000000010000261Shwe Ohh Pharmacy (WZY Yangon        MMR11008260534516483740826000000000000000   10300001F00104100000000008814000000000000     
100   62911028202791220000000000802000000000802000002000000010410408260711444144784773800826000007717972   1010000100030000   333500010001205104000000364Internal Revenue Depar Yangon        MMR11008260711444144780826000000000000000   10300001F05104100000000060000000000000000     
100   95030301100126550000000000025000000000025000002000000010410408251032375870904773800825223717587090   1040001600030000   598320001065000000010000785Yangon Petrol (Thudama Ygn           MMR11008251032375870900825000000000000000   10300001F00104100000000000750000000000000     
100   62911028202027440000000000130238000000130238002000000010410408260622293681164773800826001521229237   1030000900030000   541119001329190110000000971Ocean Junction NPT C 7 NAYPYITAW     MMR11008260622293681160826000000000000000   10300001F00104100000000007814000000000000     
100   62911028202911760000000000077000000000077000002000000010410408251058050363934773800825223710036393   1030000600030000   554100001113315799420000571DENKO THAN HLYIN -1    THAN HLYIN    MMR11008251058050363930825000000000000000   10300001 00104100000000002310000000000000     
100   95050313732480420000000000000990000000000990002000000010410408260413244324507521430826000007716199   1020000200030000   333400010001204104000000281Myanmar Soft-Gate Tech Yangon        MMR11008260413244324500826000000000000000   10300001F05104100000000000208000000000000     
100   62443100301716860000000000000990000000000990002000000010410408260213054305162528330826000007714946   1020000200030000   333400010001204104000000281Myanmar Soft-Gate Tech Yangon        MMR11008260213054305160826000000000000000   10300001F05104100000000000208000000000000     
100   95050313396828960000000000000990000000000990002000000010410408260321025102700195070826000007715509   1020000200030000   333400010001204104000000281Myanmar Soft-Gate Tech Yangon        MMR11008260321025102700826000000000000000   10300001F05104100000000000208000000000000     
100   62443100315853220000000000054500000000054500002000000010410408261012410022319599400826000752640073   1030000200030000   541188001496000008000000399KBZ BANK               OCEAN SUPERCE MMR11008261012410022310826000000000000000   10300001 00104100000000013625000000000000     
100   62911028202221220000000000012800000000012800002000000010410408260802460010704773800826000752633368   1030000200030000   541188001288000008000001475KBZ BANK               CITY CARE STA MMR11008260802460010700826000000000000000   10300001 00104100000000000768000000000000     
100   62443100315853220000000000054500000000054500002000000010410408261025190022329854690826000752641186   1030000200030000   541188001496000008000000399KBZ BANK               OCEAN SUPERCE MMR11008261025190022320826000000000000000   10300001 00104100000000013625000000000000     
100   95030318100004530000000000055350000000055350002000000010410408261354370023134773800826000752658175   1030000200030000   541188001429000008000000401KBZ BANK               OCEAN SUPERCE MMR11008261354370023130826000000000000000   10300001 00104100000000003321000000000000     
100   95050323667276610000000000004950000000004950002000000010410408260630260026127109740826000007717580   1020000200030000   333400010001204104000000281Myanmar Soft-Gate Tech Yangon        MMR11008260630260026120826000000000000000   10300001F05104100000000001040000000000000     
100   62443100315853220000000000187700000000187700002000000010410408261007190022302989460826000752639601   1030000200030000   541188001496000008000000399KBZ BANK               OCEAN SUPERCE MMR11008261007190022300826000000000000000   10300001 00104100000000046925000000000000     
100   95050311959900780000000000002970000000002970002000000010410408261533240324057699700826000007720785   1020000200030000   333400010001204104000000281Myanmar Soft-Gate Tech Yangon        MMR11008261533240324050826000000000000000   10300001F05104100000000000624000000000000     
100   62911028202136750000000000009100000000009100002000000010410408261619420047564773800826000752671167   1030000200030000   541188001048000008000000010KBZ BANK               MARKETPLACE - MMR11008261619420047560826000000000000000   10300001 00104100000000000546000000000000     
100   62911028202469070000000000036700000000036700002000000010410408261600070155554773800826000752669814   1030000200030000   541188001081000008000000294KBZ BANK               CITY MART - J MMR11008261600070155550826000000000000000   10300001 00104100000000002202000000000000     
100   62911028202136750000000000233505000000233505002000000010410408261615000398524773800826000752670845   1030000200030000   541188001039000008000000010KBZ BANK               MARKETPLACE - MMR11008261615000398520826000000000000000   10300001 00104100000000014010000000000000     
100   95050322343585250000000000100000000000100000002000000010410408260639220922723124000826000007717645   1030000200030000   333800010001203104000003327KBZPay                 Yangon        MMR11008260639220922720826000000000000000   10300001F05104100000000021000000000000000     
100   95050314557307430000000000002970000000002970002000000010410408260839060906959728220826000007718751   1020000200030000   333400010001204104000000281Myanmar Soft-Gate Tech Yangon        MMR11008260839060906950826000000000000000   10300001F05104100000000000624000000000000     
100   95050325787151080000000000040000000000040000002000000010410408260640241024534776480826000007717673   1030000200030000   333800010001203104000003327KBZPay                 Yangon        MMR11008260640241024530826000000000000000   10300001F05104100000000008400000000000000     
100   95050316043499650000000000000990000000000990002000000010410408260836250625878075730826000007718741   1020000200030000   333400010001204104000000281Myanmar Soft-Gate Tech Yangon        MMR11008260836250625870826000000000000000   10300001F05104100000000000208000000000000     
100   62443100394939820000000000070000000000070000002000000010410408260638020802844861580826000007717652   1030000200030000   333800010001203104000003327KBZPay                 Yangon        MMR11008260638020802840826000000000000000   10300001F05104100000000014700000000000000     
100   62911028202077430000000000000990000000000990002000000010410408260839570957894773800826000007718752   1020000200030000   333400010001204104000000281Myanmar Soft-Gate Tech Yangon        MMR11008260839570957890826000000000000000   10300001F05104100000000000208000000000000     
100   95050311121153200000000000010000000000010000002000000010410408261142241224741345050826000007719724   1030000200030000   3338000100012031040000040022C2P (Myanmar) Co. Ltd Yangon        MMR11008261142241224740826000000000000000   10300001F05104100000000002100000000000000     
100   62443100315853220000000000075198000000075198002000000010410408261103490031009102610826000752644715   1030000200030000   541188001480000008000000399KBZ BANK               OCEAN SUPERCE MMR11008261103490031000826000000000000000   10300001 00104100000000018800000000000000     
100   95050319156011610000000000000990000000000990002000000010410408261152032203790118050826000007719754   1020000200030000   333400010001204104000000281Myanmar Soft-Gate Tech Yangon        MMR11008261152032203790826000000000000000   10300001F05104100000000000208000000000000     
100   95030399326190680000000000052000000000052000002000000010410408260421512493934773800826515134358781   1040001400030000   074210000470020742100002959AMSC null (1091/A)  Th ntumar Road   MMR11008260421512493930826000000000000000   10300001 00104100000000003120000000000000     
100   95030367537085740000000000000990000000000990002000000010410408260633130313674773800826000007717603   1020000200030000   333400010001204104000000281Myanmar Soft-Gate Tech Yangon        MMR11008260633130313670826000000000000000   10300001F05104100000000000208000000000000     
100   95050327192897240000000000000990000000000990002000000010410408260632510251005372160826000007717567   1020000200030000   333400010001204104000000281Myanmar Soft-Gate Tech Yangon        MMR11008260632510251000826000000000000000   10300001F05104100000000000208000000000000     
100   62911028202355870000000005000000000005000000002000000010410408251751182118604773800826000007714309   1030000600030000   333800010001230104000004564Trusty Wallet          Yangon        MMR11008251751182118600826000000000000000   10300001F05104100000001050000000000000000     
