100   62911028202440680000000000008500000000008500002000000010410408241332440008084773800824223620000808   1030000500030000   541120227901000045411202279CITY EXPRESS (MCS - 14 PTN           MMR11008241332440008080824000000000000000   10300001 00104100000000000510000000000000     
100   62911028202684060000000000054800000000054800002000000010410408250459350003534773800825223711000353   1030000500030000   591220013601014405912200136SHWE OHH PHARMACY      PTN           MMR11008250459350003530825000000000000000   10300001 00104100000000003288000000000000     
100   62911028202492990000000000049800000000049800002000000010410408250330320013444773800825223710001344   1030000500030000   598320002004000015172200020MAX ENERGY             PTN           MMR11008250330320013440825000000000000000   10300001 00104100000000001494000000000000     
100   62911028202530930000000000120000000000120000002000000010410408250819560014274773800825223714001427   1030000500030000   598320002101000015172200021MAX ENERGY             PTN           MMR11008250819560014270825000000000000000   10300001 00104100000000003600000000000000     
100   95030308100042590000000000074000000000074000002000000010410408251222240009874773800825223718000987   1030000500030000   598320001701000015172200017MAX ENERGY             PTN           MMR11008251222240009870825000000000000000   10300001 00104100000000002220000000000000     
100   62443100330048680000000000055000000000055000002000000010410408251148050018151117340825223718001815   1030000500030000   598320001101000015172200011MAX ENERGY             PTN           MMR11008251148050018150825000000000000000   10300001 00104100000000006600000000000000     
100   95050321084131410000000000085000000000085000002000000010410408251116460010451713020825223717001045   1030000500030000   598320001904000015172200019MAX ENERGY             PTN           MMR11008251116460010450825000000000000000   10300001 00104100000000010200000000000000     
100   95030366960186690000000000010000000000010000002000000010410408251019170002374773800825223716000237   1030000500030000   531120155702000045311201557GAMONE PWINT           PTN           MMR11008251019170002370825000000000000000   10300001 00104100000000000600000000000000     
100   95030363090756500000000000030000000000030000002000000010410408270447237259674773800827223911725967   1040001600030000   598320000660000000010000529Shwe Taung Energy (NPT Naypyitaw     MMR11008270447237259670827000000000000000   10300001F00104100000000000900000000000000     
100   62911028202116120000000000036000000000036000002000000010410408270900587435784773800827223916743578   1040001600030000   569120000925000000010000672Generation Concept Sto Ygn           MMR11008270900587435780827000000000000000   10300001F00104100000000002160000000000000     
100   95050326159929830000000000046300000000046300002000000010410408261118000076753082630826000363318460   1030000300030000   541100000151000000000000074CB BANK                ROYAL MART SU MMR11008261118000076750826000000000000000   10300001F00104100000000011575000000000000     
100   95050314931885730000000000000990000000000990002000000010410408271256452645214663810827000007724401   1020000200030000   333400010001204104000000281Myanmar Soft-Gate Tech Yangon        MMR11008271256452645210827000000000000000   10300001F05104100000000000208000000000000     
100   62911028202116120000000000023000000000023000002000000010410408270853497431004773800827223915743100   1040001600030000   569120000925000000010000672Generation Concept Sto Ygn           MMR11008270853497431000827000000000000000   10300001F00104100000000001380000000000000     
100   95050313843656520000000000002970000000002970002000000010410408270208193819215621740827000007721735   1020000200030000   333400010001204104000000281Myanmar Soft-Gate Tech Yangon        MMR11008270208193819210827000000000000000   10300001F05104100000000000624000000000000     
100   95050322478649490000000000100000000000100000002000000010410408270624025402394954750827000007722790   1030000200030000   333800010001203104000003327KBZPay                 Yangon        MMR11008270624025402390827000000000000000   10300001F05104100000000021000000000000000     
100   62443100306028540000000000051000000000051000002000000010410408251200100017476415180825223718001747   1030000500030000   598320001201000015172200012MAX ENERGY             PTN           MMR11008251200100017470825000000000000000   10300001 00104100000000006120000000000000     
100   62911028202103410000000000046600000000046600002000000010410408250722540004104773800825223713000410   1030000500030000   591220132901008605912201329THEIK DI WIN SHOP      PTN           MMR11008250722540004100825000000000000000   10300001 00104100000000002796000000000000     
100   95050328074436620000000000031503000000031503002000000010410408250151460021568825460825223708002156   1030000500030000   598320001204000015172200012MAX ENERGY             PTN           MMR11008250151460021560825000000000000000   10300001 00104100000000003780000000000000     
100   62911028202319090000000000020000000000020000002000000010410408250526050002224773800825223711000222   1030000500030000   591220020501005105912200205MINGALAR PHARMACY      PTN           MMR11008250526050002220825000000000000000   10300001 00104100000000001200000000000000     
100   62443101006037900000000000040000000000040000002000000010410408250106090018161790040825223707001816   1030000500030000   598320001304000015172200013MAX ENERGY             PTN           MMR11008250106090018160825000000000000000   10300001 00104100000000004800000000000000     
100   62911028202133940000000000073000000000073000002000000010410408250112560020364773800825223707002036   1030000500030000   598320001403000015172200014MAX ENERGY             PTN           MMR11008250112560020360825000000000000000   10300001 00104100000000002190000000000000     
100   62443101037081820000000000048000000000048000002000000010410408250207500019861534750825223708001986   1030000500030000   598320001402000015172200014MAX ENERGY             PTN           MMR11008250207500019860825000000000000000   10300001 00104100000000005760000000000000     
100   62911028202286990000000000030000000000030000002000000010410408251148450010514773800825223718001051   1030000500030000   598320001904000015172200019MAX ENERGY             PTN           MMR11008251148450010510825000000000000000   10300001 00104100000000000900000000000000     
100   95050314538419220000000000012350000000012350002000000010410408251040270015847181050825223717001584   1030000500030000   531120155802000045311201558GAMONE PWINT           PTN           MMR11008251040270015840825000000000000000   10300001 00104100000000002964000000000000     
100   62911028202313470000000000060000000000060000002000000010410408261032370016254773800826223817001625   1030000500030000   598320001601000015172200016MAX ENERGY             PTN           MMR11008261032370016250826000000000000000   10300001 00104100000000001800000000000000     
100   62911028202147720000000000045000000000045000002000000010410408260030130015774773800826223807001577   1030000500030000   598320001601000015172200016MAX ENERGY             PTN           MMR11008260030130015770826000000000000000   10300001 00104100000000001350000000000000     
100   62911028202663920000000000088000000000088000002000000010410408260124340018014773800826223807001801   1030000500030000   598320001102000015172200011MAX ENERGY             PTN           MMR11008260124340018010826000000000000000   10300001 00104100000000002640000000000000     
100   62911028202407100000000000014850000000014850002000000010410408261003480004374773800826223816000437   1030000500030000   591220132901008605912201329THEIK DI WIN SHOP      PTN           MMR11008261003480004370826000000000000000   10300001 00104100000000000891000000000000     
100   62443100318514500000000000060000000000060000002000000010410408260940440018611040320826223816001861   1030000500030000   598320001102000015172200011MAX ENERGY             PTN           MMR11008260940440018610826000000000000000   10300001 00104100000000007200000000000000     
100   62911028202313470000000000017000000000017000002000000010410408260914420001434773800826223815000143   1030000500030000   806220046403006308062200464ASIA ROYAL HOSPITAL    PTN           MMR11008260914420001430826000000000000000   10300001 00104100000000001020000000000000     
100   62911028202684060000000000035800000000035800002000000010410408260414020015564773800826223810001556   1030000500030000   541120229003000045411202290CITY MART SUPERMARKET  PTN           MMR11008260414020015560826000000000000000   10300001 00104100000000002148000000000000     
100   95050326094581320000000000043750000000043750002000000010410408260538280000531982100826000363263934   1030000300030000   531100000788000000000000537CB BANK                CAPITAL SUPER MMR11008260538280000530826000000000000000   10300001F00104100000000010500000000000000     
100   62443101053241940000000000245600000000245600002000000010410408250734480000151323190825223714000015   1030000500030000   597320167801000045973201678ZAWTIKA (BAHAN)        PTN           MMR11008250734480000150825000000000000000   10300001 00104100000000058944000000000000     
100   62911028202471600000000000016050000000016050002000000010410408251047180004414773800825223717000441   1030000500030000   541120203707000015411202037CITY MART SUPERMARKET  PTN           MMR11008251047180004410825000000000000000   10300001 00104100000000000963000000000000     
100   62911028202243590000000000006400000000006400002000000010410408250452410023914773800825223711002391   1030000500030000   541120226407000045411202264MARKET PLACE MYANMARPL PTN           MMR11008250452410023910825000000000000000   10300001 00104100000000000384000000000000     
100   62911028202298040000000000053300000000053300002000000010410408250450170046004773800825223711004600   1030000500030000   541120227604000045411202276CITY MART ( 47 BRANCH  PTN           MMR11008250450170046000825000000000000000   10300001 00104100000000003198000000000000     
100   62911028202659640000000000030050000000030050002000000010410408250554420039424773800825223712003942   1030000500030000   541120229102000045411202291CITY MART YANKIN       PTN           MMR11008250554420039420825000000000000000   10300001 00104100000000001803000000000000     
100   62911028202651050000000000278721000000278721002000000010410408250455490055824773800825223711005582   1030000500030000   541120226402000045411202264MARKET PLACE MYANMARPL PTN           MMR11008250455490055820825000000000000000   10300001 00104100000000016723000000000000     
100   95050314100797310000000000004300000000004300002000000010410408250919210040685443470825223715004068   1030000500030000   541120203706000015411202037CITY MART SUPERMARKET  PTN           MMR11008250919210040680825000000000000000   10300001 00104100000000001075000000000000     
100   62911028202611530000000000020800000000020800002000000010410408251128450035404773800825223717003540   1030000500030000   541120230003000045411202300MARKET PLACE BY CITY M PTN           MMR11008251128450035400825000000000000000   10300001 00104100000000001248000000000000     
100   62911028202449440000000000060000000000060000002000000010410408260805030023324773800826223814002332   1030000500030000   598320001204000015172200012MAX ENERGY             PTN           MMR11008260805030023320826000000000000000   10300001 00104100000000001800000000000000     
100   62911028202027440000000000065000000000065000002000000010410408260333440002364773800826223810000236   1030000500030000   701120027201000107011200272HOTEL MAX NAYPYITAW    PTN           MMR11008260333440002360826000000000000000   10300001 00104100000000006630000000000000     
100   62911028202319090000000000009000000000009000002000000010410408260456440002754773800826223811000275   1030000500030000   591220042601014405912200426SHWE OHH PHARMACY      PTN           MMR11008260456440002750826000000000000000   10300001 00104100000000000540000000000000     
100   62911028202713920000000000019450000000019450002000000010410408260906230000344773800826000363298555   1030000300030000   531100001267000000000000869CB BANK                G & G CONVENI MMR11008260906230000340826000000000000000   10300001F00104100000000001167000000000000     
100   62911028202799160000000000030000000000030000002000000010410408260605310008214773800826223812000821   1030000500030000   598320015701000045983200157REGENCY PETROL STATION PTN           MMR11008260605310008210826000000000000000   10300001 00104100000000000900000000000000     
100   95050314100797310000000000005500000000005500002000000010410408260908220027321635990826223815002732   1030000500030000   541120203704000015411202037CITY MART SUPERMARKET  PTN           MMR11008260908220027320826000000000000000   10300001 00104100000000001375000000000000     
100   62443100313529540000000000003720000000003720002000000010410408260255440005825067430826000363236909   1030000300030000   591200000169000000000000084CB BANK                MEDICARE STOR MMR11008260255440005820826000000000000000   10300001F00104100000000000893000000000000     
100   62911028202230390000000000022000000000022000002000000010410408260336530016974773800826223810001697   1030000500030000   598320001604000015172200016MAX ENERGY             PTN           MMR11008260336530016970826000000000000000   10300001 00104100000000000660000000000000     
100   95050315344668630000000000003600000000003600002000000010410408251053330027146500280825223717002714   1030000500030000   541120203704000015411202037CITY MART SUPERMARKET  PTN           MMR11008251053330027140825000000000000000   10300001 00104100000000000900000000000000     
100   95050322990383760000000000007800000000007800002000000010410408251033570026248918630825223717002624   1030000500030000   541120203705000015411202037CITY MART SUPERMARKET  PTN           MMR11008251033570026240825000000000000000   10300001 00104100000000001950000000000000     
100   62911028202471600000000000030200000000030200002000000010410408251109510026274773800825223717002627   1030000500030000   541120203705000015411202037CITY MART SUPERMARKET  PTN           MMR11008251109510026270825000000000000000   10300001 00104100000000001812000000000000     
100   62911028202469070000000000010100000000010100002000000010410408271614320015654773800827000752718354   1030000200030000   541188001082000008000000294KBZ BANK               CITY MART - J MMR11008271614320015650827000000000000000   10300001 00104100000000000606000000000000     
100   62911028202472440000000000008800000000008800002000000010410408271246290140704773800827000752706244   1030000200030000   541188001033000008000000298KBZ BANK               CITY MART - M MMR11008271246290140700827000000000000000   10300001 00104100000000000528000000000000     
100   95050312695033440000000000000990000000000990002000000010410408271036050605947238560827000007723860   1020000200030000   333400010001204104000000281Myanmar Soft-Gate Tech Yangon        MMR11008271036050605940827000000000000000   10300001F05104100000000000208000000000000     
100   95050327416134790000000000001980000000001980002000000010410408271235200520396401390827000007724316   1020000200030000   333400010001204104000000281Myanmar Soft-Gate Tech Yangon        MMR11008271235200520390827000000000000000   10300001F05104100000000000416000000000000     
100   62443100313112320000000000018800000000018800002000000010410408271647190048808550660827000752720061   1030000200030000   581288000947000008000004873KBZ BANK               PIZZA HUT RES MMR11008271647190048800827000000000000000   10300001 00104100000000007990000000000000     
100   62911028202488950000000000116500000000116500002000000010410408261135340024994773800826000363321050   1030000300030000   541100003028000000000000102CB BANK                MAKRO MYANMAR MMR11008261135340024990826000000000000000   10300001F00104100000000006990000000000000     
100   95050322312197120000000000029200000000029200002000000010410408261033280001456629100826223817000145   1030000500030000   591220011701014405912200117SHWE OHH PHARMACY      PTN           MMR11008261033280001450826000000000000000   10300001 00104100000000007008000000000000     
100   62911028202400660000000000204400000000204400002000000010410408260203190003524773800826223808000352   1030000500030000   806220172402013008062201724GRAND HANTHA HOSPITAL  PTN           MMR11008260203190003520826000000000000000   10300001 00104100000000012264000000000000     
100   62443100330048680000000000165980000000165980002000000010410408261112540004884820210826223817000488   1030000500030000   569120035101019505691200351MK FASHION SHOP        PTN           MMR11008261112540004880826000000000000000   10300001 00104100000000039835000000000000     
100   62911028202442250000000000022000000000022000002000000010410408260040380022694773800826223807002269   1030000500030000   598320001204000015172200012MAX ENERGY             PTN           MMR11008260040380022690826000000000000000   10300001 00104100000000000660000000000000     
100   62911028202446540000000000057000000000057000002000000010410408261254040016054773800826223819001605   1030000500030000   598320002102000015172200021MAX ENERGY             PTN           MMR11008261254040016050826000000000000000   10300001 00104100000000001710000000000000     
100   62911028202743960000000000081070000000081070002000000010410408260243170000984773800826223809000098   1030000500030000   598320005101000015172200051MAX ENERGY             PTN           MMR11008260243170000980826000000000000000   10300001 00104100000000002432000000000000     
100   62911028202291190000000000059637000000059637002000000010410408260547230011564773800826223812001156   1030000500030000   531120226316000045311202263OCEAN SUPER CENTER STJ PTN           MMR11008260547230011560826000000000000000   10300001 00104100000000003578000000000000     
100   95050314570621780000000000000990000000000990002000000010410408271132540254526997060827000007724082   1020000200030000   333400010001204104000000281Myanmar Soft-Gate Tech Yangon        MMR11008271132540254520827000000000000000   10300001F05104100000000000208000000000000     
100   95050319502933380000000000000990000000000990002000000010410408270735270527187919340827000007723085   1020000200030000   333400010001204104000000281Myanmar Soft-Gate Tech Yangon        MMR11008270735270527180827000000000000000   10300001F05104100000000000208000000000000     
100   62443100395964530000000000021950000000021950002000000010410408271727100039968479350827000752722141   1030000200030000   541188001134000008000000296KBZ BANK               CITY MART - J MMR11008271727100039960827000000000000000   10300001 00104100000000005488000000000000     
100   62911028202659640000000000121563000000121563002000000010410408271253200088394773800827000752706551   1030000200030000   541188001005000008000000008KBZ BANK               MARKETPLACE - MMR11008271253200088390827000000000000000   10300001 00104100000000007294000000000000     
100   95050315158357300000000000004950000000004950002000000010410408271132350235658734640827000007724078   1020000200030000   333400010001204104000000281Myanmar Soft-Gate Tech Yangon        MMR11008271132350235650827000000000000000   10300001F05104100000000001040000000000000     
100   62911028202684060000000000034050000000034050002000000010410408271105370398874773800827000752700897   1030000200030000   541188001039000008000000010KBZ BANK               MARKETPLACE - MMR11008271105370398870827000000000000000   10300001 00104100000000002043000000000000     
100   62443100395964530000000000006300000000006300002000000010410408271715460081660458430827000752721553   1030000200030000   541188001136000008000000296KBZ BANK               CITY MART - J MMR11008271715460081660827000000000000000   10300001 00104100000000001575000000000000     
100   95050310427855490000000000002970000000002970002000000010410408271335370537297883680827000007724535   1020000200030000   333400010001204104000000281Myanmar Soft-Gate Tech Yangon        MMR11008271335370537290827000000000000000   10300001F05104100000000000624000000000000     
100   62911028202285900000000000040000000000040000002000000010410408260207530016084773800826223808001608   1030000500030000   598320001603000015172200016MAX ENERGY             PTN           MMR11008260207530016080826000000000000000   10300001 00104100000000001200000000000000     
100   62911028202404050000000000031000000000031000002000000010410408260403360001734773800826223810000173   1030000500030000   569120116101000015691201161AMERICAN COLLECTION (H PTN           MMR11008260403360001730826000000000000000   10300001 00104100000000001860000000000000     
100   62911028202170490000000000006000000000006000002000000010410408260745000042534773800826000363285845   1030000300030000   581200001490000000000001036CB BANK                YKKO (ST. JOH MMR11008260745000042530826000000000000000   10300001F00104100000000000612000000000000     
100   95050322295410690000000000018148000000018148002000000010410408260316340054975237620826223809005497   1030000500030000   541120226807000045411202268CITY MART WAIZAYANDA   PTN           MMR11008260316340054970826000000000000000   10300001 00104100000000004537000000000000     
100   62911028202237810000000000008760000000008760002000000010410408261036010046284773800826223817004628   1030000500030000   531120226314000045311202263OCEAN SUPER CENTER STJ PTN           MMR11008261036010046280826000000000000000   10300001 00104100000000000526000000000000     
100   62911028202150190000000000009000000000009000002000000010410408261112190055924773800826223817005592   1030000500030000   541120226806000045411202268CITY MART WAIZAYANDA   PTN           MMR11008261112190055920826000000000000000   10300001 00104100000000000540000000000000     
100   62911028202469070000000000150000000000150000002000000010410408260533440061284773800826000363263051   1030000300030000   541100002337000000000000102CB BANK                MAKRO MYANMAR MMR11008260533440061280826000000000000000   10300001F00104100000000009000000000000000     
100   95050326750398570000000000063700000000063700002000000010410408261251510035583252820826223819003558   1030000500030000   531120226721000045311202267OCEAN NORTH POINT      PTN           MMR11008261251510035580826000000000000000   10300001 00104100000000015288000000000000     
100   62911028202285410000000000107215000000107215002000000010410408270854380181184773800827000752695489   1030000200030000   541188001002000008000000008KBZ BANK               MARKETPLACE - MMR11008270854380181180827000000000000000   10300001 00104100000000006433000000000000     
100   62911028202793040000000000005000000000005000002000000010410408270832110211714773800827000007723343   1030000200030000   3334000100012031040000040102C2P (Myanmar) Co. Ltd Yangon        MMR11008270832110211710827000000000000000   10300001F05104100000000001050000000000000     
100   95050314534800510000000000000990000000000990002000000010410408271337050705853266620827000007724553   1020000200030000   333400010001204104000000281Myanmar Soft-Gate Tech Yangon        MMR11008271337050705850827000000000000000   10300001F05104100000000000208000000000000     
100   62911028202442250000000000020000000000020000002000000010410408271611160140874773800827000752718200   1030000200030000   541188001033000008000000298KBZ BANK               CITY MART - M MMR11008271611160140870827000000000000000   10300001 00104100000000001200000000000000     
100   95030394609966640000000000011200000000011200002000000010410408271201190431904773800827000752703611   1030000200030000   541188001025000008000000298KBZ BANK               CITY MART - M MMR11008271201190431900827000000000000000   10300001 00104100000000000672000000000000     
100   95050315752234130000000000026710000000026710002000000010410408271136570045856678540827000752702343   1030000200030000   541188001454000008000000391KBZ BANK               OCEAN SUPER C MMR11008271136570045850827000000000000000   10300001 00104100000000006678000000000000     
100   62911028202506770000000000035200000000035200002000000010410408271352060432034773800827000752709669   1030000200030000   541188001025000008000000298KBZ BANK               CITY MART - M MMR11008271352060432030827000000000000000   10300001 00104100000000002112000000000000     
100   95050310616516480000000000004950000000004950002000000010410408271237170717838053870827000007724327   1020000200030000   333400010001204104000000281Myanmar Soft-Gate Tech Yangon        MMR11008271237170717830827000000000000000   10300001F05104100000000001040000000000000     
100   95050317413015720000000000005000000000005000002000000010410408271115404540576741770827000007724029   1030000200030000   333800010001203104000003327KBZPay                 Yangon        MMR11008271115404540570827000000000000000   10300001F05104100000000001050000000000000     
100   95050316355723530000000000004350000000004350002000000010410408261144140008666387600826000363322280   1030000300030000   541100001050000000000000747CB BANK                ONE STOP MART MMR11008261144140008660826000000000000000   10300001F00104100000000001088000000000000     
100   62443101037081820000000000017250000000017250002000000010410408260333030010781251880826223810001078   1030000500030000   581220264001000085812202640BREAD TALK             PTN           MMR11008260333030010780826000000000000000   10300001 00104100000000007332000000000000     
100   95050314979630620000000000000990000000000990002000000010410408271344251425701614130827000007724617   1020000200030000   333400010001204104000000281Myanmar Soft-Gate Tech Yangon        MMR11008271344251425700827000000000000000   10300001F05104100000000000208000000000000     
100   95050316812885810000000000014850000000014850002000000010410408271232110211641358840827000007724304   1020000200030000   333400010001204104000000281Myanmar Soft-Gate Tech Yangon        MMR11008271232110211640827000000000000000   10300001F05104100000000003119000000000000     
100   95050322990383760000000000004000000000004000002000000010410408251027120008755613660825223716000875   1030000500030000   541120203712000015411202037CITY MART SUPERMARKET  PTN           MMR11008251027120008750825000000000000000   10300001 00104100000000001000000000000000     
100   95050322715181550000000000047000000000047000002000000010410408261041036676624976620826223817667662   1040001600030000   598320001062000000010000782Yangon Petrol (South/N Ygn           MMR11008261041036676620826000000000000000   10300001F00104100000000005640000000000000     
100   62911028202291190000000000185000000000185000002000000010410408260510430037094773800826223811003709   1030000500030000   531120226326000045311202263OCEAN SUPER CENTER STJ PTN           MMR11008260510430037090826000000000000000   10300001 00104100000000011100000000000000     
100   62911028202656830000000000083920000000083920002000000010410408270505590023224773800827000752702291   1030000200030000   569988000804000008000004617KBZ BANK               JCY-TFS       MMR11008270505590023220827000000000000000   10300001 00104100000000005035000000000000     
100   62911028202667150000000000274100000000274100002000000010410408271753440139044773800827000752723412   1030000200030000   541188001303000008000000325KBZ BANK               CITY MART - A MMR11008271753440139040827000000000000000   10300001 00104100000000016446000000000000     
100   62911028202136750000000000119000000000119000002000000010410408271212440411404773800827000752704299   1030000200030000   541188001041000008000000010KBZ BANK               MARKETPLACE - MMR11008271212440411400827000000000000000   10300001 00104100000000007140000000000000     
100   95050313702988830000000000002970000000002970002000000010410408270409453945578501220827000007722167   1020000200030000   333400010001204104000000281Myanmar Soft-Gate Tech Yangon        MMR11008270409453945570827000000000000000   10300001F05104100000000000624000000000000     
100   62911028202366010000000000050000000000050000002000000010410408270704173417134773800827000007722924   1030000200030000   333800010001203104000003327KBZPay                 Yangon        MMR11008270704173417130827000000000000000   10300001F05104100000000010500000000000000     
100   95050314979630620000000000000990000000000990002000000010410408270317394739377189120827000007721941   1020000200030000   333400010001204104000000281Myanmar Soft-Gate Tech Yangon        MMR11008270317394739370827000000000000000   10300001F05104100000000000208000000000000     
100   95050315005801680000000000041400000000041400002000000010410408271139241152075344580827092490853818   1040001400030000   594510001412025411100009884SB Baby Shop One Stop  aby Center SB MMR11008271139241152070827000000000000000   10300001 00104100000000009936000000000000     
100   95050314703432410000000000030000000000030000002000000010410408271348141814889876550827000007724651   1030000200030000   3338000100012031040000040022C2P (Myanmar) Co. Ltd Yangon        MMR11008271348141814880827000000000000000   10300001F05104100000000006300000000000000     
100   62911028202464020000000000011600000000011600002000000010410408261130300041194773800826223818004119   1030000500030000   541120203706000015411202037CITY MART SUPERMARKET  PTN           MMR11008261130300041190826000000000000000   10300001 00104100000000000696000000000000     
100   62443100399918110000000000012985000000012985002000000010410408251008270007760315820825223716000776   1030000500030000   531120155712000045311201557GAMONE PWINT           PTN           MMR11008251008270007760825000000000000000   10300001 00104100000000003116000000000000     
100   62911028202593140000000000009200000000009200002000000010410408261018110038094773800826223816003809   1030000500030000   541120227504000045411202275CITY MART (AHLONE BRAN PTN           MMR11008261018110038090826000000000000000   10300001 00104100000000000552000000000000     
100   95030301100126550000000000023000000000023000002000000010410408261027286665234773800826223817666523   1040001600030000   598320001065000000010000785Yangon Petrol (Thudama Ygn           MMR11008261027286665230826000000000000000   10300001F00104100000000000690000000000000     
100   62911028202031710000000000010400000000010400002000000010410408261009370039574773800826223816003957   1030000500030000   541120226204000045411202262CITY MART ZAWANA       PTN           MMR11008261009370039570826000000000000000   10300001 00104100000000000624000000000000     
100   62911028202355870000000001790000000001790000002000000010410408261805063506194773800827000007721215   1030000600030000   333800010001230104000004564Trusty Wallet          Yangon        MMR11008261805063506190827000000000000000   10300001F05104100000000375900000000000000     
100   95050318741700180000000000001980000000001980002000000010410408270707223722621905070827000007722951   1020000200030000   333400010001204104000000281Myanmar Soft-Gate Tech Yangon        MMR11008270707223722620827000000000000000   10300001F05104100000000000416000000000000     
100   95030385550669610000000000014550000000014550002000000010410408271048434016354773800827864181743238   1030000900030000   541119001258190110000000958City Mart PLST C 1     YANGONMYOTHIT MMR11008271048434016350827000000000000000   10300001F00104100000000000873000000000000     
100   95050316043499650000000000000990000000000990002000000010410408270950252025980969020827000007723663   1020000200030000   333400010001204104000000281Myanmar Soft-Gate Tech Yangon        MMR11008270950252025980827000000000000000   10300001F05104100000000000208000000000000     
100   95050314557307430000000000001980000000001980002000000010410408271154382438590302030827000007724163   1020000200030000   333400010001204104000000281Myanmar Soft-Gate Tech Yangon        MMR11008271154382438590827000000000000000   10300001F05104100000000000416000000000000     
100   95050314534800510000000000000990000000000990002000000010410408271408263826076571590827000007724722   1020000200030000   333400010001204104000000281Myanmar Soft-Gate Tech Yangon        MMR11008271408263826070827000000000000000   10300001F05104100000000000208000000000000     
100   62911028202793040000000000006500000000006500002000000010410408270529593937604773800827229591159238   1030000900030000   591219001419190110000001023Life Plus Store 24     YANGONOKKALAP MMR11008270529593937600827000000000000000   10300001F00104100000000000390000000000000     
100   95050314064416890000000000001980000000001980002000000010410408271614144414043181520827000007725081   1020000200030000   333400010001204104000000281Myanmar Soft-Gate Tech Yangon        MMR11008271614144414040827000000000000000   10300001F05104100000000000416000000000000     
100   62911028202366010000000000300000000000300000002000000010410408270711204120134773800827000007722970   1030000200030000   333800010001203104000003327KBZPay                 Yangon        MMR11008270711204120130827000000000000000   10300001F05104100000000063000000000000000     
100   95050325787151080000000000040000000000040000002000000010410408271440521052986486490827000007724837   1030000200030000   333800010001203104000003327KBZPay                 Yangon        MMR11008271440521052980827000000000000000   10300001F05104100000000008400000000000000     
100   62443100375796910000000000039500000000039500002000000010410408270358543917689096900827157281054238   1030000900030000   541119000128190110000000082Sein Gay Har Super Cen YANGON        MMR11008270358543917680827000000000000000   10300001F00104100000000009875000000000000     
100   62911028202442250000000000025000000000025000002000000010410408271038224013604773800827688081722238   1030000900030000   581219001648190110000001205Shwe Lar Hot Pot City  YANGONUNG     MMR11008271038224013600827000000000000000   10300001F00104100000000002550000000000000     
100   95050310616516480000000000014850000000014850002000000010410408271239180918816316290827000007724339   1020000200030000   333400010001204104000000281Myanmar Soft-Gate Tech Yangon        MMR11008271239180918810827000000000000000   10300001F05104100000000003119000000000000     
100   95050312035823210000000000005000000000005000002000000010410408270142081208554564920827000007721662   1030000200030000   3338000100012031040000040022C2P (Myanmar) Co. Ltd Yangon        MMR11008270142081208550827000000000000000   10300001F05104100000000001050000000000000     
100   62911028202284910000000000035347000000035347002000000010410408270836060398764773800827000752695015   1030000200030000   541188001039000008000000010KBZ BANK               MARKETPLACE - MMR11008270836060398760827000000000000000   10300001 00104100000000002121000000000000     
100   95030308100041500000000000004550000000004550002000000010410408270851543985964773800827974211554238   1030000900030000   541119001265190110000000958City Mart PLST C 8     YANGONMYOTHIT MMR11008270851543985960827000000000000000   10300001F00104100000000000273000000000000     
100   62911028202154800000000000056800000000056800002000000010410408271000304003164773800827029301630238   1030000900030000   541119001259190110000000958City Mart PLST C 2     YANGONMYOTHIT MMR11008271000304003160827000000000000000   10300001F00104100000000003408000000000000     
100   95050327456215690000000000070538000000070538002000000010410408271000334003194188890827031301633238   1030000900030000   541119001244190110000000955City Mart JS C 3       YANGONUT      MMR11008271000334003190827000000000000000   10300001F00104100000000017635000000000000     
100   95050314064416890000000000001980000000001980002000000010410408271021465146568465570827000007723814   1020000200030000   333400010001204104000000281Myanmar Soft-Gate Tech Yangon        MMR11008271021465146560827000000000000000   10300001F05104100000000000416000000000000     
100   62911028202366010000000000300000000000300000002000000010410408270708313831104773800827000007722963   1030000200030000   333800010001203104000003327KBZPay                 Yangon        MMR11008270708313831100827000000000000000   10300001F05104100000000063000000000000000     
100   62911028202366010000000000091166000000091166002000000010410408271131564027994773800827580011856238   1030000900030000   541119001331190110000000971Ocean Junction NPT C 9 NAYPYITAW     MMR11008271131564027990827000000000000000   10300001F00104100000000005470000000000000     
100   95050312539675540000000000002970000000002970002000000010410408270911314131052366210827000007723489   1020000200030000   333400010001204104000000281Myanmar Soft-Gate Tech Yangon        MMR11008270911314131050827000000000000000   10300001F05104100000000000624000000000000     
100   95050316043499650000000000000990000000000990002000000010410408271002063206800883920827000007723726   1020000200030000   333400010001204104000000281Myanmar Soft-Gate Tech Yangon        MMR11008271002063206800827000000000000000   10300001F05104100000000000208000000000000     
100   95050320531117320000000000022869000000022869002000000010410408270340543913857529500827956101054238   1030000900030000   581219000590190110000000430The Tea Club           YANGON        MMR11008270340543913850827000000000000000   10300001F00104100000000009720000000000000     
100   62443100375796910000000000030500000000030500002000000010410408270355253916944054350827117251025238   1030000900030000   541119000128190110000000082Sein Gay Har Super Cen YANGON        MMR11008270355253916940827000000000000000   10300001F00104100000000007625000000000000     
100   95050329489893000000000000011750000000011750002000000010410408270725473965322876780827777551347238   1030000900030000   541119000130190110000000082Sein Gay Har Super Cen YANGON        MMR11008270725473965320827000000000000000   10300001F00104100000000002938000000000000     
100   95030389237176000000000000065500000000065500002000000010410408270931413995944773800827589011641238   1030000900030000   541119001294190110000000968Ocean Mingalar MDY C 2 MANDALAYHARSI MMR11008270931413995940827000000000000000   10300001F00104100000000003930000000000000     
100   62911028202027440000000000130700000000130700002000000010410408270702443959594773800827446321344238   1030000900030000   541119001327190110000000971Ocean Junction NPT C 5 NAYPYITAW     MMR11008270702443959590827000000000000000   10300001F00104100000000007842000000000000     
100   62911028202366010000000000300000000000300000002000000010410408270710024002074773800827000007722966   1030000200030000   333800010001203104000003327KBZPay                 Yangon        MMR11008270710024002070827000000000000000   10300001F05104100000000063000000000000000     
100   62911028202789750000000000010350000000010350002000000010410408270906103989744773800827202361510238   1030000900030000   591219000610190110000000450Shwe Ohh Pharmacy St-1 YANGONUNG     MMR11008270906103989740827000000000000000   10300001F00104100000000000621000000000000     
100   95050312675873230000000000002970000000002970002000000010410408271400363036811529030827000007724697   1020000200030000   333400010001204104000000281Myanmar Soft-Gate Tech Yangon        MMR11008271400363036810827000000000000000   10300001F05104100000000000624000000000000     
100   95050315259054570000000000011000000000011000002000000010410408270301143114118841610827000007721880   1030000200030000   333800010001203104000003327KBZPay                 Yangon        MMR11008270301143114110827000000000000000   10300001F05104100000000002310000000000000     
100   95050316438375580000000000001980000000001980002000000010410408270003373337572572060827000007721478   1020000200030000   333400010001204104000000281Myanmar Soft-Gate Tech Yangon        MMR11008270003373337570827000000000000000   10300001F05104100000000000416000000000000     
100   62443100386703740000000000287500000000287500002000000010410408270720263963631734880827668501326238   1030000900030000   594419001658190110000001209Shwe San Eain Shop 2   YANGONN       MMR11008270720263963630827000000000000000   10300001F00104100000000069000000000000000     
100   95050317084233280000000000001980000000001980002000000010410408271150022002503607000827000007724140   1020000200030000   333400010001204104000000281Myanmar Soft-Gate Tech Yangon        MMR11008271150022002500827000000000000000   10300001F05104100000000000416000000000000     
100   95050313497815710000000000015000000000015000002000000010410408270602093209258344820827000007722712   1030000200030000   333800010001203104000003327KBZPay                 Yangon        MMR11008270602093209250827000000000000000   10300001F05104100000000003150000000000000     
100   62911028202495540000000000007450000000007450002000000010410408271246104044994773800827572161910238   1030000900030000   541119000112190110000000077Sein Gay Har Chinatown YANGON        MMR11008271246104044990827000000000000000   10300001F00104100000000000447000000000000     
100   62911028202366010000000000200000000000200000002000000010410408270718144814124773800827000007722998   1030000200030000   333800010001203104000003327KBZPay                 Yangon        MMR11008270718144814120827000000000000000   10300001F05104100000000042000000000000000     
100   95050325305150830000000000000990000000000990002000000010410408261821015101087614610827000007721254   1020000200030000   333400010001204104000000281Myanmar Soft-Gate Tech Yangon        MMR11008261821015101080827000000000000000   10300001F05104100000000000208000000000000     
100   95050318741700180000000000001980000000001980002000000010410408270705373537249827110827000007722939   1020000200030000   333400010001204104000000281Myanmar Soft-Gate Tech Yangon        MMR11008270705373537240827000000000000000   10300001F05104100000000000416000000000000     
100   62911028202417260000000000037650000000037650002000000010410408270736453968094773800827935061445238   1030000900030000   541119001243190110000000955City Mart JS C 2       YANGONUT      MMR11008270736453968090827000000000000000   10300001F00104100000000002259000000000000     
100   62911028202284260000000000018109000000018109002000000010410408271133364028334773800827600031836238   1030000900030000   541119001191190110000000942City Mart HDC C 6      YANGONUT      MMR11008271133364028330827000000000000000   10300001F00104100000000001087000000000000     
100   95050313817486860000000000004950000000004950002000000010410408270726465646573387360827000007723037   1020000200030000   333400010001204104000000281Myanmar Soft-Gate Tech Yangon        MMR11008270726465646570827000000000000000   10300001F05104100000000001040000000000000     
100   62443100300743690000000000019700000000019700002000000010410408271049453796280373340827194582754329   1040001400030000   599910000184025999100001252Mi Tha Su Mart Mi Tha  u Mart K-31   MMR11008271049453796280827000000000000000   10300001 00104100000000004728000000000000     
100   62911028202912590000000000041000000000041000002000000010410408270500493931374773800827890301149238   1030000900030000   554119001103190110000000215New Day Energy MYG     YANGONONE     MMR11008270500493931370827000000000000000   10300001F00104100000000001230000000000000     
100   62911028202284260000000000041500000000041500002000000010410408270914033991614773800827319441503238   1030000900030000   541119001113190110000000872Sein Gay Har Hledan    YANGONUT      MMR11008270914033991610827000000000000000   10300001F00104100000000002490000000000000     
100   95050319996628650000000000000990000000000990002000000010410408271311564156834578710827000007724446   1020000200030000   333400010001204104000000281Myanmar Soft-Gate Tech Yangon        MMR11008271311564156830827000000000000000   10300001F05104100000000000208000000000000     
100   62911028202237810000000000009400000000009400002000000010410408271115320201264773800827000752701345   1030000200030000   541188001056000008000000314KBZ BANK               MARKETPLACE - MMR11008271115320201260827000000000000000   10300001 00104100000000000564000000000000     
100   62911028202142690000000000113000000000113000002000000010410408270519083935304773800827111491108238   1030000900030000   541119000181190110000000086SeinGayHar (Hlaing Tha YANGONTHARYA  MMR11008270519083935300827000000000000000   10300001F00104100000000006780000000000000     
100   62911028202917880000000000031550000000031550002000000010410408270856453987324773800827062261545238   1030000900030000   541119001191190110000000942City Mart HDC C 6      YANGONUT      MMR11008270856453987320827000000000000000   10300001F00104100000000001893000000000000     
100   62443100328070970000000000007889000000007889002000000010410408271037174013323848500827666071717238   1030000900030000   541119001512190110000001102Ocean MGDTM C-5        YANGONADON    MMR11008271037174013320827000000000000000   10300001F00104100000000001973000000000000     
100   95050323722449090000000000004409000000004409002000000010410408271410304030068224070827000007724741   1020000200030000   333400010001204104000000281Myanmar Soft-Gate Tech Yangon        MMR11008271410304030060827000000000000000   10300001F05104100000000000926000000000000     
100   95050315158357300000000000000990000000000990002000000010410408271619564956214834000827000007725093   1020000200030000   333400010001204104000000281Myanmar Soft-Gate Tech Yangon        MMR11008271619564956210827000000000000000   10300001F05104100000000000208000000000000     
100   95030317758605600000000000019750000000019750002000000010410408251009020040724773800825223716004072   1030000500030000   541120203706000015411202037CITY MART SUPERMARKET  PTN           MMR11008251009020040720825000000000000000   10300001 00104100000000001185000000000000     
100   95030399326190680000000000059600000000059600002000000010410408271033007510684773800827223917751068   1040001600030000   591220000285000000010000273Shwe Ohh Pharmacy (47t Yangon        MMR11008271033007510680827000000000000000   10300001F00104100000000003576000000000000     
100   62911028202684060000000000025400000000025400002000000010410408250905030020114773800825223715002011   1030000500030000   531120226711000045311202267OCEAN NORTH POINT      PTN           MMR11008250905030020110825000000000000000   10300001 00104100000000001524000000000000     
100   62443100318296470000000000021498000000021498002000000010410408271414080288626181760827000752710951   1030000200030000   541188001037000008000000010KBZ BANK               MARKETPLACE - MMR11008271414080288620827000000000000000   10300001 00104100000000005375000000000000     
100   95050313710136610000000000002970000000002970002000000010410408271018094809776813080827000007723802   1020000200030000   333400010001204104000000281Myanmar Soft-Gate Tech Yangon        MMR11008271018094809770827000000000000000   10300001F05104100000000000624000000000000     
100   95050328082468580000000000060000000000060000002000000010410408271624195419363096420827000007725097   1030000200030000   333800010001203104000003327KBZPay                 Yangon        MMR11008271624195419360827000000000000000   10300001F05104100000000012600000000000000     
100   62443100386703740000000000651500000000651500002000000010410408270747257387762791690827223914738776   1040001600030000   509420001555000000010001246More & More Gold and J Ygn           MMR11008270747257387760827000000000000000   10300001F00104100000000260600000000000000     
100   95050318131043910000000000004950000000004950002000000010410408271208043804751954510827000007724213   1020000200030000   333400010001204104000000281Myanmar Soft-Gate Tech Yangon        MMR11008271208043804750827000000000000000   10300001F05104100000000001040000000000000     
100   62911028202698420000000000048998000000048998002000000010410408270419017241044773800827223911724104   1040001600030000   598320000854000000010000608Terminal Petrol Statio Yangon        MMR11008270419017241040827000000000000000   10300001F00104100000000001470000000000000     
100   62911028202169750000000000014000000000014000002000000010410408250508550017194773800825223711001719   1030000500030000   598320002104000015172200021MAX ENERGY             PTN           MMR11008250508550017190825000000000000000   10300001 00104100000000000420000000000000     
100   95050310332595380000000000000990000000000990002000000010410408271335360536916231200827000007724547   1020000200030000   333400010001204104000000281Myanmar Soft-Gate Tech Yangon        MMR11008271335360536910827000000000000000   10300001F05104100000000000208000000000000     
100   62443101086752040000000000025000000000025000002000000010410408262354513875414309630827418240651238   1030000900030000   554119001103190110000000215New Day Energy MYG     YANGONONE     MMR11008262354513875410827000000000000000   10300001F00104100000000003000000000000000     
100   62911028202366010000000000300000000000300000002000000010410408270716204620344773800827000007722987   1030000200030000   333800010001203104000003327KBZPay                 Yangon        MMR11008270716204620340827000000000000000   10300001F05104100000000063000000000000000     
100   62443100361587780000000000032800000000032800002000000010410408250310180000436577300825223709000043   1030000500030000   573220023601000025732200236MYO THEIN ELECTRONIC   PTN           MMR11008250310180000430825000000000000000   10300001 00104100000000007872000000000000     
100   62443100317863910000000000050000000000050000002000000010410408260212190009862443230826223808000986   1030000500030000   598320015601000045983200156REGENCY PETROL STATION PTN           MMR11008260212190009860826000000000000000   10300001 00104100000000006000000000000000     
100   95050324411430900000000000043000000000043000002000000010410408260248450005753414940826000363235888   1030000300030000   598300001210000000000000817CB BANK                SHWE TAUNG EN MMR11008260248450005750826000000000000000   10300001F00104100000000005160000000000000     
100   95050325630928770000000000002970000000002970002000000010410408270928185818173933600827000007723559   1020000200030000   333400010001204104000000281Myanmar Soft-Gate Tech Yangon        MMR11008270928185818170827000000000000000   10300001F05104100000000000624000000000000     
100   62911028202290100000000000078571000000078571002000000010410408270524153936224773800827157541115238   1030000900030000   554119000347190110000000214New Day Energy MTN     YANGONARTAUNG MMR11008270524153936220827000000000000000   10300001F00104100000000002357000000000000     
100   95050324154190880000000000024000000000024000002000000010410408260516030023824230250826223811002382   1030000500030000   598320001203000015172200012MAX ENERGY             PTN           MMR11008260516030023820826000000000000000   10300001 00104100000000002880000000000000     
