100   95050314557307430000000000001980000000001980002000000010410408281216214621982312820828000007727802   1020000200030000   333400010001204104000000281Myanmar Soft-Gate Tech Yangon        MMR11008281216214621980828000000000000000   10300001F05104100000000000416000000000000     
100   62443100300792360000000000029294000000029294002000000010410408280746121487447830300828161284259995   1040001400030000   806210000098028062100000766Yoma OUE Pun Hlaing Ho pital  Yoma O MMR11008280746121487440828000000000000000   10300001 00104100000000007030000000000000     
100   95050317084233280000000000000990000000000990002000000010410408281343481348389688630828000007728084   1020000200030000   333400010001204104000000281Myanmar Soft-Gate Tech Yangon        MMR11008281343481348380828000000000000000   10300001F05104100000000000208000000000000     
100   95050314979630620000000000000990000000000990002000000010410408271655582558914748910828000007725139   1020000200030000   333400010001204104000000281Myanmar Soft-Gate Tech Yangon        MMR11008271655582558910828000000000000000   10300001F05104100000000000208000000000000     
100   95050312210363590000000000008000000000008000002000000010410408281359032903461341110828000007728147   1030000200030000   333800010001203104000003327KBZPay                 Yangon        MMR11008281359032903460828000000000000000   10300001F05104100000000001680000000000000     
100   95050317084233280000000000000990000000000990002000000010410408281312304230886213470828000007727962   1020000200030000   333400010001204104000000281Myanmar Soft-Gate Tech Yangon        MMR11008281312304230880828000000000000000   10300001F05104100000000000208000000000000     
100   95050315158357300000000000000990000000000990002000000010410408281414474447037610660828000007728200   1020000200030000   333400010001204104000000281Myanmar Soft-Gate Tech Yangon        MMR11008281414474447030828000000000000000   10300001F05104100000000000208000000000000     
100   95050316355723530000000000000990000000000990002000000010410408281106063606935787990828000007727547   1020000200030000   333400010001204104000000281Myanmar Soft-Gate Tech Yangon        MMR11008281106063606930828000000000000000   10300001F05104100000000000208000000000000     
100   95030317922148660000000000025000000000025000002000000010410408280752464205504773800828526221446239   1030000900030000   729819000768190110000000600Urban Beauty Studio    YANGON        MMR11008280752464205500828000000000000000   10300001F00104100000000001500000000000000     
100   95050324200302760000000000016000000000016000002000000010410408280541164176667575010828896111216239   1030000900030000   541119001508190110000001102Ocean MGDTM-C 1        YANGONADON    MMR11008280541164176660828000000000000000   10300001F00104100000000004000000000000000     
100   62911028202068690000000000024550000000024550002000000010410408280713074196164773800828971431307239   1030000900030000   541119001207190110000000948City Mart YK C 5       YANGONAUNG    MMR11008280713074196160828000000000000000   10300001F00104100000000001473000000000000     
100   62911028202700480000000000181650000000181650002000000010410408280859434221324773800828479291543239   1030000900030000   541119001267190110000000958City Mart PLST C 10    YANGONMYOTHIT MMR11008280859434221320828000000000000000   10300001F00104100000000010899000000000000     
100   95050312240830690000000000000499000000000499002000000010410408280541381138064184950828000007726288   1030000200030000   3333000100012031040000040282C2P (Myanmar) Co. Ltd Yangon        MMR11008280541381138060828000000000000000   10300001F05104100000000010000000000000000     
100   95050313396828960000000000004950000000004950002000000010410408281111544154982483020828000007727575   1020000200030000   333400010001204104000000281Myanmar Soft-Gate Tech Yangon        MMR11008281111544154980828000000000000000   10300001F05104100000000001040000000000000     
100   95050314979630620000000000000990000000000990002000000010410408281322155215546298570828000007727998   1020000200030000   333400010001204104000000281Myanmar Soft-Gate Tech Yangon        MMR11008281322155215540828000000000000000   10300001F05104100000000000208000000000000     
100   95050313396828960000000000000990000000000990002000000010410408280338370837721990170828000007725814   1020000200030000   333400010001204104000000281Myanmar Soft-Gate Tech Yangon        MMR11008280338370837720828000000000000000   10300001F05104100000000000208000000000000     
100   62911028202222620000000000009400000000009400002000000010410408280311034144464773800828181410903239   1030000900030000   541119000113190110000000077Sein Gay Har Chinatown YANGON        MMR11008280311034144460828000000000000000   10300001F00104100000000000564000000000000     
100   95030323161862590000000000076146000000076146002000000010410408281201524266124773800828235311852239   1030000900030000   701119000075190110000000024Lotte Hotel            YANGON        MMR11008281201524266120828000000000000000   10300001F00104100000000007767000000000000     
100   62443100330048680000000000035300000000035300002000000010410408280636360636465837430828000007726532   1030000200030000   333800010001203104000003327KBZPay                 Yangon        MMR11008280636360636460828000000000000000   10300001F05104100000000007413000000000000     
100   95030357919784470000000000191500000000191500002000000010410408280809234209564773800828776391423239   1030000900030000   591219000796190110000000628Shwe Ohh Pharmacy ST-3 YANGONMYOTHIT MMR11008280809234209560828000000000000000   10300001F00104100000000011490000000000000     
100   95050314307746340000000000000990000000000990002000000010410408280640161016660794880828000007726545   1020000200030000   333400010001204104000000281Myanmar Soft-Gate Tech Yangon        MMR11008280640161016660828000000000000000   10300001F05104100000000000208000000000000     
100   62911028202484810000000000030000000000030000002000000010410408280903154222124773800828528331515239   1030000900030000   554119001100190110000000212New Day Energy PZD     YANGON        MMR11008280903154222120828000000000000000   10300001F00104100000000000900000000000000     
100   95050313497815710000000000020000000000020000002000000010410408280417044704690454500828000007725971   1030000200030000   333800010001203104000003327KBZPay                 Yangon        MMR11008280417044704690828000000000000000   10300001F05104100000000004200000000000000     
100   95050319156011610000000000000990000000000990002000000010410408281408033803129263150828000007728173   1020000200030000   333400010001204104000000281Myanmar Soft-Gate Tech Yangon        MMR11008281408033803120828000000000000000   10300001F05104100000000000208000000000000     
100   95050319122743920000000000056234000000056234002000000010410408280352524153007202910828605221052239   1030000900030000   541119001260190110000000958City Mart PLST C 3     YANGONMYOTHIT MMR11008280352524153000828000000000000000   10300001F00104100000000014059000000000000     
100   95050328161730520000000000100000000000100000002000000010410408280513074307986979340828000007726177   1030000200030000   333800010001203104000003327KBZPay                 Yangon        MMR11008280513074307980828000000000000000   10300001F05104100000000021000000000000000     
100   62443100352477880000000000390000000000390000002000000010410408280904074222366688390828540341507239   1030000900030000   59441900111719011000000089829 Jewellery U Chit Ma YANGON        MMR11008280904074222360828000000000000000   10300001F00104100000000093600000000000000     
100   95050324947866880000000000011950000000011950002000000010410408270436230016121806190827223911001612   1030000500030000   541120234401000045411202344CITY EXPRESS (MCS - 28 PTN           MMR11008270436230016120827000000000000000   10300001 00104100000000002988000000000000     
100   62911028202443730000000000051200000000051200002000000010410408270353200037824773800827223910003782   1030000500030000   531120226307000045311202263OCEAN SUPER CENTER STJ PTN           MMR11008270353200037820827000000000000000   10300001 00104100000000003072000000000000     
100   95050315099113150000000000000990000000000990002000000010410408271709123912529791460828000007725156   1020000200030000   333400010001204104000000281Myanmar Soft-Gate Tech Yangon        MMR11008271709123912520828000000000000000   10300001F05104100000000000208000000000000     
100   95050321057500320000000000010450000000010450002000000010410408280601214180665667240828109311221239   1030000900030000   591219000610190110000000450Shwe Ohh Pharmacy St-1 YANGONUNG     MMR11008280601214180660828000000000000000   10300001F00104100000000002508000000000000     
100   95050310494988230000000000002970000000002970002000000010410408281207103710897270280828000007727776   1020000200030000   333400010001204104000000281Myanmar Soft-Gate Tech Yangon        MMR11008281207103710890828000000000000000   10300001F05104100000000000624000000000000     
100   95050312539675540000000000000990000000000990002000000010410408280507113711465241750828000007726155   1020000200030000   333400010001204104000000281Myanmar Soft-Gate Tech Yangon        MMR11008280507113711460828000000000000000   10300001F05104100000000000208000000000000     
100   62911028202222620000000000009650000000009650002000000010410408280259374142384773800828083290937239   1030000900030000   541119001462190110000000077Sein Gay Har Chinatown YANGON        MMR11008280259374142380828000000000000000   10300001F00104100000000000579000000000000     
100   62911028202667150000000000118300000000118300002000000010410408280549034178274773800828976191203239   1030000900030000   541119001191190110000000942City Mart HDC C 6      YANGONUT      MMR11008280549034178270828000000000000000   10300001F00104100000000007098000000000000     
100   95030357919784470000000000053000000000053000002000000010410408280758534207064773800828625281453239   1030000900030000   594519000889190110000000698BKB Baby &Toys(NorthDa YANGONMYOTHIT MMR11008280758534207060828000000000000000   10300001F00104100000000003180000000000000     
100   95030390626214130000000000012000000000012000002000000010410408280852394219674773800828382221539239   1030000900030000   541119000117190110000000078Sein Gay Har Kan Thar  YANGONOKKALAP MMR11008280852394219670828000000000000000   10300001F00104100000000000720000000000000     
100   62443100352477880000000000010000000000010000002000000010410408280903284222178340880828531331528239   1030000900030000   59441900111719011000000089829 Jewellery U Chit Ma YANGON        MMR11008280903284222170828000000000000000   10300001F00104100000000002400000000000000     
100   95050324082484780000000000035000000000035000002000000010410408280943554231917100090828126131655239   1030000900030000   541119001303190110000000968Ocean Mingalar MDY C11 MANDALAYHARSI MMR11008280943554231910828000000000000000   10300001F00104100000000008750000000000000     
100   95050314557307430000000000001980000000001980002000000010410408281220235023369518440828000007727812   1020000200030000   333400010001204104000000281Myanmar Soft-Gate Tech Yangon        MMR11008281220235023360828000000000000000   10300001F05104100000000000416000000000000     
100   95050317413015720000000000005000000000005000002000000010410408281324125412079603540828000007728006   1030000200030000   3338000100012031040000040022C2P (Myanmar) Co. Ltd Yangon        MMR11008281324125412070828000000000000000   10300001F05104100000000001050000000000000     
100   95050319709462380000000000003000000000003000002000000010410408280248491849183812850828000007725636   1030000200030000   3338000100012031040000040022C2P (Myanmar) Co. Ltd Yangon        MMR11008280248491849180828000000000000000   10300001F05104100000000000630000000000000     
100   95050312641885210000000000000990000000000990002000000010410408280255302530968770300828000007725666   1020000200030000   333400010001204104000000281Myanmar Soft-Gate Tech Yangon        MMR11008280255302530960828000000000000000   10300001F05104100000000000208000000000000     
100   95050314401921990000000000020000000000020000002000000010410408280210164016197713490828000007725528   1030000200030000   3338000100012031040000040022C2P (Myanmar) Co. Ltd Yangon        MMR11008280210164016190828000000000000000   10300001F05104100000000004200000000000000     
100   95050310427855490000000000001980000000001980002000000010410408272315004500140848260828000007725335   1020000200030000   333400010001204104000000281Myanmar Soft-Gate Tech Yangon        MMR11008272315004500140828000000000000000   10300001F05104100000000000416000000000000     
100   95050319156011610000000000000990000000000990002000000010410408280849521952078596170828000007727013   1020000200030000   333400010001204104000000281Myanmar Soft-Gate Tech Yangon        MMR11008280849521952070828000000000000000   10300001F05104100000000000208000000000000     
100   95050316377977350000000000001700000000001700002000000010410408280452572257923504180828000007726095   1030000200030000   3338000100012031040000040022C2P (Myanmar) Co. Ltd Yangon        MMR11008280452572257920828000000000000000   10300001F05104100000000000357000000000000     
100   62443100388528570000000000018400000000018400002000000010410408280745184203751135270828427151418239   1030000900030000   541119001230190110000000947City Mart TM City Care YANGONONE     MMR11008280745184203750828000000000000000   10300001F00104100000000004600000000000000     
100   95050322740667800000000000300000000000300000002000000010410408281013264326918412180828000007727340   1030000200030000   333800010001203104000003327KBZPay                 Yangon        MMR11008281013264326910828000000000000000   10300001F05104100000000063000000000000000     
100   95050317084233280000000000004950000000004950002000000010410408281148571857563880220828000007727728   1020000200030000   333400010001204104000000281Myanmar Soft-Gate Tech Yangon        MMR11008281148571857560828000000000000000   10300001F05104100000000001040000000000000     
100   95050327416134790000000000001980000000001980002000000010410408281402263226375958190828000007728153   1020000200030000   333400010001204104000000281Myanmar Soft-Gate Tech Yangon        MMR11008281402263226370828000000000000000   10300001F05104100000000000416000000000000     
100   62443100345308040000000000018000000000018000002000000010410408281106333633727440470828000007727554   1030000900030000   333300010001202104000003814Dinger                 Yangon        MMR11008281106333633720828000000000000000   10300001F05104100000000010000000000000000     
100   62443100306045460000000000181000000000181000002000000010410408280709214195243043040828919391321239   1030000900030000   581219001429190110000001033Golden Crab House      YANGON        MMR11008280709214195240828000000000000000   10300001F00104100000000076925000000000000     
100   95050314117051850000000000001000000000001000002000000010410408280358332833973759470828000007725897   1030000200030000   333800010001203104000003327KBZPay                 Yangon        MMR11008280358332833970828000000000000000   10300001F05104100000000000210000000000000     
100   95050312940629360000000000000990000000000990002000000010410408280801563156302957950828000007726847   1020000200030000   333400010001204104000000281Myanmar Soft-Gate Tech Yangon        MMR11008280801563156300828000000000000000   10300001F05104100000000000208000000000000     
100   95030346179196360000000000200400000000200400002000000010410408281010114237944773800828490401611239   1030000900030000   541119001279190110000000963City Mart SPL C 4      YANGONMYOTHIT MMR11008281010114237940828000000000000000   10300001F00104100000000012024000000000000     
100   95030394609966640000000000006600000000006600002000000010410408280258538040824773800828224009804082   1040001600030000   591220000303000000010000291Shwe Ohh Pharmacy (Kyu Yangon        MMR11008280258538040820828000000000000000   10300001F00104100000000000396000000000000     
100   95050310902464360000000000002970000000002970002000000010410408280604413441957319720828000007726384   1020000200030000   333400010001204104000000281Myanmar Soft-Gate Tech Yangon        MMR11008280604413441950828000000000000000   10300001F05104100000000000624000000000000     
100   95050324250133010000000000118300000000118300002000000010410408280349514152463897950828583191051239   1030000900030000   541119000882190110000000084Pro (1) Global (Pazund YANGONARTAUNG MMR11008280349514152460828000000000000000   10300001F00104100000000029575000000000000     
100   95050328303533000000000000029325000000029325002000000010410408280701414193351390560828817311341239   1030000900030000   723019001041190110000000846Beauty Diary IS        YANGONUT      MMR11008280701414193350828000000000000000   10300001F00104100000000007038000000000000     
100   95050316067768680000000000001980000000001980002000000010410408281347201720708036150828000007728101   1020000200030000   333400010001204104000000281Myanmar Soft-Gate Tech Yangon        MMR11008281347201720700828000000000000000   10300001F05104100000000000416000000000000     
100   62443100355903280000000000001980000000001980002000000010410408280349001900673983040828000007725862   1020000200030000   333400010001204104000000281Myanmar Soft-Gate Tech Yangon        MMR11008280349001900670828000000000000000   10300001F05104100000000000416000000000000     
100   95050319156011610000000000000990000000000990002000000010410408280449061906480199210828000007726079   1020000200030000   333400010001204104000000281Myanmar Soft-Gate Tech Yangon        MMR11008280449061906480828000000000000000   10300001F05104100000000000208000000000000     
100   62911028202212490000000000045000000000045000002000000010410408280326244146824773800828269560924239   1030000900030000   581219000715190110000000546Akkhaya Tea House(Dago YANGON        MMR11008280326244146820828000000000000000   10300001F00104100000000004590000000000000     
100   62911028202446540000000000030250000000030250002000000010410408280932384229174773800828971021638239   1030000900030000   591219000795190110000000627Shwe Ohh Pharmacy ST-3 YANGONINDAING MMR11008280932384229170828000000000000000   10300001F00104100000000001815000000000000     
100   95050315245968360000000000014300000000014300002000000010410408281105085204454050410828350840998754   1040001400030000   541110000366025411100002149Sein Daung Super Store Sein Daung Su MMR11008281105085204450828000000000000000   10300001 00104100000000003575000000000000     
100   62911028202446130000000000009500000000009500002000000010410408270708010000974773800827223913000097   1030000500030000   569120135001009505691201350F1 FREE POINT FASHION  PTN           MMR11008270708010000970827000000000000000   10300001 00104100000000000570000000000000     
100   62911028202185670000000000034850000000034850002000000010410408271021000001294773800827223916000129   1030000500030000   541120024603022205411200246ORANGE (THANLYIN)      PTN           MMR11008271021000001290827000000000000000   10300001 00104100000000002091000000000000     
100   62443100390038980000000000049446000000049446002000000010410408271333450006371188650827000363510624   1030000300030000   581200001801000000000001289CB BANK                SHWE KAUNG (S MMR11008271333450006370827000000000000000   10300001F00104100000000021015000000000000     
100   62443101093150400000000000024000000000024000002000000010410408281027078342401802250828224017834240   1040001600030000   598320000658000000010000527Shwe Taung Energy (YGN Yangon        MMR11008281027078342400828000000000000000   10300001F00104100000000002880000000000000     
100   62911028202294570000000000065000000000065000002000000010410408270304020020214773800827223909002021   1030000500030000   598320001001000015172200010MAX ENERGY             PTN           MMR11008270304020020210827000000000000000   10300001 00104100000000001950000000000000     
100   95050320531117320000000000065000000000065000002000000010410408270234130003483884150827223909000348   1030000500030000   806220072803000018062200728WITORIYA HOSPITAL      PTN           MMR11008270234130003480827000000000000000   10300001 00104100000000015600000000000000     
100   95050319528093960000000000000990000000000990002000000010410408280706243624359652980828000007726632   1020000200030000   333400010001204104000000281Myanmar Soft-Gate Tech Yangon        MMR11008280706243624350828000000000000000   10300001F05104100000000000208000000000000     
100   62911028202440680000000000018150000000018150002000000010410408280251108036614773800828224009803661   1040001600030000   591220000296000000010000284Shwe Ohh Pharmacy (Lan Yangon        MMR11008280251108036610828000000000000000   10300001F00104100000000001089000000000000     
100   62911028202163630000000000150250000000150250002000000010410408280610308165654773800828224013816565   1040001600030000   591220000302000000010000290Shwe Ohh Pharmacy (Nor Yangon        MMR11008280610308165650828000000000000000   10300001F00104100000000009015000000000000     
100   95030305700676370000000000080000000000080000002000000010410408280823158252264773800828224015825226   1040001600030000   598320000316000000010000304PT Power Petrol Statio Yangon        MMR11008280823158252260828000000000000000   10300001F00104100000000002400000000000000     
100   62911028202314040000000000002600000000002600002000000010410408270938450008974773800827223916000897   1030000500030000   541120230212000045411202302CITY MART SUPERMARKET  PTN           MMR11008270938450008970827000000000000000   10300001 00104100000000000156000000000000     
100   62911028202581260000000000148800000000148800002000000010410408270749290014504773800827000363462377   1030000300030000   541100002331000000000000102CB BANK                MAKRO MYANMAR MMR11008270749290014500827000000000000000   10300001F00104100000000008928000000000000     
100   62911028202795770000000000003520000000003520002000000010410408270306060004564773800827223909000456   1030000500030000   806220046402006308062200464ASIA ROYAL HOSPITAL    PTN           MMR11008270306060004560827000000000000000   10300001 00104100000000000211000000000000     
100   62911028202163630000000000011100000000011100002000000010410408280603258160894773800828224013816089   1040001600030000   591220000302000000010000290Shwe Ohh Pharmacy (Nor Yangon        MMR11008280603258160890828000000000000000   10300001F00104100000000000666000000000000     
100   62443101007477200000000000150000000000150000002000000010410408270422170022886848730827000363432551   1030000300030000   541100002357000000000000102CB BANK                MAKRO MYANMAR MMR11008270422170022880827000000000000000   10300001F00104100000000037500000000000000     
100   62911028202293090000000000100800000000100800002000000010410408280305578044854773800828224010804485   1040001600030000   591220000273000000010000261Shwe Ohh Pharmacy (WZY Yangon        MMR11008280305578044850828000000000000000   10300001F00104100000000006048000000000000     
100   95050320205194540000000000039700000000039700002000000010410408281138378414060575250828224018841406   1040001600030000   591220000288000000010000276Shwe Ohh Pharmacy (Nor Yangon        MMR11008281138378414060828000000000000000   10300001F00104100000000009528000000000000     
100   62443100360763680000000000082900000000082900002000000010410408280202508011056061000828224009801105   1040001600030000   591220000287000000010000275Shwe Ohh Pharmacy (Wit Yangon        MMR11008280202508011050828000000000000000   10300001F00104100000000019896000000000000     
100   62911028202116120000000000060000000000060000002000000010410408271055200000634773800827000363489614   1030000300030000   597700002182000000000001454CB BANK                JERICHO COSME MMR11008271055200000630827000000000000000   10300001F00104100000000003600000000000000     
100   62911028202446540000000000023500000000023500002000000010410408280900388276784773800828224016827678   1040001600030000   591220000274000000010000262Shwe Ohh Pharmacy (Shw Yangon        MMR11008280900388276780828000000000000000   10300001F00104100000000001410000000000000     
100   95050322478649490000000000100000000000100000002000000010410408281323095309134646080828000007728000   1030000200030000   333800010001203104000003327KBZPay                 Yangon        MMR11008281323095309130828000000000000000   10300001F05104100000000021000000000000000     
100   62911028202499270000000000013000000000013000002000000010410408270856150004094773800827223915000409   1030000500030000   531120155801000045311201558GAMONE PWINT           PTN           MMR11008270856150004090827000000000000000   10300001 00104100000000000780000000000000     
100   62443100369813440000000000020000000000020000002000000010410408270701400020686522140827223913002068   1030000500030000   598320001301000015172200013MAX ENERGY             PTN           MMR11008270701400020680827000000000000000   10300001 00104100000000002400000000000000     
100   62911028202314040000000000042900000000042900002000000010410408270937210008964773800827223916000896   1030000500030000   541120230212000045411202302CITY MART SUPERMARKET  PTN           MMR11008270937210008960827000000000000000   10300001 00104100000000002574000000000000     
100   62911028202109290000000000117000000000117000002000000010410408270757440002334773800827223914000233   1030000500030000   569920080901000015699200809ERKE SPORT GOODS SHOP  PTN           MMR11008270757440002330827000000000000000   10300001 00104100000000007020000000000000     
100   95050324200302760000000000025500000000025500002000000010410408270847020004054614370827223915000405   1030000500030000   531120155801000045311201558GAMONE PWINT           PTN           MMR11008270847020004050827000000000000000   10300001 00104100000000006120000000000000     
100   95050317376014640000000000008200000000008200002000000010410408270449330016440068610827223911001644   1030000500030000   531120155802000045311201558GAMONE PWINT           PTN           MMR11008270449330016440827000000000000000   10300001 00104100000000001968000000000000     
100   95050322149411750000000000030000000000030000002000000010410408270119430020374650020827223907002037   1030000500030000   598320001301000015172200013MAX ENERGY             PTN           MMR11008270119430020370827000000000000000   10300001 00104100000000003600000000000000     
100   95050329734064360000000000020000000000020000002000000010410408270807070020696437040827223914002069   1030000500030000   598320001202000015172200012MAX ENERGY             PTN           MMR11008270807070020690827000000000000000   10300001 00104100000000002400000000000000     
100   62911028202136750000000000018690000000018690002000000010410408270958220001474773800827223916000147   1030000500030000   581220063601005905812200636CELLAR DOOR WINE BISTR PTN           MMR11008270958220001470827000000000000000   10300001 00104100000000001906000000000000     
100   62911028202451150000000000033900000000033900002000000010410408271147330016204773800827223918001620   1030000500030000   541120229002000045411202290CITY MART SUPERMARKET  PTN           MMR11008271147330016200827000000000000000   10300001 00104100000000002034000000000000     
100   62911028202179990000000000068263000000068263002000000010410408271119550016834773800827223917001683   1030000500030000   531120226303000045311202263OCEAN SUPER CENTER STJ PTN           MMR11008271119550016830827000000000000000   10300001 00104100000000004096000000000000     
100   95050323749862420000000000057000000000057000002000000010410408270334070020379181990827223910002037   1030000500030000   598320001304000015172200013MAX ENERGY             PTN           MMR11008270334070020370827000000000000000   10300001 00104100000000006840000000000000     
100   62443100375796910000000000130000000000130000002000000010410408270253040017320579190827223909001732   1030000500030000   598320001603000015172200016MAX ENERGY             PTN           MMR11008270253040017320827000000000000000   10300001 00104100000000015600000000000000     
100   62911028202142930000000000020000000000020000002000000010410408270724550019484773800827223913001948   1030000500030000   598320002104000015172200021MAX ENERGY             PTN           MMR11008270724550019480827000000000000000   10300001 00104100000000000600000000000000     
100   62911028202935520000000000040450000000040450002000000010410408271040540021484773800827223917002148   1030000500030000   531120231228000045311202312OCEAN OATTARA THIRI    PTN           MMR11008271040540021480827000000000000000   10300001 00104100000000002427000000000000     
100   62911028202031710000000000045000000000045000002000000010410408270103520021594773800827223907002159   1030000500030000   598320001404000015172200014MAX ENERGY             PTN           MMR11008270103520021590827000000000000000   10300001 00104100000000001350000000000000     
100   95030338164853990000000000119800000000119800002000000010410408270541520002724773800827223912000272   1030000500030000   591220010401014405912200104SHWE OHH PHARMACY      PTN           MMR11008270541520002720827000000000000000   10300001 00104100000000007188000000000000     
100   62911028202542160000000000103130000000103130002000000010410408270610160003864773800827223912000386   1030000500030000   806220172402013008062201724GRAND HANTHA HOSPITAL  PTN           MMR11008270610160003860827000000000000000   10300001 00104100000000006188000000000000     
100   62911028202446130000000000013950000000013950002000000010410408270746150006794773800827223914000679   1030000500030000   581220263901000085812202639BREAD TALK             PTN           MMR11008270746150006790827000000000000000   10300001 00104100000000001423000000000000     
100   62911028202248050000000000110456000000110456002000000010410408271104080009544773800827223917000954   1030000500030000   531120231205000045311202312OCEAN OATTARA THIRI    PTN           MMR11008271104080009540827000000000000000   10300001 00104100000000006627000000000000     
100   62911028202169750000000000050000000000050000002000000010410408270740190010434773800827223914001043   1030000500030000   598320015601000045983200156REGENCY PETROL STATION PTN           MMR11008270740190010430827000000000000000   10300001 00104100000000001500000000000000     
100   62443100396287690000000000010680000000010680002000000010410408270953230010312621500827000363480379   1030000300030000   531100001592000000000001135CB BANK                PRONTO REALTY MMR11008270953230010310827000000000000000   10300001F00104100000000002563000000000000     
100   62911028202010010000000001500000000001500000002000000010410408270926280001904773800827223915000190   1030000500030000   806220009105024108062200091ARYU INTL HOSPITAL     PTN           MMR11008270926280001900827000000000000000   10300001 00104100000000090000000000000000     
100   62911028202162640000000000237100000000237100002000000010410408270957340004564773800827223916000456   1030000500030000   591220132901008605912201329THEIK DI WIN SHOP      PTN           MMR11008270957340004560827000000000000000   10300001 00104100000000014226000000000000     
100   62911028202520380000000000017200000000017200002000000010410408271318160009894773800827223919000989   1030000500030000   541120020701022205411200207ORANGE (YDG)           PTN           MMR11008271318160009890827000000000000000   10300001 00104100000000001032000000000000     
100   62911028202935520000000000190000000000190000002000000010410408271024080001864773800827223916000186   1030000500030000   569120102701008205691201027ESCORT                 PTN           MMR11008271024080001860827000000000000000   10300001 00104100000000011400000000000000     
100   62911028202407100000000000012000000000012000002000000010410408271122340004594773800827223917000459   1030000500030000   591220132901008605912201329THEIK DI WIN SHOP      PTN           MMR11008271122340004590827000000000000000   10300001 00104100000000000720000000000000     
100   95030305700676370000000000042550000000042550002000000010410408270349490000664773800827223910000066   1030000500030000   581220310801000085812203108J'DONUTS (MAHA LAND)   PTN           MMR11008270349490000660827000000000000000   10300001 00104100000000004340000000000000     
100   62911028202116120000000000129660000000129660002000000010410408271031590012564773800827223917001256   1030000500030000   531120226316000045311202263OCEAN SUPER CENTER STJ PTN           MMR11008271031590012560827000000000000000   10300001 00104100000000007780000000000000     
100   95050320996331370000000000027700000000027700002000000010410408271500510003948138970827000363520202   1030000300030000   531100001240000000000000842CB BANK                G & G CONVENI MMR11008271500510003940827000000000000000   10300001F00104100000000006648000000000000     
100   62443100394632170000000000700000000000700000002000000010410408280910380000809993360828000752761663   1030000200030000   509488001530000008000004966KBZ BANK               TAH LEE GOLD  MMR11008280910380000800828000000000000000   10300001 00104100000000280000000000000000     
100   62443100300792360000000000160000000000160000002000000010410408280431050008868887110828000752747160   1030000200030000   804381231168000008000001730KBZ BANK               AMERICAN VISI MMR11008280431050008860828000000000000000   10300001 00104100000000038400000000000000     
100   62443101001072630000000000004800000000004800002000000010410408281525210012829908270828000752760946   1030000200030000   541188001369000008000000395KBZ BANK               OCEAN SUPERMA MMR11008281525210012820828000000000000000   10300001 00104100000000001200000000000000     
100   62911028202291190000000000013900000000013900002000000010410408281241510015914773800828000752752459   1030000200030000   541188001082000008000000294KBZ BANK               CITY MART - J MMR11008281241510015910828000000000000000   10300001 00104100000000000834000000000000     
100   62911028202611530000000000023300000000023300002000000010410408281413350116564773800828000752757153   1030000200030000   541188001062000008000000314KBZ BANK               MARKETPLACE - MMR11008281413350116560828000000000000000   10300001 00104100000000001398000000000000     
100   62911028202154800000000000029850000000029850002000000010410408281350100147564773800828000752756001   1030000200030000   541188001065000008000000314KBZ BANK               MARKETPLACE - MMR11008281350100147560828000000000000000   10300001 00104100000000001791000000000000     
100   62443100306045460000000000028000000000028000002000000010410408280440460025992277170828000752747703   1030000200030000   806288001903000008000001738KBZ BANK               SHWE GONE DIN MMR11008280440460025990828000000000000000   10300001 00104100000000006720000000000000     
100   62911028202221220000000000006650000000006650002000000010410408280713390088954773800828000752739196   1030000200030000   541188001005000008000000008KBZ BANK               MARKETPLACE - MMR11008280713390088950828000000000000000   10300001 00104100000000000399000000000000     
100   95050317185868580000000000028647000000028647002000000010410408271041240004478805950827000363487467   1030000300030000   541100001223000000000000830CB BANK                PROMART       MMR11008271041240004470827000000000000000   10300001F00104100000000007162000000000000     
100   62443100340422630000000000032800000000032800002000000010410408270848130001716266850827223915000171   1030000500030000   591220012501014405912200125SHWE OHH PHARMACY      PTN           MMR11008270848130001710827000000000000000   10300001 00104100000000007872000000000000     
100   62911028202611530000000000033350000000033350002000000010410408271119190047594773800827223917004759   1030000500030000   541120230002000045411202300MARKET PLACE BY CITY M PTN           MMR11008271119190047590827000000000000000   10300001 00104100000000002001000000000000     
100   62911028202328810000000000043226000000043226002000000010410408271033480057744773800827223917005774   1030000500030000   541120226402000045411202264MARKET PLACE MYANMARPL PTN           MMR11008271033480057740827000000000000000   10300001 00104100000000002594000000000000     
100   95050322220807920000000000037250000000037250002000000010410408270945560076855926460827000363479342   1030000300030000   541100000151000000000000074CB BANK                ROYAL MART SU MMR11008270945560076850827000000000000000   10300001F00104100000000009313000000000000     
100   95030399326190680000000000121277000000121277002000000010410408270545440033174773800827223912003317   1030000500030000   541120227606000045411202276CITY MART ( 47 BRANCH  PTN           MMR11008270545440033170827000000000000000   10300001 00104100000000007277000000000000     
100   62911028202443730000000000054900000000054900002000000010410408270401200037834773800827223910003783   1030000500030000   531120226307000045311202263OCEAN SUPER CENTER STJ PTN           MMR11008270401200037830827000000000000000   10300001 00104100000000003294000000000000     
100   62443100323428970000000000121330000000121330002000000010410408271119040050908309160827223917005090   1030000500030000   541120226804000045411202268CITY MART WAIZAYANDA   PTN           MMR11008271119040050900827000000000000000   10300001 00104100000000030333000000000000     
100   62911028202555020000000000032050000000032050002000000010410408281642000084644773800828000752764711   1030000200030000   541188001286000008000000472KBZ BANK               NEIGHBOURHOOD MMR11008281642000084640828000000000000000   10300001 00104100000000001923000000000000     
100   62911028202326180000000000015900000000015900002000000010410408281429120036284773800828000752757976   1030000200030000   541188001452000008000000391KBZ BANK               OCEAN SUPER C MMR11008281429120036280828000000000000000   10300001 00104100000000000954000000000000     
100   62911028202291190000000000038200000000038200002000000010410408281231080056534773800828000752751960   1030000200030000   541188001085000008000000294KBZ BANK               CITY MART - J MMR11008281231080056530828000000000000000   10300001 00104100000000002292000000000000     
100   62911028202693960000000000500000000000500000002000000010410408280425340023544773800828000752746846   1030000200030000   806288000932000008000001738KBZ BANK               SHWE GONE DIN MMR11008280425340023540828000000000000000   10300001 00104100000000030000000000000000     
100   95050326511614440000000000010300000000010300002000000010410408281208420035079227500828000752750791   1030000200030000   541188001311000008000000325KBZ BANK               CITY MART - A MMR11008281208420035070828000000000000000   10300001 00104100000000002575000000000000     
100   95050314979630620000000000000990000000000990002000000010410408281536060606942653210828000007728452   1020000200030000   333400010001204104000000281Myanmar Soft-Gate Tech Yangon        MMR11008281536060606940828000000000000000   10300001F05104100000000000208000000000000     
100   62911028202674810000000000014600000000014600002000000010410408281642560298394773800828000752764766   1030000200030000   541188001059000008000000314KBZ BANK               MARKETPLACE - MMR11008281642560298390828000000000000000   10300001 00104100000000000876000000000000     
100   95030318192435180000000000015750000000015750002000000010410408281016260235214773800828000752744756   1030000200030000   541188001080000008000000294KBZ BANK               CITY MART - J MMR11008281016260235210828000000000000000   10300001 00104100000000000945000000000000     
100   62911028202533900000000000030000000000030000002000000010410408270239260021874773800827223909002187   1030000500030000   598320001402000015172200014MAX ENERGY             PTN           MMR11008270239260021870827000000000000000   10300001 00104100000000000900000000000000     
100   62911028202237810000000000014500000000014500002000000010410408270432400039584773800827000363434011   1030000300030000   531100000838000000000000574CB BANK                MGOU-JC       MMR11008270432400039580827000000000000000   10300001F00104100000000000870000000000000     
100   62443101007477200000000000049400000000049400002000000010410408270448160040613373570827000363436141   1030000300030000   541100002367000000000000102CB BANK                MAKRO MYANMAR MMR11008270448160040610827000000000000000   10300001F00104100000000012350000000000000     
100   62911028202502480000000000033000000000033000002000000010410408270709010022034773800827223913002203   1030000500030000   598320001404000015172200014MAX ENERGY             PTN           MMR11008270709010022030827000000000000000   10300001 00104100000000000990000000000000     
100   62911028202407100000000000050000000000050000002000000010410408270106240021794773800827223907002179   1030000500030000   598320001402000015172200014MAX ENERGY             PTN           MMR11008270106240021790827000000000000000   10300001 00104100000000001500000000000000     
100   95050324767581840000000000047450000000047450002000000010410408270517210026672061480827223911002667   1030000500030000   541120203705000015411202037CITY MART SUPERMARKET  PTN           MMR11008270517210026670827000000000000000   10300001 00104100000000011863000000000000     
100   62911028202169750000000000063900000000063900002000000010410408270759080042284773800827000363463829   1030000300030000   598300000256000000000000141CB BANK                PETRO K -1    MMR11008270759080042280827000000000000000   10300001F00104100000000001917000000000000     
100   62911028202216940000000000012820000000012820002000000010410408270344370041344773800827223910004134   1030000500030000   541120203706000015411202037CITY MART SUPERMARKET  PTN           MMR11008270344370041340827000000000000000   10300001 00104100000000000769000000000000     
100   62911028202169750000000000001600000000001600002000000010410408280935304230044773800828016051630239   1030000900030000   591219000695190110000000526Shwe Ohh Pharmacy ST-2 YANGONNGKUUN  MMR11008280935304230040828000000000000000   10300001F00104100000000000096000000000000     
100   62443101083052160000000000192150000000192150002000000010410408281401124291294305700828785312012239   1030000900030000   581219000369190110000000241Beauty In The Pot (PHS YANGON        MMR11008281401124291290828000000000000000   10300001F00104100000000081664000000000000     
100   95050322740667800000000000100000000000100000002000000010410408281015254525618497280828000007727345   1030000200030000   333800010001203104000003327KBZPay                 Yangon        MMR11008281015254525610828000000000000000   10300001F05104100000000021000000000000000     
100   62911028202217690000000000060000000000060000002000000010410408280822075207354773800828000007726913   1030000200030000   333800010001203104000003327KBZPay                 Yangon        MMR11008280822075207350828000000000000000   10300001F05104100000000012600000000000000     
100   95050313843656520000000000002970000000002970002000000010410408280213494349625975910828000007725546   1020000200030000   333400010001204104000000281Myanmar Soft-Gate Tech Yangon        MMR11008280213494349620828000000000000000   10300001F05104100000000000624000000000000     
100   95050315245968360000000000034950000000034950002000000010410408281128416695994220600828584180682777   1040001400030000   541110000255025411100002149Sein Daung Super Store Sein Daung Su MMR11008281128416695990828000000000000000   10300001 00104100000000008738000000000000     
100   95050318141561190000000000010000000000010000002000000010410408280141051105082841130828000007725450   1040001600030000   333800010001220104000004507A +                    Yangon        MMR11008280141051105080828000000000000000   10300001F05104100000000002100000000000000     
100   95050327192897240000000000000990000000000990002000000010410408281221125112377865950828000007727815   1020000200030000   333400010001204104000000281Myanmar Soft-Gate Tech Yangon        MMR11008281221125112370828000000000000000   10300001F05104100000000000208000000000000     
100   95050326593223450000000000113380000000113380002000000010410408271046427525252110920827223917752525   1040001600030000   806220001354000000010001061Grand Hantha Internati Ygn           MMR11008271046427525250827000000000000000   10300001F00104100000000027211000000000000     
100   62911028202916630000000000063400000000063400002000000010410408271308367676874773800827223920767687   1040001600030000   581420001476000000010001168Party House (Pinlon)   Ygn           MMR11008271308367676870827000000000000000   10300001F00104100000000001902000000000000     
100   62911028202027440000000000023000000000023000002000000010410408261038590000744773800826223817000074   1030000500030000   569920200001000025699202000ERKE SPORT GOODS SHOP  PTN           MMR11008261038590000740826000000000000000   10300001 00104100000000001380000000000000     
100   95050319528093960000000000001980000000001980002000000010410408281432150215899348240828000007728260   1020000200030000   333400010001204104000000281Myanmar Soft-Gate Tech Yangon        MMR11008281432150215890828000000000000000   10300001F05104100000000000416000000000000     
100   95050320928153430000000000027860000000027860002000000010410408280624304185407404820828373541230239   1030000900030000   541119001076190110000000872Sein Gay Har Hledan    YANGONUT      MMR11008280624304185400828000000000000000   10300001F00104100000000006965000000000000     
100   95050312675873230000000000007000000000007000002000000010410408280154192419211018460828000007725478   1030000200030000   333800010001203104000003327KBZPay                 Yangon        MMR11008280154192419210828000000000000000   10300001F05104100000000001470000000000000     
100   95050313400081980000000000005000000000005000002000000010410408280259442944458685200828000007725678   1030000200030000   333800010001203104000003327KBZPay                 Yangon        MMR11008280259442944450828000000000000000   10300001F05104100000000001050000000000000     
100   62911028202667150000000000173400000000173400002000000010410408280546524177714773800828949161252239   1030000900030000   541119001189190110000000942City Mart HDC C 4      YANGONUT      MMR11008280546524177710828000000000000000   10300001F00104100000000010404000000000000     
