100   3550998519631025000000000000600000000000000339900056513110484004040730420000381502800404209414000038   10300001   88407000581210001401777031200000014MOB BANK               YGN           MMR11004040730420000380404000000000000000   88070000 00104100000000000000000000000007     
100   3550998519711058000000000000624000000000000352900056513110484004040731260000391504520404209414000039   10300001   88407000581210001401777031200000014MOB BANK               YGN           MMR11004040731260000390404000000000000000   88070000 00104100000000000000000000000007     
100   3550998519781002000000000000755000000000000426900056513110484004040742450000401600800404209414000040   10300001   88407000581210001401777031200000014MOB BANK               YGN           MMR11004040742450000400404000000000000000   88070000 00104100000000000000000000000009     
